{
  "contractName": "Controller",
  "abi": [
    {
      "constant": true,
      "inputs": [],
      "name": "minimumDeliveryFee",
      "outputs": [
        {
          "name": "",
          "type": "uint256"
        }
      ],
      "payable": false,
      "stateMutability": "view",
      "type": "function",
      "signature": "0x5ed097f3"
    },
    {
      "constant": true,
      "inputs": [],
      "name": "customerFactoryAddress",
      "outputs": [
        {
          "name": "",
          "type": "address"
        }
      ],
      "payable": false,
      "stateMutability": "view",
      "type": "function",
      "signature": "0x6455e5ac"
    },
    {
      "constant": true,
      "inputs": [],
      "name": "restaurantFactoryAddress",
      "outputs": [
        {
          "name": "",
          "type": "address"
        }
      ],
      "payable": false,
      "stateMutability": "view",
      "type": "function",
      "signature": "0x68db65a4"
    },
    {
      "constant": true,
      "inputs": [],
      "name": "owner",
      "outputs": [
        {
          "name": "",
          "type": "address"
        }
      ],
      "payable": false,
      "stateMutability": "view",
      "type": "function",
      "signature": "0x8da5cb5b"
    },
    {
      "constant": true,
      "inputs": [],
      "name": "riderFactoryAddress",
      "outputs": [
        {
          "name": "",
          "type": "address"
        }
      ],
      "payable": false,
      "stateMutability": "view",
      "type": "function",
      "signature": "0xc9286d57"
    },
    {
      "inputs": [],
      "payable": false,
      "stateMutability": "nonpayable",
      "type": "constructor",
      "signature": "constructor"
    },
    {
      "constant": false,
      "inputs": [
        {
          "name": "_restaurantFactoryAddress",
          "type": "address"
        },
        {
          "name": "_customerFactoryAddress",
          "type": "address"
        },
        {
          "name": "_riderFactoryAddress",
          "type": "address"
        }
      ],
      "name": "setFactoryAddresses",
      "outputs": [],
      "payable": false,
      "stateMutability": "nonpayable",
      "type": "function",
      "signature": "0xba89c916"
    },
    {
      "constant": false,
      "inputs": [
        {
          "name": "newFee",
          "type": "uint256"
        }
      ],
      "name": "updateMinDeliveryFee",
      "outputs": [],
      "payable": false,
      "stateMutability": "nonpayable",
      "type": "function",
      "signature": "0xa5b8f59d"
    },
    {
      "constant": true,
      "inputs": [
        {
          "name": "data",
          "type": "bytes32"
        }
      ],
      "name": "getHash",
      "outputs": [
        {
          "name": "",
          "type": "bytes32"
        }
      ],
      "payable": false,
      "stateMutability": "pure",
      "type": "function",
      "signature": "0x3cf5040a"
    }
  ],
  "bytecode": "0x608060405234801561001057600080fd5b5060008054600160a060020a0319163317905566071afd498d00006004556103378061003d6000396000f3fe60806040526004361061008d5763ffffffff7c01000000000000000000000000000000000000000000000000000000006000350416633cf5040a81146100925780635ed097f3146100ce5780636455e5ac146100e357806368db65a4146101145780638da5cb5b14610129578063a5b8f59d1461013e578063ba89c9161461016a578063c9286d57146101af575b600080fd5b34801561009e57600080fd5b506100bc600480360360208110156100b557600080fd5b50356101c4565b60408051918252519081900360200190f35b3480156100da57600080fd5b506100bc6101e8565b3480156100ef57600080fd5b506100f86101ee565b60408051600160a060020a039092168252519081900360200190f35b34801561012057600080fd5b506100f86101fd565b34801561013557600080fd5b506100f861020c565b34801561014a57600080fd5b506101686004803603602081101561016157600080fd5b503561021b565b005b34801561017657600080fd5b506101686004803603606081101561018d57600080fd5b50600160a060020a038135811691602081013582169160409091013516610299565b3480156101bb57600080fd5b506100f86102fc565b60408051602080820193909352815180820384018152908201909152805191012090565b60045481565b600254600160a060020a031681565b600154600160a060020a031681565b600054600160a060020a031681565b600054600160a060020a0316331461029457604080517f08c379a000000000000000000000000000000000000000000000000000000000815260206004820152601560248201527f796f7520617265206e6f7420746865206f776e65720000000000000000000000604482015290519081900360640190fd5b600455565b600054600160a060020a031633146102b057600080fd5b60018054600160a060020a0394851673ffffffffffffffffffffffffffffffffffffffff1991821617909155600280549385169382169390931790925560038054919093169116179055565b600354600160a060020a03168156fea165627a7a7230582051782de5bf99a20139e587af5d85f2b8fa1be35f8f755d65d42bfd2ba777ecd60029",
  "source": "pragma solidity ^0.5.0;\n\nimport \"./RestaurantFactory.sol\";\nimport \"./CustomerFactory.sol\";\nimport \"./RiderFactory.sol\";\n\n\ncontract Controller {\n\n\taddress public owner;\n\t\n\taddress public restaurantFactoryAddress;\n\taddress public customerFactoryAddress;\n\taddress public riderFactoryAddress;\n\n\tuint public minimumDeliveryFee;\n\n\n\tconstructor() public{\n\t\towner = msg.sender;\n\t\tminimumDeliveryFee = 2000000000000000; // set min delivery fee to 0.02 eth\n\t}\n\n\tfunction setFactoryAddresses(address _restaurantFactoryAddress, address _customerFactoryAddress, address _riderFactoryAddress) public{\n\t\trequire(msg.sender == owner);\n\t\trestaurantFactoryAddress = _restaurantFactoryAddress;\n\t\tcustomerFactoryAddress = _customerFactoryAddress;\n\t\triderFactoryAddress = _riderFactoryAddress;\n\t}\n\n\tfunction updateMinDeliveryFee(uint newFee) public{\n\t\trequire(msg.sender == owner,\"you are not the owner\");\n\t\tminimumDeliveryFee = newFee;\n\t}\n\n\tfunction getHash(bytes32 data) public pure returns(bytes32){\n\t\treturn keccak256(abi.encodePacked(data));\n\t}\n}",
  "sourcePath": "/home/george/Documents/TryAByte/contracts/Controller.sol",
  "compiler": {
    "name": "solc",
    "version": "0.5.0+commit.1d4f565a.Emscripten.clang"
  },
  "schemaVersion": "3.0.6",
  "updatedAt": "2019-04-15T15:14:33.922Z",
  "devdoc": {
    "methods": {}
  },
  "userdoc": {
    "methods": {}
  }
}