{
  "contractName": "Controller",
  "abi": [
    {
      "inputs": [],
      "payable": false,
      "stateMutability": "nonpayable",
      "type": "constructor"
    },
    {
      "constant": true,
      "inputs": [],
      "name": "customerFactoryAddress",
      "outputs": [
        {
          "internalType": "address",
          "name": "",
          "type": "address"
        }
      ],
      "payable": false,
      "stateMutability": "view",
      "type": "function"
    },
    {
      "constant": true,
      "inputs": [],
      "name": "minimumDeliveryFee",
      "outputs": [
        {
          "internalType": "uint256",
          "name": "",
          "type": "uint256"
        }
      ],
      "payable": false,
      "stateMutability": "view",
      "type": "function"
    },
    {
      "constant": true,
      "inputs": [],
      "name": "owner",
      "outputs": [
        {
          "internalType": "address",
          "name": "",
          "type": "address"
        }
      ],
      "payable": false,
      "stateMutability": "view",
      "type": "function"
    },
    {
      "constant": true,
      "inputs": [],
      "name": "restaurantFactoryAddress",
      "outputs": [
        {
          "internalType": "address",
          "name": "",
          "type": "address"
        }
      ],
      "payable": false,
      "stateMutability": "view",
      "type": "function"
    },
    {
      "constant": true,
      "inputs": [],
      "name": "riderFactoryAddress",
      "outputs": [
        {
          "internalType": "address",
          "name": "",
          "type": "address"
        }
      ],
      "payable": false,
      "stateMutability": "view",
      "type": "function"
    },
    {
      "constant": false,
      "inputs": [
        {
          "internalType": "address",
          "name": "_restaurantFactoryAddress",
          "type": "address"
        },
        {
          "internalType": "address",
          "name": "_customerFactoryAddress",
          "type": "address"
        },
        {
          "internalType": "address",
          "name": "_riderFactoryAddress",
          "type": "address"
        }
      ],
      "name": "setFactoryAddresses",
      "outputs": [],
      "payable": false,
      "stateMutability": "nonpayable",
      "type": "function"
    },
    {
      "constant": false,
      "inputs": [
        {
          "internalType": "uint256",
          "name": "newFee",
          "type": "uint256"
        }
      ],
      "name": "updateMinDeliveryFee",
      "outputs": [],
      "payable": false,
      "stateMutability": "nonpayable",
      "type": "function"
    },
    {
      "constant": true,
      "inputs": [
        {
          "internalType": "bytes32",
          "name": "data",
          "type": "bytes32"
        }
      ],
      "name": "getHash",
      "outputs": [
        {
          "internalType": "bytes32",
          "name": "",
          "type": "bytes32"
        }
      ],
      "payable": false,
      "stateMutability": "pure",
      "type": "function"
    },
    {
      "constant": false,
      "inputs": [],
      "name": "resetApplication",
      "outputs": [],
      "payable": false,
      "stateMutability": "nonpayable",
      "type": "function"
    }
  ],
  "bytecode": "0x608060405234801561001057600080fd5b50600080546001600160a01b0319163317905566071afd498d00006004556104088061003d6000396000f3fe608060405234801561001057600080fd5b50600436106100935760003560e01c80638da5cb5b116100665780638da5cb5b146100fb578063a5b8f59d14610103578063aedbfd7014610122578063ba89c9161461012a578063c9286d571461016257610093565b80633cf5040a146100985780635ed097f3146100c75780636455e5ac146100cf57806368db65a4146100f3575b600080fd5b6100b5600480360360208110156100ae57600080fd5b503561016a565b60408051918252519081900360200190f35b6100b561018e565b6100d7610194565b604080516001600160a01b039092168252519081900360200190f35b6100d76101a3565b6100d76101b2565b6101206004803603602081101561011957600080fd5b50356101c1565b005b61012061021d565b6101206004803603606081101561014057600080fd5b506001600160a01b03813581169160208101358216916040909101351661036e565b6100d76103c4565b60408051602080820193909352815180820384018152908201909152805191012090565b60045481565b6002546001600160a01b031681565b6001546001600160a01b031681565b6000546001600160a01b031681565b6000546001600160a01b03163314610218576040805162461bcd60e51b81526020600482015260156024820152743cb7ba9030b932903737ba103a34329037bbb732b960591b604482015290519081900360640190fd5b600455565b6000546001600160a01b0316331461023457600080fd5b600160009054906101000a90046001600160a01b03166001600160a01b031663d826f88f6040518163ffffffff1660e01b8152600401600060405180830381600087803b15801561028457600080fd5b505af1158015610298573d6000803e3d6000fd5b50505050600260009054906101000a90046001600160a01b03166001600160a01b031663d826f88f6040518163ffffffff1660e01b8152600401600060405180830381600087803b1580156102ec57600080fd5b505af1158015610300573d6000803e3d6000fd5b50505050600360009054906101000a90046001600160a01b03166001600160a01b031663d826f88f6040518163ffffffff1660e01b8152600401600060405180830381600087803b15801561035457600080fd5b505af1158015610368573d6000803e3d6000fd5b50505050565b6000546001600160a01b0316331461038557600080fd5b600180546001600160a01b039485166001600160a01b031991821617909155600280549385169382169390931790925560038054919093169116179055565b6003546001600160a01b03168156fea265627a7a7231582067e5af275d54fe8e26d2fef400d6d90b14df2520e23a79b9288fa44d6f75777f64736f6c634300050c0032",
  "source": "pragma solidity ^0.5.0;\n\nimport \"./RestaurantFactory.sol\";\nimport \"./CustomerFactory.sol\";\nimport \"./RiderFactory.sol\";\n\n\ncontract Controller {\n\n\taddress public owner;\n\t\n\taddress public restaurantFactoryAddress;\n\taddress public customerFactoryAddress;\n\taddress public riderFactoryAddress;\n\n\tuint public minimumDeliveryFee;\n\n\n\tconstructor() public{\n\t\towner = msg.sender;\n\t\tminimumDeliveryFee = 2000000000000000; // set min delivery fee to 0.02 eth\n\t}\n\n\tfunction setFactoryAddresses(address _restaurantFactoryAddress, address _customerFactoryAddress, address _riderFactoryAddress) public{\n\t\trequire(msg.sender == owner);\n\t\trestaurantFactoryAddress = _restaurantFactoryAddress;\n\t\tcustomerFactoryAddress = _customerFactoryAddress;\n\t\triderFactoryAddress = _riderFactoryAddress;\n\t}\n\n\tfunction updateMinDeliveryFee(uint newFee) public{\n\t\trequire(msg.sender == owner,\"you are not the owner\");\n\t\tminimumDeliveryFee = newFee;\n\t}\n\n\tfunction getHash(bytes32 data) public pure returns(bytes32){\n\t\treturn keccak256(abi.encodePacked(data));\n\t}\n\n\t// removes all user accounts and orders.\n\tfunction resetApplication() public { \n\t\trequire(msg.sender == owner);\n\t\tRestaurantFactory(restaurantFactoryAddress).reset();\n\t\tCustomerFactory(customerFactoryAddress).reset();\n\t\tRiderFactory(riderFactoryAddress).reset();\n\t}\n}",
  "sourcePath": "/home/george/Documents/WorkSpace/TryAByte/contracts/Controller.sol",
  "compiler": {
    "name": "solc",
    "version": "0.5.12+commit.7709ece9.Emscripten.clang"
  },
  "schemaVersion": "3.0.19",
  "updatedAt": "2019-12-11T07:41:27.782Z",
  "networkType": "ethereum",
  "devdoc": {
    "methods": {}
  },
  "userdoc": {
    "methods": {}
  }
}