{
  "contractName": "Customer",
  "abi": [
    {
      "inputs": [
        {
          "internalType": "uint256",
          "name": "_id",
          "type": "uint256"
        },
        {
          "internalType": "address",
          "name": "_owner",
          "type": "address"
        },
        {
          "internalType": "address",
          "name": "controllerAddress",
          "type": "address"
        }
      ],
      "payable": false,
      "stateMutability": "nonpayable",
      "type": "constructor"
    },
    {
      "anonymous": false,
      "inputs": [
        {
          "indexed": false,
          "internalType": "address",
          "name": "orderAddress",
          "type": "address"
        },
        {
          "indexed": false,
          "internalType": "bytes32",
          "name": "riderKeyHash",
          "type": "bytes32"
        }
      ],
      "name": "OrderMadeEvent",
      "type": "event"
    },
    {
      "constant": true,
      "inputs": [],
      "name": "controller",
      "outputs": [
        {
          "internalType": "address",
          "name": "",
          "type": "address"
        }
      ],
      "payable": false,
      "stateMutability": "view",
      "type": "function"
    },
    {
      "constant": true,
      "inputs": [],
      "name": "id",
      "outputs": [
        {
          "internalType": "uint256",
          "name": "",
          "type": "uint256"
        }
      ],
      "payable": false,
      "stateMutability": "view",
      "type": "function"
    },
    {
      "constant": true,
      "inputs": [],
      "name": "owner",
      "outputs": [
        {
          "internalType": "address",
          "name": "",
          "type": "address"
        }
      ],
      "payable": false,
      "stateMutability": "view",
      "type": "function"
    },
    {
      "constant": false,
      "inputs": [
        {
          "internalType": "address",
          "name": "orderAddress",
          "type": "address"
        }
      ],
      "name": "signalDelivered",
      "outputs": [],
      "payable": false,
      "stateMutability": "nonpayable",
      "type": "function"
    },
    {
      "constant": true,
      "inputs": [
        {
          "internalType": "uint256",
          "name": "_id",
          "type": "uint256"
        }
      ],
      "name": "getOrder",
      "outputs": [
        {
          "internalType": "address",
          "name": "orderAdderss",
          "type": "address"
        }
      ],
      "payable": false,
      "stateMutability": "view",
      "type": "function"
    },
    {
      "constant": true,
      "inputs": [],
      "name": "getTotalOrders",
      "outputs": [
        {
          "internalType": "uint256",
          "name": "totalOrdersMade",
          "type": "uint256"
        }
      ],
      "payable": false,
      "stateMutability": "view",
      "type": "function"
    }
  ],
  "bytecode": "0x608060405234801561001057600080fd5b5060405161030a38038061030a8339818101604052606081101561003357600080fd5b5080516020820151604090920151600391909155600080546001600160a01b039384166001600160a01b03199182161782556002805494909316938116939093179091556004556001805490911633179055610276806100946000396000f3fe608060405234801561001057600080fd5b50600436106100625760003560e01c8063375f16a7146100675780638da5cb5b14610081578063af640d0f146100a5578063d09ef241146100ad578063e414f38d146100ca578063f77c4791146100f2575b600080fd5b61006f6100fa565b60408051918252519081900360200190f35b610089610119565b604080516001600160a01b039092168252519081900360200190f35b61006f610128565b610089600480360360208110156100c357600080fd5b503561012e565b6100f0600480360360208110156100e057600080fd5b50356001600160a01b0316610162565b005b61008961020d565b600080546001600160a01b0316331461011257600080fd5b5060045490565b6000546001600160a01b031681565b60035481565b600080546001600160a01b0316331461014657600080fd5b506000908152600560205260409020546001600160a01b031690565b6000546001600160a01b031633146101ab5760405162461bcd60e51b815260040180806020018281038252602581526020018061021d6025913960400191505060405180910390fd5b6001600160a01b03811663e9132c4260026040518263ffffffff1660e01b815260040180828152602001915050600060405180830381600087803b1580156101f257600080fd5b505af1158015610206573d6000803e3d6000fd5b5050505050565b6002546001600160a01b03168156fe73656e742066726f6d206164647265737320746861742069736e7420746865206f776e6572a265627a7a72315820cabd08cd0afe3ffc8b8a39018a47094b61ad29f88d2b00e7bf899b10fc4cd6a764736f6c634300050c0032",
  "source": "pragma solidity ^0.5.0;\r\n\r\nimport \"./Restaurant.sol\";\r\nimport \"./Order.sol\";\r\nimport \"./Controller.sol\";\r\n\r\ncontract Customer {\r\n    \r\n    address public owner;\r\n    address customerFactory; // might not need this\r\n    address public controller;\r\n\r\n    uint public id;\r\n    uint totalOrders;\r\n    mapping(uint => address) orders;\r\n\r\n    enum customerState{madeOrder, payed, hasCargo}    \r\n    \r\n    event OrderMadeEvent(\r\n        address orderAddress,\r\n        bytes32 riderKeyHash\r\n    );\r\n    \r\n    constructor(uint _id, address _owner, address controllerAddress) public\r\n    {\r\n        id = _id;\r\n        owner = _owner;\r\n        controller = controllerAddress;\r\n\r\n        totalOrders = 0;\r\n        customerFactory = msg.sender;\r\n    }\r\n    \r\n    // // this function will call the restaurant make order\r\n    // // todo change to reference restaurantID from restFact to reduce cost??\r\n    // function makeOrder(address payable restaurant, uint[] calldata items, uint deliveryFee, bytes32 riderKeyHash) external payable returns (address orderAddress){\r\n    //     require(msg.sender == owner, \"you dont own the customer smart contract\");\r\n    //     //require(RestaurantFactory(restaurantFactoryAddress).restaurantExists(msg.sender));\r\n    //     uint price = Restaurant(restaurant).getOrderPrice(items);\r\n    //     uint minimumDeliveryFee = Controller(controller).minimumDeliveryFee();\r\n    //     require(deliveryFee >= minimumDeliveryFee, \"deliveryFee must be greater than the minimum\");\r\n    //     require(msg.value >= price + deliveryFee,\"sent ether is not enough to cover the order cost and delivery fee\");\r\n        \r\n    //     address orderAddr = Restaurant(restaurant).makeOrder.value(price + deliveryFee)(items, deliveryFee,  riderKeyHash);\r\n    //     msg.sender.transfer(msg.value - (price + deliveryFee)); // return excess payment\r\n    //     orders[totalOrders] = orderAddr;\r\n        \r\n    //     totalOrders++;\r\n\r\n    //     emit OrderMadeEvent(orderAddr, riderKeyHash);\r\n\r\n    //     return orders[totalOrders - 1];\r\n    // }\r\n\r\n    function signalDelivered(address orderAddress) public {\r\n        require(msg.sender == owner, \"sent from address that isnt the owner\");\r\n        Order(orderAddress).setOrderStatus(uint(customerState.hasCargo));\r\n    }\r\n\r\n    function getOrder(uint _id) external view returns(address orderAdderss){\r\n        require(msg.sender == owner);\r\n        return orders[_id];\r\n    }  \r\n\r\n    function getTotalOrders() external view returns(uint totalOrdersMade){\r\n        require(msg.sender == owner);\r\n        return totalOrders;\r\n    }      \r\n}\r\n",
  "sourcePath": "/home/george/Documents/WorkSpace/TryAByte/contracts/Customer.sol",
  "compiler": {
    "name": "solc",
    "version": "0.5.12+commit.7709ece9.Emscripten.clang"
  },
  "schemaVersion": "3.0.19",
  "updatedAt": "2019-12-11T07:41:27.820Z",
  "networkType": "ethereum",
  "devdoc": {
    "methods": {}
  },
  "userdoc": {
    "methods": {}
  }
}