{
  "contractName": "Customer",
  "abi": [
    {
      "constant": true,
      "inputs": [],
      "name": "owner",
      "outputs": [
        {
          "name": "",
          "type": "address"
        }
      ],
      "payable": false,
      "stateMutability": "view",
      "type": "function"
    },
    {
      "constant": true,
      "inputs": [],
      "name": "id",
      "outputs": [
        {
          "name": "",
          "type": "uint256"
        }
      ],
      "payable": false,
      "stateMutability": "view",
      "type": "function"
    },
    {
      "constant": true,
      "inputs": [],
      "name": "controller",
      "outputs": [
        {
          "name": "",
          "type": "address"
        }
      ],
      "payable": false,
      "stateMutability": "view",
      "type": "function"
    },
    {
      "inputs": [
        {
          "name": "_id",
          "type": "uint256"
        },
        {
          "name": "_owner",
          "type": "address"
        },
        {
          "name": "controllerAddress",
          "type": "address"
        }
      ],
      "payable": false,
      "stateMutability": "nonpayable",
      "type": "constructor"
    },
    {
      "anonymous": false,
      "inputs": [
        {
          "indexed": false,
          "name": "orderAddress",
          "type": "address"
        },
        {
          "indexed": false,
          "name": "riderKeyHash",
          "type": "bytes32"
        }
      ],
      "name": "OrderMadeEvent",
      "type": "event"
    },
    {
      "constant": false,
      "inputs": [
        {
          "name": "restaurant",
          "type": "address"
        },
        {
          "name": "items",
          "type": "uint256[]"
        },
        {
          "name": "deliveryFee",
          "type": "uint256"
        },
        {
          "name": "riderKeyHash",
          "type": "bytes32"
        }
      ],
      "name": "makeOrder",
      "outputs": [
        {
          "name": "orderAddress",
          "type": "address"
        }
      ],
      "payable": true,
      "stateMutability": "payable",
      "type": "function"
    },
    {
      "constant": false,
      "inputs": [
        {
          "name": "orderAddress",
          "type": "address"
        }
      ],
      "name": "signalDelivered",
      "outputs": [],
      "payable": false,
      "stateMutability": "nonpayable",
      "type": "function"
    },
    {
      "constant": true,
      "inputs": [
        {
          "name": "_id",
          "type": "uint256"
        }
      ],
      "name": "getOrder",
      "outputs": [
        {
          "name": "orderAdderss",
          "type": "address"
        }
      ],
      "payable": false,
      "stateMutability": "view",
      "type": "function"
    },
    {
      "constant": true,
      "inputs": [],
      "name": "getTotalOrders",
      "outputs": [
        {
          "name": "totalOrdersMade",
          "type": "uint256"
        }
      ],
      "payable": false,
      "stateMutability": "view",
      "type": "function"
    }
  ],
  "bytecode": "0x608060405234801561001057600080fd5b5060405160608061086e8339810180604052606081101561003057600080fd5b508051602082015160409092015160039190915560008054600160a060020a03938416600160a060020a031991821617825560028054949093169381169390931790915560045560018054909116331790556107dd806100916000396000f3fe6080604052600436106100695763ffffffff60e060020a600035041663375f16a7811461006e57806363ad255a146100955780638da5cb5b14610137578063af640d0f1461014c578063d09ef24114610161578063e414f38d1461018b578063f77c4791146101c0575b600080fd5b34801561007a57600080fd5b506100836101d5565b60408051918252519081900360200190f35b61011b600480360360808110156100ab57600080fd5b600160a060020a0382351691908101906040810160208201356401000000008111156100d657600080fd5b8201836020820111156100e857600080fd5b8035906020019184602083028401116401000000008311171561010a57600080fd5b9193509150803590602001356101f4565b60408051600160a060020a039092168252519081900360200190f35b34801561014357600080fd5b5061011b61066c565b34801561015857600080fd5b5061008361067b565b34801561016d57600080fd5b5061011b6004803603602081101561018457600080fd5b5035610681565b34801561019757600080fd5b506101be600480360360208110156101ae57600080fd5b5035600160a060020a03166106b5565b005b3480156101cc57600080fd5b5061011b6107a2565b60008054600160a060020a031633146101ed57600080fd5b5060045490565b60008054600160a060020a0316331461027d576040805160e560020a62461bcd02815260206004820152602860248201527f796f7520646f6e74206f776e2074686520637573746f6d657220736d6172742060448201527f636f6e7472616374000000000000000000000000000000000000000000000000606482015290519081900360840190fd5b600086600160a060020a03166366e1dfa387876040518363ffffffff1660e060020a02815260040180806020018281038252848482818152602001925060200280828437600083820152604051601f909101601f191690920195506020945090925050508083038186803b1580156102f457600080fd5b505afa158015610308573d6000803e3d6000fd5b505050506040513d602081101561031e57600080fd5b5051600254604080517f5ed097f30000000000000000000000000000000000000000000000000000000081529051929350600092600160a060020a0390921691635ed097f391600480820192602092909190829003018186803b15801561038457600080fd5b505afa158015610398573d6000803e3d6000fd5b505050506040513d60208110156103ae57600080fd5b5051905080851015610430576040805160e560020a62461bcd02815260206004820152602c60248201527f64656c6976657279466565206d7573742062652067726561746572207468616e60448201527f20746865206d696e696d756d0000000000000000000000000000000000000000606482015290519081900360840190fd5b8185013410156104d6576040805160e560020a62461bcd02815260206004820152604160248201527f73656e74206574686572206973206e6f7420656e6f75676820746f20636f766560448201527f7220746865206f7264657220636f737420616e642064656c697665727920666560648201527f6500000000000000000000000000000000000000000000000000000000000000608482015290519081900360a40190fd5b600088600160a060020a031663f9a9525e8785018a8a8a8a6040518663ffffffff1660e060020a02815260040180806020018481526020018381526020018281038252868682818152602001925060200280828437600081840152601f19601f820116905080830192505050955050505050506020604051808303818588803b15801561056257600080fd5b505af1158015610576573d6000803e3d6000fd5b50505050506040513d602081101561058d57600080fd5b50516040519091503390848801340380156108fc02916000818181858888f193505050501580156105c2573d6000803e3d6000fd5b5060048054600090815260056020908152604091829020805473ffffffffffffffffffffffffffffffffffffffff1916600160a060020a03861690811790915583546001019093558151928352820187905280517fa43e6608dee147ac6ed609598b4706deeffed4faef8af03205a5a5bb4b38399e9281900390910190a1505060045460001901600090815260056020526040902054600160a060020a0316979650505050505050565b600054600160a060020a031681565b60035481565b60008054600160a060020a0316331461069957600080fd5b50600090815260056020526040902054600160a060020a031690565b600054600160a060020a0316331461073d576040805160e560020a62461bcd02815260206004820152602560248201527f73656e742066726f6d206164647265737320746861742069736e74207468652060448201527f6f776e6572000000000000000000000000000000000000000000000000000000606482015290519081900360840190fd5b600160a060020a03811663e9132c4260026040518263ffffffff1660e060020a02815260040180828152602001915050600060405180830381600087803b15801561078757600080fd5b505af115801561079b573d6000803e3d6000fd5b5050505050565b600254600160a060020a03168156fea165627a7a72305820300d334e2be57b70e8aab688098164808a75ad113eee23fe79b93d334541f5770029",
  "source": "pragma solidity ^0.5.0;\r\n\r\nimport \"./Restaurant.sol\";\r\nimport \"./Order.sol\";\r\nimport \"./Controller.sol\";\r\n\r\ncontract Customer {\r\n    \r\n    address public owner;\r\n    address customerFactory; // might not need this\r\n    address public controller;\r\n\r\n    uint public id;\r\n    uint totalOrders;\r\n    mapping(uint => address) orders;\r\n\r\n    enum customerState{madeOrder, payed, hasCargo}    \r\n    \r\n    event OrderMadeEvent(\r\n        address orderAddress,\r\n        bytes32 riderKeyHash\r\n    );\r\n    \r\n    constructor(uint _id, address _owner, address controllerAddress) public\r\n    {\r\n        id = _id;\r\n        owner = _owner;\r\n        controller = controllerAddress;\r\n\r\n        totalOrders = 0;\r\n        customerFactory = msg.sender;\r\n    }\r\n    \r\n    // this function will call the restaurant make order\r\n    // todo change to reference restaurantID from restFact to reduce cost??\r\n    function makeOrder(address payable restaurant, uint[] calldata items, uint deliveryFee, bytes32 riderKeyHash) external payable returns (address orderAddress){\r\n        require(msg.sender == owner, \"you dont own the customer smart contract\");\r\n        //require(RestaurantFactory(restaurantFactoryAddress).restaurantExists(msg.sender));\r\n        uint price = Restaurant(restaurant).getOrderPrice(items);\r\n        uint minimumDeliveryFee = Controller(controller).minimumDeliveryFee();\r\n        require(deliveryFee >= minimumDeliveryFee, \"deliveryFee must be greater than the minimum\");\r\n        require(msg.value >= price + deliveryFee,\"sent ether is not enough to cover the order cost and delivery fee\");\r\n        \r\n        address orderAddr = Restaurant(restaurant).makeOrder.value(price + deliveryFee)(items, deliveryFee,  riderKeyHash);\r\n        msg.sender.transfer(msg.value - (price + deliveryFee)); // return excess payment\r\n        orders[totalOrders] = orderAddr;\r\n        \r\n        totalOrders++;\r\n\r\n        emit OrderMadeEvent(orderAddr, riderKeyHash);\r\n\r\n        return orders[totalOrders - 1];\r\n    }\r\n\r\n    function signalDelivered(address orderAddress) public {\r\n        require(msg.sender == owner, \"sent from address that isnt the owner\");\r\n        Order(orderAddress).setOrderStatus(uint(customerState.hasCargo));\r\n    }\r\n\r\n    function getOrder(uint _id) external view returns(address orderAdderss){\r\n        require(msg.sender == owner);\r\n        return orders[_id];\r\n    }  \r\n\r\n    function getTotalOrders() external view returns(uint totalOrdersMade){\r\n        require(msg.sender == owner);\r\n        return totalOrders;\r\n    }      \r\n}\r\n",
  "sourcePath": "/home/george/Documents/WorkSpace/TryAByte/contracts/Customer.sol",
  "compiler": {
    "name": "solc",
    "version": "0.5.0+commit.1d4f565a.Emscripten.clang"
  },
  "schemaVersion": "3.0.6",
  "updatedAt": "2019-10-31T10:38:54.810Z",
  "devdoc": {
    "methods": {}
  },
  "userdoc": {
    "methods": {}
  }
}