{
  "contractName": "CustomerFactory",
  "abi": [
    {
      "inputs": [
        {
          "internalType": "address",
          "name": "_controller",
          "type": "address"
        }
      ],
      "payable": false,
      "stateMutability": "nonpayable",
      "type": "constructor"
    },
    {
      "anonymous": false,
      "inputs": [
        {
          "indexed": true,
          "internalType": "address",
          "name": "customerAddress",
          "type": "address"
        },
        {
          "indexed": true,
          "internalType": "address",
          "name": "createrAddress",
          "type": "address"
        }
      ],
      "name": "CustomerMade",
      "type": "event"
    },
    {
      "constant": true,
      "inputs": [],
      "name": "controller",
      "outputs": [
        {
          "internalType": "address",
          "name": "",
          "type": "address"
        }
      ],
      "payable": false,
      "stateMutability": "view",
      "type": "function"
    },
    {
      "constant": true,
      "inputs": [],
      "name": "customerCount",
      "outputs": [
        {
          "internalType": "uint256",
          "name": "",
          "type": "uint256"
        }
      ],
      "payable": false,
      "stateMutability": "view",
      "type": "function"
    },
    {
      "constant": true,
      "inputs": [
        {
          "internalType": "uint256",
          "name": "",
          "type": "uint256"
        }
      ],
      "name": "customers0",
      "outputs": [
        {
          "internalType": "address",
          "name": "",
          "type": "address"
        }
      ],
      "payable": false,
      "stateMutability": "view",
      "type": "function"
    },
    {
      "constant": true,
      "inputs": [
        {
          "internalType": "address",
          "name": "",
          "type": "address"
        }
      ],
      "name": "customers2",
      "outputs": [
        {
          "internalType": "address",
          "name": "",
          "type": "address"
        }
      ],
      "payable": false,
      "stateMutability": "view",
      "type": "function"
    },
    {
      "constant": true,
      "inputs": [],
      "name": "owner",
      "outputs": [
        {
          "internalType": "address",
          "name": "",
          "type": "address"
        }
      ],
      "payable": false,
      "stateMutability": "view",
      "type": "function"
    },
    {
      "constant": false,
      "inputs": [],
      "name": "makeCustomer",
      "outputs": [
        {
          "internalType": "address",
          "name": "customer",
          "type": "address"
        }
      ],
      "payable": false,
      "stateMutability": "nonpayable",
      "type": "function"
    },
    {
      "constant": true,
      "inputs": [
        {
          "internalType": "address",
          "name": "customer",
          "type": "address"
        }
      ],
      "name": "customerExists",
      "outputs": [
        {
          "internalType": "bool",
          "name": "CustomerExists",
          "type": "bool"
        }
      ],
      "payable": false,
      "stateMutability": "view",
      "type": "function"
    },
    {
      "constant": false,
      "inputs": [],
      "name": "reset",
      "outputs": [],
      "payable": false,
      "stateMutability": "nonpayable",
      "type": "function"
    }
  ],
  "bytecode": "0x608060405234801561001057600080fd5b506040516107a83803806107a88339818101604052602081101561003357600080fd5b5051600180546001600160a01b039092166001600160a01b03199283161790556000805490911633178155600255610738806100706000396000f3fe608060405234801561001057600080fd5b50600436106100885760003560e01c80639757e8a31161005b5780639757e8a314610119578063c71d288b14610133578063d826f88f14610150578063f77c47911461015a57610088565b806344316d4e1461008d578063689b0098146100b157806373ad8b81146100eb5780638da5cb5b14610111575b600080fd5b610095610162565b604080516001600160a01b039092168252519081900360200190f35b6100d7600480360360208110156100c757600080fd5b50356001600160a01b03166102a5565b604080519115158252519081900360200190f35b6100956004803603602081101561010157600080fd5b50356001600160a01b03166102d8565b6100956102f3565b610121610302565b60408051918252519081900360200190f35b6100956004803603602081101561014957600080fd5b5035610308565b610158610323565b005b6100956103a7565b336000908152600560205260408120546001600160a01b0316156101b75760405162461bcd60e51b81526004018080602001828103825260368152602001806106ce6036913960400191505060405180910390fd5b6002546001546040516000929133916001600160a01b03909116906101db906103b6565b9283526001600160a01b039182166020840152166040808301919091525190819003606001906000f080158015610216573d6000803e3d6000fd5b506001600160a01b03811660008181526004602090815260408083208054336001600160a01b031991821681179092558185526005845282852080548216871790556002805486526003909452828520805490911686179055825460010190925551939450927f3d14142a8ee81a245fb58ce6f3b2159eb29b7326216900cc8e087447ea96fc479190a3905090565b6001600160a01b03818116600090815260046020526040812054909116156102cf575060016102d3565b5060005b919050565b6005602052600090815260409020546001600160a01b031681565b6000546001600160a01b031681565b60025481565b6003602052600090815260409020546001600160a01b031681565b6001546001600160a01b0316331461033a57600080fd5b60005b6002548110156103a457600081815260036020908152604080832080546001600160a01b0380821686526004855283862080546001600160a01b0319938416909455805483169055919091168452600590925282208054909116905560025560010161033d565b50565b6001546001600160a01b031681565b61030a806103c48339019056fe608060405234801561001057600080fd5b5060405161030a38038061030a8339818101604052606081101561003357600080fd5b5080516020820151604090920151600391909155600080546001600160a01b039384166001600160a01b03199182161782556002805494909316938116939093179091556004556001805490911633179055610276806100946000396000f3fe608060405234801561001057600080fd5b50600436106100625760003560e01c8063375f16a7146100675780638da5cb5b14610081578063af640d0f146100a5578063d09ef241146100ad578063e414f38d146100ca578063f77c4791146100f2575b600080fd5b61006f6100fa565b60408051918252519081900360200190f35b610089610119565b604080516001600160a01b039092168252519081900360200190f35b61006f610128565b610089600480360360208110156100c357600080fd5b503561012e565b6100f0600480360360208110156100e057600080fd5b50356001600160a01b0316610162565b005b61008961020d565b600080546001600160a01b0316331461011257600080fd5b5060045490565b6000546001600160a01b031681565b60035481565b600080546001600160a01b0316331461014657600080fd5b506000908152600560205260409020546001600160a01b031690565b6000546001600160a01b031633146101ab5760405162461bcd60e51b815260040180806020018281038252602581526020018061021d6025913960400191505060405180910390fd5b6001600160a01b03811663e9132c4260026040518263ffffffff1660e01b815260040180828152602001915050600060405180830381600087803b1580156101f257600080fd5b505af1158015610206573d6000803e3d6000fd5b5050505050565b6002546001600160a01b03168156fe73656e742066726f6d206164647265737320746861742069736e7420746865206f776e6572a265627a7a72315820cabd08cd0afe3ffc8b8a39018a47094b61ad29f88d2b00e7bf899b10fc4cd6a764736f6c634300050c0032796f7572206164647265737320616c726561647920686173206120637573746f6d6572206173736f6369617465642077697468206974a265627a7a723158202b7e76162f05be14ebc3e6caf4ece8dff88ebd28e3ad6b63d9aeb1062b1236f564736f6c634300050c0032",
  "source": "pragma solidity ^0.5.0;\r\n\r\nimport \"./Customer.sol\";\r\n\r\ncontract CustomerFactory {\r\n    address public owner;\r\n    address public controller;\r\n\r\n    uint public customerCount;\r\n    mapping(uint => address) public customers0; // id to customerContractAddress\r\n    mapping(address => address) private customers1; // customerContractAddress to customersOwnAddress\r\n    mapping(address => address) public customers2; // customersOwnAddress to customerContractAddress\r\n    \r\n    event CustomerMade(address indexed customerAddress, address indexed createrAddress);\r\n\r\n    constructor(address _controller) public\r\n    {\r\n        controller = _controller;\r\n        owner = msg.sender;\r\n        customerCount = 0;\r\n    }\r\n    \r\n    function makeCustomer() external returns(address customer){\r\n        require(customers2[msg.sender] == address(0x0), \"your address already has a customer associated with it\");\r\n        Customer newCustomer = new Customer(customerCount, msg.sender, controller);\r\n        customers1[address(newCustomer)] = msg.sender;\r\n        customers2[msg.sender] = address(newCustomer);\r\n        customers0[customerCount] = address(newCustomer);\r\n        customerCount++;\r\n\r\n        emit CustomerMade(address(newCustomer),msg.sender);\r\n\r\n        return address(newCustomer);\r\n    }\r\n    \r\n    function customerExists(address customer) public view returns(bool CustomerExists){\r\n\t    if(customers1[customer] != address(0x0))\r\n            return true;\r\n        else\r\n            return false;\r\n\t}\r\n\r\n    function reset() public {\r\n        require(msg.sender == controller);\r\n        for(uint i = 0; i < customerCount; i++){\r\n            address currentContract = customers0[i];\r\n            address currentOwnAddress = customers1[currentContract];\r\n\r\n            delete customers0[i];\r\n            delete customers1[currentContract];\r\n            delete customers2[currentOwnAddress];\r\n\r\n            customerCount = 0;\r\n        }\r\n    }\r\n}",
  "sourcePath": "/home/george/Documents/WorkSpace/TryAByte/contracts/CustomerFactory.sol",
  "compiler": {
    "name": "solc",
    "version": "0.5.12+commit.7709ece9.Emscripten.clang"
  },
  "schemaVersion": "3.0.19",
  "updatedAt": "2019-12-11T07:41:27.817Z",
  "networkType": "ethereum",
  "devdoc": {
    "methods": {}
  },
  "userdoc": {
    "methods": {}
  }
}