{
  "contractName": "Menu",
  "abi": [
    {
      "inputs": [
        {
          "internalType": "address",
          "name": "_owner",
          "type": "address"
        }
      ],
      "payable": false,
      "stateMutability": "nonpayable",
      "type": "constructor"
    },
    {
      "anonymous": false,
      "inputs": [
        {
          "indexed": false,
          "internalType": "uint256",
          "name": "itemId",
          "type": "uint256"
        },
        {
          "indexed": false,
          "internalType": "uint256",
          "name": "addAtIndex",
          "type": "uint256"
        },
        {
          "indexed": false,
          "internalType": "bytes32",
          "name": "optionName",
          "type": "bytes32"
        },
        {
          "indexed": false,
          "internalType": "uint256",
          "name": "optionPrice",
          "type": "uint256"
        }
      ],
      "name": "addOptionEvent",
      "type": "event"
    },
    {
      "anonymous": false,
      "inputs": [
        {
          "indexed": false,
          "internalType": "string",
          "name": "message",
          "type": "string"
        }
      ],
      "name": "debug",
      "type": "event"
    },
    {
      "anonymous": false,
      "inputs": [
        {
          "indexed": false,
          "internalType": "uint256",
          "name": "number",
          "type": "uint256"
        }
      ],
      "name": "debuguint",
      "type": "event"
    },
    {
      "constant": true,
      "inputs": [],
      "name": "extraHead",
      "outputs": [
        {
          "internalType": "uint256",
          "name": "",
          "type": "uint256"
        }
      ],
      "payable": false,
      "stateMutability": "view",
      "type": "function"
    },
    {
      "constant": true,
      "inputs": [
        {
          "internalType": "uint256",
          "name": "",
          "type": "uint256"
        }
      ],
      "name": "extras",
      "outputs": [
        {
          "internalType": "bytes32",
          "name": "extraName",
          "type": "bytes32"
        },
        {
          "internalType": "uint256",
          "name": "extraPrice",
          "type": "uint256"
        },
        {
          "internalType": "bool",
          "name": "active",
          "type": "bool"
        }
      ],
      "payable": false,
      "stateMutability": "view",
      "type": "function"
    },
    {
      "constant": true,
      "inputs": [],
      "name": "itemHead",
      "outputs": [
        {
          "internalType": "uint256",
          "name": "",
          "type": "uint256"
        }
      ],
      "payable": false,
      "stateMutability": "view",
      "type": "function"
    },
    {
      "constant": true,
      "inputs": [
        {
          "internalType": "uint256",
          "name": "",
          "type": "uint256"
        }
      ],
      "name": "items",
      "outputs": [
        {
          "internalType": "uint256",
          "name": "nextItem",
          "type": "uint256"
        },
        {
          "internalType": "bytes32",
          "name": "itemName",
          "type": "bytes32"
        },
        {
          "internalType": "bytes32",
          "name": "description",
          "type": "bytes32"
        },
        {
          "internalType": "uint256",
          "name": "optionsHead",
          "type": "uint256"
        }
      ],
      "payable": false,
      "stateMutability": "view",
      "type": "function"
    },
    {
      "constant": true,
      "inputs": [],
      "name": "length",
      "outputs": [
        {
          "internalType": "uint256",
          "name": "",
          "type": "uint256"
        }
      ],
      "payable": false,
      "stateMutability": "view",
      "type": "function"
    },
    {
      "constant": true,
      "inputs": [
        {
          "internalType": "uint256",
          "name": "",
          "type": "uint256"
        }
      ],
      "name": "options",
      "outputs": [
        {
          "internalType": "uint256",
          "name": "nextOption",
          "type": "uint256"
        },
        {
          "internalType": "bytes32",
          "name": "optionName",
          "type": "bytes32"
        },
        {
          "internalType": "uint256",
          "name": "optionPrice",
          "type": "uint256"
        }
      ],
      "payable": false,
      "stateMutability": "view",
      "type": "function"
    },
    {
      "constant": true,
      "inputs": [],
      "name": "optionsHead",
      "outputs": [
        {
          "internalType": "uint256",
          "name": "",
          "type": "uint256"
        }
      ],
      "payable": false,
      "stateMutability": "view",
      "type": "function"
    },
    {
      "constant": true,
      "inputs": [],
      "name": "owner",
      "outputs": [
        {
          "internalType": "address",
          "name": "",
          "type": "address"
        }
      ],
      "payable": false,
      "stateMutability": "view",
      "type": "function"
    },
    {
      "constant": true,
      "inputs": [],
      "name": "getMenuLength",
      "outputs": [
        {
          "internalType": "uint256",
          "name": "",
          "type": "uint256"
        }
      ],
      "payable": false,
      "stateMutability": "view",
      "type": "function"
    },
    {
      "constant": true,
      "inputs": [
        {
          "internalType": "uint256",
          "name": "_id",
          "type": "uint256"
        }
      ],
      "name": "getEntry",
      "outputs": [
        {
          "internalType": "bytes32",
          "name": "",
          "type": "bytes32"
        },
        {
          "internalType": "bytes32",
          "name": "",
          "type": "bytes32"
        },
        {
          "internalType": "bytes32[]",
          "name": "",
          "type": "bytes32[]"
        },
        {
          "internalType": "uint256[]",
          "name": "",
          "type": "uint256[]"
        },
        {
          "internalType": "uint256[]",
          "name": "",
          "type": "uint256[]"
        }
      ],
      "payable": false,
      "stateMutability": "view",
      "type": "function"
    },
    {
      "constant": false,
      "inputs": [
        {
          "internalType": "uint256[]",
          "name": "integers",
          "type": "uint256[]"
        },
        {
          "internalType": "uint256[]",
          "name": "integersFlags",
          "type": "uint256[]"
        },
        {
          "internalType": "bytes32[]",
          "name": "strings",
          "type": "bytes32[]"
        },
        {
          "internalType": "uint256[]",
          "name": "stringsFlags",
          "type": "uint256[]"
        }
      ],
      "name": "updateMenu",
      "outputs": [
        {
          "internalType": "bool",
          "name": "",
          "type": "bool"
        }
      ],
      "payable": false,
      "stateMutability": "nonpayable",
      "type": "function"
    },
    {
      "constant": false,
      "inputs": [
        {
          "internalType": "uint256[]",
          "name": "addAtIndex",
          "type": "uint256[]"
        },
        {
          "internalType": "bytes32[]",
          "name": "itemNames",
          "type": "bytes32[]"
        },
        {
          "internalType": "bytes32[]",
          "name": "itemDescriptions",
          "type": "bytes32[]"
        },
        {
          "internalType": "bytes32[]",
          "name": "_optionNames",
          "type": "bytes32[]"
        },
        {
          "internalType": "uint256[]",
          "name": "_prices",
          "type": "uint256[]"
        },
        {
          "internalType": "uint256[]",
          "name": "optionFlags",
          "type": "uint256[]"
        },
        {
          "internalType": "uint256[]",
          "name": "_extrasIds",
          "type": "uint256[]"
        },
        {
          "internalType": "uint256[]",
          "name": "extrasFlags",
          "type": "uint256[]"
        }
      ],
      "name": "addMultipleItems",
      "outputs": [],
      "payable": false,
      "stateMutability": "nonpayable",
      "type": "function"
    },
    {
      "constant": false,
      "inputs": [
        {
          "internalType": "uint256",
          "name": "addAtIndex",
          "type": "uint256"
        },
        {
          "internalType": "bytes32",
          "name": "_itemName",
          "type": "bytes32"
        },
        {
          "internalType": "bytes32",
          "name": "_itemDescription",
          "type": "bytes32"
        },
        {
          "internalType": "bytes32[]",
          "name": "_optionNames",
          "type": "bytes32[]"
        },
        {
          "internalType": "uint256[]",
          "name": "_optionPrices",
          "type": "uint256[]"
        },
        {
          "internalType": "uint256[]",
          "name": "extraIds",
          "type": "uint256[]"
        }
      ],
      "name": "addEntry",
      "outputs": [
        {
          "internalType": "bool",
          "name": "",
          "type": "bool"
        }
      ],
      "payable": false,
      "stateMutability": "nonpayable",
      "type": "function"
    },
    {
      "constant": false,
      "inputs": [
        {
          "internalType": "uint256[]",
          "name": "itemIds",
          "type": "uint256[]"
        }
      ],
      "name": "removeMultipleItems",
      "outputs": [],
      "payable": false,
      "stateMutability": "nonpayable",
      "type": "function"
    },
    {
      "constant": false,
      "inputs": [
        {
          "internalType": "uint256",
          "name": "itemId",
          "type": "uint256"
        }
      ],
      "name": "removeItem",
      "outputs": [
        {
          "internalType": "bool",
          "name": "",
          "type": "bool"
        }
      ],
      "payable": false,
      "stateMutability": "nonpayable",
      "type": "function"
    },
    {
      "constant": false,
      "inputs": [
        {
          "internalType": "uint256[]",
          "name": "itemIds",
          "type": "uint256[]"
        },
        {
          "internalType": "uint256[]",
          "name": "addAtIndexs",
          "type": "uint256[]"
        },
        {
          "internalType": "bytes32[]",
          "name": "_optionNames",
          "type": "bytes32[]"
        },
        {
          "internalType": "uint256[]",
          "name": "_prices",
          "type": "uint256[]"
        }
      ],
      "name": "addMultipleOptions",
      "outputs": [],
      "payable": false,
      "stateMutability": "nonpayable",
      "type": "function"
    },
    {
      "constant": false,
      "inputs": [
        {
          "internalType": "uint256",
          "name": "itemId",
          "type": "uint256"
        },
        {
          "internalType": "uint256",
          "name": "addAtIndex",
          "type": "uint256"
        },
        {
          "internalType": "bytes32",
          "name": "_optionName",
          "type": "bytes32"
        },
        {
          "internalType": "uint256",
          "name": "_optionPrice",
          "type": "uint256"
        }
      ],
      "name": "addOption",
      "outputs": [
        {
          "internalType": "bool",
          "name": "",
          "type": "bool"
        }
      ],
      "payable": false,
      "stateMutability": "nonpayable",
      "type": "function"
    },
    {
      "constant": false,
      "inputs": [
        {
          "internalType": "uint256[]",
          "name": "itemIds",
          "type": "uint256[]"
        },
        {
          "internalType": "uint256[]",
          "name": "optionIds",
          "type": "uint256[]"
        },
        {
          "internalType": "uint256[]",
          "name": "flags",
          "type": "uint256[]"
        }
      ],
      "name": "removeMultipleOptions",
      "outputs": [],
      "payable": false,
      "stateMutability": "nonpayable",
      "type": "function"
    },
    {
      "constant": false,
      "inputs": [
        {
          "internalType": "uint256",
          "name": "itemId",
          "type": "uint256"
        },
        {
          "internalType": "uint256",
          "name": "optionId",
          "type": "uint256"
        }
      ],
      "name": "removeOption",
      "outputs": [
        {
          "internalType": "bool",
          "name": "",
          "type": "bool"
        }
      ],
      "payable": false,
      "stateMutability": "nonpayable",
      "type": "function"
    },
    {
      "constant": false,
      "inputs": [
        {
          "internalType": "bytes32[]",
          "name": "extraNames",
          "type": "bytes32[]"
        },
        {
          "internalType": "uint256[]",
          "name": "extraPrice",
          "type": "uint256[]"
        }
      ],
      "name": "addExtras",
      "outputs": [],
      "payable": false,
      "stateMutability": "nonpayable",
      "type": "function"
    },
    {
      "constant": false,
      "inputs": [
        {
          "internalType": "uint256[]",
          "name": "_ids",
          "type": "uint256[]"
        }
      ],
      "name": "setExtrasInactive",
      "outputs": [],
      "payable": false,
      "stateMutability": "nonpayable",
      "type": "function"
    },
    {
      "constant": false,
      "inputs": [
        {
          "internalType": "uint256[]",
          "name": "_itemIds",
          "type": "uint256[]"
        },
        {
          "internalType": "uint256[]",
          "name": "_extrasIds",
          "type": "uint256[]"
        },
        {
          "internalType": "uint256[]",
          "name": "flags",
          "type": "uint256[]"
        }
      ],
      "name": "assignExtras",
      "outputs": [],
      "payable": false,
      "stateMutability": "nonpayable",
      "type": "function"
    },
    {
      "constant": false,
      "inputs": [
        {
          "internalType": "uint256[]",
          "name": "_itemIds",
          "type": "uint256[]"
        },
        {
          "internalType": "uint256[]",
          "name": "_extrasIds",
          "type": "uint256[]"
        },
        {
          "internalType": "uint256[]",
          "name": "flags",
          "type": "uint256[]"
        }
      ],
      "name": "unassignExtras",
      "outputs": [],
      "payable": false,
      "stateMutability": "nonpayable",
      "type": "function"
    },
    {
      "constant": false,
      "inputs": [],
      "name": "reorderItems",
      "outputs": [],
      "payable": false,
      "stateMutability": "nonpayable",
      "type": "function"
    },
    {
      "constant": false,
      "inputs": [],
      "name": "reorderOptions",
      "outputs": [],
      "payable": false,
      "stateMutability": "nonpayable",
      "type": "function"
    },
    {
      "constant": false,
      "inputs": [
        {
          "internalType": "uint256",
          "name": "index1",
          "type": "uint256"
        },
        {
          "internalType": "uint256",
          "name": "index2",
          "type": "uint256"
        }
      ],
      "name": "swapItems",
      "outputs": [],
      "payable": false,
      "stateMutability": "nonpayable",
      "type": "function"
    },
    {
      "constant": false,
      "inputs": [
        {
          "internalType": "uint256",
          "name": "_id",
          "type": "uint256"
        },
        {
          "internalType": "uint256",
          "name": "index1",
          "type": "uint256"
        },
        {
          "internalType": "uint256",
          "name": "index2",
          "type": "uint256"
        }
      ],
      "name": "swapOptions",
      "outputs": [],
      "payable": false,
      "stateMutability": "nonpayable",
      "type": "function"
    },
    {
      "constant": true,
      "inputs": [
        {
          "internalType": "uint256[]",
          "name": "integers",
          "type": "uint256[]"
        },
        {
          "internalType": "uint256",
          "name": "itemCount",
          "type": "uint256"
        }
      ],
      "name": "getOrderPrice",
      "outputs": [
        {
          "internalType": "uint256",
          "name": "",
          "type": "uint256"
        }
      ],
      "payable": false,
      "stateMutability": "view",
      "type": "function"
    }
  ],
  "bytecode": "0x6080604052600060015560006002556000600355600060045534801561002457600080fd5b50604051620045f8380380620045f88339818101604052602081101561004957600080fd5b5051600080546001600160a01b039092166001600160a01b031990921691909117905561457c806200007c6000396000f3fe608060405234801561001057600080fd5b50600436106101c45760003560e01c80638635029b116100f9578063bfb231d211610097578063d54307ca11610071578063d54307ca14610aea578063e40c8a321461137e578063e4d8a2a614611523578063e84051541461154c576101c4565b8063bfb231d2146110f5578063c98baa3214611138578063ca497d5c146112dd576101c4565b8063a6bd92e3116100d3578063a6bd92e314610e03578063ab90dae814610f26578063b21dc38a14610f49578063bae78d7b14610fec576101c4565b80638635029b14610d365780638da5cb5b14610d3e5780638fb0f14c14610d62576101c4565b80635468bc2f1161016657806368fa69941161014057806368fa6994146106ba5780637087ab3314610aea5780637132917114610af257806379b0542d14610b0f576101c4565b80635468bc2f1461044e5780635b4b87921461048b57806364f2eacd14610493576101c4565b80631f7b6d32116101a25780631f7b6d32146103d457806335484952146103dc578063409e22051461040b5780634885044314610446576101c4565b80630545ba29146101c9578063125ba977146101ee5780631d08293114610208575b600080fd5b6101ec600480360360408110156101df57600080fd5b50803590602001356116f1565b005b6101f661184d565b60408051918252519081900360200190f35b6103c0600480360360c081101561021e57600080fd5b81359160208101359160408201359190810190608081016060820135600160201b81111561024b57600080fd5b82018360208201111561025d57600080fd5b803590602001918460208302840111600160201b8311171561027e57600080fd5b9190808060200260200160405190810160405280939291908181526020018383602002808284376000920191909152509295949360208101935035915050600160201b8111156102cd57600080fd5b8201836020820111156102df57600080fd5b803590602001918460208302840111600160201b8311171561030057600080fd5b9190808060200260200160405190810160405280939291908181526020018383602002808284376000920191909152509295949360208101935035915050600160201b81111561034f57600080fd5b82018360208201111561036157600080fd5b803590602001918460208302840111600160201b8311171561038257600080fd5b91908080602002602001604051908101604052809392919081815260200183836020028082843760009201919091525092955061187b945050505050565b604080519115158252519081900360200190f35b6101f6611b91565b6103c0600480360360808110156103f257600080fd5b5080359060208101359060408101359060600135611b97565b6104286004803603602081101561042157600080fd5b5035611d4c565b60408051938452602084019290925282820152519081900360600190f35b6101f6611d6d565b61046b6004803603602081101561046457600080fd5b5035611d73565b604080519384526020840192909252151582820152519081900360600190f35b6101f6611d97565b6103c0600480360360808110156104a957600080fd5b810190602081018135600160201b8111156104c357600080fd5b8201836020820111156104d557600080fd5b803590602001918460208302840111600160201b831117156104f657600080fd5b9190808060200260200160405190810160405280939291908181526020018383602002808284376000920191909152509295949360208101935035915050600160201b81111561054557600080fd5b82018360208201111561055757600080fd5b803590602001918460208302840111600160201b8311171561057857600080fd5b9190808060200260200160405190810160405280939291908181526020018383602002808284376000920191909152509295949360208101935035915050600160201b8111156105c757600080fd5b8201836020820111156105d957600080fd5b803590602001918460208302840111600160201b831117156105fa57600080fd5b9190808060200260200160405190810160405280939291908181526020018383602002808284376000920191909152509295949360208101935035915050600160201b81111561064957600080fd5b82018360208201111561065b57600080fd5b803590602001918460208302840111600160201b8311171561067c57600080fd5b919080806020026020016040519081016040528093929190818152602001838360200280828437600092019190915250929550611d9d945050505050565b6101ec60048036036101008110156106d157600080fd5b810190602081018135600160201b8111156106eb57600080fd5b8201836020820111156106fd57600080fd5b803590602001918460208302840111600160201b8311171561071e57600080fd5b9190808060200260200160405190810160405280939291908181526020018383602002808284376000920191909152509295949360208101935035915050600160201b81111561076d57600080fd5b82018360208201111561077f57600080fd5b803590602001918460208302840111600160201b831117156107a057600080fd5b9190808060200260200160405190810160405280939291908181526020018383602002808284376000920191909152509295949360208101935035915050600160201b8111156107ef57600080fd5b82018360208201111561080157600080fd5b803590602001918460208302840111600160201b8311171561082257600080fd5b9190808060200260200160405190810160405280939291908181526020018383602002808284376000920191909152509295949360208101935035915050600160201b81111561087157600080fd5b82018360208201111561088357600080fd5b803590602001918460208302840111600160201b831117156108a457600080fd5b9190808060200260200160405190810160405280939291908181526020018383602002808284376000920191909152509295949360208101935035915050600160201b8111156108f357600080fd5b82018360208201111561090557600080fd5b803590602001918460208302840111600160201b8311171561092657600080fd5b9190808060200260200160405190810160405280939291908181526020018383602002808284376000920191909152509295949360208101935035915050600160201b81111561097557600080fd5b82018360208201111561098757600080fd5b803590602001918460208302840111600160201b831117156109a857600080fd5b9190808060200260200160405190810160405280939291908181526020018383602002808284376000920191909152509295949360208101935035915050600160201b8111156109f757600080fd5b820183602082011115610a0957600080fd5b803590602001918460208302840111600160201b83111715610a2a57600080fd5b9190808060200260200160405190810160405280939291908181526020018383602002808284376000920191909152509295949360208101935035915050600160201b811115610a7957600080fd5b820183602082011115610a8b57600080fd5b803590602001918460208302840111600160201b83111715610aac57600080fd5b919080806020026020016040519081016040528093929190818152602001838360200280828437600092019190915250929550612cf8945050505050565b6101ec61310c565b6103c060048036036020811015610b0857600080fd5b503561310e565b6101ec60048036036080811015610b2557600080fd5b810190602081018135600160201b811115610b3f57600080fd5b820183602082011115610b5157600080fd5b803590602001918460208302840111600160201b83111715610b7257600080fd5b9190808060200260200160405190810160405280939291908181526020018383602002808284376000920191909152509295949360208101935035915050600160201b811115610bc157600080fd5b820183602082011115610bd357600080fd5b803590602001918460208302840111600160201b83111715610bf457600080fd5b9190808060200260200160405190810160405280939291908181526020018383602002808284376000920191909152509295949360208101935035915050600160201b811115610c4357600080fd5b820183602082011115610c5557600080fd5b803590602001918460208302840111600160201b83111715610c7657600080fd5b9190808060200260200160405190810160405280939291908181526020018383602002808284376000920191909152509295949360208101935035915050600160201b811115610cc557600080fd5b820183602082011115610cd757600080fd5b803590602001918460208302840111600160201b83111715610cf857600080fd5b9190808060200260200160405190810160405280939291908181526020018383602002808284376000920191909152509295506131f3945050505050565b6101f661337e565b610d46613384565b604080516001600160a01b039092168252519081900360200190f35b6101ec60048036036020811015610d7857600080fd5b810190602081018135600160201b811115610d9257600080fd5b820183602082011115610da457600080fd5b803590602001918460208302840111600160201b83111715610dc557600080fd5b919080806020026020016040519081016040528093929190818152602001838360200280828437600092019190915250929550613393945050505050565b6101ec60048036036040811015610e1957600080fd5b810190602081018135600160201b811115610e3357600080fd5b820183602082011115610e4557600080fd5b803590602001918460208302840111600160201b83111715610e6657600080fd5b9190808060200260200160405190810160405280939291908181526020018383602002808284376000920191909152509295949360208101935035915050600160201b811115610eb557600080fd5b820183602082011115610ec757600080fd5b803590602001918460208302840111600160201b83111715610ee857600080fd5b91908080602002602001604051908101604052809392919081815260200183836020028082843760009201919091525092955061343e945050505050565b6103c060048036036040811015610f3c57600080fd5b5080359060200135613515565b6101f660048036036040811015610f5f57600080fd5b810190602081018135600160201b811115610f7957600080fd5b820183602082011115610f8b57600080fd5b803590602001918460208302840111600160201b83111715610fac57600080fd5b91908080602002602001604051908101604052809392919081815260200183836020028082843760009201919091525092955050913592506136b1915050565b6110096004803603602081101561100257600080fd5b503561385f565b60405180868152602001858152602001806020018060200180602001848103845287818151815260200191508051906020019060200280838360005b8381101561105d578181015183820152602001611045565b50505050905001848103835286818151815260200191508051906020019060200280838360005b8381101561109c578181015183820152602001611084565b50505050905001848103825285818151815260200191508051906020019060200280838360005b838110156110db5781810151838201526020016110c3565b505050509050019850505050505050505060405180910390f35b6111126004803603602081101561110b57600080fd5b5035613a96565b604080519485526020850193909352838301919091526060830152519081900360800190f35b6101ec6004803603606081101561114e57600080fd5b810190602081018135600160201b81111561116857600080fd5b82018360208201111561117a57600080fd5b803590602001918460208302840111600160201b8311171561119b57600080fd5b9190808060200260200160405190810160405280939291908181526020018383602002808284376000920191909152509295949360208101935035915050600160201b8111156111ea57600080fd5b8201836020820111156111fc57600080fd5b803590602001918460208302840111600160201b8311171561121d57600080fd5b9190808060200260200160405190810160405280939291908181526020018383602002808284376000920191909152509295949360208101935035915050600160201b81111561126c57600080fd5b82018360208201111561127e57600080fd5b803590602001918460208302840111600160201b8311171561129f57600080fd5b919080806020026020016040519081016040528093929190818152602001838360200280828437600092019190915250929550613abd945050505050565b6101ec600480360360208110156112f357600080fd5b810190602081018135600160201b81111561130d57600080fd5b82018360208201111561131f57600080fd5b803590602001918460208302840111600160201b8311171561134057600080fd5b919080806020026020016040519081016040528093929190818152602001838360200280828437600092019190915250929550613b50945050505050565b6101ec6004803603606081101561139457600080fd5b810190602081018135600160201b8111156113ae57600080fd5b8201836020820111156113c057600080fd5b803590602001918460208302840111600160201b831117156113e157600080fd5b9190808060200260200160405190810160405280939291908181526020018383602002808284376000920191909152509295949360208101935035915050600160201b81111561143057600080fd5b82018360208201111561144257600080fd5b803590602001918460208302840111600160201b8311171561146357600080fd5b9190808060200260200160405190810160405280939291908181526020018383602002808284376000920191909152509295949360208101935035915050600160201b8111156114b257600080fd5b8201836020820111156114c457600080fd5b803590602001918460208302840111600160201b831117156114e557600080fd5b919080806020026020016040519081016040528093929190818152602001838360200280828437600092019190915250929550613ba6945050505050565b6101ec6004803603606081101561153957600080fd5b5080359060208101359060400135613d4a565b6101ec6004803603606081101561156257600080fd5b810190602081018135600160201b81111561157c57600080fd5b82018360208201111561158e57600080fd5b803590602001918460208302840111600160201b831117156115af57600080fd5b9190808060200260200160405190810160405280939291908181526020018383602002808284376000920191909152509295949360208101935035915050600160201b8111156115fe57600080fd5b82018360208201111561161057600080fd5b803590602001918460208302840111600160201b8311171561163157600080fd5b9190808060200260200160405190810160405280939291908181526020018383602002808284376000920191909152509295949360208101935035915050600160201b81111561168057600080fd5b82018360208201111561169257600080fd5b803590602001918460208302840111600160201b831117156116b357600080fd5b919080806020026020016040519081016040528093929190818152602001838360200280828437600092019190915250929550613eea945050505050565b6000546001600160a01b0316331461173a5760405162461bcd60e51b81526004018080602001828103825260228152602001806142576022913960400191505060405180910390fd5b8082106117785760405162461bcd60e51b81526004018080602001828103825260248152602001806143926024913960400191505060405180910390fd5b600254600090819081908190815b8681116117dc5787811415611799578195505b600188038114156117a8578193505b868114156117b4578194505b600187038114156117c3578192505b6000918252600660205260409091205490600101611786565b506000876118055750600280546000848152600660205260409020805490925590819055611828565b506000838152600660205260408082208054858452919092208054909255908190555b5050506000928352506006602052604080832080549284529220805490925590555050565b600254600090815b8115611874576000918252600660205260409091205490600101611855565b9150505b90565b600080546001600160a01b031633146118c55760405162461bcd60e51b81526004018080602001828103825260228152602001806142576022913960400191505060405180910390fd5b82518451146119055760405162461bcd60e51b815260040180806020018281038252603981526020018061440e6039913960400191505060405180910390fd5b61190d614177565b6040518060600160405280600081526020018660008151811061192c57fe5b602002602001015181526020018560008151811061194657fe5b60209081029190910181015190915260038054600190810191829055600091825260058352604091829020845181559284015183820155908301516002909201919091559091505b8551811015611a1c57604051806060016040528060035481526020018783815181106119b657fe5b602002602001015181526020018683815181106119cf57fe5b60209081029190910181015190915260038054600190810191829055600091825260058352604091829020845181559284015183820155908301516002909201919091559092500161198e565b50611a2561419b565b88611ab557506040805160a08101825260028054825260208083018b81528385018b81526003805460608701908152608087018b8152600180548101808255600090815260068852999099208851815594519885019890985591519483019490945551928101929092559251805192938493611aa792600485019201906141d0565b505060015460025550611b85565b60025460015b8a811015611ae75760008281526006602052604090205480611add5750611ae7565b9150600101611abb565b506040805160a0810182526000838152600660208181528483205484528084018e81528486018e81526003805460608801908152608088018e8152600180548101808255895296865298909620875181559251948301949094555160028201559251918301919091559251805192955085939192611b6b92600485019201906141d0565b505060015460009283526006602052604090922091909155505b50509695505050505050565b60015481565b600080546001600160a01b03163314611be15760405162461bcd60e51b81526004018080602001828103825260228152602001806142576022913960400191505060405180910390fd5b611be9614177565b600080611bf5886140e1565b9092509050600181151514611c46576040805162461bcd60e51b8152602060048201526012602482015271696e646578206f7574206f662072616e676560701b604482015290519081900360640190fd5b86611cb457604080516060810182526000848152600660208181528483206003908101805486528286018d81528688018d8152835460019081018086558852600586529887208851815591519882019890985596516002909701969096555492879052529091559250611d41565b6000828152600660205260408120600301548190611cd2908a61412d565b9150915080611ce057600091505b5060408051606081018252600083815260056020818152848320805485528185018d81528587018d81526003805460019081018083558852959094529685208651815590519381019390935594516002909201919091555493905291905592505b505050949350505050565b60056020526000908152604090208054600182015460029092015490919083565b60035481565b60076020526000908152604090208054600182015460029092015490919060ff1683565b60025481565b6000806000905060008090506060806060806060806060808d600081518110611dc257fe5b6020026020010151604051908082528060200260200182016040528015611df3578160200160208202803883390190505b50975060005b8e600081518110611e0657fe5b6020026020010151811015611e4c578f8b81518110611e2157fe5b6020026020010151898281518110611e3557fe5b602090810291909101015260019a8b019a01611df9565b50611e5688613b50565b8b600081518110611e6357fe5b6020026020010151604051908082528060200260200182016040528015611e94578160200160208202803883390190505b50925060005b8c600081518110611ea757fe5b6020026020010151811015611eed578d8a81518110611ec257fe5b6020026020010151848281518110611ed657fe5b60209081029190910101526001998a019901611e9a565b508d600181518110611efb57fe5b6020026020010151604051908082528060200260200182016040528015611f2c578160200160208202803883390190505b50965060005b8e600181518110611f3f57fe5b6020026020010151811015611f85578f8b81518110611f5a57fe5b6020026020010151888281518110611f6e57fe5b602090810291909101015260019a8b019a01611f32565b50611f90838861343e565b8d600281518110611f9d57fe5b6020026020010151604051908082528060200260200182016040528015611fce578160200160208202803883390190505b50975060005b8e600281518110611fe157fe5b6020026020010151811015612027578f8b81518110611ffc57fe5b602002602001015189828151811061201057fe5b602090810291909101015260019a8b019a01611fd4565b5061203188613393565b8d60038151811061203e57fe5b602002602001015160405190808252806020026020018201604052801561206f578160200160208202803883390190505b50975060005b8e60038151811061208257fe5b60200260200101518110156120c8578f8b8151811061209d57fe5b60200260200101518982815181106120b157fe5b602090810291909101015260019a8b019a01612075565b508b6001815181106120d657fe5b6020026020010151604051908082528060200260200182016040528015612107578160200160208202803883390190505b50925060005b8c60018151811061211a57fe5b6020026020010151811015612160578d8a8151811061213557fe5b602002602001015184828151811061214957fe5b60209081029190910101526001998a01990161210d565b508b60028151811061216e57fe5b602002602001015160405190808252806020026020018201604052801561219f578160200160208202803883390190505b50915060005b8c6002815181106121b257fe5b60200260200101518110156121f8578d8a815181106121cd57fe5b60200260200101518382815181106121e157fe5b60209081029190910101526001998a0199016121a5565b508b60038151811061220657fe5b6020026020010151604051908082528060200260200182016040528015612237578160200160208202803883390190505b50905060005b8c60038151811061224a57fe5b6020026020010151811015612290578d8a8151811061226557fe5b602002602001015182828151811061227957fe5b60209081029190910101526001998a01990161223d565b508d60048151811061229e57fe5b60200260200101516040519080825280602002602001820160405280156122cf578160200160208202803883390190505b50965060005b8e6004815181106122e257fe5b6020026020010151811015612328578f8b815181106122fd57fe5b602002602001015188828151811061231157fe5b602090810291909101015260019a8b019a016122d5565b508d60058151811061233657fe5b6020026020010151604051908082528060200260200182016040528015612367578160200160208202803883390190505b50955060005b8e60058151811061237a57fe5b60200260200101518110156123c0578f8b8151811061239557fe5b60200260200101518782815181106123a957fe5b602090810291909101015260019a8b019a0161236d565b508d6006815181106123ce57fe5b60200260200101516040519080825280602002602001820160405280156123ff578160200160208202803883390190505b50945060005b8e60068151811061241257fe5b6020026020010151811015612458578f8b8151811061242d57fe5b602002602001015186828151811061244157fe5b602090810291909101015260019a8b019a01612405565b508d60078151811061246657fe5b6020026020010151604051908082528060200260200182016040528015612497578160200160208202803883390190505b50935060005b8e6007815181106124aa57fe5b60200260200101518110156124f0578f8b815181106124c557fe5b60200260200101518582815181106124d957fe5b602090810291909101015260019a8b019a0161249d565b50612501888484848b8b8b8b612cf8565b8d60088151811061250e57fe5b602002602001015160405190808252806020026020018201604052801561253f578160200160208202803883390190505b50975060005b8e60088151811061255257fe5b6020026020010151811015612598578f8b8151811061256d57fe5b602002602001015189828151811061258157fe5b602090810291909101015260019a8b019a01612545565b508d6009815181106125a657fe5b60200260200101516040519080825280602002602001820160405280156125d7578160200160208202803883390190505b50965060005b8e6009815181106125ea57fe5b6020026020010151811015612630578f8b8151811061260557fe5b602002602001015188828151811061261957fe5b602090810291909101015260019a8b019a016125dd565b508d600a8151811061263e57fe5b602002602001015160405190808252806020026020018201604052801561266f578160200160208202803883390190505b50955060005b8e600a8151811061268257fe5b60200260200101518110156126c8578f8b8151811061269d57fe5b60200260200101518782815181106126b157fe5b602090810291909101015260019a8b019a01612675565b506126d4888888613abd565b8d600b815181106126e157fe5b6020026020010151604051908082528060200260200182016040528015612712578160200160208202803883390190505b50975060005b8e600b8151811061272557fe5b602002602001015181101561276b578f8b8151811061274057fe5b602002602001015189828151811061275457fe5b602090810291909101015260019a8b019a01612718565b508d600c8151811061277957fe5b60200260200101516040519080825280602002602001820160405280156127aa578160200160208202803883390190505b50965060005b8e600c815181106127bd57fe5b6020026020010151811015612803578f8b815181106127d857fe5b60200260200101518882815181106127ec57fe5b602090810291909101015260019a8b019a016127b0565b508b60048151811061281157fe5b6020026020010151604051908082528060200260200182016040528015612842578160200160208202803883390190505b50925060005b8c60048151811061285557fe5b602002602001015181101561289b578d8a8151811061287057fe5b602002602001015184828151811061288457fe5b60209081029190910101526001998a019901612848565b508d600d815181106128a957fe5b60200260200101516040519080825280602002602001820160405280156128da578160200160208202803883390190505b50955060005b8e600d815181106128ed57fe5b6020026020010151811015612933578f8b8151811061290857fe5b602002602001015187828151811061291c57fe5b602090810291909101015260019a8b019a016128e0565b50612940888885896131f3565b8d600e8151811061294d57fe5b602002602001015160405190808252806020026020018201604052801561297e578160200160208202803883390190505b50975060005b8e600e8151811061299157fe5b60200260200101518110156129d7578f8b815181106129ac57fe5b60200260200101518982815181106129c057fe5b602090810291909101015260019a8b019a01612984565b508d600f815181106129e557fe5b6020026020010151604051908082528060200260200182016040528015612a16578160200160208202803883390190505b50965060005b8e600f81518110612a2957fe5b6020026020010151811015612a6f578f8b81518110612a4457fe5b6020026020010151888281518110612a5857fe5b602090810291909101015260019a8b019a01612a1c565b508d601081518110612a7d57fe5b6020026020010151604051908082528060200260200182016040528015612aae578160200160208202803883390190505b50955060005b8e601081518110612ac157fe5b6020026020010151811015612b07578f8b81518110612adc57fe5b6020026020010151878281518110612af057fe5b602090810291909101015260019a8b019a01612ab4565b50612b13888888613eea565b8d601181518110612b2057fe5b6020026020010151604051908082528060200260200182016040528015612b51578160200160208202803883390190505b50975060005b8e601181518110612b6457fe5b6020026020010151811015612baa578f8b81518110612b7f57fe5b6020026020010151898281518110612b9357fe5b602090810291909101015260019a8b019a01612b57565b508d601281518110612bb857fe5b6020026020010151604051908082528060200260200182016040528015612be9578160200160208202803883390190505b50965060005b8e601281518110612bfc57fe5b6020026020010151811015612c42578f8b81518110612c1757fe5b6020026020010151888281518110612c2b57fe5b602090810291909101015260019a8b019a01612bef565b508d601381518110612c5057fe5b6020026020010151604051908082528060200260200182016040528015612c81578160200160208202803883390190505b50955060005b8e601381518110612c9457fe5b6020026020010151811015612cda578f8b81518110612caf57fe5b6020026020010151878281518110612cc357fe5b602090810291909101015260019a8b019a01612c87565b50612ce6888888613ba6565b50505050505050505050949350505050565b6000546001600160a01b03163314612d4f576040805162461bcd60e51b81526020600482015260156024820152743cb7ba9030b932903737ba103a34329037bbb732b960591b604482015290519081900360640190fd5b8651885114612d8f5760405162461bcd60e51b81526004018080602001828103825260368152602001806142796036913960400191505060405180910390fd5b8551875114612dcf5760405162461bcd60e51b81526004018080602001828103825260368152602001806143d86036913960400191505060405180910390fd5b8351855114612e0f5760405162461bcd60e51b815260040180806020018281038252602d815260200180614365602d913960400191505060405180910390fd5b8251875114612e4f5760405162461bcd60e51b81526004018080602001828103825260368152602001806142ed6036913960400191505060405180910390fd5b8051875114612e8f5760405162461bcd60e51b81526004018080602001828103825260368152602001806144866036913960400191505060405180910390fd5b6000805b8451811015612ec157848181518110612ea857fe5b6020026020010151820191508080600101915050612e93565b5080865114612f015760405162461bcd60e51b81526004018080602001828103825260428152602001806143236042913960600191505060405180910390fd5b60006060808281815b89518110156130fb57898181518110612f1f57fe5b6020026020010151604051908082528060200260200182016040528015612f50578160200160208202803883390190505b509450898181518110612f5f57fe5b6020026020010151604051908082528060200260200182016040528015612f90578160200160208202803883390190505b50935060005b8a8281518110612fa257fe5b6020026020010151811015613014578c8781518110612fbd57fe5b6020026020010151868281518110612fd157fe5b6020026020010181815250508b8781518110612fe957fe5b6020026020010151858281518110612ffd57fe5b602090810291909101015260019687019601612f96565b5087818151811061302157fe5b6020026020010151604051908082528060200260200182016040528015613052578160200160208202803883390190505b50915060005b88828151811061306457fe5b60200260200101518110156130aa5789848151811061307f57fe5b602002602001015183828151811061309357fe5b602090810291909101015260019384019301613058565b506130f28f82815181106130ba57fe5b60200260200101518f83815181106130ce57fe5b60200260200101518f84815181106130e257fe5b602002602001015188888761187b565b50600101612f0a565b505050505050505050505050505050565b565b600080546001600160a01b031633146131585760405162461bcd60e51b81526004018080602001828103825260228152602001806142576022913960400191505060405180910390fd5b816131a3576002805460009081526006602052604081208054828255600182018390559281018290556003810182905590613196600483018261421b565b50506002555060016131ee565b60025460005b600184038110156131cd5760009182526006602052604090912054906001016131a9565b50600081815260066020526040808220805483529082205492909152555060015b919050565b6000546001600160a01b0316331461324a576040805162461bcd60e51b81526020600482015260156024820152743cb7ba9030b932903737ba103a34329037bbb732b960591b604482015290519081900360640190fd5b825184511461328a5760405162461bcd60e51b815260040180806020018281038252603f815260200180614447603f913960400191505060405180910390fd5b80518251146132ca5760405162461bcd60e51b815260040180806020018281038252603981526020018061440e6039913960400191505060405180910390fd5b835182511461330a5760405162461bcd60e51b815260040180806020018281038252603e8152602001806142af603e913960400191505060405180910390fd5b60005b84518110156133775761336e85828151811061332557fe5b602002602001015185838151811061333957fe5b602002602001015185848151811061334d57fe5b602002602001015185858151811061336157fe5b6020026020010151611b97565b5060010161330d565b5050505050565b60045481565b6000546001600160a01b031681565b80516402540be3ff90600019015b60008112613439578281815181106133b557fe5b602002602001015182116133fa5760405162461bcd60e51b815260040180806020018281038252602f815260200180614519602f913960400191505060405180910390fd5b61341683828151811061340957fe5b602002602001015161310e565b5082818151811061342357fe5b60209081029190910101519150600019016133a1565b505050565b805182511461347e5760405162461bcd60e51b81526004018080602001828103825260228152602001806143b66022913960400191505060405180910390fd5b60005b82518110156134395760405180606001604052808483815181106134a157fe5b602002602001015181526020018383815181106134ba57fe5b602090810291909101810151825260019181018290526004805460009081526007835260409081902085518155928501518385015593909301516002909101805460ff19169115159190911790558154810190915501613481565b600080546001600160a01b0316331461355f5760405162461bcd60e51b81526004018080602001828103825260228152602001806142576022913960400191505060405180910390fd5b60008061356b856140e1565b90925090506001811515146135bc576040805162461bcd60e51b8152602060048201526012602482015271696e646578206f7574206f662072616e676560701b604482015290519081900360640190fd5b600082815260066020526040902060030154846136135760009081526005602090815260408083208054848255600180830186905560029092018590559584526006909252909120600301929092555090506136ab565b613620816001870361412d565b92509050600182151514613677576040805162461bcd60e51b81526020600482015260196024820152786f7074696f6e20696e646578206f7574206f662072616e676560381b604482015290519081900360640190fd5b6000908152600560205260408082208054835290822080549091558181556001808201839055600290910191909155925050505b92915050565b600080805b83811015613857576000806136dd8784815181106136d057fe5b60200260200101516140e1565b9092509050600181151514613739576040805162461bcd60e51b815260206004820152601760248201527f6974656d20696e646578206f7574206f662072616e6765000000000000000000604482015290519081900360640190fd5b61376e6006600084815260200190815260200160002060030154888886018151811061376157fe5b602002602001015161412d565b90925090506001811515146137c6576040805162461bcd60e51b81526020600482015260196024820152786f7074696f6e20696e646578206f7574206f662072616e676560381b604482015290519081900360640190fd5b6000828152600560205260408120600201549490940193805b88886002028601815181106137f057fe5b602002602001015181101561384757600760008a8a60030285018151811061381457fe5b602002602001015181526020019081526020016000206001015486019550818060010192505080806001019150506137df565b5050600190920191506136b69050565b509392505050565b6000806060806060600080613873886140e1565b90925090506001811515146138c4576040805162461bcd60e51b8152602060048201526012602482015271696e646578206f7574206f662072616e676560701b604482015290519081900360640190fd5b6138cc61419b565b600083815260066020908152604091829020825160a0810184528154815260018201548184015260028201548185015260038201546060820152600482018054855181860281018601909652808652919492936080860193929083018282801561395557602002820191906000526020600020905b815481526020019060010190808311613941575b5050509190925250505060608082015191925090819060009081905b801561399157600090815260056020526040902054600190910190613971565b816040519080825280602002602001820160405280156139bb578160200160208202803883390190505b509450816040519080825280602002602001820160405280156139e8578160200160208202803883390190505b509350856060015190505b8015613a70576000818152600560205260409020600101548551869085908110613a1957fe5b6020026020010181815250506005600082815260200190815260200160002060020154848481518110613a4857fe5b60209081029190910181019190915260009182526005905260409020546001909201916139f3565b50505060208301516040840151608090940151909c939b50919950975095509350505050565b60066020526000908152604090208054600182015460028301546003909301549192909184565b6000805b84518110156133775760006001848381518110613ada57fe5b60200260200101510390505b60008112613b2a57613b20868381518110613afd57fe5b60200260200101518683860181518110613b1357fe5b6020026020010151613515565b5060001901613ae6565b50828181518110613b3757fe5b6020026020010151820191508080600101915050613ac1565b60005b8151811015613ba257600060076000848481518110613b6e57fe5b6020908102919091018101518252810191909152604001600020600201805460ff1916911515919091179055600101613b53565b5050565b8251815114613be65760405162461bcd60e51b81526004018080602001828103825260298152602001806144bc6029913960400191505060405180910390fd5b6000805b8251811015613c1857828181518110613bff57fe5b6020026020010151820191508080600101915050613bea565b5082518114613c585760405162461bcd60e51b81526004018080602001828103825260348152602001806144e56034913960400191505060405180910390fd5b6000805b8351811015613d4257600080613c778884815181106136d057fe5b9092509050600181151514613cc8576040805162461bcd60e51b8152602060048201526012602482015271696e646578206f7574206f662072616e676560701b604482015290519081900360640190fd5b60005b868481518110613cd757fe5b6020026020010151811015613d375760066000848152602001908152602001600020600401888681518110613d0857fe5b602090810291909101810151825460018181018555600094855292909320909201919091559485019401613ccb565b505050600101613c5c565b505050505050565b6000546001600160a01b03163314613d935760405162461bcd60e51b81526004018080602001828103825260228152602001806142576022913960400191505060405180910390fd5b808210613dd15760405162461bcd60e51b81526004018080602001828103825260248152602001806143926024913960400191505060405180910390fd5b60025460005b84811015613df8576000918252600660205260409091205490600101613dd7565b50600081815260066020526040812060030154819081908190815b878111613e695788811415613e26578195505b60018903811415613e35578193505b87811415613e41578194505b60018803811415613e50578192505b6000918252600560205260409091205490600101613e13565b50600088613ea057506000868152600660209081526040808320600301805486855260059093529220805490925590819055613ec3565b506000838152600560205260408082208054858452919092208054909255908190555b50505060009283525060056020526040808320805492845292208054909255905550505050565b8251815114613f2a5760405162461bcd60e51b81526004018080602001828103825260298152602001806144bc6029913960400191505060405180910390fd5b6000805b8251811015613f5c57828181518110613f4357fe5b6020026020010151820191508080600101915050613f2e565b5082518114613f9c5760405162461bcd60e51b81526004018080602001828103825260348152602001806144e56034913960400191505060405180910390fd5b6000805b8351811015613d4257600080613fbb8884815181106136d057fe5b909250905060018115151461400c576040805162461bcd60e51b8152602060048201526012602482015271696e646578206f7574206f662072616e676560701b604482015290519081900360640190fd5b60005b86848151811061401b57fe5b60200260200101518110156140d65760005b6000848152600660205260409020600401548110156140cd5788868151811061405257fe5b602002602001015160066000868152602001908152602001600020600401828154811061407b57fe5b906000526020600020015414156140c5576000848152600660205260409020600401805461270f9190839081106140ae57fe5b6000918252602090912001556001909501946140cd565b60010161402d565b5060010161400f565b505050600101613fa0565b6002546000908190815b84811015614120576000918252600660205260409091205490816141185750600092508291506141289050565b6001016140eb565b509150600190505b915091565b60008083815b84811015614168576000918252600560205260409091205490816141605750600092508291506141709050565b600101614133565b509150600190505b9250929050565b60405180606001604052806000815260200160008019168152602001600081525090565b6040518060a0016040528060008152602001600080191681526020016000801916815260200160008152602001606081525090565b82805482825590600052602060002090810192821561420b579160200282015b8281111561420b5782518255916020019190600101906141f0565b5061421792915061423c565b5090565b5080546000825590600052602060002090810190614239919061423c565b50565b61187891905b80821115614217576000815560010161424256fe796f7520617265206e6f7420746865206f776e6572206f662074686973206d656e75746865206e756d626572206f66206974656d20696e646578657320616e64206974656d206e616d657320646f206e6f74206d61746368746865206e756d626572206f66206974656d49447320646f6573206e6f74206d6174636820746865206e756d626572206f66206f7074696f6e4e616d6573746865206e756d626572206f66206974656d206e616d657320616e64206f7074696f6e20666c61677320646f206e6f74206d61746368746865206e756d626572206f66206f7074696f6e7320616e64207468652073756d206f6620746865206f7074696f6e20666c61677320646f206e6f74206d61746368746865206e756d626572206f66206f7074696f6e7320616e642070726963657320646f206e6f74206d61746368696e6465782031206d75737420626520736d616c6c6572207468616e20696e646578203274686520636f756e74206f662074686520706172616d7320646f6e74206d61746368746865206e756d626572206f66206465736372697074696f6e7320616e64206974656d206e616d657320646f206e6f74206d61746368746865206e756d626572206f66206f7074696f6e7320646f6573206e6f74206d6174636820746865206e756d626572206f6620707269636573746865206e756d626572206f66206974656d49647320616e6420696e646578657320746f20696e7365727420617420617265206e6f74207468652073616d65746865206e756d626572206f66206974656d206e616d657320616e642065787472617320666c61677320646f206e6f74206d61746368696e636f6e73697374656e74206e756d626572206f6620666c61677320616e64206974656d2069647374686520666c6167732061726520696e636f6e73697374656e74207769746820746865206578747261732070617373656420696e746865206172726179206f66206974656d496473206d75737420626520696e20617373656e64696e67206f72646572a265627a7a72315820595f1bc0830edfb78ba9908a7431ce92696318a1b839718b7d1fe769dba8386064736f6c634300050c0032",
  "source": "pragma solidity ^0.5.0;\n\ncontract Menu {\n\n  //event AddEntry(bytes32 head,uint number,bytes32 name,bytes32 next);\n  event addOptionEvent(uint itemId, uint addAtIndex, bytes32 optionName, uint optionPrice);\n  event debug(string message);\n  event debuguint(uint number);\n\n  address public owner;\n  uint public length = 0;//also used as nonce\n\n  struct Item{\n    uint nextItem; \n    bytes32 itemName;\n    bytes32 description;\n    uint optionsHead;\n    uint[] extrasIds;\n  }\n\n  struct Option{\n    uint nextOption; \n    bytes32 optionName;\n    uint optionPrice;\n  }\n\n  struct Extra{\n    bytes32 extraName;\n    uint extraPrice;\n    bool active;\n  }\n\n  uint public itemHead = 0;\n  uint public optionsHead = 0;\n  uint public extraHead = 0;\n  mapping (uint => Option) public options;\n  mapping (uint => Item) public items;\n  mapping (uint => Extra) public extras;\n\n  constructor(address _owner) public{\n    owner = _owner;\n  }\n\n  function getMenuLength() public view returns (uint){\n    uint itemIndex = itemHead;\n    uint menuLength = 0;\n\n    while(itemIndex != 0){\n      itemIndex = items[itemIndex].nextItem;\n      menuLength++;\n    }\n\n    return menuLength;\n  }\n\n  function getItemMappingIndex(uint _id) private view returns (uint, bool){\n    uint itemIndex = itemHead;\n    for(uint i = 0; i < _id; i++){\n      itemIndex = items[itemIndex].nextItem;\n      if(itemIndex == 0)\n        return (0,false);\n    }\n    return (itemIndex,true);\n  }\n\n  function getOptionMappingIndex(uint _optionHead, uint _id) private view returns (uint, bool){\n    uint optionMappingIndex = _optionHead;\n    for(uint i = 0; i < _id; i++){\n      optionMappingIndex = options[optionMappingIndex].nextOption;\n      if(optionMappingIndex == 0)\n        return (0,false);\n    }\n    return (optionMappingIndex,true);\n  }\n\n  //needed for external contract access to struct\n  function getEntry(uint _id) public view returns (bytes32,bytes32,bytes32[] memory,uint[] memory, uint[] memory){\n    (uint itemIndex, bool found) = getItemMappingIndex(_id);\n    require(found == true, \"index out of range\");\n\n    Item memory itemToReturn = items[itemIndex];\n\n    bytes32[] memory optionNamesToReturn;\n    uint[] memory optionPricesToReturn;\n    uint counter = 0;\n    uint optionCount = 0;\n    uint index = itemToReturn.optionsHead;\n    while(index != 0){\n      index = options[index].nextOption;\n      optionCount++;\n    }\n    optionNamesToReturn = new bytes32[](optionCount);\n    optionPricesToReturn = new uint[](optionCount);\n\n    index = itemToReturn.optionsHead;\n\n    while(index != 0){\n      optionNamesToReturn[counter] = options[index].optionName;\n      optionPricesToReturn[counter] = options[index].optionPrice;\n      counter++;\n      index = options[index].nextOption;\n    }\n\n    return (itemToReturn.itemName,itemToReturn.description,optionNamesToReturn,optionPricesToReturn, itemToReturn.extrasIds);\n  }\n\n  // =============================== unpack function to allow menu updates with one call ===============================================\n\n  // this function will\n    // remove extras  [indexes int] 1\n    // add extras     [names string, prices int] 2\n    // remove items   [itemindexes int] 1\n    // add items      [addAtIndex int, itemnames sting, itemDescription string, optionnames string, price int, optionFlags int, extraIds int, extraFlags int] 2\n    // remove options [itemIdss int, optionids int, flags int] 1\n    // add options    [itemids int, addAtIndex int, optionNames string, _prices] 2\n    // unassign extras[itemids int, extrasids int, flags int] 1\n    // assign extras  [itemids int, extrasids int, flags int] 1\n    // update prices <-- needs doing\n\n\n\nfunction updateMenu(uint[] memory integers, uint[] memory integersFlags, bytes32[] memory strings, uint[] memory stringsFlags) public returns (bool){\n    uint integerIndex = 0;\n    uint stringIndex = 0;\n\n    uint[] memory ints_1;\n    uint[] memory ints_2;\n    uint[] memory ints_3;\n    uint[] memory ints_4;\n    uint[] memory ints_5;\n    bytes32[] memory str_1;\n    bytes32[] memory str_2;\n    bytes32[] memory str_3;\n\n\n    // remove extras\n    ints_1 = new uint[](integersFlags[0]);\n    for(uint i = 0; i < integersFlags[0]; i++){\n      ints_1[i] = integers[integerIndex];\n      integerIndex ++;\n    }\n    setExtrasInactive(ints_1);\n\n    // add extras\n    str_1 = new bytes32[](stringsFlags[0]);\n    for(uint i = 0; i < stringsFlags[0]; i++){\n      str_1[i] = strings[stringIndex];\n      stringIndex ++;\n    }\n\n    ints_2 = new uint[](integersFlags[1]);\n    for(uint i = 0; i < integersFlags[1]; i++){\n      ints_2[i] = integers[integerIndex];\n      integerIndex ++;\n    }\n    addExtras(str_1,ints_2);\n\n    // remove items\n    ints_1 = new uint[](integersFlags[2]);\n    for(uint i = 0; i < integersFlags[2]; i++){\n      ints_1[i] = integers[integerIndex];\n      integerIndex ++;\n    }\n    removeMultipleItems(ints_1);\n\n    // add items [addAtIndex int, itemnames sting, itemDescription string, optionnames string, price int, optionFlags int, extraIds int, extraFlags int]\n    // addAtIndex\n    ints_1 = new uint[](integersFlags[3]);\n    for(uint i = 0; i < integersFlags[3]; i++){\n      ints_1[i] = integers[integerIndex];\n      integerIndex ++;\n    }\n\n    //itemNames\n    str_1 = new bytes32[](stringsFlags[1]);\n    for(uint i = 0; i < stringsFlags[1]; i++){\n      str_1[i] = strings[stringIndex];\n      stringIndex ++;\n    }\n\n    //itemDescriptions\n    str_2 = new bytes32[](stringsFlags[2]);\n    for(uint i = 0; i < stringsFlags[2]; i++){\n      str_2[i] = strings[stringIndex];\n      stringIndex ++;\n    }\n\n    // optionNames\n    str_3 = new bytes32[](stringsFlags[3]);\n    for(uint i = 0; i < stringsFlags[3]; i++){\n      str_3[i] = strings[stringIndex];\n      stringIndex ++;\n    }\n\n    // price\n    ints_2 = new uint[](integersFlags[4]);\n    for(uint i = 0; i < integersFlags[4]; i++){\n      ints_2[i] = integers[integerIndex];\n      integerIndex ++;\n    }\n\n    // optionFlags\n    ints_3 = new uint[](integersFlags[5]);\n    for(uint i = 0; i < integersFlags[5]; i++){\n      ints_3[i] = integers[integerIndex];\n      integerIndex ++;\n    }\n\n    ints_4 = new uint[](integersFlags[6]);\n    for(uint i = 0; i < integersFlags[6]; i++){\n      ints_4[i] = integers[integerIndex];\n      integerIndex ++;\n    }\n\n    ints_5 = new uint[](integersFlags[7]);\n    for(uint i = 0; i < integersFlags[7]; i++){\n      ints_5[i] = integers[integerIndex];\n      integerIndex ++;\n    }\n    addMultipleItems(ints_1, str_1, str_2, str_3, ints_2, ints_3, ints_4, ints_5);\n\n    // remove options\n    // itemIds\n    ints_1 = new uint[](integersFlags[8]);\n    for(uint i = 0; i < integersFlags[8]; i++){\n      ints_1[i] = integers[integerIndex];\n      integerIndex ++;\n    }\n\n    // optionIds\n    ints_2 = new uint[](integersFlags[9]);\n    for(uint i = 0; i < integersFlags[9]; i++){\n      ints_2[i] = integers[integerIndex];\n      integerIndex ++;\n    }\n\n    // flags\n    ints_3 = new uint[](integersFlags[10]);\n    for(uint i = 0; i < integersFlags[10]; i++){\n      ints_3[i] = integers[integerIndex];\n      integerIndex ++;\n    }\n    removeMultipleOptions(ints_1,ints_2,ints_3);\n\n    // add options [itemids int, addAtIndex int, optionNames string, _prices]\n    ints_1 = new uint[](integersFlags[11]);\n    for(uint i = 0; i < integersFlags[11]; i++){\n      ints_1[i] = integers[integerIndex];\n      integerIndex ++;\n    }\n\n    ints_2 = new uint[](integersFlags[12]);\n    for(uint i = 0; i < integersFlags[12]; i++){\n      ints_2[i] = integers[integerIndex];\n      integerIndex ++;\n    }\n\n    str_1 = new bytes32[](stringsFlags[4]);\n    for(uint i = 0; i < stringsFlags[4]; i++){\n      str_1[i] = strings[stringIndex];\n      stringIndex ++;\n    }\n\n    ints_3 = new uint[](integersFlags[13]);\n    for(uint i = 0; i < integersFlags[13]; i++){\n      ints_3[i] = integers[integerIndex];\n      integerIndex ++;\n    }\n    addMultipleOptions(ints_1, ints_2, str_1, ints_3);\n\n    // unassign extras[itemids int, extrasids int, flags int] 1\n   ints_1 = new uint[](integersFlags[14]);\n    for(uint i = 0; i < integersFlags[14]; i++){\n      ints_1[i] = integers[integerIndex];\n      integerIndex ++;\n    }\n\n    ints_2 = new uint[](integersFlags[15]);\n    for(uint i = 0; i < integersFlags[15]; i++){\n      ints_2[i] = integers[integerIndex];\n      integerIndex ++;\n    }\n\n    ints_3 = new uint[](integersFlags[16]);\n    for(uint i = 0; i < integersFlags[16]; i++){\n      ints_3[i] = integers[integerIndex];\n      integerIndex ++;\n    }\n    unassignExtras(ints_1,ints_2,ints_3);\n\n\n    // assign extras  [itemids int, extrasids int, flags int] 1\n    ints_1 = new uint[](integersFlags[17]);\n    for(uint i = 0; i < integersFlags[17]; i++){\n      ints_1[i] = integers[integerIndex];\n      integerIndex ++;\n    }\n\n    ints_2 = new uint[](integersFlags[18]);\n    for(uint i = 0; i < integersFlags[18]; i++){\n      ints_2[i] = integers[integerIndex];\n      integerIndex ++;\n    }\n\n    ints_3 = new uint[](integersFlags[19]);\n    for(uint i = 0; i < integersFlags[19]; i++){\n      ints_3[i] = integers[integerIndex];\n      integerIndex ++;\n    }\n    assignExtras(ints_1,ints_2,ints_3);\n\n  }\n\n  // stack overflow with this method\n  // function updateMenu(uint[] memory integers, uint[] memory integersFlags, bytes32[] memory strings, uint[] memory stringsFlags) public {\n  //   uint integerIndex = 0;\n  //   uint stringIndex = 0;\n\n  //   uint[] memory ints_1;\n  //   // remove extras\n  //   ints_1 = getPartitionOfIntArray(integerIndex,integersFlags[0],integers);\n  //   integerIndex += integersFlags[0];\n  //   setExtrasInactive(ints_1);\n\n  //   uint[] memory ints_2;\n  //   bytes32[] memory str_1;\n  //   // add extras\n  //   str_1 = getPartitionOfBytesArray(stringIndex,stringsFlags[0],strings);\n  //   stringIndex += stringsFlags[0];\n  //   ints_2 = getPartitionOfIntArray(integerIndex,integersFlags[1],integers);\n  //   integerIndex += integersFlags[1];\n  //   addExtras(str_1,ints_2);\n\n  //   // remove items\n  //   ints_1 = getPartitionOfIntArray(integerIndex,integersFlags[2],integers);\n  //   integerIndex += integersFlags[2];\n  //   removeMultipleItems(ints_1);\n\n  //   uint[] memory ints_3;\n  //   uint[] memory ints_4;\n  //   uint[] memory ints_5;\n  //   bytes32[] memory str_2;\n  //   bytes32[] memory str_3;\n  //   // add items [addAtIndex int, itemnames sting, itemDescription string, optionnames string, price int, optionFlags int, extraIds int, extraFlags int]\n  //   // addAtIndex\n  //   ints_1 = getPartitionOfIntArray(integerIndex,integersFlags[3],integers);\n  //   integerIndex += integersFlags[3];\n  //   //itemNames\n  //   str_1 = getPartitionOfBytesArray(stringIndex,stringsFlags[1],strings);\n  //   stringIndex += stringsFlags[1];\n  //   //itemDescriptions\n  //   str_2 = getPartitionOfBytesArray(stringIndex,stringsFlags[2],strings);\n  //   stringIndex += stringsFlags[2];\n  //   // optionNames\n  //   str_3 = getPartitionOfBytesArray(stringIndex,stringsFlags[3],strings);\n  //   stringIndex += stringsFlags[3];\n  //   // price\n  //   ints_2 = getPartitionOfIntArray(integerIndex,integersFlags[4],integers);\n  //   integerIndex += integersFlags[4];\n  //   // optionFlags\n  //   ints_3 = getPartitionOfIntArray(integerIndex,integersFlags[5],integers);\n  //   integerIndex += integersFlags[5];\n  //   // extraIds\n  //   ints_4 = getPartitionOfIntArray(integerIndex,integersFlags[6],integers);\n  //   integerIndex += integersFlags[6];\n  //   // extraFlags\n  //   ints_5 = getPartitionOfIntArray(integerIndex,integersFlags[7],integers);\n  //   integerIndex += integersFlags[7];\n  //   addMultipleItems(ints_1, str_1, str_2, str_3, ints_2, ints_3, ints_4, ints_5);\n\n  //   // remove options\n  //   // itemIds\n  //   ints_1 = getPartitionOfIntArray(integerIndex,integersFlags[8],integers);\n  //   integerIndex += integersFlags[8];\n  //   // optionIds\n  //   ints_2 = getPartitionOfIntArray(integerIndex,integersFlags[9],integers);\n  //   integerIndex += integersFlags[9];\n  //   // flags\n  //   ints_3 = getPartitionOfIntArray(integerIndex,integersFlags[10],integers);\n  //   integerIndex += integersFlags[10];\n  //   removeMultipleOptions(ints_1,ints_2,ints_3);\n\n  //   // add options [itemids int, addAtIndex int, optionNames string, _prices]\n  //   // itemids\n  //   ints_1 = getPartitionOfIntArray(integerIndex,integersFlags[11],integers);\n  //   integerIndex += integersFlags[11];\n  //   // addatindex\n  //   ints_2 = getPartitionOfIntArray(integerIndex,integersFlags[12],integers);\n  //   integerIndex += integersFlags[12];\n  //   //  optionnames\n  //   str_1 = getPartitionOfBytesArray(stringIndex,stringsFlags[4],strings);\n  //   stringIndex += stringsFlags[4];\n  //   // prices\n  //   ints_3 = getPartitionOfIntArray(integerIndex,integersFlags[13],integers);\n  //   integerIndex += integersFlags[13];\n  //   addMultipleOptions(ints_1, ints_2, str_1, ints_3);\n\n  //   // unassign extras[itemids int, extrasids int, flags int] 1\n  //   // itemIds\n  //   ints_1 = getPartitionOfIntArray(integerIndex,integersFlags[14],integers);\n  //   integerIndex += integersFlags[14];\n  //   // extraIds\n  //   ints_2 = getPartitionOfIntArray(integerIndex,integersFlags[15],integers);\n  //   integerIndex += integersFlags[15];\n  //   // flags\n  //   ints_3 = getPartitionOfIntArray(integerIndex,integersFlags[16],integers);\n  //   integerIndex += integersFlags[16];\n  //   unassignExtras(ints_1,ints_2,ints_3);\n\n\n  //   // assign extras  [itemids int, extrasids int, flags int] 1\n  //   // itemIds\n  //   ints_1 = getPartitionOfIntArray(integerIndex,integersFlags[17],integers);\n  //   integerIndex += integersFlags[17];\n  //   // extraIds\n  //   ints_2 = getPartitionOfIntArray(integerIndex,integersFlags[18],integers);\n  //   integerIndex += integersFlags[18];\n  //   // flags\n  //   ints_3 = getPartitionOfIntArray(integerIndex,integersFlags[19],integers);\n  //   integerIndex += integersFlags[19];\n  //   assignExtras(ints_1,ints_2,ints_3);\n\n  // }\n\n  // =============================== END unpack function to allow menu updates with one call ===============================================\n\n  // =============================== ITEMS ===============================================\n\n  // toDo\n  function addMultipleItems(uint[] memory addAtIndex, bytes32[] memory itemNames, bytes32[] memory itemDescriptions, bytes32[] memory _optionNames, uint[] memory _prices, uint[] memory optionFlags, uint[] memory _extrasIds, uint[] memory extrasFlags) public {\n    require(msg.sender == owner, \"you are not the owner\");\n    require(addAtIndex.length == itemNames.length, \"the number of item indexes and item names do not match\");\n    require(itemNames.length == itemDescriptions.length, \"the number of descriptions and item names do not match\");\n    require(_optionNames.length == _prices.length, \"the number of options and prices do not match\");\n    require(itemNames.length == optionFlags.length, \"the number of item names and option flags do not match\");\n    require(itemNames.length == extrasFlags.length, \"the number of item names and extras flags do not match\");\n    uint optionFlagsSum = 0;\n    for(uint i = 0; i < optionFlags.length; i++){\n        optionFlagsSum += optionFlags[i];\n    }\n    require(_optionNames.length == optionFlagsSum, \"the number of options and the sum of the option flags do not match\");\n\n\n    uint optionIndex = 0;\n    bytes32[] memory optionNames;\n    uint[] memory prices;\n\n    uint extrasIndex = 0;\n    uint[] memory extraIds;\n\n    for(uint i = 0; i < optionFlags.length; i++){\n\n        optionNames = new bytes32[](optionFlags[i]);\n        prices = new uint[](optionFlags[i]);\n        \n        //ToDo: need to require that the total number of options for an item is less than the options array limit, or have the limit increase when it is exceeded\n\n        for(uint j = 0; j < optionFlags[i]; j++){\n            optionNames[j] = _optionNames[optionIndex];\n            prices[j] = _prices[optionIndex];\n            optionIndex++;\n        }\n\n        extraIds = new uint[](extrasFlags[i]);\n\n        for(uint j = 0; j < extrasFlags[i]; j++){\n          extraIds[j] = _extrasIds[extrasIndex];\n          extrasIndex++;\n        }\n\n\n\n        addEntry(addAtIndex[i], itemNames[i], itemDescriptions[i], optionNames, prices, extraIds);\n    }\n\n  }\n\n  // add item at index needs doing\n  function addEntry(uint addAtIndex, bytes32 _itemName,bytes32 _itemDescription, bytes32[] memory _optionNames, uint[] memory _optionPrices, uint[] memory extraIds) public returns (bool){\n    require(msg.sender == owner, \"you are not the owner of this menu\"); // 270\n    require(_optionNames.length == _optionPrices.length, \"the number of options does not match the number of prices\"); // 28\n\n\n    // add the options\n    // having a next of 0 informs my code that we are at the end of this list\n    Option memory option = Option(0,_optionNames[0],_optionPrices[0]); // 252\n    optionsHead++; // 237\n    options[optionsHead] = option; //40554\n\n\n    //2918775 - 2796277 (three)\n    for(uint i = 1; i < _optionNames.length; i++){\n      option = Option(optionsHead,_optionNames[i],_optionPrices[i]); // 377\n      optionsHead++; // 437\n      options[optionsHead] = option; // 60354\n    }\n\n    Item memory item; // 137\n    if(addAtIndex == 0){ //26\n      item = Item(itemHead,_itemName,_itemDescription,optionsHead, extraIds);\n      length++;\n      items[length] = item;\n      itemHead = length;\n    }\n    else{\n      uint insertAfter = itemHead; // 237\n      for(uint i = 1;i < addAtIndex; i++){\n        uint index = items[insertAfter].nextItem; // 295\n        if(index == 0) // 26\n          break; // if you hit the end of the list, just add it to the end\n        insertAfter = index; // 69\n      }\n      item = Item(items[insertAfter].nextItem,_itemName,_itemDescription,optionsHead,extraIds); // 582\n\n      length++; // 5237\n      items[length] = item; // 80375\n      items[insertAfter].nextItem = length; //5394\n    }\n  }\n\n  function removeMultipleItems(uint[] memory itemIds) public {\n\n    uint lastId = 9999999999;\n    for(int i = int(itemIds.length - 1); i >= 0; i--){\n      require(lastId > itemIds[uint(i)], \"the array of itemIds must be in assending order\");\n      removeItem(itemIds[uint(i)]);\n      lastId = itemIds[uint(i)];\n    }\n  }\n\n  function removeItem(uint itemId) public returns (bool){\n    require(msg.sender == owner, \"you are not the owner of this menu\");\n\n    // if the item is the first item, simple change the head \n    if(itemId == 0){\n     uint newItemHead = items[itemHead].nextItem;\n     delete items[itemHead];\n     itemHead = newItemHead;\n     return true;\n    }\n\n\n    uint itemToUpdate = itemHead;\n    for(uint i = 0; i < itemId - 1; i++){\n      itemToUpdate = items[itemToUpdate].nextItem;\n    }\n    uint itemToDelete = items[itemToUpdate].nextItem;\n    items[itemToUpdate].nextItem = items[itemToDelete].nextItem;\n    return true;\n  }\n\n  // =============================== END ITEMS ===============================================\n\n  // =============================== OPTIONS ===============================================\n\n  function addMultipleOptions(uint[] memory itemIds, uint[] memory addAtIndexs, bytes32[] memory _optionNames, uint[] memory _prices) public {\n    require(msg.sender == owner, \"you are not the owner\");\n    require(itemIds.length == addAtIndexs.length, \"the number of itemIds and indexes to insert at are not the same\");\n    require(_optionNames.length == _prices.length, \"the number of options does not match the number of prices\");\n    require(_optionNames.length == itemIds.length, \"the number of itemIDs does not match the number of optionNames\");\n\n    for(uint i = 0; i < itemIds.length; i++){\n      addOption(itemIds[i], addAtIndexs[i], _optionNames[i],_prices[i]);\n    }\n  }\n\n  // adding at index > 0 puts it at the end, index == 0 puts it at 0\n  function addOption(uint itemId, uint addAtIndex, bytes32 _optionName, uint _optionPrice) public returns(bool){\n    require(msg.sender == owner, \"you are not the owner of this menu\");\n\n    Option memory option;\n\n    (uint itemIndex, bool foundItem) = getItemMappingIndex(itemId);\n    require(foundItem == true, \"index out of range\");\n\n    if(addAtIndex == 0){\n      option = Option(items[itemIndex].optionsHead,_optionName,_optionPrice);\n      optionsHead++;\n      options[optionsHead] = option;\n      items[itemIndex].optionsHead = optionsHead;\n    }\n\n    else{\n      // get the pointer of the item currently at the index\n      (uint insertAfter,bool foundOption) = getOptionMappingIndex(items[itemIndex].optionsHead,addAtIndex);\n      if(!foundOption)\n        insertAfter = 0;\n\n      option = Option(options[insertAfter].nextOption,_optionName,_optionPrice);\n\n      optionsHead++;\n      options[optionsHead] = option;\n\n      options[insertAfter].nextOption = optionsHead;\n    }\n  }\n\n\n  function removeMultipleOptions(uint[] memory itemIds, uint[] memory optionIds, uint[] memory flags) public {\n    uint optionIdsIndex = 0;\n    for(uint i = 0; i < itemIds.length; i++){\n      for(int j = int(flags[i] - 1); j >= 0; j--){\n        removeOption(itemIds[i],optionIds[optionIdsIndex+uint(j)]);\n      }\n      optionIdsIndex+=flags[i];\n    }\n  }\n\n  function removeOption(uint itemId, uint optionId) public returns(bool){\n    require(msg.sender == owner, \"you are not the owner of this menu\");\n\n    (uint itemIndex, bool found) = getItemMappingIndex(itemId);\n    require(found == true, \"index out of range\");\n\n    uint optionToUpdate = items[itemIndex].optionsHead;\n\n    if(optionId == 0){\n     uint newOptionsHead = options[optionToUpdate].nextOption;\n     delete options[optionToUpdate];\n     items[itemIndex].optionsHead = newOptionsHead;\n     return true;\n    }\n\n    (optionToUpdate, found) = getOptionMappingIndex(optionToUpdate,optionId - 1);\n    require(found == true, \"option index out of range\");\n    \n    uint optionToDelete = options[optionToUpdate].nextOption;\n    options[optionToUpdate].nextOption = options[optionToDelete].nextOption;\n    delete options[optionToDelete];\n    return true;\n  }\n\n  // =============================== END OPTIONS ===============================================\n\n  // =============================== EXTRAS ===============================================\n\n  // should improve this storage method\n  function addExtras(bytes32[] memory extraNames, uint[] memory extraPrice) public {\n    require(extraNames.length == extraPrice.length, \"the count of the params dont match\");\n    for(uint i = 0; i < extraNames.length; i++){\n      extras[extraHead] = Extra(extraNames[i],extraPrice[i],true);\n      extraHead++;\n    }\n  }\n\n  // ToDo: check that the extras dont belong to any items\n  function setExtrasInactive(uint[] memory _ids) public {\n    for(uint i = 0; i < _ids.length; i++){\n       extras[_ids[i]].active = false;\n    }\n  }\n\n  // todo\n  // should do some checks to ensure an extra can only be assigned once\n  // could also sort this list to allow fast removal and finding??\n  function assignExtras(uint[] memory _itemIds, uint[] memory _extrasIds, uint[] memory flags) public {\n    require(flags.length == _itemIds.length, \"inconsistent number of flags and item ids\");\n    uint flagSum = 0;\n    for(uint i = 0; i < flags.length; i++){\n      flagSum += flags[i];\n    }\n    require(flagSum == _extrasIds.length, \"the flags are inconsistent with the extras passed in\");\n    \n    uint extrasIndex = 0;\n    for(uint i = 0; i < flags.length; i++){\n      (uint itemIndex, bool found) = getItemMappingIndex(_itemIds[i]);\n      require(found == true, \"index out of range\");\n\n      for(uint j = 0; j < flags[i]; j++){\n        // add extra j to item i\n        items[itemIndex].extrasIds.push(_extrasIds[extrasIndex]);\n        extrasIndex++;\n      }\n    }\n  }\n\n  // ToDo, change extras to a list structure so propper deletion can be done\n  function unassignExtras(uint[] memory _itemIds, uint[] memory _extrasIds, uint[] memory flags) public {\n    require(flags.length == _itemIds.length, \"inconsistent number of flags and item ids\");\n    uint flagSum = 0;\n    for(uint i = 0; i < flags.length; i++){\n      flagSum += flags[i];\n    }\n    require(flagSum == _extrasIds.length, \"the flags are inconsistent with the extras passed in\");\n    \n    uint extrasIndex = 0;\n    for(uint i = 0; i < flags.length; i++){\n      (uint itemIndex, bool found) = getItemMappingIndex(_itemIds[i]);\n      require(found == true, \"index out of range\");\n\n      // for each extra id\n      for(uint j = 0; j < flags[i]; j++){\n        // for each extra in the item\n        for(uint k = 0; k < items[itemIndex].extrasIds.length; k++){\n          if(items[itemIndex].extrasIds[k] == _extrasIds[extrasIndex]){\n            items[itemIndex].extrasIds[k] = 9999; // TODO: should remove element instead of putting in a placholder\n            extrasIndex++;\n            break;\n          }\n        }\n      }\n    }\n  }\n\n  // =============================== END EXTRAS ===============================================\n\n  // =============================== changing order ===============================================\n  // needs doing and implementing\n\n  function reorderItems() public {\n\n  }\n\n  function reorderOptions() public {\n\n  }\n\n  function swapItems(uint index1, uint index2) public {\n    require(msg.sender == owner, \"you are not the owner of this menu\");\n    require(index1 < index2, \"index 1 must be smaller than index 2\");\n\n    uint item1Index;\n    uint item2Index;\n\n    uint preItem1Index;\n    uint preItem2Index;\n\n    uint itemIndex = itemHead;\n    for(uint i = 0; i <= index2; i++){\n      if(i == index1)\n        item1Index = itemIndex;\n      if(i == index1 - 1)\n        preItem1Index = itemIndex;\n      if(i == index2)\n        item2Index = itemIndex;\n      if(i == index2 - 1)\n        preItem2Index = itemIndex;\n\n      itemIndex = items[itemIndex].nextItem;\n    }\n\n    uint temp;\n    if(index1 == 0){\n      // update pre Item Links\n      temp = itemHead;\n      itemHead = items[preItem2Index].nextItem;\n      items[preItem2Index].nextItem = temp;\n    }\n    else{\n      temp = items[preItem1Index].nextItem;\n      items[preItem1Index].nextItem = items[preItem2Index].nextItem;\n      items[preItem2Index].nextItem = temp;\n    }\n\n    //update item links\n    temp = items[item1Index].nextItem;\n    items[item1Index].nextItem = items[item2Index].nextItem;\n    items[item2Index].nextItem = temp;\n  }\n\n  function swapOptions(uint _id, uint index1, uint index2) public {\n    require(msg.sender == owner, \"you are not the owner of this menu\");\n    require(index1 < index2, \"index 1 must be smaller than index 2\");\n\n    uint itemIndex = itemHead;\n    for(uint i = 0; i < _id; i++){\n      itemIndex = items[itemIndex].nextItem;\n    }\n\n    uint item1Index;\n    uint item2Index;\n\n    uint preItem1Index;\n    uint preItem2Index;\n\n    uint optionIndex = items[itemIndex].optionsHead;\n    for(uint i = 0; i <= index2; i++){\n      if(i == index1)\n        item1Index = optionIndex;\n      if(i == index1 - 1)\n        preItem1Index = optionIndex;\n      if(i == index2)\n        item2Index = optionIndex;\n      if(i == index2 - 1)\n        preItem2Index = optionIndex;\n\n      optionIndex = options[optionIndex].nextOption;\n    }\n\n    uint temp;\n    if(index1 == 0){\n      // update pre Item Links\n      temp = items[itemIndex].optionsHead;\n      items[itemIndex].optionsHead = options[preItem2Index].nextOption;\n      options[preItem2Index].nextOption = temp;\n    }\n    else{\n      temp = options[preItem1Index].nextOption;\n      options[preItem1Index].nextOption = options[preItem2Index].nextOption;\n      options[preItem2Index].nextOption = temp;\n    }\n\n    //update item links\n    temp = options[item1Index].nextOption;\n    options[item1Index].nextOption = options[item2Index].nextOption;\n    options[item2Index].nextOption = temp;\n  }\n\n  // =============================== End Swapping Order ===============================================\n\n  // =============================== Other ===============================================\n\n  // integers is uint[] calldata itemIds, uint[] calldata optionIds, uint[] calldata extraFlags, uint[] calldata extraIds\n  function getOrderPrice(uint[] memory integers, uint itemCount) public view returns (uint){\n      uint price = 0;\n      for(uint i = 0; i < itemCount; i++){\n\n        // get item/option price\n        (uint index, bool found) = getItemMappingIndex(integers[i]);\n        require(found == true, \"item index out of range\");\n        (index, found) = getOptionMappingIndex(items[index].optionsHead,integers[i+itemCount]);\n        require(found == true, \"option index out of range\");\n        price += options[index].optionPrice;\n\n        // get extras total\n        uint extrasIdsIndex = 0;\n        for(uint j = 0; j < integers[i+itemCount*2]; j++){\n          price += extras[integers[extrasIdsIndex+itemCount*3]].extraPrice;\n          extrasIdsIndex ++;\n        }\n      }\n      return price;\n  }\n\n}",
  "sourcePath": "/home/george/Documents/WorkSpace/TryAByte/contracts/Menu.sol",
  "compiler": {
    "name": "solc",
    "version": "0.5.12+commit.7709ece9.Emscripten.clang"
  },
  "schemaVersion": "3.0.19",
  "updatedAt": "2020-01-16T16:37:26.711Z",
  "devdoc": {
    "methods": {}
  },
  "userdoc": {
    "methods": {}
  }
}