{
  "contractName": "Menu",
  "abi": [
    {
      "inputs": [],
      "payable": false,
      "stateMutability": "nonpayable",
      "type": "constructor"
    },
    {
      "anonymous": false,
      "inputs": [
        {
          "indexed": false,
          "internalType": "uint256",
          "name": "itemId",
          "type": "uint256"
        },
        {
          "indexed": false,
          "internalType": "uint256",
          "name": "addAtIndex",
          "type": "uint256"
        },
        {
          "indexed": false,
          "internalType": "bytes32",
          "name": "optionName",
          "type": "bytes32"
        },
        {
          "indexed": false,
          "internalType": "uint256",
          "name": "optionPrice",
          "type": "uint256"
        }
      ],
      "name": "addOptionEvent",
      "type": "event"
    },
    {
      "anonymous": false,
      "inputs": [
        {
          "indexed": false,
          "internalType": "string",
          "name": "message",
          "type": "string"
        }
      ],
      "name": "debug",
      "type": "event"
    },
    {
      "anonymous": false,
      "inputs": [
        {
          "indexed": false,
          "internalType": "uint256",
          "name": "number",
          "type": "uint256"
        }
      ],
      "name": "debuguint",
      "type": "event"
    },
    {
      "constant": true,
      "inputs": [],
      "name": "itemHead",
      "outputs": [
        {
          "internalType": "uint256",
          "name": "",
          "type": "uint256"
        }
      ],
      "payable": false,
      "stateMutability": "view",
      "type": "function"
    },
    {
      "constant": true,
      "inputs": [
        {
          "internalType": "uint256",
          "name": "",
          "type": "uint256"
        }
      ],
      "name": "items",
      "outputs": [
        {
          "internalType": "uint256",
          "name": "nextItem",
          "type": "uint256"
        },
        {
          "internalType": "bytes32",
          "name": "itemName",
          "type": "bytes32"
        },
        {
          "internalType": "bytes32",
          "name": "description",
          "type": "bytes32"
        },
        {
          "internalType": "uint256",
          "name": "optionsHead",
          "type": "uint256"
        }
      ],
      "payable": false,
      "stateMutability": "view",
      "type": "function"
    },
    {
      "constant": true,
      "inputs": [],
      "name": "length",
      "outputs": [
        {
          "internalType": "uint256",
          "name": "",
          "type": "uint256"
        }
      ],
      "payable": false,
      "stateMutability": "view",
      "type": "function"
    },
    {
      "constant": true,
      "inputs": [
        {
          "internalType": "uint256",
          "name": "",
          "type": "uint256"
        }
      ],
      "name": "options",
      "outputs": [
        {
          "internalType": "uint256",
          "name": "nextOption",
          "type": "uint256"
        },
        {
          "internalType": "bytes32",
          "name": "optionName",
          "type": "bytes32"
        },
        {
          "internalType": "uint256",
          "name": "optionPrice",
          "type": "uint256"
        }
      ],
      "payable": false,
      "stateMutability": "view",
      "type": "function"
    },
    {
      "constant": true,
      "inputs": [],
      "name": "optionsHead",
      "outputs": [
        {
          "internalType": "uint256",
          "name": "",
          "type": "uint256"
        }
      ],
      "payable": false,
      "stateMutability": "view",
      "type": "function"
    },
    {
      "constant": true,
      "inputs": [
        {
          "internalType": "uint256",
          "name": "_id",
          "type": "uint256"
        }
      ],
      "name": "getEntry",
      "outputs": [
        {
          "internalType": "bytes32",
          "name": "",
          "type": "bytes32"
        },
        {
          "internalType": "bytes32",
          "name": "",
          "type": "bytes32"
        },
        {
          "internalType": "bytes32[]",
          "name": "",
          "type": "bytes32[]"
        },
        {
          "internalType": "uint256[]",
          "name": "",
          "type": "uint256[]"
        }
      ],
      "payable": false,
      "stateMutability": "view",
      "type": "function"
    },
    {
      "constant": false,
      "inputs": [
        {
          "internalType": "uint256",
          "name": "addAtIndex",
          "type": "uint256"
        },
        {
          "internalType": "bytes32",
          "name": "_itemName",
          "type": "bytes32"
        },
        {
          "internalType": "bytes32",
          "name": "_itemDescription",
          "type": "bytes32"
        },
        {
          "internalType": "bytes32[]",
          "name": "_optionNames",
          "type": "bytes32[]"
        },
        {
          "internalType": "uint256[]",
          "name": "_optionPrices",
          "type": "uint256[]"
        }
      ],
      "name": "addEntry",
      "outputs": [
        {
          "internalType": "bool",
          "name": "",
          "type": "bool"
        }
      ],
      "payable": false,
      "stateMutability": "nonpayable",
      "type": "function"
    },
    {
      "constant": false,
      "inputs": [
        {
          "internalType": "uint256",
          "name": "itemId",
          "type": "uint256"
        }
      ],
      "name": "removeItem",
      "outputs": [
        {
          "internalType": "bool",
          "name": "",
          "type": "bool"
        }
      ],
      "payable": false,
      "stateMutability": "nonpayable",
      "type": "function"
    },
    {
      "constant": false,
      "inputs": [
        {
          "internalType": "uint256",
          "name": "itemId",
          "type": "uint256"
        },
        {
          "internalType": "uint256",
          "name": "addAtIndex",
          "type": "uint256"
        },
        {
          "internalType": "bytes32",
          "name": "_optionName",
          "type": "bytes32"
        },
        {
          "internalType": "uint256",
          "name": "_optionPrice",
          "type": "uint256"
        }
      ],
      "name": "addOption",
      "outputs": [
        {
          "internalType": "bool",
          "name": "",
          "type": "bool"
        }
      ],
      "payable": false,
      "stateMutability": "nonpayable",
      "type": "function"
    },
    {
      "constant": false,
      "inputs": [
        {
          "internalType": "uint256",
          "name": "itemId",
          "type": "uint256"
        },
        {
          "internalType": "uint256",
          "name": "optionId",
          "type": "uint256"
        }
      ],
      "name": "removeOption",
      "outputs": [
        {
          "internalType": "bool",
          "name": "",
          "type": "bool"
        }
      ],
      "payable": false,
      "stateMutability": "nonpayable",
      "type": "function"
    },
    {
      "constant": false,
      "inputs": [
        {
          "internalType": "uint256",
          "name": "index1",
          "type": "uint256"
        },
        {
          "internalType": "uint256",
          "name": "index2",
          "type": "uint256"
        }
      ],
      "name": "swapItems",
      "outputs": [],
      "payable": false,
      "stateMutability": "nonpayable",
      "type": "function"
    },
    {
      "constant": false,
      "inputs": [
        {
          "internalType": "uint256",
          "name": "_id",
          "type": "uint256"
        },
        {
          "internalType": "uint256",
          "name": "index1",
          "type": "uint256"
        },
        {
          "internalType": "uint256",
          "name": "index2",
          "type": "uint256"
        }
      ],
      "name": "swapOptions",
      "outputs": [],
      "payable": false,
      "stateMutability": "nonpayable",
      "type": "function"
    },
    {
      "constant": false,
      "inputs": [
        {
          "internalType": "uint256[]",
          "name": "addAtIndex",
          "type": "uint256[]"
        },
        {
          "internalType": "bytes32[]",
          "name": "itemNames",
          "type": "bytes32[]"
        },
        {
          "internalType": "bytes32[]",
          "name": "itemDescriptions",
          "type": "bytes32[]"
        },
        {
          "internalType": "bytes32[]",
          "name": "_optionNames",
          "type": "bytes32[]"
        },
        {
          "internalType": "uint256[]",
          "name": "_prices",
          "type": "uint256[]"
        },
        {
          "internalType": "uint256[]",
          "name": "optionFlags",
          "type": "uint256[]"
        }
      ],
      "name": "addMultipleItems",
      "outputs": [],
      "payable": false,
      "stateMutability": "nonpayable",
      "type": "function"
    },
    {
      "constant": false,
      "inputs": [
        {
          "internalType": "uint256[]",
          "name": "itemIds",
          "type": "uint256[]"
        },
        {
          "internalType": "uint256[]",
          "name": "addAtIndexs",
          "type": "uint256[]"
        },
        {
          "internalType": "bytes32[]",
          "name": "_optionNames",
          "type": "bytes32[]"
        },
        {
          "internalType": "uint256[]",
          "name": "_prices",
          "type": "uint256[]"
        }
      ],
      "name": "addMultipleOptions",
      "outputs": [],
      "payable": false,
      "stateMutability": "nonpayable",
      "type": "function"
    },
    {
      "constant": false,
      "inputs": [
        {
          "internalType": "uint256[]",
          "name": "itemIds",
          "type": "uint256[]"
        }
      ],
      "name": "removeMultipleItems",
      "outputs": [],
      "payable": false,
      "stateMutability": "nonpayable",
      "type": "function"
    },
    {
      "constant": false,
      "inputs": [
        {
          "internalType": "uint256[]",
          "name": "itemIds",
          "type": "uint256[]"
        },
        {
          "internalType": "uint256[]",
          "name": "optionIds",
          "type": "uint256[]"
        },
        {
          "internalType": "uint256[]",
          "name": "flags",
          "type": "uint256[]"
        }
      ],
      "name": "removeMultipleOptions",
      "outputs": [],
      "payable": false,
      "stateMutability": "nonpayable",
      "type": "function"
    },
    {
      "constant": false,
      "inputs": [],
      "name": "reorderItems",
      "outputs": [],
      "payable": false,
      "stateMutability": "nonpayable",
      "type": "function"
    },
    {
      "constant": false,
      "inputs": [],
      "name": "reorderOptions",
      "outputs": [],
      "payable": false,
      "stateMutability": "nonpayable",
      "type": "function"
    }
  ],
  "bytecode": "0x608060405260006001556000600255600060035534801561001f57600080fd5b50600080546001600160a01b03191633179055612031806100416000396000f3fe608060405234801561001057600080fd5b50600436106101165760003560e01c806379b0542d116100a2578063bae78d7b11610071578063bae78d7b14610959578063bfb231d214610a1d578063c98baa3214610a60578063d54307ca14610513578063e4d8a2a614610c0557610116565b806379b0542d1461053857806380fdeff61461075f5780638fb0f14c14610895578063ab90dae81461093657610116565b8063409e2205116100e9578063409e2205146104c857806348850443146105035780635b4b87921461050b5780637087ab3314610513578063713291711461051b57610116565b80630545ba291461011b5780631f7b6d3214610140578063206dd9c61461015a5780633548495214610485575b600080fd5b61013e6004803603604081101561013157600080fd5b5080359060200135610c2e565b005b610148610d8a565b60408051918252519081900360200190f35b61013e600480360360c081101561017057600080fd5b810190602081018135600160201b81111561018a57600080fd5b82018360208201111561019c57600080fd5b803590602001918460208302840111600160201b831117156101bd57600080fd5b9190808060200260200160405190810160405280939291908181526020018383602002808284376000920191909152509295949360208101935035915050600160201b81111561020c57600080fd5b82018360208201111561021e57600080fd5b803590602001918460208302840111600160201b8311171561023f57600080fd5b9190808060200260200160405190810160405280939291908181526020018383602002808284376000920191909152509295949360208101935035915050600160201b81111561028e57600080fd5b8201836020820111156102a057600080fd5b803590602001918460208302840111600160201b831117156102c157600080fd5b9190808060200260200160405190810160405280939291908181526020018383602002808284376000920191909152509295949360208101935035915050600160201b81111561031057600080fd5b82018360208201111561032257600080fd5b803590602001918460208302840111600160201b8311171561034357600080fd5b9190808060200260200160405190810160405280939291908181526020018383602002808284376000920191909152509295949360208101935035915050600160201b81111561039257600080fd5b8201836020820111156103a457600080fd5b803590602001918460208302840111600160201b831117156103c557600080fd5b9190808060200260200160405190810160405280939291908181526020018383602002808284376000920191909152509295949360208101935035915050600160201b81111561041457600080fd5b82018360208201111561042657600080fd5b803590602001918460208302840111600160201b8311171561044757600080fd5b919080806020026020016040519081016040528093929190818152602001838360200280828437600092019190915250929550610d90945050505050565b6104b46004803603608081101561049b57600080fd5b50803590602081013590604081013590606001356110c7565b604080519115158252519081900360200190f35b6104e5600480360360208110156104de57600080fd5b503561125d565b60408051938452602084019290925282820152519081900360600190f35b61014861127e565b610148611284565b61013e61128a565b6104b46004803603602081101561053157600080fd5b503561128c565b61013e6004803603608081101561054e57600080fd5b810190602081018135600160201b81111561056857600080fd5b82018360208201111561057a57600080fd5b803590602001918460208302840111600160201b8311171561059b57600080fd5b9190808060200260200160405190810160405280939291908181526020018383602002808284376000920191909152509295949360208101935035915050600160201b8111156105ea57600080fd5b8201836020820111156105fc57600080fd5b803590602001918460208302840111600160201b8311171561061d57600080fd5b9190808060200260200160405190810160405280939291908181526020018383602002808284376000920191909152509295949360208101935035915050600160201b81111561066c57600080fd5b82018360208201111561067e57600080fd5b803590602001918460208302840111600160201b8311171561069f57600080fd5b9190808060200260200160405190810160405280939291908181526020018383602002808284376000920191909152509295949360208101935035915050600160201b8111156106ee57600080fd5b82018360208201111561070057600080fd5b803590602001918460208302840111600160201b8311171561072157600080fd5b919080806020026020016040519081016040528093929190818152602001838360200280828437600092019190915250929550611361945050505050565b6104b4600480360360a081101561077557600080fd5b81359160208101359160408201359190810190608081016060820135600160201b8111156107a257600080fd5b8201836020820111156107b457600080fd5b803590602001918460208302840111600160201b831117156107d557600080fd5b9190808060200260200160405190810160405280939291908181526020018383602002808284376000920191909152509295949360208101935035915050600160201b81111561082457600080fd5b82018360208201111561083657600080fd5b803590602001918460208302840111600160201b8311171561085757600080fd5b9190808060200260200160405190810160405280939291908181526020018383602002808284376000920191909152509295506114ec945050505050565b61013e600480360360208110156108ab57600080fd5b810190602081018135600160201b8111156108c557600080fd5b8201836020820111156108d757600080fd5b803590602001918460208302840111600160201b831117156108f857600080fd5b9190808060200260200160405190810160405280939291908181526020018383602002808284376000920191909152509295506117a0945050505050565b6104b46004803603604081101561094c57600080fd5b508035906020013561184b565b6109766004803603602081101561096f57600080fd5b503561197c565b604051808581526020018481526020018060200180602001838103835285818151815260200191508051906020019060200280838360005b838110156109c65781810151838201526020016109ae565b50505050905001838103825284818151815260200191508051906020019060200280838360005b83811015610a055781810151838201526020016109ed565b50505050905001965050505050505060405180910390f35b610a3a60048036036020811015610a3357600080fd5b5035611b1b565b604080519485526020850193909352838301919091526060830152519081900360800190f35b61013e60048036036060811015610a7657600080fd5b810190602081018135600160201b811115610a9057600080fd5b820183602082011115610aa257600080fd5b803590602001918460208302840111600160201b83111715610ac357600080fd5b9190808060200260200160405190810160405280939291908181526020018383602002808284376000920191909152509295949360208101935035915050600160201b811115610b1257600080fd5b820183602082011115610b2457600080fd5b803590602001918460208302840111600160201b83111715610b4557600080fd5b9190808060200260200160405190810160405280939291908181526020018383602002808284376000920191909152509295949360208101935035915050600160201b811115610b9457600080fd5b820183602082011115610ba657600080fd5b803590602001918460208302840111600160201b83111715610bc757600080fd5b919080806020026020016040519081016040528093929190818152602001838360200280828437600092019190915250929550611b42945050505050565b61013e60048036036060811015610c1b57600080fd5b5080359060208101359060400135611bd5565b6000546001600160a01b03163314610c775760405162461bcd60e51b8152600401808060200182810382526022815260200180611dc16022913960400191505060405180910390fd5b808210610cb55760405162461bcd60e51b8152600401808060200182810382526024815260200180611efc6024913960400191505060405180910390fd5b600254600090819081908190815b868111610d195787811415610cd6578195505b60018803811415610ce5578193505b86811415610cf1578194505b60018703811415610d00578192505b6000918252600560205260409091205490600101610cc3565b50600087610d425750600280546000848152600560205260409020805490925590819055610d65565b506000838152600560205260408082208054858452919092208054909255908190555b5050506000928352506005602052604080832080549284529220805490925590555050565b60015481565b6000546001600160a01b03163314610de7576040805162461bcd60e51b81526020600482015260156024820152743cb7ba9030b932903737ba103a34329037bbb732b960591b604482015290519081900360640190fd5b8451865114610e275760405162461bcd60e51b8152600401808060200182810382526036815260200180611de36036913960400191505060405180910390fd5b8351855114610e675760405162461bcd60e51b8152600401808060200182810382526036815260200180611f206036913960400191505060405180910390fd5b8151835114610ea75760405162461bcd60e51b815260040180806020018281038252602d815260200180611ecf602d913960400191505060405180910390fd5b8051855114610ee75760405162461bcd60e51b8152600401808060200182810382526036815260200180611e576036913960400191505060405180910390fd5b6000805b8251811015610f1957828181518110610f0057fe5b6020026020010151820191508080600101915050610eeb565b5080845114610f595760405162461bcd60e51b8152600401808060200182810382526042815260200180611e8d6042913960600191505060405180910390fd5b6000606080825b85518110156110ba57858181518110610f7557fe5b6020026020010151604051908082528060200260200182016040528015610fa6578160200160208202803883390190505b509250858181518110610fb557fe5b6020026020010151604051908082528060200260200182016040528015610fe6578160200160208202803883390190505b50915060005b868281518110610ff857fe5b602002602001015181101561106a5788858151811061101357fe5b602002602001015184828151811061102757fe5b60200260200101818152505087858151811061103f57fe5b602002602001015183828151811061105357fe5b602090810291909101015260019485019401610fec565b506110b18b828151811061107a57fe5b60200260200101518b838151811061108e57fe5b60200260200101518b84815181106110a257fe5b602002602001015186866114ec565b50600101610f60565b5050505050505050505050565b600080546001600160a01b031633146111115760405162461bcd60e51b8152600401808060200182810382526022815260200180611dc16022913960400191505060405180910390fd5b611119611d75565b60025460005b8781101561114057600091825260056020526040909120549060010161111f565b50856111af57604080516060810182526000838152600560208181528483206003908101805486528286018c81528688018c8152835460019081018086558852600486529887208851815591519882019890985596516002909701969096555492869052529091559150611253565b600081815260056020526040812060030154905b876001018110156111f257600082815260046020526040902054806111e857506111f2565b91506001016111c3565b5060408051606081018252600083815260046020818152848320805485528185018c81528587018c81526003805460019081018083558852959094529685208651815590519381019390935594516002909201919091555493905291905591505b5050949350505050565b60046020526000908152604090208054600182015460029092015490919083565b60035481565b60025481565b565b600080546001600160a01b031633146112d65760405162461bcd60e51b8152600401808060200182810382526022815260200180611dc16022913960400191505060405180910390fd5b81611311575060028054600090815260056020526040812080548282556001808301849055828501849055600390920192909255915561135c565b60025460005b6001840381101561133b576000918252600560205260409091205490600101611317565b50600081815260056020526040808220805483529082205492909152555060015b919050565b6000546001600160a01b031633146113b8576040805162461bcd60e51b81526020600482015260156024820152743cb7ba9030b932903737ba103a34329037bbb732b960591b604482015290519081900360640190fd5b82518451146113f85760405162461bcd60e51b815260040180806020018281038252603f815260200180611f8f603f913960400191505060405180910390fd5b80518251146114385760405162461bcd60e51b8152600401808060200182810382526039815260200180611f566039913960400191505060405180910390fd5b83518251146114785760405162461bcd60e51b815260040180806020018281038252603e815260200180611e19603e913960400191505060405180910390fd5b60005b84518110156114e5576114dc85828151811061149357fe5b60200260200101518583815181106114a757fe5b60200260200101518584815181106114bb57fe5b60200260200101518585815181106114cf57fe5b60200260200101516110c7565b5060010161147b565b5050505050565b600080546001600160a01b031633146115365760405162461bcd60e51b8152600401808060200182810382526022815260200180611dc16022913960400191505060405180910390fd5b81518351146115765760405162461bcd60e51b8152600401808060200182810382526039815260200180611f566039913960400191505060405180910390fd5b61157e611d75565b6040518060600160405280600081526020018560008151811061159d57fe5b60200260200101518152602001846000815181106115b757fe5b60209081029190910181015190915260038054600190810191829055600091825260048352604091829020845181559284015183820155908301516002909201919091559091505b845181101561168d576040518060600160405280600354815260200186838151811061162757fe5b6020026020010151815260200185838151811061164057fe5b6020908102919091018101519091526003805460019081019182905560009182526004835260409182902084518155928401518382015590830151600290920191909155909250016115ff565b50611696611d99565b876116fb57506040805160808101825260028054825260208083018a81528385018a8152600380546060870190815260018054810180825560009081526005909652979094208651815592518388015590518285015591519101559154909155611795565b60025460015b8981101561172d5760008281526005602052604090205480611723575061172d565b9150600101611701565b5060408051608081018252600083815260056020818152848320805485528185018e81528587018e8152600380546060890190815260018054810180825589529690955297862087518155915182860155516002820155915191909501555493905291905590505b505095945050505050565b80516402540be3ff90600019015b60008112611846578281815181106117c257fe5b602002602001015182116118075760405162461bcd60e51b815260040180806020018281038252602f815260200180611fce602f913960400191505060405180910390fd5b61182383828151811061181657fe5b602002602001015161128c565b5082818151811061183057fe5b60209081029190910101519150600019016117ae565b505050565b600080546001600160a01b031633146118955760405162461bcd60e51b8152600401808060200182810382526022815260200180611dc16022913960400191505060405180910390fd5b60025460005b848110156118bc57600091825260056020526040909120549060010161189b565b50600081815260056020526040902060030154836119135760009081526004602090815260408083208054848255600180830186905560029092018590559484526005909252909120600301919091559050611976565b60005b6001850381101561193a576000918252600460205260409091205490600101611916565b50600090815260046020526040808220805483529082208054909155818155600180820183905560029091019190915580546000190181559150505b92915050565b60025460009081906060908190835b868110156119ac57600091825260056020526040909120549060010161198b565b506119b5611d99565b5060008181526005602090815260408083208151608081018352815481526001820154938101939093526002810154918301919091526003015460608083018290529192829181905b8015611a1e576000908152600460205260409020546001909101906119fe565b81604051908082528060200260200182016040528015611a48578160200160208202803883390190505b50945081604051908082528060200260200182016040528015611a75578160200160208202803883390190505b509350856060015190505b8015611afd576000818152600460205260409020600101548551869085908110611aa657fe5b6020026020010181815250506004600082815260200190815260200160002060020154848481518110611ad557fe5b6020908102919091018101919091526000918252600490526040902054600190920191611a80565b50505060208301516040909301519299929850909650945092505050565b60056020526000908152604090208054600182015460028301546003909301549192909184565b6000805b84518110156114e55760006001848381518110611b5f57fe5b60200260200101510390505b60008112611baf57611ba5868381518110611b8257fe5b60200260200101518683860181518110611b9857fe5b602002602001015161184b565b5060001901611b6b565b50828181518110611bbc57fe5b6020026020010151820191508080600101915050611b46565b6000546001600160a01b03163314611c1e5760405162461bcd60e51b8152600401808060200182810382526022815260200180611dc16022913960400191505060405180910390fd5b808210611c5c5760405162461bcd60e51b8152600401808060200182810382526024815260200180611efc6024913960400191505060405180910390fd5b60025460005b84811015611c83576000918252600560205260409091205490600101611c62565b50600081815260056020526040812060030154819081908190815b878111611cf45788811415611cb1578195505b60018903811415611cc0578193505b87811415611ccc578194505b60018803811415611cdb578192505b6000918252600460205260409091205490600101611c9e565b50600088611d2b57506000868152600560209081526040808320600301805486855260049093529220805490925590819055611d4e565b506000838152600460205260408082208054858452919092208054909255908190555b50505060009283525060046020526040808320805492845292208054909255905550505050565b60405180606001604052806000815260200160008019168152602001600081525090565b6040805160808101825260008082526020820181905291810182905260608101919091529056fe796f7520617265206e6f7420746865206f776e6572206f662074686973206d656e75746865206e756d626572206f66206974656d20696e646578657320616e64206974656d206e616d657320646f206e6f74206d61746368746865206e756d626572206f66206974656d49447320646f6573206e6f74206d6174636820746865206e756d626572206f66206f7074696f6e4e616d6573746865206e756d626572206f66206974656d206e616d657320616e64206f7074696f6e20666c61677320646f206e6f74206d61746368746865206e756d626572206f66206f7074696f6e7320616e64207468652073756d206f6620746865206f7074696f6e20666c61677320646f206e6f74206d61746368746865206e756d626572206f66206f7074696f6e7320616e642070726963657320646f206e6f74206d61746368696e6465782031206d75737420626520736d616c6c6572207468616e20696e6465782032746865206e756d626572206f66206465736372697074696f6e7320616e64206974656d206e616d657320646f206e6f74206d61746368746865206e756d626572206f66206f7074696f6e7320646f6573206e6f74206d6174636820746865206e756d626572206f6620707269636573746865206e756d626572206f66206974656d49647320616e6420696e646578657320746f20696e7365727420617420617265206e6f74207468652073616d65746865206172726179206f66206974656d496473206d75737420626520696e20617373656e64696e67206f72646572a265627a7a72315820fe2145f7a58adbee690c0f788858fae52725a535ed1ad62b06a2de15d210dcd264736f6c634300050c0032",
  "source": "pragma solidity ^0.5.0;\n\ncontract Menu {\n\n  //event AddEntry(bytes32 head,uint number,bytes32 name,bytes32 next);\n  event addOptionEvent(uint itemId, uint addAtIndex, bytes32 optionName, uint optionPrice);\n  event debug(string message);\n  event debuguint(uint number);\n\n  address owner;\n  uint public length = 0;//also used as nonce\n\n  struct Item{\n    uint nextItem; \n    bytes32 itemName;\n    bytes32 description;\n    uint optionsHead;\n  }\n\n  struct Option{\n    uint nextOption; \n    bytes32 optionName;\n    uint optionPrice;\n  }\n\n  uint public itemHead = 0;\n  uint public optionsHead = 0;\n  mapping (uint => Option) public options;\n  mapping (uint => Item) public items;\n\n  constructor() public{\n    owner = msg.sender;\n  }\n\n  //needed for external contract access to struct\n  function getEntry(uint _id) public view returns (bytes32,bytes32,bytes32[] memory,uint[] memory){\n    uint itemIndex = itemHead;\n    \n    for(uint i = 0; i < _id; i++){\n      itemIndex = items[itemIndex].nextItem;\n    }\n\n    Item memory itemToReturn = items[itemIndex];\n\n    bytes32[] memory optionNamesToReturn;\n    uint[] memory optionPricesToReturn;\n    uint counter = 0;\n    uint optionCount = 0;\n    uint index = itemToReturn.optionsHead;\n    while(index != 0){\n      index = options[index].nextOption;\n      optionCount++;\n    }\n    optionNamesToReturn = new bytes32[](optionCount);\n    optionPricesToReturn = new uint[](optionCount);\n\n    index = itemToReturn.optionsHead;\n\n    while(index != 0){\n      optionNamesToReturn[counter] = options[index].optionName;\n      optionPricesToReturn[counter] = options[index].optionPrice;\n      counter++;\n      index = options[index].nextOption;\n    }\n    return (itemToReturn.itemName,itemToReturn.description,optionNamesToReturn,optionPricesToReturn);\n  }\n\n  // add item at index needs doing\n  function addEntry(uint addAtIndex, bytes32 _itemName,bytes32 _itemDescription, bytes32[] memory _optionNames, uint[] memory _optionPrices) public returns (bool){\n    require(msg.sender == owner, \"you are not the owner of this menu\"); // 270\n    require(_optionNames.length == _optionPrices.length, \"the number of options does not match the number of prices\"); // 28\n\n\n    // add the options\n    // having a next of 0 informs my code that we are at the end of this list\n    Option memory option = Option(0,_optionNames[0],_optionPrices[0]); // 252\n    optionsHead++; // 237\n    options[optionsHead] = option; //40554\n\n\n    //2918775 - 2796277 (three)\n    for(uint i = 1; i < _optionNames.length; i++){\n      option = Option(optionsHead,_optionNames[i],_optionPrices[i]); // 377\n      optionsHead++; // 437\n      options[optionsHead] = option; // 60354\n    }\n\n    Item memory item; // 137\n    if(addAtIndex == 0){ //26\n      item = Item(itemHead,_itemName,_itemDescription,optionsHead);\n      length++;\n      items[length] = item;\n      itemHead = length;\n    }\n    else{\n      uint insertAfter = itemHead; // 237\n      for(uint i = 1;i < addAtIndex; i++){\n        uint index = items[insertAfter].nextItem; // 295\n        if(index == 0) // 26\n          break; // if you hit the end of the list, just add it to the end\n        insertAfter = index; // 69\n      }\n      item = Item(items[insertAfter].nextItem,_itemName,_itemDescription,optionsHead); // 582\n\n      length++; // 5237\n      items[length] = item; // 80375\n      items[insertAfter].nextItem = length; //5394\n    }\n\n    \n  }\n\n  function removeItem(uint itemId) public returns (bool){\n    require(msg.sender == owner, \"you are not the owner of this menu\");\n\n    // if the item is the first item, simple change the head \n    if(itemId == 0){\n     uint newItemHead = items[itemHead].nextItem;\n     delete items[itemHead];\n     itemHead = newItemHead;\n     return true;\n    }\n\n\n    uint itemToUpdate = itemHead;\n    for(uint i = 0; i < itemId - 1; i++){\n      itemToUpdate = items[itemToUpdate].nextItem;\n    }\n    uint itemToDelete = items[itemToUpdate].nextItem;\n    items[itemToUpdate].nextItem = items[itemToDelete].nextItem;\n    return true;\n  }\n\n  function addOption(uint itemId, uint addAtIndex, bytes32 _optionName, uint _optionPrice) public returns(bool){\n    require(msg.sender == owner, \"you are not the owner of this menu\");\n\n    Option memory option;\n\n    uint itemIndex = itemHead;\n    for(uint i = 0; i < itemId; i++){\n      itemIndex = items[itemIndex].nextItem;\n    }\n\n    if(addAtIndex == 0){\n      option = Option(items[itemIndex].optionsHead,_optionName,_optionPrice);\n      optionsHead++;\n      options[optionsHead] = option;\n      items[itemIndex].optionsHead = optionsHead;\n    }\n\n    else{\n      // get the pointer of the item currently at the index\n      uint insertAfter = items[itemIndex].optionsHead;\n      for(uint i = 0; i < addAtIndex + 1; i++){\n        uint index = options[insertAfter].nextOption;\n        if(index == 0)\n          break; // if you hit the end of the list, just add it to the end\n        insertAfter = index;\n      }\n      option = Option(options[insertAfter].nextOption,_optionName,_optionPrice);\n\n      optionsHead++;\n      options[optionsHead] = option;\n\n      options[insertAfter].nextOption = optionsHead;\n    }\n\n\n\n  }\n\n  function removeOption(uint itemId, uint optionId) public returns(bool){\n    require(msg.sender == owner, \"you are not the owner of this menu\");\n\n    uint itemIndex = itemHead;\n    for(uint i = 0; i < itemId; i++){\n      itemIndex = items[itemIndex].nextItem;\n    }\n\n    uint optionToUpdate = items[itemIndex].optionsHead;\n\n    if(optionId == 0){\n     uint newOptionsHead = options[optionToUpdate].nextOption;\n     delete options[optionToUpdate];\n     items[itemIndex].optionsHead = newOptionsHead;\n     return true;\n    }\n\n    for(uint i = 0; i < optionId - 1; i++){\n      optionToUpdate = options[optionToUpdate].nextOption;\n    }\n    uint optionToDelete = options[optionToUpdate].nextOption;\n    options[optionToUpdate].nextOption = options[optionToDelete].nextOption;\n    delete options[optionToDelete];\n    length--;\n    return true;\n  }\n\n  function swapItems(uint index1, uint index2) public {\n    require(msg.sender == owner, \"you are not the owner of this menu\");\n    require(index1 < index2, \"index 1 must be smaller than index 2\");\n\n    uint item1Index;\n    uint item2Index;\n\n    uint preItem1Index;\n    uint preItem2Index;\n\n    uint itemIndex = itemHead;\n    for(uint i = 0; i <= index2; i++){\n      if(i == index1)\n        item1Index = itemIndex;\n      if(i == index1 - 1)\n        preItem1Index = itemIndex;\n      if(i == index2)\n        item2Index = itemIndex;\n      if(i == index2 - 1)\n        preItem2Index = itemIndex;\n\n      itemIndex = items[itemIndex].nextItem;\n    }\n\n    uint temp;\n    if(index1 == 0){\n      // update pre Item Links\n      temp = itemHead;\n      itemHead = items[preItem2Index].nextItem;\n      items[preItem2Index].nextItem = temp;\n    }\n    else{\n      temp = items[preItem1Index].nextItem;\n      items[preItem1Index].nextItem = items[preItem2Index].nextItem;\n      items[preItem2Index].nextItem = temp;\n    }\n\n    //update item links\n    temp = items[item1Index].nextItem;\n    items[item1Index].nextItem = items[item2Index].nextItem;\n    items[item2Index].nextItem = temp;\n  }\n\n  function swapOptions(uint _id, uint index1, uint index2) public {\n    require(msg.sender == owner, \"you are not the owner of this menu\");\n    require(index1 < index2, \"index 1 must be smaller than index 2\");\n\n    uint itemIndex = itemHead;\n    for(uint i = 0; i < _id; i++){\n      itemIndex = items[itemIndex].nextItem;\n    }\n\n    uint item1Index;\n    uint item2Index;\n\n    uint preItem1Index;\n    uint preItem2Index;\n\n    uint optionIndex = items[itemIndex].optionsHead;\n    for(uint i = 0; i <= index2; i++){\n      if(i == index1)\n        item1Index = optionIndex;\n      if(i == index1 - 1)\n        preItem1Index = optionIndex;\n      if(i == index2)\n        item2Index = optionIndex;\n      if(i == index2 - 1)\n        preItem2Index = optionIndex;\n\n      optionIndex = options[optionIndex].nextOption;\n    }\n\n    uint temp;\n    if(index1 == 0){\n      // update pre Item Links\n      temp = items[itemIndex].optionsHead;\n      items[itemIndex].optionsHead = options[preItem2Index].nextOption;\n      options[preItem2Index].nextOption = temp;\n    }\n    else{\n      temp = options[preItem1Index].nextOption;\n      options[preItem1Index].nextOption = options[preItem2Index].nextOption;\n      options[preItem2Index].nextOption = temp;\n    }\n\n    //update item links\n    temp = options[item1Index].nextOption;\n    options[item1Index].nextOption = options[item2Index].nextOption;\n    options[item2Index].nextOption = temp;\n\n\n  }\n\n\n  // toDo\n  function addMultipleItems(uint[] memory addAtIndex, bytes32[] memory itemNames, bytes32[] memory itemDescriptions, bytes32[] memory _optionNames, uint[] memory _prices, uint[] memory optionFlags) public {\n    require(msg.sender == owner, \"you are not the owner\");\n    require(addAtIndex.length == itemNames.length, \"the number of item indexes and item names do not match\");\n    require(itemNames.length == itemDescriptions.length, \"the number of descriptions and item names do not match\");\n    require(_optionNames.length == _prices.length, \"the number of options and prices do not match\");\n    require(itemNames.length == optionFlags.length, \"the number of item names and option flags do not match\");\n    uint optionFlagsSum = 0;\n    for(uint i = 0; i < optionFlags.length; i++){\n        optionFlagsSum += optionFlags[i];\n    }\n    require(_optionNames.length == optionFlagsSum, \"the number of options and the sum of the option flags do not match\");\n\n\n    uint optionIndex = 0;\n    bytes32[] memory optionNames;\n    uint[] memory prices;\n\n    for(uint i = 0; i < optionFlags.length; i++){\n\n        optionNames = new bytes32[](optionFlags[i]);\n        prices = new uint[](optionFlags[i]);\n        \n        //ToDo: need to require that the total number of options for an item is less than the options array limit, or have the limit increase when it is exceeded\n\n        for(uint j = 0; j < optionFlags[i]; j++){\n            optionNames[j] = _optionNames[optionIndex];\n            prices[j] = _prices[optionIndex];\n            optionIndex++;\n        }\n\n        addEntry(addAtIndex[i], itemNames[i], itemDescriptions[i], optionNames, prices);\n    }\n\n  }\n\n  function addMultipleOptions(uint[] memory itemIds, uint[] memory addAtIndexs, bytes32[] memory _optionNames, uint[] memory _prices) public {\n    require(msg.sender == owner, \"you are not the owner\");\n    require(itemIds.length == addAtIndexs.length, \"the number of itemIds and indexes to insert at are not the same\");\n    require(_optionNames.length == _prices.length, \"the number of options does not match the number of prices\");\n    require(_optionNames.length == itemIds.length, \"the number of itemIDs does not match the number of optionNames\");\n\n    for(uint i = 0; i < itemIds.length; i++){\n      addOption(itemIds[i], addAtIndexs[i], _optionNames[i],_prices[i]);\n    }\n  }\n\n  function removeMultipleItems(uint[] memory itemIds) public {\n\n    uint lastId = 9999999999;\n    for(int i = int(itemIds.length - 1); i >= 0; i--){\n      require(lastId > itemIds[uint(i)], \"the array of itemIds must be in assending order\");\n      removeItem(itemIds[uint(i)]);\n      lastId = itemIds[uint(i)];\n    }\n\n  }\n\n  function removeMultipleOptions(uint[] memory itemIds, uint[] memory optionIds, uint[] memory flags) public {\n    uint optionIdsIndex = 0;\n    for(uint i = 0; i < itemIds.length; i++){\n      for(int j = int(flags[i] - 1); j >= 0; j--){\n        removeOption(itemIds[i],optionIds[optionIdsIndex+uint(j)]);\n      }\n      optionIdsIndex+=flags[i];\n    }\n  }\n\n  function reorderItems() public {\n\n  }\n\n  function reorderOptions() public {\n\n  }\n\n}",
  "sourcePath": "/home/george/Documents/WorkSpace/TryAByte/contracts/Menu.sol",
  "compiler": {
    "name": "solc",
    "version": "0.5.12+commit.7709ece9.Emscripten.clang"
  },
  "schemaVersion": "3.0.19",
  "updatedAt": "2019-12-11T07:41:27.836Z",
  "networkType": "ethereum",
  "devdoc": {
    "methods": {}
  },
  "userdoc": {
    "methods": {}
  }
}