{
  "contractName": "Order",
  "abi": [
    {
      "constant": true,
      "inputs": [],
      "name": "totalItems",
      "outputs": [
        {
          "name": "",
          "type": "uint256"
        }
      ],
      "payable": false,
      "stateMutability": "view",
      "type": "function"
    },
    {
      "constant": true,
      "inputs": [],
      "name": "restaurantStatus",
      "outputs": [
        {
          "name": "",
          "type": "uint256"
        }
      ],
      "payable": false,
      "stateMutability": "view",
      "type": "function"
    },
    {
      "constant": true,
      "inputs": [],
      "name": "keyHashRestaurant",
      "outputs": [
        {
          "name": "",
          "type": "bytes32"
        }
      ],
      "payable": false,
      "stateMutability": "view",
      "type": "function"
    },
    {
      "constant": true,
      "inputs": [],
      "name": "riderStatus",
      "outputs": [
        {
          "name": "",
          "type": "uint256"
        }
      ],
      "payable": false,
      "stateMutability": "view",
      "type": "function"
    },
    {
      "constant": true,
      "inputs": [],
      "name": "riderPaid",
      "outputs": [
        {
          "name": "",
          "type": "bool"
        }
      ],
      "payable": false,
      "stateMutability": "view",
      "type": "function"
    },
    {
      "constant": true,
      "inputs": [],
      "name": "rider",
      "outputs": [
        {
          "name": "",
          "type": "address"
        }
      ],
      "payable": false,
      "stateMutability": "view",
      "type": "function"
    },
    {
      "constant": true,
      "inputs": [],
      "name": "keyRiderSet",
      "outputs": [
        {
          "name": "",
          "type": "bool"
        }
      ],
      "payable": false,
      "stateMutability": "view",
      "type": "function"
    },
    {
      "constant": true,
      "inputs": [],
      "name": "orderTime",
      "outputs": [
        {
          "name": "",
          "type": "uint256"
        }
      ],
      "payable": false,
      "stateMutability": "view",
      "type": "function"
    },
    {
      "constant": true,
      "inputs": [],
      "name": "customerStatus",
      "outputs": [
        {
          "name": "",
          "type": "uint256"
        }
      ],
      "payable": false,
      "stateMutability": "view",
      "type": "function"
    },
    {
      "constant": true,
      "inputs": [],
      "name": "id",
      "outputs": [
        {
          "name": "",
          "type": "uint256"
        }
      ],
      "payable": false,
      "stateMutability": "view",
      "type": "function"
    },
    {
      "constant": true,
      "inputs": [
        {
          "name": "",
          "type": "uint256"
        }
      ],
      "name": "items",
      "outputs": [
        {
          "name": "itemName",
          "type": "bytes32"
        },
        {
          "name": "itemCost",
          "type": "uint256"
        }
      ],
      "payable": false,
      "stateMutability": "view",
      "type": "function"
    },
    {
      "constant": true,
      "inputs": [],
      "name": "restaurantPaid",
      "outputs": [
        {
          "name": "",
          "type": "bool"
        }
      ],
      "payable": false,
      "stateMutability": "view",
      "type": "function"
    },
    {
      "constant": true,
      "inputs": [],
      "name": "keyRestaurantSet",
      "outputs": [
        {
          "name": "",
          "type": "bool"
        }
      ],
      "payable": false,
      "stateMutability": "view",
      "type": "function"
    },
    {
      "constant": true,
      "inputs": [],
      "name": "restaurant",
      "outputs": [
        {
          "name": "",
          "type": "address"
        }
      ],
      "payable": false,
      "stateMutability": "view",
      "type": "function"
    },
    {
      "constant": true,
      "inputs": [],
      "name": "deliveryFee",
      "outputs": [
        {
          "name": "",
          "type": "uint256"
        }
      ],
      "payable": false,
      "stateMutability": "view",
      "type": "function"
    },
    {
      "constant": true,
      "inputs": [],
      "name": "keyHashRider",
      "outputs": [
        {
          "name": "",
          "type": "bytes32"
        }
      ],
      "payable": false,
      "stateMutability": "view",
      "type": "function"
    },
    {
      "inputs": [
        {
          "name": "_id",
          "type": "uint256"
        },
        {
          "name": "itemNames",
          "type": "bytes32[]"
        },
        {
          "name": "prices",
          "type": "uint256[]"
        },
        {
          "name": "_deliveryFee",
          "type": "uint256"
        },
        {
          "name": "_controller",
          "type": "address"
        },
        {
          "name": "_customer",
          "type": "address"
        },
        {
          "name": "keyHash",
          "type": "bytes32"
        }
      ],
      "payable": true,
      "stateMutability": "payable",
      "type": "constructor"
    },
    {
      "anonymous": false,
      "inputs": [],
      "name": "statusUpdated",
      "type": "event"
    },
    {
      "constant": true,
      "inputs": [
        {
          "name": "_id",
          "type": "uint256"
        }
      ],
      "name": "getItem",
      "outputs": [
        {
          "name": "itemName",
          "type": "bytes32"
        },
        {
          "name": "itemCost",
          "type": "uint256"
        }
      ],
      "payable": false,
      "stateMutability": "view",
      "type": "function"
    },
    {
      "constant": false,
      "inputs": [
        {
          "name": "keyHash",
          "type": "bytes32"
        }
      ],
      "name": "riderOfferDelivery",
      "outputs": [],
      "payable": true,
      "stateMutability": "payable",
      "type": "function"
    },
    {
      "constant": false,
      "inputs": [
        {
          "name": "status",
          "type": "uint256"
        }
      ],
      "name": "setOrderStatus",
      "outputs": [],
      "payable": true,
      "stateMutability": "payable",
      "type": "function"
    },
    {
      "constant": true,
      "inputs": [],
      "name": "getBalance",
      "outputs": [
        {
          "name": "",
          "type": "uint256"
        }
      ],
      "payable": false,
      "stateMutability": "view",
      "type": "function"
    },
    {
      "constant": true,
      "inputs": [],
      "name": "getCost",
      "outputs": [
        {
          "name": "",
          "type": "uint256"
        }
      ],
      "payable": false,
      "stateMutability": "view",
      "type": "function"
    },
    {
      "constant": false,
      "inputs": [
        {
          "name": "key",
          "type": "bytes32"
        }
      ],
      "name": "restaurantSubmitKey",
      "outputs": [
        {
          "name": "",
          "type": "bool"
        }
      ],
      "payable": false,
      "stateMutability": "nonpayable",
      "type": "function"
    },
    {
      "constant": false,
      "inputs": [
        {
          "name": "key",
          "type": "bytes32"
        }
      ],
      "name": "riderSubmitKey",
      "outputs": [
        {
          "name": "",
          "type": "bool"
        }
      ],
      "payable": false,
      "stateMutability": "nonpayable",
      "type": "function"
    },
    {
      "constant": true,
      "inputs": [
        {
          "name": "data",
          "type": "bytes32"
        }
      ],
      "name": "getHash",
      "outputs": [
        {
          "name": "",
          "type": "bytes32"
        }
      ],
      "payable": false,
      "stateMutability": "view",
      "type": "function"
    }
  ],
  "bytecode": "0x608060408190526004805461ffff19169055600c805460ff19908116909155600e805490911690556200113038819003908190833981018060405260e08110156200004957600080fd5b8151602083018051919392830192916401000000008111156200006b57600080fd5b820160208101848111156200007f57600080fd5b81518560208202830111640100000000821117156200009d57600080fd5b50509291906020018051640100000000811115620000ba57600080fd5b82016020810184811115620000ce57600080fd5b8151856020820283011164010000000082111715620000ec57600080fd5b5050602080830151604080850151606086015160809096015182517f68db65a4000000000000000000000000000000000000000000000000000000008152925195985092965094939192600160a060020a038616926368db65a4926004808201939291829003018186803b1580156200016457600080fd5b505afa15801562000179573d6000803e3d6000fd5b505050506040513d60208110156200019057600080fd5b5051604080517f79a4fa270000000000000000000000000000000000000000000000000000000081523360048201529051600160a060020a03909216916379a4fa2791602480820192602092909190829003018186803b158015620001f457600080fd5b505afa15801562000209573d6000803e3d6000fd5b505050506040513d60208110156200022057600080fd5b50511515620002b657604080517f08c379a000000000000000000000000000000000000000000000000000000000815260206004820152603d60248201527f617474656d7074656420746f206d616b65206f726465722066726f6d2061646460448201527f726573732074686174206973206e6f7420612072657374617572616e74000000606482015290519081900360840190fd5b84518651146200034d57604080517f08c379a000000000000000000000000000000000000000000000000000000000815260206004820152602360248201527f696e76616c6964206d61746368696e67206f66206974656d7320746f2070726960448201527f6365730000000000000000000000000000000000000000000000000000000000606482015290519081900360840190fd5b6003879055600480546201000033026201000060b060020a031990911617905560068054600160a060020a03848116600160a060020a03199283161790925542600855600780549286169290911691909117905560006009819055600f8190555b8651811015620004505760408051908101604052808883815181101515620003d257fe5b9060200190602002015181526020018783815181101515620003f057fe5b6020908102909101810151909152600f54600090815260108252604090208251815591015160019091015585518690829081106200042a57fe5b60209081029091010151600980549091019055600f8054600190810190915501620003ae565b50600a8490556009548401341015620004f057604080517f08c379a000000000000000000000000000000000000000000000000000000000815260206004820152602360248201527f6e6f7420656e6f7567682065746865722073656e7420746f20746865206f726460448201527f6572200000000000000000000000000000000000000000000000000000000000606482015290519081900360840190fd5b60016002556000809081556001908155600b91909155600c805460ff19169091179055505050505050610c0780620005296000396000f3fe6080604052600436106101245763ffffffff60e060020a60003504166312065fe081146101295780632799276d146101505780633129e7731461016557806332940816146101a85780633cc94908146101bd5780633cf5040a146101d25780633e3ca4d3146101fc57806340571abb1461021157806353c0a0061461023a578063646e077f1461026b5780637aada134146102805780639e8464f114610295578063a14b7e68146102bf578063af640d0f146102d4578063bd3e19d4146102e9578063bfb231d2146102fe578063d601e11414610328578063d638e1021461033d578063db7575f014610352578063e9132c421461037c578063ed1680581461039b578063f3cc0f1f146103b0578063f90a92e3146103c5578063fc6f78a0146103e2575b600080fd5b34801561013557600080fd5b5061013e6103f7565b60408051918252519081900360200190f35b34801561015c57600080fd5b5061013e6103fc565b34801561017157600080fd5b5061018f6004803603602081101561018857600080fd5b5035610402565b6040805192835260208301919091528051918290030190f35b3480156101b457600080fd5b5061013e61041c565b3480156101c957600080fd5b5061013e610422565b3480156101de57600080fd5b5061013e600480360360208110156101f557600080fd5b5035610428565b34801561020857600080fd5b5061013e61044c565b34801561021d57600080fd5b50610226610452565b604080519115158252519081900360200190f35b34801561024657600080fd5b5061024f610460565b60408051600160a060020a039092168252519081900360200190f35b34801561027757600080fd5b5061022661046f565b34801561028c57600080fd5b5061013e610478565b3480156102a157600080fd5b50610226600480360360208110156102b857600080fd5b503561047e565b3480156102cb57600080fd5b5061013e610572565b3480156102e057600080fd5b5061013e610578565b3480156102f557600080fd5b5061013e61057e565b34801561030a57600080fd5b5061018f6004803603602081101561032157600080fd5b5035610584565b34801561033457600080fd5b5061022661059d565b34801561034957600080fd5b506102266105a6565b34801561035e57600080fd5b506102266004803603602081101561037557600080fd5b50356105af565b6103996004803603602081101561039257600080fd5b50356106a2565b005b3480156103a757600080fd5b5061024f610835565b3480156103bc57600080fd5b5061013e61084a565b610399600480360360208110156103db57600080fd5b5035610850565b3480156103ee57600080fd5b5061013e610a80565b303190565b600f5481565b600090815260106020526040902080546001909101549091565b60015481565b600d5481565b60408051602080820193909352815180820384018152908201909152805191012090565b60005481565b600454610100900460ff1681565b600554600160a060020a031681565b600c5460ff1681565b60085481565b600e5460009060ff1615156001146104e0576040805160e560020a62461bcd02815260206004820152601360248201527f4e6f206b657920686173206265656e2073657400000000000000000000000000604482015290519081900360640190fd5b600d546104ec83610428565b14610541576040805160e560020a62461bcd02815260206004820152600d60248201527f496e636f7272656374204b657900000000000000000000000000000000000000604482015290519081900360640190fd5b610549610a86565b600360015560026000908155604051600080516020610bbc8339815191529190a1506001919050565b60025481565b60035481565b60095490565b6010602052600090815260409020805460019091015482565b60045460ff1681565b600e5460ff1681565b600c5460009060ff161515600114610611576040805160e560020a62461bcd02815260206004820152601360248201527f4e6f206b657920686173206265656e2073657400000000000000000000000000604482015290519081900360640190fd5b600b5461061d83610428565b14610672576040805160e560020a62461bcd02815260206004820152600d60248201527f496e636f7272656374204b657900000000000000000000000000000000000000604482015290519081900360640190fd5b61067a610b1d565b600360005560028055604051600080516020610bbc83398151915290600090a1506001919050565b600454620100009004600160a060020a03163314610756576040805160e560020a62461bcd02815260206004820152605060248201527f596f7520646f6e742068617665207065726d697373696f6e20746f207365652060448201527f74686973206f726465722c2064696420796f752067657420746865206f72646560648201527f7220616464726573732077726f6e673f00000000000000000000000000000000608482015290519081900360a40190fd5b60015481116107af576040805160e560020a62461bcd02815260206004820152601c60248201527f7374617475732063616e6e6f74206265206261636b747261636b656400000000604482015290519081900360640190fd5b600381111580156107c05750600081115b1515610816576040805160e560020a62461bcd02815260206004820152601660248201527f676976656e20537461747573206e6f742076616c696400000000000000000000604482015290519081900360640190fd5b6001819055604051600080516020610bbc83398151915290600090a150565b600454620100009004600160a060020a031681565b600a5481565b600760009054906101000a9004600160a060020a0316600160a060020a031663c9286d576040518163ffffffff1660e060020a02815260040160206040518083038186803b1580156108a157600080fd5b505afa1580156108b5573d6000803e3d6000fd5b505050506040513d60208110156108cb57600080fd5b5051604080517f139526700000000000000000000000000000000000000000000000000000000081523360048201529051600160a060020a0390921691631395267091602480820192602092909190829003018186803b15801561092e57600080fd5b505afa158015610942573d6000803e3d6000fd5b505050506040513d602081101561095857600080fd5b505115156109d6576040805160e560020a62461bcd02815260206004820152602960248201527f6d7573742062652063616c6c656420766961206120726964657220736d61727460448201527f20636f6e74726163740000000000000000000000000000000000000000000000606482015290519081900360840190fd5b600954341015610a30576040805160e560020a62461bcd02815260206004820152601e60248201527f746865206465706f7369742073656e74206973206e6f7420656e6f7567680000604482015290519081900360640190fd5b600160009081556005805473ffffffffffffffffffffffffffffffffffffffff191633179055600d829055600e805460ff19166001179055604051600080516020610bbc8339815191529190a150565b600b5481565b600460029054906101000a9004600160a060020a0316600160a060020a0316631b9265b86009546040518263ffffffff1660e060020a0281526004016000604051808303818588803b158015610adb57600080fd5b505af1158015610aef573d6000803e3d6000fd5b50506004805460ff191660019081178255555050604051600080516020610bbc8339815191529150600090a1565b600560009054906101000a9004600160a060020a0316600160a060020a0316631b9265b8600a54600954016040518263ffffffff1660e060020a0281526004016000604051808303818588803b158015610b7657600080fd5b505af1158015610b8a573d6000803e3d6000fd5b50506004805461ff001916610100179055505060036000908155604051600080516020610bbc8339815191529250a156feac854101ed2841c4fe7b3c5bfc4f3e58ddac515e8dd58f1bd9cf7856f1cc6e7fa165627a7a72305820a1527b02c2efe81b19f9a50f77645332619d8454dd8037f62ff85f70f4648bfc0029",
  "source": "pragma solidity ^0.5.0;\n\nimport './RestaurantFactory.sol';\nimport './RiderFactory.sol';\nimport './Controller.sol';\nimport './Restaurant.sol';\nimport './Rider.sol';\n\ncontract Order{\n\n\tenum riderState{unassigned, accepted, hasCargo, Delivered}\n\tenum restaurantState{acceptedOrder, preparingCargo, readyForCollection, HandedOver}\n\tenum customerState{madeOrder, payed, hasCargo}\n    \n\tuint public riderStatus;\n\tuint public restaurantStatus;\n\tuint public customerStatus;\n\n\tuint public id;\n\t\n\tbool public restaurantPaid = false;\n\tbool public riderPaid = false;\n\n\taddress payable public restaurant;\n\taddress payable public rider; \t  // this should be encrypted\n\taddress payable customer; // this should be encrypted\n\n\taddress controller;\n\n\tuint public orderTime;\n\tuint cost;\n\tuint public deliveryFee;\n    \n\tbytes32 public keyHashRider;\n\tbool public keyRiderSet = false;\n\n\tbytes32 public keyHashRestaurant;\n\tbool public keyRestaurantSet = false;\n\n\tuint public totalItems;\n\tmapping(uint=>Item) public items; // this should be encrypted\n\n\tevent statusUpdated();\n\n\tstruct Item{\n\t\tbytes32 itemName;\n\t\tuint itemCost; // in wei (10^-18 Eth)\n\t}\n\n\n\tconstructor(uint _id, bytes32[] memory itemNames, uint[] memory prices, uint _deliveryFee, address _controller, address payable _customer, bytes32 keyHash) public payable {\n\t    // require sent from a restaurant contract\n\t    require(RestaurantFactory(Controller(_controller).restaurantFactoryAddress()).restaurantExists(msg.sender),\"attempted to make order from address that is not a restaurant\");\n\t    require(itemNames.length == prices.length, \"invalid matching of items to prices\");\n\t\t\n\t\t// set contract infomation\n\t\tid = _id;\n\t\trestaurant = msg.sender;\n\t\tcustomer = _customer; // this needs changing as is vunrability\n\t\torderTime = block.timestamp;\n\n\t\tcontroller = _controller;\n\t\t\n\t\tcost = 0;\n\n\t\t// set items\n\t\ttotalItems = 0;\n\t\tfor(uint i = 0; i < itemNames.length; i++){\n\t\t    items[totalItems] = Item(itemNames[i],prices[i]);\n\t\t    cost += prices[i];\n\t\t    totalItems++;\n\t\t}\n\n\t\tdeliveryFee = _deliveryFee;\n\n\t\trequire(msg.value >= cost + deliveryFee,\"not enough ether sent to the order \");\n\t\t\n\t\tcustomerStatus = uint(customerState.payed);\n\t\triderStatus = uint(riderState.unassigned);\n\t\trestaurantStatus = uint(restaurantState.acceptedOrder);\t\n\n\t\tkeyHashRider = keyHash;\n\t\tkeyRiderSet = true;\n\t}\n\n\tfunction getItem(uint _id) public view returns(bytes32 itemName, uint itemCost){\n\t\t//require(customer == msg.sender || restaurant == msg.sender || rider == msg.sender); // removed as asking for contract address where as should be owner addresses\n\t\treturn (items[_id].itemName,items[_id].itemCost);\n\t}  \n\n\n\tfunction riderOfferDelivery(bytes32 keyHash) public payable{\n\t\trequire(RiderFactory(Controller(controller).riderFactoryAddress()).riderExists(msg.sender), \"must be called via a rider smart contract\");\n\t\trequire(msg.value >= cost, \"the deposit sent is not enough\");\n\t\t\n\t\triderStatus = uint(riderState.accepted);\n\t\trider = msg.sender;\n\n\t\tkeyHashRestaurant = keyHash;\n\t\tkeyRestaurantSet = true;\n\t\t\n\t\temit statusUpdated();\n\t}\n\n\tfunction setOrderStatus(uint status) public payable{\n\t\trequire(msg.sender == restaurant, \"You dont have permission to see this order, did you get the order address wrong?\");\n\t\trequire(status > restaurantStatus, \"status cannot be backtracked\");\n\t\trequire(status <= 3 && status > 0, \"given Status not valid\");\n\t\trestaurantStatus = status;\n\t\temit statusUpdated();\n\t}\n\n\tfunction payRider() private{\n\t\tRider(rider).pay.value(cost+deliveryFee)();\n\t\triderPaid = true;\n\t\triderStatus = 3;\n\t\temit statusUpdated();\n\t}\n\n\tfunction payRestaurant() private{\n\t\tRestaurant(restaurant).pay.value(cost)();\n\t\trestaurantPaid = true;\n\t\trestaurantStatus = 4;\n\t\temit statusUpdated();\n\t}\n\n\tfunction getBalance() public view returns(uint){\n\t\treturn address(this).balance;\n\t}\n\n\tfunction getCost() public view returns(uint){\n\t\t//require that this is one of the agents involved\n\t\treturn cost;\n\t}\n\n\tfunction restaurantSubmitKey(bytes32 key) public returns (bool){\n\t\trequire(keyRestaurantSet == true, \"No key has been set\");\n\t\trequire(getHash(key) == keyHashRestaurant, \"Incorrect Key\");\n\t\tpayRestaurant();\n\t\trestaurantStatus = uint(restaurantState.HandedOver);\n\t\triderStatus = uint(riderState.hasCargo);\n\t\temit statusUpdated();\n\t\treturn true;\n\t}\n\n\tfunction riderSubmitKey(bytes32 key) public returns (bool){\n\t\trequire(keyRiderSet == true, \"No key has been set\");\n\t\trequire(getHash(key) == keyHashRider, \"Incorrect Key\");\n\t\tpayRider();\n\t\triderStatus = uint(riderState.Delivered);\n\t\tcustomerStatus = uint(customerState.hasCargo);\n\t\temit statusUpdated();\n\t\treturn true;\n\t}\n\n\tfunction getHash(bytes32 data) public view returns(bytes32){\n\t\treturn keccak256(abi.encodePacked(data));\n\t}\n}",
  "sourcePath": "/home/george/Documents/TryAByte/contracts/Order.sol",
  "compiler": {
    "name": "solc",
    "version": "0.5.0+commit.1d4f565a.Emscripten.clang"
  },
  "schemaVersion": "3.0.6",
  "updatedAt": "2019-04-24T17:09:25.380Z",
  "devdoc": {
    "methods": {}
  },
  "userdoc": {
    "methods": {}
  }
}