{
  "contractName": "Order",
  "abi": [
    {
      "inputs": [
        {
          "internalType": "uint256[]",
          "name": "integers",
          "type": "uint256[]"
        },
        {
          "internalType": "uint256",
          "name": "_itemCount",
          "type": "uint256"
        },
        {
          "internalType": "address",
          "name": "_controller",
          "type": "address"
        },
        {
          "internalType": "address payable[]",
          "name": "addresses",
          "type": "address[]"
        },
        {
          "internalType": "bytes32",
          "name": "keyHash",
          "type": "bytes32"
        }
      ],
      "payable": true,
      "stateMutability": "payable",
      "type": "constructor"
    },
    {
      "anonymous": false,
      "inputs": [],
      "name": "statusUpdated",
      "type": "event"
    },
    {
      "constant": true,
      "inputs": [],
      "name": "creationTime",
      "outputs": [
        {
          "internalType": "uint256",
          "name": "",
          "type": "uint256"
        }
      ],
      "payable": false,
      "stateMutability": "view",
      "type": "function"
    },
    {
      "constant": true,
      "inputs": [],
      "name": "customer",
      "outputs": [
        {
          "internalType": "address payable",
          "name": "",
          "type": "address"
        }
      ],
      "payable": false,
      "stateMutability": "view",
      "type": "function"
    },
    {
      "constant": true,
      "inputs": [],
      "name": "customerOwner",
      "outputs": [
        {
          "internalType": "address",
          "name": "",
          "type": "address"
        }
      ],
      "payable": false,
      "stateMutability": "view",
      "type": "function"
    },
    {
      "constant": true,
      "inputs": [],
      "name": "customerStatus",
      "outputs": [
        {
          "internalType": "uint256",
          "name": "",
          "type": "uint256"
        }
      ],
      "payable": false,
      "stateMutability": "view",
      "type": "function"
    },
    {
      "constant": true,
      "inputs": [],
      "name": "deliveryFee",
      "outputs": [
        {
          "internalType": "uint256",
          "name": "",
          "type": "uint256"
        }
      ],
      "payable": false,
      "stateMutability": "view",
      "type": "function"
    },
    {
      "constant": true,
      "inputs": [],
      "name": "deliveryTime",
      "outputs": [
        {
          "internalType": "uint256",
          "name": "",
          "type": "uint256"
        }
      ],
      "payable": false,
      "stateMutability": "view",
      "type": "function"
    },
    {
      "constant": true,
      "inputs": [],
      "name": "id",
      "outputs": [
        {
          "internalType": "uint256",
          "name": "",
          "type": "uint256"
        }
      ],
      "payable": false,
      "stateMutability": "view",
      "type": "function"
    },
    {
      "constant": true,
      "inputs": [
        {
          "internalType": "uint256",
          "name": "",
          "type": "uint256"
        }
      ],
      "name": "items",
      "outputs": [
        {
          "internalType": "uint256",
          "name": "itemId",
          "type": "uint256"
        },
        {
          "internalType": "uint256",
          "name": "optionId",
          "type": "uint256"
        }
      ],
      "payable": false,
      "stateMutability": "view",
      "type": "function"
    },
    {
      "constant": true,
      "inputs": [],
      "name": "keyHashRestaurant",
      "outputs": [
        {
          "internalType": "bytes32",
          "name": "",
          "type": "bytes32"
        }
      ],
      "payable": false,
      "stateMutability": "view",
      "type": "function"
    },
    {
      "constant": true,
      "inputs": [],
      "name": "keyHashRider",
      "outputs": [
        {
          "internalType": "bytes32",
          "name": "",
          "type": "bytes32"
        }
      ],
      "payable": false,
      "stateMutability": "view",
      "type": "function"
    },
    {
      "constant": true,
      "inputs": [],
      "name": "keyRestaurantSet",
      "outputs": [
        {
          "internalType": "bool",
          "name": "",
          "type": "bool"
        }
      ],
      "payable": false,
      "stateMutability": "view",
      "type": "function"
    },
    {
      "constant": true,
      "inputs": [],
      "name": "keyRiderSet",
      "outputs": [
        {
          "internalType": "bool",
          "name": "",
          "type": "bool"
        }
      ],
      "payable": false,
      "stateMutability": "view",
      "type": "function"
    },
    {
      "constant": true,
      "inputs": [],
      "name": "orderTime",
      "outputs": [
        {
          "internalType": "uint256",
          "name": "",
          "type": "uint256"
        }
      ],
      "payable": false,
      "stateMutability": "view",
      "type": "function"
    },
    {
      "constant": true,
      "inputs": [],
      "name": "pickupTime",
      "outputs": [
        {
          "internalType": "uint256",
          "name": "",
          "type": "uint256"
        }
      ],
      "payable": false,
      "stateMutability": "view",
      "type": "function"
    },
    {
      "constant": true,
      "inputs": [],
      "name": "restaurant",
      "outputs": [
        {
          "internalType": "address payable",
          "name": "",
          "type": "address"
        }
      ],
      "payable": false,
      "stateMutability": "view",
      "type": "function"
    },
    {
      "constant": true,
      "inputs": [],
      "name": "restaurantOwner",
      "outputs": [
        {
          "internalType": "address",
          "name": "",
          "type": "address"
        }
      ],
      "payable": false,
      "stateMutability": "view",
      "type": "function"
    },
    {
      "constant": true,
      "inputs": [],
      "name": "restaurantPaid",
      "outputs": [
        {
          "internalType": "bool",
          "name": "",
          "type": "bool"
        }
      ],
      "payable": false,
      "stateMutability": "view",
      "type": "function"
    },
    {
      "constant": true,
      "inputs": [],
      "name": "restaurantStatus",
      "outputs": [
        {
          "internalType": "uint256",
          "name": "",
          "type": "uint256"
        }
      ],
      "payable": false,
      "stateMutability": "view",
      "type": "function"
    },
    {
      "constant": true,
      "inputs": [],
      "name": "rider",
      "outputs": [
        {
          "internalType": "address payable",
          "name": "",
          "type": "address"
        }
      ],
      "payable": false,
      "stateMutability": "view",
      "type": "function"
    },
    {
      "constant": true,
      "inputs": [],
      "name": "riderOwner",
      "outputs": [
        {
          "internalType": "address",
          "name": "",
          "type": "address"
        }
      ],
      "payable": false,
      "stateMutability": "view",
      "type": "function"
    },
    {
      "constant": true,
      "inputs": [],
      "name": "riderPaid",
      "outputs": [
        {
          "internalType": "bool",
          "name": "",
          "type": "bool"
        }
      ],
      "payable": false,
      "stateMutability": "view",
      "type": "function"
    },
    {
      "constant": true,
      "inputs": [],
      "name": "riderStatus",
      "outputs": [
        {
          "internalType": "uint256",
          "name": "",
          "type": "uint256"
        }
      ],
      "payable": false,
      "stateMutability": "view",
      "type": "function"
    },
    {
      "constant": true,
      "inputs": [],
      "name": "totalItems",
      "outputs": [
        {
          "internalType": "uint256",
          "name": "",
          "type": "uint256"
        }
      ],
      "payable": false,
      "stateMutability": "view",
      "type": "function"
    },
    {
      "constant": true,
      "inputs": [
        {
          "internalType": "uint256",
          "name": "_id",
          "type": "uint256"
        }
      ],
      "name": "getItemRaw",
      "outputs": [
        {
          "internalType": "uint256",
          "name": "",
          "type": "uint256"
        },
        {
          "internalType": "uint256",
          "name": "",
          "type": "uint256"
        },
        {
          "internalType": "uint256[]",
          "name": "",
          "type": "uint256[]"
        }
      ],
      "payable": false,
      "stateMutability": "view",
      "type": "function"
    },
    {
      "constant": false,
      "inputs": [
        {
          "internalType": "address",
          "name": "_riderOwner",
          "type": "address"
        },
        {
          "internalType": "bytes32",
          "name": "keyHash",
          "type": "bytes32"
        }
      ],
      "name": "riderOfferDelivery",
      "outputs": [],
      "payable": true,
      "stateMutability": "payable",
      "type": "function"
    },
    {
      "constant": false,
      "inputs": [
        {
          "internalType": "uint256",
          "name": "status",
          "type": "uint256"
        }
      ],
      "name": "setOrderStatus",
      "outputs": [],
      "payable": true,
      "stateMutability": "payable",
      "type": "function"
    },
    {
      "constant": true,
      "inputs": [],
      "name": "getBalance",
      "outputs": [
        {
          "internalType": "uint256",
          "name": "",
          "type": "uint256"
        }
      ],
      "payable": false,
      "stateMutability": "view",
      "type": "function"
    },
    {
      "constant": true,
      "inputs": [],
      "name": "getCost",
      "outputs": [
        {
          "internalType": "uint256",
          "name": "",
          "type": "uint256"
        }
      ],
      "payable": false,
      "stateMutability": "view",
      "type": "function"
    },
    {
      "constant": false,
      "inputs": [
        {
          "internalType": "bytes32",
          "name": "key",
          "type": "bytes32"
        }
      ],
      "name": "restaurantSubmitKey",
      "outputs": [
        {
          "internalType": "bool",
          "name": "",
          "type": "bool"
        }
      ],
      "payable": false,
      "stateMutability": "nonpayable",
      "type": "function"
    },
    {
      "constant": false,
      "inputs": [
        {
          "internalType": "bytes32",
          "name": "key",
          "type": "bytes32"
        }
      ],
      "name": "riderSubmitKey",
      "outputs": [
        {
          "internalType": "bool",
          "name": "",
          "type": "bool"
        }
      ],
      "payable": false,
      "stateMutability": "nonpayable",
      "type": "function"
    },
    {
      "constant": true,
      "inputs": [
        {
          "internalType": "bytes32",
          "name": "data",
          "type": "bytes32"
        }
      ],
      "name": "getHash",
      "outputs": [
        {
          "internalType": "bytes32",
          "name": "",
          "type": "bytes32"
        }
      ],
      "payable": false,
      "stateMutability": "pure",
      "type": "function"
    }
  ],
  "bytecode": "0x608060408190526007805461ffff191690556012805460ff199081169091556014805490911690556200163a38819003908190833981810160405260a08110156200004957600080fd5b81019080805160405193929190846401000000008211156200006a57600080fd5b9083019060208201858111156200008057600080fd5b82518660208202830111640100000000821117156200009e57600080fd5b82525081516020918201928201910280838360005b83811015620000cd578181015183820152602001620000b3565b5050505091909101604081815260208401519084015160609094018051919694959294935090846401000000008211156200010757600080fd5b9083019060208201858111156200011d57600080fd5b82518660208202830111640100000000821117156200013b57600080fd5b82525081516020918201928201910280838360005b838110156200016a57818101518382015260200162000150565b5050505090500160405260200180519060200190929190505050826001600160a01b03166368db65a46040518163ffffffff1660e01b815260040160206040518083038186803b158015620001be57600080fd5b505afa158015620001d3573d6000803e3d6000fd5b505050506040513d6020811015620001ea57600080fd5b5051604080517f79a4fa2700000000000000000000000000000000000000000000000000000000815233600482015290516001600160a01b03909216916379a4fa2791602480820192602092909190829003018186803b1580156200024e57600080fd5b505afa15801562000263573d6000803e3d6000fd5b505050506040513d60208110156200027a57600080fd5b5051620002d3576040517f08c379a000000000000000000000000000000000000000000000000000000000815260040180806020018281038252603d815260200180620015fd603d913960400191505060405180910390fd5b84600181518110620002e157fe5b602002602001015160108190555084600081518110620002fd57fe5b6020026020010151600f81905550601054600f54013410156200036c576040517f08c379a0000000000000000000000000000000000000000000000000000000008152600401808060200182810382526022815260200180620015db6022913960400191505060405180910390fd5b601584905560006200037d620005e4565b60005b86811015620004d2576040518060600160405280898360020181518110620003a457fe5b602002602001015181526020018989840160020181518110620003c357fe5b602002602001015181526020018989600202840160020181518110620003e557fe5b602002602001015160405190808252806020026020018201604052801562000417578160200160208202803883390190505b509052915060005b88886002028301600201815181106200043457fe5b60200260200101518110156200048a5788886003028501600201815181106200045957fe5b6020026020010151836040015182815181106200047257fe5b6020908102919091010152600193840193016200041f565b5060008181526016602090815260409182902084518155818501516001820155918401518051859392620004c692600285019291019062000605565b50505060010162000380565b506007805462010000600160b01b03191633620100000217905583518490600090620004fa57fe5b6020026020010151600a60006101000a8154816001600160a01b0302191690836001600160a01b03160217905550836001815181106200053657fe5b6020026020010151600960006101000a8154816001600160a01b0302191690836001600160a01b03160217905550836002815181106200057257fe5b6020908102919091010151600c80546001600160a01b03199081166001600160a01b039384161790915542600e55600d80549091169187169190911790556001600255600080908155600190815560119390935550506012805460ff1916909117905550504260035550620006759050565b60405180606001604052806000815260200160008152602001606081525090565b82805482825590600052602060002090810192821562000643579160200282015b828111156200064357825182559160200191906001019062000626565b506200065192915062000655565b5090565b6200067291905b808211156200065157600081556001016200065c565b90565b610f5680620006856000396000f3fe6080604052600436106101d85760003560e01c806390c021a311610102578063d638e10211610095578063e9132c4211610064578063e9132c4214610553578063ed16805814610570578063f3cc0f1f14610585578063fc6f78a01461059a576101d8565b8063d638e10214610473578063d8270dce14610488578063db7575f01461049d578063ddd0ebe8146104c7576101d8565b8063af640d0f116100d1578063af640d0f146103f1578063bd3e19d414610406578063bfb231d21461041b578063d601e1141461045e576101d8565b806390c021a31461036f578063997907331461039d5780639e8464f1146103b2578063a14b7e68146103dc576101d8565b80633e5cfa271161017a578063646e077f11610149578063646e077f1461031b5780637aada134146103305780637e6308141461034557806389c64e671461035a576101d8565b80633e5cfa27146102b357806340571abb146102c857806345fe5a83146102f157806353c0a00614610306576101d8565b806332940816116101b6578063329408161461024a5780633cc949081461025f5780633cf5040a146102745780633e3ca4d31461029e576101d8565b806312065fe0146101dd5780632799276d146102045780632804b2c014610219575b600080fd5b3480156101e957600080fd5b506101f26105af565b60408051918252519081900360200190f35b34801561021057600080fd5b506101f26105b4565b34801561022557600080fd5b5061022e6105ba565b604080516001600160a01b039092168252519081900360200190f35b34801561025657600080fd5b506101f26105c9565b34801561026b57600080fd5b506101f26105cf565b34801561028057600080fd5b506101f26004803603602081101561029757600080fd5b50356105d5565b3480156102aa57600080fd5b506101f26105f9565b3480156102bf57600080fd5b5061022e6105ff565b3480156102d457600080fd5b506102dd61060e565b604080519115158252519081900360200190f35b3480156102fd57600080fd5b506101f261061c565b34801561031257600080fd5b5061022e610622565b34801561032757600080fd5b506102dd610631565b34801561033c57600080fd5b506101f261063a565b34801561035157600080fd5b5061022e610640565b34801561036657600080fd5b506101f261064f565b61039b6004803603604081101561038557600080fd5b506001600160a01b038135169060200135610655565b005b3480156103a957600080fd5b5061022e61086f565b3480156103be57600080fd5b506102dd600480360360208110156103d557600080fd5b503561087e565b3480156103e857600080fd5b506101f2610956565b3480156103fd57600080fd5b506101f261095c565b34801561041257600080fd5b506101f2610962565b34801561042757600080fd5b506104456004803603602081101561043e57600080fd5b5035610968565b6040805192835260208301919091528051918290030190f35b34801561046a57600080fd5b506102dd610981565b34801561047f57600080fd5b506102dd61098a565b34801561049457600080fd5b506101f2610993565b3480156104a957600080fd5b506102dd600480360360208110156104c057600080fd5b5035610999565b3480156104d357600080fd5b506104f1600480360360208110156104ea57600080fd5b5035610a70565b6040518084815260200183815260200180602001828103825283818151815260200191508051906020019060200280838360005b8381101561053d578181015183820152602001610525565b5050505090500194505050505060405180910390f35b61039b6004803603602081101561056957600080fd5b5035610bab565b34801561057c57600080fd5b5061022e610cdf565b34801561059157600080fd5b506101f2610cf4565b3480156105a657600080fd5b506101f2610cfa565b303190565b60155481565b6009546001600160a01b031681565b60015481565b60135481565b60408051602080820193909352815180820384018152908201909152805191012090565b60005481565b600a546001600160a01b031681565b600754610100900460ff1681565b60055481565b6008546001600160a01b031681565b60125460ff1681565b600e5481565b600c546001600160a01b031681565b60045481565b600054156106945760405162461bcd60e51b815260040180806020018281038252602a815260200180610ea4602a913960400191505060405180910390fd5b600d60009054906101000a90046001600160a01b03166001600160a01b031663c9286d576040518163ffffffff1660e01b815260040160206040518083038186803b1580156106e257600080fd5b505afa1580156106f6573d6000803e3d6000fd5b505050506040513d602081101561070c57600080fd5b505160408051630139526760e41b815233600482015290516001600160a01b0390921691631395267091602480820192602092909190829003018186803b15801561075657600080fd5b505afa15801561076a573d6000803e3d6000fd5b505050506040513d602081101561078057600080fd5b50516107bd5760405162461bcd60e51b8152600401808060200182810382526029815260200180610ef96029913960400191505060405180910390fd5b600f54341015610814576040805162461bcd60e51b815260206004820152601e60248201527f746865206465706f7369742073656e74206973206e6f7420656e6f7567680000604482015290519081900360640190fd5b60016000908155600b80546001600160a01b0385166001600160a01b031991821617909155600880549091163317905560138290556014805460ff19166001179055604051600080516020610e348339815191529190a15050565b600b546001600160a01b031681565b60145460009060ff1615156001146108d3576040805162461bcd60e51b8152602060048201526013602482015272139bc81ad95e481a185cc81899595b881cd95d606a1b604482015290519081900360640190fd5b6013546108df836105d5565b14610921576040805162461bcd60e51b815260206004820152600d60248201526c496e636f7272656374204b657960981b604482015290519081900360640190fd5b610929610d00565b60036001556002600090815542600455604051600080516020610e348339815191529190a1506001919050565b60025481565b60065481565b600f5490565b6016602052600090815260409020805460019091015482565b60075460ff1681565b60145460ff1681565b60035481565b60125460009060ff1615156001146109ee576040805162461bcd60e51b8152602060048201526013602482015272139bc81ad95e481a185cc81899595b881cd95d606a1b604482015290519081900360640190fd5b6011546109fa836105d5565b14610a3c576040805162461bcd60e51b815260206004820152600d60248201526c496e636f7272656374204b657960981b604482015290519081900360640190fd5b610a44610d98565b60036000556002805542600555604051600080516020610e3483398151915290600090a1506001919050565b60095460009081906060906001600160a01b0316331480610aa157506007546201000090046001600160a01b031633145b80610ab657506008546001600160a01b031633145b80610acb5750600c546001600160a01b031633145b80610ae05750600a546001600160a01b031633145b80610af55750600b546001600160a01b031633145b610b305760405162461bcd60e51b815260040180806020018281038252602b815260200180610ece602b913960400191505060405180910390fd5b6000848152601660209081526040918290208054600182015460029092018054855181860281018601909652808652919492939092918391830182828015610b9757602002820191906000526020600020905b815481526020019060010190808311610b83575b505050505090509250925092509193909250565b6007546201000090046001600160a01b0316331480610bd45750600a546001600160a01b031633145b610c0f5760405162461bcd60e51b8152600401808060200182810382526050815260200180610e546050913960600191505060405180910390fd5b6001548111610c65576040805162461bcd60e51b815260206004820152601c60248201527f7374617475732063616e6e6f74206265206261636b747261636b656400000000604482015290519081900360640190fd5b60038111158015610c765750600081115b610cc0576040805162461bcd60e51b815260206004820152601660248201527519da5d995b8814dd185d1d5cc81b9bdd081d985b1a5960521b604482015290519081900360640190fd5b6001819055604051600080516020610e3483398151915290600090a150565b6007546201000090046001600160a01b031681565b60105481565b60115481565b600760029054906101000a90046001600160a01b03166001600160a01b0316631b9265b8600f546040518263ffffffff1660e01b81526004016000604051808303818588803b158015610d5257600080fd5b505af1158015610d66573d6000803e3d6000fd5b50506007805460ff19166001908117909155600490555050604051600080516020610e348339815191529150600090a1565b600860009054906101000a90046001600160a01b03166001600160a01b0316631b9265b8601054600f54016040518263ffffffff1660e01b81526004016000604051808303818588803b158015610dee57600080fd5b505af1158015610e02573d6000803e3d6000fd5b50506007805461ff001916610100179055505060036000908155604051600080516020610e348339815191529250a156feac854101ed2841c4fe7b3c5bfc4f3e58ddac515e8dd58f1bd9cf7856f1cc6e7f596f7520646f6e742068617665207065726d697373696f6e20746f207365652074686973206f726465722c2064696420796f752067657420746865206f7264657220616464726573732077726f6e673f74686973206f7264657220616c6c7265616479206861732064656c6976657279206f7267616e69736564796f7520646f6e742068617665207065726d697373696f6e20746f20766965772074686973206f726465726d7573742062652063616c6c656420766961206120726964657220736d61727420636f6e7472616374a265627a7a7231582026d2ae5f1912521c2ea8f94298db3fbd04126259e8c4bb750bc95f91311d058664736f6c634300050c00326e6f7420656e6f7567682065746865722073656e7420746f20746865206f72646572617474656d7074656420746f206d616b65206f726465722066726f6d20616464726573732074686174206973206e6f7420612072657374617572616e74",
  "source": "pragma solidity ^0.5.0;\n\nimport './RestaurantFactory.sol';\nimport './RiderFactory.sol';\nimport './Controller.sol';\nimport './Restaurant.sol';\nimport './Menu.sol';\nimport './Rider.sol';\n\ncontract Order{\n\n\tenum riderState{unassigned, accepted, hasCargo, Delivered}\n\tenum restaurantState{acceptedOrder, preparingCargo, readyForCollection, HandedOver}\n\tenum customerState{madeOrder, payed, hasCargo}\n    \n\tuint public riderStatus;\n\tuint public restaurantStatus;\n\tuint public customerStatus;\n\n\tuint public creationTime;\n\tuint public pickupTime;\n\tuint public deliveryTime;\n\n\tuint public id;\n\t\n\tbool public restaurantPaid = false;\n\tbool public riderPaid = false;\n\n\taddress payable public restaurant;\n\taddress payable public rider; \t \n\taddress payable public customer; \n\taddress public restaurantOwner;\n\taddress public riderOwner; \t \n\taddress public customerOwner; \n\n\taddress controller;\n\n\tuint public orderTime;\n\tuint cost;\n\tuint public deliveryFee;\n    \n\tbytes32 public keyHashRider;\n\tbool public keyRiderSet = false;\n\n\tbytes32 public keyHashRestaurant;\n\tbool public keyRestaurantSet = false;\n\n\tuint public totalItems;\n\n\tstruct Item {\n\t\tuint itemId;\n\t\tuint optionId;\n\t\tuint[] extraIds;\n\t}\n\n\tmapping(uint=>Item) public items;\n\n\tevent statusUpdated();\n\n\t//uint _id, uint price, uint _deliveryFee, uint[] memory itemIds, uint[] memory optionIds, uint[] memory extraFlags, uint[] memory extraIds\n\tconstructor(uint[] memory integers, uint _itemCount, address _controller, address payable[] memory addresses, bytes32 keyHash) public payable {\n\t    // require sent from a restaurant contract\n\t    require(RestaurantFactory(Controller(_controller).restaurantFactoryAddress()).restaurantExists(msg.sender),\"attempted to make order from address that is not a restaurant\");\n\n\t    // deconstruct integer array\n\t    deliveryFee = integers[1];\n\t    cost = integers[0];\n\n\t\trequire(msg.value >= cost + deliveryFee,\"not enough ether sent to the order\");\n\n\t    uint extraIndex = 0;\n\t    totalItems = _itemCount;\n\t    Item memory currentItem;\n\t    for(uint i = 0; i < _itemCount; i++){\n\t    \tcurrentItem = Item(integers[i+2],integers[i+_itemCount+2], new uint[](integers[i+(_itemCount*2)+2]));\n\t    \tfor(uint j = 0; j < integers[i+(_itemCount*2)+2]; j++){\n\t    \t\tcurrentItem.extraIds[j] = integers[extraIndex+(_itemCount*3)+2];\n\t    \t\textraIndex++;\n\t    \t}\n\t    \titems[i] = currentItem;\t\n\t    }\n\t\t\n\t\t// set contract infomation\n\t\trestaurant = msg.sender;\n\t\trestaurantOwner = addresses[0];\n\t\tcustomer = addresses[1];\n\t\tcustomerOwner = addresses[2];\n\t\torderTime = block.timestamp;\n\t\tcontroller = _controller;\n\t\t\n\t\tcustomerStatus = uint(customerState.payed);\n\t\triderStatus = uint(riderState.unassigned);\n\t\trestaurantStatus = uint(restaurantState.acceptedOrder);\t\n\n\t\tkeyHashRider = keyHash;\n\t\tkeyRiderSet = true;\n\n\t\tcreationTime = block.timestamp;\n\t}\n\n\tfunction getItemRaw(uint _id) public view returns(uint, uint, uint[] memory){\n\t\trequire(customer == msg.sender || restaurant == msg.sender || rider == msg.sender || customerOwner == msg.sender || restaurantOwner == msg.sender || riderOwner == msg.sender,  \"you dont have permission to view this order\"); // removed as asking for contract address where as should be owner addresses\n\t\treturn (items[_id].itemId,items[_id].optionId,items[_id].extraIds);\n\t}\n\n\n\tfunction riderOfferDelivery(address _riderOwner,bytes32 keyHash) public payable{\n\t\trequire(riderStatus == uint(riderState.unassigned),\"this order allready has delivery organised\");\n\t\trequire(RiderFactory(Controller(controller).riderFactoryAddress()).riderExists(msg.sender), \"must be called via a rider smart contract\");\n\t\trequire(msg.value >= cost, \"the deposit sent is not enough\");\n\t\t\n\t\triderStatus = uint(riderState.accepted);\n\t\triderOwner = _riderOwner;\n\t\trider = msg.sender;\n\n\t\tkeyHashRestaurant = keyHash;\n\t\tkeyRestaurantSet = true;\n\t\t\n\t\temit statusUpdated();\n\t}\n\n\tfunction setOrderStatus(uint status) public payable{\n\t\trequire(msg.sender == restaurant || msg.sender == restaurantOwner, \"You dont have permission to see this order, did you get the order address wrong?\");\n\t\trequire(status > restaurantStatus, \"status cannot be backtracked\");\n\t\trequire(status <= 3 && status > 0, \"given Status not valid\");\n\t\trestaurantStatus = status;\n\t\temit statusUpdated();\n\t}\n\n\tfunction payRider() private{\n\t\tRider(rider).pay.value(cost+deliveryFee)();\n\t\triderPaid = true;\n\t\triderStatus = 3;\n\t\temit statusUpdated();\n\t}\n\n\tfunction payRestaurant() private{\n\t\tRestaurant(restaurant).pay.value(cost)();\n\t\trestaurantPaid = true;\n\t\trestaurantStatus = 4;\n\t\temit statusUpdated();\n\t}\n\n\tfunction getBalance() public view returns(uint){\n\t\treturn address(this).balance;\n\t}\n\n\tfunction getCost() public view returns(uint){\n\t\t//require that this is one of the agents involved\n\t\treturn cost;\n\t}\n\n\tfunction restaurantSubmitKey(bytes32 key) public returns (bool){\n\t\trequire(keyRestaurantSet == true, \"No key has been set\");\n\t\trequire(getHash(key) == keyHashRestaurant, \"Incorrect Key\");\n\t\tpayRestaurant();\n\t\trestaurantStatus = uint(restaurantState.HandedOver);\n\t\triderStatus = uint(riderState.hasCargo);\n\t\tpickupTime = block.timestamp;\n\t\temit statusUpdated();\n\t\treturn true;\n\t}\n\n\tfunction riderSubmitKey(bytes32 key) public returns (bool){\n\t\trequire(keyRiderSet == true, \"No key has been set\");\n\t\trequire(getHash(key) == keyHashRider, \"Incorrect Key\");\n\t\tpayRider();\n\t\triderStatus = uint(riderState.Delivered);\n\t\tcustomerStatus = uint(customerState.hasCargo);\n\t\tdeliveryTime = block.timestamp;\n\t\temit statusUpdated();\n\t\treturn true;\n\t}\n\n\tfunction getHash(bytes32 data) public pure returns(bytes32){\n\t\treturn keccak256(abi.encodePacked(data));\n\t}\n}",
  "sourcePath": "/home/george/Documents/WorkSpace/TryAByte/contracts/Order.sol",
  "compiler": {
    "name": "solc",
    "version": "0.5.12+commit.7709ece9.Emscripten.clang"
  },
  "schemaVersion": "3.0.19",
  "updatedAt": "2020-02-05T14:21:18.544Z",
  "networkType": "ethereum",
  "devdoc": {
    "methods": {}
  },
  "userdoc": {
    "methods": {}
  }
}