{
  "contractName": "Restaurant",
  "abi": [
    {
      "constant": true,
      "inputs": [],
      "name": "name",
      "outputs": [
        {
          "name": "",
          "type": "string"
        }
      ],
      "payable": false,
      "stateMutability": "view",
      "type": "function",
      "signature": "0x06fdde03"
    },
    {
      "constant": true,
      "inputs": [],
      "name": "totalOrders",
      "outputs": [
        {
          "name": "",
          "type": "uint256"
        }
      ],
      "payable": false,
      "stateMutability": "view",
      "type": "function",
      "signature": "0x1d834409"
    },
    {
      "constant": true,
      "inputs": [],
      "name": "menuLength",
      "outputs": [
        {
          "name": "",
          "type": "uint256"
        }
      ],
      "payable": false,
      "stateMutability": "view",
      "type": "function",
      "signature": "0x3d939a49"
    },
    {
      "constant": true,
      "inputs": [],
      "name": "controllerAddress",
      "outputs": [
        {
          "name": "",
          "type": "address"
        }
      ],
      "payable": false,
      "stateMutability": "view",
      "type": "function",
      "signature": "0x4b24ea47"
    },
    {
      "constant": true,
      "inputs": [],
      "name": "location",
      "outputs": [
        {
          "name": "",
          "type": "string"
        }
      ],
      "payable": false,
      "stateMutability": "view",
      "type": "function",
      "signature": "0x516f279e"
    },
    {
      "constant": true,
      "inputs": [],
      "name": "restaurantFactoryAddress",
      "outputs": [
        {
          "name": "",
          "type": "address"
        }
      ],
      "payable": false,
      "stateMutability": "view",
      "type": "function",
      "signature": "0x68db65a4"
    },
    {
      "constant": true,
      "inputs": [],
      "name": "contactNumber",
      "outputs": [
        {
          "name": "",
          "type": "string"
        }
      ],
      "payable": false,
      "stateMutability": "view",
      "type": "function",
      "signature": "0x76af633c"
    },
    {
      "constant": true,
      "inputs": [],
      "name": "rating",
      "outputs": [
        {
          "name": "",
          "type": "uint256"
        }
      ],
      "payable": false,
      "stateMutability": "view",
      "type": "function",
      "signature": "0x80f474f6"
    },
    {
      "constant": true,
      "inputs": [],
      "name": "owner",
      "outputs": [
        {
          "name": "",
          "type": "address"
        }
      ],
      "payable": false,
      "stateMutability": "view",
      "type": "function",
      "signature": "0x8da5cb5b"
    },
    {
      "constant": true,
      "inputs": [
        {
          "name": "",
          "type": "uint256"
        }
      ],
      "name": "orders",
      "outputs": [
        {
          "name": "open",
          "type": "bool"
        },
        {
          "name": "orderAddress",
          "type": "address"
        }
      ],
      "payable": false,
      "stateMutability": "view",
      "type": "function",
      "signature": "0xa85c38ef"
    },
    {
      "constant": true,
      "inputs": [],
      "name": "id",
      "outputs": [
        {
          "name": "",
          "type": "uint256"
        }
      ],
      "payable": false,
      "stateMutability": "view",
      "type": "function",
      "signature": "0xaf640d0f"
    },
    {
      "constant": true,
      "inputs": [
        {
          "name": "",
          "type": "uint256"
        }
      ],
      "name": "menu",
      "outputs": [
        {
          "name": "itemName",
          "type": "bytes32"
        },
        {
          "name": "itemCost",
          "type": "uint256"
        }
      ],
      "payable": false,
      "stateMutability": "view",
      "type": "function",
      "signature": "0xcffb703c"
    },
    {
      "inputs": [
        {
          "name": "_controller",
          "type": "address"
        },
        {
          "name": "_owner",
          "type": "address"
        },
        {
          "name": "_id",
          "type": "uint256"
        },
        {
          "name": "_name",
          "type": "string"
        },
        {
          "name": "_address",
          "type": "string"
        },
        {
          "name": "_contactNumber",
          "type": "string"
        }
      ],
      "payable": false,
      "stateMutability": "nonpayable",
      "type": "constructor"
    },
    {
      "payable": true,
      "stateMutability": "payable",
      "type": "fallback"
    },
    {
      "anonymous": false,
      "inputs": [
        {
          "indexed": false,
          "name": "orderAddress",
          "type": "address"
        }
      ],
      "name": "OrderMadeEvent",
      "type": "event",
      "signature": "0x6ad6ccf0214624cc1ab014b24a7601698f45e6a0d07edcbab143606784ed78fb"
    },
    {
      "anonymous": false,
      "inputs": [],
      "name": "MenuUpdated",
      "type": "event",
      "signature": "0x6706c873484487b2b1bb6c385a03896b4a5a6f9069aef613842f6529410ae09f"
    },
    {
      "constant": true,
      "inputs": [],
      "name": "getMenuLength",
      "outputs": [
        {
          "name": "length",
          "type": "uint256"
        }
      ],
      "payable": false,
      "stateMutability": "view",
      "type": "function",
      "signature": "0x125ba977"
    },
    {
      "constant": false,
      "inputs": [
        {
          "name": "itemNames",
          "type": "bytes32[]"
        },
        {
          "name": "prices",
          "type": "uint256[]"
        }
      ],
      "name": "menuAddItems",
      "outputs": [],
      "payable": false,
      "stateMutability": "nonpayable",
      "type": "function",
      "signature": "0x3e92c468"
    },
    {
      "constant": false,
      "inputs": [
        {
          "name": "itemIds",
          "type": "uint256[]"
        }
      ],
      "name": "menuRemoveItems",
      "outputs": [],
      "payable": false,
      "stateMutability": "nonpayable",
      "type": "function",
      "signature": "0x21be5e4e"
    },
    {
      "constant": true,
      "inputs": [
        {
          "name": "itemIds",
          "type": "uint256[]"
        }
      ],
      "name": "getOrderPrice",
      "outputs": [
        {
          "name": "",
          "type": "uint256"
        }
      ],
      "payable": false,
      "stateMutability": "view",
      "type": "function",
      "signature": "0x66e1dfa3"
    },
    {
      "constant": false,
      "inputs": [
        {
          "name": "itemIds",
          "type": "uint256[]"
        },
        {
          "name": "deliveryFee",
          "type": "uint256"
        },
        {
          "name": "riderKeyHash",
          "type": "bytes32"
        }
      ],
      "name": "makeOrder",
      "outputs": [
        {
          "name": "orderAddress",
          "type": "address"
        }
      ],
      "payable": true,
      "stateMutability": "payable",
      "type": "function",
      "signature": "0xf9a9525e"
    },
    {
      "constant": true,
      "inputs": [
        {
          "name": "itemId",
          "type": "uint256"
        }
      ],
      "name": "getMenuItem",
      "outputs": [
        {
          "name": "itemname",
          "type": "bytes32"
        },
        {
          "name": "cost",
          "type": "uint256"
        }
      ],
      "payable": false,
      "stateMutability": "view",
      "type": "function",
      "signature": "0xf943eecd"
    },
    {
      "constant": false,
      "inputs": [
        {
          "name": "orderAddress",
          "type": "uint256"
        },
        {
          "name": "status",
          "type": "uint256"
        }
      ],
      "name": "setStatus",
      "outputs": [],
      "payable": false,
      "stateMutability": "nonpayable",
      "type": "function",
      "signature": "0x82e40813"
    },
    {
      "constant": false,
      "inputs": [],
      "name": "pay",
      "outputs": [],
      "payable": true,
      "stateMutability": "payable",
      "type": "function",
      "signature": "0x1b9265b8"
    }
  ],
  "bytecode": "0x60806040523480156200001157600080fd5b50604051620024f7380380620024f7833981018060405260c08110156200003757600080fd5b81516020830151604084015160608501805193959294919391830192916401000000008111156200006757600080fd5b820160208101848111156200007b57600080fd5b81516401000000008111828201871017156200009657600080fd5b50509291906020018051640100000000811115620000b357600080fd5b82016020810184811115620000c757600080fd5b8151640100000000811182820187101715620000e257600080fd5b50509291906020018051640100000000811115620000ff57600080fd5b820160208101848111156200011357600080fd5b81516401000000008111828201871017156200012e57600080fd5b5050600087905585519093506200014f9250600191506020860190620001cc565b50815162000165906002906020850190620001cc565b5080516200017b906003906020840190620001cc565b505060006008819055600a55505060068054600160a060020a03948516600160a060020a03199182161790915560058054939094169281169290921790925560078054909116331790555062000271565b828054600181600116156101000203166002900490600052602060002090601f016020900481019282601f106200020f57805160ff19168380011785556200023f565b828001600101855582156200023f579182015b828111156200023f57825182559160200191906001019062000222565b506200024d92915062000251565b5090565b6200026e91905b808211156200024d576000815560010162000258565b90565b61227680620002816000396000f3fe608060405260043610620001265763ffffffff7c010000000000000000000000000000000000000000000000000000000060003504166306fdde03811462000128578063125ba97714620001b85780631b9265b814620001e25780631d83440914620001ec57806321be5e4e14620002045780633d939a4914620002885780633e92c46814620002a05780634b24ea471462000379578063516f279e14620003ad57806366e1dfa314620003c557806368db65a4146200047c57806376af633c146200049457806380f474f614620004ac57806382e4081314620004c45780638da5cb5b14620004f8578063a85c38ef1462000510578063af640d0f1462000561578063cffb703c1462000579578063f943eecd14620005c0578063f9a9525e14620005ee575b005b3480156200013557600080fd5b50620001406200066a565b6040805160208082528351818301528351919283929083019185019080838360005b838110156200017c57818101518382015260200162000162565b50505050905090810190601f168015620001aa5780820380516001836020036101000a031916815260200191505b509250505060405180910390f35b348015620001c557600080fd5b50620001d0620006fb565b60408051918252519081900360200190f35b6200012662000701565b348015620001f957600080fd5b50620001d062000748565b3480156200021157600080fd5b5062000126600480360360208110156200022a57600080fd5b8101906020810181356401000000008111156200024657600080fd5b8201836020820111156200025957600080fd5b803590602001918460208302840111640100000000831117156200027c57600080fd5b5090925090506200074e565b3480156200029557600080fd5b50620001d0620008b9565b348015620002ad57600080fd5b506200012660048036036040811015620002c657600080fd5b810190602081018135640100000000811115620002e257600080fd5b820183602082011115620002f557600080fd5b803590602001918460208302840111640100000000831117156200031857600080fd5b9193909290916020810190356401000000008111156200033757600080fd5b8201836020820111156200034a57600080fd5b803590602001918460208302840111640100000000831117156200036d57600080fd5b509092509050620008bf565b3480156200038657600080fd5b50620003916200098e565b60408051600160a060020a039092168252519081900360200190f35b348015620003ba57600080fd5b50620001406200099d565b348015620003d257600080fd5b50620001d060048036036020811015620003eb57600080fd5b8101906020810181356401000000008111156200040757600080fd5b8201836020820111156200041a57600080fd5b803590602001918460208302840111640100000000831117156200043d57600080fd5b919080806020026020016040519081016040528093929190818152602001838360200280828437600092019190915250929550620009f8945050505050565b3480156200048957600080fd5b506200039162000a4f565b348015620004a157600080fd5b506200014062000a5e565b348015620004b957600080fd5b50620001d062000abc565b348015620004d157600080fd5b506200012660048036036040811015620004ea57600080fd5b508035906020013562000ac2565b3480156200050557600080fd5b506200039162000b5a565b3480156200051d57600080fd5b506200053e600480360360208110156200053657600080fd5b503562000b69565b604080519215158352600160a060020a0390911660208301528051918290030190f35b3480156200056e57600080fd5b50620001d062000b8e565b3480156200058657600080fd5b50620005a7600480360360208110156200059f57600080fd5b503562000b94565b6040805192835260208301919091528051918290030190f35b348015620005cd57600080fd5b50620005a760048036036020811015620005e657600080fd5b503562000bad565b62000391600480360360608110156200060657600080fd5b8101906020810181356401000000008111156200062257600080fd5b8201836020820111156200063557600080fd5b803590602001918460208302840111640100000000831117156200065857600080fd5b91935091508035906020013562000bc7565b60018054604080516020600284861615610100026000190190941693909304601f81018490048402820184019092528181529291830182828015620006f35780601f10620006c757610100808354040283529160200191620006f3565b820191906000526020600020905b815481529060010190602001808311620006d557829003601f168201915b505050505081565b600b5490565b600a805434908101909155600554604051600160a060020a039091169180156108fc02916000818181858888f1935050505015801562000745573d6000803e3d6000fd5b50565b60085481565b600554600160a060020a031633146200076657600080fd5b600081116200077457600080fd5b600b546040805191839003808352602080820284010190915290606090828015620007a9578160200160208202803883390190505b5090506000805b600b548110156200082657600160005b86811015620007f357878782818110620007d657fe5b90506020020135831415620007ea57600091505b600101620007c0565b5080156200081c578184848151811015156200080b57fe5b602090810290910101526001909201915b50600101620007b0565b5060005b82518110156200088357600c600084838151811015156200084757fe5b602090810290910181015182528181019290925260409081016000908120848252600c909352208154815560019182015490820155016200082a565b508151600b556040517f6706c873484487b2b1bb6c385a03896b4a5a6f9069aef613842f6529410ae09f90600090a15050505050565b600b5481565b600554600160a060020a03163314620008d757600080fd5b828114620008e457600080fd5b60005b838110156200095e5760408051808201909152808686848181106200090857fe5b90506020020135815260200184848481811015156200092357fe5b60209081029290920135909252600b80546000908152600c8352604090208451815593909101516001938401558054830190555001620008e7565b506040517f6706c873484487b2b1bb6c385a03896b4a5a6f9069aef613842f6529410ae09f90600090a150505050565b600654600160a060020a031681565b6002805460408051602060018416156101000260001901909316849004601f81018490048402820184019092528181529291830182828015620006f35780601f10620006c757610100808354040283529160200191620006f3565b600080805b835181101562000a4857600c6000858381518110151562000a1a57fe5b90602001906020020151815260200190815260200160002060010154820191508080600101915050620009fd565b5092915050565b600754600160a060020a031681565b6003805460408051602060026001851615610100026000190190941693909304601f81018490048402820184019092528181529291830182828015620006f35780601f10620006c757610100808354040283529160200191620006f3565b60045481565b600554600160a060020a0316331462000ada57600080fd5b81600160a060020a031663e9132c42826040518263ffffffff167c010000000000000000000000000000000000000000000000000000000002815260040180828152602001915050600060405180830381600087803b15801562000b3d57600080fd5b505af115801562000b52573d6000803e3d6000fd5b505050505050565b600554600160a060020a031681565b60096020526000908152604090205460ff8116906101009004600160a060020a031682565b60005481565b600c602052600090815260409020805460019091015482565b6000908152600c6020526040902080546001909101549091565b600654604080517f6455e5ac0000000000000000000000000000000000000000000000000000000081529051600092600160a060020a031691636455e5ac916004808301926020929190829003018186803b15801562000c2657600080fd5b505afa15801562000c3b573d6000803e3d6000fd5b505050506040513d602081101562000c5257600080fd5b5051604080517f689b00980000000000000000000000000000000000000000000000000000000081523360048201529051600160a060020a039092169163689b009891602480820192602092909190829003018186803b15801562000cb657600080fd5b505afa15801562000ccb573d6000803e3d6000fd5b505050506040513d602081101562000ce257600080fd5b5051151562000d5257604080517f08c379a000000000000000000000000000000000000000000000000000000000815260206004820152601560248201527f437573746f6d657220646f65736e742065786973740000000000000000000000604482015290519081900360640190fd5b60408051858152602080870282010190915260609085801562000d7f578160200160208202803883390190505b50905060608686905060405190808252806020026020018201604052801562000db2578160200160208202803883390190505b50905060005b8681101562000efc57600088888381811062000dd057fe5b905060200201351015801562000dfa5750600b5488888381811062000df157fe5b90506020020135105b1562000e8c57600c600089898481811062000e1157fe5b90506020020135815260200190815260200160002060000154828281518110151562000e3957fe5b60209081029091010152600c600089898481811062000e5457fe5b90506020020135815260200190815260200160002060010154838281518110151562000e7c57fe5b6020908102909101015262000ef3565b604080517f08c379a000000000000000000000000000000000000000000000000000000000815260206004820152600d60248201527f496e76616c6964204974656d7300000000000000000000000000000000000000604482015290519081900360640190fd5b60010162000db8565b506008546006546000913491849086908a90600160a060020a0316338b62000f23620010da565b87815260608101859052600160a060020a038085166080830152831660a082015260c0810182905260e06020808301828152895192840192909252885160408401916101008501918b8201910280838360005b8381101562000f9057818101518382015260200162000f76565b50505050905001838103825288818151815260200191508051906020019060200280838360005b8381101562000fd157818101518382015260200162000fb7565b5050505090500199505050505050505050506040518091039082f08015801562000fff573d6000803e3d6000fd5b506040805180820182526001808252600160a060020a0384811660208085019182526008805460009081526009835287812096518754945160ff199095169015151774ffffffffffffffffffffffffffffffffffffffff001916610100948616850217909655805494850190559284529284902054845193900416825291519294507f6ad6ccf0214624cc1ab014b24a7601698f45e6a0d07edcbab143606784ed78fb93508290030190a15050600854600019016000908152600960205260409020546101009004600160a060020a03169695505050505050565b60405161115f80620010ec8339019056fe608060408190526004805461ffff19169055600c805460ff19908116909155600e805490911690556200115f38819003908190833981018060405260e08110156200004957600080fd5b8151602083018051919392830192916401000000008111156200006b57600080fd5b820160208101848111156200007f57600080fd5b81518560208202830111640100000000821117156200009d57600080fd5b50509291906020018051640100000000811115620000ba57600080fd5b82016020810184811115620000ce57600080fd5b8151856020820283011164010000000082111715620000ec57600080fd5b5050602080830151604080850151606086015160809096015182517f68db65a4000000000000000000000000000000000000000000000000000000008152925195985092965094939192600160a060020a038616926368db65a4926004808201939291829003018186803b1580156200016457600080fd5b505afa15801562000179573d6000803e3d6000fd5b505050506040513d60208110156200019057600080fd5b5051604080517f79a4fa270000000000000000000000000000000000000000000000000000000081523360048201529051600160a060020a03909216916379a4fa2791602480820192602092909190829003018186803b158015620001f457600080fd5b505afa15801562000209573d6000803e3d6000fd5b505050506040513d60208110156200022057600080fd5b50511515620002b657604080517f08c379a000000000000000000000000000000000000000000000000000000000815260206004820152603d60248201527f617474656d7074656420746f206d616b65206f726465722066726f6d2061646460448201527f726573732074686174206973206e6f7420612072657374617572616e74000000606482015290519081900360840190fd5b84518651146200034d57604080517f08c379a000000000000000000000000000000000000000000000000000000000815260206004820152602360248201527f696e76616c6964206d61746368696e67206f66206974656d7320746f2070726960448201527f6365730000000000000000000000000000000000000000000000000000000000606482015290519081900360840190fd5b6003879055600480546201000033026201000060b060020a031990911617905560068054600160a060020a03848116600160a060020a03199283161790925542600855600780549286169290911691909117905560006009819055600f8190555b8651811015620004505760408051908101604052808883815181101515620003d257fe5b9060200190602002015181526020018783815181101515620003f057fe5b6020908102909101810151909152600f54600090815260108252604090208251815591015160019091015585518690829081106200042a57fe5b60209081029091010151600980549091019055600f8054600190810190915501620003ae565b50600a8490556009548401341015620004f057604080517f08c379a000000000000000000000000000000000000000000000000000000000815260206004820152602360248201527f6e6f7420656e6f7567682065746865722073656e7420746f20746865206f726460448201527f6572200000000000000000000000000000000000000000000000000000000000606482015290519081900360840190fd5b60016002556000809081556001908155600b91909155600c805460ff19169091179055505050505050610c3680620005296000396000f3fe60806040526004361061012f5763ffffffff60e060020a60003504166312065fe081146101345780632799276d1461015b5780632804b2c0146101705780633129e773146101a157806332940816146101e45780633cc94908146101f95780633cf5040a1461020e5780633e3ca4d31461023857806340571abb1461024d57806353c0a00614610276578063646e077f1461028b5780637aada134146102a05780639e8464f1146102b5578063a14b7e68146102df578063af640d0f146102f4578063bd3e19d414610309578063bfb231d21461031e578063d601e11414610348578063d638e1021461035d578063db7575f014610372578063e9132c421461039c578063ed168058146103bb578063f3cc0f1f146103d0578063f90a92e3146103e5578063fc6f78a014610402575b600080fd5b34801561014057600080fd5b50610149610417565b60408051918252519081900360200190f35b34801561016757600080fd5b5061014961041c565b34801561017c57600080fd5b50610185610422565b60408051600160a060020a039092168252519081900360200190f35b3480156101ad57600080fd5b506101cb600480360360208110156101c457600080fd5b5035610431565b6040805192835260208301919091528051918290030190f35b3480156101f057600080fd5b5061014961044b565b34801561020557600080fd5b50610149610451565b34801561021a57600080fd5b506101496004803603602081101561023157600080fd5b5035610457565b34801561024457600080fd5b5061014961047b565b34801561025957600080fd5b50610262610481565b604080519115158252519081900360200190f35b34801561028257600080fd5b5061018561048f565b34801561029757600080fd5b5061026261049e565b3480156102ac57600080fd5b506101496104a7565b3480156102c157600080fd5b50610262600480360360208110156102d857600080fd5b50356104ad565b3480156102eb57600080fd5b506101496105a1565b34801561030057600080fd5b506101496105a7565b34801561031557600080fd5b506101496105ad565b34801561032a57600080fd5b506101cb6004803603602081101561034157600080fd5b50356105b3565b34801561035457600080fd5b506102626105cc565b34801561036957600080fd5b506102626105d5565b34801561037e57600080fd5b506102626004803603602081101561039557600080fd5b50356105de565b6103b9600480360360208110156103b257600080fd5b50356106d1565b005b3480156103c757600080fd5b50610185610864565b3480156103dc57600080fd5b50610149610879565b6103b9600480360360208110156103fb57600080fd5b503561087f565b34801561040e57600080fd5b50610149610aaf565b303190565b600f5481565b600654600160a060020a031681565b600090815260106020526040902080546001909101549091565b60015481565b600d5481565b60408051602080820193909352815180820384018152908201909152805191012090565b60005481565b600454610100900460ff1681565b600554600160a060020a031681565b600c5460ff1681565b60085481565b600e5460009060ff16151560011461050f576040805160e560020a62461bcd02815260206004820152601360248201527f4e6f206b657920686173206265656e2073657400000000000000000000000000604482015290519081900360640190fd5b600d5461051b83610457565b14610570576040805160e560020a62461bcd02815260206004820152600d60248201527f496e636f7272656374204b657900000000000000000000000000000000000000604482015290519081900360640190fd5b610578610ab5565b600360015560026000908155604051600080516020610beb8339815191529190a1506001919050565b60025481565b60035481565b60095490565b6010602052600090815260409020805460019091015482565b60045460ff1681565b600e5460ff1681565b600c5460009060ff161515600114610640576040805160e560020a62461bcd02815260206004820152601360248201527f4e6f206b657920686173206265656e2073657400000000000000000000000000604482015290519081900360640190fd5b600b5461064c83610457565b146106a1576040805160e560020a62461bcd02815260206004820152600d60248201527f496e636f7272656374204b657900000000000000000000000000000000000000604482015290519081900360640190fd5b6106a9610b4c565b600360005560028055604051600080516020610beb83398151915290600090a1506001919050565b600454620100009004600160a060020a03163314610785576040805160e560020a62461bcd02815260206004820152605060248201527f596f7520646f6e742068617665207065726d697373696f6e20746f207365652060448201527f74686973206f726465722c2064696420796f752067657420746865206f72646560648201527f7220616464726573732077726f6e673f00000000000000000000000000000000608482015290519081900360a40190fd5b60015481116107de576040805160e560020a62461bcd02815260206004820152601c60248201527f7374617475732063616e6e6f74206265206261636b747261636b656400000000604482015290519081900360640190fd5b600381111580156107ef5750600081115b1515610845576040805160e560020a62461bcd02815260206004820152601660248201527f676976656e20537461747573206e6f742076616c696400000000000000000000604482015290519081900360640190fd5b6001819055604051600080516020610beb83398151915290600090a150565b600454620100009004600160a060020a031681565b600a5481565b600760009054906101000a9004600160a060020a0316600160a060020a031663c9286d576040518163ffffffff1660e060020a02815260040160206040518083038186803b1580156108d057600080fd5b505afa1580156108e4573d6000803e3d6000fd5b505050506040513d60208110156108fa57600080fd5b5051604080517f139526700000000000000000000000000000000000000000000000000000000081523360048201529051600160a060020a0390921691631395267091602480820192602092909190829003018186803b15801561095d57600080fd5b505afa158015610971573d6000803e3d6000fd5b505050506040513d602081101561098757600080fd5b50511515610a05576040805160e560020a62461bcd02815260206004820152602960248201527f6d7573742062652063616c6c656420766961206120726964657220736d61727460448201527f20636f6e74726163740000000000000000000000000000000000000000000000606482015290519081900360840190fd5b600954341015610a5f576040805160e560020a62461bcd02815260206004820152601e60248201527f746865206465706f7369742073656e74206973206e6f7420656e6f7567680000604482015290519081900360640190fd5b600160009081556005805473ffffffffffffffffffffffffffffffffffffffff191633179055600d829055600e805460ff19166001179055604051600080516020610beb8339815191529190a150565b600b5481565b600460029054906101000a9004600160a060020a0316600160a060020a0316631b9265b86009546040518263ffffffff1660e060020a0281526004016000604051808303818588803b158015610b0a57600080fd5b505af1158015610b1e573d6000803e3d6000fd5b50506004805460ff191660019081178255555050604051600080516020610beb8339815191529150600090a1565b600560009054906101000a9004600160a060020a0316600160a060020a0316631b9265b8600a54600954016040518263ffffffff1660e060020a0281526004016000604051808303818588803b158015610ba557600080fd5b505af1158015610bb9573d6000803e3d6000fd5b50506004805461ff001916610100179055505060036000908155604051600080516020610beb8339815191529250a156feac854101ed2841c4fe7b3c5bfc4f3e58ddac515e8dd58f1bd9cf7856f1cc6e7fa165627a7a72305820862461fbe31a83e40b3f306dd3651fb92376272cc56efce33385916eaab94e9a0029a165627a7a72305820f2a8b485408ce2eec951ba40f7f999fe50ef530055e7a147f3f02fcc8b437e8e0029",
  "source": "pragma solidity ^0.5.0;\n\n //import \"./lib.sol\";\n import \"./Order.sol\";\n import \"./RestaurantFactory.sol\";\n import \"./CustomerFactory.sol\";\n import \"./Controller.sol\";\n\ncontract Restaurant {\n\n    //using lib for bytes32;\n\n\tuint public id;\n\tstring public name;\n\tstring public location;\n\tstring public contactNumber;\n\tuint public rating;\n\n\taddress payable public owner;\n    address public controllerAddress;\n\taddress public restaurantFactoryAddress;\n\n\n    struct order{bool open; address orderAddress;}\n\tuint public totalOrders;\n    // todo: make orders private and accessed via method for only rider and restaurant\n\tmapping(uint => order) public orders; // must be a better way to store the orders\n\n    uint totalPay;\n\t\n\tstruct Item{\n\t\tbytes32 itemName;\n\t\tuint itemCost; // in wei (10^-18 Eth)\n\t}\n\t\n    uint public menuLength;\n\tmapping(uint => Item) public menu; \n\n    enum restaurantState{acceptedOrder, preparingCargo, readyForCollection, HandedOver}\n\t\n    event OrderMadeEvent(address orderAddress);\n    event MenuUpdated();\n\n\tconstructor(address _controller, address payable _owner, uint _id, string memory _name,string memory _address,string memory _contactNumber) public {\n\t\tid = _id;\n\t\tname = _name;\n\t\tlocation = _address;\n\t\tcontactNumber = _contactNumber;\n\t\ttotalOrders = 0;\n        totalPay = 0;\n\n        controllerAddress = _controller;\n\t\towner = _owner;\n\t\trestaurantFactoryAddress = msg.sender;\n\t}\n\n    // ToDo Remove this\n    function getMenuLength() external view returns(uint length){\n        return menuLength;\n    }\n    \n\n    function menuAddItems(bytes32[] calldata itemNames, uint[] calldata prices) external {\n        require(msg.sender == owner);\n        require(itemNames.length == prices.length);\n        \n        // should add checks that an item isn't added twice\n        for(uint i = 0; i<itemNames.length;i++){\n            menu[menuLength] = Item(itemNames[i],prices[i]);\n            menuLength++;\n        }\n        emit MenuUpdated();\n    }\n\n    \n    \n    function menuRemoveItems(uint[] calldata itemIds) external{\n        require(msg.sender == owner);\n        require(itemIds.length>0);\n\n        uint totalItemsToKeep = menuLength - uint(itemIds.length);\n\n        uint[] memory itemsToKeep = new uint[](totalItemsToKeep);\n        uint counter = 0;\n        for(uint i = 0; i<menuLength;i++){\n            bool idUndeleted = true;\n            for(uint j = 0; j < itemIds.length; j++){\n                if(i == itemIds[j]){\n                    idUndeleted = false;\n                }\n            }\n            if(idUndeleted){\n                itemsToKeep[counter] = i;\n                counter++;\n            }\n        }\n\n        for(uint i = 0; i < itemsToKeep.length; i++){\n            menu[i] = menu[itemsToKeep[i]];\n        }\n        menuLength = itemsToKeep.length;\n        emit MenuUpdated();\n    }\n\n    function getOrderPrice(uint[] memory itemIds) public view returns (uint){\n        uint price = 0;\n        for(uint i = 0; i < itemIds.length; i++){\n            price += menu[itemIds[i]].itemCost;\n        }\n        return price;\n    }\n    \n\n    function makeOrder(uint[] calldata itemIds, uint deliveryFee, bytes32 riderKeyHash) external payable returns (address orderAddress) {\n        //require this comes from a customer smart contract, maybe worth moving this to the order smart contract\n        require(CustomerFactory(Controller(controllerAddress).customerFactoryAddress()).customerExists(msg.sender), \"Customer doesnt exist\");\n\n        uint[] memory prices = new uint[](itemIds.length);\n        bytes32[] memory items = new bytes32[](itemIds.length);\n        for(uint i = 0; i < itemIds.length; i++)\n        {\n            if (itemIds[i] >= 0 && itemIds[i] < menuLength){\n                // could consider sending itemID and price to reduce gas cost\n                items[i] = menu[uint(itemIds[i])].itemName; \n                prices[i] = menu[uint(itemIds[i])].itemCost;\n            }\n            else{\n                revert(\"Invalid Items\");\n            }\n        }\n        \n\t\tOrder newOrder = (new Order).value(msg.value)(totalOrders,items,prices,deliveryFee, controllerAddress, msg.sender, riderKeyHash);\n\t\torders[totalOrders] = order(true,address(newOrder));\n        totalOrders ++;\n\n        emit OrderMadeEvent(orders[totalOrders - 1].orderAddress);\n\n\t\treturn orders[totalOrders - 1].orderAddress;       \n    }\n    \n    function getMenuItem(uint itemId)public view returns(bytes32 itemname, uint cost){\n        return (menu[itemId].itemName,menu[itemId].itemCost);\n    }\n\n    function setStatus(uint orderAddress, uint status) public{\n        require(msg.sender == owner);\n        Order(orderAddress).setOrderStatus(status);\n    }\n\n    function pay() external payable {\n        totalPay += msg.value;\n        owner.transfer(msg.value);\n    } \n\n    function() external payable {\n\n    }\n}",
  "sourcePath": "/home/george/Documents/TryAByte/contracts/Restaurant.sol",
  "compiler": {
    "name": "solc",
    "version": "0.5.0+commit.1d4f565a.Emscripten.clang"
  },
  "schemaVersion": "3.0.6",
  "updatedAt": "2019-05-02T14:29:07.671Z",
  "devdoc": {
    "methods": {}
  },
  "userdoc": {
    "methods": {}
  }
}