{
  "contractName": "Restaurant",
  "abi": [
    {
      "constant": true,
      "inputs": [],
      "name": "name",
      "outputs": [
        {
          "name": "",
          "type": "bytes32"
        }
      ],
      "payable": false,
      "stateMutability": "view",
      "type": "function"
    },
    {
      "constant": true,
      "inputs": [],
      "name": "totalOrders",
      "outputs": [
        {
          "name": "",
          "type": "uint256"
        }
      ],
      "payable": false,
      "stateMutability": "view",
      "type": "function"
    },
    {
      "constant": true,
      "inputs": [],
      "name": "menuLength",
      "outputs": [
        {
          "name": "",
          "type": "uint256"
        }
      ],
      "payable": false,
      "stateMutability": "view",
      "type": "function"
    },
    {
      "constant": true,
      "inputs": [],
      "name": "controllerAddress",
      "outputs": [
        {
          "name": "",
          "type": "address"
        }
      ],
      "payable": false,
      "stateMutability": "view",
      "type": "function"
    },
    {
      "constant": true,
      "inputs": [],
      "name": "latitude",
      "outputs": [
        {
          "name": "",
          "type": "uint256"
        }
      ],
      "payable": false,
      "stateMutability": "view",
      "type": "function"
    },
    {
      "constant": true,
      "inputs": [],
      "name": "location",
      "outputs": [
        {
          "name": "",
          "type": "bytes"
        }
      ],
      "payable": false,
      "stateMutability": "view",
      "type": "function"
    },
    {
      "constant": true,
      "inputs": [],
      "name": "longitude",
      "outputs": [
        {
          "name": "",
          "type": "uint256"
        }
      ],
      "payable": false,
      "stateMutability": "view",
      "type": "function"
    },
    {
      "constant": true,
      "inputs": [],
      "name": "restaurantFactoryAddress",
      "outputs": [
        {
          "name": "",
          "type": "address"
        }
      ],
      "payable": false,
      "stateMutability": "view",
      "type": "function"
    },
    {
      "constant": true,
      "inputs": [],
      "name": "logoURI",
      "outputs": [
        {
          "name": "",
          "type": "bytes"
        }
      ],
      "payable": false,
      "stateMutability": "view",
      "type": "function"
    },
    {
      "constant": true,
      "inputs": [],
      "name": "contactNumber",
      "outputs": [
        {
          "name": "",
          "type": "bytes32"
        }
      ],
      "payable": false,
      "stateMutability": "view",
      "type": "function"
    },
    {
      "constant": true,
      "inputs": [],
      "name": "owner",
      "outputs": [
        {
          "name": "",
          "type": "address"
        }
      ],
      "payable": false,
      "stateMutability": "view",
      "type": "function"
    },
    {
      "constant": true,
      "inputs": [
        {
          "name": "",
          "type": "uint256"
        }
      ],
      "name": "orders",
      "outputs": [
        {
          "name": "open",
          "type": "bool"
        },
        {
          "name": "orderAddress",
          "type": "address"
        }
      ],
      "payable": false,
      "stateMutability": "view",
      "type": "function"
    },
    {
      "constant": true,
      "inputs": [],
      "name": "id",
      "outputs": [
        {
          "name": "",
          "type": "uint256"
        }
      ],
      "payable": false,
      "stateMutability": "view",
      "type": "function"
    },
    {
      "constant": true,
      "inputs": [
        {
          "name": "",
          "type": "uint256"
        }
      ],
      "name": "menu",
      "outputs": [
        {
          "name": "itemName",
          "type": "bytes32"
        },
        {
          "name": "description",
          "type": "bytes32"
        }
      ],
      "payable": false,
      "stateMutability": "view",
      "type": "function"
    },
    {
      "constant": true,
      "inputs": [],
      "name": "logoHash",
      "outputs": [
        {
          "name": "",
          "type": "bytes32"
        }
      ],
      "payable": false,
      "stateMutability": "view",
      "type": "function"
    },
    {
      "inputs": [
        {
          "name": "_controller",
          "type": "address"
        },
        {
          "name": "_owner",
          "type": "address"
        },
        {
          "name": "_id",
          "type": "uint256"
        },
        {
          "name": "_name",
          "type": "bytes32"
        },
        {
          "name": "_address",
          "type": "bytes"
        },
        {
          "name": "_latitude",
          "type": "uint256"
        },
        {
          "name": "_longitude",
          "type": "uint256"
        },
        {
          "name": "_contactNumber",
          "type": "bytes32"
        }
      ],
      "payable": false,
      "stateMutability": "nonpayable",
      "type": "constructor"
    },
    {
      "payable": true,
      "stateMutability": "payable",
      "type": "fallback"
    },
    {
      "anonymous": false,
      "inputs": [
        {
          "indexed": false,
          "name": "orderAddress",
          "type": "address"
        }
      ],
      "name": "OrderMadeEvent",
      "type": "event"
    },
    {
      "anonymous": false,
      "inputs": [],
      "name": "MenuUpdated",
      "type": "event"
    },
    {
      "constant": true,
      "inputs": [
        {
          "name": "index",
          "type": "uint256"
        }
      ],
      "name": "getMenuItem",
      "outputs": [
        {
          "name": "itemName",
          "type": "bytes32"
        },
        {
          "name": "itemDescription",
          "type": "bytes32"
        },
        {
          "name": "optionNames",
          "type": "bytes32[]"
        },
        {
          "name": "optionPrices",
          "type": "uint256[]"
        }
      ],
      "payable": false,
      "stateMutability": "view",
      "type": "function"
    },
    {
      "constant": false,
      "inputs": [
        {
          "name": "imageURI",
          "type": "bytes"
        },
        {
          "name": "imageHash",
          "type": "bytes32"
        }
      ],
      "name": "updateLogo",
      "outputs": [],
      "payable": false,
      "stateMutability": "nonpayable",
      "type": "function"
    },
    {
      "constant": true,
      "inputs": [],
      "name": "getMenuLength",
      "outputs": [
        {
          "name": "length",
          "type": "uint256"
        }
      ],
      "payable": false,
      "stateMutability": "view",
      "type": "function"
    },
    {
      "constant": false,
      "inputs": [
        {
          "name": "itemNames",
          "type": "bytes32[]"
        },
        {
          "name": "itemDescriptions",
          "type": "bytes32[]"
        },
        {
          "name": "_optionNames",
          "type": "bytes32[]"
        },
        {
          "name": "_prices",
          "type": "uint256[]"
        },
        {
          "name": "optionFlags",
          "type": "uint256[]"
        },
        {
          "name": "itemsToRemove",
          "type": "uint256[]"
        }
      ],
      "name": "updateMenu",
      "outputs": [],
      "payable": false,
      "stateMutability": "nonpayable",
      "type": "function"
    },
    {
      "constant": true,
      "inputs": [
        {
          "name": "itemIds",
          "type": "uint256[]"
        }
      ],
      "name": "getOrderPrice",
      "outputs": [
        {
          "name": "",
          "type": "uint256"
        }
      ],
      "payable": false,
      "stateMutability": "view",
      "type": "function"
    },
    {
      "constant": false,
      "inputs": [
        {
          "name": "itemIds",
          "type": "uint256[]"
        },
        {
          "name": "deliveryFee",
          "type": "uint256"
        },
        {
          "name": "riderKeyHash",
          "type": "bytes32"
        }
      ],
      "name": "makeOrder",
      "outputs": [
        {
          "name": "orderAddress",
          "type": "address"
        }
      ],
      "payable": true,
      "stateMutability": "payable",
      "type": "function"
    },
    {
      "constant": false,
      "inputs": [
        {
          "name": "orderAddress",
          "type": "address"
        },
        {
          "name": "status",
          "type": "uint256"
        }
      ],
      "name": "setStatus",
      "outputs": [],
      "payable": false,
      "stateMutability": "nonpayable",
      "type": "function"
    },
    {
      "constant": false,
      "inputs": [],
      "name": "pay",
      "outputs": [],
      "payable": true,
      "stateMutability": "payable",
      "type": "function"
    },
    {
      "constant": false,
      "inputs": [
        {
          "name": "_name",
          "type": "bytes32"
        },
        {
          "name": "_number",
          "type": "bytes32"
        },
        {
          "name": "_owner",
          "type": "address"
        },
        {
          "name": "_location",
          "type": "bytes"
        },
        {
          "name": "_latitude",
          "type": "uint256"
        },
        {
          "name": "_longitude",
          "type": "uint256"
        },
        {
          "name": "_logoURI",
          "type": "bytes"
        },
        {
          "name": "_logoHash",
          "type": "bytes32"
        }
      ],
      "name": "updateRestaurant",
      "outputs": [],
      "payable": false,
      "stateMutability": "nonpayable",
      "type": "function"
    },
    {
      "constant": false,
      "inputs": [
        {
          "name": "_name",
          "type": "bytes32"
        }
      ],
      "name": "setName",
      "outputs": [],
      "payable": false,
      "stateMutability": "nonpayable",
      "type": "function"
    },
    {
      "constant": false,
      "inputs": [
        {
          "name": "_number",
          "type": "bytes32"
        }
      ],
      "name": "setNumber",
      "outputs": [],
      "payable": false,
      "stateMutability": "nonpayable",
      "type": "function"
    },
    {
      "constant": false,
      "inputs": [
        {
          "name": "_owner",
          "type": "address"
        }
      ],
      "name": "setOwner",
      "outputs": [],
      "payable": false,
      "stateMutability": "nonpayable",
      "type": "function"
    },
    {
      "constant": false,
      "inputs": [
        {
          "name": "_location",
          "type": "bytes"
        },
        {
          "name": "_latitude",
          "type": "uint256"
        },
        {
          "name": "_longitude",
          "type": "uint256"
        }
      ],
      "name": "setLocation",
      "outputs": [],
      "payable": false,
      "stateMutability": "nonpayable",
      "type": "function"
    },
    {
      "constant": false,
      "inputs": [
        {
          "name": "_logoURI",
          "type": "bytes"
        },
        {
          "name": "_logoHash",
          "type": "bytes32"
        }
      ],
      "name": "setLogo",
      "outputs": [],
      "payable": false,
      "stateMutability": "nonpayable",
      "type": "function"
    }
  ],
  "bytecode": "0x60806040523480156200001157600080fd5b5060405162002e4d38038062002e4d83398101806040526101008110156200003857600080fd5b8151602083015160408401516060850151608086018051949693959294919392830192916401000000008111156200006f57600080fd5b820160208101848111156200008357600080fd5b81516401000000008111828201871017156200009e57600080fd5b5050602080830151604084015160609094015160008990556001889055835193965090945091620000d691600291908701906200013c565b5060049290925560035560075550506000600b819055600d819055600e8190556011555060098054600160a060020a03938416600160a060020a031991821617909155600880549290931691811691909117909155600a805490911633179055620001e1565b828054600181600116156101000203166002900490600052602060002090601f016020900481019282601f106200017f57805160ff1916838001178555620001af565b82800160010185558215620001af579182015b82811115620001af57825182559160200191906001019062000192565b50620001bd929150620001c1565b5090565b620001de91905b80821115620001bd5760008155600101620001c8565b90565b612c5c80620001f16000396000f3fe608060405260043610620001925763ffffffff7c010000000000000000000000000000000000000000000000000000000060003504166306fdde03811462000194578063125ba97714620001be57806313af403514620001d65780631b9265b8146200020d5780631d83440914620002175780633d939a49146200022f5780634b24ea4714620002475780634fd7d76a146200027b578063516f279e14620002935780635863bebe1462000323578063589af69c14620003e25780635ac801fe14620003fa57806366e1dfa3146200042857806368db65a414620004df5780636bb38b2814620004f757806376af633c146200050f5780637e29b00314620005275780637e55d59c14620006965780638da5cb5b14620006d3578063a64f207a14620006eb578063a85c38ef146200076f578063af640d0f14620007c0578063c1f0f00d14620007d8578063cffb703c1462000894578063df7be1ca14620008db578063e87f458214620008f3578063f1d4b2c51462000c4d578063f943eecd1462000c7b578063f9a9525e1462000d54575b005b348015620001a157600080fd5b50620001ac62000dd0565b60408051918252519081900360200190f35b348015620001cb57600080fd5b50620001ac62000dd6565b348015620001e357600080fd5b506200019260048036036020811015620001fc57600080fd5b5035600160a060020a031662000ddd565b6200019262000e24565b3480156200022457600080fd5b50620001ac62000e6b565b3480156200023c57600080fd5b50620001ac62000e71565b3480156200025457600080fd5b506200025f62000e77565b60408051600160a060020a039092168252519081900360200190f35b3480156200028857600080fd5b50620001ac62000e86565b348015620002a057600080fd5b50620002ab62000e8c565b6040805160208082528351818301528351919283929083019185019080838360005b83811015620002e7578181015183820152602001620002cd565b50505050905090810190601f168015620003155780820380516001836020036101000a031916815260200191505b509250505060405180910390f35b3480156200033057600080fd5b5062000192600480360360608110156200034957600080fd5b8101906020810181356401000000008111156200036557600080fd5b8201836020820111156200037857600080fd5b803590602001918460018302840111640100000000831117156200039b57600080fd5b91908080601f016020809104026020016040519081016040528093929190818152602001838380828437600092019190915250929550508235935050506020013562000f1b565b348015620003ef57600080fd5b50620001ac62000f50565b3480156200040757600080fd5b5062000192600480360360208110156200042057600080fd5b503562000f56565b3480156200043557600080fd5b50620001ac600480360360208110156200044e57600080fd5b8101906020810181356401000000008111156200046a57600080fd5b8201836020820111156200047d57600080fd5b80359060200191846020830284011164010000000083111715620004a057600080fd5b91908080602002602001604051908101604052809392919081815260200183836020028082843760009201919091525092955062000f73945050505050565b348015620004ec57600080fd5b506200025f62000fe0565b3480156200050457600080fd5b50620002ab62000fef565b3480156200051c57600080fd5b50620001ac6200104d565b3480156200053457600080fd5b506200019260048036036101008110156200054e57600080fd5b813591602081013591600160a060020a0360408301351691908101906080810160608201356401000000008111156200058657600080fd5b8201836020820111156200059957600080fd5b80359060200191846001830284011164010000000083111715620005bc57600080fd5b91908080601f01602080910402602001604051908101604052809392919081815260200183838082843760009201919091525092958435956020860135959194509250606081019150604001356401000000008111156200061c57600080fd5b8201836020820111156200062f57600080fd5b803590602001918460018302840111640100000000831117156200065257600080fd5b91908080601f016020809104026020016040519081016040528093929190818152602001838380828437600092019190915250929550509135925062001053915050565b348015620006a357600080fd5b506200019260048036036040811015620006bc57600080fd5b50600160a060020a038135169060200135620010d4565b348015620006e057600080fd5b506200025f620011ce565b348015620006f857600080fd5b5062000192600480360360408110156200071157600080fd5b8101906020810181356401000000008111156200072d57600080fd5b8201836020820111156200074057600080fd5b803590602001918460018302840111640100000000831117156200076357600080fd5b919350915035620011dd565b3480156200077c57600080fd5b506200079d600480360360208110156200079557600080fd5b50356200120b565b604080519215158352600160a060020a0390911660208301528051918290030190f35b348015620007cd57600080fd5b50620001ac62001230565b348015620007e557600080fd5b506200019260048036036040811015620007fe57600080fd5b8101906020810181356401000000008111156200081a57600080fd5b8201836020820111156200082d57600080fd5b803590602001918460018302840111640100000000831117156200085057600080fd5b91908080601f016020809104026020016040519081016040528093929190818152602001838380828437600092019190915250929550509135925062001236915050565b348015620008a157600080fd5b50620008c260048036036020811015620008ba57600080fd5b50356200126a565b6040805192835260208301919091528051918290030190f35b348015620008e857600080fd5b50620001ac62001283565b3480156200090057600080fd5b5062000192600480360360c08110156200091957600080fd5b8101906020810181356401000000008111156200093557600080fd5b8201836020820111156200094857600080fd5b803590602001918460208302840111640100000000831117156200096b57600080fd5b9190808060200260200160405190810160405280939291908181526020018383602002808284376000920191909152509295949360208101935035915050640100000000811115620009bc57600080fd5b820183602082011115620009cf57600080fd5b80359060200191846020830284011164010000000083111715620009f257600080fd5b919080806020026020016040519081016040528093929190818152602001838360200280828437600092019190915250929594936020810193503591505064010000000081111562000a4357600080fd5b82018360208201111562000a5657600080fd5b8035906020019184602083028401116401000000008311171562000a7957600080fd5b919080806020026020016040519081016040528093929190818152602001838360200280828437600092019190915250929594936020810193503591505064010000000081111562000aca57600080fd5b82018360208201111562000add57600080fd5b8035906020019184602083028401116401000000008311171562000b0057600080fd5b919080806020026020016040519081016040528093929190818152602001838360200280828437600092019190915250929594936020810193503591505064010000000081111562000b5157600080fd5b82018360208201111562000b6457600080fd5b8035906020019184602083028401116401000000008311171562000b8757600080fd5b919080806020026020016040519081016040528093929190818152602001838360200280828437600092019190915250929594936020810193503591505064010000000081111562000bd857600080fd5b82018360208201111562000beb57600080fd5b8035906020019184602083028401116401000000008311171562000c0e57600080fd5b919080806020026020016040519081016040528093929190818152602001838360200280828437600092019190915250929550620011c6945050505050565b34801562000c5a57600080fd5b50620001926004803603602081101562000c7357600080fd5b503562001289565b34801562000c8857600080fd5b5062000ca96004803603602081101562000ca157600080fd5b5035620012a6565b604051808581526020018481526020018060200180602001838103835285818151815260200191508051906020019060200280838360005b8381101562000cfb57818101518382015260200162000ce1565b50505050905001838103825284818151815260200191508051906020019060200280838360005b8381101562000d3c57818101518382015260200162000d22565b50505050905001965050505050505060405180910390f35b6200025f6004803603606081101562000d6c57600080fd5b81019060208101813564010000000081111562000d8857600080fd5b82018360208201111562000d9b57600080fd5b8035906020019184602083028401116401000000008311171562000dbe57600080fd5b919350915080359060200135620013db565b60015481565b600e545b90565b600854600160a060020a0316331462000df557600080fd5b6008805473ffffffffffffffffffffffffffffffffffffffff1916600160a060020a0392909216919091179055565b600d805434908101909155600854604051600160a060020a039091169180156108fc02916000818181858888f1935050505015801562000e68573d6000803e3d6000fd5b50565b600b5481565b600e5481565b600954600160a060020a031681565b60045481565b6002805460408051602060018416156101000260001901909316849004601f8101849004840282018401909252818152929183018282801562000f135780601f1062000ee75761010080835404028352916020019162000f13565b820191906000526020600020905b81548152906001019060200180831162000ef557829003601f168201915b505050505081565b600854600160a060020a0316331462000f3357600080fd5b825162000f4890600290602086019062001907565b506003555050565b60035481565b600854600160a060020a0316331462000f6e57600080fd5b600155565b600080805b835181101562000fd957600f6000858381518110151562000f9557fe5b906020019060200201518152602001908152602001600020600301600081548110151562000fbf57fe5b600091825260209091200154919091019060010162000f78565b5092915050565b600a54600160a060020a031681565b6005805460408051602060026001851615610100026000190190941693909304601f8101849004840282018401909252818152929183018282801562000f135780601f1062000ee75761010080835404028352916020019162000f13565b60075481565b600854600160a060020a031633146200106b57600080fd5b620010768862000f56565b620010818762001289565b600160a060020a038616156200109c576200109c8662000ddd565b600085511115620010b457620010b485858562000f1b565b600082511115620010ca57620010ca8862000f56565b5050505050505050565b600854600160a060020a031633146200114e57604080517f08c379a000000000000000000000000000000000000000000000000000000000815260206004820152601560248201527f796f7520617265206e6f7420746865206f776e65720000000000000000000000604482015290519081900360640190fd5b81600160a060020a031663e9132c42826040518263ffffffff167c010000000000000000000000000000000000000000000000000000000002815260040180828152602001915050600060405180830381600087803b158015620011b157600080fd5b505af1158015620011c6573d6000803e3d6000fd5b505050505050565b600854600160a060020a031681565b600854600160a060020a03163314620011f557600080fd5b62001203600584846200198c565b506006555050565b600c6020526000908152604090205460ff8116906101009004600160a060020a031682565b60005481565b600854600160a060020a031633146200124e57600080fd5b81516200126390600590602085019062001907565b5060065550565b600f602052600090815260409020805460019091015482565b60065481565b600854600160a060020a03163314620012a157600080fd5b600755565b600080606080620012b6620019ff565b600f6000601088815481101515620012ca57fe5b90600052602060002001548152602001908152602001600020608060405190810160405290816000820154815260200160018201548152602001600282018054806020026020016040519081016040528092919081815260200182805480156200135457602002820191906000526020600020905b8154815260200190600101908083116200133f575b5050505050815260200160038201805480602002602001604051908101604052809291908181526020018280548015620013ae57602002820191906000526020600020905b81548152602001906001019080831162001399575b505050919092525050815160208301516040840151606090940151919a9099509297509550909350505050565b600954604080517f6455e5ac0000000000000000000000000000000000000000000000000000000081529051600092600160a060020a031691636455e5ac916004808301926020929190829003018186803b1580156200143a57600080fd5b505afa1580156200144f573d6000803e3d6000fd5b505050506040513d60208110156200146657600080fd5b5051604080517f689b00980000000000000000000000000000000000000000000000000000000081523360048201529051600160a060020a039092169163689b009891602480820192602092909190829003018186803b158015620014ca57600080fd5b505afa158015620014df573d6000803e3d6000fd5b505050506040513d6020811015620014f657600080fd5b505115156200156657604080517f08c379a000000000000000000000000000000000000000000000000000000000815260206004820152601560248201527f437573746f6d657220646f65736e742065786973740000000000000000000000604482015290519081900360640190fd5b60408051858152602080870282010190915260609085801562001593578160200160208202803883390190505b509050606086869050604051908082528060200260200182016040528015620015c6578160200160208202803883390190505b50905060005b8681101562001729576000888883818110620015e457fe5b90506020020135101580156200160e5750600e548888838181106200160557fe5b90506020020135105b15620016b957600f60008989848181106200162557fe5b9050602002013581526020019081526020016000206000015482828151811015156200164d57fe5b60209081029091010152600f60008989848181106200166857fe5b90506020020135815260200190815260200160002060030160008154811015156200168f57fe5b90600052602060002001548382815181101515620016a957fe5b6020908102909101015262001720565b604080517f08c379a000000000000000000000000000000000000000000000000000000000815260206004820152600d60248201527f496e76616c6964204974656d7300000000000000000000000000000000000000604482015290519081900360640190fd5b600101620015cc565b50600b546009546000913491849086908a90600160a060020a0316338b6200175062001a25565b87815260608101859052600160a060020a038085166080830152831660a082015260c0810182905260e06020808301828152895192840192909252885160408401916101008501918b8201910280838360005b83811015620017bd578181015183820152602001620017a3565b50505050905001838103825288818151815260200191508051906020019060200280838360005b83811015620017fe578181015183820152602001620017e4565b5050505090500199505050505050505050506040518091039082f0801580156200182c573d6000803e3d6000fd5b506040805180820182526001808252600160a060020a038481166020808501918252600b80546000908152600c835287812096518754945160ff199095169015151774ffffffffffffffffffffffffffffffffffffffff001916610100948616850217909655805494850190559284529284902054845193900416825291519294507f6ad6ccf0214624cc1ab014b24a7601698f45e6a0d07edcbab143606784ed78fb93508290030190a15050600b54600019016000908152600c60205260409020546101009004600160a060020a03169695505050505050565b828054600181600116156101000203166002900490600052602060002090601f016020900481019282601f106200194a57805160ff19168380011785556200197a565b828001600101855582156200197a579182015b828111156200197a5782518255916020019190600101906200195d565b506200198892915062001a36565b5090565b828054600181600116156101000203166002900490600052602060002090601f016020900481019282601f10620019cf5782800160ff198235161785556200197a565b828001600101855582156200197a579182015b828111156200197a578235825591602001919060010190620019e2565b604080516080810182526000808252602082015260609181018290528181019190915290565b6040516111dd8062001a5483390190565b62000dda91905b8082111562001988576000815560010162001a3d56fe608060408190526004805461ffff19169055600c805460ff19908116909155600e80549091169055620011dd38819003908190833981018060405260e08110156200004957600080fd5b8151602083018051919392830192916401000000008111156200006b57600080fd5b820160208101848111156200007f57600080fd5b81518560208202830111640100000000821117156200009d57600080fd5b50509291906020018051640100000000811115620000ba57600080fd5b82016020810184811115620000ce57600080fd5b8151856020820283011164010000000082111715620000ec57600080fd5b5050602080830151604080850151606086015160809096015182517f68db65a4000000000000000000000000000000000000000000000000000000008152925195985092965094939192600160a060020a038616926368db65a4926004808201939291829003018186803b1580156200016457600080fd5b505afa15801562000179573d6000803e3d6000fd5b505050506040513d60208110156200019057600080fd5b5051604080517f79a4fa270000000000000000000000000000000000000000000000000000000081523360048201529051600160a060020a03909216916379a4fa2791602480820192602092909190829003018186803b158015620001f457600080fd5b505afa15801562000209573d6000803e3d6000fd5b505050506040513d60208110156200022057600080fd5b50511515620002b657604080517f08c379a000000000000000000000000000000000000000000000000000000000815260206004820152603d60248201527f617474656d7074656420746f206d616b65206f726465722066726f6d2061646460448201527f726573732074686174206973206e6f7420612072657374617572616e74000000606482015290519081900360840190fd5b84518651146200034d57604080517f08c379a000000000000000000000000000000000000000000000000000000000815260206004820152602360248201527f696e76616c6964206d61746368696e67206f66206974656d7320746f2070726960448201527f6365730000000000000000000000000000000000000000000000000000000000606482015290519081900360840190fd5b6003879055600480546201000033026201000060b060020a031990911617905560068054600160a060020a03848116600160a060020a03199283161790925542600855600780549286169290911691909117905560006009819055600f8190555b8651811015620004505760408051908101604052808883815181101515620003d257fe5b9060200190602002015181526020018783815181101515620003f057fe5b6020908102909101810151909152600f54600090815260108252604090208251815591015160019091015585518690829081106200042a57fe5b60209081029091010151600980549091019055600f8054600190810190915501620003ae565b50600a8490556009548401341015620004f057604080517f08c379a000000000000000000000000000000000000000000000000000000000815260206004820152602360248201527f6e6f7420656e6f7567682065746865722073656e7420746f20746865206f726460448201527f6572200000000000000000000000000000000000000000000000000000000000606482015290519081900360840190fd5b60016002556000809081556001908155600b91909155600c805460ff19169091179055505050505050610cb480620005296000396000f3fe60806040526004361061012f5763ffffffff60e060020a60003504166312065fe081146101345780632799276d1461015b5780632804b2c0146101705780633129e773146101a157806332940816146101e45780633cc94908146101f95780633cf5040a1461020e5780633e3ca4d31461023857806340571abb1461024d57806353c0a00614610276578063646e077f1461028b5780637aada134146102a05780639e8464f1146102b5578063a14b7e68146102df578063af640d0f146102f4578063bd3e19d414610309578063bfb231d21461031e578063d601e11414610348578063d638e1021461035d578063db7575f014610372578063e9132c421461039c578063ed168058146103bb578063f3cc0f1f146103d0578063f90a92e3146103e5578063fc6f78a014610402575b600080fd5b34801561014057600080fd5b50610149610417565b60408051918252519081900360200190f35b34801561016757600080fd5b5061014961041c565b34801561017c57600080fd5b50610185610422565b60408051600160a060020a039092168252519081900360200190f35b3480156101ad57600080fd5b506101cb600480360360208110156101c457600080fd5b5035610431565b6040805192835260208301919091528051918290030190f35b3480156101f057600080fd5b5061014961044b565b34801561020557600080fd5b50610149610451565b34801561021a57600080fd5b506101496004803603602081101561023157600080fd5b5035610457565b34801561024457600080fd5b5061014961047b565b34801561025957600080fd5b50610262610481565b604080519115158252519081900360200190f35b34801561028257600080fd5b5061018561048f565b34801561029757600080fd5b5061026261049e565b3480156102ac57600080fd5b506101496104a7565b3480156102c157600080fd5b50610262600480360360208110156102d857600080fd5b50356104ad565b3480156102eb57600080fd5b506101496105a1565b34801561030057600080fd5b506101496105a7565b34801561031557600080fd5b506101496105ad565b34801561032a57600080fd5b506101cb6004803603602081101561034157600080fd5b50356105b3565b34801561035457600080fd5b506102626105cc565b34801561036957600080fd5b506102626105d5565b34801561037e57600080fd5b506102626004803603602081101561039557600080fd5b50356105de565b6103b9600480360360208110156103b257600080fd5b50356106d1565b005b3480156103c757600080fd5b50610185610864565b3480156103dc57600080fd5b50610149610879565b6103b9600480360360208110156103fb57600080fd5b503561087f565b34801561040e57600080fd5b50610149610b2d565b303190565b600f5481565b600654600160a060020a031681565b600090815260106020526040902080546001909101549091565b60015481565b600d5481565b60408051602080820193909352815180820384018152908201909152805191012090565b60005481565b600454610100900460ff1681565b600554600160a060020a031681565b600c5460ff1681565b60085481565b600e5460009060ff16151560011461050f576040805160e560020a62461bcd02815260206004820152601360248201527f4e6f206b657920686173206265656e2073657400000000000000000000000000604482015290519081900360640190fd5b600d5461051b83610457565b14610570576040805160e560020a62461bcd02815260206004820152600d60248201527f496e636f7272656374204b657900000000000000000000000000000000000000604482015290519081900360640190fd5b610578610b33565b600360015560026000908155604051600080516020610c698339815191529190a1506001919050565b60025481565b60035481565b60095490565b6010602052600090815260409020805460019091015482565b60045460ff1681565b600e5460ff1681565b600c5460009060ff161515600114610640576040805160e560020a62461bcd02815260206004820152601360248201527f4e6f206b657920686173206265656e2073657400000000000000000000000000604482015290519081900360640190fd5b600b5461064c83610457565b146106a1576040805160e560020a62461bcd02815260206004820152600d60248201527f496e636f7272656374204b657900000000000000000000000000000000000000604482015290519081900360640190fd5b6106a9610bca565b600360005560028055604051600080516020610c6983398151915290600090a1506001919050565b600454620100009004600160a060020a03163314610785576040805160e560020a62461bcd02815260206004820152605060248201527f596f7520646f6e742068617665207065726d697373696f6e20746f207365652060448201527f74686973206f726465722c2064696420796f752067657420746865206f72646560648201527f7220616464726573732077726f6e673f00000000000000000000000000000000608482015290519081900360a40190fd5b60015481116107de576040805160e560020a62461bcd02815260206004820152601c60248201527f7374617475732063616e6e6f74206265206261636b747261636b656400000000604482015290519081900360640190fd5b600381111580156107ef5750600081115b1515610845576040805160e560020a62461bcd02815260206004820152601660248201527f676976656e20537461747573206e6f742076616c696400000000000000000000604482015290519081900360640190fd5b6001819055604051600080516020610c6983398151915290600090a150565b600454620100009004600160a060020a031681565b600a5481565b600054156108fd576040805160e560020a62461bcd02815260206004820152602a60248201527f74686973206f7264657220616c6c7265616479206861732064656c697665727960448201527f206f7267616e6973656400000000000000000000000000000000000000000000606482015290519081900360840190fd5b600760009054906101000a9004600160a060020a0316600160a060020a031663c9286d576040518163ffffffff1660e060020a02815260040160206040518083038186803b15801561094e57600080fd5b505afa158015610962573d6000803e3d6000fd5b505050506040513d602081101561097857600080fd5b5051604080517f139526700000000000000000000000000000000000000000000000000000000081523360048201529051600160a060020a0390921691631395267091602480820192602092909190829003018186803b1580156109db57600080fd5b505afa1580156109ef573d6000803e3d6000fd5b505050506040513d6020811015610a0557600080fd5b50511515610a83576040805160e560020a62461bcd02815260206004820152602960248201527f6d7573742062652063616c6c656420766961206120726964657220736d61727460448201527f20636f6e74726163740000000000000000000000000000000000000000000000606482015290519081900360840190fd5b600954341015610add576040805160e560020a62461bcd02815260206004820152601e60248201527f746865206465706f7369742073656e74206973206e6f7420656e6f7567680000604482015290519081900360640190fd5b600160009081556005805473ffffffffffffffffffffffffffffffffffffffff191633179055600d829055600e805460ff19166001179055604051600080516020610c698339815191529190a150565b600b5481565b600460029054906101000a9004600160a060020a0316600160a060020a0316631b9265b86009546040518263ffffffff1660e060020a0281526004016000604051808303818588803b158015610b8857600080fd5b505af1158015610b9c573d6000803e3d6000fd5b50506004805460ff191660019081178255555050604051600080516020610c698339815191529150600090a1565b600560009054906101000a9004600160a060020a0316600160a060020a0316631b9265b8600a54600954016040518263ffffffff1660e060020a0281526004016000604051808303818588803b158015610c2357600080fd5b505af1158015610c37573d6000803e3d6000fd5b50506004805461ff001916610100179055505060036000908155604051600080516020610c698339815191529250a156feac854101ed2841c4fe7b3c5bfc4f3e58ddac515e8dd58f1bd9cf7856f1cc6e7fa165627a7a723058209736032a2fa77d787da298440ec4ed6b5dc2ee3dc9b4997d55e4c444bf6387820029a165627a7a723058202b86896cc52fb79e318c1189f07c5e5313cd3376e8da50a42d5ad1e3cb42f9f20029",
  "source": "pragma solidity ^0.5.0;\n\n //import \"./lib.sol\";\n import \"./Order.sol\";\n import \"./RestaurantFactory.sol\";\n import \"./CustomerFactory.sol\";\n import \"./Controller.sol\";\n\ncontract Restaurant {\n\n    // additional variables to add\n\n\tuint public id;\n\tbytes32 public name; \n\n\tbytes public location; \n    uint public longitude; \n    uint public latitude; \n\n    bytes public logoURI; \n    bytes32 public logoHash; \n\n\n\tbytes32 public contactNumber; \n\n\taddress payable public owner; \n    address public controllerAddress;\n\taddress public restaurantFactoryAddress;\n\n\n    struct order{bool open; address orderAddress;}\n\tuint public totalOrders;\n    // todo: make orders private and accessed via method for only rider and restaurant\n\tmapping(uint => order) public orders; // must be a better way to store the orders\n\n    uint totalPay;\n\t\n\tstruct Item{\n\t\tbytes32 itemName;\n        bytes32 description;\n        bytes32[] options;\n\t\tuint[] optionsCost; // in wei (10^-18 Eth)\n\t}\n\t\n    uint public menuLength;\n\tmapping(uint => Item) public menu;\n    uint[] private menuIndexes;\n    uint private menuMappingLength;\n\n    enum restaurantState{acceptedOrder, preparingCargo, readyForCollection, HandedOver}\n\t\n    event OrderMadeEvent(address orderAddress);\n    event MenuUpdated();\n\n\tconstructor(address _controller, address payable _owner, \n                uint _id, bytes32 _name, \n                bytes memory _address, uint _latitude, uint _longitude, \n                bytes32 _contactNumber\n                ) public {\n        // itemOptions and prices will have to be parsed as they are 2d arrays\n\t\tid = _id;\n\t\tname = _name;\n\t\t\n        location = _address;\n        latitude = _latitude;\n        longitude = _longitude;\n\n\t\tcontactNumber = _contactNumber;\n\t\ttotalOrders = 0;\n        totalPay = 0;\n\n        menuLength = 0;\n        menuMappingLength = 0;\n\n        controllerAddress = _controller;\n\t\towner = _owner;\n\t\trestaurantFactoryAddress = msg.sender;\n\t}\n\n    function getMenuItem(uint index) public view returns(bytes32 itemName, bytes32 itemDescription, bytes32[] memory optionNames, uint[] memory optionPrices){\n        Item memory i = menu[menuIndexes[index]];\n        return (i.itemName, i.description, i.options, i.optionsCost);\n    }\n\n    function updateLogo(bytes calldata imageURI, bytes32 imageHash) external{\n        require(msg.sender == owner);\n        logoURI = imageURI;\n        logoHash = imageHash;\n    }\n\n    // ToDo Remove this\n    function getMenuLength() external view returns(uint length){\n        return menuLength;\n    }\n    \n\n    function updateMenu(bytes32[] memory itemNames, bytes32[] memory itemDescriptions, bytes32[] memory _optionNames, uint[] memory _prices, uint[] memory optionFlags, uint[] memory itemsToRemove) public{\n        // require(msg.sender == owner, \"you are not the owner\");\n        // require(itemNames.length == itemDescriptions.length, \"the number of descriptions and item names do not match\");\n        // require(_optionNames.length == _prices.length, \"the number of options and prices do not match\");\n        // require(itemNames.length == optionFlags.length, \"the number of item names and option flags do not match\");\n        // uint optionFlagsSum = 0;\n        // for(uint i = 0; i < optionFlags.length; i++){\n        //     optionFlagsSum += optionFlags[i];\n        // }\n        // require(_optionNames.length == optionFlagsSum, \"the number of options and the sum of the option flags do not match\");\n        \n        // // remove from menu \n        // for(uint i = 0; i < itemsToRemove.length; i++){\n        //     if(itemsToRemove[i] <= menuIndexes.length){\n        //         for(uint j = itemsToRemove[i]; j < menuLength-1; j++){\n        //             menuIndexes[itemsToRemove[i]] = menuIndexes[itemsToRemove[i] + 1];  \n        //         }\n        //         delete menuIndexes[menuIndexes.length-1];\n        //         menuLength--;\n        //     }\n        // }\n\n        // add to menu\n        // uint optionIndex = 0;\n        // bytes32 itemName;\n        // bytes32 itemDescription;\n        // bytes32[] memory optionNames;\n        // uint[] memory prices;\n\n        // for(uint i = 0; i < optionFlags.length; i++){\n\n        //     itemName = itemNames[i];\n        //     itemDescription = itemDescriptions[i];\n\n        //     optionNames = new bytes32[](optionFlags[i]);\n        //     prices = new uint[](optionFlags[i]);\n            \n        //     for(uint j = 0; j < optionFlags[i]; j++){\n        //         optionNames[j] = _optionNames[optionIndex];\n        //         prices[j] = _prices[optionIndex];\n        //         optionIndex++;\n        //     }\n\n        //     menu[menuMappingLength] = Item(itemName,itemDescription,optionNames,prices);\n        //     menuIndexes[menuLength] = menuMappingLength;\n        //     menuLength++;\n        //     menuMappingLength++;\n            \n        // }\n    }\n\n\n    // todo: fix this\n    function getOrderPrice(uint[] memory itemIds) public view returns (uint){\n        uint price = 0;\n        for(uint i = 0; i < itemIds.length; i++){\n            price += menu[itemIds[i]].optionsCost[0];\n        }\n        return price;\n    }\n    \n\n    function makeOrder(uint[] calldata itemIds, uint deliveryFee, bytes32 riderKeyHash) external payable returns (address orderAddress) {\n        //require this comes from a customer smart contract, maybe worth moving this to the order smart contract\n        require(CustomerFactory(Controller(controllerAddress).customerFactoryAddress()).customerExists(msg.sender), \"Customer doesnt exist\");\n\n        uint[] memory prices = new uint[](itemIds.length);\n        bytes32[] memory items = new bytes32[](itemIds.length);\n        for(uint i = 0; i < itemIds.length; i++)\n        {\n            if (itemIds[i] >= 0 && itemIds[i] < menuLength){\n                // could consider sending itemID and price to reduce gas cost\n                items[i] = menu[uint(itemIds[i])].itemName; \n                prices[i] = menu[uint(itemIds[i])].optionsCost[0];\n            }\n            else{\n                revert(\"Invalid Items\");\n            }\n        }\n        \n\t\tOrder newOrder = (new Order).value(msg.value)(totalOrders,items,prices,deliveryFee, controllerAddress, msg.sender, riderKeyHash);\n\t\torders[totalOrders] = order(true,address(newOrder));\n        totalOrders ++;\n\n        emit OrderMadeEvent(orders[totalOrders - 1].orderAddress);\n\n\t\treturn orders[totalOrders - 1].orderAddress;       \n    }\n\n    function setStatus(address orderAddress, uint status) public{\n        require(msg.sender == owner, \"you are not the owner\");\n        Order(orderAddress).setOrderStatus(status);\n    }\n\n    function pay() external payable {\n        totalPay += msg.value;\n        owner.transfer(msg.value);\n    } \n\n    function() external payable {\n\n    }\n\n\n    // Setters\n    function updateRestaurant(bytes32 _name, bytes32 _number, address payable _owner, bytes memory _location, uint _latitude, uint _longitude, bytes memory _logoURI, bytes32 _logoHash) public {\n        require(msg.sender == owner);\n        if(_name.length > 0 )\n            setName(_name);\n        if(_number.length > 0 )\n            setNumber(_number);\n        if(_owner != address(0))\n            setOwner(_owner);\n        if(_location.length > 0)\n            setLocation(_location, _latitude, _longitude);\n        if(_logoURI.length > 0)\n            setName(_name);\n    }\n    function setName(bytes32 _name) public {\n        require(msg.sender == owner);\n        name = _name;\n    }\n    function setNumber(bytes32 _number) public {\n        require(msg.sender == owner);\n        contactNumber = _number;\n    }\n    function setOwner(address payable _owner) public {\n        require(msg.sender == owner);\n        owner = _owner;\n    }\n    function setLocation(bytes memory _location, uint _latitude, uint _longitude) public {\n        require(msg.sender == owner);\n        location = _location;\n        latitude - _latitude;\n        longitude = _longitude;\n    }\n    function setLogo(bytes memory _logoURI, bytes32 _logoHash) public {\n        require(msg.sender == owner);\n        logoURI = _logoURI;\n        logoHash = _logoHash;\n    }\n}",
  "sourcePath": "/home/george/Documents/WorkSpace/TryAByte/contracts/Restaurant.sol",
  "compiler": {
    "name": "solc",
    "version": "0.5.0+commit.1d4f565a.Emscripten.clang"
  },
  "schemaVersion": "3.0.6",
  "updatedAt": "2019-10-31T10:38:54.734Z",
  "devdoc": {
    "methods": {}
  },
  "userdoc": {
    "methods": {}
  }
}