{
  "contractName": "Restaurant",
  "abi": [
    {
      "inputs": [
        {
          "internalType": "address",
          "name": "_controller",
          "type": "address"
        },
        {
          "internalType": "address payable",
          "name": "_owner",
          "type": "address"
        },
        {
          "internalType": "uint256",
          "name": "_id",
          "type": "uint256"
        },
        {
          "internalType": "bytes32",
          "name": "_name",
          "type": "bytes32"
        },
        {
          "internalType": "bytes",
          "name": "_address",
          "type": "bytes"
        },
        {
          "internalType": "uint256",
          "name": "_latitude",
          "type": "uint256"
        },
        {
          "internalType": "uint256",
          "name": "_longitude",
          "type": "uint256"
        },
        {
          "internalType": "bytes32",
          "name": "_contactNumber",
          "type": "bytes32"
        }
      ],
      "payable": false,
      "stateMutability": "nonpayable",
      "type": "constructor"
    },
    {
      "anonymous": false,
      "inputs": [],
      "name": "MenuUpdated",
      "type": "event"
    },
    {
      "anonymous": false,
      "inputs": [
        {
          "indexed": false,
          "internalType": "address",
          "name": "orderAddress",
          "type": "address"
        }
      ],
      "name": "OrderMadeEvent",
      "type": "event"
    },
    {
      "payable": true,
      "stateMutability": "payable",
      "type": "fallback"
    },
    {
      "constant": true,
      "inputs": [],
      "name": "contactNumber",
      "outputs": [
        {
          "internalType": "bytes32",
          "name": "",
          "type": "bytes32"
        }
      ],
      "payable": false,
      "stateMutability": "view",
      "type": "function"
    },
    {
      "constant": true,
      "inputs": [],
      "name": "controllerAddress",
      "outputs": [
        {
          "internalType": "address",
          "name": "",
          "type": "address"
        }
      ],
      "payable": false,
      "stateMutability": "view",
      "type": "function"
    },
    {
      "constant": true,
      "inputs": [],
      "name": "id",
      "outputs": [
        {
          "internalType": "uint256",
          "name": "",
          "type": "uint256"
        }
      ],
      "payable": false,
      "stateMutability": "view",
      "type": "function"
    },
    {
      "constant": true,
      "inputs": [],
      "name": "latitude",
      "outputs": [
        {
          "internalType": "uint256",
          "name": "",
          "type": "uint256"
        }
      ],
      "payable": false,
      "stateMutability": "view",
      "type": "function"
    },
    {
      "constant": true,
      "inputs": [],
      "name": "location",
      "outputs": [
        {
          "internalType": "bytes",
          "name": "",
          "type": "bytes"
        }
      ],
      "payable": false,
      "stateMutability": "view",
      "type": "function"
    },
    {
      "constant": true,
      "inputs": [],
      "name": "logoHash",
      "outputs": [
        {
          "internalType": "bytes32",
          "name": "",
          "type": "bytes32"
        }
      ],
      "payable": false,
      "stateMutability": "view",
      "type": "function"
    },
    {
      "constant": true,
      "inputs": [],
      "name": "logoURI",
      "outputs": [
        {
          "internalType": "bytes",
          "name": "",
          "type": "bytes"
        }
      ],
      "payable": false,
      "stateMutability": "view",
      "type": "function"
    },
    {
      "constant": true,
      "inputs": [],
      "name": "longitude",
      "outputs": [
        {
          "internalType": "uint256",
          "name": "",
          "type": "uint256"
        }
      ],
      "payable": false,
      "stateMutability": "view",
      "type": "function"
    },
    {
      "constant": true,
      "inputs": [],
      "name": "name",
      "outputs": [
        {
          "internalType": "bytes32",
          "name": "",
          "type": "bytes32"
        }
      ],
      "payable": false,
      "stateMutability": "view",
      "type": "function"
    },
    {
      "constant": true,
      "inputs": [
        {
          "internalType": "uint256",
          "name": "",
          "type": "uint256"
        }
      ],
      "name": "orders",
      "outputs": [
        {
          "internalType": "bool",
          "name": "open",
          "type": "bool"
        },
        {
          "internalType": "address",
          "name": "orderAddress",
          "type": "address"
        }
      ],
      "payable": false,
      "stateMutability": "view",
      "type": "function"
    },
    {
      "constant": true,
      "inputs": [],
      "name": "owner",
      "outputs": [
        {
          "internalType": "address payable",
          "name": "",
          "type": "address"
        }
      ],
      "payable": false,
      "stateMutability": "view",
      "type": "function"
    },
    {
      "constant": true,
      "inputs": [],
      "name": "restaurantFactoryAddress",
      "outputs": [
        {
          "internalType": "address",
          "name": "",
          "type": "address"
        }
      ],
      "payable": false,
      "stateMutability": "view",
      "type": "function"
    },
    {
      "constant": true,
      "inputs": [],
      "name": "totalOrders",
      "outputs": [
        {
          "internalType": "uint256",
          "name": "",
          "type": "uint256"
        }
      ],
      "payable": false,
      "stateMutability": "view",
      "type": "function"
    },
    {
      "constant": true,
      "inputs": [],
      "name": "getMenuAddress",
      "outputs": [
        {
          "internalType": "address",
          "name": "",
          "type": "address"
        }
      ],
      "payable": false,
      "stateMutability": "view",
      "type": "function"
    },
    {
      "constant": false,
      "inputs": [
        {
          "internalType": "bytes",
          "name": "imageURI",
          "type": "bytes"
        },
        {
          "internalType": "bytes32",
          "name": "imageHash",
          "type": "bytes32"
        }
      ],
      "name": "updateLogo",
      "outputs": [],
      "payable": false,
      "stateMutability": "nonpayable",
      "type": "function"
    },
    {
      "constant": false,
      "inputs": [
        {
          "internalType": "address",
          "name": "orderAddress",
          "type": "address"
        },
        {
          "internalType": "uint256",
          "name": "status",
          "type": "uint256"
        }
      ],
      "name": "setStatus",
      "outputs": [],
      "payable": false,
      "stateMutability": "nonpayable",
      "type": "function"
    },
    {
      "constant": false,
      "inputs": [],
      "name": "pay",
      "outputs": [],
      "payable": true,
      "stateMutability": "payable",
      "type": "function"
    },
    {
      "constant": false,
      "inputs": [
        {
          "internalType": "bytes32",
          "name": "_name",
          "type": "bytes32"
        },
        {
          "internalType": "bytes32",
          "name": "_number",
          "type": "bytes32"
        },
        {
          "internalType": "address payable",
          "name": "_owner",
          "type": "address"
        },
        {
          "internalType": "bytes",
          "name": "_location",
          "type": "bytes"
        },
        {
          "internalType": "uint256",
          "name": "_latitude",
          "type": "uint256"
        },
        {
          "internalType": "uint256",
          "name": "_longitude",
          "type": "uint256"
        },
        {
          "internalType": "bytes",
          "name": "_logoURI",
          "type": "bytes"
        },
        {
          "internalType": "bytes32",
          "name": "_logoHash",
          "type": "bytes32"
        }
      ],
      "name": "updateRestaurant",
      "outputs": [],
      "payable": false,
      "stateMutability": "nonpayable",
      "type": "function"
    },
    {
      "constant": false,
      "inputs": [
        {
          "internalType": "bytes32",
          "name": "_name",
          "type": "bytes32"
        }
      ],
      "name": "setName",
      "outputs": [],
      "payable": false,
      "stateMutability": "nonpayable",
      "type": "function"
    },
    {
      "constant": false,
      "inputs": [
        {
          "internalType": "bytes32",
          "name": "_number",
          "type": "bytes32"
        }
      ],
      "name": "setNumber",
      "outputs": [],
      "payable": false,
      "stateMutability": "nonpayable",
      "type": "function"
    },
    {
      "constant": false,
      "inputs": [
        {
          "internalType": "address payable",
          "name": "_owner",
          "type": "address"
        }
      ],
      "name": "setOwner",
      "outputs": [],
      "payable": false,
      "stateMutability": "nonpayable",
      "type": "function"
    },
    {
      "constant": false,
      "inputs": [
        {
          "internalType": "bytes",
          "name": "_location",
          "type": "bytes"
        },
        {
          "internalType": "uint256",
          "name": "_latitude",
          "type": "uint256"
        },
        {
          "internalType": "uint256",
          "name": "_longitude",
          "type": "uint256"
        }
      ],
      "name": "setLocation",
      "outputs": [],
      "payable": false,
      "stateMutability": "nonpayable",
      "type": "function"
    },
    {
      "constant": false,
      "inputs": [
        {
          "internalType": "bytes",
          "name": "_logoURI",
          "type": "bytes"
        },
        {
          "internalType": "bytes32",
          "name": "_logoHash",
          "type": "bytes32"
        }
      ],
      "name": "setLogo",
      "outputs": [],
      "payable": false,
      "stateMutability": "nonpayable",
      "type": "function"
    }
  ],
  "bytecode": "0x60806040523480156200001157600080fd5b5060405162002f8838038062002f8883398181016040526101008110156200003857600080fd5b81516020830151604080850151606086015160808701805193519597949692959194919392820192846401000000008211156200007457600080fd5b9083019060208201858111156200008a57600080fd5b8251640100000000811182820188101715620000a557600080fd5b82525081516020918201929091019080838360005b83811015620000d4578181015183820152602001620000ba565b50505050905090810190601f168015620001025780820380516001836020036101000a031916815260200191505b506040908152602082810151918301516060909301516000899055600188905586519295509293506200013b91600291870190620001eb565b506004839055600382905560078190556000600b819055600d55600980546001600160a01b03808b166001600160a01b03199283161790925560088054928a1692821692909217909155600a8054909116331790556040516200019e9062000270565b604051809103906000f080158015620001bb573d6000803e3d6000fd5b50600e80546001600160a01b0319166001600160a01b0392909216919091179055506200029e9650505050505050565b828054600181600116156101000203166002900490600052602060002090601f016020900481019282601f106200022e57805160ff19168380011785556200025e565b828001600101855582156200025e579182015b828111156200025e57825182559160200191906001019062000241565b506200026c9291506200027e565b5090565b6120728062000f1683390190565b6200029b91905b808211156200026c576000815560010162000285565b90565b610c6880620002ae6000396000f3fe6080604052600436106101405760003560e01c806368db65a4116100b6578063a64f207a1161006f578063a64f207a14610581578063a85c38ef146105fc578063af640d0f14610649578063c1f0f00d1461065e578063df7be1ca14610711578063f1d4b2c51461072657610140565b806368db65a4146103935780636bb38b28146103a857806376af633c146103bd5780637e29b003146103d25780637e55d59c146105335780638da5cb5b1461056c57610140565b80634b24ea47116101085780634b24ea47146101ea5780634fd7d76a146101ff578063516f279e146102145780635863bebe1461029e578063589af69c146103545780635ac801fe1461036957610140565b806301751d411461014257806306fdde031461017357806313af40351461019a5780631b9265b8146101cd5780631d834409146101d5575b005b34801561014e57600080fd5b50610157610750565b604080516001600160a01b039092168252519081900360200190f35b34801561017f57600080fd5b50610188610760565b60408051918252519081900360200190f35b3480156101a657600080fd5b50610140600480360360208110156101bd57600080fd5b50356001600160a01b0316610766565b61014061079f565b3480156101e157600080fd5b506101886107e5565b3480156101f657600080fd5b506101576107eb565b34801561020b57600080fd5b506101886107fa565b34801561022057600080fd5b50610229610800565b6040805160208082528351818301528351919283929083019185019080838360005b8381101561026357818101518382015260200161024b565b50505050905090810190601f1680156102905780820380516001836020036101000a031916815260200191505b509250505060405180910390f35b3480156102aa57600080fd5b50610140600480360360608110156102c157600080fd5b810190602081018135600160201b8111156102db57600080fd5b8201836020820111156102ed57600080fd5b803590602001918460018302840111600160201b8311171561030e57600080fd5b91908080601f016020809104026020016040519081016040528093929190818152602001838380828437600092019190915250929550508235935050506020013561088b565b34801561036057600080fd5b506101886108bd565b34801561037557600080fd5b506101406004803603602081101561038c57600080fd5b50356108c3565b34801561039f57600080fd5b506101576108df565b3480156103b457600080fd5b506102296108ee565b3480156103c957600080fd5b50610188610949565b3480156103de57600080fd5b5061014060048036036101008110156103f657600080fd5b8135916020810135916001600160a01b036040830135169190810190608081016060820135600160201b81111561042c57600080fd5b82018360208201111561043e57600080fd5b803590602001918460018302840111600160201b8311171561045f57600080fd5b91908080601f0160208091040260200160405190810160405280939291908181526020018383808284376000920191909152509295843595602086013595919450925060608101915060400135600160201b8111156104bd57600080fd5b8201836020820111156104cf57600080fd5b803590602001918460018302840111600160201b831117156104f057600080fd5b91908080601f016020809104026020016040519081016040528093929190818152602001838380828437600092019190915250929550509135925061094f915050565b34801561053f57600080fd5b506101406004803603604081101561055657600080fd5b506001600160a01b0381351690602001356109bc565b34801561057857600080fd5b50610157610a75565b34801561058d57600080fd5b50610140600480360360408110156105a457600080fd5b810190602081018135600160201b8111156105be57600080fd5b8201836020820111156105d057600080fd5b803590602001918460018302840111600160201b831117156105f157600080fd5b919350915035610a84565b34801561060857600080fd5b506106266004803603602081101561061f57600080fd5b5035610aaf565b6040805192151583526001600160a01b0390911660208301528051918290030190f35b34801561065557600080fd5b50610188610ad4565b34801561066a57600080fd5b506101406004803603604081101561068157600080fd5b810190602081018135600160201b81111561069b57600080fd5b8201836020820111156106ad57600080fd5b803590602001918460018302840111600160201b831117156106ce57600080fd5b91908080601f0160208091040260200160405190810160405280939291908181526020018383808284376000920191909152509295505091359250610ada915050565b34801561071d57600080fd5b50610188610b0b565b34801561073257600080fd5b506101406004803603602081101561074957600080fd5b5035610b11565b600e546001600160a01b03165b90565b60015481565b6008546001600160a01b0316331461077d57600080fd5b600880546001600160a01b0319166001600160a01b0392909216919091179055565b600d8054349081019091556008546040516001600160a01b039091169180156108fc02916000818181858888f193505050501580156107e2573d6000803e3d6000fd5b50565b600b5481565b6009546001600160a01b031681565b60045481565b6002805460408051602060018416156101000260001901909316849004601f810184900484028201840190925281815292918301828280156108835780601f1061085857610100808354040283529160200191610883565b820191906000526020600020905b81548152906001019060200180831161086657829003601f168201915b505050505081565b6008546001600160a01b031633146108a257600080fd5b82516108b5906002906020860190610b2d565b506003555050565b60035481565b6008546001600160a01b031633146108da57600080fd5b600155565b600a546001600160a01b031681565b6005805460408051602060026001851615610100026000190190941693909304601f810184900484028201840190925281815292918301828280156108835780601f1061085857610100808354040283529160200191610883565b60075481565b6008546001600160a01b0316331461096657600080fd5b61096f886108c3565b61097887610b11565b6001600160a01b038616156109905761099086610766565b8451156109a2576109a285858561088b565b8151156109b2576109b2886108c3565b5050505050505050565b6008546001600160a01b03163314610a13576040805162461bcd60e51b81526020600482015260156024820152743cb7ba9030b932903737ba103a34329037bbb732b960591b604482015290519081900360640190fd5b816001600160a01b031663e9132c42826040518263ffffffff1660e01b815260040180828152602001915050600060405180830381600087803b158015610a5957600080fd5b505af1158015610a6d573d6000803e3d6000fd5b505050505050565b6008546001600160a01b031681565b6008546001600160a01b03163314610a9b57600080fd5b610aa760058484610bab565b506006555050565b600c6020526000908152604090205460ff81169061010090046001600160a01b031682565b60005481565b6008546001600160a01b03163314610af157600080fd5b8151610b04906005906020850190610b2d565b5060065550565b60065481565b6008546001600160a01b03163314610b2857600080fd5b600755565b828054600181600116156101000203166002900490600052602060002090601f016020900481019282601f10610b6e57805160ff1916838001178555610b9b565b82800160010185558215610b9b579182015b82811115610b9b578251825591602001919060010190610b80565b50610ba7929150610c19565b5090565b828054600181600116156101000203166002900490600052602060002090601f016020900481019282601f10610bec5782800160ff19823516178555610b9b565b82800160010185558215610b9b579182015b82811115610b9b578235825591602001919060010190610bfe565b61075d91905b80821115610ba75760008155600101610c1f56fea265627a7a723158202f3785a7110c4c59400ce9cabbe82ecd6ea75ad7a8fe078f37f3ee3ebf093e7c64736f6c634300050c0032608060405260006001556000600255600060035534801561001f57600080fd5b50600080546001600160a01b03191633179055612031806100416000396000f3fe608060405234801561001057600080fd5b50600436106101165760003560e01c806379b0542d116100a2578063bae78d7b11610071578063bae78d7b14610959578063bfb231d214610a1d578063c98baa3214610a60578063d54307ca14610513578063e4d8a2a614610c0557610116565b806379b0542d1461053857806380fdeff61461075f5780638fb0f14c14610895578063ab90dae81461093657610116565b8063409e2205116100e9578063409e2205146104c857806348850443146105035780635b4b87921461050b5780637087ab3314610513578063713291711461051b57610116565b80630545ba291461011b5780631f7b6d3214610140578063206dd9c61461015a5780633548495214610485575b600080fd5b61013e6004803603604081101561013157600080fd5b5080359060200135610c2e565b005b610148610d8a565b60408051918252519081900360200190f35b61013e600480360360c081101561017057600080fd5b810190602081018135600160201b81111561018a57600080fd5b82018360208201111561019c57600080fd5b803590602001918460208302840111600160201b831117156101bd57600080fd5b9190808060200260200160405190810160405280939291908181526020018383602002808284376000920191909152509295949360208101935035915050600160201b81111561020c57600080fd5b82018360208201111561021e57600080fd5b803590602001918460208302840111600160201b8311171561023f57600080fd5b9190808060200260200160405190810160405280939291908181526020018383602002808284376000920191909152509295949360208101935035915050600160201b81111561028e57600080fd5b8201836020820111156102a057600080fd5b803590602001918460208302840111600160201b831117156102c157600080fd5b9190808060200260200160405190810160405280939291908181526020018383602002808284376000920191909152509295949360208101935035915050600160201b81111561031057600080fd5b82018360208201111561032257600080fd5b803590602001918460208302840111600160201b8311171561034357600080fd5b9190808060200260200160405190810160405280939291908181526020018383602002808284376000920191909152509295949360208101935035915050600160201b81111561039257600080fd5b8201836020820111156103a457600080fd5b803590602001918460208302840111600160201b831117156103c557600080fd5b9190808060200260200160405190810160405280939291908181526020018383602002808284376000920191909152509295949360208101935035915050600160201b81111561041457600080fd5b82018360208201111561042657600080fd5b803590602001918460208302840111600160201b8311171561044757600080fd5b919080806020026020016040519081016040528093929190818152602001838360200280828437600092019190915250929550610d90945050505050565b6104b46004803603608081101561049b57600080fd5b50803590602081013590604081013590606001356110c7565b604080519115158252519081900360200190f35b6104e5600480360360208110156104de57600080fd5b503561125d565b60408051938452602084019290925282820152519081900360600190f35b61014861127e565b610148611284565b61013e61128a565b6104b46004803603602081101561053157600080fd5b503561128c565b61013e6004803603608081101561054e57600080fd5b810190602081018135600160201b81111561056857600080fd5b82018360208201111561057a57600080fd5b803590602001918460208302840111600160201b8311171561059b57600080fd5b9190808060200260200160405190810160405280939291908181526020018383602002808284376000920191909152509295949360208101935035915050600160201b8111156105ea57600080fd5b8201836020820111156105fc57600080fd5b803590602001918460208302840111600160201b8311171561061d57600080fd5b9190808060200260200160405190810160405280939291908181526020018383602002808284376000920191909152509295949360208101935035915050600160201b81111561066c57600080fd5b82018360208201111561067e57600080fd5b803590602001918460208302840111600160201b8311171561069f57600080fd5b9190808060200260200160405190810160405280939291908181526020018383602002808284376000920191909152509295949360208101935035915050600160201b8111156106ee57600080fd5b82018360208201111561070057600080fd5b803590602001918460208302840111600160201b8311171561072157600080fd5b919080806020026020016040519081016040528093929190818152602001838360200280828437600092019190915250929550611361945050505050565b6104b4600480360360a081101561077557600080fd5b81359160208101359160408201359190810190608081016060820135600160201b8111156107a257600080fd5b8201836020820111156107b457600080fd5b803590602001918460208302840111600160201b831117156107d557600080fd5b9190808060200260200160405190810160405280939291908181526020018383602002808284376000920191909152509295949360208101935035915050600160201b81111561082457600080fd5b82018360208201111561083657600080fd5b803590602001918460208302840111600160201b8311171561085757600080fd5b9190808060200260200160405190810160405280939291908181526020018383602002808284376000920191909152509295506114ec945050505050565b61013e600480360360208110156108ab57600080fd5b810190602081018135600160201b8111156108c557600080fd5b8201836020820111156108d757600080fd5b803590602001918460208302840111600160201b831117156108f857600080fd5b9190808060200260200160405190810160405280939291908181526020018383602002808284376000920191909152509295506117a0945050505050565b6104b46004803603604081101561094c57600080fd5b508035906020013561184b565b6109766004803603602081101561096f57600080fd5b503561197c565b604051808581526020018481526020018060200180602001838103835285818151815260200191508051906020019060200280838360005b838110156109c65781810151838201526020016109ae565b50505050905001838103825284818151815260200191508051906020019060200280838360005b83811015610a055781810151838201526020016109ed565b50505050905001965050505050505060405180910390f35b610a3a60048036036020811015610a3357600080fd5b5035611b1b565b604080519485526020850193909352838301919091526060830152519081900360800190f35b61013e60048036036060811015610a7657600080fd5b810190602081018135600160201b811115610a9057600080fd5b820183602082011115610aa257600080fd5b803590602001918460208302840111600160201b83111715610ac357600080fd5b9190808060200260200160405190810160405280939291908181526020018383602002808284376000920191909152509295949360208101935035915050600160201b811115610b1257600080fd5b820183602082011115610b2457600080fd5b803590602001918460208302840111600160201b83111715610b4557600080fd5b9190808060200260200160405190810160405280939291908181526020018383602002808284376000920191909152509295949360208101935035915050600160201b811115610b9457600080fd5b820183602082011115610ba657600080fd5b803590602001918460208302840111600160201b83111715610bc757600080fd5b919080806020026020016040519081016040528093929190818152602001838360200280828437600092019190915250929550611b42945050505050565b61013e60048036036060811015610c1b57600080fd5b5080359060208101359060400135611bd5565b6000546001600160a01b03163314610c775760405162461bcd60e51b8152600401808060200182810382526022815260200180611dc16022913960400191505060405180910390fd5b808210610cb55760405162461bcd60e51b8152600401808060200182810382526024815260200180611efc6024913960400191505060405180910390fd5b600254600090819081908190815b868111610d195787811415610cd6578195505b60018803811415610ce5578193505b86811415610cf1578194505b60018703811415610d00578192505b6000918252600560205260409091205490600101610cc3565b50600087610d425750600280546000848152600560205260409020805490925590819055610d65565b506000838152600560205260408082208054858452919092208054909255908190555b5050506000928352506005602052604080832080549284529220805490925590555050565b60015481565b6000546001600160a01b03163314610de7576040805162461bcd60e51b81526020600482015260156024820152743cb7ba9030b932903737ba103a34329037bbb732b960591b604482015290519081900360640190fd5b8451865114610e275760405162461bcd60e51b8152600401808060200182810382526036815260200180611de36036913960400191505060405180910390fd5b8351855114610e675760405162461bcd60e51b8152600401808060200182810382526036815260200180611f206036913960400191505060405180910390fd5b8151835114610ea75760405162461bcd60e51b815260040180806020018281038252602d815260200180611ecf602d913960400191505060405180910390fd5b8051855114610ee75760405162461bcd60e51b8152600401808060200182810382526036815260200180611e576036913960400191505060405180910390fd5b6000805b8251811015610f1957828181518110610f0057fe5b6020026020010151820191508080600101915050610eeb565b5080845114610f595760405162461bcd60e51b8152600401808060200182810382526042815260200180611e8d6042913960600191505060405180910390fd5b6000606080825b85518110156110ba57858181518110610f7557fe5b6020026020010151604051908082528060200260200182016040528015610fa6578160200160208202803883390190505b509250858181518110610fb557fe5b6020026020010151604051908082528060200260200182016040528015610fe6578160200160208202803883390190505b50915060005b868281518110610ff857fe5b602002602001015181101561106a5788858151811061101357fe5b602002602001015184828151811061102757fe5b60200260200101818152505087858151811061103f57fe5b602002602001015183828151811061105357fe5b602090810291909101015260019485019401610fec565b506110b18b828151811061107a57fe5b60200260200101518b838151811061108e57fe5b60200260200101518b84815181106110a257fe5b602002602001015186866114ec565b50600101610f60565b5050505050505050505050565b600080546001600160a01b031633146111115760405162461bcd60e51b8152600401808060200182810382526022815260200180611dc16022913960400191505060405180910390fd5b611119611d75565b60025460005b8781101561114057600091825260056020526040909120549060010161111f565b50856111af57604080516060810182526000838152600560208181528483206003908101805486528286018c81528688018c8152835460019081018086558852600486529887208851815591519882019890985596516002909701969096555492869052529091559150611253565b600081815260056020526040812060030154905b876001018110156111f257600082815260046020526040902054806111e857506111f2565b91506001016111c3565b5060408051606081018252600083815260046020818152848320805485528185018c81528587018c81526003805460019081018083558852959094529685208651815590519381019390935594516002909201919091555493905291905591505b5050949350505050565b60046020526000908152604090208054600182015460029092015490919083565b60035481565b60025481565b565b600080546001600160a01b031633146112d65760405162461bcd60e51b8152600401808060200182810382526022815260200180611dc16022913960400191505060405180910390fd5b81611311575060028054600090815260056020526040812080548282556001808301849055828501849055600390920192909255915561135c565b60025460005b6001840381101561133b576000918252600560205260409091205490600101611317565b50600081815260056020526040808220805483529082205492909152555060015b919050565b6000546001600160a01b031633146113b8576040805162461bcd60e51b81526020600482015260156024820152743cb7ba9030b932903737ba103a34329037bbb732b960591b604482015290519081900360640190fd5b82518451146113f85760405162461bcd60e51b815260040180806020018281038252603f815260200180611f8f603f913960400191505060405180910390fd5b80518251146114385760405162461bcd60e51b8152600401808060200182810382526039815260200180611f566039913960400191505060405180910390fd5b83518251146114785760405162461bcd60e51b815260040180806020018281038252603e815260200180611e19603e913960400191505060405180910390fd5b60005b84518110156114e5576114dc85828151811061149357fe5b60200260200101518583815181106114a757fe5b60200260200101518584815181106114bb57fe5b60200260200101518585815181106114cf57fe5b60200260200101516110c7565b5060010161147b565b5050505050565b600080546001600160a01b031633146115365760405162461bcd60e51b8152600401808060200182810382526022815260200180611dc16022913960400191505060405180910390fd5b81518351146115765760405162461bcd60e51b8152600401808060200182810382526039815260200180611f566039913960400191505060405180910390fd5b61157e611d75565b6040518060600160405280600081526020018560008151811061159d57fe5b60200260200101518152602001846000815181106115b757fe5b60209081029190910181015190915260038054600190810191829055600091825260048352604091829020845181559284015183820155908301516002909201919091559091505b845181101561168d576040518060600160405280600354815260200186838151811061162757fe5b6020026020010151815260200185838151811061164057fe5b6020908102919091018101519091526003805460019081019182905560009182526004835260409182902084518155928401518382015590830151600290920191909155909250016115ff565b50611696611d99565b876116fb57506040805160808101825260028054825260208083018a81528385018a8152600380546060870190815260018054810180825560009081526005909652979094208651815592518388015590518285015591519101559154909155611795565b60025460015b8981101561172d5760008281526005602052604090205480611723575061172d565b9150600101611701565b5060408051608081018252600083815260056020818152848320805485528185018e81528587018e8152600380546060890190815260018054810180825589529690955297862087518155915182860155516002820155915191909501555493905291905590505b505095945050505050565b80516402540be3ff90600019015b60008112611846578281815181106117c257fe5b602002602001015182116118075760405162461bcd60e51b815260040180806020018281038252602f815260200180611fce602f913960400191505060405180910390fd5b61182383828151811061181657fe5b602002602001015161128c565b5082818151811061183057fe5b60209081029190910101519150600019016117ae565b505050565b600080546001600160a01b031633146118955760405162461bcd60e51b8152600401808060200182810382526022815260200180611dc16022913960400191505060405180910390fd5b60025460005b848110156118bc57600091825260056020526040909120549060010161189b565b50600081815260056020526040902060030154836119135760009081526004602090815260408083208054848255600180830186905560029092018590559484526005909252909120600301919091559050611976565b60005b6001850381101561193a576000918252600460205260409091205490600101611916565b50600090815260046020526040808220805483529082208054909155818155600180820183905560029091019190915580546000190181559150505b92915050565b60025460009081906060908190835b868110156119ac57600091825260056020526040909120549060010161198b565b506119b5611d99565b5060008181526005602090815260408083208151608081018352815481526001820154938101939093526002810154918301919091526003015460608083018290529192829181905b8015611a1e576000908152600460205260409020546001909101906119fe565b81604051908082528060200260200182016040528015611a48578160200160208202803883390190505b50945081604051908082528060200260200182016040528015611a75578160200160208202803883390190505b509350856060015190505b8015611afd576000818152600460205260409020600101548551869085908110611aa657fe5b6020026020010181815250506004600082815260200190815260200160002060020154848481518110611ad557fe5b6020908102919091018101919091526000918252600490526040902054600190920191611a80565b50505060208301516040909301519299929850909650945092505050565b60056020526000908152604090208054600182015460028301546003909301549192909184565b6000805b84518110156114e55760006001848381518110611b5f57fe5b60200260200101510390505b60008112611baf57611ba5868381518110611b8257fe5b60200260200101518683860181518110611b9857fe5b602002602001015161184b565b5060001901611b6b565b50828181518110611bbc57fe5b6020026020010151820191508080600101915050611b46565b6000546001600160a01b03163314611c1e5760405162461bcd60e51b8152600401808060200182810382526022815260200180611dc16022913960400191505060405180910390fd5b808210611c5c5760405162461bcd60e51b8152600401808060200182810382526024815260200180611efc6024913960400191505060405180910390fd5b60025460005b84811015611c83576000918252600560205260409091205490600101611c62565b50600081815260056020526040812060030154819081908190815b878111611cf45788811415611cb1578195505b60018903811415611cc0578193505b87811415611ccc578194505b60018803811415611cdb578192505b6000918252600460205260409091205490600101611c9e565b50600088611d2b57506000868152600560209081526040808320600301805486855260049093529220805490925590819055611d4e565b506000838152600460205260408082208054858452919092208054909255908190555b50505060009283525060046020526040808320805492845292208054909255905550505050565b60405180606001604052806000815260200160008019168152602001600081525090565b6040805160808101825260008082526020820181905291810182905260608101919091529056fe796f7520617265206e6f7420746865206f776e6572206f662074686973206d656e75746865206e756d626572206f66206974656d20696e646578657320616e64206974656d206e616d657320646f206e6f74206d61746368746865206e756d626572206f66206974656d49447320646f6573206e6f74206d6174636820746865206e756d626572206f66206f7074696f6e4e616d6573746865206e756d626572206f66206974656d206e616d657320616e64206f7074696f6e20666c61677320646f206e6f74206d61746368746865206e756d626572206f66206f7074696f6e7320616e64207468652073756d206f6620746865206f7074696f6e20666c61677320646f206e6f74206d61746368746865206e756d626572206f66206f7074696f6e7320616e642070726963657320646f206e6f74206d61746368696e6465782031206d75737420626520736d616c6c6572207468616e20696e6465782032746865206e756d626572206f66206465736372697074696f6e7320616e64206974656d206e616d657320646f206e6f74206d61746368746865206e756d626572206f66206f7074696f6e7320646f6573206e6f74206d6174636820746865206e756d626572206f6620707269636573746865206e756d626572206f66206974656d49647320616e6420696e646578657320746f20696e7365727420617420617265206e6f74207468652073616d65746865206172726179206f66206974656d496473206d75737420626520696e20617373656e64696e67206f72646572a265627a7a72315820fe2145f7a58adbee690c0f788858fae52725a535ed1ad62b06a2de15d210dcd264736f6c634300050c0032",
  "source": "pragma solidity ^0.5.0;\n\n //import \"./lib.sol\";\n import \"./Order.sol\";\n import \"./RestaurantFactory.sol\";\n import \"./CustomerFactory.sol\";\n import \"./Controller.sol\";\n import \"./Menu.sol\";\n\ncontract Restaurant {\n\n    // additional variables to add\n\n\tuint public id;\n\tbytes32 public name; \n\n\tbytes public location; \n    uint public longitude; \n    uint public latitude; \n\n    bytes public logoURI; \n    bytes32 public logoHash; \n\n\n\tbytes32 public contactNumber; \n\n\taddress payable public owner; \n    address public controllerAddress;\n\taddress public restaurantFactoryAddress;\n\n\n    struct order{bool open; address orderAddress;}\n\tuint public totalOrders;\n    // todo: make orders private and accessed via method for only rider and restaurant\n\tmapping(uint => order) public orders; // must be a better way to store the orders\n\n    uint totalPay;\n\t\n    Menu menu;\n\n    enum restaurantState{acceptedOrder, preparingCargo, readyForCollection, HandedOver}\n\t\n    event OrderMadeEvent(address orderAddress);\n    event MenuUpdated();\n\n\tconstructor(address _controller, address payable _owner, \n                uint _id, bytes32 _name, \n                bytes memory _address, uint _latitude, uint _longitude, \n                bytes32 _contactNumber\n                ) public {\n        // itemOptions and prices will have to be parsed as they are 2d arrays\n\t\tid = _id;\n\t\tname = _name;\n\t\t\n        location = _address;\n        latitude = _latitude;\n        longitude = _longitude;\n\n\t\tcontactNumber = _contactNumber;\n\t\ttotalOrders = 0;\n        totalPay = 0;\n\n        controllerAddress = _controller;\n\t\towner = _owner;\n\t\trestaurantFactoryAddress = msg.sender;\n\n        menu = new Menu();\n\t}\n\n    function getMenuAddress() public view returns (address) {\n        return address(menu);\n    }\n\n\n    function updateLogo(bytes calldata imageURI, bytes32 imageHash) external{\n        require(msg.sender == owner);\n        logoURI = imageURI;\n        logoHash = imageHash;\n    }\n    \n    // menuIndex\n    // itemType\n    // uint new prices\n    // byte32 new text\n\n\n\n    // // todo: fix this\n    // function getOrderPrice(uint[] memory itemIds) public view returns (uint){\n    //     uint price = 0;\n    //     for(uint i = 0; i < itemIds.length; i++){\n    //         price += menu[itemIds[i]].optionsCost[0];\n    //     }\n    //     return price;\n    // }\n    \n\n  //   function makeOrder(uint[] calldata itemIds, uint deliveryFee, bytes32 riderKeyHash) external payable returns (address orderAddress) {\n  //       //require this comes from a customer smart contract, maybe worth moving this to the order smart contract\n  //       require(CustomerFactory(Controller(controllerAddress).customerFactoryAddress()).customerExists(msg.sender), \"Customer doesnt exist\");\n\n  //       uint[] memory prices = new uint[](itemIds.length);\n  //       bytes32[] memory items = new bytes32[](itemIds.length);\n  //       for(uint i = 0; i < itemIds.length; i++)\n  //       {\n  //           if (itemIds[i] >= 0 && itemIds[i] < menuLength){\n  //               // could consider sending itemID and price to reduce gas cost\n  //               items[i] = menu[uint(itemIds[i])].itemName; \n  //               prices[i] = menu[uint(itemIds[i])].optionsCost[0];\n  //           }\n  //           else{\n  //               revert(\"Invalid Items\");\n  //           }\n  //       }\n        \n\t\t// Order newOrder = (new Order).value(msg.value)(totalOrders,items,prices,deliveryFee, controllerAddress, msg.sender, riderKeyHash);\n\t\t// orders[totalOrders] = order(true,address(newOrder));\n  //       totalOrders ++;\n\n  //       emit OrderMadeEvent(orders[totalOrders - 1].orderAddress);\n\n\t\t// return orders[totalOrders - 1].orderAddress;       \n  //   }\n\n    function setStatus(address orderAddress, uint status) public{\n        require(msg.sender == owner, \"you are not the owner\");\n        Order(orderAddress).setOrderStatus(status);\n    }\n\n    function pay() external payable {\n        totalPay += msg.value;\n        owner.transfer(msg.value);\n    } \n\n    function() external payable {\n\n    }\n\n\n    // Setters\n    function updateRestaurant(bytes32 _name, bytes32 _number, address payable _owner, bytes memory _location, uint _latitude, uint _longitude, bytes memory _logoURI, bytes32 _logoHash) public {\n        require(msg.sender == owner);\n        if(_name.length > 0 )\n            setName(_name);\n        if(_number.length > 0 )\n            setNumber(_number);\n        if(_owner != address(0))\n            setOwner(_owner);\n        if(_location.length > 0)\n            setLocation(_location, _latitude, _longitude);\n        if(_logoURI.length > 0)\n            setName(_name);\n    }\n    function setName(bytes32 _name) public {\n        require(msg.sender == owner);\n        name = _name;\n    }\n    function setNumber(bytes32 _number) public {\n        require(msg.sender == owner);\n        contactNumber = _number;\n    }\n    function setOwner(address payable _owner) public {\n        require(msg.sender == owner);\n        owner = _owner;\n    }\n    function setLocation(bytes memory _location, uint _latitude, uint _longitude) public {\n        require(msg.sender == owner);\n        location = _location;\n        latitude - _latitude;\n        longitude = _longitude;\n    }\n    function setLogo(bytes memory _logoURI, bytes32 _logoHash) public {\n        require(msg.sender == owner);\n        logoURI = _logoURI;\n        logoHash = _logoHash;\n    }\n}",
  "sourcePath": "/home/george/Documents/WorkSpace/TryAByte/contracts/Restaurant.sol",
  "compiler": {
    "name": "solc",
    "version": "0.5.12+commit.7709ece9.Emscripten.clang"
  },
  "schemaVersion": "3.0.19",
  "updatedAt": "2019-12-11T07:41:27.793Z",
  "networkType": "ethereum",
  "devdoc": {
    "methods": {}
  },
  "userdoc": {
    "methods": {}
  }
}