{
  "contractName": "RestaurantFactory",
  "abi": [
    {
      "inputs": [
        {
          "internalType": "address",
          "name": "_controller",
          "type": "address"
        }
      ],
      "payable": false,
      "stateMutability": "nonpayable",
      "type": "constructor"
    },
    {
      "anonymous": false,
      "inputs": [
        {
          "indexed": true,
          "internalType": "address",
          "name": "restaurantAddress",
          "type": "address"
        },
        {
          "indexed": true,
          "internalType": "address",
          "name": "createrAddress",
          "type": "address"
        }
      ],
      "name": "RestaurantMade",
      "type": "event"
    },
    {
      "constant": true,
      "inputs": [],
      "name": "owner",
      "outputs": [
        {
          "internalType": "address",
          "name": "",
          "type": "address"
        }
      ],
      "payable": false,
      "stateMutability": "view",
      "type": "function"
    },
    {
      "constant": true,
      "inputs": [],
      "name": "restaurantCount",
      "outputs": [
        {
          "internalType": "uint256",
          "name": "",
          "type": "uint256"
        }
      ],
      "payable": false,
      "stateMutability": "view",
      "type": "function"
    },
    {
      "constant": true,
      "inputs": [
        {
          "internalType": "uint256",
          "name": "",
          "type": "uint256"
        }
      ],
      "name": "restaurants0",
      "outputs": [
        {
          "internalType": "address",
          "name": "",
          "type": "address"
        }
      ],
      "payable": false,
      "stateMutability": "view",
      "type": "function"
    },
    {
      "constant": true,
      "inputs": [
        {
          "internalType": "address",
          "name": "",
          "type": "address"
        }
      ],
      "name": "restaurants1",
      "outputs": [
        {
          "internalType": "address",
          "name": "",
          "type": "address"
        }
      ],
      "payable": false,
      "stateMutability": "view",
      "type": "function"
    },
    {
      "constant": true,
      "inputs": [
        {
          "internalType": "address",
          "name": "",
          "type": "address"
        }
      ],
      "name": "restaurants2",
      "outputs": [
        {
          "internalType": "address",
          "name": "",
          "type": "address"
        }
      ],
      "payable": false,
      "stateMutability": "view",
      "type": "function"
    },
    {
      "constant": false,
      "inputs": [
        {
          "internalType": "bytes32",
          "name": "name",
          "type": "bytes32"
        },
        {
          "internalType": "bytes",
          "name": "_address",
          "type": "bytes"
        },
        {
          "internalType": "uint256",
          "name": "latitude",
          "type": "uint256"
        },
        {
          "internalType": "uint256",
          "name": "longitude",
          "type": "uint256"
        },
        {
          "internalType": "bytes32",
          "name": "contactNumber",
          "type": "bytes32"
        }
      ],
      "name": "createRestaurant",
      "outputs": [
        {
          "internalType": "address",
          "name": "newRestaurant",
          "type": "address"
        }
      ],
      "payable": false,
      "stateMutability": "nonpayable",
      "type": "function"
    },
    {
      "constant": true,
      "inputs": [
        {
          "internalType": "address",
          "name": "restaurant",
          "type": "address"
        }
      ],
      "name": "restaurantExists",
      "outputs": [
        {
          "internalType": "bool",
          "name": "RestaurantExists",
          "type": "bool"
        }
      ],
      "payable": false,
      "stateMutability": "view",
      "type": "function"
    },
    {
      "constant": false,
      "inputs": [],
      "name": "reset",
      "outputs": [],
      "payable": false,
      "stateMutability": "nonpayable",
      "type": "function"
    }
  ],
  "bytecode": "0x608060405234801561001057600080fd5b506040516159703803806159708339818101604052602081101561003357600080fd5b5051600080546001600160a01b031990811633178255600180546001600160a01b0390941693909116929092179091556005556158fb806100756000396000f3fe608060405234801561001057600080fd5b50600436106100885760003560e01c8063aec8d1291161005b578063aec8d12914610194578063b11b91e6146101b1578063d826f88f146101cb578063ff9e9180146101d557610088565b806305862d9c1461008d5780635edba101146100cf57806379a4fa27146101525780638da5cb5b1461018c575b600080fd5b6100b3600480360360208110156100a357600080fd5b50356001600160a01b03166101fb565b604080516001600160a01b039092168252519081900360200190f35b6100b3600480360360a08110156100e557600080fd5b8135919081019060408101602082013564010000000081111561010757600080fd5b82018360208201111561011957600080fd5b8035906020019184600183028401116401000000008311171561013b57600080fd5b919350915080359060208101359060400135610216565b6101786004803603602081101561016857600080fd5b50356001600160a01b0316610413565b604080519115158252519081900360200190f35b6100b3610446565b6100b3600480360360208110156101aa57600080fd5b5035610455565b6101b9610470565b60408051918252519081900360200190f35b6101d3610476565b005b6100b3600480360360208110156101eb57600080fd5b50356001600160a01b03166104fa565b6004602052600090815260409020546001600160a01b031681565b336000908152600460205260408120546001600160a01b03161561026b5760405162461bcd60e51b815260040180806020018281038252603881526020018061588f6038913960400191505060405180910390fd5b846102bd576040805162461bcd60e51b815260206004820152601860248201527f616464726573732063616e206e6f7420626520656d7074790000000000000000604482015290519081900360640190fd5b6000600160009054906101000a90046001600160a01b0316336005548a8a8a8a8a8a6040516102eb90610515565b6001600160a01b03808b16825289166020820152604081018890526060810187905260a0810184905260c0810183905260e081018290526101006080820181815290820186905261012082018787808284376000838201819052604051601f909201601f19169093018190039d509b50909950505050505050505050f08015801561037a573d6000803e3d6000fd5b5060058054600090815260026020908152604080832080546001600160a01b0387166001600160a01b03199182168117909255855460010190955580845260038352818420805486163390811790915580855260049093528184208054909516811790945551939450927f47bcb4bfe6e002cf710026ee259111d9a6eddd9a54b0d6337df367dc87aa6a699190a3979650505050505050565b6001600160a01b038181166000908152600360205260408120549091161561043d57506001610441565b5060005b919050565b6000546001600160a01b031681565b6002602052600090815260409020546001600160a01b031681565b60055481565b6001546001600160a01b0316331461048d57600080fd5b60005b6005548110156104f757600081815260026020908152604080832080546001600160a01b0380821686526003855283862080546001600160a01b03199384169094558054831690559190911684526004909252822080549091169055600555600101610490565b50565b6003602052600090815260409020546001600160a01b031681565b61536c806105238339019056fe60806040523480156200001157600080fd5b506040516200536c3803806200536c83398181016040526101008110156200003857600080fd5b81516020830151604080850151606086015160808701805193519597949692959194919392820192846401000000008211156200007457600080fd5b9083019060208201858111156200008a57600080fd5b8251640100000000811182820188101715620000a557600080fd5b82525081516020918201929091019080838360005b83811015620000d4578181015183820152602001620000ba565b50505050905090810190601f168015620001025780820380516001836020036101000a031916815260200191505b506040908152602082810151918301516060909301516000899055600188905586519295509293506200013b91600291870190620001fe565b506004839055600382905560078190556000600b819055600d55600980546001600160a01b03808b166001600160a01b03199283161790925560088054928a1692821692909217909155600a8054909116331790556040518790620001a09062000283565b6001600160a01b03909116815260405190819003602001906000f080158015620001ce573d6000803e3d6000fd5b50600e80546001600160a01b0319166001600160a01b039290921691909117905550620002b19650505050505050565b828054600181600116156101000203166002900490600052602060002090601f016020900481019282601f106200024157805160ff191683800117855562000271565b8280016001018555821562000271579182015b828111156200027157825182559160200191906001019062000254565b506200027f92915062000291565b5090565b6128428062002b2a83390190565b620002ae91905b808211156200027f576000815560010162000298565b90565b61286980620002c16000396000f3fe6080604052600436106200016a5760003560e01c80636bb38b2811620000c7578063af640d0f1162000079578063af640d0f1462000684578063b21dc38a146200069c578063c1f0f00d1462000753578063de48cbd1146200080d578063df7be1ca1462000896578063f1d4b2c514620008ae576200016a565b80636bb38b2814620003fe57806376af633c14620004165780637e29b003146200042e5780638da5cb5b1462000599578063a64f207a14620005b1578063a85c38ef1462000633576200016a565b80634fd7d76a11620001215780634fd7d76a146200023b578063516f279e14620002535780635863bebe14620002e3578063589af69c14620003a05780635ac801fe14620003b857806368db65a414620003e6576200016a565b806301751d41146200016c57806306fdde0314620001a057806313af403514620001ca5780631b9265b814620002015780631d834409146200020b5780634b24ea471462000223575b005b3480156200017957600080fd5b5062000184620008dc565b604080516001600160a01b039092168252519081900360200190f35b348015620001ad57600080fd5b50620001b8620008ec565b60408051918252519081900360200190f35b348015620001d757600080fd5b506200016a60048036036020811015620001f057600080fd5b50356001600160a01b0316620008f2565b6200016a6200092c565b3480156200021857600080fd5b50620001b862000973565b3480156200023057600080fd5b506200018462000979565b3480156200024857600080fd5b50620001b862000988565b3480156200026057600080fd5b506200026b6200098e565b6040805160208082528351818301528351919283929083019185019080838360005b83811015620002a75781810151838201526020016200028d565b50505050905090810190601f168015620002d55780820380516001836020036101000a031916815260200191505b509250505060405180910390f35b348015620002f057600080fd5b506200016a600480360360608110156200030957600080fd5b810190602081018135600160201b8111156200032457600080fd5b8201836020820111156200033757600080fd5b803590602001918460018302840111600160201b831117156200035957600080fd5b91908080601f016020809104026020016040519081016040528093929190818152602001838380828437600092019190915250929550508235935050506020013562000a1d565b348015620003ad57600080fd5b50620001b862000a52565b348015620003c557600080fd5b506200016a60048036036020811015620003de57600080fd5b503562000a58565b348015620003f357600080fd5b506200018462000a75565b3480156200040b57600080fd5b506200026b62000a84565b3480156200042357600080fd5b50620001b862000ae2565b3480156200043b57600080fd5b506200016a60048036036101008110156200045557600080fd5b8135916020810135916001600160a01b036040830135169190810190608081016060820135600160201b8111156200048c57600080fd5b8201836020820111156200049f57600080fd5b803590602001918460018302840111600160201b83111715620004c157600080fd5b91908080601f0160208091040260200160405190810160405280939291908181526020018383808284376000920191909152509295843595602086013595919450925060608101915060400135600160201b8111156200052057600080fd5b8201836020820111156200053357600080fd5b803590602001918460018302840111600160201b831117156200055557600080fd5b91908080601f016020809104026020016040519081016040528093929190818152602001838380828437600092019190915250929550509135925062000ae8915050565b348015620005a657600080fd5b506200018462000b63565b348015620005be57600080fd5b506200016a60048036036040811015620005d757600080fd5b810190602081018135600160201b811115620005f257600080fd5b8201836020820111156200060557600080fd5b803590602001918460018302840111600160201b831117156200062757600080fd5b91935091503562000b72565b3480156200064057600080fd5b5062000661600480360360208110156200065957600080fd5b503562000ba0565b6040805192151583526001600160a01b0390911660208301528051918290030190f35b3480156200069157600080fd5b50620001b862000bc5565b348015620006a957600080fd5b50620001b860048036036040811015620006c257600080fd5b810190602081018135600160201b811115620006dd57600080fd5b820183602082011115620006f057600080fd5b803590602001918460208302840111600160201b831117156200071257600080fd5b919080806020026020016040519081016040528093929190818152602001838360200280828437600092019190915250929550509135925062000bcb915050565b3480156200076057600080fd5b506200016a600480360360408110156200077957600080fd5b810190602081018135600160201b8111156200079457600080fd5b820183602082011115620007a757600080fd5b803590602001918460018302840111600160201b83111715620007c957600080fd5b91908080601f016020809104026020016040519081016040528093929190818152602001838380828437600092019190915250929550509135925062000c93915050565b62000184600480360360808110156200082557600080fd5b810190602081018135600160201b8111156200084057600080fd5b8201836020820111156200085357600080fd5b803590602001918460208302840111600160201b831117156200087557600080fd5b9193509150803590602081013590604001356001600160a01b031662000cc7565b348015620008a357600080fd5b50620001b8620010b4565b348015620008bb57600080fd5b506200016a60048036036020811015620008d457600080fd5b5035620010ba565b600e546001600160a01b03165b90565b60015481565b6008546001600160a01b031633146200090a57600080fd5b600880546001600160a01b0319166001600160a01b0392909216919091179055565b600d8054349081019091556008546040516001600160a01b039091169180156108fc02916000818181858888f1935050505015801562000970573d6000803e3d6000fd5b50565b600b5481565b6009546001600160a01b031681565b60045481565b6002805460408051602060018416156101000260001901909316849004601f8101849004840282018401909252818152929183018282801562000a155780601f10620009e95761010080835404028352916020019162000a15565b820191906000526020600020905b815481529060010190602001808311620009f757829003601f168201915b505050505081565b6008546001600160a01b0316331462000a3557600080fd5b825162000a4a906002906020860190620010d7565b506003555050565b60035481565b6008546001600160a01b0316331462000a7057600080fd5b600155565b600a546001600160a01b031681565b6005805460408051602060026001851615610100026000190190941693909304601f8101849004840282018401909252818152929183018282801562000a155780601f10620009e95761010080835404028352916020019162000a15565b60075481565b6008546001600160a01b0316331462000b0057600080fd5b62000b0b8862000a58565b62000b1687620010ba565b6001600160a01b0386161562000b315762000b3186620008f2565b84511562000b465762000b4685858562000a1d565b81511562000b595762000b598862000a58565b5050505050505050565b6008546001600160a01b031681565b6008546001600160a01b0316331462000b8a57600080fd5b62000b98600584846200115c565b506006555050565b600c6020526000908152604090205460ff81169061010090046001600160a01b031682565b60005481565b600e546040805163590ee1c560e11b815260248101849052600481019182528451604482015284516000936001600160a01b03169263b21dc38a9287928792918291606490910190602080870191028083838c5b8381101562000c3957818101518382015260200162000c1f565b50505050905001935050505060206040518083038186803b15801562000c5e57600080fd5b505afa15801562000c73573d6000803e3d6000fd5b505050506040513d602081101562000c8a57600080fd5b50519392505050565b6008546001600160a01b0316331462000cab57600080fd5b815162000cc0906005906020850190620010d7565b5060065550565b60095460408051631915796b60e21b815290516000926001600160a01b031691636455e5ac916004808301926020929190829003018186803b15801562000d0d57600080fd5b505afa15801562000d22573d6000803e3d6000fd5b505050506040513d602081101562000d3957600080fd5b505160408051630d13601360e31b815233600482015290516001600160a01b039092169163689b009891602480820192602092909190829003018186803b15801562000d8457600080fd5b505afa15801562000d99573d6000803e3d6000fd5b505050506040513d602081101562000db057600080fd5b505162000dfc576040805162461bcd60e51b815260206004820152601560248201527410dd5cdd1bdb595c88191bd95cdb9d08195e1a5cdd605a1b604482015290519081900360640190fd5b6060868680806020026020016040519081016040528093929190818152602001838360200280828437600092019190915250506040805160038082526080820190925293945060609392509050602082018380388339505060085482519293506001600160a01b03169183915060009062000e7357fe5b60200260200101906001600160a01b031690816001600160a01b031681525050338160018151811062000ea257fe5b60200260200101906001600160a01b031690816001600160a01b031681525050838160028151811062000ed157fe5b60200260200101906001600160a01b031690816001600160a01b0316815250506000348388600960009054906101000a90046001600160a01b0316858a60405162000f1c90620011cf565b60208082018690526001600160a01b03851660408301526080820183905260a080835287519083015286518291606083019160c08401918a8101910280838360005b8381101562000f7857818101518382015260200162000f5e565b50505050905001838103825285818151815260200191508051906020019060200280838360005b8381101562000fb957818101518382015260200162000f9f565b505050509050019750505050505050506040518091039082f08015801562000fe5573d6000803e3d6000fd5b5060408051808201825260018082526001600160a01b038481166020808501918252600b80546000908152600c835287812096518754945160ff1990951690151517610100600160a81b031916610100948616850217909655805494850190559284529284902054845193900416825291519294507f6ad6ccf0214624cc1ab014b24a7601698f45e6a0d07edcbab143606784ed78fb93508290030190a15050600b54600019016000908152600c602052604090205461010090046001600160a01b0316979650505050505050565b60065481565b6008546001600160a01b03163314620010d257600080fd5b600755565b828054600181600116156101000203166002900490600052602060002090601f016020900481019282601f106200111a57805160ff19168380011785556200114a565b828001600101855582156200114a579182015b828111156200114a5782518255916020019190600101906200112d565b5062001158929150620011dd565b5090565b828054600181600116156101000203166002900490600052602060002090601f016020900481019282601f106200119f5782800160ff198235161785556200114a565b828001600101855582156200114a579182015b828111156200114a578235825591602001919060010190620011b2565b61163a80620011fb83390190565b620008e991905b80821115620011585760008155600101620011e456fe608060408190526007805461ffff191690556012805460ff199081169091556014805490911690556200163a38819003908190833981810160405260a08110156200004957600080fd5b81019080805160405193929190846401000000008211156200006a57600080fd5b9083019060208201858111156200008057600080fd5b82518660208202830111640100000000821117156200009e57600080fd5b82525081516020918201928201910280838360005b83811015620000cd578181015183820152602001620000b3565b5050505091909101604081815260208401519084015160609094018051919694959294935090846401000000008211156200010757600080fd5b9083019060208201858111156200011d57600080fd5b82518660208202830111640100000000821117156200013b57600080fd5b82525081516020918201928201910280838360005b838110156200016a57818101518382015260200162000150565b5050505090500160405260200180519060200190929190505050826001600160a01b03166368db65a46040518163ffffffff1660e01b815260040160206040518083038186803b158015620001be57600080fd5b505afa158015620001d3573d6000803e3d6000fd5b505050506040513d6020811015620001ea57600080fd5b5051604080517f79a4fa2700000000000000000000000000000000000000000000000000000000815233600482015290516001600160a01b03909216916379a4fa2791602480820192602092909190829003018186803b1580156200024e57600080fd5b505afa15801562000263573d6000803e3d6000fd5b505050506040513d60208110156200027a57600080fd5b5051620002d3576040517f08c379a000000000000000000000000000000000000000000000000000000000815260040180806020018281038252603d815260200180620015fd603d913960400191505060405180910390fd5b84600181518110620002e157fe5b602002602001015160108190555084600081518110620002fd57fe5b6020026020010151600f81905550601054600f54013410156200036c576040517f08c379a0000000000000000000000000000000000000000000000000000000008152600401808060200182810382526022815260200180620015db6022913960400191505060405180910390fd5b601584905560006200037d620005e4565b60005b86811015620004d2576040518060600160405280898360020181518110620003a457fe5b602002602001015181526020018989840160020181518110620003c357fe5b602002602001015181526020018989600202840160020181518110620003e557fe5b602002602001015160405190808252806020026020018201604052801562000417578160200160208202803883390190505b509052915060005b88886002028301600201815181106200043457fe5b60200260200101518110156200048a5788886003028501600201815181106200045957fe5b6020026020010151836040015182815181106200047257fe5b6020908102919091010152600193840193016200041f565b5060008181526016602090815260409182902084518155818501516001820155918401518051859392620004c692600285019291019062000605565b50505060010162000380565b506007805462010000600160b01b03191633620100000217905583518490600090620004fa57fe5b6020026020010151600a60006101000a8154816001600160a01b0302191690836001600160a01b03160217905550836001815181106200053657fe5b6020026020010151600960006101000a8154816001600160a01b0302191690836001600160a01b03160217905550836002815181106200057257fe5b6020908102919091010151600c80546001600160a01b03199081166001600160a01b039384161790915542600e55600d80549091169187169190911790556001600255600080908155600190815560119390935550506012805460ff1916909117905550504260035550620006759050565b60405180606001604052806000815260200160008152602001606081525090565b82805482825590600052602060002090810192821562000643579160200282015b828111156200064357825182559160200191906001019062000626565b506200065192915062000655565b5090565b6200067291905b808211156200065157600081556001016200065c565b90565b610f5680620006856000396000f3fe6080604052600436106101d85760003560e01c806390c021a311610102578063d638e10211610095578063e9132c4211610064578063e9132c4214610553578063ed16805814610570578063f3cc0f1f14610585578063fc6f78a01461059a576101d8565b8063d638e10214610473578063d8270dce14610488578063db7575f01461049d578063ddd0ebe8146104c7576101d8565b8063af640d0f116100d1578063af640d0f146103f1578063bd3e19d414610406578063bfb231d21461041b578063d601e1141461045e576101d8565b806390c021a31461036f578063997907331461039d5780639e8464f1146103b2578063a14b7e68146103dc576101d8565b80633e5cfa271161017a578063646e077f11610149578063646e077f1461031b5780637aada134146103305780637e6308141461034557806389c64e671461035a576101d8565b80633e5cfa27146102b357806340571abb146102c857806345fe5a83146102f157806353c0a00614610306576101d8565b806332940816116101b6578063329408161461024a5780633cc949081461025f5780633cf5040a146102745780633e3ca4d31461029e576101d8565b806312065fe0146101dd5780632799276d146102045780632804b2c014610219575b600080fd5b3480156101e957600080fd5b506101f26105af565b60408051918252519081900360200190f35b34801561021057600080fd5b506101f26105b4565b34801561022557600080fd5b5061022e6105ba565b604080516001600160a01b039092168252519081900360200190f35b34801561025657600080fd5b506101f26105c9565b34801561026b57600080fd5b506101f26105cf565b34801561028057600080fd5b506101f26004803603602081101561029757600080fd5b50356105d5565b3480156102aa57600080fd5b506101f26105f9565b3480156102bf57600080fd5b5061022e6105ff565b3480156102d457600080fd5b506102dd61060e565b604080519115158252519081900360200190f35b3480156102fd57600080fd5b506101f261061c565b34801561031257600080fd5b5061022e610622565b34801561032757600080fd5b506102dd610631565b34801561033c57600080fd5b506101f261063a565b34801561035157600080fd5b5061022e610640565b34801561036657600080fd5b506101f261064f565b61039b6004803603604081101561038557600080fd5b506001600160a01b038135169060200135610655565b005b3480156103a957600080fd5b5061022e61086f565b3480156103be57600080fd5b506102dd600480360360208110156103d557600080fd5b503561087e565b3480156103e857600080fd5b506101f2610956565b3480156103fd57600080fd5b506101f261095c565b34801561041257600080fd5b506101f2610962565b34801561042757600080fd5b506104456004803603602081101561043e57600080fd5b5035610968565b6040805192835260208301919091528051918290030190f35b34801561046a57600080fd5b506102dd610981565b34801561047f57600080fd5b506102dd61098a565b34801561049457600080fd5b506101f2610993565b3480156104a957600080fd5b506102dd600480360360208110156104c057600080fd5b5035610999565b3480156104d357600080fd5b506104f1600480360360208110156104ea57600080fd5b5035610a70565b6040518084815260200183815260200180602001828103825283818151815260200191508051906020019060200280838360005b8381101561053d578181015183820152602001610525565b5050505090500194505050505060405180910390f35b61039b6004803603602081101561056957600080fd5b5035610bab565b34801561057c57600080fd5b5061022e610cdf565b34801561059157600080fd5b506101f2610cf4565b3480156105a657600080fd5b506101f2610cfa565b303190565b60155481565b6009546001600160a01b031681565b60015481565b60135481565b60408051602080820193909352815180820384018152908201909152805191012090565b60005481565b600a546001600160a01b031681565b600754610100900460ff1681565b60055481565b6008546001600160a01b031681565b60125460ff1681565b600e5481565b600c546001600160a01b031681565b60045481565b600054156106945760405162461bcd60e51b815260040180806020018281038252602a815260200180610ea4602a913960400191505060405180910390fd5b600d60009054906101000a90046001600160a01b03166001600160a01b031663c9286d576040518163ffffffff1660e01b815260040160206040518083038186803b1580156106e257600080fd5b505afa1580156106f6573d6000803e3d6000fd5b505050506040513d602081101561070c57600080fd5b505160408051630139526760e41b815233600482015290516001600160a01b0390921691631395267091602480820192602092909190829003018186803b15801561075657600080fd5b505afa15801561076a573d6000803e3d6000fd5b505050506040513d602081101561078057600080fd5b50516107bd5760405162461bcd60e51b8152600401808060200182810382526029815260200180610ef96029913960400191505060405180910390fd5b600f54341015610814576040805162461bcd60e51b815260206004820152601e60248201527f746865206465706f7369742073656e74206973206e6f7420656e6f7567680000604482015290519081900360640190fd5b60016000908155600b80546001600160a01b0385166001600160a01b031991821617909155600880549091163317905560138290556014805460ff19166001179055604051600080516020610e348339815191529190a15050565b600b546001600160a01b031681565b60145460009060ff1615156001146108d3576040805162461bcd60e51b8152602060048201526013602482015272139bc81ad95e481a185cc81899595b881cd95d606a1b604482015290519081900360640190fd5b6013546108df836105d5565b14610921576040805162461bcd60e51b815260206004820152600d60248201526c496e636f7272656374204b657960981b604482015290519081900360640190fd5b610929610d00565b60036001556002600090815542600455604051600080516020610e348339815191529190a1506001919050565b60025481565b60065481565b600f5490565b6016602052600090815260409020805460019091015482565b60075460ff1681565b60145460ff1681565b60035481565b60125460009060ff1615156001146109ee576040805162461bcd60e51b8152602060048201526013602482015272139bc81ad95e481a185cc81899595b881cd95d606a1b604482015290519081900360640190fd5b6011546109fa836105d5565b14610a3c576040805162461bcd60e51b815260206004820152600d60248201526c496e636f7272656374204b657960981b604482015290519081900360640190fd5b610a44610d98565b60036000556002805542600555604051600080516020610e3483398151915290600090a1506001919050565b60095460009081906060906001600160a01b0316331480610aa157506007546201000090046001600160a01b031633145b80610ab657506008546001600160a01b031633145b80610acb5750600c546001600160a01b031633145b80610ae05750600a546001600160a01b031633145b80610af55750600b546001600160a01b031633145b610b305760405162461bcd60e51b815260040180806020018281038252602b815260200180610ece602b913960400191505060405180910390fd5b6000848152601660209081526040918290208054600182015460029092018054855181860281018601909652808652919492939092918391830182828015610b9757602002820191906000526020600020905b815481526020019060010190808311610b83575b505050505090509250925092509193909250565b6007546201000090046001600160a01b0316331480610bd45750600a546001600160a01b031633145b610c0f5760405162461bcd60e51b8152600401808060200182810382526050815260200180610e546050913960600191505060405180910390fd5b6001548111610c65576040805162461bcd60e51b815260206004820152601c60248201527f7374617475732063616e6e6f74206265206261636b747261636b656400000000604482015290519081900360640190fd5b60038111158015610c765750600081115b610cc0576040805162461bcd60e51b815260206004820152601660248201527519da5d995b8814dd185d1d5cc81b9bdd081d985b1a5960521b604482015290519081900360640190fd5b6001819055604051600080516020610e3483398151915290600090a150565b6007546201000090046001600160a01b031681565b60105481565b60115481565b600760029054906101000a90046001600160a01b03166001600160a01b0316631b9265b8600f546040518263ffffffff1660e01b81526004016000604051808303818588803b158015610d5257600080fd5b505af1158015610d66573d6000803e3d6000fd5b50506007805460ff19166001908117909155600490555050604051600080516020610e348339815191529150600090a1565b600860009054906101000a90046001600160a01b03166001600160a01b0316631b9265b8601054600f54016040518263ffffffff1660e01b81526004016000604051808303818588803b158015610dee57600080fd5b505af1158015610e02573d6000803e3d6000fd5b50506007805461ff001916610100179055505060036000908155604051600080516020610e348339815191529250a156feac854101ed2841c4fe7b3c5bfc4f3e58ddac515e8dd58f1bd9cf7856f1cc6e7f596f7520646f6e742068617665207065726d697373696f6e20746f207365652074686973206f726465722c2064696420796f752067657420746865206f7264657220616464726573732077726f6e673f74686973206f7264657220616c6c7265616479206861732064656c6976657279206f7267616e69736564796f7520646f6e742068617665207065726d697373696f6e20746f20766965772074686973206f726465726d7573742062652063616c6c656420766961206120726964657220736d61727420636f6e7472616374a265627a7a7231582026d2ae5f1912521c2ea8f94298db3fbd04126259e8c4bb750bc95f91311d058664736f6c634300050c00326e6f7420656e6f7567682065746865722073656e7420746f20746865206f72646572617474656d7074656420746f206d616b65206f726465722066726f6d20616464726573732074686174206973206e6f7420612072657374617572616e74a265627a7a72315820087011d94dae77c86e7e4e4f6ed08c8b5fe8a4ac7014b6c96601fc050cc8d02a64736f6c634300050c0032608060405234801561001057600080fd5b506040516128423803806128428339818101604052602081101561003357600080fd5b5051600080546001600160a01b039092166001600160a01b0319909216919091179055600160038190556004556127d38061006f6000396000f3fe608060405234801561001057600080fd5b50600436106101a95760003560e01c80638fb0f14c116100f9578063c1c4d10211610097578063e40c8a3211610071578063e40c8a32146110e7578063e4d8a2a61461128c578063e8405154146112b5578063f0439f711461145a576101a9565b8063c1c4d10214610e99578063ca497d5c14610ea1578063d1005e3914610f42576101a9565b8063aff92011116100d3578063aff9201114610b6a578063b0e7722b14610b8d578063b21dc38a14610d32578063bae78d7b14610dd5576101a9565b80638fb0f14c1461099e578063a27b34f214610a3f578063a6bd92e314610a47576101a9565b806325b5c4f91161016657806364f2eacd1161014057806364f2eacd146105c05780638374ad34146107fb578063893bb0bf1461095d5780638da5cb5b1461097a576101a9565b806325b5c4f9146103f45780633b1180bb146105175780636287dcc61461051f576101a9565b80630545ba29146101ae5780630b9a02c5146101d3578063125ba977146102025780631ce5e9a61461020a5780631e516e05146102475780631f7b6d32146103ec575b600080fd5b6101d1600480360360408110156101c457600080fd5b5080359060200135611488565b005b6101f0600480360360208110156101e957600080fd5b503561154d565b60408051918252519081900360200190f35b6101f06115db565b6102276004803603602081101561022057600080fd5b5035611660565b604080519384526020840192909252151582820152519081900360600190f35b6101d16004803603606081101561025d57600080fd5b810190602081018135600160201b81111561027757600080fd5b82018360208201111561028957600080fd5b803590602001918460208302840111600160201b831117156102aa57600080fd5b9190808060200260200160405190810160405280939291908181526020018383602002808284376000920191909152509295949360208101935035915050600160201b8111156102f957600080fd5b82018360208201111561030b57600080fd5b803590602001918460208302840111600160201b8311171561032c57600080fd5b9190808060200260200160405190810160405280939291908181526020018383602002808284376000920191909152509295949360208101935035915050600160201b81111561037b57600080fd5b82018360208201111561038d57600080fd5b803590602001918460208302840111600160201b831117156103ae57600080fd5b919080806020026020016040519081016040528093929190818152602001838360200280828437600092019190915250929550611685945050505050565b6101f06117dd565b6101d16004803603604081101561040a57600080fd5b810190602081018135600160201b81111561042457600080fd5b82018360208201111561043657600080fd5b803590602001918460208302840111600160201b8311171561045757600080fd5b9190808060200260200160405190810160405280939291908181526020018383602002808284376000920191909152509295949360208101935035915050600160201b8111156104a657600080fd5b8201836020820111156104b857600080fd5b803590602001918460208302840111600160201b831117156104d957600080fd5b9190808060200260200160405190810160405280939291908181526020018383602002808284376000920191909152509295506117e3945050505050565b6101f06118d8565b6101d16004803603602081101561053557600080fd5b810190602081018135600160201b81111561054f57600080fd5b82018360208201111561056157600080fd5b803590602001918460208302840111600160201b8311171561058257600080fd5b9190808060200260200160405190810160405280939291908181526020018383602002808284376000920191909152509295506118de945050505050565b6107e7600480360360808110156105d657600080fd5b810190602081018135600160201b8111156105f057600080fd5b82018360208201111561060257600080fd5b803590602001918460208302840111600160201b8311171561062357600080fd5b9190808060200260200160405190810160405280939291908181526020018383602002808284376000920191909152509295949360208101935035915050600160201b81111561067257600080fd5b82018360208201111561068457600080fd5b803590602001918460208302840111600160201b831117156106a557600080fd5b9190808060200260200160405190810160405280939291908181526020018383602002808284376000920191909152509295949360208101935035915050600160201b8111156106f457600080fd5b82018360208201111561070657600080fd5b803590602001918460208302840111600160201b8311171561072757600080fd5b9190808060200260200160405190810160405280939291908181526020018383602002808284376000920191909152509295949360208101935035915050600160201b81111561077657600080fd5b82018360208201111561078857600080fd5b803590602001918460208302840111600160201b831117156107a957600080fd5b91908080602002602001604051908101604052809392919081815260200183836020028082843760009201919091525092955061198e945050505050565b604080519115158252519081900360200190f35b6108a86004803603606081101561081157600080fd5b813591602081013591810190606081016040820135600160201b81111561083757600080fd5b82018360208201111561084957600080fd5b803590602001918460208302840111600160201b8311171561086a57600080fd5b919080806020026020016040519081016040528093929190818152602001838360200280828437600092019190915250929550611b45945050505050565b604051808781526020018681526020018581526020018481526020018060200180602001838103835285818151815260200191508051906020019060200280838360005b838110156109045781810151838201526020016108ec565b50505050905001838103825284818151815260200191508051906020019060200280838360005b8381101561094357818101518382015260200161092b565b505050509050019850505050505050505060405180910390f35b6102276004803603602081101561097357600080fd5b5035611d76565b610982611d9b565b604080516001600160a01b039092168252519081900360200190f35b6101d1600480360360208110156109b457600080fd5b810190602081018135600160201b8111156109ce57600080fd5b8201836020820111156109e057600080fd5b803590602001918460208302840111600160201b83111715610a0157600080fd5b919080806020026020016040519081016040528093929190818152602001838360200280828437600092019190915250929550611daa945050505050565b6101f0611e85565b6101d160048036036040811015610a5d57600080fd5b810190602081018135600160201b811115610a7757600080fd5b820183602082011115610a8957600080fd5b803590602001918460208302840111600160201b83111715610aaa57600080fd5b9190808060200260200160405190810160405280939291908181526020018383602002808284376000920191909152509295949360208101935035915050600160201b811115610af957600080fd5b820183602082011115610b0b57600080fd5b803590602001918460208302840111600160201b83111715610b2c57600080fd5b919080806020026020016040519081016040528093929190818152602001838360200280828437600092019190915250929550611e8b945050505050565b6101f060048036036040811015610b8057600080fd5b5080359060200135611f1a565b6101d160048036036060811015610ba357600080fd5b810190602081018135600160201b811115610bbd57600080fd5b820183602082011115610bcf57600080fd5b803590602001918460208302840111600160201b83111715610bf057600080fd5b9190808060200260200160405190810160405280939291908181526020018383602002808284376000920191909152509295949360208101935035915050600160201b811115610c3f57600080fd5b820183602082011115610c5157600080fd5b803590602001918460208302840111600160201b83111715610c7257600080fd5b9190808060200260200160405190810160405280939291908181526020018383602002808284376000920191909152509295949360208101935035915050600160201b811115610cc157600080fd5b820183602082011115610cd357600080fd5b803590602001918460208302840111600160201b83111715610cf457600080fd5b919080806020026020016040519081016040528093929190818152602001838360200280828437600092019190915250929550611fca945050505050565b6101f060048036036040811015610d4857600080fd5b810190602081018135600160201b811115610d6257600080fd5b820183602082011115610d7457600080fd5b803590602001918460208302840111600160201b83111715610d9557600080fd5b919080806020026020016040519081016040528093929190818152602001838360200280828437600092019190915250929550509135925061205c915050565b610df260048036036020811015610deb57600080fd5b5035612279565b604051808581526020018481526020018060200180602001838103835285818151815260200191508051906020019060200280838360005b83811015610e42578181015183820152602001610e2a565b50505050905001838103825284818151815260200191508051906020019060200280838360005b83811015610e81578181015183820152602001610e69565b50505050905001965050505050505060405180910390f35b6101f0612440565b6101d160048036036020811015610eb757600080fd5b810190602081018135600160201b811115610ed157600080fd5b820183602082011115610ee357600080fd5b803590602001918460208302840111600160201b83111715610f0457600080fd5b919080806020026020016040519081016040528093929190818152602001838360200280828437600092019190915250929550612494945050505050565b6101d160048036036060811015610f5857600080fd5b810190602081018135600160201b811115610f7257600080fd5b820183602082011115610f8457600080fd5b803590602001918460208302840111600160201b83111715610fa557600080fd5b9190808060200260200160405190810160405280939291908181526020018383602002808284376000920191909152509295949360208101935035915050600160201b811115610ff457600080fd5b82018360208201111561100657600080fd5b803590602001918460208302840111600160201b8311171561102757600080fd5b9190808060200260200160405190810160405280939291908181526020018383602002808284376000920191909152509295949360208101935035915050600160201b81111561107657600080fd5b82018360208201111561108857600080fd5b803590602001918460208302840111600160201b831117156110a957600080fd5b919080806020026020016040519081016040528093929190818152602001838360200280828437600092019190915250929550612519945050505050565b6101d1600480360360608110156110fd57600080fd5b810190602081018135600160201b81111561111757600080fd5b82018360208201111561112957600080fd5b803590602001918460208302840111600160201b8311171561114a57600080fd5b9190808060200260200160405190810160405280939291908181526020018383602002808284376000920191909152509295949360208101935035915050600160201b81111561119957600080fd5b8201836020820111156111ab57600080fd5b803590602001918460208302840111600160201b831117156111cc57600080fd5b9190808060200260200160405190810160405280939291908181526020018383602002808284376000920191909152509295949360208101935035915050600160201b81111561121b57600080fd5b82018360208201111561122d57600080fd5b803590602001918460208302840111600160201b8311171561124e57600080fd5b9190808060200260200160405190810160405280939291908181526020018383602002808284376000920191909152509295506125a2945050505050565b6101d1600480360360608110156112a257600080fd5b5080359060208101359060400135612634565b6101d1600480360360608110156112cb57600080fd5b810190602081018135600160201b8111156112e557600080fd5b8201836020820111156112f757600080fd5b803590602001918460208302840111600160201b8311171561131857600080fd5b9190808060200260200160405190810160405280939291908181526020018383602002808284376000920191909152509295949360208101935035915050600160201b81111561136757600080fd5b82018360208201111561137957600080fd5b803590602001918460208302840111600160201b8311171561139a57600080fd5b9190808060200260200160405190810160405280939291908181526020018383602002808284376000920191909152509295949360208101935035915050600160201b8111156113e957600080fd5b8201836020820111156113fb57600080fd5b803590602001918460208302840111600160201b8311171561141c57600080fd5b9190808060200260200160405190810160405280939291908181526020018383602002808284376000920191909152509295506126e4945050505050565b61146261276d565b604080519485526020850193909352838301919091526060830152519081900360800190f35b6000546001600160a01b031633146114d15760405162461bcd60e51b815260040180806020018281038252602281526020018061277d6022913960400191505060405180910390fd5b60408051632f75e6e760e11b8152600160048201526024810184905260448101839052905173__menuHelper____________________________91635eebcdce916064808301926000929190829003018186803b15801561153157600080fd5b505af4158015611545573d6000803e3d6000fd5b505050505050565b6000600173__menuHelper____________________________6374f811479091846040518363ffffffff1660e01b8152600401808381526020018281526020019250505060206040518083038186803b1580156115a957600080fd5b505af41580156115bd573d6000803e3d6000fd5b505050506040513d60208110156115d357600080fd5b505192915050565b6000600173__menuHelper____________________________63f36cf61090916040518263ffffffff1660e01b81526004018082815260200191505060206040518083038186803b15801561162f57600080fd5b505af4158015611643573d6000803e3d6000fd5b505050506040513d602081101561165957600080fd5b5051905090565b600090815260056020526040902080546001820154600290920154909260ff90911690565b6000546001600160a01b0316331461169c57600080fd5b604051631ee24e7760e01b815260016004820181815260806024840190815286516084850152865173__menuHelper____________________________94631ee24e7794938993899389936044810191606482019160a401906020808a01910280838360005b8381101561171a578181015183820152602001611702565b50505050905001848103835286818151815260200191508051906020019060200280838360005b83811015611759578181015183820152602001611741565b50505050905001848103825285818151815260200191508051906020019060200280838360005b83811015611798578181015183820152602001611780565b5050505090500197505050505050505060006040518083038186803b1580156117c057600080fd5b505af41580156117d4573d6000803e3d6000fd5b50505050505050565b60015490565b6000546001600160a01b031633146117fa57600080fd5b600173__menuHelper____________________________631144d8cc909184846040518463ffffffff1660e01b8152600401808481526020018060200180602001838103835285818151815260200191508051906020019060200280838360005b8381101561187357818101518382015260200161185b565b50505050905001838103825284818151815260200191508051906020019060200280838360005b838110156118b257818101518382015260200161189a565b505050509050019550505050505060006040518083038186803b15801561153157600080fd5b60035490565b60408051630733405f60e01b81526001600482018181526024830193845284516044840152845173__menuHelper____________________________94630733405f948793926064909101906020808601910280838360005b8381101561194f578181015183820152602001611937565b50505050905001935050505060006040518083038186803b15801561197357600080fd5b505af4158015611987573d6000803e3d6000fd5b5050505050565b600080546001600160a01b031633146119a657600080fd5b600173__menuHelper____________________________63412362179091878787876040518663ffffffff1660e01b81526004018086815260200180602001806020018060200180602001858103855289818151815260200191508051906020019060200280838360005b83811015611a29578181015183820152602001611a11565b50505050905001858103845288818151815260200191508051906020019060200280838360005b83811015611a68578181015183820152602001611a50565b50505050905001858103835287818151815260200191508051906020019060200280838360005b83811015611aa7578181015183820152602001611a8f565b50505050905001858103825286818151815260200191508051906020019060200280838360005b83811015611ae6578181015183820152602001611ace565b50505050905001995050505050505050505060206040518083038186803b158015611b1057600080fd5b505af4158015611b24573d6000803e3d6000fd5b505050506040513d6020811015611b3a57600080fd5b509095945050505050565b600080600080606080600173__menuHelper____________________________630a652e4390918b8b8b6040518563ffffffff1660e01b81526004018085815260200184815260200183815260200180602001828103825283818151815260200191508051906020019060200280838360005b83811015611bd0578181015183820152602001611bb8565b505050509050019550505050505060006040518083038186803b158015611bf657600080fd5b505af4158015611c0a573d6000803e3d6000fd5b505050506040513d6000823e601f3d908101601f1916820160405260c0811015611c3357600080fd5b8151602083015160408085015160608601516080870180519351959794969295919491939282019284600160201b821115611c6d57600080fd5b908301906020820185811115611c8257600080fd5b82518660208202830111600160201b82111715611c9e57600080fd5b82525081516020918201928201910280838360005b83811015611ccb578181015183820152602001611cb3565b5050505090500160405260200180516040519392919084600160201b821115611cf357600080fd5b908301906020820185811115611d0857600080fd5b82518660208202830111600160201b82111715611d2457600080fd5b82525081516020918201928201910280838360005b83811015611d51578181015183820152602001611d39565b5050505090500160405250505095509550955095509550955093975093979195509350565b600090815260076020526040902080546001820154600290920154909260ff90911690565b6000546001600160a01b031681565b6000546001600160a01b03163314611dc157600080fd5b60408051631820e07b60e11b81526001600482018181526024830193845284516044840152845173__menuHelper____________________________94633041c0f6948793926064909101906020808601910280838360005b83811015611e32578181015183820152602001611e1a565b50505050905001935050505060206040518083038186803b158015611e5657600080fd5b505af4158015611e6a573d6000803e3d6000fd5b505050506040513d6020811015611e8057600080fd5b505050565b60045490565b6000546001600160a01b03163314611ea257600080fd5b6040516308f5487d60e11b815260016004820181815260606024840190815285516064850152855173__menuHelper____________________________946311ea90fa94938893889391929091604482019160840190602080880191028083836000831561187357818101518382015260200161185b565b60408051636402689b60e11b81526001600482015260248101849052604481018390529051600091600791839173__menuHelper____________________________9163c804d13691606480820192602092909190829003018186803b158015611f8357600080fd5b505af4158015611f97573d6000803e3d6000fd5b505050506040513d6020811015611fad57600080fd5b505181526020810191909152604001600020600101549392505050565b6000546001600160a01b03163314611fe157600080fd5b60405163753810c760e01b815260016004820181815260806024840190815286516084850152865173__menuHelper____________________________9463753810c794938993899389936044810191606482019160a401906020808a0191028083836000831561171a578181015183820152602001611702565b60008080805b8481101561226f5760016004016000600173__menuHelper____________________________6320f2952c90918a878151811061209b57fe5b60200260200101518b88600101815181106120b257fe5b60200260200101516040518463ffffffff1660e01b815260040180848152602001838152602001828152602001935050505060206040518083038186803b1580156120fc57600080fd5b505af4158015612110573d6000803e3d6000fd5b505050506040513d602081101561212657600080fd5b50518152602081019190915260400160009081206001015493909301925b86836002018151811061215357fe5b60200260200101518110156122435760016006016000600173__menuHelper____________________________63c804d13690918b888151811061219357fe5b60200260200101518c878a60030101815181106121ac57fe5b60200260200101516040518463ffffffff1660e01b815260040180848152602001838152602001828152602001935050505060206040518083038186803b1580156121f657600080fd5b505af415801561220a573d6000803e3d6000fd5b505050506040513d602081101561222057600080fd5b505181526020810191909152604001600020600190810154949094019301612144565b5085826002018151811061225357fe5b6020026020010151600301820191508080600101915050612062565b5090949350505050565b600080606080600173__menuHelper____________________________6336bf00579091876040518363ffffffff1660e01b8152600401808381526020018281526020019250505060006040518083038186803b1580156122d957600080fd5b505af41580156122ed573d6000803e3d6000fd5b505050506040513d6000823e601f3d908101601f19168201604052608081101561231657600080fd5b81516020830151604080850180519151939592948301929184600160201b82111561234057600080fd5b90830190602082018581111561235557600080fd5b82518660208202830111600160201b8211171561237157600080fd5b82525081516020918201928201910280838360005b8381101561239e578181015183820152602001612386565b5050505090500160405260200180516040519392919084600160201b8211156123c657600080fd5b9083019060208201858111156123db57600080fd5b82518660208202830111600160201b821117156123f757600080fd5b82525081516020918201928201910280838360005b8381101561242457818101518382015260200161240c565b5050505090500160405250505093509350935093509193509193565b6000600173__menuHelper____________________________63cf17773590916040518263ffffffff1660e01b81526004018082815260200191505060206040518083038186803b15801561162f57600080fd5b6000546001600160a01b031633146124ab57600080fd5b6040805163b49a2e4960e01b81526001600482018181526024830193845284516044840152845173__menuHelper____________________________9463b49a2e4994879392606490910190602080860191028083836000831561194f578181015183820152602001611937565b825181511461252757600080fd5b6040516389ac324360e01b815260016004820181815260806024840190815286516084850152865173__menuHelper____________________________946389ac324394938993899389936044810191606482019160a401906020808a0191028083836000831561171a578181015183820152602001611702565b6000546001600160a01b031633146125b957600080fd5b604051636f627d2360e11b815260016004820181815260806024840190815286516084850152865173__menuHelper____________________________9463dec4fa4694938993899389936044810191606482019160a401906020808a0191028083836000831561171a578181015183820152602001611702565b6000546001600160a01b0316331461267d5760405162461bcd60e51b815260040180806020018281038252602281526020018061277d6022913960400191505060405180910390fd5b60408051632f0ebdbf60e11b815260016004820152602481018590526044810184905260648101839052905173__menuHelper____________________________91635e1d7b7e916084808301926000929190829003018186803b1580156117c057600080fd5b82518151146126f257600080fd5b6040516301617f1560e61b815260016004820181815260806024840190815286516084850152865173__menuHelper____________________________9463585fc54094938993899389936044810191606482019160a401906020808a0191028083836000831561171a578181015183820152602001611702565b6001546002546003546004548456fe796f7520617265206e6f7420746865206f776e6572206f662074686973206d656e75a265627a7a723158205741e8905866f03875972d0c562c469fa12259698cfed180a52d0c8d55ab7b5864736f6c634300050c0032796f7572206164647265737320616c72656164792068617320612072657374617572616e74206173736f6369617465642077697468206974a265627a7a7231582078d8f37e405677852eb022bd752ff64ea02add0417b8cdec254ba22446e0ea0a64736f6c634300050c0032",
  "source": "pragma solidity ^0.5.0;\n\nimport \"./Restaurant.sol\";\n\ncontract RestaurantFactory {\n\n\taddress public owner;\n\taddress controller;\n\t\n\t// ToDo: consider if thease need to be public\n\tmapping(uint => address) public restaurants0; \t\t// contract id to contract address\n\tmapping(address => address) public restaurants1;\t// contract address to owner address\n\tmapping(address => address) public restaurants2; \t// owner address to contract address\n\tuint public restaurantCount;\n\n\tevent RestaurantMade(address indexed restaurantAddress, address indexed createrAddress);\n\t\n\tconstructor(address _controller) public {\n\t\towner = msg.sender;\n\t\tcontroller = _controller;\n\t\trestaurantCount = 0;\n\t}\n\n\t// factory function creates a new restaurant\n\tfunction createRestaurant(bytes32 name, bytes calldata _address, uint latitude, uint longitude, bytes32 contactNumber) external returns(address newRestaurant){\n\t\t//ToDo: require deposit to create a restaurant\n\t\trequire(restaurants2[msg.sender] == address(0x0), \"your address already has a restaurant associated with it\");\n\t\trequire(name.length >0, \"name cannot be empty\");\n\t\trequire(bytes(_address).length >0, \"address can not be empty\");\n\t\trequire(contactNumber.length >0, \"contact number can not be empty\");\n\n\n\t\tRestaurant theNewRestaurant = new Restaurant(controller,msg.sender,restaurantCount, name, _address, latitude, longitude, contactNumber);\n\t\trestaurants0[restaurantCount] = address(theNewRestaurant);\n\t\trestaurantCount ++;\n\t\trestaurants1[address(theNewRestaurant)] = msg.sender;\n\t\trestaurants2[msg.sender] = address(theNewRestaurant);\n\n\t\temit RestaurantMade(address(theNewRestaurant),msg.sender);\n\n\t\treturn address(theNewRestaurant);\n\n\t}\n\t\n\tfunction restaurantExists(address restaurant) public view returns(bool RestaurantExists){\n\t    if(restaurants1[restaurant] != address(0x0)){\n\t    \treturn true;\n\t    }else{\n\t    \treturn false;\t\n\t    }\n\t}\n\n    function reset() public {\n        require(msg.sender == controller);\n        for(uint i = 0; i < restaurantCount; i++){\n            address currentContract = restaurants0[i];\n            address currentOwnAddress = restaurants1[currentContract];\n\n            delete restaurants0[i];\n            delete restaurants1[currentContract];\n            delete restaurants2[currentOwnAddress];\n\n            restaurantCount = 0;\n        }\n    }\n}",
  "sourcePath": "/home/george/Documents/WorkSpace/TryAByte/contracts/RestaurantFactory.sol",
  "compiler": {
    "name": "solc",
    "version": "0.5.12+commit.7709ece9.Emscripten.clang"
  },
  "schemaVersion": "3.0.19",
  "updatedAt": "2020-02-05T14:21:18.523Z",
  "networkType": "ethereum",
  "devdoc": {
    "methods": {}
  },
  "userdoc": {
    "methods": {}
  }
}