{
  "contractName": "Test",
  "abi": [
    {
      "anonymous": false,
      "inputs": [
        {
          "indexed": false,
          "internalType": "string",
          "name": "eventString",
          "type": "string"
        }
      ],
      "name": "testEvent",
      "type": "event"
    },
    {
      "constant": true,
      "inputs": [
        {
          "internalType": "uint256",
          "name": "",
          "type": "uint256"
        }
      ],
      "name": "menu",
      "outputs": [
        {
          "internalType": "bytes32",
          "name": "itemName",
          "type": "bytes32"
        },
        {
          "internalType": "bytes32",
          "name": "description",
          "type": "bytes32"
        }
      ],
      "payable": false,
      "stateMutability": "view",
      "type": "function"
    },
    {
      "constant": true,
      "inputs": [],
      "name": "menuLength",
      "outputs": [
        {
          "internalType": "uint256",
          "name": "",
          "type": "uint256"
        }
      ],
      "payable": false,
      "stateMutability": "view",
      "type": "function"
    },
    {
      "constant": true,
      "inputs": [
        {
          "internalType": "bytes32",
          "name": "data",
          "type": "bytes32"
        }
      ],
      "name": "getHash",
      "outputs": [
        {
          "internalType": "bytes32",
          "name": "",
          "type": "bytes32"
        }
      ],
      "payable": false,
      "stateMutability": "view",
      "type": "function"
    },
    {
      "constant": false,
      "inputs": [],
      "name": "emitEvent",
      "outputs": [],
      "payable": false,
      "stateMutability": "nonpayable",
      "type": "function"
    },
    {
      "constant": false,
      "inputs": [
        {
          "internalType": "bytes32",
          "name": "a",
          "type": "bytes32"
        }
      ],
      "name": "compareBytes32",
      "outputs": [
        {
          "internalType": "bool",
          "name": "",
          "type": "bool"
        }
      ],
      "payable": false,
      "stateMutability": "nonpayable",
      "type": "function"
    },
    {
      "constant": false,
      "inputs": [
        {
          "internalType": "bytes32[]",
          "name": "itemNames",
          "type": "bytes32[]"
        },
        {
          "internalType": "bytes32[]",
          "name": "itemDescriptions",
          "type": "bytes32[]"
        },
        {
          "internalType": "bytes32[]",
          "name": "_optionNames",
          "type": "bytes32[]"
        },
        {
          "internalType": "uint256[]",
          "name": "_prices",
          "type": "uint256[]"
        }
      ],
      "name": "menuAddItems",
      "outputs": [
        {
          "internalType": "bool",
          "name": "",
          "type": "bool"
        }
      ],
      "payable": false,
      "stateMutability": "nonpayable",
      "type": "function"
    }
  ],
  "bytecode": "0x608060405234801561001057600080fd5b5061059f806100206000396000f3fe608060405234801561001057600080fd5b50600436106100625760003560e01c80633cf5040a146100675780633d939a49146100965780637b0cb8391461009e5780639667c233146100a8578063b9fecf14146100d9578063cffb703c14610237575b600080fd5b6100846004803603602081101561007d57600080fd5b503561026d565b60408051918252519081900360200190f35b6100846102a1565b6100a66102a7565b005b6100c5600480360360208110156100be57600080fd5b50356102fa565b604080519115158252519081900360200190f35b6100c5600480360360808110156100ef57600080fd5b810190602081018135600160201b81111561010957600080fd5b82018360208201111561011b57600080fd5b803590602001918460208302840111600160201b8311171561013c57600080fd5b919390929091602081019035600160201b81111561015957600080fd5b82018360208201111561016b57600080fd5b803590602001918460208302840111600160201b8311171561018c57600080fd5b919390929091602081019035600160201b8111156101a957600080fd5b8201836020820111156101bb57600080fd5b803590602001918460208302840111600160201b831117156101dc57600080fd5b919390929091602081019035600160201b8111156101f957600080fd5b82018360208201111561020b57600080fd5b803590602001918460208302840111600160201b8311171561022c57600080fd5b509092509050610304565b6102546004803603602081101561024d57600080fd5b50356104e9565b6040805192835260208301919091528051918290030190f35b604080513060601b602080830191909152603480830194909452825180830390940184526054909101909152815191012090565b60005481565b604080516020808252600e908201526d1d1a1a5cc81a5cc818481d195cdd60921b8183015290517f4c2aaf95bd72b0b4730a09397fa14d7c339e8b90471d39e1ec89baed0628ed249181900360600190a1565b611e1f60f11b1490565b60408051600580825260c08201909252600091829160019183918291606091906020820160a080388339505060408051600580825260c0820190925292935060609291506020820160a08038833901905050905060005b8a81101561045a57851561039f578f8f8881811061037557fe5b90506020020135945083876020811061038a57fe5b1a60f81b6001600160f81b0319169350600095505b60008c8c838181106103ad57fe5b90506020020135905080611e1f60f11b1415610451576040805160808101825287815260208082018881528284018881526060840188905260008d8152600180855295902084518155915194820194909455925180519293926104169260028501920190610502565b5060608201518051610432916003840191602090910190610502565b505060008054600190810190915599506104dd98505050505050505050565b5060010161035b565b506040805160808101825285815260208082018681528284018681526060840186905260008b8152600180855295902084518155915194820194909455925180519293926104ae9260028501920190610502565b50606082015180516104ca916003840191602090910190610502565b5050600080546001019055505050505050505b98975050505050505050565b6001602081905260009182526040909120805491015482565b82805482825590600052602060002090810192821561053d579160200282015b8281111561053d578251825591602001919060010190610522565b5061054992915061054d565b5090565b61056791905b808211156105495760008155600101610553565b9056fea265627a7a7231582006ac22c42623e305c106f1c7e34727311d32bb9f152bc64c31077168968f730964736f6c634300050c0032",
  "source": "pragma solidity ^0.5.0;\n\ncontract Test{\n\n\tstruct Item{\n\t\tbytes32 itemName;\n        bytes32 description;\n        bytes32[] options;\n\t\tuint[] optionsCost; // in wei (10^-18 Eth)\n\t}\n\t\n    uint public menuLength;\n\tmapping(uint => Item) public menu; \n\n\n\n\n\n\tfunction getHash(bytes32 data) public view returns(bytes32){\n\t\treturn keccak256(abi.encodePacked(address(this),data));\n\t}\n\n\tevent testEvent(string eventString);\n\n\tfunction emitEvent() public {\n\t\temit testEvent(\"this is a test\");\n\t}\n\n\tfunction compareBytes32(bytes32 a) public returns(bool) {\n\t\treturn (a == \"<>\"); \n\t}\n\n\t function menuAddItems(bytes32[] calldata itemNames, bytes32[] calldata itemDescriptions, bytes32[] calldata _optionNames, uint[] calldata _prices) external returns(bool){      \n        uint itemindex = 0;\n        bool isNewItem = true;\n\n        bytes32 itemName;\n        bytes32 itemDescription;\n        bytes32[] memory optionNames = new bytes32[](5);\n        uint[] memory prices = new uint[](5);\n\n\n        for(uint i = 0; i < _optionNames.length; i++){\n\n            if(isNewItem){\n                itemName = itemNames[itemindex];\n                itemDescription = itemDescription[itemindex];\n                isNewItem = false;\n            }\n\n            bytes32 optionName = _optionNames[i];\n\n            if(optionName == \"<>\"){\n                menu[itemindex] = Item(itemName,itemDescription,optionNames,prices);\n                menuLength++;\n                itemindex++;\n                return true;\n            }\n            else{\n                //optionNames[optionIndex] = _optionNames[i];\n                //prices[optionIndex] = _prices[i];\n            }\n\n        }\n\n        menu[itemindex] = Item(itemName,itemDescription,optionNames,prices);\n        menuLength++;\n\n\n    }\n}",
  "sourcePath": "/home/george/Documents/WorkSpace/TryAByte/contracts/Test.sol",
  "compiler": {
    "name": "solc",
    "version": "0.5.12+commit.7709ece9.Emscripten.clang"
  },
  "schemaVersion": "3.0.19",
  "updatedAt": "2020-01-31T13:23:27.127Z",
  "networkType": "ethereum",
  "devdoc": {
    "methods": {}
  },
  "userdoc": {
    "methods": {}
  }
}