{
  "contractName": "Test",
  "abi": [
    {
      "anonymous": false,
      "inputs": [
        {
          "indexed": false,
          "name": "eventString",
          "type": "string"
        }
      ],
      "name": "testEvent",
      "type": "event"
    },
    {
      "constant": true,
      "inputs": [
        {
          "name": "data",
          "type": "bytes32"
        }
      ],
      "name": "getHash",
      "outputs": [
        {
          "name": "",
          "type": "bytes32"
        }
      ],
      "payable": false,
      "stateMutability": "view",
      "type": "function"
    },
    {
      "constant": false,
      "inputs": [],
      "name": "emitEvent",
      "outputs": [],
      "payable": false,
      "stateMutability": "nonpayable",
      "type": "function"
    }
  ],
  "bytecode": "0x608060405234801561001057600080fd5b50610171806100206000396000f3fe60806040526004361061004b5763ffffffff7c01000000000000000000000000000000000000000000000000000000006000350416633cf5040a81146100505780637b0cb8391461008c575b600080fd5b34801561005c57600080fd5b5061007a6004803603602081101561007357600080fd5b50356100a3565b60408051918252519081900360200190f35b34801561009857600080fd5b506100a16100e3565b005b60408051306c0100000000000000000000000002602080830191909152603480830194909452825180830390940184526054909101909152815191012090565b604080516020808252600e908201527f74686973206973206120746573740000000000000000000000000000000000008183015290517f4c2aaf95bd72b0b4730a09397fa14d7c339e8b90471d39e1ec89baed0628ed249181900360600190a156fea165627a7a72305820358588f96c9b46f33ffcca6ce807441d1c9941f7cb436d1e3b717acd5e75749e0029",
  "source": "pragma solidity ^0.5.0;\n\ncontract Test{\n\n\n\tfunction getHash(bytes32 data) public view returns(bytes32){\n\t\treturn keccak256(abi.encodePacked(address(this),data));\n\t}\n\n\tevent testEvent(string eventString);\n\n\tfunction emitEvent() public {\n\t\temit testEvent(\"this is a test\");\n\t}\n}",
  "sourcePath": "/home/george/Documents/TryAByte/contracts/Test.sol",
  "compiler": {
    "name": "solc",
    "version": "0.5.0+commit.1d4f565a.Emscripten.clang"
  },
  "schemaVersion": "3.0.6",
  "updatedAt": "2019-05-02T14:29:07.737Z",
  "devdoc": {
    "methods": {}
  },
  "userdoc": {
    "methods": {}
  }
}