{
  "contractName": "Test",
  "abi": [
    {
      "constant": true,
      "inputs": [],
      "name": "menuLength",
      "outputs": [
        {
          "name": "",
          "type": "uint256"
        }
      ],
      "payable": false,
      "stateMutability": "view",
      "type": "function",
      "signature": "0x3d939a49"
    },
    {
      "constant": true,
      "inputs": [
        {
          "name": "",
          "type": "uint256"
        }
      ],
      "name": "menu",
      "outputs": [
        {
          "name": "itemName",
          "type": "bytes32"
        },
        {
          "name": "description",
          "type": "bytes32"
        }
      ],
      "payable": false,
      "stateMutability": "view",
      "type": "function",
      "signature": "0xcffb703c"
    },
    {
      "anonymous": false,
      "inputs": [
        {
          "indexed": false,
          "name": "eventString",
          "type": "string"
        }
      ],
      "name": "testEvent",
      "type": "event",
      "signature": "0x4c2aaf95bd72b0b4730a09397fa14d7c339e8b90471d39e1ec89baed0628ed24"
    },
    {
      "constant": true,
      "inputs": [
        {
          "name": "data",
          "type": "bytes32"
        }
      ],
      "name": "getHash",
      "outputs": [
        {
          "name": "",
          "type": "bytes32"
        }
      ],
      "payable": false,
      "stateMutability": "view",
      "type": "function",
      "signature": "0x3cf5040a"
    },
    {
      "constant": false,
      "inputs": [],
      "name": "emitEvent",
      "outputs": [],
      "payable": false,
      "stateMutability": "nonpayable",
      "type": "function",
      "signature": "0x7b0cb839"
    },
    {
      "constant": false,
      "inputs": [
        {
          "name": "a",
          "type": "bytes32"
        }
      ],
      "name": "compareBytes32",
      "outputs": [
        {
          "name": "",
          "type": "bool"
        }
      ],
      "payable": false,
      "stateMutability": "nonpayable",
      "type": "function",
      "signature": "0x9667c233"
    },
    {
      "constant": false,
      "inputs": [
        {
          "name": "itemNames",
          "type": "bytes32[]"
        },
        {
          "name": "itemDescriptions",
          "type": "bytes32[]"
        },
        {
          "name": "_optionNames",
          "type": "bytes32[]"
        },
        {
          "name": "_prices",
          "type": "uint256[]"
        }
      ],
      "name": "menuAddItems",
      "outputs": [
        {
          "name": "",
          "type": "bool"
        }
      ],
      "payable": false,
      "stateMutability": "nonpayable",
      "type": "function",
      "signature": "0xb9fecf14"
    }
  ],
  "bytecode": "0x608060405234801561001057600080fd5b5061068b806100206000396000f3fe6080604052600436106100775763ffffffff7c01000000000000000000000000000000000000000000000000000000006000350416633cf5040a811461007c5780633d939a49146100b85780637b0cb839146100cd5780639667c233146100e4578063b9fecf1414610122578063cffb703c14610295575b600080fd5b34801561008857600080fd5b506100a66004803603602081101561009f57600080fd5b50356102d8565b60408051918252519081900360200190f35b3480156100c457600080fd5b506100a6610318565b3480156100d957600080fd5b506100e261031e565b005b3480156100f057600080fd5b5061010e6004803603602081101561010757600080fd5b5035610380565b604080519115158252519081900360200190f35b34801561012e57600080fd5b5061010e6004803603608081101561014557600080fd5b81019060208101813564010000000081111561016057600080fd5b82018360208201111561017257600080fd5b8035906020019184602083028401116401000000008311171561019457600080fd5b9193909290916020810190356401000000008111156101b257600080fd5b8201836020820111156101c457600080fd5b803590602001918460208302840111640100000000831117156101e657600080fd5b91939092909160208101903564010000000081111561020457600080fd5b82018360208201111561021657600080fd5b8035906020019184602083028401116401000000008311171561023857600080fd5b91939092909160208101903564010000000081111561025657600080fd5b82018360208201111561026857600080fd5b8035906020019184602083028401116401000000008311171561028a57600080fd5b5090925090506103a5565b3480156102a157600080fd5b506102bf600480360360208110156102b857600080fd5b50356105de565b6040805192835260208301919091528051918290030190f35b60408051306c0100000000000000000000000002602080830191909152603480830194909452825180830390940184526054909101909152815191012090565b60005481565b604080516020808252600e908201527f74686973206973206120746573740000000000000000000000000000000000008183015290517f4c2aaf95bd72b0b4730a09397fa14d7c339e8b90471d39e1ec89baed0628ed249181900360600190a1565b7f3c3e0000000000000000000000000000000000000000000000000000000000001490565b60408051600580825260c08201909252600091829160019183918291606091906020820160a080388339505060408051600580825260c0820190925292935060609291506020820160a08038833901905050905060005b8a81101561054f578515610479578f8f8881811061041657fe5b905060200201359450838760208110151561042d57fe5b1a7f0100000000000000000000000000000000000000000000000000000000000000027effffffffffffffffffffffffffffffffffffffffffffffffffffffffffffff19169350600095505b60008c8c8381811061048757fe5b905060200201359050807f3c3e0000000000000000000000000000000000000000000000000000000000001415610546576040805160808101825287815260208082018881528284018881526060840188905260008d81526001808552959020845181559151948201949094559251805192939261050b92600285019201906105f7565b50606082015180516105279160038401916020909101906105f7565b505060008054600190810190915599506105d298505050505050505050565b506001016103fc565b506040805160808101825285815260208082018681528284018681526060840186905260008b8152600180855295902084518155915194820194909455925180519293926105a392600285019201906105f7565b50606082015180516105bf9160038401916020909101906105f7565b5050600080546001019055505050505050505b98975050505050505050565b6001602081905260009182526040909120805491015482565b828054828255906000526020600020908101928215610632579160200282015b82811115610632578251825591602001919060010190610617565b5061063e929150610642565b5090565b61065c91905b8082111561063e5760008155600101610648565b9056fea165627a7a723058207edc668a94293fcf8b51e9b40e3e7837b92c288b5cb3a9f6d14c8d55c5068df40029",
  "source": "pragma solidity ^0.5.0;\n\ncontract Test{\n\n\tstruct Item{\n\t\tbytes32 itemName;\n        bytes32 description;\n        bytes32[] options;\n\t\tuint[] optionsCost; // in wei (10^-18 Eth)\n\t}\n\t\n    uint public menuLength;\n\tmapping(uint => Item) public menu; \n\n\n\n\n\n\tfunction getHash(bytes32 data) public view returns(bytes32){\n\t\treturn keccak256(abi.encodePacked(address(this),data));\n\t}\n\n\tevent testEvent(string eventString);\n\n\tfunction emitEvent() public {\n\t\temit testEvent(\"this is a test\");\n\t}\n\n\tfunction compareBytes32(bytes32 a) public returns(bool) {\n\t\treturn (a == \"<>\"); \n\t}\n\n\t function menuAddItems(bytes32[] calldata itemNames, bytes32[] calldata itemDescriptions, bytes32[] calldata _optionNames, uint[] calldata _prices) external returns(bool){      \n        uint itemindex = 0;\n        bool isNewItem = true;\n\n        bytes32 itemName;\n        bytes32 itemDescription;\n        bytes32[] memory optionNames = new bytes32[](5);\n        uint[] memory prices = new uint[](5);\n\n\n        for(uint i = 0; i < _optionNames.length; i++){\n\n            if(isNewItem){\n                itemName = itemNames[itemindex];\n                itemDescription = itemDescription[itemindex];\n                isNewItem = false;\n            }\n\n            bytes32 optionName = _optionNames[i];\n\n            if(optionName == \"<>\"){\n                menu[itemindex] = Item(itemName,itemDescription,optionNames,prices);\n                menuLength++;\n                itemindex++;\n                return true;\n            }\n            else{\n                //optionNames[optionIndex] = _optionNames[i];\n                //prices[optionIndex] = _prices[i];\n            }\n\n        }\n\n        menu[itemindex] = Item(itemName,itemDescription,optionNames,prices);\n        menuLength++;\n\n\n    }\n}",
  "sourcePath": "/home/george/Documents/WorkSpace/TryAByte/contracts/Test.sol",
  "compiler": {
    "name": "solc",
    "version": "0.5.0+commit.1d4f565a.Emscripten.clang"
  },
  "schemaVersion": "3.0.6",
  "updatedAt": "2019-11-14T18:22:34.258Z",
  "devdoc": {
    "methods": {}
  },
  "userdoc": {
    "methods": {}
  }
}