{
  "contractName": "uintArrayExtension",
  "abi": [
    {
      "constant": true,
      "inputs": [
        {
          "internalType": "uint256[]",
          "name": "self",
          "type": "uint256[]"
        },
        {
          "internalType": "uint256",
          "name": "startIndex",
          "type": "uint256"
        },
        {
          "internalType": "uint256",
          "name": "size",
          "type": "uint256"
        }
      ],
      "name": "getPartition",
      "outputs": [
        {
          "internalType": "uint256[]",
          "name": "",
          "type": "uint256[]"
        }
      ],
      "payable": false,
      "stateMutability": "pure",
      "type": "function"
    }
  ],
  "bytecode": "0x6101e0610026600b82828239805160001a60731461001957fe5b30600052607381538281f3fe73000000000000000000000000000000000000000030146080604052600436106100355760003560e01c8063e3751e651461003a575b600080fd5b6100e26004803603606081101561005057600080fd5b81019060208101813564010000000081111561006b57600080fd5b82018360208201111561007d57600080fd5b8035906020019184602083028401116401000000008311171561009f57600080fd5b9190808060200260200160405190810160405280939291908181526020018383602002808284376000920191909152509295505082359350505060200135610132565b60408051602080825283518183015283519192839290830191858101910280838360005b8381101561011e578181015183820152602001610106565b505050509050019250505060405180910390f35b6060808260405190808252806020026020018201604052801561015f578160200160208202803883390190505b50905060005b838110156101a257858582018151811061017b57fe5b602002602001015182828151811061018f57fe5b6020908102919091010152600101610165565b5094935050505056fea265627a7a723158201f26022ea58b5a4c1e76ec282ea2cdedc2bd2f5be973381c0ecab15a90ff55a564736f6c634300050c0032",
  "source": "pragma solidity ^0.5.0;\n\nlibrary uintArrayExtension {\n\n\tfunction getPartition(uint[] memory self, uint startIndex, uint size) public pure returns (uint[] memory){\n\t\tuint[] memory intArray = new uint[](size);\n\t    for(uint i = 0; i < size; i++){\n\t      intArray[i] = self[i+startIndex];\n\t    }\n\t    return intArray;\n\t}\n}\n\n",
  "sourcePath": "/home/george/Documents/WorkSpace/TryAByte/contracts/uintArrayExtension.sol",
  "compiler": {
    "name": "solc",
    "version": "0.5.12+commit.7709ece9.Emscripten.clang"
  },
  "schemaVersion": "3.0.19",
  "updatedAt": "2020-02-05T14:21:18.603Z",
  "networkType": "ethereum",
  "devdoc": {
    "methods": {}
  },
  "userdoc": {
    "methods": {}
  }
}