{
  "contractName": "bytes32ArrayExtension",
  "abi": [
    {
      "constant": true,
      "inputs": [
        {
          "internalType": "bytes32[]",
          "name": "self",
          "type": "bytes32[]"
        },
        {
          "internalType": "uint256",
          "name": "startIndex",
          "type": "uint256"
        },
        {
          "internalType": "uint256",
          "name": "size",
          "type": "uint256"
        }
      ],
      "name": "getPartition",
      "outputs": [
        {
          "internalType": "bytes32[]",
          "name": "",
          "type": "bytes32[]"
        }
      ],
      "payable": false,
      "stateMutability": "pure",
      "type": "function"
    }
  ],
  "bytecode": "0x6101e0610026600b82828239805160001a60731461001957fe5b30600052607381538281f3fe73000000000000000000000000000000000000000030146080604052600436106100355760003560e01c806349c972ea1461003a575b600080fd5b6100e26004803603606081101561005057600080fd5b81019060208101813564010000000081111561006b57600080fd5b82018360208201111561007d57600080fd5b8035906020019184602083028401116401000000008311171561009f57600080fd5b9190808060200260200160405190810160405280939291908181526020018383602002808284376000920191909152509295505082359350505060200135610132565b60408051602080825283518183015283519192839290830191858101910280838360005b8381101561011e578181015183820152602001610106565b505050509050019250505060405180910390f35b6060808260405190808252806020026020018201604052801561015f578160200160208202803883390190505b50905060005b838110156101a257858582018151811061017b57fe5b602002602001015182828151811061018f57fe5b6020908102919091010152600101610165565b5094935050505056fea265627a7a72315820296996be97c6b32283028834fd4bbce6b38164709d5e5ee017c25d2769189be964736f6c634300050c0032",
  "source": "pragma solidity ^0.5.0;\n\nlibrary bytes32ArrayExtension {\n\n\tfunction getPartition(bytes32[] memory self, uint startIndex, uint size) public pure returns (bytes32[] memory){\n\t\tbytes32[] memory _byte32Array = new bytes32[](size);\n\t    for(uint i = 0; i < size; i++){\n\t      _byte32Array[i] = self[i+startIndex];\n\t    }\n\t    return _byte32Array;\n\t}\n}",
  "sourcePath": "/home/george/Documents/WorkSpace/TryAByte_reactSetup/contracts/bytes32ArrayExtension.sol",
  "compiler": {
    "name": "solc",
    "version": "0.5.12+commit.7709ece9.Emscripten.clang"
  },
  "schemaVersion": "3.0.19",
  "updatedAt": "2020-02-16T17:05:31.131Z",
  "networkType": "ethereum",
  "devdoc": {
    "methods": {}
  },
  "userdoc": {
    "methods": {}
  }
}