{
  "contractName": "Controller",
  "abi": [
    {
      "constant": true,
      "inputs": [],
      "name": "minimumDeliveryFee",
      "outputs": [
        {
          "name": "",
          "type": "uint256"
        }
      ],
      "payable": false,
      "stateMutability": "view",
      "type": "function"
    },
    {
      "constant": true,
      "inputs": [],
      "name": "customerFactoryAddress",
      "outputs": [
        {
          "name": "",
          "type": "address"
        }
      ],
      "payable": false,
      "stateMutability": "view",
      "type": "function"
    },
    {
      "constant": true,
      "inputs": [],
      "name": "restaurantFactoryAddress",
      "outputs": [
        {
          "name": "",
          "type": "address"
        }
      ],
      "payable": false,
      "stateMutability": "view",
      "type": "function"
    },
    {
      "constant": true,
      "inputs": [],
      "name": "owner",
      "outputs": [
        {
          "name": "",
          "type": "address"
        }
      ],
      "payable": false,
      "stateMutability": "view",
      "type": "function"
    },
    {
      "constant": true,
      "inputs": [],
      "name": "riderFactoryAddress",
      "outputs": [
        {
          "name": "",
          "type": "address"
        }
      ],
      "payable": false,
      "stateMutability": "view",
      "type": "function"
    },
    {
      "inputs": [],
      "payable": false,
      "stateMutability": "nonpayable",
      "type": "constructor"
    },
    {
      "constant": false,
      "inputs": [
        {
          "name": "newFee",
          "type": "uint256"
        }
      ],
      "name": "updateMinDeliveryFee",
      "outputs": [],
      "payable": false,
      "stateMutability": "nonpayable",
      "type": "function"
    }
  ],
  "bytecode": "0x608060405234801561001057600080fd5b50336000806101000a81548173ffffffffffffffffffffffffffffffffffffffff021916908373ffffffffffffffffffffffffffffffffffffffff1602179055506000809054906101000a900473ffffffffffffffffffffffffffffffffffffffff1661007b61029b565b808273ffffffffffffffffffffffffffffffffffffffff1673ffffffffffffffffffffffffffffffffffffffff168152602001915050604051809103906000f0801580156100cd573d6000803e3d6000fd5b50600160006101000a81548173ffffffffffffffffffffffffffffffffffffffff021916908373ffffffffffffffffffffffffffffffffffffffff1602179055506000809054906101000a900473ffffffffffffffffffffffffffffffffffffffff166101386102ab565b808273ffffffffffffffffffffffffffffffffffffffff1673ffffffffffffffffffffffffffffffffffffffff168152602001915050604051809103906000f08015801561018a573d6000803e3d6000fd5b50600260006101000a81548173ffffffffffffffffffffffffffffffffffffffff021916908373ffffffffffffffffffffffffffffffffffffffff1602179055506000809054906101000a900473ffffffffffffffffffffffffffffffffffffffff166101f56102bb565b808273ffffffffffffffffffffffffffffffffffffffff1673ffffffffffffffffffffffffffffffffffffffff168152602001915050604051809103906000f080158015610247573d6000803e3d6000fd5b50600360006101000a81548173ffffffffffffffffffffffffffffffffffffffff021916908373ffffffffffffffffffffffffffffffffffffffff16021790555066071afd498d00006004819055506102cb565b604051613d85806106b083390190565b60405161192e8061443583390190565b60405161159580615d6383390190565b6103d6806102da6000396000f3fe608060405260043610610078576000357c0100000000000000000000000000000000000000000000000000000000900463ffffffff1680635ed097f31461007d5780636455e5ac146100a857806368db65a4146100ff5780638da5cb5b14610156578063a5b8f59d146101ad578063c9286d57146101e8575b600080fd5b34801561008957600080fd5b5061009261023f565b6040518082815260200191505060405180910390f35b3480156100b457600080fd5b506100bd610245565b604051808273ffffffffffffffffffffffffffffffffffffffff1673ffffffffffffffffffffffffffffffffffffffff16815260200191505060405180910390f35b34801561010b57600080fd5b5061011461026b565b604051808273ffffffffffffffffffffffffffffffffffffffff1673ffffffffffffffffffffffffffffffffffffffff16815260200191505060405180910390f35b34801561016257600080fd5b5061016b610291565b604051808273ffffffffffffffffffffffffffffffffffffffff1673ffffffffffffffffffffffffffffffffffffffff16815260200191505060405180910390f35b3480156101b957600080fd5b506101e6600480360360208110156101d057600080fd5b81019080803590602001909291905050506102b6565b005b3480156101f457600080fd5b506101fd610384565b604051808273ffffffffffffffffffffffffffffffffffffffff1673ffffffffffffffffffffffffffffffffffffffff16815260200191505060405180910390f35b60045481565b600260009054906101000a900473ffffffffffffffffffffffffffffffffffffffff1681565b600160009054906101000a900473ffffffffffffffffffffffffffffffffffffffff1681565b6000809054906101000a900473ffffffffffffffffffffffffffffffffffffffff1681565b6000809054906101000a900473ffffffffffffffffffffffffffffffffffffffff1673ffffffffffffffffffffffffffffffffffffffff163373ffffffffffffffffffffffffffffffffffffffff1614151561037a576040517f08c379a00000000000000000000000000000000000000000000000000000000081526004018080602001828103825260158152602001807f796f7520617265206e6f7420746865206f776e6572000000000000000000000081525060200191505060405180910390fd5b8060048190555050565b600360009054906101000a900473ffffffffffffffffffffffffffffffffffffffff168156fea165627a7a72305820a2d7dc2d0906e656e9e2434bec5ffe6fd3d6d17db640b70ebe6e89ff1c5cd4af0029608060405234801561001057600080fd5b50604051602080613d858339810180604052602081101561003057600080fd5b8101908080519060200190929190505050806000806101000a81548173ffffffffffffffffffffffffffffffffffffffff021916908373ffffffffffffffffffffffffffffffffffffffff16021790555033600160006101000a81548173ffffffffffffffffffffffffffffffffffffffff021916908373ffffffffffffffffffffffffffffffffffffffff160217905550600060058190555050613cab806100da6000396000f3fe608060405260043610610083576000357c0100000000000000000000000000000000000000000000000000000000900463ffffffff16806305862d9c146100885780631f2e3f6c1461011957806379a4fa27146102895780638da5cb5b146102f2578063aec8d12914610349578063b11b91e6146103c4578063ff9e9180146103ef575b600080fd5b34801561009457600080fd5b506100d7600480360360208110156100ab57600080fd5b81019080803573ffffffffffffffffffffffffffffffffffffffff169060200190929190505050610480565b604051808273ffffffffffffffffffffffffffffffffffffffff1673ffffffffffffffffffffffffffffffffffffffff16815260200191505060405180910390f35b34801561012557600080fd5b506102476004803603606081101561013c57600080fd5b810190808035906020019064010000000081111561015957600080fd5b82018360208201111561016b57600080fd5b8035906020019184600183028401116401000000008311171561018d57600080fd5b9091929391929390803590602001906401000000008111156101ae57600080fd5b8201836020820111156101c057600080fd5b803590602001918460018302840111640100000000831117156101e257600080fd5b90919293919293908035906020019064010000000081111561020357600080fd5b82018360208201111561021557600080fd5b8035906020019184600183028401116401000000008311171561023757600080fd5b90919293919293905050506104b3565b604051808273ffffffffffffffffffffffffffffffffffffffff1673ffffffffffffffffffffffffffffffffffffffff16815260200191505060405180910390f35b34801561029557600080fd5b506102d8600480360360208110156102ac57600080fd5b81019080803573ffffffffffffffffffffffffffffffffffffffff169060200190929190505050610850565b604051808215151515815260200191505060405180910390f35b3480156102fe57600080fd5b506103076108f9565b604051808273ffffffffffffffffffffffffffffffffffffffff1673ffffffffffffffffffffffffffffffffffffffff16815260200191505060405180910390f35b34801561035557600080fd5b506103826004803603602081101561036c57600080fd5b810190808035906020019092919050505061091e565b604051808273ffffffffffffffffffffffffffffffffffffffff1673ffffffffffffffffffffffffffffffffffffffff16815260200191505060405180910390f35b3480156103d057600080fd5b506103d9610951565b6040518082815260200191505060405180910390f35b3480156103fb57600080fd5b5061043e6004803603602081101561041257600080fd5b81019080803573ffffffffffffffffffffffffffffffffffffffff169060200190929190505050610957565b604051808273ffffffffffffffffffffffffffffffffffffffff1673ffffffffffffffffffffffffffffffffffffffff16815260200191505060405180910390f35b60046020528060005260406000206000915054906101000a900473ffffffffffffffffffffffffffffffffffffffff1681565b60008073ffffffffffffffffffffffffffffffffffffffff16600460003373ffffffffffffffffffffffffffffffffffffffff1673ffffffffffffffffffffffffffffffffffffffff16815260200190815260200160002060009054906101000a900473ffffffffffffffffffffffffffffffffffffffff1673ffffffffffffffffffffffffffffffffffffffff1614151561054e57600080fd5b60008787905011151561056057600080fd5b60008585905011151561057257600080fd5b60008383905011151561058457600080fd5b6000600160009054906101000a900473ffffffffffffffffffffffffffffffffffffffff16336005548a8a8a8a8a8a6105bb61098a565b808a73ffffffffffffffffffffffffffffffffffffffff1673ffffffffffffffffffffffffffffffffffffffff1681526020018973ffffffffffffffffffffffffffffffffffffffff1673ffffffffffffffffffffffffffffffffffffffff16815260200188815260200180602001806020018060200184810384528a8a82818152602001925080828437600081840152601f19601f8201169050808301925050508481038352888882818152602001925080828437600081840152601f19601f8201169050808301925050508481038252868682818152602001925080828437600081840152601f19601f8201169050808301925050509c50505050505050505050505050604051809103906000f0801580156106dd573d6000803e3d6000fd5b5090508060026000600554815260200190815260200160002060006101000a81548173ffffffffffffffffffffffffffffffffffffffff021916908373ffffffffffffffffffffffffffffffffffffffff16021790555060056000815480929190600101919050555033600360008373ffffffffffffffffffffffffffffffffffffffff1673ffffffffffffffffffffffffffffffffffffffff16815260200190815260200160002060006101000a81548173ffffffffffffffffffffffffffffffffffffffff021916908373ffffffffffffffffffffffffffffffffffffffff16021790555080600460003373ffffffffffffffffffffffffffffffffffffffff1673ffffffffffffffffffffffffffffffffffffffff16815260200190815260200160002060006101000a81548173ffffffffffffffffffffffffffffffffffffffff021916908373ffffffffffffffffffffffffffffffffffffffff160217905550809150509695505050505050565b60008073ffffffffffffffffffffffffffffffffffffffff16600360008473ffffffffffffffffffffffffffffffffffffffff1673ffffffffffffffffffffffffffffffffffffffff16815260200190815260200160002060009054906101000a900473ffffffffffffffffffffffffffffffffffffffff1673ffffffffffffffffffffffffffffffffffffffff161415156108ef57600190506108f4565b600090505b919050565b6000809054906101000a900473ffffffffffffffffffffffffffffffffffffffff1681565b60026020528060005260406000206000915054906101000a900473ffffffffffffffffffffffffffffffffffffffff1681565b60055481565b60036020528060005260406000206000915054906101000a900473ffffffffffffffffffffffffffffffffffffffff1681565b6040516132e58061099b8339019056fe60806040523480156200001157600080fd5b50604051620032e5380380620032e5833981018060405260c08110156200003757600080fd5b8101908080519060200190929190805190602001909291908051906020019092919080516401000000008111156200006e57600080fd5b828101905060208101848111156200008557600080fd5b8151856001820283011164010000000082111715620000a357600080fd5b50509291906020018051640100000000811115620000c057600080fd5b82810190506020810184811115620000d757600080fd5b8151856001820283011164010000000082111715620000f557600080fd5b505092919060200180516401000000008111156200011257600080fd5b828101905060208101848111156200012957600080fd5b81518560018202830111640100000000821117156200014757600080fd5b50509291905050508360008190555082600190805190602001906200016e92919062000280565b5081600290805190602001906200018792919062000280565b508060039080519060200190620001a092919062000280565b5060006008819055506000600a8190555085600660006101000a81548173ffffffffffffffffffffffffffffffffffffffff021916908373ffffffffffffffffffffffffffffffffffffffff16021790555084600560006101000a81548173ffffffffffffffffffffffffffffffffffffffff021916908373ffffffffffffffffffffffffffffffffffffffff16021790555033600760006101000a81548173ffffffffffffffffffffffffffffffffffffffff021916908373ffffffffffffffffffffffffffffffffffffffff1602179055505050505050506200032f565b828054600181600116156101000203166002900490600052602060002090601f016020900481019282601f10620002c357805160ff1916838001178555620002f4565b82800160010185558215620002f4579182015b82811115620002f3578251825591602001919060010190620002d6565b5b50905062000303919062000307565b5090565b6200032c91905b80821115620003285760008160009055506001016200030e565b5090565b90565b612fa6806200033f6000396000f3fe60806040526004361062000127576000357c0100000000000000000000000000000000000000000000000000000000900463ffffffff16806306fdde031462000129578063125ba97714620001bf5780631b9265b814620001ed5780631d83440914620001f957806321be5e4e14620002275780633d939a4914620002b45780633e92c46814620002e25780634b24ea4714620003c7578063516f279e146200042157806366e1dfa314620004b757806368db65a4146200059757806376af633c14620005f157806380f474f6146200068757806382e4081314620006b55780638da5cb5b14620006fe578063a85c38ef1462000758578063af640d0f14620007e2578063cffb703c1462000810578063f943eecd146200086a578063f9a9525e14620008c4575b005b3480156200013657600080fd5b506200014162000997565b6040518080602001828103825283818151815260200191508051906020019080838360005b838110156200018357808201518184015260208101905062000166565b50505050905090810190601f168015620001b15780820380516001836020036101000a031916815260200191505b509250505060405180910390f35b348015620001cc57600080fd5b50620001d762000a39565b6040518082815260200191505060405180910390f35b620001f762000a43565b005b3480156200020657600080fd5b506200021162000abf565b6040518082815260200191505060405180910390f35b3480156200023457600080fd5b50620002b2600480360360208110156200024d57600080fd5b81019080803590602001906401000000008111156200026b57600080fd5b8201836020820111156200027e57600080fd5b80359060200191846020830284011164010000000083111715620002a157600080fd5b909192939192939050505062000ac5565b005b348015620002c157600080fd5b50620002cc62000c97565b6040518082815260200191505060405180910390f35b348015620002ef57600080fd5b50620003c5600480360360408110156200030857600080fd5b81019080803590602001906401000000008111156200032657600080fd5b8201836020820111156200033957600080fd5b803590602001918460208302840111640100000000831117156200035c57600080fd5b9091929391929390803590602001906401000000008111156200037e57600080fd5b8201836020820111156200039157600080fd5b80359060200191846020830284011164010000000083111715620003b457600080fd5b909192939192939050505062000c9d565b005b348015620003d457600080fd5b50620003df62000db3565b604051808273ffffffffffffffffffffffffffffffffffffffff1673ffffffffffffffffffffffffffffffffffffffff16815260200191505060405180910390f35b3480156200042e57600080fd5b506200043962000dd9565b6040518080602001828103825283818151815260200191508051906020019080838360005b838110156200047b5780820151818401526020810190506200045e565b50505050905090810190601f168015620004a95780820380516001836020036101000a031916815260200191505b509250505060405180910390f35b348015620004c457600080fd5b506200058160048036036020811015620004dd57600080fd5b8101908080359060200190640100000000811115620004fb57600080fd5b8201836020820111156200050e57600080fd5b803590602001918460208302840111640100000000831117156200053157600080fd5b919080806020026020016040519081016040528093929190818152602001838360200280828437600081840152601f19601f82011690508083019250505050505050919291929050505062000e7b565b6040518082815260200191505060405180910390f35b348015620005a457600080fd5b50620005af62000edd565b604051808273ffffffffffffffffffffffffffffffffffffffff1673ffffffffffffffffffffffffffffffffffffffff16815260200191505060405180910390f35b348015620005fe57600080fd5b506200060962000f03565b6040518080602001828103825283818151815260200191508051906020019080838360005b838110156200064b5780820151818401526020810190506200062e565b50505050905090810190601f168015620006795780820380516001836020036101000a031916815260200191505b509250505060405180910390f35b3480156200069457600080fd5b506200069f62000fa5565b6040518082815260200191505060405180910390f35b348015620006c257600080fd5b50620006fc60048036036040811015620006db57600080fd5b81019080803590602001909291908035906020019092919050505062000fab565b005b3480156200070b57600080fd5b5062000716620010cb565b604051808273ffffffffffffffffffffffffffffffffffffffff1673ffffffffffffffffffffffffffffffffffffffff16815260200191505060405180910390f35b3480156200076557600080fd5b5062000795600480360360208110156200077e57600080fd5b8101908080359060200190929190505050620010f1565b60405180831515151581526020018273ffffffffffffffffffffffffffffffffffffffff1673ffffffffffffffffffffffffffffffffffffffff1681526020019250505060405180910390f35b348015620007ef57600080fd5b50620007fa62001142565b6040518082815260200191505060405180910390f35b3480156200081d57600080fd5b506200084d600480360360208110156200083657600080fd5b810190808035906020019092919050505062001148565b604051808381526020018281526020019250505060405180910390f35b3480156200087757600080fd5b50620008a7600480360360208110156200089057600080fd5b81019080803590602001909291905050506200116c565b604051808381526020018281526020019250505060405180910390f35b6200095560048036036060811015620008dc57600080fd5b8101908080359060200190640100000000811115620008fa57600080fd5b8201836020820111156200090d57600080fd5b803590602001918460208302840111640100000000831117156200093057600080fd5b90919293919293908035906020019092919080359060200190929190505050620011a6565b604051808273ffffffffffffffffffffffffffffffffffffffff1673ffffffffffffffffffffffffffffffffffffffff16815260200191505060405180910390f35b60018054600181600116156101000203166002900480601f01602080910402602001604051908101604052809291908181526020018280546001816001161561010002031660029004801562000a315780601f1062000a055761010080835404028352916020019162000a31565b820191906000526020600020905b81548152906001019060200180831162000a1357829003601f168201915b505050505081565b6000600b54905090565b34600a60008282540192505081905550600560009054906101000a900473ffffffffffffffffffffffffffffffffffffffff1673ffffffffffffffffffffffffffffffffffffffff166108fc349081150290604051600060405180830381858888f1935050505015801562000abc573d6000803e3d6000fd5b50565b60085481565b600560009054906101000a900473ffffffffffffffffffffffffffffffffffffffff1673ffffffffffffffffffffffffffffffffffffffff163373ffffffffffffffffffffffffffffffffffffffff1614151562000b2257600080fd5b60008282905011151562000b3557600080fd5b600082829050600b5403905060608160405190808252806020026020018201604052801562000b735781602001602082028038833980820191505090505b509050600080905060008090505b600b5481101562000c135760006001905060008090505b8787905081101562000bd557878782818110151562000bb357fe5b9050602002013583141562000bc757600091505b808060010191505062000b98565b50801562000c045781848481518110151562000bed57fe5b906020019060200201818152505082806001019350505b50808060010191505062000b81565b5060008090505b825181101562000c8757600c6000848381518110151562000c3757fe5b906020019060200201518152602001908152602001600020600c60008381526020019081526020016000206000820154816000015560018201548160010155905050808060010191505062000c1a565b508151600b819055505050505050565b600b5481565b600560009054906101000a900473ffffffffffffffffffffffffffffffffffffffff1673ffffffffffffffffffffffffffffffffffffffff163373ffffffffffffffffffffffffffffffffffffffff1614151562000cfa57600080fd5b818190508484905014151562000d0f57600080fd5b60008090505b8484905081101562000dac576040805190810160405280868684818110151562000d3b57fe5b905060200201358152602001848484818110151562000d5657fe5b90506020020135815250600c6000600b5481526020019081526020016000206000820151816000015560208201518160010155905050600b60008154809291906001019190505550808060010191505062000d15565b5050505050565b600660009054906101000a900473ffffffffffffffffffffffffffffffffffffffff1681565b60028054600181600116156101000203166002900480601f01602080910402602001604051908101604052809291908181526020018280546001816001161561010002031660029004801562000e735780601f1062000e475761010080835404028352916020019162000e73565b820191906000526020600020905b81548152906001019060200180831162000e5557829003601f168201915b505050505081565b6000806000905060008090505b835181101562000ed357600c6000858381518110151562000ea557fe5b9060200190602002015181526020019081526020016000206001015482019150808060010191505062000e88565b5080915050919050565b600760009054906101000a900473ffffffffffffffffffffffffffffffffffffffff1681565b60038054600181600116156101000203166002900480601f01602080910402602001604051908101604052809291908181526020018280546001816001161561010002031660029004801562000f9d5780601f1062000f715761010080835404028352916020019162000f9d565b820191906000526020600020905b81548152906001019060200180831162000f7f57829003601f168201915b505050505081565b60045481565b600560009054906101000a900473ffffffffffffffffffffffffffffffffffffffff1673ffffffffffffffffffffffffffffffffffffffff163373ffffffffffffffffffffffffffffffffffffffff161415156200100857600080fd5b6009600083815260200190815260200160002060000160019054906101000a900473ffffffffffffffffffffffffffffffffffffffff1673ffffffffffffffffffffffffffffffffffffffff1663e9132c42826040518263ffffffff167c010000000000000000000000000000000000000000000000000000000002815260040180828152602001915050600060405180830381600087803b158015620010ae57600080fd5b505af1158015620010c3573d6000803e3d6000fd5b505050505050565b600560009054906101000a900473ffffffffffffffffffffffffffffffffffffffff1681565b60096020528060005260406000206000915090508060000160009054906101000a900460ff16908060000160019054906101000a900473ffffffffffffffffffffffffffffffffffffffff16905082565b60005481565b600c6020528060005260406000206000915090508060000154908060010154905082565b600080600c600084815260200190815260200160002060000154600c60008581526020019081526020016000206001015491509150915091565b6000600660009054906101000a900473ffffffffffffffffffffffffffffffffffffffff1673ffffffffffffffffffffffffffffffffffffffff16636455e5ac6040518163ffffffff167c010000000000000000000000000000000000000000000000000000000002815260040160206040518083038186803b1580156200122d57600080fd5b505afa15801562001242573d6000803e3d6000fd5b505050506040513d60208110156200125957600080fd5b810190808051906020019092919050505073ffffffffffffffffffffffffffffffffffffffff1663689b0098336040518263ffffffff167c0100000000000000000000000000000000000000000000000000000000028152600401808273ffffffffffffffffffffffffffffffffffffffff1673ffffffffffffffffffffffffffffffffffffffff16815260200191505060206040518083038186803b1580156200130357600080fd5b505afa15801562001318573d6000803e3d6000fd5b505050506040513d60208110156200132f57600080fd5b81019080805190602001909291905050501515620013b5576040517f08c379a00000000000000000000000000000000000000000000000000000000081526004018080602001828103825260158152602001807f437573746f6d657220646f65736e74206578697374000000000000000000000081525060200191505060405180910390fd5b606085859050604051908082528060200260200182016040528015620013ea5781602001602082028038833980820191505090505b509050606086869050604051908082528060200260200182016040528015620014225781602001602082028038833980820191505090505b50905060008090505b878790508110156200158e57600088888381811015156200144857fe5b9050602002013510158015620014745750600b5488888381811015156200146b57fe5b90506020020135105b156200151257600c600089898481811015156200148d57fe5b905060200201358152602001908152602001600020600001548282815181101515620014b557fe5b9060200190602002018181525050600c60008989848181101515620014d657fe5b905060200201358152602001908152602001600020600101548382815181101515620014fe57fe5b906020019060200201818152505062001580565b6040517f08c379a000000000000000000000000000000000000000000000000000000000815260040180806020018281038252600d8152602001807f496e76616c6964204974656d730000000000000000000000000000000000000081525060200191505060405180910390fd5b80806001019150506200142b565b5060003460085483858989600660009054906101000a900473ffffffffffffffffffffffffffffffffffffffff1633620015c762001802565b8088815260200180602001806020018781526020018681526020018573ffffffffffffffffffffffffffffffffffffffff1673ffffffffffffffffffffffffffffffffffffffff1681526020018473ffffffffffffffffffffffffffffffffffffffff1673ffffffffffffffffffffffffffffffffffffffff168152602001838103835289818151815260200191508051906020019060200280838360005b838110156200168357808201518184015260208101905062001666565b50505050905001838103825288818151815260200191508051906020019060200280838360005b83811015620016c7578082015181840152602081019050620016aa565b5050505090500199505050505050505050506040518091039082f080158015620016f5573d6000803e3d6000fd5b509050905060408051908101604052806001151581526020018273ffffffffffffffffffffffffffffffffffffffff1681525060096000600854815260200190815260200160002060008201518160000160006101000a81548160ff02191690831515021790555060208201518160000160016101000a81548173ffffffffffffffffffffffffffffffffffffffff021916908373ffffffffffffffffffffffffffffffffffffffff16021790555090505060086000815480929190600101919050555060096000600160085403815260200190815260200160002060000160019054906101000a900473ffffffffffffffffffffffffffffffffffffffff169350505050949350505050565b60405161176780620018148339019056fe60806040526000600460006101000a81548160ff0219169083151502179055506000600460016101000a81548160ff0219169083151502179055506040516200176738038062001767833981018060405260e08110156200005f57600080fd5b810190808051906020019092919080516401000000008111156200008257600080fd5b828101905060208101848111156200009957600080fd5b8151856020820283011164010000000082111715620000b757600080fd5b50509291906020018051640100000000811115620000d457600080fd5b82810190506020810184811115620000eb57600080fd5b81518560208202830111640100000000821117156200010957600080fd5b5050929190602001805190602001909291908051906020019092919080519060200190929190805190602001909291905050508173ffffffffffffffffffffffffffffffffffffffff166368db65a46040518163ffffffff167c010000000000000000000000000000000000000000000000000000000002815260040160206040518083038186803b1580156200019f57600080fd5b505afa158015620001b4573d6000803e3d6000fd5b505050506040513d6020811015620001cb57600080fd5b810190808051906020019092919050505073ffffffffffffffffffffffffffffffffffffffff166379a4fa27336040518263ffffffff167c0100000000000000000000000000000000000000000000000000000000028152600401808273ffffffffffffffffffffffffffffffffffffffff1673ffffffffffffffffffffffffffffffffffffffff16815260200191505060206040518083038186803b1580156200027557600080fd5b505afa1580156200028a573d6000803e3d6000fd5b505050506040513d6020811015620002a157600080fd5b810190808051906020019092919050505015156200034d576040517f08c379a000000000000000000000000000000000000000000000000000000000815260040180806020018281038252603d8152602001807f617474656d7074656420746f206d616b65206f726465722066726f6d2061646481526020017f726573732074686174206973206e6f7420612072657374617572616e7400000081525060400191505060405180910390fd5b84518651141515620003ed576040517f08c379a00000000000000000000000000000000000000000000000000000000081526004018080602001828103825260238152602001807f696e76616c6964206d61746368696e67206f66206974656d7320746f2070726981526020017f636573000000000000000000000000000000000000000000000000000000000081525060400191505060405180910390fd5b8660038190555033600460026101000a81548173ffffffffffffffffffffffffffffffffffffffff021916908373ffffffffffffffffffffffffffffffffffffffff16021790555080600660006101000a81548173ffffffffffffffffffffffffffffffffffffffff021916908373ffffffffffffffffffffffffffffffffffffffff160217905550826008819055504260098190555081600760006101000a81548173ffffffffffffffffffffffffffffffffffffffff021916908373ffffffffffffffffffffffffffffffffffffffff1602179055506000600a819055506000600c8190555060008090505b86518110156200059e5760408051908101604052808883815181101515620004ff57fe5b90602001906020020151815260200187838151811015156200051d57fe5b90602001906020020151815250600d6000600c548152602001908152602001600020600082015181600001556020820151816001015590505085818151811015156200056557fe5b90602001906020020151600a60008282540192505081905550600c600081548092919060010191905055508080600101915050620004db565b5083600b81905550600b54600a540134101515156200064b576040517f08c379a00000000000000000000000000000000000000000000000000000000081526004018080602001828103825260238152602001807f6e6f7420656e6f7567682065746865722073656e7420746f20746865206f726481526020017f657220000000000000000000000000000000000000000000000000000000000081525060400191505060405180910390fd5b600160028111156200065957fe5b600281905550600060038111156200066d57fe5b600081905550600060038111156200068157fe5b600181905550505050505050506110c9806200069e6000396000f3fe6080604052600436106100e6576000357c0100000000000000000000000000000000000000000000000000000000900463ffffffff16806312065fe0146100eb5780632799276d146101165780633129e7731461014157806332940816146101975780633733d9f5146101c25780633e3ca4d3146101ed57806353c0a006146102185780637aada1341461026f578063a14b7e681461029a578063af640d0f146102c5578063bd3e19d4146102f0578063bfb231d21461031b578063c7529f0c14610371578063e9132c421461037b578063ed168058146103a9578063f3cc0f1f14610400575b600080fd5b3480156100f757600080fd5b5061010061042b565b6040518082815260200191505060405180910390f35b34801561012257600080fd5b5061012b61044a565b6040518082815260200191505060405180910390f35b34801561014d57600080fd5b5061017a6004803603602081101561016457600080fd5b8101908080359060200190929190505050610450565b604051808381526020018281526020019250505060405180910390f35b3480156101a357600080fd5b506101ac61048a565b6040518082815260200191505060405180910390f35b3480156101ce57600080fd5b506101d7610490565b6040518082815260200191505060405180910390f35b3480156101f957600080fd5b506102026105a6565b6040518082815260200191505060405180910390f35b34801561022457600080fd5b5061022d6105ac565b604051808273ffffffffffffffffffffffffffffffffffffffff1673ffffffffffffffffffffffffffffffffffffffff16815260200191505060405180910390f35b34801561027b57600080fd5b506102846105d2565b6040518082815260200191505060405180910390f35b3480156102a657600080fd5b506102af6105d8565b6040518082815260200191505060405180910390f35b3480156102d157600080fd5b506102da6105de565b6040518082815260200191505060405180910390f35b3480156102fc57600080fd5b506103056105e4565b6040518082815260200191505060405180910390f35b34801561032757600080fd5b506103546004803603602081101561033e57600080fd5b81019080803590602001909291905050506105ee565b604051808381526020018281526020019250505060405180910390f35b610379610612565b005b6103a76004803603602081101561039157600080fd5b8101908080359060200190929190505050610816565b005b3480156103b557600080fd5b506103be611071565b604051808273ffffffffffffffffffffffffffffffffffffffff1673ffffffffffffffffffffffffffffffffffffffff16815260200191505060405180910390f35b34801561040c57600080fd5b50610415611097565b6040518082815260200191505060405180910390f35b60003073ffffffffffffffffffffffffffffffffffffffff1631905090565b600c5481565b600080600d600084815260200190815260200160002060000154600d60008581526020019081526020016000206001015491509150915091565b60015481565b60003373ffffffffffffffffffffffffffffffffffffffff16600660009054906101000a900473ffffffffffffffffffffffffffffffffffffffff1673ffffffffffffffffffffffffffffffffffffffff16148061053b57503373ffffffffffffffffffffffffffffffffffffffff16600460029054906101000a900473ffffffffffffffffffffffffffffffffffffffff1673ffffffffffffffffffffffffffffffffffffffff16145b8061059357503373ffffffffffffffffffffffffffffffffffffffff16600560009054906101000a900473ffffffffffffffffffffffffffffffffffffffff1673ffffffffffffffffffffffffffffffffffffffff16145b151561059e57600080fd5b600854905090565b60005481565b600560009054906101000a900473ffffffffffffffffffffffffffffffffffffffff1681565b60095481565b60025481565b60035481565b6000600a54905090565b600d6020528060005260406000206000915090508060000154908060010154905082565b600760009054906101000a900473ffffffffffffffffffffffffffffffffffffffff1673ffffffffffffffffffffffffffffffffffffffff1663c9286d576040518163ffffffff167c010000000000000000000000000000000000000000000000000000000002815260040160206040518083038186803b15801561069657600080fd5b505afa1580156106aa573d6000803e3d6000fd5b505050506040513d60208110156106c057600080fd5b810190808051906020019092919050505073ffffffffffffffffffffffffffffffffffffffff166313952670336040518263ffffffff167c0100000000000000000000000000000000000000000000000000000000028152600401808273ffffffffffffffffffffffffffffffffffffffff1673ffffffffffffffffffffffffffffffffffffffff16815260200191505060206040518083038186803b15801561076957600080fd5b505afa15801561077d573d6000803e3d6000fd5b505050506040513d602081101561079357600080fd5b810190808051906020019092919050505015156107af57600080fd5b600a5434101515156107c057600080fd5b600160038111156107cd57fe5b60008190555033600560006101000a81548173ffffffffffffffffffffffffffffffffffffffff021916908373ffffffffffffffffffffffffffffffffffffffff160217905550565b600560009054906101000a900473ffffffffffffffffffffffffffffffffffffffff1673ffffffffffffffffffffffffffffffffffffffff163373ffffffffffffffffffffffffffffffffffffffff1614806108bf5750600460029054906101000a900473ffffffffffffffffffffffffffffffffffffffff1673ffffffffffffffffffffffffffffffffffffffff163373ffffffffffffffffffffffffffffffffffffffff16145b806109175750600660009054906101000a900473ffffffffffffffffffffffffffffffffffffffff1673ffffffffffffffffffffffffffffffffffffffff163373ffffffffffffffffffffffffffffffffffffffff16145b15156109d7576040517f08c379a00000000000000000000000000000000000000000000000000000000081526004018080602001828103825260508152602001807f596f7520646f6e742068617665207065726d697373696f6e20746f207365652081526020017f74686973206f726465722c2064696420796f752067657420746865206f72646581526020017f7220616464726573732077726f6e673f0000000000000000000000000000000081525060600191505060405180910390fd5b600560009054906101000a900473ffffffffffffffffffffffffffffffffffffffff1673ffffffffffffffffffffffffffffffffffffffff163373ffffffffffffffffffffffffffffffffffffffff161415610b375760005481111515610aa6576040517f08c379a000000000000000000000000000000000000000000000000000000000815260040180806020018281038252601c8152602001807f7374617475732063616e6e6f74206265206261636b747261636b65640000000081525060200191505060405180910390fd5b60038111158015610ab75750600081115b1515610b2b576040517f08c379a00000000000000000000000000000000000000000000000000000000081526004018080602001828103825260168152602001807f676976656e20537461747573206e6f742076616c69640000000000000000000081525060200191505060405180910390fd5b80600081905550610e8d565b600460029054906101000a900473ffffffffffffffffffffffffffffffffffffffff1673ffffffffffffffffffffffffffffffffffffffff163373ffffffffffffffffffffffffffffffffffffffff161415610c975760015481111515610c06576040517f08c379a000000000000000000000000000000000000000000000000000000000815260040180806020018281038252601c8152602001807f7374617475732063616e6e6f74206265206261636b747261636b65640000000081525060200191505060405180910390fd5b60038111158015610c175750600081115b1515610c8b576040517f08c379a00000000000000000000000000000000000000000000000000000000081526004018080602001828103825260168152602001807f676976656e20537461747573206e6f742076616c69640000000000000000000081525060200191505060405180910390fd5b80600181905550610e8c565b600660009054906101000a900473ffffffffffffffffffffffffffffffffffffffff1673ffffffffffffffffffffffffffffffffffffffff163373ffffffffffffffffffffffffffffffffffffffff161415610df75760025481111515610d66576040517f08c379a000000000000000000000000000000000000000000000000000000000815260040180806020018281038252601c8152602001807f7374617475732063616e6e6f74206265206261636b747261636b65640000000081525060200191505060405180910390fd5b60028111158015610d775750600081115b1515610deb576040517f08c379a00000000000000000000000000000000000000000000000000000000081526004018080602001828103825260168152602001807f676976656e20537461747573206e6f742076616c69640000000000000000000081525060200191505060405180910390fd5b80600281905550610e8b565b6040517f08c379a00000000000000000000000000000000000000000000000000000000081526004018080602001828103825260358152602001807f4572726f723a20756e617574686f72697365726420616464726573732061636381526020017f657373696e67207365744f72646572537461747573000000000000000000000081525060400191505060405180910390fd5b5b5b600460009054906101000a900460ff16158015610eac57506002600054145b8015610eba57506003600154145b15610f7c57600460029054906101000a900473ffffffffffffffffffffffffffffffffffffffff1673ffffffffffffffffffffffffffffffffffffffff16631b9265b8600a546040518263ffffffff167c01000000000000000000000000000000000000000000000000000000000281526004016000604051808303818588803b158015610f4757600080fd5b505af1158015610f5b573d6000803e3d6000fd5b50505050506001600460006101000a81548160ff0219169083151502179055505b600460019054906101000a900460ff16158015610f9b57506003600054145b8015610fa8575060028054145b1561106e57600560009054906101000a900473ffffffffffffffffffffffffffffffffffffffff1673ffffffffffffffffffffffffffffffffffffffff16631b9265b8600b54600a54016040518263ffffffff167c01000000000000000000000000000000000000000000000000000000000281526004016000604051808303818588803b15801561103957600080fd5b505af115801561104d573d6000803e3d6000fd5b50505050506001600460016101000a81548160ff0219169083151502179055505b50565b600460029054906101000a900473ffffffffffffffffffffffffffffffffffffffff1681565b600b548156fea165627a7a72305820a7d9aff574f6882b7034c5b10e1a71e33c3a7d888e0fa700756bc8641f276de40029a165627a7a723058206f2d83ab330fe677743c539a52f30e3b37185b1b598443cfd65f5a6f9290e2760029a165627a7a72305820aabf0660958919242a41275c64f74f67624461c1f03cc8d21a192870833830890029608060405234801561001057600080fd5b5060405160208061192e8339810180604052602081101561003057600080fd5b810190808051906020019092919050505033600160006101000a81548173ffffffffffffffffffffffffffffffffffffffff021916908373ffffffffffffffffffffffffffffffffffffffff160217905550806000806101000a81548173ffffffffffffffffffffffffffffffffffffffff021916908373ffffffffffffffffffffffffffffffffffffffff160217905550600060028190555050611854806100da6000396000f3fe608060405260043610610083576000357c0100000000000000000000000000000000000000000000000000000000900463ffffffff168063483ac6f014610088578063689b0098146101a357806373ad8b811461020c5780638da5cb5b1461029d5780639757e8a3146102f4578063c71d288b1461031f578063f77c47911461039a575b600080fd5b34801561009457600080fd5b50610161600480360360408110156100ab57600080fd5b81019080803590602001906401000000008111156100c857600080fd5b8201836020820111156100da57600080fd5b803590602001918460018302840111640100000000831117156100fc57600080fd5b90919293919293908035906020019064010000000081111561011d57600080fd5b82018360208201111561012f57600080fd5b8035906020019184600183028401116401000000008311171561015157600080fd5b90919293919293905050506103f1565b604051808273ffffffffffffffffffffffffffffffffffffffff1673ffffffffffffffffffffffffffffffffffffffff16815260200191505060405180910390f35b3480156101af57600080fd5b506101f2600480360360208110156101c657600080fd5b81019080803573ffffffffffffffffffffffffffffffffffffffff169060200190929190505050610722565b604051808215151515815260200191505060405180910390f35b34801561021857600080fd5b5061025b6004803603602081101561022f57600080fd5b81019080803573ffffffffffffffffffffffffffffffffffffffff1690602001909291905050506107cb565b604051808273ffffffffffffffffffffffffffffffffffffffff1673ffffffffffffffffffffffffffffffffffffffff16815260200191505060405180910390f35b3480156102a957600080fd5b506102b26107fe565b604051808273ffffffffffffffffffffffffffffffffffffffff1673ffffffffffffffffffffffffffffffffffffffff16815260200191505060405180910390f35b34801561030057600080fd5b50610309610823565b6040518082815260200191505060405180910390f35b34801561032b57600080fd5b506103586004803603602081101561034257600080fd5b8101908080359060200190929190505050610829565b604051808273ffffffffffffffffffffffffffffffffffffffff1673ffffffffffffffffffffffffffffffffffffffff16815260200191505060405180910390f35b3480156103a657600080fd5b506103af61085c565b604051808273ffffffffffffffffffffffffffffffffffffffff1673ffffffffffffffffffffffffffffffffffffffff16815260200191505060405180910390f35b60008073ffffffffffffffffffffffffffffffffffffffff16600560003373ffffffffffffffffffffffffffffffffffffffff1673ffffffffffffffffffffffffffffffffffffffff16815260200190815260200160002060009054906101000a900473ffffffffffffffffffffffffffffffffffffffff1673ffffffffffffffffffffffffffffffffffffffff1614151561048c57600080fd5b60006002548686868633600160009054906101000a900473ffffffffffffffffffffffffffffffffffffffff166104c1610882565b8088815260200180602001806020018573ffffffffffffffffffffffffffffffffffffffff1673ffffffffffffffffffffffffffffffffffffffff1681526020018473ffffffffffffffffffffffffffffffffffffffff1673ffffffffffffffffffffffffffffffffffffffff1681526020018381038352898982818152602001925080828437600081840152601f19601f8201169050808301925050508381038252878782818152602001925080828437600081840152601f19601f8201169050808301925050509950505050505050505050604051809103906000f0801580156105b1573d6000803e3d6000fd5b50905033600460008373ffffffffffffffffffffffffffffffffffffffff1673ffffffffffffffffffffffffffffffffffffffff16815260200190815260200160002060006101000a81548173ffffffffffffffffffffffffffffffffffffffff021916908373ffffffffffffffffffffffffffffffffffffffff16021790555080600560003373ffffffffffffffffffffffffffffffffffffffff1673ffffffffffffffffffffffffffffffffffffffff16815260200190815260200160002060006101000a81548173ffffffffffffffffffffffffffffffffffffffff021916908373ffffffffffffffffffffffffffffffffffffffff1602179055508060036000600254815260200190815260200160002060006101000a81548173ffffffffffffffffffffffffffffffffffffffff021916908373ffffffffffffffffffffffffffffffffffffffff16021790555060026000815480929190600101919050555080915050949350505050565b60008073ffffffffffffffffffffffffffffffffffffffff16600460008473ffffffffffffffffffffffffffffffffffffffff1673ffffffffffffffffffffffffffffffffffffffff16815260200190815260200160002060009054906101000a900473ffffffffffffffffffffffffffffffffffffffff1673ffffffffffffffffffffffffffffffffffffffff161415156107c157600190506107c6565b600090505b919050565b60056020528060005260406000206000915054906101000a900473ffffffffffffffffffffffffffffffffffffffff1681565b6000809054906101000a900473ffffffffffffffffffffffffffffffffffffffff1681565b60025481565b60036020528060005260406000206000915054906101000a900473ffffffffffffffffffffffffffffffffffffffff1681565b600160009054906101000a900473ffffffffffffffffffffffffffffffffffffffff1681565b604051610f96806108938339019056fe60806040523480156200001157600080fd5b5060405162000f9638038062000f96833981018060405260a08110156200003757600080fd5b810190808051906020019092919080516401000000008111156200005a57600080fd5b828101905060208101848111156200007157600080fd5b81518560018202830111640100000000821117156200008f57600080fd5b50509291906020018051640100000000811115620000ac57600080fd5b82810190506020810184811115620000c357600080fd5b8151856001820283011164010000000082111715620000e157600080fd5b505092919060200180519060200190929190805190602001909291905050508460038190555083600490805190602001906200011f9291906200020e565b508260059080519060200190620001389291906200020e565b50816000806101000a81548173ffffffffffffffffffffffffffffffffffffffff021916908373ffffffffffffffffffffffffffffffffffffffff16021790555080600260006101000a81548173ffffffffffffffffffffffffffffffffffffffff021916908373ffffffffffffffffffffffffffffffffffffffff160217905550600060068190555033600160006101000a81548173ffffffffffffffffffffffffffffffffffffffff021916908373ffffffffffffffffffffffffffffffffffffffff1602179055505050505050620002bd565b828054600181600116156101000203166002900490600052602060002090601f016020900481019282601f106200025157805160ff191683800117855562000282565b8280016001018555821562000282579182015b828111156200028157825182559160200191906001019062000264565b5b50905062000291919062000295565b5090565b620002ba91905b80821115620002b65760008160009055506001016200029c565b5090565b90565b610cc980620002cd6000396000f3fe608060405260043610610083576000357c0100000000000000000000000000000000000000000000000000000000900463ffffffff168063375f16a71461008857806363ad255a146100b35780638da5cb5b146101a05780638ec3fda5146101f7578063af640d0f14610287578063d09ef241146102b2578063e414f38d1461032d575b600080fd5b34801561009457600080fd5b5061009d61037e565b6040518082815260200191505060405180910390f35b61015e600480360360808110156100c957600080fd5b81019080803573ffffffffffffffffffffffffffffffffffffffff1690602001909291908035906020019064010000000081111561010657600080fd5b82018360208201111561011857600080fd5b8035906020019184602083028401116401000000008311171561013a57600080fd5b909192939192939080359060200190929190803590602001909291905050506103e3565b604051808273ffffffffffffffffffffffffffffffffffffffff1673ffffffffffffffffffffffffffffffffffffffff16815260200191505060405180910390f35b3480156101ac57600080fd5b506101b56109b9565b604051808273ffffffffffffffffffffffffffffffffffffffff1673ffffffffffffffffffffffffffffffffffffffff16815260200191505060405180910390f35b34801561020357600080fd5b5061020c6109de565b6040518080602001828103825283818151815260200191508051906020019080838360005b8381101561024c578082015181840152602081019050610231565b50505050905090810190601f1680156102795780820380516001836020036101000a031916815260200191505b509250505060405180910390f35b34801561029357600080fd5b5061029c610a80565b6040518082815260200191505060405180910390f35b3480156102be57600080fd5b506102eb600480360360208110156102d557600080fd5b8101908080359060200190929190505050610a86565b604051808273ffffffffffffffffffffffffffffffffffffffff1673ffffffffffffffffffffffffffffffffffffffff16815260200191505060405180910390f35b34801561033957600080fd5b5061037c6004803603602081101561035057600080fd5b81019080803573ffffffffffffffffffffffffffffffffffffffff169060200190929190505050610b1e565b005b60008060009054906101000a900473ffffffffffffffffffffffffffffffffffffffff1673ffffffffffffffffffffffffffffffffffffffff163373ffffffffffffffffffffffffffffffffffffffff161415156103db57600080fd5b600654905090565b60008060009054906101000a900473ffffffffffffffffffffffffffffffffffffffff1673ffffffffffffffffffffffffffffffffffffffff163373ffffffffffffffffffffffffffffffffffffffff161415156104cf576040517f08c379a00000000000000000000000000000000000000000000000000000000081526004018080602001828103825260288152602001807f796f7520646f6e74206f776e2074686520637573746f6d657220736d6172742081526020017f636f6e747261637400000000000000000000000000000000000000000000000081525060400191505060405180910390fd5b60008673ffffffffffffffffffffffffffffffffffffffff166366e1dfa387876040518363ffffffff167c010000000000000000000000000000000000000000000000000000000002815260040180806020018281038252848482818152602001925060200280828437600081840152601f19601f820116905080830192505050935050505060206040518083038186803b15801561056d57600080fd5b505afa158015610581573d6000803e3d6000fd5b505050506040513d602081101561059757600080fd5b810190808051906020019092919050505090506000600260009054906101000a900473ffffffffffffffffffffffffffffffffffffffff1673ffffffffffffffffffffffffffffffffffffffff16635ed097f36040518163ffffffff167c010000000000000000000000000000000000000000000000000000000002815260040160206040518083038186803b15801561063057600080fd5b505afa158015610644573d6000803e3d6000fd5b505050506040513d602081101561065a57600080fd5b8101908080519060200190929190505050905080851015151561070b576040517f08c379a000000000000000000000000000000000000000000000000000000000815260040180806020018281038252602c8152602001807f64656c6976657279466565206d7573742062652067726561746572207468616e81526020017f20746865206d696e696d756d000000000000000000000000000000000000000081525060400191505060405180910390fd5b84820134101515156107d1576040517f08c379a00000000000000000000000000000000000000000000000000000000081526004018080602001828103825260418152602001807f73656e74206574686572206973206e6f7420656e6f75676820746f20636f766581526020017f7220746865206f7264657220636f737420616e642064656c697665727920666581526020017f650000000000000000000000000000000000000000000000000000000000000081525060600191505060405180910390fd5b60008873ffffffffffffffffffffffffffffffffffffffff1663f9a9525e8785018a8a8a8a6040518663ffffffff167c010000000000000000000000000000000000000000000000000000000002815260040180806020018481526020018381526020018281038252868682818152602001925060200280828437600081840152601f19601f820116905080830192505050955050505050506020604051808303818588803b15801561088357600080fd5b505af1158015610897573d6000803e3d6000fd5b50505050506040513d60208110156108ae57600080fd5b810190808051906020019092919050505090503373ffffffffffffffffffffffffffffffffffffffff166108fc87850134039081150290604051600060405180830381858888f1935050505015801561090b573d6000803e3d6000fd5b508060076000600654815260200190815260200160002060006101000a81548173ffffffffffffffffffffffffffffffffffffffff021916908373ffffffffffffffffffffffffffffffffffffffff16021790555060066000815480929190600101919050555060076000600160065403815260200190815260200160002060009054906101000a900473ffffffffffffffffffffffffffffffffffffffff16935050505095945050505050565b6000809054906101000a900473ffffffffffffffffffffffffffffffffffffffff1681565b606060058054600181600116156101000203166002900480601f016020809104026020016040519081016040528092919081815260200182805460018160011615610100020316600290048015610a765780601f10610a4b57610100808354040283529160200191610a76565b820191906000526020600020905b815481529060010190602001808311610a5957829003601f168201915b5050505050905090565b60035481565b60008060009054906101000a900473ffffffffffffffffffffffffffffffffffffffff1673ffffffffffffffffffffffffffffffffffffffff163373ffffffffffffffffffffffffffffffffffffffff16141515610ae357600080fd5b6007600083815260200190815260200160002060009054906101000a900473ffffffffffffffffffffffffffffffffffffffff169050919050565b6000809054906101000a900473ffffffffffffffffffffffffffffffffffffffff1673ffffffffffffffffffffffffffffffffffffffff163373ffffffffffffffffffffffffffffffffffffffff16141515610c08576040517f08c379a00000000000000000000000000000000000000000000000000000000081526004018080602001828103825260258152602001807f73656e742066726f6d206164647265737320746861742069736e74207468652081526020017f6f776e657200000000000000000000000000000000000000000000000000000081525060400191505060405180910390fd5b8073ffffffffffffffffffffffffffffffffffffffff1663e9132c42600280811115610c3057fe5b6040518263ffffffff167c010000000000000000000000000000000000000000000000000000000002815260040180828152602001915050600060405180830381600087803b158015610c8257600080fd5b505af1158015610c96573d6000803e3d6000fd5b505050505056fea165627a7a72305820027b70012819cb2d1b5e694af9b3f3fcd41937281daf4aa4272c74fceb3edb7f0029a165627a7a723058207aea9f13965530a1dfa378a528b9b7784c3967b514c1372a859b4a838e47ef360029608060405234801561001057600080fd5b506040516020806115958339810180604052602081101561003057600080fd5b810190808051906020019092919050505033600160006101000a81548173ffffffffffffffffffffffffffffffffffffffff021916908373ffffffffffffffffffffffffffffffffffffffff160217905550806000806101000a81548173ffffffffffffffffffffffffffffffffffffffff021916908373ffffffffffffffffffffffffffffffffffffffff1602179055506000600281905550506114bb806100da6000396000f3fe60806040526004361061008e576000357c0100000000000000000000000000000000000000000000000000000000900463ffffffff16806313952670146100935780633e54883c146100fc57806353e9f8e0146102175780638da5cb5b146102a8578063a43f4111146102ff578063aa3492391461032a578063c9362cb9146103a5578063f77c479114610436575b600080fd5b34801561009f57600080fd5b506100e2600480360360208110156100b657600080fd5b81019080803573ffffffffffffffffffffffffffffffffffffffff16906020019092919050505061048d565b604051808215151515815260200191505060405180910390f35b34801561010857600080fd5b506101d56004803603604081101561011f57600080fd5b810190808035906020019064010000000081111561013c57600080fd5b82018360208201111561014e57600080fd5b8035906020019184600183028401116401000000008311171561017057600080fd5b90919293919293908035906020019064010000000081111561019157600080fd5b8201836020820111156101a357600080fd5b803590602001918460018302840111640100000000831117156101c557600080fd5b9091929391929390505050610536565b604051808273ffffffffffffffffffffffffffffffffffffffff1673ffffffffffffffffffffffffffffffffffffffff16815260200191505060405180910390f35b34801561022357600080fd5b506102666004803603602081101561023a57600080fd5b81019080803573ffffffffffffffffffffffffffffffffffffffff169060200190929190505050610867565b604051808273ffffffffffffffffffffffffffffffffffffffff1673ffffffffffffffffffffffffffffffffffffffff16815260200191505060405180910390f35b3480156102b457600080fd5b506102bd61089a565b604051808273ffffffffffffffffffffffffffffffffffffffff1673ffffffffffffffffffffffffffffffffffffffff16815260200191505060405180910390f35b34801561030b57600080fd5b506103146108bf565b6040518082815260200191505060405180910390f35b34801561033657600080fd5b506103636004803603602081101561034d57600080fd5b81019080803590602001909291905050506108c5565b604051808273ffffffffffffffffffffffffffffffffffffffff1673ffffffffffffffffffffffffffffffffffffffff16815260200191505060405180910390f35b3480156103b157600080fd5b506103f4600480360360208110156103c857600080fd5b81019080803573ffffffffffffffffffffffffffffffffffffffff1690602001909291905050506108f8565b604051808273ffffffffffffffffffffffffffffffffffffffff1673ffffffffffffffffffffffffffffffffffffffff16815260200191505060405180910390f35b34801561044257600080fd5b5061044b61092b565b604051808273ffffffffffffffffffffffffffffffffffffffff1673ffffffffffffffffffffffffffffffffffffffff16815260200191505060405180910390f35b60008073ffffffffffffffffffffffffffffffffffffffff16600460008473ffffffffffffffffffffffffffffffffffffffff1673ffffffffffffffffffffffffffffffffffffffff16815260200190815260200160002060009054906101000a900473ffffffffffffffffffffffffffffffffffffffff1673ffffffffffffffffffffffffffffffffffffffff1614151561052c5760019050610531565b600090505b919050565b60008073ffffffffffffffffffffffffffffffffffffffff16600560003373ffffffffffffffffffffffffffffffffffffffff1673ffffffffffffffffffffffffffffffffffffffff16815260200190815260200160002060009054906101000a900473ffffffffffffffffffffffffffffffffffffffff1673ffffffffffffffffffffffffffffffffffffffff161415156105d157600080fd5b60006002548686868633600160009054906101000a900473ffffffffffffffffffffffffffffffffffffffff16610606610951565b8088815260200180602001806020018573ffffffffffffffffffffffffffffffffffffffff1673ffffffffffffffffffffffffffffffffffffffff1681526020018473ffffffffffffffffffffffffffffffffffffffff1673ffffffffffffffffffffffffffffffffffffffff1681526020018381038352898982818152602001925080828437600081840152601f19601f8201169050808301925050508381038252878782818152602001925080828437600081840152601f19601f8201169050808301925050509950505050505050505050604051809103906000f0801580156106f6573d6000803e3d6000fd5b50905033600460008373ffffffffffffffffffffffffffffffffffffffff1673ffffffffffffffffffffffffffffffffffffffff16815260200190815260200160002060006101000a81548173ffffffffffffffffffffffffffffffffffffffff021916908373ffffffffffffffffffffffffffffffffffffffff16021790555080600560003373ffffffffffffffffffffffffffffffffffffffff1673ffffffffffffffffffffffffffffffffffffffff16815260200190815260200160002060006101000a81548173ffffffffffffffffffffffffffffffffffffffff021916908373ffffffffffffffffffffffffffffffffffffffff1602179055508060036000600254815260200190815260200160002060006101000a81548173ffffffffffffffffffffffffffffffffffffffff021916908373ffffffffffffffffffffffffffffffffffffffff16021790555060026000815480929190600101919050555080915050949350505050565b60046020528060005260406000206000915054906101000a900473ffffffffffffffffffffffffffffffffffffffff1681565b6000809054906101000a900473ffffffffffffffffffffffffffffffffffffffff1681565b60025481565b60036020528060005260406000206000915054906101000a900473ffffffffffffffffffffffffffffffffffffffff1681565b60056020528060005260406000206000915054906101000a900473ffffffffffffffffffffffffffffffffffffffff1681565b600160009054906101000a900473ffffffffffffffffffffffffffffffffffffffff1681565b604051610b2e806109628339019056fe608060405234801561001057600080fd5b50604051610b2e380380610b2e833981018060405260a081101561003357600080fd5b8101908080519060200190929190805164010000000081111561005557600080fd5b8281019050602081018481111561006b57600080fd5b815185600182028301116401000000008211171561008857600080fd5b505092919060200180516401000000008111156100a457600080fd5b828101905060208101848111156100ba57600080fd5b81518560018202830111640100000000821117156100d757600080fd5b505092919060200180519060200190929190805190602001909291905050508460028190555083600390805190602001906101139291906101be565b50826004908051906020019061012a9291906101be565b50816000806101000a81548173ffffffffffffffffffffffffffffffffffffffff021916908373ffffffffffffffffffffffffffffffffffffffff16021790555080600160006101000a81548173ffffffffffffffffffffffffffffffffffffffff021916908373ffffffffffffffffffffffffffffffffffffffff16021790555060006005819055505050505050610263565b828054600181600116156101000203166002900490600052602060002090601f016020900481019282601f106101ff57805160ff191683800117855561022d565b8280016001018555821561022d579182015b8281111561022c578251825591602001919060010190610211565b5b50905061023a919061023e565b5090565b61026091905b8082111561025c576000816000905550600101610244565b5090565b90565b6108bc806102726000396000f3fe60806040526004361061008e576000357c0100000000000000000000000000000000000000000000000000000000900463ffffffff1680631b9265b8146100905780631d8344091461009a5780637e55d59c146100c55780638da5cb5b146101205780638ec3fda514610177578063af640d0f14610207578063d09ef24114610232578063e9db4c81146102ad575b005b6100986102f1565b005b3480156100a657600080fd5b506100af61036b565b6040518082815260200191505060405180910390f35b3480156100d157600080fd5b5061011e600480360360408110156100e857600080fd5b81019080803573ffffffffffffffffffffffffffffffffffffffff16906020019092919080359060200190929190505050610371565b005b34801561012c57600080fd5b50610135610457565b604051808273ffffffffffffffffffffffffffffffffffffffff1673ffffffffffffffffffffffffffffffffffffffff16815260200191505060405180910390f35b34801561018357600080fd5b5061018c61047c565b6040518080602001828103825283818151815260200191508051906020019080838360005b838110156101cc5780820151818401526020810190506101b1565b50505050905090810190601f1680156101f95780820380516001836020036101000a031916815260200191505b509250505060405180910390f35b34801561021357600080fd5b5061021c61051e565b6040518082815260200191505060405180910390f35b34801561023e57600080fd5b5061026b6004803603602081101561025557600080fd5b8101908080359060200190929190505050610524565b604051808273ffffffffffffffffffffffffffffffffffffffff1673ffffffffffffffffffffffffffffffffffffffff16815260200191505060405180910390f35b6102ef600480360360208110156102c357600080fd5b81019080803573ffffffffffffffffffffffffffffffffffffffff1690602001909291905050506105bc565b005b346007600082825401925050819055506000809054906101000a900473ffffffffffffffffffffffffffffffffffffffff1673ffffffffffffffffffffffffffffffffffffffff166108fc349081150290604051600060405180830381858888f19350505050158015610368573d6000803e3d6000fd5b50565b60055481565b6000809054906101000a900473ffffffffffffffffffffffffffffffffffffffff1673ffffffffffffffffffffffffffffffffffffffff163373ffffffffffffffffffffffffffffffffffffffff161415156103cc57600080fd5b8173ffffffffffffffffffffffffffffffffffffffff1663e9132c42826040518263ffffffff167c010000000000000000000000000000000000000000000000000000000002815260040180828152602001915050600060405180830381600087803b15801561043b57600080fd5b505af115801561044f573d6000803e3d6000fd5b505050505050565b6000809054906101000a900473ffffffffffffffffffffffffffffffffffffffff1681565b606060048054600181600116156101000203166002900480601f0160208091040260200160405190810160405280929190818152602001828054600181600116156101000203166002900480156105145780601f106104e957610100808354040283529160200191610514565b820191906000526020600020905b8154815290600101906020018083116104f757829003601f168201915b5050505050905090565b60025481565b60008060009054906101000a900473ffffffffffffffffffffffffffffffffffffffff1673ffffffffffffffffffffffffffffffffffffffff163373ffffffffffffffffffffffffffffffffffffffff1614151561058157600080fd5b6006600083815260200190815260200160002060009054906101000a900473ffffffffffffffffffffffffffffffffffffffff169050919050565b6000809054906101000a900473ffffffffffffffffffffffffffffffffffffffff1673ffffffffffffffffffffffffffffffffffffffff163373ffffffffffffffffffffffffffffffffffffffff1614151561061757600080fd5b600081905060008173ffffffffffffffffffffffffffffffffffffffff1663bd3e19d46040518163ffffffff167c010000000000000000000000000000000000000000000000000000000002815260040160206040518083038186803b15801561068057600080fd5b505afa158015610694573d6000803e3d6000fd5b505050506040513d60208110156106aa57600080fd5b81019080805190602001909291905050509050803410151515610735576040517f08c379a000000000000000000000000000000000000000000000000000000000815260040180806020018281038252601d8152602001807f6465706f7369742076616c7565206e6f74206869676820656e6f75676800000081525060200191505060405180910390fd5b803411156107a8576000809054906101000a900473ffffffffffffffffffffffffffffffffffffffff1673ffffffffffffffffffffffffffffffffffffffff166108fc8234039081150290604051600060405180830381858888f193505050501580156107a6573d6000803e3d6000fd5b505b8173ffffffffffffffffffffffffffffffffffffffff1663c7529f0c826040518263ffffffff167c01000000000000000000000000000000000000000000000000000000000281526004016000604051808303818588803b15801561080c57600080fd5b505af1158015610820573d6000803e3d6000fd5b50505050508260066000600554815260200190815260200160002060006101000a81548173ffffffffffffffffffffffffffffffffffffffff021916908373ffffffffffffffffffffffffffffffffffffffff16021790555060056000815480929190600101919050555050505056fea165627a7a72305820744fa9fb5928ef8f60cdfb09644680351985ef3578c78fc0a651569a3f83fa570029a165627a7a72305820692b4b500adfe42c33c0e271636f4c1d90856916a66478beba19ab29c41f18f80029",
  "source": "pragma solidity ^0.5.0;\n\nimport \"./RestaurantFactory.sol\";\nimport \"./CustomerFactory.sol\";\nimport \"./RiderFactory.sol\";\n\n\ncontract Controller {\n\n\taddress public owner;\n\taddress public restaurantFactoryAddress;\n\taddress public customerFactoryAddress;\n\taddress public riderFactoryAddress;\n\n\tuint public minimumDeliveryFee;\n\n\tconstructor() public{\n\t\towner = msg.sender;\n\t\trestaurantFactoryAddress = address(new RestaurantFactory(owner));\n\t\tcustomerFactoryAddress = address(new CustomerFactory(owner));\n\t\triderFactoryAddress = address(new RiderFactory(owner));\n\n\t\tminimumDeliveryFee = 2000000000000000; // set min delivery fee to 0.02 eth\n\t}\n\n\tfunction updateMinDeliveryFee(uint newFee) public{\n\t\trequire(msg.sender == owner,\"you are not the owner\");\n\t\tminimumDeliveryFee = newFee;\n\t}\n\n\n}",
  "sourcePath": "/home/george/Documents/University/Dissertation/TryAByte/contracts/Controller.sol",
  "compiler": {
    "name": "solc",
    "version": "0.5.0+commit.1d4f565a.Emscripten.clang"
  },
  "schemaVersion": "3.0.6",
  "updatedAt": "2019-04-01T18:41:20.234Z",
  "devdoc": {
    "methods": {}
  },
  "userdoc": {
    "methods": {}
  }
}