{
  "contractName": "Controller",
  "abi": [
    {
      "inputs": [],
      "payable": false,
      "stateMutability": "nonpayable",
      "type": "constructor"
    },
    {
      "constant": true,
      "inputs": [],
      "name": "customerFactoryAddress",
      "outputs": [
        {
          "internalType": "address",
          "name": "",
          "type": "address"
        }
      ],
      "payable": false,
      "stateMutability": "view",
      "type": "function"
    },
    {
      "constant": true,
      "inputs": [],
      "name": "minimumDeliveryFee",
      "outputs": [
        {
          "internalType": "uint256",
          "name": "",
          "type": "uint256"
        }
      ],
      "payable": false,
      "stateMutability": "view",
      "type": "function"
    },
    {
      "constant": true,
      "inputs": [],
      "name": "owner",
      "outputs": [
        {
          "internalType": "address",
          "name": "",
          "type": "address"
        }
      ],
      "payable": false,
      "stateMutability": "view",
      "type": "function"
    },
    {
      "constant": true,
      "inputs": [],
      "name": "restaurantFactoryAddress",
      "outputs": [
        {
          "internalType": "address",
          "name": "",
          "type": "address"
        }
      ],
      "payable": false,
      "stateMutability": "view",
      "type": "function"
    },
    {
      "constant": true,
      "inputs": [],
      "name": "riderFactoryAddress",
      "outputs": [
        {
          "internalType": "address",
          "name": "",
          "type": "address"
        }
      ],
      "payable": false,
      "stateMutability": "view",
      "type": "function"
    },
    {
      "constant": false,
      "inputs": [
        {
          "internalType": "address",
          "name": "_restaurantFactoryAddress",
          "type": "address"
        },
        {
          "internalType": "address",
          "name": "_customerFactoryAddress",
          "type": "address"
        },
        {
          "internalType": "address",
          "name": "_riderFactoryAddress",
          "type": "address"
        }
      ],
      "name": "setFactoryAddresses",
      "outputs": [],
      "payable": false,
      "stateMutability": "nonpayable",
      "type": "function"
    },
    {
      "constant": false,
      "inputs": [
        {
          "internalType": "uint256",
          "name": "newFee",
          "type": "uint256"
        }
      ],
      "name": "updateMinDeliveryFee",
      "outputs": [],
      "payable": false,
      "stateMutability": "nonpayable",
      "type": "function"
    },
    {
      "constant": true,
      "inputs": [
        {
          "internalType": "bytes32",
          "name": "data",
          "type": "bytes32"
        }
      ],
      "name": "getHash",
      "outputs": [
        {
          "internalType": "bytes32",
          "name": "",
          "type": "bytes32"
        }
      ],
      "payable": false,
      "stateMutability": "pure",
      "type": "function"
    },
    {
      "constant": false,
      "inputs": [],
      "name": "resetApplication",
      "outputs": [],
      "payable": false,
      "stateMutability": "nonpayable",
      "type": "function"
    },
    {
      "constant": true,
      "inputs": [
        {
          "internalType": "uint256",
          "name": "startIndex",
          "type": "uint256"
        },
        {
          "internalType": "uint256",
          "name": "size",
          "type": "uint256"
        },
        {
          "internalType": "uint256[]",
          "name": "intArray",
          "type": "uint256[]"
        }
      ],
      "name": "getPartitionOfIntArray",
      "outputs": [
        {
          "internalType": "uint256[]",
          "name": "",
          "type": "uint256[]"
        }
      ],
      "payable": false,
      "stateMutability": "pure",
      "type": "function"
    },
    {
      "constant": true,
      "inputs": [
        {
          "internalType": "uint256",
          "name": "startIndex",
          "type": "uint256"
        },
        {
          "internalType": "uint256",
          "name": "size",
          "type": "uint256"
        },
        {
          "internalType": "bytes32[]",
          "name": "strArray",
          "type": "bytes32[]"
        }
      ],
      "name": "getPartitionOfBytesArray",
      "outputs": [
        {
          "internalType": "bytes32[]",
          "name": "",
          "type": "bytes32[]"
        }
      ],
      "payable": false,
      "stateMutability": "pure",
      "type": "function"
    }
  ],
  "bytecode": "0x608060405234801561001057600080fd5b50600080546001600160a01b0319163317905566071afd498d00006004556106b58061003d6000396000f3fe608060405234801561001057600080fd5b50600436106100a95760003560e01c8063a5b8f59d11610071578063a5b8f59d14610119578063aedbfd7014610138578063b6fe955914610140578063ba89c9161461023f578063c9286d5714610277578063fb6d2fb01461027f576100a9565b80633cf5040a146100ae5780635ed097f3146100dd5780636455e5ac146100e557806368db65a4146101095780638da5cb5b14610111575b600080fd5b6100cb600480360360208110156100c457600080fd5b503561032e565b60408051918252519081900360200190f35b6100cb610352565b6100ed610358565b604080516001600160a01b039092168252519081900360200190f35b6100ed610367565b6100ed610376565b6101366004803603602081101561012f57600080fd5b5035610385565b005b6101366103e1565b6101ef6004803603606081101561015657600080fd5b81359160208101359181019060608101604082013564010000000081111561017d57600080fd5b82018360208201111561018f57600080fd5b803590602001918460208302840111640100000000831117156101b157600080fd5b919080806020026020016040519081016040528093929190818152602001838360200280828437600092019190915250929550610532945050505050565b60408051602080825283518183015283519192839290830191858101910280838360005b8381101561022b578181015183820152602001610213565b505050509050019250505060405180910390f35b6101366004803603606081101561025557600080fd5b506001600160a01b0381358116916020810135821691604090910135166105ab565b6100ed610601565b6101ef6004803603606081101561029557600080fd5b8135916020810135918101906060810160408201356401000000008111156102bc57600080fd5b8201836020820111156102ce57600080fd5b803590602001918460208302840111640100000000831117156102f057600080fd5b919080806020026020016040519081016040528093929190818152602001838360200280828437600092019190915250929550610610945050505050565b60408051602080820193909352815180820384018152908201909152805191012090565b60045481565b6002546001600160a01b031681565b6001546001600160a01b031681565b6000546001600160a01b031681565b6000546001600160a01b031633146103dc576040805162461bcd60e51b81526020600482015260156024820152743cb7ba9030b932903737ba103a34329037bbb732b960591b604482015290519081900360640190fd5b600455565b6000546001600160a01b031633146103f857600080fd5b600160009054906101000a90046001600160a01b03166001600160a01b031663d826f88f6040518163ffffffff1660e01b8152600401600060405180830381600087803b15801561044857600080fd5b505af115801561045c573d6000803e3d6000fd5b50505050600260009054906101000a90046001600160a01b03166001600160a01b031663d826f88f6040518163ffffffff1660e01b8152600401600060405180830381600087803b1580156104b057600080fd5b505af11580156104c4573d6000803e3d6000fd5b50505050600360009054906101000a90046001600160a01b03166001600160a01b031663d826f88f6040518163ffffffff1660e01b8152600401600060405180830381600087803b15801561051857600080fd5b505af115801561052c573d6000803e3d6000fd5b50505050565b6060808360405190808252806020026020018201604052801561055f578160200160208202803883390190505b50905060005b848110156105a257838187018151811061057b57fe5b602002602001015182828151811061058f57fe5b6020908102919091010152600101610565565b50949350505050565b6000546001600160a01b031633146105c257600080fd5b600180546001600160a01b039485166001600160a01b031991821617909155600280549385169382169390931790925560038054919093169116179055565b6003546001600160a01b031681565b6060808360405190808252806020026020018201604052801561063d578160200160208202803883390190505b50905060005b848110156105a257838187018151811061065957fe5b602002602001015182828151811061066d57fe5b602090810291909101015260010161064356fea265627a7a7231582045376679d5f8ef0e53247239dc8d1aada83c594386fb2d93129a193300e70ce164736f6c634300050c0032",
  "source": "pragma solidity ^0.5.0;\n\nimport \"./RestaurantFactory.sol\";\nimport \"./CustomerFactory.sol\";\nimport \"./RiderFactory.sol\";\n\n\ncontract Controller {\n\n\taddress public owner;\n\t\n\taddress public restaurantFactoryAddress;\n\taddress public customerFactoryAddress;\n\taddress public riderFactoryAddress;\n\n\tuint public minimumDeliveryFee;\n\n\n\tconstructor() public{\n\t\towner = msg.sender;\n\t\tminimumDeliveryFee = 2000000000000000; // set min delivery fee to 0.02 eth\n\t}\n\n\tfunction setFactoryAddresses(address _restaurantFactoryAddress, address _customerFactoryAddress, address _riderFactoryAddress) public{\n\t\trequire(msg.sender == owner);\n\t\trestaurantFactoryAddress = _restaurantFactoryAddress;\n\t\tcustomerFactoryAddress = _customerFactoryAddress;\n\t\triderFactoryAddress = _riderFactoryAddress;\n\t}\n\n\tfunction updateMinDeliveryFee(uint newFee) public{\n\t\trequire(msg.sender == owner,\"you are not the owner\");\n\t\tminimumDeliveryFee = newFee;\n\t}\n\n\tfunction getHash(bytes32 data) public pure returns(bytes32){\n\t\treturn keccak256(abi.encodePacked(data));\n\t}\n\n\t// removes all user accounts and orders.\n\tfunction resetApplication() public { \n\t\trequire(msg.sender == owner);\n\t\tRestaurantFactory(restaurantFactoryAddress).reset();\n\t\tCustomerFactory(customerFactoryAddress).reset();\n\t\tRiderFactory(riderFactoryAddress).reset();\n\t}\n\n\tfunction getPartitionOfIntArray(uint startIndex,uint size,uint[] memory intArray) public pure returns (uint[] memory){\n\t    uint[] memory toReturn = new uint[](size);\n\t    for(uint i = 0; i < (size); i++){\n\t      toReturn[i] = intArray[startIndex+i];\n\t    }\n\t    return toReturn;\n\t  }\n\n  \tfunction getPartitionOfBytesArray(uint startIndex,uint size, bytes32[] memory strArray) public pure returns (bytes32[] memory){\n\t    bytes32[] memory toReturn = new bytes32[](size);\n\t    for(uint i = 0; i < (size); i++){\n\t      toReturn[i] = strArray[startIndex+i];\n\t    }\n\t    return toReturn;\n\t}\n}",
  "sourcePath": "/home/george/Documents/WorkSpace/TryAByte_reactSetup/contracts/Controller.sol",
  "compiler": {
    "name": "solc",
    "version": "0.5.12+commit.7709ece9.Emscripten.clang"
  },
  "schemaVersion": "3.0.19",
  "updatedAt": "2020-02-16T17:05:31.045Z",
  "networkType": "ethereum",
  "devdoc": {
    "methods": {}
  },
  "userdoc": {
    "methods": {}
  }
}