{
  "contractName": "Controller",
  "abi": [
    {
      "constant": true,
      "inputs": [],
      "name": "customerFactoryAddress",
      "outputs": [
        {
          "name": "",
          "type": "address"
        }
      ],
      "payable": false,
      "stateMutability": "view",
      "type": "function",
      "signature": "0x6455e5ac"
    },
    {
      "constant": true,
      "inputs": [],
      "name": "restaurantFactoryAddress",
      "outputs": [
        {
          "name": "",
          "type": "address"
        }
      ],
      "payable": false,
      "stateMutability": "view",
      "type": "function",
      "signature": "0x68db65a4"
    },
    {
      "constant": true,
      "inputs": [],
      "name": "riderFactoryAddress",
      "outputs": [
        {
          "name": "",
          "type": "address"
        }
      ],
      "payable": false,
      "stateMutability": "view",
      "type": "function",
      "signature": "0xc9286d57"
    },
    {
      "inputs": [],
      "payable": false,
      "stateMutability": "nonpayable",
      "type": "constructor",
      "signature": "constructor"
    }
  ],
  "bytecode": "0x608060405234801561001057600080fd5b50336000806101000a81548173ffffffffffffffffffffffffffffffffffffffff021916908373ffffffffffffffffffffffffffffffffffffffff1602179055506000809054906101000a900473ffffffffffffffffffffffffffffffffffffffff1661007b61028d565b808273ffffffffffffffffffffffffffffffffffffffff1673ffffffffffffffffffffffffffffffffffffffff168152602001915050604051809103906000f0801580156100cd573d6000803e3d6000fd5b50600160006101000a81548173ffffffffffffffffffffffffffffffffffffffff021916908373ffffffffffffffffffffffffffffffffffffffff1602179055506000809054906101000a900473ffffffffffffffffffffffffffffffffffffffff1661013861029d565b808273ffffffffffffffffffffffffffffffffffffffff1673ffffffffffffffffffffffffffffffffffffffff168152602001915050604051809103906000f08015801561018a573d6000803e3d6000fd5b50600260006101000a81548173ffffffffffffffffffffffffffffffffffffffff021916908373ffffffffffffffffffffffffffffffffffffffff1602179055506000809054906101000a900473ffffffffffffffffffffffffffffffffffffffff166101f56102ad565b808273ffffffffffffffffffffffffffffffffffffffff1673ffffffffffffffffffffffffffffffffffffffff168152602001915050604051809103906000f080158015610247573d6000803e3d6000fd5b50600360006101000a81548173ffffffffffffffffffffffffffffffffffffffff021916908373ffffffffffffffffffffffffffffffffffffffff1602179055506102bd565b604051613863806104cb83390190565b604051610f1c80613d2e83390190565b60405161083380614c4a83390190565b6101ff806102cc6000396000f3fe608060405260043610610057576000357c0100000000000000000000000000000000000000000000000000000000900463ffffffff1680636455e5ac1461005c57806368db65a4146100b3578063c9286d571461010a575b600080fd5b34801561006857600080fd5b50610071610161565b604051808273ffffffffffffffffffffffffffffffffffffffff1673ffffffffffffffffffffffffffffffffffffffff16815260200191505060405180910390f35b3480156100bf57600080fd5b506100c8610187565b604051808273ffffffffffffffffffffffffffffffffffffffff1673ffffffffffffffffffffffffffffffffffffffff16815260200191505060405180910390f35b34801561011657600080fd5b5061011f6101ad565b604051808273ffffffffffffffffffffffffffffffffffffffff1673ffffffffffffffffffffffffffffffffffffffff16815260200191505060405180910390f35b600260009054906101000a900473ffffffffffffffffffffffffffffffffffffffff1681565b600160009054906101000a900473ffffffffffffffffffffffffffffffffffffffff1681565b600360009054906101000a900473ffffffffffffffffffffffffffffffffffffffff168156fea165627a7a723058206230a4969a969f78c980759534842806a3ea0f486a76f297197e96fe9a0cc4f90029608060405234801561001057600080fd5b506040516020806138638339810180604052602081101561003057600080fd5b8101908080519060200190929190505050806000806101000a81548173ffffffffffffffffffffffffffffffffffffffff021916908373ffffffffffffffffffffffffffffffffffffffff16021790555033600160006101000a81548173ffffffffffffffffffffffffffffffffffffffff021916908373ffffffffffffffffffffffffffffffffffffffff160217905550600060038190555050613789806100da6000396000f3fe60806040526004361061006d576000357c0100000000000000000000000000000000000000000000000000000000900463ffffffff1680631f2e3f6c1461007257806379a4fa27146101e25780638da5cb5b1461024b578063ad5461d8146102a2578063b11b91e61461031d575b600080fd5b34801561007e57600080fd5b506101a06004803603606081101561009557600080fd5b81019080803590602001906401000000008111156100b257600080fd5b8201836020820111156100c457600080fd5b803590602001918460018302840111640100000000831117156100e657600080fd5b90919293919293908035906020019064010000000081111561010757600080fd5b82018360208201111561011957600080fd5b8035906020019184600183028401116401000000008311171561013b57600080fd5b90919293919293908035906020019064010000000081111561015c57600080fd5b82018360208201111561016e57600080fd5b8035906020019184600183028401116401000000008311171561019057600080fd5b9091929391929390505050610348565b604051808273ffffffffffffffffffffffffffffffffffffffff1673ffffffffffffffffffffffffffffffffffffffff16815260200191505060405180910390f35b3480156101ee57600080fd5b506102316004803603602081101561020557600080fd5b81019080803573ffffffffffffffffffffffffffffffffffffffff1690602001909291905050506104c4565b604051808215151515815260200191505060405180910390f35b34801561025757600080fd5b50610260610562565b604051808273ffffffffffffffffffffffffffffffffffffffff1673ffffffffffffffffffffffffffffffffffffffff16815260200191505060405180910390f35b3480156102ae57600080fd5b506102db600480360360208110156102c557600080fd5b8101908080359060200190929190505050610587565b604051808273ffffffffffffffffffffffffffffffffffffffff1673ffffffffffffffffffffffffffffffffffffffff16815260200191505060405180910390f35b34801561032957600080fd5b506103326105ba565b6040518082815260200191505060405180910390f35b60008060035488888888888861035c6105c0565b8088815260200180602001806020018060200184810384528a8a82818152602001925080828437600081840152601f19601f8201169050808301925050508481038352888882818152602001925080828437600081840152601f19601f8201169050808301925050508481038252868682818152602001925080828437600081840152601f19601f8201169050808301925050509a5050505050505050505050604051809103906000f080158015610418573d6000803e3d6000fd5b5090508060026000600354815260200190815260200160002060006101000a81548173ffffffffffffffffffffffffffffffffffffffff021916908373ffffffffffffffffffffffffffffffffffffffff16021790555060036000815480929190600101919050555060026000600354815260200190815260200160002060009054906101000a900473ffffffffffffffffffffffffffffffffffffffff169150509695505050505050565b600080600090505b600354811015610557578273ffffffffffffffffffffffffffffffffffffffff166002600060018401815260200190815260200160002060009054906101000a900473ffffffffffffffffffffffffffffffffffffffff1673ffffffffffffffffffffffffffffffffffffffff16141561054a57600191505061055d565b80806001019150506104cc565b50600090505b919050565b6000809054906101000a900473ffffffffffffffffffffffffffffffffffffffff1681565b60026020528060005260406000206000915054906101000a900473ffffffffffffffffffffffffffffffffffffffff1681565b60035481565b60405161318d806105d18339019056fe60806040523480156200001157600080fd5b506040516200318d3803806200318d833981018060405260808110156200003757600080fd5b810190808051906020019092919080516401000000008111156200005a57600080fd5b828101905060208101848111156200007157600080fd5b81518560018202830111640100000000821117156200008f57600080fd5b50509291906020018051640100000000811115620000ac57600080fd5b82810190506020810184811115620000c357600080fd5b8151856001820283011164010000000082111715620000e157600080fd5b50509291906020018051640100000000811115620000fe57600080fd5b828101905060208101848111156200011557600080fd5b81518560018202830111640100000000821117156200013357600080fd5b50509291905050508360008190555082600190805190602001906200015a92919062000221565b5081600290805190602001906200017392919062000221565b5080600390805190602001906200018c92919062000221565b50600060088190555032600560006101000a81548173ffffffffffffffffffffffffffffffffffffffff021916908373ffffffffffffffffffffffffffffffffffffffff16021790555033600660006101000a81548173ffffffffffffffffffffffffffffffffffffffff021916908373ffffffffffffffffffffffffffffffffffffffff16021790555050505050620002d0565b828054600181600116156101000203166002900490600052602060002090601f016020900481019282601f106200026457805160ff191683800117855562000295565b8280016001018555821562000295579182015b828111156200029457825182559160200191906001019062000277565b5b509050620002a49190620002a8565b5090565b620002cd91905b80821115620002c9576000816000905550600101620002af565b5090565b90565b612ead80620002e06000396000f3fe6080604052600436106200010f576000357c0100000000000000000000000000000000000000000000000000000000900463ffffffff16806306fdde031462000114578063125ba97714620001aa578063141cf16614620001d85780631d83440914620002bc5780633e92c46814620002ea578063516f279e14620003cf57806368db65a4146200046557806372bb567814620004bf57806376af633c146200058c57806380f474f614620006225780638da5cb5b1462000650578063a4e4f20114620006aa578063a85c38ef14620006c4578063c4cd9476146200074e578063c7c6d87f14620007a8578063cffb703c14620008b1578063d97c97b6146200090b578063f943eecd146200094a575b600080fd5b3480156200012157600080fd5b506200012c620009a4565b6040518080602001828103825283818151815260200191508051906020019080838360005b838110156200016e57808201518184015260208101905062000151565b50505050905090810190601f1680156200019c5780820380516001836020036101000a031916815260200191505b509250505060405180910390f35b348015620001b757600080fd5b50620001c262000a46565b6040518082815260200191505060405180910390f35b348015620001e557600080fd5b50620002a260048036036020811015620001fe57600080fd5b81019080803590602001906401000000008111156200021c57600080fd5b8201836020820111156200022f57600080fd5b803590602001918460208302840111640100000000831117156200025257600080fd5b919080806020026020016040519081016040528093929190818152602001838360200280828437600081840152601f19601f82011690508083019250505050505050919291929050505062000a53565b604051808215151515815260200191505060405180910390f35b348015620002c957600080fd5b50620002d462000bd5565b6040518082815260200191505060405180910390f35b348015620002f757600080fd5b50620003cd600480360360408110156200031057600080fd5b81019080803590602001906401000000008111156200032e57600080fd5b8201836020820111156200034157600080fd5b803590602001918460208302840111640100000000831117156200036457600080fd5b9091929391929390803590602001906401000000008111156200038657600080fd5b8201836020820111156200039957600080fd5b80359060200191846020830284011164010000000083111715620003bc57600080fd5b909192939192939050505062000bdb565b005b348015620003dc57600080fd5b50620003e762000cf7565b6040518080602001828103825283818151815260200191508051906020019080838360005b83811015620004295780820151818401526020810190506200040c565b50505050905090810190601f168015620004575780820380516001836020036101000a031916815260200191505b509250505060405180910390f35b3480156200047257600080fd5b506200047d62000d99565b604051808273ffffffffffffffffffffffffffffffffffffffff1673ffffffffffffffffffffffffffffffffffffffff16815260200191505060405180910390f35b348015620004cc57600080fd5b506200054a60048036036020811015620004e557600080fd5b81019080803590602001906401000000008111156200050357600080fd5b8201836020820111156200051657600080fd5b803590602001918460208302840111640100000000831117156200053957600080fd5b909192939192939050505062000dbf565b604051808273ffffffffffffffffffffffffffffffffffffffff1673ffffffffffffffffffffffffffffffffffffffff16815260200191505060405180910390f35b3480156200059957600080fd5b50620005a462001236565b6040518080602001828103825283818151815260200191508051906020019080838360005b83811015620005e6578082015181840152602081019050620005c9565b50505050905090810190601f168015620006145780820380516001836020036101000a031916815260200191505b509250505060405180910390f35b3480156200062f57600080fd5b506200063a620012d8565b6040518082815260200191505060405180910390f35b3480156200065d57600080fd5b5062000668620012de565b604051808273ffffffffffffffffffffffffffffffffffffffff1673ffffffffffffffffffffffffffffffffffffffff16815260200191505060405180910390f35b348015620006b757600080fd5b50620006c262001304565b005b348015620006d157600080fd5b506200070160048036036020811015620006ea57600080fd5b810190808035906020019092919050505062001373565b60405180831515151581526020018273ffffffffffffffffffffffffffffffffffffffff1673ffffffffffffffffffffffffffffffffffffffff1681526020019250505060405180910390f35b3480156200075b57600080fd5b5062000766620013c4565b604051808273ffffffffffffffffffffffffffffffffffffffff1673ffffffffffffffffffffffffffffffffffffffff16815260200191505060405180910390f35b348015620007b557600080fd5b506200083360048036036020811015620007ce57600080fd5b8101908080359060200190640100000000811115620007ec57600080fd5b820183602082011115620007ff57600080fd5b803590602001918460208302840111640100000000831117156200082257600080fd5b9091929391929390505050620013ea565b6040518080602001828103825283818151815260200191508051906020019080838360005b838110156200087557808201518184015260208101905062000858565b50505050905090810190601f168015620008a35780820380516001836020036101000a031916815260200191505b509250505060405180910390f35b348015620008be57600080fd5b50620008ee60048036036020811015620008d757600080fd5b810190808035906020019092919050505062001eab565b604051808381526020018281526020019250505060405180910390f35b3480156200091857600080fd5b5062000948600480360360208110156200093157600080fd5b810190808035906020019092919050505062001edf565b005b3480156200095757600080fd5b5062000987600480360360208110156200097057600080fd5b810190808035906020019092919050505062001f11565b604051808381526020018281526020019250505060405180910390f35b60018054600181600116156101000203166002900480601f01602080910402602001604051908101604052809291908181526020018280546001816001161561010002031660029004801562000a3e5780601f1062000a125761010080835404028352916020019162000a3e565b820191906000526020600020905b81548152906001019060200180831162000a2057829003601f168201915b505050505081565b6000600a80549050905090565b600080600090505b825181101562000bca577fffffffffffffffffffffffffffffffffffffffffffffffffffffffffffffffff62000baa73__lib___________________________________639201de55868581518110151562000ab357fe5b906020019060200201516040518263ffffffff167c01000000000000000000000000000000000000000000000000000000000281526004018082815260200191505060006040518083038186803b15801562000b0e57600080fd5b505af415801562000b23573d6000803e3d6000fd5b505050506040513d6000823e3d601f19601f82011682018060405250602081101562000b4e57600080fd5b81019080805164010000000081111562000b6757600080fd5b8281019050602081018481111562000b7e57600080fd5b815185600182028301116401000000008211171562000b9c57600080fd5b505092919050505062001f61565b141562000bbc57600091505062000bd0565b808060010191505062000a5b565b50600190505b919050565b60085481565b600560009054906101000a900473ffffffffffffffffffffffffffffffffffffffff1673ffffffffffffffffffffffffffffffffffffffff163373ffffffffffffffffffffffffffffffffffffffff1614151562000c3857600080fd5b818190508484905014151562000c4d57600080fd5b60008090505b8484905081101562000cf057600a6040805190810160405280878785818110151562000c7b57fe5b905060200201358152602001858585818110151562000c9657fe5b90506020020135815250908060018154018082558091505090600182039060005260206000209060020201600090919290919091506000820151816000015560208201518160010155505050808060010191505062000c53565b5050505050565b60028054600181600116156101000203166002900480601f01602080910402602001604051908101604052809291908181526020018280546001816001161561010002031660029004801562000d915780601f1062000d655761010080835404028352916020019162000d91565b820191906000526020600020905b81548152906001019060200180831162000d7357829003601f168201915b505050505081565b600660009054906101000a900473ffffffffffffffffffffffffffffffffffffffff1681565b600060608383905060405190808252806020026020018201604052801562000df65781602001602082028038833980820191505090505b50905060008090505b848490508110156200102257606073__lib___________________________________639201de55878785818110151562000e3657fe5b905060200201356040518263ffffffff167c01000000000000000000000000000000000000000000000000000000000281526004018082815260200191505060006040518083038186803b15801562000e8e57600080fd5b505af415801562000ea3573d6000803e3d6000fd5b505050506040513d6000823e3d601f19601f82011682018060405250602081101562000ece57600080fd5b81019080805164010000000081111562000ee757600080fd5b8281019050602081018481111562000efe57600080fd5b815185600182028301116401000000008211171562000f1c57600080fd5b50509291905050509050600062000f338262001f61565b90507fffffffffffffffffffffffffffffffffffffffffffffffffffffffffffffffff8114151562000fa457600a8181548110151562000f6f57fe5b906000526020600020906002020160010154848481518110151562000f9057fe5b906020019060200201818152505062001012565b6040517f08c379a000000000000000000000000000000000000000000000000000000000815260040180806020018281038252600d8152602001807f496e76616c6964204974656d730000000000000000000000000000000000000081525060200191505060405180910390fd5b5050808060010191505062000dff565b506008600081548092919060010191905055506000600854600660009054906101000a900473ffffffffffffffffffffffffffffffffffffffff168686856200106a6200211f565b808681526020018573ffffffffffffffffffffffffffffffffffffffff1673ffffffffffffffffffffffffffffffffffffffff16815260200180602001806020018381038352868682818152602001925060200280828437600081840152601f19601f820116905080830192505050838103825284818151815260200191508051906020019060200280838360005b8381101562001116578082015181840152602081019050620010f9565b50505050905001975050505050505050604051809103906000f08015801562001143573d6000803e3d6000fd5b50905060408051908101604052806001151581526020018273ffffffffffffffffffffffffffffffffffffffff1681525060096000600854815260200190815260200160002060008201518160000160006101000a81548160ff02191690831515021790555060208201518160000160016101000a81548173ffffffffffffffffffffffffffffffffffffffff021916908373ffffffffffffffffffffffffffffffffffffffff16021790555090505060096000600854815260200190815260200160002060000160019054906101000a900473ffffffffffffffffffffffffffffffffffffffff169250505092915050565b60038054600181600116156101000203166002900480601f016020809104026020016040519081016040528092919081815260200182805460018160011615610100020316600290048015620012d05780601f10620012a457610100808354040283529160200191620012d0565b820191906000526020600020905b815481529060010190602001808311620012b257829003601f168201915b505050505081565b60045481565b600560009054906101000a900473ffffffffffffffffffffffffffffffffffffffff1681565b600560009054906101000a900473ffffffffffffffffffffffffffffffffffffffff1673ffffffffffffffffffffffffffffffffffffffff163373ffffffffffffffffffffffffffffffffffffffff161415156200136157600080fd5b600a600062001371919062002130565b565b60096020528060005260406000206000915090508060000160009054906101000a900460ff16908060000160019054906101000a900473ffffffffffffffffffffffffffffffffffffffff16905082565b600760009054906101000a900473ffffffffffffffffffffffffffffffffffffffff1681565b6060600560009054906101000a900473ffffffffffffffffffffffffffffffffffffffff1673ffffffffffffffffffffffffffffffffffffffff163373ffffffffffffffffffffffffffffffffffffffff161415156200144957600080fd5b6000838390501115156200145c57600080fd5b6020604051908101604052806000815250905060008090505b8383905081101562001ea15773__lib___________________________________63ff74927b8373__lib___________________________________63ff74927b73__lib___________________________________639201de558a8a898181101515620014df57fe5b905060200201356040518263ffffffff167c01000000000000000000000000000000000000000000000000000000000281526004018082815260200191505060006040518083038186803b1580156200153757600080fd5b505af41580156200154c573d6000803e3d6000fd5b505050506040513d6000823e3d601f19601f8201168201806040525060208110156200157757600080fd5b8101908080516401000000008111156200159057600080fd5b82810190506020810184811115620015a757600080fd5b8151856001820283011164010000000082111715620015c557600080fd5b50509291905050506040518263ffffffff167c0100000000000000000000000000000000000000000000000000000000028152600401808060200180602001838103835284818151815260200191508051906020019080838360005b838110156200163e57808201518184015260208101905062001621565b50505050905090810190601f1680156200166c5780820380516001836020036101000a031916815260200191505b50838103825260018152602001807f3a00000000000000000000000000000000000000000000000000000000000000815250602001935050505060006040518083038186803b158015620016bf57600080fd5b505af4158015620016d4573d6000803e3d6000fd5b505050506040513d6000823e3d601f19601f820116820180604052506020811015620016ff57600080fd5b8101908080516401000000008111156200171857600080fd5b828101905060208101848111156200172f57600080fd5b81518560018202830111640100000000821117156200174d57600080fd5b50509291905050506040518363ffffffff167c0100000000000000000000000000000000000000000000000000000000028152600401808060200180602001838103835285818151815260200191508051906020019080838360005b83811015620017c6578082015181840152602081019050620017a9565b50505050905090810190601f168015620017f45780820380516001836020036101000a031916815260200191505b50838103825284818151815260200191508051906020019080838360005b838110156200182f57808201518184015260208101905062001812565b50505050905090810190601f1680156200185d5780820380516001836020036101000a031916815260200191505b5094505050505060006040518083038186803b1580156200187d57600080fd5b505af415801562001892573d6000803e3d6000fd5b505050506040513d6000823e3d601f19601f820116820180604052506020811015620018bd57600080fd5b810190808051640100000000811115620018d657600080fd5b82810190506020810184811115620018ed57600080fd5b81518560018202830111640100000000821117156200190b57600080fd5b50509291905050509150600062001a3873__lib___________________________________639201de5587878681811015156200194457fe5b905060200201356040518263ffffffff167c01000000000000000000000000000000000000000000000000000000000281526004018082815260200191505060006040518083038186803b1580156200199c57600080fd5b505af4158015620019b1573d6000803e3d6000fd5b505050506040513d6000823e3d601f19601f820116820180604052506020811015620019dc57600080fd5b810190808051640100000000811115620019f557600080fd5b8281019050602081018481111562001a0c57600080fd5b815185600182028301116401000000008211171562001a2a57600080fd5b505092919050505062001f61565b90507fffffffffffffffffffffffffffffffffffffffffffffffffffffffffffffffff8114151562001cec57600a8181548110151562001a7457fe5b906000526020600020906002020160008082016000905560018201600090555050600a6001600a805490500381548110151562001aad57fe5b9060005260206000209060020201600a8281548110151562001acb57fe5b90600052602060002090600202016000820154816000015560018201548160010155905050600a6001600a805490500381548110151562001b0857fe5b90600052602060002090600202016000808201600090556001820160009055505073__lib___________________________________63ff74927b846040518263ffffffff167c0100000000000000000000000000000000000000000000000000000000028152600401808060200180602001838103835284818151815260200191508051906020019080838360005b8381101562001bb557808201518184015260208101905062001b98565b50505050905090810190601f16801562001be35780820380516001836020036101000a031916815260200191505b50838103825260148152602001807f2052656d6f7665642053756365737366756c6c79000000000000000000000000815250602001935050505060006040518083038186803b15801562001c3657600080fd5b505af415801562001c4b573d6000803e3d6000fd5b505050506040513d6000823e3d601f19601f82011682018060405250602081101562001c7657600080fd5b81019080805164010000000081111562001c8f57600080fd5b8281019050602081018481111562001ca657600080fd5b815185600182028301116401000000008211171562001cc457600080fd5b50509291905050509250600a80548091906001900362001ce5919062002156565b5062001e92565b73__lib___________________________________63ff74927b846040518263ffffffff167c0100000000000000000000000000000000000000000000000000000000028152600401808060200180602001838103835284818151815260200191508051906020019080838360005b8381101562001d7857808201518184015260208101905062001d5b565b50505050905090810190601f16801562001da65780820380516001836020036101000a031916815260200191505b508381038252601e8152602001807f204572726f722c20636f756c64206e6f742066696e6420696e206d656e750000815250602001935050505060006040518083038186803b15801562001df957600080fd5b505af415801562001e0e573d6000803e3d6000fd5b505050506040513d6000823e3d601f19601f82011682018060405250602081101562001e3957600080fd5b81019080805164010000000081111562001e5257600080fd5b8281019050602081018481111562001e6957600080fd5b815185600182028301116401000000008211171562001e8757600080fd5b505092919050505092505b50808060010191505062001475565b5080905092915050565b600a8181548110151562001ebb57fe5b90600052602060002090600202016000915090508060000154908060010154905082565b60006009600083815260200190815260200160002060000160006101000a81548160ff02191690831515021790555050565b600080600a8381548110151562001f2457fe5b906000526020600020906002020160000154600a8481548110151562001f4657fe5b90600052602060002090600202016001015491509150915091565b600080600090505b600a80549050811215620020c357620020a573__lib___________________________________639201de55600a8481548110151562001fa557fe5b9060005260206000209060020201600001546040518263ffffffff167c01000000000000000000000000000000000000000000000000000000000281526004018082815260200191505060006040518083038186803b1580156200200857600080fd5b505af41580156200201d573d6000803e3d6000fd5b505050506040513d6000823e3d601f19601f8201168201806040525060208110156200204857600080fd5b8101908080516401000000008111156200206157600080fd5b828101905060208101848111156200207857600080fd5b81518560018202830111640100000000821117156200209657600080fd5b505092919050505084620020ed565b15620020b55780915050620020e8565b808060010191505062001f69565b507fffffffffffffffffffffffffffffffffffffffffffffffffffffffffffffffff90505b919050565b60008151835114151562002105576000905062002119565b818051906020012083805190602001201490505b92915050565b604051610cc480620021be83390190565b50805460008255600202906000526020600020908101906200215391906200218b565b50565b81548183558181111562002186576002028160020283600052602060002091820191016200218591906200218b565b5b505050565b620021ba91905b80821115620021b65760008082016000905560018201600090555060020162002192565b5090565b9056fe60806040523480156200001157600080fd5b5060405162000cc438038062000cc4833981018060405260808110156200003757600080fd5b81019080805190602001909291908051906020019092919080516401000000008111156200006457600080fd5b828101905060208101848111156200007b57600080fd5b81518560208202830111640100000000821117156200009957600080fd5b50509291906020018051640100000000811115620000b657600080fd5b82810190506020810184811115620000cd57600080fd5b8151856020820283011164010000000082111715620000eb57600080fd5b50509291905050508273ffffffffffffffffffffffffffffffffffffffff166379a4fa27336040518263ffffffff167c0100000000000000000000000000000000000000000000000000000000028152600401808273ffffffffffffffffffffffffffffffffffffffff1673ffffffffffffffffffffffffffffffffffffffff16815260200191505060206040518083038186803b1580156200018d57600080fd5b505afa158015620001a2573d6000803e3d6000fd5b505050506040513d6020811015620001b957600080fd5b81019080805190602001909291905050501515620001d657600080fd5b80518251141515620001e757600080fd5b8360008190555033600160006101000a81548173ffffffffffffffffffffffffffffffffffffffff021916908373ffffffffffffffffffffffffffffffffffffffff16021790555032600460006101000a81548173ffffffffffffffffffffffffffffffffffffffff021916908373ffffffffffffffffffffffffffffffffffffffff16021790555082600260006101000a81548173ffffffffffffffffffffffffffffffffffffffff021916908373ffffffffffffffffffffffffffffffffffffffff160217905550600060068190555060008090505b82518110156200047057604080519081016040528073__lib___________________________________639201de558685815181101515620002fd57fe5b906020019060200201516040518263ffffffff167c01000000000000000000000000000000000000000000000000000000000281526004018082815260200191505060006040518083038186803b1580156200035857600080fd5b505af41580156200036d573d6000803e3d6000fd5b505050506040513d6000823e3d601f19601f8201168201806040525060208110156200039857600080fd5b810190808051640100000000811115620003b157600080fd5b82810190506020810184811115620003c857600080fd5b8151856001820283011164010000000082111715620003e657600080fd5b5050929190505050815260200183838151811015156200040257fe5b906020019060200201518152506007600060065481526020019081526020016000206000820151816000019080519060200190620004429291906200047b565b50602082015181600101559050506006600081548092919060010191905055508080600101915050620002bf565b50505050506200052a565b828054600181600116156101000203166002900490600052602060002090601f016020900481019282601f10620004be57805160ff1916838001178555620004ef565b82800160010185558215620004ef579182015b82811115620004ee578251825591602001919060010190620004d1565b5b509050620004fe919062000502565b5090565b6200052791905b808211156200052357600081600090555060010162000509565b5090565b90565b61078a806200053a6000396000f3fe608060405260043610610083576000357c0100000000000000000000000000000000000000000000000000000000900463ffffffff1680632799276d146100885780633129e773146100b35780633733d9f51461010957806368db65a414610134578063af640d0f1461018b578063bfb231d2146101b6578063ed16805814610271575b600080fd5b34801561009457600080fd5b5061009d6102c8565b6040518082815260200191505060405180910390f35b3480156100bf57600080fd5b506100ec600480360360208110156100d657600080fd5b81019080803590602001909291905050506102ce565b604051808381526020018281526020019250505060405180910390f35b34801561011557600080fd5b5061011e61053a565b6040518082815260200191505060405180910390f35b34801561014057600080fd5b50610149610650565b604051808273ffffffffffffffffffffffffffffffffffffffff1673ffffffffffffffffffffffffffffffffffffffff16815260200191505060405180910390f35b34801561019757600080fd5b506101a0610676565b6040518082815260200191505060405180910390f35b3480156101c257600080fd5b506101ef600480360360208110156101d957600080fd5b810190808035906020019092919050505061067c565b6040518080602001838152602001828103825284818151815260200191508051906020019080838360005b8381101561023557808201518184015260208101905061021a565b50505050905090810190601f1680156102625780820380516001836020036101000a031916815260200191505b50935050505060405180910390f35b34801561027d57600080fd5b50610286610738565b604051808273ffffffffffffffffffffffffffffffffffffffff1673ffffffffffffffffffffffffffffffffffffffff16815260200191505060405180910390f35b60065481565b6000803373ffffffffffffffffffffffffffffffffffffffff16600460009054906101000a900473ffffffffffffffffffffffffffffffffffffffff1673ffffffffffffffffffffffffffffffffffffffff16148061037a57503373ffffffffffffffffffffffffffffffffffffffff16600160009054906101000a900473ffffffffffffffffffffffffffffffffffffffff1673ffffffffffffffffffffffffffffffffffffffff16145b806103d257503373ffffffffffffffffffffffffffffffffffffffff16600360009054906101000a900473ffffffffffffffffffffffffffffffffffffffff1673ffffffffffffffffffffffffffffffffffffffff16145b15156103dd57600080fd5b73__lib___________________________________63cfb51928600760008681526020019081526020016000206000016040518263ffffffff167c010000000000000000000000000000000000000000000000000000000002815260040180806020018281038252838181546001816001161561010002031660029004815260200191508054600181600116156101000203166002900480156104c15780601f10610496576101008083540402835291602001916104c1565b820191906000526020600020905b8154815290600101906020018083116104a457829003601f168201915b50509250505060206040518083038186803b1580156104df57600080fd5b505af41580156104f3573d6000803e3d6000fd5b505050506040513d602081101561050957600080fd5b8101908080519060200190929190505050600760008581526020019081526020016000206001015491509150915091565b60003373ffffffffffffffffffffffffffffffffffffffff16600460009054906101000a900473ffffffffffffffffffffffffffffffffffffffff1673ffffffffffffffffffffffffffffffffffffffff1614806105e557503373ffffffffffffffffffffffffffffffffffffffff16600160009054906101000a900473ffffffffffffffffffffffffffffffffffffffff1673ffffffffffffffffffffffffffffffffffffffff16145b8061063d57503373ffffffffffffffffffffffffffffffffffffffff16600360009054906101000a900473ffffffffffffffffffffffffffffffffffffffff1673ffffffffffffffffffffffffffffffffffffffff16145b151561064857600080fd5b600554905090565b600260009054906101000a900473ffffffffffffffffffffffffffffffffffffffff1681565b60005481565b6007602052806000526040600020600091509050806000018054600181600116156101000203166002900480601f0160208091040260200160405190810160405280929190818152602001828054600181600116156101000203166002900480156107285780601f106106fd57610100808354040283529160200191610728565b820191906000526020600020905b81548152906001019060200180831161070b57829003601f168201915b5050505050908060010154905082565b600160009054906101000a900473ffffffffffffffffffffffffffffffffffffffff168156fea165627a7a72305820579019d5558fd8bf5ca3b7b3cc89c4e00a2004cd2c006332808628f8378d01700029a165627a7a7230582082aa94c80905b1cf405b52176aab9399708bdcdc308331a1e36c7eba0524c96d0029a165627a7a72305820c15aaa731c0d19d14fdc25d55e467e38e964ea794d6311dde5f19711b77c7d670029608060405234801561001057600080fd5b50604051602080610f1c8339810180604052602081101561003057600080fd5b810190808051906020019092919050505033600160006101000a81548173ffffffffffffffffffffffffffffffffffffffff021916908373ffffffffffffffffffffffffffffffffffffffff160217905550806000806101000a81548173ffffffffffffffffffffffffffffffffffffffff021916908373ffffffffffffffffffffffffffffffffffffffff160217905550600060028190555050610e42806100da6000396000f3fe60806040526004361061006d576000357c0100000000000000000000000000000000000000000000000000000000900463ffffffff168063483ac6f014610072578063689b00981461018d5780638da5cb5b146101f65780639757e8a31461024d578063f77c479114610278575b600080fd5b34801561007e57600080fd5b5061014b6004803603604081101561009557600080fd5b81019080803590602001906401000000008111156100b257600080fd5b8201836020820111156100c457600080fd5b803590602001918460018302840111640100000000831117156100e657600080fd5b90919293919293908035906020019064010000000081111561010757600080fd5b82018360208201111561011957600080fd5b8035906020019184600183028401116401000000008311171561013b57600080fd5b90919293919293905050506102cf565b604051808273ffffffffffffffffffffffffffffffffffffffff1673ffffffffffffffffffffffffffffffffffffffff16815260200191505060405180910390f35b34801561019957600080fd5b506101dc600480360360208110156101b057600080fd5b81019080803573ffffffffffffffffffffffffffffffffffffffff16906020019092919050505061043e565b604051808215151515815260200191505060405180910390f35b34801561020257600080fd5b5061020b6104e7565b604051808273ffffffffffffffffffffffffffffffffffffffff1673ffffffffffffffffffffffffffffffffffffffff16815260200191505060405180910390f35b34801561025957600080fd5b5061026261050c565b6040518082815260200191505060405180910390f35b34801561028457600080fd5b5061028d610512565b604051808273ffffffffffffffffffffffffffffffffffffffff1673ffffffffffffffffffffffffffffffffffffffff16815260200191505060405180910390f35b60008060025486868686336102e2610538565b8087815260200180602001806020018473ffffffffffffffffffffffffffffffffffffffff1673ffffffffffffffffffffffffffffffffffffffff1681526020018381038352888882818152602001925080828437600081840152601f19601f8201169050808301925050508381038252868682818152602001925080828437600081840152601f19601f82011690508083019250505098505050505050505050604051809103906000f08015801561039f573d6000803e3d6000fd5b50905033600360008373ffffffffffffffffffffffffffffffffffffffff1673ffffffffffffffffffffffffffffffffffffffff16815260200190815260200160002060006101000a81548173ffffffffffffffffffffffffffffffffffffffff021916908373ffffffffffffffffffffffffffffffffffffffff16021790555060026000815480929190600101919050555080915050949350505050565b60008073ffffffffffffffffffffffffffffffffffffffff16600360008473ffffffffffffffffffffffffffffffffffffffff1673ffffffffffffffffffffffffffffffffffffffff16815260200190815260200160002060009054906101000a900473ffffffffffffffffffffffffffffffffffffffff1673ffffffffffffffffffffffffffffffffffffffff161415156104dd57600190506104e2565b600090505b919050565b6000809054906101000a900473ffffffffffffffffffffffffffffffffffffffff1681565b60025481565b600160009054906101000a900473ffffffffffffffffffffffffffffffffffffffff1681565b6040516108ce806105498339019056fe608060405234801561001057600080fd5b506040516108ce3803806108ce8339810180604052608081101561003357600080fd5b8101908080519060200190929190805164010000000081111561005557600080fd5b8281019050602081018481111561006b57600080fd5b815185600182028301116401000000008211171561008857600080fd5b505092919060200180516401000000008111156100a457600080fd5b828101905060208101848111156100ba57600080fd5b81518560018202830111640100000000821117156100d757600080fd5b5050929190602001805190602001909291905050508360028190555082600390805190602001906101099291906101ab565b5081600490805190602001906101209291906101ab565b50806000806101000a81548173ffffffffffffffffffffffffffffffffffffffff021916908373ffffffffffffffffffffffffffffffffffffffff16021790555033600160006101000a81548173ffffffffffffffffffffffffffffffffffffffff021916908373ffffffffffffffffffffffffffffffffffffffff16021790555050505050610250565b828054600181600116156101000203166002900490600052602060002090601f016020900481019282601f106101ec57805160ff191683800117855561021a565b8280016001018555821561021a579182015b828111156102195782518255916020019190600101906101fe565b5b509050610227919061022b565b5090565b61024d91905b80821115610249576000816000905550600101610231565b5090565b90565b61066f8061025f6000396000f3fe608060405260043610610057576000357c0100000000000000000000000000000000000000000000000000000000900463ffffffff168063473b24521461005c5780638ec3fda514610142578063d09ef241146101d2575b600080fd5b34801561006857600080fd5b506101006004803603604081101561007f57600080fd5b81019080803573ffffffffffffffffffffffffffffffffffffffff169060200190929190803590602001906401000000008111156100bc57600080fd5b8201836020820111156100ce57600080fd5b803590602001918460208302840111640100000000831117156100f057600080fd5b909192939192939050505061024d565b604051808273ffffffffffffffffffffffffffffffffffffffff1673ffffffffffffffffffffffffffffffffffffffff16815260200191505060405180910390f35b34801561014e57600080fd5b50610157610509565b6040518080602001828103825283818151815260200191508051906020019080838360005b8381101561019757808201518184015260208101905061017c565b50505050905090810190601f1680156101c45780820380516001836020036101000a031916815260200191505b509250505060405180910390f35b3480156101de57600080fd5b5061020b600480360360208110156101f557600080fd5b81019080803590602001909291905050506105ab565b604051808273ffffffffffffffffffffffffffffffffffffffff1673ffffffffffffffffffffffffffffffffffffffff16815260200191505060405180910390f35b60008060009054906101000a900473ffffffffffffffffffffffffffffffffffffffff1673ffffffffffffffffffffffffffffffffffffffff163373ffffffffffffffffffffffffffffffffffffffff161415156102aa57600080fd5b8373ffffffffffffffffffffffffffffffffffffffff1663141cf16684846040518363ffffffff167c010000000000000000000000000000000000000000000000000000000002815260040180806020018281038252848482818152602001925060200280828437600081840152601f19601f820116905080830192505050935050505060206040518083038186803b15801561034657600080fd5b505afa15801561035a573d6000803e3d6000fd5b505050506040513d602081101561037057600080fd5b8101908080519060200190929190505050151561038c57600080fd5b6005600081548092919060010191905055508373ffffffffffffffffffffffffffffffffffffffff166372bb567884846040518363ffffffff167c010000000000000000000000000000000000000000000000000000000002815260040180806020018281038252848482818152602001925060200280828437600081840152601f19601f8201169050808301925050509350505050602060405180830381600087803b15801561043c57600080fd5b505af1158015610450573d6000803e3d6000fd5b505050506040513d602081101561046657600080fd5b810190808051906020019092919050505060066000600554815260200190815260200160002060006101000a81548173ffffffffffffffffffffffffffffffffffffffff021916908373ffffffffffffffffffffffffffffffffffffffff16021790555060066000600554815260200190815260200160002060009054906101000a900473ffffffffffffffffffffffffffffffffffffffff1690509392505050565b606060048054600181600116156101000203166002900480601f0160208091040260200160405190810160405280929190818152602001828054600181600116156101000203166002900480156105a15780601f10610576576101008083540402835291602001916105a1565b820191906000526020600020905b81548152906001019060200180831161058457829003601f168201915b5050505050905090565b60008060009054906101000a900473ffffffffffffffffffffffffffffffffffffffff1673ffffffffffffffffffffffffffffffffffffffff163373ffffffffffffffffffffffffffffffffffffffff1614151561060857600080fd5b6006600083815260200190815260200160002060009054906101000a900473ffffffffffffffffffffffffffffffffffffffff16905091905056fea165627a7a723058200ac053fcb8727aba83b3955a1bc37573d09ba877504eed5d345deb41efe2baeb0029a165627a7a723058205898ab3a3429a12e95910a03b6d63e3f99fea618ac5cfe74242224407f4743910029608060405234801561001057600080fd5b506040516020806108338339810180604052602081101561003057600080fd5b810190808051906020019092919050505033600160006101000a81548173ffffffffffffffffffffffffffffffffffffffff021916908373ffffffffffffffffffffffffffffffffffffffff160217905550806000806101000a81548173ffffffffffffffffffffffffffffffffffffffff021916908373ffffffffffffffffffffffffffffffffffffffff160217905550600060028190555050610759806100da6000396000f3fe608060405260043610610062576000357c0100000000000000000000000000000000000000000000000000000000900463ffffffff1680633e54883c146100675780638da5cb5b14610182578063a43f4111146101d9578063f77c479114610204575b600080fd5b34801561007357600080fd5b506101406004803603604081101561008a57600080fd5b81019080803590602001906401000000008111156100a757600080fd5b8201836020820111156100b957600080fd5b803590602001918460018302840111640100000000831117156100db57600080fd5b9091929391929390803590602001906401000000008111156100fc57600080fd5b82018360208201111561010e57600080fd5b8035906020019184600183028401116401000000008311171561013057600080fd5b909192939192939050505061025b565b604051808273ffffffffffffffffffffffffffffffffffffffff1673ffffffffffffffffffffffffffffffffffffffff16815260200191505060405180910390f35b34801561018e57600080fd5b50610197610318565b604051808273ffffffffffffffffffffffffffffffffffffffff1673ffffffffffffffffffffffffffffffffffffffff16815260200191505060405180910390f35b3480156101e557600080fd5b506101ee61033d565b6040518082815260200191505060405180910390f35b34801561021057600080fd5b50610219610343565b604051808273ffffffffffffffffffffffffffffffffffffffff1673ffffffffffffffffffffffffffffffffffffffff16815260200191505060405180910390f35b6000806002548686868661026d610369565b8086815260200180602001806020018381038352878782818152602001925080828437600081840152601f19601f8201169050808301925050508381038252858582818152602001925080828437600081840152601f19601f820116905080830192505050975050505050505050604051809103906000f0801580156102f7573d6000803e3d6000fd5b50905060026000815480929190600101919050555080915050949350505050565b6000809054906101000a900473ffffffffffffffffffffffffffffffffffffffff1681565b60025481565b600160009054906101000a900473ffffffffffffffffffffffffffffffffffffffff1681565b6040516103b48061037a8339019056fe608060405234801561001057600080fd5b506040516103b43803806103b48339810180604052606081101561003357600080fd5b8101908080519060200190929190805164010000000081111561005557600080fd5b8281019050602081018481111561006b57600080fd5b815185600182028301116401000000008211171561008857600080fd5b505092919060200180516401000000008111156100a457600080fd5b828101905060208101848111156100ba57600080fd5b81518560018202830111640100000000821117156100d757600080fd5b50509291905050508260018190555081600290805190602001906100fc92919061015c565b50806003908051906020019061011392919061015c565b50336000806101000a81548173ffffffffffffffffffffffffffffffffffffffff021916908373ffffffffffffffffffffffffffffffffffffffff160217905550505050610201565b828054600181600116156101000203166002900490600052602060002090601f016020900481019282601f1061019d57805160ff19168380011785556101cb565b828001600101855582156101cb579182015b828111156101ca5782518255916020019190600101906101af565b5b5090506101d891906101dc565b5090565b6101fe91905b808211156101fa5760008160009055506001016101e2565b5090565b90565b6101a4806102106000396000f3fe608060405260043610610041576000357c0100000000000000000000000000000000000000000000000000000000900463ffffffff1680638ec3fda514610046575b600080fd5b34801561005257600080fd5b5061005b6100d6565b6040518080602001828103825283818151815260200191508051906020019080838360005b8381101561009b578082015181840152602081019050610080565b50505050905090810190601f1680156100c85780820380516001836020036101000a031916815260200191505b509250505060405180910390f35b606060038054600181600116156101000203166002900480601f01602080910402602001604051908101604052809291908181526020018280546001816001161561010002031660029004801561016e5780601f106101435761010080835404028352916020019161016e565b820191906000526020600020905b81548152906001019060200180831161015157829003601f168201915b505050505090509056fea165627a7a72305820c35d6cfa0b0d5183696f0c2d1adb3f92b91c0b8fb7f6db7e5ec51e56d4e8c1fd0029a165627a7a72305820c594f6a609a2612544f603b7aea803665e5b89048bb790702e311ef10f5fe8180029",
  "source": "pragma solidity ^0.5.0;\n\nimport \"./RestaurantFactory.sol\";\nimport \"./CustomerFactory.sol\";\nimport \"./RiderFactory.sol\";\n\n\ncontract Controller {\n\n\taddress owner;\n\taddress public restaurantFactoryAddress;\n\taddress public customerFactoryAddress;\n\taddress public riderFactoryAddress;\n\n\tconstructor() public{\n\t\towner = msg.sender;\n\t\trestaurantFactoryAddress = address(new RestaurantFactory(owner));\n\t\tcustomerFactoryAddress = address(new CustomerFactory(owner));\n\t\triderFactoryAddress = address(new RiderFactory(owner));\n\t}\n}",
  "sourcePath": "/home/george/Documents/University/Dissertation/TryAByte/contracts/Controller.sol",
  "compiler": {
    "name": "solc",
    "version": "0.5.0+commit.1d4f565a.Emscripten.clang"
  },
  "schemaVersion": "3.0.2",
  "updatedAt": "2019-03-10T18:03:36.065Z",
  "devdoc": {
    "methods": {}
  },
  "userdoc": {
    "methods": {}
  }
}