{
  "contractName": "Controller",
  "abi": [
    {
      "constant": true,
      "inputs": [],
      "name": "minimumDeliveryFee",
      "outputs": [
        {
          "name": "",
          "type": "uint256"
        }
      ],
      "payable": false,
      "stateMutability": "view",
      "type": "function",
      "signature": "0x5ed097f3"
    },
    {
      "constant": true,
      "inputs": [],
      "name": "customerFactoryAddress",
      "outputs": [
        {
          "name": "",
          "type": "address"
        }
      ],
      "payable": false,
      "stateMutability": "view",
      "type": "function",
      "signature": "0x6455e5ac"
    },
    {
      "constant": true,
      "inputs": [],
      "name": "restaurantFactoryAddress",
      "outputs": [
        {
          "name": "",
          "type": "address"
        }
      ],
      "payable": false,
      "stateMutability": "view",
      "type": "function",
      "signature": "0x68db65a4"
    },
    {
      "constant": true,
      "inputs": [],
      "name": "owner",
      "outputs": [
        {
          "name": "",
          "type": "address"
        }
      ],
      "payable": false,
      "stateMutability": "view",
      "type": "function",
      "signature": "0x8da5cb5b"
    },
    {
      "constant": true,
      "inputs": [],
      "name": "riderFactoryAddress",
      "outputs": [
        {
          "name": "",
          "type": "address"
        }
      ],
      "payable": false,
      "stateMutability": "view",
      "type": "function",
      "signature": "0xc9286d57"
    },
    {
      "inputs": [],
      "payable": false,
      "stateMutability": "nonpayable",
      "type": "constructor",
      "signature": "constructor"
    },
    {
      "constant": false,
      "inputs": [
        {
          "name": "_restaurantFactoryAddress",
          "type": "address"
        },
        {
          "name": "_customerFactoryAddress",
          "type": "address"
        },
        {
          "name": "_riderFactoryAddress",
          "type": "address"
        }
      ],
      "name": "setFactoryAddresses",
      "outputs": [],
      "payable": false,
      "stateMutability": "nonpayable",
      "type": "function",
      "signature": "0xba89c916"
    },
    {
      "constant": false,
      "inputs": [
        {
          "name": "newFee",
          "type": "uint256"
        }
      ],
      "name": "updateMinDeliveryFee",
      "outputs": [],
      "payable": false,
      "stateMutability": "nonpayable",
      "type": "function",
      "signature": "0xa5b8f59d"
    },
    {
      "constant": true,
      "inputs": [
        {
          "name": "data",
          "type": "bytes32"
        }
      ],
      "name": "getHash",
      "outputs": [
        {
          "name": "",
          "type": "bytes32"
        }
      ],
      "payable": false,
      "stateMutability": "pure",
      "type": "function",
      "signature": "0x3cf5040a"
    },
    {
      "constant": false,
      "inputs": [],
      "name": "resetApplication",
      "outputs": [],
      "payable": false,
      "stateMutability": "nonpayable",
      "type": "function",
      "signature": "0xaedbfd70"
    }
  ],
  "bytecode": "0x608060405234801561001057600080fd5b5060008054600160a060020a0319163317905566071afd498d00006004556104988061003d6000396000f3fe60806040526004361061007f5763ffffffff60e060020a6000350416633cf5040a81146100845780635ed097f3146100c05780636455e5ac146100d557806368db65a4146101065780638da5cb5b1461011b578063a5b8f59d14610130578063aedbfd701461015c578063ba89c91614610171578063c9286d57146101b6575b600080fd5b34801561009057600080fd5b506100ae600480360360208110156100a757600080fd5b50356101cb565b60408051918252519081900360200190f35b3480156100cc57600080fd5b506100ae6101ef565b3480156100e157600080fd5b506100ea6101f5565b60408051600160a060020a039092168252519081900360200190f35b34801561011257600080fd5b506100ea610204565b34801561012757600080fd5b506100ea610213565b34801561013c57600080fd5b5061015a6004803603602081101561015357600080fd5b5035610222565b005b34801561016857600080fd5b5061015a6102a0565b34801561017d57600080fd5b5061015a6004803603606081101561019457600080fd5b50600160a060020a0381358116916020810135821691604090910135166103fa565b3480156101c257600080fd5b506100ea61045d565b60408051602080820193909352815180820384018152908201909152805191012090565b60045481565b600254600160a060020a031681565b600154600160a060020a031681565b600054600160a060020a031681565b600054600160a060020a0316331461029b57604080517f08c379a000000000000000000000000000000000000000000000000000000000815260206004820152601560248201527f796f7520617265206e6f7420746865206f776e65720000000000000000000000604482015290519081900360640190fd5b600455565b600054600160a060020a031633146102b757600080fd5b600160009054906101000a9004600160a060020a0316600160a060020a031663d826f88f6040518163ffffffff1660e060020a028152600401600060405180830381600087803b15801561030a57600080fd5b505af115801561031e573d6000803e3d6000fd5b50505050600260009054906101000a9004600160a060020a0316600160a060020a031663d826f88f6040518163ffffffff1660e060020a028152600401600060405180830381600087803b15801561037557600080fd5b505af1158015610389573d6000803e3d6000fd5b50505050600360009054906101000a9004600160a060020a0316600160a060020a031663d826f88f6040518163ffffffff1660e060020a028152600401600060405180830381600087803b1580156103e057600080fd5b505af11580156103f4573d6000803e3d6000fd5b50505050565b600054600160a060020a0316331461041157600080fd5b60018054600160a060020a0394851673ffffffffffffffffffffffffffffffffffffffff1991821617909155600280549385169382169390931790925560038054919093169116179055565b600354600160a060020a03168156fea165627a7a72305820a08022a3d313f709782a0ad077ccccdab3146b5073dd6fffc3e4db6d30c2e1ea0029",
  "source": "pragma solidity ^0.5.0;\n\nimport \"./RestaurantFactory.sol\";\nimport \"./CustomerFactory.sol\";\nimport \"./RiderFactory.sol\";\n\n\ncontract Controller {\n\n\taddress public owner;\n\t\n\taddress public restaurantFactoryAddress;\n\taddress public customerFactoryAddress;\n\taddress public riderFactoryAddress;\n\n\tuint public minimumDeliveryFee;\n\n\n\tconstructor() public{\n\t\towner = msg.sender;\n\t\tminimumDeliveryFee = 2000000000000000; // set min delivery fee to 0.02 eth\n\t}\n\n\tfunction setFactoryAddresses(address _restaurantFactoryAddress, address _customerFactoryAddress, address _riderFactoryAddress) public{\n\t\trequire(msg.sender == owner);\n\t\trestaurantFactoryAddress = _restaurantFactoryAddress;\n\t\tcustomerFactoryAddress = _customerFactoryAddress;\n\t\triderFactoryAddress = _riderFactoryAddress;\n\t}\n\n\tfunction updateMinDeliveryFee(uint newFee) public{\n\t\trequire(msg.sender == owner,\"you are not the owner\");\n\t\tminimumDeliveryFee = newFee;\n\t}\n\n\tfunction getHash(bytes32 data) public pure returns(bytes32){\n\t\treturn keccak256(abi.encodePacked(data));\n\t}\n\n\t// removes all user accounts and orders.\n\tfunction resetApplication() public { \n\t\trequire(msg.sender == owner);\n\t\tRestaurantFactory(restaurantFactoryAddress).reset();\n\t\tCustomerFactory(customerFactoryAddress).reset();\n\t\tRiderFactory(riderFactoryAddress).reset();\n\t}\n}",
  "sourcePath": "/home/george/Documents/workspace/TryAByte/contracts/Controller.sol",
  "compiler": {
    "name": "solc",
    "version": "0.5.0+commit.1d4f565a.Emscripten.clang"
  },
  "schemaVersion": "3.0.6",
  "updatedAt": "2020-01-03T15:43:43.953Z",
  "devdoc": {
    "methods": {}
  },
  "userdoc": {
    "methods": {}
  }
}