{
  "contractName": "Controller",
  "abi": [
    {
      "constant": true,
      "inputs": [],
      "name": "customerFactoryAddress",
      "outputs": [
        {
          "name": "",
          "type": "address"
        }
      ],
      "payable": false,
      "stateMutability": "view",
      "type": "function",
      "signature": "0x6455e5ac"
    },
    {
      "constant": true,
      "inputs": [],
      "name": "restaurantFactoryAddress",
      "outputs": [
        {
          "name": "",
          "type": "address"
        }
      ],
      "payable": false,
      "stateMutability": "view",
      "type": "function",
      "signature": "0x68db65a4"
    },
    {
      "constant": true,
      "inputs": [],
      "name": "owner",
      "outputs": [
        {
          "name": "",
          "type": "address"
        }
      ],
      "payable": false,
      "stateMutability": "view",
      "type": "function",
      "signature": "0x8da5cb5b"
    },
    {
      "constant": true,
      "inputs": [],
      "name": "riderFactoryAddress",
      "outputs": [
        {
          "name": "",
          "type": "address"
        }
      ],
      "payable": false,
      "stateMutability": "view",
      "type": "function",
      "signature": "0xc9286d57"
    },
    {
      "inputs": [],
      "payable": false,
      "stateMutability": "nonpayable",
      "type": "constructor",
      "signature": "constructor"
    }
  ],
  "bytecode": "0x608060405234801561001057600080fd5b50336000806101000a81548173ffffffffffffffffffffffffffffffffffffffff021916908373ffffffffffffffffffffffffffffffffffffffff1602179055506000809054906101000a900473ffffffffffffffffffffffffffffffffffffffff1661007b61028d565b808273ffffffffffffffffffffffffffffffffffffffff1673ffffffffffffffffffffffffffffffffffffffff168152602001915050604051809103906000f0801580156100cd573d6000803e3d6000fd5b50600160006101000a81548173ffffffffffffffffffffffffffffffffffffffff021916908373ffffffffffffffffffffffffffffffffffffffff1602179055506000809054906101000a900473ffffffffffffffffffffffffffffffffffffffff1661013861029d565b808273ffffffffffffffffffffffffffffffffffffffff1673ffffffffffffffffffffffffffffffffffffffff168152602001915050604051809103906000f08015801561018a573d6000803e3d6000fd5b50600260006101000a81548173ffffffffffffffffffffffffffffffffffffffff021916908373ffffffffffffffffffffffffffffffffffffffff1602179055506000809054906101000a900473ffffffffffffffffffffffffffffffffffffffff166101f56102ad565b808273ffffffffffffffffffffffffffffffffffffffff1673ffffffffffffffffffffffffffffffffffffffff168152602001915050604051809103906000f080158015610247573d6000803e3d6000fd5b50600360006101000a81548173ffffffffffffffffffffffffffffffffffffffff021916908373ffffffffffffffffffffffffffffffffffffffff1602179055506102bd565b6040516149698061055283390190565b60405161178980614ebb83390190565b6040516115358061664483390190565b610286806102cc6000396000f3fe608060405260043610610062576000357c0100000000000000000000000000000000000000000000000000000000900463ffffffff1680636455e5ac1461006757806368db65a4146100be5780638da5cb5b14610115578063c9286d571461016c575b600080fd5b34801561007357600080fd5b5061007c6101c3565b604051808273ffffffffffffffffffffffffffffffffffffffff1673ffffffffffffffffffffffffffffffffffffffff16815260200191505060405180910390f35b3480156100ca57600080fd5b506100d36101e9565b604051808273ffffffffffffffffffffffffffffffffffffffff1673ffffffffffffffffffffffffffffffffffffffff16815260200191505060405180910390f35b34801561012157600080fd5b5061012a61020f565b604051808273ffffffffffffffffffffffffffffffffffffffff1673ffffffffffffffffffffffffffffffffffffffff16815260200191505060405180910390f35b34801561017857600080fd5b50610181610234565b604051808273ffffffffffffffffffffffffffffffffffffffff1673ffffffffffffffffffffffffffffffffffffffff16815260200191505060405180910390f35b600260009054906101000a900473ffffffffffffffffffffffffffffffffffffffff1681565b600160009054906101000a900473ffffffffffffffffffffffffffffffffffffffff1681565b6000809054906101000a900473ffffffffffffffffffffffffffffffffffffffff1681565b600360009054906101000a900473ffffffffffffffffffffffffffffffffffffffff168156fea165627a7a72305820b9307b80ebaa67a2d991b3fcf01369317828dceccec7a9a49aed092aae53d7060029608060405234801561001057600080fd5b506040516020806149698339810180604052602081101561003057600080fd5b8101908080519060200190929190505050806000806101000a81548173ffffffffffffffffffffffffffffffffffffffff021916908373ffffffffffffffffffffffffffffffffffffffff16021790555033600160006101000a81548173ffffffffffffffffffffffffffffffffffffffff021916908373ffffffffffffffffffffffffffffffffffffffff16021790555060006003819055505061488f806100da6000396000f3fe60806040526004361061006d576000357c0100000000000000000000000000000000000000000000000000000000900463ffffffff1680631f2e3f6c1461007257806379a4fa27146101e25780638da5cb5b1461024b578063ad5461d8146102a2578063b11b91e61461031d575b600080fd5b34801561007e57600080fd5b506101a06004803603606081101561009557600080fd5b81019080803590602001906401000000008111156100b257600080fd5b8201836020820111156100c457600080fd5b803590602001918460018302840111640100000000831117156100e657600080fd5b90919293919293908035906020019064010000000081111561010757600080fd5b82018360208201111561011957600080fd5b8035906020019184600183028401116401000000008311171561013b57600080fd5b90919293919293908035906020019064010000000081111561015c57600080fd5b82018360208201111561016e57600080fd5b8035906020019184600183028401116401000000008311171561019057600080fd5b9091929391929390505050610348565b604051808273ffffffffffffffffffffffffffffffffffffffff1673ffffffffffffffffffffffffffffffffffffffff16815260200191505060405180910390f35b3480156101ee57600080fd5b506102316004803603602081101561020557600080fd5b81019080803573ffffffffffffffffffffffffffffffffffffffff169060200190929190505050610584565b604051808215151515815260200191505060405180910390f35b34801561025757600080fd5b5061026061061f565b604051808273ffffffffffffffffffffffffffffffffffffffff1673ffffffffffffffffffffffffffffffffffffffff16815260200191505060405180910390f35b3480156102ae57600080fd5b506102db600480360360208110156102c557600080fd5b8101908080359060200190929190505050610644565b604051808273ffffffffffffffffffffffffffffffffffffffff1673ffffffffffffffffffffffffffffffffffffffff16815260200191505060405180910390f35b34801561032957600080fd5b50610332610677565b6040518082815260200191505060405180910390f35b6000808787905011151561035b57600080fd5b60008585905011151561036d57600080fd5b60008383905011151561037f57600080fd5b6000600160009054906101000a900473ffffffffffffffffffffffffffffffffffffffff16336003548a8a8a8a8a8a6103b661067d565b808a73ffffffffffffffffffffffffffffffffffffffff1673ffffffffffffffffffffffffffffffffffffffff1681526020018973ffffffffffffffffffffffffffffffffffffffff1673ffffffffffffffffffffffffffffffffffffffff16815260200188815260200180602001806020018060200184810384528a8a82818152602001925080828437600081840152601f19601f8201169050808301925050508481038352888882818152602001925080828437600081840152601f19601f8201169050808301925050508481038252868682818152602001925080828437600081840152601f19601f8201169050808301925050509c50505050505050505050505050604051809103906000f0801580156104d8573d6000803e3d6000fd5b5090508060026000600354815260200190815260200160002060006101000a81548173ffffffffffffffffffffffffffffffffffffffff021916908373ffffffffffffffffffffffffffffffffffffffff16021790555060036000815480929190600101919050555060026000600354815260200190815260200160002060009054906101000a900473ffffffffffffffffffffffffffffffffffffffff169150509695505050505050565b600080600090505b600354811015610614578273ffffffffffffffffffffffffffffffffffffffff166002600083815260200190815260200160002060009054906101000a900473ffffffffffffffffffffffffffffffffffffffff1673ffffffffffffffffffffffffffffffffffffffff16141561060757600191505061061a565b808060010191505061058c565b50600090505b919050565b6000809054906101000a900473ffffffffffffffffffffffffffffffffffffffff1681565b60026020528060005260406000206000915054906101000a900473ffffffffffffffffffffffffffffffffffffffff1681565b60035481565b6040516141d68061068e8339019056fe60806040523480156200001157600080fd5b50604051620041d6380380620041d6833981018060405260c08110156200003757600080fd5b8101908080519060200190929190805190602001909291908051906020019092919080516401000000008111156200006e57600080fd5b828101905060208101848111156200008557600080fd5b8151856001820283011164010000000082111715620000a357600080fd5b50509291906020018051640100000000811115620000c057600080fd5b82810190506020810184811115620000d757600080fd5b8151856001820283011164010000000082111715620000f557600080fd5b505092919060200180516401000000008111156200011257600080fd5b828101905060208101848111156200012957600080fd5b81518560018202830111640100000000821117156200014757600080fd5b50509291905050508360008190555082600190805190602001906200016e92919062000278565b5081600290805190602001906200018792919062000278565b508060039080519060200190620001a092919062000278565b50600060088190555085600660006101000a81548173ffffffffffffffffffffffffffffffffffffffff021916908373ffffffffffffffffffffffffffffffffffffffff16021790555084600560006101000a81548173ffffffffffffffffffffffffffffffffffffffff021916908373ffffffffffffffffffffffffffffffffffffffff16021790555033600760006101000a81548173ffffffffffffffffffffffffffffffffffffffff021916908373ffffffffffffffffffffffffffffffffffffffff16021790555050505050505062000327565b828054600181600116156101000203166002900490600052602060002090601f016020900481019282601f10620002bb57805160ff1916838001178555620002ec565b82800160010185558215620002ec579182015b82811115620002eb578251825591602001919060010190620002ce565b5b509050620002fb9190620002ff565b5090565b6200032491905b808211156200032057600081600090555060010162000306565b5090565b90565b613e9f80620003376000396000f3fe60806040526004361062000127576000357c0100000000000000000000000000000000000000000000000000000000900463ffffffff16806306fdde03146200012c578063125ba97714620001c2578063141cf16614620001f05780631d83440914620002db5780633e92c46814620003095780634b24ea4714620003ee578063516f279e146200044857806368db65a414620004de57806372bb5678146200053857806376af633c14620005f757806380f474f6146200068d5780638da5cb5b14620006bb578063a4e4f2011462000715578063a85c38ef146200072f578063af640d0f14620007b9578063bcd2c4e114620007e7578063c0c1a0de146200083c578063c7c6d87f1462000891578063cffb703c146200099a578063f943eecd14620009f4575b600080fd5b3480156200013957600080fd5b506200014462000a4e565b6040518080602001828103825283818151815260200191508051906020019080838360005b838110156200018657808201518184015260208101905062000169565b50505050905090810190601f168015620001b45780820380516001836020036101000a031916815260200191505b509250505060405180910390f35b348015620001cf57600080fd5b50620001da62000af0565b6040518082815260200191505060405180910390f35b348015620001fd57600080fd5b50620002ba600480360360208110156200021657600080fd5b81019080803590602001906401000000008111156200023457600080fd5b8201836020820111156200024757600080fd5b803590602001918460208302840111640100000000831117156200026a57600080fd5b919080806020026020016040519081016040528093929190818152602001838360200280828437600081840152601f19601f82011690508083019250505050505050919291929050505062000afd565b60405180831515151581526020018281526020019250505060405180910390f35b348015620002e857600080fd5b50620002f362000cba565b6040518082815260200191505060405180910390f35b3480156200031657600080fd5b50620003ec600480360360408110156200032f57600080fd5b81019080803590602001906401000000008111156200034d57600080fd5b8201836020820111156200036057600080fd5b803590602001918460208302840111640100000000831117156200038357600080fd5b909192939192939080359060200190640100000000811115620003a557600080fd5b820183602082011115620003b857600080fd5b80359060200191846020830284011164010000000083111715620003db57600080fd5b909192939192939050505062000cc0565b005b348015620003fb57600080fd5b506200040662000ddc565b604051808273ffffffffffffffffffffffffffffffffffffffff1673ffffffffffffffffffffffffffffffffffffffff16815260200191505060405180910390f35b3480156200045557600080fd5b506200046062000e02565b6040518080602001828103825283818151815260200191508051906020019080838360005b83811015620004a257808201518184015260208101905062000485565b50505050905090810190601f168015620004d05780820380516001836020036101000a031916815260200191505b509250505060405180910390f35b348015620004eb57600080fd5b50620004f662000ea4565b604051808273ffffffffffffffffffffffffffffffffffffffff1673ffffffffffffffffffffffffffffffffffffffff16815260200191505060405180910390f35b620005b5600480360360208110156200055057600080fd5b81019080803590602001906401000000008111156200056e57600080fd5b8201836020820111156200058157600080fd5b80359060200191846020830284011164010000000083111715620005a457600080fd5b909192939192939050505062000eca565b604051808273ffffffffffffffffffffffffffffffffffffffff1673ffffffffffffffffffffffffffffffffffffffff16815260200191505060405180910390f35b3480156200060457600080fd5b506200060f620015db565b6040518080602001828103825283818151815260200191508051906020019080838360005b838110156200065157808201518184015260208101905062000634565b50505050905090810190601f1680156200067f5780820380516001836020036101000a031916815260200191505b509250505060405180910390f35b3480156200069a57600080fd5b50620006a56200167d565b6040518082815260200191505060405180910390f35b348015620006c857600080fd5b50620006d362001683565b604051808273ffffffffffffffffffffffffffffffffffffffff1673ffffffffffffffffffffffffffffffffffffffff16815260200191505060405180910390f35b3480156200072257600080fd5b506200072d620016a9565b005b3480156200073c57600080fd5b506200076c600480360360208110156200075557600080fd5b810190808035906020019092919050505062001718565b60405180831515151581526020018273ffffffffffffffffffffffffffffffffffffffff1673ffffffffffffffffffffffffffffffffffffffff1681526020019250505060405180910390f35b348015620007c657600080fd5b50620007d162001769565b6040518082815260200191505060405180910390f35b348015620007f457600080fd5b506200083a600480360360208110156200080d57600080fd5b81019080803573ffffffffffffffffffffffffffffffffffffffff1690602001909291905050506200176f565b005b3480156200084957600080fd5b506200088f600480360360208110156200086257600080fd5b81019080803573ffffffffffffffffffffffffffffffffffffffff16906020019092919050505062001864565b005b3480156200089e57600080fd5b506200091c60048036036020811015620008b757600080fd5b8101908080359060200190640100000000811115620008d557600080fd5b820183602082011115620008e857600080fd5b803590602001918460208302840111640100000000831117156200090b57600080fd5b90919293919293905050506200195a565b6040518080602001828103825283818151815260200191508051906020019080838360005b838110156200095e57808201518184015260208101905062000941565b50505050905090810190601f1680156200098c5780820380516001836020036101000a031916815260200191505b509250505060405180910390f35b348015620009a757600080fd5b50620009d760048036036020811015620009c057600080fd5b81019080803590602001909291905050506200241b565b604051808381526020018281526020019250505060405180910390f35b34801562000a0157600080fd5b5062000a316004803603602081101562000a1a57600080fd5b81019080803590602001909291905050506200244f565b604051808381526020018281526020019250505060405180910390f35b60018054600181600116156101000203166002900480601f01602080910402602001604051908101604052809291908181526020018280546001816001161561010002031660029004801562000ae85780601f1062000abc5761010080835404028352916020019162000ae8565b820191906000526020600020905b81548152906001019060200180831162000aca57829003601f168201915b505050505081565b6000600a80549050905090565b600080600080600090505b845181101562000cab57600062000c3873__lib___________________________________639201de55888581518110151562000b4157fe5b906020019060200201516040518263ffffffff167c01000000000000000000000000000000000000000000000000000000000281526004018082815260200191505060006040518083038186803b15801562000b9c57600080fd5b505af415801562000bb1573d6000803e3d6000fd5b505050506040513d6000823e3d601f19601f82011682018060405250602081101562000bdc57600080fd5b81019080805164010000000081111562000bf557600080fd5b8281019050602081018481111562000c0c57600080fd5b815185600182028301116401000000008211171562000c2a57600080fd5b50509291905050506200249f565b90507fffffffffffffffffffffffffffffffffffffffffffffffffffffffffffffffff81141562000c76576000808090509450945050505062000cb5565b600a8181548110151562000c8657fe5b9060005260206000209060020201600101548301925050808060010191505062000b08565b5060018192509250505b915091565b60085481565b600560009054906101000a900473ffffffffffffffffffffffffffffffffffffffff1673ffffffffffffffffffffffffffffffffffffffff163373ffffffffffffffffffffffffffffffffffffffff1614151562000d1d57600080fd5b818190508484905014151562000d3257600080fd5b60008090505b8484905081101562000dd557600a6040805190810160405280878785818110151562000d6057fe5b905060200201358152602001858585818110151562000d7b57fe5b90506020020135815250908060018154018082558091505090600182039060005260206000209060020201600090919290919091506000820151816000015560208201518160010155505050808060010191505062000d38565b5050505050565b600660009054906101000a900473ffffffffffffffffffffffffffffffffffffffff1681565b60028054600181600116156101000203166002900480601f01602080910402602001604051908101604052809291908181526020018280546001816001161561010002031660029004801562000e9c5780601f1062000e705761010080835404028352916020019162000e9c565b820191906000526020600020905b81548152906001019060200180831162000e7e57829003601f168201915b505050505081565b600760009054906101000a900473ffffffffffffffffffffffffffffffffffffffff1681565b6000600660009054906101000a900473ffffffffffffffffffffffffffffffffffffffff1673ffffffffffffffffffffffffffffffffffffffff16636455e5ac6040518163ffffffff167c010000000000000000000000000000000000000000000000000000000002815260040160206040518083038186803b15801562000f5157600080fd5b505afa15801562000f66573d6000803e3d6000fd5b505050506040513d602081101562000f7d57600080fd5b810190808051906020019092919050505073ffffffffffffffffffffffffffffffffffffffff1663689b0098336040518263ffffffff167c0100000000000000000000000000000000000000000000000000000000028152600401808273ffffffffffffffffffffffffffffffffffffffff1673ffffffffffffffffffffffffffffffffffffffff16815260200191505060206040518083038186803b1580156200102757600080fd5b505afa1580156200103c573d6000803e3d6000fd5b505050506040513d60208110156200105357600080fd5b81019080805190602001909291905050501515620010d9576040517f08c379a00000000000000000000000000000000000000000000000000000000081526004018080602001828103825260158152602001807f437573746f6d657220646f65736e74206578697374000000000000000000000081525060200191505060405180910390fd5b6060838390506040519080825280602002602001820160405280156200110e5781602001602082028038833980820191505090505b50905060008090505b848490508110156200133a57606073__lib___________________________________639201de5587878581811015156200114e57fe5b905060200201356040518263ffffffff167c01000000000000000000000000000000000000000000000000000000000281526004018082815260200191505060006040518083038186803b158015620011a657600080fd5b505af4158015620011bb573d6000803e3d6000fd5b505050506040513d6000823e3d601f19601f820116820180604052506020811015620011e657600080fd5b810190808051640100000000811115620011ff57600080fd5b828101905060208101848111156200121657600080fd5b81518560018202830111640100000000821117156200123457600080fd5b5050929190505050905060006200124b826200249f565b90507fffffffffffffffffffffffffffffffffffffffffffffffffffffffffffffffff81141515620012bc57600a818154811015156200128757fe5b9060005260206000209060020201600101548484815181101515620012a857fe5b90602001906020020181815250506200132a565b6040517f08c379a000000000000000000000000000000000000000000000000000000000815260040180806020018281038252600d8152602001807f496e76616c6964204974656d730000000000000000000000000000000000000081525060200191505060405180910390fd5b5050808060010191505062001117565b506000600854600760009054906101000a900473ffffffffffffffffffffffffffffffffffffffff16868685600660009054906101000a900473ffffffffffffffffffffffffffffffffffffffff1633620013946200265d565b808881526020018773ffffffffffffffffffffffffffffffffffffffff1673ffffffffffffffffffffffffffffffffffffffff16815260200180602001806020018573ffffffffffffffffffffffffffffffffffffffff1673ffffffffffffffffffffffffffffffffffffffff1681526020018473ffffffffffffffffffffffffffffffffffffffff1673ffffffffffffffffffffffffffffffffffffffff1681526020018381038352888882818152602001925060200280828437600081840152601f19601f820116905080830192505050838103825286818151815260200191508051906020019060200280838360005b83811015620014a457808201518184015260208101905062001487565b505050509050019950505050505050505050604051809103906000f080158015620014d3573d6000803e3d6000fd5b50905060408051908101604052806001151581526020018273ffffffffffffffffffffffffffffffffffffffff1681525060096000600854815260200190815260200160002060008201518160000160006101000a81548160ff02191690831515021790555060208201518160000160016101000a81548173ffffffffffffffffffffffffffffffffffffffff021916908373ffffffffffffffffffffffffffffffffffffffff16021790555090505060086000815480929190600101919050555060096000600160085403815260200190815260200160002060000160019054906101000a900473ffffffffffffffffffffffffffffffffffffffff169250505092915050565b60038054600181600116156101000203166002900480601f016020809104026020016040519081016040528092919081815260200182805460018160011615610100020316600290048015620016755780601f10620016495761010080835404028352916020019162001675565b820191906000526020600020905b8154815290600101906020018083116200165757829003601f168201915b505050505081565b60045481565b600560009054906101000a900473ffffffffffffffffffffffffffffffffffffffff1681565b600560009054906101000a900473ffffffffffffffffffffffffffffffffffffffff1673ffffffffffffffffffffffffffffffffffffffff163373ffffffffffffffffffffffffffffffffffffffff161415156200170657600080fd5b600a60006200171691906200266e565b565b60096020528060005260406000206000915090508060000160009054906101000a900460ff16908060000160019054906101000a900473ffffffffffffffffffffffffffffffffffffffff16905082565b60005481565b600560009054906101000a900473ffffffffffffffffffffffffffffffffffffffff1673ffffffffffffffffffffffffffffffffffffffff163373ffffffffffffffffffffffffffffffffffffffff16141515620017cc57600080fd5b8073ffffffffffffffffffffffffffffffffffffffff1663e9132c42600280811115620017f557fe5b6040518263ffffffff167c010000000000000000000000000000000000000000000000000000000002815260040180828152602001915050600060405180830381600087803b1580156200184857600080fd5b505af11580156200185d573d6000803e3d6000fd5b5050505050565b600560009054906101000a900473ffffffffffffffffffffffffffffffffffffffff1673ffffffffffffffffffffffffffffffffffffffff163373ffffffffffffffffffffffffffffffffffffffff16141515620018c157600080fd5b8073ffffffffffffffffffffffffffffffffffffffff1663e9132c4260016002811115620018eb57fe5b6040518263ffffffff167c010000000000000000000000000000000000000000000000000000000002815260040180828152602001915050600060405180830381600087803b1580156200193e57600080fd5b505af115801562001953573d6000803e3d6000fd5b5050505050565b6060600560009054906101000a900473ffffffffffffffffffffffffffffffffffffffff1673ffffffffffffffffffffffffffffffffffffffff163373ffffffffffffffffffffffffffffffffffffffff16141515620019b957600080fd5b600083839050111515620019cc57600080fd5b6020604051908101604052806000815250905060008090505b83839050811015620024115773__lib___________________________________63ff74927b8373__lib___________________________________63ff74927b73__lib___________________________________639201de558a8a89818110151562001a4f57fe5b905060200201356040518263ffffffff167c01000000000000000000000000000000000000000000000000000000000281526004018082815260200191505060006040518083038186803b15801562001aa757600080fd5b505af415801562001abc573d6000803e3d6000fd5b505050506040513d6000823e3d601f19601f82011682018060405250602081101562001ae757600080fd5b81019080805164010000000081111562001b0057600080fd5b8281019050602081018481111562001b1757600080fd5b815185600182028301116401000000008211171562001b3557600080fd5b50509291905050506040518263ffffffff167c0100000000000000000000000000000000000000000000000000000000028152600401808060200180602001838103835284818151815260200191508051906020019080838360005b8381101562001bae57808201518184015260208101905062001b91565b50505050905090810190601f16801562001bdc5780820380516001836020036101000a031916815260200191505b50838103825260018152602001807f3a00000000000000000000000000000000000000000000000000000000000000815250602001935050505060006040518083038186803b15801562001c2f57600080fd5b505af415801562001c44573d6000803e3d6000fd5b505050506040513d6000823e3d601f19601f82011682018060405250602081101562001c6f57600080fd5b81019080805164010000000081111562001c8857600080fd5b8281019050602081018481111562001c9f57600080fd5b815185600182028301116401000000008211171562001cbd57600080fd5b50509291905050506040518363ffffffff167c0100000000000000000000000000000000000000000000000000000000028152600401808060200180602001838103835285818151815260200191508051906020019080838360005b8381101562001d3657808201518184015260208101905062001d19565b50505050905090810190601f16801562001d645780820380516001836020036101000a031916815260200191505b50838103825284818151815260200191508051906020019080838360005b8381101562001d9f57808201518184015260208101905062001d82565b50505050905090810190601f16801562001dcd5780820380516001836020036101000a031916815260200191505b5094505050505060006040518083038186803b15801562001ded57600080fd5b505af415801562001e02573d6000803e3d6000fd5b505050506040513d6000823e3d601f19601f82011682018060405250602081101562001e2d57600080fd5b81019080805164010000000081111562001e4657600080fd5b8281019050602081018481111562001e5d57600080fd5b815185600182028301116401000000008211171562001e7b57600080fd5b50509291905050509150600062001fa873__lib___________________________________639201de55878786818110151562001eb457fe5b905060200201356040518263ffffffff167c01000000000000000000000000000000000000000000000000000000000281526004018082815260200191505060006040518083038186803b15801562001f0c57600080fd5b505af415801562001f21573d6000803e3d6000fd5b505050506040513d6000823e3d601f19601f82011682018060405250602081101562001f4c57600080fd5b81019080805164010000000081111562001f6557600080fd5b8281019050602081018481111562001f7c57600080fd5b815185600182028301116401000000008211171562001f9a57600080fd5b50509291905050506200249f565b90507fffffffffffffffffffffffffffffffffffffffffffffffffffffffffffffffff811415156200225c57600a8181548110151562001fe457fe5b906000526020600020906002020160008082016000905560018201600090555050600a6001600a80549050038154811015156200201d57fe5b9060005260206000209060020201600a828154811015156200203b57fe5b90600052602060002090600202016000820154816000015560018201548160010155905050600a6001600a80549050038154811015156200207857fe5b90600052602060002090600202016000808201600090556001820160009055505073__lib___________________________________63ff74927b846040518263ffffffff167c0100000000000000000000000000000000000000000000000000000000028152600401808060200180602001838103835284818151815260200191508051906020019080838360005b838110156200212557808201518184015260208101905062002108565b50505050905090810190601f168015620021535780820380516001836020036101000a031916815260200191505b50838103825260148152602001807f2052656d6f7665642053756365737366756c6c79000000000000000000000000815250602001935050505060006040518083038186803b158015620021a657600080fd5b505af4158015620021bb573d6000803e3d6000fd5b505050506040513d6000823e3d601f19601f820116820180604052506020811015620021e657600080fd5b810190808051640100000000811115620021ff57600080fd5b828101905060208101848111156200221657600080fd5b81518560018202830111640100000000821117156200223457600080fd5b50509291905050509250600a80548091906001900362002255919062002694565b5062002402565b73__lib___________________________________63ff74927b846040518263ffffffff167c0100000000000000000000000000000000000000000000000000000000028152600401808060200180602001838103835284818151815260200191508051906020019080838360005b83811015620022e8578082015181840152602081019050620022cb565b50505050905090810190601f168015620023165780820380516001836020036101000a031916815260200191505b508381038252601e8152602001807f204572726f722c20636f756c64206e6f742066696e6420696e206d656e750000815250602001935050505060006040518083038186803b1580156200236957600080fd5b505af41580156200237e573d6000803e3d6000fd5b505050506040513d6000823e3d601f19601f820116820180604052506020811015620023a957600080fd5b810190808051640100000000811115620023c257600080fd5b82810190506020810184811115620023d957600080fd5b8151856001820283011164010000000082111715620023f757600080fd5b505092919050505092505b508080600101915050620019e5565b5080905092915050565b600a818154811015156200242b57fe5b90600052602060002090600202016000915090508060000154908060010154905082565b600080600a838154811015156200246257fe5b906000526020600020906002020160000154600a848154811015156200248457fe5b90600052602060002090600202016001015491509150915091565b600080600090505b600a805490508112156200260157620025e373__lib___________________________________639201de55600a84815481101515620024e357fe5b9060005260206000209060020201600001546040518263ffffffff167c01000000000000000000000000000000000000000000000000000000000281526004018082815260200191505060006040518083038186803b1580156200254657600080fd5b505af41580156200255b573d6000803e3d6000fd5b505050506040513d6000823e3d601f19601f8201168201806040525060208110156200258657600080fd5b8101908080516401000000008111156200259f57600080fd5b82810190506020810184811115620025b657600080fd5b8151856001820283011164010000000082111715620025d457600080fd5b5050929190505050846200262b565b15620025f3578091505062002626565b8080600101915050620024a7565b507fffffffffffffffffffffffffffffffffffffffffffffffffffffffffffffffff90505b919050565b60008151835114151562002643576000905062002657565b818051906020012083805190602001201490505b92915050565b60405161177880620026fc83390190565b5080546000825560020290600052602060002090810190620026919190620026c9565b50565b815481835581811115620026c457600202816002028360005260206000209182019101620026c39190620026c9565b5b505050565b620026f891905b80821115620026f457600080820160009055600182016000905550600201620026d0565b5090565b9056fe60806040523480156200001157600080fd5b506040516200177838038062001778833981018060405260c08110156200003757600080fd5b81019080805190602001909291908051906020019092919080516401000000008111156200006457600080fd5b828101905060208101848111156200007b57600080fd5b81518560208202830111640100000000821117156200009957600080fd5b50509291906020018051640100000000811115620000b657600080fd5b82810190506020810184811115620000cd57600080fd5b8151856020820283011164010000000082111715620000eb57600080fd5b505092919060200180519060200190929190805190602001909291905050508473ffffffffffffffffffffffffffffffffffffffff166379a4fa27336040518263ffffffff167c0100000000000000000000000000000000000000000000000000000000028152600401808273ffffffffffffffffffffffffffffffffffffffff1673ffffffffffffffffffffffffffffffffffffffff16815260200191505060206040518083038186803b158015620001a457600080fd5b505afa158015620001b9573d6000803e3d6000fd5b505050506040513d6020811015620001d057600080fd5b810190808051906020019092919050505015156200027c576040517f08c379a000000000000000000000000000000000000000000000000000000000815260040180806020018281038252603d8152602001807f617474656d7074656420746f206d616b65206f726465722066726f6d2061646481526020017f726573732074686174206973206e6f7420612072657374617572616e7400000081525060400191505060405180910390fd5b825184511415156200028d57600080fd5b8560038190555033600560006101000a81548173ffffffffffffffffffffffffffffffffffffffff021916908373ffffffffffffffffffffffffffffffffffffffff16021790555080600760006101000a81548173ffffffffffffffffffffffffffffffffffffffff021916908373ffffffffffffffffffffffffffffffffffffffff16021790555084600460006101000a81548173ffffffffffffffffffffffffffffffffffffffff021916908373ffffffffffffffffffffffffffffffffffffffff16021790555081600860006101000a81548173ffffffffffffffffffffffffffffffffffffffff021916908373ffffffffffffffffffffffffffffffffffffffff1602179055506000600a819055506000600c8190555060008090505b84518110156200058757604080519081016040528073__lib___________________________________639201de558885815181101515620003ec57fe5b906020019060200201516040518263ffffffff167c01000000000000000000000000000000000000000000000000000000000281526004018082815260200191505060006040518083038186803b1580156200044757600080fd5b505af41580156200045c573d6000803e3d6000fd5b505050506040513d6000823e3d601f19601f8201168201806040525060208110156200048757600080fd5b810190808051640100000000811115620004a057600080fd5b82810190506020810184811115620004b757600080fd5b8151856001820283011164010000000082111715620004d557600080fd5b505092919050505081526020018583815181101515620004f157fe5b90602001906020020151815250600d6000600c548152602001908152602001600020600082015181600001908051906020019062000531929190620005d8565b506020820151816001015590505083818151811015156200054e57fe5b90602001906020020151600a60008282540192505081905550600c600081548092919060010191905055508080600101915050620003ae565b5060c8600b81905550600060038111156200059e57fe5b60008190555060006002811115620005b257fe5b60028190555060006002811115620005c657fe5b60018190555050505050505062000687565b828054600181600116156101000203166002900490600052602060002090601f016020900481019282601f106200061b57805160ff19168380011785556200064c565b828001600101855582156200064c579182015b828111156200064b5782518255916020019190600101906200062e565b5b5090506200065b91906200065f565b5090565b6200068491905b808211156200068057600081600090555060010162000666565b5090565b90565b6110e180620006976000396000f3fe6080604052600436106100db576000357c0100000000000000000000000000000000000000000000000000000000900463ffffffff16806312065fe0146100e05780632799276d1461010b5780633129e77314610136578063329408161461018c5780633733d9f5146101b75780633e3ca4d3146101e257806368db65a41461020d5780638d74d1ca14610264578063a14b7e681461026e578063af640d0f14610299578063bd3e19d4146102c4578063bfb231d2146102ef578063c7529f0c146103aa578063e9132c42146103b4578063ed168058146103e2575b600080fd5b3480156100ec57600080fd5b506100f5610439565b6040518082815260200191505060405180910390f35b34801561011757600080fd5b50610120610458565b6040518082815260200191505060405180910390f35b34801561014257600080fd5b5061016f6004803603602081101561015957600080fd5b810190808035906020019092919050505061045e565b604051808381526020018281526020019250505060405180910390f35b34801561019857600080fd5b506101a16106ca565b6040518082815260200191505060405180910390f35b3480156101c357600080fd5b506101cc6106d0565b6040518082815260200191505060405180910390f35b3480156101ee57600080fd5b506101f76107e6565b6040518082815260200191505060405180910390f35b34801561021957600080fd5b506102226107ec565b604051808273ffffffffffffffffffffffffffffffffffffffff1673ffffffffffffffffffffffffffffffffffffffff16815260200191505060405180910390f35b61026c610812565b005b34801561027a57600080fd5b506102836109b6565b6040518082815260200191505060405180910390f35b3480156102a557600080fd5b506102ae6109bc565b6040518082815260200191505060405180910390f35b3480156102d057600080fd5b506102d96109c2565b6040518082815260200191505060405180910390f35b3480156102fb57600080fd5b506103286004803603602081101561031257600080fd5b81019080803590602001909291905050506109cc565b6040518080602001838152602001828103825284818151815260200191508051906020019080838360005b8381101561036e578082015181840152602081019050610353565b50505050905090810190601f16801561039b5780820380516001836020036101000a031916815260200191505b50935050505060405180910390f35b6103b2610a88565b005b6103e0600480360360208110156103ca57600080fd5b8101908080359060200190929190505050610c8c565b005b3480156103ee57600080fd5b506103f761108f565b604051808273ffffffffffffffffffffffffffffffffffffffff1673ffffffffffffffffffffffffffffffffffffffff16815260200191505060405180910390f35b60003073ffffffffffffffffffffffffffffffffffffffff1631905090565b600c5481565b6000803373ffffffffffffffffffffffffffffffffffffffff16600760009054906101000a900473ffffffffffffffffffffffffffffffffffffffff1673ffffffffffffffffffffffffffffffffffffffff16148061050a57503373ffffffffffffffffffffffffffffffffffffffff16600560009054906101000a900473ffffffffffffffffffffffffffffffffffffffff1673ffffffffffffffffffffffffffffffffffffffff16145b8061056257503373ffffffffffffffffffffffffffffffffffffffff16600660009054906101000a900473ffffffffffffffffffffffffffffffffffffffff1673ffffffffffffffffffffffffffffffffffffffff16145b151561056d57600080fd5b73__lib___________________________________63cfb51928600d60008681526020019081526020016000206000016040518263ffffffff167c010000000000000000000000000000000000000000000000000000000002815260040180806020018281038252838181546001816001161561010002031660029004815260200191508054600181600116156101000203166002900480156106515780601f1061062657610100808354040283529160200191610651565b820191906000526020600020905b81548152906001019060200180831161063457829003601f168201915b50509250505060206040518083038186803b15801561066f57600080fd5b505af4158015610683573d6000803e3d6000fd5b505050506040513d602081101561069957600080fd5b8101908080519060200190929190505050600d60008581526020019081526020016000206001015491509150915091565b60015481565b60003373ffffffffffffffffffffffffffffffffffffffff16600760009054906101000a900473ffffffffffffffffffffffffffffffffffffffff1673ffffffffffffffffffffffffffffffffffffffff16148061077b57503373ffffffffffffffffffffffffffffffffffffffff16600560009054906101000a900473ffffffffffffffffffffffffffffffffffffffff1673ffffffffffffffffffffffffffffffffffffffff16145b806107d357503373ffffffffffffffffffffffffffffffffffffffff16600660009054906101000a900473ffffffffffffffffffffffffffffffffffffffff1673ffffffffffffffffffffffffffffffffffffffff16145b15156107de57600080fd5b600954905090565b60005481565b600460009054906101000a900473ffffffffffffffffffffffffffffffffffffffff1681565b600760009054906101000a900473ffffffffffffffffffffffffffffffffffffffff1673ffffffffffffffffffffffffffffffffffffffff163373ffffffffffffffffffffffffffffffffffffffff161415156108fd576040517f08c379a00000000000000000000000000000000000000000000000000000000081526004018080602001828103825260288152602001807f6f6e6c792074686520637573746f6d65722063616e2070617920666f7220746881526020017f6973206f7264657200000000000000000000000000000000000000000000000081525060400191505060405180910390fd5b600b54600a540134101515156109a1576040517f08c379a00000000000000000000000000000000000000000000000000000000081526004018080602001828103825260228152602001807f6e6f7420656e6f7567682065746865722073656e7420746f20746865206f726481526020017f657200000000000000000000000000000000000000000000000000000000000081525060400191505060405180910390fd5b600160028111156109ae57fe5b600281905550565b60025481565b60035481565b6000600a54905090565b600d602052806000526040600020600091509050806000018054600181600116156101000203166002900480601f016020809104026020016040519081016040528092919081815260200182805460018160011615610100020316600290048015610a785780601f10610a4d57610100808354040283529160200191610a78565b820191906000526020600020905b815481529060010190602001808311610a5b57829003601f168201915b5050505050908060010154905082565b600860009054906101000a900473ffffffffffffffffffffffffffffffffffffffff1673ffffffffffffffffffffffffffffffffffffffff1663c9286d576040518163ffffffff167c010000000000000000000000000000000000000000000000000000000002815260040160206040518083038186803b158015610b0c57600080fd5b505afa158015610b20573d6000803e3d6000fd5b505050506040513d6020811015610b3657600080fd5b810190808051906020019092919050505073ffffffffffffffffffffffffffffffffffffffff166313952670336040518263ffffffff167c0100000000000000000000000000000000000000000000000000000000028152600401808273ffffffffffffffffffffffffffffffffffffffff1673ffffffffffffffffffffffffffffffffffffffff16815260200191505060206040518083038186803b158015610bdf57600080fd5b505afa158015610bf3573d6000803e3d6000fd5b505050506040513d6020811015610c0957600080fd5b81019080805190602001909291905050501515610c2557600080fd5b600a543410151515610c3657600080fd5b60016003811115610c4357fe5b60008190555033600660006101000a81548173ffffffffffffffffffffffffffffffffffffffff021916908373ffffffffffffffffffffffffffffffffffffffff160217905550565b600660009054906101000a900473ffffffffffffffffffffffffffffffffffffffff1673ffffffffffffffffffffffffffffffffffffffff163373ffffffffffffffffffffffffffffffffffffffff161480610d355750600560009054906101000a900473ffffffffffffffffffffffffffffffffffffffff1673ffffffffffffffffffffffffffffffffffffffff163373ffffffffffffffffffffffffffffffffffffffff16145b80610d8d5750600760009054906101000a900473ffffffffffffffffffffffffffffffffffffffff1673ffffffffffffffffffffffffffffffffffffffff163373ffffffffffffffffffffffffffffffffffffffff16145b1515610e4d576040517f08c379a00000000000000000000000000000000000000000000000000000000081526004018080602001828103825260508152602001807f596f7520646f6e742068617665207065726d697373696f6e20746f207365652081526020017f74686973206f726465722c2064696420796f752067657420746865206f72646581526020017f7220616464726573732077726f6e673f0000000000000000000000000000000081525060600191505060405180910390fd5b600660009054906101000a900473ffffffffffffffffffffffffffffffffffffffff1673ffffffffffffffffffffffffffffffffffffffff163373ffffffffffffffffffffffffffffffffffffffff161415610eaf5780600081905550611009565b600560009054906101000a900473ffffffffffffffffffffffffffffffffffffffff1673ffffffffffffffffffffffffffffffffffffffff163373ffffffffffffffffffffffffffffffffffffffff161415610f115780600181905550611008565b600760009054906101000a900473ffffffffffffffffffffffffffffffffffffffff1673ffffffffffffffffffffffffffffffffffffffff163373ffffffffffffffffffffffffffffffffffffffff161415610f735780600281905550611007565b6040517f08c379a00000000000000000000000000000000000000000000000000000000081526004018080602001828103825260358152602001807f4572726f723a20756e617574686f72697365726420616464726573732061636381526020017f657373696e67207365744f72646572537461747573000000000000000000000081525060400191505060405180910390fd5b5b5b600360005414801561101c575060028054145b1561108c57600660009054906101000a900473ffffffffffffffffffffffffffffffffffffffff1673ffffffffffffffffffffffffffffffffffffffff166108fc60649081150290604051600060405180830381858888f1935050505015801561108a573d6000803e3d6000fd5b505b50565b600560009054906101000a900473ffffffffffffffffffffffffffffffffffffffff168156fea165627a7a7230582047975a4cc7d6234ce12c56f4e086815c6db67c189d6872b77fb9bb70b0ac79610029a165627a7a7230582011d8309a5c9d24873a5adb41b08466879730195a791357ca212e873b737131a80029a165627a7a723058209a8451aee1ccf6074a0609287dcd714650d2766b4d195671e9df7aaa800998fc0029608060405234801561001057600080fd5b506040516020806117898339810180604052602081101561003057600080fd5b810190808051906020019092919050505033600160006101000a81548173ffffffffffffffffffffffffffffffffffffffff021916908373ffffffffffffffffffffffffffffffffffffffff160217905550806000806101000a81548173ffffffffffffffffffffffffffffffffffffffff021916908373ffffffffffffffffffffffffffffffffffffffff1602179055506000600281905550506116af806100da6000396000f3fe608060405260043610610083576000357c0100000000000000000000000000000000000000000000000000000000900463ffffffff168063483ac6f014610088578063689b0098146101a357806373ad8b811461020c5780638da5cb5b1461029d5780639757e8a3146102f4578063c71d288b1461031f578063f77c47911461039a575b600080fd5b34801561009457600080fd5b50610161600480360360408110156100ab57600080fd5b81019080803590602001906401000000008111156100c857600080fd5b8201836020820111156100da57600080fd5b803590602001918460018302840111640100000000831117156100fc57600080fd5b90919293919293908035906020019064010000000081111561011d57600080fd5b82018360208201111561012f57600080fd5b8035906020019184600183028401116401000000008311171561015157600080fd5b90919293919293905050506103f1565b604051808273ffffffffffffffffffffffffffffffffffffffff1673ffffffffffffffffffffffffffffffffffffffff16815260200191505060405180910390f35b3480156101af57600080fd5b506101f2600480360360208110156101c657600080fd5b81019080803573ffffffffffffffffffffffffffffffffffffffff169060200190929190505050610632565b604051808215151515815260200191505060405180910390f35b34801561021857600080fd5b5061025b6004803603602081101561022f57600080fd5b81019080803573ffffffffffffffffffffffffffffffffffffffff1690602001909291905050506106db565b604051808273ffffffffffffffffffffffffffffffffffffffff1673ffffffffffffffffffffffffffffffffffffffff16815260200191505060405180910390f35b3480156102a957600080fd5b506102b261070e565b604051808273ffffffffffffffffffffffffffffffffffffffff1673ffffffffffffffffffffffffffffffffffffffff16815260200191505060405180910390f35b34801561030057600080fd5b50610309610733565b6040518082815260200191505060405180910390f35b34801561032b57600080fd5b506103586004803603602081101561034257600080fd5b8101908080359060200190929190505050610739565b604051808273ffffffffffffffffffffffffffffffffffffffff1673ffffffffffffffffffffffffffffffffffffffff16815260200191505060405180910390f35b3480156103a657600080fd5b506103af61076c565b604051808273ffffffffffffffffffffffffffffffffffffffff1673ffffffffffffffffffffffffffffffffffffffff16815260200191505060405180910390f35b6000806002548686868633610404610792565b8087815260200180602001806020018473ffffffffffffffffffffffffffffffffffffffff1673ffffffffffffffffffffffffffffffffffffffff1681526020018381038352888882818152602001925080828437600081840152601f19601f8201169050808301925050508381038252868682818152602001925080828437600081840152601f19601f82011690508083019250505098505050505050505050604051809103906000f0801580156104c1573d6000803e3d6000fd5b50905033600460008373ffffffffffffffffffffffffffffffffffffffff1673ffffffffffffffffffffffffffffffffffffffff16815260200190815260200160002060006101000a81548173ffffffffffffffffffffffffffffffffffffffff021916908373ffffffffffffffffffffffffffffffffffffffff16021790555080600560003373ffffffffffffffffffffffffffffffffffffffff1673ffffffffffffffffffffffffffffffffffffffff16815260200190815260200160002060006101000a81548173ffffffffffffffffffffffffffffffffffffffff021916908373ffffffffffffffffffffffffffffffffffffffff1602179055508060036000600254815260200190815260200160002060006101000a81548173ffffffffffffffffffffffffffffffffffffffff021916908373ffffffffffffffffffffffffffffffffffffffff16021790555060026000815480929190600101919050555080915050949350505050565b60008073ffffffffffffffffffffffffffffffffffffffff16600460008473ffffffffffffffffffffffffffffffffffffffff1673ffffffffffffffffffffffffffffffffffffffff16815260200190815260200160002060009054906101000a900473ffffffffffffffffffffffffffffffffffffffff1673ffffffffffffffffffffffffffffffffffffffff161415156106d157600190506106d6565b600090505b919050565b60056020528060005260406000206000915054906101000a900473ffffffffffffffffffffffffffffffffffffffff1681565b6000809054906101000a900473ffffffffffffffffffffffffffffffffffffffff1681565b60025481565b60036020528060005260406000206000915054906101000a900473ffffffffffffffffffffffffffffffffffffffff1681565b600160009054906101000a900473ffffffffffffffffffffffffffffffffffffffff1681565b604051610ee1806107a38339019056fe60806040523480156200001157600080fd5b5060405162000ee138038062000ee1833981018060405260808110156200003757600080fd5b810190808051906020019092919080516401000000008111156200005a57600080fd5b828101905060208101848111156200007157600080fd5b81518560018202830111640100000000821117156200008f57600080fd5b50509291906020018051640100000000811115620000ac57600080fd5b82810190506020810184811115620000c357600080fd5b8151856001820283011164010000000082111715620000e157600080fd5b50509291906020018051906020019092919050505083600281905550826003908051906020019062000115929190620001ba565b5081600490805190602001906200012e929190620001ba565b50806000806101000a81548173ffffffffffffffffffffffffffffffffffffffff021916908373ffffffffffffffffffffffffffffffffffffffff16021790555033600160006101000a81548173ffffffffffffffffffffffffffffffffffffffff021916908373ffffffffffffffffffffffffffffffffffffffff1602179055505050505062000269565b828054600181600116156101000203166002900490600052602060002090601f016020900481019282601f10620001fd57805160ff19168380011785556200022e565b828001600101855582156200022e579182015b828111156200022d57825182559160200191906001019062000210565b5b5090506200023d919062000241565b5090565b6200026691905b808211156200026257600081600090555060010162000248565b5090565b90565b610c6880620002796000396000f3fe608060405260043610610083576000357c0100000000000000000000000000000000000000000000000000000000900463ffffffff168063375f16a714610088578063473b2452146100b35780638da5cb5b1461018c5780638ec3fda5146101e3578063af640d0f14610273578063d09ef2411461029e578063e414f38d14610319575b600080fd5b34801561009457600080fd5b5061009d61036a565b6040518082815260200191505060405180910390f35b61014a600480360360408110156100c957600080fd5b81019080803573ffffffffffffffffffffffffffffffffffffffff1690602001909291908035906020019064010000000081111561010657600080fd5b82018360208201111561011857600080fd5b8035906020019184602083028401116401000000008311171561013a57600080fd5b90919293919293905050506103cf565b604051808273ffffffffffffffffffffffffffffffffffffffff1673ffffffffffffffffffffffffffffffffffffffff16815260200191505060405180910390f35b34801561019857600080fd5b506101a1610958565b604051808273ffffffffffffffffffffffffffffffffffffffff1673ffffffffffffffffffffffffffffffffffffffff16815260200191505060405180910390f35b3480156101ef57600080fd5b506101f861097d565b6040518080602001828103825283818151815260200191508051906020019080838360005b8381101561023857808201518184015260208101905061021d565b50505050905090810190601f1680156102655780820380516001836020036101000a031916815260200191505b509250505060405180910390f35b34801561027f57600080fd5b50610288610a1f565b6040518082815260200191505060405180910390f35b3480156102aa57600080fd5b506102d7600480360360208110156102c157600080fd5b8101908080359060200190929190505050610a25565b604051808273ffffffffffffffffffffffffffffffffffffffff1673ffffffffffffffffffffffffffffffffffffffff16815260200191505060405180910390f35b34801561032557600080fd5b506103686004803603602081101561033c57600080fd5b81019080803573ffffffffffffffffffffffffffffffffffffffff169060200190929190505050610abd565b005b60008060009054906101000a900473ffffffffffffffffffffffffffffffffffffffff1673ffffffffffffffffffffffffffffffffffffffff163373ffffffffffffffffffffffffffffffffffffffff161415156103c757600080fd5b600554905090565b60008060009054906101000a900473ffffffffffffffffffffffffffffffffffffffff1673ffffffffffffffffffffffffffffffffffffffff163373ffffffffffffffffffffffffffffffffffffffff161415156104bb576040517f08c379a00000000000000000000000000000000000000000000000000000000081526004018080602001828103825260288152602001807f796f7520646f6e74206f776e2074686520637573746f6d657220736d6172742081526020017f636f6e747261637400000000000000000000000000000000000000000000000081525060400191505060405180910390fd5b6000808573ffffffffffffffffffffffffffffffffffffffff1663141cf16686866040518363ffffffff167c010000000000000000000000000000000000000000000000000000000002815260040180806020018281038252848482818152602001925060200280828437600081840152601f19601f8201169050808301925050509350505050604080518083038186803b15801561055957600080fd5b505afa15801561056d573d6000803e3d6000fd5b505050506040513d604081101561058357600080fd5b8101908080519060200190929190805190602001909291905050509150915081151561063d576040517f08c379a00000000000000000000000000000000000000000000000000000000081526004018080602001828103825260218152602001807f6f726465726564206974656d7320617265206e6f7420696e20746865206d656e81526020017f750000000000000000000000000000000000000000000000000000000000000081525060400191505060405180910390fd5b60c881013410151515610704576040517f08c379a00000000000000000000000000000000000000000000000000000000081526004018080602001828103825260418152602001807f73656e74206574686572206973206e6f7420656e6f75676820746f20636f766581526020017f7220746865206f7264657220636f737420616e642064656c697665727920666581526020017f650000000000000000000000000000000000000000000000000000000000000081525060600191505060405180910390fd5b60008673ffffffffffffffffffffffffffffffffffffffff166372bb567887876040518363ffffffff167c010000000000000000000000000000000000000000000000000000000002815260040180806020018281038252848482818152602001925060200280828437600081840152601f19601f8201169050808301925050509350505050602060405180830381600087803b1580156107a457600080fd5b505af11580156107b8573d6000803e3d6000fd5b505050506040513d60208110156107ce57600080fd5b810190808051906020019092919050505090508360066000600554815260200190815260200160002060006101000a81548173ffffffffffffffffffffffffffffffffffffffff021916908373ffffffffffffffffffffffffffffffffffffffff1602179055508073ffffffffffffffffffffffffffffffffffffffff16638d74d1ca60c884016040518263ffffffff167c01000000000000000000000000000000000000000000000000000000000281526004016000604051808303818588803b15801561089c57600080fd5b505af11580156108b0573d6000803e3d6000fd5b50505050503373ffffffffffffffffffffffffffffffffffffffff166108fc60c8840134039081150290604051600060405180830381858888f19350505050158015610900573d6000803e3d6000fd5b5060056000815480929190600101919050555060066000600160055403815260200190815260200160002060009054906101000a900473ffffffffffffffffffffffffffffffffffffffff1693505050509392505050565b6000809054906101000a900473ffffffffffffffffffffffffffffffffffffffff1681565b606060048054600181600116156101000203166002900480601f016020809104026020016040519081016040528092919081815260200182805460018160011615610100020316600290048015610a155780601f106109ea57610100808354040283529160200191610a15565b820191906000526020600020905b8154815290600101906020018083116109f857829003601f168201915b5050505050905090565b60025481565b60008060009054906101000a900473ffffffffffffffffffffffffffffffffffffffff1673ffffffffffffffffffffffffffffffffffffffff163373ffffffffffffffffffffffffffffffffffffffff16141515610a8257600080fd5b6006600083815260200190815260200160002060009054906101000a900473ffffffffffffffffffffffffffffffffffffffff169050919050565b6000809054906101000a900473ffffffffffffffffffffffffffffffffffffffff1673ffffffffffffffffffffffffffffffffffffffff163373ffffffffffffffffffffffffffffffffffffffff16141515610ba7576040517f08c379a00000000000000000000000000000000000000000000000000000000081526004018080602001828103825260258152602001807f73656e742066726f6d206164647265737320746861742069736e74207468652081526020017f6f776e657200000000000000000000000000000000000000000000000000000081525060400191505060405180910390fd5b8073ffffffffffffffffffffffffffffffffffffffff1663e9132c42600280811115610bcf57fe5b6040518263ffffffff167c010000000000000000000000000000000000000000000000000000000002815260040180828152602001915050600060405180830381600087803b158015610c2157600080fd5b505af1158015610c35573d6000803e3d6000fd5b505050505056fea165627a7a72305820903405a0ca7c608142325caf42c7029a81994a0b7f17c3328295dca8f2a91b6a0029a165627a7a72305820be1da7a542be68ccf01c09649947a3b6d45330e43494c7615397766fb5e15f720029608060405234801561001057600080fd5b506040516020806115358339810180604052602081101561003057600080fd5b810190808051906020019092919050505033600160006101000a81548173ffffffffffffffffffffffffffffffffffffffff021916908373ffffffffffffffffffffffffffffffffffffffff160217905550806000806101000a81548173ffffffffffffffffffffffffffffffffffffffff021916908373ffffffffffffffffffffffffffffffffffffffff16021790555060006002819055505061145b806100da6000396000f3fe60806040526004361061008e576000357c0100000000000000000000000000000000000000000000000000000000900463ffffffff16806313952670146100935780633e54883c146100fc57806353e9f8e0146102175780638da5cb5b146102a8578063a43f4111146102ff578063aa3492391461032a578063c9362cb9146103a5578063f77c479114610436575b600080fd5b34801561009f57600080fd5b506100e2600480360360208110156100b657600080fd5b81019080803573ffffffffffffffffffffffffffffffffffffffff16906020019092919050505061048d565b604051808215151515815260200191505060405180910390f35b34801561010857600080fd5b506101d56004803603604081101561011f57600080fd5b810190808035906020019064010000000081111561013c57600080fd5b82018360208201111561014e57600080fd5b8035906020019184600183028401116401000000008311171561017057600080fd5b90919293919293908035906020019064010000000081111561019157600080fd5b8201836020820111156101a357600080fd5b803590602001918460018302840111640100000000831117156101c557600080fd5b9091929391929390505050610536565b604051808273ffffffffffffffffffffffffffffffffffffffff1673ffffffffffffffffffffffffffffffffffffffff16815260200191505060405180910390f35b34801561022357600080fd5b506102666004803603602081101561023a57600080fd5b81019080803573ffffffffffffffffffffffffffffffffffffffff169060200190929190505050610867565b604051808273ffffffffffffffffffffffffffffffffffffffff1673ffffffffffffffffffffffffffffffffffffffff16815260200191505060405180910390f35b3480156102b457600080fd5b506102bd61089a565b604051808273ffffffffffffffffffffffffffffffffffffffff1673ffffffffffffffffffffffffffffffffffffffff16815260200191505060405180910390f35b34801561030b57600080fd5b506103146108bf565b6040518082815260200191505060405180910390f35b34801561033657600080fd5b506103636004803603602081101561034d57600080fd5b81019080803590602001909291905050506108c5565b604051808273ffffffffffffffffffffffffffffffffffffffff1673ffffffffffffffffffffffffffffffffffffffff16815260200191505060405180910390f35b3480156103b157600080fd5b506103f4600480360360208110156103c857600080fd5b81019080803573ffffffffffffffffffffffffffffffffffffffff1690602001909291905050506108f8565b604051808273ffffffffffffffffffffffffffffffffffffffff1673ffffffffffffffffffffffffffffffffffffffff16815260200191505060405180910390f35b34801561044257600080fd5b5061044b61092b565b604051808273ffffffffffffffffffffffffffffffffffffffff1673ffffffffffffffffffffffffffffffffffffffff16815260200191505060405180910390f35b60008073ffffffffffffffffffffffffffffffffffffffff16600460008473ffffffffffffffffffffffffffffffffffffffff1673ffffffffffffffffffffffffffffffffffffffff16815260200190815260200160002060009054906101000a900473ffffffffffffffffffffffffffffffffffffffff1673ffffffffffffffffffffffffffffffffffffffff1614151561052c5760019050610531565b600090505b919050565b60008073ffffffffffffffffffffffffffffffffffffffff16600560003373ffffffffffffffffffffffffffffffffffffffff1673ffffffffffffffffffffffffffffffffffffffff16815260200190815260200160002060009054906101000a900473ffffffffffffffffffffffffffffffffffffffff1673ffffffffffffffffffffffffffffffffffffffff161415156105d157600080fd5b60006002548686868633600160009054906101000a900473ffffffffffffffffffffffffffffffffffffffff16610606610951565b8088815260200180602001806020018573ffffffffffffffffffffffffffffffffffffffff1673ffffffffffffffffffffffffffffffffffffffff1681526020018473ffffffffffffffffffffffffffffffffffffffff1673ffffffffffffffffffffffffffffffffffffffff1681526020018381038352898982818152602001925080828437600081840152601f19601f8201169050808301925050508381038252878782818152602001925080828437600081840152601f19601f8201169050808301925050509950505050505050505050604051809103906000f0801580156106f6573d6000803e3d6000fd5b50905033600460008373ffffffffffffffffffffffffffffffffffffffff1673ffffffffffffffffffffffffffffffffffffffff16815260200190815260200160002060006101000a81548173ffffffffffffffffffffffffffffffffffffffff021916908373ffffffffffffffffffffffffffffffffffffffff16021790555080600560003373ffffffffffffffffffffffffffffffffffffffff1673ffffffffffffffffffffffffffffffffffffffff16815260200190815260200160002060006101000a81548173ffffffffffffffffffffffffffffffffffffffff021916908373ffffffffffffffffffffffffffffffffffffffff1602179055508060036000600254815260200190815260200160002060006101000a81548173ffffffffffffffffffffffffffffffffffffffff021916908373ffffffffffffffffffffffffffffffffffffffff16021790555060026000815480929190600101919050555080915050949350505050565b60046020528060005260406000206000915054906101000a900473ffffffffffffffffffffffffffffffffffffffff1681565b6000809054906101000a900473ffffffffffffffffffffffffffffffffffffffff1681565b60025481565b60036020528060005260406000206000915054906101000a900473ffffffffffffffffffffffffffffffffffffffff1681565b60056020528060005260406000206000915054906101000a900473ffffffffffffffffffffffffffffffffffffffff1681565b600160009054906101000a900473ffffffffffffffffffffffffffffffffffffffff1681565b604051610ace806109628339019056fe608060405234801561001057600080fd5b50604051610ace380380610ace833981018060405260a081101561003357600080fd5b8101908080519060200190929190805164010000000081111561005557600080fd5b8281019050602081018481111561006b57600080fd5b815185600182028301116401000000008211171561008857600080fd5b505092919060200180516401000000008111156100a457600080fd5b828101905060208101848111156100ba57600080fd5b81518560018202830111640100000000821117156100d757600080fd5b505092919060200180519060200190929190805190602001909291905050508460028190555083600390805190602001906101139291906101be565b50826004908051906020019061012a9291906101be565b50816000806101000a81548173ffffffffffffffffffffffffffffffffffffffff021916908373ffffffffffffffffffffffffffffffffffffffff16021790555080600160006101000a81548173ffffffffffffffffffffffffffffffffffffffff021916908373ffffffffffffffffffffffffffffffffffffffff16021790555060006005819055505050505050610263565b828054600181600116156101000203166002900490600052602060002090601f016020900481019282601f106101ff57805160ff191683800117855561022d565b8280016001018555821561022d579182015b8281111561022c578251825591602001919060010190610211565b5b50905061023a919061023e565b5090565b61026091905b8082111561025c576000816000905550600101610244565b5090565b90565b61085c806102726000396000f3fe608060405260043610610083576000357c0100000000000000000000000000000000000000000000000000000000900463ffffffff1680631d834409146100855780638da5cb5b146100b05780638ec3fda514610107578063ac44f7bb14610197578063af640d0f146101e8578063e5ef2d3114610213578063e9db4c8114610264575b005b34801561009157600080fd5b5061009a6102a8565b6040518082815260200191505060405180910390f35b3480156100bc57600080fd5b506100c56102ae565b604051808273ffffffffffffffffffffffffffffffffffffffff1673ffffffffffffffffffffffffffffffffffffffff16815260200191505060405180910390f35b34801561011357600080fd5b5061011c6102d3565b6040518080602001828103825283818151815260200191508051906020019080838360005b8381101561015c578082015181840152602081019050610141565b50505050905090810190601f1680156101895780820380516001836020036101000a031916815260200191505b509250505060405180910390f35b3480156101a357600080fd5b506101e6600480360360208110156101ba57600080fd5b81019080803573ffffffffffffffffffffffffffffffffffffffff169060200190929190505050610375565b005b3480156101f457600080fd5b506101fd610466565b6040518082815260200191505060405180910390f35b34801561021f57600080fd5b506102626004803603602081101561023657600080fd5b81019080803573ffffffffffffffffffffffffffffffffffffffff16906020019092919050505061046c565b005b6102a66004803603602081101561027a57600080fd5b81019080803573ffffffffffffffffffffffffffffffffffffffff16906020019092919050505061055c565b005b60055481565b6000809054906101000a900473ffffffffffffffffffffffffffffffffffffffff1681565b606060048054600181600116156101000203166002900480601f01602080910402602001604051908101604052809291908181526020018280546001816001161561010002031660029004801561036b5780601f106103405761010080835404028352916020019161036b565b820191906000526020600020905b81548152906001019060200180831161034e57829003601f168201915b5050505050905090565b6000809054906101000a900473ffffffffffffffffffffffffffffffffffffffff1673ffffffffffffffffffffffffffffffffffffffff163373ffffffffffffffffffffffffffffffffffffffff161415156103d057600080fd5b8073ffffffffffffffffffffffffffffffffffffffff1663e9132c42600260038111156103f957fe5b6040518263ffffffff167c010000000000000000000000000000000000000000000000000000000002815260040180828152602001915050600060405180830381600087803b15801561044b57600080fd5b505af115801561045f573d6000803e3d6000fd5b5050505050565b60025481565b6000809054906101000a900473ffffffffffffffffffffffffffffffffffffffff1673ffffffffffffffffffffffffffffffffffffffff163373ffffffffffffffffffffffffffffffffffffffff161415156104c757600080fd5b8073ffffffffffffffffffffffffffffffffffffffff1663e9132c426003808111156104ef57fe5b6040518263ffffffff167c010000000000000000000000000000000000000000000000000000000002815260040180828152602001915050600060405180830381600087803b15801561054157600080fd5b505af1158015610555573d6000803e3d6000fd5b5050505050565b6000809054906101000a900473ffffffffffffffffffffffffffffffffffffffff1673ffffffffffffffffffffffffffffffffffffffff163373ffffffffffffffffffffffffffffffffffffffff161415156105b757600080fd5b600081905060008173ffffffffffffffffffffffffffffffffffffffff1663bd3e19d46040518163ffffffff167c010000000000000000000000000000000000000000000000000000000002815260040160206040518083038186803b15801561062057600080fd5b505afa158015610634573d6000803e3d6000fd5b505050506040513d602081101561064a57600080fd5b810190808051906020019092919050505090508034101515156106d5576040517f08c379a000000000000000000000000000000000000000000000000000000000815260040180806020018281038252601d8152602001807f6465706f7369742076616c7565206e6f74206869676820656e6f75676800000081525060200191505060405180910390fd5b80341115610748576000809054906101000a900473ffffffffffffffffffffffffffffffffffffffff1673ffffffffffffffffffffffffffffffffffffffff166108fc8234039081150290604051600060405180830381858888f19350505050158015610746573d6000803e3d6000fd5b505b8173ffffffffffffffffffffffffffffffffffffffff1663c7529f0c826040518263ffffffff167c01000000000000000000000000000000000000000000000000000000000281526004016000604051808303818588803b1580156107ac57600080fd5b505af11580156107c0573d6000803e3d6000fd5b50505050508260066000600554815260200190815260200160002060006101000a81548173ffffffffffffffffffffffffffffffffffffffff021916908373ffffffffffffffffffffffffffffffffffffffff16021790555060056000815480929190600101919050555050505056fea165627a7a72305820660bc5789d3bc774f37893f35407dce91e0b8fad3742a77a63c44797c0969a940029a165627a7a7230582024acf67e51c550d6894ce08edf35950b44c1c804b31d28a2f6bdca0e1d87f2c50029",
  "source": "pragma solidity ^0.5.0;\n\nimport \"./RestaurantFactory.sol\";\nimport \"./CustomerFactory.sol\";\nimport \"./RiderFactory.sol\";\n\n\ncontract Controller {\n\n\taddress public owner;\n\taddress public restaurantFactoryAddress;\n\taddress public customerFactoryAddress;\n\taddress public riderFactoryAddress;\n\n\tconstructor() public{\n\t\towner = msg.sender;\n\t\trestaurantFactoryAddress = address(new RestaurantFactory(owner));\n\t\tcustomerFactoryAddress = address(new CustomerFactory(owner));\n\t\triderFactoryAddress = address(new RiderFactory(owner));\n\t}\n}",
  "sourcePath": "/home/george/Documents/University/Dissertation/TryAByte/contracts/Controller.sol",
  "compiler": {
    "name": "solc",
    "version": "0.5.0+commit.1d4f565a.Emscripten.clang"
  },
  "schemaVersion": "3.0.2",
  "updatedAt": "2019-03-21T18:05:21.126Z",
  "devdoc": {
    "methods": {}
  },
  "userdoc": {
    "methods": {}
  }
}