{
  "contractName": "Customer",
  "abi": [
    {
      "inputs": [
        {
          "name": "_id",
          "type": "uint256"
        },
        {
          "name": "_name",
          "type": "string"
        },
        {
          "name": "_contactNumber",
          "type": "string"
        },
        {
          "name": "_owner",
          "type": "address"
        }
      ],
      "payable": false,
      "stateMutability": "nonpayable",
      "type": "constructor"
    },
    {
      "constant": false,
      "inputs": [
        {
          "name": "restaurant",
          "type": "address"
        },
        {
          "name": "items",
          "type": "bytes32[]"
        }
      ],
      "name": "makeOrder",
      "outputs": [
        {
          "name": "orderAddress",
          "type": "address"
        }
      ],
      "payable": true,
      "stateMutability": "payable",
      "type": "function"
    },
    {
      "constant": false,
      "inputs": [
        {
          "name": "orderAddress",
          "type": "address"
        }
      ],
      "name": "signalDelivered",
      "outputs": [],
      "payable": false,
      "stateMutability": "nonpayable",
      "type": "function"
    },
    {
      "constant": true,
      "inputs": [],
      "name": "getContactNumber",
      "outputs": [
        {
          "name": "_contactNumber",
          "type": "string"
        }
      ],
      "payable": false,
      "stateMutability": "view",
      "type": "function"
    },
    {
      "constant": true,
      "inputs": [
        {
          "name": "_id",
          "type": "uint256"
        }
      ],
      "name": "getOrder",
      "outputs": [
        {
          "name": "orderAdderss",
          "type": "address"
        }
      ],
      "payable": false,
      "stateMutability": "view",
      "type": "function"
    },
    {
      "constant": true,
      "inputs": [],
      "name": "getTotalOrders",
      "outputs": [
        {
          "name": "totalOrdersMade",
          "type": "uint256"
        }
      ],
      "payable": false,
      "stateMutability": "view",
      "type": "function"
    }
  ],
  "bytecode": "0x608060405234801561001057600080fd5b50604051610aca380380610aca8339810180604052608081101561003357600080fd5b8101908080519060200190929190805164010000000081111561005557600080fd5b8281019050602081018481111561006b57600080fd5b815185600182028301116401000000008211171561008857600080fd5b505092919060200180516401000000008111156100a457600080fd5b828101905060208101848111156100ba57600080fd5b81518560018202830111640100000000821117156100d757600080fd5b5050929190602001805190602001909291905050508360028190555082600390805190602001906101099291906101ab565b5081600490805190602001906101209291906101ab565b50806000806101000a81548173ffffffffffffffffffffffffffffffffffffffff021916908373ffffffffffffffffffffffffffffffffffffffff16021790555033600160006101000a81548173ffffffffffffffffffffffffffffffffffffffff021916908373ffffffffffffffffffffffffffffffffffffffff16021790555050505050610250565b828054600181600116156101000203166002900490600052602060002090601f016020900481019282601f106101ec57805160ff191683800117855561021a565b8280016001018555821561021a579182015b828111156102195782518255916020019190600101906101fe565b5b509050610227919061022b565b5090565b61024d91905b80821115610249576000816000905550600101610231565b5090565b90565b61086b8061025f6000396000f3fe60806040526004361061006d576000357c0100000000000000000000000000000000000000000000000000000000900463ffffffff168063375f16a714610072578063473b24521461009d5780638ec3fda514610176578063d09ef24114610206578063e414f38d14610281575b600080fd5b34801561007e57600080fd5b506100876102d2565b6040518082815260200191505060405180910390f35b610134600480360360408110156100b357600080fd5b81019080803573ffffffffffffffffffffffffffffffffffffffff169060200190929190803590602001906401000000008111156100f057600080fd5b82018360208201111561010257600080fd5b8035906020019184602083028401116401000000008311171561012457600080fd5b9091929391929390505050610337565b604051808273ffffffffffffffffffffffffffffffffffffffff1673ffffffffffffffffffffffffffffffffffffffff16815260200191505060405180910390f35b34801561018257600080fd5b5061018b610615565b6040518080602001828103825283818151815260200191508051906020019080838360005b838110156101cb5780820151818401526020810190506101b0565b50505050905090810190601f1680156101f85780820380516001836020036101000a031916815260200191505b509250505060405180910390f35b34801561021257600080fd5b5061023f6004803603602081101561022957600080fd5b81019080803590602001909291905050506106b7565b604051808273ffffffffffffffffffffffffffffffffffffffff1673ffffffffffffffffffffffffffffffffffffffff16815260200191505060405180910390f35b34801561028d57600080fd5b506102d0600480360360208110156102a457600080fd5b81019080803573ffffffffffffffffffffffffffffffffffffffff16906020019092919050505061074f565b005b60008060009054906101000a900473ffffffffffffffffffffffffffffffffffffffff1673ffffffffffffffffffffffffffffffffffffffff163373ffffffffffffffffffffffffffffffffffffffff1614151561032f57600080fd5b600554905090565b60008060009054906101000a900473ffffffffffffffffffffffffffffffffffffffff1673ffffffffffffffffffffffffffffffffffffffff163373ffffffffffffffffffffffffffffffffffffffff1614151561039457600080fd5b6000808573ffffffffffffffffffffffffffffffffffffffff1663141cf16686866040518363ffffffff167c010000000000000000000000000000000000000000000000000000000002815260040180806020018281038252848482818152602001925060200280828437600081840152601f19601f8201169050808301925050509350505050604080518083038186803b15801561043257600080fd5b505afa158015610446573d6000803e3d6000fd5b505050506040513d604081101561045c57600080fd5b8101908080519060200190929190805190602001909291905050509150915081151561048757600080fd5b80341015151561049657600080fd5b8573ffffffffffffffffffffffffffffffffffffffff166372bb567886866040518363ffffffff167c010000000000000000000000000000000000000000000000000000000002815260040180806020018281038252848482818152602001925060200280828437600081840152601f19601f8201169050808301925050509350505050602060405180830381600087803b15801561053457600080fd5b505af1158015610548573d6000803e3d6000fd5b505050506040513d602081101561055e57600080fd5b810190808051906020019092919050505060066000600554815260200190815260200160002060006101000a81548173ffffffffffffffffffffffffffffffffffffffff021916908373ffffffffffffffffffffffffffffffffffffffff16021790555060056000815480929190600101919050555060066000600554815260200190815260200160002060009054906101000a900473ffffffffffffffffffffffffffffffffffffffff16925050509392505050565b606060048054600181600116156101000203166002900480601f0160208091040260200160405190810160405280929190818152602001828054600181600116156101000203166002900480156106ad5780601f10610682576101008083540402835291602001916106ad565b820191906000526020600020905b81548152906001019060200180831161069057829003601f168201915b5050505050905090565b60008060009054906101000a900473ffffffffffffffffffffffffffffffffffffffff1673ffffffffffffffffffffffffffffffffffffffff163373ffffffffffffffffffffffffffffffffffffffff1614151561071457600080fd5b6006600083815260200190815260200160002060009054906101000a900473ffffffffffffffffffffffffffffffffffffffff169050919050565b6000809054906101000a900473ffffffffffffffffffffffffffffffffffffffff1673ffffffffffffffffffffffffffffffffffffffff163373ffffffffffffffffffffffffffffffffffffffff161415156107aa57600080fd5b8073ffffffffffffffffffffffffffffffffffffffff1663e9132c426001808111156107d257fe5b6040518263ffffffff167c010000000000000000000000000000000000000000000000000000000002815260040180828152602001915050600060405180830381600087803b15801561082457600080fd5b505af1158015610838573d6000803e3d6000fd5b505050505056fea165627a7a72305820eaf91d782b7e2b70ead0b7c5888bed217207dad3cf0aecf01e924a2a60e491000029",
  "source": "pragma solidity ^0.5.0;\r\n\r\nimport \"./Restaurant.sol\";\r\nimport \"./RestaurantFactory.sol\";\r\nimport \"./Order.sol\";\r\n\r\ncontract Customer {\r\n    \r\n    address owner;\r\n    address customerFactory;\r\n    uint id;\r\n    string name;\r\n    string private contactNumber;\r\n    uint totalOrders;\r\n    mapping(uint => address) orders;\r\n\r\n    enum customerState{madeOrder,hasCargo}    \r\n    \r\n    \r\n    constructor(uint _id, string memory _name, string memory _contactNumber, address _owner) public\r\n    {\r\n        id = _id;\r\n        name = _name;\r\n        contactNumber = _contactNumber;\r\n        owner = _owner;\r\n        customerFactory = msg.sender;\r\n    }\r\n    \r\n    // this function will call the restaurant make order\r\n    function makeOrder(address restaurant, bytes32[] calldata items) external payable returns (address orderAddress){\r\n        require(msg.sender == owner);\r\n        //require(RestaurantFactory(restaurantFactoryAddress).restaurantExists(msg.sender));\r\n        (bool isValid, uint price) = Restaurant(restaurant).validOrder(items);\r\n        require(isValid); // this should return the price so you validate if the correct ether was sent\r\n        require(msg.value >= price);\r\n        \r\n        orders[totalOrders] = address(Restaurant(restaurant).makeOrder(items));\r\n        // then want to pay the order \r\n\r\n        totalOrders++;\r\n        return orders[totalOrders];\r\n\r\n    }\r\n\r\n    function signalDelivered(address orderAddress) public {\r\n        require(msg.sender == owner);\r\n        Order(orderAddress).setOrderStatus(uint(customerState.hasCargo));\r\n    }\r\n\r\n    function getContactNumber() public view returns(string memory _contactNumber){\r\n        // require the sender of the message to be either the delivery worker or the the restaurant via the order class, the order status must be currenly active\r\n        return contactNumber;\r\n    }\r\n\r\n    function getOrder(uint _id) external view returns(address orderAdderss){\r\n        require(msg.sender == owner);\r\n        return orders[_id];\r\n    }  \r\n\r\n    function getTotalOrders() external view returns(uint totalOrdersMade){\r\n        require(msg.sender == owner);\r\n        return totalOrders;\r\n    }    \r\n    \r\n    \r\n    \r\n}\r\n",
  "sourcePath": "/home/george/Documents/University/Dissertation/TryAByte/contracts/Customer.sol",
  "compiler": {
    "name": "solc",
    "version": "0.5.0+commit.1d4f565a.Emscripten.clang"
  },
  "schemaVersion": "3.0.2",
  "updatedAt": "2019-03-13T14:06:34.069Z",
  "devdoc": {
    "methods": {}
  },
  "userdoc": {
    "methods": {}
  }
}