{
  "contractName": "Customer",
  "abi": [
    {
      "constant": true,
      "inputs": [],
      "name": "owner",
      "outputs": [
        {
          "name": "",
          "type": "address"
        }
      ],
      "payable": false,
      "stateMutability": "view",
      "type": "function"
    },
    {
      "constant": true,
      "inputs": [],
      "name": "id",
      "outputs": [
        {
          "name": "",
          "type": "uint256"
        }
      ],
      "payable": false,
      "stateMutability": "view",
      "type": "function"
    },
    {
      "inputs": [
        {
          "name": "_id",
          "type": "uint256"
        },
        {
          "name": "_name",
          "type": "string"
        },
        {
          "name": "_contactNumber",
          "type": "string"
        },
        {
          "name": "_owner",
          "type": "address"
        },
        {
          "name": "controllerAddress",
          "type": "address"
        }
      ],
      "payable": false,
      "stateMutability": "nonpayable",
      "type": "constructor"
    },
    {
      "constant": false,
      "inputs": [
        {
          "name": "restaurant",
          "type": "address"
        },
        {
          "name": "items",
          "type": "uint256[]"
        },
        {
          "name": "deliveryFee",
          "type": "uint256"
        },
        {
          "name": "delivreyAddress",
          "type": "bytes32"
        }
      ],
      "name": "makeOrder",
      "outputs": [
        {
          "name": "orderAddress",
          "type": "address"
        }
      ],
      "payable": true,
      "stateMutability": "payable",
      "type": "function"
    },
    {
      "constant": false,
      "inputs": [
        {
          "name": "orderAddress",
          "type": "address"
        }
      ],
      "name": "signalDelivered",
      "outputs": [],
      "payable": false,
      "stateMutability": "nonpayable",
      "type": "function"
    },
    {
      "constant": true,
      "inputs": [],
      "name": "getContactNumber",
      "outputs": [
        {
          "name": "_contactNumber",
          "type": "string"
        }
      ],
      "payable": false,
      "stateMutability": "view",
      "type": "function"
    },
    {
      "constant": true,
      "inputs": [
        {
          "name": "_id",
          "type": "uint256"
        }
      ],
      "name": "getOrder",
      "outputs": [
        {
          "name": "orderAdderss",
          "type": "address"
        }
      ],
      "payable": false,
      "stateMutability": "view",
      "type": "function"
    },
    {
      "constant": true,
      "inputs": [],
      "name": "getTotalOrders",
      "outputs": [
        {
          "name": "totalOrdersMade",
          "type": "uint256"
        }
      ],
      "payable": false,
      "stateMutability": "view",
      "type": "function"
    }
  ],
  "bytecode": "0x60806040523480156200001157600080fd5b5060405162000f9638038062000f96833981018060405260a08110156200003757600080fd5b810190808051906020019092919080516401000000008111156200005a57600080fd5b828101905060208101848111156200007157600080fd5b81518560018202830111640100000000821117156200008f57600080fd5b50509291906020018051640100000000811115620000ac57600080fd5b82810190506020810184811115620000c357600080fd5b8151856001820283011164010000000082111715620000e157600080fd5b505092919060200180519060200190929190805190602001909291905050508460038190555083600490805190602001906200011f9291906200020e565b508260059080519060200190620001389291906200020e565b50816000806101000a81548173ffffffffffffffffffffffffffffffffffffffff021916908373ffffffffffffffffffffffffffffffffffffffff16021790555080600260006101000a81548173ffffffffffffffffffffffffffffffffffffffff021916908373ffffffffffffffffffffffffffffffffffffffff160217905550600060068190555033600160006101000a81548173ffffffffffffffffffffffffffffffffffffffff021916908373ffffffffffffffffffffffffffffffffffffffff1602179055505050505050620002bd565b828054600181600116156101000203166002900490600052602060002090601f016020900481019282601f106200025157805160ff191683800117855562000282565b8280016001018555821562000282579182015b828111156200028157825182559160200191906001019062000264565b5b50905062000291919062000295565b5090565b620002ba91905b80821115620002b65760008160009055506001016200029c565b5090565b90565b610cc980620002cd6000396000f3fe608060405260043610610083576000357c0100000000000000000000000000000000000000000000000000000000900463ffffffff168063375f16a71461008857806363ad255a146100b35780638da5cb5b146101a05780638ec3fda5146101f7578063af640d0f14610287578063d09ef241146102b2578063e414f38d1461032d575b600080fd5b34801561009457600080fd5b5061009d61037e565b6040518082815260200191505060405180910390f35b61015e600480360360808110156100c957600080fd5b81019080803573ffffffffffffffffffffffffffffffffffffffff1690602001909291908035906020019064010000000081111561010657600080fd5b82018360208201111561011857600080fd5b8035906020019184602083028401116401000000008311171561013a57600080fd5b909192939192939080359060200190929190803590602001909291905050506103e3565b604051808273ffffffffffffffffffffffffffffffffffffffff1673ffffffffffffffffffffffffffffffffffffffff16815260200191505060405180910390f35b3480156101ac57600080fd5b506101b56109b9565b604051808273ffffffffffffffffffffffffffffffffffffffff1673ffffffffffffffffffffffffffffffffffffffff16815260200191505060405180910390f35b34801561020357600080fd5b5061020c6109de565b6040518080602001828103825283818151815260200191508051906020019080838360005b8381101561024c578082015181840152602081019050610231565b50505050905090810190601f1680156102795780820380516001836020036101000a031916815260200191505b509250505060405180910390f35b34801561029357600080fd5b5061029c610a80565b6040518082815260200191505060405180910390f35b3480156102be57600080fd5b506102eb600480360360208110156102d557600080fd5b8101908080359060200190929190505050610a86565b604051808273ffffffffffffffffffffffffffffffffffffffff1673ffffffffffffffffffffffffffffffffffffffff16815260200191505060405180910390f35b34801561033957600080fd5b5061037c6004803603602081101561035057600080fd5b81019080803573ffffffffffffffffffffffffffffffffffffffff169060200190929190505050610b1e565b005b60008060009054906101000a900473ffffffffffffffffffffffffffffffffffffffff1673ffffffffffffffffffffffffffffffffffffffff163373ffffffffffffffffffffffffffffffffffffffff161415156103db57600080fd5b600654905090565b60008060009054906101000a900473ffffffffffffffffffffffffffffffffffffffff1673ffffffffffffffffffffffffffffffffffffffff163373ffffffffffffffffffffffffffffffffffffffff161415156104cf576040517f08c379a00000000000000000000000000000000000000000000000000000000081526004018080602001828103825260288152602001807f796f7520646f6e74206f776e2074686520637573746f6d657220736d6172742081526020017f636f6e747261637400000000000000000000000000000000000000000000000081525060400191505060405180910390fd5b60008673ffffffffffffffffffffffffffffffffffffffff166366e1dfa387876040518363ffffffff167c010000000000000000000000000000000000000000000000000000000002815260040180806020018281038252848482818152602001925060200280828437600081840152601f19601f820116905080830192505050935050505060206040518083038186803b15801561056d57600080fd5b505afa158015610581573d6000803e3d6000fd5b505050506040513d602081101561059757600080fd5b810190808051906020019092919050505090506000600260009054906101000a900473ffffffffffffffffffffffffffffffffffffffff1673ffffffffffffffffffffffffffffffffffffffff16635ed097f36040518163ffffffff167c010000000000000000000000000000000000000000000000000000000002815260040160206040518083038186803b15801561063057600080fd5b505afa158015610644573d6000803e3d6000fd5b505050506040513d602081101561065a57600080fd5b8101908080519060200190929190505050905080851015151561070b576040517f08c379a000000000000000000000000000000000000000000000000000000000815260040180806020018281038252602c8152602001807f64656c6976657279466565206d7573742062652067726561746572207468616e81526020017f20746865206d696e696d756d000000000000000000000000000000000000000081525060400191505060405180910390fd5b84820134101515156107d1576040517f08c379a00000000000000000000000000000000000000000000000000000000081526004018080602001828103825260418152602001807f73656e74206574686572206973206e6f7420656e6f75676820746f20636f766581526020017f7220746865206f7264657220636f737420616e642064656c697665727920666581526020017f650000000000000000000000000000000000000000000000000000000000000081525060600191505060405180910390fd5b60008873ffffffffffffffffffffffffffffffffffffffff1663f9a9525e8785018a8a8a8a6040518663ffffffff167c010000000000000000000000000000000000000000000000000000000002815260040180806020018481526020018381526020018281038252868682818152602001925060200280828437600081840152601f19601f820116905080830192505050955050505050506020604051808303818588803b15801561088357600080fd5b505af1158015610897573d6000803e3d6000fd5b50505050506040513d60208110156108ae57600080fd5b810190808051906020019092919050505090503373ffffffffffffffffffffffffffffffffffffffff166108fc87850134039081150290604051600060405180830381858888f1935050505015801561090b573d6000803e3d6000fd5b508060076000600654815260200190815260200160002060006101000a81548173ffffffffffffffffffffffffffffffffffffffff021916908373ffffffffffffffffffffffffffffffffffffffff16021790555060066000815480929190600101919050555060076000600160065403815260200190815260200160002060009054906101000a900473ffffffffffffffffffffffffffffffffffffffff16935050505095945050505050565b6000809054906101000a900473ffffffffffffffffffffffffffffffffffffffff1681565b606060058054600181600116156101000203166002900480601f016020809104026020016040519081016040528092919081815260200182805460018160011615610100020316600290048015610a765780601f10610a4b57610100808354040283529160200191610a76565b820191906000526020600020905b815481529060010190602001808311610a5957829003601f168201915b5050505050905090565b60035481565b60008060009054906101000a900473ffffffffffffffffffffffffffffffffffffffff1673ffffffffffffffffffffffffffffffffffffffff163373ffffffffffffffffffffffffffffffffffffffff16141515610ae357600080fd5b6007600083815260200190815260200160002060009054906101000a900473ffffffffffffffffffffffffffffffffffffffff169050919050565b6000809054906101000a900473ffffffffffffffffffffffffffffffffffffffff1673ffffffffffffffffffffffffffffffffffffffff163373ffffffffffffffffffffffffffffffffffffffff16141515610c08576040517f08c379a00000000000000000000000000000000000000000000000000000000081526004018080602001828103825260258152602001807f73656e742066726f6d206164647265737320746861742069736e74207468652081526020017f6f776e657200000000000000000000000000000000000000000000000000000081525060400191505060405180910390fd5b8073ffffffffffffffffffffffffffffffffffffffff1663e9132c42600280811115610c3057fe5b6040518263ffffffff167c010000000000000000000000000000000000000000000000000000000002815260040180828152602001915050600060405180830381600087803b158015610c8257600080fd5b505af1158015610c96573d6000803e3d6000fd5b505050505056fea165627a7a72305820027b70012819cb2d1b5e694af9b3f3fcd41937281daf4aa4272c74fceb3edb7f0029",
  "source": "pragma solidity ^0.5.0;\r\n\r\nimport \"./Restaurant.sol\";\r\n//import \"./RestaurantFactory.sol\";\r\nimport \"./Order.sol\";\r\nimport \"./Controller.sol\";\r\n\r\ncontract Customer {\r\n    \r\n    address public owner;\r\n    address customerFactory; // might not need this\r\n    address controller;\r\n\r\n    uint public id;\r\n    string name;\r\n    string private contactNumber;\r\n    uint totalOrders;\r\n    mapping(uint => address) orders;\r\n\r\n    enum customerState{madeOrder, payed, hasCargo}    \r\n    \r\n    \r\n    constructor(uint _id, string memory _name, string memory _contactNumber, address _owner, address controllerAddress) public\r\n    {\r\n        id = _id;\r\n        name = _name;\r\n        contactNumber = _contactNumber;\r\n        owner = _owner;\r\n        controller = controllerAddress;\r\n\r\n        totalOrders = 0;\r\n        customerFactory = msg.sender;\r\n    }\r\n    \r\n    // this function will call the restaurant make order\r\n    // todo change to reference restaurantID from restFact to reduce cost??\r\n    function makeOrder(address payable restaurant, uint[] calldata items, uint deliveryFee, bytes32 delivreyAddress) external payable returns (address orderAddress){\r\n        require(msg.sender == owner, \"you dont own the customer smart contract\");\r\n        //require(RestaurantFactory(restaurantFactoryAddress).restaurantExists(msg.sender));\r\n        uint price = Restaurant(restaurant).getOrderPrice(items);\r\n        uint minimumDeliveryFee = Controller(controller).minimumDeliveryFee();\r\n        require(deliveryFee >= minimumDeliveryFee, \"deliveryFee must be greater than the minimum\");\r\n        require(msg.value >= price + deliveryFee,\"sent ether is not enough to cover the order cost and delivery fee\");\r\n        \r\n        address orderAddr = Restaurant(restaurant).makeOrder.value(price + deliveryFee)(items, deliveryFee, delivreyAddress);\r\n        msg.sender.transfer(msg.value - (price + deliveryFee)); // return excess payment\r\n        orders[totalOrders] = orderAddr;\r\n        \r\n        totalOrders++;\r\n        return orders[totalOrders - 1];\r\n    }\r\n\r\n    function signalDelivered(address orderAddress) public {\r\n        require(msg.sender == owner, \"sent from address that isnt the owner\");\r\n        Order(orderAddress).setOrderStatus(uint(customerState.hasCargo));\r\n    }\r\n\r\n    function getContactNumber() public view returns(string memory _contactNumber){\r\n        // require the sender of the message to be either the delivery worker or the the restaurant via the order class, the order status must be currenly active\r\n        return contactNumber;\r\n    }\r\n\r\n    function getOrder(uint _id) external view returns(address orderAdderss){\r\n        require(msg.sender == owner);\r\n        return orders[_id];\r\n    }  \r\n\r\n    function getTotalOrders() external view returns(uint totalOrdersMade){\r\n        require(msg.sender == owner);\r\n        return totalOrders;\r\n    }    \r\n    \r\n    \r\n    \r\n}\r\n",
  "sourcePath": "/home/george/Documents/University/Dissertation/TryAByte/contracts/Customer.sol",
  "compiler": {
    "name": "solc",
    "version": "0.5.0+commit.1d4f565a.Emscripten.clang"
  },
  "schemaVersion": "3.0.6",
  "updatedAt": "2019-04-01T18:41:20.254Z",
  "devdoc": {
    "methods": {}
  },
  "userdoc": {
    "methods": {}
  }
}