{
  "contractName": "CustomerFactory",
  "abi": [
    {
      "constant": true,
      "inputs": [
        {
          "name": "",
          "type": "address"
        }
      ],
      "name": "customers2",
      "outputs": [
        {
          "name": "",
          "type": "address"
        }
      ],
      "payable": false,
      "stateMutability": "view",
      "type": "function",
      "signature": "0x73ad8b81"
    },
    {
      "constant": true,
      "inputs": [],
      "name": "owner",
      "outputs": [
        {
          "name": "",
          "type": "address"
        }
      ],
      "payable": false,
      "stateMutability": "view",
      "type": "function",
      "signature": "0x8da5cb5b"
    },
    {
      "constant": true,
      "inputs": [],
      "name": "customerCount",
      "outputs": [
        {
          "name": "",
          "type": "uint256"
        }
      ],
      "payable": false,
      "stateMutability": "view",
      "type": "function",
      "signature": "0x9757e8a3"
    },
    {
      "constant": true,
      "inputs": [
        {
          "name": "",
          "type": "uint256"
        }
      ],
      "name": "customers0",
      "outputs": [
        {
          "name": "",
          "type": "address"
        }
      ],
      "payable": false,
      "stateMutability": "view",
      "type": "function",
      "signature": "0xc71d288b"
    },
    {
      "constant": true,
      "inputs": [],
      "name": "controller",
      "outputs": [
        {
          "name": "",
          "type": "address"
        }
      ],
      "payable": false,
      "stateMutability": "view",
      "type": "function",
      "signature": "0xf77c4791"
    },
    {
      "inputs": [
        {
          "name": "_controller",
          "type": "address"
        }
      ],
      "payable": false,
      "stateMutability": "nonpayable",
      "type": "constructor",
      "signature": "constructor"
    },
    {
      "constant": false,
      "inputs": [
        {
          "name": "name",
          "type": "string"
        },
        {
          "name": "contactNumber",
          "type": "string"
        }
      ],
      "name": "makeCustomer",
      "outputs": [
        {
          "name": "customer",
          "type": "address"
        }
      ],
      "payable": false,
      "stateMutability": "nonpayable",
      "type": "function",
      "signature": "0x483ac6f0"
    },
    {
      "constant": true,
      "inputs": [
        {
          "name": "customer",
          "type": "address"
        }
      ],
      "name": "customerExists",
      "outputs": [
        {
          "name": "CustomerExists",
          "type": "bool"
        }
      ],
      "payable": false,
      "stateMutability": "view",
      "type": "function",
      "signature": "0x689b0098"
    }
  ],
  "bytecode": "0x608060405234801561001057600080fd5b506040516020806119c98339810180604052602081101561003057600080fd5b810190808051906020019092919050505080600160006101000a81548173ffffffffffffffffffffffffffffffffffffffff021916908373ffffffffffffffffffffffffffffffffffffffff160217905550336000806101000a81548173ffffffffffffffffffffffffffffffffffffffff021916908373ffffffffffffffffffffffffffffffffffffffff1602179055506000600281905550506118ef806100da6000396000f3fe608060405260043610610083576000357c0100000000000000000000000000000000000000000000000000000000900463ffffffff168063483ac6f014610088578063689b0098146101a357806373ad8b811461020c5780638da5cb5b1461029d5780639757e8a3146102f4578063c71d288b1461031f578063f77c47911461039a575b600080fd5b34801561009457600080fd5b50610161600480360360408110156100ab57600080fd5b81019080803590602001906401000000008111156100c857600080fd5b8201836020820111156100da57600080fd5b803590602001918460018302840111640100000000831117156100fc57600080fd5b90919293919293908035906020019064010000000081111561011d57600080fd5b82018360208201111561012f57600080fd5b8035906020019184600183028401116401000000008311171561015157600080fd5b90919293919293905050506103f1565b604051808273ffffffffffffffffffffffffffffffffffffffff1673ffffffffffffffffffffffffffffffffffffffff16815260200191505060405180910390f35b3480156101af57600080fd5b506101f2600480360360208110156101c657600080fd5b81019080803573ffffffffffffffffffffffffffffffffffffffff169060200190929190505050610722565b604051808215151515815260200191505060405180910390f35b34801561021857600080fd5b5061025b6004803603602081101561022f57600080fd5b81019080803573ffffffffffffffffffffffffffffffffffffffff1690602001909291905050506107cb565b604051808273ffffffffffffffffffffffffffffffffffffffff1673ffffffffffffffffffffffffffffffffffffffff16815260200191505060405180910390f35b3480156102a957600080fd5b506102b26107fe565b604051808273ffffffffffffffffffffffffffffffffffffffff1673ffffffffffffffffffffffffffffffffffffffff16815260200191505060405180910390f35b34801561030057600080fd5b50610309610823565b6040518082815260200191505060405180910390f35b34801561032b57600080fd5b506103586004803603602081101561034257600080fd5b8101908080359060200190929190505050610829565b604051808273ffffffffffffffffffffffffffffffffffffffff1673ffffffffffffffffffffffffffffffffffffffff16815260200191505060405180910390f35b3480156103a657600080fd5b506103af61085c565b604051808273ffffffffffffffffffffffffffffffffffffffff1673ffffffffffffffffffffffffffffffffffffffff16815260200191505060405180910390f35b60008073ffffffffffffffffffffffffffffffffffffffff16600560003373ffffffffffffffffffffffffffffffffffffffff1673ffffffffffffffffffffffffffffffffffffffff16815260200190815260200160002060009054906101000a900473ffffffffffffffffffffffffffffffffffffffff1673ffffffffffffffffffffffffffffffffffffffff1614151561048c57600080fd5b60006002548686868633600160009054906101000a900473ffffffffffffffffffffffffffffffffffffffff166104c1610882565b8088815260200180602001806020018573ffffffffffffffffffffffffffffffffffffffff1673ffffffffffffffffffffffffffffffffffffffff1681526020018473ffffffffffffffffffffffffffffffffffffffff1673ffffffffffffffffffffffffffffffffffffffff1681526020018381038352898982818152602001925080828437600081840152601f19601f8201169050808301925050508381038252878782818152602001925080828437600081840152601f19601f8201169050808301925050509950505050505050505050604051809103906000f0801580156105b1573d6000803e3d6000fd5b50905033600460008373ffffffffffffffffffffffffffffffffffffffff1673ffffffffffffffffffffffffffffffffffffffff16815260200190815260200160002060006101000a81548173ffffffffffffffffffffffffffffffffffffffff021916908373ffffffffffffffffffffffffffffffffffffffff16021790555080600560003373ffffffffffffffffffffffffffffffffffffffff1673ffffffffffffffffffffffffffffffffffffffff16815260200190815260200160002060006101000a81548173ffffffffffffffffffffffffffffffffffffffff021916908373ffffffffffffffffffffffffffffffffffffffff1602179055508060036000600254815260200190815260200160002060006101000a81548173ffffffffffffffffffffffffffffffffffffffff021916908373ffffffffffffffffffffffffffffffffffffffff16021790555060026000815480929190600101919050555080915050949350505050565b60008073ffffffffffffffffffffffffffffffffffffffff16600460008473ffffffffffffffffffffffffffffffffffffffff1673ffffffffffffffffffffffffffffffffffffffff16815260200190815260200160002060009054906101000a900473ffffffffffffffffffffffffffffffffffffffff1673ffffffffffffffffffffffffffffffffffffffff161415156107c157600190506107c6565b600090505b919050565b60056020528060005260406000206000915054906101000a900473ffffffffffffffffffffffffffffffffffffffff1681565b6000809054906101000a900473ffffffffffffffffffffffffffffffffffffffff1681565b60025481565b60036020528060005260406000206000915054906101000a900473ffffffffffffffffffffffffffffffffffffffff1681565b600160009054906101000a900473ffffffffffffffffffffffffffffffffffffffff1681565b604051611031806108938339019056fe60806040523480156200001157600080fd5b506040516200103138038062001031833981018060405260a08110156200003757600080fd5b810190808051906020019092919080516401000000008111156200005a57600080fd5b828101905060208101848111156200007157600080fd5b81518560018202830111640100000000821117156200008f57600080fd5b50509291906020018051640100000000811115620000ac57600080fd5b82810190506020810184811115620000c357600080fd5b8151856001820283011164010000000082111715620000e157600080fd5b505092919060200180519060200190929190805190602001909291905050508460038190555083600490805190602001906200011f9291906200020e565b508260059080519060200190620001389291906200020e565b50816000806101000a81548173ffffffffffffffffffffffffffffffffffffffff021916908373ffffffffffffffffffffffffffffffffffffffff16021790555080600260006101000a81548173ffffffffffffffffffffffffffffffffffffffff021916908373ffffffffffffffffffffffffffffffffffffffff160217905550600060068190555033600160006101000a81548173ffffffffffffffffffffffffffffffffffffffff021916908373ffffffffffffffffffffffffffffffffffffffff1602179055505050505050620002bd565b828054600181600116156101000203166002900490600052602060002090601f016020900481019282601f106200025157805160ff191683800117855562000282565b8280016001018555821562000282579182015b828111156200028157825182559160200191906001019062000264565b5b50905062000291919062000295565b5090565b620002ba91905b80821115620002b65760008160009055506001016200029c565b5090565b90565b610d6480620002cd6000396000f3fe60806040526004361061008e576000357c0100000000000000000000000000000000000000000000000000000000900463ffffffff168063375f16a7146100935780638da5cb5b146100be5780638ec3fda5146101155780639a15cb88146101a5578063af640d0f1461029c578063d09ef241146102c7578063e414f38d14610342578063f77c479114610393575b600080fd5b34801561009f57600080fd5b506100a86103ea565b6040518082815260200191505060405180910390f35b3480156100ca57600080fd5b506100d361044f565b604051808273ffffffffffffffffffffffffffffffffffffffff1673ffffffffffffffffffffffffffffffffffffffff16815260200191505060405180910390f35b34801561012157600080fd5b5061012a610474565b6040518080602001828103825283818151815260200191508051906020019080838360005b8381101561016a57808201518184015260208101905061014f565b50505050905090810190601f1680156101975780820380516001836020036101000a031916815260200191505b509250505060405180910390f35b61025a600480360360a08110156101bb57600080fd5b81019080803573ffffffffffffffffffffffffffffffffffffffff169060200190929190803590602001906401000000008111156101f857600080fd5b82018360208201111561020a57600080fd5b8035906020019184602083028401116401000000008311171561022c57600080fd5b9091929391929390803590602001909291908035906020019092919080359060200190929190505050610516565b604051808273ffffffffffffffffffffffffffffffffffffffff1673ffffffffffffffffffffffffffffffffffffffff16815260200191505060405180910390f35b3480156102a857600080fd5b506102b1610af5565b6040518082815260200191505060405180910390f35b3480156102d357600080fd5b50610300600480360360208110156102ea57600080fd5b8101908080359060200190929190505050610afb565b604051808273ffffffffffffffffffffffffffffffffffffffff1673ffffffffffffffffffffffffffffffffffffffff16815260200191505060405180910390f35b34801561034e57600080fd5b506103916004803603602081101561036557600080fd5b81019080803573ffffffffffffffffffffffffffffffffffffffff169060200190929190505050610b93565b005b34801561039f57600080fd5b506103a8610d12565b604051808273ffffffffffffffffffffffffffffffffffffffff1673ffffffffffffffffffffffffffffffffffffffff16815260200191505060405180910390f35b60008060009054906101000a900473ffffffffffffffffffffffffffffffffffffffff1673ffffffffffffffffffffffffffffffffffffffff163373ffffffffffffffffffffffffffffffffffffffff1614151561044757600080fd5b600654905090565b6000809054906101000a900473ffffffffffffffffffffffffffffffffffffffff1681565b606060058054600181600116156101000203166002900480601f01602080910402602001604051908101604052809291908181526020018280546001816001161561010002031660029004801561050c5780601f106104e15761010080835404028352916020019161050c565b820191906000526020600020905b8154815290600101906020018083116104ef57829003601f168201915b5050505050905090565b60008060009054906101000a900473ffffffffffffffffffffffffffffffffffffffff1673ffffffffffffffffffffffffffffffffffffffff163373ffffffffffffffffffffffffffffffffffffffff16141515610602576040517f08c379a00000000000000000000000000000000000000000000000000000000081526004018080602001828103825260288152602001807f796f7520646f6e74206f776e2074686520637573746f6d657220736d6172742081526020017f636f6e747261637400000000000000000000000000000000000000000000000081525060400191505060405180910390fd5b60008773ffffffffffffffffffffffffffffffffffffffff166366e1dfa388886040518363ffffffff167c010000000000000000000000000000000000000000000000000000000002815260040180806020018281038252848482818152602001925060200280828437600081840152601f19601f820116905080830192505050935050505060206040518083038186803b1580156106a057600080fd5b505afa1580156106b4573d6000803e3d6000fd5b505050506040513d60208110156106ca57600080fd5b810190808051906020019092919050505090506000600260009054906101000a900473ffffffffffffffffffffffffffffffffffffffff1673ffffffffffffffffffffffffffffffffffffffff16635ed097f36040518163ffffffff167c010000000000000000000000000000000000000000000000000000000002815260040160206040518083038186803b15801561076357600080fd5b505afa158015610777573d6000803e3d6000fd5b505050506040513d602081101561078d57600080fd5b8101908080519060200190929190505050905080861015151561083e576040517f08c379a000000000000000000000000000000000000000000000000000000000815260040180806020018281038252602c8152602001807f64656c6976657279466565206d7573742062652067726561746572207468616e81526020017f20746865206d696e696d756d000000000000000000000000000000000000000081525060400191505060405180910390fd5b8582013410151515610904576040517f08c379a00000000000000000000000000000000000000000000000000000000081526004018080602001828103825260418152602001807f73656e74206574686572206973206e6f7420656e6f75676820746f20636f766581526020017f7220746865206f7264657220636f737420616e642064656c697665727920666581526020017f650000000000000000000000000000000000000000000000000000000000000081525060600191505060405180910390fd5b60008973ffffffffffffffffffffffffffffffffffffffff1663f99bcb788885018b8b8b8b8b6040518763ffffffff167c010000000000000000000000000000000000000000000000000000000002815260040180806020018581526020018481526020018381526020018281038252878782818152602001925060200280828437600081840152601f19601f82011690508083019250505096505050505050506020604051808303818588803b1580156109be57600080fd5b505af11580156109d2573d6000803e3d6000fd5b50505050506040513d60208110156109e957600080fd5b810190808051906020019092919050505090503373ffffffffffffffffffffffffffffffffffffffff166108fc88850134039081150290604051600060405180830381858888f19350505050158015610a46573d6000803e3d6000fd5b508060076000600654815260200190815260200160002060006101000a81548173ffffffffffffffffffffffffffffffffffffffff021916908373ffffffffffffffffffffffffffffffffffffffff16021790555060066000815480929190600101919050555060076000600160065403815260200190815260200160002060009054906101000a900473ffffffffffffffffffffffffffffffffffffffff1693505050509695505050505050565b60035481565b60008060009054906101000a900473ffffffffffffffffffffffffffffffffffffffff1673ffffffffffffffffffffffffffffffffffffffff163373ffffffffffffffffffffffffffffffffffffffff16141515610b5857600080fd5b6007600083815260200190815260200160002060009054906101000a900473ffffffffffffffffffffffffffffffffffffffff169050919050565b6000809054906101000a900473ffffffffffffffffffffffffffffffffffffffff1673ffffffffffffffffffffffffffffffffffffffff163373ffffffffffffffffffffffffffffffffffffffff16141515610c7d576040517f08c379a00000000000000000000000000000000000000000000000000000000081526004018080602001828103825260258152602001807f73656e742066726f6d206164647265737320746861742069736e74207468652081526020017f6f776e657200000000000000000000000000000000000000000000000000000081525060400191505060405180910390fd5b8073ffffffffffffffffffffffffffffffffffffffff1663e9132c42600280811115610ca557fe5b6040518263ffffffff167c010000000000000000000000000000000000000000000000000000000002815260040180828152602001915050600060405180830381600087803b158015610cf757600080fd5b505af1158015610d0b573d6000803e3d6000fd5b5050505050565b600260009054906101000a900473ffffffffffffffffffffffffffffffffffffffff168156fea165627a7a7230582052d929dd698b4f7e602447cf9dffb93eb37a985100e4939ab8f5e65a250d21490029a165627a7a7230582016ee726bab5f1d31381529bafd72d5bc03659144d1dc277c844ee78cd2e320eb0029",
  "source": "pragma solidity ^0.5.0;\r\n\r\nimport \"./Customer.sol\";\r\n\r\ncontract CustomerFactory {\r\n    address public owner;\r\n    address public controller;\r\n\r\n    uint public customerCount;\r\n    mapping(uint => address) public customers0; // id to customerContractAddress\r\n    mapping(address => address) private customers1; // customerContractAddress to customersOwnAddress\r\n    mapping(address => address) public customers2; // customersOwnAddress to customerContractAddress\r\n    \r\n    constructor(address _controller) public\r\n    {\r\n        controller = _controller;\r\n        owner = msg.sender;\r\n        customerCount = 0;\r\n    }\r\n    \r\n    // todo change name to createCustomer()\r\n    function makeCustomer(string calldata name, string calldata contactNumber) external returns(address customer){\r\n        require(customers2[msg.sender] == address(0x0));\r\n        Customer newCustomer = new Customer(customerCount, name, contactNumber, msg.sender, controller);\r\n        customers1[address(newCustomer)] = msg.sender;\r\n        customers2[msg.sender] = address(newCustomer);\r\n        customers0[customerCount] = address(newCustomer);\r\n        customerCount++;\r\n        return address(newCustomer);\r\n    }\r\n    \r\n    function customerExists(address customer) public view returns(bool CustomerExists){\r\n\t    if(customers1[customer] != address(0x0))\r\n            return true;\r\n        else\r\n            return false;\r\n\t}\r\n}",
  "sourcePath": "/home/george/Documents/University/Dissertation/TryAByte/contracts/CustomerFactory.sol",
  "compiler": {
    "name": "solc",
    "version": "0.5.0+commit.1d4f565a.Emscripten.clang"
  },
  "schemaVersion": "3.0.6",
  "updatedAt": "2019-04-11T00:42:54.958Z",
  "devdoc": {
    "methods": {}
  },
  "userdoc": {
    "methods": {}
  }
}