{
  "contractName": "Customer",
  "abi": [
    {
      "constant": true,
      "inputs": [],
      "name": "owner",
      "outputs": [
        {
          "name": "",
          "type": "address"
        }
      ],
      "payable": false,
      "stateMutability": "view",
      "type": "function"
    },
    {
      "constant": true,
      "inputs": [],
      "name": "id",
      "outputs": [
        {
          "name": "",
          "type": "uint256"
        }
      ],
      "payable": false,
      "stateMutability": "view",
      "type": "function"
    },
    {
      "constant": true,
      "inputs": [],
      "name": "controller",
      "outputs": [
        {
          "name": "",
          "type": "address"
        }
      ],
      "payable": false,
      "stateMutability": "view",
      "type": "function"
    },
    {
      "inputs": [
        {
          "name": "_id",
          "type": "uint256"
        },
        {
          "name": "_owner",
          "type": "address"
        },
        {
          "name": "controllerAddress",
          "type": "address"
        }
      ],
      "payable": false,
      "stateMutability": "nonpayable",
      "type": "constructor"
    },
    {
      "anonymous": false,
      "inputs": [
        {
          "indexed": false,
          "name": "orderAddress",
          "type": "address"
        },
        {
          "indexed": false,
          "name": "riderKeyHash",
          "type": "bytes32"
        }
      ],
      "name": "OrderMadeEvent",
      "type": "event"
    },
    {
      "constant": false,
      "inputs": [
        {
          "name": "orderAddress",
          "type": "address"
        }
      ],
      "name": "signalDelivered",
      "outputs": [],
      "payable": false,
      "stateMutability": "nonpayable",
      "type": "function"
    },
    {
      "constant": true,
      "inputs": [
        {
          "name": "_id",
          "type": "uint256"
        }
      ],
      "name": "getOrder",
      "outputs": [
        {
          "name": "orderAdderss",
          "type": "address"
        }
      ],
      "payable": false,
      "stateMutability": "view",
      "type": "function"
    },
    {
      "constant": true,
      "inputs": [],
      "name": "getTotalOrders",
      "outputs": [
        {
          "name": "totalOrdersMade",
          "type": "uint256"
        }
      ],
      "payable": false,
      "stateMutability": "view",
      "type": "function"
    }
  ],
  "bytecode": "0x608060405234801561001057600080fd5b506040516060806103ae8339810180604052606081101561003057600080fd5b508051602082015160409092015160039190915560008054600160a060020a03938416600160a060020a0319918216178255600280549490931693811693909317909155600455600180549091163317905561031d806100916000396000f3fe6080604052600436106100775763ffffffff7c0100000000000000000000000000000000000000000000000000000000600035041663375f16a7811461007c5780638da5cb5b146100a3578063af640d0f146100d4578063d09ef241146100e9578063e414f38d14610113578063f77c479114610148575b600080fd5b34801561008857600080fd5b5061009161015d565b60408051918252519081900360200190f35b3480156100af57600080fd5b506100b861017c565b60408051600160a060020a039092168252519081900360200190f35b3480156100e057600080fd5b5061009161018b565b3480156100f557600080fd5b506100b86004803603602081101561010c57600080fd5b5035610191565b34801561011f57600080fd5b506101466004803603602081101561013657600080fd5b5035600160a060020a03166101c5565b005b34801561015457600080fd5b506100b86102e2565b60008054600160a060020a0316331461017557600080fd5b5060045490565b600054600160a060020a031681565b60035481565b60008054600160a060020a031633146101a957600080fd5b50600090815260056020526040902054600160a060020a031690565b600054600160a060020a0316331461026457604080517f08c379a000000000000000000000000000000000000000000000000000000000815260206004820152602560248201527f73656e742066726f6d206164647265737320746861742069736e74207468652060448201527f6f776e6572000000000000000000000000000000000000000000000000000000606482015290519081900360840190fd5b600160a060020a03811663e9132c4260026040518263ffffffff167c010000000000000000000000000000000000000000000000000000000002815260040180828152602001915050600060405180830381600087803b1580156102c757600080fd5b505af11580156102db573d6000803e3d6000fd5b5050505050565b600254600160a060020a03168156fea165627a7a72305820682d765ae8c534dbf783f14fba0757692921122007df81b565fd8f5c2558d5b20029",
  "source": "pragma solidity ^0.5.0;\r\n\r\nimport \"./Restaurant.sol\";\r\nimport \"./Order.sol\";\r\nimport \"./Controller.sol\";\r\n\r\ncontract Customer {\r\n    \r\n    address public owner;\r\n    address customerFactory; // might not need this\r\n    address public controller;\r\n\r\n    uint public id;\r\n    uint totalOrders;\r\n    mapping(uint => address) orders;\r\n\r\n    enum customerState{madeOrder, payed, hasCargo}    \r\n    \r\n    event OrderMadeEvent(\r\n        address orderAddress,\r\n        bytes32 riderKeyHash\r\n    );\r\n    \r\n    constructor(uint _id, address _owner, address controllerAddress) public\r\n    {\r\n        id = _id;\r\n        owner = _owner;\r\n        controller = controllerAddress;\r\n\r\n        totalOrders = 0;\r\n        customerFactory = msg.sender;\r\n    }\r\n    \r\n    // // this function will call the restaurant make order\r\n    // // todo change to reference restaurantID from restFact to reduce cost??\r\n    // function makeOrder(address payable restaurant, uint[] calldata items, uint deliveryFee, bytes32 riderKeyHash) external payable returns (address orderAddress){\r\n    //     require(msg.sender == owner, \"you dont own the customer smart contract\");\r\n    //     //require(RestaurantFactory(restaurantFactoryAddress).restaurantExists(msg.sender));\r\n    //     uint price = Restaurant(restaurant).getOrderPrice(items);\r\n    //     uint minimumDeliveryFee = Controller(controller).minimumDeliveryFee();\r\n    //     require(deliveryFee >= minimumDeliveryFee, \"deliveryFee must be greater than the minimum\");\r\n    //     require(msg.value >= price + deliveryFee,\"sent ether is not enough to cover the order cost and delivery fee\");\r\n        \r\n    //     address orderAddr = Restaurant(restaurant).makeOrder.value(price + deliveryFee)(items, deliveryFee,  riderKeyHash);\r\n    //     msg.sender.transfer(msg.value - (price + deliveryFee)); // return excess payment\r\n    //     orders[totalOrders] = orderAddr;\r\n        \r\n    //     totalOrders++;\r\n\r\n    //     emit OrderMadeEvent(orderAddr, riderKeyHash);\r\n\r\n    //     return orders[totalOrders - 1];\r\n    // }\r\n\r\n    function signalDelivered(address orderAddress) public {\r\n        require(msg.sender == owner, \"sent from address that isnt the owner\");\r\n        Order(orderAddress).setOrderStatus(uint(customerState.hasCargo));\r\n    }\r\n\r\n    function getOrder(uint _id) external view returns(address orderAdderss){\r\n        require(msg.sender == owner);\r\n        return orders[_id];\r\n    }  \r\n\r\n    function getTotalOrders() external view returns(uint totalOrdersMade){\r\n        require(msg.sender == owner);\r\n        return totalOrders;\r\n    }      \r\n}\r\n",
  "sourcePath": "/home/george/Documents/workspace/TryAByte/contracts/Customer.sol",
  "compiler": {
    "name": "solc",
    "version": "0.5.0+commit.1d4f565a.Emscripten.clang"
  },
  "schemaVersion": "3.0.6",
  "updatedAt": "2020-01-03T15:43:43.996Z",
  "devdoc": {
    "methods": {}
  },
  "userdoc": {
    "methods": {}
  }
}