{
  "contractName": "CustomerFactory",
  "abi": [
    {
      "inputs": [
        {
          "internalType": "address",
          "name": "_controller",
          "type": "address"
        }
      ],
      "payable": false,
      "stateMutability": "nonpayable",
      "type": "constructor"
    },
    {
      "anonymous": false,
      "inputs": [
        {
          "indexed": true,
          "internalType": "address",
          "name": "customerAddress",
          "type": "address"
        },
        {
          "indexed": true,
          "internalType": "address",
          "name": "createrAddress",
          "type": "address"
        }
      ],
      "name": "CustomerMade",
      "type": "event"
    },
    {
      "constant": true,
      "inputs": [],
      "name": "controller",
      "outputs": [
        {
          "internalType": "address",
          "name": "",
          "type": "address"
        }
      ],
      "payable": false,
      "stateMutability": "view",
      "type": "function"
    },
    {
      "constant": true,
      "inputs": [],
      "name": "customerCount",
      "outputs": [
        {
          "internalType": "uint256",
          "name": "",
          "type": "uint256"
        }
      ],
      "payable": false,
      "stateMutability": "view",
      "type": "function"
    },
    {
      "constant": true,
      "inputs": [
        {
          "internalType": "uint256",
          "name": "",
          "type": "uint256"
        }
      ],
      "name": "customers0",
      "outputs": [
        {
          "internalType": "address",
          "name": "",
          "type": "address"
        }
      ],
      "payable": false,
      "stateMutability": "view",
      "type": "function"
    },
    {
      "constant": true,
      "inputs": [
        {
          "internalType": "address",
          "name": "",
          "type": "address"
        }
      ],
      "name": "customers2",
      "outputs": [
        {
          "internalType": "address",
          "name": "",
          "type": "address"
        }
      ],
      "payable": false,
      "stateMutability": "view",
      "type": "function"
    },
    {
      "constant": true,
      "inputs": [],
      "name": "owner",
      "outputs": [
        {
          "internalType": "address",
          "name": "",
          "type": "address"
        }
      ],
      "payable": false,
      "stateMutability": "view",
      "type": "function"
    },
    {
      "constant": false,
      "inputs": [],
      "name": "makeCustomer",
      "outputs": [
        {
          "internalType": "address",
          "name": "customer",
          "type": "address"
        }
      ],
      "payable": false,
      "stateMutability": "nonpayable",
      "type": "function"
    },
    {
      "constant": true,
      "inputs": [
        {
          "internalType": "address",
          "name": "customer",
          "type": "address"
        }
      ],
      "name": "customerExists",
      "outputs": [
        {
          "internalType": "bool",
          "name": "CustomerExists",
          "type": "bool"
        }
      ],
      "payable": false,
      "stateMutability": "view",
      "type": "function"
    },
    {
      "constant": false,
      "inputs": [],
      "name": "reset",
      "outputs": [],
      "payable": false,
      "stateMutability": "nonpayable",
      "type": "function"
    }
  ],
  "bytecode": "0x608060405234801561001057600080fd5b50604051610ea9380380610ea98339818101604052602081101561003357600080fd5b5051600180546001600160a01b039092166001600160a01b03199283161790556000805490911633178155600255610e39806100706000396000f3fe608060405234801561001057600080fd5b50600436106100885760003560e01c80639757e8a31161005b5780639757e8a314610119578063c71d288b14610133578063d826f88f14610150578063f77c47911461015a57610088565b806344316d4e1461008d578063689b0098146100b157806373ad8b81146100eb5780638da5cb5b14610111575b600080fd5b610095610162565b604080516001600160a01b039092168252519081900360200190f35b6100d7600480360360208110156100c757600080fd5b50356001600160a01b03166102a5565b604080519115158252519081900360200190f35b6100956004803603602081101561010157600080fd5b50356001600160a01b03166102d8565b6100956102f3565b610121610302565b60408051918252519081900360200190f35b6100956004803603602081101561014957600080fd5b5035610308565b610158610323565b005b6100956103a7565b336000908152600560205260408120546001600160a01b0316156101b75760405162461bcd60e51b8152600401808060200182810382526036815260200180610dcf6036913960400191505060405180910390fd5b6002546001546040516000929133916001600160a01b03909116906101db906103b6565b9283526001600160a01b039182166020840152166040808301919091525190819003606001906000f080158015610216573d6000803e3d6000fd5b506001600160a01b03811660008181526004602090815260408083208054336001600160a01b031991821681179092558185526005845282852080548216871790556002805486526003909452828520805490911686179055825460010190925551939450927f3d14142a8ee81a245fb58ce6f3b2159eb29b7326216900cc8e087447ea96fc479190a3905090565b6001600160a01b03818116600090815260046020526040812054909116156102cf575060016102d3565b5060005b919050565b6005602052600090815260409020546001600160a01b031681565b6000546001600160a01b031681565b60025481565b6003602052600090815260409020546001600160a01b031681565b6001546001600160a01b0316331461033a57600080fd5b60005b6002548110156103a457600081815260036020908152604080832080546001600160a01b0380821686526004855283862080546001600160a01b0319938416909455805483169055919091168452600590925282208054909116905560025560010161033d565b50565b6001546001600160a01b031681565b610a0b806103c48339019056fe608060405234801561001057600080fd5b50604051610a0b380380610a0b8339818101604052606081101561003357600080fd5b5080516020820151604090920151600391909155600080546001600160a01b039384166001600160a01b03199182161782556002805494909316938116939093179091556004556001805490911633179055610977806100946000396000f3fe6080604052600436106100705760003560e01c8063af640d0f1161004e578063af640d0f14610159578063d09ef2411461016e578063e414f38d14610198578063f77c4791146101cd57610070565b8063257a611414610075578063375f16a71461011d5780638da5cb5b14610144575b600080fd5b610101600480360360a081101561008b57600080fd5b6001600160a01b0382351691908101906040810160208201356401000000008111156100b657600080fd5b8201836020820111156100c857600080fd5b803590602001918460208302840111640100000000831117156100ea57600080fd5b9193509150803590602081013590604001356101e2565b604080516001600160a01b039092168252519081900360200190f35b34801561012957600080fd5b50610132610734565b60408051918252519081900360200190f35b34801561015057600080fd5b50610101610753565b34801561016557600080fd5b50610132610762565b34801561017a57600080fd5b506101016004803603602081101561019157600080fd5b5035610768565b3480156101a457600080fd5b506101cb600480360360208110156101bb57600080fd5b50356001600160a01b031661079c565b005b3480156101d957600080fd5b50610101610847565b600080546001600160a01b0316331461022c5760405162461bcd60e51b81526004018080602001828103825260288152602001806108576028913960400191505060405180910390fd5b600260009054906101000a90046001600160a01b03166001600160a01b03166368db65a46040518163ffffffff1660e01b815260040160206040518083038186803b15801561027a57600080fd5b505afa15801561028e573d6000803e3d6000fd5b505050506040513d60208110156102a457600080fd5b5051604080516379a4fa2760e01b815233600482015290516001600160a01b03909216916379a4fa2791602480820192602092909190829003018186803b1580156102ee57600080fd5b505afa158015610302573d6000803e3d6000fd5b505050506040513d602081101561031857600080fd5b50516103555760405162461bcd60e51b81526004018080602001828103825260328152602001806108d06032913960400191505060405180910390fd5b6000876001600160a01b031663b21dc38a8888886040518463ffffffff1660e01b815260040180806020018381526020018281038252858582818152602001925060200280828437600083820152604051601f909101601f1916909201965060209550909350505081840390508186803b1580156103d257600080fd5b505afa1580156103e6573d6000803e3d6000fd5b505050506040513d60208110156103fc57600080fd5b505160025460408051635ed097f360e01b815290519293506000926001600160a01b0390921691635ed097f391600480820192602092909190829003018186803b15801561044957600080fd5b505afa15801561045d573d6000803e3d6000fd5b505050506040513d602081101561047357600080fd5b50519050808510156104b65760405162461bcd60e51b815260040180806020018281038252602c81526020018061087f602c913960400191505060405180910390fd5b8482013410156104f75760405162461bcd60e51b81526004018080602001828103825260418152602001806109026041913960600191505060405180910390fd5b604080516003890180825260208082028301019092526060918015610526578160200160208202803883390190505b509050828160018151811061053757fe5b602002602001018181525050858160028151811061055157fe5b602090810291909101015260005b8881101561059c5789898281811061057357fe5b9050602002013582826003018151811061058957fe5b602090810291909101015260010161055f565b5060008a6001600160a01b031663f9a9525e888601848b8a6040518563ffffffff1660e01b81526004018080602001848152602001838152602001828103825285818151815260200191508051906020019060200280838360005b8381101561060f5781810151838201526020016105f7565b505050509050019450505050506020604051808303818588803b15801561063557600080fd5b505af1158015610649573d6000803e3d6000fd5b50505050506040513d602081101561066057600080fd5b50516040519091503390858901340380156108fc02916000818181858888f19350505050158015610695573d6000803e3d6000fd5b506004805460009081526005602090815260409182902080546001600160a01b0319166001600160a01b03861690811790915583546001019093558151928352820188905280517fa43e6608dee147ac6ed609598b4706deeffed4faef8af03205a5a5bb4b38399e9281900390910190a15050600454600019016000908152600560205260409020546001600160a01b03169998505050505050505050565b600080546001600160a01b0316331461074c57600080fd5b5060045490565b6000546001600160a01b031681565b60035481565b600080546001600160a01b0316331461078057600080fd5b506000908152600560205260409020546001600160a01b031690565b6000546001600160a01b031633146107e55760405162461bcd60e51b81526004018080602001828103825260258152602001806108ab6025913960400191505060405180910390fd5b6001600160a01b03811663e9132c4260026040518263ffffffff1660e01b815260040180828152602001915050600060405180830381600087803b15801561082c57600080fd5b505af1158015610840573d6000803e3d6000fd5b5050505050565b6002546001600160a01b03168156fe796f7520646f6e74206f776e2074686520637573746f6d657220736d61727420636f6e747261637464656c6976657279466565206d7573742062652067726561746572207468616e20746865206d696e696d756d73656e742066726f6d206164647265737320746861742069736e7420746865206f776e65727468652072657374617572616e7420796f7520617265206f72646572696e672066726f6d20646f65736e277420657869737473656e74206574686572206973206e6f7420656e6f75676820746f20636f76657220746865206f7264657220636f737420616e642064656c697665727920666565a265627a7a72315820fd241fcead2965ffb093aab95825b68792ffebf2a3ab6e00bbc3cd2a1808bbf264736f6c634300050c0032796f7572206164647265737320616c726561647920686173206120637573746f6d6572206173736f6369617465642077697468206974a265627a7a723158202340f62e262a7460a041f2ba2c6b14136677bf6605c13b590ee008ba6643b48f64736f6c634300050c0032",
  "source": "pragma solidity ^0.5.0;\r\n\r\nimport \"./Customer.sol\";\r\n\r\ncontract CustomerFactory {\r\n    address public owner;\r\n    address public controller;\r\n\r\n    uint public customerCount;\r\n    mapping(uint => address) public customers0; // id to customerContractAddress\r\n    mapping(address => address) private customers1; // customerContractAddress to customersOwnAddress\r\n    mapping(address => address) public customers2; // customersOwnAddress to customerContractAddress\r\n    \r\n    event CustomerMade(address indexed customerAddress, address indexed createrAddress);\r\n\r\n    constructor(address _controller) public\r\n    {\r\n        controller = _controller;\r\n        owner = msg.sender;\r\n        customerCount = 0;\r\n    }\r\n    \r\n    function makeCustomer() external returns(address customer){\r\n        require(customers2[msg.sender] == address(0x0), \"your address already has a customer associated with it\");\r\n        Customer newCustomer = new Customer(customerCount, msg.sender, controller);\r\n        customers1[address(newCustomer)] = msg.sender;\r\n        customers2[msg.sender] = address(newCustomer);\r\n        customers0[customerCount] = address(newCustomer);\r\n        customerCount++;\r\n\r\n        emit CustomerMade(address(newCustomer),msg.sender);\r\n\r\n        return address(newCustomer);\r\n    }\r\n    \r\n    function customerExists(address customer) public view returns(bool CustomerExists){\r\n\t    if(customers1[customer] != address(0x0))\r\n            return true;\r\n        else\r\n            return false;\r\n\t}\r\n\r\n    function reset() public {\r\n        require(msg.sender == controller);\r\n        for(uint i = 0; i < customerCount; i++){\r\n            address currentContract = customers0[i];\r\n            address currentOwnAddress = customers1[currentContract];\r\n\r\n            delete customers0[i];\r\n            delete customers1[currentContract];\r\n            delete customers2[currentOwnAddress];\r\n\r\n            customerCount = 0;\r\n        }\r\n    }\r\n}",
  "sourcePath": "/home/george/Documents/WorkSpace/TryAByte/contracts/CustomerFactory.sol",
  "compiler": {
    "name": "solc",
    "version": "0.5.12+commit.7709ece9.Emscripten.clang"
  },
  "schemaVersion": "3.0.19",
  "updatedAt": "2020-01-23T12:39:49.564Z",
  "networkType": "ethereum",
  "devdoc": {
    "methods": {}
  },
  "userdoc": {
    "methods": {}
  }
}