{
  "contractName": "Customer",
  "abi": [
    {
      "constant": true,
      "inputs": [],
      "name": "owner",
      "outputs": [
        {
          "name": "",
          "type": "address"
        }
      ],
      "payable": false,
      "stateMutability": "view",
      "type": "function"
    },
    {
      "constant": true,
      "inputs": [],
      "name": "id",
      "outputs": [
        {
          "name": "",
          "type": "uint256"
        }
      ],
      "payable": false,
      "stateMutability": "view",
      "type": "function"
    },
    {
      "constant": true,
      "inputs": [],
      "name": "controller",
      "outputs": [
        {
          "name": "",
          "type": "address"
        }
      ],
      "payable": false,
      "stateMutability": "view",
      "type": "function"
    },
    {
      "inputs": [
        {
          "name": "_id",
          "type": "uint256"
        },
        {
          "name": "_name",
          "type": "string"
        },
        {
          "name": "_contactNumber",
          "type": "string"
        },
        {
          "name": "_owner",
          "type": "address"
        },
        {
          "name": "controllerAddress",
          "type": "address"
        }
      ],
      "payable": false,
      "stateMutability": "nonpayable",
      "type": "constructor"
    },
    {
      "anonymous": false,
      "inputs": [],
      "name": "OrderMadeEvent",
      "type": "event"
    },
    {
      "constant": false,
      "inputs": [
        {
          "name": "restaurant",
          "type": "address"
        },
        {
          "name": "items",
          "type": "uint256[]"
        },
        {
          "name": "deliveryFee",
          "type": "uint256"
        },
        {
          "name": "delivreyAddress",
          "type": "bytes"
        },
        {
          "name": "riderKeyHash",
          "type": "bytes32"
        }
      ],
      "name": "makeOrder",
      "outputs": [
        {
          "name": "orderAddress",
          "type": "address"
        }
      ],
      "payable": true,
      "stateMutability": "payable",
      "type": "function"
    },
    {
      "constant": false,
      "inputs": [
        {
          "name": "orderAddress",
          "type": "address"
        }
      ],
      "name": "signalDelivered",
      "outputs": [],
      "payable": false,
      "stateMutability": "nonpayable",
      "type": "function"
    },
    {
      "constant": true,
      "inputs": [],
      "name": "getContactNumber",
      "outputs": [
        {
          "name": "_contactNumber",
          "type": "string"
        }
      ],
      "payable": false,
      "stateMutability": "view",
      "type": "function"
    },
    {
      "constant": true,
      "inputs": [
        {
          "name": "_id",
          "type": "uint256"
        }
      ],
      "name": "getOrder",
      "outputs": [
        {
          "name": "orderAdderss",
          "type": "address"
        }
      ],
      "payable": false,
      "stateMutability": "view",
      "type": "function"
    },
    {
      "constant": true,
      "inputs": [],
      "name": "getTotalOrders",
      "outputs": [
        {
          "name": "totalOrdersMade",
          "type": "uint256"
        }
      ],
      "payable": false,
      "stateMutability": "view",
      "type": "function"
    }
  ],
  "bytecode": "0x608060405234801561001057600080fd5b50604051610b6d380380610b6d833981018060405260a081101561003357600080fd5b81516020830180519193928301929164010000000081111561005457600080fd5b8201602081018481111561006757600080fd5b815164010000000081118282018710171561008157600080fd5b5050929190602001805164010000000081111561009d57600080fd5b820160208101848111156100b057600080fd5b81516401000000008111828201871017156100ca57600080fd5b5050602080830151604090930151600388905586519295509293506100f491600491870190610153565b508251610108906005906020860190610153565b5060008054600160a060020a03938416600160a060020a03199182161782556002805493909416928116929092179092556006919091556001805490911633179055506101ee915050565b828054600181600116156101000203166002900490600052602060002090601f016020900481019282601f1061019457805160ff19168380011785556101c1565b828001600101855582156101c1579182015b828111156101c15782518255916020019190600101906101a6565b506101cd9291506101d1565b5090565b6101eb91905b808211156101cd57600081556001016101d7565b90565b610970806101fd6000396000f3fe6080604052600436106100745763ffffffff60e060020a600035041663375f16a781146100795780638da5cb5b146100a05780638ec3fda5146100d1578063af640d0f1461015b578063d09ef24114610170578063e414f38d1461019a578063e8465466146101cf578063f77c4791146102a5575b600080fd5b34801561008557600080fd5b5061008e6102ba565b60408051918252519081900360200190f35b3480156100ac57600080fd5b506100b56102d9565b60408051600160a060020a039092168252519081900360200190f35b3480156100dd57600080fd5b506100e66102e8565b6040805160208082528351818301528351919283929083019185019080838360005b83811015610120578181015183820152602001610108565b50505050905090810190601f16801561014d5780820380516001836020036101000a031916815260200191505b509250505060405180910390f35b34801561016757600080fd5b5061008e61037e565b34801561017c57600080fd5b506100b56004803603602081101561019357600080fd5b5035610384565b3480156101a657600080fd5b506101cd600480360360208110156101bd57600080fd5b5035600160a060020a03166103b8565b005b6100b5600480360360a08110156101e557600080fd5b600160a060020a03823516919081019060408101602082013564010000000081111561021057600080fd5b82018360208201111561022257600080fd5b8035906020019184602083028401116401000000008311171561024457600080fd5b9193909282359260408101906020013564010000000081111561026657600080fd5b82018360208201111561027857600080fd5b8035906020019184600183028401116401000000008311171561029a57600080fd5b9193509150356104a5565b3480156102b157600080fd5b506100b5610935565b60008054600160a060020a031633146102d257600080fd5b5060065490565b600054600160a060020a031681565b60058054604080516020601f60026000196101006001881615020190951694909404938401819004810282018101909252828152606093909290918301828280156103745780601f1061034957610100808354040283529160200191610374565b820191906000526020600020905b81548152906001019060200180831161035757829003601f168201915b5050505050905090565b60035481565b60008054600160a060020a0316331461039c57600080fd5b50600090815260076020526040902054600160a060020a031690565b600054600160a060020a03163314610440576040805160e560020a62461bcd02815260206004820152602560248201527f73656e742066726f6d206164647265737320746861742069736e74207468652060448201527f6f776e6572000000000000000000000000000000000000000000000000000000606482015290519081900360840190fd5b600160a060020a03811663e9132c4260026040518263ffffffff1660e060020a02815260040180828152602001915050600060405180830381600087803b15801561048a57600080fd5b505af115801561049e573d6000803e3d6000fd5b5050505050565b60008054600160a060020a0316331461052e576040805160e560020a62461bcd02815260206004820152602860248201527f796f7520646f6e74206f776e2074686520637573746f6d657220736d6172742060448201527f636f6e7472616374000000000000000000000000000000000000000000000000606482015290519081900360840190fd5b600088600160a060020a03166366e1dfa389896040518363ffffffff1660e060020a02815260040180806020018281038252848482818152602001925060200280828437600083820152604051601f909101601f191690920195506020945090925050508083038186803b1580156105a557600080fd5b505afa1580156105b9573d6000803e3d6000fd5b505050506040513d60208110156105cf57600080fd5b5051600254604080517f5ed097f30000000000000000000000000000000000000000000000000000000081529051929350600092600160a060020a0390921691635ed097f391600480820192602092909190829003018186803b15801561063557600080fd5b505afa158015610649573d6000803e3d6000fd5b505050506040513d602081101561065f57600080fd5b50519050808710156106e1576040805160e560020a62461bcd02815260206004820152602c60248201527f64656c6976657279466565206d7573742062652067726561746572207468616e60448201527f20746865206d696e696d756d0000000000000000000000000000000000000000606482015290519081900360840190fd5b818701341015610787576040805160e560020a62461bcd02815260206004820152604160248201527f73656e74206574686572206973206e6f7420656e6f75676820746f20636f766560448201527f7220746865206f7264657220636f737420616e642064656c697665727920666560648201527f6500000000000000000000000000000000000000000000000000000000000000608482015290519081900360a40190fd5b60008a600160a060020a031663d3a59ad38985018c8c8c8c8c8c6040518863ffffffff1660e060020a0281526004018080602001868152602001806020018481526020018381038352898982818152602001925060200280828437600083820152601f01601f191690910184810383528681526020019050868680828437600081840152601f19601f820116905080830192505050985050505050505050506020604051808303818588803b15801561083f57600080fd5b505af1158015610853573d6000803e3d6000fd5b50505050506040513d602081101561086a57600080fd5b50516040519091503390848a01340380156108fc02916000818181858888f1935050505015801561089f573d6000803e3d6000fd5b5060068054600090815260076020526040808220805473ffffffffffffffffffffffffffffffffffffffff1916600160a060020a038616179055825460010190925590517fd9854e95eeff7931e6b9fea95a4362030a271a9b99f3f8927660884897eedc0e9190a1505060065460001901600090815260076020526040902054600160a060020a03169998505050505050505050565b600254600160a060020a03168156fea165627a7a7230582030d502725e3b2a80e309ac88d3cde4c95ecf5a4adb68a98834401dd1cbbeedda0029",
  "source": "pragma solidity ^0.5.0;\r\n\r\nimport \"./Restaurant.sol\";\r\n//import \"./RestaurantFactory.sol\";\r\nimport \"./Order.sol\";\r\nimport \"./Controller.sol\";\r\n\r\ncontract Customer {\r\n    \r\n    address public owner;\r\n    address customerFactory; // might not need this\r\n    address public controller;\r\n\r\n    uint public id;\r\n    string name;\r\n    string private contactNumber;\r\n    uint totalOrders;\r\n    mapping(uint => address) orders;\r\n\r\n    enum customerState{madeOrder, payed, hasCargo}    \r\n    \r\n    event OrderMadeEvent();\r\n    \r\n    constructor(uint _id, string memory _name, string memory _contactNumber, address _owner, address controllerAddress) public\r\n    {\r\n        id = _id;\r\n        name = _name;\r\n        contactNumber = _contactNumber;\r\n        owner = _owner;\r\n        controller = controllerAddress;\r\n\r\n        totalOrders = 0;\r\n        customerFactory = msg.sender;\r\n    }\r\n    \r\n    // this function will call the restaurant make order\r\n    // todo change to reference restaurantID from restFact to reduce cost??\r\n    function makeOrder(address payable restaurant, uint[] calldata items, uint deliveryFee, bytes calldata delivreyAddress,bytes32 riderKeyHash) external payable returns (address orderAddress){\r\n        require(msg.sender == owner, \"you dont own the customer smart contract\");\r\n        //require(RestaurantFactory(restaurantFactoryAddress).restaurantExists(msg.sender));\r\n        uint price = Restaurant(restaurant).getOrderPrice(items);\r\n        uint minimumDeliveryFee = Controller(controller).minimumDeliveryFee();\r\n        require(deliveryFee >= minimumDeliveryFee, \"deliveryFee must be greater than the minimum\");\r\n        require(msg.value >= price + deliveryFee,\"sent ether is not enough to cover the order cost and delivery fee\");\r\n        \r\n        address orderAddr = Restaurant(restaurant).makeOrder.value(price + deliveryFee)(items, deliveryFee, delivreyAddress, riderKeyHash);\r\n        msg.sender.transfer(msg.value - (price + deliveryFee)); // return excess payment\r\n        orders[totalOrders] = orderAddr;\r\n        \r\n        totalOrders++;\r\n\r\n        emit OrderMadeEvent();\r\n\r\n        return orders[totalOrders - 1];\r\n    }\r\n\r\n    function signalDelivered(address orderAddress) public {\r\n        require(msg.sender == owner, \"sent from address that isnt the owner\");\r\n        Order(orderAddress).setOrderStatus(uint(customerState.hasCargo));\r\n    }\r\n\r\n    function getContactNumber() public view returns(string memory _contactNumber){\r\n        // require the sender of the message to be either the delivery worker or the the restaurant via the order class, the order status must be currenly active\r\n        return contactNumber;\r\n    }\r\n\r\n    function getOrder(uint _id) external view returns(address orderAdderss){\r\n        require(msg.sender == owner);\r\n        return orders[_id];\r\n    }  \r\n\r\n    function getTotalOrders() external view returns(uint totalOrdersMade){\r\n        require(msg.sender == owner);\r\n        return totalOrders;\r\n    }    \r\n    \r\n\r\n    \r\n    \r\n}\r\n",
  "sourcePath": "/home/george/Documents/University/Dissertation/TryAByte/contracts/Customer.sol",
  "compiler": {
    "name": "solc",
    "version": "0.5.0+commit.1d4f565a.Emscripten.clang"
  },
  "schemaVersion": "3.0.6",
  "updatedAt": "2019-04-13T18:06:52.000Z",
  "devdoc": {
    "methods": {}
  },
  "userdoc": {
    "methods": {}
  }
}