{
  "contractName": "Customer",
  "abi": [
    {
      "constant": true,
      "inputs": [],
      "name": "owner",
      "outputs": [
        {
          "name": "",
          "type": "address"
        }
      ],
      "payable": false,
      "stateMutability": "view",
      "type": "function"
    },
    {
      "constant": true,
      "inputs": [],
      "name": "id",
      "outputs": [
        {
          "name": "",
          "type": "uint256"
        }
      ],
      "payable": false,
      "stateMutability": "view",
      "type": "function"
    },
    {
      "inputs": [
        {
          "name": "_id",
          "type": "uint256"
        },
        {
          "name": "_name",
          "type": "string"
        },
        {
          "name": "_contactNumber",
          "type": "string"
        },
        {
          "name": "_owner",
          "type": "address"
        }
      ],
      "payable": false,
      "stateMutability": "nonpayable",
      "type": "constructor"
    },
    {
      "constant": false,
      "inputs": [
        {
          "name": "restaurant",
          "type": "address"
        },
        {
          "name": "items",
          "type": "uint256[]"
        }
      ],
      "name": "makeOrder",
      "outputs": [
        {
          "name": "orderAddress",
          "type": "address"
        }
      ],
      "payable": true,
      "stateMutability": "payable",
      "type": "function"
    },
    {
      "constant": false,
      "inputs": [
        {
          "name": "orderAddress",
          "type": "address"
        }
      ],
      "name": "signalDelivered",
      "outputs": [],
      "payable": false,
      "stateMutability": "nonpayable",
      "type": "function"
    },
    {
      "constant": true,
      "inputs": [],
      "name": "getContactNumber",
      "outputs": [
        {
          "name": "_contactNumber",
          "type": "string"
        }
      ],
      "payable": false,
      "stateMutability": "view",
      "type": "function"
    },
    {
      "constant": true,
      "inputs": [
        {
          "name": "_id",
          "type": "uint256"
        }
      ],
      "name": "getOrder",
      "outputs": [
        {
          "name": "orderAdderss",
          "type": "address"
        }
      ],
      "payable": false,
      "stateMutability": "view",
      "type": "function"
    },
    {
      "constant": true,
      "inputs": [],
      "name": "getTotalOrders",
      "outputs": [
        {
          "name": "totalOrdersMade",
          "type": "uint256"
        }
      ],
      "payable": false,
      "stateMutability": "view",
      "type": "function"
    }
  ],
  "bytecode": "0x60806040523480156200001157600080fd5b5060405162000ede38038062000ede833981018060405260808110156200003757600080fd5b810190808051906020019092919080516401000000008111156200005a57600080fd5b828101905060208101848111156200007157600080fd5b81518560018202830111640100000000821117156200008f57600080fd5b50509291906020018051640100000000811115620000ac57600080fd5b82810190506020810184811115620000c357600080fd5b8151856001820283011164010000000082111715620000e157600080fd5b50509291906020018051906020019092919050505083600281905550826003908051906020019062000115929190620001c2565b5081600490805190602001906200012e929190620001c2565b50806000806101000a81548173ffffffffffffffffffffffffffffffffffffffff021916908373ffffffffffffffffffffffffffffffffffffffff160217905550600060058190555033600160006101000a81548173ffffffffffffffffffffffffffffffffffffffff021916908373ffffffffffffffffffffffffffffffffffffffff1602179055505050505062000271565b828054600181600116156101000203166002900490600052602060002090601f016020900481019282601f106200020557805160ff191683800117855562000236565b8280016001018555821562000236579182015b828111156200023557825182559160200191906001019062000218565b5b50905062000245919062000249565b5090565b6200026e91905b808211156200026a57600081600090555060010162000250565b5090565b90565b610c5d80620002816000396000f3fe608060405260043610610083576000357c0100000000000000000000000000000000000000000000000000000000900463ffffffff168063375f16a7146100885780638da5cb5b146100b35780638ec3fda51461010a578063af640d0f1461019a578063b0f1cbea146101c5578063d09ef2411461029e578063e414f38d14610319575b600080fd5b34801561009457600080fd5b5061009d61036a565b6040518082815260200191505060405180910390f35b3480156100bf57600080fd5b506100c86103cf565b604051808273ffffffffffffffffffffffffffffffffffffffff1673ffffffffffffffffffffffffffffffffffffffff16815260200191505060405180910390f35b34801561011657600080fd5b5061011f6103f4565b6040518080602001828103825283818151815260200191508051906020019080838360005b8381101561015f578082015181840152602081019050610144565b50505050905090810190601f16801561018c5780820380516001836020036101000a031916815260200191505b509250505060405180910390f35b3480156101a657600080fd5b506101af610496565b6040518082815260200191505060405180910390f35b61025c600480360360408110156101db57600080fd5b81019080803573ffffffffffffffffffffffffffffffffffffffff1690602001909291908035906020019064010000000081111561021857600080fd5b82018360208201111561022a57600080fd5b8035906020019184602083028401116401000000008311171561024c57600080fd5b909192939192939050505061049c565b604051808273ffffffffffffffffffffffffffffffffffffffff1673ffffffffffffffffffffffffffffffffffffffff16815260200191505060405180910390f35b3480156102aa57600080fd5b506102d7600480360360208110156102c157600080fd5b8101908080359060200190929190505050610a1a565b604051808273ffffffffffffffffffffffffffffffffffffffff1673ffffffffffffffffffffffffffffffffffffffff16815260200191505060405180910390f35b34801561032557600080fd5b506103686004803603602081101561033c57600080fd5b81019080803573ffffffffffffffffffffffffffffffffffffffff169060200190929190505050610ab2565b005b60008060009054906101000a900473ffffffffffffffffffffffffffffffffffffffff1673ffffffffffffffffffffffffffffffffffffffff163373ffffffffffffffffffffffffffffffffffffffff161415156103c757600080fd5b600554905090565b6000809054906101000a900473ffffffffffffffffffffffffffffffffffffffff1681565b606060048054600181600116156101000203166002900480601f01602080910402602001604051908101604052809291908181526020018280546001816001161561010002031660029004801561048c5780601f106104615761010080835404028352916020019161048c565b820191906000526020600020905b81548152906001019060200180831161046f57829003601f168201915b5050505050905090565b60025481565b60008060009054906101000a900473ffffffffffffffffffffffffffffffffffffffff1673ffffffffffffffffffffffffffffffffffffffff163373ffffffffffffffffffffffffffffffffffffffff16141515610588576040517f08c379a00000000000000000000000000000000000000000000000000000000081526004018080602001828103825260288152602001807f796f7520646f6e74206f776e2074686520637573746f6d657220736d6172742081526020017f636f6e747261637400000000000000000000000000000000000000000000000081525060400191505060405180910390fd5b60008473ffffffffffffffffffffffffffffffffffffffff166366e1dfa385856040518363ffffffff167c010000000000000000000000000000000000000000000000000000000002815260040180806020018281038252848482818152602001925060200280828437600081840152601f19601f820116905080830192505050935050505060206040518083038186803b15801561062657600080fd5b505afa15801561063a573d6000803e3d6000fd5b505050506040513d602081101561065057600080fd5b81019080805190602001909291905050509050803410151515610727576040517f08c379a00000000000000000000000000000000000000000000000000000000081526004018080602001828103825260418152602001807f73656e74206574686572206973206e6f7420656e6f75676820746f20636f766581526020017f7220746865206f7264657220636f737420616e642064656c697665727920666581526020017f650000000000000000000000000000000000000000000000000000000000000081525060600191505060405180910390fd5b60008573ffffffffffffffffffffffffffffffffffffffff16635d92836686866040518363ffffffff167c010000000000000000000000000000000000000000000000000000000002815260040180806020018281038252848482818152602001925060200280828437600081840152601f19601f8201169050808301925050509350505050602060405180830381600087803b1580156107c757600080fd5b505af11580156107db573d6000803e3d6000fd5b505050506040513d60208110156107f157600080fd5b810190808051906020019092919050505090508060066000600554815260200190815260200160002060006101000a81548173ffffffffffffffffffffffffffffffffffffffff021916908373ffffffffffffffffffffffffffffffffffffffff16021790555060008173ffffffffffffffffffffffffffffffffffffffff1663f3cc0f1f6040518163ffffffff167c010000000000000000000000000000000000000000000000000000000002815260040160206040518083038186803b1580156108bc57600080fd5b505afa1580156108d0573d6000803e3d6000fd5b505050506040513d60208110156108e657600080fd5b810190808051906020019092919050505090508173ffffffffffffffffffffffffffffffffffffffff16638d74d1ca8285016040518263ffffffff167c01000000000000000000000000000000000000000000000000000000000281526004016000604051808303818588803b15801561095f57600080fd5b505af1158015610973573d6000803e3d6000fd5b50505050503373ffffffffffffffffffffffffffffffffffffffff166108fc82850134039081150290604051600060405180830381858888f193505050501580156109c2573d6000803e3d6000fd5b5060056000815480929190600101919050555060066000600160055403815260200190815260200160002060009054906101000a900473ffffffffffffffffffffffffffffffffffffffff1693505050509392505050565b60008060009054906101000a900473ffffffffffffffffffffffffffffffffffffffff1673ffffffffffffffffffffffffffffffffffffffff163373ffffffffffffffffffffffffffffffffffffffff16141515610a7757600080fd5b6006600083815260200190815260200160002060009054906101000a900473ffffffffffffffffffffffffffffffffffffffff169050919050565b6000809054906101000a900473ffffffffffffffffffffffffffffffffffffffff1673ffffffffffffffffffffffffffffffffffffffff163373ffffffffffffffffffffffffffffffffffffffff16141515610b9c576040517f08c379a00000000000000000000000000000000000000000000000000000000081526004018080602001828103825260258152602001807f73656e742066726f6d206164647265737320746861742069736e74207468652081526020017f6f776e657200000000000000000000000000000000000000000000000000000081525060400191505060405180910390fd5b8073ffffffffffffffffffffffffffffffffffffffff1663e9132c42600280811115610bc457fe5b6040518263ffffffff167c010000000000000000000000000000000000000000000000000000000002815260040180828152602001915050600060405180830381600087803b158015610c1657600080fd5b505af1158015610c2a573d6000803e3d6000fd5b505050505056fea165627a7a72305820027a0cf182d526d44ca7337e1e88c622b617be3776381c0a97a23dbbf6a030e10029",
  "source": "pragma solidity ^0.5.0;\r\n\r\nimport \"./Restaurant.sol\";\r\nimport \"./RestaurantFactory.sol\";\r\nimport \"./Order.sol\";\r\n\r\ncontract Customer {\r\n    \r\n    address public owner;\r\n    address customerFactory;\r\n    uint public id;\r\n    string name;\r\n    string private contactNumber;\r\n    uint totalOrders;\r\n    mapping(uint => address) orders;\r\n\r\n    enum customerState{madeOrder, payed, hasCargo}    \r\n    \r\n    \r\n    constructor(uint _id, string memory _name, string memory _contactNumber, address _owner) public\r\n    {\r\n        id = _id;\r\n        name = _name;\r\n        contactNumber = _contactNumber;\r\n        owner = _owner;\r\n        totalOrders = 0;\r\n        customerFactory = msg.sender;\r\n    }\r\n    \r\n    // this function will call the restaurant make order\r\n    function makeOrder(address restaurant, uint[] calldata items) external payable returns (address orderAddress){\r\n        require(msg.sender == owner, \"you dont own the customer smart contract\");\r\n        //require(RestaurantFactory(restaurantFactoryAddress).restaurantExists(msg.sender));\r\n        uint price = Restaurant(restaurant).getOrderPrice(items);\r\n        require(msg.value >= price,\"sent ether is not enough to cover the order cost and delivery fee\");\r\n        \r\n        address orderAddr = Restaurant(restaurant).makeOrder(items);\r\n        orders[totalOrders] = orderAddr;\r\n\r\n        uint deliveryFee = Order(orderAddr).deliveryFee();\r\n\r\n        // have to do this in a seperate function to avoid sending money through the Restaurant smart contract\r\n        Order(orderAddr).customerPay.value(price + deliveryFee)(); // need to add excess for the cost of delviery\r\n        msg.sender.transfer(msg.value - (price + deliveryFee)); // return excess payment\r\n\r\n        totalOrders++;\r\n        return orders[totalOrders - 1];\r\n    }\r\n\r\n    function signalDelivered(address orderAddress) public {\r\n        require(msg.sender == owner, \"sent from address that isnt the owner\");\r\n        Order(orderAddress).setOrderStatus(uint(customerState.hasCargo));\r\n    }\r\n\r\n    function getContactNumber() public view returns(string memory _contactNumber){\r\n        // require the sender of the message to be either the delivery worker or the the restaurant via the order class, the order status must be currenly active\r\n        return contactNumber;\r\n    }\r\n\r\n    function getOrder(uint _id) external view returns(address orderAdderss){\r\n        require(msg.sender == owner);\r\n        return orders[_id];\r\n    }  \r\n\r\n    function getTotalOrders() external view returns(uint totalOrdersMade){\r\n        require(msg.sender == owner);\r\n        return totalOrders;\r\n    }    \r\n    \r\n    \r\n    \r\n}\r\n",
  "sourcePath": "/home/george/Documents/University/Dissertation/TryAByte/contracts/Customer.sol",
  "compiler": {
    "name": "solc",
    "version": "0.5.0+commit.1d4f565a.Emscripten.clang"
  },
  "schemaVersion": "3.0.2",
  "updatedAt": "2019-03-25T17:03:51.844Z",
  "devdoc": {
    "methods": {}
  },
  "userdoc": {
    "methods": {}
  }
}