{
  "contractName": "Customer",
  "abi": [
    {
      "inputs": [
        {
          "name": "_id",
          "type": "uint256"
        },
        {
          "name": "_name",
          "type": "string"
        },
        {
          "name": "_contactNumber",
          "type": "string"
        }
      ],
      "payable": false,
      "stateMutability": "nonpayable",
      "type": "constructor"
    },
    {
      "constant": true,
      "inputs": [],
      "name": "getContactNumber",
      "outputs": [
        {
          "name": "_contactNumber",
          "type": "string"
        }
      ],
      "payable": false,
      "stateMutability": "view",
      "type": "function"
    }
  ],
  "bytecode": "0x608060405234801561001057600080fd5b506040516103b43803806103b48339810180604052606081101561003357600080fd5b8101908080519060200190929190805164010000000081111561005557600080fd5b8281019050602081018481111561006b57600080fd5b815185600182028301116401000000008211171561008857600080fd5b505092919060200180516401000000008111156100a457600080fd5b828101905060208101848111156100ba57600080fd5b81518560018202830111640100000000821117156100d757600080fd5b50509291905050508260018190555081600290805190602001906100fc92919061015c565b50806003908051906020019061011392919061015c565b50336000806101000a81548173ffffffffffffffffffffffffffffffffffffffff021916908373ffffffffffffffffffffffffffffffffffffffff160217905550505050610201565b828054600181600116156101000203166002900490600052602060002090601f016020900481019282601f1061019d57805160ff19168380011785556101cb565b828001600101855582156101cb579182015b828111156101ca5782518255916020019190600101906101af565b5b5090506101d891906101dc565b5090565b6101fe91905b808211156101fa5760008160009055506001016101e2565b5090565b90565b6101a4806102106000396000f3fe608060405260043610610041576000357c0100000000000000000000000000000000000000000000000000000000900463ffffffff1680638ec3fda514610046575b600080fd5b34801561005257600080fd5b5061005b6100d6565b6040518080602001828103825283818151815260200191508051906020019080838360005b8381101561009b578082015181840152602081019050610080565b50505050905090810190601f1680156100c85780820380516001836020036101000a031916815260200191505b509250505060405180910390f35b606060038054600181600116156101000203166002900480601f01602080910402602001604051908101604052809291908181526020018280546001816001161561010002031660029004801561016e5780601f106101435761010080835404028352916020019161016e565b820191906000526020600020905b81548152906001019060200180831161015157829003601f168201915b505050505090509056fea165627a7a72305820c72511821821d62a6b38fe70a7cc9757ca19f82cd1be82b6f647a9bd7771bf300029",
  "source": "pragma solidity ^0.5.0;\r\n\r\ncontract Customer {\r\n    \r\n    address owner;\r\n    uint id;\r\n    string name;\r\n    string private contactNumber;\r\n    \r\n    \r\n    constructor(uint _id, string memory _name, string memory _contactNumber) public\r\n    {\r\n        id = _id;\r\n        name = _name;\r\n        contactNumber = _contactNumber;\r\n        owner = msg.sender; // this needs changing to the origin of the call\r\n    }\r\n    \r\n    function getContactNumber() public view returns(string memory _contactNumber){\r\n        // require the sender of the message to be either the delivery worker or the the restaurant via the order class, the order status must be currenly active\r\n        return contactNumber;\r\n    }\r\n    \r\n    \r\n    \r\n    \r\n}\r\n",
  "sourcePath": "C:\\Users\\George\\Documents\\$_Documents\\University\\Computer Science\\Year 3\\Dissitation\\tryAByte\\contracts\\Customer.sol",
  "compiler": {
    "name": "solc",
    "version": "0.5.0+commit.1d4f565a.Emscripten.clang"
  },
  "schemaVersion": "3.0.2",
  "updatedAt": "2019-03-04T01:27:50.159Z",
  "devdoc": {
    "methods": {}
  },
  "userdoc": {
    "methods": {}
  }
}