{
  "contractName": "lib",
  "abi": [
    {
      "constant": true,
      "inputs": [
        {
          "name": "_a",
          "type": "string"
        },
        {
          "name": "_b",
          "type": "string"
        },
        {
          "name": "_c",
          "type": "string"
        }
      ],
      "name": "strConcat",
      "outputs": [
        {
          "name": "concatString",
          "type": "string"
        }
      ],
      "payable": false,
      "stateMutability": "pure",
      "type": "function",
      "signature": "0x4112987c"
    },
    {
      "constant": true,
      "inputs": [
        {
          "name": "_a",
          "type": "string"
        },
        {
          "name": "_b",
          "type": "string"
        },
        {
          "name": "_c",
          "type": "string"
        },
        {
          "name": "_d",
          "type": "string"
        }
      ],
      "name": "strConcat",
      "outputs": [
        {
          "name": "concatString",
          "type": "string"
        }
      ],
      "payable": false,
      "stateMutability": "pure",
      "type": "function",
      "signature": "0x45e965cd"
    },
    {
      "constant": true,
      "inputs": [
        {
          "name": "_a",
          "type": "string"
        },
        {
          "name": "_b",
          "type": "string"
        }
      ],
      "name": "strConcat",
      "outputs": [
        {
          "name": "concatString",
          "type": "string"
        }
      ],
      "payable": false,
      "stateMutability": "pure",
      "type": "function",
      "signature": "0xff74927b"
    },
    {
      "constant": true,
      "inputs": [
        {
          "name": "source",
          "type": "string"
        }
      ],
      "name": "stringToBytes32",
      "outputs": [
        {
          "name": "result",
          "type": "bytes32"
        }
      ],
      "payable": false,
      "stateMutability": "pure",
      "type": "function",
      "signature": "0xcfb51928"
    },
    {
      "constant": true,
      "inputs": [
        {
          "name": "x",
          "type": "bytes32"
        }
      ],
      "name": "bytes32ToString",
      "outputs": [
        {
          "name": "result",
          "type": "string"
        }
      ],
      "payable": false,
      "stateMutability": "pure",
      "type": "function",
      "signature": "0x9201de55"
    }
  ],
  "bytecode": "0x610d93610030600b82828239805160001a6073146000811461002057610022565bfe5b5030600052607381538281f3fe7300000000000000000000000000000000000000003014608060405260043610610084576000357c0100000000000000000000000000000000000000000000000000000000900463ffffffff1680634112987c1461008957806345e965cd146102eb5780639201de55146105e4578063cfb519281461068b578063ff74927b1461075a575b600080fd5b6102706004803603606081101561009f57600080fd5b81019080803590602001906401000000008111156100bc57600080fd5b8201836020820111156100ce57600080fd5b803590602001918460018302840111640100000000831117156100f057600080fd5b91908080601f016020809104026020016040519081016040528093929190818152602001838380828437600081840152601f19601f8201169050808301925050505050505091929192908035906020019064010000000081111561015357600080fd5b82018360208201111561016557600080fd5b8035906020019184600183028401116401000000008311171561018757600080fd5b91908080601f016020809104026020016040519081016040528093929190818152602001838380828437600081840152601f19601f820116905080830192505050505050509192919290803590602001906401000000008111156101ea57600080fd5b8201836020820111156101fc57600080fd5b8035906020019184600183028401116401000000008311171561021e57600080fd5b91908080601f016020809104026020016040519081016040528093929190818152602001838380828437600081840152601f19601f820116905080830192505050505050509192919290505050610925565b6040518080602001828103825283818151815260200191508051906020019080838360005b838110156102b0578082015181840152602081019050610295565b50505050905090810190601f1680156102dd5780820380516001836020036101000a031916815260200191505b509250505060405180910390f35b6105696004803603608081101561030157600080fd5b810190808035906020019064010000000081111561031e57600080fd5b82018360208201111561033057600080fd5b8035906020019184600183028401116401000000008311171561035257600080fd5b91908080601f016020809104026020016040519081016040528093929190818152602001838380828437600081840152601f19601f820116905080830192505050505050509192919290803590602001906401000000008111156103b557600080fd5b8201836020820111156103c757600080fd5b803590602001918460018302840111640100000000831117156103e957600080fd5b91908080601f016020809104026020016040519081016040528093929190818152602001838380828437600081840152601f19601f8201169050808301925050505050505091929192908035906020019064010000000081111561044c57600080fd5b82018360208201111561045e57600080fd5b8035906020019184600183028401116401000000008311171561048057600080fd5b91908080601f016020809104026020016040519081016040528093929190818152602001838380828437600081840152601f19601f820116905080830192505050505050509192919290803590602001906401000000008111156104e357600080fd5b8201836020820111156104f557600080fd5b8035906020019184600183028401116401000000008311171561051757600080fd5b91908080601f016020809104026020016040519081016040528093929190818152602001838380828437600081840152601f19601f820116905080830192505050505050509192919290505050610943565b6040518080602001828103825283818151815260200191508051906020019080838360005b838110156105a957808201518184015260208101905061058e565b50505050905090810190601f1680156105d65780820380516001836020036101000a031916815260200191505b509250505060405180910390f35b610610600480360360208110156105fa57600080fd5b810190808035906020019092919050505061096b565b6040518080602001828103825283818151815260200191508051906020019080838360005b83811015610650578082015181840152602081019050610635565b50505050905090810190601f16801561067d5780820380516001836020036101000a031916815260200191505b509250505060405180910390f35b610744600480360360208110156106a157600080fd5b81019080803590602001906401000000008111156106be57600080fd5b8201836020820111156106d057600080fd5b803590602001918460018302840111640100000000831117156106f257600080fd5b91908080601f016020809104026020016040519081016040528093929190818152602001838380828437600081840152601f19601f820116905080830192505050505050509192919290505050610b68565b6040518082815260200191505060405180910390f35b6108aa6004803603604081101561077057600080fd5b810190808035906020019064010000000081111561078d57600080fd5b82018360208201111561079f57600080fd5b803590602001918460018302840111640100000000831117156107c157600080fd5b91908080601f016020809104026020016040519081016040528093929190818152602001838380828437600081840152601f19601f8201169050808301925050505050505091929192908035906020019064010000000081111561082457600080fd5b82018360208201111561083657600080fd5b8035906020019184600183028401116401000000008311171561085857600080fd5b91908080601f016020809104026020016040519081016040528093929190818152602001838380828437600081840152601f19601f820116905080830192505050505050509192919290505050610b94565b6040518080602001828103825283818151815260200191508051906020019080838360005b838110156108ea5780820151818401526020810190506108cf565b50505050905090810190601f1680156109175780820380516001836020036101000a031916815260200191505b509250505060405180910390f35b606061093a6109348585610b94565b83610b94565b90509392505050565b606061096161095b6109558787610b94565b85610b94565b83610b94565b9050949350505050565b60608060206040519080825280601f01601f1916602001820160405280156109a25781602001600182028038833980820191505090505b509050600080905060008090505b6020811015610a715760008160080260020a866001900402600102905060007f010000000000000000000000000000000000000000000000000000000000000002817effffffffffffffffffffffffffffffffffffffffffffffffffffffffffffff1916141515610a6357808484815181101515610a2a57fe5b9060200101907effffffffffffffffffffffffffffffffffffffffffffffffffffffffffffff1916908160001a90535082806001019350505b5080806001019150506109b0565b506060816040519080825280601f01601f191660200182016040528015610aa75781602001600182028038833980820191505090505b50905060008090505b82811015610b5c578381815181101515610ac657fe5b9060200101517f010000000000000000000000000000000000000000000000000000000000000090047f0100000000000000000000000000000000000000000000000000000000000000028282815181101515610b1f57fe5b9060200101907effffffffffffffffffffffffffffffffffffffffffffffffffffffffffffff1916908160001a9053508080600101915050610ab0565b50809350505050919050565b60006060829050600081511415610b86576000600102915050610b8f565b60208301519150505b919050565b6060808390506060839050606081518351016040519080825280601f01601f191660200182016040528015610bd85781602001600182028038833980820191505090505b5090506060819050600080905060008090505b8551811015610c9e578581815181101515610c0257fe5b9060200101517f010000000000000000000000000000000000000000000000000000000000000090047f0100000000000000000000000000000000000000000000000000000000000000028383806001019450815181101515610c6157fe5b9060200101907effffffffffffffffffffffffffffffffffffffffffffffffffffffffffffff1916908160001a9053508080600101915050610beb565b5060008090505b8451811015610d58578481815181101515610cbc57fe5b9060200101517f010000000000000000000000000000000000000000000000000000000000000090047f0100000000000000000000000000000000000000000000000000000000000000028383806001019450815181101515610d1b57fe5b9060200101907effffffffffffffffffffffffffffffffffffffffffffffffffffffffffffff1916908160001a9053508080600101915050610ca5565b5081955050505050509291505056fea165627a7a723058202febae1c2be483c25ac62732ceb63c37e45058ab11665c7840bb4ea0a0275d560029",
  "source": "pragma solidity ^0.5.0;\r\n\r\nlibrary lib{    \r\n  \r\n    function strConcat(string memory _a, string memory _b) public pure returns (string memory concatString){\r\n        bytes memory _ba = bytes(_a);\r\n        bytes memory _bb = bytes(_b);\r\n        string memory ab = new string(_ba.length + _bb.length);\r\n        bytes memory bab = bytes(ab);\r\n        uint k = 0;\r\n        for (uint i = 0; i < _ba.length; i++) bab[k++] = _ba[i];\r\n        for (uint i = 0; i < _bb.length; i++) bab[k++] = _bb[i];\r\n        return string(bab);\r\n    }\r\n    function strConcat(string memory _a, string memory _b, string memory _c) public pure returns (string memory concatString){\r\n        return strConcat(strConcat(_a,_b),_c);\r\n    }  \r\n    function strConcat(string memory _a, string memory _b, string memory _c,string memory _d) public pure returns (string memory concatString){\r\n        return strConcat(strConcat(strConcat(_a,_b),_c),_d);\r\n    }  \r\n    \r\n    function stringToBytes32(string memory source) public pure returns (bytes32 result) {\r\n        bytes memory tempEmptyStringTest = bytes(source);\r\n        if (tempEmptyStringTest.length == 0) {\r\n            return 0x0;\r\n        }\r\n        assembly {\r\n            result := mload(add(source, 32))\r\n        }      \r\n    }\r\n    \r\n    function bytes32ToString(bytes32 x) public pure returns (string memory result) {\r\n        bytes memory bytesString = new bytes(32);\r\n        uint charCount = 0;\r\n        for (uint j = 0; j < 32; j++) {\r\n            byte char = byte(bytes32(uint(x) * 2 ** (8 * j)));\r\n            if (char != 0) {\r\n                bytesString[charCount] = char;\r\n                charCount++;\r\n            }\r\n        }\r\n        bytes memory bytesStringTrimmed = new bytes(charCount);\r\n        for (uint j = 0; j < charCount; j++) {\r\n            bytesStringTrimmed[j] = bytesString[j];\r\n        }\r\n        return string(bytesStringTrimmed);\r\n    }\r\n    \r\n    \r\n    function compareStrings (string memory a, string memory b) internal pure returns (bool){\r\n        if(bytes(a).length != bytes(b).length) {\r\n            return false;\r\n        }\r\n        else{\r\n            return keccak256(bytes(a)) == keccak256(bytes(b));\r\n        }\r\n   }\r\n   \r\n}",
  "sourcePath": "C:\\Users\\George\\Documents\\$_Documents\\University\\Computer Science\\Year 3\\Dissitation\\tryAByte\\contracts\\lib.sol",
  "compiler": {
    "name": "solc",
    "version": "0.5.0+commit.1d4f565a.Emscripten.clang"
  },
  "schemaVersion": "3.0.2",
  "updatedAt": "2019-03-04T02:28:39.260Z",
  "devdoc": {
    "methods": {}
  },
  "userdoc": {
    "methods": {}
  }
}