{
  "contractName": "Menu",
  "abi": [
    {
      "inputs": [
        {
          "internalType": "address",
          "name": "_owner",
          "type": "address"
        }
      ],
      "payable": false,
      "stateMutability": "nonpayable",
      "type": "constructor"
    },
    {
      "anonymous": false,
      "inputs": [
        {
          "indexed": false,
          "internalType": "uint256",
          "name": "itemId",
          "type": "uint256"
        },
        {
          "indexed": false,
          "internalType": "uint256",
          "name": "addAtIndex",
          "type": "uint256"
        },
        {
          "indexed": false,
          "internalType": "bytes32",
          "name": "optionName",
          "type": "bytes32"
        },
        {
          "indexed": false,
          "internalType": "uint256",
          "name": "optionPrice",
          "type": "uint256"
        }
      ],
      "name": "addOptionEvent",
      "type": "event"
    },
    {
      "anonymous": false,
      "inputs": [
        {
          "indexed": false,
          "internalType": "string",
          "name": "message",
          "type": "string"
        }
      ],
      "name": "debug",
      "type": "event"
    },
    {
      "anonymous": false,
      "inputs": [
        {
          "indexed": false,
          "internalType": "uint256",
          "name": "number",
          "type": "uint256"
        }
      ],
      "name": "debuguint",
      "type": "event"
    },
    {
      "constant": true,
      "inputs": [],
      "name": "menu",
      "outputs": [
        {
          "internalType": "uint256",
          "name": "itemTop",
          "type": "uint256"
        },
        {
          "internalType": "uint256",
          "name": "itemHead",
          "type": "uint256"
        },
        {
          "internalType": "uint256",
          "name": "optionsHead",
          "type": "uint256"
        },
        {
          "internalType": "uint256",
          "name": "extraHead",
          "type": "uint256"
        }
      ],
      "payable": false,
      "stateMutability": "view",
      "type": "function"
    },
    {
      "constant": true,
      "inputs": [],
      "name": "owner",
      "outputs": [
        {
          "internalType": "address",
          "name": "",
          "type": "address"
        }
      ],
      "payable": false,
      "stateMutability": "view",
      "type": "function"
    },
    {
      "constant": true,
      "inputs": [
        {
          "internalType": "uint256",
          "name": "_id",
          "type": "uint256"
        }
      ],
      "name": "getExtra",
      "outputs": [
        {
          "internalType": "bytes32",
          "name": "",
          "type": "bytes32"
        },
        {
          "internalType": "uint256",
          "name": "",
          "type": "uint256"
        },
        {
          "internalType": "bool",
          "name": "",
          "type": "bool"
        }
      ],
      "payable": false,
      "stateMutability": "view",
      "type": "function"
    },
    {
      "constant": true,
      "inputs": [
        {
          "internalType": "uint256",
          "name": "_id",
          "type": "uint256"
        }
      ],
      "name": "getOption",
      "outputs": [
        {
          "internalType": "bytes32",
          "name": "",
          "type": "bytes32"
        },
        {
          "internalType": "uint256",
          "name": "",
          "type": "uint256"
        },
        {
          "internalType": "bool",
          "name": "",
          "type": "bool"
        }
      ],
      "payable": false,
      "stateMutability": "view",
      "type": "function"
    },
    {
      "constant": true,
      "inputs": [],
      "name": "getExtraHead",
      "outputs": [
        {
          "internalType": "uint256",
          "name": "",
          "type": "uint256"
        }
      ],
      "payable": false,
      "stateMutability": "view",
      "type": "function"
    },
    {
      "constant": true,
      "inputs": [],
      "name": "getOptionHead",
      "outputs": [
        {
          "internalType": "uint256",
          "name": "",
          "type": "uint256"
        }
      ],
      "payable": false,
      "stateMutability": "view",
      "type": "function"
    },
    {
      "constant": true,
      "inputs": [],
      "name": "length",
      "outputs": [
        {
          "internalType": "uint256",
          "name": "",
          "type": "uint256"
        }
      ],
      "payable": false,
      "stateMutability": "view",
      "type": "function"
    },
    {
      "constant": true,
      "inputs": [],
      "name": "getMenuLength",
      "outputs": [
        {
          "internalType": "uint256",
          "name": "",
          "type": "uint256"
        }
      ],
      "payable": false,
      "stateMutability": "view",
      "type": "function"
    },
    {
      "constant": true,
      "inputs": [
        {
          "internalType": "uint256",
          "name": "_id",
          "type": "uint256"
        }
      ],
      "name": "getEntry",
      "outputs": [
        {
          "internalType": "bytes32",
          "name": "",
          "type": "bytes32"
        },
        {
          "internalType": "bytes32",
          "name": "",
          "type": "bytes32"
        },
        {
          "internalType": "uint256[]",
          "name": "",
          "type": "uint256[]"
        },
        {
          "internalType": "uint256[]",
          "name": "",
          "type": "uint256[]"
        }
      ],
      "payable": false,
      "stateMutability": "view",
      "type": "function"
    },
    {
      "constant": true,
      "inputs": [
        {
          "internalType": "uint256",
          "name": "itemId",
          "type": "uint256"
        },
        {
          "internalType": "uint256",
          "name": "optionId",
          "type": "uint256"
        },
        {
          "internalType": "uint256[]",
          "name": "extraIds",
          "type": "uint256[]"
        }
      ],
      "name": "getOrderItem",
      "outputs": [
        {
          "internalType": "bytes32",
          "name": "",
          "type": "bytes32"
        },
        {
          "internalType": "bytes32",
          "name": "",
          "type": "bytes32"
        },
        {
          "internalType": "bytes32",
          "name": "",
          "type": "bytes32"
        },
        {
          "internalType": "uint256",
          "name": "",
          "type": "uint256"
        },
        {
          "internalType": "bytes32[]",
          "name": "",
          "type": "bytes32[]"
        },
        {
          "internalType": "uint256[]",
          "name": "",
          "type": "uint256[]"
        }
      ],
      "payable": false,
      "stateMutability": "view",
      "type": "function"
    },
    {
      "constant": true,
      "inputs": [
        {
          "internalType": "uint256",
          "name": "_id",
          "type": "uint256"
        }
      ],
      "name": "getEntryIndexingInfo",
      "outputs": [
        {
          "internalType": "uint256",
          "name": "nextitem",
          "type": "uint256"
        }
      ],
      "payable": false,
      "stateMutability": "view",
      "type": "function"
    },
    {
      "constant": true,
      "inputs": [],
      "name": "getItemHead",
      "outputs": [
        {
          "internalType": "uint256",
          "name": "nextitem",
          "type": "uint256"
        }
      ],
      "payable": false,
      "stateMutability": "view",
      "type": "function"
    },
    {
      "constant": false,
      "inputs": [
        {
          "internalType": "uint256[]",
          "name": "integers",
          "type": "uint256[]"
        },
        {
          "internalType": "uint256[]",
          "name": "integersFlags",
          "type": "uint256[]"
        },
        {
          "internalType": "bytes32[]",
          "name": "strings",
          "type": "bytes32[]"
        },
        {
          "internalType": "uint256[]",
          "name": "stringsFlags",
          "type": "uint256[]"
        }
      ],
      "name": "updateMenu",
      "outputs": [
        {
          "internalType": "bool",
          "name": "",
          "type": "bool"
        }
      ],
      "payable": false,
      "stateMutability": "nonpayable",
      "type": "function"
    },
    {
      "constant": false,
      "inputs": [
        {
          "internalType": "uint256[]",
          "name": "addAtIndex",
          "type": "uint256[]"
        },
        {
          "internalType": "bytes32[]",
          "name": "itemNames",
          "type": "bytes32[]"
        },
        {
          "internalType": "bytes32[]",
          "name": "itemDescriptions",
          "type": "bytes32[]"
        }
      ],
      "name": "addMultipleItems",
      "outputs": [],
      "payable": false,
      "stateMutability": "nonpayable",
      "type": "function"
    },
    {
      "constant": false,
      "inputs": [
        {
          "internalType": "uint256[]",
          "name": "itemIds",
          "type": "uint256[]"
        }
      ],
      "name": "removeMultipleItems",
      "outputs": [],
      "payable": false,
      "stateMutability": "nonpayable",
      "type": "function"
    },
    {
      "constant": false,
      "inputs": [
        {
          "internalType": "bytes32[]",
          "name": "_optionNames",
          "type": "bytes32[]"
        },
        {
          "internalType": "uint256[]",
          "name": "_prices",
          "type": "uint256[]"
        }
      ],
      "name": "addOptions",
      "outputs": [],
      "payable": false,
      "stateMutability": "nonpayable",
      "type": "function"
    },
    {
      "constant": false,
      "inputs": [
        {
          "internalType": "uint256[]",
          "name": "optionIds",
          "type": "uint256[]"
        }
      ],
      "name": "setOptionsInactive",
      "outputs": [],
      "payable": false,
      "stateMutability": "nonpayable",
      "type": "function"
    },
    {
      "constant": false,
      "inputs": [
        {
          "internalType": "uint256[]",
          "name": "_itemIds",
          "type": "uint256[]"
        },
        {
          "internalType": "uint256[]",
          "name": "optionIds",
          "type": "uint256[]"
        },
        {
          "internalType": "uint256[]",
          "name": "flags",
          "type": "uint256[]"
        }
      ],
      "name": "assignOptions",
      "outputs": [],
      "payable": false,
      "stateMutability": "nonpayable",
      "type": "function"
    },
    {
      "constant": false,
      "inputs": [
        {
          "internalType": "uint256[]",
          "name": "_itemIds",
          "type": "uint256[]"
        },
        {
          "internalType": "uint256[]",
          "name": "optionIds",
          "type": "uint256[]"
        },
        {
          "internalType": "uint256[]",
          "name": "flags",
          "type": "uint256[]"
        }
      ],
      "name": "unassignOptions",
      "outputs": [],
      "payable": false,
      "stateMutability": "nonpayable",
      "type": "function"
    },
    {
      "constant": false,
      "inputs": [
        {
          "internalType": "bytes32[]",
          "name": "extraNames",
          "type": "bytes32[]"
        },
        {
          "internalType": "uint256[]",
          "name": "extraPrice",
          "type": "uint256[]"
        }
      ],
      "name": "addExtras",
      "outputs": [],
      "payable": false,
      "stateMutability": "nonpayable",
      "type": "function"
    },
    {
      "constant": false,
      "inputs": [
        {
          "internalType": "uint256[]",
          "name": "_ids",
          "type": "uint256[]"
        }
      ],
      "name": "setExtrasInactive",
      "outputs": [],
      "payable": false,
      "stateMutability": "nonpayable",
      "type": "function"
    },
    {
      "constant": false,
      "inputs": [
        {
          "internalType": "uint256[]",
          "name": "_itemIds",
          "type": "uint256[]"
        },
        {
          "internalType": "uint256[]",
          "name": "_extrasIds",
          "type": "uint256[]"
        },
        {
          "internalType": "uint256[]",
          "name": "flags",
          "type": "uint256[]"
        }
      ],
      "name": "assignExtras",
      "outputs": [],
      "payable": false,
      "stateMutability": "nonpayable",
      "type": "function"
    },
    {
      "constant": false,
      "inputs": [
        {
          "internalType": "uint256[]",
          "name": "_itemIds",
          "type": "uint256[]"
        },
        {
          "internalType": "uint256[]",
          "name": "_extrasIds",
          "type": "uint256[]"
        },
        {
          "internalType": "uint256[]",
          "name": "flags",
          "type": "uint256[]"
        }
      ],
      "name": "unassignExtras",
      "outputs": [],
      "payable": false,
      "stateMutability": "nonpayable",
      "type": "function"
    },
    {
      "constant": false,
      "inputs": [
        {
          "internalType": "uint256",
          "name": "index1",
          "type": "uint256"
        },
        {
          "internalType": "uint256",
          "name": "index2",
          "type": "uint256"
        }
      ],
      "name": "swapItems",
      "outputs": [],
      "payable": false,
      "stateMutability": "nonpayable",
      "type": "function"
    },
    {
      "constant": false,
      "inputs": [
        {
          "internalType": "uint256",
          "name": "_id",
          "type": "uint256"
        },
        {
          "internalType": "uint256",
          "name": "index1",
          "type": "uint256"
        },
        {
          "internalType": "uint256",
          "name": "index2",
          "type": "uint256"
        }
      ],
      "name": "swapOptions",
      "outputs": [],
      "payable": false,
      "stateMutability": "nonpayable",
      "type": "function"
    },
    {
      "constant": true,
      "inputs": [
        {
          "internalType": "uint256[]",
          "name": "integers",
          "type": "uint256[]"
        },
        {
          "internalType": "uint256",
          "name": "itemCount",
          "type": "uint256"
        }
      ],
      "name": "getOrderPrice",
      "outputs": [
        {
          "internalType": "uint256",
          "name": "",
          "type": "uint256"
        }
      ],
      "payable": false,
      "stateMutability": "view",
      "type": "function"
    }
  ],
  "bytecode": "0x608060405234801561001057600080fd5b506040516126953803806126958339818101604052602081101561003357600080fd5b5051600080546001600160a01b039092166001600160a01b0319909216919091179055600160038190556004556126268061006f6000396000f3fe608060405234801561001057600080fd5b506004361061018e5760003560e01c80638fb0f14c116100de578063c1c4d10211610097578063e40c8a3211610071578063e40c8a32146110a9578063e4d8a2a61461124e578063e840515414611277578063f0439f711461141c5761018e565b8063c1c4d10214610e5b578063ca497d5c14610e63578063d1005e3914610f045761018e565b80638fb0f14c14610983578063a27b34f214610a24578063a6bd92e314610a2c578063b0e7722b14610b4f578063b21dc38a14610cf4578063bae78d7b14610d975761018e565b806325b5c4f91161014b57806364f2eacd1161012557806364f2eacd146105a55780638374ad34146107e0578063893bb0bf146109425780638da5cb5b1461095f5761018e565b806325b5c4f9146103d95780633b1180bb146104fc5780636287dcc6146105045761018e565b80630545ba29146101935780630b9a02c5146101b8578063125ba977146101e75780631ce5e9a6146101ef5780631e516e051461022c5780631f7b6d32146103d1575b600080fd5b6101b6600480360360408110156101a957600080fd5b508035906020013561144a565b005b6101d5600480360360208110156101ce57600080fd5b503561150f565b60408051918252519081900360200190f35b6101d561159d565b61020c6004803603602081101561020557600080fd5b5035611622565b604080519384526020840192909252151582820152519081900360600190f35b6101b66004803603606081101561024257600080fd5b810190602081018135600160201b81111561025c57600080fd5b82018360208201111561026e57600080fd5b803590602001918460208302840111600160201b8311171561028f57600080fd5b9190808060200260200160405190810160405280939291908181526020018383602002808284376000920191909152509295949360208101935035915050600160201b8111156102de57600080fd5b8201836020820111156102f057600080fd5b803590602001918460208302840111600160201b8311171561031157600080fd5b9190808060200260200160405190810160405280939291908181526020018383602002808284376000920191909152509295949360208101935035915050600160201b81111561036057600080fd5b82018360208201111561037257600080fd5b803590602001918460208302840111600160201b8311171561039357600080fd5b919080806020026020016040519081016040528093929190818152602001838360200280828437600092019190915250929550611647945050505050565b6101d561179f565b6101b6600480360360408110156103ef57600080fd5b810190602081018135600160201b81111561040957600080fd5b82018360208201111561041b57600080fd5b803590602001918460208302840111600160201b8311171561043c57600080fd5b9190808060200260200160405190810160405280939291908181526020018383602002808284376000920191909152509295949360208101935035915050600160201b81111561048b57600080fd5b82018360208201111561049d57600080fd5b803590602001918460208302840111600160201b831117156104be57600080fd5b9190808060200260200160405190810160405280939291908181526020018383602002808284376000920191909152509295506117a5945050505050565b6101d561189a565b6101b66004803603602081101561051a57600080fd5b810190602081018135600160201b81111561053457600080fd5b82018360208201111561054657600080fd5b803590602001918460208302840111600160201b8311171561056757600080fd5b9190808060200260200160405190810160405280939291908181526020018383602002808284376000920191909152509295506118a0945050505050565b6107cc600480360360808110156105bb57600080fd5b810190602081018135600160201b8111156105d557600080fd5b8201836020820111156105e757600080fd5b803590602001918460208302840111600160201b8311171561060857600080fd5b9190808060200260200160405190810160405280939291908181526020018383602002808284376000920191909152509295949360208101935035915050600160201b81111561065757600080fd5b82018360208201111561066957600080fd5b803590602001918460208302840111600160201b8311171561068a57600080fd5b9190808060200260200160405190810160405280939291908181526020018383602002808284376000920191909152509295949360208101935035915050600160201b8111156106d957600080fd5b8201836020820111156106eb57600080fd5b803590602001918460208302840111600160201b8311171561070c57600080fd5b9190808060200260200160405190810160405280939291908181526020018383602002808284376000920191909152509295949360208101935035915050600160201b81111561075b57600080fd5b82018360208201111561076d57600080fd5b803590602001918460208302840111600160201b8311171561078e57600080fd5b919080806020026020016040519081016040528093929190818152602001838360200280828437600092019190915250929550611950945050505050565b604080519115158252519081900360200190f35b61088d600480360360608110156107f657600080fd5b813591602081013591810190606081016040820135600160201b81111561081c57600080fd5b82018360208201111561082e57600080fd5b803590602001918460208302840111600160201b8311171561084f57600080fd5b919080806020026020016040519081016040528093929190818152602001838360200280828437600092019190915250929550611b07945050505050565b604051808781526020018681526020018581526020018481526020018060200180602001838103835285818151815260200191508051906020019060200280838360005b838110156108e95781810151838201526020016108d1565b50505050905001838103825284818151815260200191508051906020019060200280838360005b83811015610928578181015183820152602001610910565b505050509050019850505050505050505060405180910390f35b61020c6004803603602081101561095857600080fd5b5035611d38565b610967611d5d565b604080516001600160a01b039092168252519081900360200190f35b6101b66004803603602081101561099957600080fd5b810190602081018135600160201b8111156109b357600080fd5b8201836020820111156109c557600080fd5b803590602001918460208302840111600160201b831117156109e657600080fd5b919080806020026020016040519081016040528093929190818152602001838360200280828437600092019190915250929550611d6c945050505050565b6101d5611e47565b6101b660048036036040811015610a4257600080fd5b810190602081018135600160201b811115610a5c57600080fd5b820183602082011115610a6e57600080fd5b803590602001918460208302840111600160201b83111715610a8f57600080fd5b9190808060200260200160405190810160405280939291908181526020018383602002808284376000920191909152509295949360208101935035915050600160201b811115610ade57600080fd5b820183602082011115610af057600080fd5b803590602001918460208302840111600160201b83111715610b1157600080fd5b919080806020026020016040519081016040528093929190818152602001838360200280828437600092019190915250929550611e4d945050505050565b6101b660048036036060811015610b6557600080fd5b810190602081018135600160201b811115610b7f57600080fd5b820183602082011115610b9157600080fd5b803590602001918460208302840111600160201b83111715610bb257600080fd5b9190808060200260200160405190810160405280939291908181526020018383602002808284376000920191909152509295949360208101935035915050600160201b811115610c0157600080fd5b820183602082011115610c1357600080fd5b803590602001918460208302840111600160201b83111715610c3457600080fd5b9190808060200260200160405190810160405280939291908181526020018383602002808284376000920191909152509295949360208101935035915050600160201b811115610c8357600080fd5b820183602082011115610c9557600080fd5b803590602001918460208302840111600160201b83111715610cb657600080fd5b919080806020026020016040519081016040528093929190818152602001838360200280828437600092019190915250929550611edc945050505050565b6101d560048036036040811015610d0a57600080fd5b810190602081018135600160201b811115610d2457600080fd5b820183602082011115610d3657600080fd5b803590602001918460208302840111600160201b83111715610d5757600080fd5b9190808060200260200160405190810160405280939291908181526020018383602002808284376000920191909152509295505091359250611f6e915050565b610db460048036036020811015610dad57600080fd5b503561207a565b604051808581526020018481526020018060200180602001838103835285818151815260200191508051906020019060200280838360005b83811015610e04578181015183820152602001610dec565b50505050905001838103825284818151815260200191508051906020019060200280838360005b83811015610e43578181015183820152602001610e2b565b50505050905001965050505050505060405180910390f35b6101d5612241565b6101b660048036036020811015610e7957600080fd5b810190602081018135600160201b811115610e9357600080fd5b820183602082011115610ea557600080fd5b803590602001918460208302840111600160201b83111715610ec657600080fd5b919080806020026020016040519081016040528093929190818152602001838360200280828437600092019190915250929550612295945050505050565b6101b660048036036060811015610f1a57600080fd5b810190602081018135600160201b811115610f3457600080fd5b820183602082011115610f4657600080fd5b803590602001918460208302840111600160201b83111715610f6757600080fd5b9190808060200260200160405190810160405280939291908181526020018383602002808284376000920191909152509295949360208101935035915050600160201b811115610fb657600080fd5b820183602082011115610fc857600080fd5b803590602001918460208302840111600160201b83111715610fe957600080fd5b9190808060200260200160405190810160405280939291908181526020018383602002808284376000920191909152509295949360208101935035915050600160201b81111561103857600080fd5b82018360208201111561104a57600080fd5b803590602001918460208302840111600160201b8311171561106b57600080fd5b91908080602002602001604051908101604052809392919081815260200183836020028082843760009201919091525092955061231a945050505050565b6101b6600480360360608110156110bf57600080fd5b810190602081018135600160201b8111156110d957600080fd5b8201836020820111156110eb57600080fd5b803590602001918460208302840111600160201b8311171561110c57600080fd5b9190808060200260200160405190810160405280939291908181526020018383602002808284376000920191909152509295949360208101935035915050600160201b81111561115b57600080fd5b82018360208201111561116d57600080fd5b803590602001918460208302840111600160201b8311171561118e57600080fd5b9190808060200260200160405190810160405280939291908181526020018383602002808284376000920191909152509295949360208101935035915050600160201b8111156111dd57600080fd5b8201836020820111156111ef57600080fd5b803590602001918460208302840111600160201b8311171561121057600080fd5b9190808060200260200160405190810160405280939291908181526020018383602002808284376000920191909152509295506123a3945050505050565b6101b66004803603606081101561126457600080fd5b5080359060208101359060400135612435565b6101b66004803603606081101561128d57600080fd5b810190602081018135600160201b8111156112a757600080fd5b8201836020820111156112b957600080fd5b803590602001918460208302840111600160201b831117156112da57600080fd5b9190808060200260200160405190810160405280939291908181526020018383602002808284376000920191909152509295949360208101935035915050600160201b81111561132957600080fd5b82018360208201111561133b57600080fd5b803590602001918460208302840111600160201b8311171561135c57600080fd5b9190808060200260200160405190810160405280939291908181526020018383602002808284376000920191909152509295949360208101935035915050600160201b8111156113ab57600080fd5b8201836020820111156113bd57600080fd5b803590602001918460208302840111600160201b831117156113de57600080fd5b9190808060200260200160405190810160405280939291908181526020018383602002808284376000920191909152509295506124e5945050505050565b61142461256e565b604080519485526020850193909352838301919091526060830152519081900360800190f35b6000546001600160a01b031633146114935760405162461bcd60e51b81526004018080602001828103825260228152602001806125d06022913960400191505060405180910390fd5b60408051632f75e6e760e11b8152600160048201526024810184905260448101839052905173__menuHelper____________________________91635eebcdce916064808301926000929190829003018186803b1580156114f357600080fd5b505af4158015611507573d6000803e3d6000fd5b505050505050565b6000600173__menuHelper____________________________6374f811479091846040518363ffffffff1660e01b8152600401808381526020018281526020019250505060206040518083038186803b15801561156b57600080fd5b505af415801561157f573d6000803e3d6000fd5b505050506040513d602081101561159557600080fd5b505192915050565b6000600173__menuHelper____________________________63f36cf61090916040518263ffffffff1660e01b81526004018082815260200191505060206040518083038186803b1580156115f157600080fd5b505af4158015611605573d6000803e3d6000fd5b505050506040513d602081101561161b57600080fd5b5051905090565b600090815260056020526040902080546001820154600290920154909260ff90911690565b6000546001600160a01b0316331461165e57600080fd5b604051631ee24e7760e01b815260016004820181815260806024840190815286516084850152865173__menuHelper____________________________94631ee24e7794938993899389936044810191606482019160a401906020808a01910280838360005b838110156116dc5781810151838201526020016116c4565b50505050905001848103835286818151815260200191508051906020019060200280838360005b8381101561171b578181015183820152602001611703565b50505050905001848103825285818151815260200191508051906020019060200280838360005b8381101561175a578181015183820152602001611742565b5050505090500197505050505050505060006040518083038186803b15801561178257600080fd5b505af4158015611796573d6000803e3d6000fd5b50505050505050565b60015490565b6000546001600160a01b031633146117bc57600080fd5b600173__menuHelper____________________________631144d8cc909184846040518463ffffffff1660e01b8152600401808481526020018060200180602001838103835285818151815260200191508051906020019060200280838360005b8381101561183557818101518382015260200161181d565b50505050905001838103825284818151815260200191508051906020019060200280838360005b8381101561187457818101518382015260200161185c565b505050509050019550505050505060006040518083038186803b1580156114f357600080fd5b60035490565b60408051630733405f60e01b81526001600482018181526024830193845284516044840152845173__menuHelper____________________________94630733405f948793926064909101906020808601910280838360005b838110156119115781810151838201526020016118f9565b50505050905001935050505060006040518083038186803b15801561193557600080fd5b505af4158015611949573d6000803e3d6000fd5b5050505050565b600080546001600160a01b0316331461196857600080fd5b600173__menuHelper____________________________63412362179091878787876040518663ffffffff1660e01b81526004018086815260200180602001806020018060200180602001858103855289818151815260200191508051906020019060200280838360005b838110156119eb5781810151838201526020016119d3565b50505050905001858103845288818151815260200191508051906020019060200280838360005b83811015611a2a578181015183820152602001611a12565b50505050905001858103835287818151815260200191508051906020019060200280838360005b83811015611a69578181015183820152602001611a51565b50505050905001858103825286818151815260200191508051906020019060200280838360005b83811015611aa8578181015183820152602001611a90565b50505050905001995050505050505050505060206040518083038186803b158015611ad257600080fd5b505af4158015611ae6573d6000803e3d6000fd5b505050506040513d6020811015611afc57600080fd5b509095945050505050565b600080600080606080600173__menuHelper____________________________630a652e4390918b8b8b6040518563ffffffff1660e01b81526004018085815260200184815260200183815260200180602001828103825283818151815260200191508051906020019060200280838360005b83811015611b92578181015183820152602001611b7a565b505050509050019550505050505060006040518083038186803b158015611bb857600080fd5b505af4158015611bcc573d6000803e3d6000fd5b505050506040513d6000823e601f3d908101601f1916820160405260c0811015611bf557600080fd5b8151602083015160408085015160608601516080870180519351959794969295919491939282019284600160201b821115611c2f57600080fd5b908301906020820185811115611c4457600080fd5b82518660208202830111600160201b82111715611c6057600080fd5b82525081516020918201928201910280838360005b83811015611c8d578181015183820152602001611c75565b5050505090500160405260200180516040519392919084600160201b821115611cb557600080fd5b908301906020820185811115611cca57600080fd5b82518660208202830111600160201b82111715611ce657600080fd5b82525081516020918201928201910280838360005b83811015611d13578181015183820152602001611cfb565b5050505090500160405250505095509550955095509550955093975093979195509350565b600090815260076020526040902080546001820154600290920154909260ff90911690565b6000546001600160a01b031681565b6000546001600160a01b03163314611d8357600080fd5b60408051631820e07b60e11b81526001600482018181526024830193845284516044840152845173__menuHelper____________________________94633041c0f6948793926064909101906020808601910280838360005b83811015611df4578181015183820152602001611ddc565b50505050905001935050505060206040518083038186803b158015611e1857600080fd5b505af4158015611e2c573d6000803e3d6000fd5b505050506040513d6020811015611e4257600080fd5b505050565b60045490565b6000546001600160a01b03163314611e6457600080fd5b6040516308f5487d60e11b815260016004820181815260606024840190815285516064850152855173__menuHelper____________________________946311ea90fa94938893889391929091604482019160840190602080880191028083836000831561183557818101518382015260200161181d565b6000546001600160a01b03163314611ef357600080fd5b60405163753810c760e01b815260016004820181815260806024840190815286516084850152865173__menuHelper____________________________9463753810c794938993899389936044810191606482019160a401906020808a019102808383600083156116dc5781810151838201526020016116c4565b600080805b8381101561207257600080611fa5878481518110611f8d57fe5b6020026020010151600161257d90919063ffffffff16565b9092509050600181151514611fb957600080fd5b600160040160008888860181518110611fce57fe5b602002602001015181526020019081526020016000206001015484019350600080905060008090505b888860020286018151811061200857fe5b602002602001015181101561206257600160060160008a8a60030285018151811061202f57fe5b60200260200101518152602001908152602001600020600101548601955081806001019250508080600101915050611ff7565b505060019092019150611f739050565b509392505050565b600080606080600173__menuHelper____________________________6336bf00579091876040518363ffffffff1660e01b8152600401808381526020018281526020019250505060006040518083038186803b1580156120da57600080fd5b505af41580156120ee573d6000803e3d6000fd5b505050506040513d6000823e601f3d908101601f19168201604052608081101561211757600080fd5b81516020830151604080850180519151939592948301929184600160201b82111561214157600080fd5b90830190602082018581111561215657600080fd5b82518660208202830111600160201b8211171561217257600080fd5b82525081516020918201928201910280838360005b8381101561219f578181015183820152602001612187565b5050505090500160405260200180516040519392919084600160201b8211156121c757600080fd5b9083019060208201858111156121dc57600080fd5b82518660208202830111600160201b821117156121f857600080fd5b82525081516020918201928201910280838360005b8381101561222557818101518382015260200161220d565b5050505090500160405250505093509350935093509193509193565b6000600173__menuHelper____________________________63cf17773590916040518263ffffffff1660e01b81526004018082815260200191505060206040518083038186803b1580156115f157600080fd5b6000546001600160a01b031633146122ac57600080fd5b6040805163b49a2e4960e01b81526001600482018181526024830193845284516044840152845173__menuHelper____________________________9463b49a2e499487939260649091019060208086019102808383600083156119115781810151838201526020016118f9565b825181511461232857600080fd5b6040516389ac324360e01b815260016004820181815260806024840190815286516084850152865173__menuHelper____________________________946389ac324394938993899389936044810191606482019160a401906020808a019102808383600083156116dc5781810151838201526020016116c4565b6000546001600160a01b031633146123ba57600080fd5b604051636f627d2360e11b815260016004820181815260806024840190815286516084850152865173__menuHelper____________________________9463dec4fa4694938993899389936044810191606482019160a401906020808a019102808383600083156116dc5781810151838201526020016116c4565b6000546001600160a01b0316331461247e5760405162461bcd60e51b81526004018080602001828103825260228152602001806125d06022913960400191505060405180910390fd5b60408051632f0ebdbf60e11b815260016004820152602481018590526044810184905260648101839052905173__menuHelper____________________________91635e1d7b7e916084808301926000929190829003018186803b15801561178257600080fd5b82518151146124f357600080fd5b6040516301617f1560e61b815260016004820181815260806024840190815286516084850152865173__menuHelper____________________________9463585fc54094938993899389936044810191606482019160a401906020808a019102808383600083156116dc5781810151838201526020016116c4565b60015460025460035460045484565b60018201546000908190815b848110156125c05760009182526005860160205260409091205490816125b85750600092508291506125c89050565b600101612589565b509150600190505b925092905056fe796f7520617265206e6f7420746865206f776e6572206f662074686973206d656e75a265627a7a72315820aa341e9815a2a1d770b7d68bfc25499ba837e9893d86b0972539ab82f945464364736f6c634300050c0032",
  "source": "pragma solidity ^0.5.0;\n\nimport \"./menuHelper.sol\";\nimport \"./uintArrayExtension.sol\";\nimport \"./bytes32ArrayExtension.sol\";\n\ncontract Menu {\n\n  using menuHelper for menuHelper.menuStruct;\n  using uintArrayExtension for uint[];\n  using bytes32ArrayExtension for bytes32[];\n\n  //event AddEntry(bytes32 head,uint number,bytes32 name,bytes32 next);\n  event addOptionEvent(uint itemId, uint addAtIndex, bytes32 optionName, uint optionPrice);\n  event debug(string message);\n  event debuguint(uint number);\n\n  address public owner;\n  \n  menuHelper.menuStruct public menu;\n\n  constructor(address _owner) public{\n    owner = _owner;\n    menu.optionsHead = 1;\n    menu.extraHead = 1;\n  }\n\n  function getExtra(uint _id) public view returns (bytes32, uint, bool){\n    return (menu.extras[_id].extraName,menu.extras[_id].extraPrice,menu.extras[_id].active);\n  }\n\n  function getOption(uint _id) public view returns (bytes32, uint, bool){\n    return (menu.options[_id].optionName,menu.options[_id].optionPrice,menu.options[_id].active);\n  }\n\n  function getExtraHead() public view returns (uint){\n    return menu.extraHead;\n  }\n\n  function getOptionHead() public view returns (uint){\n    return menu.optionsHead;\n  }\n\n  function length() public view returns (uint){\n    return menu.itemTop;\n  }\n\n  function getMenuLength() public view returns (uint){\n    return menu.length();\n  }\n\n  //needed for external contract access to struct\n  function getEntry(uint _id) public view returns (bytes32,bytes32,uint[] memory, uint[] memory){\n    return menu.getEntry(_id);\n  }\n\n  //needed for external contract access to struct\n  function getOrderItem(uint itemId, uint optionId, uint[] memory extraIds) public view returns (bytes32, bytes32, bytes32, uint, bytes32[] memory, uint[] memory){\n    return menu.getOrderItem(itemId,optionId,extraIds);\n  }\n\n  //needed for external contract access to struct\n  function getEntryIndexingInfo(uint _id) public view returns (uint nextitem){\n    return menu.getEntryIndexingInfo(_id);\n  }\n\n  function getItemHead() public view returns (uint nextitem){\n    return menu.getItemHead();\n  }\n\n// =============================== unpack function to allow menu updates with one call ===============================================\n\n\n  function updateMenu(uint[] memory integers, uint[] memory integersFlags, bytes32[] memory strings, uint[] memory stringsFlags) public returns (bool){\n    require(msg.sender == owner);\n    menu.updateMenu(integers, integersFlags, strings, stringsFlags);\n  }\n\n// =============================== END unpack function to allow menu updates with one call ===============================================\n\n// =============================== menu.ITEMS ===============================================\n\n  function addMultipleItems(uint[] memory addAtIndex, bytes32[] memory itemNames, bytes32[] memory itemDescriptions) public {\n    require(msg.sender == owner);\n    menu.addMultipleItems(addAtIndex, itemNames, itemDescriptions);\n  }\n\n  function removeMultipleItems(uint[] memory itemIds) public {\n    require(msg.sender == owner);\n    menu.removeItems(itemIds);\n  }\n\n// =============================== END menu.ITEMS ===============================================\n\n// =============================== menu.OPTIONS ===============================================\n\n  function addOptions(bytes32[] memory _optionNames, uint[] memory _prices) public {\n    require(msg.sender == owner);\n    menu.addOptions(_optionNames, _prices);\n  }\n\n\n  function setOptionsInactive(uint[] memory optionIds) public {\n    menu.setOptionsInactive(optionIds);\n  }\n\n  function assignOptions(uint[] memory _itemIds, uint[] memory optionIds, uint[] memory flags) public {\n    require(msg.sender == owner);\n    menu.assignOptions(_itemIds, optionIds, flags);\n  }\n\n  function unassignOptions(uint[] memory _itemIds, uint[] memory optionIds, uint[] memory flags) public {\n    require(flags.length == _itemIds.length);\n    menu.unassignOptions(_itemIds, optionIds, flags);\n  }\n\n// =============================== END menu.OPTIONS ===============================================\n\n// =============================== menu.EXTRAS ===============================================\n\n  function addExtras(bytes32[] memory extraNames, uint[] memory extraPrice) public {\n    require(msg.sender == owner);\n    menu.addExtras(extraNames, extraPrice);\n  }\n\n  function setExtrasInactive(uint[] memory _ids) public {\n    require(msg.sender == owner);\n    menu.setExtrasInactive(_ids);\n  }\n\n  function assignExtras(uint[] memory _itemIds, uint[] memory _extrasIds, uint[] memory flags) public {\n    require(msg.sender == owner);\n    menu.assignExtras(_itemIds, _extrasIds, flags);\n  }\n\n  function unassignExtras(uint[] memory _itemIds, uint[] memory _extrasIds, uint[] memory flags) public {\n    require(flags.length == _itemIds.length);\n    menu.unassignExtras(_itemIds, _extrasIds, flags);\n  }\n\n// =============================== END menu.EXTRAS ===============================================\n\n// =============================== changing order ===============================================\n  // needs doing and implementing\n\n  // function reorderItems() public {\n\n  // }\n\n  // function reorderOptions() public {\n\n  // }\n\n  function swapItems(uint index1, uint index2) public {\n    require(msg.sender == owner, \"you are not the owner of this menu\");\n    menu.swapItems(index1, index2);\n  }\n\n  function swapOptions(uint _id, uint index1, uint index2) public {\n    require(msg.sender == owner, \"you are not the owner of this menu\");\n    menu.swapOptions(_id, index1, index2);\n  }\n\n// =============================== End Swapping Order ===============================================\n\n// =============================== Other ===============================================\n\n  //integers is uint[] calldata itemIds, uint[] calldata optionIds, uint[] calldata extraFlags, uint[] calldata extraIds\n  function getOrderPrice(uint[] memory integers, uint itemCount) public view returns (uint){\n      uint price = 0;\n      for(uint i = 0; i < itemCount; i++){\n\n        // get item/option price\n        (uint index, bool found) = menu.getItemMappingIndex(integers[i]);\n        require(found == true);\n\n        price += menu.options[integers[i+itemCount]].optionPrice;\n\n        // get menu.extras total\n        uint extrasIdsIndex = 0;\n        for(uint j = 0; j < integers[i+itemCount*2]; j++){\n          price += menu.extras[integers[extrasIdsIndex+itemCount*3]].extraPrice;\n          extrasIdsIndex ++;\n        }\n      }\n      return price;\n  }\n\n}",
  "sourcePath": "/home/george/Documents/WorkSpace/TryAByte/contracts/Menu.sol",
  "compiler": {
    "name": "solc",
    "version": "0.5.12+commit.7709ece9.Emscripten.clang"
  },
  "schemaVersion": "3.0.19",
  "updatedAt": "2020-02-01T11:38:26.081Z",
  "networkType": "ethereum",
  "devdoc": {
    "methods": {}
  },
  "userdoc": {
    "methods": {}
  }
}