{
  "contractName": "Menu",
  "abi": [
    {
      "constant": true,
      "inputs": [],
      "name": "length",
      "outputs": [
        {
          "name": "",
          "type": "uint256"
        }
      ],
      "payable": false,
      "stateMutability": "view",
      "type": "function"
    },
    {
      "constant": true,
      "inputs": [
        {
          "name": "",
          "type": "uint256"
        }
      ],
      "name": "options",
      "outputs": [
        {
          "name": "nextOption",
          "type": "uint256"
        },
        {
          "name": "optionName",
          "type": "bytes32"
        },
        {
          "name": "optionPrice",
          "type": "uint256"
        }
      ],
      "payable": false,
      "stateMutability": "view",
      "type": "function"
    },
    {
      "constant": true,
      "inputs": [],
      "name": "optionsHead",
      "outputs": [
        {
          "name": "",
          "type": "uint256"
        }
      ],
      "payable": false,
      "stateMutability": "view",
      "type": "function"
    },
    {
      "constant": true,
      "inputs": [],
      "name": "itemHead",
      "outputs": [
        {
          "name": "",
          "type": "uint256"
        }
      ],
      "payable": false,
      "stateMutability": "view",
      "type": "function"
    },
    {
      "constant": true,
      "inputs": [],
      "name": "owner",
      "outputs": [
        {
          "name": "",
          "type": "address"
        }
      ],
      "payable": false,
      "stateMutability": "view",
      "type": "function"
    },
    {
      "constant": true,
      "inputs": [
        {
          "name": "",
          "type": "uint256"
        }
      ],
      "name": "items",
      "outputs": [
        {
          "name": "nextItem",
          "type": "uint256"
        },
        {
          "name": "itemName",
          "type": "bytes32"
        },
        {
          "name": "description",
          "type": "bytes32"
        },
        {
          "name": "optionsHead",
          "type": "uint256"
        }
      ],
      "payable": false,
      "stateMutability": "view",
      "type": "function"
    },
    {
      "inputs": [
        {
          "name": "_owner",
          "type": "address"
        }
      ],
      "payable": false,
      "stateMutability": "nonpayable",
      "type": "constructor"
    },
    {
      "anonymous": false,
      "inputs": [
        {
          "indexed": false,
          "name": "itemId",
          "type": "uint256"
        },
        {
          "indexed": false,
          "name": "addAtIndex",
          "type": "uint256"
        },
        {
          "indexed": false,
          "name": "optionName",
          "type": "bytes32"
        },
        {
          "indexed": false,
          "name": "optionPrice",
          "type": "uint256"
        }
      ],
      "name": "addOptionEvent",
      "type": "event"
    },
    {
      "anonymous": false,
      "inputs": [
        {
          "indexed": false,
          "name": "message",
          "type": "string"
        }
      ],
      "name": "debug",
      "type": "event"
    },
    {
      "anonymous": false,
      "inputs": [
        {
          "indexed": false,
          "name": "number",
          "type": "uint256"
        }
      ],
      "name": "debuguint",
      "type": "event"
    },
    {
      "constant": true,
      "inputs": [],
      "name": "getMenuLength",
      "outputs": [
        {
          "name": "",
          "type": "uint256"
        }
      ],
      "payable": false,
      "stateMutability": "view",
      "type": "function"
    },
    {
      "constant": true,
      "inputs": [
        {
          "name": "_id",
          "type": "uint256"
        }
      ],
      "name": "getEntry",
      "outputs": [
        {
          "name": "",
          "type": "bytes32"
        },
        {
          "name": "",
          "type": "bytes32"
        },
        {
          "name": "",
          "type": "bytes32[]"
        },
        {
          "name": "",
          "type": "uint256[]"
        }
      ],
      "payable": false,
      "stateMutability": "view",
      "type": "function"
    },
    {
      "constant": false,
      "inputs": [
        {
          "name": "addAtIndex",
          "type": "uint256"
        },
        {
          "name": "_itemName",
          "type": "bytes32"
        },
        {
          "name": "_itemDescription",
          "type": "bytes32"
        },
        {
          "name": "_optionNames",
          "type": "bytes32[]"
        },
        {
          "name": "_optionPrices",
          "type": "uint256[]"
        }
      ],
      "name": "addEntry",
      "outputs": [
        {
          "name": "",
          "type": "bool"
        }
      ],
      "payable": false,
      "stateMutability": "nonpayable",
      "type": "function"
    },
    {
      "constant": false,
      "inputs": [
        {
          "name": "itemId",
          "type": "uint256"
        }
      ],
      "name": "removeItem",
      "outputs": [
        {
          "name": "",
          "type": "bool"
        }
      ],
      "payable": false,
      "stateMutability": "nonpayable",
      "type": "function"
    },
    {
      "constant": false,
      "inputs": [
        {
          "name": "itemId",
          "type": "uint256"
        },
        {
          "name": "addAtIndex",
          "type": "uint256"
        },
        {
          "name": "_optionName",
          "type": "bytes32"
        },
        {
          "name": "_optionPrice",
          "type": "uint256"
        }
      ],
      "name": "addOption",
      "outputs": [
        {
          "name": "",
          "type": "bool"
        }
      ],
      "payable": false,
      "stateMutability": "nonpayable",
      "type": "function"
    },
    {
      "constant": false,
      "inputs": [
        {
          "name": "itemId",
          "type": "uint256"
        },
        {
          "name": "optionId",
          "type": "uint256"
        }
      ],
      "name": "removeOption",
      "outputs": [
        {
          "name": "",
          "type": "bool"
        }
      ],
      "payable": false,
      "stateMutability": "nonpayable",
      "type": "function"
    },
    {
      "constant": false,
      "inputs": [
        {
          "name": "index1",
          "type": "uint256"
        },
        {
          "name": "index2",
          "type": "uint256"
        }
      ],
      "name": "swapItems",
      "outputs": [],
      "payable": false,
      "stateMutability": "nonpayable",
      "type": "function"
    },
    {
      "constant": false,
      "inputs": [
        {
          "name": "_id",
          "type": "uint256"
        },
        {
          "name": "index1",
          "type": "uint256"
        },
        {
          "name": "index2",
          "type": "uint256"
        }
      ],
      "name": "swapOptions",
      "outputs": [],
      "payable": false,
      "stateMutability": "nonpayable",
      "type": "function"
    },
    {
      "constant": false,
      "inputs": [
        {
          "name": "addAtIndex",
          "type": "uint256[]"
        },
        {
          "name": "itemNames",
          "type": "bytes32[]"
        },
        {
          "name": "itemDescriptions",
          "type": "bytes32[]"
        },
        {
          "name": "_optionNames",
          "type": "bytes32[]"
        },
        {
          "name": "_prices",
          "type": "uint256[]"
        },
        {
          "name": "optionFlags",
          "type": "uint256[]"
        }
      ],
      "name": "addMultipleItems",
      "outputs": [],
      "payable": false,
      "stateMutability": "nonpayable",
      "type": "function"
    },
    {
      "constant": false,
      "inputs": [
        {
          "name": "itemIds",
          "type": "uint256[]"
        },
        {
          "name": "addAtIndexs",
          "type": "uint256[]"
        },
        {
          "name": "_optionNames",
          "type": "bytes32[]"
        },
        {
          "name": "_prices",
          "type": "uint256[]"
        }
      ],
      "name": "addMultipleOptions",
      "outputs": [],
      "payable": false,
      "stateMutability": "nonpayable",
      "type": "function"
    },
    {
      "constant": false,
      "inputs": [
        {
          "name": "itemIds",
          "type": "uint256[]"
        }
      ],
      "name": "removeMultipleItems",
      "outputs": [],
      "payable": false,
      "stateMutability": "nonpayable",
      "type": "function"
    },
    {
      "constant": false,
      "inputs": [
        {
          "name": "itemIds",
          "type": "uint256[]"
        },
        {
          "name": "optionIds",
          "type": "uint256[]"
        },
        {
          "name": "flags",
          "type": "uint256[]"
        }
      ],
      "name": "removeMultipleOptions",
      "outputs": [],
      "payable": false,
      "stateMutability": "nonpayable",
      "type": "function"
    },
    {
      "constant": false,
      "inputs": [],
      "name": "reorderItems",
      "outputs": [],
      "payable": false,
      "stateMutability": "nonpayable",
      "type": "function"
    },
    {
      "constant": false,
      "inputs": [],
      "name": "reorderOptions",
      "outputs": [],
      "payable": false,
      "stateMutability": "nonpayable",
      "type": "function"
    }
  ],
  "bytecode": "0x608060405260006001556000600255600060035534801561001f57600080fd5b506040516020806123f78339810180604052602081101561003f57600080fd5b505160008054600160a060020a03909216600160a060020a0319909216919091179055612386806100716000396000f3fe6080604052600436106101115763ffffffff7c01000000000000000000000000000000000000000000000000000000006000350416630545ba298114610116578063125ba977146101485780631f7b6d321461016f578063206dd9c61461018457806335484952146104c8578063409e22051461051857806348850443146105605780635b4b8792146105755780637087ab331461058a578063713291711461059f57806379b0542d146105c957806380fdeff6146108055780638da5cb5b1461094c5780638fb0f14c1461097d578063ab90dae814610a2d578063bae78d7b14610a5d578063bfb231d214610b2e578063c98baa3214610b7e578063d54307ca1461058a578063e4d8a2a614610d36575b600080fd5b34801561012257600080fd5b506101466004803603604081101561013957600080fd5b5080359060200135610d6c565b005b34801561015457600080fd5b5061015d610f1d565b60408051918252519081900360200190f35b34801561017b57600080fd5b5061015d610f4a565b34801561019057600080fd5b50610146600480360360c08110156101a757600080fd5b8101906020810181356401000000008111156101c257600080fd5b8201836020820111156101d457600080fd5b803590602001918460208302840111640100000000831117156101f657600080fd5b919080806020026020016040519081016040528093929190818152602001838360200280828437600092019190915250929594936020810193503591505064010000000081111561024657600080fd5b82018360208201111561025857600080fd5b8035906020019184602083028401116401000000008311171561027a57600080fd5b91908080602002602001604051908101604052809392919081815260200183836020028082843760009201919091525092959493602081019350359150506401000000008111156102ca57600080fd5b8201836020820111156102dc57600080fd5b803590602001918460208302840111640100000000831117156102fe57600080fd5b919080806020026020016040519081016040528093929190818152602001838360200280828437600092019190915250929594936020810193503591505064010000000081111561034e57600080fd5b82018360208201111561036057600080fd5b8035906020019184602083028401116401000000008311171561038257600080fd5b91908080602002602001604051908101604052809392919081815260200183836020028082843760009201919091525092959493602081019350359150506401000000008111156103d257600080fd5b8201836020820111156103e457600080fd5b8035906020019184602083028401116401000000008311171561040657600080fd5b919080806020026020016040519081016040528093929190818152602001838360200280828437600092019190915250929594936020810193503591505064010000000081111561045657600080fd5b82018360208201111561046857600080fd5b8035906020019184602083028401116401000000008311171561048a57600080fd5b919080806020026020016040519081016040528093929190818152602001838360200280828437600092019190915250929550610f50945050505050565b3480156104d457600080fd5b50610504600480360360808110156104eb57600080fd5b5080359060208101359060408101359060600135611414565b604080519115158252519081900360200190f35b34801561052457600080fd5b506105426004803603602081101561053b57600080fd5b50356115c3565b60408051938452602084019290925282820152519081900360600190f35b34801561056c57600080fd5b5061015d6115e4565b34801561058157600080fd5b5061015d6115ea565b34801561059657600080fd5b506101466115f0565b3480156105ab57600080fd5b50610504600480360360208110156105c257600080fd5b50356115f2565b3480156105d557600080fd5b50610146600480360360808110156105ec57600080fd5b81019060208101813564010000000081111561060757600080fd5b82018360208201111561061957600080fd5b8035906020019184602083028401116401000000008311171561063b57600080fd5b919080806020026020016040519081016040528093929190818152602001838360200280828437600092019190915250929594936020810193503591505064010000000081111561068b57600080fd5b82018360208201111561069d57600080fd5b803590602001918460208302840111640100000000831117156106bf57600080fd5b919080806020026020016040519081016040528093929190818152602001838360200280828437600092019190915250929594936020810193503591505064010000000081111561070f57600080fd5b82018360208201111561072157600080fd5b8035906020019184602083028401116401000000008311171561074357600080fd5b919080806020026020016040519081016040528093929190818152602001838360200280828437600092019190915250929594936020810193503591505064010000000081111561079357600080fd5b8201836020820111156107a557600080fd5b803590602001918460208302840111640100000000831117156107c757600080fd5b9190808060200260200160405190810160405280939291908181526020018383602002808284376000920191909152509295506116de945050505050565b34801561081157600080fd5b50610504600480360360a081101561082857600080fd5b8135916020810135916040820135919081019060808101606082013564010000000081111561085657600080fd5b82018360208201111561086857600080fd5b8035906020019184602083028401116401000000008311171561088a57600080fd5b91908080602002602001604051908101604052809392919081815260200183836020028082843760009201919091525092959493602081019350359150506401000000008111156108da57600080fd5b8201836020820111156108ec57600080fd5b8035906020019184602083028401116401000000008311171561090e57600080fd5b919080806020026020016040519081016040528093929190818152602001838360200280828437600092019190915250929550611941945050505050565b34801561095857600080fd5b50610961611c59565b60408051600160a060020a039092168252519081900360200190f35b34801561098957600080fd5b50610146600480360360208110156109a057600080fd5b8101906020810181356401000000008111156109bb57600080fd5b8201836020820111156109cd57600080fd5b803590602001918460208302840111640100000000831117156109ef57600080fd5b919080806020026020016040519081016040528093929190818152602001838360200280828437600092019190915250929550611c68945050505050565b348015610a3957600080fd5b5061050460048036036040811015610a5057600080fd5b5080359060200135611d5b565b348015610a6957600080fd5b50610a8760048036036020811015610a8057600080fd5b5035611e9b565b604051808581526020018481526020018060200180602001838103835285818151815260200191508051906020019060200280838360005b83811015610ad7578181015183820152602001610abf565b50505050905001838103825284818151815260200191508051906020019060200280838360005b83811015610b16578181015183820152602001610afe565b50505050905001965050505050505060405180910390f35b348015610b3a57600080fd5b50610b5860048036036020811015610b5157600080fd5b5035612038565b604080519485526020850193909352838301919091526060830152519081900360800190f35b348015610b8a57600080fd5b5061014660048036036060811015610ba157600080fd5b810190602081018135640100000000811115610bbc57600080fd5b820183602082011115610bce57600080fd5b80359060200191846020830284011164010000000083111715610bf057600080fd5b9190808060200260200160405190810160405280939291908181526020018383602002808284376000920191909152509295949360208101935035915050640100000000811115610c4057600080fd5b820183602082011115610c5257600080fd5b80359060200191846020830284011164010000000083111715610c7457600080fd5b9190808060200260200160405190810160405280939291908181526020018383602002808284376000920191909152509295949360208101935035915050640100000000811115610cc457600080fd5b820183602082011115610cd657600080fd5b80359060200191846020830284011164010000000083111715610cf857600080fd5b91908080602002602001604051908101604052809392919081815260200183836020028082843760009201919091525092955061205f945050505050565b348015610d4257600080fd5b5061014660048036036060811015610d5957600080fd5b50803590602081013590604001356120fe565b600054600160a060020a03163314610dca576040805160e560020a62461bcd028152602060048201526022602482015260008051602061233b833981519152604482015260f060020a616e7502606482015290519081900360840190fd5b808210610e46576040805160e560020a62461bcd028152602060048201526024808201527f696e6465782031206d75737420626520736d616c6c6572207468616e20696e6460448201527f6578203200000000000000000000000000000000000000000000000000000000606482015290519081900360840190fd5b600254600090819081908190815b868111610eaa5787811415610e67578195505b60018803811415610e76578193505b86811415610e82578194505b60018703811415610e91578192505b6000918252600560205260409091205490600101610e54565b506000871515610ed55750600280546000848152600560205260409020805490925590819055610ef8565b506000838152600560205260408082208054858452919092208054909255908190555b5050506000928352506005602052604080832080549284529220805490925590555050565b600254600090815b8115610f44576000918252600560205260409091205490600101610f25565b91505090565b60015481565b600054600160a060020a03163314610fb2576040805160e560020a62461bcd02815260206004820152601560248201527f796f7520617265206e6f7420746865206f776e65720000000000000000000000604482015290519081900360640190fd5b8451865114611031576040805160e560020a62461bcd02815260206004820152603660248201527f746865206e756d626572206f66206974656d20696e646578657320616e64206960448201527f74656d206e616d657320646f206e6f74206d6174636800000000000000000000606482015290519081900360840190fd5b83518551146110b0576040805160e560020a62461bcd02815260206004820152603660248201527f746865206e756d626572206f66206465736372697074696f6e7320616e64206960448201527f74656d206e616d657320646f206e6f74206d6174636800000000000000000000606482015290519081900360840190fd5b815183511461112f576040805160e560020a62461bcd02815260206004820152602d60248201527f746865206e756d626572206f66206f7074696f6e7320616e642070726963657360448201527f20646f206e6f74206d6174636800000000000000000000000000000000000000606482015290519081900360840190fd5b80518551146111ae576040805160e560020a62461bcd02815260206004820152603660248201527f746865206e756d626572206f66206974656d206e616d657320616e64206f707460448201527f696f6e20666c61677320646f206e6f74206d6174636800000000000000000000606482015290519081900360840190fd5b6000805b82518110156111e05782818151811015156111c957fe5b6020908102909101015191909101906001016111b2565b5083518114611285576040805160e560020a62461bcd02815260206004820152604260248201527f746865206e756d626572206f66206f7074696f6e7320616e642074686520737560448201527f6d206f6620746865206f7074696f6e20666c61677320646f206e6f74206d617460648201527f6368000000000000000000000000000000000000000000000000000000000000608482015290519081900360a40190fd5b6000606080825b85518110156114075785818151811015156112a357fe5b906020019060200201516040519080825280602002602001820160405280156112d6578160200160208202803883390190505b50925085818151811015156112e757fe5b9060200190602002015160405190808252806020026020018201604052801561131a578160200160208202803883390190505b50915060005b868281518110151561132e57fe5b906020019060200201518110156113ab57888581518110151561134d57fe5b90602001906020020151848281518110151561136557fe5b60209081029091010152875188908690811061137d57fe5b90602001906020020151838281518110151561139557fe5b6020908102909101015260019485019401611320565b506113fe8b828151811015156113bd57fe5b906020019060200201518b838151811015156113d557fe5b906020019060200201518b848151811015156113ed57fe5b906020019060200201518686611941565b5060010161128c565b5050505050505050505050565b60008054600160a060020a03163314611473576040805160e560020a62461bcd028152602060048201526022602482015260008051602061233b833981519152604482015260f060020a616e7502606482015290519081900360840190fd5b61147b6122f3565b60025460005b878110156114a2576000918252600560205260409091205490600101611481565b5085151561151357604080516060810182526000838152600560208181528483206003908101805486528286018c81528688018c81528354600190810180865588526004865298872088518155915198820198909855965160029097019690965554928690525290915591506115b9565b600081815260056020526040812060030154905b876001018110156115585760008281526004602052604090205480151561154e5750611558565b9150600101611527565b5060408051606081018252600083815260046020818152848320805485528185018c81528587018c81526003805460019081018083558852959094529685208651815590519381019390935594516002909201919091555493905291905591505b5050949350505050565b60046020526000908152604090208054600182015460029092015490919083565b60035481565b60025481565b565b60008054600160a060020a03163314611651576040805160e560020a62461bcd028152602060048201526022602482015260008051602061233b833981519152604482015260f060020a616e7502606482015290519081900360840190fd5b81151561168e57506002805460009081526005602052604081208054828255600180830184905582850184905560039092019290925591556116d9565b60025460005b600184038110156116b8576000918252600560205260409091205490600101611694565b50600081815260056020526040808220805483529082205492909152555060015b919050565b600054600160a060020a03163314611740576040805160e560020a62461bcd02815260206004820152601560248201527f796f7520617265206e6f7420746865206f776e65720000000000000000000000604482015290519081900360640190fd5b82518451146117bf576040805160e560020a62461bcd02815260206004820152603f60248201527f746865206e756d626572206f66206974656d49647320616e6420696e6465786560448201527f7320746f20696e7365727420617420617265206e6f74207468652073616d6500606482015290519081900360840190fd5b805182511461183e576040805160e560020a62461bcd02815260206004820152603960248201527f746865206e756d626572206f66206f7074696f6e7320646f6573206e6f74206d60448201527f6174636820746865206e756d626572206f662070726963657300000000000000606482015290519081900360840190fd5b83518251146118bd576040805160e560020a62461bcd02815260206004820152603e60248201527f746865206e756d626572206f66206974656d49447320646f6573206e6f74206d60448201527f6174636820746865206e756d626572206f66206f7074696f6e4e616d65730000606482015290519081900360840190fd5b60005b845181101561193a5761193185828151811015156118da57fe5b9060200190602002015185838151811015156118f257fe5b90602001906020020151858481518110151561190a57fe5b90602001906020020151858581518110151561192257fe5b90602001906020020151611414565b506001016118c0565b5050505050565b60008054600160a060020a031633146119a0576040805160e560020a62461bcd028152602060048201526022602482015260008051602061233b833981519152604482015260f060020a616e7502606482015290519081900360840190fd5b8151835114611a1f576040805160e560020a62461bcd02815260206004820152603960248201527f746865206e756d626572206f66206f7074696f6e7320646f6573206e6f74206d60448201527f6174636820746865206e756d626572206f662070726963657300000000000000606482015290519081900360840190fd5b611a276122f3565b60606040519081016040528060008152602001856000815181101515611a4957fe5b906020019060200201518152602001846000815181101515611a6757fe5b602090810290910181015190915260038054600190810191829055600091825260048352604091829020845181559284015183820155908301516002909201919091559091505b8451811015611b425760606040519081016040528060035481526020018683815181101515611ad957fe5b9060200190602002015181526020018583815181101515611af657fe5b6020908102909101810151909152600380546001908101918290556000918252600483526040918290208451815592840151838201559083015160029092019190915590925001611aae565b50611b4b612313565b871515611bb257506040805160808101825260028054825260208083018a81528385018a8152600380546060870190815260018054810180825560009081526005909652979094208651815592518388015590518285015591519101559154909155611c4e565b60025460015b89811015611be657600082815260056020526040902054801515611bdc5750611be6565b9150600101611bb8565b5060408051608081018252600083815260056020818152848320805485528185018e81528587018e8152600380546060890190815260018054810180825589529690955297862087518155915182860155516002820155915191909501555493905291905590505b505095945050505050565b600054600160a060020a031681565b80516402540be3ff90600019015b60008112611d56578281815181101515611c8c57fe5b602090810290910101518211611d12576040805160e560020a62461bcd02815260206004820152602f60248201527f746865206172726179206f66206974656d496473206d75737420626520696e2060448201527f617373656e64696e67206f726465720000000000000000000000000000000000606482015290519081900360840190fd5b611d328382815181101515611d2357fe5b906020019060200201516115f2565b508281815181101515611d4157fe5b60209081029091010151915060001901611c76565b505050565b60008054600160a060020a03163314611dba576040805160e560020a62461bcd028152602060048201526022602482015260008051602061233b833981519152604482015260f060020a616e7502606482015290519081900360840190fd5b60025460005b84811015611de1576000918252600560205260409091205490600101611dc0565b50600081815260056020526040902060030154831515611e3a5760009081526004602090815260408083208054848255600180830186905560029092018590559484526005909252909120600301919091559050611e95565b60005b60018503811015611e61576000918252600460205260409091205490600101611e3d565b5060009081526004602052604080822080548352908220805490915581815560018082018390556002909101919091559150505b92915050565b60025460009081906060908190835b86811015611ecb576000918252600560205260409091205490600101611eaa565b50611ed4612313565b5060008181526005602090815260408083208151608081018352815481526001820154938101939093526002810154918301919091526003015460608083018290529192829181905b8015611f3d57600090815260046020526040902054600190910190611f1d565b81604051908082528060200260200182016040528015611f67578160200160208202803883390190505b50945081604051908082528060200260200182016040528015611f94578160200160208202803883390190505b509350856060015190505b801561201a576000818152600460205260409020600101548551869085908110611fc557fe5b60209081029091018101919091526000828152600490915260409020600201548451859085908110611ff357fe5b60209081029091018101919091526000918252600490526040902054600190920191611f9f565b50505060208301516040909301519299929850909650945092505050565b60056020526000908152604090208054600182015460028301546003909301549192909184565b6000805b845181101561193a5760006001848381518110151561207e57fe5b906020019060200201510390505b600081126120d8576120ce86838151811015156120a557fe5b90602001906020020151868386018151811015156120bf57fe5b90602001906020020151611d5b565b506000190161208c565b5082818151811015156120e757fe5b602090810290910101519190910190600101612063565b600054600160a060020a0316331461215c576040805160e560020a62461bcd028152602060048201526022602482015260008051602061233b833981519152604482015260f060020a616e7502606482015290519081900360840190fd5b8082106121d8576040805160e560020a62461bcd028152602060048201526024808201527f696e6465782031206d75737420626520736d616c6c6572207468616e20696e6460448201527f6578203200000000000000000000000000000000000000000000000000000000606482015290519081900360840190fd5b60025460005b848110156121ff5760009182526005602052604090912054906001016121de565b50600081815260056020526040812060030154819081908190815b878111612270578881141561222d578195505b6001890381141561223c578193505b87811415612248578194505b60018803811415612257578192505b600091825260046020526040909120549060010161221a565b5060008815156122a9575060008681526005602090815260408083206003018054868552600490935292208054909255908190556122cc565b506000838152600460205260408082208054858452919092208054909255908190555b50505060009283525060046020526040808320805492845292208054909255905550505050565b604080516060810182526000808252602082018190529181019190915290565b6040805160808101825260008082526020820181905291810182905260608101919091529056fe796f7520617265206e6f7420746865206f776e6572206f662074686973206d65a165627a7a72305820eba6563b3a893f7e86fecaceda4a3b4c2c3d8327549029783fb81a8d6d7713e10029",
  "source": "pragma solidity ^0.5.0;\n\ncontract Menu {\n\n  //event AddEntry(bytes32 head,uint number,bytes32 name,bytes32 next);\n  event addOptionEvent(uint itemId, uint addAtIndex, bytes32 optionName, uint optionPrice);\n  event debug(string message);\n  event debuguint(uint number);\n\n  address public owner;\n  uint public length = 0;//also used as nonce\n\n  struct Item{\n    uint nextItem; \n    bytes32 itemName;\n    bytes32 description;\n    uint optionsHead;\n  }\n\n  struct Option{\n    uint nextOption; \n    bytes32 optionName;\n    uint optionPrice;\n  }\n\n  uint public itemHead = 0;\n  uint public optionsHead = 0;\n  mapping (uint => Option) public options;\n  mapping (uint => Item) public items;\n\n  constructor(address _owner) public{\n    owner = _owner;\n  }\n\n  function getMenuLength() public view returns (uint){\n    uint itemIndex = itemHead;\n    uint menuLength = 0;\n\n    while(itemIndex != 0){\n      itemIndex = items[itemIndex].nextItem;\n      menuLength++;\n    }\n\n    return menuLength;\n  }\n\n  //needed for external contract access to struct\n  function getEntry(uint _id) public view returns (bytes32,bytes32,bytes32[] memory,uint[] memory){\n    uint itemIndex = itemHead;\n    \n    for(uint i = 0; i < _id; i++){\n      itemIndex = items[itemIndex].nextItem;\n    }\n\n    Item memory itemToReturn = items[itemIndex];\n\n    bytes32[] memory optionNamesToReturn;\n    uint[] memory optionPricesToReturn;\n    uint counter = 0;\n    uint optionCount = 0;\n    uint index = itemToReturn.optionsHead;\n    while(index != 0){\n      index = options[index].nextOption;\n      optionCount++;\n    }\n    optionNamesToReturn = new bytes32[](optionCount);\n    optionPricesToReturn = new uint[](optionCount);\n\n    index = itemToReturn.optionsHead;\n\n    while(index != 0){\n      optionNamesToReturn[counter] = options[index].optionName;\n      optionPricesToReturn[counter] = options[index].optionPrice;\n      counter++;\n      index = options[index].nextOption;\n    }\n    return (itemToReturn.itemName,itemToReturn.description,optionNamesToReturn,optionPricesToReturn);\n  }\n\n  // add item at index needs doing\n  function addEntry(uint addAtIndex, bytes32 _itemName,bytes32 _itemDescription, bytes32[] memory _optionNames, uint[] memory _optionPrices) public returns (bool){\n    require(msg.sender == owner, \"you are not the owner of this menu\"); // 270\n    require(_optionNames.length == _optionPrices.length, \"the number of options does not match the number of prices\"); // 28\n\n\n    // add the options\n    // having a next of 0 informs my code that we are at the end of this list\n    Option memory option = Option(0,_optionNames[0],_optionPrices[0]); // 252\n    optionsHead++; // 237\n    options[optionsHead] = option; //40554\n\n\n    //2918775 - 2796277 (three)\n    for(uint i = 1; i < _optionNames.length; i++){\n      option = Option(optionsHead,_optionNames[i],_optionPrices[i]); // 377\n      optionsHead++; // 437\n      options[optionsHead] = option; // 60354\n    }\n\n    Item memory item; // 137\n    if(addAtIndex == 0){ //26\n      item = Item(itemHead,_itemName,_itemDescription,optionsHead);\n      length++;\n      items[length] = item;\n      itemHead = length;\n    }\n    else{\n      uint insertAfter = itemHead; // 237\n      for(uint i = 1;i < addAtIndex; i++){\n        uint index = items[insertAfter].nextItem; // 295\n        if(index == 0) // 26\n          break; // if you hit the end of the list, just add it to the end\n        insertAfter = index; // 69\n      }\n      item = Item(items[insertAfter].nextItem,_itemName,_itemDescription,optionsHead); // 582\n\n      length++; // 5237\n      items[length] = item; // 80375\n      items[insertAfter].nextItem = length; //5394\n    }\n\n    \n  }\n\n  function removeItem(uint itemId) public returns (bool){\n    require(msg.sender == owner, \"you are not the owner of this menu\");\n\n    // if the item is the first item, simple change the head \n    if(itemId == 0){\n     uint newItemHead = items[itemHead].nextItem;\n     delete items[itemHead];\n     itemHead = newItemHead;\n     return true;\n    }\n\n\n    uint itemToUpdate = itemHead;\n    for(uint i = 0; i < itemId - 1; i++){\n      itemToUpdate = items[itemToUpdate].nextItem;\n    }\n    uint itemToDelete = items[itemToUpdate].nextItem;\n    items[itemToUpdate].nextItem = items[itemToDelete].nextItem;\n    return true;\n  }\n\n  function addOption(uint itemId, uint addAtIndex, bytes32 _optionName, uint _optionPrice) public returns(bool){\n    require(msg.sender == owner, \"you are not the owner of this menu\");\n\n    Option memory option;\n\n    uint itemIndex = itemHead;\n    for(uint i = 0; i < itemId; i++){\n      itemIndex = items[itemIndex].nextItem;\n    }\n\n    if(addAtIndex == 0){\n      option = Option(items[itemIndex].optionsHead,_optionName,_optionPrice);\n      optionsHead++;\n      options[optionsHead] = option;\n      items[itemIndex].optionsHead = optionsHead;\n    }\n\n    else{\n      // get the pointer of the item currently at the index\n      uint insertAfter = items[itemIndex].optionsHead;\n      for(uint i = 0; i < addAtIndex + 1; i++){\n        uint index = options[insertAfter].nextOption;\n        if(index == 0)\n          break; // if you hit the end of the list, just add it to the end\n        insertAfter = index;\n      }\n      option = Option(options[insertAfter].nextOption,_optionName,_optionPrice);\n\n      optionsHead++;\n      options[optionsHead] = option;\n\n      options[insertAfter].nextOption = optionsHead;\n    }\n\n\n\n  }\n\n  function removeOption(uint itemId, uint optionId) public returns(bool){\n    require(msg.sender == owner, \"you are not the owner of this menu\");\n\n    uint itemIndex = itemHead;\n    for(uint i = 0; i < itemId; i++){\n      itemIndex = items[itemIndex].nextItem;\n    }\n\n    uint optionToUpdate = items[itemIndex].optionsHead;\n\n    if(optionId == 0){\n     uint newOptionsHead = options[optionToUpdate].nextOption;\n     delete options[optionToUpdate];\n     items[itemIndex].optionsHead = newOptionsHead;\n     return true;\n    }\n\n    for(uint i = 0; i < optionId - 1; i++){\n      optionToUpdate = options[optionToUpdate].nextOption;\n    }\n    uint optionToDelete = options[optionToUpdate].nextOption;\n    options[optionToUpdate].nextOption = options[optionToDelete].nextOption;\n    delete options[optionToDelete];\n    return true;\n  }\n\n  function swapItems(uint index1, uint index2) public {\n    require(msg.sender == owner, \"you are not the owner of this menu\");\n    require(index1 < index2, \"index 1 must be smaller than index 2\");\n\n    uint item1Index;\n    uint item2Index;\n\n    uint preItem1Index;\n    uint preItem2Index;\n\n    uint itemIndex = itemHead;\n    for(uint i = 0; i <= index2; i++){\n      if(i == index1)\n        item1Index = itemIndex;\n      if(i == index1 - 1)\n        preItem1Index = itemIndex;\n      if(i == index2)\n        item2Index = itemIndex;\n      if(i == index2 - 1)\n        preItem2Index = itemIndex;\n\n      itemIndex = items[itemIndex].nextItem;\n    }\n\n    uint temp;\n    if(index1 == 0){\n      // update pre Item Links\n      temp = itemHead;\n      itemHead = items[preItem2Index].nextItem;\n      items[preItem2Index].nextItem = temp;\n    }\n    else{\n      temp = items[preItem1Index].nextItem;\n      items[preItem1Index].nextItem = items[preItem2Index].nextItem;\n      items[preItem2Index].nextItem = temp;\n    }\n\n    //update item links\n    temp = items[item1Index].nextItem;\n    items[item1Index].nextItem = items[item2Index].nextItem;\n    items[item2Index].nextItem = temp;\n  }\n\n  function swapOptions(uint _id, uint index1, uint index2) public {\n    require(msg.sender == owner, \"you are not the owner of this menu\");\n    require(index1 < index2, \"index 1 must be smaller than index 2\");\n\n    uint itemIndex = itemHead;\n    for(uint i = 0; i < _id; i++){\n      itemIndex = items[itemIndex].nextItem;\n    }\n\n    uint item1Index;\n    uint item2Index;\n\n    uint preItem1Index;\n    uint preItem2Index;\n\n    uint optionIndex = items[itemIndex].optionsHead;\n    for(uint i = 0; i <= index2; i++){\n      if(i == index1)\n        item1Index = optionIndex;\n      if(i == index1 - 1)\n        preItem1Index = optionIndex;\n      if(i == index2)\n        item2Index = optionIndex;\n      if(i == index2 - 1)\n        preItem2Index = optionIndex;\n\n      optionIndex = options[optionIndex].nextOption;\n    }\n\n    uint temp;\n    if(index1 == 0){\n      // update pre Item Links\n      temp = items[itemIndex].optionsHead;\n      items[itemIndex].optionsHead = options[preItem2Index].nextOption;\n      options[preItem2Index].nextOption = temp;\n    }\n    else{\n      temp = options[preItem1Index].nextOption;\n      options[preItem1Index].nextOption = options[preItem2Index].nextOption;\n      options[preItem2Index].nextOption = temp;\n    }\n\n    //update item links\n    temp = options[item1Index].nextOption;\n    options[item1Index].nextOption = options[item2Index].nextOption;\n    options[item2Index].nextOption = temp;\n\n\n  }\n\n\n  // toDo\n  function addMultipleItems(uint[] memory addAtIndex, bytes32[] memory itemNames, bytes32[] memory itemDescriptions, bytes32[] memory _optionNames, uint[] memory _prices, uint[] memory optionFlags) public {\n    require(msg.sender == owner, \"you are not the owner\");\n    require(addAtIndex.length == itemNames.length, \"the number of item indexes and item names do not match\");\n    require(itemNames.length == itemDescriptions.length, \"the number of descriptions and item names do not match\");\n    require(_optionNames.length == _prices.length, \"the number of options and prices do not match\");\n    require(itemNames.length == optionFlags.length, \"the number of item names and option flags do not match\");\n    uint optionFlagsSum = 0;\n    for(uint i = 0; i < optionFlags.length; i++){\n        optionFlagsSum += optionFlags[i];\n    }\n    require(_optionNames.length == optionFlagsSum, \"the number of options and the sum of the option flags do not match\");\n\n\n    uint optionIndex = 0;\n    bytes32[] memory optionNames;\n    uint[] memory prices;\n\n    for(uint i = 0; i < optionFlags.length; i++){\n\n        optionNames = new bytes32[](optionFlags[i]);\n        prices = new uint[](optionFlags[i]);\n        \n        //ToDo: need to require that the total number of options for an item is less than the options array limit, or have the limit increase when it is exceeded\n\n        for(uint j = 0; j < optionFlags[i]; j++){\n            optionNames[j] = _optionNames[optionIndex];\n            prices[j] = _prices[optionIndex];\n            optionIndex++;\n        }\n\n        addEntry(addAtIndex[i], itemNames[i], itemDescriptions[i], optionNames, prices);\n    }\n\n  }\n\n  function addMultipleOptions(uint[] memory itemIds, uint[] memory addAtIndexs, bytes32[] memory _optionNames, uint[] memory _prices) public {\n    require(msg.sender == owner, \"you are not the owner\");\n    require(itemIds.length == addAtIndexs.length, \"the number of itemIds and indexes to insert at are not the same\");\n    require(_optionNames.length == _prices.length, \"the number of options does not match the number of prices\");\n    require(_optionNames.length == itemIds.length, \"the number of itemIDs does not match the number of optionNames\");\n\n    for(uint i = 0; i < itemIds.length; i++){\n      addOption(itemIds[i], addAtIndexs[i], _optionNames[i],_prices[i]);\n    }\n  }\n\n  function removeMultipleItems(uint[] memory itemIds) public {\n\n    uint lastId = 9999999999;\n    for(int i = int(itemIds.length - 1); i >= 0; i--){\n      require(lastId > itemIds[uint(i)], \"the array of itemIds must be in assending order\");\n      removeItem(itemIds[uint(i)]);\n      lastId = itemIds[uint(i)];\n    }\n\n  }\n\n  function removeMultipleOptions(uint[] memory itemIds, uint[] memory optionIds, uint[] memory flags) public {\n    uint optionIdsIndex = 0;\n    for(uint i = 0; i < itemIds.length; i++){\n      for(int j = int(flags[i] - 1); j >= 0; j--){\n        removeOption(itemIds[i],optionIds[optionIdsIndex+uint(j)]);\n      }\n      optionIdsIndex+=flags[i];\n    }\n  }\n\n  function reorderItems() public {\n\n  }\n\n  function reorderOptions() public {\n\n  }\n\n}",
  "sourcePath": "/home/george/Documents/workspace/TryAByte/contracts/Menu.sol",
  "compiler": {
    "name": "solc",
    "version": "0.5.0+commit.1d4f565a.Emscripten.clang"
  },
  "schemaVersion": "3.0.6",
  "updatedAt": "2020-01-03T15:43:44.059Z",
  "devdoc": {
    "methods": {}
  },
  "userdoc": {
    "methods": {}
  }
}