{
  "contractName": "Menu",
  "abi": [
    {
      "inputs": [
        {
          "internalType": "address",
          "name": "_owner",
          "type": "address"
        }
      ],
      "payable": false,
      "stateMutability": "nonpayable",
      "type": "constructor"
    },
    {
      "anonymous": false,
      "inputs": [
        {
          "indexed": false,
          "internalType": "uint256",
          "name": "itemId",
          "type": "uint256"
        },
        {
          "indexed": false,
          "internalType": "uint256",
          "name": "addAtIndex",
          "type": "uint256"
        },
        {
          "indexed": false,
          "internalType": "bytes32",
          "name": "optionName",
          "type": "bytes32"
        },
        {
          "indexed": false,
          "internalType": "uint256",
          "name": "optionPrice",
          "type": "uint256"
        }
      ],
      "name": "addOptionEvent",
      "type": "event"
    },
    {
      "anonymous": false,
      "inputs": [
        {
          "indexed": false,
          "internalType": "string",
          "name": "message",
          "type": "string"
        }
      ],
      "name": "debug",
      "type": "event"
    },
    {
      "anonymous": false,
      "inputs": [
        {
          "indexed": false,
          "internalType": "uint256",
          "name": "number",
          "type": "uint256"
        }
      ],
      "name": "debuguint",
      "type": "event"
    },
    {
      "constant": true,
      "inputs": [],
      "name": "length",
      "outputs": [
        {
          "internalType": "uint256",
          "name": "",
          "type": "uint256"
        }
      ],
      "payable": false,
      "stateMutability": "view",
      "type": "function"
    },
    {
      "constant": true,
      "inputs": [],
      "name": "menu",
      "outputs": [
        {
          "internalType": "uint256",
          "name": "itemHead",
          "type": "uint256"
        },
        {
          "internalType": "uint256",
          "name": "optionsHead",
          "type": "uint256"
        },
        {
          "internalType": "uint256",
          "name": "extraHead",
          "type": "uint256"
        }
      ],
      "payable": false,
      "stateMutability": "view",
      "type": "function"
    },
    {
      "constant": true,
      "inputs": [],
      "name": "owner",
      "outputs": [
        {
          "internalType": "address",
          "name": "",
          "type": "address"
        }
      ],
      "payable": false,
      "stateMutability": "view",
      "type": "function"
    },
    {
      "constant": true,
      "inputs": [],
      "name": "getMenuLength",
      "outputs": [
        {
          "internalType": "uint256",
          "name": "",
          "type": "uint256"
        }
      ],
      "payable": false,
      "stateMutability": "view",
      "type": "function"
    },
    {
      "constant": true,
      "inputs": [
        {
          "internalType": "uint256",
          "name": "_id",
          "type": "uint256"
        }
      ],
      "name": "getEntry",
      "outputs": [
        {
          "internalType": "bytes32",
          "name": "",
          "type": "bytes32"
        },
        {
          "internalType": "bytes32",
          "name": "",
          "type": "bytes32"
        },
        {
          "internalType": "bytes32[]",
          "name": "",
          "type": "bytes32[]"
        },
        {
          "internalType": "uint256[]",
          "name": "",
          "type": "uint256[]"
        },
        {
          "internalType": "uint256[]",
          "name": "",
          "type": "uint256[]"
        }
      ],
      "payable": false,
      "stateMutability": "view",
      "type": "function"
    },
    {
      "constant": false,
      "inputs": [
        {
          "internalType": "uint256[]",
          "name": "integers",
          "type": "uint256[]"
        },
        {
          "internalType": "uint256[]",
          "name": "integersFlags",
          "type": "uint256[]"
        },
        {
          "internalType": "bytes32[]",
          "name": "strings",
          "type": "bytes32[]"
        },
        {
          "internalType": "uint256[]",
          "name": "stringsFlags",
          "type": "uint256[]"
        }
      ],
      "name": "updateMenu",
      "outputs": [
        {
          "internalType": "bool",
          "name": "",
          "type": "bool"
        }
      ],
      "payable": false,
      "stateMutability": "nonpayable",
      "type": "function"
    },
    {
      "constant": false,
      "inputs": [
        {
          "internalType": "uint256[]",
          "name": "addAtIndex",
          "type": "uint256[]"
        },
        {
          "internalType": "bytes32[]",
          "name": "itemNames",
          "type": "bytes32[]"
        },
        {
          "internalType": "bytes32[]",
          "name": "itemDescriptions",
          "type": "bytes32[]"
        },
        {
          "internalType": "bytes32[]",
          "name": "_optionNames",
          "type": "bytes32[]"
        },
        {
          "internalType": "uint256[]",
          "name": "_prices",
          "type": "uint256[]"
        },
        {
          "internalType": "uint256[]",
          "name": "optionFlags",
          "type": "uint256[]"
        },
        {
          "internalType": "uint256[]",
          "name": "_extrasIds",
          "type": "uint256[]"
        },
        {
          "internalType": "uint256[]",
          "name": "extrasFlags",
          "type": "uint256[]"
        }
      ],
      "name": "addMultipleItems",
      "outputs": [],
      "payable": false,
      "stateMutability": "nonpayable",
      "type": "function"
    },
    {
      "constant": false,
      "inputs": [
        {
          "internalType": "uint256",
          "name": "addAtIndex",
          "type": "uint256"
        },
        {
          "internalType": "bytes32",
          "name": "_itemName",
          "type": "bytes32"
        },
        {
          "internalType": "bytes32",
          "name": "_itemDescription",
          "type": "bytes32"
        },
        {
          "internalType": "bytes32[]",
          "name": "_optionNames",
          "type": "bytes32[]"
        },
        {
          "internalType": "uint256[]",
          "name": "_optionPrices",
          "type": "uint256[]"
        },
        {
          "internalType": "uint256[]",
          "name": "extraIds",
          "type": "uint256[]"
        }
      ],
      "name": "addEntry",
      "outputs": [
        {
          "internalType": "bool",
          "name": "",
          "type": "bool"
        }
      ],
      "payable": false,
      "stateMutability": "nonpayable",
      "type": "function"
    },
    {
      "constant": false,
      "inputs": [
        {
          "internalType": "uint256[]",
          "name": "itemIds",
          "type": "uint256[]"
        }
      ],
      "name": "removeMultipleItems",
      "outputs": [],
      "payable": false,
      "stateMutability": "nonpayable",
      "type": "function"
    },
    {
      "constant": false,
      "inputs": [
        {
          "internalType": "uint256",
          "name": "itemId",
          "type": "uint256"
        }
      ],
      "name": "removeItem",
      "outputs": [
        {
          "internalType": "bool",
          "name": "",
          "type": "bool"
        }
      ],
      "payable": false,
      "stateMutability": "nonpayable",
      "type": "function"
    },
    {
      "constant": false,
      "inputs": [
        {
          "internalType": "uint256[]",
          "name": "itemIds",
          "type": "uint256[]"
        },
        {
          "internalType": "uint256[]",
          "name": "addAtIndexs",
          "type": "uint256[]"
        },
        {
          "internalType": "bytes32[]",
          "name": "_optionNames",
          "type": "bytes32[]"
        },
        {
          "internalType": "uint256[]",
          "name": "_prices",
          "type": "uint256[]"
        }
      ],
      "name": "addMultipleOptions",
      "outputs": [],
      "payable": false,
      "stateMutability": "nonpayable",
      "type": "function"
    },
    {
      "constant": false,
      "inputs": [
        {
          "internalType": "uint256",
          "name": "itemId",
          "type": "uint256"
        },
        {
          "internalType": "uint256",
          "name": "addAtIndex",
          "type": "uint256"
        },
        {
          "internalType": "bytes32",
          "name": "_optionName",
          "type": "bytes32"
        },
        {
          "internalType": "uint256",
          "name": "_optionPrice",
          "type": "uint256"
        }
      ],
      "name": "addOption",
      "outputs": [
        {
          "internalType": "bool",
          "name": "",
          "type": "bool"
        }
      ],
      "payable": false,
      "stateMutability": "nonpayable",
      "type": "function"
    },
    {
      "constant": false,
      "inputs": [
        {
          "internalType": "uint256[]",
          "name": "itemIds",
          "type": "uint256[]"
        },
        {
          "internalType": "uint256[]",
          "name": "optionIds",
          "type": "uint256[]"
        },
        {
          "internalType": "uint256[]",
          "name": "flags",
          "type": "uint256[]"
        }
      ],
      "name": "removeMultipleOptions",
      "outputs": [],
      "payable": false,
      "stateMutability": "nonpayable",
      "type": "function"
    },
    {
      "constant": false,
      "inputs": [
        {
          "internalType": "uint256",
          "name": "itemId",
          "type": "uint256"
        },
        {
          "internalType": "uint256",
          "name": "optionId",
          "type": "uint256"
        }
      ],
      "name": "removeOption",
      "outputs": [
        {
          "internalType": "bool",
          "name": "",
          "type": "bool"
        }
      ],
      "payable": false,
      "stateMutability": "nonpayable",
      "type": "function"
    },
    {
      "constant": false,
      "inputs": [
        {
          "internalType": "bytes32[]",
          "name": "extraNames",
          "type": "bytes32[]"
        },
        {
          "internalType": "uint256[]",
          "name": "extraPrice",
          "type": "uint256[]"
        }
      ],
      "name": "addExtras",
      "outputs": [],
      "payable": false,
      "stateMutability": "nonpayable",
      "type": "function"
    },
    {
      "constant": false,
      "inputs": [
        {
          "internalType": "uint256[]",
          "name": "_ids",
          "type": "uint256[]"
        }
      ],
      "name": "setExtrasInactive",
      "outputs": [],
      "payable": false,
      "stateMutability": "nonpayable",
      "type": "function"
    },
    {
      "constant": false,
      "inputs": [
        {
          "internalType": "uint256[]",
          "name": "_itemIds",
          "type": "uint256[]"
        },
        {
          "internalType": "uint256[]",
          "name": "_extrasIds",
          "type": "uint256[]"
        },
        {
          "internalType": "uint256[]",
          "name": "flags",
          "type": "uint256[]"
        }
      ],
      "name": "assignExtras",
      "outputs": [],
      "payable": false,
      "stateMutability": "nonpayable",
      "type": "function"
    },
    {
      "constant": false,
      "inputs": [
        {
          "internalType": "uint256[]",
          "name": "_itemIds",
          "type": "uint256[]"
        },
        {
          "internalType": "uint256[]",
          "name": "_extrasIds",
          "type": "uint256[]"
        },
        {
          "internalType": "uint256[]",
          "name": "flags",
          "type": "uint256[]"
        }
      ],
      "name": "unassignExtras",
      "outputs": [],
      "payable": false,
      "stateMutability": "nonpayable",
      "type": "function"
    },
    {
      "constant": false,
      "inputs": [],
      "name": "reorderItems",
      "outputs": [],
      "payable": false,
      "stateMutability": "nonpayable",
      "type": "function"
    },
    {
      "constant": false,
      "inputs": [],
      "name": "reorderOptions",
      "outputs": [],
      "payable": false,
      "stateMutability": "nonpayable",
      "type": "function"
    },
    {
      "constant": false,
      "inputs": [
        {
          "internalType": "uint256",
          "name": "index1",
          "type": "uint256"
        },
        {
          "internalType": "uint256",
          "name": "index2",
          "type": "uint256"
        }
      ],
      "name": "swapItems",
      "outputs": [],
      "payable": false,
      "stateMutability": "nonpayable",
      "type": "function"
    },
    {
      "constant": false,
      "inputs": [
        {
          "internalType": "uint256",
          "name": "_id",
          "type": "uint256"
        },
        {
          "internalType": "uint256",
          "name": "index1",
          "type": "uint256"
        },
        {
          "internalType": "uint256",
          "name": "index2",
          "type": "uint256"
        }
      ],
      "name": "swapOptions",
      "outputs": [],
      "payable": false,
      "stateMutability": "nonpayable",
      "type": "function"
    },
    {
      "constant": true,
      "inputs": [
        {
          "internalType": "uint256[]",
          "name": "integers",
          "type": "uint256[]"
        },
        {
          "internalType": "uint256",
          "name": "itemCount",
          "type": "uint256"
        }
      ],
      "name": "getOrderPrice",
      "outputs": [
        {
          "internalType": "uint256",
          "name": "",
          "type": "uint256"
        }
      ],
      "payable": false,
      "stateMutability": "view",
      "type": "function"
    }
  ],
  "bytecode": "0x6080604052600060015534801561001557600080fd5b50604051620044c4380380620044c48339818101604052602081101561003a57600080fd5b5051600080546001600160a01b039092166001600160a01b0319909216919091179055614457806200006d6000396000f3fe608060405234801561001057600080fd5b506004361061014d5760003560e01c80638fb0f14c116100c3578063ca497d5c1161007c578063ca497d5c14611193578063d54307ca146109eb578063e40c8a3214611234578063e4d8a2a6146113d9578063e840515414611402578063f0439f71146115a75761014d565b80638fb0f14c14610c5b578063a6bd92e314610cfc578063ab90dae814610e1f578063b21dc38a14610e42578063bae78d7b14610ee5578063c98baa3214610fee5761014d565b806364f2eacd1161011557806364f2eacd1461039457806368fa6994146105bb5780637087ab33146109eb57806371329171146109f357806379b0542d14610a105780638da5cb5b14610c375761014d565b80630545ba2914610152578063125ba977146101775780631d082931146101915780631f7b6d321461035d5780633548495214610365575b600080fd5b6101756004803603604081101561016857600080fd5b50803590602001356115cd565b005b61017f611729565b60408051918252519081900360200190f35b610349600480360360c08110156101a757600080fd5b81359160208101359160408201359190810190608081016060820135600160201b8111156101d457600080fd5b8201836020820111156101e657600080fd5b803590602001918460208302840111600160201b8311171561020757600080fd5b9190808060200260200160405190810160405280939291908181526020018383602002808284376000920191909152509295949360208101935035915050600160201b81111561025657600080fd5b82018360208201111561026857600080fd5b803590602001918460208302840111600160201b8311171561028957600080fd5b9190808060200260200160405190810160405280939291908181526020018383602002808284376000920191909152509295949360208101935035915050600160201b8111156102d857600080fd5b8201836020820111156102ea57600080fd5b803590602001918460208302840111600160201b8311171561030b57600080fd5b919080806020026020016040519081016040528093929190818152602001838360200280828437600092019190915250929550611757945050505050565b604080519115158252519081900360200190f35b61017f611a70565b6103496004803603608081101561037b57600080fd5b5080359060208101359060408101359060600135611a76565b610349600480360360808110156103aa57600080fd5b810190602081018135600160201b8111156103c457600080fd5b8201836020820111156103d657600080fd5b803590602001918460208302840111600160201b831117156103f757600080fd5b9190808060200260200160405190810160405280939291908181526020018383602002808284376000920191909152509295949360208101935035915050600160201b81111561044657600080fd5b82018360208201111561045857600080fd5b803590602001918460208302840111600160201b8311171561047957600080fd5b9190808060200260200160405190810160405280939291908181526020018383602002808284376000920191909152509295949360208101935035915050600160201b8111156104c857600080fd5b8201836020820111156104da57600080fd5b803590602001918460208302840111600160201b831117156104fb57600080fd5b9190808060200260200160405190810160405280939291908181526020018383602002808284376000920191909152509295949360208101935035915050600160201b81111561054a57600080fd5b82018360208201111561055c57600080fd5b803590602001918460208302840111600160201b8311171561057d57600080fd5b919080806020026020016040519081016040528093929190818152602001838360200280828437600092019190915250929550611c2a945050505050565b61017560048036036101008110156105d257600080fd5b810190602081018135600160201b8111156105ec57600080fd5b8201836020820111156105fe57600080fd5b803590602001918460208302840111600160201b8311171561061f57600080fd5b9190808060200260200160405190810160405280939291908181526020018383602002808284376000920191909152509295949360208101935035915050600160201b81111561066e57600080fd5b82018360208201111561068057600080fd5b803590602001918460208302840111600160201b831117156106a157600080fd5b9190808060200260200160405190810160405280939291908181526020018383602002808284376000920191909152509295949360208101935035915050600160201b8111156106f057600080fd5b82018360208201111561070257600080fd5b803590602001918460208302840111600160201b8311171561072357600080fd5b9190808060200260200160405190810160405280939291908181526020018383602002808284376000920191909152509295949360208101935035915050600160201b81111561077257600080fd5b82018360208201111561078457600080fd5b803590602001918460208302840111600160201b831117156107a557600080fd5b9190808060200260200160405190810160405280939291908181526020018383602002808284376000920191909152509295949360208101935035915050600160201b8111156107f457600080fd5b82018360208201111561080657600080fd5b803590602001918460208302840111600160201b8311171561082757600080fd5b9190808060200260200160405190810160405280939291908181526020018383602002808284376000920191909152509295949360208101935035915050600160201b81111561087657600080fd5b82018360208201111561088857600080fd5b803590602001918460208302840111600160201b831117156108a957600080fd5b9190808060200260200160405190810160405280939291908181526020018383602002808284376000920191909152509295949360208101935035915050600160201b8111156108f857600080fd5b82018360208201111561090a57600080fd5b803590602001918460208302840111600160201b8311171561092b57600080fd5b9190808060200260200160405190810160405280939291908181526020018383602002808284376000920191909152509295949360208101935035915050600160201b81111561097a57600080fd5b82018360208201111561098c57600080fd5b803590602001918460208302840111600160201b831117156109ad57600080fd5b919080806020026020016040519081016040528093929190818152602001838360200280828437600092019190915250929550612b85945050505050565b610175612f99565b61034960048036036020811015610a0957600080fd5b5035612f9b565b61017560048036036080811015610a2657600080fd5b810190602081018135600160201b811115610a4057600080fd5b820183602082011115610a5257600080fd5b803590602001918460208302840111600160201b83111715610a7357600080fd5b9190808060200260200160405190810160405280939291908181526020018383602002808284376000920191909152509295949360208101935035915050600160201b811115610ac257600080fd5b820183602082011115610ad457600080fd5b803590602001918460208302840111600160201b83111715610af557600080fd5b9190808060200260200160405190810160405280939291908181526020018383602002808284376000920191909152509295949360208101935035915050600160201b811115610b4457600080fd5b820183602082011115610b5657600080fd5b803590602001918460208302840111600160201b83111715610b7757600080fd5b9190808060200260200160405190810160405280939291908181526020018383602002808284376000920191909152509295949360208101935035915050600160201b811115610bc657600080fd5b820183602082011115610bd857600080fd5b803590602001918460208302840111600160201b83111715610bf957600080fd5b919080806020026020016040519081016040528093929190818152602001838360200280828437600092019190915250929550613080945050505050565b610c3f61320b565b604080516001600160a01b039092168252519081900360200190f35b61017560048036036020811015610c7157600080fd5b810190602081018135600160201b811115610c8b57600080fd5b820183602082011115610c9d57600080fd5b803590602001918460208302840111600160201b83111715610cbe57600080fd5b91908080602002602001604051908101604052809392919081815260200183836020028082843760009201919091525092955061321a945050505050565b61017560048036036040811015610d1257600080fd5b810190602081018135600160201b811115610d2c57600080fd5b820183602082011115610d3e57600080fd5b803590602001918460208302840111600160201b83111715610d5f57600080fd5b9190808060200260200160405190810160405280939291908181526020018383602002808284376000920191909152509295949360208101935035915050600160201b811115610dae57600080fd5b820183602082011115610dc057600080fd5b803590602001918460208302840111600160201b83111715610de157600080fd5b9190808060200260200160405190810160405280939291908181526020018383602002808284376000920191909152509295506132c5945050505050565b61034960048036036040811015610e3557600080fd5b508035906020013561339c565b61017f60048036036040811015610e5857600080fd5b810190602081018135600160201b811115610e7257600080fd5b820183602082011115610e8457600080fd5b803590602001918460208302840111600160201b83111715610ea557600080fd5b9190808060200260200160405190810160405280939291908181526020018383602002808284376000920191909152509295505091359250613549915050565b610f0260048036036020811015610efb57600080fd5b50356136fb565b60405180868152602001858152602001806020018060200180602001848103845287818151815260200191508051906020019060200280838360005b83811015610f56578181015183820152602001610f3e565b50505050905001848103835286818151815260200191508051906020019060200280838360005b83811015610f95578181015183820152602001610f7d565b50505050905001848103825285818151815260200191508051906020019060200280838360005b83811015610fd4578181015183820152602001610fbc565b505050509050019850505050505050505060405180910390f35b6101756004803603606081101561100457600080fd5b810190602081018135600160201b81111561101e57600080fd5b82018360208201111561103057600080fd5b803590602001918460208302840111600160201b8311171561105157600080fd5b9190808060200260200160405190810160405280939291908181526020018383602002808284376000920191909152509295949360208101935035915050600160201b8111156110a057600080fd5b8201836020820111156110b257600080fd5b803590602001918460208302840111600160201b831117156110d357600080fd5b9190808060200260200160405190810160405280939291908181526020018383602002808284376000920191909152509295949360208101935035915050600160201b81111561112257600080fd5b82018360208201111561113457600080fd5b803590602001918460208302840111600160201b8311171561115557600080fd5b91908080602002602001604051908101604052809392919081815260200183836020028082843760009201919091525092955061393b945050505050565b610175600480360360208110156111a957600080fd5b810190602081018135600160201b8111156111c357600080fd5b8201836020820111156111d557600080fd5b803590602001918460208302840111600160201b831117156111f657600080fd5b9190808060200260200160405190810160405280939291908181526020018383602002808284376000920191909152509295506139ce945050505050565b6101756004803603606081101561124a57600080fd5b810190602081018135600160201b81111561126457600080fd5b82018360208201111561127657600080fd5b803590602001918460208302840111600160201b8311171561129757600080fd5b9190808060200260200160405190810160405280939291908181526020018383602002808284376000920191909152509295949360208101935035915050600160201b8111156112e657600080fd5b8201836020820111156112f857600080fd5b803590602001918460208302840111600160201b8311171561131957600080fd5b9190808060200260200160405190810160405280939291908181526020018383602002808284376000920191909152509295949360208101935035915050600160201b81111561136857600080fd5b82018360208201111561137a57600080fd5b803590602001918460208302840111600160201b8311171561139b57600080fd5b919080806020026020016040519081016040528093929190818152602001838360200280828437600092019190915250929550613a27945050505050565b610175600480360360608110156113ef57600080fd5b5080359060208101359060400135613bce565b6101756004803603606081101561141857600080fd5b810190602081018135600160201b81111561143257600080fd5b82018360208201111561144457600080fd5b803590602001918460208302840111600160201b8311171561146557600080fd5b9190808060200260200160405190810160405280939291908181526020018383602002808284376000920191909152509295949360208101935035915050600160201b8111156114b457600080fd5b8201836020820111156114c657600080fd5b803590602001918460208302840111600160201b831117156114e757600080fd5b9190808060200260200160405190810160405280939291908181526020018383602002808284376000920191909152509295949360208101935035915050600160201b81111561153657600080fd5b82018360208201111561154857600080fd5b803590602001918460208302840111600160201b8311171561156957600080fd5b919080806020026020016040519081016040528093929190818152602001838360200280828437600092019190915250929550613d6e945050505050565b6115af613f68565b60408051938452602084019290925282820152519081900360600190f35b6000546001600160a01b031633146116165760405162461bcd60e51b815260040180806020018281038252602281526020018061418d6022913960400191505060405180910390fd5b8082106116545760405162461bcd60e51b81526004018080602001828103825260248152602001806142c96024913960400191505060405180910390fd5b600254600090819081908190815b8681116116b85787811415611675578195505b60018803811415611684578193505b86811415611690578194505b6001870381141561169f578192505b6000918252600660205260409091205490600101611662565b506000876116e15750600280546000848152600660205260409020805490925590819055611704565b506000838152600660205260408082208054858452919092208054909255908190555b5050506000928352506006602052604080832080549284529220805490925590555050565b600254600090815b8115611750576000918252600660205260409091205490600101611731565b9150505b90565b600080546001600160a01b031633146117a15760405162461bcd60e51b815260040180806020018281038252602281526020018061418d6022913960400191505060405180910390fd5b82518451146117e15760405162461bcd60e51b815260040180806020018281038252603e81526020018061428b603e913960400191505060405180910390fd5b6117e9614039565b6040518060600160405280600081526020018660008151811061180857fe5b602002602001015181526020018560008151811061182257fe5b60209081029190910181015190915260038054600190810191829055600091825260058352604091829020845181559284015183820155908301516002909201919091559091505b85518110156118fb576040518060600160405280600260010154815260200187838151811061189557fe5b602002602001015181526020018683815181106118ae57fe5b60209081029190910181015190915260038054600190810191829055600091825260058352604091829020845181559284015183820155908301516002909201919091559092500161186a565b5061190461405d565b8861199457506040805160a08101825260028054825260208083018b81528385018b81526003805460608701908152608087018b81526001805481018082556000908152600688529990992088518155945198850198909855915194830194909455519281019290925592518051929384936119869260048501920190614092565b505060015460025550611a64565b60025460015b8a8110156119c657600082815260066020526040902054806119bc57506119c6565b915060010161199a565b506040805160a0810182526000838152600660208181528483205484528084018e81528486018e81526003805460608801908152608088018e8152600180548101808255895296865298909620875181559251948301949094555160028201559251918301919091559251805192955085939192611a4a9260048501920190614092565b505060015460009283526006602052604090922091909155505b50509695505050505050565b60015481565b600080546001600160a01b03163314611ac05760405162461bcd60e51b815260040180806020018281038252602281526020018061418d6022913960400191505060405180910390fd5b611ac8614039565b600080611adc60028963ffffffff613f7416565b9092509050600181151514611b2d576040805162461bcd60e51b8152602060048201526012602482015271696e646578206f7574206f662072616e676560701b604482015290519081900360640190fd5b86611b9b57604080516060810182526000848152600660208181528483206003908101805486528286018d81528688018d8152835460019081018086558852600586529887208851815591519882019890985596516002909701969096555492879052529091559250611c1f565b600080611bb06002858b63ffffffff613fc316565b9150915080611bbe57600091505b5060408051606081018252600083815260056020818152848320805485528185018d81528587018d81526003805460019081018083558852959094529685208651815590519381019390935594516002909201919091555493905291905592505b505050949350505050565b6000806000905060008090506060806060806060806060808d600081518110611c4f57fe5b6020026020010151604051908082528060200260200182016040528015611c80578160200160208202803883390190505b50975060005b8e600081518110611c9357fe5b6020026020010151811015611cd9578f8b81518110611cae57fe5b6020026020010151898281518110611cc257fe5b602090810291909101015260019a8b019a01611c86565b50611ce3886139ce565b8b600081518110611cf057fe5b6020026020010151604051908082528060200260200182016040528015611d21578160200160208202803883390190505b50925060005b8c600081518110611d3457fe5b6020026020010151811015611d7a578d8a81518110611d4f57fe5b6020026020010151848281518110611d6357fe5b60209081029190910101526001998a019901611d27565b508d600181518110611d8857fe5b6020026020010151604051908082528060200260200182016040528015611db9578160200160208202803883390190505b50965060005b8e600181518110611dcc57fe5b6020026020010151811015611e12578f8b81518110611de757fe5b6020026020010151888281518110611dfb57fe5b602090810291909101015260019a8b019a01611dbf565b50611e1d83886132c5565b8d600281518110611e2a57fe5b6020026020010151604051908082528060200260200182016040528015611e5b578160200160208202803883390190505b50975060005b8e600281518110611e6e57fe5b6020026020010151811015611eb4578f8b81518110611e8957fe5b6020026020010151898281518110611e9d57fe5b602090810291909101015260019a8b019a01611e61565b50611ebe8861321a565b8d600381518110611ecb57fe5b6020026020010151604051908082528060200260200182016040528015611efc578160200160208202803883390190505b50975060005b8e600381518110611f0f57fe5b6020026020010151811015611f55578f8b81518110611f2a57fe5b6020026020010151898281518110611f3e57fe5b602090810291909101015260019a8b019a01611f02565b508b600181518110611f6357fe5b6020026020010151604051908082528060200260200182016040528015611f94578160200160208202803883390190505b50925060005b8c600181518110611fa757fe5b6020026020010151811015611fed578d8a81518110611fc257fe5b6020026020010151848281518110611fd657fe5b60209081029190910101526001998a019901611f9a565b508b600281518110611ffb57fe5b602002602001015160405190808252806020026020018201604052801561202c578160200160208202803883390190505b50915060005b8c60028151811061203f57fe5b6020026020010151811015612085578d8a8151811061205a57fe5b602002602001015183828151811061206e57fe5b60209081029190910101526001998a019901612032565b508b60038151811061209357fe5b60200260200101516040519080825280602002602001820160405280156120c4578160200160208202803883390190505b50905060005b8c6003815181106120d757fe5b602002602001015181101561211d578d8a815181106120f257fe5b602002602001015182828151811061210657fe5b60209081029190910101526001998a0199016120ca565b508d60048151811061212b57fe5b602002602001015160405190808252806020026020018201604052801561215c578160200160208202803883390190505b50965060005b8e60048151811061216f57fe5b60200260200101518110156121b5578f8b8151811061218a57fe5b602002602001015188828151811061219e57fe5b602090810291909101015260019a8b019a01612162565b508d6005815181106121c357fe5b60200260200101516040519080825280602002602001820160405280156121f4578160200160208202803883390190505b50955060005b8e60058151811061220757fe5b602002602001015181101561224d578f8b8151811061222257fe5b602002602001015187828151811061223657fe5b602090810291909101015260019a8b019a016121fa565b508d60068151811061225b57fe5b602002602001015160405190808252806020026020018201604052801561228c578160200160208202803883390190505b50945060005b8e60068151811061229f57fe5b60200260200101518110156122e5578f8b815181106122ba57fe5b60200260200101518682815181106122ce57fe5b602090810291909101015260019a8b019a01612292565b508d6007815181106122f357fe5b6020026020010151604051908082528060200260200182016040528015612324578160200160208202803883390190505b50935060005b8e60078151811061233757fe5b602002602001015181101561237d578f8b8151811061235257fe5b602002602001015185828151811061236657fe5b602090810291909101015260019a8b019a0161232a565b5061238e888484848b8b8b8b612b85565b8d60088151811061239b57fe5b60200260200101516040519080825280602002602001820160405280156123cc578160200160208202803883390190505b50975060005b8e6008815181106123df57fe5b6020026020010151811015612425578f8b815181106123fa57fe5b602002602001015189828151811061240e57fe5b602090810291909101015260019a8b019a016123d2565b508d60098151811061243357fe5b6020026020010151604051908082528060200260200182016040528015612464578160200160208202803883390190505b50965060005b8e60098151811061247757fe5b60200260200101518110156124bd578f8b8151811061249257fe5b60200260200101518882815181106124a657fe5b602090810291909101015260019a8b019a0161246a565b508d600a815181106124cb57fe5b60200260200101516040519080825280602002602001820160405280156124fc578160200160208202803883390190505b50955060005b8e600a8151811061250f57fe5b6020026020010151811015612555578f8b8151811061252a57fe5b602002602001015187828151811061253e57fe5b602090810291909101015260019a8b019a01612502565b5061256188888861393b565b8d600b8151811061256e57fe5b602002602001015160405190808252806020026020018201604052801561259f578160200160208202803883390190505b50975060005b8e600b815181106125b257fe5b60200260200101518110156125f8578f8b815181106125cd57fe5b60200260200101518982815181106125e157fe5b602090810291909101015260019a8b019a016125a5565b508d600c8151811061260657fe5b6020026020010151604051908082528060200260200182016040528015612637578160200160208202803883390190505b50965060005b8e600c8151811061264a57fe5b6020026020010151811015612690578f8b8151811061266557fe5b602002602001015188828151811061267957fe5b602090810291909101015260019a8b019a0161263d565b508b60048151811061269e57fe5b60200260200101516040519080825280602002602001820160405280156126cf578160200160208202803883390190505b50925060005b8c6004815181106126e257fe5b6020026020010151811015612728578d8a815181106126fd57fe5b602002602001015184828151811061271157fe5b60209081029190910101526001998a0199016126d5565b508d600d8151811061273657fe5b6020026020010151604051908082528060200260200182016040528015612767578160200160208202803883390190505b50955060005b8e600d8151811061277a57fe5b60200260200101518110156127c0578f8b8151811061279557fe5b60200260200101518782815181106127a957fe5b602090810291909101015260019a8b019a0161276d565b506127cd88888589613080565b8d600e815181106127da57fe5b602002602001015160405190808252806020026020018201604052801561280b578160200160208202803883390190505b50975060005b8e600e8151811061281e57fe5b6020026020010151811015612864578f8b8151811061283957fe5b602002602001015189828151811061284d57fe5b602090810291909101015260019a8b019a01612811565b508d600f8151811061287257fe5b60200260200101516040519080825280602002602001820160405280156128a3578160200160208202803883390190505b50965060005b8e600f815181106128b657fe5b60200260200101518110156128fc578f8b815181106128d157fe5b60200260200101518882815181106128e557fe5b602090810291909101015260019a8b019a016128a9565b508d60108151811061290a57fe5b602002602001015160405190808252806020026020018201604052801561293b578160200160208202803883390190505b50955060005b8e60108151811061294e57fe5b6020026020010151811015612994578f8b8151811061296957fe5b602002602001015187828151811061297d57fe5b602090810291909101015260019a8b019a01612941565b506129a0888888613d6e565b8d6011815181106129ad57fe5b60200260200101516040519080825280602002602001820160405280156129de578160200160208202803883390190505b50975060005b8e6011815181106129f157fe5b6020026020010151811015612a37578f8b81518110612a0c57fe5b6020026020010151898281518110612a2057fe5b602090810291909101015260019a8b019a016129e4565b508d601281518110612a4557fe5b6020026020010151604051908082528060200260200182016040528015612a76578160200160208202803883390190505b50965060005b8e601281518110612a8957fe5b6020026020010151811015612acf578f8b81518110612aa457fe5b6020026020010151888281518110612ab857fe5b602090810291909101015260019a8b019a01612a7c565b508d601381518110612add57fe5b6020026020010151604051908082528060200260200182016040528015612b0e578160200160208202803883390190505b50955060005b8e601381518110612b2157fe5b6020026020010151811015612b67578f8b81518110612b3c57fe5b6020026020010151878281518110612b5057fe5b602090810291909101015260019a8b019a01612b14565b50612b73888888613a27565b50505050505050505050949350505050565b6000546001600160a01b03163314612bdc576040805162461bcd60e51b81526020600482015260156024820152743cb7ba9030b932903737ba103a34329037bbb732b960591b604482015290519081900360640190fd5b8651885114612c1c5760405162461bcd60e51b81526004018080602001828103825260368152602001806141af6036913960400191505060405180910390fd5b8551875114612c5c5760405162461bcd60e51b815260040180806020018281038252603681526020018061430f6036913960400191505060405180910390fd5b8351855114612c9c5760405162461bcd60e51b81526004018080602001828103825260328152602001806141e56032913960400191505060405180910390fd5b8251875114612cdc5760405162461bcd60e51b81526004018080602001828103825260368152602001806142556036913960400191505060405180910390fd5b8051875114612d1c5760405162461bcd60e51b815260040180806020018281038252603b815260200180614119603b913960400191505060405180910390fd5b6000805b8451811015612d4e57848181518110612d3557fe5b6020026020010151820191508080600101915050612d20565b5080865114612d8e5760405162461bcd60e51b81526004018080602001828103825260478152602001806143ad6047913960600191505060405180910390fd5b60006060808281815b8951811015612f8857898181518110612dac57fe5b6020026020010151604051908082528060200260200182016040528015612ddd578160200160208202803883390190505b509450898181518110612dec57fe5b6020026020010151604051908082528060200260200182016040528015612e1d578160200160208202803883390190505b50935060005b8a8281518110612e2f57fe5b6020026020010151811015612ea1578c8781518110612e4a57fe5b6020026020010151868281518110612e5e57fe5b6020026020010181815250508b8781518110612e7657fe5b6020026020010151858281518110612e8a57fe5b602090810291909101015260019687019601612e23565b50878181518110612eae57fe5b6020026020010151604051908082528060200260200182016040528015612edf578160200160208202803883390190505b50915060005b888281518110612ef157fe5b6020026020010151811015612f3757898481518110612f0c57fe5b6020026020010151838281518110612f2057fe5b602090810291909101015260019384019301612ee5565b50612f7f8f8281518110612f4757fe5b60200260200101518f8381518110612f5b57fe5b60200260200101518f8481518110612f6f57fe5b6020026020010151888887611757565b50600101612d97565b505050505050505050505050505050565b565b600080546001600160a01b03163314612fe55760405162461bcd60e51b815260040180806020018281038252602281526020018061418d6022913960400191505060405180910390fd5b8161303057600280546000908152600660205260408120805482825560018201839055928101829055600381018290559061302360048301826140dd565b505060025550600161307b565b60025460005b6001840381101561305a576000918252600660205260409091205490600101613036565b50600081815260066020526040808220805483529082205492909152555060015b919050565b6000546001600160a01b031633146130d7576040805162461bcd60e51b81526020600482015260156024820152743cb7ba9030b932903737ba103a34329037bbb732b960591b604482015290519081900360640190fd5b82518451146131175760405162461bcd60e51b815260040180806020018281038252603f815260200180614345603f913960400191505060405180910390fd5b80518251146131575760405162461bcd60e51b815260040180806020018281038252603e81526020018061428b603e913960400191505060405180910390fd5b83518251146131975760405162461bcd60e51b815260040180806020018281038252603e815260200180614217603e913960400191505060405180910390fd5b60005b8451811015613204576131fb8582815181106131b257fe5b60200260200101518583815181106131c657fe5b60200260200101518584815181106131da57fe5b60200260200101518585815181106131ee57fe5b6020026020010151611a76565b5060010161319a565b5050505050565b6000546001600160a01b031681565b80516402540be3ff90600019015b600081126132c05782818151811061323c57fe5b602002602001015182116132815760405162461bcd60e51b815260040180806020018281038252602f8152602001806143f4602f913960400191505060405180910390fd5b61329d83828151811061329057fe5b6020026020010151612f9b565b508281815181106132aa57fe5b6020908102919091010151915060001901613228565b505050565b80518251146133055760405162461bcd60e51b81526004018080602001828103825260228152602001806142ed6022913960400191505060405180910390fd5b60005b82518110156132c057604051806060016040528084838151811061332857fe5b6020026020010151815260200183838151811061334157fe5b602090810291909101810151825260019181018290526004805460009081526007835260409081902085518155928501518385015593909301516002909101805460ff19169115159190911790558154810190915501613308565b600080546001600160a01b031633146133e65760405162461bcd60e51b815260040180806020018281038252602281526020018061418d6022913960400191505060405180910390fd5b6000806133fa60028663ffffffff613f7416565b909250905060018115151461344b576040805162461bcd60e51b8152602060048201526012602482015271696e646578206f7574206f662072616e676560701b604482015290519081900360640190fd5b600082815260066020526040902060030154846134a2576000908152600560209081526040808320805484825560018083018690556002909201859055958452600690925290912060030192909255509050613543565b6134b8600284600019880163ffffffff613fc316565b9250905060018215151461350f576040805162461bcd60e51b81526020600482015260196024820152786f7074696f6e20696e646578206f7574206f662072616e676560381b604482015290519081900360640190fd5b6000908152600560205260408082208054835290822080549091558181556001808201839055600290910191909155925050505b92915050565b600080805b838110156136f35760008061358087848151811061356857fe5b60200260200101516002613f7490919063ffffffff16565b90925090506001811515146135dc576040805162461bcd60e51b815260206004820152601760248201527f6974656d20696e646578206f7574206f662072616e6765000000000000000000604482015290519081900360640190fd5b6136078288888601815181106135ee57fe5b60200260200101516002613fc39092919063ffffffff16565b909250905060018115151461365f576040805162461bcd60e51b81526020600482015260196024820152786f7074696f6e20696e646578206f7574206f662072616e676560381b604482015290519081900360640190fd5b6000828152600560205260408120600201549490940193805b888860020286018151811061368957fe5b60200260200101518110156136e357600260050160008a8a6003028501815181106136b057fe5b60200260200101518152602001908152602001600020600101548601955081806001019250508080600101915050613678565b50506001909201915061354e9050565b509392505050565b60008060608080838061371560028963ffffffff613f7416565b9092509050600181151514613766576040805162461bcd60e51b8152602060048201526012602482015271696e646578206f7574206f662072616e676560701b604482015290519081900360640190fd5b61376e61405d565b600083815260066020908152604091829020825160a081018452815481526001820154818401526002820154818501526003820154606082015260048201805485518186028101860190965280865291949293608086019392908301828280156137f757602002820191906000526020600020905b8154815260200190600101908083116137e3575b5050509190925250505060608082015191925090819060009081905b801561383357600090815260056020526040902054600190910190613813565b8160405190808252806020026020018201604052801561385d578160200160208202803883390190505b5094508160405190808252806020026020018201604052801561388a578160200160208202803883390190505b509350856060015190505b80156139155760008181526005602052604090206001015485518690859081106138bb57fe5b60200260200101818152505060026003016000828152602001908152602001600020600201548484815181106138ed57fe5b6020908102919091018101919091526000918252600590526040902054600190920191613895565b50505060208301516040840151608090940151909c939b50919950975095509350505050565b6000805b8451811015613204576000600184838151811061395857fe5b60200260200101510390505b600081126139a85761399e86838151811061397b57fe5b6020026020010151868386018151811061399157fe5b602002602001015161339c565b5060001901613964565b508281815181106139b557fe5b602002602001015182019150808060010191505061393f565b60005b8151811015613a23576000600260050160008484815181106139ef57fe5b6020908102919091018101518252810191909152604001600020600201805460ff19169115159190911790556001016139d1565b5050565b8251815114613a675760405162461bcd60e51b81526004018080602001828103825260298152602001806143846029913960400191505060405180910390fd5b6000805b8251811015613a9957828181518110613a8057fe5b6020026020010151820191508080600101915050613a6b565b5082518114613ad95760405162461bcd60e51b81526004018080602001828103825260398152602001806141546039913960400191505060405180910390fd5b6000805b8351811015613bc657600080613af888848151811061356857fe5b9092509050600181151514613b49576040805162461bcd60e51b8152602060048201526012602482015271696e646578206f7574206f662072616e676560701b604482015290519081900360640190fd5b60005b868481518110613b5857fe5b6020026020010151811015613bbb5760026004016000848152602001908152602001600020600401888681518110613b8c57fe5b602090810291909101810151825460018181018555600094855292909320909201919091559485019401613b4c565b505050600101613add565b505050505050565b6000546001600160a01b03163314613c175760405162461bcd60e51b815260040180806020018281038252602281526020018061418d6022913960400191505060405180910390fd5b808210613c555760405162461bcd60e51b81526004018080602001828103825260248152602001806142c96024913960400191505060405180910390fd5b60025460005b84811015613c7c576000918252600660205260409091205490600101613c5b565b50600081815260066020526040812060030154819081908190815b878111613ced5788811415613caa578195505b60018903811415613cb9578193505b87811415613cc5578194505b60018803811415613cd4578192505b6000918252600560205260409091205490600101613c97565b50600088613d2457506000868152600660209081526040808320600301805486855260059093529220805490925590819055613d47565b506000838152600560205260408082208054858452919092208054909255908190555b50505060009283525060056020526040808320805492845292208054909255905550505050565b8251815114613dae5760405162461bcd60e51b81526004018080602001828103825260298152602001806143846029913960400191505060405180910390fd5b6000805b8251811015613de057828181518110613dc757fe5b6020026020010151820191508080600101915050613db2565b5082518114613e205760405162461bcd60e51b81526004018080602001828103825260398152602001806141546039913960400191505060405180910390fd5b6000805b8351811015613bc657600080613e3f88848151811061356857fe5b9092509050600181151514613e90576040805162461bcd60e51b8152602060048201526012602482015271696e646578206f7574206f662072616e676560701b604482015290519081900360640190fd5b60005b868481518110613e9f57fe5b6020026020010151811015613f5d5760005b600084815260066020526040902060040154811015613f5457888681518110613ed657fe5b6020026020010151600260040160008681526020019081526020016000206004018281548110613f0257fe5b90600052602060002001541415613f4c576000848152600660205260409020600401805461270f919083908110613f3557fe5b600091825260209091200155600190950194613f54565b600101613eb1565b50600101613e93565b505050600101613e24565b60025460035460045483565b81546000908190815b84811015613fb4576000918252600486016020526040909120549081613fac575060009250829150613fbc9050565b600101613f7d565b509150600190505b9250929050565b600080600080613fd38787613f74565b600082815260048a0160205260408120600301549294509092505b8681101561402757600091825260038901602052604090912054908161401f57506000945084935061403192505050565b600101613fee565b5093506001925050505b935093915050565b60405180606001604052806000815260200160008019168152602001600081525090565b6040518060a0016040528060008152602001600080191681526020016000801916815260200160008152602001606081525090565b8280548282559060005260206000209081019282156140cd579160200282015b828111156140cd5782518255916020019190600101906140b2565b506140d99291506140fe565b5090565b50805460008255906000526020600020908101906140fb91906140fe565b50565b61175491905b808211156140d9576000815560010161410456fe746865206e756d626572206f66206974656d206e616d657320616e64206d656e752e65787472617320666c61677320646f206e6f74206d6174636874686520666c6167732061726520696e636f6e73697374656e74207769746820746865206d656e752e6578747261732070617373656420696e796f7520617265206e6f7420746865206f776e6572206f662074686973206d656e75746865206e756d626572206f66206974656d20696e646578657320616e64206974656d206e616d657320646f206e6f74206d61746368746865206e756d626572206f66206d656e752e6f7074696f6e7320616e642070726963657320646f206e6f74206d61746368746865206e756d626572206f66206974656d49447320646f6573206e6f74206d6174636820746865206e756d626572206f66206f7074696f6e4e616d6573746865206e756d626572206f66206974656d206e616d657320616e64206f7074696f6e20666c61677320646f206e6f74206d61746368746865206e756d626572206f66206d656e752e6f7074696f6e7320646f6573206e6f74206d6174636820746865206e756d626572206f6620707269636573696e6465782031206d75737420626520736d616c6c6572207468616e20696e646578203274686520636f756e74206f662074686520706172616d7320646f6e74206d61746368746865206e756d626572206f66206465736372697074696f6e7320616e64206974656d206e616d657320646f206e6f74206d61746368746865206e756d626572206f66206974656d49647320616e6420696e646578657320746f20696e7365727420617420617265206e6f74207468652073616d65696e636f6e73697374656e74206e756d626572206f6620666c61677320616e64206974656d20696473746865206e756d626572206f66206d656e752e6f7074696f6e7320616e64207468652073756d206f6620746865206f7074696f6e20666c61677320646f206e6f74206d61746368746865206172726179206f66206974656d496473206d75737420626520696e20617373656e64696e67206f72646572a265627a7a7231582033ee7eebbaab773f86762b8f5d56ccd8b618ced7b3b2e889620e5fc28333e29664736f6c634300050c0032",
  "source": "pragma solidity ^0.5.0;\n\nimport \"./menuHelper.sol\";\n\ncontract Menu {\n\n  using menuHelper for menuHelper.menuStruct;\n\n  //event AddEntry(bytes32 head,uint number,bytes32 name,bytes32 next);\n  event addOptionEvent(uint itemId, uint addAtIndex, bytes32 optionName, uint optionPrice);\n  event debug(string message);\n  event debuguint(uint number);\n\n  address public owner;\n  uint public length = 0;//also used as nonce\n\n  menuHelper.menuStruct public menu;\n\n  constructor(address _owner) public{\n    owner = _owner;\n  }\n\n  function getMenuLength() public view returns (uint){\n    uint itemIndex = menu.itemHead;\n    uint menuLength = 0;\n\n    while(itemIndex != 0){\n      itemIndex = menu.items[itemIndex].nextItem;\n      menuLength++;\n    }\n\n    return menuLength;\n  }\n\n  //needed for external contract access to struct\n  function getEntry(uint _id) public view returns (bytes32,bytes32,bytes32[] memory,uint[] memory, uint[] memory){\n    (uint itemIndex, bool found) = menu.getItemMappingIndex(_id);\n    require(found == true, \"index out of range\");\n\n    menuHelper.Item memory itemToReturn = menu.items[itemIndex];\n\n    bytes32[] memory optionNamesToReturn;\n    uint[] memory optionPricesToReturn;\n    uint counter = 0;\n    uint optionCount = 0;\n    uint index = itemToReturn.optionsHead;\n    while(index != 0){\n      index = menu.options[index].nextOption;\n      optionCount++;\n    }\n    optionNamesToReturn = new bytes32[](optionCount);\n    optionPricesToReturn = new uint[](optionCount);\n\n    index = itemToReturn.optionsHead;\n\n    while(index != 0){\n      optionNamesToReturn[counter] = menu.options[index].optionName;\n      optionPricesToReturn[counter] = menu.options[index].optionPrice;\n      counter++;\n      index = menu.options[index].nextOption;\n    }\n\n    return (itemToReturn.itemName,itemToReturn.description,optionNamesToReturn,optionPricesToReturn, itemToReturn.extrasIds);\n  }\n\n  // =============================== unpack function to allow menu updates with one call ===============================================\n\n  // this function will\n    // remove menu.extras  [indexes int] 1\n    // add menu.extras     [names string, prices int] 2\n    // remove menu.items   [itemindexes int] 1\n    // add menu.items      [addAtIndex int, itemnames sting, itemDescription string, optionnames string, price int, optionFlags int, extraIds int, extraFlags int] 2\n    // remove menu.options [itemIdss int, optionids int, flags int] 1\n    // add menu.options    [itemids int, addAtIndex int, optionNames string, _prices] 2\n    // unassign menu.extras[itemids int, extrasids int, flags int] 1\n    // assign menu.extras  [itemids int, extrasids int, flags int] 1\n    // update prices <-- needs doing\n\n\n\nfunction updateMenu(uint[] memory integers, uint[] memory integersFlags, bytes32[] memory strings, uint[] memory stringsFlags) public returns (bool){\n    uint integerIndex = 0;\n    uint stringIndex = 0;\n\n    uint[] memory ints_1;\n    uint[] memory ints_2;\n    uint[] memory ints_3;\n    uint[] memory ints_4;\n    uint[] memory ints_5;\n    bytes32[] memory str_1;\n    bytes32[] memory str_2;\n    bytes32[] memory str_3;\n\n\n    // remove menu.extras\n    ints_1 = new uint[](integersFlags[0]);\n    for(uint i = 0; i < integersFlags[0]; i++){\n      ints_1[i] = integers[integerIndex];\n      integerIndex ++;\n    }\n    setExtrasInactive(ints_1);\n\n    // add menu.extras\n    str_1 = new bytes32[](stringsFlags[0]);\n    for(uint i = 0; i < stringsFlags[0]; i++){\n      str_1[i] = strings[stringIndex];\n      stringIndex ++;\n    }\n\n    ints_2 = new uint[](integersFlags[1]);\n    for(uint i = 0; i < integersFlags[1]; i++){\n      ints_2[i] = integers[integerIndex];\n      integerIndex ++;\n    }\n    addExtras(str_1,ints_2);\n\n    // remove menu.items\n    ints_1 = new uint[](integersFlags[2]);\n    for(uint i = 0; i < integersFlags[2]; i++){\n      ints_1[i] = integers[integerIndex];\n      integerIndex ++;\n    }\n    removeMultipleItems(ints_1);\n\n    // add menu.items [addAtIndex int, itemnames sting, itemDescription string, optionnames string, price int, optionFlags int, extraIds int, extraFlags int]\n    // addAtIndex\n    ints_1 = new uint[](integersFlags[3]);\n    for(uint i = 0; i < integersFlags[3]; i++){\n      ints_1[i] = integers[integerIndex];\n      integerIndex ++;\n    }\n\n    //itemNames\n    str_1 = new bytes32[](stringsFlags[1]);\n    for(uint i = 0; i < stringsFlags[1]; i++){\n      str_1[i] = strings[stringIndex];\n      stringIndex ++;\n    }\n\n    //itemDescriptions\n    str_2 = new bytes32[](stringsFlags[2]);\n    for(uint i = 0; i < stringsFlags[2]; i++){\n      str_2[i] = strings[stringIndex];\n      stringIndex ++;\n    }\n\n    // optionNames\n    str_3 = new bytes32[](stringsFlags[3]);\n    for(uint i = 0; i < stringsFlags[3]; i++){\n      str_3[i] = strings[stringIndex];\n      stringIndex ++;\n    }\n\n    // price\n    ints_2 = new uint[](integersFlags[4]);\n    for(uint i = 0; i < integersFlags[4]; i++){\n      ints_2[i] = integers[integerIndex];\n      integerIndex ++;\n    }\n\n    // optionFlags\n    ints_3 = new uint[](integersFlags[5]);\n    for(uint i = 0; i < integersFlags[5]; i++){\n      ints_3[i] = integers[integerIndex];\n      integerIndex ++;\n    }\n\n    ints_4 = new uint[](integersFlags[6]);\n    for(uint i = 0; i < integersFlags[6]; i++){\n      ints_4[i] = integers[integerIndex];\n      integerIndex ++;\n    }\n\n    ints_5 = new uint[](integersFlags[7]);\n    for(uint i = 0; i < integersFlags[7]; i++){\n      ints_5[i] = integers[integerIndex];\n      integerIndex ++;\n    }\n    addMultipleItems(ints_1, str_1, str_2, str_3, ints_2, ints_3, ints_4, ints_5);\n\n    // remove menu.options\n    // itemIds\n    ints_1 = new uint[](integersFlags[8]);\n    for(uint i = 0; i < integersFlags[8]; i++){\n      ints_1[i] = integers[integerIndex];\n      integerIndex ++;\n    }\n\n    // optionIds\n    ints_2 = new uint[](integersFlags[9]);\n    for(uint i = 0; i < integersFlags[9]; i++){\n      ints_2[i] = integers[integerIndex];\n      integerIndex ++;\n    }\n\n    // flags\n    ints_3 = new uint[](integersFlags[10]);\n    for(uint i = 0; i < integersFlags[10]; i++){\n      ints_3[i] = integers[integerIndex];\n      integerIndex ++;\n    }\n    removeMultipleOptions(ints_1,ints_2,ints_3);\n\n    // add menu.options [itemids int, addAtIndex int, optionNames string, _prices]\n    ints_1 = new uint[](integersFlags[11]);\n    for(uint i = 0; i < integersFlags[11]; i++){\n      ints_1[i] = integers[integerIndex];\n      integerIndex ++;\n    }\n\n    ints_2 = new uint[](integersFlags[12]);\n    for(uint i = 0; i < integersFlags[12]; i++){\n      ints_2[i] = integers[integerIndex];\n      integerIndex ++;\n    }\n\n    str_1 = new bytes32[](stringsFlags[4]);\n    for(uint i = 0; i < stringsFlags[4]; i++){\n      str_1[i] = strings[stringIndex];\n      stringIndex ++;\n    }\n\n    ints_3 = new uint[](integersFlags[13]);\n    for(uint i = 0; i < integersFlags[13]; i++){\n      ints_3[i] = integers[integerIndex];\n      integerIndex ++;\n    }\n    addMultipleOptions(ints_1, ints_2, str_1, ints_3);\n\n    // unassign menu.extras[itemids int, extrasids int, flags int] 1\n   ints_1 = new uint[](integersFlags[14]);\n    for(uint i = 0; i < integersFlags[14]; i++){\n      ints_1[i] = integers[integerIndex];\n      integerIndex ++;\n    }\n\n    ints_2 = new uint[](integersFlags[15]);\n    for(uint i = 0; i < integersFlags[15]; i++){\n      ints_2[i] = integers[integerIndex];\n      integerIndex ++;\n    }\n\n    ints_3 = new uint[](integersFlags[16]);\n    for(uint i = 0; i < integersFlags[16]; i++){\n      ints_3[i] = integers[integerIndex];\n      integerIndex ++;\n    }\n    unassignExtras(ints_1,ints_2,ints_3);\n\n\n    // assign menu.extras  [itemids int, extrasids int, flags int] 1\n    ints_1 = new uint[](integersFlags[17]);\n    for(uint i = 0; i < integersFlags[17]; i++){\n      ints_1[i] = integers[integerIndex];\n      integerIndex ++;\n    }\n\n    ints_2 = new uint[](integersFlags[18]);\n    for(uint i = 0; i < integersFlags[18]; i++){\n      ints_2[i] = integers[integerIndex];\n      integerIndex ++;\n    }\n\n    ints_3 = new uint[](integersFlags[19]);\n    for(uint i = 0; i < integersFlags[19]; i++){\n      ints_3[i] = integers[integerIndex];\n      integerIndex ++;\n    }\n    assignExtras(ints_1,ints_2,ints_3);\n\n  }\n\n  // =============================== END unpack function to allow menu updates with one call ===============================================\n\n  // =============================== menu.ITEMS ===============================================\n\n  // toDo\n  function addMultipleItems(uint[] memory addAtIndex, bytes32[] memory itemNames, bytes32[] memory itemDescriptions, bytes32[] memory _optionNames, uint[] memory _prices, uint[] memory optionFlags, uint[] memory _extrasIds, uint[] memory extrasFlags) public {\n    require(msg.sender == owner, \"you are not the owner\");\n    require(addAtIndex.length == itemNames.length, \"the number of item indexes and item names do not match\");\n    require(itemNames.length == itemDescriptions.length, \"the number of descriptions and item names do not match\");\n    require(_optionNames.length == _prices.length, \"the number of menu.options and prices do not match\");\n    require(itemNames.length == optionFlags.length, \"the number of item names and option flags do not match\");\n    require(itemNames.length == extrasFlags.length, \"the number of item names and menu.extras flags do not match\");\n    uint optionFlagsSum = 0;\n    for(uint i = 0; i < optionFlags.length; i++){\n        optionFlagsSum += optionFlags[i];\n    }\n    require(_optionNames.length == optionFlagsSum, \"the number of menu.options and the sum of the option flags do not match\");\n\n\n    uint optionIndex = 0;\n    bytes32[] memory optionNames;\n    uint[] memory prices;\n\n    uint extrasIndex = 0;\n    uint[] memory extraIds;\n\n    for(uint i = 0; i < optionFlags.length; i++){\n\n        optionNames = new bytes32[](optionFlags[i]);\n        prices = new uint[](optionFlags[i]);\n        \n        //ToDo: need to require that the total number of menu.options for an item is less than the menu.options array limit, or have the limit increase when it is exceeded\n\n        for(uint j = 0; j < optionFlags[i]; j++){\n            optionNames[j] = _optionNames[optionIndex];\n            prices[j] = _prices[optionIndex];\n            optionIndex++;\n        }\n\n        extraIds = new uint[](extrasFlags[i]);\n\n        for(uint j = 0; j < extrasFlags[i]; j++){\n          extraIds[j] = _extrasIds[extrasIndex];\n          extrasIndex++;\n        }\n\n\n\n        addEntry(addAtIndex[i], itemNames[i], itemDescriptions[i], optionNames, prices, extraIds);\n    }\n\n  }\n\n  // add item at index needs doing\n  function addEntry(uint addAtIndex, bytes32 _itemName,bytes32 _itemDescription, bytes32[] memory _optionNames, uint[] memory _optionPrices, uint[] memory extraIds) public returns (bool){\n    require(msg.sender == owner, \"you are not the owner of this menu\"); // 270\n    require(_optionNames.length == _optionPrices.length, \"the number of menu.options does not match the number of prices\"); // 28\n\n\n    // add the menu.options\n    // having a next of 0 informs my code that we are at the end of this list\n    menuHelper.Option memory option = menuHelper.Option(0,_optionNames[0],_optionPrices[0]); // 252\n    menu.optionsHead++; // 237\n    menu.options[menu.optionsHead] = option; //40554\n\n\n    //2918775 - 2796277 (three)\n    for(uint i = 1; i < _optionNames.length; i++){\n      option = menuHelper.Option(menu.optionsHead,_optionNames[i],_optionPrices[i]); // 377\n      menu.optionsHead++; // 437\n      menu.options[menu.optionsHead] = option; // 60354\n    }\n\n    menuHelper.Item memory item; // 137\n    if(addAtIndex == 0){ //26\n      item = menuHelper.Item(menu.itemHead,_itemName,_itemDescription,menu.optionsHead, extraIds);\n      length++;\n      menu.items[length] = item;\n      menu.itemHead = length;\n    }\n    else{\n      uint insertAfter = menu.itemHead; // 237\n      for(uint i = 1;i < addAtIndex; i++){\n        uint index = menu.items[insertAfter].nextItem; // 295\n        if(index == 0) // 26\n          break; // if you hit the end of the list, just add it to the end\n        insertAfter = index; // 69\n      }\n      item = menuHelper.Item(menu.items[insertAfter].nextItem,_itemName,_itemDescription,menu.optionsHead,extraIds); // 582\n\n      length++; // 5237\n      menu.items[length] = item; // 80375\n      menu.items[insertAfter].nextItem = length; //5394\n    }\n  }\n\n  function removeMultipleItems(uint[] memory itemIds) public {\n\n    uint lastId = 9999999999;\n    for(int i = int(itemIds.length - 1); i >= 0; i--){\n      require(lastId > itemIds[uint(i)], \"the array of itemIds must be in assending order\");\n      removeItem(itemIds[uint(i)]);\n      lastId = itemIds[uint(i)];\n    }\n  }\n\n  function removeItem(uint itemId) public returns (bool){\n    require(msg.sender == owner, \"you are not the owner of this menu\");\n\n    // if the item is the first item, simple change the head \n    if(itemId == 0){\n     uint newItemHead = menu.items[menu.itemHead].nextItem;\n     delete menu.items[menu.itemHead];\n     menu.itemHead = newItemHead;\n     return true;\n    }\n\n\n    uint itemToUpdate = menu.itemHead;\n    for(uint i = 0; i < itemId - 1; i++){\n      itemToUpdate = menu.items[itemToUpdate].nextItem;\n    }\n    uint itemToDelete = menu.items[itemToUpdate].nextItem;\n    menu.items[itemToUpdate].nextItem = menu.items[itemToDelete].nextItem;\n    return true;\n  }\n\n  // =============================== END menu.ITEMS ===============================================\n\n  // =============================== menu.OPTIONS ===============================================\n\n  function addMultipleOptions(uint[] memory itemIds, uint[] memory addAtIndexs, bytes32[] memory _optionNames, uint[] memory _prices) public {\n    require(msg.sender == owner, \"you are not the owner\");\n    require(itemIds.length == addAtIndexs.length, \"the number of itemIds and indexes to insert at are not the same\");\n    require(_optionNames.length == _prices.length, \"the number of menu.options does not match the number of prices\");\n    require(_optionNames.length == itemIds.length, \"the number of itemIDs does not match the number of optionNames\");\n\n    for(uint i = 0; i < itemIds.length; i++){\n      addOption(itemIds[i], addAtIndexs[i], _optionNames[i],_prices[i]);\n    }\n  }\n\n  // adding at index > 0 puts it at the end, index == 0 puts it at 0\n  function addOption(uint itemId, uint addAtIndex, bytes32 _optionName, uint _optionPrice) public returns(bool){\n    require(msg.sender == owner, \"you are not the owner of this menu\");\n\n    menuHelper.Option memory option;\n\n    (uint itemIndex, bool foundItem) = menu.getItemMappingIndex(itemId);\n    require(foundItem == true, \"index out of range\");\n\n    if(addAtIndex == 0){\n      option = menuHelper.Option(menu.items[itemIndex].optionsHead,_optionName,_optionPrice);\n      menu.optionsHead++;\n      menu.options[menu.optionsHead] = option;\n      menu.items[itemIndex].optionsHead = menu.optionsHead;\n    }\n\n    else{\n      // get the pointer of the item currently at the index\n      (uint insertAfter,bool foundOption) = menu.getOptionMappingIndex(itemIndex,addAtIndex);\n      if(!foundOption)\n        insertAfter = 0;\n\n      option = menuHelper.Option(menu.options[insertAfter].nextOption,_optionName,_optionPrice);\n\n      menu.optionsHead++;\n      menu.options[menu.optionsHead] = option;\n\n      menu.options[insertAfter].nextOption = menu.optionsHead;\n    }\n  }\n\n\n  function removeMultipleOptions(uint[] memory itemIds, uint[] memory optionIds, uint[] memory flags) public {\n    uint optionIdsIndex = 0;\n    for(uint i = 0; i < itemIds.length; i++){\n      for(int j = int(flags[i] - 1); j >= 0; j--){\n        removeOption(itemIds[i],optionIds[optionIdsIndex+uint(j)]);\n      }\n      optionIdsIndex+=flags[i];\n    }\n  }\n\n  function removeOption(uint itemId, uint optionId) public returns(bool){\n    require(msg.sender == owner, \"you are not the owner of this menu\");\n\n    (uint itemIndex, bool found) = menu.getItemMappingIndex(itemId);\n    require(found == true, \"index out of range\");\n\n    uint optionToUpdate = menu.items[itemIndex].optionsHead;\n\n    if(optionId == 0){\n     uint newOptionsHead = menu.options[optionToUpdate].nextOption;\n     delete menu.options[optionToUpdate];\n     menu.items[itemIndex].optionsHead = newOptionsHead;\n     return true;\n    }\n\n    (optionToUpdate, found) = menu.getOptionMappingIndex(itemIndex,optionId - 1);\n    require(found == true, \"option index out of range\");\n    \n    uint optionToDelete = menu.options[optionToUpdate].nextOption;\n    menu.options[optionToUpdate].nextOption = menu.options[optionToDelete].nextOption;\n    delete menu.options[optionToDelete];\n    return true;\n  }\n\n  // =============================== END menu.OPTIONS ===============================================\n\n  // =============================== menu.EXTRAS ===============================================\n\n  // should improve this storage method\n  function addExtras(bytes32[] memory extraNames, uint[] memory extraPrice) public {\n    require(extraNames.length == extraPrice.length, \"the count of the params dont match\");\n    for(uint i = 0; i < extraNames.length; i++){\n      menu.extras[menu.extraHead] = menuHelper.Extra(extraNames[i],extraPrice[i],true);\n      menu.extraHead++;\n    }\n  }\n\n  // ToDo: check that the menu.extras dont belong to any menu.items\n  function setExtrasInactive(uint[] memory _ids) public {\n    for(uint i = 0; i < _ids.length; i++){\n       menu.extras[_ids[i]].active = false;\n    }\n  }\n\n  // todo\n  // should do some checks to ensure an extra can only be assigned once\n  // could also sort this list to allow fast removal and finding??\n  function assignExtras(uint[] memory _itemIds, uint[] memory _extrasIds, uint[] memory flags) public {\n    require(flags.length == _itemIds.length, \"inconsistent number of flags and item ids\");\n    uint flagSum = 0;\n    for(uint i = 0; i < flags.length; i++){\n      flagSum += flags[i];\n    }\n    require(flagSum == _extrasIds.length, \"the flags are inconsistent with the menu.extras passed in\");\n    \n    uint extrasIndex = 0;\n    for(uint i = 0; i < flags.length; i++){\n      (uint itemIndex, bool found) = menu.getItemMappingIndex(_itemIds[i]);\n      require(found == true, \"index out of range\");\n\n      for(uint j = 0; j < flags[i]; j++){\n        // add extra j to item i\n        menu.items[itemIndex].extrasIds.push(_extrasIds[extrasIndex]);\n        extrasIndex++;\n      }\n    }\n  }\n\n  // ToDo, change menu.extras to a list structure so propper deletion can be done\n  function unassignExtras(uint[] memory _itemIds, uint[] memory _extrasIds, uint[] memory flags) public {\n    require(flags.length == _itemIds.length, \"inconsistent number of flags and item ids\");\n    uint flagSum = 0;\n    for(uint i = 0; i < flags.length; i++){\n      flagSum += flags[i];\n    }\n    require(flagSum == _extrasIds.length, \"the flags are inconsistent with the menu.extras passed in\");\n    \n    uint extrasIndex = 0;\n    for(uint i = 0; i < flags.length; i++){\n      (uint itemIndex, bool found) = menu.getItemMappingIndex(_itemIds[i]);\n      require(found == true, \"index out of range\");\n\n      // for each extra id\n      for(uint j = 0; j < flags[i]; j++){\n        // for each extra in the item\n        for(uint k = 0; k < menu.items[itemIndex].extrasIds.length; k++){\n          if(menu.items[itemIndex].extrasIds[k] == _extrasIds[extrasIndex]){\n            menu.items[itemIndex].extrasIds[k] = 9999; // TODO: should remove element instead of putting in a placholder\n            extrasIndex++;\n            break;\n          }\n        }\n      }\n    }\n  }\n\n  // =============================== END menu.EXTRAS ===============================================\n\n  // =============================== changing order ===============================================\n  // needs doing and implementing\n\n  function reorderItems() public {\n\n  }\n\n  function reorderOptions() public {\n\n  }\n\n  function swapItems(uint index1, uint index2) public {\n    require(msg.sender == owner, \"you are not the owner of this menu\");\n    require(index1 < index2, \"index 1 must be smaller than index 2\");\n\n    uint item1Index;\n    uint item2Index;\n\n    uint preItem1Index;\n    uint preItem2Index;\n\n    uint itemIndex = menu.itemHead;\n    for(uint i = 0; i <= index2; i++){\n      if(i == index1)\n        item1Index = itemIndex;\n      if(i == index1 - 1)\n        preItem1Index = itemIndex;\n      if(i == index2)\n        item2Index = itemIndex;\n      if(i == index2 - 1)\n        preItem2Index = itemIndex;\n\n      itemIndex = menu.items[itemIndex].nextItem;\n    }\n\n    uint temp;\n    if(index1 == 0){\n      // update pre Item Links\n      temp = menu.itemHead;\n      menu.itemHead = menu.items[preItem2Index].nextItem;\n      menu.items[preItem2Index].nextItem = temp;\n    }\n    else{\n      temp = menu.items[preItem1Index].nextItem;\n      menu.items[preItem1Index].nextItem = menu.items[preItem2Index].nextItem;\n      menu.items[preItem2Index].nextItem = temp;\n    }\n\n    //update item links\n    temp = menu.items[item1Index].nextItem;\n    menu.items[item1Index].nextItem = menu.items[item2Index].nextItem;\n    menu.items[item2Index].nextItem = temp;\n  }\n\n  function swapOptions(uint _id, uint index1, uint index2) public {\n    require(msg.sender == owner, \"you are not the owner of this menu\");\n    require(index1 < index2, \"index 1 must be smaller than index 2\");\n\n    uint itemIndex = menu.itemHead;\n    for(uint i = 0; i < _id; i++){\n      itemIndex = menu.items[itemIndex].nextItem;\n    }\n\n    uint item1Index;\n    uint item2Index;\n\n    uint preItem1Index;\n    uint preItem2Index;\n\n    uint optionIndex = menu.items[itemIndex].optionsHead;\n    for(uint i = 0; i <= index2; i++){\n      if(i == index1)\n        item1Index = optionIndex;\n      if(i == index1 - 1)\n        preItem1Index = optionIndex;\n      if(i == index2)\n        item2Index = optionIndex;\n      if(i == index2 - 1)\n        preItem2Index = optionIndex;\n\n      optionIndex = menu.options[optionIndex].nextOption;\n    }\n\n    uint temp;\n    if(index1 == 0){\n      // update pre Item Links\n      temp = menu.items[itemIndex].optionsHead;\n      menu.items[itemIndex].optionsHead = menu.options[preItem2Index].nextOption;\n      menu.options[preItem2Index].nextOption = temp;\n    }\n    else{\n      temp = menu.options[preItem1Index].nextOption;\n      menu.options[preItem1Index].nextOption = menu.options[preItem2Index].nextOption;\n      menu.options[preItem2Index].nextOption = temp;\n    }\n\n    //update item links\n    temp = menu.options[item1Index].nextOption;\n    menu.options[item1Index].nextOption = menu.options[item2Index].nextOption;\n    menu.options[item2Index].nextOption = temp;\n  }\n\n  // =============================== End Swapping Order ===============================================\n\n  // =============================== Other ===============================================\n\n  // integers is uint[] calldata itemIds, uint[] calldata optionIds, uint[] calldata extraFlags, uint[] calldata extraIds\n  function getOrderPrice(uint[] memory integers, uint itemCount) public view returns (uint){\n      uint price = 0;\n      for(uint i = 0; i < itemCount; i++){\n\n        // get item/option price\n        (uint index, bool found) = menu.getItemMappingIndex(integers[i]);\n        require(found == true, \"item index out of range\");\n        (index, found) = menu.getOptionMappingIndex(index,integers[i+itemCount]);\n        require(found == true, \"option index out of range\");\n        price += menu.options[index].optionPrice;\n\n        // get menu.extras total\n        uint extrasIdsIndex = 0;\n        for(uint j = 0; j < integers[i+itemCount*2]; j++){\n          price += menu.extras[integers[extrasIdsIndex+itemCount*3]].extraPrice;\n          extrasIdsIndex ++;\n        }\n      }\n      return price;\n  }\n\n}",
  "sourcePath": "/home/george/Documents/WorkSpace/TryAByte/contracts/Menu.sol",
  "compiler": {
    "name": "solc",
    "version": "0.5.12+commit.7709ece9.Emscripten.clang"
  },
  "schemaVersion": "3.0.19",
  "updatedAt": "2020-01-17T17:19:25.403Z",
  "networkType": "ethereum",
  "devdoc": {
    "methods": {}
  },
  "userdoc": {
    "methods": {}
  }
}