{
  "contractName": "Menu",
  "abi": [
    {
      "constant": true,
      "inputs": [],
      "name": "length",
      "outputs": [
        {
          "name": "",
          "type": "uint256"
        }
      ],
      "payable": false,
      "stateMutability": "view",
      "type": "function",
      "signature": "0x1f7b6d32"
    },
    {
      "constant": true,
      "inputs": [
        {
          "name": "",
          "type": "uint256"
        }
      ],
      "name": "options",
      "outputs": [
        {
          "name": "nextOption",
          "type": "uint256"
        },
        {
          "name": "optionName",
          "type": "bytes32"
        },
        {
          "name": "optionPrice",
          "type": "uint256"
        }
      ],
      "payable": false,
      "stateMutability": "view",
      "type": "function",
      "signature": "0x409e2205"
    },
    {
      "constant": true,
      "inputs": [],
      "name": "optionsHead",
      "outputs": [
        {
          "name": "",
          "type": "uint256"
        }
      ],
      "payable": false,
      "stateMutability": "view",
      "type": "function",
      "signature": "0x48850443"
    },
    {
      "constant": true,
      "inputs": [],
      "name": "itemHead",
      "outputs": [
        {
          "name": "",
          "type": "uint256"
        }
      ],
      "payable": false,
      "stateMutability": "view",
      "type": "function",
      "signature": "0x5b4b8792"
    },
    {
      "constant": true,
      "inputs": [
        {
          "name": "",
          "type": "uint256"
        }
      ],
      "name": "items",
      "outputs": [
        {
          "name": "nextItem",
          "type": "uint256"
        },
        {
          "name": "itemName",
          "type": "bytes32"
        },
        {
          "name": "description",
          "type": "bytes32"
        },
        {
          "name": "optionsHead",
          "type": "uint256"
        }
      ],
      "payable": false,
      "stateMutability": "view",
      "type": "function",
      "signature": "0xbfb231d2"
    },
    {
      "inputs": [],
      "payable": false,
      "stateMutability": "nonpayable",
      "type": "constructor",
      "signature": "constructor"
    },
    {
      "constant": false,
      "inputs": [
        {
          "name": "addAtIndex",
          "type": "uint256"
        },
        {
          "name": "_itemName",
          "type": "bytes32"
        },
        {
          "name": "_itemDescription",
          "type": "bytes32"
        },
        {
          "name": "_optionNames",
          "type": "bytes32[]"
        },
        {
          "name": "_optionPrices",
          "type": "uint256[]"
        }
      ],
      "name": "addEntry",
      "outputs": [
        {
          "name": "",
          "type": "bool"
        }
      ],
      "payable": false,
      "stateMutability": "nonpayable",
      "type": "function",
      "signature": "0x80fdeff6"
    },
    {
      "constant": false,
      "inputs": [
        {
          "name": "itemId",
          "type": "uint256"
        }
      ],
      "name": "removeItem",
      "outputs": [
        {
          "name": "",
          "type": "bool"
        }
      ],
      "payable": false,
      "stateMutability": "nonpayable",
      "type": "function",
      "signature": "0x71329171"
    },
    {
      "constant": false,
      "inputs": [
        {
          "name": "itemId",
          "type": "uint256"
        },
        {
          "name": "addAtIndex",
          "type": "uint256"
        },
        {
          "name": "_optionName",
          "type": "bytes32"
        },
        {
          "name": "_optionPrice",
          "type": "uint256"
        }
      ],
      "name": "addOption",
      "outputs": [
        {
          "name": "",
          "type": "bool"
        }
      ],
      "payable": false,
      "stateMutability": "nonpayable",
      "type": "function",
      "signature": "0x35484952"
    },
    {
      "constant": false,
      "inputs": [
        {
          "name": "itemId",
          "type": "uint256"
        },
        {
          "name": "optionId",
          "type": "uint256"
        }
      ],
      "name": "removeOption",
      "outputs": [
        {
          "name": "",
          "type": "bool"
        }
      ],
      "payable": false,
      "stateMutability": "nonpayable",
      "type": "function",
      "signature": "0xab90dae8"
    },
    {
      "constant": false,
      "inputs": [
        {
          "name": "_id",
          "type": "uint256"
        }
      ],
      "name": "getEntry",
      "outputs": [
        {
          "name": "",
          "type": "bytes32"
        },
        {
          "name": "",
          "type": "bytes32"
        },
        {
          "name": "",
          "type": "bytes32[]"
        },
        {
          "name": "",
          "type": "uint256[]"
        }
      ],
      "payable": false,
      "stateMutability": "nonpayable",
      "type": "function",
      "signature": "0xbae78d7b"
    }
  ],
  "bytecode": "0x608060405260006001556000600255600060035534801561001f57600080fd5b5060008054600160a060020a03191633179055610db8806100416000396000f3fe6080604052600436106100a35763ffffffff7c01000000000000000000000000000000000000000000000000000000006000350416631f7b6d3281146100a857806335484952146100cf578063409e22051461011f57806348850443146101675780635b4b87921461017c578063713291711461019157806380fdeff6146101bb578063ab90dae814610302578063bae78d7b14610332578063bfb231d214610403575b600080fd5b3480156100b457600080fd5b506100bd610453565b60408051918252519081900360200190f35b3480156100db57600080fd5b5061010b600480360360808110156100f257600080fd5b5080359060208101359060408101359060600135610459565b604080519115158252519081900360200190f35b34801561012b57600080fd5b506101496004803603602081101561014257600080fd5b50356105eb565b60408051938452602084019290925282820152519081900360600190f35b34801561017357600080fd5b506100bd61060c565b34801561018857600080fd5b506100bd610612565b34801561019d57600080fd5b5061010b600480360360208110156101b457600080fd5b5035610618565b3480156101c757600080fd5b5061010b600480360360a08110156101de57600080fd5b8135916020810135916040820135919081019060808101606082013564010000000081111561020c57600080fd5b82018360208201111561021e57600080fd5b8035906020019184602083028401116401000000008311171561024057600080fd5b919080806020026020016040519081016040528093929190818152602001838360200280828437600092019190915250929594936020810193503591505064010000000081111561029057600080fd5b8201836020820111156102a257600080fd5b803590602001918460208302840111640100000000831117156102c457600080fd5b919080806020026020016040519081016040528093929190818152602001838360200280828437600092019190915250929550610711945050505050565b34801561030e57600080fd5b5061010b6004803603604081101561032557600080fd5b5080359060200135610a39565b34801561033e57600080fd5b5061035c6004803603602081101561035557600080fd5b5035610b61565b604051808581526020018481526020018060200180602001838103835285818151815260200191508051906020019060200280838360005b838110156103ac578181015183820152602001610394565b50505050905001838103825284818151815260200191508051906020019060200280838360005b838110156103eb5781810151838201526020016103d3565b50505050905001965050505050505060405180910390f35b34801561040f57600080fd5b5061042d6004803603602081101561042657600080fd5b5035610cfe565b604080519485526020850193909352838301919091526060830152519081900360800190f35b60015481565b6000805473ffffffffffffffffffffffffffffffffffffffff1633146104c5576040805160e560020a62461bcd0281526020600482015260226024820152600080516020610d6d833981519152604482015260f060020a616e7502606482015290519081900360840190fd5b6104cd610d25565b84151561053c5750604080516060810182526000878152600560208181528483206003908101805486528286018a81528688018a81528354600190810180865588526004865298872088518155915198820198909855965160029097019690965554928a9052529091556105e2565b600086815260056020526040812060030154905b86600101811015610581576000828152600460205260409020548015156105775750610581565b9150600101610550565b5060408051606081018252600083815260046020818152848320805485528185018b81528587018b81526003805460019081018083558852959094529685208651815590519381019390935594516002909201919091555493905291905590505b50949350505050565b60046020526000908152604090208054600182015460029092015490919083565b60035481565b60025481565b6000805473ffffffffffffffffffffffffffffffffffffffff163314610684576040805160e560020a62461bcd0281526020600482015260226024820152600080516020610d6d833981519152604482015260f060020a616e7502606482015290519081900360840190fd5b8115156106c1575060028054600090815260056020526040812080548282556001808301849055828501849055600390920192909255915561070c565b60025460005b600184038110156106eb5760009182526005602052604090912054906001016106c7565b50600081815260056020526040808220805483529082205492909152555060015b919050565b6000805473ffffffffffffffffffffffffffffffffffffffff16331461077d576040805160e560020a62461bcd0281526020600482015260226024820152600080516020610d6d833981519152604482015260f060020a616e7502606482015290519081900360840190fd5b81518351146107fc576040805160e560020a62461bcd02815260206004820152603960248201527f746865206e756d626572206f66206f7074696f6e7320646f6573206e6f74206d60448201527f6174636820746865206e756d626572206f662070726963657300000000000000606482015290519081900360840190fd5b610804610d25565b6060604051908101604052806000815260200185600081518110151561082657fe5b90602001906020020151815260200184600081518110151561084457fe5b602090810290910181015190915260038054600190810191829055600091825260048352604091829020845181559284015183820155908301516002909201919091559091505b845181101561091f57606060405190810160405280600354815260200186838151811015156108b657fe5b90602001906020020151815260200185838151811015156108d357fe5b602090810290910181015190915260038054600190810191829055600091825260048352604091829020845181559284015183820155908301516002909201919091559092500161088b565b50610928610d45565b87151561098f57506040805160808101825260028054825260208083018a81528385018a8152600380546060870190815260018054810180825560009081526005909652979094208651815592518388015590518285015591519101559154909155610a2e565b60025460005b896001018110156109c6576000828152600560205260409020548015156109bc57506109c6565b9150600101610995565b5060408051608081018252600083815260056020818152848320805485528185018e81528587018e8152600380546060890190815260018054810180825589529690955297862087518155915182860155516002820155915191909501555493905291905590505b505095945050505050565b6000805473ffffffffffffffffffffffffffffffffffffffff163314610aa5576040805160e560020a62461bcd0281526020600482015260226024820152600080516020610d6d833981519152604482015260f060020a616e7502606482015290519081900360840190fd5b600083815260056020526040902060030154821515610af957600090815260046020908152604080832080548482556001808301869055600290920185905587855260059093529220600301559050610b5b565b60005b60018403811015610b20576000918252600460205260409091205490600101610afc565b506000908152600460205260408082208054835290822080549091558181556001808201839055600290910191909155805460001901815590505b92915050565b60025460009081906060908190835b86811015610b91576000918252600560205260409091205490600101610b70565b50610b9a610d45565b5060008181526005602090815260408083208151608081018352815481526001820154938101939093526002810154918301919091526003015460608083018290529192829181905b8015610c0357600090815260046020526040902054600190910190610be3565b81604051908082528060200260200182016040528015610c2d578160200160208202803883390190505b50945081604051908082528060200260200182016040528015610c5a578160200160208202803883390190505b509350856060015190505b8015610ce0576000818152600460205260409020600101548551869085908110610c8b57fe5b60209081029091018101919091526000828152600490915260409020600201548451859085908110610cb957fe5b60209081029091018101919091526000918252600490526040902054600190920191610c65565b50505060208301516040909301519299929850909650945092505050565b60056020526000908152604090208054600182015460028301546003909301549192909184565b604080516060810182526000808252602082018190529181019190915290565b6040805160808101825260008082526020820181905291810182905260608101919091529056fe796f7520617265206e6f7420746865206f776e6572206f662074686973206d65a165627a7a72305820f56fa84023468415e11faf9a4d47645b64ccb9ef9b485026bf6985dd9c9e83f10029",
  "source": "pragma solidity ^0.5.0;\n\ncontract Menu {\n\n  //event AddEntry(bytes32 head,uint number,bytes32 name,bytes32 next);\n\n\n  address owner;\n  uint public length = 0;//also used as nonce\n\n  struct Item{\n    uint nextItem; \n    bytes32 itemName;\n    bytes32 description;\n    uint optionsHead;\n  }\n\n  struct Option{\n    uint nextOption; \n    bytes32 optionName;\n    uint optionPrice;\n  }\n\n  uint public itemHead = 0;\n  uint public optionsHead = 0;\n  mapping (uint => Option) public options;\n  mapping (uint => Item) public items;\n\n  constructor() public{\n    owner = msg.sender;\n  }\n\n  // add item at index needs doing\n  function addEntry(uint addAtIndex, bytes32 _itemName,bytes32 _itemDescription, bytes32[] memory _optionNames, uint[] memory _optionPrices) public returns (bool){\n    require(msg.sender == owner, \"you are not the owner of this menu\");\n    require(_optionNames.length == _optionPrices.length, \"the number of options does not match the number of prices\");\n\n\n    // add the options\n    // having a next of 0 informs my code that we are at the end of this list\n    Option memory option = Option(0,_optionNames[0],_optionPrices[0]);\n    optionsHead++;\n    options[optionsHead] = option;\n\n    for(uint i = 1; i < _optionNames.length; i++){\n      option = Option(optionsHead,_optionNames[i],_optionPrices[i]);\n      optionsHead++;\n      options[optionsHead] = option;\n    }\n\n    Item memory item;\n    if(addAtIndex == 0){\n      item = Item(itemHead,_itemName,_itemDescription,optionsHead);\n      length++;\n      items[length] = item;\n      itemHead = length;\n    }\n    else{\n      uint insertAfter = itemHead;\n      for(uint i = 0; i < addAtIndex + 1; i++){\n        uint index = items[insertAfter].nextItem;\n        if(index == 0)\n          break; // if you hit the end of the list, just add it to the end\n        insertAfter = index;\n      }\n      item = Item(items[insertAfter].nextItem,_itemName,_itemDescription,optionsHead);\n\n      length++;\n      items[length] = item;\n      items[insertAfter].nextItem = length;\n    }\n\n    \n  }\n\n  function removeItem(uint itemId) public returns (bool){\n    require(msg.sender == owner, \"you are not the owner of this menu\");\n\n    // if the item is the first item, simple change the head \n    if(itemId == 0){\n     uint newItemHead = items[itemHead].nextItem;\n     delete items[itemHead];\n     itemHead = newItemHead;\n     return true;\n    }\n\n\n    uint itemToUpdate = itemHead;\n    for(uint i = 0; i < itemId - 1; i++){\n      itemToUpdate = items[itemToUpdate].nextItem;\n    }\n    uint itemToDelete = items[itemToUpdate].nextItem;\n    items[itemToUpdate].nextItem = items[itemToDelete].nextItem;\n    return true;\n  }\n\n  function addOption(uint itemId, uint addAtIndex, bytes32 _optionName, uint _optionPrice) public returns(bool){\n    require(msg.sender == owner, \"you are not the owner of this menu\");\n\n    Option memory option;\n\n\n    if(addAtIndex == 0){\n      option = Option(items[itemId].optionsHead,_optionName,_optionPrice);\n      optionsHead++;\n      options[optionsHead] = option;\n      items[itemId].optionsHead = optionsHead;\n    }\n\n    else{\n      // get the pointer of the item currently at the index\n      uint insertAfter = items[itemId].optionsHead;\n      for(uint i = 0; i < addAtIndex + 1; i++){\n        uint index = options[insertAfter].nextOption;\n        if(index == 0)\n          break; // if you hit the end of the list, just add it to the end\n        insertAfter = index;\n      }\n      option = Option(options[insertAfter].nextOption,_optionName,_optionPrice);\n\n      optionsHead++;\n      options[optionsHead] = option;\n\n      options[insertAfter].nextOption = optionsHead;\n    }\n  }\n\n  function removeOption(uint itemId, uint optionId) public returns(bool){\n    require(msg.sender == owner, \"you are not the owner of this menu\");\n\n    uint optionToUpdate = items[itemId].optionsHead;\n\n    if(optionId == 0){\n     uint newOptionsHead = options[optionToUpdate].nextOption;\n     delete options[optionToUpdate];\n     items[itemId].optionsHead = newOptionsHead;\n     return true;\n    }\n\n    for(uint i = 0; i < optionId - 1; i++){\n      optionToUpdate = options[optionToUpdate].nextOption;\n    }\n    uint optionToDelete = options[optionToUpdate].nextOption;\n    options[optionToUpdate].nextOption = options[optionToDelete].nextOption;\n    delete options[optionToDelete];\n    length--;\n    return true;\n  }\n\n  //needed for external contract access to struct\n  function getEntry(uint _id) public returns (bytes32,bytes32,bytes32[] memory,uint[] memory){\n    uint itemIndex = itemHead;\n    \n    for(uint i = 0; i < _id; i++){\n      itemIndex = items[itemIndex].nextItem;\n    }\n\n    Item memory itemToReturn = items[itemIndex];\n\n    bytes32[] memory optionNamesToReturn;\n    uint[] memory optionPricesToReturn;\n    uint counter = 0;\n    uint optionCount = 0;\n    uint index = itemToReturn.optionsHead;\n    while(index != 0){\n      index = options[index].nextOption;\n      optionCount++;\n    }\n    optionNamesToReturn = new bytes32[](optionCount);\n    optionPricesToReturn = new uint[](optionCount);\n\n    index = itemToReturn.optionsHead;\n\n    while(index != 0){\n      optionNamesToReturn[counter] = options[index].optionName;\n      optionPricesToReturn[counter] = options[index].optionPrice;\n      counter++;\n      index = options[index].nextOption;\n    }\n    return (itemToReturn.itemName,itemToReturn.description,optionNamesToReturn,optionPricesToReturn);\n  }\n\n}",
  "sourcePath": "/home/george/Documents/WorkSpace/TryAByte/contracts/Menu.sol",
  "compiler": {
    "name": "solc",
    "version": "0.5.0+commit.1d4f565a.Emscripten.clang"
  },
  "schemaVersion": "3.0.6",
  "updatedAt": "2019-11-26T13:09:41.139Z",
  "devdoc": {
    "methods": {}
  },
  "userdoc": {
    "methods": {}
  }
}