{
  "contractName": "Menu",
  "abi": [
    {
      "inputs": [
        {
          "internalType": "address",
          "name": "_owner",
          "type": "address"
        }
      ],
      "payable": false,
      "stateMutability": "nonpayable",
      "type": "constructor"
    },
    {
      "anonymous": false,
      "inputs": [
        {
          "indexed": false,
          "internalType": "uint256",
          "name": "itemId",
          "type": "uint256"
        },
        {
          "indexed": false,
          "internalType": "uint256",
          "name": "addAtIndex",
          "type": "uint256"
        },
        {
          "indexed": false,
          "internalType": "bytes32",
          "name": "optionName",
          "type": "bytes32"
        },
        {
          "indexed": false,
          "internalType": "uint256",
          "name": "optionPrice",
          "type": "uint256"
        }
      ],
      "name": "addOptionEvent",
      "type": "event"
    },
    {
      "anonymous": false,
      "inputs": [
        {
          "indexed": false,
          "internalType": "string",
          "name": "message",
          "type": "string"
        }
      ],
      "name": "debug",
      "type": "event"
    },
    {
      "anonymous": false,
      "inputs": [
        {
          "indexed": false,
          "internalType": "uint256",
          "name": "number",
          "type": "uint256"
        }
      ],
      "name": "debuguint",
      "type": "event"
    },
    {
      "constant": true,
      "inputs": [],
      "name": "menu",
      "outputs": [
        {
          "internalType": "uint256",
          "name": "itemTop",
          "type": "uint256"
        },
        {
          "internalType": "uint256",
          "name": "itemHead",
          "type": "uint256"
        },
        {
          "internalType": "uint256",
          "name": "optionsHead",
          "type": "uint256"
        },
        {
          "internalType": "uint256",
          "name": "extraHead",
          "type": "uint256"
        }
      ],
      "payable": false,
      "stateMutability": "view",
      "type": "function"
    },
    {
      "constant": true,
      "inputs": [],
      "name": "owner",
      "outputs": [
        {
          "internalType": "address",
          "name": "",
          "type": "address"
        }
      ],
      "payable": false,
      "stateMutability": "view",
      "type": "function"
    },
    {
      "constant": true,
      "inputs": [
        {
          "internalType": "uint256",
          "name": "_id",
          "type": "uint256"
        }
      ],
      "name": "getExtra",
      "outputs": [
        {
          "internalType": "bytes32",
          "name": "",
          "type": "bytes32"
        },
        {
          "internalType": "uint256",
          "name": "",
          "type": "uint256"
        },
        {
          "internalType": "bool",
          "name": "",
          "type": "bool"
        }
      ],
      "payable": false,
      "stateMutability": "view",
      "type": "function"
    },
    {
      "constant": true,
      "inputs": [
        {
          "internalType": "uint256",
          "name": "_id",
          "type": "uint256"
        }
      ],
      "name": "getOption",
      "outputs": [
        {
          "internalType": "bytes32",
          "name": "",
          "type": "bytes32"
        },
        {
          "internalType": "uint256",
          "name": "",
          "type": "uint256"
        },
        {
          "internalType": "bool",
          "name": "",
          "type": "bool"
        }
      ],
      "payable": false,
      "stateMutability": "view",
      "type": "function"
    },
    {
      "constant": true,
      "inputs": [],
      "name": "length",
      "outputs": [
        {
          "internalType": "uint256",
          "name": "",
          "type": "uint256"
        }
      ],
      "payable": false,
      "stateMutability": "view",
      "type": "function"
    },
    {
      "constant": true,
      "inputs": [],
      "name": "getMenuLength",
      "outputs": [
        {
          "internalType": "uint256",
          "name": "",
          "type": "uint256"
        }
      ],
      "payable": false,
      "stateMutability": "view",
      "type": "function"
    },
    {
      "constant": true,
      "inputs": [
        {
          "internalType": "uint256",
          "name": "_id",
          "type": "uint256"
        }
      ],
      "name": "getEntry",
      "outputs": [
        {
          "internalType": "bytes32",
          "name": "",
          "type": "bytes32"
        },
        {
          "internalType": "bytes32",
          "name": "",
          "type": "bytes32"
        },
        {
          "internalType": "uint256[]",
          "name": "",
          "type": "uint256[]"
        },
        {
          "internalType": "uint256[]",
          "name": "",
          "type": "uint256[]"
        }
      ],
      "payable": false,
      "stateMutability": "view",
      "type": "function"
    },
    {
      "constant": true,
      "inputs": [
        {
          "internalType": "uint256",
          "name": "itemId",
          "type": "uint256"
        },
        {
          "internalType": "uint256",
          "name": "optionId",
          "type": "uint256"
        },
        {
          "internalType": "uint256[]",
          "name": "extraIds",
          "type": "uint256[]"
        }
      ],
      "name": "getOrderItem",
      "outputs": [
        {
          "internalType": "bytes32",
          "name": "",
          "type": "bytes32"
        },
        {
          "internalType": "bytes32",
          "name": "",
          "type": "bytes32"
        },
        {
          "internalType": "bytes32",
          "name": "",
          "type": "bytes32"
        },
        {
          "internalType": "uint256",
          "name": "",
          "type": "uint256"
        },
        {
          "internalType": "bytes32[]",
          "name": "",
          "type": "bytes32[]"
        },
        {
          "internalType": "uint256[]",
          "name": "",
          "type": "uint256[]"
        }
      ],
      "payable": false,
      "stateMutability": "view",
      "type": "function"
    },
    {
      "constant": true,
      "inputs": [
        {
          "internalType": "uint256",
          "name": "_id",
          "type": "uint256"
        }
      ],
      "name": "getEntryIndexingInfo",
      "outputs": [
        {
          "internalType": "uint256",
          "name": "nextitem",
          "type": "uint256"
        }
      ],
      "payable": false,
      "stateMutability": "view",
      "type": "function"
    },
    {
      "constant": true,
      "inputs": [],
      "name": "getItemHead",
      "outputs": [
        {
          "internalType": "uint256",
          "name": "nextitem",
          "type": "uint256"
        }
      ],
      "payable": false,
      "stateMutability": "view",
      "type": "function"
    },
    {
      "constant": false,
      "inputs": [
        {
          "internalType": "uint256[]",
          "name": "integers",
          "type": "uint256[]"
        },
        {
          "internalType": "uint256[]",
          "name": "integersFlags",
          "type": "uint256[]"
        },
        {
          "internalType": "bytes32[]",
          "name": "strings",
          "type": "bytes32[]"
        },
        {
          "internalType": "uint256[]",
          "name": "stringsFlags",
          "type": "uint256[]"
        }
      ],
      "name": "updateMenu",
      "outputs": [
        {
          "internalType": "bool",
          "name": "",
          "type": "bool"
        }
      ],
      "payable": false,
      "stateMutability": "nonpayable",
      "type": "function"
    },
    {
      "constant": false,
      "inputs": [
        {
          "internalType": "uint256[]",
          "name": "addAtIndex",
          "type": "uint256[]"
        },
        {
          "internalType": "bytes32[]",
          "name": "itemNames",
          "type": "bytes32[]"
        },
        {
          "internalType": "bytes32[]",
          "name": "itemDescriptions",
          "type": "bytes32[]"
        }
      ],
      "name": "addMultipleItems",
      "outputs": [],
      "payable": false,
      "stateMutability": "nonpayable",
      "type": "function"
    },
    {
      "constant": false,
      "inputs": [
        {
          "internalType": "uint256[]",
          "name": "itemIds",
          "type": "uint256[]"
        }
      ],
      "name": "removeMultipleItems",
      "outputs": [],
      "payable": false,
      "stateMutability": "nonpayable",
      "type": "function"
    },
    {
      "constant": false,
      "inputs": [
        {
          "internalType": "bytes32[]",
          "name": "_optionNames",
          "type": "bytes32[]"
        },
        {
          "internalType": "uint256[]",
          "name": "_prices",
          "type": "uint256[]"
        }
      ],
      "name": "addOptions",
      "outputs": [],
      "payable": false,
      "stateMutability": "nonpayable",
      "type": "function"
    },
    {
      "constant": false,
      "inputs": [
        {
          "internalType": "uint256[]",
          "name": "optionIds",
          "type": "uint256[]"
        }
      ],
      "name": "setOptionsInactive",
      "outputs": [],
      "payable": false,
      "stateMutability": "nonpayable",
      "type": "function"
    },
    {
      "constant": false,
      "inputs": [
        {
          "internalType": "uint256[]",
          "name": "_itemIds",
          "type": "uint256[]"
        },
        {
          "internalType": "uint256[]",
          "name": "optionIds",
          "type": "uint256[]"
        },
        {
          "internalType": "uint256[]",
          "name": "flags",
          "type": "uint256[]"
        }
      ],
      "name": "assignOptions",
      "outputs": [],
      "payable": false,
      "stateMutability": "nonpayable",
      "type": "function"
    },
    {
      "constant": false,
      "inputs": [
        {
          "internalType": "uint256[]",
          "name": "_itemIds",
          "type": "uint256[]"
        },
        {
          "internalType": "uint256[]",
          "name": "optionIds",
          "type": "uint256[]"
        },
        {
          "internalType": "uint256[]",
          "name": "flags",
          "type": "uint256[]"
        }
      ],
      "name": "unassignOptions",
      "outputs": [],
      "payable": false,
      "stateMutability": "nonpayable",
      "type": "function"
    },
    {
      "constant": false,
      "inputs": [
        {
          "internalType": "bytes32[]",
          "name": "extraNames",
          "type": "bytes32[]"
        },
        {
          "internalType": "uint256[]",
          "name": "extraPrice",
          "type": "uint256[]"
        }
      ],
      "name": "addExtras",
      "outputs": [],
      "payable": false,
      "stateMutability": "nonpayable",
      "type": "function"
    },
    {
      "constant": false,
      "inputs": [
        {
          "internalType": "uint256[]",
          "name": "_ids",
          "type": "uint256[]"
        }
      ],
      "name": "setExtrasInactive",
      "outputs": [],
      "payable": false,
      "stateMutability": "nonpayable",
      "type": "function"
    },
    {
      "constant": false,
      "inputs": [
        {
          "internalType": "uint256[]",
          "name": "_itemIds",
          "type": "uint256[]"
        },
        {
          "internalType": "uint256[]",
          "name": "_extrasIds",
          "type": "uint256[]"
        },
        {
          "internalType": "uint256[]",
          "name": "flags",
          "type": "uint256[]"
        }
      ],
      "name": "assignExtras",
      "outputs": [],
      "payable": false,
      "stateMutability": "nonpayable",
      "type": "function"
    },
    {
      "constant": false,
      "inputs": [
        {
          "internalType": "uint256[]",
          "name": "_itemIds",
          "type": "uint256[]"
        },
        {
          "internalType": "uint256[]",
          "name": "_extrasIds",
          "type": "uint256[]"
        },
        {
          "internalType": "uint256[]",
          "name": "flags",
          "type": "uint256[]"
        }
      ],
      "name": "unassignExtras",
      "outputs": [],
      "payable": false,
      "stateMutability": "nonpayable",
      "type": "function"
    },
    {
      "constant": false,
      "inputs": [
        {
          "internalType": "uint256",
          "name": "index1",
          "type": "uint256"
        },
        {
          "internalType": "uint256",
          "name": "index2",
          "type": "uint256"
        }
      ],
      "name": "swapItems",
      "outputs": [],
      "payable": false,
      "stateMutability": "nonpayable",
      "type": "function"
    },
    {
      "constant": false,
      "inputs": [
        {
          "internalType": "uint256",
          "name": "_id",
          "type": "uint256"
        },
        {
          "internalType": "uint256",
          "name": "index1",
          "type": "uint256"
        },
        {
          "internalType": "uint256",
          "name": "index2",
          "type": "uint256"
        }
      ],
      "name": "swapOptions",
      "outputs": [],
      "payable": false,
      "stateMutability": "nonpayable",
      "type": "function"
    },
    {
      "constant": true,
      "inputs": [
        {
          "internalType": "uint256[]",
          "name": "integers",
          "type": "uint256[]"
        },
        {
          "internalType": "uint256",
          "name": "itemCount",
          "type": "uint256"
        }
      ],
      "name": "getOrderPrice",
      "outputs": [
        {
          "internalType": "uint256",
          "name": "",
          "type": "uint256"
        }
      ],
      "payable": false,
      "stateMutability": "view",
      "type": "function"
    }
  ],
  "bytecode": "0x608060405234801561001057600080fd5b506040516126433803806126438339818101604052602081101561003357600080fd5b5051600080546001600160a01b039092166001600160a01b0319909216919091179055600160038190556004556125d48061006f6000396000f3fe608060405234801561001057600080fd5b50600436106101585760003560e01c80638fb0f14c116100c3578063ca497d5c1161007c578063ca497d5c14610e1d578063d1005e3914610ebe578063e40c8a3214611063578063e4d8a2a614611208578063e840515414611231578063f0439f71146113d657610158565b80638fb0f14c14610945578063a6bd92e3146109e6578063b0e7722b14610b09578063b21dc38a14610cae578063bae78d7b14610d51578063c1c4d10214610e1557610158565b806325b5c4f91161011557806325b5c4f9146103a35780636287dcc6146104c657806364f2eacd146105675780638374ad34146107a2578063893bb0bf146109045780638da5cb5b1461092157610158565b80630545ba291461015d5780630b9a02c514610182578063125ba977146101b15780631ce5e9a6146101b95780631e516e05146101f65780631f7b6d321461039b575b600080fd5b6101806004803603604081101561017357600080fd5b5080359060200135611404565b005b61019f6004803603602081101561019857600080fd5b50356114c9565b60408051918252519081900360200190f35b61019f611557565b6101d6600480360360208110156101cf57600080fd5b50356115dc565b604080519384526020840192909252151582820152519081900360600190f35b6101806004803603606081101561020c57600080fd5b810190602081018135600160201b81111561022657600080fd5b82018360208201111561023857600080fd5b803590602001918460208302840111600160201b8311171561025957600080fd5b9190808060200260200160405190810160405280939291908181526020018383602002808284376000920191909152509295949360208101935035915050600160201b8111156102a857600080fd5b8201836020820111156102ba57600080fd5b803590602001918460208302840111600160201b831117156102db57600080fd5b9190808060200260200160405190810160405280939291908181526020018383602002808284376000920191909152509295949360208101935035915050600160201b81111561032a57600080fd5b82018360208201111561033c57600080fd5b803590602001918460208302840111600160201b8311171561035d57600080fd5b919080806020026020016040519081016040528093929190818152602001838360200280828437600092019190915250929550611601945050505050565b61019f611759565b610180600480360360408110156103b957600080fd5b810190602081018135600160201b8111156103d357600080fd5b8201836020820111156103e557600080fd5b803590602001918460208302840111600160201b8311171561040657600080fd5b9190808060200260200160405190810160405280939291908181526020018383602002808284376000920191909152509295949360208101935035915050600160201b81111561045557600080fd5b82018360208201111561046757600080fd5b803590602001918460208302840111600160201b8311171561048857600080fd5b91908080602002602001604051908101604052809392919081815260200183836020028082843760009201919091525092955061175f945050505050565b610180600480360360208110156104dc57600080fd5b810190602081018135600160201b8111156104f657600080fd5b82018360208201111561050857600080fd5b803590602001918460208302840111600160201b8311171561052957600080fd5b919080806020026020016040519081016040528093929190818152602001838360200280828437600092019190915250929550611854945050505050565b61078e6004803603608081101561057d57600080fd5b810190602081018135600160201b81111561059757600080fd5b8201836020820111156105a957600080fd5b803590602001918460208302840111600160201b831117156105ca57600080fd5b9190808060200260200160405190810160405280939291908181526020018383602002808284376000920191909152509295949360208101935035915050600160201b81111561061957600080fd5b82018360208201111561062b57600080fd5b803590602001918460208302840111600160201b8311171561064c57600080fd5b9190808060200260200160405190810160405280939291908181526020018383602002808284376000920191909152509295949360208101935035915050600160201b81111561069b57600080fd5b8201836020820111156106ad57600080fd5b803590602001918460208302840111600160201b831117156106ce57600080fd5b9190808060200260200160405190810160405280939291908181526020018383602002808284376000920191909152509295949360208101935035915050600160201b81111561071d57600080fd5b82018360208201111561072f57600080fd5b803590602001918460208302840111600160201b8311171561075057600080fd5b919080806020026020016040519081016040528093929190818152602001838360200280828437600092019190915250929550611904945050505050565b604080519115158252519081900360200190f35b61084f600480360360608110156107b857600080fd5b813591602081013591810190606081016040820135600160201b8111156107de57600080fd5b8201836020820111156107f057600080fd5b803590602001918460208302840111600160201b8311171561081157600080fd5b919080806020026020016040519081016040528093929190818152602001838360200280828437600092019190915250929550611abb945050505050565b604051808781526020018681526020018581526020018481526020018060200180602001838103835285818151815260200191508051906020019060200280838360005b838110156108ab578181015183820152602001610893565b50505050905001838103825284818151815260200191508051906020019060200280838360005b838110156108ea5781810151838201526020016108d2565b505050509050019850505050505050505060405180910390f35b6101d66004803603602081101561091a57600080fd5b5035611cec565b610929611d11565b604080516001600160a01b039092168252519081900360200190f35b6101806004803603602081101561095b57600080fd5b810190602081018135600160201b81111561097557600080fd5b82018360208201111561098757600080fd5b803590602001918460208302840111600160201b831117156109a857600080fd5b919080806020026020016040519081016040528093929190818152602001838360200280828437600092019190915250929550611d20945050505050565b610180600480360360408110156109fc57600080fd5b810190602081018135600160201b811115610a1657600080fd5b820183602082011115610a2857600080fd5b803590602001918460208302840111600160201b83111715610a4957600080fd5b9190808060200260200160405190810160405280939291908181526020018383602002808284376000920191909152509295949360208101935035915050600160201b811115610a9857600080fd5b820183602082011115610aaa57600080fd5b803590602001918460208302840111600160201b83111715610acb57600080fd5b919080806020026020016040519081016040528093929190818152602001838360200280828437600092019190915250929550611dfb945050505050565b61018060048036036060811015610b1f57600080fd5b810190602081018135600160201b811115610b3957600080fd5b820183602082011115610b4b57600080fd5b803590602001918460208302840111600160201b83111715610b6c57600080fd5b9190808060200260200160405190810160405280939291908181526020018383602002808284376000920191909152509295949360208101935035915050600160201b811115610bbb57600080fd5b820183602082011115610bcd57600080fd5b803590602001918460208302840111600160201b83111715610bee57600080fd5b9190808060200260200160405190810160405280939291908181526020018383602002808284376000920191909152509295949360208101935035915050600160201b811115610c3d57600080fd5b820183602082011115610c4f57600080fd5b803590602001918460208302840111600160201b83111715610c7057600080fd5b919080806020026020016040519081016040528093929190818152602001838360200280828437600092019190915250929550611e8a945050505050565b61019f60048036036040811015610cc457600080fd5b810190602081018135600160201b811115610cde57600080fd5b820183602082011115610cf057600080fd5b803590602001918460208302840111600160201b83111715610d1157600080fd5b9190808060200260200160405190810160405280939291908181526020018383602002808284376000920191909152509295505091359250611f1c915050565b610d6e60048036036020811015610d6757600080fd5b5035612028565b604051808581526020018481526020018060200180602001838103835285818151815260200191508051906020019060200280838360005b83811015610dbe578181015183820152602001610da6565b50505050905001838103825284818151815260200191508051906020019060200280838360005b83811015610dfd578181015183820152602001610de5565b50505050905001965050505050505060405180910390f35b61019f6121ef565b61018060048036036020811015610e3357600080fd5b810190602081018135600160201b811115610e4d57600080fd5b820183602082011115610e5f57600080fd5b803590602001918460208302840111600160201b83111715610e8057600080fd5b919080806020026020016040519081016040528093929190818152602001838360200280828437600092019190915250929550612243945050505050565b61018060048036036060811015610ed457600080fd5b810190602081018135600160201b811115610eee57600080fd5b820183602082011115610f0057600080fd5b803590602001918460208302840111600160201b83111715610f2157600080fd5b9190808060200260200160405190810160405280939291908181526020018383602002808284376000920191909152509295949360208101935035915050600160201b811115610f7057600080fd5b820183602082011115610f8257600080fd5b803590602001918460208302840111600160201b83111715610fa357600080fd5b9190808060200260200160405190810160405280939291908181526020018383602002808284376000920191909152509295949360208101935035915050600160201b811115610ff257600080fd5b82018360208201111561100457600080fd5b803590602001918460208302840111600160201b8311171561102557600080fd5b9190808060200260200160405190810160405280939291908181526020018383602002808284376000920191909152509295506122c8945050505050565b6101806004803603606081101561107957600080fd5b810190602081018135600160201b81111561109357600080fd5b8201836020820111156110a557600080fd5b803590602001918460208302840111600160201b831117156110c657600080fd5b9190808060200260200160405190810160405280939291908181526020018383602002808284376000920191909152509295949360208101935035915050600160201b81111561111557600080fd5b82018360208201111561112757600080fd5b803590602001918460208302840111600160201b8311171561114857600080fd5b9190808060200260200160405190810160405280939291908181526020018383602002808284376000920191909152509295949360208101935035915050600160201b81111561119757600080fd5b8201836020820111156111a957600080fd5b803590602001918460208302840111600160201b831117156111ca57600080fd5b919080806020026020016040519081016040528093929190818152602001838360200280828437600092019190915250929550612351945050505050565b6101806004803603606081101561121e57600080fd5b50803590602081013590604001356123e3565b6101806004803603606081101561124757600080fd5b810190602081018135600160201b81111561126157600080fd5b82018360208201111561127357600080fd5b803590602001918460208302840111600160201b8311171561129457600080fd5b9190808060200260200160405190810160405280939291908181526020018383602002808284376000920191909152509295949360208101935035915050600160201b8111156112e357600080fd5b8201836020820111156112f557600080fd5b803590602001918460208302840111600160201b8311171561131657600080fd5b9190808060200260200160405190810160405280939291908181526020018383602002808284376000920191909152509295949360208101935035915050600160201b81111561136557600080fd5b82018360208201111561137757600080fd5b803590602001918460208302840111600160201b8311171561139857600080fd5b919080806020026020016040519081016040528093929190818152602001838360200280828437600092019190915250929550612493945050505050565b6113de61251c565b604080519485526020850193909352838301919091526060830152519081900360800190f35b6000546001600160a01b0316331461144d5760405162461bcd60e51b815260040180806020018281038252602281526020018061257e6022913960400191505060405180910390fd5b60408051632f75e6e760e11b8152600160048201526024810184905260448101839052905173__menuHelper____________________________91635eebcdce916064808301926000929190829003018186803b1580156114ad57600080fd5b505af41580156114c1573d6000803e3d6000fd5b505050505050565b6000600173__menuHelper____________________________6374f811479091846040518363ffffffff1660e01b8152600401808381526020018281526020019250505060206040518083038186803b15801561152557600080fd5b505af4158015611539573d6000803e3d6000fd5b505050506040513d602081101561154f57600080fd5b505192915050565b6000600173__menuHelper____________________________63f36cf61090916040518263ffffffff1660e01b81526004018082815260200191505060206040518083038186803b1580156115ab57600080fd5b505af41580156115bf573d6000803e3d6000fd5b505050506040513d60208110156115d557600080fd5b5051905090565b600090815260056020526040902080546001820154600290920154909260ff90911690565b6000546001600160a01b0316331461161857600080fd5b604051631ee24e7760e01b815260016004820181815260806024840190815286516084850152865173__menuHelper____________________________94631ee24e7794938993899389936044810191606482019160a401906020808a01910280838360005b8381101561169657818101518382015260200161167e565b50505050905001848103835286818151815260200191508051906020019060200280838360005b838110156116d55781810151838201526020016116bd565b50505050905001848103825285818151815260200191508051906020019060200280838360005b838110156117145781810151838201526020016116fc565b5050505090500197505050505050505060006040518083038186803b15801561173c57600080fd5b505af4158015611750573d6000803e3d6000fd5b50505050505050565b60015490565b6000546001600160a01b0316331461177657600080fd5b600173__menuHelper____________________________631144d8cc909184846040518463ffffffff1660e01b8152600401808481526020018060200180602001838103835285818151815260200191508051906020019060200280838360005b838110156117ef5781810151838201526020016117d7565b50505050905001838103825284818151815260200191508051906020019060200280838360005b8381101561182e578181015183820152602001611816565b505050509050019550505050505060006040518083038186803b1580156114ad57600080fd5b60408051630733405f60e01b81526001600482018181526024830193845284516044840152845173__menuHelper____________________________94630733405f948793926064909101906020808601910280838360005b838110156118c55781810151838201526020016118ad565b50505050905001935050505060006040518083038186803b1580156118e957600080fd5b505af41580156118fd573d6000803e3d6000fd5b5050505050565b600080546001600160a01b0316331461191c57600080fd5b600173__menuHelper____________________________63412362179091878787876040518663ffffffff1660e01b81526004018086815260200180602001806020018060200180602001858103855289818151815260200191508051906020019060200280838360005b8381101561199f578181015183820152602001611987565b50505050905001858103845288818151815260200191508051906020019060200280838360005b838110156119de5781810151838201526020016119c6565b50505050905001858103835287818151815260200191508051906020019060200280838360005b83811015611a1d578181015183820152602001611a05565b50505050905001858103825286818151815260200191508051906020019060200280838360005b83811015611a5c578181015183820152602001611a44565b50505050905001995050505050505050505060206040518083038186803b158015611a8657600080fd5b505af4158015611a9a573d6000803e3d6000fd5b505050506040513d6020811015611ab057600080fd5b509095945050505050565b600080600080606080600173__menuHelper____________________________630a652e4390918b8b8b6040518563ffffffff1660e01b81526004018085815260200184815260200183815260200180602001828103825283818151815260200191508051906020019060200280838360005b83811015611b46578181015183820152602001611b2e565b505050509050019550505050505060006040518083038186803b158015611b6c57600080fd5b505af4158015611b80573d6000803e3d6000fd5b505050506040513d6000823e601f3d908101601f1916820160405260c0811015611ba957600080fd5b8151602083015160408085015160608601516080870180519351959794969295919491939282019284600160201b821115611be357600080fd5b908301906020820185811115611bf857600080fd5b82518660208202830111600160201b82111715611c1457600080fd5b82525081516020918201928201910280838360005b83811015611c41578181015183820152602001611c29565b5050505090500160405260200180516040519392919084600160201b821115611c6957600080fd5b908301906020820185811115611c7e57600080fd5b82518660208202830111600160201b82111715611c9a57600080fd5b82525081516020918201928201910280838360005b83811015611cc7578181015183820152602001611caf565b5050505090500160405250505095509550955095509550955093975093979195509350565b600090815260076020526040902080546001820154600290920154909260ff90911690565b6000546001600160a01b031681565b6000546001600160a01b03163314611d3757600080fd5b60408051631820e07b60e11b81526001600482018181526024830193845284516044840152845173__menuHelper____________________________94633041c0f6948793926064909101906020808601910280838360005b83811015611da8578181015183820152602001611d90565b50505050905001935050505060206040518083038186803b158015611dcc57600080fd5b505af4158015611de0573d6000803e3d6000fd5b505050506040513d6020811015611df657600080fd5b505050565b6000546001600160a01b03163314611e1257600080fd5b6040516308f5487d60e11b815260016004820181815260606024840190815285516064850152855173__menuHelper____________________________946311ea90fa9493889388939192909160448201916084019060208088019102808383600083156117ef5781810151838201526020016117d7565b6000546001600160a01b03163314611ea157600080fd5b60405163753810c760e01b815260016004820181815260806024840190815286516084850152865173__menuHelper____________________________9463753810c794938993899389936044810191606482019160a401906020808a0191028083836000831561169657818101518382015260200161167e565b600080805b8381101561202057600080611f53878481518110611f3b57fe5b6020026020010151600161252b90919063ffffffff16565b9092509050600181151514611f6757600080fd5b600160040160008888860181518110611f7c57fe5b602002602001015181526020019081526020016000206001015484019350600080905060008090505b8888600202860181518110611fb657fe5b602002602001015181101561201057600160060160008a8a600302850181518110611fdd57fe5b60200260200101518152602001908152602001600020600101548601955081806001019250508080600101915050611fa5565b505060019092019150611f219050565b509392505050565b600080606080600173__menuHelper____________________________6336bf00579091876040518363ffffffff1660e01b8152600401808381526020018281526020019250505060006040518083038186803b15801561208857600080fd5b505af415801561209c573d6000803e3d6000fd5b505050506040513d6000823e601f3d908101601f1916820160405260808110156120c557600080fd5b81516020830151604080850180519151939592948301929184600160201b8211156120ef57600080fd5b90830190602082018581111561210457600080fd5b82518660208202830111600160201b8211171561212057600080fd5b82525081516020918201928201910280838360005b8381101561214d578181015183820152602001612135565b5050505090500160405260200180516040519392919084600160201b82111561217557600080fd5b90830190602082018581111561218a57600080fd5b82518660208202830111600160201b821117156121a657600080fd5b82525081516020918201928201910280838360005b838110156121d35781810151838201526020016121bb565b5050505090500160405250505093509350935093509193509193565b6000600173__menuHelper____________________________63cf17773590916040518263ffffffff1660e01b81526004018082815260200191505060206040518083038186803b1580156115ab57600080fd5b6000546001600160a01b0316331461225a57600080fd5b6040805163b49a2e4960e01b81526001600482018181526024830193845284516044840152845173__menuHelper____________________________9463b49a2e499487939260649091019060208086019102808383600083156118c55781810151838201526020016118ad565b82518151146122d657600080fd5b6040516389ac324360e01b815260016004820181815260806024840190815286516084850152865173__menuHelper____________________________946389ac324394938993899389936044810191606482019160a401906020808a0191028083836000831561169657818101518382015260200161167e565b6000546001600160a01b0316331461236857600080fd5b604051636f627d2360e11b815260016004820181815260806024840190815286516084850152865173__menuHelper____________________________9463dec4fa4694938993899389936044810191606482019160a401906020808a0191028083836000831561169657818101518382015260200161167e565b6000546001600160a01b0316331461242c5760405162461bcd60e51b815260040180806020018281038252602281526020018061257e6022913960400191505060405180910390fd5b60408051632f0ebdbf60e11b815260016004820152602481018590526044810184905260648101839052905173__menuHelper____________________________91635e1d7b7e916084808301926000929190829003018186803b15801561173c57600080fd5b82518151146124a157600080fd5b6040516301617f1560e61b815260016004820181815260806024840190815286516084850152865173__menuHelper____________________________9463585fc54094938993899389936044810191606482019160a401906020808a0191028083836000831561169657818101518382015260200161167e565b60015460025460035460045484565b60018201546000908190815b8481101561256e5760009182526005860160205260409091205490816125665750600092508291506125769050565b600101612537565b509150600190505b925092905056fe796f7520617265206e6f7420746865206f776e6572206f662074686973206d656e75a265627a7a72315820aea339ad19ac178d2a33df880daaf7acb0c607b4a296eed09ace84448104e9b464736f6c634300050c0032",
  "source": "pragma solidity ^0.5.0;\n\nimport \"./menuHelper.sol\";\nimport \"./uintArrayExtension.sol\";\nimport \"./bytes32ArrayExtension.sol\";\n\ncontract Menu {\n\n  using menuHelper for menuHelper.menuStruct;\n  using uintArrayExtension for uint[];\n  using bytes32ArrayExtension for bytes32[];\n\n  //event AddEntry(bytes32 head,uint number,bytes32 name,bytes32 next);\n  event addOptionEvent(uint itemId, uint addAtIndex, bytes32 optionName, uint optionPrice);\n  event debug(string message);\n  event debuguint(uint number);\n\n  address public owner;\n  \n  menuHelper.menuStruct public menu;\n\n  constructor(address _owner) public{\n    owner = _owner;\n    menu.optionsHead = 1;\n    menu.extraHead = 1;\n  }\n\n  function getExtra(uint _id) public view returns (bytes32, uint, bool){\n    return (menu.extras[_id].extraName,menu.extras[_id].extraPrice,menu.extras[_id].active);\n  }\n\n  function getOption(uint _id) public view returns (bytes32, uint, bool){\n    return (menu.options[_id].optionName,menu.options[_id].optionPrice,menu.options[_id].active);\n  }\n\n  function length() public view returns (uint){\n    return menu.itemTop;\n  }\n\n  function getMenuLength() public view returns (uint){\n    return menu.length();\n  }\n\n  //needed for external contract access to struct\n  function getEntry(uint _id) public view returns (bytes32,bytes32,uint[] memory, uint[] memory){\n    return menu.getEntry(_id);\n  }\n\n  //needed for external contract access to struct\n  function getOrderItem(uint itemId, uint optionId, uint[] memory extraIds) public view returns (bytes32, bytes32, bytes32, uint, bytes32[] memory, uint[] memory){\n    \n    return menu.getOrderItem(itemId,optionId,extraIds);\n  }\n\n  //needed for external contract access to struct\n  function getEntryIndexingInfo(uint _id) public view returns (uint nextitem){\n    return menu.getEntryIndexingInfo(_id);\n  }\n\n  function getItemHead() public view returns (uint nextitem){\n    return menu.getItemHead();\n  }\n\n// =============================== unpack function to allow menu updates with one call ===============================================\n\n\n  function updateMenu(uint[] memory integers, uint[] memory integersFlags, bytes32[] memory strings, uint[] memory stringsFlags) public returns (bool){\n    require(msg.sender == owner);\n    menu.updateMenu(integers, integersFlags, strings, stringsFlags);\n  }\n\n// =============================== END unpack function to allow menu updates with one call ===============================================\n\n// =============================== menu.ITEMS ===============================================\n\n  function addMultipleItems(uint[] memory addAtIndex, bytes32[] memory itemNames, bytes32[] memory itemDescriptions) public {\n    require(msg.sender == owner);\n    menu.addMultipleItems(addAtIndex, itemNames, itemDescriptions);\n  }\n\n  function removeMultipleItems(uint[] memory itemIds) public {\n    require(msg.sender == owner);\n    menu.removeItems(itemIds);\n  }\n\n// =============================== END menu.ITEMS ===============================================\n\n// =============================== menu.OPTIONS ===============================================\n\n  function addOptions(bytes32[] memory _optionNames, uint[] memory _prices) public {\n    require(msg.sender == owner);\n    menu.addOptions(_optionNames, _prices);\n  }\n\n\n  function setOptionsInactive(uint[] memory optionIds) public {\n    menu.setOptionsInactive(optionIds);\n  }\n\n  function assignOptions(uint[] memory _itemIds, uint[] memory optionIds, uint[] memory flags) public {\n    require(msg.sender == owner);\n    menu.assignOptions(_itemIds, optionIds, flags);\n  }\n\n  function unassignOptions(uint[] memory _itemIds, uint[] memory optionIds, uint[] memory flags) public {\n    require(flags.length == _itemIds.length);\n    menu.unassignOptions(_itemIds, optionIds, flags);\n  }\n\n// =============================== END menu.OPTIONS ===============================================\n\n// =============================== menu.EXTRAS ===============================================\n\n  function addExtras(bytes32[] memory extraNames, uint[] memory extraPrice) public {\n    require(msg.sender == owner);\n    menu.addExtras(extraNames, extraPrice);\n  }\n\n  function setExtrasInactive(uint[] memory _ids) public {\n    require(msg.sender == owner);\n    menu.setExtrasInactive(_ids);\n  }\n\n  function assignExtras(uint[] memory _itemIds, uint[] memory _extrasIds, uint[] memory flags) public {\n    require(msg.sender == owner);\n    menu.assignExtras(_itemIds, _extrasIds, flags);\n  }\n\n  function unassignExtras(uint[] memory _itemIds, uint[] memory _extrasIds, uint[] memory flags) public {\n    require(flags.length == _itemIds.length);\n    menu.unassignExtras(_itemIds, _extrasIds, flags);\n  }\n\n// =============================== END menu.EXTRAS ===============================================\n\n// =============================== changing order ===============================================\n  // needs doing and implementing\n\n  // function reorderItems() public {\n\n  // }\n\n  // function reorderOptions() public {\n\n  // }\n\n  function swapItems(uint index1, uint index2) public {\n    require(msg.sender == owner, \"you are not the owner of this menu\");\n    menu.swapItems(index1, index2);\n  }\n\n  function swapOptions(uint _id, uint index1, uint index2) public {\n    require(msg.sender == owner, \"you are not the owner of this menu\");\n    menu.swapOptions(_id, index1, index2);\n  }\n\n// =============================== End Swapping Order ===============================================\n\n// =============================== Other ===============================================\n\n  //integers is uint[] calldata itemIds, uint[] calldata optionIds, uint[] calldata extraFlags, uint[] calldata extraIds\n  function getOrderPrice(uint[] memory integers, uint itemCount) public view returns (uint){\n      uint price = 0;\n      for(uint i = 0; i < itemCount; i++){\n\n        // get item/option price\n        (uint index, bool found) = menu.getItemMappingIndex(integers[i]);\n        require(found == true);\n\n        price += menu.options[integers[i+itemCount]].optionPrice;\n\n        // get menu.extras total\n        uint extrasIdsIndex = 0;\n        for(uint j = 0; j < integers[i+itemCount*2]; j++){\n          price += menu.extras[integers[extrasIdsIndex+itemCount*3]].extraPrice;\n          extrasIdsIndex ++;\n        }\n      }\n      return price;\n  }\n\n}",
  "sourcePath": "/home/george/Documents/WorkSpace/TryAByte/contracts/Menu.sol",
  "compiler": {
    "name": "solc",
    "version": "0.5.12+commit.7709ece9.Emscripten.clang"
  },
  "schemaVersion": "3.0.19",
  "updatedAt": "2020-01-27T09:55:13.962Z",
  "devdoc": {
    "methods": {}
  },
  "userdoc": {
    "methods": {}
  }
}