{
  "contractName": "Menu",
  "abi": [
    {
      "inputs": [
        {
          "internalType": "address",
          "name": "_owner",
          "type": "address"
        }
      ],
      "payable": false,
      "stateMutability": "nonpayable",
      "type": "constructor"
    },
    {
      "anonymous": false,
      "inputs": [
        {
          "indexed": false,
          "internalType": "uint256",
          "name": "itemId",
          "type": "uint256"
        },
        {
          "indexed": false,
          "internalType": "uint256",
          "name": "addAtIndex",
          "type": "uint256"
        },
        {
          "indexed": false,
          "internalType": "bytes32",
          "name": "optionName",
          "type": "bytes32"
        },
        {
          "indexed": false,
          "internalType": "uint256",
          "name": "optionPrice",
          "type": "uint256"
        }
      ],
      "name": "addOptionEvent",
      "type": "event"
    },
    {
      "anonymous": false,
      "inputs": [
        {
          "indexed": false,
          "internalType": "string",
          "name": "message",
          "type": "string"
        }
      ],
      "name": "debug",
      "type": "event"
    },
    {
      "anonymous": false,
      "inputs": [
        {
          "indexed": false,
          "internalType": "uint256",
          "name": "number",
          "type": "uint256"
        }
      ],
      "name": "debuguint",
      "type": "event"
    },
    {
      "constant": true,
      "inputs": [],
      "name": "menu",
      "outputs": [
        {
          "internalType": "uint256",
          "name": "itemTop",
          "type": "uint256"
        },
        {
          "internalType": "uint256",
          "name": "itemHead",
          "type": "uint256"
        },
        {
          "internalType": "uint256",
          "name": "optionsHead",
          "type": "uint256"
        },
        {
          "internalType": "uint256",
          "name": "extraHead",
          "type": "uint256"
        }
      ],
      "payable": false,
      "stateMutability": "view",
      "type": "function"
    },
    {
      "constant": true,
      "inputs": [],
      "name": "owner",
      "outputs": [
        {
          "internalType": "address",
          "name": "",
          "type": "address"
        }
      ],
      "payable": false,
      "stateMutability": "view",
      "type": "function"
    },
    {
      "constant": true,
      "inputs": [
        {
          "internalType": "uint256",
          "name": "_id",
          "type": "uint256"
        }
      ],
      "name": "getExtra",
      "outputs": [
        {
          "internalType": "bytes32",
          "name": "",
          "type": "bytes32"
        },
        {
          "internalType": "uint256",
          "name": "",
          "type": "uint256"
        },
        {
          "internalType": "bool",
          "name": "",
          "type": "bool"
        }
      ],
      "payable": false,
      "stateMutability": "view",
      "type": "function"
    },
    {
      "constant": true,
      "inputs": [
        {
          "internalType": "uint256",
          "name": "_id",
          "type": "uint256"
        }
      ],
      "name": "getOption",
      "outputs": [
        {
          "internalType": "bytes32",
          "name": "",
          "type": "bytes32"
        },
        {
          "internalType": "uint256",
          "name": "",
          "type": "uint256"
        },
        {
          "internalType": "bool",
          "name": "",
          "type": "bool"
        }
      ],
      "payable": false,
      "stateMutability": "view",
      "type": "function"
    },
    {
      "constant": true,
      "inputs": [],
      "name": "length",
      "outputs": [
        {
          "internalType": "uint256",
          "name": "",
          "type": "uint256"
        }
      ],
      "payable": false,
      "stateMutability": "view",
      "type": "function"
    },
    {
      "constant": true,
      "inputs": [],
      "name": "getMenuLength",
      "outputs": [
        {
          "internalType": "uint256",
          "name": "",
          "type": "uint256"
        }
      ],
      "payable": false,
      "stateMutability": "view",
      "type": "function"
    },
    {
      "constant": true,
      "inputs": [
        {
          "internalType": "uint256",
          "name": "_id",
          "type": "uint256"
        }
      ],
      "name": "getEntry",
      "outputs": [
        {
          "internalType": "bytes32",
          "name": "",
          "type": "bytes32"
        },
        {
          "internalType": "bytes32",
          "name": "",
          "type": "bytes32"
        },
        {
          "internalType": "bytes32[]",
          "name": "",
          "type": "bytes32[]"
        },
        {
          "internalType": "uint256[]",
          "name": "",
          "type": "uint256[]"
        },
        {
          "internalType": "uint256[]",
          "name": "",
          "type": "uint256[]"
        }
      ],
      "payable": false,
      "stateMutability": "view",
      "type": "function"
    },
    {
      "constant": true,
      "inputs": [
        {
          "internalType": "uint256",
          "name": "_id",
          "type": "uint256"
        }
      ],
      "name": "getEntryIndexingInfo",
      "outputs": [
        {
          "internalType": "uint256",
          "name": "nextitem",
          "type": "uint256"
        }
      ],
      "payable": false,
      "stateMutability": "view",
      "type": "function"
    },
    {
      "constant": true,
      "inputs": [],
      "name": "getItemHead",
      "outputs": [
        {
          "internalType": "uint256",
          "name": "nextitem",
          "type": "uint256"
        }
      ],
      "payable": false,
      "stateMutability": "view",
      "type": "function"
    },
    {
      "constant": false,
      "inputs": [
        {
          "internalType": "uint256[]",
          "name": "integers",
          "type": "uint256[]"
        },
        {
          "internalType": "uint256[]",
          "name": "integersFlags",
          "type": "uint256[]"
        },
        {
          "internalType": "bytes32[]",
          "name": "strings",
          "type": "bytes32[]"
        },
        {
          "internalType": "uint256[]",
          "name": "stringsFlags",
          "type": "uint256[]"
        }
      ],
      "name": "updateMenu",
      "outputs": [
        {
          "internalType": "bool",
          "name": "",
          "type": "bool"
        }
      ],
      "payable": false,
      "stateMutability": "nonpayable",
      "type": "function"
    },
    {
      "constant": false,
      "inputs": [
        {
          "internalType": "uint256[]",
          "name": "addAtIndex",
          "type": "uint256[]"
        },
        {
          "internalType": "bytes32[]",
          "name": "itemNames",
          "type": "bytes32[]"
        },
        {
          "internalType": "bytes32[]",
          "name": "itemDescriptions",
          "type": "bytes32[]"
        }
      ],
      "name": "addMultipleItems",
      "outputs": [],
      "payable": false,
      "stateMutability": "nonpayable",
      "type": "function"
    },
    {
      "constant": false,
      "inputs": [
        {
          "internalType": "uint256[]",
          "name": "itemIds",
          "type": "uint256[]"
        }
      ],
      "name": "removeMultipleItems",
      "outputs": [],
      "payable": false,
      "stateMutability": "nonpayable",
      "type": "function"
    },
    {
      "constant": false,
      "inputs": [
        {
          "internalType": "bytes32[]",
          "name": "_optionNames",
          "type": "bytes32[]"
        },
        {
          "internalType": "uint256[]",
          "name": "_prices",
          "type": "uint256[]"
        }
      ],
      "name": "addOptions",
      "outputs": [],
      "payable": false,
      "stateMutability": "nonpayable",
      "type": "function"
    },
    {
      "constant": false,
      "inputs": [
        {
          "internalType": "uint256[]",
          "name": "optionIds",
          "type": "uint256[]"
        }
      ],
      "name": "setOptionsInactive",
      "outputs": [],
      "payable": false,
      "stateMutability": "nonpayable",
      "type": "function"
    },
    {
      "constant": false,
      "inputs": [
        {
          "internalType": "uint256[]",
          "name": "_itemIds",
          "type": "uint256[]"
        },
        {
          "internalType": "uint256[]",
          "name": "optionIds",
          "type": "uint256[]"
        },
        {
          "internalType": "uint256[]",
          "name": "flags",
          "type": "uint256[]"
        }
      ],
      "name": "assignOptions",
      "outputs": [],
      "payable": false,
      "stateMutability": "nonpayable",
      "type": "function"
    },
    {
      "constant": false,
      "inputs": [
        {
          "internalType": "uint256[]",
          "name": "_itemIds",
          "type": "uint256[]"
        },
        {
          "internalType": "uint256[]",
          "name": "optionIds",
          "type": "uint256[]"
        },
        {
          "internalType": "uint256[]",
          "name": "flags",
          "type": "uint256[]"
        }
      ],
      "name": "unassignOptions",
      "outputs": [],
      "payable": false,
      "stateMutability": "nonpayable",
      "type": "function"
    },
    {
      "constant": false,
      "inputs": [
        {
          "internalType": "bytes32[]",
          "name": "extraNames",
          "type": "bytes32[]"
        },
        {
          "internalType": "uint256[]",
          "name": "extraPrice",
          "type": "uint256[]"
        }
      ],
      "name": "addExtras",
      "outputs": [],
      "payable": false,
      "stateMutability": "nonpayable",
      "type": "function"
    },
    {
      "constant": false,
      "inputs": [
        {
          "internalType": "uint256[]",
          "name": "_ids",
          "type": "uint256[]"
        }
      ],
      "name": "setExtrasInactive",
      "outputs": [],
      "payable": false,
      "stateMutability": "nonpayable",
      "type": "function"
    },
    {
      "constant": false,
      "inputs": [
        {
          "internalType": "uint256[]",
          "name": "_itemIds",
          "type": "uint256[]"
        },
        {
          "internalType": "uint256[]",
          "name": "_extrasIds",
          "type": "uint256[]"
        },
        {
          "internalType": "uint256[]",
          "name": "flags",
          "type": "uint256[]"
        }
      ],
      "name": "assignExtras",
      "outputs": [],
      "payable": false,
      "stateMutability": "nonpayable",
      "type": "function"
    },
    {
      "constant": false,
      "inputs": [
        {
          "internalType": "uint256[]",
          "name": "_itemIds",
          "type": "uint256[]"
        },
        {
          "internalType": "uint256[]",
          "name": "_extrasIds",
          "type": "uint256[]"
        },
        {
          "internalType": "uint256[]",
          "name": "flags",
          "type": "uint256[]"
        }
      ],
      "name": "unassignExtras",
      "outputs": [],
      "payable": false,
      "stateMutability": "nonpayable",
      "type": "function"
    },
    {
      "constant": false,
      "inputs": [
        {
          "internalType": "uint256",
          "name": "index1",
          "type": "uint256"
        },
        {
          "internalType": "uint256",
          "name": "index2",
          "type": "uint256"
        }
      ],
      "name": "swapItems",
      "outputs": [],
      "payable": false,
      "stateMutability": "nonpayable",
      "type": "function"
    },
    {
      "constant": false,
      "inputs": [
        {
          "internalType": "uint256",
          "name": "_id",
          "type": "uint256"
        },
        {
          "internalType": "uint256",
          "name": "index1",
          "type": "uint256"
        },
        {
          "internalType": "uint256",
          "name": "index2",
          "type": "uint256"
        }
      ],
      "name": "swapOptions",
      "outputs": [],
      "payable": false,
      "stateMutability": "nonpayable",
      "type": "function"
    },
    {
      "constant": true,
      "inputs": [
        {
          "internalType": "uint256[]",
          "name": "integers",
          "type": "uint256[]"
        },
        {
          "internalType": "uint256",
          "name": "itemCount",
          "type": "uint256"
        }
      ],
      "name": "getOrderPrice",
      "outputs": [
        {
          "internalType": "uint256",
          "name": "",
          "type": "uint256"
        }
      ],
      "payable": false,
      "stateMutability": "view",
      "type": "function"
    }
  ],
  "bytecode": "0x608060405234801561001057600080fd5b5060405161236c38038061236c8339818101604052602081101561003357600080fd5b5051600080546001600160a01b039092166001600160a01b0319909216919091179055612307806100656000396000f3fe608060405234801561001057600080fd5b506004361061014d5760003560e01c80638fb0f14c116100c3578063ca497d5c1161007c578063ca497d5c14610cf5578063d1005e3914610d96578063e40c8a3214610f3b578063e4d8a2a6146110e0578063e840515414611109578063f0439f71146112ae5761014d565b80638fb0f14c146107d8578063a6bd92e314610879578063b0e7722b1461099c578063b21dc38a14610b41578063bae78d7b14610be4578063c1c4d10214610ced5761014d565b80631f7b6d32116101155780631f7b6d321461039057806325b5c4f9146103985780636287dcc6146104bb57806364f2eacd1461055c578063893bb0bf146107975780638da5cb5b146107b45761014d565b80630545ba29146101525780630b9a02c514610177578063125ba977146101a65780631ce5e9a6146101ae5780631e516e05146101eb575b600080fd5b6101756004803603604081101561016857600080fd5b50803590602001356112dc565b005b6101946004803603602081101561018d57600080fd5b50356113a1565b60408051918252519081900360200190f35b61019461142f565b6101cb600480360360208110156101c457600080fd5b50356114b4565b604080519384526020840192909252151582820152519081900360600190f35b6101756004803603606081101561020157600080fd5b810190602081018135600160201b81111561021b57600080fd5b82018360208201111561022d57600080fd5b803590602001918460208302840111600160201b8311171561024e57600080fd5b9190808060200260200160405190810160405280939291908181526020018383602002808284376000920191909152509295949360208101935035915050600160201b81111561029d57600080fd5b8201836020820111156102af57600080fd5b803590602001918460208302840111600160201b831117156102d057600080fd5b9190808060200260200160405190810160405280939291908181526020018383602002808284376000920191909152509295949360208101935035915050600160201b81111561031f57600080fd5b82018360208201111561033157600080fd5b803590602001918460208302840111600160201b8311171561035257600080fd5b9190808060200260200160405190810160405280939291908181526020018383602002808284376000920191909152509295506114d9945050505050565b610194611631565b610175600480360360408110156103ae57600080fd5b810190602081018135600160201b8111156103c857600080fd5b8201836020820111156103da57600080fd5b803590602001918460208302840111600160201b831117156103fb57600080fd5b9190808060200260200160405190810160405280939291908181526020018383602002808284376000920191909152509295949360208101935035915050600160201b81111561044a57600080fd5b82018360208201111561045c57600080fd5b803590602001918460208302840111600160201b8311171561047d57600080fd5b919080806020026020016040519081016040528093929190818152602001838360200280828437600092019190915250929550611637945050505050565b610175600480360360208110156104d157600080fd5b810190602081018135600160201b8111156104eb57600080fd5b8201836020820111156104fd57600080fd5b803590602001918460208302840111600160201b8311171561051e57600080fd5b91908080602002602001604051908101604052809392919081815260200183836020028082843760009201919091525092955061172c945050505050565b6107836004803603608081101561057257600080fd5b810190602081018135600160201b81111561058c57600080fd5b82018360208201111561059e57600080fd5b803590602001918460208302840111600160201b831117156105bf57600080fd5b9190808060200260200160405190810160405280939291908181526020018383602002808284376000920191909152509295949360208101935035915050600160201b81111561060e57600080fd5b82018360208201111561062057600080fd5b803590602001918460208302840111600160201b8311171561064157600080fd5b9190808060200260200160405190810160405280939291908181526020018383602002808284376000920191909152509295949360208101935035915050600160201b81111561069057600080fd5b8201836020820111156106a257600080fd5b803590602001918460208302840111600160201b831117156106c357600080fd5b9190808060200260200160405190810160405280939291908181526020018383602002808284376000920191909152509295949360208101935035915050600160201b81111561071257600080fd5b82018360208201111561072457600080fd5b803590602001918460208302840111600160201b8311171561074557600080fd5b9190808060200260200160405190810160405280939291908181526020018383602002808284376000920191909152509295506117dc945050505050565b604080519115158252519081900360200190f35b6101cb600480360360208110156107ad57600080fd5b5035611993565b6107bc6119b8565b604080516001600160a01b039092168252519081900360200190f35b610175600480360360208110156107ee57600080fd5b810190602081018135600160201b81111561080857600080fd5b82018360208201111561081a57600080fd5b803590602001918460208302840111600160201b8311171561083b57600080fd5b9190808060200260200160405190810160405280939291908181526020018383602002808284376000920191909152509295506119c7945050505050565b6101756004803603604081101561088f57600080fd5b810190602081018135600160201b8111156108a957600080fd5b8201836020820111156108bb57600080fd5b803590602001918460208302840111600160201b831117156108dc57600080fd5b9190808060200260200160405190810160405280939291908181526020018383602002808284376000920191909152509295949360208101935035915050600160201b81111561092b57600080fd5b82018360208201111561093d57600080fd5b803590602001918460208302840111600160201b8311171561095e57600080fd5b919080806020026020016040519081016040528093929190818152602001838360200280828437600092019190915250929550611aa2945050505050565b610175600480360360608110156109b257600080fd5b810190602081018135600160201b8111156109cc57600080fd5b8201836020820111156109de57600080fd5b803590602001918460208302840111600160201b831117156109ff57600080fd5b9190808060200260200160405190810160405280939291908181526020018383602002808284376000920191909152509295949360208101935035915050600160201b811115610a4e57600080fd5b820183602082011115610a6057600080fd5b803590602001918460208302840111600160201b83111715610a8157600080fd5b9190808060200260200160405190810160405280939291908181526020018383602002808284376000920191909152509295949360208101935035915050600160201b811115610ad057600080fd5b820183602082011115610ae257600080fd5b803590602001918460208302840111600160201b83111715610b0357600080fd5b919080806020026020016040519081016040528093929190818152602001838360200280828437600092019190915250929550611b31945050505050565b61019460048036036040811015610b5757600080fd5b810190602081018135600160201b811115610b7157600080fd5b820183602082011115610b8357600080fd5b803590602001918460208302840111600160201b83111715610ba457600080fd5b9190808060200260200160405190810160405280939291908181526020018383602002808284376000920191909152509295505091359250611bc3915050565b610c0160048036036020811015610bfa57600080fd5b5035611ccf565b60405180868152602001858152602001806020018060200180602001848103845287818151815260200191508051906020019060200280838360005b83811015610c55578181015183820152602001610c3d565b50505050905001848103835286818151815260200191508051906020019060200280838360005b83811015610c94578181015183820152602001610c7c565b50505050905001848103825285818151815260200191508051906020019060200280838360005b83811015610cd3578181015183820152602001610cbb565b505050509050019850505050505050505060405180910390f35b610194611f22565b61017560048036036020811015610d0b57600080fd5b810190602081018135600160201b811115610d2557600080fd5b820183602082011115610d3757600080fd5b803590602001918460208302840111600160201b83111715610d5857600080fd5b919080806020026020016040519081016040528093929190818152602001838360200280828437600092019190915250929550611f76945050505050565b61017560048036036060811015610dac57600080fd5b810190602081018135600160201b811115610dc657600080fd5b820183602082011115610dd857600080fd5b803590602001918460208302840111600160201b83111715610df957600080fd5b9190808060200260200160405190810160405280939291908181526020018383602002808284376000920191909152509295949360208101935035915050600160201b811115610e4857600080fd5b820183602082011115610e5a57600080fd5b803590602001918460208302840111600160201b83111715610e7b57600080fd5b9190808060200260200160405190810160405280939291908181526020018383602002808284376000920191909152509295949360208101935035915050600160201b811115610eca57600080fd5b820183602082011115610edc57600080fd5b803590602001918460208302840111600160201b83111715610efd57600080fd5b919080806020026020016040519081016040528093929190818152602001838360200280828437600092019190915250929550611ffb945050505050565b61017560048036036060811015610f5157600080fd5b810190602081018135600160201b811115610f6b57600080fd5b820183602082011115610f7d57600080fd5b803590602001918460208302840111600160201b83111715610f9e57600080fd5b9190808060200260200160405190810160405280939291908181526020018383602002808284376000920191909152509295949360208101935035915050600160201b811115610fed57600080fd5b820183602082011115610fff57600080fd5b803590602001918460208302840111600160201b8311171561102057600080fd5b9190808060200260200160405190810160405280939291908181526020018383602002808284376000920191909152509295949360208101935035915050600160201b81111561106f57600080fd5b82018360208201111561108157600080fd5b803590602001918460208302840111600160201b831117156110a257600080fd5b919080806020026020016040519081016040528093929190818152602001838360200280828437600092019190915250929550612084945050505050565b610175600480360360608110156110f657600080fd5b5080359060208101359060400135612116565b6101756004803603606081101561111f57600080fd5b810190602081018135600160201b81111561113957600080fd5b82018360208201111561114b57600080fd5b803590602001918460208302840111600160201b8311171561116c57600080fd5b9190808060200260200160405190810160405280939291908181526020018383602002808284376000920191909152509295949360208101935035915050600160201b8111156111bb57600080fd5b8201836020820111156111cd57600080fd5b803590602001918460208302840111600160201b831117156111ee57600080fd5b9190808060200260200160405190810160405280939291908181526020018383602002808284376000920191909152509295949360208101935035915050600160201b81111561123d57600080fd5b82018360208201111561124f57600080fd5b803590602001918460208302840111600160201b8311171561127057600080fd5b9190808060200260200160405190810160405280939291908181526020018383602002808284376000920191909152509295506121c6945050505050565b6112b661224f565b604080519485526020850193909352838301919091526060830152519081900360800190f35b6000546001600160a01b031633146113255760405162461bcd60e51b81526004018080602001828103825260228152602001806122b16022913960400191505060405180910390fd5b60408051632f75e6e760e11b8152600160048201526024810184905260448101839052905173__menuHelper____________________________91635eebcdce916064808301926000929190829003018186803b15801561138557600080fd5b505af4158015611399573d6000803e3d6000fd5b505050505050565b6000600173__menuHelper____________________________6374f811479091846040518363ffffffff1660e01b8152600401808381526020018281526020019250505060206040518083038186803b1580156113fd57600080fd5b505af4158015611411573d6000803e3d6000fd5b505050506040513d602081101561142757600080fd5b505192915050565b6000600173__menuHelper____________________________63f36cf61090916040518263ffffffff1660e01b81526004018082815260200191505060206040518083038186803b15801561148357600080fd5b505af4158015611497573d6000803e3d6000fd5b505050506040513d60208110156114ad57600080fd5b5051905090565b600090815260056020526040902080546001820154600290920154909260ff90911690565b6000546001600160a01b031633146114f057600080fd5b604051631ee24e7760e01b815260016004820181815260806024840190815286516084850152865173__menuHelper____________________________94631ee24e7794938993899389936044810191606482019160a401906020808a01910280838360005b8381101561156e578181015183820152602001611556565b50505050905001848103835286818151815260200191508051906020019060200280838360005b838110156115ad578181015183820152602001611595565b50505050905001848103825285818151815260200191508051906020019060200280838360005b838110156115ec5781810151838201526020016115d4565b5050505090500197505050505050505060006040518083038186803b15801561161457600080fd5b505af4158015611628573d6000803e3d6000fd5b50505050505050565b60015490565b6000546001600160a01b0316331461164e57600080fd5b600173__menuHelper____________________________631144d8cc909184846040518463ffffffff1660e01b8152600401808481526020018060200180602001838103835285818151815260200191508051906020019060200280838360005b838110156116c75781810151838201526020016116af565b50505050905001838103825284818151815260200191508051906020019060200280838360005b838110156117065781810151838201526020016116ee565b505050509050019550505050505060006040518083038186803b15801561138557600080fd5b60408051630733405f60e01b81526001600482018181526024830193845284516044840152845173__menuHelper____________________________94630733405f948793926064909101906020808601910280838360005b8381101561179d578181015183820152602001611785565b50505050905001935050505060006040518083038186803b1580156117c157600080fd5b505af41580156117d5573d6000803e3d6000fd5b5050505050565b600080546001600160a01b031633146117f457600080fd5b600173__menuHelper____________________________63412362179091878787876040518663ffffffff1660e01b81526004018086815260200180602001806020018060200180602001858103855289818151815260200191508051906020019060200280838360005b8381101561187757818101518382015260200161185f565b50505050905001858103845288818151815260200191508051906020019060200280838360005b838110156118b657818101518382015260200161189e565b50505050905001858103835287818151815260200191508051906020019060200280838360005b838110156118f55781810151838201526020016118dd565b50505050905001858103825286818151815260200191508051906020019060200280838360005b8381101561193457818101518382015260200161191c565b50505050905001995050505050505050505060206040518083038186803b15801561195e57600080fd5b505af4158015611972573d6000803e3d6000fd5b505050506040513d602081101561198857600080fd5b509095945050505050565b600090815260076020526040902080546001820154600290920154909260ff90911690565b6000546001600160a01b031681565b6000546001600160a01b031633146119de57600080fd5b60408051631820e07b60e11b81526001600482018181526024830193845284516044840152845173__menuHelper____________________________94633041c0f6948793926064909101906020808601910280838360005b83811015611a4f578181015183820152602001611a37565b50505050905001935050505060206040518083038186803b158015611a7357600080fd5b505af4158015611a87573d6000803e3d6000fd5b505050506040513d6020811015611a9d57600080fd5b505050565b6000546001600160a01b03163314611ab957600080fd5b6040516308f5487d60e11b815260016004820181815260606024840190815285516064850152855173__menuHelper____________________________946311ea90fa9493889388939192909160448201916084019060208088019102808383600083156116c75781810151838201526020016116af565b6000546001600160a01b03163314611b4857600080fd5b60405163753810c760e01b815260016004820181815260806024840190815286516084850152865173__menuHelper____________________________9463753810c794938993899389936044810191606482019160a401906020808a0191028083836000831561156e578181015183820152602001611556565b600080805b83811015611cc757600080611bfa878481518110611be257fe5b6020026020010151600161225e90919063ffffffff16565b9092509050600181151514611c0e57600080fd5b600160040160008888860181518110611c2357fe5b602002602001015181526020019081526020016000206001015484019350600080905060008090505b8888600202860181518110611c5d57fe5b6020026020010151811015611cb757600160060160008a8a600302850181518110611c8457fe5b60200260200101518152602001908152602001600020600101548601955081806001019250508080600101915050611c4c565b505060019092019150611bc89050565b509392505050565b6000806060806060600173__menuHelper____________________________6336bf00579091886040518363ffffffff1660e01b8152600401808381526020018281526020019250505060006040518083038186803b158015611d3157600080fd5b505af4158015611d45573d6000803e3d6000fd5b505050506040513d6000823e601f3d908101601f1916820160405260a0811015611d6e57600080fd5b81516020830151604080850180519151939592948301929184600160201b821115611d9857600080fd5b908301906020820185811115611dad57600080fd5b82518660208202830111600160201b82111715611dc957600080fd5b82525081516020918201928201910280838360005b83811015611df6578181015183820152602001611dde565b5050505090500160405260200180516040519392919084600160201b821115611e1e57600080fd5b908301906020820185811115611e3357600080fd5b82518660208202830111600160201b82111715611e4f57600080fd5b82525081516020918201928201910280838360005b83811015611e7c578181015183820152602001611e64565b5050505090500160405260200180516040519392919084600160201b821115611ea457600080fd5b908301906020820185811115611eb957600080fd5b82518660208202830111600160201b82111715611ed557600080fd5b82525081516020918201928201910280838360005b83811015611f02578181015183820152602001611eea565b505050509050016040525050509450945094509450945091939590929450565b6000600173__menuHelper____________________________63cf17773590916040518263ffffffff1660e01b81526004018082815260200191505060206040518083038186803b15801561148357600080fd5b6000546001600160a01b03163314611f8d57600080fd5b6040805163b49a2e4960e01b81526001600482018181526024830193845284516044840152845173__menuHelper____________________________9463b49a2e4994879392606490910190602080860191028083836000831561179d578181015183820152602001611785565b825181511461200957600080fd5b6040516389ac324360e01b815260016004820181815260806024840190815286516084850152865173__menuHelper____________________________946389ac324394938993899389936044810191606482019160a401906020808a0191028083836000831561156e578181015183820152602001611556565b6000546001600160a01b0316331461209b57600080fd5b604051636f627d2360e11b815260016004820181815260806024840190815286516084850152865173__menuHelper____________________________9463dec4fa4694938993899389936044810191606482019160a401906020808a0191028083836000831561156e578181015183820152602001611556565b6000546001600160a01b0316331461215f5760405162461bcd60e51b81526004018080602001828103825260228152602001806122b16022913960400191505060405180910390fd5b60408051632f0ebdbf60e11b815260016004820152602481018590526044810184905260648101839052905173__menuHelper____________________________91635e1d7b7e916084808301926000929190829003018186803b15801561161457600080fd5b82518151146121d457600080fd5b6040516301617f1560e61b815260016004820181815260806024840190815286516084850152865173__menuHelper____________________________9463585fc54094938993899389936044810191606482019160a401906020808a0191028083836000831561156e578181015183820152602001611556565b60015460025460035460045484565b60018201546000908190815b848110156122a15760009182526005860160205260409091205490816122995750600092508291506122a99050565b60010161226a565b509150600190505b925092905056fe796f7520617265206e6f7420746865206f776e6572206f662074686973206d656e75a265627a7a72315820c27928e178469d60009bd6e8ca00019c052f8e9af1bbae45a83f3db4ee71e53164736f6c634300050c0032",
  "source": "pragma solidity ^0.5.0;\n\nimport \"./menuHelper.sol\";\nimport \"./uintArrayExtension.sol\";\nimport \"./bytes32ArrayExtension.sol\";\n\ncontract Menu {\n\n  using menuHelper for menuHelper.menuStruct;\n  using uintArrayExtension for uint[];\n  using bytes32ArrayExtension for bytes32[];\n\n  //event AddEntry(bytes32 head,uint number,bytes32 name,bytes32 next);\n  event addOptionEvent(uint itemId, uint addAtIndex, bytes32 optionName, uint optionPrice);\n  event debug(string message);\n  event debuguint(uint number);\n\n  address public owner;\n  \n  menuHelper.menuStruct public menu;\n\n  constructor(address _owner) public{\n    owner = _owner;\n  }\n\n  function getExtra(uint _id) public view returns (bytes32, uint, bool){\n    return (menu.extras[_id].extraName,menu.extras[_id].extraPrice,menu.extras[_id].active);\n  }\n\n  function getOption(uint _id) public view returns (bytes32, uint, bool){\n    return (menu.options[_id].optionName,menu.options[_id].optionPrice,menu.options[_id].active);\n  }\n\n  function length() public view returns (uint){\n    return menu.itemTop;\n  }\n\n  function getMenuLength() public view returns (uint){\n    return menu.length();\n  }\n\n  //needed for external contract access to struct\n  function getEntry(uint _id) public view returns (bytes32,bytes32,bytes32[] memory,uint[] memory, uint[] memory){\n    return menu.getEntry(_id);\n  }\n\n  //needed for external contract access to struct\n  function getEntryIndexingInfo(uint _id) public view returns (uint nextitem){\n    return menu.getEntryIndexingInfo(_id);\n  }\n\n  function getItemHead() public view returns (uint nextitem){\n    return menu.getItemHead();\n  }\n\n// =============================== unpack function to allow menu updates with one call ===============================================\n\n\n  function updateMenu(uint[] memory integers, uint[] memory integersFlags, bytes32[] memory strings, uint[] memory stringsFlags) public returns (bool){\n    require(msg.sender == owner);\n    menu.updateMenu(integers, integersFlags, strings, stringsFlags);\n  }\n\n// =============================== END unpack function to allow menu updates with one call ===============================================\n\n// =============================== menu.ITEMS ===============================================\n\n  function addMultipleItems(uint[] memory addAtIndex, bytes32[] memory itemNames, bytes32[] memory itemDescriptions) public {\n    require(msg.sender == owner);\n    menu.addMultipleItems(addAtIndex, itemNames, itemDescriptions);\n  }\n\n  function removeMultipleItems(uint[] memory itemIds) public {\n    require(msg.sender == owner);\n    menu.removeItems(itemIds);\n  }\n\n// =============================== END menu.ITEMS ===============================================\n\n// =============================== menu.OPTIONS ===============================================\n\n  function addOptions(bytes32[] memory _optionNames, uint[] memory _prices) public {\n    require(msg.sender == owner);\n    menu.addOptions(_optionNames, _prices);\n  }\n\n\n  function setOptionsInactive(uint[] memory optionIds) public {\n    menu.setOptionsInactive(optionIds);\n  }\n\n  function assignOptions(uint[] memory _itemIds, uint[] memory optionIds, uint[] memory flags) public {\n    require(msg.sender == owner);\n    menu.assignOptions(_itemIds, optionIds, flags);\n  }\n\n  function unassignOptions(uint[] memory _itemIds, uint[] memory optionIds, uint[] memory flags) public {\n    require(flags.length == _itemIds.length);\n    menu.unassignOptions(_itemIds, optionIds, flags);\n  }\n\n// =============================== END menu.OPTIONS ===============================================\n\n// =============================== menu.EXTRAS ===============================================\n\n  function addExtras(bytes32[] memory extraNames, uint[] memory extraPrice) public {\n    require(msg.sender == owner);\n    menu.addExtras(extraNames, extraPrice);\n  }\n\n  function setExtrasInactive(uint[] memory _ids) public {\n    require(msg.sender == owner);\n    menu.setExtrasInactive(_ids);\n  }\n\n  function assignExtras(uint[] memory _itemIds, uint[] memory _extrasIds, uint[] memory flags) public {\n    require(msg.sender == owner);\n    menu.assignExtras(_itemIds, _extrasIds, flags);\n  }\n\n  function unassignExtras(uint[] memory _itemIds, uint[] memory _extrasIds, uint[] memory flags) public {\n    require(flags.length == _itemIds.length);\n    menu.unassignExtras(_itemIds, _extrasIds, flags);\n  }\n\n// =============================== END menu.EXTRAS ===============================================\n\n// =============================== changing order ===============================================\n  // needs doing and implementing\n\n  // function reorderItems() public {\n\n  // }\n\n  // function reorderOptions() public {\n\n  // }\n\n  function swapItems(uint index1, uint index2) public {\n    require(msg.sender == owner, \"you are not the owner of this menu\");\n    menu.swapItems(index1, index2);\n  }\n\n  function swapOptions(uint _id, uint index1, uint index2) public {\n    require(msg.sender == owner, \"you are not the owner of this menu\");\n    menu.swapOptions(_id, index1, index2);\n  }\n\n// =============================== End Swapping Order ===============================================\n\n// =============================== Other ===============================================\n\n  //integers is uint[] calldata itemIds, uint[] calldata optionIds, uint[] calldata extraFlags, uint[] calldata extraIds\n  function getOrderPrice(uint[] memory integers, uint itemCount) public view returns (uint){\n      uint price = 0;\n      for(uint i = 0; i < itemCount; i++){\n\n        // get item/option price\n        (uint index, bool found) = menu.getItemMappingIndex(integers[i]);\n        require(found == true);\n\n        price += menu.options[integers[i+itemCount]].optionPrice;\n\n        // get menu.extras total\n        uint extrasIdsIndex = 0;\n        for(uint j = 0; j < integers[i+itemCount*2]; j++){\n          price += menu.extras[integers[extrasIdsIndex+itemCount*3]].extraPrice;\n          extrasIdsIndex ++;\n        }\n      }\n      return price;\n  }\n\n}",
  "sourcePath": "/home/george/Documents/WorkSpace/TryAByte/contracts/Menu.sol",
  "compiler": {
    "name": "solc",
    "version": "0.5.12+commit.7709ece9.Emscripten.clang"
  },
  "schemaVersion": "3.0.19",
  "updatedAt": "2020-01-23T12:39:49.580Z",
  "networkType": "ethereum",
  "devdoc": {
    "methods": {}
  },
  "userdoc": {
    "methods": {}
  }
}