{
  "contractName": "Menu",
  "abi": [
    {
      "inputs": [
        {
          "internalType": "address",
          "name": "_owner",
          "type": "address"
        }
      ],
      "payable": false,
      "stateMutability": "nonpayable",
      "type": "constructor"
    },
    {
      "anonymous": false,
      "inputs": [
        {
          "indexed": false,
          "internalType": "uint256",
          "name": "itemId",
          "type": "uint256"
        },
        {
          "indexed": false,
          "internalType": "uint256",
          "name": "addAtIndex",
          "type": "uint256"
        },
        {
          "indexed": false,
          "internalType": "bytes32",
          "name": "optionName",
          "type": "bytes32"
        },
        {
          "indexed": false,
          "internalType": "uint256",
          "name": "optionPrice",
          "type": "uint256"
        }
      ],
      "name": "addOptionEvent",
      "type": "event"
    },
    {
      "anonymous": false,
      "inputs": [
        {
          "indexed": false,
          "internalType": "string",
          "name": "message",
          "type": "string"
        }
      ],
      "name": "debug",
      "type": "event"
    },
    {
      "anonymous": false,
      "inputs": [
        {
          "indexed": false,
          "internalType": "uint256",
          "name": "number",
          "type": "uint256"
        }
      ],
      "name": "debuguint",
      "type": "event"
    },
    {
      "constant": true,
      "inputs": [],
      "name": "menu",
      "outputs": [
        {
          "internalType": "uint256",
          "name": "itemTop",
          "type": "uint256"
        },
        {
          "internalType": "uint256",
          "name": "itemHead",
          "type": "uint256"
        },
        {
          "internalType": "uint256",
          "name": "optionsHead",
          "type": "uint256"
        },
        {
          "internalType": "uint256",
          "name": "extraHead",
          "type": "uint256"
        }
      ],
      "payable": false,
      "stateMutability": "view",
      "type": "function"
    },
    {
      "constant": true,
      "inputs": [],
      "name": "owner",
      "outputs": [
        {
          "internalType": "address",
          "name": "",
          "type": "address"
        }
      ],
      "payable": false,
      "stateMutability": "view",
      "type": "function"
    },
    {
      "constant": true,
      "inputs": [
        {
          "internalType": "uint256",
          "name": "_id",
          "type": "uint256"
        }
      ],
      "name": "getExtra",
      "outputs": [
        {
          "internalType": "bytes32",
          "name": "",
          "type": "bytes32"
        },
        {
          "internalType": "uint256",
          "name": "",
          "type": "uint256"
        },
        {
          "internalType": "bool",
          "name": "",
          "type": "bool"
        }
      ],
      "payable": false,
      "stateMutability": "view",
      "type": "function"
    },
    {
      "constant": true,
      "inputs": [
        {
          "internalType": "uint256",
          "name": "_id",
          "type": "uint256"
        }
      ],
      "name": "getOption",
      "outputs": [
        {
          "internalType": "bytes32",
          "name": "",
          "type": "bytes32"
        },
        {
          "internalType": "uint256",
          "name": "",
          "type": "uint256"
        },
        {
          "internalType": "bool",
          "name": "",
          "type": "bool"
        }
      ],
      "payable": false,
      "stateMutability": "view",
      "type": "function"
    },
    {
      "constant": true,
      "inputs": [],
      "name": "getExtraHead",
      "outputs": [
        {
          "internalType": "uint256",
          "name": "",
          "type": "uint256"
        }
      ],
      "payable": false,
      "stateMutability": "view",
      "type": "function"
    },
    {
      "constant": true,
      "inputs": [],
      "name": "getOptionHead",
      "outputs": [
        {
          "internalType": "uint256",
          "name": "",
          "type": "uint256"
        }
      ],
      "payable": false,
      "stateMutability": "view",
      "type": "function"
    },
    {
      "constant": true,
      "inputs": [],
      "name": "length",
      "outputs": [
        {
          "internalType": "uint256",
          "name": "",
          "type": "uint256"
        }
      ],
      "payable": false,
      "stateMutability": "view",
      "type": "function"
    },
    {
      "constant": true,
      "inputs": [],
      "name": "getMenuLength",
      "outputs": [
        {
          "internalType": "uint256",
          "name": "",
          "type": "uint256"
        }
      ],
      "payable": false,
      "stateMutability": "view",
      "type": "function"
    },
    {
      "constant": true,
      "inputs": [
        {
          "internalType": "uint256",
          "name": "_id",
          "type": "uint256"
        }
      ],
      "name": "getEntry",
      "outputs": [
        {
          "internalType": "bytes32",
          "name": "",
          "type": "bytes32"
        },
        {
          "internalType": "bytes32",
          "name": "",
          "type": "bytes32"
        },
        {
          "internalType": "uint256[]",
          "name": "",
          "type": "uint256[]"
        },
        {
          "internalType": "uint256[]",
          "name": "",
          "type": "uint256[]"
        }
      ],
      "payable": false,
      "stateMutability": "view",
      "type": "function"
    },
    {
      "constant": true,
      "inputs": [
        {
          "internalType": "uint256",
          "name": "itemId",
          "type": "uint256"
        },
        {
          "internalType": "uint256",
          "name": "optionId",
          "type": "uint256"
        },
        {
          "internalType": "uint256[]",
          "name": "extraIds",
          "type": "uint256[]"
        }
      ],
      "name": "getOrderItem",
      "outputs": [
        {
          "internalType": "bytes32",
          "name": "",
          "type": "bytes32"
        },
        {
          "internalType": "bytes32",
          "name": "",
          "type": "bytes32"
        },
        {
          "internalType": "bytes32",
          "name": "",
          "type": "bytes32"
        },
        {
          "internalType": "uint256",
          "name": "",
          "type": "uint256"
        },
        {
          "internalType": "bytes32[]",
          "name": "",
          "type": "bytes32[]"
        },
        {
          "internalType": "uint256[]",
          "name": "",
          "type": "uint256[]"
        }
      ],
      "payable": false,
      "stateMutability": "view",
      "type": "function"
    },
    {
      "constant": true,
      "inputs": [
        {
          "internalType": "uint256",
          "name": "_id",
          "type": "uint256"
        }
      ],
      "name": "getEntryIndexingInfo",
      "outputs": [
        {
          "internalType": "uint256",
          "name": "nextitem",
          "type": "uint256"
        }
      ],
      "payable": false,
      "stateMutability": "view",
      "type": "function"
    },
    {
      "constant": true,
      "inputs": [],
      "name": "getItemHead",
      "outputs": [
        {
          "internalType": "uint256",
          "name": "nextitem",
          "type": "uint256"
        }
      ],
      "payable": false,
      "stateMutability": "view",
      "type": "function"
    },
    {
      "constant": false,
      "inputs": [
        {
          "internalType": "uint256[]",
          "name": "integers",
          "type": "uint256[]"
        },
        {
          "internalType": "uint256[]",
          "name": "integersFlags",
          "type": "uint256[]"
        },
        {
          "internalType": "bytes32[]",
          "name": "strings",
          "type": "bytes32[]"
        },
        {
          "internalType": "uint256[]",
          "name": "stringsFlags",
          "type": "uint256[]"
        }
      ],
      "name": "updateMenu",
      "outputs": [
        {
          "internalType": "bool",
          "name": "",
          "type": "bool"
        }
      ],
      "payable": false,
      "stateMutability": "nonpayable",
      "type": "function"
    },
    {
      "constant": false,
      "inputs": [
        {
          "internalType": "uint256[]",
          "name": "addAtIndex",
          "type": "uint256[]"
        },
        {
          "internalType": "bytes32[]",
          "name": "itemNames",
          "type": "bytes32[]"
        },
        {
          "internalType": "bytes32[]",
          "name": "itemDescriptions",
          "type": "bytes32[]"
        }
      ],
      "name": "addMultipleItems",
      "outputs": [],
      "payable": false,
      "stateMutability": "nonpayable",
      "type": "function"
    },
    {
      "constant": false,
      "inputs": [
        {
          "internalType": "uint256[]",
          "name": "itemIds",
          "type": "uint256[]"
        }
      ],
      "name": "removeMultipleItems",
      "outputs": [],
      "payable": false,
      "stateMutability": "nonpayable",
      "type": "function"
    },
    {
      "constant": false,
      "inputs": [
        {
          "internalType": "bytes32[]",
          "name": "_optionNames",
          "type": "bytes32[]"
        },
        {
          "internalType": "uint256[]",
          "name": "_prices",
          "type": "uint256[]"
        }
      ],
      "name": "addOptions",
      "outputs": [],
      "payable": false,
      "stateMutability": "nonpayable",
      "type": "function"
    },
    {
      "constant": false,
      "inputs": [
        {
          "internalType": "uint256[]",
          "name": "optionIds",
          "type": "uint256[]"
        }
      ],
      "name": "setOptionsInactive",
      "outputs": [],
      "payable": false,
      "stateMutability": "nonpayable",
      "type": "function"
    },
    {
      "constant": false,
      "inputs": [
        {
          "internalType": "uint256[]",
          "name": "_itemIds",
          "type": "uint256[]"
        },
        {
          "internalType": "uint256[]",
          "name": "optionIds",
          "type": "uint256[]"
        },
        {
          "internalType": "uint256[]",
          "name": "flags",
          "type": "uint256[]"
        }
      ],
      "name": "assignOptions",
      "outputs": [],
      "payable": false,
      "stateMutability": "nonpayable",
      "type": "function"
    },
    {
      "constant": false,
      "inputs": [
        {
          "internalType": "uint256[]",
          "name": "_itemIds",
          "type": "uint256[]"
        },
        {
          "internalType": "uint256[]",
          "name": "optionIds",
          "type": "uint256[]"
        },
        {
          "internalType": "uint256[]",
          "name": "flags",
          "type": "uint256[]"
        }
      ],
      "name": "unassignOptions",
      "outputs": [],
      "payable": false,
      "stateMutability": "nonpayable",
      "type": "function"
    },
    {
      "constant": false,
      "inputs": [
        {
          "internalType": "bytes32[]",
          "name": "extraNames",
          "type": "bytes32[]"
        },
        {
          "internalType": "uint256[]",
          "name": "extraPrice",
          "type": "uint256[]"
        }
      ],
      "name": "addExtras",
      "outputs": [],
      "payable": false,
      "stateMutability": "nonpayable",
      "type": "function"
    },
    {
      "constant": false,
      "inputs": [
        {
          "internalType": "uint256[]",
          "name": "_ids",
          "type": "uint256[]"
        }
      ],
      "name": "setExtrasInactive",
      "outputs": [],
      "payable": false,
      "stateMutability": "nonpayable",
      "type": "function"
    },
    {
      "constant": false,
      "inputs": [
        {
          "internalType": "uint256[]",
          "name": "_itemIds",
          "type": "uint256[]"
        },
        {
          "internalType": "uint256[]",
          "name": "_extrasIds",
          "type": "uint256[]"
        },
        {
          "internalType": "uint256[]",
          "name": "flags",
          "type": "uint256[]"
        }
      ],
      "name": "assignExtras",
      "outputs": [],
      "payable": false,
      "stateMutability": "nonpayable",
      "type": "function"
    },
    {
      "constant": false,
      "inputs": [
        {
          "internalType": "uint256[]",
          "name": "_itemIds",
          "type": "uint256[]"
        },
        {
          "internalType": "uint256[]",
          "name": "_extrasIds",
          "type": "uint256[]"
        },
        {
          "internalType": "uint256[]",
          "name": "flags",
          "type": "uint256[]"
        }
      ],
      "name": "unassignExtras",
      "outputs": [],
      "payable": false,
      "stateMutability": "nonpayable",
      "type": "function"
    },
    {
      "constant": false,
      "inputs": [
        {
          "internalType": "uint256",
          "name": "index1",
          "type": "uint256"
        },
        {
          "internalType": "uint256",
          "name": "index2",
          "type": "uint256"
        }
      ],
      "name": "swapItems",
      "outputs": [],
      "payable": false,
      "stateMutability": "nonpayable",
      "type": "function"
    },
    {
      "constant": false,
      "inputs": [
        {
          "internalType": "uint256",
          "name": "_id",
          "type": "uint256"
        },
        {
          "internalType": "uint256",
          "name": "index1",
          "type": "uint256"
        },
        {
          "internalType": "uint256",
          "name": "index2",
          "type": "uint256"
        }
      ],
      "name": "swapOptions",
      "outputs": [],
      "payable": false,
      "stateMutability": "nonpayable",
      "type": "function"
    },
    {
      "constant": true,
      "inputs": [
        {
          "internalType": "uint256[]",
          "name": "integers",
          "type": "uint256[]"
        },
        {
          "internalType": "uint256",
          "name": "itemCount",
          "type": "uint256"
        }
      ],
      "name": "getOrderPrice",
      "outputs": [
        {
          "internalType": "uint256",
          "name": "",
          "type": "uint256"
        }
      ],
      "payable": false,
      "stateMutability": "view",
      "type": "function"
    },
    {
      "constant": true,
      "inputs": [
        {
          "internalType": "uint256",
          "name": "itemId",
          "type": "uint256"
        },
        {
          "internalType": "uint256",
          "name": "optionId",
          "type": "uint256"
        }
      ],
      "name": "getExtraFromExtraIndex",
      "outputs": [
        {
          "internalType": "uint256",
          "name": "",
          "type": "uint256"
        }
      ],
      "payable": false,
      "stateMutability": "view",
      "type": "function"
    }
  ],
  "bytecode": "0x608060405234801561001057600080fd5b506040516128423803806128428339818101604052602081101561003357600080fd5b5051600080546001600160a01b039092166001600160a01b0319909216919091179055600160038190556004556127d38061006f6000396000f3fe608060405234801561001057600080fd5b50600436106101a95760003560e01c80638fb0f14c116100f9578063c1c4d10211610097578063e40c8a3211610071578063e40c8a32146110e7578063e4d8a2a61461128c578063e8405154146112b5578063f0439f711461145a576101a9565b8063c1c4d10214610e99578063ca497d5c14610ea1578063d1005e3914610f42576101a9565b8063aff92011116100d3578063aff9201114610b6a578063b0e7722b14610b8d578063b21dc38a14610d32578063bae78d7b14610dd5576101a9565b80638fb0f14c1461099e578063a27b34f214610a3f578063a6bd92e314610a47576101a9565b806325b5c4f91161016657806364f2eacd1161014057806364f2eacd146105c05780638374ad34146107fb578063893bb0bf1461095d5780638da5cb5b1461097a576101a9565b806325b5c4f9146103f45780633b1180bb146105175780636287dcc61461051f576101a9565b80630545ba29146101ae5780630b9a02c5146101d3578063125ba977146102025780631ce5e9a61461020a5780631e516e05146102475780631f7b6d32146103ec575b600080fd5b6101d1600480360360408110156101c457600080fd5b5080359060200135611488565b005b6101f0600480360360208110156101e957600080fd5b503561154d565b60408051918252519081900360200190f35b6101f06115db565b6102276004803603602081101561022057600080fd5b5035611660565b604080519384526020840192909252151582820152519081900360600190f35b6101d16004803603606081101561025d57600080fd5b810190602081018135600160201b81111561027757600080fd5b82018360208201111561028957600080fd5b803590602001918460208302840111600160201b831117156102aa57600080fd5b9190808060200260200160405190810160405280939291908181526020018383602002808284376000920191909152509295949360208101935035915050600160201b8111156102f957600080fd5b82018360208201111561030b57600080fd5b803590602001918460208302840111600160201b8311171561032c57600080fd5b9190808060200260200160405190810160405280939291908181526020018383602002808284376000920191909152509295949360208101935035915050600160201b81111561037b57600080fd5b82018360208201111561038d57600080fd5b803590602001918460208302840111600160201b831117156103ae57600080fd5b919080806020026020016040519081016040528093929190818152602001838360200280828437600092019190915250929550611685945050505050565b6101f06117dd565b6101d16004803603604081101561040a57600080fd5b810190602081018135600160201b81111561042457600080fd5b82018360208201111561043657600080fd5b803590602001918460208302840111600160201b8311171561045757600080fd5b9190808060200260200160405190810160405280939291908181526020018383602002808284376000920191909152509295949360208101935035915050600160201b8111156104a657600080fd5b8201836020820111156104b857600080fd5b803590602001918460208302840111600160201b831117156104d957600080fd5b9190808060200260200160405190810160405280939291908181526020018383602002808284376000920191909152509295506117e3945050505050565b6101f06118d8565b6101d16004803603602081101561053557600080fd5b810190602081018135600160201b81111561054f57600080fd5b82018360208201111561056157600080fd5b803590602001918460208302840111600160201b8311171561058257600080fd5b9190808060200260200160405190810160405280939291908181526020018383602002808284376000920191909152509295506118de945050505050565b6107e7600480360360808110156105d657600080fd5b810190602081018135600160201b8111156105f057600080fd5b82018360208201111561060257600080fd5b803590602001918460208302840111600160201b8311171561062357600080fd5b9190808060200260200160405190810160405280939291908181526020018383602002808284376000920191909152509295949360208101935035915050600160201b81111561067257600080fd5b82018360208201111561068457600080fd5b803590602001918460208302840111600160201b831117156106a557600080fd5b9190808060200260200160405190810160405280939291908181526020018383602002808284376000920191909152509295949360208101935035915050600160201b8111156106f457600080fd5b82018360208201111561070657600080fd5b803590602001918460208302840111600160201b8311171561072757600080fd5b9190808060200260200160405190810160405280939291908181526020018383602002808284376000920191909152509295949360208101935035915050600160201b81111561077657600080fd5b82018360208201111561078857600080fd5b803590602001918460208302840111600160201b831117156107a957600080fd5b91908080602002602001604051908101604052809392919081815260200183836020028082843760009201919091525092955061198e945050505050565b604080519115158252519081900360200190f35b6108a86004803603606081101561081157600080fd5b813591602081013591810190606081016040820135600160201b81111561083757600080fd5b82018360208201111561084957600080fd5b803590602001918460208302840111600160201b8311171561086a57600080fd5b919080806020026020016040519081016040528093929190818152602001838360200280828437600092019190915250929550611b45945050505050565b604051808781526020018681526020018581526020018481526020018060200180602001838103835285818151815260200191508051906020019060200280838360005b838110156109045781810151838201526020016108ec565b50505050905001838103825284818151815260200191508051906020019060200280838360005b8381101561094357818101518382015260200161092b565b505050509050019850505050505050505060405180910390f35b6102276004803603602081101561097357600080fd5b5035611d76565b610982611d9b565b604080516001600160a01b039092168252519081900360200190f35b6101d1600480360360208110156109b457600080fd5b810190602081018135600160201b8111156109ce57600080fd5b8201836020820111156109e057600080fd5b803590602001918460208302840111600160201b83111715610a0157600080fd5b919080806020026020016040519081016040528093929190818152602001838360200280828437600092019190915250929550611daa945050505050565b6101f0611e85565b6101d160048036036040811015610a5d57600080fd5b810190602081018135600160201b811115610a7757600080fd5b820183602082011115610a8957600080fd5b803590602001918460208302840111600160201b83111715610aaa57600080fd5b9190808060200260200160405190810160405280939291908181526020018383602002808284376000920191909152509295949360208101935035915050600160201b811115610af957600080fd5b820183602082011115610b0b57600080fd5b803590602001918460208302840111600160201b83111715610b2c57600080fd5b919080806020026020016040519081016040528093929190818152602001838360200280828437600092019190915250929550611e8b945050505050565b6101f060048036036040811015610b8057600080fd5b5080359060200135611f1a565b6101d160048036036060811015610ba357600080fd5b810190602081018135600160201b811115610bbd57600080fd5b820183602082011115610bcf57600080fd5b803590602001918460208302840111600160201b83111715610bf057600080fd5b9190808060200260200160405190810160405280939291908181526020018383602002808284376000920191909152509295949360208101935035915050600160201b811115610c3f57600080fd5b820183602082011115610c5157600080fd5b803590602001918460208302840111600160201b83111715610c7257600080fd5b9190808060200260200160405190810160405280939291908181526020018383602002808284376000920191909152509295949360208101935035915050600160201b811115610cc157600080fd5b820183602082011115610cd357600080fd5b803590602001918460208302840111600160201b83111715610cf457600080fd5b919080806020026020016040519081016040528093929190818152602001838360200280828437600092019190915250929550611fca945050505050565b6101f060048036036040811015610d4857600080fd5b810190602081018135600160201b811115610d6257600080fd5b820183602082011115610d7457600080fd5b803590602001918460208302840111600160201b83111715610d9557600080fd5b919080806020026020016040519081016040528093929190818152602001838360200280828437600092019190915250929550509135925061205c915050565b610df260048036036020811015610deb57600080fd5b5035612279565b604051808581526020018481526020018060200180602001838103835285818151815260200191508051906020019060200280838360005b83811015610e42578181015183820152602001610e2a565b50505050905001838103825284818151815260200191508051906020019060200280838360005b83811015610e81578181015183820152602001610e69565b50505050905001965050505050505060405180910390f35b6101f0612440565b6101d160048036036020811015610eb757600080fd5b810190602081018135600160201b811115610ed157600080fd5b820183602082011115610ee357600080fd5b803590602001918460208302840111600160201b83111715610f0457600080fd5b919080806020026020016040519081016040528093929190818152602001838360200280828437600092019190915250929550612494945050505050565b6101d160048036036060811015610f5857600080fd5b810190602081018135600160201b811115610f7257600080fd5b820183602082011115610f8457600080fd5b803590602001918460208302840111600160201b83111715610fa557600080fd5b9190808060200260200160405190810160405280939291908181526020018383602002808284376000920191909152509295949360208101935035915050600160201b811115610ff457600080fd5b82018360208201111561100657600080fd5b803590602001918460208302840111600160201b8311171561102757600080fd5b9190808060200260200160405190810160405280939291908181526020018383602002808284376000920191909152509295949360208101935035915050600160201b81111561107657600080fd5b82018360208201111561108857600080fd5b803590602001918460208302840111600160201b831117156110a957600080fd5b919080806020026020016040519081016040528093929190818152602001838360200280828437600092019190915250929550612519945050505050565b6101d1600480360360608110156110fd57600080fd5b810190602081018135600160201b81111561111757600080fd5b82018360208201111561112957600080fd5b803590602001918460208302840111600160201b8311171561114a57600080fd5b9190808060200260200160405190810160405280939291908181526020018383602002808284376000920191909152509295949360208101935035915050600160201b81111561119957600080fd5b8201836020820111156111ab57600080fd5b803590602001918460208302840111600160201b831117156111cc57600080fd5b9190808060200260200160405190810160405280939291908181526020018383602002808284376000920191909152509295949360208101935035915050600160201b81111561121b57600080fd5b82018360208201111561122d57600080fd5b803590602001918460208302840111600160201b8311171561124e57600080fd5b9190808060200260200160405190810160405280939291908181526020018383602002808284376000920191909152509295506125a2945050505050565b6101d1600480360360608110156112a257600080fd5b5080359060208101359060400135612634565b6101d1600480360360608110156112cb57600080fd5b810190602081018135600160201b8111156112e557600080fd5b8201836020820111156112f757600080fd5b803590602001918460208302840111600160201b8311171561131857600080fd5b9190808060200260200160405190810160405280939291908181526020018383602002808284376000920191909152509295949360208101935035915050600160201b81111561136757600080fd5b82018360208201111561137957600080fd5b803590602001918460208302840111600160201b8311171561139a57600080fd5b9190808060200260200160405190810160405280939291908181526020018383602002808284376000920191909152509295949360208101935035915050600160201b8111156113e957600080fd5b8201836020820111156113fb57600080fd5b803590602001918460208302840111600160201b8311171561141c57600080fd5b9190808060200260200160405190810160405280939291908181526020018383602002808284376000920191909152509295506126e4945050505050565b61146261276d565b604080519485526020850193909352838301919091526060830152519081900360800190f35b6000546001600160a01b031633146114d15760405162461bcd60e51b815260040180806020018281038252602281526020018061277d6022913960400191505060405180910390fd5b60408051632f75e6e760e11b8152600160048201526024810184905260448101839052905173__menuHelper____________________________91635eebcdce916064808301926000929190829003018186803b15801561153157600080fd5b505af4158015611545573d6000803e3d6000fd5b505050505050565b6000600173__menuHelper____________________________6374f811479091846040518363ffffffff1660e01b8152600401808381526020018281526020019250505060206040518083038186803b1580156115a957600080fd5b505af41580156115bd573d6000803e3d6000fd5b505050506040513d60208110156115d357600080fd5b505192915050565b6000600173__menuHelper____________________________63f36cf61090916040518263ffffffff1660e01b81526004018082815260200191505060206040518083038186803b15801561162f57600080fd5b505af4158015611643573d6000803e3d6000fd5b505050506040513d602081101561165957600080fd5b5051905090565b600090815260056020526040902080546001820154600290920154909260ff90911690565b6000546001600160a01b0316331461169c57600080fd5b604051631ee24e7760e01b815260016004820181815260806024840190815286516084850152865173__menuHelper____________________________94631ee24e7794938993899389936044810191606482019160a401906020808a01910280838360005b8381101561171a578181015183820152602001611702565b50505050905001848103835286818151815260200191508051906020019060200280838360005b83811015611759578181015183820152602001611741565b50505050905001848103825285818151815260200191508051906020019060200280838360005b83811015611798578181015183820152602001611780565b5050505090500197505050505050505060006040518083038186803b1580156117c057600080fd5b505af41580156117d4573d6000803e3d6000fd5b50505050505050565b60015490565b6000546001600160a01b031633146117fa57600080fd5b600173__menuHelper____________________________631144d8cc909184846040518463ffffffff1660e01b8152600401808481526020018060200180602001838103835285818151815260200191508051906020019060200280838360005b8381101561187357818101518382015260200161185b565b50505050905001838103825284818151815260200191508051906020019060200280838360005b838110156118b257818101518382015260200161189a565b505050509050019550505050505060006040518083038186803b15801561153157600080fd5b60035490565b60408051630733405f60e01b81526001600482018181526024830193845284516044840152845173__menuHelper____________________________94630733405f948793926064909101906020808601910280838360005b8381101561194f578181015183820152602001611937565b50505050905001935050505060006040518083038186803b15801561197357600080fd5b505af4158015611987573d6000803e3d6000fd5b5050505050565b600080546001600160a01b031633146119a657600080fd5b600173__menuHelper____________________________63412362179091878787876040518663ffffffff1660e01b81526004018086815260200180602001806020018060200180602001858103855289818151815260200191508051906020019060200280838360005b83811015611a29578181015183820152602001611a11565b50505050905001858103845288818151815260200191508051906020019060200280838360005b83811015611a68578181015183820152602001611a50565b50505050905001858103835287818151815260200191508051906020019060200280838360005b83811015611aa7578181015183820152602001611a8f565b50505050905001858103825286818151815260200191508051906020019060200280838360005b83811015611ae6578181015183820152602001611ace565b50505050905001995050505050505050505060206040518083038186803b158015611b1057600080fd5b505af4158015611b24573d6000803e3d6000fd5b505050506040513d6020811015611b3a57600080fd5b509095945050505050565b600080600080606080600173__menuHelper____________________________630a652e4390918b8b8b6040518563ffffffff1660e01b81526004018085815260200184815260200183815260200180602001828103825283818151815260200191508051906020019060200280838360005b83811015611bd0578181015183820152602001611bb8565b505050509050019550505050505060006040518083038186803b158015611bf657600080fd5b505af4158015611c0a573d6000803e3d6000fd5b505050506040513d6000823e601f3d908101601f1916820160405260c0811015611c3357600080fd5b8151602083015160408085015160608601516080870180519351959794969295919491939282019284600160201b821115611c6d57600080fd5b908301906020820185811115611c8257600080fd5b82518660208202830111600160201b82111715611c9e57600080fd5b82525081516020918201928201910280838360005b83811015611ccb578181015183820152602001611cb3565b5050505090500160405260200180516040519392919084600160201b821115611cf357600080fd5b908301906020820185811115611d0857600080fd5b82518660208202830111600160201b82111715611d2457600080fd5b82525081516020918201928201910280838360005b83811015611d51578181015183820152602001611d39565b5050505090500160405250505095509550955095509550955093975093979195509350565b600090815260076020526040902080546001820154600290920154909260ff90911690565b6000546001600160a01b031681565b6000546001600160a01b03163314611dc157600080fd5b60408051631820e07b60e11b81526001600482018181526024830193845284516044840152845173__menuHelper____________________________94633041c0f6948793926064909101906020808601910280838360005b83811015611e32578181015183820152602001611e1a565b50505050905001935050505060206040518083038186803b158015611e5657600080fd5b505af4158015611e6a573d6000803e3d6000fd5b505050506040513d6020811015611e8057600080fd5b505050565b60045490565b6000546001600160a01b03163314611ea257600080fd5b6040516308f5487d60e11b815260016004820181815260606024840190815285516064850152855173__menuHelper____________________________946311ea90fa94938893889391929091604482019160840190602080880191028083836000831561187357818101518382015260200161185b565b60408051636402689b60e11b81526001600482015260248101849052604481018390529051600091600791839173__menuHelper____________________________9163c804d13691606480820192602092909190829003018186803b158015611f8357600080fd5b505af4158015611f97573d6000803e3d6000fd5b505050506040513d6020811015611fad57600080fd5b505181526020810191909152604001600020600101549392505050565b6000546001600160a01b03163314611fe157600080fd5b60405163753810c760e01b815260016004820181815260806024840190815286516084850152865173__menuHelper____________________________9463753810c794938993899389936044810191606482019160a401906020808a0191028083836000831561171a578181015183820152602001611702565b60008080805b8481101561226f5760016004016000600173__menuHelper____________________________6320f2952c90918a878151811061209b57fe5b60200260200101518b88600101815181106120b257fe5b60200260200101516040518463ffffffff1660e01b815260040180848152602001838152602001828152602001935050505060206040518083038186803b1580156120fc57600080fd5b505af4158015612110573d6000803e3d6000fd5b505050506040513d602081101561212657600080fd5b50518152602081019190915260400160009081206001015493909301925b86836002018151811061215357fe5b60200260200101518110156122435760016006016000600173__menuHelper____________________________63c804d13690918b888151811061219357fe5b60200260200101518c878a60030101815181106121ac57fe5b60200260200101516040518463ffffffff1660e01b815260040180848152602001838152602001828152602001935050505060206040518083038186803b1580156121f657600080fd5b505af415801561220a573d6000803e3d6000fd5b505050506040513d602081101561222057600080fd5b505181526020810191909152604001600020600190810154949094019301612144565b5085826002018151811061225357fe5b6020026020010151600301820191508080600101915050612062565b5090949350505050565b600080606080600173__menuHelper____________________________6336bf00579091876040518363ffffffff1660e01b8152600401808381526020018281526020019250505060006040518083038186803b1580156122d957600080fd5b505af41580156122ed573d6000803e3d6000fd5b505050506040513d6000823e601f3d908101601f19168201604052608081101561231657600080fd5b81516020830151604080850180519151939592948301929184600160201b82111561234057600080fd5b90830190602082018581111561235557600080fd5b82518660208202830111600160201b8211171561237157600080fd5b82525081516020918201928201910280838360005b8381101561239e578181015183820152602001612386565b5050505090500160405260200180516040519392919084600160201b8211156123c657600080fd5b9083019060208201858111156123db57600080fd5b82518660208202830111600160201b821117156123f757600080fd5b82525081516020918201928201910280838360005b8381101561242457818101518382015260200161240c565b5050505090500160405250505093509350935093509193509193565b6000600173__menuHelper____________________________63cf17773590916040518263ffffffff1660e01b81526004018082815260200191505060206040518083038186803b15801561162f57600080fd5b6000546001600160a01b031633146124ab57600080fd5b6040805163b49a2e4960e01b81526001600482018181526024830193845284516044840152845173__menuHelper____________________________9463b49a2e4994879392606490910190602080860191028083836000831561194f578181015183820152602001611937565b825181511461252757600080fd5b6040516389ac324360e01b815260016004820181815260806024840190815286516084850152865173__menuHelper____________________________946389ac324394938993899389936044810191606482019160a401906020808a0191028083836000831561171a578181015183820152602001611702565b6000546001600160a01b031633146125b957600080fd5b604051636f627d2360e11b815260016004820181815260806024840190815286516084850152865173__menuHelper____________________________9463dec4fa4694938993899389936044810191606482019160a401906020808a0191028083836000831561171a578181015183820152602001611702565b6000546001600160a01b0316331461267d5760405162461bcd60e51b815260040180806020018281038252602281526020018061277d6022913960400191505060405180910390fd5b60408051632f0ebdbf60e11b815260016004820152602481018590526044810184905260648101839052905173__menuHelper____________________________91635e1d7b7e916084808301926000929190829003018186803b1580156117c057600080fd5b82518151146126f257600080fd5b6040516301617f1560e61b815260016004820181815260806024840190815286516084850152865173__menuHelper____________________________9463585fc54094938993899389936044810191606482019160a401906020808a0191028083836000831561171a578181015183820152602001611702565b6001546002546003546004548456fe796f7520617265206e6f7420746865206f776e6572206f662074686973206d656e75a265627a7a723158206f06d76acdf47a8cb74c03583cba50e28739db322d83dfb4fc2648da8588817464736f6c634300050c0032",
  "source": "pragma solidity ^0.5.0;\n\nimport \"./menuHelper.sol\";\nimport \"./uintArrayExtension.sol\";\nimport \"./bytes32ArrayExtension.sol\";\n\ncontract Menu {\n\n  using menuHelper for menuHelper.menuStruct;\n  using uintArrayExtension for uint[];\n  using bytes32ArrayExtension for bytes32[];\n\n  //event AddEntry(bytes32 head,uint number,bytes32 name,bytes32 next);\n  event addOptionEvent(uint itemId, uint addAtIndex, bytes32 optionName, uint optionPrice);\n  event debug(string message);\n  event debuguint(uint number);\n\n  address public owner;\n  \n  menuHelper.menuStruct public menu;\n\n  constructor(address _owner) public{\n    owner = _owner;\n    menu.optionsHead = 1;\n    menu.extraHead = 1;\n  }\n\n  function getExtra(uint _id) public view returns (bytes32, uint, bool){\n    return (menu.extras[_id].extraName,menu.extras[_id].extraPrice,menu.extras[_id].active);\n  }\n\n  function getOption(uint _id) public view returns (bytes32, uint, bool){\n    return (menu.options[_id].optionName,menu.options[_id].optionPrice,menu.options[_id].active);\n  }\n\n  function getExtraHead() public view returns (uint){\n    return menu.extraHead;\n  }\n\n  function getOptionHead() public view returns (uint){\n    return menu.optionsHead;\n  }\n\n  function length() public view returns (uint){\n    return menu.itemTop;\n  }\n\n  function getMenuLength() public view returns (uint){\n    return menu.length();\n  }\n\n  //needed for external contract access to struct\n  function getEntry(uint _id) public view returns (bytes32,bytes32,uint[] memory, uint[] memory){\n    return menu.getEntry(_id);\n  }\n\n  //needed for external contract access to struct\n  function getOrderItem(uint itemId, uint optionId, uint[] memory extraIds) public view returns (bytes32, bytes32, bytes32, uint, bytes32[] memory, uint[] memory){\n    return menu.getOrderItem(itemId,optionId,extraIds);\n  }\n\n  //needed for external contract access to struct\n  function getEntryIndexingInfo(uint _id) public view returns (uint nextitem){\n    return menu.getEntryIndexingInfo(_id);\n  }\n\n  function getItemHead() public view returns (uint nextitem){\n    return menu.getItemHead();\n  }\n\n// =============================== unpack function to allow menu updates with one call ===============================================\n\n\n  function updateMenu(uint[] memory integers, uint[] memory integersFlags, bytes32[] memory strings, uint[] memory stringsFlags) public returns (bool){\n    require(msg.sender == owner);\n    menu.updateMenu(integers, integersFlags, strings, stringsFlags);\n  }\n\n// =============================== END unpack function to allow menu updates with one call ===============================================\n\n// =============================== menu.ITEMS ===============================================\n\n  function addMultipleItems(uint[] memory addAtIndex, bytes32[] memory itemNames, bytes32[] memory itemDescriptions) public {\n    require(msg.sender == owner);\n    menu.addMultipleItems(addAtIndex, itemNames, itemDescriptions);\n  }\n\n  function removeMultipleItems(uint[] memory itemIds) public {\n    require(msg.sender == owner);\n    menu.removeItems(itemIds);\n  }\n\n// =============================== END menu.ITEMS ===============================================\n\n// =============================== menu.OPTIONS ===============================================\n\n  function addOptions(bytes32[] memory _optionNames, uint[] memory _prices) public {\n    require(msg.sender == owner);\n    menu.addOptions(_optionNames, _prices);\n  }\n\n\n  function setOptionsInactive(uint[] memory optionIds) public {\n    menu.setOptionsInactive(optionIds);\n  }\n\n  function assignOptions(uint[] memory _itemIds, uint[] memory optionIds, uint[] memory flags) public {\n    require(msg.sender == owner);\n    menu.assignOptions(_itemIds, optionIds, flags);\n  }\n\n  function unassignOptions(uint[] memory _itemIds, uint[] memory optionIds, uint[] memory flags) public {\n    require(flags.length == _itemIds.length);\n    menu.unassignOptions(_itemIds, optionIds, flags);\n  }\n\n// =============================== END menu.OPTIONS ===============================================\n\n// =============================== menu.EXTRAS ===============================================\n\n  function addExtras(bytes32[] memory extraNames, uint[] memory extraPrice) public {\n    require(msg.sender == owner);\n    menu.addExtras(extraNames, extraPrice);\n  }\n\n  function setExtrasInactive(uint[] memory _ids) public {\n    require(msg.sender == owner);\n    menu.setExtrasInactive(_ids);\n  }\n\n  function assignExtras(uint[] memory _itemIds, uint[] memory _extrasIds, uint[] memory flags) public {\n    require(msg.sender == owner);\n    menu.assignExtras(_itemIds, _extrasIds, flags);\n  }\n\n  function unassignExtras(uint[] memory _itemIds, uint[] memory _extrasIds, uint[] memory flags) public {\n    require(flags.length == _itemIds.length);\n    menu.unassignExtras(_itemIds, _extrasIds, flags);\n  }\n\n// =============================== END menu.EXTRAS ===============================================\n\n// =============================== changing order ===============================================\n  // needs doing and implementing\n\n  // function reorderItems() public {\n\n  // }\n\n  // function reorderOptions() public {\n\n  // }\n\n  function swapItems(uint index1, uint index2) public {\n    require(msg.sender == owner, \"you are not the owner of this menu\");\n    menu.swapItems(index1, index2);\n  }\n\n  function swapOptions(uint _id, uint index1, uint index2) public {\n    require(msg.sender == owner, \"you are not the owner of this menu\");\n    menu.swapOptions(_id, index1, index2);\n  }\n\n// =============================== End Swapping Order ===============================================\n\n// =============================== Other ===============================================\n\n  //integers is uint[] calldata itemIds, uint[] calldata optionIds, uint[] calldata extraFlags, uint[] calldata extraIds\n  function getOrderPrice(uint[] memory integers, uint itemCount) public view returns (uint){\n      uint price = 0;\n      uint intIndex = 0;\n      for(uint i = 0; i < itemCount; i++){\n\n        price += menu.options[menu.getOptionFromOptionIndex(integers[intIndex],integers[intIndex+1])].optionPrice;\n\n        // get menu.extras total\n        for(uint j = 0; j < integers[intIndex+2]; j++){\n          price += menu.extras[menu.getExtraFromExtraIndex(integers[intIndex],integers[intIndex+3+j])].extraPrice;\n        }\n        intIndex += integers[intIndex+2] + 3;\n      }\n      return price;\n  }\n\n  function getExtraFromExtraIndex(uint itemId, uint optionId) public view returns(uint){\n    return menu.extras[menu.getExtraFromExtraIndex(itemId,optionId)].extraPrice;\n  }\n\n}",
  "sourcePath": "/home/george/Documents/WorkSpace/TryAByte_reactSetup/contracts/Menu.sol",
  "compiler": {
    "name": "solc",
    "version": "0.5.12+commit.7709ece9.Emscripten.clang"
  },
  "schemaVersion": "3.0.19",
  "updatedAt": "2020-02-16T17:05:31.119Z",
  "networkType": "ethereum",
  "devdoc": {
    "methods": {}
  },
  "userdoc": {
    "methods": {}
  }
}