{
  "contractName": "Order",
  "abi": [
    {
      "constant": true,
      "inputs": [],
      "name": "totalItems",
      "outputs": [
        {
          "name": "",
          "type": "uint256"
        }
      ],
      "payable": false,
      "stateMutability": "view",
      "type": "function"
    },
    {
      "constant": true,
      "inputs": [],
      "name": "restaurantStatus",
      "outputs": [
        {
          "name": "",
          "type": "uint256"
        }
      ],
      "payable": false,
      "stateMutability": "view",
      "type": "function"
    },
    {
      "constant": true,
      "inputs": [],
      "name": "riderStatus",
      "outputs": [
        {
          "name": "",
          "type": "uint256"
        }
      ],
      "payable": false,
      "stateMutability": "view",
      "type": "function"
    },
    {
      "constant": true,
      "inputs": [],
      "name": "restaurantFactoryAddress",
      "outputs": [
        {
          "name": "",
          "type": "address"
        }
      ],
      "payable": false,
      "stateMutability": "view",
      "type": "function"
    },
    {
      "constant": true,
      "inputs": [],
      "name": "customerStatus",
      "outputs": [
        {
          "name": "",
          "type": "uint256"
        }
      ],
      "payable": false,
      "stateMutability": "view",
      "type": "function"
    },
    {
      "constant": true,
      "inputs": [],
      "name": "id",
      "outputs": [
        {
          "name": "",
          "type": "uint256"
        }
      ],
      "payable": false,
      "stateMutability": "view",
      "type": "function"
    },
    {
      "constant": true,
      "inputs": [
        {
          "name": "",
          "type": "uint256"
        }
      ],
      "name": "items",
      "outputs": [
        {
          "name": "itemName",
          "type": "string"
        },
        {
          "name": "itemCost",
          "type": "uint256"
        }
      ],
      "payable": false,
      "stateMutability": "view",
      "type": "function"
    },
    {
      "constant": true,
      "inputs": [],
      "name": "restaurant",
      "outputs": [
        {
          "name": "",
          "type": "address"
        }
      ],
      "payable": false,
      "stateMutability": "view",
      "type": "function"
    },
    {
      "inputs": [
        {
          "name": "_id",
          "type": "uint256"
        },
        {
          "name": "_restaurantFactoryAddress",
          "type": "address"
        },
        {
          "name": "itemNames",
          "type": "bytes32[]"
        },
        {
          "name": "prices",
          "type": "uint256[]"
        },
        {
          "name": "_controller",
          "type": "address"
        },
        {
          "name": "_customer",
          "type": "address"
        }
      ],
      "payable": false,
      "stateMutability": "nonpayable",
      "type": "constructor"
    },
    {
      "constant": false,
      "inputs": [],
      "name": "customerPay",
      "outputs": [],
      "payable": true,
      "stateMutability": "payable",
      "type": "function"
    },
    {
      "constant": true,
      "inputs": [
        {
          "name": "_id",
          "type": "uint256"
        }
      ],
      "name": "getItem",
      "outputs": [
        {
          "name": "itemName",
          "type": "bytes32"
        },
        {
          "name": "itemCost",
          "type": "uint256"
        }
      ],
      "payable": false,
      "stateMutability": "view",
      "type": "function"
    },
    {
      "constant": true,
      "inputs": [],
      "name": "getDeliveryAddress",
      "outputs": [
        {
          "name": "_deliveryAddress",
          "type": "bytes32"
        }
      ],
      "payable": false,
      "stateMutability": "view",
      "type": "function"
    },
    {
      "constant": false,
      "inputs": [],
      "name": "riderOfferDelivery",
      "outputs": [],
      "payable": true,
      "stateMutability": "payable",
      "type": "function"
    },
    {
      "constant": false,
      "inputs": [
        {
          "name": "status",
          "type": "uint256"
        }
      ],
      "name": "setOrderStatus",
      "outputs": [],
      "payable": true,
      "stateMutability": "payable",
      "type": "function"
    },
    {
      "constant": true,
      "inputs": [],
      "name": "getBalance",
      "outputs": [
        {
          "name": "",
          "type": "uint256"
        }
      ],
      "payable": false,
      "stateMutability": "view",
      "type": "function"
    },
    {
      "constant": true,
      "inputs": [],
      "name": "getCost",
      "outputs": [
        {
          "name": "",
          "type": "uint256"
        }
      ],
      "payable": false,
      "stateMutability": "view",
      "type": "function"
    }
  ],
  "bytecode": "0x60806040523480156200001157600080fd5b506040516200177838038062001778833981018060405260c08110156200003757600080fd5b81019080805190602001909291908051906020019092919080516401000000008111156200006457600080fd5b828101905060208101848111156200007b57600080fd5b81518560208202830111640100000000821117156200009957600080fd5b50509291906020018051640100000000811115620000b657600080fd5b82810190506020810184811115620000cd57600080fd5b8151856020820283011164010000000082111715620000eb57600080fd5b505092919060200180519060200190929190805190602001909291905050508473ffffffffffffffffffffffffffffffffffffffff166379a4fa27336040518263ffffffff167c0100000000000000000000000000000000000000000000000000000000028152600401808273ffffffffffffffffffffffffffffffffffffffff1673ffffffffffffffffffffffffffffffffffffffff16815260200191505060206040518083038186803b158015620001a457600080fd5b505afa158015620001b9573d6000803e3d6000fd5b505050506040513d6020811015620001d057600080fd5b810190808051906020019092919050505015156200027c576040517f08c379a000000000000000000000000000000000000000000000000000000000815260040180806020018281038252603d8152602001807f617474656d7074656420746f206d616b65206f726465722066726f6d2061646481526020017f726573732074686174206973206e6f7420612072657374617572616e7400000081525060400191505060405180910390fd5b825184511415156200028d57600080fd5b8560038190555033600560006101000a81548173ffffffffffffffffffffffffffffffffffffffff021916908373ffffffffffffffffffffffffffffffffffffffff16021790555080600760006101000a81548173ffffffffffffffffffffffffffffffffffffffff021916908373ffffffffffffffffffffffffffffffffffffffff16021790555084600460006101000a81548173ffffffffffffffffffffffffffffffffffffffff021916908373ffffffffffffffffffffffffffffffffffffffff16021790555081600860006101000a81548173ffffffffffffffffffffffffffffffffffffffff021916908373ffffffffffffffffffffffffffffffffffffffff1602179055506000600a819055506000600c8190555060008090505b84518110156200058757604080519081016040528073__lib___________________________________639201de558885815181101515620003ec57fe5b906020019060200201516040518263ffffffff167c01000000000000000000000000000000000000000000000000000000000281526004018082815260200191505060006040518083038186803b1580156200044757600080fd5b505af41580156200045c573d6000803e3d6000fd5b505050506040513d6000823e3d601f19601f8201168201806040525060208110156200048757600080fd5b810190808051640100000000811115620004a057600080fd5b82810190506020810184811115620004b757600080fd5b8151856001820283011164010000000082111715620004d557600080fd5b505092919050505081526020018583815181101515620004f157fe5b90602001906020020151815250600d6000600c548152602001908152602001600020600082015181600001908051906020019062000531929190620005d8565b506020820151816001015590505083818151811015156200054e57fe5b90602001906020020151600a60008282540192505081905550600c600081548092919060010191905055508080600101915050620003ae565b5060c8600b81905550600060038111156200059e57fe5b60008190555060006002811115620005b257fe5b60028190555060006002811115620005c657fe5b60018190555050505050505062000687565b828054600181600116156101000203166002900490600052602060002090601f016020900481019282601f106200061b57805160ff19168380011785556200064c565b828001600101855582156200064c579182015b828111156200064b5782518255916020019190600101906200062e565b5b5090506200065b91906200065f565b5090565b6200068491905b808211156200068057600081600090555060010162000666565b5090565b90565b6110e180620006976000396000f3fe6080604052600436106100db576000357c0100000000000000000000000000000000000000000000000000000000900463ffffffff16806312065fe0146100e05780632799276d1461010b5780633129e77314610136578063329408161461018c5780633733d9f5146101b75780633e3ca4d3146101e257806368db65a41461020d5780638d74d1ca14610264578063a14b7e681461026e578063af640d0f14610299578063bd3e19d4146102c4578063bfb231d2146102ef578063c7529f0c146103aa578063e9132c42146103b4578063ed168058146103e2575b600080fd5b3480156100ec57600080fd5b506100f5610439565b6040518082815260200191505060405180910390f35b34801561011757600080fd5b50610120610458565b6040518082815260200191505060405180910390f35b34801561014257600080fd5b5061016f6004803603602081101561015957600080fd5b810190808035906020019092919050505061045e565b604051808381526020018281526020019250505060405180910390f35b34801561019857600080fd5b506101a16106ca565b6040518082815260200191505060405180910390f35b3480156101c357600080fd5b506101cc6106d0565b6040518082815260200191505060405180910390f35b3480156101ee57600080fd5b506101f76107e6565b6040518082815260200191505060405180910390f35b34801561021957600080fd5b506102226107ec565b604051808273ffffffffffffffffffffffffffffffffffffffff1673ffffffffffffffffffffffffffffffffffffffff16815260200191505060405180910390f35b61026c610812565b005b34801561027a57600080fd5b506102836109b6565b6040518082815260200191505060405180910390f35b3480156102a557600080fd5b506102ae6109bc565b6040518082815260200191505060405180910390f35b3480156102d057600080fd5b506102d96109c2565b6040518082815260200191505060405180910390f35b3480156102fb57600080fd5b506103286004803603602081101561031257600080fd5b81019080803590602001909291905050506109cc565b6040518080602001838152602001828103825284818151815260200191508051906020019080838360005b8381101561036e578082015181840152602081019050610353565b50505050905090810190601f16801561039b5780820380516001836020036101000a031916815260200191505b50935050505060405180910390f35b6103b2610a88565b005b6103e0600480360360208110156103ca57600080fd5b8101908080359060200190929190505050610c8c565b005b3480156103ee57600080fd5b506103f761108f565b604051808273ffffffffffffffffffffffffffffffffffffffff1673ffffffffffffffffffffffffffffffffffffffff16815260200191505060405180910390f35b60003073ffffffffffffffffffffffffffffffffffffffff1631905090565b600c5481565b6000803373ffffffffffffffffffffffffffffffffffffffff16600760009054906101000a900473ffffffffffffffffffffffffffffffffffffffff1673ffffffffffffffffffffffffffffffffffffffff16148061050a57503373ffffffffffffffffffffffffffffffffffffffff16600560009054906101000a900473ffffffffffffffffffffffffffffffffffffffff1673ffffffffffffffffffffffffffffffffffffffff16145b8061056257503373ffffffffffffffffffffffffffffffffffffffff16600660009054906101000a900473ffffffffffffffffffffffffffffffffffffffff1673ffffffffffffffffffffffffffffffffffffffff16145b151561056d57600080fd5b73__lib___________________________________63cfb51928600d60008681526020019081526020016000206000016040518263ffffffff167c010000000000000000000000000000000000000000000000000000000002815260040180806020018281038252838181546001816001161561010002031660029004815260200191508054600181600116156101000203166002900480156106515780601f1061062657610100808354040283529160200191610651565b820191906000526020600020905b81548152906001019060200180831161063457829003601f168201915b50509250505060206040518083038186803b15801561066f57600080fd5b505af4158015610683573d6000803e3d6000fd5b505050506040513d602081101561069957600080fd5b8101908080519060200190929190505050600d60008581526020019081526020016000206001015491509150915091565b60015481565b60003373ffffffffffffffffffffffffffffffffffffffff16600760009054906101000a900473ffffffffffffffffffffffffffffffffffffffff1673ffffffffffffffffffffffffffffffffffffffff16148061077b57503373ffffffffffffffffffffffffffffffffffffffff16600560009054906101000a900473ffffffffffffffffffffffffffffffffffffffff1673ffffffffffffffffffffffffffffffffffffffff16145b806107d357503373ffffffffffffffffffffffffffffffffffffffff16600660009054906101000a900473ffffffffffffffffffffffffffffffffffffffff1673ffffffffffffffffffffffffffffffffffffffff16145b15156107de57600080fd5b600954905090565b60005481565b600460009054906101000a900473ffffffffffffffffffffffffffffffffffffffff1681565b600760009054906101000a900473ffffffffffffffffffffffffffffffffffffffff1673ffffffffffffffffffffffffffffffffffffffff163373ffffffffffffffffffffffffffffffffffffffff161415156108fd576040517f08c379a00000000000000000000000000000000000000000000000000000000081526004018080602001828103825260288152602001807f6f6e6c792074686520637573746f6d65722063616e2070617920666f7220746881526020017f6973206f7264657200000000000000000000000000000000000000000000000081525060400191505060405180910390fd5b600b54600a540134101515156109a1576040517f08c379a00000000000000000000000000000000000000000000000000000000081526004018080602001828103825260228152602001807f6e6f7420656e6f7567682065746865722073656e7420746f20746865206f726481526020017f657200000000000000000000000000000000000000000000000000000000000081525060400191505060405180910390fd5b600160028111156109ae57fe5b600281905550565b60025481565b60035481565b6000600a54905090565b600d602052806000526040600020600091509050806000018054600181600116156101000203166002900480601f016020809104026020016040519081016040528092919081815260200182805460018160011615610100020316600290048015610a785780601f10610a4d57610100808354040283529160200191610a78565b820191906000526020600020905b815481529060010190602001808311610a5b57829003601f168201915b5050505050908060010154905082565b600860009054906101000a900473ffffffffffffffffffffffffffffffffffffffff1673ffffffffffffffffffffffffffffffffffffffff1663c9286d576040518163ffffffff167c010000000000000000000000000000000000000000000000000000000002815260040160206040518083038186803b158015610b0c57600080fd5b505afa158015610b20573d6000803e3d6000fd5b505050506040513d6020811015610b3657600080fd5b810190808051906020019092919050505073ffffffffffffffffffffffffffffffffffffffff166313952670336040518263ffffffff167c0100000000000000000000000000000000000000000000000000000000028152600401808273ffffffffffffffffffffffffffffffffffffffff1673ffffffffffffffffffffffffffffffffffffffff16815260200191505060206040518083038186803b158015610bdf57600080fd5b505afa158015610bf3573d6000803e3d6000fd5b505050506040513d6020811015610c0957600080fd5b81019080805190602001909291905050501515610c2557600080fd5b600a543410151515610c3657600080fd5b60016003811115610c4357fe5b60008190555033600660006101000a81548173ffffffffffffffffffffffffffffffffffffffff021916908373ffffffffffffffffffffffffffffffffffffffff160217905550565b600660009054906101000a900473ffffffffffffffffffffffffffffffffffffffff1673ffffffffffffffffffffffffffffffffffffffff163373ffffffffffffffffffffffffffffffffffffffff161480610d355750600560009054906101000a900473ffffffffffffffffffffffffffffffffffffffff1673ffffffffffffffffffffffffffffffffffffffff163373ffffffffffffffffffffffffffffffffffffffff16145b80610d8d5750600760009054906101000a900473ffffffffffffffffffffffffffffffffffffffff1673ffffffffffffffffffffffffffffffffffffffff163373ffffffffffffffffffffffffffffffffffffffff16145b1515610e4d576040517f08c379a00000000000000000000000000000000000000000000000000000000081526004018080602001828103825260508152602001807f596f7520646f6e742068617665207065726d697373696f6e20746f207365652081526020017f74686973206f726465722c2064696420796f752067657420746865206f72646581526020017f7220616464726573732077726f6e673f0000000000000000000000000000000081525060600191505060405180910390fd5b600660009054906101000a900473ffffffffffffffffffffffffffffffffffffffff1673ffffffffffffffffffffffffffffffffffffffff163373ffffffffffffffffffffffffffffffffffffffff161415610eaf5780600081905550611009565b600560009054906101000a900473ffffffffffffffffffffffffffffffffffffffff1673ffffffffffffffffffffffffffffffffffffffff163373ffffffffffffffffffffffffffffffffffffffff161415610f115780600181905550611008565b600760009054906101000a900473ffffffffffffffffffffffffffffffffffffffff1673ffffffffffffffffffffffffffffffffffffffff163373ffffffffffffffffffffffffffffffffffffffff161415610f735780600281905550611007565b6040517f08c379a00000000000000000000000000000000000000000000000000000000081526004018080602001828103825260358152602001807f4572726f723a20756e617574686f72697365726420616464726573732061636381526020017f657373696e67207365744f72646572537461747573000000000000000000000081525060400191505060405180910390fd5b5b5b600360005414801561101c575060028054145b1561108c57600660009054906101000a900473ffffffffffffffffffffffffffffffffffffffff1673ffffffffffffffffffffffffffffffffffffffff166108fc60649081150290604051600060405180830381858888f1935050505015801561108a573d6000803e3d6000fd5b505b50565b600560009054906101000a900473ffffffffffffffffffffffffffffffffffffffff168156fea165627a7a7230582047975a4cc7d6234ce12c56f4e086815c6db67c189d6872b77fb9bb70b0ac79610029",
  "source": "pragma solidity ^0.5.0;\n\nimport './lib.sol';\nimport './RestaurantFactory.sol';\nimport './RiderFactory.sol';\nimport './Controller.sol';\n\ncontract Order{\n\n\tenum riderState{unassigned, accepted, hasCargo, Delivered}\n\tenum restaurantState{acceptedOrder, preparingCargo, HandedOver}\n\tenum customerState{madeOrder, payed, hasCargo}\n    \n\tuint public riderStatus;\n\tuint public restaurantStatus;\n\tuint public customerStatus;\n\n\tuint public id;\n\taddress public restaurantFactoryAddress;\n\t\n\n\taddress payable public restaurant;\n\taddress payable rider; \t  // this should be encrypted\n\taddress payable customer; // this should be encrypted\n\n\taddress controller;\n\n\tbytes32 deliveryAddress;\n\tuint cost;\n\tuint deliveryFee;\n    \n\n\n\tuint public totalItems;\n\tmapping(uint=>Item) public items; // this should be encrypted\n\n\tstruct Item{\n\t\tstring itemName;\n\t\tuint itemCost; // in wei (10^-18 Eth)\n\t}\n\n\tconstructor(uint _id, address _restaurantFactoryAddress, bytes32[] memory itemNames, uint[] memory prices, address _controller, address payable _customer) public {\n\t    // require sent from a restaurant contract\n\t    require(RestaurantFactory(_restaurantFactoryAddress).restaurantExists(msg.sender),\"attempted to make order from address that is not a restaurant\");\n\t    require(itemNames.length == prices.length);\n\n\t\t\n\t\t// set contract infomation\n\t\tid = _id;\n\t\trestaurant = msg.sender;\n\t\tcustomer = _customer; // this needs changing as is vunrability\n\t\trestaurantFactoryAddress = _restaurantFactoryAddress;\n\n\t\tcontroller = _controller;\n\t\t\n\t\tcost = 0;\n\n\t\t// set items\n\t\ttotalItems = 0;\n\t\tfor(uint i = 0; i < itemNames.length; i++){\n\t\t    items[totalItems] = Item(lib.bytes32ToString(itemNames[i]),prices[i]);\n\t\t    cost += prices[i];\n\t\t    totalItems++;\n\t\t}\n\n\t\tdeliveryFee = 200;\n\n\t\triderStatus = uint(riderState.unassigned);\n\t\tcustomerStatus = uint(customerState.madeOrder);\n\t\trestaurantStatus = uint(restaurantState.acceptedOrder);\t\n\t}\n\n\tfunction customerPay() public payable{\n\t\trequire(msg.sender == customer, \"only the customer can pay for this order\");\n\t\trequire(msg.value >= cost + deliveryFee, \"not enough ether sent to the order\");\n\t\tcustomerStatus = uint(customerState.payed);\n\t}\n\n\tfunction getItem(uint _id) public view returns(bytes32 itemName, uint itemCost){\n\t\trequire(customer == msg.sender || restaurant == msg.sender || rider == msg.sender);\n\t\treturn (lib.stringToBytes32(items[_id].itemName),items[_id].itemCost);\n\t}  \n\n\tfunction getDeliveryAddress() public view returns(bytes32 _deliveryAddress){\n\t\trequire(customer == msg.sender || restaurant == msg.sender || rider == msg.sender);\n\t\treturn deliveryAddress;\n\t}\n\n\tfunction riderOfferDelivery() public payable{\n\t\trequire(RiderFactory(Controller(controller).riderFactoryAddress()).riderExists(msg.sender));\n\t\trequire(msg.value >= cost);\n\t\t\n\t\triderStatus = uint(riderState.accepted);\n\t\trider = msg.sender;\n\t}\n\n\tfunction setOrderStatus(uint status) public payable{\n\t\trequire(msg.sender == rider || msg.sender == restaurant || msg.sender == customer, \"You dont have permission to see this order, did you get the order address wrong?\");\n\n\t\tif(msg.sender == rider)\n\t\t\triderStatus = status;\n\t\telse if(msg.sender == restaurant)\n\t\t\trestaurantStatus = status;\n\t\telse if(msg.sender == customer)\n\t\t\tcustomerStatus = status;\n\t\telse\n\t\t\trevert(\"Error: unauthoriserd address accessing setOrderStatus\");\n\n\t\t// if both rider and customer state the customer has the food\n\t\tif(riderStatus == 3 && customerStatus == 2){\n\t\t\t\n\t\t\taddress(rider).transfer(100);\n\t\t\t// restaurant.transfer(100);\n\t\t}\n\t}\n\n\tfunction getBalance() public view returns(uint){\n\t\treturn address(this).balance;\n\t}\n\n\tfunction getCost() public view returns(uint){\n\t\t//require that this is one of the agents involved\n\t\treturn cost;\n\t}\n}",
  "sourcePath": "/home/george/Documents/University/Dissertation/TryAByte/contracts/Order.sol",
  "compiler": {
    "name": "solc",
    "version": "0.5.0+commit.1d4f565a.Emscripten.clang"
  },
  "schemaVersion": "3.0.2",
  "updatedAt": "2019-03-21T18:05:21.158Z",
  "devdoc": {
    "methods": {}
  },
  "userdoc": {
    "methods": {}
  }
}