{
  "contractName": "Order",
  "abi": [
    {
      "constant": true,
      "inputs": [],
      "name": "totalItems",
      "outputs": [
        {
          "name": "",
          "type": "uint256"
        }
      ],
      "payable": false,
      "stateMutability": "view",
      "type": "function"
    },
    {
      "constant": true,
      "inputs": [],
      "name": "restaurantStatus",
      "outputs": [
        {
          "name": "",
          "type": "uint256"
        }
      ],
      "payable": false,
      "stateMutability": "view",
      "type": "function"
    },
    {
      "constant": true,
      "inputs": [],
      "name": "riderStatus",
      "outputs": [
        {
          "name": "",
          "type": "uint256"
        }
      ],
      "payable": false,
      "stateMutability": "view",
      "type": "function"
    },
    {
      "constant": true,
      "inputs": [],
      "name": "rider",
      "outputs": [
        {
          "name": "",
          "type": "address"
        }
      ],
      "payable": false,
      "stateMutability": "view",
      "type": "function"
    },
    {
      "constant": true,
      "inputs": [],
      "name": "orderTime",
      "outputs": [
        {
          "name": "",
          "type": "uint256"
        }
      ],
      "payable": false,
      "stateMutability": "view",
      "type": "function"
    },
    {
      "constant": true,
      "inputs": [],
      "name": "customerStatus",
      "outputs": [
        {
          "name": "",
          "type": "uint256"
        }
      ],
      "payable": false,
      "stateMutability": "view",
      "type": "function"
    },
    {
      "constant": true,
      "inputs": [],
      "name": "id",
      "outputs": [
        {
          "name": "",
          "type": "uint256"
        }
      ],
      "payable": false,
      "stateMutability": "view",
      "type": "function"
    },
    {
      "constant": true,
      "inputs": [
        {
          "name": "",
          "type": "uint256"
        }
      ],
      "name": "items",
      "outputs": [
        {
          "name": "itemName",
          "type": "bytes32"
        },
        {
          "name": "itemCost",
          "type": "uint256"
        }
      ],
      "payable": false,
      "stateMutability": "view",
      "type": "function"
    },
    {
      "constant": true,
      "inputs": [],
      "name": "restaurant",
      "outputs": [
        {
          "name": "",
          "type": "address"
        }
      ],
      "payable": false,
      "stateMutability": "view",
      "type": "function"
    },
    {
      "constant": true,
      "inputs": [],
      "name": "deliveryFee",
      "outputs": [
        {
          "name": "",
          "type": "uint256"
        }
      ],
      "payable": false,
      "stateMutability": "view",
      "type": "function"
    },
    {
      "constant": true,
      "inputs": [],
      "name": "keyHashRider",
      "outputs": [
        {
          "name": "",
          "type": "bytes32"
        }
      ],
      "payable": false,
      "stateMutability": "view",
      "type": "function"
    },
    {
      "inputs": [
        {
          "name": "_id",
          "type": "uint256"
        },
        {
          "name": "itemNames",
          "type": "bytes32[]"
        },
        {
          "name": "prices",
          "type": "uint256[]"
        },
        {
          "name": "_deliveryFee",
          "type": "uint256"
        },
        {
          "name": "_deliveryAddress",
          "type": "bytes32"
        },
        {
          "name": "_controller",
          "type": "address"
        },
        {
          "name": "_customer",
          "type": "address"
        }
      ],
      "payable": true,
      "stateMutability": "payable",
      "type": "constructor"
    },
    {
      "constant": true,
      "inputs": [
        {
          "name": "_id",
          "type": "uint256"
        }
      ],
      "name": "getItem",
      "outputs": [
        {
          "name": "itemName",
          "type": "bytes32"
        },
        {
          "name": "itemCost",
          "type": "uint256"
        }
      ],
      "payable": false,
      "stateMutability": "view",
      "type": "function"
    },
    {
      "constant": true,
      "inputs": [],
      "name": "getDeliveryAddress",
      "outputs": [
        {
          "name": "_deliveryAddress",
          "type": "bytes32"
        }
      ],
      "payable": false,
      "stateMutability": "view",
      "type": "function"
    },
    {
      "constant": false,
      "inputs": [],
      "name": "riderOfferDelivery",
      "outputs": [],
      "payable": true,
      "stateMutability": "payable",
      "type": "function"
    },
    {
      "constant": false,
      "inputs": [
        {
          "name": "status",
          "type": "uint256"
        }
      ],
      "name": "setOrderStatus",
      "outputs": [],
      "payable": true,
      "stateMutability": "payable",
      "type": "function"
    },
    {
      "constant": true,
      "inputs": [],
      "name": "getBalance",
      "outputs": [
        {
          "name": "",
          "type": "uint256"
        }
      ],
      "payable": false,
      "stateMutability": "view",
      "type": "function"
    },
    {
      "constant": true,
      "inputs": [],
      "name": "getCost",
      "outputs": [
        {
          "name": "",
          "type": "uint256"
        }
      ],
      "payable": false,
      "stateMutability": "view",
      "type": "function"
    },
    {
      "constant": false,
      "inputs": [
        {
          "name": "keyhash",
          "type": "bytes32"
        }
      ],
      "name": "setKeyhashForRider",
      "outputs": [],
      "payable": false,
      "stateMutability": "nonpayable",
      "type": "function"
    },
    {
      "constant": false,
      "inputs": [],
      "name": "riderSubmitKey",
      "outputs": [],
      "payable": false,
      "stateMutability": "nonpayable",
      "type": "function"
    }
  ],
  "bytecode": "0x60806040526000600460006101000a81548160ff0219169083151502179055506000600460016101000a81548160ff0219169083151502179055506040516200181b3803806200181b833981018060405260e08110156200005f57600080fd5b810190808051906020019092919080516401000000008111156200008257600080fd5b828101905060208101848111156200009957600080fd5b8151856020820283011164010000000082111715620000b757600080fd5b50509291906020018051640100000000811115620000d457600080fd5b82810190506020810184811115620000eb57600080fd5b81518560208202830111640100000000821117156200010957600080fd5b5050929190602001805190602001909291908051906020019092919080519060200190929190805190602001909291905050508173ffffffffffffffffffffffffffffffffffffffff166368db65a46040518163ffffffff167c010000000000000000000000000000000000000000000000000000000002815260040160206040518083038186803b1580156200019f57600080fd5b505afa158015620001b4573d6000803e3d6000fd5b505050506040513d6020811015620001cb57600080fd5b810190808051906020019092919050505073ffffffffffffffffffffffffffffffffffffffff166379a4fa27336040518263ffffffff167c0100000000000000000000000000000000000000000000000000000000028152600401808273ffffffffffffffffffffffffffffffffffffffff1673ffffffffffffffffffffffffffffffffffffffff16815260200191505060206040518083038186803b1580156200027557600080fd5b505afa1580156200028a573d6000803e3d6000fd5b505050506040513d6020811015620002a157600080fd5b810190808051906020019092919050505015156200034d576040517f08c379a000000000000000000000000000000000000000000000000000000000815260040180806020018281038252603d8152602001807f617474656d7074656420746f206d616b65206f726465722066726f6d2061646481526020017f726573732074686174206973206e6f7420612072657374617572616e7400000081525060400191505060405180910390fd5b84518651141515620003ed576040517f08c379a00000000000000000000000000000000000000000000000000000000081526004018080602001828103825260238152602001807f696e76616c6964206d61746368696e67206f66206974656d7320746f2070726981526020017f636573000000000000000000000000000000000000000000000000000000000081525060400191505060405180910390fd5b8660038190555033600460026101000a81548173ffffffffffffffffffffffffffffffffffffffff021916908373ffffffffffffffffffffffffffffffffffffffff16021790555080600660006101000a81548173ffffffffffffffffffffffffffffffffffffffff021916908373ffffffffffffffffffffffffffffffffffffffff160217905550826008819055504260098190555081600760006101000a81548173ffffffffffffffffffffffffffffffffffffffff021916908373ffffffffffffffffffffffffffffffffffffffff1602179055506000600a819055506000600d8190555060008090505b86518110156200059e5760408051908101604052808883815181101515620004ff57fe5b90602001906020020151815260200187838151811015156200051d57fe5b90602001906020020151815250600e6000600d548152602001908152602001600020600082015181600001556020820151816001015590505085818151811015156200056557fe5b90602001906020020151600a60008282540192505081905550600d600081548092919060010191905055508080600101915050620004db565b5083600b81905550600b54600a540134101515156200064b576040517f08c379a00000000000000000000000000000000000000000000000000000000081526004018080602001828103825260238152602001807f6e6f7420656e6f7567682065746865722073656e7420746f20746865206f726481526020017f657220000000000000000000000000000000000000000000000000000000000081525060400191505060405180910390fd5b600160028111156200065957fe5b600281905550600060038111156200066d57fe5b600081905550600060038111156200068157fe5b6001819055505050505050505061117d806200069e6000396000f3fe608060405260043610610107576000357c0100000000000000000000000000000000000000000000000000000000900463ffffffff16806312065fe01461010c5780632799276d146101375780633129e7731461016257806332940816146101b85780633733d9f5146101e35780633e3ca4d31461020e57806353c0a006146102395780637aada1341461029057806397167804146102bb5780639837d699146102f6578063a14b7e681461030d578063af640d0f14610338578063bd3e19d414610363578063bfb231d21461038e578063c7529f0c146103e4578063e9132c42146103ee578063ed1680581461041c578063f3cc0f1f14610473578063fc6f78a01461049e575b600080fd5b34801561011857600080fd5b506101216104c9565b6040518082815260200191505060405180910390f35b34801561014357600080fd5b5061014c6104e8565b6040518082815260200191505060405180910390f35b34801561016e57600080fd5b5061019b6004803603602081101561018557600080fd5b81019080803590602001909291905050506104ee565b604051808381526020018281526020019250505060405180910390f35b3480156101c457600080fd5b506101cd610528565b6040518082815260200191505060405180910390f35b3480156101ef57600080fd5b506101f861052e565b6040518082815260200191505060405180910390f35b34801561021a57600080fd5b50610223610644565b6040518082815260200191505060405180910390f35b34801561024557600080fd5b5061024e61064a565b604051808273ffffffffffffffffffffffffffffffffffffffff1673ffffffffffffffffffffffffffffffffffffffff16815260200191505060405180910390f35b34801561029c57600080fd5b506102a5610670565b6040518082815260200191505060405180910390f35b3480156102c757600080fd5b506102f4600480360360208110156102de57600080fd5b8101908080359060200190929190505050610676565b005b34801561030257600080fd5b5061030b610680565b005b34801561031957600080fd5b50610322610682565b6040518082815260200191505060405180910390f35b34801561034457600080fd5b5061034d610688565b6040518082815260200191505060405180910390f35b34801561036f57600080fd5b5061037861068e565b6040518082815260200191505060405180910390f35b34801561039a57600080fd5b506103c7600480360360208110156103b157600080fd5b8101908080359060200190929190505050610698565b604051808381526020018281526020019250505060405180910390f35b6103ec6106bc565b005b61041a6004803603602081101561040457600080fd5b81019080803590602001909291905050506108c0565b005b34801561042857600080fd5b5061043161111f565b604051808273ffffffffffffffffffffffffffffffffffffffff1673ffffffffffffffffffffffffffffffffffffffff16815260200191505060405180910390f35b34801561047f57600080fd5b50610488611145565b6040518082815260200191505060405180910390f35b3480156104aa57600080fd5b506104b361114b565b6040518082815260200191505060405180910390f35b60003073ffffffffffffffffffffffffffffffffffffffff1631905090565b600d5481565b600080600e600084815260200190815260200160002060000154600e60008581526020019081526020016000206001015491509150915091565b60015481565b60003373ffffffffffffffffffffffffffffffffffffffff16600660009054906101000a900473ffffffffffffffffffffffffffffffffffffffff1673ffffffffffffffffffffffffffffffffffffffff1614806105d957503373ffffffffffffffffffffffffffffffffffffffff16600460029054906101000a900473ffffffffffffffffffffffffffffffffffffffff1673ffffffffffffffffffffffffffffffffffffffff16145b8061063157503373ffffffffffffffffffffffffffffffffffffffff16600560009054906101000a900473ffffffffffffffffffffffffffffffffffffffff1673ffffffffffffffffffffffffffffffffffffffff16145b151561063c57600080fd5b600854905090565b60005481565b600560009054906101000a900473ffffffffffffffffffffffffffffffffffffffff1681565b60095481565b80600c8190555050565b565b60025481565b60035481565b6000600a54905090565b600e6020528060005260406000206000915090508060000154908060010154905082565b600760009054906101000a900473ffffffffffffffffffffffffffffffffffffffff1673ffffffffffffffffffffffffffffffffffffffff1663c9286d576040518163ffffffff167c010000000000000000000000000000000000000000000000000000000002815260040160206040518083038186803b15801561074057600080fd5b505afa158015610754573d6000803e3d6000fd5b505050506040513d602081101561076a57600080fd5b810190808051906020019092919050505073ffffffffffffffffffffffffffffffffffffffff166313952670336040518263ffffffff167c0100000000000000000000000000000000000000000000000000000000028152600401808273ffffffffffffffffffffffffffffffffffffffff1673ffffffffffffffffffffffffffffffffffffffff16815260200191505060206040518083038186803b15801561081357600080fd5b505afa158015610827573d6000803e3d6000fd5b505050506040513d602081101561083d57600080fd5b8101908080519060200190929190505050151561085957600080fd5b600a54341015151561086a57600080fd5b6001600381111561087757fe5b60008190555033600560006101000a81548173ffffffffffffffffffffffffffffffffffffffff021916908373ffffffffffffffffffffffffffffffffffffffff160217905550565b600560009054906101000a900473ffffffffffffffffffffffffffffffffffffffff1673ffffffffffffffffffffffffffffffffffffffff163373ffffffffffffffffffffffffffffffffffffffff1614806109695750600460029054906101000a900473ffffffffffffffffffffffffffffffffffffffff1673ffffffffffffffffffffffffffffffffffffffff163373ffffffffffffffffffffffffffffffffffffffff16145b806109c15750600660009054906101000a900473ffffffffffffffffffffffffffffffffffffffff1673ffffffffffffffffffffffffffffffffffffffff163373ffffffffffffffffffffffffffffffffffffffff16145b1515610a81576040517f08c379a00000000000000000000000000000000000000000000000000000000081526004018080602001828103825260508152602001807f596f7520646f6e742068617665207065726d697373696f6e20746f207365652081526020017f74686973206f726465722c2064696420796f752067657420746865206f72646581526020017f7220616464726573732077726f6e673f0000000000000000000000000000000081525060600191505060405180910390fd5b600560009054906101000a900473ffffffffffffffffffffffffffffffffffffffff1673ffffffffffffffffffffffffffffffffffffffff163373ffffffffffffffffffffffffffffffffffffffff161415610be15760005481111515610b50576040517f08c379a000000000000000000000000000000000000000000000000000000000815260040180806020018281038252601c8152602001807f7374617475732063616e6e6f74206265206261636b747261636b65640000000081525060200191505060405180910390fd5b60038111158015610b615750600081115b1515610bd5576040517f08c379a00000000000000000000000000000000000000000000000000000000081526004018080602001828103825260168152602001807f676976656e20537461747573206e6f742076616c69640000000000000000000081525060200191505060405180910390fd5b80600081905550610f37565b600460029054906101000a900473ffffffffffffffffffffffffffffffffffffffff1673ffffffffffffffffffffffffffffffffffffffff163373ffffffffffffffffffffffffffffffffffffffff161415610d415760015481111515610cb0576040517f08c379a000000000000000000000000000000000000000000000000000000000815260040180806020018281038252601c8152602001807f7374617475732063616e6e6f74206265206261636b747261636b65640000000081525060200191505060405180910390fd5b60038111158015610cc15750600081115b1515610d35576040517f08c379a00000000000000000000000000000000000000000000000000000000081526004018080602001828103825260168152602001807f676976656e20537461747573206e6f742076616c69640000000000000000000081525060200191505060405180910390fd5b80600181905550610f36565b600660009054906101000a900473ffffffffffffffffffffffffffffffffffffffff1673ffffffffffffffffffffffffffffffffffffffff163373ffffffffffffffffffffffffffffffffffffffff161415610ea15760025481111515610e10576040517f08c379a000000000000000000000000000000000000000000000000000000000815260040180806020018281038252601c8152602001807f7374617475732063616e6e6f74206265206261636b747261636b65640000000081525060200191505060405180910390fd5b60028111158015610e215750600081115b1515610e95576040517f08c379a00000000000000000000000000000000000000000000000000000000081526004018080602001828103825260168152602001807f676976656e20537461747573206e6f742076616c69640000000000000000000081525060200191505060405180910390fd5b80600281905550610f35565b6040517f08c379a00000000000000000000000000000000000000000000000000000000081526004018080602001828103825260358152602001807f4572726f723a20756e617574686f72697365726420616464726573732061636381526020017f657373696e67207365744f72646572537461747573000000000000000000000081525060400191505060405180910390fd5b5b5b600460009054906101000a900460ff16158015610f575750600260005410155b8015610f665750600360015410155b1561102857600460029054906101000a900473ffffffffffffffffffffffffffffffffffffffff1673ffffffffffffffffffffffffffffffffffffffff16631b9265b8600a546040518263ffffffff167c01000000000000000000000000000000000000000000000000000000000281526004016000604051808303818588803b158015610ff357600080fd5b505af1158015611007573d6000803e3d6000fd5b50505050506001600460006101000a81548160ff0219169083151502179055505b600460019054906101000a900460ff161580156110485750600360005410155b801561105657506002805410155b1561111c57600560009054906101000a900473ffffffffffffffffffffffffffffffffffffffff1673ffffffffffffffffffffffffffffffffffffffff16631b9265b8600b54600a54016040518263ffffffff167c01000000000000000000000000000000000000000000000000000000000281526004016000604051808303818588803b1580156110e757600080fd5b505af11580156110fb573d6000803e3d6000fd5b50505050506001600460016101000a81548160ff0219169083151502179055505b50565b600460029054906101000a900473ffffffffffffffffffffffffffffffffffffffff1681565b600b5481565b600c548156fea165627a7a723058203752d926d4c69e2148fadd760ab695f4169d4a9feabd89d026fcb2c8687be3d50029",
  "source": "pragma solidity ^0.5.0;\n\nimport './RestaurantFactory.sol';\nimport './RiderFactory.sol';\nimport './Controller.sol';\nimport './Restaurant.sol';\nimport './Rider.sol';\n\ncontract Order{\n\n\tenum riderState{unassigned, accepted, hasCargo, Delivered}\n\tenum restaurantState{acceptedOrder, preparingCargo, readyForCollection, HandedOver}\n\tenum customerState{madeOrder, payed, hasCargo}\n    \n\tuint public riderStatus;\n\tuint public restaurantStatus;\n\tuint public customerStatus;\n\n\tuint public id;\n\t\n\tbool restaurantPaid = false;\n\tbool riderPaid = false;\n\n\taddress payable public restaurant;\n\taddress payable public rider; \t  // this should be encrypted\n\taddress payable customer; // this should be encrypted\n\n\taddress controller;\n\n\tbytes32 deliveryAddress;\n\tuint public orderTime;\n\tuint cost;\n\tuint public deliveryFee;\n    \n\tbytes32 public keyHashRider;\n\n\tuint public totalItems;\n\tmapping(uint=>Item) public items; // this should be encrypted\n\n\tstruct Item{\n\t\tbytes32 itemName;\n\t\tuint itemCost; // in wei (10^-18 Eth)\n\t}\n\n\tconstructor(uint _id, bytes32[] memory itemNames, uint[] memory prices,uint _deliveryFee, bytes32 _deliveryAddress, address _controller, address payable _customer) public payable {\n\t    // require sent from a restaurant contract\n\t    require(RestaurantFactory(Controller(_controller).restaurantFactoryAddress()).restaurantExists(msg.sender),\"attempted to make order from address that is not a restaurant\");\n\t    require(itemNames.length == prices.length, \"invalid matching of items to prices\");\n\t\t\n\t\t// set contract infomation\n\t\tid = _id;\n\t\trestaurant = msg.sender;\n\t\tcustomer = _customer; // this needs changing as is vunrability\n\t\tdeliveryAddress = _deliveryAddress;\n\t\torderTime = block.timestamp;\n\n\t\tcontroller = _controller;\n\t\t\n\t\tcost = 0;\n\n\t\t// set items\n\t\ttotalItems = 0;\n\t\tfor(uint i = 0; i < itemNames.length; i++){\n\t\t    items[totalItems] = Item(itemNames[i],prices[i]);\n\t\t    cost += prices[i];\n\t\t    totalItems++;\n\t\t}\n\n\t\tdeliveryFee = _deliveryFee;\n\n\t\trequire(msg.value >= cost + deliveryFee,\"not enough ether sent to the order \");\n\t\t\n\t\tcustomerStatus = uint(customerState.payed);\n\t\triderStatus = uint(riderState.unassigned);\n\t\trestaurantStatus = uint(restaurantState.acceptedOrder);\t\n\t}\n\n\tfunction getItem(uint _id) public view returns(bytes32 itemName, uint itemCost){\n\t\t//require(customer == msg.sender || restaurant == msg.sender || rider == msg.sender); // removed as asking for contract address where as should be owner addresses\n\t\treturn (items[_id].itemName,items[_id].itemCost);\n\t}  \n\n\tfunction getDeliveryAddress() public view returns(bytes32 _deliveryAddress){\n\t\trequire(customer == msg.sender || restaurant == msg.sender || rider == msg.sender);\n\t\treturn deliveryAddress;\n\t}\n\n\tfunction riderOfferDelivery() public payable{\n\t\trequire(RiderFactory(Controller(controller).riderFactoryAddress()).riderExists(msg.sender));\n\t\trequire(msg.value >= cost);\n\t\t\n\t\triderStatus = uint(riderState.accepted);\n\t\trider = msg.sender;\n\t}\n\n\tfunction setOrderStatus(uint status) public payable{\n\t\trequire(msg.sender == rider || msg.sender == restaurant || msg.sender == customer, \"You dont have permission to see this order, did you get the order address wrong?\");\n\n\t\tif(msg.sender == rider){\n\t\t\trequire(status > riderStatus, \"status cannot be backtracked\");\n\t\t\trequire(status <= 3 && status > 0, \"given Status not valid\");\n\t\t\triderStatus = status;\n\t\t}\n\t\telse if(msg.sender == restaurant){\n\t\t\trequire(status > restaurantStatus, \"status cannot be backtracked\");\n\t\t\trequire(status <= 3 && status > 0, \"given Status not valid\");\n\t\t\trestaurantStatus = status;\n\t\t}\n\t\telse if(msg.sender == customer){\n\t\t\trequire(status > customerStatus, \"status cannot be backtracked\");\n\t\t\trequire(status <= 2 && status > 0, \"given Status not valid\");\n\t\t\tcustomerStatus = status;\n\t\t}\n\t\telse\n\t\t\trevert(\"Error: unauthoriserd address accessing setOrderStatus\");\n\n\t\t// if both rider and restaurant say the food has been collected pay restaurant\n\t\tif(!restaurantPaid && riderStatus >= 2 && restaurantStatus >= 3){\n\t\t\tRestaurant(restaurant).pay.value(cost)();\n\t\t\trestaurantPaid = true;\n\t\t}\n\n\t\t// if both rider and customer state the customer has the food\n\t\tif(!riderPaid && riderStatus >= 3 && customerStatus >= 2){\n\t\t\tRider(rider).pay.value(cost+deliveryFee)();\n\t\t\triderPaid = true;\n\t\t}\n\t}\n\n\tfunction getBalance() public view returns(uint){\n\t\treturn address(this).balance;\n\t}\n\n\tfunction getCost() public view returns(uint){\n\t\t//require that this is one of the agents involved\n\t\treturn cost;\n\t}\n\n\tfunction setKeyhashForRider(bytes32 keyhash) public {\n\t\tkeyHashRider = keyhash;\n\t}\n\n\tfunction riderSubmitKey() public{\n\n\t}\n}",
  "sourcePath": "/home/george/Documents/University/Dissertation/TryAByte/contracts/Order.sol",
  "compiler": {
    "name": "solc",
    "version": "0.5.0+commit.1d4f565a.Emscripten.clang"
  },
  "schemaVersion": "3.0.6",
  "updatedAt": "2019-04-05T19:06:04.140Z",
  "devdoc": {
    "methods": {}
  },
  "userdoc": {
    "methods": {}
  }
}