{
  "contractName": "Order",
  "abi": [
    {
      "constant": true,
      "inputs": [],
      "name": "totalItems",
      "outputs": [
        {
          "name": "",
          "type": "uint256"
        }
      ],
      "payable": false,
      "stateMutability": "view",
      "type": "function"
    },
    {
      "constant": true,
      "inputs": [],
      "name": "restaurantFactoryAddress",
      "outputs": [
        {
          "name": "",
          "type": "address"
        }
      ],
      "payable": false,
      "stateMutability": "view",
      "type": "function"
    },
    {
      "constant": true,
      "inputs": [],
      "name": "id",
      "outputs": [
        {
          "name": "",
          "type": "uint256"
        }
      ],
      "payable": false,
      "stateMutability": "view",
      "type": "function"
    },
    {
      "constant": true,
      "inputs": [
        {
          "name": "",
          "type": "uint256"
        }
      ],
      "name": "items",
      "outputs": [
        {
          "name": "itemName",
          "type": "string"
        },
        {
          "name": "itemCost",
          "type": "uint256"
        }
      ],
      "payable": false,
      "stateMutability": "view",
      "type": "function"
    },
    {
      "constant": true,
      "inputs": [],
      "name": "restaurant",
      "outputs": [
        {
          "name": "",
          "type": "address"
        }
      ],
      "payable": false,
      "stateMutability": "view",
      "type": "function"
    },
    {
      "inputs": [
        {
          "name": "_id",
          "type": "uint256"
        },
        {
          "name": "_restaurantFactoryAddress",
          "type": "address"
        },
        {
          "name": "itemNames",
          "type": "bytes32[]"
        },
        {
          "name": "prices",
          "type": "uint256[]"
        }
      ],
      "payable": false,
      "stateMutability": "nonpayable",
      "type": "constructor"
    },
    {
      "constant": true,
      "inputs": [
        {
          "name": "_id",
          "type": "uint256"
        }
      ],
      "name": "getItem",
      "outputs": [
        {
          "name": "itemName",
          "type": "bytes32"
        },
        {
          "name": "itemCost",
          "type": "uint256"
        }
      ],
      "payable": false,
      "stateMutability": "view",
      "type": "function"
    },
    {
      "constant": true,
      "inputs": [],
      "name": "getDeliveryAddress",
      "outputs": [
        {
          "name": "_deliveryAddress",
          "type": "bytes32"
        }
      ],
      "payable": false,
      "stateMutability": "view",
      "type": "function"
    }
  ],
  "bytecode": "0x60806040523480156200001157600080fd5b5060405162000cc438038062000cc4833981018060405260808110156200003757600080fd5b81019080805190602001909291908051906020019092919080516401000000008111156200006457600080fd5b828101905060208101848111156200007b57600080fd5b81518560208202830111640100000000821117156200009957600080fd5b50509291906020018051640100000000811115620000b657600080fd5b82810190506020810184811115620000cd57600080fd5b8151856020820283011164010000000082111715620000eb57600080fd5b50509291905050508273ffffffffffffffffffffffffffffffffffffffff166379a4fa27336040518263ffffffff167c0100000000000000000000000000000000000000000000000000000000028152600401808273ffffffffffffffffffffffffffffffffffffffff1673ffffffffffffffffffffffffffffffffffffffff16815260200191505060206040518083038186803b1580156200018d57600080fd5b505afa158015620001a2573d6000803e3d6000fd5b505050506040513d6020811015620001b957600080fd5b81019080805190602001909291905050501515620001d657600080fd5b80518251141515620001e757600080fd5b8360008190555033600160006101000a81548173ffffffffffffffffffffffffffffffffffffffff021916908373ffffffffffffffffffffffffffffffffffffffff16021790555032600460006101000a81548173ffffffffffffffffffffffffffffffffffffffff021916908373ffffffffffffffffffffffffffffffffffffffff16021790555082600260006101000a81548173ffffffffffffffffffffffffffffffffffffffff021916908373ffffffffffffffffffffffffffffffffffffffff160217905550600060068190555060008090505b82518110156200047057604080519081016040528073__lib___________________________________639201de558685815181101515620002fd57fe5b906020019060200201516040518263ffffffff167c01000000000000000000000000000000000000000000000000000000000281526004018082815260200191505060006040518083038186803b1580156200035857600080fd5b505af41580156200036d573d6000803e3d6000fd5b505050506040513d6000823e3d601f19601f8201168201806040525060208110156200039857600080fd5b810190808051640100000000811115620003b157600080fd5b82810190506020810184811115620003c857600080fd5b8151856001820283011164010000000082111715620003e657600080fd5b5050929190505050815260200183838151811015156200040257fe5b906020019060200201518152506007600060065481526020019081526020016000206000820151816000019080519060200190620004429291906200047b565b50602082015181600101559050506006600081548092919060010191905055508080600101915050620002bf565b50505050506200052a565b828054600181600116156101000203166002900490600052602060002090601f016020900481019282601f10620004be57805160ff1916838001178555620004ef565b82800160010185558215620004ef579182015b82811115620004ee578251825591602001919060010190620004d1565b5b509050620004fe919062000502565b5090565b6200052791905b808211156200052357600081600090555060010162000509565b5090565b90565b61078a806200053a6000396000f3fe608060405260043610610083576000357c0100000000000000000000000000000000000000000000000000000000900463ffffffff1680632799276d146100885780633129e773146100b35780633733d9f51461010957806368db65a414610134578063af640d0f1461018b578063bfb231d2146101b6578063ed16805814610271575b600080fd5b34801561009457600080fd5b5061009d6102c8565b6040518082815260200191505060405180910390f35b3480156100bf57600080fd5b506100ec600480360360208110156100d657600080fd5b81019080803590602001909291905050506102ce565b604051808381526020018281526020019250505060405180910390f35b34801561011557600080fd5b5061011e61053a565b6040518082815260200191505060405180910390f35b34801561014057600080fd5b50610149610650565b604051808273ffffffffffffffffffffffffffffffffffffffff1673ffffffffffffffffffffffffffffffffffffffff16815260200191505060405180910390f35b34801561019757600080fd5b506101a0610676565b6040518082815260200191505060405180910390f35b3480156101c257600080fd5b506101ef600480360360208110156101d957600080fd5b810190808035906020019092919050505061067c565b6040518080602001838152602001828103825284818151815260200191508051906020019080838360005b8381101561023557808201518184015260208101905061021a565b50505050905090810190601f1680156102625780820380516001836020036101000a031916815260200191505b50935050505060405180910390f35b34801561027d57600080fd5b50610286610738565b604051808273ffffffffffffffffffffffffffffffffffffffff1673ffffffffffffffffffffffffffffffffffffffff16815260200191505060405180910390f35b60065481565b6000803373ffffffffffffffffffffffffffffffffffffffff16600460009054906101000a900473ffffffffffffffffffffffffffffffffffffffff1673ffffffffffffffffffffffffffffffffffffffff16148061037a57503373ffffffffffffffffffffffffffffffffffffffff16600160009054906101000a900473ffffffffffffffffffffffffffffffffffffffff1673ffffffffffffffffffffffffffffffffffffffff16145b806103d257503373ffffffffffffffffffffffffffffffffffffffff16600360009054906101000a900473ffffffffffffffffffffffffffffffffffffffff1673ffffffffffffffffffffffffffffffffffffffff16145b15156103dd57600080fd5b73__lib___________________________________63cfb51928600760008681526020019081526020016000206000016040518263ffffffff167c010000000000000000000000000000000000000000000000000000000002815260040180806020018281038252838181546001816001161561010002031660029004815260200191508054600181600116156101000203166002900480156104c15780601f10610496576101008083540402835291602001916104c1565b820191906000526020600020905b8154815290600101906020018083116104a457829003601f168201915b50509250505060206040518083038186803b1580156104df57600080fd5b505af41580156104f3573d6000803e3d6000fd5b505050506040513d602081101561050957600080fd5b8101908080519060200190929190505050600760008581526020019081526020016000206001015491509150915091565b60003373ffffffffffffffffffffffffffffffffffffffff16600460009054906101000a900473ffffffffffffffffffffffffffffffffffffffff1673ffffffffffffffffffffffffffffffffffffffff1614806105e557503373ffffffffffffffffffffffffffffffffffffffff16600160009054906101000a900473ffffffffffffffffffffffffffffffffffffffff1673ffffffffffffffffffffffffffffffffffffffff16145b8061063d57503373ffffffffffffffffffffffffffffffffffffffff16600360009054906101000a900473ffffffffffffffffffffffffffffffffffffffff1673ffffffffffffffffffffffffffffffffffffffff16145b151561064857600080fd5b600554905090565b600260009054906101000a900473ffffffffffffffffffffffffffffffffffffffff1681565b60005481565b6007602052806000526040600020600091509050806000018054600181600116156101000203166002900480601f0160208091040260200160405190810160405280929190818152602001828054600181600116156101000203166002900480156107285780601f106106fd57610100808354040283529160200191610728565b820191906000526020600020905b81548152906001019060200180831161070b57829003601f168201915b5050505050908060010154905082565b600160009054906101000a900473ffffffffffffffffffffffffffffffffffffffff168156fea165627a7a72305820579019d5558fd8bf5ca3b7b3cc89c4e00a2004cd2c006332808628f8378d01700029",
  "source": "pragma solidity ^0.5.0;\n\nimport './lib.sol';\nimport './RestaurantFactory.sol';\n\ncontract Order{\n    \n\tuint public id;\n\taddress public restaurant;\n\taddress public restaurantFactoryAddress;\n\taddress rider;\n\taddress customer; // this should be encrypted\n\n\tbytes32 deliveryAddress;\n    \n\n\tuint public totalItems;\n\tmapping(uint=>Item) public items; // this should be encrypted\n\n\tstruct Item{\n\t\tstring itemName;\n\t\tuint itemCost; // in wei (10^-18 Eth)\n\t}\n\n\tconstructor(uint _id, address _restaurantFactoryAddress, bytes32[] memory itemNames, uint[] memory prices) public {\n\t    // require sent from a restaurant contract\n\t    require(RestaurantFactory(_restaurantFactoryAddress).restaurantExists(msg.sender));\n\t    require(itemNames.length == prices.length);\n\n\t\t\n\t\t// set contract infomation\n\t\tid = _id;\n\t\trestaurant = msg.sender;\n\t\tcustomer = tx.origin; // this needs changing as is vunrability\n\t\trestaurantFactoryAddress = _restaurantFactoryAddress;\n\t\t\n\t\t// set items\n\t\ttotalItems = 0;\n\t\tfor(uint i = 0; i < itemNames.length; i++){\n\t\t    items[totalItems] = Item(lib.bytes32ToString(itemNames[i]),prices[i]);\n\t\t    totalItems++;\n\t\t}\n\t\t\n\t\t\n\t}\n\n\tfunction getItem(uint _id) public view returns(bytes32 itemName, uint itemCost){\n\t\trequire(customer == msg.sender || restaurant == msg.sender || rider == msg.sender);\n\t\treturn (lib.stringToBytes32(items[_id].itemName),items[_id].itemCost);\n\t}  \n\n\tfunction getDeliveryAddress() public view returns(bytes32 _deliveryAddress){\n\t\trequire(customer == msg.sender || restaurant == msg.sender || rider == msg.sender);\n\t\treturn deliveryAddress;\n\t}\n\n}",
  "sourcePath": "/home/george/Documents/University/Dissertation/TryAByte/contracts/Order.sol",
  "compiler": {
    "name": "solc",
    "version": "0.5.0+commit.1d4f565a.Emscripten.clang"
  },
  "schemaVersion": "3.0.2",
  "updatedAt": "2019-03-10T18:03:36.071Z",
  "devdoc": {
    "methods": {}
  },
  "userdoc": {
    "methods": {}
  }
}