{
  "contractName": "Order",
  "abi": [
    {
      "inputs": [
        {
          "internalType": "uint256[]",
          "name": "integers",
          "type": "uint256[]"
        },
        {
          "internalType": "uint256",
          "name": "_itemCount",
          "type": "uint256"
        },
        {
          "internalType": "address",
          "name": "_controller",
          "type": "address"
        },
        {
          "internalType": "address payable",
          "name": "_customer",
          "type": "address"
        },
        {
          "internalType": "bytes32",
          "name": "keyHash",
          "type": "bytes32"
        }
      ],
      "payable": true,
      "stateMutability": "payable",
      "type": "constructor"
    },
    {
      "anonymous": false,
      "inputs": [],
      "name": "statusUpdated",
      "type": "event"
    },
    {
      "constant": true,
      "inputs": [],
      "name": "customer",
      "outputs": [
        {
          "internalType": "address payable",
          "name": "",
          "type": "address"
        }
      ],
      "payable": false,
      "stateMutability": "view",
      "type": "function"
    },
    {
      "constant": true,
      "inputs": [],
      "name": "customerStatus",
      "outputs": [
        {
          "internalType": "uint256",
          "name": "",
          "type": "uint256"
        }
      ],
      "payable": false,
      "stateMutability": "view",
      "type": "function"
    },
    {
      "constant": true,
      "inputs": [],
      "name": "deliveryFee",
      "outputs": [
        {
          "internalType": "uint256",
          "name": "",
          "type": "uint256"
        }
      ],
      "payable": false,
      "stateMutability": "view",
      "type": "function"
    },
    {
      "constant": true,
      "inputs": [
        {
          "internalType": "uint256",
          "name": "",
          "type": "uint256"
        }
      ],
      "name": "extraIdFlags",
      "outputs": [
        {
          "internalType": "uint256",
          "name": "",
          "type": "uint256"
        }
      ],
      "payable": false,
      "stateMutability": "view",
      "type": "function"
    },
    {
      "constant": true,
      "inputs": [
        {
          "internalType": "uint256",
          "name": "",
          "type": "uint256"
        }
      ],
      "name": "extraIds",
      "outputs": [
        {
          "internalType": "uint256",
          "name": "",
          "type": "uint256"
        }
      ],
      "payable": false,
      "stateMutability": "view",
      "type": "function"
    },
    {
      "constant": true,
      "inputs": [],
      "name": "id",
      "outputs": [
        {
          "internalType": "uint256",
          "name": "",
          "type": "uint256"
        }
      ],
      "payable": false,
      "stateMutability": "view",
      "type": "function"
    },
    {
      "constant": true,
      "inputs": [
        {
          "internalType": "uint256",
          "name": "",
          "type": "uint256"
        }
      ],
      "name": "itemIds",
      "outputs": [
        {
          "internalType": "uint256",
          "name": "",
          "type": "uint256"
        }
      ],
      "payable": false,
      "stateMutability": "view",
      "type": "function"
    },
    {
      "constant": true,
      "inputs": [],
      "name": "keyHashRestaurant",
      "outputs": [
        {
          "internalType": "bytes32",
          "name": "",
          "type": "bytes32"
        }
      ],
      "payable": false,
      "stateMutability": "view",
      "type": "function"
    },
    {
      "constant": true,
      "inputs": [],
      "name": "keyHashRider",
      "outputs": [
        {
          "internalType": "bytes32",
          "name": "",
          "type": "bytes32"
        }
      ],
      "payable": false,
      "stateMutability": "view",
      "type": "function"
    },
    {
      "constant": true,
      "inputs": [],
      "name": "keyRestaurantSet",
      "outputs": [
        {
          "internalType": "bool",
          "name": "",
          "type": "bool"
        }
      ],
      "payable": false,
      "stateMutability": "view",
      "type": "function"
    },
    {
      "constant": true,
      "inputs": [],
      "name": "keyRiderSet",
      "outputs": [
        {
          "internalType": "bool",
          "name": "",
          "type": "bool"
        }
      ],
      "payable": false,
      "stateMutability": "view",
      "type": "function"
    },
    {
      "constant": true,
      "inputs": [
        {
          "internalType": "uint256",
          "name": "",
          "type": "uint256"
        }
      ],
      "name": "optionIds",
      "outputs": [
        {
          "internalType": "uint256",
          "name": "",
          "type": "uint256"
        }
      ],
      "payable": false,
      "stateMutability": "view",
      "type": "function"
    },
    {
      "constant": true,
      "inputs": [],
      "name": "orderTime",
      "outputs": [
        {
          "internalType": "uint256",
          "name": "",
          "type": "uint256"
        }
      ],
      "payable": false,
      "stateMutability": "view",
      "type": "function"
    },
    {
      "constant": true,
      "inputs": [],
      "name": "restaurant",
      "outputs": [
        {
          "internalType": "address payable",
          "name": "",
          "type": "address"
        }
      ],
      "payable": false,
      "stateMutability": "view",
      "type": "function"
    },
    {
      "constant": true,
      "inputs": [],
      "name": "restaurantPaid",
      "outputs": [
        {
          "internalType": "bool",
          "name": "",
          "type": "bool"
        }
      ],
      "payable": false,
      "stateMutability": "view",
      "type": "function"
    },
    {
      "constant": true,
      "inputs": [],
      "name": "restaurantStatus",
      "outputs": [
        {
          "internalType": "uint256",
          "name": "",
          "type": "uint256"
        }
      ],
      "payable": false,
      "stateMutability": "view",
      "type": "function"
    },
    {
      "constant": true,
      "inputs": [],
      "name": "rider",
      "outputs": [
        {
          "internalType": "address payable",
          "name": "",
          "type": "address"
        }
      ],
      "payable": false,
      "stateMutability": "view",
      "type": "function"
    },
    {
      "constant": true,
      "inputs": [],
      "name": "riderPaid",
      "outputs": [
        {
          "internalType": "bool",
          "name": "",
          "type": "bool"
        }
      ],
      "payable": false,
      "stateMutability": "view",
      "type": "function"
    },
    {
      "constant": true,
      "inputs": [],
      "name": "riderStatus",
      "outputs": [
        {
          "internalType": "uint256",
          "name": "",
          "type": "uint256"
        }
      ],
      "payable": false,
      "stateMutability": "view",
      "type": "function"
    },
    {
      "constant": true,
      "inputs": [],
      "name": "totalItems",
      "outputs": [
        {
          "internalType": "uint256",
          "name": "",
          "type": "uint256"
        }
      ],
      "payable": false,
      "stateMutability": "view",
      "type": "function"
    },
    {
      "constant": true,
      "inputs": [
        {
          "internalType": "uint256",
          "name": "_id",
          "type": "uint256"
        }
      ],
      "name": "getItem",
      "outputs": [
        {
          "internalType": "bytes32",
          "name": "itemName",
          "type": "bytes32"
        },
        {
          "internalType": "uint256",
          "name": "itemCost",
          "type": "uint256"
        }
      ],
      "payable": false,
      "stateMutability": "view",
      "type": "function"
    },
    {
      "constant": false,
      "inputs": [
        {
          "internalType": "bytes32",
          "name": "keyHash",
          "type": "bytes32"
        }
      ],
      "name": "riderOfferDelivery",
      "outputs": [],
      "payable": true,
      "stateMutability": "payable",
      "type": "function"
    },
    {
      "constant": false,
      "inputs": [
        {
          "internalType": "uint256",
          "name": "status",
          "type": "uint256"
        }
      ],
      "name": "setOrderStatus",
      "outputs": [],
      "payable": true,
      "stateMutability": "payable",
      "type": "function"
    },
    {
      "constant": true,
      "inputs": [],
      "name": "getBalance",
      "outputs": [
        {
          "internalType": "uint256",
          "name": "",
          "type": "uint256"
        }
      ],
      "payable": false,
      "stateMutability": "view",
      "type": "function"
    },
    {
      "constant": true,
      "inputs": [],
      "name": "getCost",
      "outputs": [
        {
          "internalType": "uint256",
          "name": "",
          "type": "uint256"
        }
      ],
      "payable": false,
      "stateMutability": "view",
      "type": "function"
    },
    {
      "constant": false,
      "inputs": [
        {
          "internalType": "bytes32",
          "name": "key",
          "type": "bytes32"
        }
      ],
      "name": "restaurantSubmitKey",
      "outputs": [
        {
          "internalType": "bool",
          "name": "",
          "type": "bool"
        }
      ],
      "payable": false,
      "stateMutability": "nonpayable",
      "type": "function"
    },
    {
      "constant": false,
      "inputs": [
        {
          "internalType": "bytes32",
          "name": "key",
          "type": "bytes32"
        }
      ],
      "name": "riderSubmitKey",
      "outputs": [
        {
          "internalType": "bool",
          "name": "",
          "type": "bool"
        }
      ],
      "payable": false,
      "stateMutability": "nonpayable",
      "type": "function"
    },
    {
      "constant": true,
      "inputs": [
        {
          "internalType": "bytes32",
          "name": "data",
          "type": "bytes32"
        }
      ],
      "name": "getHash",
      "outputs": [
        {
          "internalType": "bytes32",
          "name": "",
          "type": "bytes32"
        }
      ],
      "payable": false,
      "stateMutability": "pure",
      "type": "function"
    }
  ],
  "bytecode": "0x608060408190526004805461ffff19169055600c805460ff19908116909155600e805490911690556200120838819003908190833981810160405260a08110156200004957600080fd5b81019080805160405193929190846401000000008211156200006a57600080fd5b9083019060208201858111156200008057600080fd5b82518660208202830111640100000000821117156200009e57600080fd5b82525081516020918201928201910280838360005b83811015620000cd578181015183820152602001620000b3565b505050509190910160408181526020848101518583015160608701516080909701517f68db65a4000000000000000000000000000000000000000000000000000000008652935191985096509193506001600160a01b038616926368db65a49260048083019392829003018186803b1580156200014957600080fd5b505afa1580156200015e573d6000803e3d6000fd5b505050506040513d60208110156200017557600080fd5b5051604080517f79a4fa2700000000000000000000000000000000000000000000000000000000815233600482015290516001600160a01b03909216916379a4fa2791602480820192602092909190829003018186803b158015620001d957600080fd5b505afa158015620001ee573d6000803e3d6000fd5b505050506040513d60208110156200020557600080fd5b50516200025e576040517f08c379a000000000000000000000000000000000000000000000000000000000815260040180806020018281038252603d815260200180620011cb603d913960400191505060405180910390fd5b846000815181106200026c57fe5b6020026020010151600381905550846001815181106200028857fe5b6020026020010151600a8190555084600281518110620002a457fe5b6020026020010151600981905550600a546009540134101562000313576040517f08c379a0000000000000000000000000000000000000000000000000000000008152600401808060200182810382526022815260200180620011a96022913960400191505060405180910390fd5b600f84905560005b84811015620003be578581600301815181106200033457fe5b6020026020010151601060008381526020019081526020016000208190555085858201600301815181106200036557fe5b6020026020010151601160008381526020019081526020016000208190555085856002028201600301815181106200039957fe5b602090810291909101810151600083815260139092526040909120556001016200031b565b5060006003808602015b86518110156200040857868181518110620003df57fe5b6020908102919091018101516000848152601290925260409091205560019182019101620003c8565b50506004805462010000600160b01b031916336201000002179055600680546001600160a01b03199081166001600160a01b0394851617909155426008556007805490911693909216929092179055600160028190556000808055808255600b92909255600c805460ff19169091179055610d1d92508291506200048c90396000f3fe6080604052600436106101b75760003560e01c80639e8464f1116100ec578063db7575f01161008a578063f1cba54c11610064578063f1cba54c146104ac578063f3cc0f1f146104d6578063f90a92e3146104eb578063fc6f78a014610508576101b7565b8063db7575f01461044e578063e9132c4214610478578063ed16805814610497576101b7565b8063b3dc00fe116100c6578063b3dc00fe146103e5578063bd3e19d41461040f578063d601e11414610424578063d638e10214610439576101b7565b80639e8464f114610391578063a14b7e68146103bb578063af640d0f146103d0576101b7565b80633e3ca4d311610159578063646e077f11610133578063646e077f146103135780637aada134146103285780637d98119d1461033d5780639619ffdb14610367576101b7565b80633e3ca4d3146102c057806340571abb146102d557806353c0a006146102fe576101b7565b80633129e773116101955780633129e77314610229578063329408161461026c5780633cc94908146102815780633cf5040a14610296576101b7565b806312065fe0146101bc5780632799276d146101e35780632804b2c0146101f8575b600080fd5b3480156101c857600080fd5b506101d161051d565b60408051918252519081900360200190f35b3480156101ef57600080fd5b506101d1610522565b34801561020457600080fd5b5061020d610528565b604080516001600160a01b039092168252519081900360200190f35b34801561023557600080fd5b506102536004803603602081101561024c57600080fd5b5035610537565b6040805192835260208301919091528051918290030190f35b34801561027857600080fd5b506101d161053f565b34801561028d57600080fd5b506101d1610545565b3480156102a257600080fd5b506101d1600480360360208110156102b957600080fd5b503561054b565b3480156102cc57600080fd5b506101d161056f565b3480156102e157600080fd5b506102ea610575565b604080519115158252519081900360200190f35b34801561030a57600080fd5b5061020d610583565b34801561031f57600080fd5b506102ea610592565b34801561033457600080fd5b506101d161059b565b34801561034957600080fd5b506101d16004803603602081101561036057600080fd5b50356105a1565b34801561037357600080fd5b506101d16004803603602081101561038a57600080fd5b50356105b3565b34801561039d57600080fd5b506102ea600480360360208110156103b457600080fd5b50356105c5565b3480156103c757600080fd5b506101d1610699565b3480156103dc57600080fd5b506101d161069f565b3480156103f157600080fd5b506101d16004803603602081101561040857600080fd5b50356106a5565b34801561041b57600080fd5b506101d16106b7565b34801561043057600080fd5b506102ea6106bd565b34801561044557600080fd5b506102ea6106c6565b34801561045a57600080fd5b506102ea6004803603602081101561047157600080fd5b50356106cf565b6104956004803603602081101561048e57600080fd5b50356107a2565b005b3480156104a357600080fd5b5061020d6108c1565b3480156104b857600080fd5b506101d1600480360360208110156104cf57600080fd5b50356108d6565b3480156104e257600080fd5b506101d16108e8565b6104956004803603602081101561050157600080fd5b50356108ee565b34801561051457600080fd5b506101d1610af0565b303190565b600f5481565b6006546001600160a01b031681565b600080915091565b60015481565b600d5481565b60408051602080820193909352815180820384018152908201909152805191012090565b60005481565b600454610100900460ff1681565b6005546001600160a01b031681565b600c5460ff1681565b60085481565b60126020526000908152604090205481565b60136020526000908152604090205481565b600e5460009060ff16151560011461061a576040805162461bcd60e51b8152602060048201526013602482015272139bc81ad95e481a185cc81899595b881cd95d606a1b604482015290519081900360640190fd5b600d546106268361054b565b14610668576040805162461bcd60e51b815260206004820152600d60248201526c496e636f7272656374204b657960981b604482015290519081900360640190fd5b610670610af6565b600360015560026000908155604051600080516020610c268339815191529190a1506001919050565b60025481565b60035481565b60106020526000908152604090205481565b60095490565b60045460ff1681565b600e5460ff1681565b600c5460009060ff161515600114610724576040805162461bcd60e51b8152602060048201526013602482015272139bc81ad95e481a185cc81899595b881cd95d606a1b604482015290519081900360640190fd5b600b546107308361054b565b14610772576040805162461bcd60e51b815260206004820152600d60248201526c496e636f7272656374204b657960981b604482015290519081900360640190fd5b61077a610b8a565b600360005560028055604051600080516020610c2683398151915290600090a1506001919050565b6004546201000090046001600160a01b031633146107f15760405162461bcd60e51b8152600401808060200182810382526050815260200180610c466050913960600191505060405180910390fd5b6001548111610847576040805162461bcd60e51b815260206004820152601c60248201527f7374617475732063616e6e6f74206265206261636b747261636b656400000000604482015290519081900360640190fd5b600381111580156108585750600081115b6108a2576040805162461bcd60e51b815260206004820152601660248201527519da5d995b8814dd185d1d5cc81b9bdd081d985b1a5960521b604482015290519081900360640190fd5b6001819055604051600080516020610c2683398151915290600090a150565b6004546201000090046001600160a01b031681565b60116020526000908152604090205481565b600a5481565b6000541561092d5760405162461bcd60e51b815260040180806020018281038252602a815260200180610c96602a913960400191505060405180910390fd5b600760009054906101000a90046001600160a01b03166001600160a01b031663c9286d576040518163ffffffff1660e01b815260040160206040518083038186803b15801561097b57600080fd5b505afa15801561098f573d6000803e3d6000fd5b505050506040513d60208110156109a557600080fd5b505160408051630139526760e41b815233600482015290516001600160a01b0390921691631395267091602480820192602092909190829003018186803b1580156109ef57600080fd5b505afa158015610a03573d6000803e3d6000fd5b505050506040513d6020811015610a1957600080fd5b5051610a565760405162461bcd60e51b8152600401808060200182810382526029815260200180610cc06029913960400191505060405180910390fd5b600954341015610aad576040805162461bcd60e51b815260206004820152601e60248201527f746865206465706f7369742073656e74206973206e6f7420656e6f7567680000604482015290519081900360640190fd5b60016000908155600580546001600160a01b03191633179055600d829055600e805460ff19166001179055604051600080516020610c268339815191529190a150565b600b5481565b600460029054906101000a90046001600160a01b03166001600160a01b0316631b9265b86009546040518263ffffffff1660e01b81526004016000604051808303818588803b158015610b4857600080fd5b505af1158015610b5c573d6000803e3d6000fd5b50506004805460ff191660019081178255555050604051600080516020610c268339815191529150600090a1565b600560009054906101000a90046001600160a01b03166001600160a01b0316631b9265b8600a54600954016040518263ffffffff1660e01b81526004016000604051808303818588803b158015610be057600080fd5b505af1158015610bf4573d6000803e3d6000fd5b50506004805461ff001916610100179055505060036000908155604051600080516020610c268339815191529250a156feac854101ed2841c4fe7b3c5bfc4f3e58ddac515e8dd58f1bd9cf7856f1cc6e7f596f7520646f6e742068617665207065726d697373696f6e20746f207365652074686973206f726465722c2064696420796f752067657420746865206f7264657220616464726573732077726f6e673f74686973206f7264657220616c6c7265616479206861732064656c6976657279206f7267616e697365646d7573742062652063616c6c656420766961206120726964657220736d61727420636f6e7472616374a265627a7a72315820b77913be2b4c188c4d79178f4b0c87e7fc77c9fe38f1be5a59c7b993340d6dd164736f6c634300050c00326e6f7420656e6f7567682065746865722073656e7420746f20746865206f72646572617474656d7074656420746f206d616b65206f726465722066726f6d20616464726573732074686174206973206e6f7420612072657374617572616e74",
  "source": "pragma solidity ^0.5.0;\n\nimport './RestaurantFactory.sol';\nimport './RiderFactory.sol';\nimport './Controller.sol';\nimport './Restaurant.sol';\nimport './Rider.sol';\n\ncontract Order{\n\n\tenum riderState{unassigned, accepted, hasCargo, Delivered}\n\tenum restaurantState{acceptedOrder, preparingCargo, readyForCollection, HandedOver}\n\tenum customerState{madeOrder, payed, hasCargo}\n    \n\tuint public riderStatus;\n\tuint public restaurantStatus;\n\tuint public customerStatus;\n\n\tuint public id;\n\t\n\tbool public restaurantPaid = false;\n\tbool public riderPaid = false;\n\n\taddress payable public restaurant;\n\taddress payable public rider; \t \n\taddress payable public customer; \n\n\taddress controller;\n\n\tuint public orderTime;\n\tuint cost;\n\tuint public deliveryFee;\n    \n\tbytes32 public keyHashRider;\n\tbool public keyRiderSet = false;\n\n\tbytes32 public keyHashRestaurant;\n\tbool public keyRestaurantSet = false;\n\n\tuint public totalItems;\n\tmapping(uint=>uint) public itemIds;\n\tmapping(uint=>uint) public optionIds;\n\tmapping(uint=>uint) public extraIds;\n\tmapping(uint=>uint) public extraIdFlags;\n\n\tevent statusUpdated();\n\n\t//uint _id, uint price, uint _deliveryFee, uint[] memory itemIds, uint[] memory optionIds, uint[] memory extraFlags, uint[] memory extraIds\n\tconstructor(uint[] memory integers, uint _itemCount, address _controller, address payable _customer, bytes32 keyHash) public payable {\n\t    // require sent from a restaurant contract\n\t    require(RestaurantFactory(Controller(_controller).restaurantFactoryAddress()).restaurantExists(msg.sender),\"attempted to make order from address that is not a restaurant\");\n\n\t    // deconstruct integer array\n\t    id = integers[0];\n\t    deliveryFee = integers[1];\n\t    cost = integers[2];\n\n\t\trequire(msg.value >= cost + deliveryFee,\"not enough ether sent to the order\");\n\n\t    totalItems = _itemCount;\n\t    for(uint i = 0; i < _itemCount; i++){\n\t    \titemIds[i] = integers[i+3];\n\t    \toptionIds[i] = integers[i+_itemCount+3];\n\t    \textraIdFlags[i] = integers[i+(_itemCount*2)+3];\n\t    }\n\n\t    uint extraIndex = 0;\n\t    for(uint i = (_itemCount*3)+3; i < integers.length; i++){\n\t    \textraIds[extraIndex] = integers[i];\n\t    \textraIndex++;\n\t    }\n\t\t\n\t\t// set contract infomation\n\t\trestaurant = msg.sender;\n\t\tcustomer = _customer;\n\t\torderTime = block.timestamp;\n\t\tcontroller = _controller;\n\t\t\n\t\tcustomerStatus = uint(customerState.payed);\n\t\triderStatus = uint(riderState.unassigned);\n\t\trestaurantStatus = uint(restaurantState.acceptedOrder);\t\n\n\t\tkeyHashRider = keyHash;\n\t\tkeyRiderSet = true;\n\t}\n\n\t// needs fixing\n\tfunction getItem(uint _id) public view returns(bytes32 itemName, uint itemCost){\n\t\t//require(customer == msg.sender || restaurant == msg.sender || rider == msg.sender); // removed as asking for contract address where as should be owner addresses\n\t\t//return (items[_id].itemName,items[_id].itemCost);\n\t}  \n\n\n\tfunction riderOfferDelivery(bytes32 keyHash) public payable{\n\t\trequire(riderStatus == uint(riderState.unassigned),\"this order allready has delivery organised\");\n\t\trequire(RiderFactory(Controller(controller).riderFactoryAddress()).riderExists(msg.sender), \"must be called via a rider smart contract\");\n\t\trequire(msg.value >= cost, \"the deposit sent is not enough\");\n\t\t\n\t\triderStatus = uint(riderState.accepted);\n\t\trider = msg.sender;\n\n\t\tkeyHashRestaurant = keyHash;\n\t\tkeyRestaurantSet = true;\n\t\t\n\t\temit statusUpdated();\n\t}\n\n\tfunction setOrderStatus(uint status) public payable{\n\t\trequire(msg.sender == restaurant, \"You dont have permission to see this order, did you get the order address wrong?\");\n\t\trequire(status > restaurantStatus, \"status cannot be backtracked\");\n\t\trequire(status <= 3 && status > 0, \"given Status not valid\");\n\t\trestaurantStatus = status;\n\t\temit statusUpdated();\n\t}\n\n\tfunction payRider() private{\n\t\tRider(rider).pay.value(cost+deliveryFee)();\n\t\triderPaid = true;\n\t\triderStatus = 3;\n\t\temit statusUpdated();\n\t}\n\n\tfunction payRestaurant() private{\n\t\tRestaurant(restaurant).pay.value(cost)();\n\t\trestaurantPaid = true;\n\t\trestaurantStatus = 4;\n\t\temit statusUpdated();\n\t}\n\n\tfunction getBalance() public view returns(uint){\n\t\treturn address(this).balance;\n\t}\n\n\tfunction getCost() public view returns(uint){\n\t\t//require that this is one of the agents involved\n\t\treturn cost;\n\t}\n\n\tfunction restaurantSubmitKey(bytes32 key) public returns (bool){\n\t\trequire(keyRestaurantSet == true, \"No key has been set\");\n\t\trequire(getHash(key) == keyHashRestaurant, \"Incorrect Key\");\n\t\tpayRestaurant();\n\t\trestaurantStatus = uint(restaurantState.HandedOver);\n\t\triderStatus = uint(riderState.hasCargo);\n\t\temit statusUpdated();\n\t\treturn true;\n\t}\n\n\tfunction riderSubmitKey(bytes32 key) public returns (bool){\n\t\trequire(keyRiderSet == true, \"No key has been set\");\n\t\trequire(getHash(key) == keyHashRider, \"Incorrect Key\");\n\t\tpayRider();\n\t\triderStatus = uint(riderState.Delivered);\n\t\tcustomerStatus = uint(customerState.hasCargo);\n\t\temit statusUpdated();\n\t\treturn true;\n\t}\n\n\tfunction getHash(bytes32 data) public pure returns(bytes32){\n\t\treturn keccak256(abi.encodePacked(data));\n\t}\n}",
  "sourcePath": "/home/george/Documents/WorkSpace/TryAByte/contracts/Order.sol",
  "compiler": {
    "name": "solc",
    "version": "0.5.12+commit.7709ece9.Emscripten.clang"
  },
  "schemaVersion": "3.0.19",
  "updatedAt": "2020-01-16T16:39:35.474Z",
  "devdoc": {
    "methods": {}
  },
  "userdoc": {
    "methods": {}
  }
}