{
  "contractName": "Order",
  "abi": [
    {
      "constant": true,
      "inputs": [
        {
          "name": "",
          "type": "uint256"
        }
      ],
      "name": "items",
      "outputs": [
        {
          "name": "itemName",
          "type": "string"
        },
        {
          "name": "itemCost",
          "type": "uint256"
        }
      ],
      "payable": false,
      "stateMutability": "view",
      "type": "function"
    },
    {
      "inputs": [
        {
          "name": "_id",
          "type": "uint256"
        },
        {
          "name": "itemNames",
          "type": "bytes32[]"
        },
        {
          "name": "prices",
          "type": "uint256[]"
        }
      ],
      "payable": false,
      "stateMutability": "nonpayable",
      "type": "constructor"
    }
  ],
  "bytecode": "0x608060405234801561001057600080fd5b506040516106c03803806106c08339810180604052606081101561003357600080fd5b8101908080519060200190929190805164010000000081111561005557600080fd5b8281019050602081018481111561006b57600080fd5b815185602082028301116401000000008211171561008857600080fd5b505092919060200180516401000000008111156100a457600080fd5b828101905060208101848111156100ba57600080fd5b81518560208202830111640100000000821117156100d757600080fd5b5050929190505050600260009054906101000a900473ffffffffffffffffffffffffffffffffffffffff1673ffffffffffffffffffffffffffffffffffffffff166379a4fa27336040518263ffffffff167c0100000000000000000000000000000000000000000000000000000000028152600401808273ffffffffffffffffffffffffffffffffffffffff1673ffffffffffffffffffffffffffffffffffffffff16815260200191505060206040518083038186803b15801561019a57600080fd5b505afa1580156101ae573d6000803e3d6000fd5b505050506040513d60208110156101c457600080fd5b810190808051906020019092919050505015156101e057600080fd5b805182511415156101f057600080fd5b8260008190555033600160006101000a81548173ffffffffffffffffffffffffffffffffffffffff021916908373ffffffffffffffffffffffffffffffffffffffff16021790555032600360006101000a81548173ffffffffffffffffffffffffffffffffffffffff021916908373ffffffffffffffffffffffffffffffffffffffff160217905550600060048190555060008090505b825181101561041a57604080519081016040528073__lib___________________________________639201de5586858151811015156102c357fe5b906020019060200201516040518263ffffffff167c01000000000000000000000000000000000000000000000000000000000281526004018082815260200191505060006040518083038186803b15801561031d57600080fd5b505af4158015610331573d6000803e3d6000fd5b505050506040513d6000823e3d601f19601f82011682018060405250602081101561035b57600080fd5b81019080805164010000000081111561037357600080fd5b8281019050602081018481111561038957600080fd5b81518560018202830111640100000000821117156103a657600080fd5b5050929190505050815260200183838151811015156103c157fe5b9060200190602002015181525060056000600454815260200190815260200160002060008201518160000190805190602001906103ff929190610423565b50602082015181600101559050508080600101915050610287565b505050506104c8565b828054600181600116156101000203166002900490600052602060002090601f016020900481019282601f1061046457805160ff1916838001178555610492565b82800160010185558215610492579182015b82811115610491578251825591602001919060010190610476565b5b50905061049f91906104a3565b5090565b6104c591905b808211156104c15760008160009055506001016104a9565b5090565b90565b6101e9806104d76000396000f3fe608060405260043610610041576000357c0100000000000000000000000000000000000000000000000000000000900463ffffffff168063bfb231d214610046575b600080fd5b34801561005257600080fd5b5061007f6004803603602081101561006957600080fd5b8101908080359060200190929190505050610101565b6040518080602001838152602001828103825284818151815260200191508051906020019080838360005b838110156100c55780820151818401526020810190506100aa565b50505050905090810190601f1680156100f25780820380516001836020036101000a031916815260200191505b50935050505060405180910390f35b6005602052806000526040600020600091509050806000018054600181600116156101000203166002900480601f0160208091040260200160405190810160405280929190818152602001828054600181600116156101000203166002900480156101ad5780601f10610182576101008083540402835291602001916101ad565b820191906000526020600020905b81548152906001019060200180831161019057829003601f168201915b505050505090806001015490508256fea165627a7a72305820d55c644508e564aac868f43d60fece9f434f598586d3bca7aea9e37debc92d080029",
  "source": "pragma solidity ^0.5.0;\r\n\r\nimport './lib.sol';\r\nimport './RestaurantFactory.sol';\r\n\r\ncontract Order{\r\n    \r\n\tuint id;\r\n\taddress parentRestaurant;\r\n\taddress restaurantFactoryAddress;\r\n\taddress customer; // this should be encrypted\r\n    \r\n\r\n\tuint totalItems;\r\n\tmapping(uint=>Item) public items; \r\n\r\n\tstruct Item{\r\n\t\tstring itemName;\r\n\t\tuint itemCost; // in wei (10^-18 Eth)\r\n\t}\r\n\r\n\tconstructor(uint _id, bytes32[] memory itemNames, uint[] memory prices) public {\r\n\t    // require sent from a restaurant contract\r\n\t    require(RestaurantFactory(restaurantFactoryAddress).restaurantExists(msg.sender));\r\n\t    require(itemNames.length == prices.length);\r\n\r\n\t\t\r\n\t\t// set contract infomation\r\n\t\tid = _id;\r\n\t\tparentRestaurant = msg.sender;\r\n\t\tcustomer = tx.origin;\r\n\t\t\r\n\t\t// set items\r\n\t\ttotalItems = 0;\r\n\t\tfor(uint i = 0; i < itemNames.length; i++){\r\n\t\t    items[totalItems] = Item(lib.bytes32ToString(itemNames[i]),prices[i]);\r\n\t\t}\r\n\t\t\r\n\t\t\r\n\t}\r\n\r\n}",
  "sourcePath": "C:\\Users\\George\\Documents\\$_Documents\\University\\Computer Science\\Year 3\\Dissitation\\tryAByte\\contracts\\Order.sol",
  "compiler": {
    "name": "solc",
    "version": "0.5.0+commit.1d4f565a.Emscripten.clang"
  },
  "schemaVersion": "3.0.2",
  "updatedAt": "2019-03-04T02:28:39.253Z",
  "devdoc": {
    "methods": {}
  },
  "userdoc": {
    "methods": {}
  }
}