{
  "contractName": "Order",
  "abi": [
    {
      "inputs": [
        {
          "internalType": "uint256[]",
          "name": "integers",
          "type": "uint256[]"
        },
        {
          "internalType": "uint256",
          "name": "_itemCount",
          "type": "uint256"
        },
        {
          "internalType": "address",
          "name": "_controller",
          "type": "address"
        },
        {
          "internalType": "address payable",
          "name": "_customer",
          "type": "address"
        },
        {
          "internalType": "bytes32",
          "name": "keyHash",
          "type": "bytes32"
        }
      ],
      "payable": true,
      "stateMutability": "payable",
      "type": "constructor"
    },
    {
      "anonymous": false,
      "inputs": [],
      "name": "statusUpdated",
      "type": "event"
    },
    {
      "constant": true,
      "inputs": [],
      "name": "customer",
      "outputs": [
        {
          "internalType": "address payable",
          "name": "",
          "type": "address"
        }
      ],
      "payable": false,
      "stateMutability": "view",
      "type": "function"
    },
    {
      "constant": true,
      "inputs": [],
      "name": "customerStatus",
      "outputs": [
        {
          "internalType": "uint256",
          "name": "",
          "type": "uint256"
        }
      ],
      "payable": false,
      "stateMutability": "view",
      "type": "function"
    },
    {
      "constant": true,
      "inputs": [],
      "name": "deliveryFee",
      "outputs": [
        {
          "internalType": "uint256",
          "name": "",
          "type": "uint256"
        }
      ],
      "payable": false,
      "stateMutability": "view",
      "type": "function"
    },
    {
      "constant": true,
      "inputs": [],
      "name": "id",
      "outputs": [
        {
          "internalType": "uint256",
          "name": "",
          "type": "uint256"
        }
      ],
      "payable": false,
      "stateMutability": "view",
      "type": "function"
    },
    {
      "constant": true,
      "inputs": [
        {
          "internalType": "uint256",
          "name": "",
          "type": "uint256"
        }
      ],
      "name": "items",
      "outputs": [
        {
          "internalType": "uint256",
          "name": "itemId",
          "type": "uint256"
        },
        {
          "internalType": "uint256",
          "name": "optionId",
          "type": "uint256"
        }
      ],
      "payable": false,
      "stateMutability": "view",
      "type": "function"
    },
    {
      "constant": true,
      "inputs": [],
      "name": "keyHashRestaurant",
      "outputs": [
        {
          "internalType": "bytes32",
          "name": "",
          "type": "bytes32"
        }
      ],
      "payable": false,
      "stateMutability": "view",
      "type": "function"
    },
    {
      "constant": true,
      "inputs": [],
      "name": "keyHashRider",
      "outputs": [
        {
          "internalType": "bytes32",
          "name": "",
          "type": "bytes32"
        }
      ],
      "payable": false,
      "stateMutability": "view",
      "type": "function"
    },
    {
      "constant": true,
      "inputs": [],
      "name": "keyRestaurantSet",
      "outputs": [
        {
          "internalType": "bool",
          "name": "",
          "type": "bool"
        }
      ],
      "payable": false,
      "stateMutability": "view",
      "type": "function"
    },
    {
      "constant": true,
      "inputs": [],
      "name": "keyRiderSet",
      "outputs": [
        {
          "internalType": "bool",
          "name": "",
          "type": "bool"
        }
      ],
      "payable": false,
      "stateMutability": "view",
      "type": "function"
    },
    {
      "constant": true,
      "inputs": [],
      "name": "orderTime",
      "outputs": [
        {
          "internalType": "uint256",
          "name": "",
          "type": "uint256"
        }
      ],
      "payable": false,
      "stateMutability": "view",
      "type": "function"
    },
    {
      "constant": true,
      "inputs": [],
      "name": "restaurant",
      "outputs": [
        {
          "internalType": "address payable",
          "name": "",
          "type": "address"
        }
      ],
      "payable": false,
      "stateMutability": "view",
      "type": "function"
    },
    {
      "constant": true,
      "inputs": [],
      "name": "restaurantPaid",
      "outputs": [
        {
          "internalType": "bool",
          "name": "",
          "type": "bool"
        }
      ],
      "payable": false,
      "stateMutability": "view",
      "type": "function"
    },
    {
      "constant": true,
      "inputs": [],
      "name": "restaurantStatus",
      "outputs": [
        {
          "internalType": "uint256",
          "name": "",
          "type": "uint256"
        }
      ],
      "payable": false,
      "stateMutability": "view",
      "type": "function"
    },
    {
      "constant": true,
      "inputs": [],
      "name": "rider",
      "outputs": [
        {
          "internalType": "address payable",
          "name": "",
          "type": "address"
        }
      ],
      "payable": false,
      "stateMutability": "view",
      "type": "function"
    },
    {
      "constant": true,
      "inputs": [],
      "name": "riderPaid",
      "outputs": [
        {
          "internalType": "bool",
          "name": "",
          "type": "bool"
        }
      ],
      "payable": false,
      "stateMutability": "view",
      "type": "function"
    },
    {
      "constant": true,
      "inputs": [],
      "name": "riderStatus",
      "outputs": [
        {
          "internalType": "uint256",
          "name": "",
          "type": "uint256"
        }
      ],
      "payable": false,
      "stateMutability": "view",
      "type": "function"
    },
    {
      "constant": true,
      "inputs": [],
      "name": "totalItems",
      "outputs": [
        {
          "internalType": "uint256",
          "name": "",
          "type": "uint256"
        }
      ],
      "payable": false,
      "stateMutability": "view",
      "type": "function"
    },
    {
      "constant": true,
      "inputs": [
        {
          "internalType": "uint256",
          "name": "_id",
          "type": "uint256"
        }
      ],
      "name": "getItemRaw",
      "outputs": [
        {
          "internalType": "uint256",
          "name": "",
          "type": "uint256"
        },
        {
          "internalType": "uint256",
          "name": "",
          "type": "uint256"
        },
        {
          "internalType": "uint256[]",
          "name": "",
          "type": "uint256[]"
        }
      ],
      "payable": false,
      "stateMutability": "view",
      "type": "function"
    },
    {
      "constant": false,
      "inputs": [
        {
          "internalType": "bytes32",
          "name": "keyHash",
          "type": "bytes32"
        }
      ],
      "name": "riderOfferDelivery",
      "outputs": [],
      "payable": true,
      "stateMutability": "payable",
      "type": "function"
    },
    {
      "constant": false,
      "inputs": [
        {
          "internalType": "uint256",
          "name": "status",
          "type": "uint256"
        }
      ],
      "name": "setOrderStatus",
      "outputs": [],
      "payable": true,
      "stateMutability": "payable",
      "type": "function"
    },
    {
      "constant": true,
      "inputs": [],
      "name": "getBalance",
      "outputs": [
        {
          "internalType": "uint256",
          "name": "",
          "type": "uint256"
        }
      ],
      "payable": false,
      "stateMutability": "view",
      "type": "function"
    },
    {
      "constant": true,
      "inputs": [],
      "name": "getCost",
      "outputs": [
        {
          "internalType": "uint256",
          "name": "",
          "type": "uint256"
        }
      ],
      "payable": false,
      "stateMutability": "view",
      "type": "function"
    },
    {
      "constant": false,
      "inputs": [
        {
          "internalType": "bytes32",
          "name": "key",
          "type": "bytes32"
        }
      ],
      "name": "restaurantSubmitKey",
      "outputs": [
        {
          "internalType": "bool",
          "name": "",
          "type": "bool"
        }
      ],
      "payable": false,
      "stateMutability": "nonpayable",
      "type": "function"
    },
    {
      "constant": false,
      "inputs": [
        {
          "internalType": "bytes32",
          "name": "key",
          "type": "bytes32"
        }
      ],
      "name": "riderSubmitKey",
      "outputs": [
        {
          "internalType": "bool",
          "name": "",
          "type": "bool"
        }
      ],
      "payable": false,
      "stateMutability": "nonpayable",
      "type": "function"
    },
    {
      "constant": true,
      "inputs": [
        {
          "internalType": "bytes32",
          "name": "data",
          "type": "bytes32"
        }
      ],
      "name": "getHash",
      "outputs": [
        {
          "internalType": "bytes32",
          "name": "",
          "type": "bytes32"
        }
      ],
      "payable": false,
      "stateMutability": "pure",
      "type": "function"
    }
  ],
  "bytecode": "0x608060408190526004805461ffff19169055600c805460ff19908116909155600e805490911690556200137738819003908190833981810160405260a08110156200004957600080fd5b81019080805160405193929190846401000000008211156200006a57600080fd5b9083019060208201858111156200008057600080fd5b82518660208202830111640100000000821117156200009e57600080fd5b82525081516020918201928201910280838360005b83811015620000cd578181015183820152602001620000b3565b505050509190910160408181526020848101518583015160608701516080909701517f68db65a4000000000000000000000000000000000000000000000000000000008652935191985096509193506001600160a01b038616926368db65a49260048083019392829003018186803b1580156200014957600080fd5b505afa1580156200015e573d6000803e3d6000fd5b505050506040513d60208110156200017557600080fd5b5051604080517f79a4fa2700000000000000000000000000000000000000000000000000000000815233600482015290516001600160a01b03909216916379a4fa2791602480820192602092909190829003018186803b158015620001d957600080fd5b505afa158015620001ee573d6000803e3d6000fd5b505050506040513d60208110156200020557600080fd5b50516200025e576040517f08c379a000000000000000000000000000000000000000000000000000000000815260040180806020018281038252603d8152602001806200133a603d913960400191505060405180910390fd5b846001815181106200026c57fe5b6020026020010151600a81905550846000815181106200028857fe5b6020026020010151600981905550600a5460095401341015620002f7576040517f08c379a0000000000000000000000000000000000000000000000000000000008152600401808060200182810382526022815260200180620013186022913960400191505060405180910390fd5b600f849055600062000308620004d7565b60005b868110156200045d5760405180606001604052808983600201815181106200032f57fe5b6020026020010151815260200189898401600201815181106200034e57fe5b6020026020010151815260200189896002028401600201815181106200037057fe5b6020026020010151604051908082528060200260200182016040528015620003a2578160200160208202803883390190505b509052915060005b8888600202830160020181518110620003bf57fe5b602002602001015181101562000415578888600302850160020181518110620003e457fe5b602002602001015183604001518281518110620003fd57fe5b602090810291909101015260019384019301620003aa565b506000818152601060209081526040918290208451815581850151600182015591840151805185939262000451926002850192910190620004f8565b5050506001016200030b565b50506004805462010000600160b01b03191633620100000217905550600680546001600160a01b03199081166001600160a01b03948516179091554260085560078054909116939092169290921790556001600281905560008080558155600b91909155600c805460ff1916909117905550620005689050565b60405180606001604052806000815260200160008152602001606081525090565b82805482825590600052602060002090810192821562000536579160200282015b828111156200053657825182559160200191906001019062000519565b506200054492915062000548565b5090565b6200056591905b808211156200054457600081556001016200054f565b90565b610da080620005786000396000f3fe6080604052600436106101665760003560e01c8063a14b7e68116100d1578063db7575f01161008a578063ed16805811610064578063ed16805814610454578063f3cc0f1f14610469578063f90a92e31461047e578063fc6f78a01461049b57610166565b8063db7575f01461037f578063ddd0ebe8146103a9578063e9132c421461043557610166565b8063a14b7e68146102d3578063af640d0f146102e8578063bd3e19d4146102fd578063bfb231d214610312578063d601e11414610355578063d638e1021461036a57610166565b80633e3ca4d3116101235780633e3ca4d31461022c57806340571abb1461024157806353c0a0061461026a578063646e077f1461027f5780637aada134146102945780639e8464f1146102a957610166565b806312065fe01461016b5780632799276d146101925780632804b2c0146101a757806332940816146101d85780633cc94908146101ed5780633cf5040a14610202575b600080fd5b34801561017757600080fd5b506101806104b0565b60408051918252519081900360200190f35b34801561019e57600080fd5b506101806104b5565b3480156101b357600080fd5b506101bc6104bb565b604080516001600160a01b039092168252519081900360200190f35b3480156101e457600080fd5b506101806104ca565b3480156101f957600080fd5b506101806104d0565b34801561020e57600080fd5b506101806004803603602081101561022557600080fd5b50356104d6565b34801561023857600080fd5b506101806104fa565b34801561024d57600080fd5b50610256610500565b604080519115158252519081900360200190f35b34801561027657600080fd5b506101bc61050e565b34801561028b57600080fd5b5061025661051d565b3480156102a057600080fd5b50610180610526565b3480156102b557600080fd5b50610256600480360360208110156102cc57600080fd5b503561052c565b3480156102df57600080fd5b50610180610600565b3480156102f457600080fd5b50610180610606565b34801561030957600080fd5b5061018061060c565b34801561031e57600080fd5b5061033c6004803603602081101561033557600080fd5b5035610612565b6040805192835260208301919091528051918290030190f35b34801561036157600080fd5b5061025661062b565b34801561037657600080fd5b50610256610634565b34801561038b57600080fd5b50610256600480360360208110156103a257600080fd5b503561063d565b3480156103b557600080fd5b506103d3600480360360208110156103cc57600080fd5b5035610710565b6040518084815260200183815260200180602001828103825283818151815260200191508051906020019060200280838360005b8381101561041f578181015183820152602001610407565b5050505090500194505050505060405180910390f35b6104526004803603602081101561044b57600080fd5b503561080c565b005b34801561046057600080fd5b506101bc61092b565b34801561047557600080fd5b50610180610940565b6104526004803603602081101561049457600080fd5b5035610946565b3480156104a757600080fd5b50610180610b48565b303190565b600f5481565b6006546001600160a01b031681565b60015481565b600d5481565b60408051602080820193909352815180820384018152908201909152805191012090565b60005481565b600454610100900460ff1681565b6005546001600160a01b031681565b600c5460ff1681565b60085481565b600e5460009060ff161515600114610581576040805162461bcd60e51b8152602060048201526013602482015272139bc81ad95e481a185cc81899595b881cd95d606a1b604482015290519081900360640190fd5b600d5461058d836104d6565b146105cf576040805162461bcd60e51b815260206004820152600d60248201526c496e636f7272656374204b657960981b604482015290519081900360640190fd5b6105d7610b4e565b600360015560026000908155604051600080516020610c7e8339815191529190a1506001919050565b60025481565b60035481565b60095490565b6010602052600090815260409020805460019091015482565b60045460ff1681565b600e5460ff1681565b600c5460009060ff161515600114610692576040805162461bcd60e51b8152602060048201526013602482015272139bc81ad95e481a185cc81899595b881cd95d606a1b604482015290519081900360640190fd5b600b5461069e836104d6565b146106e0576040805162461bcd60e51b815260206004820152600d60248201526c496e636f7272656374204b657960981b604482015290519081900360640190fd5b6106e8610be2565b600360005560028055604051600080516020610c7e83398151915290600090a1506001919050565b60065460009081906060906001600160a01b031633148061074157506004546201000090046001600160a01b031633145b8061075657506005546001600160a01b031633145b6107915760405162461bcd60e51b815260040180806020018281038252602b815260200180610d18602b913960400191505060405180910390fd5b60008481526010602090815260409182902080546001820154600290920180548551818602810186019096528086529194929390929183918301828280156107f857602002820191906000526020600020905b8154815260200190600101908083116107e4575b505050505090509250925092509193909250565b6004546201000090046001600160a01b0316331461085b5760405162461bcd60e51b8152600401808060200182810382526050815260200180610c9e6050913960600191505060405180910390fd5b60015481116108b1576040805162461bcd60e51b815260206004820152601c60248201527f7374617475732063616e6e6f74206265206261636b747261636b656400000000604482015290519081900360640190fd5b600381111580156108c25750600081115b61090c576040805162461bcd60e51b815260206004820152601660248201527519da5d995b8814dd185d1d5cc81b9bdd081d985b1a5960521b604482015290519081900360640190fd5b6001819055604051600080516020610c7e83398151915290600090a150565b6004546201000090046001600160a01b031681565b600a5481565b600054156109855760405162461bcd60e51b815260040180806020018281038252602a815260200180610cee602a913960400191505060405180910390fd5b600760009054906101000a90046001600160a01b03166001600160a01b031663c9286d576040518163ffffffff1660e01b815260040160206040518083038186803b1580156109d357600080fd5b505afa1580156109e7573d6000803e3d6000fd5b505050506040513d60208110156109fd57600080fd5b505160408051630139526760e41b815233600482015290516001600160a01b0390921691631395267091602480820192602092909190829003018186803b158015610a4757600080fd5b505afa158015610a5b573d6000803e3d6000fd5b505050506040513d6020811015610a7157600080fd5b5051610aae5760405162461bcd60e51b8152600401808060200182810382526029815260200180610d436029913960400191505060405180910390fd5b600954341015610b05576040805162461bcd60e51b815260206004820152601e60248201527f746865206465706f7369742073656e74206973206e6f7420656e6f7567680000604482015290519081900360640190fd5b60016000908155600580546001600160a01b03191633179055600d829055600e805460ff19166001179055604051600080516020610c7e8339815191529190a150565b600b5481565b600460029054906101000a90046001600160a01b03166001600160a01b0316631b9265b86009546040518263ffffffff1660e01b81526004016000604051808303818588803b158015610ba057600080fd5b505af1158015610bb4573d6000803e3d6000fd5b50506004805460ff191660019081178255555050604051600080516020610c7e8339815191529150600090a1565b600560009054906101000a90046001600160a01b03166001600160a01b0316631b9265b8600a54600954016040518263ffffffff1660e01b81526004016000604051808303818588803b158015610c3857600080fd5b505af1158015610c4c573d6000803e3d6000fd5b50506004805461ff001916610100179055505060036000908155604051600080516020610c7e8339815191529250a156feac854101ed2841c4fe7b3c5bfc4f3e58ddac515e8dd58f1bd9cf7856f1cc6e7f596f7520646f6e742068617665207065726d697373696f6e20746f207365652074686973206f726465722c2064696420796f752067657420746865206f7264657220616464726573732077726f6e673f74686973206f7264657220616c6c7265616479206861732064656c6976657279206f7267616e69736564796f7520646f6e742068617665207065726d697373696f6e20746f20766965772074686973206f726465726d7573742062652063616c6c656420766961206120726964657220736d61727420636f6e7472616374a265627a7a723158203048b5a35a179d8a10114d33333741c57e0742818a9b6d10e2968b2f62d5435364736f6c634300050c00326e6f7420656e6f7567682065746865722073656e7420746f20746865206f72646572617474656d7074656420746f206d616b65206f726465722066726f6d20616464726573732074686174206973206e6f7420612072657374617572616e74",
  "source": "pragma solidity ^0.5.0;\n\nimport './RestaurantFactory.sol';\nimport './RiderFactory.sol';\nimport './Controller.sol';\nimport './Restaurant.sol';\nimport './Menu.sol';\nimport './Rider.sol';\n\ncontract Order{\n\n\tenum riderState{unassigned, accepted, hasCargo, Delivered}\n\tenum restaurantState{acceptedOrder, preparingCargo, readyForCollection, HandedOver}\n\tenum customerState{madeOrder, payed, hasCargo}\n    \n\tuint public riderStatus;\n\tuint public restaurantStatus;\n\tuint public customerStatus;\n\n\tuint public id;\n\t\n\tbool public restaurantPaid = false;\n\tbool public riderPaid = false;\n\n\taddress payable public restaurant;\n\taddress payable public rider; \t \n\taddress payable public customer; \n\n\taddress controller;\n\n\tuint public orderTime;\n\tuint cost;\n\tuint public deliveryFee;\n    \n\tbytes32 public keyHashRider;\n\tbool public keyRiderSet = false;\n\n\tbytes32 public keyHashRestaurant;\n\tbool public keyRestaurantSet = false;\n\n\tuint public totalItems;\n\n\tstruct Item {\n\t\tuint itemId;\n\t\tuint optionId;\n\t\tuint[] extraIds;\n\t}\n\n\tmapping(uint=>Item) public items;\n\n\tevent statusUpdated();\n\n\t//uint _id, uint price, uint _deliveryFee, uint[] memory itemIds, uint[] memory optionIds, uint[] memory extraFlags, uint[] memory extraIds\n\tconstructor(uint[] memory integers, uint _itemCount, address _controller, address payable _customer, bytes32 keyHash) public payable {\n\t    // require sent from a restaurant contract\n\t    require(RestaurantFactory(Controller(_controller).restaurantFactoryAddress()).restaurantExists(msg.sender),\"attempted to make order from address that is not a restaurant\");\n\n\t    // deconstruct integer array\n\t    deliveryFee = integers[1];\n\t    cost = integers[0];\n\n\t\trequire(msg.value >= cost + deliveryFee,\"not enough ether sent to the order\");\n\n\t    uint extraIndex = 0;\n\t    totalItems = _itemCount;\n\t    Item memory currentItem;\n\t    for(uint i = 0; i < _itemCount; i++){\n\t    \tcurrentItem = Item(integers[i+2],integers[i+_itemCount+2], new uint[](integers[i+(_itemCount*2)+2]));\n\t    \tfor(uint j = 0; j < integers[i+(_itemCount*2)+2]; j++){\n\t    \t\tcurrentItem.extraIds[j] = integers[extraIndex+(_itemCount*3)+2];\n\t    \t\textraIndex++;\n\t    \t}\n\t    \titems[i] = currentItem;\t\n\t    }\n\t\t\n\t\t// set contract infomation\n\t\trestaurant = msg.sender;\n\t\tcustomer = _customer;\n\t\torderTime = block.timestamp;\n\t\tcontroller = _controller;\n\t\t\n\t\tcustomerStatus = uint(customerState.payed);\n\t\triderStatus = uint(riderState.unassigned);\n\t\trestaurantStatus = uint(restaurantState.acceptedOrder);\t\n\n\t\tkeyHashRider = keyHash;\n\t\tkeyRiderSet = true;\n\t}\n\n\tfunction getItemRaw(uint _id) public view returns(uint, uint, uint[] memory){\n\t\trequire(customer == msg.sender || restaurant == msg.sender || rider == msg.sender, \"you dont have permission to view this order\"); // removed as asking for contract address where as should be owner addresses\n\t\treturn (items[_id].itemId,items[_id].optionId,items[_id].extraIds);\n\t}\n\n\n\tfunction riderOfferDelivery(bytes32 keyHash) public payable{\n\t\trequire(riderStatus == uint(riderState.unassigned),\"this order allready has delivery organised\");\n\t\trequire(RiderFactory(Controller(controller).riderFactoryAddress()).riderExists(msg.sender), \"must be called via a rider smart contract\");\n\t\trequire(msg.value >= cost, \"the deposit sent is not enough\");\n\t\t\n\t\triderStatus = uint(riderState.accepted);\n\t\trider = msg.sender;\n\n\t\tkeyHashRestaurant = keyHash;\n\t\tkeyRestaurantSet = true;\n\t\t\n\t\temit statusUpdated();\n\t}\n\n\tfunction setOrderStatus(uint status) public payable{\n\t\trequire(msg.sender == restaurant, \"You dont have permission to see this order, did you get the order address wrong?\");\n\t\trequire(status > restaurantStatus, \"status cannot be backtracked\");\n\t\trequire(status <= 3 && status > 0, \"given Status not valid\");\n\t\trestaurantStatus = status;\n\t\temit statusUpdated();\n\t}\n\n\tfunction payRider() private{\n\t\tRider(rider).pay.value(cost+deliveryFee)();\n\t\triderPaid = true;\n\t\triderStatus = 3;\n\t\temit statusUpdated();\n\t}\n\n\tfunction payRestaurant() private{\n\t\tRestaurant(restaurant).pay.value(cost)();\n\t\trestaurantPaid = true;\n\t\trestaurantStatus = 4;\n\t\temit statusUpdated();\n\t}\n\n\tfunction getBalance() public view returns(uint){\n\t\treturn address(this).balance;\n\t}\n\n\tfunction getCost() public view returns(uint){\n\t\t//require that this is one of the agents involved\n\t\treturn cost;\n\t}\n\n\tfunction restaurantSubmitKey(bytes32 key) public returns (bool){\n\t\trequire(keyRestaurantSet == true, \"No key has been set\");\n\t\trequire(getHash(key) == keyHashRestaurant, \"Incorrect Key\");\n\t\tpayRestaurant();\n\t\trestaurantStatus = uint(restaurantState.HandedOver);\n\t\triderStatus = uint(riderState.hasCargo);\n\t\temit statusUpdated();\n\t\treturn true;\n\t}\n\n\tfunction riderSubmitKey(bytes32 key) public returns (bool){\n\t\trequire(keyRiderSet == true, \"No key has been set\");\n\t\trequire(getHash(key) == keyHashRider, \"Incorrect Key\");\n\t\tpayRider();\n\t\triderStatus = uint(riderState.Delivered);\n\t\tcustomerStatus = uint(customerState.hasCargo);\n\t\temit statusUpdated();\n\t\treturn true;\n\t}\n\n\tfunction getHash(bytes32 data) public pure returns(bytes32){\n\t\treturn keccak256(abi.encodePacked(data));\n\t}\n}",
  "sourcePath": "/home/george/Documents/WorkSpace/TryAByte/contracts/Order.sol",
  "compiler": {
    "name": "solc",
    "version": "0.5.12+commit.7709ece9.Emscripten.clang"
  },
  "schemaVersion": "3.0.19",
  "updatedAt": "2020-02-01T11:38:26.038Z",
  "networkType": "ethereum",
  "devdoc": {
    "methods": {}
  },
  "userdoc": {
    "methods": {}
  }
}