{
  "contractName": "Order",
  "abi": [
    {
      "constant": true,
      "inputs": [],
      "name": "totalItems",
      "outputs": [
        {
          "name": "",
          "type": "uint256"
        }
      ],
      "payable": false,
      "stateMutability": "view",
      "type": "function"
    },
    {
      "constant": true,
      "inputs": [],
      "name": "restaurantStatus",
      "outputs": [
        {
          "name": "",
          "type": "uint256"
        }
      ],
      "payable": false,
      "stateMutability": "view",
      "type": "function"
    },
    {
      "constant": true,
      "inputs": [],
      "name": "keyHashRestaurant",
      "outputs": [
        {
          "name": "",
          "type": "bytes32"
        }
      ],
      "payable": false,
      "stateMutability": "view",
      "type": "function"
    },
    {
      "constant": true,
      "inputs": [],
      "name": "riderStatus",
      "outputs": [
        {
          "name": "",
          "type": "uint256"
        }
      ],
      "payable": false,
      "stateMutability": "view",
      "type": "function"
    },
    {
      "constant": true,
      "inputs": [],
      "name": "riderPaid",
      "outputs": [
        {
          "name": "",
          "type": "bool"
        }
      ],
      "payable": false,
      "stateMutability": "view",
      "type": "function"
    },
    {
      "constant": true,
      "inputs": [],
      "name": "rider",
      "outputs": [
        {
          "name": "",
          "type": "address"
        }
      ],
      "payable": false,
      "stateMutability": "view",
      "type": "function"
    },
    {
      "constant": true,
      "inputs": [],
      "name": "keyRiderSet",
      "outputs": [
        {
          "name": "",
          "type": "bool"
        }
      ],
      "payable": false,
      "stateMutability": "view",
      "type": "function"
    },
    {
      "constant": true,
      "inputs": [],
      "name": "orderTime",
      "outputs": [
        {
          "name": "",
          "type": "uint256"
        }
      ],
      "payable": false,
      "stateMutability": "view",
      "type": "function"
    },
    {
      "constant": true,
      "inputs": [],
      "name": "customerStatus",
      "outputs": [
        {
          "name": "",
          "type": "uint256"
        }
      ],
      "payable": false,
      "stateMutability": "view",
      "type": "function"
    },
    {
      "constant": true,
      "inputs": [],
      "name": "id",
      "outputs": [
        {
          "name": "",
          "type": "uint256"
        }
      ],
      "payable": false,
      "stateMutability": "view",
      "type": "function"
    },
    {
      "constant": true,
      "inputs": [
        {
          "name": "",
          "type": "uint256"
        }
      ],
      "name": "items",
      "outputs": [
        {
          "name": "itemName",
          "type": "bytes32"
        },
        {
          "name": "itemCost",
          "type": "uint256"
        }
      ],
      "payable": false,
      "stateMutability": "view",
      "type": "function"
    },
    {
      "constant": true,
      "inputs": [],
      "name": "restaurantPaid",
      "outputs": [
        {
          "name": "",
          "type": "bool"
        }
      ],
      "payable": false,
      "stateMutability": "view",
      "type": "function"
    },
    {
      "constant": true,
      "inputs": [],
      "name": "keyRestaurantSet",
      "outputs": [
        {
          "name": "",
          "type": "bool"
        }
      ],
      "payable": false,
      "stateMutability": "view",
      "type": "function"
    },
    {
      "constant": true,
      "inputs": [],
      "name": "restaurant",
      "outputs": [
        {
          "name": "",
          "type": "address"
        }
      ],
      "payable": false,
      "stateMutability": "view",
      "type": "function"
    },
    {
      "constant": true,
      "inputs": [],
      "name": "deliveryFee",
      "outputs": [
        {
          "name": "",
          "type": "uint256"
        }
      ],
      "payable": false,
      "stateMutability": "view",
      "type": "function"
    },
    {
      "constant": true,
      "inputs": [],
      "name": "keyHashRider",
      "outputs": [
        {
          "name": "",
          "type": "bytes32"
        }
      ],
      "payable": false,
      "stateMutability": "view",
      "type": "function"
    },
    {
      "inputs": [
        {
          "name": "_id",
          "type": "uint256"
        },
        {
          "name": "itemNames",
          "type": "bytes32[]"
        },
        {
          "name": "prices",
          "type": "uint256[]"
        },
        {
          "name": "_deliveryFee",
          "type": "uint256"
        },
        {
          "name": "_deliveryAddress",
          "type": "bytes"
        },
        {
          "name": "_controller",
          "type": "address"
        },
        {
          "name": "_customer",
          "type": "address"
        },
        {
          "name": "keyHash",
          "type": "bytes32"
        }
      ],
      "payable": true,
      "stateMutability": "payable",
      "type": "constructor"
    },
    {
      "constant": true,
      "inputs": [
        {
          "name": "_id",
          "type": "uint256"
        }
      ],
      "name": "statusUpdated",
      "outputs": [
        {
          "name": "itemName",
          "type": "bytes32"
        },
        {
          "name": "itemCost",
          "type": "uint256"
        }
      ],
      "payable": false,
      "stateMutability": "view",
      "type": "event",
      "anonymous": false
    },
    {
      "constant": true,
      "inputs": [
        {
          "name": "_id",
          "type": "uint256"
        }
      ],
      "name": "getItem",
      "outputs": [
        {
          "name": "itemName",
          "type": "bytes32"
        },
        {
          "name": "itemCost",
          "type": "uint256"
        }
      ],
      "payable": false,
      "stateMutability": "view",
      "type": "function"
    },
    {
      "constant": true,
      "inputs": [
        {
          "name": "keyHash",
          "type": "bytes32"
        }
      ],
      "name": "getDeliveryAddress",
      "outputs": [
        {
          "name": "_deliveryAddress",
          "type": "bytes"
        }
      ],
      "payable": false,
      "stateMutability": "view",
      "type": "function"
    },
    {
      "constant": false,
      "inputs": [
        {
          "name": "keyHash",
          "type": "bytes32"
        }
      ],
      "name": "riderOfferDelivery",
      "outputs": [],
      "payable": true,
      "stateMutability": "payable",
      "type": "function"
    },
    {
      "constant": false,
      "inputs": [
        {
          "name": "status",
          "type": "uint256"
        }
      ],
      "name": "setOrderStatus",
      "outputs": [
        {
          "name": "",
          "type": "uint256"
        }
      ],
      "payable": true,
      "stateMutability": "payable",
      "type": "function"
    },
    {
      "constant": true,
      "inputs": [],
      "name": "getBalance",
      "outputs": [
        {
          "name": "",
          "type": "uint256"
        }
      ],
      "payable": false,
      "stateMutability": "view",
      "type": "function"
    },
    {
      "constant": true,
      "inputs": [
        {
          "name": "key",
          "type": "bytes32"
        }
      ],
      "name": "getCost",
      "outputs": [
        {
          "name": "",
          "type": "uint256"
        }
      ],
      "payable": false,
      "stateMutability": "view",
      "type": "function"
    },
    {
      "constant": false,
      "inputs": [
        {
          "name": "key",
          "type": "bytes32"
        }
      ],
      "name": "restaurantSubmitKey",
      "outputs": [
        {
          "name": "",
          "type": "bool"
        }
      ],
      "payable": false,
      "stateMutability": "nonpayable",
      "type": "function"
    },
    {
      "constant": false,
      "inputs": [
        {
          "name": "key",
          "type": "bytes32"
        }
      ],
      "name": "riderSubmitKey",
      "outputs": [
        {
          "name": "",
          "type": "bool"
        }
      ],
      "payable": false,
      "stateMutability": "nonpayable",
      "type": "function"
    },
    {
      "constant": true,
      "inputs": [
        {
          "name": "data",
          "type": "bytes32"
        }
      ],
      "name": "getHash",
      "outputs": [
        {
          "name": "",
          "type": "bytes32"
        }
      ],
      "payable": false,
      "stateMutability": "view",
      "type": "function"
    }
  ],
  "bytecode": "0x608060408190526004805461ffff19169055600d805460ff19908116909155600f80549091169055620013b43881900390819083398101806040526101008110156200004a57600080fd5b8151602083018051919392830192916401000000008111156200006c57600080fd5b820160208101848111156200008057600080fd5b81518560208202830111640100000000821117156200009e57600080fd5b50509291906020018051640100000000811115620000bb57600080fd5b82016020810184811115620000cf57600080fd5b8151856020820283011164010000000082111715620000ed57600080fd5b505060208201516040909201805191949293916401000000008111156200011357600080fd5b820160208101848111156200012757600080fd5b81516401000000008111828201871017156200014257600080fd5b505060208083015160408085015160609095015181517f68db65a400000000000000000000000000000000000000000000000000000000815291519497509195509092600160a060020a038616926368db65a49260048082019391829003018186803b158015620001b257600080fd5b505afa158015620001c7573d6000803e3d6000fd5b505050506040513d6020811015620001de57600080fd5b5051604080517f79a4fa270000000000000000000000000000000000000000000000000000000081523360048201529051600160a060020a03909216916379a4fa2791602480820192602092909190829003018186803b1580156200024257600080fd5b505afa15801562000257573d6000803e3d6000fd5b505050506040513d60208110156200026e57600080fd5b505115156200030457604080517f08c379a000000000000000000000000000000000000000000000000000000000815260206004820152603d60248201527f617474656d7074656420746f206d616b65206f726465722066726f6d2061646460448201527f726573732074686174206973206e6f7420612072657374617572616e74000000606482015290519081900360840190fd5b85518751146200039b57604080517f08c379a000000000000000000000000000000000000000000000000000000000815260206004820152602360248201527f696e76616c6964206d61746368696e67206f66206974656d7320746f2070726960448201527f6365730000000000000000000000000000000000000000000000000000000000606482015290519081900360840190fd5b6003889055600480546201000060b060020a03191633620100000217905560068054600160a060020a031916600160a060020a0384161790558351620003e990600890602087019062000587565b504260095560078054600160a060020a031916600160a060020a0385161790556000600a81905560108190555b8751811015620004b857604080519081016040528089838151811015156200043a57fe5b90602001906020020151815260200188838151811015156200045857fe5b6020908102909101810151909152601054600090815260118252604090208251815591015160019091015586518790829081106200049257fe5b60209081029091010151600a805490910190556010805460019081019091550162000416565b50600b859055600a5485013410156200055857604080517f08c379a000000000000000000000000000000000000000000000000000000000815260206004820152602360248201527f6e6f7420656e6f7567682065746865722073656e7420746f20746865206f726460448201527f6572200000000000000000000000000000000000000000000000000000000000606482015290519081900360840190fd5b6001600281905560008080558155600c91909155600d805460ff19169091179055506200062c95505050505050565b828054600181600116156101000203166002900490600052602060002090601f016020900481019282601f10620005ca57805160ff1916838001178555620005fa565b82800160010185558215620005fa579182015b82811115620005fa578251825591602001919060010190620005dd565b50620006089291506200060c565b5090565b6200062991905b8082111562000608576000815560010162000613565b90565b610d78806200063c6000396000f3fe60806040526004361061012f5763ffffffff60e060020a60003504166312065fe081146101345780632799276d1461015b5780633129e7731461017057806332940816146101b35780633733d9f5146101c85780633cc94908146102525780633cf5040a146102675780633e3ca4d31461029157806340571abb146102a657806353c0a006146102cf578063646e077f146103005780637aada134146103155780639e8464f11461032a578063a14b7e6814610354578063af640d0f14610369578063bd3e19d41461037e578063bfb231d214610393578063d601e114146103bd578063d638e102146103d2578063db7575f0146103e7578063e9132c4214610411578063ed16805814610430578063f3cc0f1f14610445578063f90a92e31461045a578063fc6f78a014610477575b600080fd5b34801561014057600080fd5b5061014961048c565b60408051918252519081900360200190f35b34801561016757600080fd5b50610149610491565b34801561017c57600080fd5b5061019a6004803603602081101561019357600080fd5b5035610497565b6040805192835260208301919091528051918290030190f35b3480156101bf57600080fd5b506101496104b1565b3480156101d457600080fd5b506101dd6104b7565b6040805160208082528351818301528351919283929083019185019080838360005b838110156102175781810151838201526020016101ff565b50505050905090810190601f1680156102445780820380516001836020036101000a031916815260200191505b509250505060405180910390f35b34801561025e57600080fd5b50610149610593565b34801561027357600080fd5b506101496004803603602081101561028a57600080fd5b5035610599565b34801561029d57600080fd5b506101496105bd565b3480156102b257600080fd5b506102bb6105c3565b604080519115158252519081900360200190f35b3480156102db57600080fd5b506102e46105d1565b60408051600160a060020a039092168252519081900360200190f35b34801561030c57600080fd5b506102bb6105e0565b34801561032157600080fd5b506101496105e9565b34801561033657600080fd5b506102bb6004803603602081101561034d57600080fd5b50356105ef565b34801561036057600080fd5b506101496106e3565b34801561037557600080fd5b506101496106e9565b34801561038a57600080fd5b506101496106ef565b34801561039f57600080fd5b5061019a600480360360208110156103b657600080fd5b50356106f5565b3480156103c957600080fd5b506102bb61070e565b3480156103de57600080fd5b506102bb610717565b3480156103f357600080fd5b506102bb6004803603602081101561040a57600080fd5b5035610720565b61042e6004803603602081101561042757600080fd5b5035610813565b005b34801561043c57600080fd5b506102e46109a6565b34801561045157600080fd5b506101496109bb565b61042e6004803603602081101561047057600080fd5b50356109c1565b34801561048357600080fd5b50610149610bf1565b303190565b60105481565b600090815260116020526040902080546001909101549091565b60015481565b600654606090600160a060020a03163314806104e35750600454620100009004600160a060020a031633145b806104f85750600554600160a060020a031633145b151561050357600080fd5b6008805460408051602060026001851615610100026000190190941693909304601f810184900484028201840190925281815292918301828280156105895780601f1061055e57610100808354040283529160200191610589565b820191906000526020600020905b81548152906001019060200180831161056c57829003601f168201915b5050505050905090565b600e5481565b60408051602080820193909352815180820384018152908201909152805191012090565b60005481565b600454610100900460ff1681565b600554600160a060020a031681565b600d5460ff1681565b60095481565b600f5460009060ff161515600114610651576040805160e560020a62461bcd02815260206004820152601360248201527f4e6f206b657920686173206265656e2073657400000000000000000000000000604482015290519081900360640190fd5b600e5461065d83610599565b146106b2576040805160e560020a62461bcd02815260206004820152600d60248201527f496e636f7272656374204b657900000000000000000000000000000000000000604482015290519081900360640190fd5b6106ba610bf7565b600360015560026000908155604051600080516020610d2d8339815191529190a1506001919050565b60025481565b60035481565b600a5490565b6011602052600090815260409020805460019091015482565b60045460ff1681565b600f5460ff1681565b600d5460009060ff161515600114610782576040805160e560020a62461bcd02815260206004820152601360248201527f4e6f206b657920686173206265656e2073657400000000000000000000000000604482015290519081900360640190fd5b600c5461078e83610599565b146107e3576040805160e560020a62461bcd02815260206004820152600d60248201527f496e636f7272656374204b657900000000000000000000000000000000000000604482015290519081900360640190fd5b6107eb610c8e565b600360005560028055604051600080516020610d2d83398151915290600090a1506001919050565b600454620100009004600160a060020a031633146108c7576040805160e560020a62461bcd02815260206004820152605060248201527f596f7520646f6e742068617665207065726d697373696f6e20746f207365652060448201527f74686973206f726465722c2064696420796f752067657420746865206f72646560648201527f7220616464726573732077726f6e673f00000000000000000000000000000000608482015290519081900360a40190fd5b6001548111610920576040805160e560020a62461bcd02815260206004820152601c60248201527f7374617475732063616e6e6f74206265206261636b747261636b656400000000604482015290519081900360640190fd5b600381111580156109315750600081115b1515610987576040805160e560020a62461bcd02815260206004820152601660248201527f676976656e20537461747573206e6f742076616c696400000000000000000000604482015290519081900360640190fd5b6001819055604051600080516020610d2d83398151915290600090a150565b600454620100009004600160a060020a031681565b600b5481565b600760009054906101000a9004600160a060020a0316600160a060020a031663c9286d576040518163ffffffff1660e060020a02815260040160206040518083038186803b158015610a1257600080fd5b505afa158015610a26573d6000803e3d6000fd5b505050506040513d6020811015610a3c57600080fd5b5051604080517f139526700000000000000000000000000000000000000000000000000000000081523360048201529051600160a060020a0390921691631395267091602480820192602092909190829003018186803b158015610a9f57600080fd5b505afa158015610ab3573d6000803e3d6000fd5b505050506040513d6020811015610ac957600080fd5b50511515610b47576040805160e560020a62461bcd02815260206004820152602960248201527f6d7573742062652063616c6c656420766961206120726964657220736d61727460448201527f20636f6e74726163740000000000000000000000000000000000000000000000606482015290519081900360840190fd5b600a54341015610ba1576040805160e560020a62461bcd02815260206004820152601e60248201527f746865206465706f7369742073656e74206973206e6f7420656e6f7567680000604482015290519081900360640190fd5b600160009081556005805473ffffffffffffffffffffffffffffffffffffffff191633179055600e829055600f805460ff19166001179055604051600080516020610d2d8339815191529190a150565b600c5481565b600460029054906101000a9004600160a060020a0316600160a060020a0316631b9265b8600a546040518263ffffffff1660e060020a0281526004016000604051808303818588803b158015610c4c57600080fd5b505af1158015610c60573d6000803e3d6000fd5b50506004805460ff191660019081178255555050604051600080516020610d2d8339815191529150600090a1565b600560009054906101000a9004600160a060020a0316600160a060020a0316631b9265b8600b54600a54016040518263ffffffff1660e060020a0281526004016000604051808303818588803b158015610ce757600080fd5b505af1158015610cfb573d6000803e3d6000fd5b50506004805461ff001916610100179055505060036000908155604051600080516020610d2d8339815191529250a156feac854101ed2841c4fe7b3c5bfc4f3e58ddac515e8dd58f1bd9cf7856f1cc6e7fa165627a7a72305820b5d48d7dbcff176eea8034a1a73380df7097876d3a4a555658622dc784b800d30029",
  "source": "pragma solidity ^0.5.0;\n\nimport './RestaurantFactory.sol';\nimport './RiderFactory.sol';\nimport './Controller.sol';\nimport './Restaurant.sol';\nimport './Rider.sol';\n\ncontract Order{\n\n\tenum riderState{unassigned, accepted, hasCargo, Delivered}\n\tenum restaurantState{acceptedOrder, preparingCargo, readyForCollection, HandedOver}\n\tenum customerState{madeOrder, payed, hasCargo}\n    \n\tuint public riderStatus;\n\tuint public restaurantStatus;\n\tuint public customerStatus;\n\n\tuint public id;\n\t\n\tbool public restaurantPaid = false;\n\tbool public riderPaid = false;\n\n\taddress payable public restaurant;\n\taddress payable public rider; \t  // this should be encrypted\n\taddress payable customer; // this should be encrypted\n\n\taddress controller;\n\n\tbytes deliveryAddress;\n\tuint public orderTime;\n\tuint cost;\n\tuint public deliveryFee;\n    \n\tbytes32 public keyHashRider;\n\tbool public keyRiderSet = false;\n\n\tbytes32 public keyHashRestaurant;\n\tbool public keyRestaurantSet = false;\n\n\tuint public totalItems;\n\tmapping(uint=>Item) public items; // this should be encrypted\n\n\tevent statusUpdated();\n\n\tstruct Item{\n\t\tbytes32 itemName;\n\t\tuint itemCost; // in wei (10^-18 Eth)\n\t}\n\n\n\tconstructor(uint _id, bytes32[] memory itemNames, uint[] memory prices,uint _deliveryFee, bytes memory _deliveryAddress, address _controller, address payable _customer, bytes32 keyHash) public payable {\n\t    // require sent from a restaurant contract\n\t    require(RestaurantFactory(Controller(_controller).restaurantFactoryAddress()).restaurantExists(msg.sender),\"attempted to make order from address that is not a restaurant\");\n\t    require(itemNames.length == prices.length, \"invalid matching of items to prices\");\n\t\t\n\t\t// set contract infomation\n\t\tid = _id;\n\t\trestaurant = msg.sender;\n\t\tcustomer = _customer; // this needs changing as is vunrability\n\t\tdeliveryAddress = _deliveryAddress;\n\t\torderTime = block.timestamp;\n\n\t\tcontroller = _controller;\n\t\t\n\t\tcost = 0;\n\n\t\t// set items\n\t\ttotalItems = 0;\n\t\tfor(uint i = 0; i < itemNames.length; i++){\n\t\t    items[totalItems] = Item(itemNames[i],prices[i]);\n\t\t    cost += prices[i];\n\t\t    totalItems++;\n\t\t}\n\n\t\tdeliveryFee = _deliveryFee;\n\n\t\trequire(msg.value >= cost + deliveryFee,\"not enough ether sent to the order \");\n\t\t\n\t\tcustomerStatus = uint(customerState.payed);\n\t\triderStatus = uint(riderState.unassigned);\n\t\trestaurantStatus = uint(restaurantState.acceptedOrder);\t\n\n\t\tkeyHashRider = keyHash;\n\t\tkeyRiderSet = true;\n\t}\n\n\tfunction getItem(uint _id) public view returns(bytes32 itemName, uint itemCost){\n\t\t//require(customer == msg.sender || restaurant == msg.sender || rider == msg.sender); // removed as asking for contract address where as should be owner addresses\n\t\treturn (items[_id].itemName,items[_id].itemCost);\n\t}  \n\n\tfunction getDeliveryAddress() public view returns(bytes memory _deliveryAddress){\n\t\trequire(customer == msg.sender || restaurant == msg.sender || rider == msg.sender);\n\t\treturn deliveryAddress;\n\t}\n\n\tfunction riderOfferDelivery(bytes32 keyHash) public payable{\n\t\trequire(RiderFactory(Controller(controller).riderFactoryAddress()).riderExists(msg.sender), \"must be called via a rider smart contract\");\n\t\trequire(msg.value >= cost, \"the deposit sent is not enough\");\n\t\t\n\t\triderStatus = uint(riderState.accepted);\n\t\trider = msg.sender;\n\n\t\tkeyHashRestaurant = keyHash;\n\t\tkeyRestaurantSet = true;\n\t\t\n\t\temit statusUpdated();\n\t}\n\n\tfunction setOrderStatus(uint status) public payable{\n\t\trequire(msg.sender == restaurant, \"You dont have permission to see this order, did you get the order address wrong?\");\n\t\trequire(status > restaurantStatus, \"status cannot be backtracked\");\n\t\trequire(status <= 3 && status > 0, \"given Status not valid\");\n\t\trestaurantStatus = status;\n\t\temit statusUpdated();\n\t}\n\n\tfunction payRider() private{\n\t\tRider(rider).pay.value(cost+deliveryFee)();\n\t\triderPaid = true;\n\t\triderStatus = 3;\n\t\temit statusUpdated();\n\t}\n\n\tfunction payRestaurant() private{\n\t\tRestaurant(restaurant).pay.value(cost)();\n\t\trestaurantPaid = true;\n\t\trestaurantStatus = 4;\n\t\temit statusUpdated();\n\t}\n\n\tfunction getBalance() public view returns(uint){\n\t\treturn address(this).balance;\n\t}\n\n\tfunction getCost() public view returns(uint){\n\t\t//require that this is one of the agents involved\n\t\treturn cost;\n\t}\n\n\tfunction restaurantSubmitKey(bytes32 key) public returns (bool){\n\t\trequire(keyRestaurantSet == true, \"No key has been set\");\n\t\trequire(getHash(key) == keyHashRestaurant, \"Incorrect Key\");\n\t\tpayRestaurant();\n\t\trestaurantStatus = uint(restaurantState.HandedOver);\n\t\triderStatus = uint(riderState.hasCargo);\n\t\temit statusUpdated();\n\t\treturn true;\n\t}\n\n\tfunction riderSubmitKey(bytes32 key) public returns (bool){\n\t\trequire(keyRiderSet == true, \"No key has been set\");\n\t\trequire(getHash(key) == keyHashRider, \"Incorrect Key\");\n\t\tpayRider();\n\t\triderStatus = uint(riderState.Delivered);\n\t\tcustomerStatus = uint(customerState.hasCargo);\n\t\temit statusUpdated();\n\t\treturn true;\n\t}\n\n\tfunction getHash(bytes32 data) public view returns(bytes32){\n\t\treturn keccak256(abi.encodePacked(data));\n\t}\n}",
  "sourcePath": "/home/george/Documents/TryAByte/contracts/Order.sol",
  "compiler": {
    "name": "solc",
    "version": "0.5.0+commit.1d4f565a.Emscripten.clang"
  },
  "schemaVersion": "3.0.6",
  "updatedAt": "2019-04-19T10:48:01.808Z",
  "devdoc": {
    "methods": {}
  },
  "userdoc": {
    "methods": {}
  }
}