{
  "contractName": "Order",
  "abi": [
    {
      "constant": true,
      "inputs": [],
      "name": "totalItems",
      "outputs": [
        {
          "name": "",
          "type": "uint256"
        }
      ],
      "payable": false,
      "stateMutability": "view",
      "type": "function"
    },
    {
      "constant": true,
      "inputs": [],
      "name": "restaurantStatus",
      "outputs": [
        {
          "name": "",
          "type": "uint256"
        }
      ],
      "payable": false,
      "stateMutability": "view",
      "type": "function"
    },
    {
      "constant": true,
      "inputs": [],
      "name": "riderStatus",
      "outputs": [
        {
          "name": "",
          "type": "uint256"
        }
      ],
      "payable": false,
      "stateMutability": "view",
      "type": "function"
    },
    {
      "constant": true,
      "inputs": [],
      "name": "restaurantFactoryAddress",
      "outputs": [
        {
          "name": "",
          "type": "address"
        }
      ],
      "payable": false,
      "stateMutability": "view",
      "type": "function"
    },
    {
      "constant": true,
      "inputs": [],
      "name": "customerStatus",
      "outputs": [
        {
          "name": "",
          "type": "uint256"
        }
      ],
      "payable": false,
      "stateMutability": "view",
      "type": "function"
    },
    {
      "constant": true,
      "inputs": [],
      "name": "id",
      "outputs": [
        {
          "name": "",
          "type": "uint256"
        }
      ],
      "payable": false,
      "stateMutability": "view",
      "type": "function"
    },
    {
      "constant": true,
      "inputs": [
        {
          "name": "",
          "type": "uint256"
        }
      ],
      "name": "items",
      "outputs": [
        {
          "name": "itemName",
          "type": "string"
        },
        {
          "name": "itemCost",
          "type": "uint256"
        }
      ],
      "payable": false,
      "stateMutability": "view",
      "type": "function"
    },
    {
      "constant": true,
      "inputs": [],
      "name": "restaurant",
      "outputs": [
        {
          "name": "",
          "type": "address"
        }
      ],
      "payable": false,
      "stateMutability": "view",
      "type": "function"
    },
    {
      "inputs": [
        {
          "name": "_id",
          "type": "uint256"
        },
        {
          "name": "_restaurantFactoryAddress",
          "type": "address"
        },
        {
          "name": "itemNames",
          "type": "bytes32[]"
        },
        {
          "name": "prices",
          "type": "uint256[]"
        },
        {
          "name": "_controller",
          "type": "address"
        },
        {
          "name": "_customer",
          "type": "address"
        }
      ],
      "payable": false,
      "stateMutability": "nonpayable",
      "type": "constructor"
    },
    {
      "constant": true,
      "inputs": [
        {
          "name": "_id",
          "type": "uint256"
        }
      ],
      "name": "getItem",
      "outputs": [
        {
          "name": "itemName",
          "type": "bytes32"
        },
        {
          "name": "itemCost",
          "type": "uint256"
        }
      ],
      "payable": false,
      "stateMutability": "view",
      "type": "function"
    },
    {
      "constant": true,
      "inputs": [],
      "name": "getDeliveryAddress",
      "outputs": [
        {
          "name": "_deliveryAddress",
          "type": "bytes32"
        }
      ],
      "payable": false,
      "stateMutability": "view",
      "type": "function"
    },
    {
      "constant": false,
      "inputs": [],
      "name": "riderOfferDelivery",
      "outputs": [],
      "payable": false,
      "stateMutability": "nonpayable",
      "type": "function"
    },
    {
      "constant": false,
      "inputs": [
        {
          "name": "status",
          "type": "uint256"
        }
      ],
      "name": "setOrderStatus",
      "outputs": [],
      "payable": false,
      "stateMutability": "nonpayable",
      "type": "function"
    }
  ],
  "bytecode": "0x60806040523480156200001157600080fd5b50604051620013e9380380620013e9833981018060405260c08110156200003757600080fd5b81019080805190602001909291908051906020019092919080516401000000008111156200006457600080fd5b828101905060208101848111156200007b57600080fd5b81518560208202830111640100000000821117156200009957600080fd5b50509291906020018051640100000000811115620000b657600080fd5b82810190506020810184811115620000cd57600080fd5b8151856020820283011164010000000082111715620000eb57600080fd5b505092919060200180519060200190929190805190602001909291905050508473ffffffffffffffffffffffffffffffffffffffff166379a4fa27336040518263ffffffff167c0100000000000000000000000000000000000000000000000000000000028152600401808273ffffffffffffffffffffffffffffffffffffffff1673ffffffffffffffffffffffffffffffffffffffff16815260200191505060206040518083038186803b158015620001a457600080fd5b505afa158015620001b9573d6000803e3d6000fd5b505050506040513d6020811015620001d057600080fd5b81019080805190602001909291905050501515620001ed57600080fd5b82518451141515620001fe57600080fd5b8560038190555033600560006101000a81548173ffffffffffffffffffffffffffffffffffffffff021916908373ffffffffffffffffffffffffffffffffffffffff16021790555080600760006101000a81548173ffffffffffffffffffffffffffffffffffffffff021916908373ffffffffffffffffffffffffffffffffffffffff16021790555084600460006101000a81548173ffffffffffffffffffffffffffffffffffffffff021916908373ffffffffffffffffffffffffffffffffffffffff16021790555081600860006101000a81548173ffffffffffffffffffffffffffffffffffffffff021916908373ffffffffffffffffffffffffffffffffffffffff1602179055506000600a8190555060008090505b8451811015620004c857604080519081016040528073__lib___________________________________639201de5588858151811015156200035557fe5b906020019060200201516040518263ffffffff167c01000000000000000000000000000000000000000000000000000000000281526004018082815260200191505060006040518083038186803b158015620003b057600080fd5b505af4158015620003c5573d6000803e3d6000fd5b505050506040513d6000823e3d601f19601f820116820180604052506020811015620003f057600080fd5b8101908080516401000000008111156200040957600080fd5b828101905060208101848111156200042057600080fd5b81518560018202830111640100000000821117156200043e57600080fd5b5050929190505050815260200185838151811015156200045a57fe5b90602001906020020151815250600b6000600a54815260200190815260200160002060008201518160000190805190602001906200049a92919062000511565b5060208201518160010155905050600a60008154809291906001019190505550808060010191505062000317565b5060006003811115620004d757fe5b60008190555060006001811115620004eb57fe5b60028190555060006002811115620004ff57fe5b600181905550505050505050620005c0565b828054600181600116156101000203166002900490600052602060002090601f016020900481019282601f106200055457805160ff191683800117855562000585565b8280016001018555821562000585579182015b828111156200058457825182559160200191906001019062000567565b5b50905062000594919062000598565b5090565b620005bd91905b80821115620005b95760008160009055506001016200059f565b5090565b90565b610e1980620005d06000396000f3fe6080604052600436106100ba576000357c0100000000000000000000000000000000000000000000000000000000900463ffffffff1680632799276d146100bf5780633129e773146100ea57806332940816146101405780633733d9f51461016b5780633e3ca4d31461019657806368db65a4146101c1578063a14b7e6814610218578063af640d0f14610243578063bfb231d21461026e578063c7529f0c14610329578063e9132c4214610340578063ed1680581461037b575b600080fd5b3480156100cb57600080fd5b506100d46103d2565b6040518082815260200191505060405180910390f35b3480156100f657600080fd5b506101236004803603602081101561010d57600080fd5b81019080803590602001909291905050506103d8565b604051808381526020018281526020019250505060405180910390f35b34801561014c57600080fd5b50610155610644565b6040518082815260200191505060405180910390f35b34801561017757600080fd5b5061018061064a565b6040518082815260200191505060405180910390f35b3480156101a257600080fd5b506101ab610760565b6040518082815260200191505060405180910390f35b3480156101cd57600080fd5b506101d6610766565b604051808273ffffffffffffffffffffffffffffffffffffffff1673ffffffffffffffffffffffffffffffffffffffff16815260200191505060405180910390f35b34801561022457600080fd5b5061022d61078c565b6040518082815260200191505060405180910390f35b34801561024f57600080fd5b50610258610792565b6040518082815260200191505060405180910390f35b34801561027a57600080fd5b506102a76004803603602081101561029157600080fd5b8101908080359060200190929190505050610798565b6040518080602001838152602001828103825284818151815260200191508051906020019080838360005b838110156102ed5780820151818401526020810190506102d2565b50505050905090810190601f16801561031a5780820380516001836020036101000a031916815260200191505b50935050505060405180910390f35b34801561033557600080fd5b5061033e610854565b005b34801561034c57600080fd5b506103796004803603602081101561036357600080fd5b8101908080359060200190929190505050610a47565b005b34801561038757600080fd5b50610390610dc7565b604051808273ffffffffffffffffffffffffffffffffffffffff1673ffffffffffffffffffffffffffffffffffffffff16815260200191505060405180910390f35b600a5481565b6000803373ffffffffffffffffffffffffffffffffffffffff16600760009054906101000a900473ffffffffffffffffffffffffffffffffffffffff1673ffffffffffffffffffffffffffffffffffffffff16148061048457503373ffffffffffffffffffffffffffffffffffffffff16600560009054906101000a900473ffffffffffffffffffffffffffffffffffffffff1673ffffffffffffffffffffffffffffffffffffffff16145b806104dc57503373ffffffffffffffffffffffffffffffffffffffff16600660009054906101000a900473ffffffffffffffffffffffffffffffffffffffff1673ffffffffffffffffffffffffffffffffffffffff16145b15156104e757600080fd5b73__lib___________________________________63cfb51928600b60008681526020019081526020016000206000016040518263ffffffff167c010000000000000000000000000000000000000000000000000000000002815260040180806020018281038252838181546001816001161561010002031660029004815260200191508054600181600116156101000203166002900480156105cb5780601f106105a0576101008083540402835291602001916105cb565b820191906000526020600020905b8154815290600101906020018083116105ae57829003601f168201915b50509250505060206040518083038186803b1580156105e957600080fd5b505af41580156105fd573d6000803e3d6000fd5b505050506040513d602081101561061357600080fd5b8101908080519060200190929190505050600b60008581526020019081526020016000206001015491509150915091565b60015481565b60003373ffffffffffffffffffffffffffffffffffffffff16600760009054906101000a900473ffffffffffffffffffffffffffffffffffffffff1673ffffffffffffffffffffffffffffffffffffffff1614806106f557503373ffffffffffffffffffffffffffffffffffffffff16600560009054906101000a900473ffffffffffffffffffffffffffffffffffffffff1673ffffffffffffffffffffffffffffffffffffffff16145b8061074d57503373ffffffffffffffffffffffffffffffffffffffff16600660009054906101000a900473ffffffffffffffffffffffffffffffffffffffff1673ffffffffffffffffffffffffffffffffffffffff16145b151561075857600080fd5b600954905090565b60005481565b600460009054906101000a900473ffffffffffffffffffffffffffffffffffffffff1681565b60025481565b60035481565b600b602052806000526040600020600091509050806000018054600181600116156101000203166002900480601f0160208091040260200160405190810160405280929190818152602001828054600181600116156101000203166002900480156108445780601f1061081957610100808354040283529160200191610844565b820191906000526020600020905b81548152906001019060200180831161082757829003601f168201915b5050505050908060010154905082565b600860009054906101000a900473ffffffffffffffffffffffffffffffffffffffff1673ffffffffffffffffffffffffffffffffffffffff1663c9286d576040518163ffffffff167c010000000000000000000000000000000000000000000000000000000002815260040160206040518083038186803b1580156108d857600080fd5b505afa1580156108ec573d6000803e3d6000fd5b505050506040513d602081101561090257600080fd5b810190808051906020019092919050505073ffffffffffffffffffffffffffffffffffffffff166313952670336040518263ffffffff167c0100000000000000000000000000000000000000000000000000000000028152600401808273ffffffffffffffffffffffffffffffffffffffff1673ffffffffffffffffffffffffffffffffffffffff16815260200191505060206040518083038186803b1580156109ab57600080fd5b505afa1580156109bf573d6000803e3d6000fd5b505050506040513d60208110156109d557600080fd5b810190808051906020019092919050505015156109f157600080fd5b600160038111156109fe57fe5b60008190555033600660006101000a81548173ffffffffffffffffffffffffffffffffffffffff021916908373ffffffffffffffffffffffffffffffffffffffff160217905550565b600660009054906101000a900473ffffffffffffffffffffffffffffffffffffffff1673ffffffffffffffffffffffffffffffffffffffff163373ffffffffffffffffffffffffffffffffffffffff161480610af05750600560009054906101000a900473ffffffffffffffffffffffffffffffffffffffff1673ffffffffffffffffffffffffffffffffffffffff163373ffffffffffffffffffffffffffffffffffffffff16145b80610b485750600760009054906101000a900473ffffffffffffffffffffffffffffffffffffffff1673ffffffffffffffffffffffffffffffffffffffff163373ffffffffffffffffffffffffffffffffffffffff16145b1515610c08576040517f08c379a00000000000000000000000000000000000000000000000000000000081526004018080602001828103825260508152602001807f596f7520646f6e742068617665207065726d697373696f6e20746f207365652081526020017f74686973206f726465722c2064696420796f752067657420746865206f72646581526020017f7220616464726573732077726f6e673f0000000000000000000000000000000081525060600191505060405180910390fd5b600660009054906101000a900473ffffffffffffffffffffffffffffffffffffffff1673ffffffffffffffffffffffffffffffffffffffff163373ffffffffffffffffffffffffffffffffffffffff161415610c6a5780600081905550610dc4565b600560009054906101000a900473ffffffffffffffffffffffffffffffffffffffff1673ffffffffffffffffffffffffffffffffffffffff163373ffffffffffffffffffffffffffffffffffffffff161415610ccc5780600181905550610dc3565b600760009054906101000a900473ffffffffffffffffffffffffffffffffffffffff1673ffffffffffffffffffffffffffffffffffffffff163373ffffffffffffffffffffffffffffffffffffffff161415610d2e5780600281905550610dc2565b6040517f08c379a00000000000000000000000000000000000000000000000000000000081526004018080602001828103825260358152602001807f4572726f723a20756e617574686f72697365726420616464726573732061636381526020017f657373696e67207365744f72646572537461747573000000000000000000000081525060400191505060405180910390fd5b5b5b50565b600560009054906101000a900473ffffffffffffffffffffffffffffffffffffffff168156fea165627a7a72305820f50a98de5e01a448aa633406b07c2126bd7666ea7d6910ed1103f6cc5b1c6d640029",
  "source": "pragma solidity ^0.5.0;\n\nimport './lib.sol';\nimport './RestaurantFactory.sol';\nimport './RiderFactory.sol';\nimport './Controller.sol';\n\ncontract Order{\n\n\tenum riderState{unassigned, accepted, hasCargo, Delivered}\n\tenum restaurantState{acceptedOrder, preparingCargo, HandedOver}\n\tenum customerState{madeOrder,hasCargo}\n    \n\tuint public riderStatus;\n\tuint public restaurantStatus;\n\tuint public customerStatus;\n\n\tuint public id;\n\taddress public restaurantFactoryAddress;\n\t\n\n\taddress public restaurant;\n\taddress rider; \t  // this should be encrypted\n\taddress customer; // this should be encrypted\n\n\taddress controller;\n\n\tbytes32 deliveryAddress;\n    \n\n\n\tuint public totalItems;\n\tmapping(uint=>Item) public items; // this should be encrypted\n\n\tstruct Item{\n\t\tstring itemName;\n\t\tuint itemCost; // in wei (10^-18 Eth)\n\t}\n\n\tconstructor(uint _id, address _restaurantFactoryAddress, bytes32[] memory itemNames, uint[] memory prices, address _controller, address _customer) public {\n\t    // require sent from a restaurant contract\n\t    require(RestaurantFactory(_restaurantFactoryAddress).restaurantExists(msg.sender));\n\t    require(itemNames.length == prices.length);\n\n\t\t\n\t\t// set contract infomation\n\t\tid = _id;\n\t\trestaurant = msg.sender;\n\t\tcustomer = _customer; // this needs changing as is vunrability\n\t\trestaurantFactoryAddress = _restaurantFactoryAddress;\n\n\t\tcontroller = _controller;\n\t\t\n\t\t// set items\n\t\ttotalItems = 0;\n\t\tfor(uint i = 0; i < itemNames.length; i++){\n\t\t    items[totalItems] = Item(lib.bytes32ToString(itemNames[i]),prices[i]);\n\t\t    totalItems++;\n\t\t}\n\n\t\triderStatus = uint(riderState.unassigned);\n\t\tcustomerStatus = uint(customerState.madeOrder);\n\t\trestaurantStatus = uint(restaurantState.acceptedOrder);\n\t\t\n\t\t\n\t}\n\n\tfunction getItem(uint _id) public view returns(bytes32 itemName, uint itemCost){\n\t\trequire(customer == msg.sender || restaurant == msg.sender || rider == msg.sender);\n\t\treturn (lib.stringToBytes32(items[_id].itemName),items[_id].itemCost);\n\t}  \n\n\tfunction getDeliveryAddress() public view returns(bytes32 _deliveryAddress){\n\t\trequire(customer == msg.sender || restaurant == msg.sender || rider == msg.sender);\n\t\treturn deliveryAddress;\n\t}\n\n\tfunction riderOfferDelivery() public {\n\t\trequire(RiderFactory(Controller(controller).riderFactoryAddress()).riderExists(msg.sender));\n\t\triderStatus = uint(riderState.accepted);\n\t\trider = msg.sender;\n\t}\n\n\tfunction setOrderStatus(uint status) public {\n\t\trequire(msg.sender == rider || msg.sender == restaurant || msg.sender == customer, \"You dont have permission to see this order, did you get the order address wrong?\");\n\n\t\tif(msg.sender == rider)\n\t\t\triderStatus = status;\n\t\telse if(msg.sender == restaurant)\n\t\t\trestaurantStatus = status;\n\t\telse if(msg.sender == customer)\n\t\t\tcustomerStatus = status;\n\t\telse\n\t\t\trevert(\"Error: unauthoriserd address accessing setOrderStatus\");\n\t}\n}",
  "sourcePath": "/home/george/Documents/University/Dissertation/TryAByte/contracts/Order.sol",
  "compiler": {
    "name": "solc",
    "version": "0.5.0+commit.1d4f565a.Emscripten.clang"
  },
  "schemaVersion": "3.0.2",
  "updatedAt": "2019-03-13T14:06:34.081Z",
  "devdoc": {
    "methods": {}
  },
  "userdoc": {
    "methods": {}
  }
}