{
  "contractName": "Order",
  "abi": [
    {
      "constant": true,
      "inputs": [],
      "name": "totalItems",
      "outputs": [
        {
          "name": "",
          "type": "uint256"
        }
      ],
      "payable": false,
      "stateMutability": "view",
      "type": "function"
    },
    {
      "constant": true,
      "inputs": [],
      "name": "restaurantStatus",
      "outputs": [
        {
          "name": "",
          "type": "uint256"
        }
      ],
      "payable": false,
      "stateMutability": "view",
      "type": "function"
    },
    {
      "constant": true,
      "inputs": [],
      "name": "riderStatus",
      "outputs": [
        {
          "name": "",
          "type": "uint256"
        }
      ],
      "payable": false,
      "stateMutability": "view",
      "type": "function"
    },
    {
      "constant": true,
      "inputs": [],
      "name": "rider",
      "outputs": [
        {
          "name": "",
          "type": "address"
        }
      ],
      "payable": false,
      "stateMutability": "view",
      "type": "function"
    },
    {
      "constant": true,
      "inputs": [],
      "name": "customerStatus",
      "outputs": [
        {
          "name": "",
          "type": "uint256"
        }
      ],
      "payable": false,
      "stateMutability": "view",
      "type": "function"
    },
    {
      "constant": true,
      "inputs": [],
      "name": "id",
      "outputs": [
        {
          "name": "",
          "type": "uint256"
        }
      ],
      "payable": false,
      "stateMutability": "view",
      "type": "function"
    },
    {
      "constant": true,
      "inputs": [
        {
          "name": "",
          "type": "uint256"
        }
      ],
      "name": "items",
      "outputs": [
        {
          "name": "itemName",
          "type": "string"
        },
        {
          "name": "itemCost",
          "type": "uint256"
        }
      ],
      "payable": false,
      "stateMutability": "view",
      "type": "function"
    },
    {
      "constant": true,
      "inputs": [],
      "name": "restaurant",
      "outputs": [
        {
          "name": "",
          "type": "address"
        }
      ],
      "payable": false,
      "stateMutability": "view",
      "type": "function"
    },
    {
      "constant": true,
      "inputs": [],
      "name": "deliveryFee",
      "outputs": [
        {
          "name": "",
          "type": "uint256"
        }
      ],
      "payable": false,
      "stateMutability": "view",
      "type": "function"
    },
    {
      "inputs": [
        {
          "name": "_id",
          "type": "uint256"
        },
        {
          "name": "itemNames",
          "type": "bytes32[]"
        },
        {
          "name": "prices",
          "type": "uint256[]"
        },
        {
          "name": "_deliveryFee",
          "type": "uint256"
        },
        {
          "name": "_controller",
          "type": "address"
        },
        {
          "name": "_customer",
          "type": "address"
        }
      ],
      "payable": true,
      "stateMutability": "payable",
      "type": "constructor"
    },
    {
      "constant": true,
      "inputs": [
        {
          "name": "_id",
          "type": "uint256"
        }
      ],
      "name": "getItem",
      "outputs": [
        {
          "name": "itemName",
          "type": "bytes32"
        },
        {
          "name": "itemCost",
          "type": "uint256"
        }
      ],
      "payable": false,
      "stateMutability": "view",
      "type": "function"
    },
    {
      "constant": true,
      "inputs": [],
      "name": "getDeliveryAddress",
      "outputs": [
        {
          "name": "_deliveryAddress",
          "type": "bytes32"
        }
      ],
      "payable": false,
      "stateMutability": "view",
      "type": "function"
    },
    {
      "constant": false,
      "inputs": [],
      "name": "riderOfferDelivery",
      "outputs": [],
      "payable": true,
      "stateMutability": "payable",
      "type": "function"
    },
    {
      "constant": false,
      "inputs": [
        {
          "name": "status",
          "type": "uint256"
        }
      ],
      "name": "setOrderStatus",
      "outputs": [],
      "payable": true,
      "stateMutability": "payable",
      "type": "function"
    },
    {
      "constant": true,
      "inputs": [],
      "name": "getBalance",
      "outputs": [
        {
          "name": "",
          "type": "uint256"
        }
      ],
      "payable": false,
      "stateMutability": "view",
      "type": "function"
    },
    {
      "constant": true,
      "inputs": [],
      "name": "getCost",
      "outputs": [
        {
          "name": "",
          "type": "uint256"
        }
      ],
      "payable": false,
      "stateMutability": "view",
      "type": "function"
    }
  ],
  "bytecode": "0x60806040526000600460006101000a81548160ff0219169083151502179055506000600460016101000a81548160ff02191690831515021790555060405162001fbc38038062001fbc833981018060405260c08110156200005f57600080fd5b810190808051906020019092919080516401000000008111156200008257600080fd5b828101905060208101848111156200009957600080fd5b8151856020820283011164010000000082111715620000b757600080fd5b50509291906020018051640100000000811115620000d457600080fd5b82810190506020810184811115620000eb57600080fd5b81518560208202830111640100000000821117156200010957600080fd5b50509291906020018051906020019092919080519060200190929190805190602001909291905050508173ffffffffffffffffffffffffffffffffffffffff166368db65a46040518163ffffffff167c010000000000000000000000000000000000000000000000000000000002815260040160206040518083038186803b1580156200019557600080fd5b505afa158015620001aa573d6000803e3d6000fd5b505050506040513d6020811015620001c157600080fd5b810190808051906020019092919050505073ffffffffffffffffffffffffffffffffffffffff166379a4fa27336040518263ffffffff167c0100000000000000000000000000000000000000000000000000000000028152600401808273ffffffffffffffffffffffffffffffffffffffff1673ffffffffffffffffffffffffffffffffffffffff16815260200191505060206040518083038186803b1580156200026b57600080fd5b505afa15801562000280573d6000803e3d6000fd5b505050506040513d60208110156200029757600080fd5b8101908080519060200190929190505050151562000343576040517f08c379a000000000000000000000000000000000000000000000000000000000815260040180806020018281038252603d8152602001807f617474656d7074656420746f206d616b65206f726465722066726f6d2061646481526020017f726573732074686174206973206e6f7420612072657374617572616e7400000081525060400191505060405180910390fd5b83518551141515620003e3576040517f08c379a00000000000000000000000000000000000000000000000000000000081526004018080602001828103825260238152602001807f696e76616c6964206d61746368696e67206f66206974656d7320746f2070726981526020017f636573000000000000000000000000000000000000000000000000000000000081525060400191505060405180910390fd5b8560038190555033600460026101000a81548173ffffffffffffffffffffffffffffffffffffffff021916908373ffffffffffffffffffffffffffffffffffffffff16021790555080600660006101000a81548173ffffffffffffffffffffffffffffffffffffffff021916908373ffffffffffffffffffffffffffffffffffffffff16021790555081600760006101000a81548173ffffffffffffffffffffffffffffffffffffffff021916908373ffffffffffffffffffffffffffffffffffffffff16021790555060006009819055506000600b8190555060008090505b85518110156200069c57604080519081016040528073__lib___________________________________639201de5589858151811015156200050157fe5b906020019060200201516040518263ffffffff167c01000000000000000000000000000000000000000000000000000000000281526004018082815260200191505060006040518083038186803b1580156200055c57600080fd5b505af415801562000571573d6000803e3d6000fd5b505050506040513d6000823e3d601f19601f8201168201806040525060208110156200059c57600080fd5b810190808051640100000000811115620005b557600080fd5b82810190506020810184811115620005cc57600080fd5b8151856001820283011164010000000082111715620005ea57600080fd5b5050929190505050815260200186838151811015156200060657fe5b90602001906020020151815250600c6000600b54815260200190815260200160002060008201518160000190805190602001906200064692919062000af4565b506020820151816001015590505084818151811015156200066357fe5b90602001906020020151600960008282540192505081905550600b600081548092919060010191905055508080600101915050620004c3565b5082600a81905550600a546009540134101573__lib___________________________________63ff74927b620006ed600a5460095401620009906401000000000262001284176401000000009004565b6040518263ffffffff167c01000000000000000000000000000000000000000000000000000000000281526004018080602001806020018381038352602c8152602001807f6e6f7420656e6f7567682065746865722073656e7420746f20746865206f726481526020017f65722c206e65656465643a200000000000000000000000000000000000000000815250604001838103825284818151815260200191508051906020019080838360005b83811015620007b85780820151818401526020810190506200079b565b50505050905090810190601f168015620007e65780820380516001836020036101000a031916815260200191505b50935050505060006040518083038186803b1580156200080557600080fd5b505af41580156200081a573d6000803e3d6000fd5b505050506040513d6000823e3d601f19601f8201168201806040525060208110156200084557600080fd5b8101908080516401000000008111156200085e57600080fd5b828101905060208101848111156200087557600080fd5b81518560018202830111640100000000821117156200089357600080fd5b505092919050505090151562000947576040517f08c379a00000000000000000000000000000000000000000000000000000000081526004018080602001828103825283818151815260200191508051906020019080838360005b838110156200090b578082015181840152602081019050620008ee565b50505050905090810190601f168015620009395780820380516001836020036101000a031916815260200191505b509250505060405180910390fd5b50600160028111156200095657fe5b600281905550600060038111156200096a57fe5b600081905550600060038111156200097e57fe5b60018190555050505050505062000ba3565b60606000821415620009da576040805190810160405280600181526020017f3000000000000000000000000000000000000000000000000000000000000000815250905062000aef565b600082905060005b60008214151562000a0b578080600101915050600a8281151562000a0257fe5b049150620009e2565b6060816040519080825280601f01601f19166020018201604052801562000a415781602001600182028038833980820191505090505b50905060006001830390505b60008614151562000ae757600a8681151562000a6557fe5b066030017f01000000000000000000000000000000000000000000000000000000000000000282828060019003935081518110151562000aa157fe5b9060200101907effffffffffffffffffffffffffffffffffffffffffffffffffffffffffffff1916908160001a905350600a8681151562000ade57fe5b04955062000a4d565b819450505050505b919050565b828054600181600116156101000203166002900490600052602060002090601f016020900481019282601f1062000b3757805160ff191683800117855562000b68565b8280016001018555821562000b68579182015b8281111562000b6757825182559160200191906001019062000b4a565b5b50905062000b77919062000b7b565b5090565b62000ba091905b8082111562000b9c57600081600090555060010162000b82565b5090565b90565b6114098062000bb36000396000f3fe6080604052600436106100db576000357c0100000000000000000000000000000000000000000000000000000000900463ffffffff16806312065fe0146100e05780632799276d1461010b5780633129e77314610136578063329408161461018c5780633733d9f5146101b75780633e3ca4d3146101e257806353c0a0061461020d578063a14b7e6814610264578063af640d0f1461028f578063bd3e19d4146102ba578063bfb231d2146102e5578063c7529f0c146103a0578063e9132c42146103aa578063ed168058146103d8578063f3cc0f1f1461042f575b600080fd5b3480156100ec57600080fd5b506100f561045a565b6040518082815260200191505060405180910390f35b34801561011757600080fd5b50610120610479565b6040518082815260200191505060405180910390f35b34801561014257600080fd5b5061016f6004803603602081101561015957600080fd5b810190808035906020019092919050505061047f565b604051808381526020018281526020019250505060405180910390f35b34801561019857600080fd5b506101a16105df565b6040518082815260200191505060405180910390f35b3480156101c357600080fd5b506101cc6105e5565b6040518082815260200191505060405180910390f35b3480156101ee57600080fd5b506101f76106fb565b6040518082815260200191505060405180910390f35b34801561021957600080fd5b50610222610701565b604051808273ffffffffffffffffffffffffffffffffffffffff1673ffffffffffffffffffffffffffffffffffffffff16815260200191505060405180910390f35b34801561027057600080fd5b50610279610727565b6040518082815260200191505060405180910390f35b34801561029b57600080fd5b506102a461072d565b6040518082815260200191505060405180910390f35b3480156102c657600080fd5b506102cf610733565b6040518082815260200191505060405180910390f35b3480156102f157600080fd5b5061031e6004803603602081101561030857600080fd5b810190808035906020019092919050505061073d565b6040518080602001838152602001828103825284818151815260200191508051906020019080838360005b83811015610364578082015181840152602081019050610349565b50505050905090810190601f1680156103915780820380516001836020036101000a031916815260200191505b50935050505060405180910390f35b6103a86107f9565b005b6103d6600480360360208110156103c057600080fd5b81019080803590602001909291905050506109fd565b005b3480156103e457600080fd5b506103ed611258565b604051808273ffffffffffffffffffffffffffffffffffffffff1673ffffffffffffffffffffffffffffffffffffffff16815260200191505060405180910390f35b34801561043b57600080fd5b5061044461127e565b6040518082815260200191505060405180910390f35b60003073ffffffffffffffffffffffffffffffffffffffff1631905090565b600b5481565b60008073__lib___________________________________63cfb51928600c60008681526020019081526020016000206000016040518263ffffffff167c010000000000000000000000000000000000000000000000000000000002815260040180806020018281038252838181546001816001161561010002031660029004815260200191508054600181600116156101000203166002900480156105665780601f1061053b57610100808354040283529160200191610566565b820191906000526020600020905b81548152906001019060200180831161054957829003601f168201915b50509250505060206040518083038186803b15801561058457600080fd5b505af4158015610598573d6000803e3d6000fd5b505050506040513d60208110156105ae57600080fd5b8101908080519060200190929190505050600c60008581526020019081526020016000206001015491509150915091565b60015481565b60003373ffffffffffffffffffffffffffffffffffffffff16600660009054906101000a900473ffffffffffffffffffffffffffffffffffffffff1673ffffffffffffffffffffffffffffffffffffffff16148061069057503373ffffffffffffffffffffffffffffffffffffffff16600460029054906101000a900473ffffffffffffffffffffffffffffffffffffffff1673ffffffffffffffffffffffffffffffffffffffff16145b806106e857503373ffffffffffffffffffffffffffffffffffffffff16600560009054906101000a900473ffffffffffffffffffffffffffffffffffffffff1673ffffffffffffffffffffffffffffffffffffffff16145b15156106f357600080fd5b600854905090565b60005481565b600560009054906101000a900473ffffffffffffffffffffffffffffffffffffffff1681565b60025481565b60035481565b6000600954905090565b600c602052806000526040600020600091509050806000018054600181600116156101000203166002900480601f0160208091040260200160405190810160405280929190818152602001828054600181600116156101000203166002900480156107e95780601f106107be576101008083540402835291602001916107e9565b820191906000526020600020905b8154815290600101906020018083116107cc57829003601f168201915b5050505050908060010154905082565b600760009054906101000a900473ffffffffffffffffffffffffffffffffffffffff1673ffffffffffffffffffffffffffffffffffffffff1663c9286d576040518163ffffffff167c010000000000000000000000000000000000000000000000000000000002815260040160206040518083038186803b15801561087d57600080fd5b505afa158015610891573d6000803e3d6000fd5b505050506040513d60208110156108a757600080fd5b810190808051906020019092919050505073ffffffffffffffffffffffffffffffffffffffff166313952670336040518263ffffffff167c0100000000000000000000000000000000000000000000000000000000028152600401808273ffffffffffffffffffffffffffffffffffffffff1673ffffffffffffffffffffffffffffffffffffffff16815260200191505060206040518083038186803b15801561095057600080fd5b505afa158015610964573d6000803e3d6000fd5b505050506040513d602081101561097a57600080fd5b8101908080519060200190929190505050151561099657600080fd5b60095434101515156109a757600080fd5b600160038111156109b457fe5b60008190555033600560006101000a81548173ffffffffffffffffffffffffffffffffffffffff021916908373ffffffffffffffffffffffffffffffffffffffff160217905550565b600560009054906101000a900473ffffffffffffffffffffffffffffffffffffffff1673ffffffffffffffffffffffffffffffffffffffff163373ffffffffffffffffffffffffffffffffffffffff161480610aa65750600460029054906101000a900473ffffffffffffffffffffffffffffffffffffffff1673ffffffffffffffffffffffffffffffffffffffff163373ffffffffffffffffffffffffffffffffffffffff16145b80610afe5750600660009054906101000a900473ffffffffffffffffffffffffffffffffffffffff1673ffffffffffffffffffffffffffffffffffffffff163373ffffffffffffffffffffffffffffffffffffffff16145b1515610bbe576040517f08c379a00000000000000000000000000000000000000000000000000000000081526004018080602001828103825260508152602001807f596f7520646f6e742068617665207065726d697373696f6e20746f207365652081526020017f74686973206f726465722c2064696420796f752067657420746865206f72646581526020017f7220616464726573732077726f6e673f0000000000000000000000000000000081525060600191505060405180910390fd5b600560009054906101000a900473ffffffffffffffffffffffffffffffffffffffff1673ffffffffffffffffffffffffffffffffffffffff163373ffffffffffffffffffffffffffffffffffffffff161415610d1e5760005481111515610c8d576040517f08c379a000000000000000000000000000000000000000000000000000000000815260040180806020018281038252601c8152602001807f7374617475732063616e6e6f74206265206261636b747261636b65640000000081525060200191505060405180910390fd5b60038111158015610c9e5750600081115b1515610d12576040517f08c379a00000000000000000000000000000000000000000000000000000000081526004018080602001828103825260168152602001807f676976656e20537461747573206e6f742076616c69640000000000000000000081525060200191505060405180910390fd5b80600081905550611074565b600460029054906101000a900473ffffffffffffffffffffffffffffffffffffffff1673ffffffffffffffffffffffffffffffffffffffff163373ffffffffffffffffffffffffffffffffffffffff161415610e7e5760015481111515610ded576040517f08c379a000000000000000000000000000000000000000000000000000000000815260040180806020018281038252601c8152602001807f7374617475732063616e6e6f74206265206261636b747261636b65640000000081525060200191505060405180910390fd5b60038111158015610dfe5750600081115b1515610e72576040517f08c379a00000000000000000000000000000000000000000000000000000000081526004018080602001828103825260168152602001807f676976656e20537461747573206e6f742076616c69640000000000000000000081525060200191505060405180910390fd5b80600181905550611073565b600660009054906101000a900473ffffffffffffffffffffffffffffffffffffffff1673ffffffffffffffffffffffffffffffffffffffff163373ffffffffffffffffffffffffffffffffffffffff161415610fde5760025481111515610f4d576040517f08c379a000000000000000000000000000000000000000000000000000000000815260040180806020018281038252601c8152602001807f7374617475732063616e6e6f74206265206261636b747261636b65640000000081525060200191505060405180910390fd5b60028111158015610f5e5750600081115b1515610fd2576040517f08c379a00000000000000000000000000000000000000000000000000000000081526004018080602001828103825260168152602001807f676976656e20537461747573206e6f742076616c69640000000000000000000081525060200191505060405180910390fd5b80600281905550611072565b6040517f08c379a00000000000000000000000000000000000000000000000000000000081526004018080602001828103825260358152602001807f4572726f723a20756e617574686f72697365726420616464726573732061636381526020017f657373696e67207365744f72646572537461747573000000000000000000000081525060400191505060405180910390fd5b5b5b600460009054906101000a900460ff1615801561109357506002600054145b80156110a157506003600154145b1561116357600460029054906101000a900473ffffffffffffffffffffffffffffffffffffffff1673ffffffffffffffffffffffffffffffffffffffff16631b9265b86009546040518263ffffffff167c01000000000000000000000000000000000000000000000000000000000281526004016000604051808303818588803b15801561112e57600080fd5b505af1158015611142573d6000803e3d6000fd5b50505050506001600460006101000a81548160ff0219169083151502179055505b600460019054906101000a900460ff1615801561118257506003600054145b801561118f575060028054145b1561125557600560009054906101000a900473ffffffffffffffffffffffffffffffffffffffff1673ffffffffffffffffffffffffffffffffffffffff16631b9265b8600a54600954016040518263ffffffff167c01000000000000000000000000000000000000000000000000000000000281526004016000604051808303818588803b15801561122057600080fd5b505af1158015611234573d6000803e3d6000fd5b50505050506001600460016101000a81548160ff0219169083151502179055505b50565b600460029054906101000a900473ffffffffffffffffffffffffffffffffffffffff1681565b600a5481565b606060008214156112cc576040805190810160405280600181526020017f300000000000000000000000000000000000000000000000000000000000000081525090506113d8565b600082905060005b6000821415156112fa578080600101915050600a828115156112f257fe5b0491506112d4565b6060816040519080825280601f01601f19166020018201604052801561132f5781602001600182028038833980820191505090505b50905060006001830390505b6000861415156113d057600a8681151561135157fe5b066030017f01000000000000000000000000000000000000000000000000000000000000000282828060019003935081518110151561138c57fe5b9060200101907effffffffffffffffffffffffffffffffffffffffffffffffffffffffffffff1916908160001a905350600a868115156113c857fe5b04955061133b565b819450505050505b91905056fea165627a7a723058203939c192cca8cb859130cebe69dcfdbbf48d22cc302c31678e46bc681a907b600029",
  "source": "pragma solidity ^0.5.0;\n\nimport './lib.sol';\nimport './RestaurantFactory.sol';\nimport './RiderFactory.sol';\nimport './Controller.sol';\nimport './Restaurant.sol';\nimport './Rider.sol';\n\ncontract Order{\n\n\tenum riderState{unassigned, accepted, hasCargo, Delivered}\n\tenum restaurantState{acceptedOrder, preparingCargo, readyForCollection, HandedOver}\n\tenum customerState{madeOrder, payed, hasCargo}\n    \n\tuint public riderStatus;\n\tuint public restaurantStatus;\n\tuint public customerStatus;\n\n\tuint public id;\n\t\n\tbool restaurantPaid = false;\n\tbool riderPaid = false;\n\n\taddress payable public restaurant;\n\taddress payable public rider; \t  // this should be encrypted\n\taddress payable customer; // this should be encrypted\n\n\taddress controller;\n\n\tbytes32 deliveryAddress;\n\tuint cost;\n\tuint public deliveryFee;\n    \n\n\n\tuint public totalItems;\n\tmapping(uint=>Item) public items; // this should be encrypted\n\n\tstruct Item{\n\t\tstring itemName;\n\t\tuint itemCost; // in wei (10^-18 Eth)\n\t}\n\n\tconstructor(uint _id, bytes32[] memory itemNames, uint[] memory prices, uint _deliveryFee, address _controller, address payable _customer) public payable {\n\t    // require sent from a restaurant contract\n\n\t    require(RestaurantFactory(Controller(_controller).restaurantFactoryAddress()).restaurantExists(msg.sender),\"attempted to make order from address that is not a restaurant\");\n\t    require(itemNames.length == prices.length, \"invalid matching of items to prices\");\n\t\t\n\t\t// set contract infomation\n\t\tid = _id;\n\t\trestaurant = msg.sender;\n\t\tcustomer = _customer; // this needs changing as is vunrability\n\n\t\tcontroller = _controller;\n\t\t\n\t\tcost = 0;\n\n\t\t// set items\n\t\ttotalItems = 0;\n\t\tfor(uint i = 0; i < itemNames.length; i++){\n\t\t    items[totalItems] = Item(lib.bytes32ToString(itemNames[i]),prices[i]);\n\t\t    cost += prices[i];\n\t\t    totalItems++;\n\t\t}\n\n\t\tdeliveryFee = _deliveryFee;\n\n\t\trequire(msg.value >= cost + deliveryFee, lib.strConcat(\"not enough ether sent to the order, needed: \",lib.uint2str(cost + deliveryFee)));\n\t\t\n\t\tcustomerStatus = uint(customerState.payed);\n\t\triderStatus = uint(riderState.unassigned);\n\t\trestaurantStatus = uint(restaurantState.acceptedOrder);\t\n\t}\n\n\t// function customerPay() public payable{\n\t// \trequire(msg.sender == customer, \"only the customer can pay for this order\");\n\t// \trequire(msg.value >= cost + deliveryFee, lib.strConcat(\"not enough ether sent to the order, needed: \",lib.uint2str(cost + deliveryFee)));\n\t// \tcustomerStatus = uint(customerState.payed);\n\t// }\n\n\tfunction getItem(uint _id) public view returns(bytes32 itemName, uint itemCost){\n\t\t//require(customer == msg.sender || restaurant == msg.sender || rider == msg.sender); // removed as asking for contract address where as should be owner addresses\n\t\treturn (lib.stringToBytes32(items[_id].itemName),items[_id].itemCost);\n\t}  \n\n\tfunction getDeliveryAddress() public view returns(bytes32 _deliveryAddress){\n\t\trequire(customer == msg.sender || restaurant == msg.sender || rider == msg.sender);\n\t\treturn deliveryAddress;\n\t}\n\n\tfunction riderOfferDelivery() public payable{\n\t\trequire(RiderFactory(Controller(controller).riderFactoryAddress()).riderExists(msg.sender));\n\t\trequire(msg.value >= cost);\n\t\t\n\t\triderStatus = uint(riderState.accepted);\n\t\trider = msg.sender;\n\t}\n\n\tfunction setOrderStatus(uint status) public payable{\n\t\trequire(msg.sender == rider || msg.sender == restaurant || msg.sender == customer, \"You dont have permission to see this order, did you get the order address wrong?\");\n\n\t\tif(msg.sender == rider){\n\t\t\trequire(status > riderStatus, \"status cannot be backtracked\");\n\t\t\trequire(status <= 3 && status > 0, \"given Status not valid\");\n\t\t\triderStatus = status;\n\t\t}\n\t\telse if(msg.sender == restaurant){\n\t\t\trequire(status > restaurantStatus, \"status cannot be backtracked\");\n\t\t\trequire(status <= 3 && status > 0, \"given Status not valid\");\n\t\t\trestaurantStatus = status;\n\t\t}\n\t\telse if(msg.sender == customer){\n\t\t\trequire(status > customerStatus, \"status cannot be backtracked\");\n\t\t\trequire(status <= 2 && status > 0, \"given Status not valid\");\n\t\t\tcustomerStatus = status;\n\t\t}\n\t\telse\n\t\t\trevert(\"Error: unauthoriserd address accessing setOrderStatus\");\n\n\t\t// if both rider and restaurant say the food has been collected pay restaurant\n\t\tif(!restaurantPaid && riderStatus == 2 && restaurantStatus == 3){\n\t\t\tRestaurant(restaurant).pay.value(cost)();\n\t\t\trestaurantPaid = true;\n\t\t}\n\n\t\t// if both rider and customer state the customer has the food\n\t\tif(!riderPaid && riderStatus == 3 && customerStatus == 2){\n\t\t\tRider(rider).pay.value(cost+deliveryFee)();\n\t\t\triderPaid = true;\n\t\t}\n\t}\n\n\tfunction getBalance() public view returns(uint){\n\t\treturn address(this).balance;\n\t}\n\n\tfunction getCost() public view returns(uint){\n\t\t//require that this is one of the agents involved\n\t\treturn cost;\n\t}\n}",
  "sourcePath": "/home/george/Documents/University/Dissertation/TryAByte/contracts/Order.sol",
  "compiler": {
    "name": "solc",
    "version": "0.5.0+commit.1d4f565a.Emscripten.clang"
  },
  "schemaVersion": "3.0.2",
  "updatedAt": "2019-04-01T10:18:03.308Z",
  "devdoc": {
    "methods": {}
  },
  "userdoc": {
    "methods": {}
  }
}