{
  "contractName": "Restaurant",
  "abi": [
    {
      "constant": true,
      "inputs": [],
      "name": "name",
      "outputs": [
        {
          "name": "",
          "type": "string"
        }
      ],
      "payable": false,
      "stateMutability": "view",
      "type": "function"
    },
    {
      "constant": true,
      "inputs": [],
      "name": "totalOrders",
      "outputs": [
        {
          "name": "",
          "type": "uint256"
        }
      ],
      "payable": false,
      "stateMutability": "view",
      "type": "function"
    },
    {
      "constant": true,
      "inputs": [],
      "name": "controllerAddress",
      "outputs": [
        {
          "name": "",
          "type": "address"
        }
      ],
      "payable": false,
      "stateMutability": "view",
      "type": "function"
    },
    {
      "constant": true,
      "inputs": [],
      "name": "location",
      "outputs": [
        {
          "name": "",
          "type": "string"
        }
      ],
      "payable": false,
      "stateMutability": "view",
      "type": "function"
    },
    {
      "constant": true,
      "inputs": [],
      "name": "restaurantFactoryAddress",
      "outputs": [
        {
          "name": "",
          "type": "address"
        }
      ],
      "payable": false,
      "stateMutability": "view",
      "type": "function"
    },
    {
      "constant": true,
      "inputs": [],
      "name": "contactNumber",
      "outputs": [
        {
          "name": "",
          "type": "string"
        }
      ],
      "payable": false,
      "stateMutability": "view",
      "type": "function"
    },
    {
      "constant": true,
      "inputs": [],
      "name": "rating",
      "outputs": [
        {
          "name": "",
          "type": "uint256"
        }
      ],
      "payable": false,
      "stateMutability": "view",
      "type": "function"
    },
    {
      "constant": true,
      "inputs": [],
      "name": "owner",
      "outputs": [
        {
          "name": "",
          "type": "address"
        }
      ],
      "payable": false,
      "stateMutability": "view",
      "type": "function"
    },
    {
      "constant": true,
      "inputs": [
        {
          "name": "",
          "type": "uint256"
        }
      ],
      "name": "orders",
      "outputs": [
        {
          "name": "open",
          "type": "bool"
        },
        {
          "name": "orderAddress",
          "type": "address"
        }
      ],
      "payable": false,
      "stateMutability": "view",
      "type": "function"
    },
    {
      "constant": true,
      "inputs": [
        {
          "name": "",
          "type": "uint256"
        }
      ],
      "name": "menu",
      "outputs": [
        {
          "name": "itemName",
          "type": "bytes32"
        },
        {
          "name": "itemCost",
          "type": "uint256"
        }
      ],
      "payable": false,
      "stateMutability": "view",
      "type": "function"
    },
    {
      "inputs": [
        {
          "name": "_controller",
          "type": "address"
        },
        {
          "name": "_owner",
          "type": "address"
        },
        {
          "name": "_id",
          "type": "uint256"
        },
        {
          "name": "_name",
          "type": "string"
        },
        {
          "name": "_address",
          "type": "string"
        },
        {
          "name": "_contactNumber",
          "type": "string"
        }
      ],
      "payable": false,
      "stateMutability": "nonpayable",
      "type": "constructor"
    },
    {
      "constant": true,
      "inputs": [],
      "name": "getMenuLength",
      "outputs": [
        {
          "name": "length",
          "type": "uint256"
        }
      ],
      "payable": false,
      "stateMutability": "view",
      "type": "function"
    },
    {
      "constant": false,
      "inputs": [],
      "name": "clearMenu",
      "outputs": [],
      "payable": false,
      "stateMutability": "nonpayable",
      "type": "function"
    },
    {
      "constant": false,
      "inputs": [
        {
          "name": "itemNames",
          "type": "bytes32[]"
        },
        {
          "name": "prices",
          "type": "uint256[]"
        }
      ],
      "name": "menuAddItems",
      "outputs": [],
      "payable": false,
      "stateMutability": "nonpayable",
      "type": "function"
    },
    {
      "constant": false,
      "inputs": [
        {
          "name": "itemNames",
          "type": "bytes32[]"
        }
      ],
      "name": "menuRemoveItems",
      "outputs": [
        {
          "name": "result",
          "type": "string"
        }
      ],
      "payable": false,
      "stateMutability": "nonpayable",
      "type": "function"
    },
    {
      "constant": true,
      "inputs": [
        {
          "name": "items",
          "type": "bytes32[]"
        }
      ],
      "name": "validOrder",
      "outputs": [
        {
          "name": "isValid",
          "type": "bool"
        }
      ],
      "payable": false,
      "stateMutability": "view",
      "type": "function"
    },
    {
      "constant": false,
      "inputs": [
        {
          "name": "items",
          "type": "bytes32[]"
        }
      ],
      "name": "makeOrder",
      "outputs": [
        {
          "name": "orderAddress",
          "type": "address"
        }
      ],
      "payable": false,
      "stateMutability": "nonpayable",
      "type": "function"
    },
    {
      "constant": true,
      "inputs": [
        {
          "name": "itemId",
          "type": "uint256"
        }
      ],
      "name": "getMenuItem",
      "outputs": [
        {
          "name": "itemname",
          "type": "bytes32"
        },
        {
          "name": "cost",
          "type": "uint256"
        }
      ],
      "payable": false,
      "stateMutability": "view",
      "type": "function"
    },
    {
      "constant": false,
      "inputs": [
        {
          "name": "orderAddress",
          "type": "address"
        }
      ],
      "name": "setStatusPrepairing",
      "outputs": [],
      "payable": false,
      "stateMutability": "nonpayable",
      "type": "function"
    },
    {
      "constant": false,
      "inputs": [
        {
          "name": "orderAddress",
          "type": "address"
        }
      ],
      "name": "handOverCargo",
      "outputs": [],
      "payable": false,
      "stateMutability": "nonpayable",
      "type": "function"
    }
  ],
  "bytecode": "0x60806040523480156200001157600080fd5b5060405162003d0238038062003d02833981018060405260c08110156200003757600080fd5b8101908080519060200190929190805190602001909291908051906020019092919080516401000000008111156200006e57600080fd5b828101905060208101848111156200008557600080fd5b8151856001820283011164010000000082111715620000a357600080fd5b50509291906020018051640100000000811115620000c057600080fd5b82810190506020810184811115620000d757600080fd5b8151856001820283011164010000000082111715620000f557600080fd5b505092919060200180516401000000008111156200011257600080fd5b828101905060208101848111156200012957600080fd5b81518560018202830111640100000000821117156200014757600080fd5b50509291905050508360008190555082600190805190602001906200016e92919062000278565b5081600290805190602001906200018792919062000278565b508060039080519060200190620001a092919062000278565b50600060088190555085600660006101000a81548173ffffffffffffffffffffffffffffffffffffffff021916908373ffffffffffffffffffffffffffffffffffffffff16021790555084600560006101000a81548173ffffffffffffffffffffffffffffffffffffffff021916908373ffffffffffffffffffffffffffffffffffffffff16021790555033600760006101000a81548173ffffffffffffffffffffffffffffffffffffffff021916908373ffffffffffffffffffffffffffffffffffffffff16021790555050505050505062000327565b828054600181600116156101000203166002900490600052602060002090601f016020900481019282601f10620002bb57805160ff1916838001178555620002ec565b82800160010185558215620002ec579182015b82811115620002eb578251825591602001919060010190620002ce565b5b509050620002fb9190620002ff565b5090565b6200032491905b808211156200032057600081600090555060010162000306565b5090565b90565b6139cb80620003376000396000f3fe6080604052600436106200011b576000357c0100000000000000000000000000000000000000000000000000000000900463ffffffff16806306fdde031462000120578063125ba97714620001b6578063141cf16614620001e45780631d83440914620002c85780633e92c46814620002f65780634b24ea4714620003db578063516f279e146200043557806368db65a414620004cb57806372bb5678146200052557806376af633c14620005f257806380f474f614620006885780638da5cb5b14620006b6578063a4e4f2011462000710578063a85c38ef146200072a578063bcd2c4e114620007b4578063c0c1a0de1462000809578063c7c6d87f146200085e578063cffb703c1462000967578063f943eecd14620009c1575b600080fd5b3480156200012d57600080fd5b506200013862000a1b565b6040518080602001828103825283818151815260200191508051906020019080838360005b838110156200017a5780820151818401526020810190506200015d565b50505050905090810190601f168015620001a85780820380516001836020036101000a031916815260200191505b509250505060405180910390f35b348015620001c357600080fd5b50620001ce62000abd565b6040518082815260200191505060405180910390f35b348015620001f157600080fd5b50620002ae600480360360208110156200020a57600080fd5b81019080803590602001906401000000008111156200022857600080fd5b8201836020820111156200023b57600080fd5b803590602001918460208302840111640100000000831117156200025e57600080fd5b919080806020026020016040519081016040528093929190818152602001838360200280828437600081840152601f19601f82011690508083019250505050505050919291929050505062000aca565b604051808215151515815260200191505060405180910390f35b348015620002d557600080fd5b50620002e062000c4c565b6040518082815260200191505060405180910390f35b3480156200030357600080fd5b50620003d9600480360360408110156200031c57600080fd5b81019080803590602001906401000000008111156200033a57600080fd5b8201836020820111156200034d57600080fd5b803590602001918460208302840111640100000000831117156200037057600080fd5b9091929391929390803590602001906401000000008111156200039257600080fd5b820183602082011115620003a557600080fd5b80359060200191846020830284011164010000000083111715620003c857600080fd5b909192939192939050505062000c52565b005b348015620003e857600080fd5b50620003f362000d6e565b604051808273ffffffffffffffffffffffffffffffffffffffff1673ffffffffffffffffffffffffffffffffffffffff16815260200191505060405180910390f35b3480156200044257600080fd5b506200044d62000d94565b6040518080602001828103825283818151815260200191508051906020019080838360005b838110156200048f57808201518184015260208101905062000472565b50505050905090810190601f168015620004bd5780820380516001836020036101000a031916815260200191505b509250505060405180910390f35b348015620004d857600080fd5b50620004e362000e36565b604051808273ffffffffffffffffffffffffffffffffffffffff1673ffffffffffffffffffffffffffffffffffffffff16815260200191505060405180910390f35b3480156200053257600080fd5b50620005b0600480360360208110156200054b57600080fd5b81019080803590602001906401000000008111156200056957600080fd5b8201836020820111156200057c57600080fd5b803590602001918460208302840111640100000000831117156200059f57600080fd5b909192939192939050505062000e5c565b604051808273ffffffffffffffffffffffffffffffffffffffff1673ffffffffffffffffffffffffffffffffffffffff16815260200191505060405180910390f35b348015620005ff57600080fd5b506200060a620014cd565b6040518080602001828103825283818151815260200191508051906020019080838360005b838110156200064c5780820151818401526020810190506200062f565b50505050905090810190601f1680156200067a5780820380516001836020036101000a031916815260200191505b509250505060405180910390f35b3480156200069557600080fd5b50620006a06200156f565b6040518082815260200191505060405180910390f35b348015620006c357600080fd5b50620006ce62001575565b604051808273ffffffffffffffffffffffffffffffffffffffff1673ffffffffffffffffffffffffffffffffffffffff16815260200191505060405180910390f35b3480156200071d57600080fd5b50620007286200159b565b005b3480156200073757600080fd5b5062000767600480360360208110156200075057600080fd5b81019080803590602001909291905050506200160a565b60405180831515151581526020018273ffffffffffffffffffffffffffffffffffffffff1673ffffffffffffffffffffffffffffffffffffffff1681526020019250505060405180910390f35b348015620007c157600080fd5b506200080760048036036020811015620007da57600080fd5b81019080803573ffffffffffffffffffffffffffffffffffffffff1690602001909291905050506200165b565b005b3480156200081657600080fd5b506200085c600480360360208110156200082f57600080fd5b81019080803573ffffffffffffffffffffffffffffffffffffffff16906020019092919050505062001750565b005b3480156200086b57600080fd5b50620008e9600480360360208110156200088457600080fd5b8101908080359060200190640100000000811115620008a257600080fd5b820183602082011115620008b557600080fd5b80359060200191846020830284011164010000000083111715620008d857600080fd5b909192939192939050505062001846565b6040518080602001828103825283818151815260200191508051906020019080838360005b838110156200092b5780820151818401526020810190506200090e565b50505050905090810190601f168015620009595780820380516001836020036101000a031916815260200191505b509250505060405180910390f35b3480156200097457600080fd5b50620009a4600480360360208110156200098d57600080fd5b810190808035906020019092919050505062002307565b604051808381526020018281526020019250505060405180910390f35b348015620009ce57600080fd5b50620009fe60048036036020811015620009e757600080fd5b81019080803590602001909291905050506200233b565b604051808381526020018281526020019250505060405180910390f35b60018054600181600116156101000203166002900480601f01602080910402602001604051908101604052809291908181526020018280546001816001161561010002031660029004801562000ab55780601f1062000a895761010080835404028352916020019162000ab5565b820191906000526020600020905b81548152906001019060200180831162000a9757829003601f168201915b505050505081565b6000600a80549050905090565b600080600090505b825181101562000c41577fffffffffffffffffffffffffffffffffffffffffffffffffffffffffffffffff62000c2173__lib___________________________________639201de55868581518110151562000b2a57fe5b906020019060200201516040518263ffffffff167c01000000000000000000000000000000000000000000000000000000000281526004018082815260200191505060006040518083038186803b15801562000b8557600080fd5b505af415801562000b9a573d6000803e3d6000fd5b505050506040513d6000823e3d601f19601f82011682018060405250602081101562000bc557600080fd5b81019080805164010000000081111562000bde57600080fd5b8281019050602081018481111562000bf557600080fd5b815185600182028301116401000000008211171562000c1357600080fd5b50509291905050506200238b565b141562000c3357600091505062000c47565b808060010191505062000ad2565b50600190505b919050565b60085481565b600560009054906101000a900473ffffffffffffffffffffffffffffffffffffffff1673ffffffffffffffffffffffffffffffffffffffff163373ffffffffffffffffffffffffffffffffffffffff1614151562000caf57600080fd5b818190508484905014151562000cc457600080fd5b60008090505b8484905081101562000d6757600a6040805190810160405280878785818110151562000cf257fe5b905060200201358152602001858585818110151562000d0d57fe5b90506020020135815250908060018154018082558091505090600182039060005260206000209060020201600090919290919091506000820151816000015560208201518160010155505050808060010191505062000cca565b5050505050565b600660009054906101000a900473ffffffffffffffffffffffffffffffffffffffff1681565b60028054600181600116156101000203166002900480601f01602080910402602001604051908101604052809291908181526020018280546001816001161561010002031660029004801562000e2e5780601f1062000e025761010080835404028352916020019162000e2e565b820191906000526020600020905b81548152906001019060200180831162000e1057829003601f168201915b505050505081565b600760009054906101000a900473ffffffffffffffffffffffffffffffffffffffff1681565b6000600660009054906101000a900473ffffffffffffffffffffffffffffffffffffffff1673ffffffffffffffffffffffffffffffffffffffff16636455e5ac6040518163ffffffff167c010000000000000000000000000000000000000000000000000000000002815260040160206040518083038186803b15801562000ee357600080fd5b505afa15801562000ef8573d6000803e3d6000fd5b505050506040513d602081101562000f0f57600080fd5b810190808051906020019092919050505073ffffffffffffffffffffffffffffffffffffffff1663689b0098336040518263ffffffff167c0100000000000000000000000000000000000000000000000000000000028152600401808273ffffffffffffffffffffffffffffffffffffffff1673ffffffffffffffffffffffffffffffffffffffff16815260200191505060206040518083038186803b15801562000fb957600080fd5b505afa15801562000fce573d6000803e3d6000fd5b505050506040513d602081101562000fe557600080fd5b810190808051906020019092919050505015156200100257600080fd5b606083839050604051908082528060200260200182016040528015620010375781602001602082028038833980820191505090505b50905060008090505b848490508110156200126357606073__lib___________________________________639201de5587878581811015156200107757fe5b905060200201356040518263ffffffff167c01000000000000000000000000000000000000000000000000000000000281526004018082815260200191505060006040518083038186803b158015620010cf57600080fd5b505af4158015620010e4573d6000803e3d6000fd5b505050506040513d6000823e3d601f19601f8201168201806040525060208110156200110f57600080fd5b8101908080516401000000008111156200112857600080fd5b828101905060208101848111156200113f57600080fd5b81518560018202830111640100000000821117156200115d57600080fd5b50509291905050509050600062001174826200238b565b90507fffffffffffffffffffffffffffffffffffffffffffffffffffffffffffffffff81141515620011e557600a81815481101515620011b057fe5b9060005260206000209060020201600101548484815181101515620011d157fe5b906020019060200201818152505062001253565b6040517f08c379a000000000000000000000000000000000000000000000000000000000815260040180806020018281038252600d8152602001807f496e76616c6964204974656d730000000000000000000000000000000000000081525060200191505060405180910390fd5b5050808060010191505062001040565b506000600854600760009054906101000a900473ffffffffffffffffffffffffffffffffffffffff16868685600660009054906101000a900473ffffffffffffffffffffffffffffffffffffffff16620012bc62002549565b808781526020018673ffffffffffffffffffffffffffffffffffffffff1673ffffffffffffffffffffffffffffffffffffffff16815260200180602001806020018473ffffffffffffffffffffffffffffffffffffffff1673ffffffffffffffffffffffffffffffffffffffff1681526020018381038352878782818152602001925060200280828437600081840152601f19601f820116905080830192505050838103825285818151815260200191508051906020019060200280838360005b838110156200139a5780820151818401526020810190506200137d565b5050505090500198505050505050505050604051809103906000f080158015620013c8573d6000803e3d6000fd5b50905060408051908101604052806001151581526020018273ffffffffffffffffffffffffffffffffffffffff1681525060096000600854815260200190815260200160002060008201518160000160006101000a81548160ff02191690831515021790555060208201518160000160016101000a81548173ffffffffffffffffffffffffffffffffffffffff021916908373ffffffffffffffffffffffffffffffffffffffff16021790555090505060086000815480929190600101919050555060096000600854815260200190815260200160002060000160019054906101000a900473ffffffffffffffffffffffffffffffffffffffff169250505092915050565b60038054600181600116156101000203166002900480601f016020809104026020016040519081016040528092919081815260200182805460018160011615610100020316600290048015620015675780601f106200153b5761010080835404028352916020019162001567565b820191906000526020600020905b8154815290600101906020018083116200154957829003601f168201915b505050505081565b60045481565b600560009054906101000a900473ffffffffffffffffffffffffffffffffffffffff1681565b600560009054906101000a900473ffffffffffffffffffffffffffffffffffffffff1673ffffffffffffffffffffffffffffffffffffffff163373ffffffffffffffffffffffffffffffffffffffff16141515620015f857600080fd5b600a60006200160891906200255a565b565b60096020528060005260406000206000915090508060000160009054906101000a900460ff16908060000160019054906101000a900473ffffffffffffffffffffffffffffffffffffffff16905082565b600560009054906101000a900473ffffffffffffffffffffffffffffffffffffffff1673ffffffffffffffffffffffffffffffffffffffff163373ffffffffffffffffffffffffffffffffffffffff16141515620016b857600080fd5b8073ffffffffffffffffffffffffffffffffffffffff1663e9132c42600280811115620016e157fe5b6040518263ffffffff167c010000000000000000000000000000000000000000000000000000000002815260040180828152602001915050600060405180830381600087803b1580156200173457600080fd5b505af115801562001749573d6000803e3d6000fd5b5050505050565b600560009054906101000a900473ffffffffffffffffffffffffffffffffffffffff1673ffffffffffffffffffffffffffffffffffffffff163373ffffffffffffffffffffffffffffffffffffffff16141515620017ad57600080fd5b8073ffffffffffffffffffffffffffffffffffffffff1663e9132c4260016002811115620017d757fe5b6040518263ffffffff167c010000000000000000000000000000000000000000000000000000000002815260040180828152602001915050600060405180830381600087803b1580156200182a57600080fd5b505af11580156200183f573d6000803e3d6000fd5b5050505050565b6060600560009054906101000a900473ffffffffffffffffffffffffffffffffffffffff1673ffffffffffffffffffffffffffffffffffffffff163373ffffffffffffffffffffffffffffffffffffffff16141515620018a557600080fd5b600083839050111515620018b857600080fd5b6020604051908101604052806000815250905060008090505b83839050811015620022fd5773__lib___________________________________63ff74927b8373__lib___________________________________63ff74927b73__lib___________________________________639201de558a8a8981811015156200193b57fe5b905060200201356040518263ffffffff167c01000000000000000000000000000000000000000000000000000000000281526004018082815260200191505060006040518083038186803b1580156200199357600080fd5b505af4158015620019a8573d6000803e3d6000fd5b505050506040513d6000823e3d601f19601f820116820180604052506020811015620019d357600080fd5b810190808051640100000000811115620019ec57600080fd5b8281019050602081018481111562001a0357600080fd5b815185600182028301116401000000008211171562001a2157600080fd5b50509291905050506040518263ffffffff167c0100000000000000000000000000000000000000000000000000000000028152600401808060200180602001838103835284818151815260200191508051906020019080838360005b8381101562001a9a57808201518184015260208101905062001a7d565b50505050905090810190601f16801562001ac85780820380516001836020036101000a031916815260200191505b50838103825260018152602001807f3a00000000000000000000000000000000000000000000000000000000000000815250602001935050505060006040518083038186803b15801562001b1b57600080fd5b505af415801562001b30573d6000803e3d6000fd5b505050506040513d6000823e3d601f19601f82011682018060405250602081101562001b5b57600080fd5b81019080805164010000000081111562001b7457600080fd5b8281019050602081018481111562001b8b57600080fd5b815185600182028301116401000000008211171562001ba957600080fd5b50509291905050506040518363ffffffff167c0100000000000000000000000000000000000000000000000000000000028152600401808060200180602001838103835285818151815260200191508051906020019080838360005b8381101562001c2257808201518184015260208101905062001c05565b50505050905090810190601f16801562001c505780820380516001836020036101000a031916815260200191505b50838103825284818151815260200191508051906020019080838360005b8381101562001c8b57808201518184015260208101905062001c6e565b50505050905090810190601f16801562001cb95780820380516001836020036101000a031916815260200191505b5094505050505060006040518083038186803b15801562001cd957600080fd5b505af415801562001cee573d6000803e3d6000fd5b505050506040513d6000823e3d601f19601f82011682018060405250602081101562001d1957600080fd5b81019080805164010000000081111562001d3257600080fd5b8281019050602081018481111562001d4957600080fd5b815185600182028301116401000000008211171562001d6757600080fd5b50509291905050509150600062001e9473__lib___________________________________639201de55878786818110151562001da057fe5b905060200201356040518263ffffffff167c01000000000000000000000000000000000000000000000000000000000281526004018082815260200191505060006040518083038186803b15801562001df857600080fd5b505af415801562001e0d573d6000803e3d6000fd5b505050506040513d6000823e3d601f19601f82011682018060405250602081101562001e3857600080fd5b81019080805164010000000081111562001e5157600080fd5b8281019050602081018481111562001e6857600080fd5b815185600182028301116401000000008211171562001e8657600080fd5b50509291905050506200238b565b90507fffffffffffffffffffffffffffffffffffffffffffffffffffffffffffffffff811415156200214857600a8181548110151562001ed057fe5b906000526020600020906002020160008082016000905560018201600090555050600a6001600a805490500381548110151562001f0957fe5b9060005260206000209060020201600a8281548110151562001f2757fe5b90600052602060002090600202016000820154816000015560018201548160010155905050600a6001600a805490500381548110151562001f6457fe5b90600052602060002090600202016000808201600090556001820160009055505073__lib___________________________________63ff74927b846040518263ffffffff167c0100000000000000000000000000000000000000000000000000000000028152600401808060200180602001838103835284818151815260200191508051906020019080838360005b838110156200201157808201518184015260208101905062001ff4565b50505050905090810190601f1680156200203f5780820380516001836020036101000a031916815260200191505b50838103825260148152602001807f2052656d6f7665642053756365737366756c6c79000000000000000000000000815250602001935050505060006040518083038186803b1580156200209257600080fd5b505af4158015620020a7573d6000803e3d6000fd5b505050506040513d6000823e3d601f19601f820116820180604052506020811015620020d257600080fd5b810190808051640100000000811115620020eb57600080fd5b828101905060208101848111156200210257600080fd5b81518560018202830111640100000000821117156200212057600080fd5b50509291905050509250600a80548091906001900362002141919062002580565b50620022ee565b73__lib___________________________________63ff74927b846040518263ffffffff167c0100000000000000000000000000000000000000000000000000000000028152600401808060200180602001838103835284818151815260200191508051906020019080838360005b83811015620021d4578082015181840152602081019050620021b7565b50505050905090810190601f168015620022025780820380516001836020036101000a031916815260200191505b508381038252601e8152602001807f204572726f722c20636f756c64206e6f742066696e6420696e206d656e750000815250602001935050505060006040518083038186803b1580156200225557600080fd5b505af41580156200226a573d6000803e3d6000fd5b505050506040513d6000823e3d601f19601f8201168201806040525060208110156200229557600080fd5b810190808051640100000000811115620022ae57600080fd5b82810190506020810184811115620022c557600080fd5b8151856001820283011164010000000082111715620022e357600080fd5b505092919050505092505b508080600101915050620018d1565b5080905092915050565b600a818154811015156200231757fe5b90600052602060002090600202016000915090508060000154908060010154905082565b600080600a838154811015156200234e57fe5b906000526020600020906002020160000154600a848154811015156200237057fe5b90600052602060002090600202016001015491509150915091565b600080600090505b600a80549050811215620024ed57620024cf73__lib___________________________________639201de55600a84815481101515620023cf57fe5b9060005260206000209060020201600001546040518263ffffffff167c01000000000000000000000000000000000000000000000000000000000281526004018082815260200191505060006040518083038186803b1580156200243257600080fd5b505af415801562002447573d6000803e3d6000fd5b505050506040513d6000823e3d601f19601f8201168201806040525060208110156200247257600080fd5b8101908080516401000000008111156200248b57600080fd5b82810190506020810184811115620024a257600080fd5b8151856001820283011164010000000082111715620024c057600080fd5b50509291905050508462002517565b15620024df578091505062002512565b808060010191505062002393565b507fffffffffffffffffffffffffffffffffffffffffffffffffffffffffffffffff90505b919050565b6000815183511415156200252f576000905062002543565b818051906020012083805190602001201490505b92915050565b6040516113b880620025e883390190565b50805460008255600202906000526020600020908101906200257d9190620025b5565b50565b815481835581811115620025b057600202816002028360005260206000209182019101620025af9190620025b5565b5b505050565b620025e491905b80821115620025e057600080820160009055600182016000905550600201620025bc565b5090565b9056fe60806040523480156200001157600080fd5b50604051620013b8380380620013b8833981018060405260a08110156200003757600080fd5b81019080805190602001909291908051906020019092919080516401000000008111156200006457600080fd5b828101905060208101848111156200007b57600080fd5b81518560208202830111640100000000821117156200009957600080fd5b50509291906020018051640100000000811115620000b657600080fd5b82810190506020810184811115620000cd57600080fd5b8151856020820283011164010000000082111715620000eb57600080fd5b5050929190602001805190602001909291905050508373ffffffffffffffffffffffffffffffffffffffff166379a4fa27336040518263ffffffff167c0100000000000000000000000000000000000000000000000000000000028152600401808273ffffffffffffffffffffffffffffffffffffffff1673ffffffffffffffffffffffffffffffffffffffff16815260200191505060206040518083038186803b1580156200019a57600080fd5b505afa158015620001af573d6000803e3d6000fd5b505050506040513d6020811015620001c657600080fd5b81019080805190602001909291905050501515620001e357600080fd5b81518351141515620001f457600080fd5b8460038190555033600560006101000a81548173ffffffffffffffffffffffffffffffffffffffff021916908373ffffffffffffffffffffffffffffffffffffffff16021790555032600760006101000a81548173ffffffffffffffffffffffffffffffffffffffff021916908373ffffffffffffffffffffffffffffffffffffffff16021790555083600460006101000a81548173ffffffffffffffffffffffffffffffffffffffff021916908373ffffffffffffffffffffffffffffffffffffffff16021790555080600860006101000a81548173ffffffffffffffffffffffffffffffffffffffff021916908373ffffffffffffffffffffffffffffffffffffffff1602179055506000600a8190555060008090505b8351811015620004be57604080519081016040528073__lib___________________________________639201de5587858151811015156200034b57fe5b906020019060200201516040518263ffffffff167c01000000000000000000000000000000000000000000000000000000000281526004018082815260200191505060006040518083038186803b158015620003a657600080fd5b505af4158015620003bb573d6000803e3d6000fd5b505050506040513d6000823e3d601f19601f820116820180604052506020811015620003e657600080fd5b810190808051640100000000811115620003ff57600080fd5b828101905060208101848111156200041657600080fd5b81518560018202830111640100000000821117156200043457600080fd5b5050929190505050815260200184838151811015156200045057fe5b90602001906020020151815250600b6000600a54815260200190815260200160002060008201518160000190805190602001906200049092919062000506565b5060208201518160010155905050600a6000815480929190600101919050555080806001019150506200030d565b5060006003811115620004cd57fe5b60008190555060006001811115620004e157fe5b60028190555060006002811115620004f557fe5b6001819055505050505050620005b5565b828054600181600116156101000203166002900490600052602060002090601f016020900481019282601f106200054957805160ff19168380011785556200057a565b828001600101855582156200057a579182015b82811115620005795782518255916020019190600101906200055c565b5b5090506200058991906200058d565b5090565b620005b291905b80821115620005ae57600081600090555060010162000594565b5090565b90565b610df380620005c56000396000f3fe6080604052600436106100ba576000357c0100000000000000000000000000000000000000000000000000000000900463ffffffff1680632799276d146100bf5780633129e773146100ea57806332940816146101405780633733d9f51461016b5780633e3ca4d31461019657806368db65a4146101c1578063a14b7e6814610218578063af640d0f14610243578063bfb231d21461026e578063c7529f0c14610329578063e9132c4214610340578063ed1680581461037b575b600080fd5b3480156100cb57600080fd5b506100d46103d2565b6040518082815260200191505060405180910390f35b3480156100f657600080fd5b506101236004803603602081101561010d57600080fd5b81019080803590602001909291905050506103d8565b604051808381526020018281526020019250505060405180910390f35b34801561014c57600080fd5b50610155610644565b6040518082815260200191505060405180910390f35b34801561017757600080fd5b5061018061064a565b6040518082815260200191505060405180910390f35b3480156101a257600080fd5b506101ab610760565b6040518082815260200191505060405180910390f35b3480156101cd57600080fd5b506101d6610766565b604051808273ffffffffffffffffffffffffffffffffffffffff1673ffffffffffffffffffffffffffffffffffffffff16815260200191505060405180910390f35b34801561022457600080fd5b5061022d61078c565b6040518082815260200191505060405180910390f35b34801561024f57600080fd5b50610258610792565b6040518082815260200191505060405180910390f35b34801561027a57600080fd5b506102a76004803603602081101561029157600080fd5b8101908080359060200190929190505050610798565b6040518080602001838152602001828103825284818151815260200191508051906020019080838360005b838110156102ed5780820151818401526020810190506102d2565b50505050905090810190601f16801561031a5780820380516001836020036101000a031916815260200191505b50935050505060405180910390f35b34801561033557600080fd5b5061033e610854565b005b34801561034c57600080fd5b506103796004803603602081101561036357600080fd5b8101908080359060200190929190505050610a47565b005b34801561038757600080fd5b50610390610da1565b604051808273ffffffffffffffffffffffffffffffffffffffff1673ffffffffffffffffffffffffffffffffffffffff16815260200191505060405180910390f35b600a5481565b6000803373ffffffffffffffffffffffffffffffffffffffff16600760009054906101000a900473ffffffffffffffffffffffffffffffffffffffff1673ffffffffffffffffffffffffffffffffffffffff16148061048457503373ffffffffffffffffffffffffffffffffffffffff16600560009054906101000a900473ffffffffffffffffffffffffffffffffffffffff1673ffffffffffffffffffffffffffffffffffffffff16145b806104dc57503373ffffffffffffffffffffffffffffffffffffffff16600660009054906101000a900473ffffffffffffffffffffffffffffffffffffffff1673ffffffffffffffffffffffffffffffffffffffff16145b15156104e757600080fd5b73__lib___________________________________63cfb51928600b60008681526020019081526020016000206000016040518263ffffffff167c010000000000000000000000000000000000000000000000000000000002815260040180806020018281038252838181546001816001161561010002031660029004815260200191508054600181600116156101000203166002900480156105cb5780601f106105a0576101008083540402835291602001916105cb565b820191906000526020600020905b8154815290600101906020018083116105ae57829003601f168201915b50509250505060206040518083038186803b1580156105e957600080fd5b505af41580156105fd573d6000803e3d6000fd5b505050506040513d602081101561061357600080fd5b8101908080519060200190929190505050600b60008581526020019081526020016000206001015491509150915091565b60015481565b60003373ffffffffffffffffffffffffffffffffffffffff16600760009054906101000a900473ffffffffffffffffffffffffffffffffffffffff1673ffffffffffffffffffffffffffffffffffffffff1614806106f557503373ffffffffffffffffffffffffffffffffffffffff16600560009054906101000a900473ffffffffffffffffffffffffffffffffffffffff1673ffffffffffffffffffffffffffffffffffffffff16145b8061074d57503373ffffffffffffffffffffffffffffffffffffffff16600660009054906101000a900473ffffffffffffffffffffffffffffffffffffffff1673ffffffffffffffffffffffffffffffffffffffff16145b151561075857600080fd5b600954905090565b60005481565b600460009054906101000a900473ffffffffffffffffffffffffffffffffffffffff1681565b60025481565b60035481565b600b602052806000526040600020600091509050806000018054600181600116156101000203166002900480601f0160208091040260200160405190810160405280929190818152602001828054600181600116156101000203166002900480156108445780601f1061081957610100808354040283529160200191610844565b820191906000526020600020905b81548152906001019060200180831161082757829003601f168201915b5050505050908060010154905082565b600860009054906101000a900473ffffffffffffffffffffffffffffffffffffffff1673ffffffffffffffffffffffffffffffffffffffff1663c9286d576040518163ffffffff167c010000000000000000000000000000000000000000000000000000000002815260040160206040518083038186803b1580156108d857600080fd5b505afa1580156108ec573d6000803e3d6000fd5b505050506040513d602081101561090257600080fd5b810190808051906020019092919050505073ffffffffffffffffffffffffffffffffffffffff166313952670336040518263ffffffff167c0100000000000000000000000000000000000000000000000000000000028152600401808273ffffffffffffffffffffffffffffffffffffffff1673ffffffffffffffffffffffffffffffffffffffff16815260200191505060206040518083038186803b1580156109ab57600080fd5b505afa1580156109bf573d6000803e3d6000fd5b505050506040513d60208110156109d557600080fd5b810190808051906020019092919050505015156109f157600080fd5b600160038111156109fe57fe5b60008190555033600660006101000a81548173ffffffffffffffffffffffffffffffffffffffff021916908373ffffffffffffffffffffffffffffffffffffffff160217905550565b600660009054906101000a900473ffffffffffffffffffffffffffffffffffffffff1673ffffffffffffffffffffffffffffffffffffffff163373ffffffffffffffffffffffffffffffffffffffff161480610af05750600560009054906101000a900473ffffffffffffffffffffffffffffffffffffffff1673ffffffffffffffffffffffffffffffffffffffff163373ffffffffffffffffffffffffffffffffffffffff16145b80610b485750600760009054906101000a900473ffffffffffffffffffffffffffffffffffffffff1673ffffffffffffffffffffffffffffffffffffffff163373ffffffffffffffffffffffffffffffffffffffff16145b1515610be2576040517f08c379a000000000000000000000000000000000000000000000000000000000815260040180806020018281038252602a8152602001807f596f7520646f6e742068617665207065726d697373696f6e20746f207365652081526020017f74686973206f726465720000000000000000000000000000000000000000000081525060400191505060405180910390fd5b600660009054906101000a900473ffffffffffffffffffffffffffffffffffffffff1673ffffffffffffffffffffffffffffffffffffffff163373ffffffffffffffffffffffffffffffffffffffff161415610c445780600081905550610d9e565b600560009054906101000a900473ffffffffffffffffffffffffffffffffffffffff1673ffffffffffffffffffffffffffffffffffffffff163373ffffffffffffffffffffffffffffffffffffffff161415610ca65780600181905550610d9d565b600760009054906101000a900473ffffffffffffffffffffffffffffffffffffffff1673ffffffffffffffffffffffffffffffffffffffff163373ffffffffffffffffffffffffffffffffffffffff161415610d085780600281905550610d9c565b6040517f08c379a00000000000000000000000000000000000000000000000000000000081526004018080602001828103825260358152602001807f4572726f723a20756e617574686f72697365726420616464726573732061636381526020017f657373696e67207365744f72646572537461747573000000000000000000000081525060400191505060405180910390fd5b5b5b50565b600560009054906101000a900473ffffffffffffffffffffffffffffffffffffffff168156fea165627a7a72305820c346dd5d6dd5a1c1942460e6a301cc3ed8f8bfb8793e205f84f498532fe0dd0e0029a165627a7a7230582068f5cca2ffcc6a250d3c45471a07e830222b50a95b674e91001de581ce730d0b0029",
  "source": "pragma solidity ^0.5.0;\n\n import \"./lib.sol\";\n import \"./Order.sol\";\n import \"./RestaurantFactory.sol\";\n import \"./CustomerFactory.sol\";\n import \"./Controller.sol\";\n\ncontract Restaurant {\n\n    using lib for bytes32;\n\n\tuint id;\n\tstring public name;\n\tstring public location;\n\tstring public contactNumber;\n\tuint public rating;\n\n\taddress public owner;\n    address public controllerAddress;\n\taddress public restaurantFactoryAddress;\n\n\n    struct order{bool open; address orderAddress;}\n\tuint public totalOrders;\n\tmapping(uint => order) public orders;\n\t\n\tstruct Item{\n\t\tbytes32 itemName;\n\t\tuint itemCost; // in wei (10^-18 Eth)\n\t}\n\t\n\tItem[] public menu; // should probably change this to a mapping\n\n    enum restaurantState{acceptedOrder, preparingCargo, HandedOver}\n\t\n\n\tconstructor(address _controller, address _owner, uint _id, string memory _name,string memory _address,string memory _contactNumber) public {\n\t\tid = _id;\n\t\tname = _name;\n\t\tlocation = _address;\n\t\tcontactNumber = _contactNumber;\n\t\ttotalOrders = 0;\n\n        controllerAddress = _controller;\n\t\towner = _owner;\n\t\trestaurantFactoryAddress = msg.sender;\n\t}\n\n    function getMenuLength() external view returns(uint length){\n        return menu.length;\n    }\n\n    function clearMenu() external {\n        require(msg.sender == owner);\n        delete menu;\n    }\n    \n    function menuAddItems(bytes32[] calldata itemNames, uint[] calldata prices) external {\n        require(msg.sender == owner);\n        require(itemNames.length == prices.length);\n        \n        // should add checks that an item isn't added twice\n        for(uint i = 0; i<itemNames.length;i++){\n            menu.push(Item(itemNames[i], prices[i]));\n        }\n    }\n\n    \n    // could add ids to menu items then remove by id to lower gas cost\n    function menuRemoveItems(bytes32[] calldata itemNames) external returns(string memory result){\n        require(msg.sender == owner);\n        require(itemNames.length>0);\n        result = \"\";\n        for(uint i = 0; i<itemNames.length;i++){\n            result = lib.strConcat(result,lib.strConcat(lib.bytes32ToString(itemNames[i]),\":\"));\n            int index = menuSearch(lib.bytes32ToString(itemNames[i]));\n            if(index!=-1){\n                delete menu[uint(index)];\n                menu[uint(index)] = menu[menu.length-1];\n                delete menu[menu.length-1];\n                result = lib.strConcat(result,\" Removed Sucessfully\");\n                menu.length--;\n            }\n            else{\n                result = lib.strConcat(result, \" Error, could not find in menu\");\n            }\n        }\n        \n        return result;\n    }\n    \n    function menuSearch(string memory query) private view returns(int index){\n        for(int i = 0; i<int(menu.length);i++){\n            if(lib.compareStrings(lib.bytes32ToString(menu[uint(i)].itemName),query)){\n                return i;\n            }\n        }\n        return -1;\n    }\n\n    function validOrder(bytes32[] memory items) public view returns (bool isValid){\n        for(uint i = 0; i < items.length; i++){\n            if(menuSearch(lib.bytes32ToString(items[i])) == -1){\n                return false;\n            }\n        }\n        return true;\n    }\n    \n    function makeOrder(bytes32[] calldata items) external returns (address orderAddress) {\n        //require this comes from a customer smart contract\n        require(CustomerFactory(Controller(controllerAddress).customerFactoryAddress()).customerExists(msg.sender));\n        \n\n        uint[] memory prices = new uint[](items.length);\n        for(uint i = 0; i < items.length; i++)\n        {\n            string memory a = lib.bytes32ToString(items[i]); \n            int index = menuSearch(a); \n            \n            if (index != -1){\n                prices[i] = menu[uint(index)].itemCost;\n            }\n            else{\n                revert(\"Invalid Items\");\n            }\n        }\n        \n\n        \n\t\tOrder newOrder = new Order(totalOrders,restaurantFactoryAddress,items,prices,controllerAddress);\n\t\torders[totalOrders] = order(true,address(newOrder));\n        totalOrders ++;\n\t\treturn orders[totalOrders].orderAddress;       \n    }\n    \n    function getMenuItem(uint itemId)public view returns(bytes32 itemname, uint cost){\n        return (menu[itemId].itemName,menu[itemId].itemCost);\n    }\n\n    // toDo, could pass in orderID instead reduce gas\n    function setStatusPrepairing(address orderAddress) public { \n        require(msg.sender == owner);\n        Order(orderAddress).setOrderStatus(uint(restaurantState.preparingCargo));\n    }    \n\n    function handOverCargo(address orderAddress) public {\n        require(msg.sender == owner);\n        Order(orderAddress).setOrderStatus(uint(restaurantState.HandedOver));\n    }\n}",
  "sourcePath": "/home/george/Documents/University/Dissertation/TryAByte/contracts/Restaurant.sol",
  "compiler": {
    "name": "solc",
    "version": "0.5.0+commit.1d4f565a.Emscripten.clang"
  },
  "schemaVersion": "3.0.2",
  "updatedAt": "2019-03-11T13:02:55.855Z",
  "devdoc": {
    "methods": {}
  },
  "userdoc": {
    "methods": {}
  }
}