{
  "contractName": "Restaurant",
  "abi": [
    {
      "constant": true,
      "inputs": [],
      "name": "name",
      "outputs": [
        {
          "name": "",
          "type": "bytes32"
        }
      ],
      "payable": false,
      "stateMutability": "view",
      "type": "function"
    },
    {
      "constant": true,
      "inputs": [],
      "name": "totalOrders",
      "outputs": [
        {
          "name": "",
          "type": "uint256"
        }
      ],
      "payable": false,
      "stateMutability": "view",
      "type": "function"
    },
    {
      "constant": true,
      "inputs": [],
      "name": "controllerAddress",
      "outputs": [
        {
          "name": "",
          "type": "address"
        }
      ],
      "payable": false,
      "stateMutability": "view",
      "type": "function"
    },
    {
      "constant": true,
      "inputs": [],
      "name": "latitude",
      "outputs": [
        {
          "name": "",
          "type": "uint256"
        }
      ],
      "payable": false,
      "stateMutability": "view",
      "type": "function"
    },
    {
      "constant": true,
      "inputs": [],
      "name": "location",
      "outputs": [
        {
          "name": "",
          "type": "bytes"
        }
      ],
      "payable": false,
      "stateMutability": "view",
      "type": "function"
    },
    {
      "constant": true,
      "inputs": [],
      "name": "longitude",
      "outputs": [
        {
          "name": "",
          "type": "uint256"
        }
      ],
      "payable": false,
      "stateMutability": "view",
      "type": "function"
    },
    {
      "constant": true,
      "inputs": [],
      "name": "restaurantFactoryAddress",
      "outputs": [
        {
          "name": "",
          "type": "address"
        }
      ],
      "payable": false,
      "stateMutability": "view",
      "type": "function"
    },
    {
      "constant": true,
      "inputs": [],
      "name": "logoURI",
      "outputs": [
        {
          "name": "",
          "type": "bytes"
        }
      ],
      "payable": false,
      "stateMutability": "view",
      "type": "function"
    },
    {
      "constant": true,
      "inputs": [],
      "name": "contactNumber",
      "outputs": [
        {
          "name": "",
          "type": "bytes32"
        }
      ],
      "payable": false,
      "stateMutability": "view",
      "type": "function"
    },
    {
      "constant": true,
      "inputs": [],
      "name": "owner",
      "outputs": [
        {
          "name": "",
          "type": "address"
        }
      ],
      "payable": false,
      "stateMutability": "view",
      "type": "function"
    },
    {
      "constant": true,
      "inputs": [
        {
          "name": "",
          "type": "uint256"
        }
      ],
      "name": "orders",
      "outputs": [
        {
          "name": "open",
          "type": "bool"
        },
        {
          "name": "orderAddress",
          "type": "address"
        }
      ],
      "payable": false,
      "stateMutability": "view",
      "type": "function"
    },
    {
      "constant": true,
      "inputs": [],
      "name": "id",
      "outputs": [
        {
          "name": "",
          "type": "uint256"
        }
      ],
      "payable": false,
      "stateMutability": "view",
      "type": "function"
    },
    {
      "constant": true,
      "inputs": [],
      "name": "logoHash",
      "outputs": [
        {
          "name": "",
          "type": "bytes32"
        }
      ],
      "payable": false,
      "stateMutability": "view",
      "type": "function"
    },
    {
      "inputs": [
        {
          "name": "_controller",
          "type": "address"
        },
        {
          "name": "_owner",
          "type": "address"
        },
        {
          "name": "_id",
          "type": "uint256"
        },
        {
          "name": "_name",
          "type": "bytes32"
        },
        {
          "name": "_address",
          "type": "bytes"
        },
        {
          "name": "_latitude",
          "type": "uint256"
        },
        {
          "name": "_longitude",
          "type": "uint256"
        },
        {
          "name": "_contactNumber",
          "type": "bytes32"
        }
      ],
      "payable": false,
      "stateMutability": "nonpayable",
      "type": "constructor"
    },
    {
      "payable": true,
      "stateMutability": "payable",
      "type": "fallback"
    },
    {
      "anonymous": false,
      "inputs": [
        {
          "indexed": false,
          "name": "orderAddress",
          "type": "address"
        }
      ],
      "name": "OrderMadeEvent",
      "type": "event"
    },
    {
      "anonymous": false,
      "inputs": [],
      "name": "MenuUpdated",
      "type": "event"
    },
    {
      "constant": true,
      "inputs": [],
      "name": "getMenuAddress",
      "outputs": [
        {
          "name": "",
          "type": "address"
        }
      ],
      "payable": false,
      "stateMutability": "view",
      "type": "function"
    },
    {
      "constant": false,
      "inputs": [
        {
          "name": "imageURI",
          "type": "bytes"
        },
        {
          "name": "imageHash",
          "type": "bytes32"
        }
      ],
      "name": "updateLogo",
      "outputs": [],
      "payable": false,
      "stateMutability": "nonpayable",
      "type": "function"
    },
    {
      "constant": false,
      "inputs": [
        {
          "name": "orderAddress",
          "type": "address"
        },
        {
          "name": "status",
          "type": "uint256"
        }
      ],
      "name": "setStatus",
      "outputs": [],
      "payable": false,
      "stateMutability": "nonpayable",
      "type": "function"
    },
    {
      "constant": false,
      "inputs": [],
      "name": "pay",
      "outputs": [],
      "payable": true,
      "stateMutability": "payable",
      "type": "function"
    },
    {
      "constant": false,
      "inputs": [
        {
          "name": "_name",
          "type": "bytes32"
        },
        {
          "name": "_number",
          "type": "bytes32"
        },
        {
          "name": "_owner",
          "type": "address"
        },
        {
          "name": "_location",
          "type": "bytes"
        },
        {
          "name": "_latitude",
          "type": "uint256"
        },
        {
          "name": "_longitude",
          "type": "uint256"
        },
        {
          "name": "_logoURI",
          "type": "bytes"
        },
        {
          "name": "_logoHash",
          "type": "bytes32"
        }
      ],
      "name": "updateRestaurant",
      "outputs": [],
      "payable": false,
      "stateMutability": "nonpayable",
      "type": "function"
    },
    {
      "constant": false,
      "inputs": [
        {
          "name": "_name",
          "type": "bytes32"
        }
      ],
      "name": "setName",
      "outputs": [],
      "payable": false,
      "stateMutability": "nonpayable",
      "type": "function"
    },
    {
      "constant": false,
      "inputs": [
        {
          "name": "_number",
          "type": "bytes32"
        }
      ],
      "name": "setNumber",
      "outputs": [],
      "payable": false,
      "stateMutability": "nonpayable",
      "type": "function"
    },
    {
      "constant": false,
      "inputs": [
        {
          "name": "_owner",
          "type": "address"
        }
      ],
      "name": "setOwner",
      "outputs": [],
      "payable": false,
      "stateMutability": "nonpayable",
      "type": "function"
    },
    {
      "constant": false,
      "inputs": [
        {
          "name": "_location",
          "type": "bytes"
        },
        {
          "name": "_latitude",
          "type": "uint256"
        },
        {
          "name": "_longitude",
          "type": "uint256"
        }
      ],
      "name": "setLocation",
      "outputs": [],
      "payable": false,
      "stateMutability": "nonpayable",
      "type": "function"
    },
    {
      "constant": false,
      "inputs": [
        {
          "name": "_logoURI",
          "type": "bytes"
        },
        {
          "name": "_logoHash",
          "type": "bytes32"
        }
      ],
      "name": "setLogo",
      "outputs": [],
      "payable": false,
      "stateMutability": "nonpayable",
      "type": "function"
    }
  ],
  "bytecode": "0x60806040523480156200001157600080fd5b50604051620032fd380380620032fd83398101806040526101008110156200003857600080fd5b8151602083015160408401516060850151608086018051949693959294919392830192916401000000008111156200006f57600080fd5b820160208101848111156200008357600080fd5b81516401000000008111828201871017156200009e57600080fd5b5050602080830151604084015160609094015160008990556001889055835193965090945091620000d6916002919087019062000194565b506004839055600382905560078190556000600b819055600d5560098054600160a060020a03808b16600160a060020a03199283161790925560088054928a1692821692909217909155600a805490911633179055866200013662000219565b600160a060020a03909116815260405190819003602001906000f08015801562000164573d6000803e3d6000fd5b50600e8054600160a060020a031916600160a060020a0392909216919091179055506200024a9650505050505050565b828054600181600116156101000203166002900490600052602060002090601f016020900481019282601f10620001d757805160ff191683800117855562000207565b8280016001018555821562000207579182015b8281111562000207578251825591602001919060010190620001ea565b50620002159291506200022a565b5090565b6040516123f78062000f0683390190565b6200024791905b8082111562000215576000815560010162000231565b90565b610cac806200025a6000396000f3fe6080604052600436106101325763ffffffff7c010000000000000000000000000000000000000000000000000000000060003504166301751d41811461013457806306fdde031461016557806313af40351461018c5780631b9265b8146101bf5780631d834409146101c75780634b24ea47146101dc5780634fd7d76a146101f1578063516f279e146102065780635863bebe14610290578063589af69c146103485780635ac801fe1461035d57806368db65a4146103875780636bb38b281461039c57806376af633c146103b15780637e29b003146103c65780637e55d59c1461052b5780638da5cb5b14610564578063a64f207a14610579578063a85c38ef146105f6578063af640d0f14610643578063c1f0f00d14610658578063df7be1ca1461070d578063f1d4b2c514610722575b005b34801561014057600080fd5b5061014961074c565b60408051600160a060020a039092168252519081900360200190f35b34801561017157600080fd5b5061017a61075c565b60408051918252519081900360200190f35b34801561019857600080fd5b50610132600480360360208110156101af57600080fd5b5035600160a060020a0316610762565b6101326107a8565b3480156101d357600080fd5b5061017a6107ee565b3480156101e857600080fd5b506101496107f4565b3480156101fd57600080fd5b5061017a610803565b34801561021257600080fd5b5061021b610809565b6040805160208082528351818301528351919283929083019185019080838360005b8381101561025557818101518382015260200161023d565b50505050905090810190601f1680156102825780820380516001836020036101000a031916815260200191505b509250505060405180910390f35b34801561029c57600080fd5b50610132600480360360608110156102b357600080fd5b8101906020810181356401000000008111156102ce57600080fd5b8201836020820111156102e057600080fd5b8035906020019184600183028401116401000000008311171561030257600080fd5b91908080601f0160208091040260200160405190810160405280939291908181526020018383808284376000920191909152509295505082359350505060200135610894565b34801561035457600080fd5b5061017a6108c6565b34801561036957600080fd5b506101326004803603602081101561038057600080fd5b50356108cc565b34801561039357600080fd5b506101496108e8565b3480156103a857600080fd5b5061021b6108f7565b3480156103bd57600080fd5b5061017a610952565b3480156103d257600080fd5b5061013260048036036101008110156103ea57600080fd5b813591602081013591600160a060020a03604083013516919081019060808101606082013564010000000081111561042157600080fd5b82018360208201111561043357600080fd5b8035906020019184600183028401116401000000008311171561045557600080fd5b91908080601f01602080910402602001604051908101604052809392919081815260200183838082843760009201919091525092958435956020860135959194509250606081019150604001356401000000008111156104b457600080fd5b8201836020820111156104c657600080fd5b803590602001918460018302840111640100000000831117156104e857600080fd5b91908080601f0160208091040260200160405190810160405280939291908181526020018383808284376000920191909152509295505091359250610958915050565b34801561053757600080fd5b506101326004803603604081101561054e57600080fd5b50600160a060020a0381351690602001356109cb565b34801561057057600080fd5b50610149610ac2565b34801561058557600080fd5b506101326004803603604081101561059c57600080fd5b8101906020810181356401000000008111156105b757600080fd5b8201836020820111156105c957600080fd5b803590602001918460018302840111640100000000831117156105eb57600080fd5b919350915035610ad1565b34801561060257600080fd5b506106206004803603602081101561061957600080fd5b5035610afc565b604080519215158352600160a060020a0390911660208301528051918290030190f35b34801561064f57600080fd5b5061017a610b21565b34801561066457600080fd5b506101326004803603604081101561067b57600080fd5b81019060208101813564010000000081111561069657600080fd5b8201836020820111156106a857600080fd5b803590602001918460018302840111640100000000831117156106ca57600080fd5b91908080601f0160208091040260200160405190810160405280939291908181526020018383808284376000920191909152509295505091359250610b27915050565b34801561071957600080fd5b5061017a610b58565b34801561072e57600080fd5b506101326004803603602081101561074557600080fd5b5035610b5e565b600e54600160a060020a03165b90565b60015481565b600854600160a060020a0316331461077957600080fd5b6008805473ffffffffffffffffffffffffffffffffffffffff1916600160a060020a0392909216919091179055565b600d805434908101909155600854604051600160a060020a039091169180156108fc02916000818181858888f193505050501580156107eb573d6000803e3d6000fd5b50565b600b5481565b600954600160a060020a031681565b60045481565b6002805460408051602060018416156101000260001901909316849004601f8101849004840282018401909252818152929183018282801561088c5780601f106108615761010080835404028352916020019161088c565b820191906000526020600020905b81548152906001019060200180831161086f57829003601f168201915b505050505081565b600854600160a060020a031633146108ab57600080fd5b82516108be906002906020860190610b7a565b506003555050565b60035481565b600854600160a060020a031633146108e357600080fd5b600155565b600a54600160a060020a031681565b6005805460408051602060026001851615610100026000190190941693909304601f8101849004840282018401909252818152929183018282801561088c5780601f106108615761010080835404028352916020019161088c565b60075481565b600854600160a060020a0316331461096f57600080fd5b610978886108cc565b61098187610b5e565b600160a060020a038616156109995761099986610762565b6000855111156109ae576109ae858585610894565b6000825111156109c1576109c1886108cc565b5050505050505050565b600854600160a060020a03163314610a4457604080517f08c379a000000000000000000000000000000000000000000000000000000000815260206004820152601560248201527f796f7520617265206e6f7420746865206f776e65720000000000000000000000604482015290519081900360640190fd5b81600160a060020a031663e9132c42826040518263ffffffff167c010000000000000000000000000000000000000000000000000000000002815260040180828152602001915050600060405180830381600087803b158015610aa657600080fd5b505af1158015610aba573d6000803e3d6000fd5b505050505050565b600854600160a060020a031681565b600854600160a060020a03163314610ae857600080fd5b610af460058484610bf8565b506006555050565b600c6020526000908152604090205460ff8116906101009004600160a060020a031682565b60005481565b600854600160a060020a03163314610b3e57600080fd5b8151610b51906005906020850190610b7a565b5060065550565b60065481565b600854600160a060020a03163314610b7557600080fd5b600755565b828054600181600116156101000203166002900490600052602060002090601f016020900481019282601f10610bbb57805160ff1916838001178555610be8565b82800160010185558215610be8579182015b82811115610be8578251825591602001919060010190610bcd565b50610bf4929150610c66565b5090565b828054600181600116156101000203166002900490600052602060002090601f016020900481019282601f10610c395782800160ff19823516178555610be8565b82800160010185558215610be8579182015b82811115610be8578235825591602001919060010190610c4b565b61075991905b80821115610bf45760008155600101610c6c56fea165627a7a72305820088ba524903663a9825608b8e62a3a12d83c362f9b210ce1cb36ec5eab7388f50029608060405260006001556000600255600060035534801561001f57600080fd5b506040516020806123f78339810180604052602081101561003f57600080fd5b505160008054600160a060020a03909216600160a060020a0319909216919091179055612386806100716000396000f3fe6080604052600436106101115763ffffffff7c01000000000000000000000000000000000000000000000000000000006000350416630545ba298114610116578063125ba977146101485780631f7b6d321461016f578063206dd9c61461018457806335484952146104c8578063409e22051461051857806348850443146105605780635b4b8792146105755780637087ab331461058a578063713291711461059f57806379b0542d146105c957806380fdeff6146108055780638da5cb5b1461094c5780638fb0f14c1461097d578063ab90dae814610a2d578063bae78d7b14610a5d578063bfb231d214610b2e578063c98baa3214610b7e578063d54307ca1461058a578063e4d8a2a614610d36575b600080fd5b34801561012257600080fd5b506101466004803603604081101561013957600080fd5b5080359060200135610d6c565b005b34801561015457600080fd5b5061015d610f1d565b60408051918252519081900360200190f35b34801561017b57600080fd5b5061015d610f4a565b34801561019057600080fd5b50610146600480360360c08110156101a757600080fd5b8101906020810181356401000000008111156101c257600080fd5b8201836020820111156101d457600080fd5b803590602001918460208302840111640100000000831117156101f657600080fd5b919080806020026020016040519081016040528093929190818152602001838360200280828437600092019190915250929594936020810193503591505064010000000081111561024657600080fd5b82018360208201111561025857600080fd5b8035906020019184602083028401116401000000008311171561027a57600080fd5b91908080602002602001604051908101604052809392919081815260200183836020028082843760009201919091525092959493602081019350359150506401000000008111156102ca57600080fd5b8201836020820111156102dc57600080fd5b803590602001918460208302840111640100000000831117156102fe57600080fd5b919080806020026020016040519081016040528093929190818152602001838360200280828437600092019190915250929594936020810193503591505064010000000081111561034e57600080fd5b82018360208201111561036057600080fd5b8035906020019184602083028401116401000000008311171561038257600080fd5b91908080602002602001604051908101604052809392919081815260200183836020028082843760009201919091525092959493602081019350359150506401000000008111156103d257600080fd5b8201836020820111156103e457600080fd5b8035906020019184602083028401116401000000008311171561040657600080fd5b919080806020026020016040519081016040528093929190818152602001838360200280828437600092019190915250929594936020810193503591505064010000000081111561045657600080fd5b82018360208201111561046857600080fd5b8035906020019184602083028401116401000000008311171561048a57600080fd5b919080806020026020016040519081016040528093929190818152602001838360200280828437600092019190915250929550610f50945050505050565b3480156104d457600080fd5b50610504600480360360808110156104eb57600080fd5b5080359060208101359060408101359060600135611414565b604080519115158252519081900360200190f35b34801561052457600080fd5b506105426004803603602081101561053b57600080fd5b50356115c3565b60408051938452602084019290925282820152519081900360600190f35b34801561056c57600080fd5b5061015d6115e4565b34801561058157600080fd5b5061015d6115ea565b34801561059657600080fd5b506101466115f0565b3480156105ab57600080fd5b50610504600480360360208110156105c257600080fd5b50356115f2565b3480156105d557600080fd5b50610146600480360360808110156105ec57600080fd5b81019060208101813564010000000081111561060757600080fd5b82018360208201111561061957600080fd5b8035906020019184602083028401116401000000008311171561063b57600080fd5b919080806020026020016040519081016040528093929190818152602001838360200280828437600092019190915250929594936020810193503591505064010000000081111561068b57600080fd5b82018360208201111561069d57600080fd5b803590602001918460208302840111640100000000831117156106bf57600080fd5b919080806020026020016040519081016040528093929190818152602001838360200280828437600092019190915250929594936020810193503591505064010000000081111561070f57600080fd5b82018360208201111561072157600080fd5b8035906020019184602083028401116401000000008311171561074357600080fd5b919080806020026020016040519081016040528093929190818152602001838360200280828437600092019190915250929594936020810193503591505064010000000081111561079357600080fd5b8201836020820111156107a557600080fd5b803590602001918460208302840111640100000000831117156107c757600080fd5b9190808060200260200160405190810160405280939291908181526020018383602002808284376000920191909152509295506116de945050505050565b34801561081157600080fd5b50610504600480360360a081101561082857600080fd5b8135916020810135916040820135919081019060808101606082013564010000000081111561085657600080fd5b82018360208201111561086857600080fd5b8035906020019184602083028401116401000000008311171561088a57600080fd5b91908080602002602001604051908101604052809392919081815260200183836020028082843760009201919091525092959493602081019350359150506401000000008111156108da57600080fd5b8201836020820111156108ec57600080fd5b8035906020019184602083028401116401000000008311171561090e57600080fd5b919080806020026020016040519081016040528093929190818152602001838360200280828437600092019190915250929550611941945050505050565b34801561095857600080fd5b50610961611c59565b60408051600160a060020a039092168252519081900360200190f35b34801561098957600080fd5b50610146600480360360208110156109a057600080fd5b8101906020810181356401000000008111156109bb57600080fd5b8201836020820111156109cd57600080fd5b803590602001918460208302840111640100000000831117156109ef57600080fd5b919080806020026020016040519081016040528093929190818152602001838360200280828437600092019190915250929550611c68945050505050565b348015610a3957600080fd5b5061050460048036036040811015610a5057600080fd5b5080359060200135611d5b565b348015610a6957600080fd5b50610a8760048036036020811015610a8057600080fd5b5035611e9b565b604051808581526020018481526020018060200180602001838103835285818151815260200191508051906020019060200280838360005b83811015610ad7578181015183820152602001610abf565b50505050905001838103825284818151815260200191508051906020019060200280838360005b83811015610b16578181015183820152602001610afe565b50505050905001965050505050505060405180910390f35b348015610b3a57600080fd5b50610b5860048036036020811015610b5157600080fd5b5035612038565b604080519485526020850193909352838301919091526060830152519081900360800190f35b348015610b8a57600080fd5b5061014660048036036060811015610ba157600080fd5b810190602081018135640100000000811115610bbc57600080fd5b820183602082011115610bce57600080fd5b80359060200191846020830284011164010000000083111715610bf057600080fd5b9190808060200260200160405190810160405280939291908181526020018383602002808284376000920191909152509295949360208101935035915050640100000000811115610c4057600080fd5b820183602082011115610c5257600080fd5b80359060200191846020830284011164010000000083111715610c7457600080fd5b9190808060200260200160405190810160405280939291908181526020018383602002808284376000920191909152509295949360208101935035915050640100000000811115610cc457600080fd5b820183602082011115610cd657600080fd5b80359060200191846020830284011164010000000083111715610cf857600080fd5b91908080602002602001604051908101604052809392919081815260200183836020028082843760009201919091525092955061205f945050505050565b348015610d4257600080fd5b5061014660048036036060811015610d5957600080fd5b50803590602081013590604001356120fe565b600054600160a060020a03163314610dca576040805160e560020a62461bcd028152602060048201526022602482015260008051602061233b833981519152604482015260f060020a616e7502606482015290519081900360840190fd5b808210610e46576040805160e560020a62461bcd028152602060048201526024808201527f696e6465782031206d75737420626520736d616c6c6572207468616e20696e6460448201527f6578203200000000000000000000000000000000000000000000000000000000606482015290519081900360840190fd5b600254600090819081908190815b868111610eaa5787811415610e67578195505b60018803811415610e76578193505b86811415610e82578194505b60018703811415610e91578192505b6000918252600560205260409091205490600101610e54565b506000871515610ed55750600280546000848152600560205260409020805490925590819055610ef8565b506000838152600560205260408082208054858452919092208054909255908190555b5050506000928352506005602052604080832080549284529220805490925590555050565b600254600090815b8115610f44576000918252600560205260409091205490600101610f25565b91505090565b60015481565b600054600160a060020a03163314610fb2576040805160e560020a62461bcd02815260206004820152601560248201527f796f7520617265206e6f7420746865206f776e65720000000000000000000000604482015290519081900360640190fd5b8451865114611031576040805160e560020a62461bcd02815260206004820152603660248201527f746865206e756d626572206f66206974656d20696e646578657320616e64206960448201527f74656d206e616d657320646f206e6f74206d6174636800000000000000000000606482015290519081900360840190fd5b83518551146110b0576040805160e560020a62461bcd02815260206004820152603660248201527f746865206e756d626572206f66206465736372697074696f6e7320616e64206960448201527f74656d206e616d657320646f206e6f74206d6174636800000000000000000000606482015290519081900360840190fd5b815183511461112f576040805160e560020a62461bcd02815260206004820152602d60248201527f746865206e756d626572206f66206f7074696f6e7320616e642070726963657360448201527f20646f206e6f74206d6174636800000000000000000000000000000000000000606482015290519081900360840190fd5b80518551146111ae576040805160e560020a62461bcd02815260206004820152603660248201527f746865206e756d626572206f66206974656d206e616d657320616e64206f707460448201527f696f6e20666c61677320646f206e6f74206d6174636800000000000000000000606482015290519081900360840190fd5b6000805b82518110156111e05782818151811015156111c957fe5b6020908102909101015191909101906001016111b2565b5083518114611285576040805160e560020a62461bcd02815260206004820152604260248201527f746865206e756d626572206f66206f7074696f6e7320616e642074686520737560448201527f6d206f6620746865206f7074696f6e20666c61677320646f206e6f74206d617460648201527f6368000000000000000000000000000000000000000000000000000000000000608482015290519081900360a40190fd5b6000606080825b85518110156114075785818151811015156112a357fe5b906020019060200201516040519080825280602002602001820160405280156112d6578160200160208202803883390190505b50925085818151811015156112e757fe5b9060200190602002015160405190808252806020026020018201604052801561131a578160200160208202803883390190505b50915060005b868281518110151561132e57fe5b906020019060200201518110156113ab57888581518110151561134d57fe5b90602001906020020151848281518110151561136557fe5b60209081029091010152875188908690811061137d57fe5b90602001906020020151838281518110151561139557fe5b6020908102909101015260019485019401611320565b506113fe8b828151811015156113bd57fe5b906020019060200201518b838151811015156113d557fe5b906020019060200201518b848151811015156113ed57fe5b906020019060200201518686611941565b5060010161128c565b5050505050505050505050565b60008054600160a060020a03163314611473576040805160e560020a62461bcd028152602060048201526022602482015260008051602061233b833981519152604482015260f060020a616e7502606482015290519081900360840190fd5b61147b6122f3565b60025460005b878110156114a2576000918252600560205260409091205490600101611481565b5085151561151357604080516060810182526000838152600560208181528483206003908101805486528286018c81528688018c81528354600190810180865588526004865298872088518155915198820198909855965160029097019690965554928690525290915591506115b9565b600081815260056020526040812060030154905b876001018110156115585760008281526004602052604090205480151561154e5750611558565b9150600101611527565b5060408051606081018252600083815260046020818152848320805485528185018c81528587018c81526003805460019081018083558852959094529685208651815590519381019390935594516002909201919091555493905291905591505b5050949350505050565b60046020526000908152604090208054600182015460029092015490919083565b60035481565b60025481565b565b60008054600160a060020a03163314611651576040805160e560020a62461bcd028152602060048201526022602482015260008051602061233b833981519152604482015260f060020a616e7502606482015290519081900360840190fd5b81151561168e57506002805460009081526005602052604081208054828255600180830184905582850184905560039092019290925591556116d9565b60025460005b600184038110156116b8576000918252600560205260409091205490600101611694565b50600081815260056020526040808220805483529082205492909152555060015b919050565b600054600160a060020a03163314611740576040805160e560020a62461bcd02815260206004820152601560248201527f796f7520617265206e6f7420746865206f776e65720000000000000000000000604482015290519081900360640190fd5b82518451146117bf576040805160e560020a62461bcd02815260206004820152603f60248201527f746865206e756d626572206f66206974656d49647320616e6420696e6465786560448201527f7320746f20696e7365727420617420617265206e6f74207468652073616d6500606482015290519081900360840190fd5b805182511461183e576040805160e560020a62461bcd02815260206004820152603960248201527f746865206e756d626572206f66206f7074696f6e7320646f6573206e6f74206d60448201527f6174636820746865206e756d626572206f662070726963657300000000000000606482015290519081900360840190fd5b83518251146118bd576040805160e560020a62461bcd02815260206004820152603e60248201527f746865206e756d626572206f66206974656d49447320646f6573206e6f74206d60448201527f6174636820746865206e756d626572206f66206f7074696f6e4e616d65730000606482015290519081900360840190fd5b60005b845181101561193a5761193185828151811015156118da57fe5b9060200190602002015185838151811015156118f257fe5b90602001906020020151858481518110151561190a57fe5b90602001906020020151858581518110151561192257fe5b90602001906020020151611414565b506001016118c0565b5050505050565b60008054600160a060020a031633146119a0576040805160e560020a62461bcd028152602060048201526022602482015260008051602061233b833981519152604482015260f060020a616e7502606482015290519081900360840190fd5b8151835114611a1f576040805160e560020a62461bcd02815260206004820152603960248201527f746865206e756d626572206f66206f7074696f6e7320646f6573206e6f74206d60448201527f6174636820746865206e756d626572206f662070726963657300000000000000606482015290519081900360840190fd5b611a276122f3565b60606040519081016040528060008152602001856000815181101515611a4957fe5b906020019060200201518152602001846000815181101515611a6757fe5b602090810290910181015190915260038054600190810191829055600091825260048352604091829020845181559284015183820155908301516002909201919091559091505b8451811015611b425760606040519081016040528060035481526020018683815181101515611ad957fe5b9060200190602002015181526020018583815181101515611af657fe5b6020908102909101810151909152600380546001908101918290556000918252600483526040918290208451815592840151838201559083015160029092019190915590925001611aae565b50611b4b612313565b871515611bb257506040805160808101825260028054825260208083018a81528385018a8152600380546060870190815260018054810180825560009081526005909652979094208651815592518388015590518285015591519101559154909155611c4e565b60025460015b89811015611be657600082815260056020526040902054801515611bdc5750611be6565b9150600101611bb8565b5060408051608081018252600083815260056020818152848320805485528185018e81528587018e8152600380546060890190815260018054810180825589529690955297862087518155915182860155516002820155915191909501555493905291905590505b505095945050505050565b600054600160a060020a031681565b80516402540be3ff90600019015b60008112611d56578281815181101515611c8c57fe5b602090810290910101518211611d12576040805160e560020a62461bcd02815260206004820152602f60248201527f746865206172726179206f66206974656d496473206d75737420626520696e2060448201527f617373656e64696e67206f726465720000000000000000000000000000000000606482015290519081900360840190fd5b611d328382815181101515611d2357fe5b906020019060200201516115f2565b508281815181101515611d4157fe5b60209081029091010151915060001901611c76565b505050565b60008054600160a060020a03163314611dba576040805160e560020a62461bcd028152602060048201526022602482015260008051602061233b833981519152604482015260f060020a616e7502606482015290519081900360840190fd5b60025460005b84811015611de1576000918252600560205260409091205490600101611dc0565b50600081815260056020526040902060030154831515611e3a5760009081526004602090815260408083208054848255600180830186905560029092018590559484526005909252909120600301919091559050611e95565b60005b60018503811015611e61576000918252600460205260409091205490600101611e3d565b5060009081526004602052604080822080548352908220805490915581815560018082018390556002909101919091559150505b92915050565b60025460009081906060908190835b86811015611ecb576000918252600560205260409091205490600101611eaa565b50611ed4612313565b5060008181526005602090815260408083208151608081018352815481526001820154938101939093526002810154918301919091526003015460608083018290529192829181905b8015611f3d57600090815260046020526040902054600190910190611f1d565b81604051908082528060200260200182016040528015611f67578160200160208202803883390190505b50945081604051908082528060200260200182016040528015611f94578160200160208202803883390190505b509350856060015190505b801561201a576000818152600460205260409020600101548551869085908110611fc557fe5b60209081029091018101919091526000828152600490915260409020600201548451859085908110611ff357fe5b60209081029091018101919091526000918252600490526040902054600190920191611f9f565b50505060208301516040909301519299929850909650945092505050565b60056020526000908152604090208054600182015460028301546003909301549192909184565b6000805b845181101561193a5760006001848381518110151561207e57fe5b906020019060200201510390505b600081126120d8576120ce86838151811015156120a557fe5b90602001906020020151868386018151811015156120bf57fe5b90602001906020020151611d5b565b506000190161208c565b5082818151811015156120e757fe5b602090810290910101519190910190600101612063565b600054600160a060020a0316331461215c576040805160e560020a62461bcd028152602060048201526022602482015260008051602061233b833981519152604482015260f060020a616e7502606482015290519081900360840190fd5b8082106121d8576040805160e560020a62461bcd028152602060048201526024808201527f696e6465782031206d75737420626520736d616c6c6572207468616e20696e6460448201527f6578203200000000000000000000000000000000000000000000000000000000606482015290519081900360840190fd5b60025460005b848110156121ff5760009182526005602052604090912054906001016121de565b50600081815260056020526040812060030154819081908190815b878111612270578881141561222d578195505b6001890381141561223c578193505b87811415612248578194505b60018803811415612257578192505b600091825260046020526040909120549060010161221a565b5060008815156122a9575060008681526005602090815260408083206003018054868552600490935292208054909255908190556122cc565b506000838152600460205260408082208054858452919092208054909255908190555b50505060009283525060046020526040808320805492845292208054909255905550505050565b604080516060810182526000808252602082018190529181019190915290565b6040805160808101825260008082526020820181905291810182905260608101919091529056fe796f7520617265206e6f7420746865206f776e6572206f662074686973206d65a165627a7a72305820eba6563b3a893f7e86fecaceda4a3b4c2c3d8327549029783fb81a8d6d7713e10029",
  "source": "pragma solidity ^0.5.0;\n\n //import \"./lib.sol\";\n import \"./Order.sol\";\n import \"./RestaurantFactory.sol\";\n import \"./CustomerFactory.sol\";\n import \"./Controller.sol\";\n import \"./Menu.sol\";\n\ncontract Restaurant {\n\n    // additional variables to add\n\n\tuint public id;\n\tbytes32 public name; \n\n\tbytes public location; \n    uint public longitude; \n    uint public latitude; \n\n    bytes public logoURI; \n    bytes32 public logoHash; \n\n\n\tbytes32 public contactNumber; \n\n\taddress payable public owner; \n    address public controllerAddress;\n\taddress public restaurantFactoryAddress;\n\n\n    struct order{bool open; address orderAddress;}\n\tuint public totalOrders;\n    // todo: make orders private and accessed via method for only rider and restaurant\n\tmapping(uint => order) public orders; // must be a better way to store the orders\n\n    uint totalPay;\n\t\n    Menu menu;\n\n    enum restaurantState{acceptedOrder, preparingCargo, readyForCollection, HandedOver}\n\t\n    event OrderMadeEvent(address orderAddress);\n    event MenuUpdated();\n\n\tconstructor(address _controller, address payable _owner, \n                uint _id, bytes32 _name, \n                bytes memory _address, uint _latitude, uint _longitude, \n                bytes32 _contactNumber\n                ) public {\n        // itemOptions and prices will have to be parsed as they are 2d arrays\n\t\tid = _id;\n\t\tname = _name;\n\t\t\n        location = _address;\n        latitude = _latitude;\n        longitude = _longitude;\n\n\t\tcontactNumber = _contactNumber;\n\t\ttotalOrders = 0;\n        totalPay = 0;\n\n        controllerAddress = _controller;\n\t\towner = _owner;\n\t\trestaurantFactoryAddress = msg.sender;\n\n        menu = new Menu(_owner);\n\t}\n\n    function getMenuAddress() public view returns (address) {\n        return address(menu);\n    }\n\n\n    function updateLogo(bytes calldata imageURI, bytes32 imageHash) external{\n        require(msg.sender == owner);\n        logoURI = imageURI;\n        logoHash = imageHash;\n    }\n    \n    // menuIndex\n    // itemType\n    // uint new prices\n    // byte32 new text\n\n\n\n    // // todo: fix this\n    // function getOrderPrice(uint[] memory itemIds) public view returns (uint){\n    //     uint price = 0;\n    //     for(uint i = 0; i < itemIds.length; i++){\n    //         price += menu[itemIds[i]].optionsCost[0];\n    //     }\n    //     return price;\n    // }\n    \n\n  //   function makeOrder(uint[] calldata itemIds, uint deliveryFee, bytes32 riderKeyHash) external payable returns (address orderAddress) {\n  //       //require this comes from a customer smart contract, maybe worth moving this to the order smart contract\n  //       require(CustomerFactory(Controller(controllerAddress).customerFactoryAddress()).customerExists(msg.sender), \"Customer doesnt exist\");\n\n  //       uint[] memory prices = new uint[](itemIds.length);\n  //       bytes32[] memory items = new bytes32[](itemIds.length);\n  //       for(uint i = 0; i < itemIds.length; i++)\n  //       {\n  //           if (itemIds[i] >= 0 && itemIds[i] < menuLength){\n  //               // could consider sending itemID and price to reduce gas cost\n  //               items[i] = menu[uint(itemIds[i])].itemName; \n  //               prices[i] = menu[uint(itemIds[i])].optionsCost[0];\n  //           }\n  //           else{\n  //               revert(\"Invalid Items\");\n  //           }\n  //       }\n        \n\t\t// Order newOrder = (new Order).value(msg.value)(totalOrders,items,prices,deliveryFee, controllerAddress, msg.sender, riderKeyHash);\n\t\t// orders[totalOrders] = order(true,address(newOrder));\n  //       totalOrders ++;\n\n  //       emit OrderMadeEvent(orders[totalOrders - 1].orderAddress);\n\n\t\t// return orders[totalOrders - 1].orderAddress;       \n  //   }\n\n    function setStatus(address orderAddress, uint status) public{\n        require(msg.sender == owner, \"you are not the owner\");\n        Order(orderAddress).setOrderStatus(status);\n    }\n\n    function pay() external payable {\n        totalPay += msg.value;\n        owner.transfer(msg.value);\n    } \n\n    function() external payable {\n\n    }\n\n\n    // Setters\n    function updateRestaurant(bytes32 _name, bytes32 _number, address payable _owner, bytes memory _location, uint _latitude, uint _longitude, bytes memory _logoURI, bytes32 _logoHash) public {\n        require(msg.sender == owner);\n        if(_name.length > 0 )\n            setName(_name);\n        if(_number.length > 0 )\n            setNumber(_number);\n        if(_owner != address(0))\n            setOwner(_owner);\n        if(_location.length > 0)\n            setLocation(_location, _latitude, _longitude);\n        if(_logoURI.length > 0)\n            setName(_name);\n    }\n    function setName(bytes32 _name) public {\n        require(msg.sender == owner);\n        name = _name;\n    }\n    function setNumber(bytes32 _number) public {\n        require(msg.sender == owner);\n        contactNumber = _number;\n    }\n    function setOwner(address payable _owner) public {\n        require(msg.sender == owner);\n        owner = _owner;\n    }\n    function setLocation(bytes memory _location, uint _latitude, uint _longitude) public {\n        require(msg.sender == owner);\n        location = _location;\n        latitude - _latitude;\n        longitude = _longitude;\n    }\n    function setLogo(bytes memory _logoURI, bytes32 _logoHash) public {\n        require(msg.sender == owner);\n        logoURI = _logoURI;\n        logoHash = _logoHash;\n    }\n}",
  "sourcePath": "/home/george/Documents/workspace/TryAByte/contracts/Restaurant.sol",
  "compiler": {
    "name": "solc",
    "version": "0.5.0+commit.1d4f565a.Emscripten.clang"
  },
  "schemaVersion": "3.0.6",
  "updatedAt": "2020-01-03T15:43:43.984Z",
  "devdoc": {
    "methods": {}
  },
  "userdoc": {
    "methods": {}
  }
}