{
  "contractName": "Restaurant",
  "abi": [
    {
      "constant": true,
      "inputs": [],
      "name": "name",
      "outputs": [
        {
          "name": "",
          "type": "string"
        }
      ],
      "payable": false,
      "stateMutability": "view",
      "type": "function"
    },
    {
      "constant": true,
      "inputs": [],
      "name": "totalOrders",
      "outputs": [
        {
          "name": "",
          "type": "uint256"
        }
      ],
      "payable": false,
      "stateMutability": "view",
      "type": "function"
    },
    {
      "constant": true,
      "inputs": [],
      "name": "controllerAddress",
      "outputs": [
        {
          "name": "",
          "type": "address"
        }
      ],
      "payable": false,
      "stateMutability": "view",
      "type": "function"
    },
    {
      "constant": true,
      "inputs": [],
      "name": "location",
      "outputs": [
        {
          "name": "",
          "type": "string"
        }
      ],
      "payable": false,
      "stateMutability": "view",
      "type": "function"
    },
    {
      "constant": true,
      "inputs": [],
      "name": "restaurantFactoryAddress",
      "outputs": [
        {
          "name": "",
          "type": "address"
        }
      ],
      "payable": false,
      "stateMutability": "view",
      "type": "function"
    },
    {
      "constant": true,
      "inputs": [],
      "name": "contactNumber",
      "outputs": [
        {
          "name": "",
          "type": "string"
        }
      ],
      "payable": false,
      "stateMutability": "view",
      "type": "function"
    },
    {
      "constant": true,
      "inputs": [],
      "name": "rating",
      "outputs": [
        {
          "name": "",
          "type": "uint256"
        }
      ],
      "payable": false,
      "stateMutability": "view",
      "type": "function"
    },
    {
      "constant": true,
      "inputs": [],
      "name": "owner",
      "outputs": [
        {
          "name": "",
          "type": "address"
        }
      ],
      "payable": false,
      "stateMutability": "view",
      "type": "function"
    },
    {
      "constant": true,
      "inputs": [
        {
          "name": "",
          "type": "uint256"
        }
      ],
      "name": "orders",
      "outputs": [
        {
          "name": "open",
          "type": "bool"
        },
        {
          "name": "orderAddress",
          "type": "address"
        }
      ],
      "payable": false,
      "stateMutability": "view",
      "type": "function"
    },
    {
      "constant": true,
      "inputs": [],
      "name": "id",
      "outputs": [
        {
          "name": "",
          "type": "uint256"
        }
      ],
      "payable": false,
      "stateMutability": "view",
      "type": "function"
    },
    {
      "constant": true,
      "inputs": [
        {
          "name": "",
          "type": "uint256"
        }
      ],
      "name": "menu",
      "outputs": [
        {
          "name": "itemName",
          "type": "bytes32"
        },
        {
          "name": "itemCost",
          "type": "uint256"
        }
      ],
      "payable": false,
      "stateMutability": "view",
      "type": "function"
    },
    {
      "inputs": [
        {
          "name": "_controller",
          "type": "address"
        },
        {
          "name": "_owner",
          "type": "address"
        },
        {
          "name": "_id",
          "type": "uint256"
        },
        {
          "name": "_name",
          "type": "string"
        },
        {
          "name": "_address",
          "type": "string"
        },
        {
          "name": "_contactNumber",
          "type": "string"
        }
      ],
      "payable": false,
      "stateMutability": "nonpayable",
      "type": "constructor"
    },
    {
      "constant": true,
      "inputs": [],
      "name": "getMenuLength",
      "outputs": [
        {
          "name": "length",
          "type": "uint256"
        }
      ],
      "payable": false,
      "stateMutability": "view",
      "type": "function"
    },
    {
      "constant": false,
      "inputs": [],
      "name": "clearMenu",
      "outputs": [],
      "payable": false,
      "stateMutability": "nonpayable",
      "type": "function"
    },
    {
      "constant": false,
      "inputs": [
        {
          "name": "itemNames",
          "type": "bytes32[]"
        },
        {
          "name": "prices",
          "type": "uint256[]"
        }
      ],
      "name": "menuAddItems",
      "outputs": [],
      "payable": false,
      "stateMutability": "nonpayable",
      "type": "function"
    },
    {
      "constant": false,
      "inputs": [
        {
          "name": "itemNames",
          "type": "bytes32[]"
        }
      ],
      "name": "menuRemoveItems",
      "outputs": [
        {
          "name": "result",
          "type": "string"
        }
      ],
      "payable": false,
      "stateMutability": "nonpayable",
      "type": "function"
    },
    {
      "constant": true,
      "inputs": [
        {
          "name": "items",
          "type": "bytes32[]"
        }
      ],
      "name": "validOrder",
      "outputs": [
        {
          "name": "isValid",
          "type": "bool"
        },
        {
          "name": "price",
          "type": "uint256"
        }
      ],
      "payable": false,
      "stateMutability": "view",
      "type": "function"
    },
    {
      "constant": false,
      "inputs": [
        {
          "name": "items",
          "type": "bytes32[]"
        }
      ],
      "name": "makeOrder",
      "outputs": [
        {
          "name": "orderAddress",
          "type": "address"
        }
      ],
      "payable": true,
      "stateMutability": "payable",
      "type": "function"
    },
    {
      "constant": true,
      "inputs": [
        {
          "name": "itemId",
          "type": "uint256"
        }
      ],
      "name": "getMenuItem",
      "outputs": [
        {
          "name": "itemname",
          "type": "bytes32"
        },
        {
          "name": "cost",
          "type": "uint256"
        }
      ],
      "payable": false,
      "stateMutability": "view",
      "type": "function"
    },
    {
      "constant": false,
      "inputs": [
        {
          "name": "orderAddress",
          "type": "address"
        }
      ],
      "name": "setStatusPrepairing",
      "outputs": [],
      "payable": false,
      "stateMutability": "nonpayable",
      "type": "function"
    },
    {
      "constant": false,
      "inputs": [
        {
          "name": "orderAddress",
          "type": "address"
        }
      ],
      "name": "handOverCargo",
      "outputs": [],
      "payable": false,
      "stateMutability": "nonpayable",
      "type": "function"
    }
  ],
  "bytecode": "0x60806040523480156200001157600080fd5b50604051620041d6380380620041d6833981018060405260c08110156200003757600080fd5b8101908080519060200190929190805190602001909291908051906020019092919080516401000000008111156200006e57600080fd5b828101905060208101848111156200008557600080fd5b8151856001820283011164010000000082111715620000a357600080fd5b50509291906020018051640100000000811115620000c057600080fd5b82810190506020810184811115620000d757600080fd5b8151856001820283011164010000000082111715620000f557600080fd5b505092919060200180516401000000008111156200011257600080fd5b828101905060208101848111156200012957600080fd5b81518560018202830111640100000000821117156200014757600080fd5b50509291905050508360008190555082600190805190602001906200016e92919062000278565b5081600290805190602001906200018792919062000278565b508060039080519060200190620001a092919062000278565b50600060088190555085600660006101000a81548173ffffffffffffffffffffffffffffffffffffffff021916908373ffffffffffffffffffffffffffffffffffffffff16021790555084600560006101000a81548173ffffffffffffffffffffffffffffffffffffffff021916908373ffffffffffffffffffffffffffffffffffffffff16021790555033600760006101000a81548173ffffffffffffffffffffffffffffffffffffffff021916908373ffffffffffffffffffffffffffffffffffffffff16021790555050505050505062000327565b828054600181600116156101000203166002900490600052602060002090601f016020900481019282601f10620002bb57805160ff1916838001178555620002ec565b82800160010185558215620002ec579182015b82811115620002eb578251825591602001919060010190620002ce565b5b509050620002fb9190620002ff565b5090565b6200032491905b808211156200032057600081600090555060010162000306565b5090565b90565b613e9f80620003376000396000f3fe60806040526004361062000127576000357c0100000000000000000000000000000000000000000000000000000000900463ffffffff16806306fdde03146200012c578063125ba97714620001c2578063141cf16614620001f05780631d83440914620002db5780633e92c46814620003095780634b24ea4714620003ee578063516f279e146200044857806368db65a414620004de57806372bb5678146200053857806376af633c14620005f757806380f474f6146200068d5780638da5cb5b14620006bb578063a4e4f2011462000715578063a85c38ef146200072f578063af640d0f14620007b9578063bcd2c4e114620007e7578063c0c1a0de146200083c578063c7c6d87f1462000891578063cffb703c146200099a578063f943eecd14620009f4575b600080fd5b3480156200013957600080fd5b506200014462000a4e565b6040518080602001828103825283818151815260200191508051906020019080838360005b838110156200018657808201518184015260208101905062000169565b50505050905090810190601f168015620001b45780820380516001836020036101000a031916815260200191505b509250505060405180910390f35b348015620001cf57600080fd5b50620001da62000af0565b6040518082815260200191505060405180910390f35b348015620001fd57600080fd5b50620002ba600480360360208110156200021657600080fd5b81019080803590602001906401000000008111156200023457600080fd5b8201836020820111156200024757600080fd5b803590602001918460208302840111640100000000831117156200026a57600080fd5b919080806020026020016040519081016040528093929190818152602001838360200280828437600081840152601f19601f82011690508083019250505050505050919291929050505062000afd565b60405180831515151581526020018281526020019250505060405180910390f35b348015620002e857600080fd5b50620002f362000cba565b6040518082815260200191505060405180910390f35b3480156200031657600080fd5b50620003ec600480360360408110156200032f57600080fd5b81019080803590602001906401000000008111156200034d57600080fd5b8201836020820111156200036057600080fd5b803590602001918460208302840111640100000000831117156200038357600080fd5b909192939192939080359060200190640100000000811115620003a557600080fd5b820183602082011115620003b857600080fd5b80359060200191846020830284011164010000000083111715620003db57600080fd5b909192939192939050505062000cc0565b005b348015620003fb57600080fd5b506200040662000ddc565b604051808273ffffffffffffffffffffffffffffffffffffffff1673ffffffffffffffffffffffffffffffffffffffff16815260200191505060405180910390f35b3480156200045557600080fd5b506200046062000e02565b6040518080602001828103825283818151815260200191508051906020019080838360005b83811015620004a257808201518184015260208101905062000485565b50505050905090810190601f168015620004d05780820380516001836020036101000a031916815260200191505b509250505060405180910390f35b348015620004eb57600080fd5b50620004f662000ea4565b604051808273ffffffffffffffffffffffffffffffffffffffff1673ffffffffffffffffffffffffffffffffffffffff16815260200191505060405180910390f35b620005b5600480360360208110156200055057600080fd5b81019080803590602001906401000000008111156200056e57600080fd5b8201836020820111156200058157600080fd5b80359060200191846020830284011164010000000083111715620005a457600080fd5b909192939192939050505062000eca565b604051808273ffffffffffffffffffffffffffffffffffffffff1673ffffffffffffffffffffffffffffffffffffffff16815260200191505060405180910390f35b3480156200060457600080fd5b506200060f620015db565b6040518080602001828103825283818151815260200191508051906020019080838360005b838110156200065157808201518184015260208101905062000634565b50505050905090810190601f1680156200067f5780820380516001836020036101000a031916815260200191505b509250505060405180910390f35b3480156200069a57600080fd5b50620006a56200167d565b6040518082815260200191505060405180910390f35b348015620006c857600080fd5b50620006d362001683565b604051808273ffffffffffffffffffffffffffffffffffffffff1673ffffffffffffffffffffffffffffffffffffffff16815260200191505060405180910390f35b3480156200072257600080fd5b506200072d620016a9565b005b3480156200073c57600080fd5b506200076c600480360360208110156200075557600080fd5b810190808035906020019092919050505062001718565b60405180831515151581526020018273ffffffffffffffffffffffffffffffffffffffff1673ffffffffffffffffffffffffffffffffffffffff1681526020019250505060405180910390f35b348015620007c657600080fd5b50620007d162001769565b6040518082815260200191505060405180910390f35b348015620007f457600080fd5b506200083a600480360360208110156200080d57600080fd5b81019080803573ffffffffffffffffffffffffffffffffffffffff1690602001909291905050506200176f565b005b3480156200084957600080fd5b506200088f600480360360208110156200086257600080fd5b81019080803573ffffffffffffffffffffffffffffffffffffffff16906020019092919050505062001864565b005b3480156200089e57600080fd5b506200091c60048036036020811015620008b757600080fd5b8101908080359060200190640100000000811115620008d557600080fd5b820183602082011115620008e857600080fd5b803590602001918460208302840111640100000000831117156200090b57600080fd5b90919293919293905050506200195a565b6040518080602001828103825283818151815260200191508051906020019080838360005b838110156200095e57808201518184015260208101905062000941565b50505050905090810190601f1680156200098c5780820380516001836020036101000a031916815260200191505b509250505060405180910390f35b348015620009a757600080fd5b50620009d760048036036020811015620009c057600080fd5b81019080803590602001909291905050506200241b565b604051808381526020018281526020019250505060405180910390f35b34801562000a0157600080fd5b5062000a316004803603602081101562000a1a57600080fd5b81019080803590602001909291905050506200244f565b604051808381526020018281526020019250505060405180910390f35b60018054600181600116156101000203166002900480601f01602080910402602001604051908101604052809291908181526020018280546001816001161561010002031660029004801562000ae85780601f1062000abc5761010080835404028352916020019162000ae8565b820191906000526020600020905b81548152906001019060200180831162000aca57829003601f168201915b505050505081565b6000600a80549050905090565b600080600080600090505b845181101562000cab57600062000c3873__lib___________________________________639201de55888581518110151562000b4157fe5b906020019060200201516040518263ffffffff167c01000000000000000000000000000000000000000000000000000000000281526004018082815260200191505060006040518083038186803b15801562000b9c57600080fd5b505af415801562000bb1573d6000803e3d6000fd5b505050506040513d6000823e3d601f19601f82011682018060405250602081101562000bdc57600080fd5b81019080805164010000000081111562000bf557600080fd5b8281019050602081018481111562000c0c57600080fd5b815185600182028301116401000000008211171562000c2a57600080fd5b50509291905050506200249f565b90507fffffffffffffffffffffffffffffffffffffffffffffffffffffffffffffffff81141562000c76576000808090509450945050505062000cb5565b600a8181548110151562000c8657fe5b9060005260206000209060020201600101548301925050808060010191505062000b08565b5060018192509250505b915091565b60085481565b600560009054906101000a900473ffffffffffffffffffffffffffffffffffffffff1673ffffffffffffffffffffffffffffffffffffffff163373ffffffffffffffffffffffffffffffffffffffff1614151562000d1d57600080fd5b818190508484905014151562000d3257600080fd5b60008090505b8484905081101562000dd557600a6040805190810160405280878785818110151562000d6057fe5b905060200201358152602001858585818110151562000d7b57fe5b90506020020135815250908060018154018082558091505090600182039060005260206000209060020201600090919290919091506000820151816000015560208201518160010155505050808060010191505062000d38565b5050505050565b600660009054906101000a900473ffffffffffffffffffffffffffffffffffffffff1681565b60028054600181600116156101000203166002900480601f01602080910402602001604051908101604052809291908181526020018280546001816001161561010002031660029004801562000e9c5780601f1062000e705761010080835404028352916020019162000e9c565b820191906000526020600020905b81548152906001019060200180831162000e7e57829003601f168201915b505050505081565b600760009054906101000a900473ffffffffffffffffffffffffffffffffffffffff1681565b6000600660009054906101000a900473ffffffffffffffffffffffffffffffffffffffff1673ffffffffffffffffffffffffffffffffffffffff16636455e5ac6040518163ffffffff167c010000000000000000000000000000000000000000000000000000000002815260040160206040518083038186803b15801562000f5157600080fd5b505afa15801562000f66573d6000803e3d6000fd5b505050506040513d602081101562000f7d57600080fd5b810190808051906020019092919050505073ffffffffffffffffffffffffffffffffffffffff1663689b0098336040518263ffffffff167c0100000000000000000000000000000000000000000000000000000000028152600401808273ffffffffffffffffffffffffffffffffffffffff1673ffffffffffffffffffffffffffffffffffffffff16815260200191505060206040518083038186803b1580156200102757600080fd5b505afa1580156200103c573d6000803e3d6000fd5b505050506040513d60208110156200105357600080fd5b81019080805190602001909291905050501515620010d9576040517f08c379a00000000000000000000000000000000000000000000000000000000081526004018080602001828103825260158152602001807f437573746f6d657220646f65736e74206578697374000000000000000000000081525060200191505060405180910390fd5b6060838390506040519080825280602002602001820160405280156200110e5781602001602082028038833980820191505090505b50905060008090505b848490508110156200133a57606073__lib___________________________________639201de5587878581811015156200114e57fe5b905060200201356040518263ffffffff167c01000000000000000000000000000000000000000000000000000000000281526004018082815260200191505060006040518083038186803b158015620011a657600080fd5b505af4158015620011bb573d6000803e3d6000fd5b505050506040513d6000823e3d601f19601f820116820180604052506020811015620011e657600080fd5b810190808051640100000000811115620011ff57600080fd5b828101905060208101848111156200121657600080fd5b81518560018202830111640100000000821117156200123457600080fd5b5050929190505050905060006200124b826200249f565b90507fffffffffffffffffffffffffffffffffffffffffffffffffffffffffffffffff81141515620012bc57600a818154811015156200128757fe5b9060005260206000209060020201600101548484815181101515620012a857fe5b90602001906020020181815250506200132a565b6040517f08c379a000000000000000000000000000000000000000000000000000000000815260040180806020018281038252600d8152602001807f496e76616c6964204974656d730000000000000000000000000000000000000081525060200191505060405180910390fd5b5050808060010191505062001117565b506000600854600760009054906101000a900473ffffffffffffffffffffffffffffffffffffffff16868685600660009054906101000a900473ffffffffffffffffffffffffffffffffffffffff1633620013946200265d565b808881526020018773ffffffffffffffffffffffffffffffffffffffff1673ffffffffffffffffffffffffffffffffffffffff16815260200180602001806020018573ffffffffffffffffffffffffffffffffffffffff1673ffffffffffffffffffffffffffffffffffffffff1681526020018473ffffffffffffffffffffffffffffffffffffffff1673ffffffffffffffffffffffffffffffffffffffff1681526020018381038352888882818152602001925060200280828437600081840152601f19601f820116905080830192505050838103825286818151815260200191508051906020019060200280838360005b83811015620014a457808201518184015260208101905062001487565b505050509050019950505050505050505050604051809103906000f080158015620014d3573d6000803e3d6000fd5b50905060408051908101604052806001151581526020018273ffffffffffffffffffffffffffffffffffffffff1681525060096000600854815260200190815260200160002060008201518160000160006101000a81548160ff02191690831515021790555060208201518160000160016101000a81548173ffffffffffffffffffffffffffffffffffffffff021916908373ffffffffffffffffffffffffffffffffffffffff16021790555090505060086000815480929190600101919050555060096000600160085403815260200190815260200160002060000160019054906101000a900473ffffffffffffffffffffffffffffffffffffffff169250505092915050565b60038054600181600116156101000203166002900480601f016020809104026020016040519081016040528092919081815260200182805460018160011615610100020316600290048015620016755780601f10620016495761010080835404028352916020019162001675565b820191906000526020600020905b8154815290600101906020018083116200165757829003601f168201915b505050505081565b60045481565b600560009054906101000a900473ffffffffffffffffffffffffffffffffffffffff1681565b600560009054906101000a900473ffffffffffffffffffffffffffffffffffffffff1673ffffffffffffffffffffffffffffffffffffffff163373ffffffffffffffffffffffffffffffffffffffff161415156200170657600080fd5b600a60006200171691906200266e565b565b60096020528060005260406000206000915090508060000160009054906101000a900460ff16908060000160019054906101000a900473ffffffffffffffffffffffffffffffffffffffff16905082565b60005481565b600560009054906101000a900473ffffffffffffffffffffffffffffffffffffffff1673ffffffffffffffffffffffffffffffffffffffff163373ffffffffffffffffffffffffffffffffffffffff16141515620017cc57600080fd5b8073ffffffffffffffffffffffffffffffffffffffff1663e9132c42600280811115620017f557fe5b6040518263ffffffff167c010000000000000000000000000000000000000000000000000000000002815260040180828152602001915050600060405180830381600087803b1580156200184857600080fd5b505af11580156200185d573d6000803e3d6000fd5b5050505050565b600560009054906101000a900473ffffffffffffffffffffffffffffffffffffffff1673ffffffffffffffffffffffffffffffffffffffff163373ffffffffffffffffffffffffffffffffffffffff16141515620018c157600080fd5b8073ffffffffffffffffffffffffffffffffffffffff1663e9132c4260016002811115620018eb57fe5b6040518263ffffffff167c010000000000000000000000000000000000000000000000000000000002815260040180828152602001915050600060405180830381600087803b1580156200193e57600080fd5b505af115801562001953573d6000803e3d6000fd5b5050505050565b6060600560009054906101000a900473ffffffffffffffffffffffffffffffffffffffff1673ffffffffffffffffffffffffffffffffffffffff163373ffffffffffffffffffffffffffffffffffffffff16141515620019b957600080fd5b600083839050111515620019cc57600080fd5b6020604051908101604052806000815250905060008090505b83839050811015620024115773__lib___________________________________63ff74927b8373__lib___________________________________63ff74927b73__lib___________________________________639201de558a8a89818110151562001a4f57fe5b905060200201356040518263ffffffff167c01000000000000000000000000000000000000000000000000000000000281526004018082815260200191505060006040518083038186803b15801562001aa757600080fd5b505af415801562001abc573d6000803e3d6000fd5b505050506040513d6000823e3d601f19601f82011682018060405250602081101562001ae757600080fd5b81019080805164010000000081111562001b0057600080fd5b8281019050602081018481111562001b1757600080fd5b815185600182028301116401000000008211171562001b3557600080fd5b50509291905050506040518263ffffffff167c0100000000000000000000000000000000000000000000000000000000028152600401808060200180602001838103835284818151815260200191508051906020019080838360005b8381101562001bae57808201518184015260208101905062001b91565b50505050905090810190601f16801562001bdc5780820380516001836020036101000a031916815260200191505b50838103825260018152602001807f3a00000000000000000000000000000000000000000000000000000000000000815250602001935050505060006040518083038186803b15801562001c2f57600080fd5b505af415801562001c44573d6000803e3d6000fd5b505050506040513d6000823e3d601f19601f82011682018060405250602081101562001c6f57600080fd5b81019080805164010000000081111562001c8857600080fd5b8281019050602081018481111562001c9f57600080fd5b815185600182028301116401000000008211171562001cbd57600080fd5b50509291905050506040518363ffffffff167c0100000000000000000000000000000000000000000000000000000000028152600401808060200180602001838103835285818151815260200191508051906020019080838360005b8381101562001d3657808201518184015260208101905062001d19565b50505050905090810190601f16801562001d645780820380516001836020036101000a031916815260200191505b50838103825284818151815260200191508051906020019080838360005b8381101562001d9f57808201518184015260208101905062001d82565b50505050905090810190601f16801562001dcd5780820380516001836020036101000a031916815260200191505b5094505050505060006040518083038186803b15801562001ded57600080fd5b505af415801562001e02573d6000803e3d6000fd5b505050506040513d6000823e3d601f19601f82011682018060405250602081101562001e2d57600080fd5b81019080805164010000000081111562001e4657600080fd5b8281019050602081018481111562001e5d57600080fd5b815185600182028301116401000000008211171562001e7b57600080fd5b50509291905050509150600062001fa873__lib___________________________________639201de55878786818110151562001eb457fe5b905060200201356040518263ffffffff167c01000000000000000000000000000000000000000000000000000000000281526004018082815260200191505060006040518083038186803b15801562001f0c57600080fd5b505af415801562001f21573d6000803e3d6000fd5b505050506040513d6000823e3d601f19601f82011682018060405250602081101562001f4c57600080fd5b81019080805164010000000081111562001f6557600080fd5b8281019050602081018481111562001f7c57600080fd5b815185600182028301116401000000008211171562001f9a57600080fd5b50509291905050506200249f565b90507fffffffffffffffffffffffffffffffffffffffffffffffffffffffffffffffff811415156200225c57600a8181548110151562001fe457fe5b906000526020600020906002020160008082016000905560018201600090555050600a6001600a80549050038154811015156200201d57fe5b9060005260206000209060020201600a828154811015156200203b57fe5b90600052602060002090600202016000820154816000015560018201548160010155905050600a6001600a80549050038154811015156200207857fe5b90600052602060002090600202016000808201600090556001820160009055505073__lib___________________________________63ff74927b846040518263ffffffff167c0100000000000000000000000000000000000000000000000000000000028152600401808060200180602001838103835284818151815260200191508051906020019080838360005b838110156200212557808201518184015260208101905062002108565b50505050905090810190601f168015620021535780820380516001836020036101000a031916815260200191505b50838103825260148152602001807f2052656d6f7665642053756365737366756c6c79000000000000000000000000815250602001935050505060006040518083038186803b158015620021a657600080fd5b505af4158015620021bb573d6000803e3d6000fd5b505050506040513d6000823e3d601f19601f820116820180604052506020811015620021e657600080fd5b810190808051640100000000811115620021ff57600080fd5b828101905060208101848111156200221657600080fd5b81518560018202830111640100000000821117156200223457600080fd5b50509291905050509250600a80548091906001900362002255919062002694565b5062002402565b73__lib___________________________________63ff74927b846040518263ffffffff167c0100000000000000000000000000000000000000000000000000000000028152600401808060200180602001838103835284818151815260200191508051906020019080838360005b83811015620022e8578082015181840152602081019050620022cb565b50505050905090810190601f168015620023165780820380516001836020036101000a031916815260200191505b508381038252601e8152602001807f204572726f722c20636f756c64206e6f742066696e6420696e206d656e750000815250602001935050505060006040518083038186803b1580156200236957600080fd5b505af41580156200237e573d6000803e3d6000fd5b505050506040513d6000823e3d601f19601f820116820180604052506020811015620023a957600080fd5b810190808051640100000000811115620023c257600080fd5b82810190506020810184811115620023d957600080fd5b8151856001820283011164010000000082111715620023f757600080fd5b505092919050505092505b508080600101915050620019e5565b5080905092915050565b600a818154811015156200242b57fe5b90600052602060002090600202016000915090508060000154908060010154905082565b600080600a838154811015156200246257fe5b906000526020600020906002020160000154600a848154811015156200248457fe5b90600052602060002090600202016001015491509150915091565b600080600090505b600a805490508112156200260157620025e373__lib___________________________________639201de55600a84815481101515620024e357fe5b9060005260206000209060020201600001546040518263ffffffff167c01000000000000000000000000000000000000000000000000000000000281526004018082815260200191505060006040518083038186803b1580156200254657600080fd5b505af41580156200255b573d6000803e3d6000fd5b505050506040513d6000823e3d601f19601f8201168201806040525060208110156200258657600080fd5b8101908080516401000000008111156200259f57600080fd5b82810190506020810184811115620025b657600080fd5b8151856001820283011164010000000082111715620025d457600080fd5b5050929190505050846200262b565b15620025f3578091505062002626565b8080600101915050620024a7565b507fffffffffffffffffffffffffffffffffffffffffffffffffffffffffffffffff90505b919050565b60008151835114151562002643576000905062002657565b818051906020012083805190602001201490505b92915050565b60405161177880620026fc83390190565b5080546000825560020290600052602060002090810190620026919190620026c9565b50565b815481835581811115620026c457600202816002028360005260206000209182019101620026c39190620026c9565b5b505050565b620026f891905b80821115620026f457600080820160009055600182016000905550600201620026d0565b5090565b9056fe60806040523480156200001157600080fd5b506040516200177838038062001778833981018060405260c08110156200003757600080fd5b81019080805190602001909291908051906020019092919080516401000000008111156200006457600080fd5b828101905060208101848111156200007b57600080fd5b81518560208202830111640100000000821117156200009957600080fd5b50509291906020018051640100000000811115620000b657600080fd5b82810190506020810184811115620000cd57600080fd5b8151856020820283011164010000000082111715620000eb57600080fd5b505092919060200180519060200190929190805190602001909291905050508473ffffffffffffffffffffffffffffffffffffffff166379a4fa27336040518263ffffffff167c0100000000000000000000000000000000000000000000000000000000028152600401808273ffffffffffffffffffffffffffffffffffffffff1673ffffffffffffffffffffffffffffffffffffffff16815260200191505060206040518083038186803b158015620001a457600080fd5b505afa158015620001b9573d6000803e3d6000fd5b505050506040513d6020811015620001d057600080fd5b810190808051906020019092919050505015156200027c576040517f08c379a000000000000000000000000000000000000000000000000000000000815260040180806020018281038252603d8152602001807f617474656d7074656420746f206d616b65206f726465722066726f6d2061646481526020017f726573732074686174206973206e6f7420612072657374617572616e7400000081525060400191505060405180910390fd5b825184511415156200028d57600080fd5b8560038190555033600560006101000a81548173ffffffffffffffffffffffffffffffffffffffff021916908373ffffffffffffffffffffffffffffffffffffffff16021790555080600760006101000a81548173ffffffffffffffffffffffffffffffffffffffff021916908373ffffffffffffffffffffffffffffffffffffffff16021790555084600460006101000a81548173ffffffffffffffffffffffffffffffffffffffff021916908373ffffffffffffffffffffffffffffffffffffffff16021790555081600860006101000a81548173ffffffffffffffffffffffffffffffffffffffff021916908373ffffffffffffffffffffffffffffffffffffffff1602179055506000600a819055506000600c8190555060008090505b84518110156200058757604080519081016040528073__lib___________________________________639201de558885815181101515620003ec57fe5b906020019060200201516040518263ffffffff167c01000000000000000000000000000000000000000000000000000000000281526004018082815260200191505060006040518083038186803b1580156200044757600080fd5b505af41580156200045c573d6000803e3d6000fd5b505050506040513d6000823e3d601f19601f8201168201806040525060208110156200048757600080fd5b810190808051640100000000811115620004a057600080fd5b82810190506020810184811115620004b757600080fd5b8151856001820283011164010000000082111715620004d557600080fd5b505092919050505081526020018583815181101515620004f157fe5b90602001906020020151815250600d6000600c548152602001908152602001600020600082015181600001908051906020019062000531929190620005d8565b506020820151816001015590505083818151811015156200054e57fe5b90602001906020020151600a60008282540192505081905550600c600081548092919060010191905055508080600101915050620003ae565b5060c8600b81905550600060038111156200059e57fe5b60008190555060006002811115620005b257fe5b60028190555060006002811115620005c657fe5b60018190555050505050505062000687565b828054600181600116156101000203166002900490600052602060002090601f016020900481019282601f106200061b57805160ff19168380011785556200064c565b828001600101855582156200064c579182015b828111156200064b5782518255916020019190600101906200062e565b5b5090506200065b91906200065f565b5090565b6200068491905b808211156200068057600081600090555060010162000666565b5090565b90565b6110e180620006976000396000f3fe6080604052600436106100db576000357c0100000000000000000000000000000000000000000000000000000000900463ffffffff16806312065fe0146100e05780632799276d1461010b5780633129e77314610136578063329408161461018c5780633733d9f5146101b75780633e3ca4d3146101e257806368db65a41461020d5780638d74d1ca14610264578063a14b7e681461026e578063af640d0f14610299578063bd3e19d4146102c4578063bfb231d2146102ef578063c7529f0c146103aa578063e9132c42146103b4578063ed168058146103e2575b600080fd5b3480156100ec57600080fd5b506100f5610439565b6040518082815260200191505060405180910390f35b34801561011757600080fd5b50610120610458565b6040518082815260200191505060405180910390f35b34801561014257600080fd5b5061016f6004803603602081101561015957600080fd5b810190808035906020019092919050505061045e565b604051808381526020018281526020019250505060405180910390f35b34801561019857600080fd5b506101a16106ca565b6040518082815260200191505060405180910390f35b3480156101c357600080fd5b506101cc6106d0565b6040518082815260200191505060405180910390f35b3480156101ee57600080fd5b506101f76107e6565b6040518082815260200191505060405180910390f35b34801561021957600080fd5b506102226107ec565b604051808273ffffffffffffffffffffffffffffffffffffffff1673ffffffffffffffffffffffffffffffffffffffff16815260200191505060405180910390f35b61026c610812565b005b34801561027a57600080fd5b506102836109b6565b6040518082815260200191505060405180910390f35b3480156102a557600080fd5b506102ae6109bc565b6040518082815260200191505060405180910390f35b3480156102d057600080fd5b506102d96109c2565b6040518082815260200191505060405180910390f35b3480156102fb57600080fd5b506103286004803603602081101561031257600080fd5b81019080803590602001909291905050506109cc565b6040518080602001838152602001828103825284818151815260200191508051906020019080838360005b8381101561036e578082015181840152602081019050610353565b50505050905090810190601f16801561039b5780820380516001836020036101000a031916815260200191505b50935050505060405180910390f35b6103b2610a88565b005b6103e0600480360360208110156103ca57600080fd5b8101908080359060200190929190505050610c8c565b005b3480156103ee57600080fd5b506103f761108f565b604051808273ffffffffffffffffffffffffffffffffffffffff1673ffffffffffffffffffffffffffffffffffffffff16815260200191505060405180910390f35b60003073ffffffffffffffffffffffffffffffffffffffff1631905090565b600c5481565b6000803373ffffffffffffffffffffffffffffffffffffffff16600760009054906101000a900473ffffffffffffffffffffffffffffffffffffffff1673ffffffffffffffffffffffffffffffffffffffff16148061050a57503373ffffffffffffffffffffffffffffffffffffffff16600560009054906101000a900473ffffffffffffffffffffffffffffffffffffffff1673ffffffffffffffffffffffffffffffffffffffff16145b8061056257503373ffffffffffffffffffffffffffffffffffffffff16600660009054906101000a900473ffffffffffffffffffffffffffffffffffffffff1673ffffffffffffffffffffffffffffffffffffffff16145b151561056d57600080fd5b73__lib___________________________________63cfb51928600d60008681526020019081526020016000206000016040518263ffffffff167c010000000000000000000000000000000000000000000000000000000002815260040180806020018281038252838181546001816001161561010002031660029004815260200191508054600181600116156101000203166002900480156106515780601f1061062657610100808354040283529160200191610651565b820191906000526020600020905b81548152906001019060200180831161063457829003601f168201915b50509250505060206040518083038186803b15801561066f57600080fd5b505af4158015610683573d6000803e3d6000fd5b505050506040513d602081101561069957600080fd5b8101908080519060200190929190505050600d60008581526020019081526020016000206001015491509150915091565b60015481565b60003373ffffffffffffffffffffffffffffffffffffffff16600760009054906101000a900473ffffffffffffffffffffffffffffffffffffffff1673ffffffffffffffffffffffffffffffffffffffff16148061077b57503373ffffffffffffffffffffffffffffffffffffffff16600560009054906101000a900473ffffffffffffffffffffffffffffffffffffffff1673ffffffffffffffffffffffffffffffffffffffff16145b806107d357503373ffffffffffffffffffffffffffffffffffffffff16600660009054906101000a900473ffffffffffffffffffffffffffffffffffffffff1673ffffffffffffffffffffffffffffffffffffffff16145b15156107de57600080fd5b600954905090565b60005481565b600460009054906101000a900473ffffffffffffffffffffffffffffffffffffffff1681565b600760009054906101000a900473ffffffffffffffffffffffffffffffffffffffff1673ffffffffffffffffffffffffffffffffffffffff163373ffffffffffffffffffffffffffffffffffffffff161415156108fd576040517f08c379a00000000000000000000000000000000000000000000000000000000081526004018080602001828103825260288152602001807f6f6e6c792074686520637573746f6d65722063616e2070617920666f7220746881526020017f6973206f7264657200000000000000000000000000000000000000000000000081525060400191505060405180910390fd5b600b54600a540134101515156109a1576040517f08c379a00000000000000000000000000000000000000000000000000000000081526004018080602001828103825260228152602001807f6e6f7420656e6f7567682065746865722073656e7420746f20746865206f726481526020017f657200000000000000000000000000000000000000000000000000000000000081525060400191505060405180910390fd5b600160028111156109ae57fe5b600281905550565b60025481565b60035481565b6000600a54905090565b600d602052806000526040600020600091509050806000018054600181600116156101000203166002900480601f016020809104026020016040519081016040528092919081815260200182805460018160011615610100020316600290048015610a785780601f10610a4d57610100808354040283529160200191610a78565b820191906000526020600020905b815481529060010190602001808311610a5b57829003601f168201915b5050505050908060010154905082565b600860009054906101000a900473ffffffffffffffffffffffffffffffffffffffff1673ffffffffffffffffffffffffffffffffffffffff1663c9286d576040518163ffffffff167c010000000000000000000000000000000000000000000000000000000002815260040160206040518083038186803b158015610b0c57600080fd5b505afa158015610b20573d6000803e3d6000fd5b505050506040513d6020811015610b3657600080fd5b810190808051906020019092919050505073ffffffffffffffffffffffffffffffffffffffff166313952670336040518263ffffffff167c0100000000000000000000000000000000000000000000000000000000028152600401808273ffffffffffffffffffffffffffffffffffffffff1673ffffffffffffffffffffffffffffffffffffffff16815260200191505060206040518083038186803b158015610bdf57600080fd5b505afa158015610bf3573d6000803e3d6000fd5b505050506040513d6020811015610c0957600080fd5b81019080805190602001909291905050501515610c2557600080fd5b600a543410151515610c3657600080fd5b60016003811115610c4357fe5b60008190555033600660006101000a81548173ffffffffffffffffffffffffffffffffffffffff021916908373ffffffffffffffffffffffffffffffffffffffff160217905550565b600660009054906101000a900473ffffffffffffffffffffffffffffffffffffffff1673ffffffffffffffffffffffffffffffffffffffff163373ffffffffffffffffffffffffffffffffffffffff161480610d355750600560009054906101000a900473ffffffffffffffffffffffffffffffffffffffff1673ffffffffffffffffffffffffffffffffffffffff163373ffffffffffffffffffffffffffffffffffffffff16145b80610d8d5750600760009054906101000a900473ffffffffffffffffffffffffffffffffffffffff1673ffffffffffffffffffffffffffffffffffffffff163373ffffffffffffffffffffffffffffffffffffffff16145b1515610e4d576040517f08c379a00000000000000000000000000000000000000000000000000000000081526004018080602001828103825260508152602001807f596f7520646f6e742068617665207065726d697373696f6e20746f207365652081526020017f74686973206f726465722c2064696420796f752067657420746865206f72646581526020017f7220616464726573732077726f6e673f0000000000000000000000000000000081525060600191505060405180910390fd5b600660009054906101000a900473ffffffffffffffffffffffffffffffffffffffff1673ffffffffffffffffffffffffffffffffffffffff163373ffffffffffffffffffffffffffffffffffffffff161415610eaf5780600081905550611009565b600560009054906101000a900473ffffffffffffffffffffffffffffffffffffffff1673ffffffffffffffffffffffffffffffffffffffff163373ffffffffffffffffffffffffffffffffffffffff161415610f115780600181905550611008565b600760009054906101000a900473ffffffffffffffffffffffffffffffffffffffff1673ffffffffffffffffffffffffffffffffffffffff163373ffffffffffffffffffffffffffffffffffffffff161415610f735780600281905550611007565b6040517f08c379a00000000000000000000000000000000000000000000000000000000081526004018080602001828103825260358152602001807f4572726f723a20756e617574686f72697365726420616464726573732061636381526020017f657373696e67207365744f72646572537461747573000000000000000000000081525060400191505060405180910390fd5b5b5b600360005414801561101c575060028054145b1561108c57600660009054906101000a900473ffffffffffffffffffffffffffffffffffffffff1673ffffffffffffffffffffffffffffffffffffffff166108fc60649081150290604051600060405180830381858888f1935050505015801561108a573d6000803e3d6000fd5b505b50565b600560009054906101000a900473ffffffffffffffffffffffffffffffffffffffff168156fea165627a7a723058207ea0605b9269d897a373e03eb2be181efb6a5cf2ef2b47da81765ae288d69fdb0029a165627a7a72305820cdbe2bafcaddf47554ce1bc74e521f9c7f70e66167f229d344347dd24defc4800029",
  "source": "pragma solidity ^0.5.0;\n\n import \"./lib.sol\";\n import \"./Order.sol\";\n import \"./RestaurantFactory.sol\";\n import \"./CustomerFactory.sol\";\n import \"./Controller.sol\";\n\ncontract Restaurant {\n\n    using lib for bytes32;\n\n\tuint public id;\n\tstring public name;\n\tstring public location;\n\tstring public contactNumber;\n\tuint public rating;\n\n\taddress public owner;\n    address public controllerAddress;\n\taddress public restaurantFactoryAddress;\n\n\n    struct order{bool open; address orderAddress;}\n\tuint public totalOrders;\n\tmapping(uint => order) public orders; // must be a better way to store the orders\n\t\n\tstruct Item{\n\t\tbytes32 itemName;\n\t\tuint itemCost; // in wei (10^-18 Eth)\n\t}\n\t\n\tItem[] public menu; // should probably change this to a mapping\n\n    enum restaurantState{acceptedOrder, preparingCargo, HandedOver}\n\t\n\n\tconstructor(address _controller, address _owner, uint _id, string memory _name,string memory _address,string memory _contactNumber) public {\n\t\tid = _id;\n\t\tname = _name;\n\t\tlocation = _address;\n\t\tcontactNumber = _contactNumber;\n\t\ttotalOrders = 0;\n\n        controllerAddress = _controller;\n\t\towner = _owner;\n\t\trestaurantFactoryAddress = msg.sender;\n\t}\n\n    function getMenuLength() external view returns(uint length){\n        return menu.length;\n    }\n\n    function clearMenu() external {\n        require(msg.sender == owner);\n        delete menu;\n    }\n    \n    function menuAddItems(bytes32[] calldata itemNames, uint[] calldata prices) external {\n        require(msg.sender == owner);\n        require(itemNames.length == prices.length);\n        \n        // should add checks that an item isn't added twice\n        for(uint i = 0; i<itemNames.length;i++){\n            menu.push(Item(itemNames[i], prices[i]));\n        }\n    }\n\n    \n    // could add ids to menu items then remove by id to lower gas cost\n    function menuRemoveItems(bytes32[] calldata itemNames) external returns(string memory result){\n        require(msg.sender == owner);\n        require(itemNames.length>0);\n        result = \"\";\n        for(uint i = 0; i<itemNames.length;i++){\n            result = lib.strConcat(result,lib.strConcat(lib.bytes32ToString(itemNames[i]),\":\"));\n            int index = menuSearch(lib.bytes32ToString(itemNames[i]));\n            if(index!=-1){\n                delete menu[uint(index)];\n                menu[uint(index)] = menu[menu.length-1];\n                delete menu[menu.length-1];\n                result = lib.strConcat(result,\" Removed Sucessfully\");\n                menu.length--;\n            }\n            else{\n                result = lib.strConcat(result, \" Error, could not find in menu\");\n            }\n        }\n        \n        return result;\n    }\n    \n    function menuSearch(string memory query) private view returns(int index){\n        for(int i = 0; i<int(menu.length);i++){\n            if(lib.compareStrings(lib.bytes32ToString(menu[uint(i)].itemName),query)){\n                return i;\n            }\n        }\n        return -1;\n    }\n\n    function validOrder(bytes32[] memory items) public view returns (bool isValid, uint price){\n        uint priceSum;\n        for(uint i = 0; i < items.length; i++){\n            int index = menuSearch(lib.bytes32ToString(items[i]));\n            if(index == -1){\n                return (false,0);\n            }\n            else{\n                priceSum += menu[uint(index)].itemCost; \n            }\n        }\n        return (true,priceSum);\n    }\n    \n    function makeOrder(bytes32[] calldata items) external payable returns (address orderAddress) {\n        //require this comes from a customer smart contract\n        require(CustomerFactory(Controller(controllerAddress).customerFactoryAddress()).customerExists(msg.sender), \"Customer doesnt exist\");\n        \n\n        uint[] memory prices = new uint[](items.length);\n        for(uint i = 0; i < items.length; i++)\n        {\n            string memory a = lib.bytes32ToString(items[i]); \n            int index = menuSearch(a); \n            \n            if (index != -1){\n                prices[i] = menu[uint(index)].itemCost;\n            }\n            else{\n                revert(\"Invalid Items\");\n            }\n        }\n        \n\n        \n\t\tOrder newOrder = new Order(totalOrders,restaurantFactoryAddress,items,prices,controllerAddress, msg.sender);\n\t\torders[totalOrders] = order(true,address(newOrder));\n        totalOrders ++;\n\t\treturn orders[totalOrders - 1].orderAddress;       \n    }\n    \n    function getMenuItem(uint itemId)public view returns(bytes32 itemname, uint cost){\n        return (menu[itemId].itemName,menu[itemId].itemCost);\n    }\n\n    // toDo, could pass in orderID instead reduce gas\n    function setStatusPrepairing(address orderAddress) public { \n        require(msg.sender == owner);\n        Order(orderAddress).setOrderStatus(uint(restaurantState.preparingCargo));\n    }    \n\n    function handOverCargo(address orderAddress) public {\n        require(msg.sender == owner);\n        Order(orderAddress).setOrderStatus(uint(restaurantState.HandedOver));\n    }\n}",
  "sourcePath": "/home/george/Documents/University/Dissertation/TryAByte/contracts/Restaurant.sol",
  "compiler": {
    "name": "solc",
    "version": "0.5.0+commit.1d4f565a.Emscripten.clang"
  },
  "schemaVersion": "3.0.2",
  "updatedAt": "2019-03-20T12:15:23.802Z",
  "devdoc": {
    "methods": {}
  },
  "userdoc": {
    "methods": {}
  }
}