{
  "contractName": "Restaurant",
  "abi": [
    {
      "constant": true,
      "inputs": [],
      "name": "name",
      "outputs": [
        {
          "name": "",
          "type": "string"
        }
      ],
      "payable": false,
      "stateMutability": "view",
      "type": "function"
    },
    {
      "constant": true,
      "inputs": [],
      "name": "totalOrders",
      "outputs": [
        {
          "name": "",
          "type": "uint256"
        }
      ],
      "payable": false,
      "stateMutability": "view",
      "type": "function"
    },
    {
      "constant": true,
      "inputs": [],
      "name": "location",
      "outputs": [
        {
          "name": "",
          "type": "string"
        }
      ],
      "payable": false,
      "stateMutability": "view",
      "type": "function"
    },
    {
      "constant": true,
      "inputs": [],
      "name": "restaurantFactoryAddress",
      "outputs": [
        {
          "name": "",
          "type": "address"
        }
      ],
      "payable": false,
      "stateMutability": "view",
      "type": "function"
    },
    {
      "constant": true,
      "inputs": [],
      "name": "contactNumber",
      "outputs": [
        {
          "name": "",
          "type": "string"
        }
      ],
      "payable": false,
      "stateMutability": "view",
      "type": "function"
    },
    {
      "constant": true,
      "inputs": [],
      "name": "rating",
      "outputs": [
        {
          "name": "",
          "type": "uint256"
        }
      ],
      "payable": false,
      "stateMutability": "view",
      "type": "function"
    },
    {
      "constant": true,
      "inputs": [],
      "name": "owner",
      "outputs": [
        {
          "name": "",
          "type": "address"
        }
      ],
      "payable": false,
      "stateMutability": "view",
      "type": "function"
    },
    {
      "constant": true,
      "inputs": [
        {
          "name": "",
          "type": "uint256"
        }
      ],
      "name": "orders",
      "outputs": [
        {
          "name": "",
          "type": "address"
        }
      ],
      "payable": false,
      "stateMutability": "view",
      "type": "function"
    },
    {
      "constant": true,
      "inputs": [],
      "name": "CustomerFactory",
      "outputs": [
        {
          "name": "",
          "type": "address"
        }
      ],
      "payable": false,
      "stateMutability": "view",
      "type": "function"
    },
    {
      "constant": true,
      "inputs": [
        {
          "name": "",
          "type": "uint256"
        }
      ],
      "name": "menu",
      "outputs": [
        {
          "name": "itemName",
          "type": "bytes32"
        },
        {
          "name": "itemCost",
          "type": "uint256"
        }
      ],
      "payable": false,
      "stateMutability": "view",
      "type": "function"
    },
    {
      "inputs": [
        {
          "name": "_id",
          "type": "uint256"
        },
        {
          "name": "_name",
          "type": "string"
        },
        {
          "name": "_address",
          "type": "string"
        },
        {
          "name": "_contactNumber",
          "type": "string"
        }
      ],
      "payable": false,
      "stateMutability": "nonpayable",
      "type": "constructor"
    },
    {
      "constant": true,
      "inputs": [],
      "name": "getMenuLength",
      "outputs": [
        {
          "name": "length",
          "type": "uint256"
        }
      ],
      "payable": false,
      "stateMutability": "view",
      "type": "function"
    },
    {
      "constant": false,
      "inputs": [],
      "name": "clearMenu",
      "outputs": [],
      "payable": false,
      "stateMutability": "nonpayable",
      "type": "function"
    },
    {
      "constant": false,
      "inputs": [
        {
          "name": "itemNames",
          "type": "bytes32[]"
        },
        {
          "name": "prices",
          "type": "uint256[]"
        }
      ],
      "name": "menuAddItems",
      "outputs": [],
      "payable": false,
      "stateMutability": "nonpayable",
      "type": "function"
    },
    {
      "constant": false,
      "inputs": [
        {
          "name": "itemNames",
          "type": "bytes32[]"
        }
      ],
      "name": "menuRemoveItems",
      "outputs": [
        {
          "name": "result",
          "type": "string"
        }
      ],
      "payable": false,
      "stateMutability": "nonpayable",
      "type": "function"
    },
    {
      "constant": false,
      "inputs": [
        {
          "name": "items",
          "type": "bytes32[]"
        }
      ],
      "name": "makeOrder",
      "outputs": [
        {
          "name": "orderAddress",
          "type": "address"
        }
      ],
      "payable": false,
      "stateMutability": "nonpayable",
      "type": "function"
    },
    {
      "constant": true,
      "inputs": [
        {
          "name": "itemId",
          "type": "uint256"
        }
      ],
      "name": "getMenuItem",
      "outputs": [
        {
          "name": "itemname",
          "type": "bytes32"
        },
        {
          "name": "cost",
          "type": "uint256"
        }
      ],
      "payable": false,
      "stateMutability": "view",
      "type": "function"
    }
  ],
  "bytecode": "0x60806040523480156200001157600080fd5b506040516200291338038062002913833981018060405260808110156200003757600080fd5b810190808051906020019092919080516401000000008111156200005a57600080fd5b828101905060208101848111156200007157600080fd5b81518560018202830111640100000000821117156200008f57600080fd5b50509291906020018051640100000000811115620000ac57600080fd5b82810190506020810184811115620000c357600080fd5b8151856001820283011164010000000082111715620000e157600080fd5b50509291906020018051640100000000811115620000fe57600080fd5b828101905060208101848111156200011557600080fd5b81518560018202830111640100000000821117156200013357600080fd5b50509291905050508360008190555082600190805190602001906200015a92919062000221565b5081600290805190602001906200017392919062000221565b5080600390805190602001906200018c92919062000221565b50600060088190555032600560006101000a81548173ffffffffffffffffffffffffffffffffffffffff021916908373ffffffffffffffffffffffffffffffffffffffff16021790555033600660006101000a81548173ffffffffffffffffffffffffffffffffffffffff021916908373ffffffffffffffffffffffffffffffffffffffff16021790555050505050620002d0565b828054600181600116156101000203166002900490600052602060002090601f016020900481019282601f106200026457805160ff191683800117855562000295565b8280016001018555821562000295579182015b828111156200029457825182559160200191906001019062000277565b5b509050620002a49190620002a8565b5090565b620002cd91905b80821115620002c9576000816000905550600101620002af565b5090565b90565b61263380620002e06000396000f3fe608060405260043610620000f7576000357c0100000000000000000000000000000000000000000000000000000000900463ffffffff16806306fdde0314620000fc578063125ba97714620001925780631d83440914620001c05780633e92c46814620001ee578063516f279e14620002d357806368db65a4146200036957806372bb567814620003c357806376af633c146200049057806380f474f614620005265780638da5cb5b1462000554578063a4e4f20114620005ae578063a85c38ef14620005c8578063c4cd94761462000647578063c7c6d87f14620006a1578063cffb703c14620007aa578063f943eecd1462000804575b600080fd5b3480156200010957600080fd5b50620001146200085e565b6040518080602001828103825283818151815260200191508051906020019080838360005b838110156200015657808201518184015260208101905062000139565b50505050905090810190601f168015620001845780820380516001836020036101000a031916815260200191505b509250505060405180910390f35b3480156200019f57600080fd5b50620001aa62000900565b6040518082815260200191505060405180910390f35b348015620001cd57600080fd5b50620001d86200090d565b6040518082815260200191505060405180910390f35b348015620001fb57600080fd5b50620002d1600480360360408110156200021457600080fd5b81019080803590602001906401000000008111156200023257600080fd5b8201836020820111156200024557600080fd5b803590602001918460208302840111640100000000831117156200026857600080fd5b9091929391929390803590602001906401000000008111156200028a57600080fd5b8201836020820111156200029d57600080fd5b80359060200191846020830284011164010000000083111715620002c057600080fd5b909192939192939050505062000913565b005b348015620002e057600080fd5b50620002eb620009d2565b6040518080602001828103825283818151815260200191508051906020019080838360005b838110156200032d57808201518184015260208101905062000310565b50505050905090810190601f1680156200035b5780820380516001836020036101000a031916815260200191505b509250505060405180910390f35b3480156200037657600080fd5b506200038162000a74565b604051808273ffffffffffffffffffffffffffffffffffffffff1673ffffffffffffffffffffffffffffffffffffffff16815260200191505060405180910390f35b348015620003d057600080fd5b506200044e60048036036020811015620003e957600080fd5b81019080803590602001906401000000008111156200040757600080fd5b8201836020820111156200041a57600080fd5b803590602001918460208302840111640100000000831117156200043d57600080fd5b909192939192939050505062000a9a565b604051808273ffffffffffffffffffffffffffffffffffffffff1673ffffffffffffffffffffffffffffffffffffffff16815260200191505060405180910390f35b3480156200049d57600080fd5b50620004a862000e4c565b6040518080602001828103825283818151815260200191508051906020019080838360005b83811015620004ea578082015181840152602081019050620004cd565b50505050905090810190601f168015620005185780820380516001836020036101000a031916815260200191505b509250505060405180910390f35b3480156200053357600080fd5b506200053e62000eee565b6040518082815260200191505060405180910390f35b3480156200056157600080fd5b506200056c62000ef4565b604051808273ffffffffffffffffffffffffffffffffffffffff1673ffffffffffffffffffffffffffffffffffffffff16815260200191505060405180910390f35b348015620005bb57600080fd5b50620005c662000f1a565b005b348015620005d557600080fd5b506200060560048036036020811015620005ee57600080fd5b810190808035906020019092919050505062000f89565b604051808273ffffffffffffffffffffffffffffffffffffffff1673ffffffffffffffffffffffffffffffffffffffff16815260200191505060405180910390f35b3480156200065457600080fd5b506200065f62000fbc565b604051808273ffffffffffffffffffffffffffffffffffffffff1673ffffffffffffffffffffffffffffffffffffffff16815260200191505060405180910390f35b348015620006ae57600080fd5b506200072c60048036036020811015620006c757600080fd5b8101908080359060200190640100000000811115620006e557600080fd5b820183602082011115620006f857600080fd5b803590602001918460208302840111640100000000831117156200071b57600080fd5b909192939192939050505062000fe2565b6040518080602001828103825283818151815260200191508051906020019080838360005b838110156200076e57808201518184015260208101905062000751565b50505050905090810190601f1680156200079c5780820380516001836020036101000a031916815260200191505b509250505060405180910390f35b348015620007b757600080fd5b50620007e760048036036020811015620007d057600080fd5b810190808035906020019092919050505062001aa3565b604051808381526020018281526020019250505060405180910390f35b3480156200081157600080fd5b5062000841600480360360208110156200082a57600080fd5b810190808035906020019092919050505062001ad7565b604051808381526020018281526020019250505060405180910390f35b60018054600181600116156101000203166002900480601f016020809104026020016040519081016040528092919081815260200182805460018160011615610100020316600290048015620008f85780601f10620008cc57610100808354040283529160200191620008f8565b820191906000526020600020905b815481529060010190602001808311620008da57829003601f168201915b505050505081565b6000600a80549050905090565b60085481565b81819050848490501415156200092857600080fd5b60008090505b84849050811015620009cb57600a604080519081016040528087878581811015156200095657fe5b90506020020135815260200185858581811015156200097157fe5b9050602002013581525090806001815401808255809150509060018203906000526020600020906002020160009091929091909150600082015181600001556020820151816001015550505080806001019150506200092e565b5050505050565b60028054600181600116156101000203166002900480601f01602080910402602001604051908101604052809291908181526020018280546001816001161561010002031660029004801562000a6c5780601f1062000a405761010080835404028352916020019162000a6c565b820191906000526020600020905b81548152906001019060200180831162000a4e57829003601f168201915b505050505081565b600660009054906101000a900473ffffffffffffffffffffffffffffffffffffffff1681565b600060608383905060405190808252806020026020018201604052801562000ad15781602001602082028038833980820191505090505b50905060008090505b8484905081101562000c9457606073__lib___________________________________639201de55878785818110151562000b1157fe5b905060200201356040518263ffffffff167c01000000000000000000000000000000000000000000000000000000000281526004018082815260200191505060006040518083038186803b15801562000b6957600080fd5b505af415801562000b7e573d6000803e3d6000fd5b505050506040513d6000823e3d601f19601f82011682018060405250602081101562000ba957600080fd5b81019080805164010000000081111562000bc257600080fd5b8281019050602081018481111562000bd957600080fd5b815185600182028301116401000000008211171562000bf757600080fd5b50509291905050509050600062000c0e8262001b27565b90507fffffffffffffffffffffffffffffffffffffffffffffffffffffffffffffffff8114151562000c7f57600a8181548110151562000c4a57fe5b906000526020600020906002020160010154848481518110151562000c6b57fe5b906020019060200201818152505062000c84565b600080fd5b5050808060010191505062000ada565b506008600081548092919060010191905055506000600854600660009054906101000a900473ffffffffffffffffffffffffffffffffffffffff1686868562000cdc62001ce5565b808681526020018573ffffffffffffffffffffffffffffffffffffffff1673ffffffffffffffffffffffffffffffffffffffff16815260200180602001806020018381038352868682818152602001925060200280828437600081840152601f19601f820116905080830192505050838103825284818151815260200191508051906020019060200280838360005b8381101562000d8857808201518184015260208101905062000d6b565b50505050905001975050505050505050604051809103906000f08015801562000db5573d6000803e3d6000fd5b5090508060096000600854815260200190815260200160002060006101000a81548173ffffffffffffffffffffffffffffffffffffffff021916908373ffffffffffffffffffffffffffffffffffffffff16021790555060096000600854815260200190815260200160002060009054906101000a900473ffffffffffffffffffffffffffffffffffffffff169250505092915050565b60038054600181600116156101000203166002900480601f01602080910402602001604051908101604052809291908181526020018280546001816001161561010002031660029004801562000ee65780601f1062000eba5761010080835404028352916020019162000ee6565b820191906000526020600020905b81548152906001019060200180831162000ec857829003601f168201915b505050505081565b60045481565b600560009054906101000a900473ffffffffffffffffffffffffffffffffffffffff1681565b600560009054906101000a900473ffffffffffffffffffffffffffffffffffffffff1673ffffffffffffffffffffffffffffffffffffffff163373ffffffffffffffffffffffffffffffffffffffff1614151562000f7757600080fd5b600a600062000f87919062001cf6565b565b60096020528060005260406000206000915054906101000a900473ffffffffffffffffffffffffffffffffffffffff1681565b600760009054906101000a900473ffffffffffffffffffffffffffffffffffffffff1681565b6060600560009054906101000a900473ffffffffffffffffffffffffffffffffffffffff1673ffffffffffffffffffffffffffffffffffffffff163373ffffffffffffffffffffffffffffffffffffffff161415156200104157600080fd5b6000838390501115156200105457600080fd5b6020604051908101604052806000815250905060008090505b8383905081101562001a995773__lib___________________________________63ff74927b8373__lib___________________________________63ff74927b73__lib___________________________________639201de558a8a898181101515620010d757fe5b905060200201356040518263ffffffff167c01000000000000000000000000000000000000000000000000000000000281526004018082815260200191505060006040518083038186803b1580156200112f57600080fd5b505af415801562001144573d6000803e3d6000fd5b505050506040513d6000823e3d601f19601f8201168201806040525060208110156200116f57600080fd5b8101908080516401000000008111156200118857600080fd5b828101905060208101848111156200119f57600080fd5b8151856001820283011164010000000082111715620011bd57600080fd5b50509291905050506040518263ffffffff167c0100000000000000000000000000000000000000000000000000000000028152600401808060200180602001838103835284818151815260200191508051906020019080838360005b838110156200123657808201518184015260208101905062001219565b50505050905090810190601f168015620012645780820380516001836020036101000a031916815260200191505b50838103825260018152602001807f3a00000000000000000000000000000000000000000000000000000000000000815250602001935050505060006040518083038186803b158015620012b757600080fd5b505af4158015620012cc573d6000803e3d6000fd5b505050506040513d6000823e3d601f19601f820116820180604052506020811015620012f757600080fd5b8101908080516401000000008111156200131057600080fd5b828101905060208101848111156200132757600080fd5b81518560018202830111640100000000821117156200134557600080fd5b50509291905050506040518363ffffffff167c0100000000000000000000000000000000000000000000000000000000028152600401808060200180602001838103835285818151815260200191508051906020019080838360005b83811015620013be578082015181840152602081019050620013a1565b50505050905090810190601f168015620013ec5780820380516001836020036101000a031916815260200191505b50838103825284818151815260200191508051906020019080838360005b83811015620014275780820151818401526020810190506200140a565b50505050905090810190601f168015620014555780820380516001836020036101000a031916815260200191505b5094505050505060006040518083038186803b1580156200147557600080fd5b505af41580156200148a573d6000803e3d6000fd5b505050506040513d6000823e3d601f19601f820116820180604052506020811015620014b557600080fd5b810190808051640100000000811115620014ce57600080fd5b82810190506020810184811115620014e557600080fd5b81518560018202830111640100000000821117156200150357600080fd5b5050929190505050915060006200163073__lib___________________________________639201de5587878681811015156200153c57fe5b905060200201356040518263ffffffff167c01000000000000000000000000000000000000000000000000000000000281526004018082815260200191505060006040518083038186803b1580156200159457600080fd5b505af4158015620015a9573d6000803e3d6000fd5b505050506040513d6000823e3d601f19601f820116820180604052506020811015620015d457600080fd5b810190808051640100000000811115620015ed57600080fd5b828101905060208101848111156200160457600080fd5b81518560018202830111640100000000821117156200162257600080fd5b505092919050505062001b27565b90507fffffffffffffffffffffffffffffffffffffffffffffffffffffffffffffffff81141515620018e457600a818154811015156200166c57fe5b906000526020600020906002020160008082016000905560018201600090555050600a6001600a8054905003815481101515620016a557fe5b9060005260206000209060020201600a82815481101515620016c357fe5b90600052602060002090600202016000820154816000015560018201548160010155905050600a6001600a80549050038154811015156200170057fe5b90600052602060002090600202016000808201600090556001820160009055505073__lib___________________________________63ff74927b846040518263ffffffff167c0100000000000000000000000000000000000000000000000000000000028152600401808060200180602001838103835284818151815260200191508051906020019080838360005b83811015620017ad57808201518184015260208101905062001790565b50505050905090810190601f168015620017db5780820380516001836020036101000a031916815260200191505b50838103825260148152602001807f2052656d6f7665642053756365737366756c6c79000000000000000000000000815250602001935050505060006040518083038186803b1580156200182e57600080fd5b505af415801562001843573d6000803e3d6000fd5b505050506040513d6000823e3d601f19601f8201168201806040525060208110156200186e57600080fd5b8101908080516401000000008111156200188757600080fd5b828101905060208101848111156200189e57600080fd5b8151856001820283011164010000000082111715620018bc57600080fd5b50509291905050509250600a805480919060019003620018dd919062001d1c565b5062001a8a565b73__lib___________________________________63ff74927b846040518263ffffffff167c0100000000000000000000000000000000000000000000000000000000028152600401808060200180602001838103835284818151815260200191508051906020019080838360005b838110156200197057808201518184015260208101905062001953565b50505050905090810190601f1680156200199e5780820380516001836020036101000a031916815260200191505b508381038252601e8152602001807f204572726f722c20636f756c64206e6f742066696e6420696e206d656e750000815250602001935050505060006040518083038186803b158015620019f157600080fd5b505af415801562001a06573d6000803e3d6000fd5b505050506040513d6000823e3d601f19601f82011682018060405250602081101562001a3157600080fd5b81019080805164010000000081111562001a4a57600080fd5b8281019050602081018481111562001a6157600080fd5b815185600182028301116401000000008211171562001a7f57600080fd5b505092919050505092505b5080806001019150506200106d565b5080905092915050565b600a8181548110151562001ab357fe5b90600052602060002090600202016000915090508060000154908060010154905082565b600080600a8381548110151562001aea57fe5b906000526020600020906002020160000154600a8481548110151562001b0c57fe5b90600052602060002090600202016001015491509150915091565b600080600090505b600a8054905081121562001c895762001c6b73__lib___________________________________639201de55600a8481548110151562001b6b57fe5b9060005260206000209060020201600001546040518263ffffffff167c01000000000000000000000000000000000000000000000000000000000281526004018082815260200191505060006040518083038186803b15801562001bce57600080fd5b505af415801562001be3573d6000803e3d6000fd5b505050506040513d6000823e3d601f19601f82011682018060405250602081101562001c0e57600080fd5b81019080805164010000000081111562001c2757600080fd5b8281019050602081018481111562001c3e57600080fd5b815185600182028301116401000000008211171562001c5c57600080fd5b50509291905050508462001cb3565b1562001c7b578091505062001cae565b808060010191505062001b2f565b507fffffffffffffffffffffffffffffffffffffffffffffffffffffffffffffffff90505b919050565b60008151835114151562001ccb576000905062001cdf565b818051906020012083805190602001201490505b92915050565b6040516108848062001d8483390190565b508054600082556002029060005260206000209081019062001d19919062001d51565b50565b81548183558181111562001d4c5760020281600202836000526020600020918201910162001d4b919062001d51565b5b505050565b62001d8091905b8082111562001d7c5760008082016000905560018201600090555060020162001d58565b5090565b9056fe608060405234801561001057600080fd5b506040516108843803806108848339810180604052608081101561003357600080fd5b810190808051906020019092919080519060200190929190805164010000000081111561005f57600080fd5b8281019050602081018481111561007557600080fd5b815185602082028301116401000000008211171561009257600080fd5b505092919060200180516401000000008111156100ae57600080fd5b828101905060208101848111156100c457600080fd5b81518560208202830111640100000000821117156100e157600080fd5b50509291905050508273ffffffffffffffffffffffffffffffffffffffff166379a4fa27336040518263ffffffff167c0100000000000000000000000000000000000000000000000000000000028152600401808273ffffffffffffffffffffffffffffffffffffffff1673ffffffffffffffffffffffffffffffffffffffff16815260200191505060206040518083038186803b15801561018257600080fd5b505afa158015610196573d6000803e3d6000fd5b505050506040513d60208110156101ac57600080fd5b810190808051906020019092919050505015156101c857600080fd5b805182511415156101d857600080fd5b8360008190555033600160006101000a81548173ffffffffffffffffffffffffffffffffffffffff021916908373ffffffffffffffffffffffffffffffffffffffff16021790555032600360006101000a81548173ffffffffffffffffffffffffffffffffffffffff021916908373ffffffffffffffffffffffffffffffffffffffff16021790555082600260006101000a81548173ffffffffffffffffffffffffffffffffffffffff021916908373ffffffffffffffffffffffffffffffffffffffff160217905550600060048190555060008090505b825181101561045557604080519081016040528073__lib___________________________________639201de5586858151811015156102ec57fe5b906020019060200201516040518263ffffffff167c01000000000000000000000000000000000000000000000000000000000281526004018082815260200191505060006040518083038186803b15801561034657600080fd5b505af415801561035a573d6000803e3d6000fd5b505050506040513d6000823e3d601f19601f82011682018060405250602081101561038457600080fd5b81019080805164010000000081111561039c57600080fd5b828101905060208101848111156103b257600080fd5b81518560018202830111640100000000821117156103cf57600080fd5b5050929190505050815260200183838151811015156103ea57fe5b90602001906020020151815250600560006004548152602001908152602001600020600082015181600001908051906020019061042892919061045f565b506020820151816001015590505060046000815480929190600101919050555080806001019150506102b0565b5050505050610504565b828054600181600116156101000203166002900490600052602060002090601f016020900481019282601f106104a057805160ff19168380011785556104ce565b828001600101855582156104ce579182015b828111156104cd5782518255916020019190600101906104b2565b5b5090506104db91906104df565b5090565b61050191905b808211156104fd5760008160009055506001016104e5565b5090565b90565b610371806105136000396000f3fe60806040526004361061006d576000357c0100000000000000000000000000000000000000000000000000000000900463ffffffff1680632799276d1461007257806368db65a41461009d578063af640d0f146100f4578063bfb231d21461011f578063f10fa9de146101da575b600080fd5b34801561007e57600080fd5b50610087610231565b6040518082815260200191505060405180910390f35b3480156100a957600080fd5b506100b2610237565b604051808273ffffffffffffffffffffffffffffffffffffffff1673ffffffffffffffffffffffffffffffffffffffff16815260200191505060405180910390f35b34801561010057600080fd5b5061010961025d565b6040518082815260200191505060405180910390f35b34801561012b57600080fd5b506101586004803603602081101561014257600080fd5b8101908080359060200190929190505050610263565b6040518080602001838152602001828103825284818151815260200191508051906020019080838360005b8381101561019e578082015181840152602081019050610183565b50505050905090810190601f1680156101cb5780820380516001836020036101000a031916815260200191505b50935050505060405180910390f35b3480156101e657600080fd5b506101ef61031f565b604051808273ffffffffffffffffffffffffffffffffffffffff1673ffffffffffffffffffffffffffffffffffffffff16815260200191505060405180910390f35b60045481565b600260009054906101000a900473ffffffffffffffffffffffffffffffffffffffff1681565b60005481565b6005602052806000526040600020600091509050806000018054600181600116156101000203166002900480601f01602080910402602001604051908101604052809291908181526020018280546001816001161561010002031660029004801561030f5780601f106102e45761010080835404028352916020019161030f565b820191906000526020600020905b8154815290600101906020018083116102f257829003601f168201915b5050505050908060010154905082565b600160009054906101000a900473ffffffffffffffffffffffffffffffffffffffff168156fea165627a7a723058207341dfd01a9d26a9fd52ee09e56ba3d36362262efb6fce74a2b0baad60aef47c0029a165627a7a72305820031ec7c50e1550a8fceddd41fb00a1b7967f4c1db74c00c6331be63783f70c090029",
  "source": "pragma solidity ^0.5.0;\n\n import \"./lib.sol\";\n import \"./Order.sol\";\n import \"./RestaurantFactory.sol\";\n\ncontract Restaurant {\n\n    using lib for bytes32;\n\n\tuint id;\n\tstring public name;\n\tstring public location;\n\tstring public contactNumber;\n\tuint public rating;\n\taddress public owner;\n\taddress public restaurantFactoryAddress;\n\taddress public CustomerFactory;\n\n\tuint public totalOrders;\n\tmapping(uint => address) public orders;\n\t\n\tstruct Item{\n\t\tbytes32 itemName;\n\t\tuint itemCost; // in wei (10^-18 Eth)\n\t}\n\t\n\tItem[] public menu; // should probably change this to a mapping\n\t\n\n\tconstructor(uint _id, string memory _name,string memory _address,string memory _contactNumber) public {\n\t\tid = _id;\n\t\tname = _name;\n\t\tlocation = _address;\n\t\tcontactNumber = _contactNumber;\n\t\ttotalOrders = 0;\n\t\towner = tx.origin; // assign owner of the order to the account that called the restaurant factory \n\t\trestaurantFactoryAddress = msg.sender;\n\t}\n\n    function getMenuLength() external view returns(uint length){\n        return menu.length;\n    }\n\n    function clearMenu() external {\n        require(msg.sender == owner);\n        delete menu;\n    }\n    \n    function menuAddItems(bytes32[] calldata itemNames, uint[] calldata prices) external {\n        //require(msg.sender == owner);\n        require(itemNames.length == prices.length);\n        \n        // should add checks that an item isn't added twice\n        for(uint i = 0; i<itemNames.length;i++){\n            menu.push(Item(itemNames[i], prices[i]));\n        }\n    }\n\n    \n    // could add ids to menu items then remove by id to lower gas cost\n    function menuRemoveItems(bytes32[] calldata itemNames) external returns(string memory result){\n        require(msg.sender == owner);\n        require(itemNames.length>0);\n        result = \"\";\n        for(uint i = 0; i<itemNames.length;i++){\n            result = lib.strConcat(result,lib.strConcat(lib.bytes32ToString(itemNames[i]),\":\"));\n            int index = menuSearch(lib.bytes32ToString(itemNames[i]));\n            if(index!=-1){\n                delete menu[uint(index)];\n                menu[uint(index)] = menu[menu.length-1];\n                delete menu[menu.length-1];\n                result = lib.strConcat(result,\" Removed Sucessfully\");\n                menu.length--;\n            }\n            else{\n                result = lib.strConcat(result, \" Error, could not find in menu\");\n            }\n        }\n        \n        return result;\n    }\n    \n    function menuSearch(string memory query) private view returns(int index){\n        for(int i = 0; i<int(menu.length);i++){\n            if(lib.compareStrings(lib.bytes32ToString(menu[uint(i)].itemName),query)){\n                return i;\n            }\n        }\n        return -1;\n    }\n    \n    function makeOrder(bytes32[] calldata items) external returns (address orderAddress) {\n        //require this comes from a customer smart contract\n        //require(RestaurantFactory(restaurantFactoryAddress).restaurantExists(msg.sender));\n        \n\n        uint[] memory prices = new uint[](items.length);\n        for(uint i = 0; i < items.length; i++)\n        {\n            string memory a = lib.bytes32ToString(items[i]); \n            int index = menuSearch(a); \n            \n            if (index != -1){\n                prices[i] = menu[uint(index)].itemCost;\n            }\n            else{\n                revert();\n            }\n        }\n        \n\n        totalOrders ++;\n\t\tOrder newOrder = new Order(totalOrders,restaurantFactoryAddress,items,prices);\n\t\torders[totalOrders] = address(newOrder);\n\t\treturn orders[totalOrders];       \n    }\n    \n    function getMenuItem(uint itemId)public view returns(bytes32 itemname, uint cost){\n        return (menu[itemId].itemName,menu[itemId].itemCost);\n    }\n    \n}",
  "sourcePath": "/home/george/Documents/University/Dissertation/TryAByte/contracts/Restaurant.sol",
  "compiler": {
    "name": "solc",
    "version": "0.5.0+commit.1d4f565a.Emscripten.clang"
  },
  "schemaVersion": "3.0.2",
  "updatedAt": "2019-03-09T22:54:54.163Z",
  "devdoc": {
    "methods": {}
  },
  "userdoc": {
    "methods": {}
  }
}