{
  "contractName": "Restaurant",
  "abi": [
    {
      "constant": true,
      "inputs": [],
      "name": "name",
      "outputs": [
        {
          "name": "",
          "type": "string"
        }
      ],
      "payable": false,
      "stateMutability": "view",
      "type": "function"
    },
    {
      "constant": true,
      "inputs": [],
      "name": "totalOrders",
      "outputs": [
        {
          "name": "",
          "type": "uint256"
        }
      ],
      "payable": false,
      "stateMutability": "view",
      "type": "function"
    },
    {
      "constant": true,
      "inputs": [],
      "name": "menuLength",
      "outputs": [
        {
          "name": "",
          "type": "uint256"
        }
      ],
      "payable": false,
      "stateMutability": "view",
      "type": "function"
    },
    {
      "constant": true,
      "inputs": [],
      "name": "controllerAddress",
      "outputs": [
        {
          "name": "",
          "type": "address"
        }
      ],
      "payable": false,
      "stateMutability": "view",
      "type": "function"
    },
    {
      "constant": true,
      "inputs": [],
      "name": "location",
      "outputs": [
        {
          "name": "",
          "type": "string"
        }
      ],
      "payable": false,
      "stateMutability": "view",
      "type": "function"
    },
    {
      "constant": true,
      "inputs": [],
      "name": "restaurantFactoryAddress",
      "outputs": [
        {
          "name": "",
          "type": "address"
        }
      ],
      "payable": false,
      "stateMutability": "view",
      "type": "function"
    },
    {
      "constant": true,
      "inputs": [],
      "name": "contactNumber",
      "outputs": [
        {
          "name": "",
          "type": "string"
        }
      ],
      "payable": false,
      "stateMutability": "view",
      "type": "function"
    },
    {
      "constant": true,
      "inputs": [],
      "name": "rating",
      "outputs": [
        {
          "name": "",
          "type": "uint256"
        }
      ],
      "payable": false,
      "stateMutability": "view",
      "type": "function"
    },
    {
      "constant": true,
      "inputs": [],
      "name": "owner",
      "outputs": [
        {
          "name": "",
          "type": "address"
        }
      ],
      "payable": false,
      "stateMutability": "view",
      "type": "function"
    },
    {
      "constant": true,
      "inputs": [
        {
          "name": "",
          "type": "uint256"
        }
      ],
      "name": "orders",
      "outputs": [
        {
          "name": "open",
          "type": "bool"
        },
        {
          "name": "orderAddress",
          "type": "address"
        }
      ],
      "payable": false,
      "stateMutability": "view",
      "type": "function"
    },
    {
      "constant": true,
      "inputs": [],
      "name": "id",
      "outputs": [
        {
          "name": "",
          "type": "uint256"
        }
      ],
      "payable": false,
      "stateMutability": "view",
      "type": "function"
    },
    {
      "constant": true,
      "inputs": [
        {
          "name": "",
          "type": "uint256"
        }
      ],
      "name": "menu",
      "outputs": [
        {
          "name": "itemName",
          "type": "bytes32"
        },
        {
          "name": "itemCost",
          "type": "uint256"
        }
      ],
      "payable": false,
      "stateMutability": "view",
      "type": "function"
    },
    {
      "inputs": [
        {
          "name": "_controller",
          "type": "address"
        },
        {
          "name": "_owner",
          "type": "address"
        },
        {
          "name": "_id",
          "type": "uint256"
        },
        {
          "name": "_name",
          "type": "string"
        },
        {
          "name": "_address",
          "type": "string"
        },
        {
          "name": "_contactNumber",
          "type": "string"
        }
      ],
      "payable": false,
      "stateMutability": "nonpayable",
      "type": "constructor"
    },
    {
      "constant": true,
      "inputs": [],
      "name": "getMenuLength",
      "outputs": [
        {
          "name": "length",
          "type": "uint256"
        }
      ],
      "payable": false,
      "stateMutability": "view",
      "type": "function"
    },
    {
      "constant": false,
      "inputs": [
        {
          "name": "itemNames",
          "type": "bytes32[]"
        },
        {
          "name": "prices",
          "type": "uint256[]"
        }
      ],
      "name": "menuAddItems",
      "outputs": [],
      "payable": false,
      "stateMutability": "nonpayable",
      "type": "function"
    },
    {
      "constant": false,
      "inputs": [
        {
          "name": "itemIds",
          "type": "uint256[]"
        }
      ],
      "name": "menuRemoveItems",
      "outputs": [],
      "payable": false,
      "stateMutability": "nonpayable",
      "type": "function"
    },
    {
      "constant": true,
      "inputs": [
        {
          "name": "itemIds",
          "type": "uint256[]"
        }
      ],
      "name": "getOrderPrice",
      "outputs": [
        {
          "name": "",
          "type": "uint256"
        }
      ],
      "payable": false,
      "stateMutability": "view",
      "type": "function"
    },
    {
      "constant": false,
      "inputs": [
        {
          "name": "itemIds",
          "type": "uint256[]"
        }
      ],
      "name": "makeOrder",
      "outputs": [
        {
          "name": "orderAddress",
          "type": "address"
        }
      ],
      "payable": true,
      "stateMutability": "payable",
      "type": "function"
    },
    {
      "constant": true,
      "inputs": [
        {
          "name": "itemId",
          "type": "uint256"
        }
      ],
      "name": "getMenuItem",
      "outputs": [
        {
          "name": "itemname",
          "type": "bytes32"
        },
        {
          "name": "cost",
          "type": "uint256"
        }
      ],
      "payable": false,
      "stateMutability": "view",
      "type": "function"
    },
    {
      "constant": false,
      "inputs": [
        {
          "name": "orderAddress",
          "type": "address"
        }
      ],
      "name": "setStatusPrepairing",
      "outputs": [],
      "payable": false,
      "stateMutability": "nonpayable",
      "type": "function"
    },
    {
      "constant": false,
      "inputs": [
        {
          "name": "orderAddress",
          "type": "address"
        }
      ],
      "name": "handOverCargo",
      "outputs": [],
      "payable": false,
      "stateMutability": "nonpayable",
      "type": "function"
    }
  ],
  "bytecode": "0x60806040523480156200001157600080fd5b506040516200373538038062003735833981018060405260c08110156200003757600080fd5b8101908080519060200190929190805190602001909291908051906020019092919080516401000000008111156200006e57600080fd5b828101905060208101848111156200008557600080fd5b8151856001820283011164010000000082111715620000a357600080fd5b50509291906020018051640100000000811115620000c057600080fd5b82810190506020810184811115620000d757600080fd5b8151856001820283011164010000000082111715620000f557600080fd5b505092919060200180516401000000008111156200011257600080fd5b828101905060208101848111156200012957600080fd5b81518560018202830111640100000000821117156200014757600080fd5b50509291905050508360008190555082600190805190602001906200016e92919062000278565b5081600290805190602001906200018792919062000278565b508060039080519060200190620001a092919062000278565b50600060088190555085600660006101000a81548173ffffffffffffffffffffffffffffffffffffffff021916908373ffffffffffffffffffffffffffffffffffffffff16021790555084600560006101000a81548173ffffffffffffffffffffffffffffffffffffffff021916908373ffffffffffffffffffffffffffffffffffffffff16021790555033600760006101000a81548173ffffffffffffffffffffffffffffffffffffffff021916908373ffffffffffffffffffffffffffffffffffffffff16021790555050505050505062000327565b828054600181600116156101000203166002900490600052602060002090601f016020900481019282601f10620002bb57805160ff1916838001178555620002ec565b82800160010185558215620002ec579182015b82811115620002eb578251825591602001919060010190620002ce565b5b509050620002fb9190620002ff565b5090565b6200032491905b808211156200032057600081600090555060010162000306565b5090565b90565b6133fe80620003376000396000f3fe60806040526004361062000127576000357c0100000000000000000000000000000000000000000000000000000000900463ffffffff16806306fdde03146200012c578063125ba97714620001c25780631d83440914620001f057806321be5e4e146200021e5780633d939a4914620002ab5780633e92c46814620002d95780634b24ea4714620003be578063516f279e14620004185780635d92836614620004ae57806366e1dfa3146200056d57806368db65a4146200064d57806376af633c14620006a757806380f474f6146200073d5780638da5cb5b146200076b578063a85c38ef14620007c5578063af640d0f146200084f578063bcd2c4e1146200087d578063c0c1a0de14620008d2578063cffb703c1462000927578063f943eecd1462000981575b600080fd5b3480156200013957600080fd5b5062000144620009db565b6040518080602001828103825283818151815260200191508051906020019080838360005b838110156200018657808201518184015260208101905062000169565b50505050905090810190601f168015620001b45780820380516001836020036101000a031916815260200191505b509250505060405180910390f35b348015620001cf57600080fd5b50620001da62000a7d565b6040518082815260200191505060405180910390f35b348015620001fd57600080fd5b506200020862000a87565b6040518082815260200191505060405180910390f35b3480156200022b57600080fd5b50620002a9600480360360208110156200024457600080fd5b81019080803590602001906401000000008111156200026257600080fd5b8201836020820111156200027557600080fd5b803590602001918460208302840111640100000000831117156200029857600080fd5b909192939192939050505062000a8d565b005b348015620002b857600080fd5b50620002c362000c5f565b6040518082815260200191505060405180910390f35b348015620002e657600080fd5b50620003bc60048036036040811015620002ff57600080fd5b81019080803590602001906401000000008111156200031d57600080fd5b8201836020820111156200033057600080fd5b803590602001918460208302840111640100000000831117156200035357600080fd5b9091929391929390803590602001906401000000008111156200037557600080fd5b8201836020820111156200038857600080fd5b80359060200191846020830284011164010000000083111715620003ab57600080fd5b909192939192939050505062000c65565b005b348015620003cb57600080fd5b50620003d662000d7b565b604051808273ffffffffffffffffffffffffffffffffffffffff1673ffffffffffffffffffffffffffffffffffffffff16815260200191505060405180910390f35b3480156200042557600080fd5b506200043062000da1565b6040518080602001828103825283818151815260200191508051906020019080838360005b838110156200047257808201518184015260208101905062000455565b50505050905090810190601f168015620004a05780820380516001836020036101000a031916815260200191505b509250505060405180910390f35b6200052b60048036036020811015620004c657600080fd5b8101908080359060200190640100000000811115620004e457600080fd5b820183602082011115620004f757600080fd5b803590602001918460208302840111640100000000831117156200051a57600080fd5b909192939192939050505062000e43565b604051808273ffffffffffffffffffffffffffffffffffffffff1673ffffffffffffffffffffffffffffffffffffffff16815260200191505060405180910390f35b3480156200057a57600080fd5b5062000637600480360360208110156200059357600080fd5b8101908080359060200190640100000000811115620005b157600080fd5b820183602082011115620005c457600080fd5b80359060200191846020830284011164010000000083111715620005e757600080fd5b919080806020026020016040519081016040528093929190818152602001838360200280828437600081840152601f19601f820116905080830192505050505050509192919290505050620014e1565b6040518082815260200191505060405180910390f35b3480156200065a57600080fd5b506200066562001543565b604051808273ffffffffffffffffffffffffffffffffffffffff1673ffffffffffffffffffffffffffffffffffffffff16815260200191505060405180910390f35b348015620006b457600080fd5b50620006bf62001569565b6040518080602001828103825283818151815260200191508051906020019080838360005b8381101562000701578082015181840152602081019050620006e4565b50505050905090810190601f1680156200072f5780820380516001836020036101000a031916815260200191505b509250505060405180910390f35b3480156200074a57600080fd5b50620007556200160b565b6040518082815260200191505060405180910390f35b3480156200077857600080fd5b506200078362001611565b604051808273ffffffffffffffffffffffffffffffffffffffff1673ffffffffffffffffffffffffffffffffffffffff16815260200191505060405180910390f35b348015620007d257600080fd5b506200080260048036036020811015620007eb57600080fd5b810190808035906020019092919050505062001637565b60405180831515151581526020018273ffffffffffffffffffffffffffffffffffffffff1673ffffffffffffffffffffffffffffffffffffffff1681526020019250505060405180910390f35b3480156200085c57600080fd5b506200086762001688565b6040518082815260200191505060405180910390f35b3480156200088a57600080fd5b50620008d060048036036020811015620008a357600080fd5b81019080803573ffffffffffffffffffffffffffffffffffffffff1690602001909291905050506200168e565b005b348015620008df57600080fd5b506200092560048036036020811015620008f857600080fd5b81019080803573ffffffffffffffffffffffffffffffffffffffff16906020019092919050505062001783565b005b3480156200093457600080fd5b5062000964600480360360208110156200094d57600080fd5b810190808035906020019092919050505062001879565b604051808381526020018281526020019250505060405180910390f35b3480156200098e57600080fd5b50620009be60048036036020811015620009a757600080fd5b81019080803590602001909291905050506200189d565b604051808381526020018281526020019250505060405180910390f35b60018054600181600116156101000203166002900480601f01602080910402602001604051908101604052809291908181526020018280546001816001161561010002031660029004801562000a755780601f1062000a495761010080835404028352916020019162000a75565b820191906000526020600020905b81548152906001019060200180831162000a5757829003601f168201915b505050505081565b6000600a54905090565b60085481565b600560009054906101000a900473ffffffffffffffffffffffffffffffffffffffff1673ffffffffffffffffffffffffffffffffffffffff163373ffffffffffffffffffffffffffffffffffffffff1614151562000aea57600080fd5b60008282905011151562000afd57600080fd5b600082829050600a5403905060608160405190808252806020026020018201604052801562000b3b5781602001602082028038833980820191505090505b509050600080905060008090505b600a5481101562000bdb5760006001905060008090505b8787905081101562000b9d57878782818110151562000b7b57fe5b9050602002013583141562000b8f57600091505b808060010191505062000b60565b50801562000bcc5781848481518110151562000bb557fe5b906020019060200201818152505082806001019350505b50808060010191505062000b49565b5060008090505b825181101562000c4f57600b6000848381518110151562000bff57fe5b906020019060200201518152602001908152602001600020600b60008381526020019081526020016000206000820154816000015560018201548160010155905050808060010191505062000be2565b508151600a819055505050505050565b600a5481565b600560009054906101000a900473ffffffffffffffffffffffffffffffffffffffff1673ffffffffffffffffffffffffffffffffffffffff163373ffffffffffffffffffffffffffffffffffffffff1614151562000cc257600080fd5b818190508484905014151562000cd757600080fd5b60008090505b8484905081101562000d74576040805190810160405280868684818110151562000d0357fe5b905060200201358152602001848484818110151562000d1e57fe5b90506020020135815250600b6000600a5481526020019081526020016000206000820151816000015560208201518160010155905050600a60008154809291906001019190505550808060010191505062000cdd565b5050505050565b600660009054906101000a900473ffffffffffffffffffffffffffffffffffffffff1681565b60028054600181600116156101000203166002900480601f01602080910402602001604051908101604052809291908181526020018280546001816001161561010002031660029004801562000e3b5780601f1062000e0f5761010080835404028352916020019162000e3b565b820191906000526020600020905b81548152906001019060200180831162000e1d57829003601f168201915b505050505081565b6000600660009054906101000a900473ffffffffffffffffffffffffffffffffffffffff1673ffffffffffffffffffffffffffffffffffffffff16636455e5ac6040518163ffffffff167c010000000000000000000000000000000000000000000000000000000002815260040160206040518083038186803b15801562000eca57600080fd5b505afa15801562000edf573d6000803e3d6000fd5b505050506040513d602081101562000ef657600080fd5b810190808051906020019092919050505073ffffffffffffffffffffffffffffffffffffffff1663689b0098336040518263ffffffff167c0100000000000000000000000000000000000000000000000000000000028152600401808273ffffffffffffffffffffffffffffffffffffffff1673ffffffffffffffffffffffffffffffffffffffff16815260200191505060206040518083038186803b15801562000fa057600080fd5b505afa15801562000fb5573d6000803e3d6000fd5b505050506040513d602081101562000fcc57600080fd5b8101908080519060200190929190505050151562001052576040517f08c379a00000000000000000000000000000000000000000000000000000000081526004018080602001828103825260158152602001807f437573746f6d657220646f65736e74206578697374000000000000000000000081525060200191505060405180910390fd5b606083839050604051908082528060200260200182016040528015620010875781602001602082028038833980820191505090505b509050606084849050604051908082528060200260200182016040528015620010bf5781602001602082028038833980820191505090505b50905060008090505b858590508110156200122b5760008686838181101515620010e557fe5b9050602002013510158015620011115750600a5486868381811015156200110857fe5b90506020020135105b15620011af57600b600087878481811015156200112a57fe5b9050602002013581526020019081526020016000206000015482828151811015156200115257fe5b9060200190602002018181525050600b600087878481811015156200117357fe5b9050602002013581526020019081526020016000206001015483828151811015156200119b57fe5b90602001906020020181815250506200121d565b6040517f08c379a000000000000000000000000000000000000000000000000000000000815260040180806020018281038252600d8152602001807f496e76616c6964204974656d730000000000000000000000000000000000000081525060200191505060405180910390fd5b8080600101915050620010c8565b506000600854600760009054906101000a900473ffffffffffffffffffffffffffffffffffffffff168385600660009054906101000a900473ffffffffffffffffffffffffffffffffffffffff163362001284620018d7565b808781526020018673ffffffffffffffffffffffffffffffffffffffff1673ffffffffffffffffffffffffffffffffffffffff16815260200180602001806020018573ffffffffffffffffffffffffffffffffffffffff1673ffffffffffffffffffffffffffffffffffffffff1681526020018473ffffffffffffffffffffffffffffffffffffffff1673ffffffffffffffffffffffffffffffffffffffff168152602001838103835287818151815260200191508051906020019060200280838360005b838110156200136657808201518184015260208101905062001349565b50505050905001838103825286818151815260200191508051906020019060200280838360005b83811015620013aa5780820151818401526020810190506200138d565b5050505090500198505050505050505050604051809103906000f080158015620013d8573d6000803e3d6000fd5b50905060408051908101604052806001151581526020018273ffffffffffffffffffffffffffffffffffffffff1681525060096000600854815260200190815260200160002060008201518160000160006101000a81548160ff02191690831515021790555060208201518160000160016101000a81548173ffffffffffffffffffffffffffffffffffffffff021916908373ffffffffffffffffffffffffffffffffffffffff16021790555090505060086000815480929190600101919050555060096000600160085403815260200190815260200160002060000160019054906101000a900473ffffffffffffffffffffffffffffffffffffffff16935050505092915050565b6000806000905060008090505b83518110156200153957600b600085838151811015156200150b57fe5b90602001906020020151815260200190815260200160002060010154820191508080600101915050620014ee565b5080915050919050565b600760009054906101000a900473ffffffffffffffffffffffffffffffffffffffff1681565b60038054600181600116156101000203166002900480601f016020809104026020016040519081016040528092919081815260200182805460018160011615610100020316600290048015620016035780601f10620015d75761010080835404028352916020019162001603565b820191906000526020600020905b815481529060010190602001808311620015e557829003601f168201915b505050505081565b60045481565b600560009054906101000a900473ffffffffffffffffffffffffffffffffffffffff1681565b60096020528060005260406000206000915090508060000160009054906101000a900460ff16908060000160019054906101000a900473ffffffffffffffffffffffffffffffffffffffff16905082565b60005481565b600560009054906101000a900473ffffffffffffffffffffffffffffffffffffffff1673ffffffffffffffffffffffffffffffffffffffff163373ffffffffffffffffffffffffffffffffffffffff16141515620016eb57600080fd5b8073ffffffffffffffffffffffffffffffffffffffff1663e9132c426002808111156200171457fe5b6040518263ffffffff167c010000000000000000000000000000000000000000000000000000000002815260040180828152602001915050600060405180830381600087803b1580156200176757600080fd5b505af11580156200177c573d6000803e3d6000fd5b5050505050565b600560009054906101000a900473ffffffffffffffffffffffffffffffffffffffff1673ffffffffffffffffffffffffffffffffffffffff163373ffffffffffffffffffffffffffffffffffffffff16141515620017e057600080fd5b8073ffffffffffffffffffffffffffffffffffffffff1663e9132c42600160028111156200180a57fe5b6040518263ffffffff167c010000000000000000000000000000000000000000000000000000000002815260040180828152602001915050600060405180830381600087803b1580156200185d57600080fd5b505af115801562001872573d6000803e3d6000fd5b5050505050565b600b6020528060005260406000206000915090508060000154908060010154905082565b600080600b600084815260200190815260200160002060000154600b60008581526020019081526020016000206001015491509150915091565b604051611aea80620018e98339019056fe60806040523480156200001157600080fd5b5060405162001aea38038062001aea833981018060405260c08110156200003757600080fd5b81019080805190602001909291908051906020019092919080516401000000008111156200006457600080fd5b828101905060208101848111156200007b57600080fd5b81518560208202830111640100000000821117156200009957600080fd5b50509291906020018051640100000000811115620000b657600080fd5b82810190506020810184811115620000cd57600080fd5b8151856020820283011164010000000082111715620000eb57600080fd5b505092919060200180519060200190929190805190602001909291905050508473ffffffffffffffffffffffffffffffffffffffff166379a4fa27336040518263ffffffff167c0100000000000000000000000000000000000000000000000000000000028152600401808273ffffffffffffffffffffffffffffffffffffffff1673ffffffffffffffffffffffffffffffffffffffff16815260200191505060206040518083038186803b158015620001a457600080fd5b505afa158015620001b9573d6000803e3d6000fd5b505050506040513d6020811015620001d057600080fd5b810190808051906020019092919050505015156200027c576040517f08c379a000000000000000000000000000000000000000000000000000000000815260040180806020018281038252603d8152602001807f617474656d7074656420746f206d616b65206f726465722066726f6d2061646481526020017f726573732074686174206973206e6f7420612072657374617572616e7400000081525060400191505060405180910390fd5b825184511415156200028d57600080fd5b8560038190555033600560006101000a81548173ffffffffffffffffffffffffffffffffffffffff021916908373ffffffffffffffffffffffffffffffffffffffff16021790555080600760006101000a81548173ffffffffffffffffffffffffffffffffffffffff021916908373ffffffffffffffffffffffffffffffffffffffff16021790555084600460006101000a81548173ffffffffffffffffffffffffffffffffffffffff021916908373ffffffffffffffffffffffffffffffffffffffff16021790555081600860006101000a81548173ffffffffffffffffffffffffffffffffffffffff021916908373ffffffffffffffffffffffffffffffffffffffff1602179055506000600a819055506000600c8190555060008090505b84518110156200058757604080519081016040528073__lib___________________________________639201de558885815181101515620003ec57fe5b906020019060200201516040518263ffffffff167c01000000000000000000000000000000000000000000000000000000000281526004018082815260200191505060006040518083038186803b1580156200044757600080fd5b505af41580156200045c573d6000803e3d6000fd5b505050506040513d6000823e3d601f19601f8201168201806040525060208110156200048757600080fd5b810190808051640100000000811115620004a057600080fd5b82810190506020810184811115620004b757600080fd5b8151856001820283011164010000000082111715620004d557600080fd5b505092919050505081526020018583815181101515620004f157fe5b90602001906020020151815250600d6000600c548152602001908152602001600020600082015181600001908051906020019062000531929190620005d8565b506020820151816001015590505083818151811015156200054e57fe5b90602001906020020151600a60008282540192505081905550600c600081548092919060010191905055508080600101915050620003ae565b5060c8600b81905550600060038111156200059e57fe5b60008190555060006002811115620005b257fe5b60028190555060006002811115620005c657fe5b60018190555050505050505062000687565b828054600181600116156101000203166002900490600052602060002090601f016020900481019282601f106200061b57805160ff19168380011785556200064c565b828001600101855582156200064c579182015b828111156200064b5782518255916020019190600101906200062e565b5b5090506200065b91906200065f565b5090565b6200068491905b808211156200068057600081600090555060010162000666565b5090565b90565b61145380620006976000396000f3fe6080604052600436106100e6576000357c0100000000000000000000000000000000000000000000000000000000900463ffffffff16806312065fe0146100eb5780632799276d146101165780633129e7731461014157806332940816146101975780633733d9f5146101c25780633e3ca4d3146101ed57806368db65a4146102185780638d74d1ca1461026f578063a14b7e6814610279578063af640d0f146102a4578063bd3e19d4146102cf578063bfb231d2146102fa578063c7529f0c146103b5578063e9132c42146103bf578063ed168058146103ed578063f3cc0f1f14610444575b600080fd5b3480156100f757600080fd5b5061010061046f565b6040518082815260200191505060405180910390f35b34801561012257600080fd5b5061012b61048e565b6040518082815260200191505060405180910390f35b34801561014d57600080fd5b5061017a6004803603602081101561016457600080fd5b8101908080359060200190929190505050610494565b604051808381526020018281526020019250505060405180910390f35b3480156101a357600080fd5b506101ac610700565b6040518082815260200191505060405180910390f35b3480156101ce57600080fd5b506101d7610706565b6040518082815260200191505060405180910390f35b3480156101f957600080fd5b5061020261081c565b6040518082815260200191505060405180910390f35b34801561022457600080fd5b5061022d610822565b604051808273ffffffffffffffffffffffffffffffffffffffff1673ffffffffffffffffffffffffffffffffffffffff16815260200191505060405180910390f35b610277610848565b005b34801561028557600080fd5b5061028e610bc9565b6040518082815260200191505060405180910390f35b3480156102b057600080fd5b506102b9610bcf565b6040518082815260200191505060405180910390f35b3480156102db57600080fd5b506102e4610bd5565b6040518082815260200191505060405180910390f35b34801561030657600080fd5b506103336004803603602081101561031d57600080fd5b8101908080359060200190929190505050610bdf565b6040518080602001838152602001828103825284818151815260200191508051906020019080838360005b8381101561037957808201518184015260208101905061035e565b50505050905090810190601f1680156103a65780820380516001836020036101000a031916815260200191505b50935050505060405180910390f35b6103bd610c9b565b005b6103eb600480360360208110156103d557600080fd5b8101908080359060200190929190505050610e9f565b005b3480156103f957600080fd5b506104026112a2565b604051808273ffffffffffffffffffffffffffffffffffffffff1673ffffffffffffffffffffffffffffffffffffffff16815260200191505060405180910390f35b34801561045057600080fd5b506104596112c8565b6040518082815260200191505060405180910390f35b60003073ffffffffffffffffffffffffffffffffffffffff1631905090565b600c5481565b6000803373ffffffffffffffffffffffffffffffffffffffff16600760009054906101000a900473ffffffffffffffffffffffffffffffffffffffff1673ffffffffffffffffffffffffffffffffffffffff16148061054057503373ffffffffffffffffffffffffffffffffffffffff16600560009054906101000a900473ffffffffffffffffffffffffffffffffffffffff1673ffffffffffffffffffffffffffffffffffffffff16145b8061059857503373ffffffffffffffffffffffffffffffffffffffff16600660009054906101000a900473ffffffffffffffffffffffffffffffffffffffff1673ffffffffffffffffffffffffffffffffffffffff16145b15156105a357600080fd5b73__lib___________________________________63cfb51928600d60008681526020019081526020016000206000016040518263ffffffff167c010000000000000000000000000000000000000000000000000000000002815260040180806020018281038252838181546001816001161561010002031660029004815260200191508054600181600116156101000203166002900480156106875780601f1061065c57610100808354040283529160200191610687565b820191906000526020600020905b81548152906001019060200180831161066a57829003601f168201915b50509250505060206040518083038186803b1580156106a557600080fd5b505af41580156106b9573d6000803e3d6000fd5b505050506040513d60208110156106cf57600080fd5b8101908080519060200190929190505050600d60008581526020019081526020016000206001015491509150915091565b60015481565b60003373ffffffffffffffffffffffffffffffffffffffff16600760009054906101000a900473ffffffffffffffffffffffffffffffffffffffff1673ffffffffffffffffffffffffffffffffffffffff1614806107b157503373ffffffffffffffffffffffffffffffffffffffff16600560009054906101000a900473ffffffffffffffffffffffffffffffffffffffff1673ffffffffffffffffffffffffffffffffffffffff16145b8061080957503373ffffffffffffffffffffffffffffffffffffffff16600660009054906101000a900473ffffffffffffffffffffffffffffffffffffffff1673ffffffffffffffffffffffffffffffffffffffff16145b151561081457600080fd5b600954905090565b60005481565b600460009054906101000a900473ffffffffffffffffffffffffffffffffffffffff1681565b600760009054906101000a900473ffffffffffffffffffffffffffffffffffffffff1673ffffffffffffffffffffffffffffffffffffffff163373ffffffffffffffffffffffffffffffffffffffff16141515610933576040517f08c379a00000000000000000000000000000000000000000000000000000000081526004018080602001828103825260288152602001807f6f6e6c792074686520637573746f6d65722063616e2070617920666f7220746881526020017f6973206f7264657200000000000000000000000000000000000000000000000081525060400191505060405180910390fd5b600b54600a540134101573__lib___________________________________63ff74927b610966600b54600a54016112ce565b6040518263ffffffff167c01000000000000000000000000000000000000000000000000000000000281526004018080602001806020018381038352602c8152602001807f6e6f7420656e6f7567682065746865722073656e7420746f20746865206f726481526020017f65722c206e65656465643a200000000000000000000000000000000000000000815250604001838103825284818151815260200191508051906020019080838360005b83811015610a2f578082015181840152602081019050610a14565b50505050905090810190601f168015610a5c5780820380516001836020036101000a031916815260200191505b50935050505060006040518083038186803b158015610a7a57600080fd5b505af4158015610a8e573d6000803e3d6000fd5b505050506040513d6000823e3d601f19601f820116820180604052506020811015610ab857600080fd5b810190808051640100000000811115610ad057600080fd5b82810190506020810184811115610ae657600080fd5b8151856001820283011164010000000082111715610b0357600080fd5b5050929190505050901515610bb3576040517f08c379a00000000000000000000000000000000000000000000000000000000081526004018080602001828103825283818151815260200191508051906020019080838360005b83811015610b78578082015181840152602081019050610b5d565b50505050905090810190601f168015610ba55780820380516001836020036101000a031916815260200191505b509250505060405180910390fd5b5060016002811115610bc157fe5b600281905550565b60025481565b60035481565b6000600a54905090565b600d602052806000526040600020600091509050806000018054600181600116156101000203166002900480601f016020809104026020016040519081016040528092919081815260200182805460018160011615610100020316600290048015610c8b5780601f10610c6057610100808354040283529160200191610c8b565b820191906000526020600020905b815481529060010190602001808311610c6e57829003601f168201915b5050505050908060010154905082565b600860009054906101000a900473ffffffffffffffffffffffffffffffffffffffff1673ffffffffffffffffffffffffffffffffffffffff1663c9286d576040518163ffffffff167c010000000000000000000000000000000000000000000000000000000002815260040160206040518083038186803b158015610d1f57600080fd5b505afa158015610d33573d6000803e3d6000fd5b505050506040513d6020811015610d4957600080fd5b810190808051906020019092919050505073ffffffffffffffffffffffffffffffffffffffff166313952670336040518263ffffffff167c0100000000000000000000000000000000000000000000000000000000028152600401808273ffffffffffffffffffffffffffffffffffffffff1673ffffffffffffffffffffffffffffffffffffffff16815260200191505060206040518083038186803b158015610df257600080fd5b505afa158015610e06573d6000803e3d6000fd5b505050506040513d6020811015610e1c57600080fd5b81019080805190602001909291905050501515610e3857600080fd5b600a543410151515610e4957600080fd5b60016003811115610e5657fe5b60008190555033600660006101000a81548173ffffffffffffffffffffffffffffffffffffffff021916908373ffffffffffffffffffffffffffffffffffffffff160217905550565b600660009054906101000a900473ffffffffffffffffffffffffffffffffffffffff1673ffffffffffffffffffffffffffffffffffffffff163373ffffffffffffffffffffffffffffffffffffffff161480610f485750600560009054906101000a900473ffffffffffffffffffffffffffffffffffffffff1673ffffffffffffffffffffffffffffffffffffffff163373ffffffffffffffffffffffffffffffffffffffff16145b80610fa05750600760009054906101000a900473ffffffffffffffffffffffffffffffffffffffff1673ffffffffffffffffffffffffffffffffffffffff163373ffffffffffffffffffffffffffffffffffffffff16145b1515611060576040517f08c379a00000000000000000000000000000000000000000000000000000000081526004018080602001828103825260508152602001807f596f7520646f6e742068617665207065726d697373696f6e20746f207365652081526020017f74686973206f726465722c2064696420796f752067657420746865206f72646581526020017f7220616464726573732077726f6e673f0000000000000000000000000000000081525060600191505060405180910390fd5b600660009054906101000a900473ffffffffffffffffffffffffffffffffffffffff1673ffffffffffffffffffffffffffffffffffffffff163373ffffffffffffffffffffffffffffffffffffffff1614156110c2578060008190555061121c565b600560009054906101000a900473ffffffffffffffffffffffffffffffffffffffff1673ffffffffffffffffffffffffffffffffffffffff163373ffffffffffffffffffffffffffffffffffffffff161415611124578060018190555061121b565b600760009054906101000a900473ffffffffffffffffffffffffffffffffffffffff1673ffffffffffffffffffffffffffffffffffffffff163373ffffffffffffffffffffffffffffffffffffffff161415611186578060028190555061121a565b6040517f08c379a00000000000000000000000000000000000000000000000000000000081526004018080602001828103825260358152602001807f4572726f723a20756e617574686f72697365726420616464726573732061636381526020017f657373696e67207365744f72646572537461747573000000000000000000000081525060400191505060405180910390fd5b5b5b600360005414801561122f575060028054145b1561129f57600660009054906101000a900473ffffffffffffffffffffffffffffffffffffffff1673ffffffffffffffffffffffffffffffffffffffff166108fc60649081150290604051600060405180830381858888f1935050505015801561129d573d6000803e3d6000fd5b505b50565b600560009054906101000a900473ffffffffffffffffffffffffffffffffffffffff1681565b600b5481565b60606000821415611316576040805190810160405280600181526020017f30000000000000000000000000000000000000000000000000000000000000008152509050611422565b600082905060005b600082141515611344578080600101915050600a8281151561133c57fe5b04915061131e565b6060816040519080825280601f01601f1916602001820160405280156113795781602001600182028038833980820191505090505b50905060006001830390505b60008614151561141a57600a8681151561139b57fe5b066030017f0100000000000000000000000000000000000000000000000000000000000000028282806001900393508151811015156113d657fe5b9060200101907effffffffffffffffffffffffffffffffffffffffffffffffffffffffffffff1916908160001a905350600a8681151561141257fe5b049550611385565b819450505050505b91905056fea165627a7a7230582036b95cc3325fbecbe13d30855f40ca754012139e8de830fecd95067aa8f058410029a165627a7a723058205555616786e0dd7791ea6f5603c51250f993cdddbf6e6a95933e7ae37e704aa00029",
  "source": "pragma solidity ^0.5.0;\n\n import \"./lib.sol\";\n import \"./Order.sol\";\n import \"./RestaurantFactory.sol\";\n import \"./CustomerFactory.sol\";\n import \"./Controller.sol\";\n\ncontract Restaurant {\n\n    using lib for bytes32;\n\n\tuint public id;\n\tstring public name;\n\tstring public location;\n\tstring public contactNumber;\n\tuint public rating;\n\n\taddress public owner;\n    address public controllerAddress;\n\taddress public restaurantFactoryAddress;\n\n\n    struct order{bool open; address orderAddress;}\n\tuint public totalOrders;\n\tmapping(uint => order) public orders; // must be a better way to store the orders\n\t\n\tstruct Item{\n\t\tbytes32 itemName;\n\t\tuint itemCost; // in wei (10^-18 Eth)\n\t}\n\t\n    uint public menuLength;\n\tmapping(uint => Item) public menu; // should probably change this to a mapping\n\n    enum restaurantState{acceptedOrder, preparingCargo, HandedOver}\n\t\n\n\tconstructor(address _controller, address _owner, uint _id, string memory _name,string memory _address,string memory _contactNumber) public {\n\t\tid = _id;\n\t\tname = _name;\n\t\tlocation = _address;\n\t\tcontactNumber = _contactNumber;\n\t\ttotalOrders = 0;\n\n        controllerAddress = _controller;\n\t\towner = _owner;\n\t\trestaurantFactoryAddress = msg.sender;\n\t}\n\n    // ToDo Remove this\n    function getMenuLength() external view returns(uint length){\n        return menuLength;\n    }\n\n    // todo redo this \n    // function clearMenu() external {\n    //     require(msg.sender == owner);\n    //     delete menu;\n    // }\n    \n\n    function menuAddItems(bytes32[] calldata itemNames, uint[] calldata prices) external {\n        require(msg.sender == owner);\n        require(itemNames.length == prices.length);\n        \n        // should add checks that an item isn't added twice\n        for(uint i = 0; i<itemNames.length;i++){\n            menu[menuLength] = Item(itemNames[i],prices[i]);\n            menuLength++;\n        }\n    }\n\n    \n    \n    function menuRemoveItems(uint[] calldata itemIds) external{\n        require(msg.sender == owner);\n        require(itemIds.length>0);\n\n        uint totalItemsToKeep = menuLength - uint(itemIds.length);\n\n        uint[] memory itemsToKeep = new uint[](totalItemsToKeep);\n        uint counter = 0;\n        for(uint i = 0; i<menuLength;i++){\n            bool idUndeleted = true;\n            for(uint j = 0; j < itemIds.length; j++){\n                if(i == itemIds[j]){\n                    idUndeleted = false;\n                }\n            }\n            if(idUndeleted){\n                itemsToKeep[counter] = i;\n                counter++;\n            }\n        }\n\n        for(uint i = 0; i < itemsToKeep.length; i++){\n            menu[i] = menu[itemsToKeep[i]];\n        }\n        menuLength = itemsToKeep.length;\n    }\n    \n    function menuSearch(string memory query) private view returns(int index){\n        for(uint i = 0; i<menuLength;i++){\n            if(lib.compareStrings(lib.bytes32ToString(menu[i].itemName),query)){\n                return int(i);\n            }\n        }\n        return -1;\n    }\n\n    function getOrderPrice(uint[] memory itemIds) public view returns (uint){\n        uint price = 0;\n        for(uint i = 0; i < itemIds.length; i++){\n            price += menu[itemIds[i]].itemCost;\n        }\n        return price;\n    }\n    \n\n    function makeOrder(uint[] calldata itemIds) external payable returns (address orderAddress) {\n        //require this comes from a customer smart contract\n        require(CustomerFactory(Controller(controllerAddress).customerFactoryAddress()).customerExists(msg.sender), \"Customer doesnt exist\");\n        \n\n        uint[] memory prices = new uint[](itemIds.length);\n        bytes32[] memory items = new bytes32[](itemIds.length);\n        for(uint i = 0; i < itemIds.length; i++)\n        {\n            if (itemIds[i] >= 0 && itemIds[i] < menuLength){\n                items[i] = menu[uint(itemIds[i])].itemName; \n                prices[i] = menu[uint(itemIds[i])].itemCost;\n            }\n            else{\n                revert(\"Invalid Items\");\n            }\n        }\n        \n\t\tOrder newOrder = new Order(totalOrders,restaurantFactoryAddress,items,prices,controllerAddress, msg.sender);\n\t\torders[totalOrders] = order(true,address(newOrder));\n        totalOrders ++;\n\t\treturn orders[totalOrders - 1].orderAddress;       \n    }\n    \n    function getMenuItem(uint itemId)public view returns(bytes32 itemname, uint cost){\n        return (menu[itemId].itemName,menu[itemId].itemCost);\n    }\n\n    // toDo, could pass in orderID instead reduce gas\n    function setStatusPrepairing(address orderAddress) public { \n        require(msg.sender == owner);\n        Order(orderAddress).setOrderStatus(uint(restaurantState.preparingCargo));\n    }    \n\n    function handOverCargo(address orderAddress) public {\n        require(msg.sender == owner);\n        Order(orderAddress).setOrderStatus(uint(restaurantState.HandedOver));\n    }\n}",
  "sourcePath": "/home/george/Documents/University/Dissertation/TryAByte/contracts/Restaurant.sol",
  "compiler": {
    "name": "solc",
    "version": "0.5.0+commit.1d4f565a.Emscripten.clang"
  },
  "schemaVersion": "3.0.2",
  "updatedAt": "2019-03-25T17:03:51.835Z",
  "devdoc": {
    "methods": {}
  },
  "userdoc": {
    "methods": {}
  }
}