{
  "contractName": "Restaurant",
  "abi": [
    {
      "constant": true,
      "inputs": [],
      "name": "name",
      "outputs": [
        {
          "name": "",
          "type": "string"
        }
      ],
      "payable": false,
      "stateMutability": "view",
      "type": "function"
    },
    {
      "constant": true,
      "inputs": [],
      "name": "totalOrders",
      "outputs": [
        {
          "name": "",
          "type": "uint256"
        }
      ],
      "payable": false,
      "stateMutability": "view",
      "type": "function"
    },
    {
      "constant": true,
      "inputs": [],
      "name": "location",
      "outputs": [
        {
          "name": "",
          "type": "string"
        }
      ],
      "payable": false,
      "stateMutability": "view",
      "type": "function"
    },
    {
      "constant": true,
      "inputs": [],
      "name": "restaurantFactoryAddress",
      "outputs": [
        {
          "name": "",
          "type": "address"
        }
      ],
      "payable": false,
      "stateMutability": "view",
      "type": "function"
    },
    {
      "constant": true,
      "inputs": [],
      "name": "contactNumber",
      "outputs": [
        {
          "name": "",
          "type": "string"
        }
      ],
      "payable": false,
      "stateMutability": "view",
      "type": "function"
    },
    {
      "constant": true,
      "inputs": [],
      "name": "rating",
      "outputs": [
        {
          "name": "",
          "type": "uint256"
        }
      ],
      "payable": false,
      "stateMutability": "view",
      "type": "function"
    },
    {
      "constant": true,
      "inputs": [],
      "name": "owner",
      "outputs": [
        {
          "name": "",
          "type": "address"
        }
      ],
      "payable": false,
      "stateMutability": "view",
      "type": "function"
    },
    {
      "constant": true,
      "inputs": [
        {
          "name": "",
          "type": "uint256"
        }
      ],
      "name": "orders",
      "outputs": [
        {
          "name": "open",
          "type": "bool"
        },
        {
          "name": "orderAddress",
          "type": "address"
        }
      ],
      "payable": false,
      "stateMutability": "view",
      "type": "function"
    },
    {
      "constant": true,
      "inputs": [],
      "name": "CustomerFactory",
      "outputs": [
        {
          "name": "",
          "type": "address"
        }
      ],
      "payable": false,
      "stateMutability": "view",
      "type": "function"
    },
    {
      "constant": true,
      "inputs": [
        {
          "name": "",
          "type": "uint256"
        }
      ],
      "name": "menu",
      "outputs": [
        {
          "name": "itemName",
          "type": "bytes32"
        },
        {
          "name": "itemCost",
          "type": "uint256"
        }
      ],
      "payable": false,
      "stateMutability": "view",
      "type": "function"
    },
    {
      "inputs": [
        {
          "name": "_id",
          "type": "uint256"
        },
        {
          "name": "_name",
          "type": "string"
        },
        {
          "name": "_address",
          "type": "string"
        },
        {
          "name": "_contactNumber",
          "type": "string"
        }
      ],
      "payable": false,
      "stateMutability": "nonpayable",
      "type": "constructor"
    },
    {
      "constant": true,
      "inputs": [],
      "name": "getMenuLength",
      "outputs": [
        {
          "name": "length",
          "type": "uint256"
        }
      ],
      "payable": false,
      "stateMutability": "view",
      "type": "function"
    },
    {
      "constant": false,
      "inputs": [],
      "name": "clearMenu",
      "outputs": [],
      "payable": false,
      "stateMutability": "nonpayable",
      "type": "function"
    },
    {
      "constant": false,
      "inputs": [
        {
          "name": "itemNames",
          "type": "bytes32[]"
        },
        {
          "name": "prices",
          "type": "uint256[]"
        }
      ],
      "name": "menuAddItems",
      "outputs": [],
      "payable": false,
      "stateMutability": "nonpayable",
      "type": "function"
    },
    {
      "constant": false,
      "inputs": [
        {
          "name": "itemNames",
          "type": "bytes32[]"
        }
      ],
      "name": "menuRemoveItems",
      "outputs": [
        {
          "name": "result",
          "type": "string"
        }
      ],
      "payable": false,
      "stateMutability": "nonpayable",
      "type": "function"
    },
    {
      "constant": true,
      "inputs": [
        {
          "name": "items",
          "type": "bytes32[]"
        }
      ],
      "name": "validOrder",
      "outputs": [
        {
          "name": "isValid",
          "type": "bool"
        }
      ],
      "payable": false,
      "stateMutability": "view",
      "type": "function"
    },
    {
      "constant": false,
      "inputs": [
        {
          "name": "items",
          "type": "bytes32[]"
        }
      ],
      "name": "makeOrder",
      "outputs": [
        {
          "name": "orderAddress",
          "type": "address"
        }
      ],
      "payable": false,
      "stateMutability": "nonpayable",
      "type": "function"
    },
    {
      "constant": true,
      "inputs": [
        {
          "name": "itemId",
          "type": "uint256"
        }
      ],
      "name": "getMenuItem",
      "outputs": [
        {
          "name": "itemname",
          "type": "bytes32"
        },
        {
          "name": "cost",
          "type": "uint256"
        }
      ],
      "payable": false,
      "stateMutability": "view",
      "type": "function"
    },
    {
      "constant": false,
      "inputs": [
        {
          "name": "_id",
          "type": "uint256"
        }
      ],
      "name": "handOrderOver",
      "outputs": [],
      "payable": false,
      "stateMutability": "nonpayable",
      "type": "function"
    }
  ],
  "bytecode": "0x60806040523480156200001157600080fd5b506040516200318d3803806200318d833981018060405260808110156200003757600080fd5b810190808051906020019092919080516401000000008111156200005a57600080fd5b828101905060208101848111156200007157600080fd5b81518560018202830111640100000000821117156200008f57600080fd5b50509291906020018051640100000000811115620000ac57600080fd5b82810190506020810184811115620000c357600080fd5b8151856001820283011164010000000082111715620000e157600080fd5b50509291906020018051640100000000811115620000fe57600080fd5b828101905060208101848111156200011557600080fd5b81518560018202830111640100000000821117156200013357600080fd5b50509291905050508360008190555082600190805190602001906200015a92919062000221565b5081600290805190602001906200017392919062000221565b5080600390805190602001906200018c92919062000221565b50600060088190555032600560006101000a81548173ffffffffffffffffffffffffffffffffffffffff021916908373ffffffffffffffffffffffffffffffffffffffff16021790555033600660006101000a81548173ffffffffffffffffffffffffffffffffffffffff021916908373ffffffffffffffffffffffffffffffffffffffff16021790555050505050620002d0565b828054600181600116156101000203166002900490600052602060002090601f016020900481019282601f106200026457805160ff191683800117855562000295565b8280016001018555821562000295579182015b828111156200029457825182559160200191906001019062000277565b5b509050620002a49190620002a8565b5090565b620002cd91905b80821115620002c9576000816000905550600101620002af565b5090565b90565b612ead80620002e06000396000f3fe6080604052600436106200010f576000357c0100000000000000000000000000000000000000000000000000000000900463ffffffff16806306fdde031462000114578063125ba97714620001aa578063141cf16614620001d85780631d83440914620002bc5780633e92c46814620002ea578063516f279e14620003cf57806368db65a4146200046557806372bb567814620004bf57806376af633c146200058c57806380f474f614620006225780638da5cb5b1462000650578063a4e4f20114620006aa578063a85c38ef14620006c4578063c4cd9476146200074e578063c7c6d87f14620007a8578063cffb703c14620008b1578063d97c97b6146200090b578063f943eecd146200094a575b600080fd5b3480156200012157600080fd5b506200012c620009a4565b6040518080602001828103825283818151815260200191508051906020019080838360005b838110156200016e57808201518184015260208101905062000151565b50505050905090810190601f1680156200019c5780820380516001836020036101000a031916815260200191505b509250505060405180910390f35b348015620001b757600080fd5b50620001c262000a46565b6040518082815260200191505060405180910390f35b348015620001e557600080fd5b50620002a260048036036020811015620001fe57600080fd5b81019080803590602001906401000000008111156200021c57600080fd5b8201836020820111156200022f57600080fd5b803590602001918460208302840111640100000000831117156200025257600080fd5b919080806020026020016040519081016040528093929190818152602001838360200280828437600081840152601f19601f82011690508083019250505050505050919291929050505062000a53565b604051808215151515815260200191505060405180910390f35b348015620002c957600080fd5b50620002d462000bd5565b6040518082815260200191505060405180910390f35b348015620002f757600080fd5b50620003cd600480360360408110156200031057600080fd5b81019080803590602001906401000000008111156200032e57600080fd5b8201836020820111156200034157600080fd5b803590602001918460208302840111640100000000831117156200036457600080fd5b9091929391929390803590602001906401000000008111156200038657600080fd5b8201836020820111156200039957600080fd5b80359060200191846020830284011164010000000083111715620003bc57600080fd5b909192939192939050505062000bdb565b005b348015620003dc57600080fd5b50620003e762000cf7565b6040518080602001828103825283818151815260200191508051906020019080838360005b83811015620004295780820151818401526020810190506200040c565b50505050905090810190601f168015620004575780820380516001836020036101000a031916815260200191505b509250505060405180910390f35b3480156200047257600080fd5b506200047d62000d99565b604051808273ffffffffffffffffffffffffffffffffffffffff1673ffffffffffffffffffffffffffffffffffffffff16815260200191505060405180910390f35b348015620004cc57600080fd5b506200054a60048036036020811015620004e557600080fd5b81019080803590602001906401000000008111156200050357600080fd5b8201836020820111156200051657600080fd5b803590602001918460208302840111640100000000831117156200053957600080fd5b909192939192939050505062000dbf565b604051808273ffffffffffffffffffffffffffffffffffffffff1673ffffffffffffffffffffffffffffffffffffffff16815260200191505060405180910390f35b3480156200059957600080fd5b50620005a462001236565b6040518080602001828103825283818151815260200191508051906020019080838360005b83811015620005e6578082015181840152602081019050620005c9565b50505050905090810190601f168015620006145780820380516001836020036101000a031916815260200191505b509250505060405180910390f35b3480156200062f57600080fd5b506200063a620012d8565b6040518082815260200191505060405180910390f35b3480156200065d57600080fd5b5062000668620012de565b604051808273ffffffffffffffffffffffffffffffffffffffff1673ffffffffffffffffffffffffffffffffffffffff16815260200191505060405180910390f35b348015620006b757600080fd5b50620006c262001304565b005b348015620006d157600080fd5b506200070160048036036020811015620006ea57600080fd5b810190808035906020019092919050505062001373565b60405180831515151581526020018273ffffffffffffffffffffffffffffffffffffffff1673ffffffffffffffffffffffffffffffffffffffff1681526020019250505060405180910390f35b3480156200075b57600080fd5b5062000766620013c4565b604051808273ffffffffffffffffffffffffffffffffffffffff1673ffffffffffffffffffffffffffffffffffffffff16815260200191505060405180910390f35b348015620007b557600080fd5b506200083360048036036020811015620007ce57600080fd5b8101908080359060200190640100000000811115620007ec57600080fd5b820183602082011115620007ff57600080fd5b803590602001918460208302840111640100000000831117156200082257600080fd5b9091929391929390505050620013ea565b6040518080602001828103825283818151815260200191508051906020019080838360005b838110156200087557808201518184015260208101905062000858565b50505050905090810190601f168015620008a35780820380516001836020036101000a031916815260200191505b509250505060405180910390f35b348015620008be57600080fd5b50620008ee60048036036020811015620008d757600080fd5b810190808035906020019092919050505062001eab565b604051808381526020018281526020019250505060405180910390f35b3480156200091857600080fd5b5062000948600480360360208110156200093157600080fd5b810190808035906020019092919050505062001edf565b005b3480156200095757600080fd5b5062000987600480360360208110156200097057600080fd5b810190808035906020019092919050505062001f11565b604051808381526020018281526020019250505060405180910390f35b60018054600181600116156101000203166002900480601f01602080910402602001604051908101604052809291908181526020018280546001816001161561010002031660029004801562000a3e5780601f1062000a125761010080835404028352916020019162000a3e565b820191906000526020600020905b81548152906001019060200180831162000a2057829003601f168201915b505050505081565b6000600a80549050905090565b600080600090505b825181101562000bca577fffffffffffffffffffffffffffffffffffffffffffffffffffffffffffffffff62000baa73__lib___________________________________639201de55868581518110151562000ab357fe5b906020019060200201516040518263ffffffff167c01000000000000000000000000000000000000000000000000000000000281526004018082815260200191505060006040518083038186803b15801562000b0e57600080fd5b505af415801562000b23573d6000803e3d6000fd5b505050506040513d6000823e3d601f19601f82011682018060405250602081101562000b4e57600080fd5b81019080805164010000000081111562000b6757600080fd5b8281019050602081018481111562000b7e57600080fd5b815185600182028301116401000000008211171562000b9c57600080fd5b505092919050505062001f61565b141562000bbc57600091505062000bd0565b808060010191505062000a5b565b50600190505b919050565b60085481565b600560009054906101000a900473ffffffffffffffffffffffffffffffffffffffff1673ffffffffffffffffffffffffffffffffffffffff163373ffffffffffffffffffffffffffffffffffffffff1614151562000c3857600080fd5b818190508484905014151562000c4d57600080fd5b60008090505b8484905081101562000cf057600a6040805190810160405280878785818110151562000c7b57fe5b905060200201358152602001858585818110151562000c9657fe5b90506020020135815250908060018154018082558091505090600182039060005260206000209060020201600090919290919091506000820151816000015560208201518160010155505050808060010191505062000c53565b5050505050565b60028054600181600116156101000203166002900480601f01602080910402602001604051908101604052809291908181526020018280546001816001161561010002031660029004801562000d915780601f1062000d655761010080835404028352916020019162000d91565b820191906000526020600020905b81548152906001019060200180831162000d7357829003601f168201915b505050505081565b600660009054906101000a900473ffffffffffffffffffffffffffffffffffffffff1681565b600060608383905060405190808252806020026020018201604052801562000df65781602001602082028038833980820191505090505b50905060008090505b848490508110156200102257606073__lib___________________________________639201de55878785818110151562000e3657fe5b905060200201356040518263ffffffff167c01000000000000000000000000000000000000000000000000000000000281526004018082815260200191505060006040518083038186803b15801562000e8e57600080fd5b505af415801562000ea3573d6000803e3d6000fd5b505050506040513d6000823e3d601f19601f82011682018060405250602081101562000ece57600080fd5b81019080805164010000000081111562000ee757600080fd5b8281019050602081018481111562000efe57600080fd5b815185600182028301116401000000008211171562000f1c57600080fd5b50509291905050509050600062000f338262001f61565b90507fffffffffffffffffffffffffffffffffffffffffffffffffffffffffffffffff8114151562000fa457600a8181548110151562000f6f57fe5b906000526020600020906002020160010154848481518110151562000f9057fe5b906020019060200201818152505062001012565b6040517f08c379a000000000000000000000000000000000000000000000000000000000815260040180806020018281038252600d8152602001807f496e76616c6964204974656d730000000000000000000000000000000000000081525060200191505060405180910390fd5b5050808060010191505062000dff565b506008600081548092919060010191905055506000600854600660009054906101000a900473ffffffffffffffffffffffffffffffffffffffff168686856200106a6200211f565b808681526020018573ffffffffffffffffffffffffffffffffffffffff1673ffffffffffffffffffffffffffffffffffffffff16815260200180602001806020018381038352868682818152602001925060200280828437600081840152601f19601f820116905080830192505050838103825284818151815260200191508051906020019060200280838360005b8381101562001116578082015181840152602081019050620010f9565b50505050905001975050505050505050604051809103906000f08015801562001143573d6000803e3d6000fd5b50905060408051908101604052806001151581526020018273ffffffffffffffffffffffffffffffffffffffff1681525060096000600854815260200190815260200160002060008201518160000160006101000a81548160ff02191690831515021790555060208201518160000160016101000a81548173ffffffffffffffffffffffffffffffffffffffff021916908373ffffffffffffffffffffffffffffffffffffffff16021790555090505060096000600854815260200190815260200160002060000160019054906101000a900473ffffffffffffffffffffffffffffffffffffffff169250505092915050565b60038054600181600116156101000203166002900480601f016020809104026020016040519081016040528092919081815260200182805460018160011615610100020316600290048015620012d05780601f10620012a457610100808354040283529160200191620012d0565b820191906000526020600020905b815481529060010190602001808311620012b257829003601f168201915b505050505081565b60045481565b600560009054906101000a900473ffffffffffffffffffffffffffffffffffffffff1681565b600560009054906101000a900473ffffffffffffffffffffffffffffffffffffffff1673ffffffffffffffffffffffffffffffffffffffff163373ffffffffffffffffffffffffffffffffffffffff161415156200136157600080fd5b600a600062001371919062002130565b565b60096020528060005260406000206000915090508060000160009054906101000a900460ff16908060000160019054906101000a900473ffffffffffffffffffffffffffffffffffffffff16905082565b600760009054906101000a900473ffffffffffffffffffffffffffffffffffffffff1681565b6060600560009054906101000a900473ffffffffffffffffffffffffffffffffffffffff1673ffffffffffffffffffffffffffffffffffffffff163373ffffffffffffffffffffffffffffffffffffffff161415156200144957600080fd5b6000838390501115156200145c57600080fd5b6020604051908101604052806000815250905060008090505b8383905081101562001ea15773__lib___________________________________63ff74927b8373__lib___________________________________63ff74927b73__lib___________________________________639201de558a8a898181101515620014df57fe5b905060200201356040518263ffffffff167c01000000000000000000000000000000000000000000000000000000000281526004018082815260200191505060006040518083038186803b1580156200153757600080fd5b505af41580156200154c573d6000803e3d6000fd5b505050506040513d6000823e3d601f19601f8201168201806040525060208110156200157757600080fd5b8101908080516401000000008111156200159057600080fd5b82810190506020810184811115620015a757600080fd5b8151856001820283011164010000000082111715620015c557600080fd5b50509291905050506040518263ffffffff167c0100000000000000000000000000000000000000000000000000000000028152600401808060200180602001838103835284818151815260200191508051906020019080838360005b838110156200163e57808201518184015260208101905062001621565b50505050905090810190601f1680156200166c5780820380516001836020036101000a031916815260200191505b50838103825260018152602001807f3a00000000000000000000000000000000000000000000000000000000000000815250602001935050505060006040518083038186803b158015620016bf57600080fd5b505af4158015620016d4573d6000803e3d6000fd5b505050506040513d6000823e3d601f19601f820116820180604052506020811015620016ff57600080fd5b8101908080516401000000008111156200171857600080fd5b828101905060208101848111156200172f57600080fd5b81518560018202830111640100000000821117156200174d57600080fd5b50509291905050506040518363ffffffff167c0100000000000000000000000000000000000000000000000000000000028152600401808060200180602001838103835285818151815260200191508051906020019080838360005b83811015620017c6578082015181840152602081019050620017a9565b50505050905090810190601f168015620017f45780820380516001836020036101000a031916815260200191505b50838103825284818151815260200191508051906020019080838360005b838110156200182f57808201518184015260208101905062001812565b50505050905090810190601f1680156200185d5780820380516001836020036101000a031916815260200191505b5094505050505060006040518083038186803b1580156200187d57600080fd5b505af415801562001892573d6000803e3d6000fd5b505050506040513d6000823e3d601f19601f820116820180604052506020811015620018bd57600080fd5b810190808051640100000000811115620018d657600080fd5b82810190506020810184811115620018ed57600080fd5b81518560018202830111640100000000821117156200190b57600080fd5b50509291905050509150600062001a3873__lib___________________________________639201de5587878681811015156200194457fe5b905060200201356040518263ffffffff167c01000000000000000000000000000000000000000000000000000000000281526004018082815260200191505060006040518083038186803b1580156200199c57600080fd5b505af4158015620019b1573d6000803e3d6000fd5b505050506040513d6000823e3d601f19601f820116820180604052506020811015620019dc57600080fd5b810190808051640100000000811115620019f557600080fd5b8281019050602081018481111562001a0c57600080fd5b815185600182028301116401000000008211171562001a2a57600080fd5b505092919050505062001f61565b90507fffffffffffffffffffffffffffffffffffffffffffffffffffffffffffffffff8114151562001cec57600a8181548110151562001a7457fe5b906000526020600020906002020160008082016000905560018201600090555050600a6001600a805490500381548110151562001aad57fe5b9060005260206000209060020201600a8281548110151562001acb57fe5b90600052602060002090600202016000820154816000015560018201548160010155905050600a6001600a805490500381548110151562001b0857fe5b90600052602060002090600202016000808201600090556001820160009055505073__lib___________________________________63ff74927b846040518263ffffffff167c0100000000000000000000000000000000000000000000000000000000028152600401808060200180602001838103835284818151815260200191508051906020019080838360005b8381101562001bb557808201518184015260208101905062001b98565b50505050905090810190601f16801562001be35780820380516001836020036101000a031916815260200191505b50838103825260148152602001807f2052656d6f7665642053756365737366756c6c79000000000000000000000000815250602001935050505060006040518083038186803b15801562001c3657600080fd5b505af415801562001c4b573d6000803e3d6000fd5b505050506040513d6000823e3d601f19601f82011682018060405250602081101562001c7657600080fd5b81019080805164010000000081111562001c8f57600080fd5b8281019050602081018481111562001ca657600080fd5b815185600182028301116401000000008211171562001cc457600080fd5b50509291905050509250600a80548091906001900362001ce5919062002156565b5062001e92565b73__lib___________________________________63ff74927b846040518263ffffffff167c0100000000000000000000000000000000000000000000000000000000028152600401808060200180602001838103835284818151815260200191508051906020019080838360005b8381101562001d7857808201518184015260208101905062001d5b565b50505050905090810190601f16801562001da65780820380516001836020036101000a031916815260200191505b508381038252601e8152602001807f204572726f722c20636f756c64206e6f742066696e6420696e206d656e750000815250602001935050505060006040518083038186803b15801562001df957600080fd5b505af415801562001e0e573d6000803e3d6000fd5b505050506040513d6000823e3d601f19601f82011682018060405250602081101562001e3957600080fd5b81019080805164010000000081111562001e5257600080fd5b8281019050602081018481111562001e6957600080fd5b815185600182028301116401000000008211171562001e8757600080fd5b505092919050505092505b50808060010191505062001475565b5080905092915050565b600a8181548110151562001ebb57fe5b90600052602060002090600202016000915090508060000154908060010154905082565b60006009600083815260200190815260200160002060000160006101000a81548160ff02191690831515021790555050565b600080600a8381548110151562001f2457fe5b906000526020600020906002020160000154600a8481548110151562001f4657fe5b90600052602060002090600202016001015491509150915091565b600080600090505b600a80549050811215620020c357620020a573__lib___________________________________639201de55600a8481548110151562001fa557fe5b9060005260206000209060020201600001546040518263ffffffff167c01000000000000000000000000000000000000000000000000000000000281526004018082815260200191505060006040518083038186803b1580156200200857600080fd5b505af41580156200201d573d6000803e3d6000fd5b505050506040513d6000823e3d601f19601f8201168201806040525060208110156200204857600080fd5b8101908080516401000000008111156200206157600080fd5b828101905060208101848111156200207857600080fd5b81518560018202830111640100000000821117156200209657600080fd5b505092919050505084620020ed565b15620020b55780915050620020e8565b808060010191505062001f69565b507fffffffffffffffffffffffffffffffffffffffffffffffffffffffffffffffff90505b919050565b60008151835114151562002105576000905062002119565b818051906020012083805190602001201490505b92915050565b604051610cc480620021be83390190565b50805460008255600202906000526020600020908101906200215391906200218b565b50565b81548183558181111562002186576002028160020283600052602060002091820191016200218591906200218b565b5b505050565b620021ba91905b80821115620021b65760008082016000905560018201600090555060020162002192565b5090565b9056fe60806040523480156200001157600080fd5b5060405162000cc438038062000cc4833981018060405260808110156200003757600080fd5b81019080805190602001909291908051906020019092919080516401000000008111156200006457600080fd5b828101905060208101848111156200007b57600080fd5b81518560208202830111640100000000821117156200009957600080fd5b50509291906020018051640100000000811115620000b657600080fd5b82810190506020810184811115620000cd57600080fd5b8151856020820283011164010000000082111715620000eb57600080fd5b50509291905050508273ffffffffffffffffffffffffffffffffffffffff166379a4fa27336040518263ffffffff167c0100000000000000000000000000000000000000000000000000000000028152600401808273ffffffffffffffffffffffffffffffffffffffff1673ffffffffffffffffffffffffffffffffffffffff16815260200191505060206040518083038186803b1580156200018d57600080fd5b505afa158015620001a2573d6000803e3d6000fd5b505050506040513d6020811015620001b957600080fd5b81019080805190602001909291905050501515620001d657600080fd5b80518251141515620001e757600080fd5b8360008190555033600160006101000a81548173ffffffffffffffffffffffffffffffffffffffff021916908373ffffffffffffffffffffffffffffffffffffffff16021790555032600460006101000a81548173ffffffffffffffffffffffffffffffffffffffff021916908373ffffffffffffffffffffffffffffffffffffffff16021790555082600260006101000a81548173ffffffffffffffffffffffffffffffffffffffff021916908373ffffffffffffffffffffffffffffffffffffffff160217905550600060068190555060008090505b82518110156200047057604080519081016040528073__lib___________________________________639201de558685815181101515620002fd57fe5b906020019060200201516040518263ffffffff167c01000000000000000000000000000000000000000000000000000000000281526004018082815260200191505060006040518083038186803b1580156200035857600080fd5b505af41580156200036d573d6000803e3d6000fd5b505050506040513d6000823e3d601f19601f8201168201806040525060208110156200039857600080fd5b810190808051640100000000811115620003b157600080fd5b82810190506020810184811115620003c857600080fd5b8151856001820283011164010000000082111715620003e657600080fd5b5050929190505050815260200183838151811015156200040257fe5b906020019060200201518152506007600060065481526020019081526020016000206000820151816000019080519060200190620004429291906200047b565b50602082015181600101559050506006600081548092919060010191905055508080600101915050620002bf565b50505050506200052a565b828054600181600116156101000203166002900490600052602060002090601f016020900481019282601f10620004be57805160ff1916838001178555620004ef565b82800160010185558215620004ef579182015b82811115620004ee578251825591602001919060010190620004d1565b5b509050620004fe919062000502565b5090565b6200052791905b808211156200052357600081600090555060010162000509565b5090565b90565b61078a806200053a6000396000f3fe608060405260043610610083576000357c0100000000000000000000000000000000000000000000000000000000900463ffffffff1680632799276d146100885780633129e773146100b35780633733d9f51461010957806368db65a414610134578063af640d0f1461018b578063bfb231d2146101b6578063ed16805814610271575b600080fd5b34801561009457600080fd5b5061009d6102c8565b6040518082815260200191505060405180910390f35b3480156100bf57600080fd5b506100ec600480360360208110156100d657600080fd5b81019080803590602001909291905050506102ce565b604051808381526020018281526020019250505060405180910390f35b34801561011557600080fd5b5061011e61053a565b6040518082815260200191505060405180910390f35b34801561014057600080fd5b50610149610650565b604051808273ffffffffffffffffffffffffffffffffffffffff1673ffffffffffffffffffffffffffffffffffffffff16815260200191505060405180910390f35b34801561019757600080fd5b506101a0610676565b6040518082815260200191505060405180910390f35b3480156101c257600080fd5b506101ef600480360360208110156101d957600080fd5b810190808035906020019092919050505061067c565b6040518080602001838152602001828103825284818151815260200191508051906020019080838360005b8381101561023557808201518184015260208101905061021a565b50505050905090810190601f1680156102625780820380516001836020036101000a031916815260200191505b50935050505060405180910390f35b34801561027d57600080fd5b50610286610738565b604051808273ffffffffffffffffffffffffffffffffffffffff1673ffffffffffffffffffffffffffffffffffffffff16815260200191505060405180910390f35b60065481565b6000803373ffffffffffffffffffffffffffffffffffffffff16600460009054906101000a900473ffffffffffffffffffffffffffffffffffffffff1673ffffffffffffffffffffffffffffffffffffffff16148061037a57503373ffffffffffffffffffffffffffffffffffffffff16600160009054906101000a900473ffffffffffffffffffffffffffffffffffffffff1673ffffffffffffffffffffffffffffffffffffffff16145b806103d257503373ffffffffffffffffffffffffffffffffffffffff16600360009054906101000a900473ffffffffffffffffffffffffffffffffffffffff1673ffffffffffffffffffffffffffffffffffffffff16145b15156103dd57600080fd5b73__lib___________________________________63cfb51928600760008681526020019081526020016000206000016040518263ffffffff167c010000000000000000000000000000000000000000000000000000000002815260040180806020018281038252838181546001816001161561010002031660029004815260200191508054600181600116156101000203166002900480156104c15780601f10610496576101008083540402835291602001916104c1565b820191906000526020600020905b8154815290600101906020018083116104a457829003601f168201915b50509250505060206040518083038186803b1580156104df57600080fd5b505af41580156104f3573d6000803e3d6000fd5b505050506040513d602081101561050957600080fd5b8101908080519060200190929190505050600760008581526020019081526020016000206001015491509150915091565b60003373ffffffffffffffffffffffffffffffffffffffff16600460009054906101000a900473ffffffffffffffffffffffffffffffffffffffff1673ffffffffffffffffffffffffffffffffffffffff1614806105e557503373ffffffffffffffffffffffffffffffffffffffff16600160009054906101000a900473ffffffffffffffffffffffffffffffffffffffff1673ffffffffffffffffffffffffffffffffffffffff16145b8061063d57503373ffffffffffffffffffffffffffffffffffffffff16600360009054906101000a900473ffffffffffffffffffffffffffffffffffffffff1673ffffffffffffffffffffffffffffffffffffffff16145b151561064857600080fd5b600554905090565b600260009054906101000a900473ffffffffffffffffffffffffffffffffffffffff1681565b60005481565b6007602052806000526040600020600091509050806000018054600181600116156101000203166002900480601f0160208091040260200160405190810160405280929190818152602001828054600181600116156101000203166002900480156107285780601f106106fd57610100808354040283529160200191610728565b820191906000526020600020905b81548152906001019060200180831161070b57829003601f168201915b5050505050908060010154905082565b600160009054906101000a900473ffffffffffffffffffffffffffffffffffffffff168156fea165627a7a72305820579019d5558fd8bf5ca3b7b3cc89c4e00a2004cd2c006332808628f8378d01700029a165627a7a7230582082aa94c80905b1cf405b52176aab9399708bdcdc308331a1e36c7eba0524c96d0029",
  "source": "pragma solidity ^0.5.0;\n\n import \"./lib.sol\";\n import \"./Order.sol\";\n import \"./RestaurantFactory.sol\";\n\ncontract Restaurant {\n\n    using lib for bytes32;\n\n\tuint id;\n\tstring public name;\n\tstring public location;\n\tstring public contactNumber;\n\tuint public rating;\n\taddress public owner;\n\taddress public restaurantFactoryAddress;\n\taddress public CustomerFactory;\n\n\n    struct order{bool open; address orderAddress;}\n\tuint public totalOrders;\n\tmapping(uint => order) public orders;\n\t\n\tstruct Item{\n\t\tbytes32 itemName;\n\t\tuint itemCost; // in wei (10^-18 Eth)\n\t}\n\t\n\tItem[] public menu; // should probably change this to a mapping\n\t\n\n\tconstructor(uint _id, string memory _name,string memory _address,string memory _contactNumber) public {\n\t\tid = _id;\n\t\tname = _name;\n\t\tlocation = _address;\n\t\tcontactNumber = _contactNumber;\n\t\ttotalOrders = 0;\n\t\towner = tx.origin; // assign owner of the order to the account that called the restaurant factory \n\t\trestaurantFactoryAddress = msg.sender;\n\t}\n\n    function getMenuLength() external view returns(uint length){\n        return menu.length;\n    }\n\n    function clearMenu() external {\n        require(msg.sender == owner);\n        delete menu;\n    }\n    \n    function menuAddItems(bytes32[] calldata itemNames, uint[] calldata prices) external {\n        require(msg.sender == owner);\n        require(itemNames.length == prices.length);\n        \n        // should add checks that an item isn't added twice\n        for(uint i = 0; i<itemNames.length;i++){\n            menu.push(Item(itemNames[i], prices[i]));\n        }\n    }\n\n    \n    // could add ids to menu items then remove by id to lower gas cost\n    function menuRemoveItems(bytes32[] calldata itemNames) external returns(string memory result){\n        require(msg.sender == owner);\n        require(itemNames.length>0);\n        result = \"\";\n        for(uint i = 0; i<itemNames.length;i++){\n            result = lib.strConcat(result,lib.strConcat(lib.bytes32ToString(itemNames[i]),\":\"));\n            int index = menuSearch(lib.bytes32ToString(itemNames[i]));\n            if(index!=-1){\n                delete menu[uint(index)];\n                menu[uint(index)] = menu[menu.length-1];\n                delete menu[menu.length-1];\n                result = lib.strConcat(result,\" Removed Sucessfully\");\n                menu.length--;\n            }\n            else{\n                result = lib.strConcat(result, \" Error, could not find in menu\");\n            }\n        }\n        \n        return result;\n    }\n    \n    function menuSearch(string memory query) private view returns(int index){\n        for(int i = 0; i<int(menu.length);i++){\n            if(lib.compareStrings(lib.bytes32ToString(menu[uint(i)].itemName),query)){\n                return i;\n            }\n        }\n        return -1;\n    }\n\n    function validOrder(bytes32[] memory items) public view returns (bool isValid){\n        for(uint i = 0; i < items.length; i++){\n            if(menuSearch(lib.bytes32ToString(items[i])) == -1){\n                return false;\n            }\n        }\n        return true;\n    }\n    \n    function makeOrder(bytes32[] calldata items) external returns (address orderAddress) {\n        //require this comes from a customer smart contract\n        //require(CustomerFactory(customerFactoryAddress).customerExists(msg.sender));\n        \n\n        uint[] memory prices = new uint[](items.length);\n        for(uint i = 0; i < items.length; i++)\n        {\n            string memory a = lib.bytes32ToString(items[i]); \n            int index = menuSearch(a); \n            \n            if (index != -1){\n                prices[i] = menu[uint(index)].itemCost;\n            }\n            else{\n                revert(\"Invalid Items\");\n            }\n        }\n        \n\n        totalOrders ++;\n\t\tOrder newOrder = new Order(totalOrders,restaurantFactoryAddress,items,prices);\n\t\torders[totalOrders] = order(true,address(newOrder));\n\t\treturn orders[totalOrders].orderAddress;       \n    }\n    \n    function getMenuItem(uint itemId)public view returns(bytes32 itemname, uint cost){\n        return (menu[itemId].itemName,menu[itemId].itemCost);\n    }\n\n    function handOrderOver(uint _id) public{\n        // require rider and restaurant\n        orders[_id].open = false;\n    }\n    \n}",
  "sourcePath": "/home/george/Documents/University/Dissertation/TryAByte/contracts/Restaurant.sol",
  "compiler": {
    "name": "solc",
    "version": "0.5.0+commit.1d4f565a.Emscripten.clang"
  },
  "schemaVersion": "3.0.2",
  "updatedAt": "2019-03-10T18:03:36.087Z",
  "devdoc": {
    "methods": {}
  },
  "userdoc": {
    "methods": {}
  }
}