{
  "contractName": "Restaurant",
  "abi": [
    {
      "inputs": [
        {
          "internalType": "address",
          "name": "_controller",
          "type": "address"
        },
        {
          "internalType": "address payable",
          "name": "_owner",
          "type": "address"
        },
        {
          "internalType": "uint256",
          "name": "_id",
          "type": "uint256"
        },
        {
          "internalType": "bytes32",
          "name": "_name",
          "type": "bytes32"
        },
        {
          "internalType": "bytes",
          "name": "_address",
          "type": "bytes"
        },
        {
          "internalType": "uint256",
          "name": "_latitude",
          "type": "uint256"
        },
        {
          "internalType": "uint256",
          "name": "_longitude",
          "type": "uint256"
        },
        {
          "internalType": "bytes32",
          "name": "_contactNumber",
          "type": "bytes32"
        }
      ],
      "payable": false,
      "stateMutability": "nonpayable",
      "type": "constructor"
    },
    {
      "anonymous": false,
      "inputs": [],
      "name": "MenuUpdated",
      "type": "event"
    },
    {
      "anonymous": false,
      "inputs": [
        {
          "indexed": false,
          "internalType": "address",
          "name": "orderAddress",
          "type": "address"
        }
      ],
      "name": "OrderMadeEvent",
      "type": "event"
    },
    {
      "payable": true,
      "stateMutability": "payable",
      "type": "fallback"
    },
    {
      "constant": true,
      "inputs": [],
      "name": "contactNumber",
      "outputs": [
        {
          "internalType": "bytes32",
          "name": "",
          "type": "bytes32"
        }
      ],
      "payable": false,
      "stateMutability": "view",
      "type": "function"
    },
    {
      "constant": true,
      "inputs": [],
      "name": "controllerAddress",
      "outputs": [
        {
          "internalType": "address",
          "name": "",
          "type": "address"
        }
      ],
      "payable": false,
      "stateMutability": "view",
      "type": "function"
    },
    {
      "constant": true,
      "inputs": [],
      "name": "id",
      "outputs": [
        {
          "internalType": "uint256",
          "name": "",
          "type": "uint256"
        }
      ],
      "payable": false,
      "stateMutability": "view",
      "type": "function"
    },
    {
      "constant": true,
      "inputs": [],
      "name": "latitude",
      "outputs": [
        {
          "internalType": "uint256",
          "name": "",
          "type": "uint256"
        }
      ],
      "payable": false,
      "stateMutability": "view",
      "type": "function"
    },
    {
      "constant": true,
      "inputs": [],
      "name": "location",
      "outputs": [
        {
          "internalType": "bytes",
          "name": "",
          "type": "bytes"
        }
      ],
      "payable": false,
      "stateMutability": "view",
      "type": "function"
    },
    {
      "constant": true,
      "inputs": [],
      "name": "logoHash",
      "outputs": [
        {
          "internalType": "bytes32",
          "name": "",
          "type": "bytes32"
        }
      ],
      "payable": false,
      "stateMutability": "view",
      "type": "function"
    },
    {
      "constant": true,
      "inputs": [],
      "name": "logoURI",
      "outputs": [
        {
          "internalType": "bytes",
          "name": "",
          "type": "bytes"
        }
      ],
      "payable": false,
      "stateMutability": "view",
      "type": "function"
    },
    {
      "constant": true,
      "inputs": [],
      "name": "longitude",
      "outputs": [
        {
          "internalType": "uint256",
          "name": "",
          "type": "uint256"
        }
      ],
      "payable": false,
      "stateMutability": "view",
      "type": "function"
    },
    {
      "constant": true,
      "inputs": [],
      "name": "name",
      "outputs": [
        {
          "internalType": "bytes32",
          "name": "",
          "type": "bytes32"
        }
      ],
      "payable": false,
      "stateMutability": "view",
      "type": "function"
    },
    {
      "constant": true,
      "inputs": [
        {
          "internalType": "uint256",
          "name": "",
          "type": "uint256"
        }
      ],
      "name": "orders",
      "outputs": [
        {
          "internalType": "bool",
          "name": "open",
          "type": "bool"
        },
        {
          "internalType": "address",
          "name": "orderAddress",
          "type": "address"
        }
      ],
      "payable": false,
      "stateMutability": "view",
      "type": "function"
    },
    {
      "constant": true,
      "inputs": [],
      "name": "owner",
      "outputs": [
        {
          "internalType": "address payable",
          "name": "",
          "type": "address"
        }
      ],
      "payable": false,
      "stateMutability": "view",
      "type": "function"
    },
    {
      "constant": true,
      "inputs": [],
      "name": "restaurantFactoryAddress",
      "outputs": [
        {
          "internalType": "address",
          "name": "",
          "type": "address"
        }
      ],
      "payable": false,
      "stateMutability": "view",
      "type": "function"
    },
    {
      "constant": true,
      "inputs": [],
      "name": "totalOrders",
      "outputs": [
        {
          "internalType": "uint256",
          "name": "",
          "type": "uint256"
        }
      ],
      "payable": false,
      "stateMutability": "view",
      "type": "function"
    },
    {
      "constant": true,
      "inputs": [],
      "name": "getMenuAddress",
      "outputs": [
        {
          "internalType": "address",
          "name": "",
          "type": "address"
        }
      ],
      "payable": false,
      "stateMutability": "view",
      "type": "function"
    },
    {
      "constant": false,
      "inputs": [
        {
          "internalType": "bytes",
          "name": "imageURI",
          "type": "bytes"
        },
        {
          "internalType": "bytes32",
          "name": "imageHash",
          "type": "bytes32"
        }
      ],
      "name": "updateLogo",
      "outputs": [],
      "payable": false,
      "stateMutability": "nonpayable",
      "type": "function"
    },
    {
      "constant": false,
      "inputs": [
        {
          "internalType": "address",
          "name": "orderAddress",
          "type": "address"
        },
        {
          "internalType": "uint256",
          "name": "status",
          "type": "uint256"
        }
      ],
      "name": "setStatus",
      "outputs": [],
      "payable": false,
      "stateMutability": "nonpayable",
      "type": "function"
    },
    {
      "constant": false,
      "inputs": [],
      "name": "pay",
      "outputs": [],
      "payable": true,
      "stateMutability": "payable",
      "type": "function"
    },
    {
      "constant": false,
      "inputs": [
        {
          "internalType": "bytes32",
          "name": "_name",
          "type": "bytes32"
        },
        {
          "internalType": "bytes32",
          "name": "_number",
          "type": "bytes32"
        },
        {
          "internalType": "address payable",
          "name": "_owner",
          "type": "address"
        },
        {
          "internalType": "bytes",
          "name": "_location",
          "type": "bytes"
        },
        {
          "internalType": "uint256",
          "name": "_latitude",
          "type": "uint256"
        },
        {
          "internalType": "uint256",
          "name": "_longitude",
          "type": "uint256"
        },
        {
          "internalType": "bytes",
          "name": "_logoURI",
          "type": "bytes"
        },
        {
          "internalType": "bytes32",
          "name": "_logoHash",
          "type": "bytes32"
        }
      ],
      "name": "updateRestaurant",
      "outputs": [],
      "payable": false,
      "stateMutability": "nonpayable",
      "type": "function"
    },
    {
      "constant": false,
      "inputs": [
        {
          "internalType": "bytes32",
          "name": "_name",
          "type": "bytes32"
        }
      ],
      "name": "setName",
      "outputs": [],
      "payable": false,
      "stateMutability": "nonpayable",
      "type": "function"
    },
    {
      "constant": false,
      "inputs": [
        {
          "internalType": "bytes32",
          "name": "_number",
          "type": "bytes32"
        }
      ],
      "name": "setNumber",
      "outputs": [],
      "payable": false,
      "stateMutability": "nonpayable",
      "type": "function"
    },
    {
      "constant": false,
      "inputs": [
        {
          "internalType": "address payable",
          "name": "_owner",
          "type": "address"
        }
      ],
      "name": "setOwner",
      "outputs": [],
      "payable": false,
      "stateMutability": "nonpayable",
      "type": "function"
    },
    {
      "constant": false,
      "inputs": [
        {
          "internalType": "bytes",
          "name": "_location",
          "type": "bytes"
        },
        {
          "internalType": "uint256",
          "name": "_latitude",
          "type": "uint256"
        },
        {
          "internalType": "uint256",
          "name": "_longitude",
          "type": "uint256"
        }
      ],
      "name": "setLocation",
      "outputs": [],
      "payable": false,
      "stateMutability": "nonpayable",
      "type": "function"
    },
    {
      "constant": false,
      "inputs": [
        {
          "internalType": "bytes",
          "name": "_logoURI",
          "type": "bytes"
        },
        {
          "internalType": "bytes32",
          "name": "_logoHash",
          "type": "bytes32"
        }
      ],
      "name": "setLogo",
      "outputs": [],
      "payable": false,
      "stateMutability": "nonpayable",
      "type": "function"
    }
  ],
  "bytecode": "0x60806040523480156200001157600080fd5b5060405162003f5d38038062003f5d83398181016040526101008110156200003857600080fd5b81516020830151604080850151606086015160808701805193519597949692959194919392820192846401000000008211156200007457600080fd5b9083019060208201858111156200008a57600080fd5b8251640100000000811182820188101715620000a557600080fd5b82525081516020918201929091019080838360005b83811015620000d4578181015183820152602001620000ba565b50505050905090810190601f168015620001025780820380516001836020036101000a031916815260200191505b506040908152602082810151918301516060909301516000899055600188905586519295509293506200013b91600291870190620001fe565b506004839055600382905560078190556000600b819055600d55600980546001600160a01b03808b166001600160a01b03199283161790925560088054928a1692821692909217909155600a8054909116331790556040518790620001a09062000283565b6001600160a01b03909116815260405190819003602001906000f080158015620001ce573d6000803e3d6000fd5b50600e80546001600160a01b0319166001600160a01b039290921691909117905550620002b19650505050505050565b828054600181600116156101000203166002900490600052602060002090601f016020900481019282601f106200024157805160ff191683800117855562000271565b8280016001018555821562000271579182015b828111156200027157825182559160200191906001019062000254565b506200027f92915062000291565b5090565b6130348062000f2983390190565b620002ae91905b808211156200027f576000815560010162000298565b90565b610c6880620002c16000396000f3fe6080604052600436106101405760003560e01c806368db65a4116100b6578063a64f207a1161006f578063a64f207a14610581578063a85c38ef146105fc578063af640d0f14610649578063c1f0f00d1461065e578063df7be1ca14610711578063f1d4b2c51461072657610140565b806368db65a4146103935780636bb38b28146103a857806376af633c146103bd5780637e29b003146103d25780637e55d59c146105335780638da5cb5b1461056c57610140565b80634b24ea47116101085780634b24ea47146101ea5780634fd7d76a146101ff578063516f279e146102145780635863bebe1461029e578063589af69c146103545780635ac801fe1461036957610140565b806301751d411461014257806306fdde031461017357806313af40351461019a5780631b9265b8146101cd5780631d834409146101d5575b005b34801561014e57600080fd5b50610157610750565b604080516001600160a01b039092168252519081900360200190f35b34801561017f57600080fd5b50610188610760565b60408051918252519081900360200190f35b3480156101a657600080fd5b50610140600480360360208110156101bd57600080fd5b50356001600160a01b0316610766565b61014061079f565b3480156101e157600080fd5b506101886107e5565b3480156101f657600080fd5b506101576107eb565b34801561020b57600080fd5b506101886107fa565b34801561022057600080fd5b50610229610800565b6040805160208082528351818301528351919283929083019185019080838360005b8381101561026357818101518382015260200161024b565b50505050905090810190601f1680156102905780820380516001836020036101000a031916815260200191505b509250505060405180910390f35b3480156102aa57600080fd5b50610140600480360360608110156102c157600080fd5b810190602081018135600160201b8111156102db57600080fd5b8201836020820111156102ed57600080fd5b803590602001918460018302840111600160201b8311171561030e57600080fd5b91908080601f016020809104026020016040519081016040528093929190818152602001838380828437600092019190915250929550508235935050506020013561088b565b34801561036057600080fd5b506101886108bd565b34801561037557600080fd5b506101406004803603602081101561038c57600080fd5b50356108c3565b34801561039f57600080fd5b506101576108df565b3480156103b457600080fd5b506102296108ee565b3480156103c957600080fd5b50610188610949565b3480156103de57600080fd5b5061014060048036036101008110156103f657600080fd5b8135916020810135916001600160a01b036040830135169190810190608081016060820135600160201b81111561042c57600080fd5b82018360208201111561043e57600080fd5b803590602001918460018302840111600160201b8311171561045f57600080fd5b91908080601f0160208091040260200160405190810160405280939291908181526020018383808284376000920191909152509295843595602086013595919450925060608101915060400135600160201b8111156104bd57600080fd5b8201836020820111156104cf57600080fd5b803590602001918460018302840111600160201b831117156104f057600080fd5b91908080601f016020809104026020016040519081016040528093929190818152602001838380828437600092019190915250929550509135925061094f915050565b34801561053f57600080fd5b506101406004803603604081101561055657600080fd5b506001600160a01b0381351690602001356109bc565b34801561057857600080fd5b50610157610a75565b34801561058d57600080fd5b50610140600480360360408110156105a457600080fd5b810190602081018135600160201b8111156105be57600080fd5b8201836020820111156105d057600080fd5b803590602001918460018302840111600160201b831117156105f157600080fd5b919350915035610a84565b34801561060857600080fd5b506106266004803603602081101561061f57600080fd5b5035610aaf565b6040805192151583526001600160a01b0390911660208301528051918290030190f35b34801561065557600080fd5b50610188610ad4565b34801561066a57600080fd5b506101406004803603604081101561068157600080fd5b810190602081018135600160201b81111561069b57600080fd5b8201836020820111156106ad57600080fd5b803590602001918460018302840111600160201b831117156106ce57600080fd5b91908080601f0160208091040260200160405190810160405280939291908181526020018383808284376000920191909152509295505091359250610ada915050565b34801561071d57600080fd5b50610188610b0b565b34801561073257600080fd5b506101406004803603602081101561074957600080fd5b5035610b11565b600e546001600160a01b03165b90565b60015481565b6008546001600160a01b0316331461077d57600080fd5b600880546001600160a01b0319166001600160a01b0392909216919091179055565b600d8054349081019091556008546040516001600160a01b039091169180156108fc02916000818181858888f193505050501580156107e2573d6000803e3d6000fd5b50565b600b5481565b6009546001600160a01b031681565b60045481565b6002805460408051602060018416156101000260001901909316849004601f810184900484028201840190925281815292918301828280156108835780601f1061085857610100808354040283529160200191610883565b820191906000526020600020905b81548152906001019060200180831161086657829003601f168201915b505050505081565b6008546001600160a01b031633146108a257600080fd5b82516108b5906002906020860190610b2d565b506003555050565b60035481565b6008546001600160a01b031633146108da57600080fd5b600155565b600a546001600160a01b031681565b6005805460408051602060026001851615610100026000190190941693909304601f810184900484028201840190925281815292918301828280156108835780601f1061085857610100808354040283529160200191610883565b60075481565b6008546001600160a01b0316331461096657600080fd5b61096f886108c3565b61097887610b11565b6001600160a01b038616156109905761099086610766565b8451156109a2576109a285858561088b565b8151156109b2576109b2886108c3565b5050505050505050565b6008546001600160a01b03163314610a13576040805162461bcd60e51b81526020600482015260156024820152743cb7ba9030b932903737ba103a34329037bbb732b960591b604482015290519081900360640190fd5b816001600160a01b031663e9132c42826040518263ffffffff1660e01b815260040180828152602001915050600060405180830381600087803b158015610a5957600080fd5b505af1158015610a6d573d6000803e3d6000fd5b505050505050565b6008546001600160a01b031681565b6008546001600160a01b03163314610a9b57600080fd5b610aa760058484610bab565b506006555050565b600c6020526000908152604090205460ff81169061010090046001600160a01b031682565b60005481565b6008546001600160a01b03163314610af157600080fd5b8151610b04906005906020850190610b2d565b5060065550565b60065481565b6008546001600160a01b03163314610b2857600080fd5b600755565b828054600181600116156101000203166002900490600052602060002090601f016020900481019282601f10610b6e57805160ff1916838001178555610b9b565b82800160010185558215610b9b579182015b82811115610b9b578251825591602001919060010190610b80565b50610ba7929150610c19565b5090565b828054600181600116156101000203166002900490600052602060002090601f016020900481019282601f10610bec5782800160ff19823516178555610b9b565b82800160010185558215610b9b579182015b82811115610b9b578235825591602001919060010190610bfe565b61075d91905b80821115610ba75760008155600101610c1f56fea265627a7a7231582035dcb405bdc33fc031c4f32f7757b8fa9c9237798e114fe1d9d1856cd8fbc69f64736f6c634300050c00326080604052600060015560006002556000600355600060045534801561002457600080fd5b506040516130343803806130348339818101604052602081101561004757600080fd5b5051600080546001600160a01b039092166001600160a01b0319909216919091179055612fbb806100796000396000f3fe608060405234801561001057600080fd5b506004361061018e5760003560e01c80638635029b116100de578063bfb231d211610097578063d54307ca11610071578063d54307ca1461088d578063e40c8a321461107e578063e4d8a2a614611223578063e84051541461124c5761018e565b8063bfb231d214610df5578063c98baa3214610e38578063ca497d5c14610fdd5761018e565b80638635029b14610ad95780638da5cb5b14610ae15780638fb0f14c14610b05578063a6bd92e314610ba6578063ab90dae814610cc9578063bae78d7b14610cec5761018e565b8063488504431161014b57806368fa69941161012557806368fa69941461045d5780637087ab331461088d578063713291711461089557806379b0542d146108b25761018e565b806348850443146104105780635468bc2f146104185780635b4b8792146104555761018e565b80630545ba2914610193578063125ba977146101b85780631d082931146101d25780631f7b6d321461039e57806335484952146103a6578063409e2205146103d5575b600080fd5b6101b6600480360360408110156101a957600080fd5b50803590602001356113f1565b005b6101c061154d565b60408051918252519081900360200190f35b61038a600480360360c08110156101e857600080fd5b81359160208101359160408201359190810190608081016060820135600160201b81111561021557600080fd5b82018360208201111561022757600080fd5b803590602001918460208302840111600160201b8311171561024857600080fd5b9190808060200260200160405190810160405280939291908181526020018383602002808284376000920191909152509295949360208101935035915050600160201b81111561029757600080fd5b8201836020820111156102a957600080fd5b803590602001918460208302840111600160201b831117156102ca57600080fd5b9190808060200260200160405190810160405280939291908181526020018383602002808284376000920191909152509295949360208101935035915050600160201b81111561031957600080fd5b82018360208201111561032b57600080fd5b803590602001918460208302840111600160201b8311171561034c57600080fd5b91908080602002602001604051908101604052809392919081815260200183836020028082843760009201919091525092955061157b945050505050565b604080519115158252519081900360200190f35b6101c0611891565b61038a600480360360808110156103bc57600080fd5b5080359060208101359060408101359060600135611897565b6103f2600480360360208110156103eb57600080fd5b5035611a2d565b60408051938452602084019290925282820152519081900360600190f35b6101c0611a4e565b6104356004803603602081101561042e57600080fd5b5035611a54565b604080519384526020840192909252151582820152519081900360600190f35b6101c0611a78565b6101b6600480360361010081101561047457600080fd5b810190602081018135600160201b81111561048e57600080fd5b8201836020820111156104a057600080fd5b803590602001918460208302840111600160201b831117156104c157600080fd5b9190808060200260200160405190810160405280939291908181526020018383602002808284376000920191909152509295949360208101935035915050600160201b81111561051057600080fd5b82018360208201111561052257600080fd5b803590602001918460208302840111600160201b8311171561054357600080fd5b9190808060200260200160405190810160405280939291908181526020018383602002808284376000920191909152509295949360208101935035915050600160201b81111561059257600080fd5b8201836020820111156105a457600080fd5b803590602001918460208302840111600160201b831117156105c557600080fd5b9190808060200260200160405190810160405280939291908181526020018383602002808284376000920191909152509295949360208101935035915050600160201b81111561061457600080fd5b82018360208201111561062657600080fd5b803590602001918460208302840111600160201b8311171561064757600080fd5b9190808060200260200160405190810160405280939291908181526020018383602002808284376000920191909152509295949360208101935035915050600160201b81111561069657600080fd5b8201836020820111156106a857600080fd5b803590602001918460208302840111600160201b831117156106c957600080fd5b9190808060200260200160405190810160405280939291908181526020018383602002808284376000920191909152509295949360208101935035915050600160201b81111561071857600080fd5b82018360208201111561072a57600080fd5b803590602001918460208302840111600160201b8311171561074b57600080fd5b9190808060200260200160405190810160405280939291908181526020018383602002808284376000920191909152509295949360208101935035915050600160201b81111561079a57600080fd5b8201836020820111156107ac57600080fd5b803590602001918460208302840111600160201b831117156107cd57600080fd5b9190808060200260200160405190810160405280939291908181526020018383602002808284376000920191909152509295949360208101935035915050600160201b81111561081c57600080fd5b82018360208201111561082e57600080fd5b803590602001918460208302840111600160201b8311171561084f57600080fd5b919080806020026020016040519081016040528093929190818152602001838360200280828437600092019190915250929550611a7e945050505050565b6101b6611e92565b61038a600480360360208110156108ab57600080fd5b5035611e94565b6101b6600480360360808110156108c857600080fd5b810190602081018135600160201b8111156108e257600080fd5b8201836020820111156108f457600080fd5b803590602001918460208302840111600160201b8311171561091557600080fd5b9190808060200260200160405190810160405280939291908181526020018383602002808284376000920191909152509295949360208101935035915050600160201b81111561096457600080fd5b82018360208201111561097657600080fd5b803590602001918460208302840111600160201b8311171561099757600080fd5b9190808060200260200160405190810160405280939291908181526020018383602002808284376000920191909152509295949360208101935035915050600160201b8111156109e657600080fd5b8201836020820111156109f857600080fd5b803590602001918460208302840111600160201b83111715610a1957600080fd5b9190808060200260200160405190810160405280939291908181526020018383602002808284376000920191909152509295949360208101935035915050600160201b811115610a6857600080fd5b820183602082011115610a7a57600080fd5b803590602001918460208302840111600160201b83111715610a9b57600080fd5b919080806020026020016040519081016040528093929190818152602001838360200280828437600092019190915250929550611f79945050505050565b6101c0612104565b610ae961210a565b604080516001600160a01b039092168252519081900360200190f35b6101b660048036036020811015610b1b57600080fd5b810190602081018135600160201b811115610b3557600080fd5b820183602082011115610b4757600080fd5b803590602001918460208302840111600160201b83111715610b6857600080fd5b919080806020026020016040519081016040528093929190818152602001838360200280828437600092019190915250929550612119945050505050565b6101b660048036036040811015610bbc57600080fd5b810190602081018135600160201b811115610bd657600080fd5b820183602082011115610be857600080fd5b803590602001918460208302840111600160201b83111715610c0957600080fd5b9190808060200260200160405190810160405280939291908181526020018383602002808284376000920191909152509295949360208101935035915050600160201b811115610c5857600080fd5b820183602082011115610c6a57600080fd5b803590602001918460208302840111600160201b83111715610c8b57600080fd5b9190808060200260200160405190810160405280939291908181526020018383602002808284376000920191909152509295506121c4945050505050565b61038a60048036036040811015610cdf57600080fd5b508035906020013561229b565b610d0960048036036020811015610d0257600080fd5b50356123c4565b60405180868152602001858152602001806020018060200180602001848103845287818151815260200191508051906020019060200280838360005b83811015610d5d578181015183820152602001610d45565b50505050905001848103835286818151815260200191508051906020019060200280838360005b83811015610d9c578181015183820152602001610d84565b50505050905001848103825285818151815260200191508051906020019060200280838360005b83811015610ddb578181015183820152602001610dc3565b505050509050019850505050505050505060405180910390f35b610e1260048036036020811015610e0b57600080fd5b50356125c8565b604080519485526020850193909352838301919091526060830152519081900360800190f35b6101b660048036036060811015610e4e57600080fd5b810190602081018135600160201b811115610e6857600080fd5b820183602082011115610e7a57600080fd5b803590602001918460208302840111600160201b83111715610e9b57600080fd5b9190808060200260200160405190810160405280939291908181526020018383602002808284376000920191909152509295949360208101935035915050600160201b811115610eea57600080fd5b820183602082011115610efc57600080fd5b803590602001918460208302840111600160201b83111715610f1d57600080fd5b9190808060200260200160405190810160405280939291908181526020018383602002808284376000920191909152509295949360208101935035915050600160201b811115610f6c57600080fd5b820183602082011115610f7e57600080fd5b803590602001918460208302840111600160201b83111715610f9f57600080fd5b9190808060200260200160405190810160405280939291908181526020018383602002808284376000920191909152509295506125ef945050505050565b6101b660048036036020811015610ff357600080fd5b810190602081018135600160201b81111561100d57600080fd5b82018360208201111561101f57600080fd5b803590602001918460208302840111600160201b8311171561104057600080fd5b919080806020026020016040519081016040528093929190818152602001838360200280828437600092019190915250929550612682945050505050565b6101b66004803603606081101561109457600080fd5b810190602081018135600160201b8111156110ae57600080fd5b8201836020820111156110c057600080fd5b803590602001918460208302840111600160201b831117156110e157600080fd5b9190808060200260200160405190810160405280939291908181526020018383602002808284376000920191909152509295949360208101935035915050600160201b81111561113057600080fd5b82018360208201111561114257600080fd5b803590602001918460208302840111600160201b8311171561116357600080fd5b9190808060200260200160405190810160405280939291908181526020018383602002808284376000920191909152509295949360208101935035915050600160201b8111156111b257600080fd5b8201836020820111156111c457600080fd5b803590602001918460208302840111600160201b831117156111e557600080fd5b9190808060200260200160405190810160405280939291908181526020018383602002808284376000920191909152509295506126d8945050505050565b6101b66004803603606081101561123957600080fd5b5080359060208101359060400135612853565b6101b66004803603606081101561126257600080fd5b810190602081018135600160201b81111561127c57600080fd5b82018360208201111561128e57600080fd5b803590602001918460208302840111600160201b831117156112af57600080fd5b9190808060200260200160405190810160405280939291908181526020018383602002808284376000920191909152509295949360208101935035915050600160201b8111156112fe57600080fd5b82018360208201111561131057600080fd5b803590602001918460208302840111600160201b8311171561133157600080fd5b9190808060200260200160405190810160405280939291908181526020018383602002808284376000920191909152509295949360208101935035915050600160201b81111561138057600080fd5b82018360208201111561139257600080fd5b803590602001918460208302840111600160201b831117156113b357600080fd5b9190808060200260200160405190810160405280939291908181526020018383602002808284376000920191909152509295506129f3945050505050565b6000546001600160a01b0316331461143a5760405162461bcd60e51b8152600401808060200182810382526022815260200180612c966022913960400191505060405180910390fd5b8082106114785760405162461bcd60e51b8152600401808060200182810382526024815260200180612dd16024913960400191505060405180910390fd5b600254600090819081908190815b8681116114dc5787811415611499578195505b600188038114156114a8578193505b868114156114b4578194505b600187038114156114c3578192505b6000918252600660205260409091205490600101611486565b506000876115055750600280546000848152600660205260409020805490925590819055611528565b506000838152600660205260408082208054858452919092208054909255908190555b5050506000928352506006602052604080832080549284529220805490925590555050565b600254600090815b8115611574576000918252600660205260409091205490600101611555565b9150505b90565b600080546001600160a01b031633146115c55760405162461bcd60e51b8152600401808060200182810382526022815260200180612c966022913960400191505060405180910390fd5b82518451146116055760405162461bcd60e51b8152600401808060200182810382526039815260200180612e4d6039913960400191505060405180910390fd5b61160d612bb6565b6040518060600160405280600081526020018660008151811061162c57fe5b602002602001015181526020018560008151811061164657fe5b60209081029190910181015190915260038054600190810191829055600091825260058352604091829020845181559284015183820155908301516002909201919091559091505b855181101561171c57604051806060016040528060035481526020018783815181106116b657fe5b602002602001015181526020018683815181106116cf57fe5b60209081029190910181015190915260038054600190810191829055600091825260058352604091829020845181559284015183820155908301516002909201919091559092500161168e565b50611725612bda565b886117b557506040805160a08101825260028054825260208083018b81528385018b81526003805460608701908152608087018b81526001805481018082556000908152600688529990992088518155945198850198909855915194830194909455519281019290925592518051929384936117a79260048501920190612c0f565b505060015460025550611885565b60025460015b8a8110156117e757600082815260066020526040902054806117dd57506117e7565b91506001016117bb565b506040805160a0810182526000838152600660208181528483205484528084018e81528486018e81526003805460608801908152608088018e815260018054810180825589529686529890962087518155925194830194909455516002820155925191830191909155925180519295508593919261186b9260048501920190612c0f565b505060015460009283526006602052604090922091909155505b50509695505050505050565b60015481565b600080546001600160a01b031633146118e15760405162461bcd60e51b8152600401808060200182810382526022815260200180612c966022913960400191505060405180910390fd5b6118e9612bb6565b60025460005b878110156119105760009182526006602052604090912054906001016118ef565b508561197f57604080516060810182526000838152600660208181528483206003908101805486528286018c81528688018c8152835460019081018086558852600586529887208851815591519882019890985596516002909701969096555492869052529091559150611a23565b600081815260066020526040812060030154905b876001018110156119c257600082815260056020526040902054806119b857506119c2565b9150600101611993565b5060408051606081018252600083815260056020818152848320805485528185018c81528587018c81526003805460019081018083558852959094529685208651815590519381019390935594516002909201919091555493905291905591505b5050949350505050565b60056020526000908152604090208054600182015460029092015490919083565b60035481565b60076020526000908152604090208054600182015460029092015490919060ff1683565b60025481565b6000546001600160a01b03163314611ad5576040805162461bcd60e51b81526020600482015260156024820152743cb7ba9030b932903737ba103a34329037bbb732b960591b604482015290519081900360640190fd5b8651885114611b155760405162461bcd60e51b8152600401808060200182810382526036815260200180612cb86036913960400191505060405180910390fd5b8551875114611b555760405162461bcd60e51b8152600401808060200182810382526036815260200180612e176036913960400191505060405180910390fd5b8351855114611b955760405162461bcd60e51b815260040180806020018281038252602d815260200180612da4602d913960400191505060405180910390fd5b8251875114611bd55760405162461bcd60e51b8152600401808060200182810382526036815260200180612d2c6036913960400191505060405180910390fd5b8051875114611c155760405162461bcd60e51b8152600401808060200182810382526036815260200180612ec56036913960400191505060405180910390fd5b6000805b8451811015611c4757848181518110611c2e57fe5b6020026020010151820191508080600101915050611c19565b5080865114611c875760405162461bcd60e51b8152600401808060200182810382526042815260200180612d626042913960600191505060405180910390fd5b60006060808281815b8951811015611e8157898181518110611ca557fe5b6020026020010151604051908082528060200260200182016040528015611cd6578160200160208202803883390190505b509450898181518110611ce557fe5b6020026020010151604051908082528060200260200182016040528015611d16578160200160208202803883390190505b50935060005b8a8281518110611d2857fe5b6020026020010151811015611d9a578c8781518110611d4357fe5b6020026020010151868281518110611d5757fe5b6020026020010181815250508b8781518110611d6f57fe5b6020026020010151858281518110611d8357fe5b602090810291909101015260019687019601611d1c565b50878181518110611da757fe5b6020026020010151604051908082528060200260200182016040528015611dd8578160200160208202803883390190505b50915060005b888281518110611dea57fe5b6020026020010151811015611e3057898481518110611e0557fe5b6020026020010151838281518110611e1957fe5b602090810291909101015260019384019301611dde565b50611e788f8281518110611e4057fe5b60200260200101518f8381518110611e5457fe5b60200260200101518f8481518110611e6857fe5b602002602001015188888761157b565b50600101611c90565b505050505050505050505050505050565b565b600080546001600160a01b03163314611ede5760405162461bcd60e51b8152600401808060200182810382526022815260200180612c966022913960400191505060405180910390fd5b81611f29576002805460009081526006602052604081208054828255600182018390559281018290556003810182905590611f1c6004830182612c5a565b5050600255506001611f74565b60025460005b60018403811015611f53576000918252600660205260409091205490600101611f2f565b50600081815260066020526040808220805483529082205492909152555060015b919050565b6000546001600160a01b03163314611fd0576040805162461bcd60e51b81526020600482015260156024820152743cb7ba9030b932903737ba103a34329037bbb732b960591b604482015290519081900360640190fd5b82518451146120105760405162461bcd60e51b815260040180806020018281038252603f815260200180612e86603f913960400191505060405180910390fd5b80518251146120505760405162461bcd60e51b8152600401808060200182810382526039815260200180612e4d6039913960400191505060405180910390fd5b83518251146120905760405162461bcd60e51b815260040180806020018281038252603e815260200180612cee603e913960400191505060405180910390fd5b60005b84518110156120fd576120f48582815181106120ab57fe5b60200260200101518583815181106120bf57fe5b60200260200101518584815181106120d357fe5b60200260200101518585815181106120e757fe5b6020026020010151611897565b50600101612093565b5050505050565b60045481565b6000546001600160a01b031681565b80516402540be3ff90600019015b600081126121bf5782818151811061213b57fe5b602002602001015182116121805760405162461bcd60e51b815260040180806020018281038252602f815260200180612f58602f913960400191505060405180910390fd5b61219c83828151811061218f57fe5b6020026020010151611e94565b508281815181106121a957fe5b6020908102919091010151915060001901612127565b505050565b80518251146122045760405162461bcd60e51b8152600401808060200182810382526022815260200180612df56022913960400191505060405180910390fd5b60005b82518110156121bf57604051806060016040528084838151811061222757fe5b6020026020010151815260200183838151811061224057fe5b602090810291909101810151825260019181018290526004805460009081526007835260409081902085518155928501518385015593909301516002909101805460ff19169115159190911790558154810190915501612207565b600080546001600160a01b031633146122e55760405162461bcd60e51b8152600401808060200182810382526022815260200180612c966022913960400191505060405180910390fd5b60025460005b8481101561230c5760009182526006602052604090912054906001016122eb565b506000818152600660205260409020600301548361236357600090815260056020908152604080832080548482556001808301869055600290920185905594845260069092529091206003019190915590506123be565b60005b6001850381101561238a576000918252600560205260409091205490600101612366565b5060009081526005602052604080822080548352908220805490915581815560018082018390556002909101919091559150505b92915050565b600254600090819060609081908190845b878110156123f65760009182526006602052604090912054906001016123d5565b506123ff612bda565b600082815260066020908152604091829020825160a0810184528154815260018201548184015260028201548185015260038201546060820152600482018054855181860281018601909652808652919492936080860193929083018282801561248857602002820191906000526020600020905b815481526020019060010190808311612474575b5050509190925250505060608082015191925090819060009081905b80156124c4576000908152600560205260409020546001909101906124a4565b816040519080825280602002602001820160405280156124ee578160200160208202803883390190505b5094508160405190808252806020026020018201604052801561251b578160200160208202803883390190505b509350856060015190505b80156125a357600081815260056020526040902060010154855186908590811061254c57fe5b602002602001018181525050600560008281526020019081526020016000206002015484848151811061257b57fe5b6020908102919091018101919091526000918252600590526040902054600190920191612526565b50505060208301516040840151608090940151909b939a509198509650945092505050565b60066020526000908152604090208054600182015460028301546003909301549192909184565b6000805b84518110156120fd576000600184838151811061260c57fe5b60200260200101510390505b6000811261265c5761265286838151811061262f57fe5b6020026020010151868386018151811061264557fe5b602002602001015161229b565b5060001901612618565b5082818151811061266957fe5b60200260200101518201915080806001019150506125f3565b60005b81518110156126d4576000600760008484815181106126a057fe5b6020908102919091018101518252810191909152604001600020600201805460ff1916911515919091179055600101612685565b5050565b82518151146127185760405162461bcd60e51b8152600401808060200182810382526029815260200180612efb6029913960400191505060405180910390fd5b6000805b825181101561274a5782818151811061273157fe5b602002602001015182019150808060010191505061271c565b508251811461278a5760405162461bcd60e51b8152600401808060200182810382526034815260200180612f246034913960400191505060405180910390fd5b6002546000805b845181101561284a5760005b8782815181106127a957fe5b60200260200101518110156127d157600093845260066020526040909320549260010161279d565b5060005b8582815181106127e157fe5b6020026020010151811015612841576006600085815260200190815260200160002060040187848151811061281257fe5b6020908102919091018101518254600181810185556000948552929093209092019190915592830192016127d5565b50600101612791565b50505050505050565b6000546001600160a01b0316331461289c5760405162461bcd60e51b8152600401808060200182810382526022815260200180612c966022913960400191505060405180910390fd5b8082106128da5760405162461bcd60e51b8152600401808060200182810382526024815260200180612dd16024913960400191505060405180910390fd5b60025460005b848110156129015760009182526006602052604090912054906001016128e0565b50600081815260066020526040812060030154819081908190815b878111612972578881141561292f578195505b6001890381141561293e578193505b8781141561294a578194505b60018803811415612959578192505b600091825260056020526040909120549060010161291c565b506000886129a9575060008681526006602090815260408083206003018054868552600590935292208054909255908190556129cc565b506000838152600560205260408082208054858452919092208054909255908190555b50505060009283525060056020526040808320805492845292208054909255905550505050565b8251815114612a335760405162461bcd60e51b8152600401808060200182810382526029815260200180612efb6029913960400191505060405180910390fd5b6000805b8251811015612a6557828181518110612a4c57fe5b6020026020010151820191508080600101915050612a37565b5082518114612aa55760405162461bcd60e51b8152600401808060200182810382526034815260200180612f246034913960400191505060405180910390fd5b6002546000805b845181101561284a5760005b878281518110612ac457fe5b6020026020010151811015612aec576000938452600660205260409093205492600101612ab8565b5060005b858281518110612afc57fe5b6020026020010151811015612bad5760005b600085815260066020526040902060040154811015612ba457878481518110612b3357fe5b6020026020010151600660008781526020019081526020016000206004018281548110612b5c57fe5b90600052602060002001541415612b9c576000858152600660205260409020600401805482908110612b8a57fe5b60009182526020822001556001909301925b600101612b0e565b50600101612af0565b50600101612aac565b60405180606001604052806000815260200160008019168152602001600081525090565b6040518060a0016040528060008152602001600080191681526020016000801916815260200160008152602001606081525090565b828054828255906000526020600020908101928215612c4a579160200282015b82811115612c4a578251825591602001919060010190612c2f565b50612c56929150612c7b565b5090565b5080546000825590600052602060002090810190612c789190612c7b565b50565b61157891905b80821115612c565760008155600101612c8156fe796f7520617265206e6f7420746865206f776e6572206f662074686973206d656e75746865206e756d626572206f66206974656d20696e646578657320616e64206974656d206e616d657320646f206e6f74206d61746368746865206e756d626572206f66206974656d49447320646f6573206e6f74206d6174636820746865206e756d626572206f66206f7074696f6e4e616d6573746865206e756d626572206f66206974656d206e616d657320616e64206f7074696f6e20666c61677320646f206e6f74206d61746368746865206e756d626572206f66206f7074696f6e7320616e64207468652073756d206f6620746865206f7074696f6e20666c61677320646f206e6f74206d61746368746865206e756d626572206f66206f7074696f6e7320616e642070726963657320646f206e6f74206d61746368696e6465782031206d75737420626520736d616c6c6572207468616e20696e646578203274686520636f756e74206f662074686520706172616d7320646f6e74206d61746368746865206e756d626572206f66206465736372697074696f6e7320616e64206974656d206e616d657320646f206e6f74206d61746368746865206e756d626572206f66206f7074696f6e7320646f6573206e6f74206d6174636820746865206e756d626572206f6620707269636573746865206e756d626572206f66206974656d49647320616e6420696e646578657320746f20696e7365727420617420617265206e6f74207468652073616d65746865206e756d626572206f66206974656d206e616d657320616e642065787472617320666c61677320646f206e6f74206d61746368696e636f6e73697374656e74206e756d626572206f6620666c61677320616e64206974656d2069647374686520666c6167732061726520696e636f6e73697374656e74207769746820746865206578747261732070617373656420696e746865206172726179206f66206974656d496473206d75737420626520696e20617373656e64696e67206f72646572a265627a7a7231582076491e6f7fe7aadb1e8dcda3e1d5674ecbc5af606dea973f1bb133dabf038d7e64736f6c634300050c0032",
  "source": "pragma solidity ^0.5.0;\n\n //import \"./lib.sol\";\n import \"./Order.sol\";\n import \"./RestaurantFactory.sol\";\n import \"./CustomerFactory.sol\";\n import \"./Controller.sol\";\n import \"./Menu.sol\";\n\ncontract Restaurant {\n\n    // additional variables to add\n\n\tuint public id;\n\tbytes32 public name; \n\n\tbytes public location; \n    uint public longitude; \n    uint public latitude; \n\n    bytes public logoURI; \n    bytes32 public logoHash; \n\n\n\tbytes32 public contactNumber; \n\n\taddress payable public owner; \n    address public controllerAddress;\n\taddress public restaurantFactoryAddress;\n\n\n    struct order{bool open; address orderAddress;}\n\tuint public totalOrders;\n    // todo: make orders private and accessed via method for only rider and restaurant\n\tmapping(uint => order) public orders; // must be a better way to store the orders\n\n    uint totalPay;\n\t\n    Menu menu;\n\n    enum restaurantState{acceptedOrder, preparingCargo, readyForCollection, HandedOver}\n\t\n    event OrderMadeEvent(address orderAddress);\n    event MenuUpdated();\n\n\tconstructor(address _controller, address payable _owner, \n                uint _id, bytes32 _name, \n                bytes memory _address, uint _latitude, uint _longitude, \n                bytes32 _contactNumber\n                ) public {\n        // itemOptions and prices will have to be parsed as they are 2d arrays\n\t\tid = _id;\n\t\tname = _name;\n\t\t\n        location = _address;\n        latitude = _latitude;\n        longitude = _longitude;\n\n\t\tcontactNumber = _contactNumber;\n\t\ttotalOrders = 0;\n        totalPay = 0;\n\n        controllerAddress = _controller;\n\t\towner = _owner;\n\t\trestaurantFactoryAddress = msg.sender;\n\n        menu = new Menu(_owner);\n\t}\n\n    function getMenuAddress() public view returns (address) {\n        return address(menu);\n    }\n\n\n    function updateLogo(bytes calldata imageURI, bytes32 imageHash) external{\n        require(msg.sender == owner);\n        logoURI = imageURI;\n        logoHash = imageHash;\n    }\n    \n    // menuIndex\n    // itemType\n    // uint new prices\n    // byte32 new text\n\n\n\n    // // todo: fix this\n    // function getOrderPrice(uint[] memory itemIds) public view returns (uint){\n    //     uint price = 0;\n    //     for(uint i = 0; i < itemIds.length; i++){\n    //         price += menu[itemIds[i]].optionsCost[0];\n    //     }\n    //     return price;\n    // }\n    \n\n  //   function makeOrder(uint[] calldata itemIds, uint deliveryFee, bytes32 riderKeyHash) external payable returns (address orderAddress) {\n  //       //require this comes from a customer smart contract, maybe worth moving this to the order smart contract\n  //       require(CustomerFactory(Controller(controllerAddress).customerFactoryAddress()).customerExists(msg.sender), \"Customer doesnt exist\");\n\n  //       uint[] memory prices = new uint[](itemIds.length);\n  //       bytes32[] memory items = new bytes32[](itemIds.length);\n  //       for(uint i = 0; i < itemIds.length; i++)\n  //       {\n  //           if (itemIds[i] >= 0 && itemIds[i] < menuLength){\n  //               // could consider sending itemID and price to reduce gas cost\n  //               items[i] = menu[uint(itemIds[i])].itemName; \n  //               prices[i] = menu[uint(itemIds[i])].optionsCost[0];\n  //           }\n  //           else{\n  //               revert(\"Invalid Items\");\n  //           }\n  //       }\n        \n\t\t// Order newOrder = (new Order).value(msg.value)(totalOrders,items,prices,deliveryFee, controllerAddress, msg.sender, riderKeyHash);\n\t\t// orders[totalOrders] = order(true,address(newOrder));\n  //       totalOrders ++;\n\n  //       emit OrderMadeEvent(orders[totalOrders - 1].orderAddress);\n\n\t\t// return orders[totalOrders - 1].orderAddress;       \n  //   }\n\n    function setStatus(address orderAddress, uint status) public{\n        require(msg.sender == owner, \"you are not the owner\");\n        Order(orderAddress).setOrderStatus(status);\n    }\n\n    function pay() external payable {\n        totalPay += msg.value;\n        owner.transfer(msg.value);\n    } \n\n    function() external payable {\n\n    }\n\n\n    // Setters\n    function updateRestaurant(bytes32 _name, bytes32 _number, address payable _owner, bytes memory _location, uint _latitude, uint _longitude, bytes memory _logoURI, bytes32 _logoHash) public {\n        require(msg.sender == owner);\n        if(_name.length > 0 )\n            setName(_name);\n        if(_number.length > 0 )\n            setNumber(_number);\n        if(_owner != address(0))\n            setOwner(_owner);\n        if(_location.length > 0)\n            setLocation(_location, _latitude, _longitude);\n        if(_logoURI.length > 0)\n            setName(_name);\n    }\n    function setName(bytes32 _name) public {\n        require(msg.sender == owner);\n        name = _name;\n    }\n    function setNumber(bytes32 _number) public {\n        require(msg.sender == owner);\n        contactNumber = _number;\n    }\n    function setOwner(address payable _owner) public {\n        require(msg.sender == owner);\n        owner = _owner;\n    }\n    function setLocation(bytes memory _location, uint _latitude, uint _longitude) public {\n        require(msg.sender == owner);\n        location = _location;\n        latitude - _latitude;\n        longitude = _longitude;\n    }\n    function setLogo(bytes memory _logoURI, bytes32 _logoHash) public {\n        require(msg.sender == owner);\n        logoURI = _logoURI;\n        logoHash = _logoHash;\n    }\n}",
  "sourcePath": "/home/george/Documents/WorkSpace/TryAByte/contracts/Restaurant.sol",
  "compiler": {
    "name": "solc",
    "version": "0.5.12+commit.7709ece9.Emscripten.clang"
  },
  "schemaVersion": "3.0.19",
  "updatedAt": "2020-01-08T13:44:22.416Z",
  "networkType": "ethereum",
  "devdoc": {
    "methods": {}
  },
  "userdoc": {
    "methods": {}
  }
}