{
  "contractName": "Restaurant",
  "abi": [
    {
      "constant": true,
      "inputs": [],
      "name": "name",
      "outputs": [
        {
          "name": "",
          "type": "string"
        }
      ],
      "payable": false,
      "stateMutability": "view",
      "type": "function"
    },
    {
      "constant": true,
      "inputs": [],
      "name": "totalOrders",
      "outputs": [
        {
          "name": "",
          "type": "uint256"
        }
      ],
      "payable": false,
      "stateMutability": "view",
      "type": "function"
    },
    {
      "constant": true,
      "inputs": [],
      "name": "controllerAddress",
      "outputs": [
        {
          "name": "",
          "type": "address"
        }
      ],
      "payable": false,
      "stateMutability": "view",
      "type": "function"
    },
    {
      "constant": true,
      "inputs": [],
      "name": "location",
      "outputs": [
        {
          "name": "",
          "type": "string"
        }
      ],
      "payable": false,
      "stateMutability": "view",
      "type": "function"
    },
    {
      "constant": true,
      "inputs": [],
      "name": "restaurantFactoryAddress",
      "outputs": [
        {
          "name": "",
          "type": "address"
        }
      ],
      "payable": false,
      "stateMutability": "view",
      "type": "function"
    },
    {
      "constant": true,
      "inputs": [],
      "name": "contactNumber",
      "outputs": [
        {
          "name": "",
          "type": "string"
        }
      ],
      "payable": false,
      "stateMutability": "view",
      "type": "function"
    },
    {
      "constant": true,
      "inputs": [],
      "name": "rating",
      "outputs": [
        {
          "name": "",
          "type": "uint256"
        }
      ],
      "payable": false,
      "stateMutability": "view",
      "type": "function"
    },
    {
      "constant": true,
      "inputs": [],
      "name": "owner",
      "outputs": [
        {
          "name": "",
          "type": "address"
        }
      ],
      "payable": false,
      "stateMutability": "view",
      "type": "function"
    },
    {
      "constant": true,
      "inputs": [
        {
          "name": "",
          "type": "uint256"
        }
      ],
      "name": "orders",
      "outputs": [
        {
          "name": "open",
          "type": "bool"
        },
        {
          "name": "orderAddress",
          "type": "address"
        }
      ],
      "payable": false,
      "stateMutability": "view",
      "type": "function"
    },
    {
      "constant": true,
      "inputs": [
        {
          "name": "",
          "type": "uint256"
        }
      ],
      "name": "menu",
      "outputs": [
        {
          "name": "itemName",
          "type": "bytes32"
        },
        {
          "name": "itemCost",
          "type": "uint256"
        }
      ],
      "payable": false,
      "stateMutability": "view",
      "type": "function"
    },
    {
      "inputs": [
        {
          "name": "_controller",
          "type": "address"
        },
        {
          "name": "_owner",
          "type": "address"
        },
        {
          "name": "_id",
          "type": "uint256"
        },
        {
          "name": "_name",
          "type": "string"
        },
        {
          "name": "_address",
          "type": "string"
        },
        {
          "name": "_contactNumber",
          "type": "string"
        }
      ],
      "payable": false,
      "stateMutability": "nonpayable",
      "type": "constructor"
    },
    {
      "constant": true,
      "inputs": [],
      "name": "getMenuLength",
      "outputs": [
        {
          "name": "length",
          "type": "uint256"
        }
      ],
      "payable": false,
      "stateMutability": "view",
      "type": "function"
    },
    {
      "constant": false,
      "inputs": [],
      "name": "clearMenu",
      "outputs": [],
      "payable": false,
      "stateMutability": "nonpayable",
      "type": "function"
    },
    {
      "constant": false,
      "inputs": [
        {
          "name": "itemNames",
          "type": "bytes32[]"
        },
        {
          "name": "prices",
          "type": "uint256[]"
        }
      ],
      "name": "menuAddItems",
      "outputs": [],
      "payable": false,
      "stateMutability": "nonpayable",
      "type": "function"
    },
    {
      "constant": false,
      "inputs": [
        {
          "name": "itemNames",
          "type": "bytes32[]"
        }
      ],
      "name": "menuRemoveItems",
      "outputs": [
        {
          "name": "result",
          "type": "string"
        }
      ],
      "payable": false,
      "stateMutability": "nonpayable",
      "type": "function"
    },
    {
      "constant": true,
      "inputs": [
        {
          "name": "items",
          "type": "bytes32[]"
        }
      ],
      "name": "validOrder",
      "outputs": [
        {
          "name": "isValid",
          "type": "bool"
        },
        {
          "name": "price",
          "type": "uint256"
        }
      ],
      "payable": false,
      "stateMutability": "view",
      "type": "function"
    },
    {
      "constant": false,
      "inputs": [
        {
          "name": "items",
          "type": "bytes32[]"
        }
      ],
      "name": "makeOrder",
      "outputs": [
        {
          "name": "orderAddress",
          "type": "address"
        }
      ],
      "payable": false,
      "stateMutability": "nonpayable",
      "type": "function"
    },
    {
      "constant": true,
      "inputs": [
        {
          "name": "itemId",
          "type": "uint256"
        }
      ],
      "name": "getMenuItem",
      "outputs": [
        {
          "name": "itemname",
          "type": "bytes32"
        },
        {
          "name": "cost",
          "type": "uint256"
        }
      ],
      "payable": false,
      "stateMutability": "view",
      "type": "function"
    },
    {
      "constant": false,
      "inputs": [
        {
          "name": "orderAddress",
          "type": "address"
        }
      ],
      "name": "setStatusPrepairing",
      "outputs": [],
      "payable": false,
      "stateMutability": "nonpayable",
      "type": "function"
    },
    {
      "constant": false,
      "inputs": [
        {
          "name": "orderAddress",
          "type": "address"
        }
      ],
      "name": "handOverCargo",
      "outputs": [],
      "payable": false,
      "stateMutability": "nonpayable",
      "type": "function"
    }
  ],
  "bytecode": "0x60806040523480156200001157600080fd5b5060405162003da938038062003da9833981018060405260c08110156200003757600080fd5b8101908080519060200190929190805190602001909291908051906020019092919080516401000000008111156200006e57600080fd5b828101905060208101848111156200008557600080fd5b8151856001820283011164010000000082111715620000a357600080fd5b50509291906020018051640100000000811115620000c057600080fd5b82810190506020810184811115620000d757600080fd5b8151856001820283011164010000000082111715620000f557600080fd5b505092919060200180516401000000008111156200011257600080fd5b828101905060208101848111156200012957600080fd5b81518560018202830111640100000000821117156200014757600080fd5b50509291905050508360008190555082600190805190602001906200016e92919062000278565b5081600290805190602001906200018792919062000278565b508060039080519060200190620001a092919062000278565b50600060088190555085600660006101000a81548173ffffffffffffffffffffffffffffffffffffffff021916908373ffffffffffffffffffffffffffffffffffffffff16021790555084600560006101000a81548173ffffffffffffffffffffffffffffffffffffffff021916908373ffffffffffffffffffffffffffffffffffffffff16021790555033600760006101000a81548173ffffffffffffffffffffffffffffffffffffffff021916908373ffffffffffffffffffffffffffffffffffffffff16021790555050505050505062000327565b828054600181600116156101000203166002900490600052602060002090601f016020900481019282601f10620002bb57805160ff1916838001178555620002ec565b82800160010185558215620002ec579182015b82811115620002eb578251825591602001919060010190620002ce565b5b509050620002fb9190620002ff565b5090565b6200032491905b808211156200032057600081600090555060010162000306565b5090565b90565b613a7280620003376000396000f3fe6080604052600436106200011b576000357c0100000000000000000000000000000000000000000000000000000000900463ffffffff16806306fdde031462000120578063125ba97714620001b6578063141cf16614620001e45780631d83440914620002cf5780633e92c46814620002fd5780634b24ea4714620003e2578063516f279e146200043c57806368db65a414620004d257806372bb5678146200052c57806376af633c14620005f957806380f474f6146200068f5780638da5cb5b14620006bd578063a4e4f2011462000717578063a85c38ef1462000731578063bcd2c4e114620007bb578063c0c1a0de1462000810578063c7c6d87f1462000865578063cffb703c146200096e578063f943eecd14620009c8575b600080fd5b3480156200012d57600080fd5b506200013862000a22565b6040518080602001828103825283818151815260200191508051906020019080838360005b838110156200017a5780820151818401526020810190506200015d565b50505050905090810190601f168015620001a85780820380516001836020036101000a031916815260200191505b509250505060405180910390f35b348015620001c357600080fd5b50620001ce62000ac4565b6040518082815260200191505060405180910390f35b348015620001f157600080fd5b50620002ae600480360360208110156200020a57600080fd5b81019080803590602001906401000000008111156200022857600080fd5b8201836020820111156200023b57600080fd5b803590602001918460208302840111640100000000831117156200025e57600080fd5b919080806020026020016040519081016040528093929190818152602001838360200280828437600081840152601f19601f82011690508083019250505050505050919291929050505062000ad1565b60405180831515151581526020018281526020019250505060405180910390f35b348015620002dc57600080fd5b50620002e762000c8e565b6040518082815260200191505060405180910390f35b3480156200030a57600080fd5b50620003e0600480360360408110156200032357600080fd5b81019080803590602001906401000000008111156200034157600080fd5b8201836020820111156200035457600080fd5b803590602001918460208302840111640100000000831117156200037757600080fd5b9091929391929390803590602001906401000000008111156200039957600080fd5b820183602082011115620003ac57600080fd5b80359060200191846020830284011164010000000083111715620003cf57600080fd5b909192939192939050505062000c94565b005b348015620003ef57600080fd5b50620003fa62000db0565b604051808273ffffffffffffffffffffffffffffffffffffffff1673ffffffffffffffffffffffffffffffffffffffff16815260200191505060405180910390f35b3480156200044957600080fd5b506200045462000dd6565b6040518080602001828103825283818151815260200191508051906020019080838360005b838110156200049657808201518184015260208101905062000479565b50505050905090810190601f168015620004c45780820380516001836020036101000a031916815260200191505b509250505060405180910390f35b348015620004df57600080fd5b50620004ea62000e78565b604051808273ffffffffffffffffffffffffffffffffffffffff1673ffffffffffffffffffffffffffffffffffffffff16815260200191505060405180910390f35b3480156200053957600080fd5b50620005b7600480360360208110156200055257600080fd5b81019080803590602001906401000000008111156200057057600080fd5b8201836020820111156200058357600080fd5b80359060200191846020830284011164010000000083111715620005a657600080fd5b909192939192939050505062000e9e565b604051808273ffffffffffffffffffffffffffffffffffffffff1673ffffffffffffffffffffffffffffffffffffffff16815260200191505060405180910390f35b3480156200060657600080fd5b506200061162001543565b6040518080602001828103825283818151815260200191508051906020019080838360005b838110156200065357808201518184015260208101905062000636565b50505050905090810190601f168015620006815780820380516001836020036101000a031916815260200191505b509250505060405180910390f35b3480156200069c57600080fd5b50620006a7620015e5565b6040518082815260200191505060405180910390f35b348015620006ca57600080fd5b50620006d5620015eb565b604051808273ffffffffffffffffffffffffffffffffffffffff1673ffffffffffffffffffffffffffffffffffffffff16815260200191505060405180910390f35b3480156200072457600080fd5b506200072f62001611565b005b3480156200073e57600080fd5b506200076e600480360360208110156200075757600080fd5b810190808035906020019092919050505062001680565b60405180831515151581526020018273ffffffffffffffffffffffffffffffffffffffff1673ffffffffffffffffffffffffffffffffffffffff1681526020019250505060405180910390f35b348015620007c857600080fd5b506200080e60048036036020811015620007e157600080fd5b81019080803573ffffffffffffffffffffffffffffffffffffffff169060200190929190505050620016d1565b005b3480156200081d57600080fd5b5062000863600480360360208110156200083657600080fd5b81019080803573ffffffffffffffffffffffffffffffffffffffff169060200190929190505050620017c6565b005b3480156200087257600080fd5b50620008f0600480360360208110156200088b57600080fd5b8101908080359060200190640100000000811115620008a957600080fd5b820183602082011115620008bc57600080fd5b80359060200191846020830284011164010000000083111715620008df57600080fd5b9091929391929390505050620018bc565b6040518080602001828103825283818151815260200191508051906020019080838360005b838110156200093257808201518184015260208101905062000915565b50505050905090810190601f168015620009605780820380516001836020036101000a031916815260200191505b509250505060405180910390f35b3480156200097b57600080fd5b50620009ab600480360360208110156200099457600080fd5b81019080803590602001909291905050506200237d565b604051808381526020018281526020019250505060405180910390f35b348015620009d557600080fd5b5062000a0560048036036020811015620009ee57600080fd5b8101908080359060200190929190505050620023b1565b604051808381526020018281526020019250505060405180910390f35b60018054600181600116156101000203166002900480601f01602080910402602001604051908101604052809291908181526020018280546001816001161561010002031660029004801562000abc5780601f1062000a905761010080835404028352916020019162000abc565b820191906000526020600020905b81548152906001019060200180831162000a9e57829003601f168201915b505050505081565b6000600a80549050905090565b600080600080600090505b845181101562000c7f57600062000c0c73__lib___________________________________639201de55888581518110151562000b1557fe5b906020019060200201516040518263ffffffff167c01000000000000000000000000000000000000000000000000000000000281526004018082815260200191505060006040518083038186803b15801562000b7057600080fd5b505af415801562000b85573d6000803e3d6000fd5b505050506040513d6000823e3d601f19601f82011682018060405250602081101562000bb057600080fd5b81019080805164010000000081111562000bc957600080fd5b8281019050602081018481111562000be057600080fd5b815185600182028301116401000000008211171562000bfe57600080fd5b505092919050505062002401565b90507fffffffffffffffffffffffffffffffffffffffffffffffffffffffffffffffff81141562000c4a576000808090509450945050505062000c89565b600a8181548110151562000c5a57fe5b9060005260206000209060020201600101548301925050808060010191505062000adc565b5060018192509250505b915091565b60085481565b600560009054906101000a900473ffffffffffffffffffffffffffffffffffffffff1673ffffffffffffffffffffffffffffffffffffffff163373ffffffffffffffffffffffffffffffffffffffff1614151562000cf157600080fd5b818190508484905014151562000d0657600080fd5b60008090505b8484905081101562000da957600a6040805190810160405280878785818110151562000d3457fe5b905060200201358152602001858585818110151562000d4f57fe5b90506020020135815250908060018154018082558091505090600182039060005260206000209060020201600090919290919091506000820151816000015560208201518160010155505050808060010191505062000d0c565b5050505050565b600660009054906101000a900473ffffffffffffffffffffffffffffffffffffffff1681565b60028054600181600116156101000203166002900480601f01602080910402602001604051908101604052809291908181526020018280546001816001161561010002031660029004801562000e705780601f1062000e445761010080835404028352916020019162000e70565b820191906000526020600020905b81548152906001019060200180831162000e5257829003601f168201915b505050505081565b600760009054906101000a900473ffffffffffffffffffffffffffffffffffffffff1681565b6000600660009054906101000a900473ffffffffffffffffffffffffffffffffffffffff1673ffffffffffffffffffffffffffffffffffffffff16636455e5ac6040518163ffffffff167c010000000000000000000000000000000000000000000000000000000002815260040160206040518083038186803b15801562000f2557600080fd5b505afa15801562000f3a573d6000803e3d6000fd5b505050506040513d602081101562000f5157600080fd5b810190808051906020019092919050505073ffffffffffffffffffffffffffffffffffffffff1663689b0098336040518263ffffffff167c0100000000000000000000000000000000000000000000000000000000028152600401808273ffffffffffffffffffffffffffffffffffffffff1673ffffffffffffffffffffffffffffffffffffffff16815260200191505060206040518083038186803b15801562000ffb57600080fd5b505afa15801562001010573d6000803e3d6000fd5b505050506040513d60208110156200102757600080fd5b810190808051906020019092919050505015156200104457600080fd5b606083839050604051908082528060200260200182016040528015620010795781602001602082028038833980820191505090505b50905060008090505b84849050811015620012a557606073__lib___________________________________639201de558787858181101515620010b957fe5b905060200201356040518263ffffffff167c01000000000000000000000000000000000000000000000000000000000281526004018082815260200191505060006040518083038186803b1580156200111157600080fd5b505af415801562001126573d6000803e3d6000fd5b505050506040513d6000823e3d601f19601f8201168201806040525060208110156200115157600080fd5b8101908080516401000000008111156200116a57600080fd5b828101905060208101848111156200118157600080fd5b81518560018202830111640100000000821117156200119f57600080fd5b505092919050505090506000620011b68262002401565b90507fffffffffffffffffffffffffffffffffffffffffffffffffffffffffffffffff811415156200122757600a81815481101515620011f257fe5b90600052602060002090600202016001015484848151811015156200121357fe5b906020019060200201818152505062001295565b6040517f08c379a000000000000000000000000000000000000000000000000000000000815260040180806020018281038252600d8152602001807f496e76616c6964204974656d730000000000000000000000000000000000000081525060200191505060405180910390fd5b5050808060010191505062001082565b506000600854600760009054906101000a900473ffffffffffffffffffffffffffffffffffffffff16868685600660009054906101000a900473ffffffffffffffffffffffffffffffffffffffff1633620012ff620025bf565b808881526020018773ffffffffffffffffffffffffffffffffffffffff1673ffffffffffffffffffffffffffffffffffffffff16815260200180602001806020018573ffffffffffffffffffffffffffffffffffffffff1673ffffffffffffffffffffffffffffffffffffffff1681526020018473ffffffffffffffffffffffffffffffffffffffff1673ffffffffffffffffffffffffffffffffffffffff1681526020018381038352888882818152602001925060200280828437600081840152601f19601f820116905080830192505050838103825286818151815260200191508051906020019060200280838360005b838110156200140f578082015181840152602081019050620013f2565b505050509050019950505050505050505050604051809103906000f0801580156200143e573d6000803e3d6000fd5b50905060408051908101604052806001151581526020018273ffffffffffffffffffffffffffffffffffffffff1681525060096000600854815260200190815260200160002060008201518160000160006101000a81548160ff02191690831515021790555060208201518160000160016101000a81548173ffffffffffffffffffffffffffffffffffffffff021916908373ffffffffffffffffffffffffffffffffffffffff16021790555090505060086000815480929190600101919050555060096000600854815260200190815260200160002060000160019054906101000a900473ffffffffffffffffffffffffffffffffffffffff169250505092915050565b60038054600181600116156101000203166002900480601f016020809104026020016040519081016040528092919081815260200182805460018160011615610100020316600290048015620015dd5780601f10620015b157610100808354040283529160200191620015dd565b820191906000526020600020905b815481529060010190602001808311620015bf57829003601f168201915b505050505081565b60045481565b600560009054906101000a900473ffffffffffffffffffffffffffffffffffffffff1681565b600560009054906101000a900473ffffffffffffffffffffffffffffffffffffffff1673ffffffffffffffffffffffffffffffffffffffff163373ffffffffffffffffffffffffffffffffffffffff161415156200166e57600080fd5b600a60006200167e9190620025d0565b565b60096020528060005260406000206000915090508060000160009054906101000a900460ff16908060000160019054906101000a900473ffffffffffffffffffffffffffffffffffffffff16905082565b600560009054906101000a900473ffffffffffffffffffffffffffffffffffffffff1673ffffffffffffffffffffffffffffffffffffffff163373ffffffffffffffffffffffffffffffffffffffff161415156200172e57600080fd5b8073ffffffffffffffffffffffffffffffffffffffff1663e9132c426002808111156200175757fe5b6040518263ffffffff167c010000000000000000000000000000000000000000000000000000000002815260040180828152602001915050600060405180830381600087803b158015620017aa57600080fd5b505af1158015620017bf573d6000803e3d6000fd5b5050505050565b600560009054906101000a900473ffffffffffffffffffffffffffffffffffffffff1673ffffffffffffffffffffffffffffffffffffffff163373ffffffffffffffffffffffffffffffffffffffff161415156200182357600080fd5b8073ffffffffffffffffffffffffffffffffffffffff1663e9132c42600160028111156200184d57fe5b6040518263ffffffff167c010000000000000000000000000000000000000000000000000000000002815260040180828152602001915050600060405180830381600087803b158015620018a057600080fd5b505af1158015620018b5573d6000803e3d6000fd5b5050505050565b6060600560009054906101000a900473ffffffffffffffffffffffffffffffffffffffff1673ffffffffffffffffffffffffffffffffffffffff163373ffffffffffffffffffffffffffffffffffffffff161415156200191b57600080fd5b6000838390501115156200192e57600080fd5b6020604051908101604052806000815250905060008090505b83839050811015620023735773__lib___________________________________63ff74927b8373__lib___________________________________63ff74927b73__lib___________________________________639201de558a8a898181101515620019b157fe5b905060200201356040518263ffffffff167c01000000000000000000000000000000000000000000000000000000000281526004018082815260200191505060006040518083038186803b15801562001a0957600080fd5b505af415801562001a1e573d6000803e3d6000fd5b505050506040513d6000823e3d601f19601f82011682018060405250602081101562001a4957600080fd5b81019080805164010000000081111562001a6257600080fd5b8281019050602081018481111562001a7957600080fd5b815185600182028301116401000000008211171562001a9757600080fd5b50509291905050506040518263ffffffff167c0100000000000000000000000000000000000000000000000000000000028152600401808060200180602001838103835284818151815260200191508051906020019080838360005b8381101562001b1057808201518184015260208101905062001af3565b50505050905090810190601f16801562001b3e5780820380516001836020036101000a031916815260200191505b50838103825260018152602001807f3a00000000000000000000000000000000000000000000000000000000000000815250602001935050505060006040518083038186803b15801562001b9157600080fd5b505af415801562001ba6573d6000803e3d6000fd5b505050506040513d6000823e3d601f19601f82011682018060405250602081101562001bd157600080fd5b81019080805164010000000081111562001bea57600080fd5b8281019050602081018481111562001c0157600080fd5b815185600182028301116401000000008211171562001c1f57600080fd5b50509291905050506040518363ffffffff167c0100000000000000000000000000000000000000000000000000000000028152600401808060200180602001838103835285818151815260200191508051906020019080838360005b8381101562001c9857808201518184015260208101905062001c7b565b50505050905090810190601f16801562001cc65780820380516001836020036101000a031916815260200191505b50838103825284818151815260200191508051906020019080838360005b8381101562001d0157808201518184015260208101905062001ce4565b50505050905090810190601f16801562001d2f5780820380516001836020036101000a031916815260200191505b5094505050505060006040518083038186803b15801562001d4f57600080fd5b505af415801562001d64573d6000803e3d6000fd5b505050506040513d6000823e3d601f19601f82011682018060405250602081101562001d8f57600080fd5b81019080805164010000000081111562001da857600080fd5b8281019050602081018481111562001dbf57600080fd5b815185600182028301116401000000008211171562001ddd57600080fd5b50509291905050509150600062001f0a73__lib___________________________________639201de55878786818110151562001e1657fe5b905060200201356040518263ffffffff167c01000000000000000000000000000000000000000000000000000000000281526004018082815260200191505060006040518083038186803b15801562001e6e57600080fd5b505af415801562001e83573d6000803e3d6000fd5b505050506040513d6000823e3d601f19601f82011682018060405250602081101562001eae57600080fd5b81019080805164010000000081111562001ec757600080fd5b8281019050602081018481111562001ede57600080fd5b815185600182028301116401000000008211171562001efc57600080fd5b505092919050505062002401565b90507fffffffffffffffffffffffffffffffffffffffffffffffffffffffffffffffff81141515620021be57600a8181548110151562001f4657fe5b906000526020600020906002020160008082016000905560018201600090555050600a6001600a805490500381548110151562001f7f57fe5b9060005260206000209060020201600a8281548110151562001f9d57fe5b90600052602060002090600202016000820154816000015560018201548160010155905050600a6001600a805490500381548110151562001fda57fe5b90600052602060002090600202016000808201600090556001820160009055505073__lib___________________________________63ff74927b846040518263ffffffff167c0100000000000000000000000000000000000000000000000000000000028152600401808060200180602001838103835284818151815260200191508051906020019080838360005b83811015620020875780820151818401526020810190506200206a565b50505050905090810190601f168015620020b55780820380516001836020036101000a031916815260200191505b50838103825260148152602001807f2052656d6f7665642053756365737366756c6c79000000000000000000000000815250602001935050505060006040518083038186803b1580156200210857600080fd5b505af41580156200211d573d6000803e3d6000fd5b505050506040513d6000823e3d601f19601f8201168201806040525060208110156200214857600080fd5b8101908080516401000000008111156200216157600080fd5b828101905060208101848111156200217857600080fd5b81518560018202830111640100000000821117156200219657600080fd5b50509291905050509250600a805480919060019003620021b79190620025f6565b5062002364565b73__lib___________________________________63ff74927b846040518263ffffffff167c0100000000000000000000000000000000000000000000000000000000028152600401808060200180602001838103835284818151815260200191508051906020019080838360005b838110156200224a5780820151818401526020810190506200222d565b50505050905090810190601f168015620022785780820380516001836020036101000a031916815260200191505b508381038252601e8152602001807f204572726f722c20636f756c64206e6f742066696e6420696e206d656e750000815250602001935050505060006040518083038186803b158015620022cb57600080fd5b505af4158015620022e0573d6000803e3d6000fd5b505050506040513d6000823e3d601f19601f8201168201806040525060208110156200230b57600080fd5b8101908080516401000000008111156200232457600080fd5b828101905060208101848111156200233b57600080fd5b81518560018202830111640100000000821117156200235957600080fd5b505092919050505092505b50808060010191505062001947565b5080905092915050565b600a818154811015156200238d57fe5b90600052602060002090600202016000915090508060000154908060010154905082565b600080600a83815481101515620023c457fe5b906000526020600020906002020160000154600a84815481101515620023e657fe5b90600052602060002090600202016001015491509150915091565b600080600090505b600a8054905081121562002563576200254573__lib___________________________________639201de55600a848154811015156200244557fe5b9060005260206000209060020201600001546040518263ffffffff167c01000000000000000000000000000000000000000000000000000000000281526004018082815260200191505060006040518083038186803b158015620024a857600080fd5b505af4158015620024bd573d6000803e3d6000fd5b505050506040513d6000823e3d601f19601f820116820180604052506020811015620024e857600080fd5b8101908080516401000000008111156200250157600080fd5b828101905060208101848111156200251857600080fd5b81518560018202830111640100000000821117156200253657600080fd5b5050929190505050846200258d565b1562002555578091505062002588565b808060010191505062002409565b507fffffffffffffffffffffffffffffffffffffffffffffffffffffffffffffffff90505b919050565b600081518351141515620025a55760009050620025b9565b818051906020012083805190602001201490505b92915050565b6040516113e9806200265e83390190565b5080546000825560020290600052602060002090810190620025f391906200262b565b50565b81548183558181111562002626576002028160020283600052602060002091820191016200262591906200262b565b5b505050565b6200265a91905b80821115620026565760008082016000905560018201600090555060020162002632565b5090565b9056fe60806040523480156200001157600080fd5b50604051620013e9380380620013e9833981018060405260c08110156200003757600080fd5b81019080805190602001909291908051906020019092919080516401000000008111156200006457600080fd5b828101905060208101848111156200007b57600080fd5b81518560208202830111640100000000821117156200009957600080fd5b50509291906020018051640100000000811115620000b657600080fd5b82810190506020810184811115620000cd57600080fd5b8151856020820283011164010000000082111715620000eb57600080fd5b505092919060200180519060200190929190805190602001909291905050508473ffffffffffffffffffffffffffffffffffffffff166379a4fa27336040518263ffffffff167c0100000000000000000000000000000000000000000000000000000000028152600401808273ffffffffffffffffffffffffffffffffffffffff1673ffffffffffffffffffffffffffffffffffffffff16815260200191505060206040518083038186803b158015620001a457600080fd5b505afa158015620001b9573d6000803e3d6000fd5b505050506040513d6020811015620001d057600080fd5b81019080805190602001909291905050501515620001ed57600080fd5b82518451141515620001fe57600080fd5b8560038190555033600560006101000a81548173ffffffffffffffffffffffffffffffffffffffff021916908373ffffffffffffffffffffffffffffffffffffffff16021790555080600760006101000a81548173ffffffffffffffffffffffffffffffffffffffff021916908373ffffffffffffffffffffffffffffffffffffffff16021790555084600460006101000a81548173ffffffffffffffffffffffffffffffffffffffff021916908373ffffffffffffffffffffffffffffffffffffffff16021790555081600860006101000a81548173ffffffffffffffffffffffffffffffffffffffff021916908373ffffffffffffffffffffffffffffffffffffffff1602179055506000600a8190555060008090505b8451811015620004c857604080519081016040528073__lib___________________________________639201de5588858151811015156200035557fe5b906020019060200201516040518263ffffffff167c01000000000000000000000000000000000000000000000000000000000281526004018082815260200191505060006040518083038186803b158015620003b057600080fd5b505af4158015620003c5573d6000803e3d6000fd5b505050506040513d6000823e3d601f19601f820116820180604052506020811015620003f057600080fd5b8101908080516401000000008111156200040957600080fd5b828101905060208101848111156200042057600080fd5b81518560018202830111640100000000821117156200043e57600080fd5b5050929190505050815260200185838151811015156200045a57fe5b90602001906020020151815250600b6000600a54815260200190815260200160002060008201518160000190805190602001906200049a92919062000511565b5060208201518160010155905050600a60008154809291906001019190505550808060010191505062000317565b5060006003811115620004d757fe5b60008190555060006001811115620004eb57fe5b60028190555060006002811115620004ff57fe5b600181905550505050505050620005c0565b828054600181600116156101000203166002900490600052602060002090601f016020900481019282601f106200055457805160ff191683800117855562000585565b8280016001018555821562000585579182015b828111156200058457825182559160200191906001019062000567565b5b50905062000594919062000598565b5090565b620005bd91905b80821115620005b95760008160009055506001016200059f565b5090565b90565b610e1980620005d06000396000f3fe6080604052600436106100ba576000357c0100000000000000000000000000000000000000000000000000000000900463ffffffff1680632799276d146100bf5780633129e773146100ea57806332940816146101405780633733d9f51461016b5780633e3ca4d31461019657806368db65a4146101c1578063a14b7e6814610218578063af640d0f14610243578063bfb231d21461026e578063c7529f0c14610329578063e9132c4214610340578063ed1680581461037b575b600080fd5b3480156100cb57600080fd5b506100d46103d2565b6040518082815260200191505060405180910390f35b3480156100f657600080fd5b506101236004803603602081101561010d57600080fd5b81019080803590602001909291905050506103d8565b604051808381526020018281526020019250505060405180910390f35b34801561014c57600080fd5b50610155610644565b6040518082815260200191505060405180910390f35b34801561017757600080fd5b5061018061064a565b6040518082815260200191505060405180910390f35b3480156101a257600080fd5b506101ab610760565b6040518082815260200191505060405180910390f35b3480156101cd57600080fd5b506101d6610766565b604051808273ffffffffffffffffffffffffffffffffffffffff1673ffffffffffffffffffffffffffffffffffffffff16815260200191505060405180910390f35b34801561022457600080fd5b5061022d61078c565b6040518082815260200191505060405180910390f35b34801561024f57600080fd5b50610258610792565b6040518082815260200191505060405180910390f35b34801561027a57600080fd5b506102a76004803603602081101561029157600080fd5b8101908080359060200190929190505050610798565b6040518080602001838152602001828103825284818151815260200191508051906020019080838360005b838110156102ed5780820151818401526020810190506102d2565b50505050905090810190601f16801561031a5780820380516001836020036101000a031916815260200191505b50935050505060405180910390f35b34801561033557600080fd5b5061033e610854565b005b34801561034c57600080fd5b506103796004803603602081101561036357600080fd5b8101908080359060200190929190505050610a47565b005b34801561038757600080fd5b50610390610dc7565b604051808273ffffffffffffffffffffffffffffffffffffffff1673ffffffffffffffffffffffffffffffffffffffff16815260200191505060405180910390f35b600a5481565b6000803373ffffffffffffffffffffffffffffffffffffffff16600760009054906101000a900473ffffffffffffffffffffffffffffffffffffffff1673ffffffffffffffffffffffffffffffffffffffff16148061048457503373ffffffffffffffffffffffffffffffffffffffff16600560009054906101000a900473ffffffffffffffffffffffffffffffffffffffff1673ffffffffffffffffffffffffffffffffffffffff16145b806104dc57503373ffffffffffffffffffffffffffffffffffffffff16600660009054906101000a900473ffffffffffffffffffffffffffffffffffffffff1673ffffffffffffffffffffffffffffffffffffffff16145b15156104e757600080fd5b73__lib___________________________________63cfb51928600b60008681526020019081526020016000206000016040518263ffffffff167c010000000000000000000000000000000000000000000000000000000002815260040180806020018281038252838181546001816001161561010002031660029004815260200191508054600181600116156101000203166002900480156105cb5780601f106105a0576101008083540402835291602001916105cb565b820191906000526020600020905b8154815290600101906020018083116105ae57829003601f168201915b50509250505060206040518083038186803b1580156105e957600080fd5b505af41580156105fd573d6000803e3d6000fd5b505050506040513d602081101561061357600080fd5b8101908080519060200190929190505050600b60008581526020019081526020016000206001015491509150915091565b60015481565b60003373ffffffffffffffffffffffffffffffffffffffff16600760009054906101000a900473ffffffffffffffffffffffffffffffffffffffff1673ffffffffffffffffffffffffffffffffffffffff1614806106f557503373ffffffffffffffffffffffffffffffffffffffff16600560009054906101000a900473ffffffffffffffffffffffffffffffffffffffff1673ffffffffffffffffffffffffffffffffffffffff16145b8061074d57503373ffffffffffffffffffffffffffffffffffffffff16600660009054906101000a900473ffffffffffffffffffffffffffffffffffffffff1673ffffffffffffffffffffffffffffffffffffffff16145b151561075857600080fd5b600954905090565b60005481565b600460009054906101000a900473ffffffffffffffffffffffffffffffffffffffff1681565b60025481565b60035481565b600b602052806000526040600020600091509050806000018054600181600116156101000203166002900480601f0160208091040260200160405190810160405280929190818152602001828054600181600116156101000203166002900480156108445780601f1061081957610100808354040283529160200191610844565b820191906000526020600020905b81548152906001019060200180831161082757829003601f168201915b5050505050908060010154905082565b600860009054906101000a900473ffffffffffffffffffffffffffffffffffffffff1673ffffffffffffffffffffffffffffffffffffffff1663c9286d576040518163ffffffff167c010000000000000000000000000000000000000000000000000000000002815260040160206040518083038186803b1580156108d857600080fd5b505afa1580156108ec573d6000803e3d6000fd5b505050506040513d602081101561090257600080fd5b810190808051906020019092919050505073ffffffffffffffffffffffffffffffffffffffff166313952670336040518263ffffffff167c0100000000000000000000000000000000000000000000000000000000028152600401808273ffffffffffffffffffffffffffffffffffffffff1673ffffffffffffffffffffffffffffffffffffffff16815260200191505060206040518083038186803b1580156109ab57600080fd5b505afa1580156109bf573d6000803e3d6000fd5b505050506040513d60208110156109d557600080fd5b810190808051906020019092919050505015156109f157600080fd5b600160038111156109fe57fe5b60008190555033600660006101000a81548173ffffffffffffffffffffffffffffffffffffffff021916908373ffffffffffffffffffffffffffffffffffffffff160217905550565b600660009054906101000a900473ffffffffffffffffffffffffffffffffffffffff1673ffffffffffffffffffffffffffffffffffffffff163373ffffffffffffffffffffffffffffffffffffffff161480610af05750600560009054906101000a900473ffffffffffffffffffffffffffffffffffffffff1673ffffffffffffffffffffffffffffffffffffffff163373ffffffffffffffffffffffffffffffffffffffff16145b80610b485750600760009054906101000a900473ffffffffffffffffffffffffffffffffffffffff1673ffffffffffffffffffffffffffffffffffffffff163373ffffffffffffffffffffffffffffffffffffffff16145b1515610c08576040517f08c379a00000000000000000000000000000000000000000000000000000000081526004018080602001828103825260508152602001807f596f7520646f6e742068617665207065726d697373696f6e20746f207365652081526020017f74686973206f726465722c2064696420796f752067657420746865206f72646581526020017f7220616464726573732077726f6e673f0000000000000000000000000000000081525060600191505060405180910390fd5b600660009054906101000a900473ffffffffffffffffffffffffffffffffffffffff1673ffffffffffffffffffffffffffffffffffffffff163373ffffffffffffffffffffffffffffffffffffffff161415610c6a5780600081905550610dc4565b600560009054906101000a900473ffffffffffffffffffffffffffffffffffffffff1673ffffffffffffffffffffffffffffffffffffffff163373ffffffffffffffffffffffffffffffffffffffff161415610ccc5780600181905550610dc3565b600760009054906101000a900473ffffffffffffffffffffffffffffffffffffffff1673ffffffffffffffffffffffffffffffffffffffff163373ffffffffffffffffffffffffffffffffffffffff161415610d2e5780600281905550610dc2565b6040517f08c379a00000000000000000000000000000000000000000000000000000000081526004018080602001828103825260358152602001807f4572726f723a20756e617574686f72697365726420616464726573732061636381526020017f657373696e67207365744f72646572537461747573000000000000000000000081525060400191505060405180910390fd5b5b5b50565b600560009054906101000a900473ffffffffffffffffffffffffffffffffffffffff168156fea165627a7a72305820f50a98de5e01a448aa633406b07c2126bd7666ea7d6910ed1103f6cc5b1c6d640029a165627a7a723058208736134957dadedb4b257b81c80c279ab1cb110d363683f6bb5b3ca65c5004e90029",
  "source": "pragma solidity ^0.5.0;\n\n import \"./lib.sol\";\n import \"./Order.sol\";\n import \"./RestaurantFactory.sol\";\n import \"./CustomerFactory.sol\";\n import \"./Controller.sol\";\n\ncontract Restaurant {\n\n    using lib for bytes32;\n\n\tuint id;\n\tstring public name;\n\tstring public location;\n\tstring public contactNumber;\n\tuint public rating;\n\n\taddress public owner;\n    address public controllerAddress;\n\taddress public restaurantFactoryAddress;\n\n\n    struct order{bool open; address orderAddress;}\n\tuint public totalOrders;\n\tmapping(uint => order) public orders; // must be a better way to store the orders\n\t\n\tstruct Item{\n\t\tbytes32 itemName;\n\t\tuint itemCost; // in wei (10^-18 Eth)\n\t}\n\t\n\tItem[] public menu; // should probably change this to a mapping\n\n    enum restaurantState{acceptedOrder, preparingCargo, HandedOver}\n\t\n\n\tconstructor(address _controller, address _owner, uint _id, string memory _name,string memory _address,string memory _contactNumber) public {\n\t\tid = _id;\n\t\tname = _name;\n\t\tlocation = _address;\n\t\tcontactNumber = _contactNumber;\n\t\ttotalOrders = 0;\n\n        controllerAddress = _controller;\n\t\towner = _owner;\n\t\trestaurantFactoryAddress = msg.sender;\n\t}\n\n    function getMenuLength() external view returns(uint length){\n        return menu.length;\n    }\n\n    function clearMenu() external {\n        require(msg.sender == owner);\n        delete menu;\n    }\n    \n    function menuAddItems(bytes32[] calldata itemNames, uint[] calldata prices) external {\n        require(msg.sender == owner);\n        require(itemNames.length == prices.length);\n        \n        // should add checks that an item isn't added twice\n        for(uint i = 0; i<itemNames.length;i++){\n            menu.push(Item(itemNames[i], prices[i]));\n        }\n    }\n\n    \n    // could add ids to menu items then remove by id to lower gas cost\n    function menuRemoveItems(bytes32[] calldata itemNames) external returns(string memory result){\n        require(msg.sender == owner);\n        require(itemNames.length>0);\n        result = \"\";\n        for(uint i = 0; i<itemNames.length;i++){\n            result = lib.strConcat(result,lib.strConcat(lib.bytes32ToString(itemNames[i]),\":\"));\n            int index = menuSearch(lib.bytes32ToString(itemNames[i]));\n            if(index!=-1){\n                delete menu[uint(index)];\n                menu[uint(index)] = menu[menu.length-1];\n                delete menu[menu.length-1];\n                result = lib.strConcat(result,\" Removed Sucessfully\");\n                menu.length--;\n            }\n            else{\n                result = lib.strConcat(result, \" Error, could not find in menu\");\n            }\n        }\n        \n        return result;\n    }\n    \n    function menuSearch(string memory query) private view returns(int index){\n        for(int i = 0; i<int(menu.length);i++){\n            if(lib.compareStrings(lib.bytes32ToString(menu[uint(i)].itemName),query)){\n                return i;\n            }\n        }\n        return -1;\n    }\n\n    function validOrder(bytes32[] memory items) public view returns (bool isValid, uint price){\n        uint price;\n        for(uint i = 0; i < items.length; i++){\n            int index = menuSearch(lib.bytes32ToString(items[i]));\n            if(index == -1){\n                return (false,0);\n            }\n            else{\n                price += menu[uint(index)].itemCost; \n            }\n        }\n        return (true,price);\n    }\n    \n    function makeOrder(bytes32[] calldata items) external returns (address orderAddress) {\n        //require this comes from a customer smart contract\n        require(CustomerFactory(Controller(controllerAddress).customerFactoryAddress()).customerExists(msg.sender));\n        \n\n        uint[] memory prices = new uint[](items.length);\n        for(uint i = 0; i < items.length; i++)\n        {\n            string memory a = lib.bytes32ToString(items[i]); \n            int index = menuSearch(a); \n            \n            if (index != -1){\n                prices[i] = menu[uint(index)].itemCost;\n            }\n            else{\n                revert(\"Invalid Items\");\n            }\n        }\n        \n\n        \n\t\tOrder newOrder = new Order(totalOrders,restaurantFactoryAddress,items,prices,controllerAddress, msg.sender);\n\t\torders[totalOrders] = order(true,address(newOrder));\n        totalOrders ++;\n\t\treturn orders[totalOrders].orderAddress;       \n    }\n    \n    function getMenuItem(uint itemId)public view returns(bytes32 itemname, uint cost){\n        return (menu[itemId].itemName,menu[itemId].itemCost);\n    }\n\n    // toDo, could pass in orderID instead reduce gas\n    function setStatusPrepairing(address orderAddress) public { \n        require(msg.sender == owner);\n        Order(orderAddress).setOrderStatus(uint(restaurantState.preparingCargo));\n    }    \n\n    function handOverCargo(address orderAddress) public {\n        require(msg.sender == owner);\n        Order(orderAddress).setOrderStatus(uint(restaurantState.HandedOver));\n    }\n}",
  "sourcePath": "/home/george/Documents/University/Dissertation/TryAByte/contracts/Restaurant.sol",
  "compiler": {
    "name": "solc",
    "version": "0.5.0+commit.1d4f565a.Emscripten.clang"
  },
  "schemaVersion": "3.0.2",
  "updatedAt": "2019-03-13T14:06:34.088Z",
  "devdoc": {
    "methods": {}
  },
  "userdoc": {
    "methods": {}
  }
}