{
  "contractName": "Restaurant",
  "abi": [
    {
      "constant": true,
      "inputs": [],
      "name": "name",
      "outputs": [
        {
          "name": "",
          "type": "string"
        }
      ],
      "payable": false,
      "stateMutability": "view",
      "type": "function"
    },
    {
      "constant": true,
      "inputs": [],
      "name": "totalOrders",
      "outputs": [
        {
          "name": "",
          "type": "uint256"
        }
      ],
      "payable": false,
      "stateMutability": "view",
      "type": "function"
    },
    {
      "constant": true,
      "inputs": [],
      "name": "menuLength",
      "outputs": [
        {
          "name": "",
          "type": "uint256"
        }
      ],
      "payable": false,
      "stateMutability": "view",
      "type": "function"
    },
    {
      "constant": true,
      "inputs": [],
      "name": "controllerAddress",
      "outputs": [
        {
          "name": "",
          "type": "address"
        }
      ],
      "payable": false,
      "stateMutability": "view",
      "type": "function"
    },
    {
      "constant": true,
      "inputs": [],
      "name": "location",
      "outputs": [
        {
          "name": "",
          "type": "string"
        }
      ],
      "payable": false,
      "stateMutability": "view",
      "type": "function"
    },
    {
      "constant": true,
      "inputs": [],
      "name": "restaurantFactoryAddress",
      "outputs": [
        {
          "name": "",
          "type": "address"
        }
      ],
      "payable": false,
      "stateMutability": "view",
      "type": "function"
    },
    {
      "constant": true,
      "inputs": [],
      "name": "contactNumber",
      "outputs": [
        {
          "name": "",
          "type": "string"
        }
      ],
      "payable": false,
      "stateMutability": "view",
      "type": "function"
    },
    {
      "constant": true,
      "inputs": [],
      "name": "rating",
      "outputs": [
        {
          "name": "",
          "type": "uint256"
        }
      ],
      "payable": false,
      "stateMutability": "view",
      "type": "function"
    },
    {
      "constant": true,
      "inputs": [],
      "name": "owner",
      "outputs": [
        {
          "name": "",
          "type": "address"
        }
      ],
      "payable": false,
      "stateMutability": "view",
      "type": "function"
    },
    {
      "constant": true,
      "inputs": [
        {
          "name": "",
          "type": "uint256"
        }
      ],
      "name": "orders",
      "outputs": [
        {
          "name": "open",
          "type": "bool"
        },
        {
          "name": "orderAddress",
          "type": "address"
        }
      ],
      "payable": false,
      "stateMutability": "view",
      "type": "function"
    },
    {
      "constant": true,
      "inputs": [],
      "name": "id",
      "outputs": [
        {
          "name": "",
          "type": "uint256"
        }
      ],
      "payable": false,
      "stateMutability": "view",
      "type": "function"
    },
    {
      "constant": true,
      "inputs": [
        {
          "name": "",
          "type": "uint256"
        }
      ],
      "name": "menu",
      "outputs": [
        {
          "name": "itemName",
          "type": "bytes32"
        },
        {
          "name": "itemCost",
          "type": "uint256"
        }
      ],
      "payable": false,
      "stateMutability": "view",
      "type": "function"
    },
    {
      "inputs": [
        {
          "name": "_controller",
          "type": "address"
        },
        {
          "name": "_owner",
          "type": "address"
        },
        {
          "name": "_id",
          "type": "uint256"
        },
        {
          "name": "_name",
          "type": "string"
        },
        {
          "name": "_address",
          "type": "string"
        },
        {
          "name": "_contactNumber",
          "type": "string"
        }
      ],
      "payable": false,
      "stateMutability": "nonpayable",
      "type": "constructor"
    },
    {
      "payable": true,
      "stateMutability": "payable",
      "type": "fallback"
    },
    {
      "constant": true,
      "inputs": [],
      "name": "getMenuLength",
      "outputs": [
        {
          "name": "length",
          "type": "uint256"
        }
      ],
      "payable": false,
      "stateMutability": "view",
      "type": "function"
    },
    {
      "constant": false,
      "inputs": [
        {
          "name": "itemNames",
          "type": "bytes32[]"
        },
        {
          "name": "prices",
          "type": "uint256[]"
        }
      ],
      "name": "menuAddItems",
      "outputs": [],
      "payable": false,
      "stateMutability": "nonpayable",
      "type": "function"
    },
    {
      "constant": false,
      "inputs": [
        {
          "name": "itemIds",
          "type": "uint256[]"
        }
      ],
      "name": "menuRemoveItems",
      "outputs": [],
      "payable": false,
      "stateMutability": "nonpayable",
      "type": "function"
    },
    {
      "constant": true,
      "inputs": [
        {
          "name": "itemIds",
          "type": "uint256[]"
        }
      ],
      "name": "getOrderPrice",
      "outputs": [
        {
          "name": "",
          "type": "uint256"
        }
      ],
      "payable": false,
      "stateMutability": "view",
      "type": "function"
    },
    {
      "constant": false,
      "inputs": [
        {
          "name": "itemIds",
          "type": "uint256[]"
        },
        {
          "name": "deliveryFee",
          "type": "uint256"
        }
      ],
      "name": "makeOrder",
      "outputs": [
        {
          "name": "orderAddress",
          "type": "address"
        }
      ],
      "payable": true,
      "stateMutability": "payable",
      "type": "function"
    },
    {
      "constant": true,
      "inputs": [
        {
          "name": "itemId",
          "type": "uint256"
        }
      ],
      "name": "getMenuItem",
      "outputs": [
        {
          "name": "itemname",
          "type": "bytes32"
        },
        {
          "name": "cost",
          "type": "uint256"
        }
      ],
      "payable": false,
      "stateMutability": "view",
      "type": "function"
    },
    {
      "constant": false,
      "inputs": [
        {
          "name": "orderID",
          "type": "uint256"
        },
        {
          "name": "status",
          "type": "uint256"
        }
      ],
      "name": "setStatus",
      "outputs": [],
      "payable": false,
      "stateMutability": "nonpayable",
      "type": "function"
    },
    {
      "constant": false,
      "inputs": [],
      "name": "pay",
      "outputs": [],
      "payable": true,
      "stateMutability": "payable",
      "type": "function"
    }
  ],
  "bytecode": "0x60806040523480156200001157600080fd5b5060405162003b2738038062003b27833981018060405260c08110156200003757600080fd5b8101908080519060200190929190805190602001909291908051906020019092919080516401000000008111156200006e57600080fd5b828101905060208101848111156200008557600080fd5b8151856001820283011164010000000082111715620000a357600080fd5b50509291906020018051640100000000811115620000c057600080fd5b82810190506020810184811115620000d757600080fd5b8151856001820283011164010000000082111715620000f557600080fd5b505092919060200180516401000000008111156200011257600080fd5b828101905060208101848111156200012957600080fd5b81518560018202830111640100000000821117156200014757600080fd5b50509291905050508360008190555082600190805190602001906200016e92919062000280565b5081600290805190602001906200018792919062000280565b508060039080519060200190620001a092919062000280565b5060006008819055506000600a8190555085600660006101000a81548173ffffffffffffffffffffffffffffffffffffffff021916908373ffffffffffffffffffffffffffffffffffffffff16021790555084600560006101000a81548173ffffffffffffffffffffffffffffffffffffffff021916908373ffffffffffffffffffffffffffffffffffffffff16021790555033600760006101000a81548173ffffffffffffffffffffffffffffffffffffffff021916908373ffffffffffffffffffffffffffffffffffffffff1602179055505050505050506200032f565b828054600181600116156101000203166002900490600052602060002090601f016020900481019282601f10620002c357805160ff1916838001178555620002f4565b82800160010185558215620002f4579182015b82811115620002f3578251825591602001919060010190620002d6565b5b50905062000303919062000307565b5090565b6200032c91905b80821115620003285760008160009055506001016200030e565b5090565b90565b6137e8806200033f6000396000f3fe60806040526004361062000127576000357c0100000000000000000000000000000000000000000000000000000000900463ffffffff16806306fdde031462000129578063125ba97714620001bf5780631b9265b814620001ed5780631d83440914620001f957806321be5e4e14620002275780633d939a4914620002b45780633e92c46814620002e25780634b24ea4714620003c7578063516f279e146200042157806366e1dfa314620004b757806368db65a4146200059757806376af633c14620005f157806380f474f6146200068757806382e4081314620006b55780638da5cb5b14620006fe578063a85c38ef1462000758578063af640d0f14620007e2578063cc5307601462000810578063cffb703c14620008d9578063f943eecd1462000933575b005b3480156200013657600080fd5b50620001416200098d565b6040518080602001828103825283818151815260200191508051906020019080838360005b838110156200018357808201518184015260208101905062000166565b50505050905090810190601f168015620001b15780820380516001836020036101000a031916815260200191505b509250505060405180910390f35b348015620001cc57600080fd5b50620001d762000a2f565b6040518082815260200191505060405180910390f35b620001f762000a39565b005b3480156200020657600080fd5b506200021162000ab5565b6040518082815260200191505060405180910390f35b3480156200023457600080fd5b50620002b2600480360360208110156200024d57600080fd5b81019080803590602001906401000000008111156200026b57600080fd5b8201836020820111156200027e57600080fd5b80359060200191846020830284011164010000000083111715620002a157600080fd5b909192939192939050505062000abb565b005b348015620002c157600080fd5b50620002cc62000c8d565b6040518082815260200191505060405180910390f35b348015620002ef57600080fd5b50620003c5600480360360408110156200030857600080fd5b81019080803590602001906401000000008111156200032657600080fd5b8201836020820111156200033957600080fd5b803590602001918460208302840111640100000000831117156200035c57600080fd5b9091929391929390803590602001906401000000008111156200037e57600080fd5b8201836020820111156200039157600080fd5b80359060200191846020830284011164010000000083111715620003b457600080fd5b909192939192939050505062000c93565b005b348015620003d457600080fd5b50620003df62000da9565b604051808273ffffffffffffffffffffffffffffffffffffffff1673ffffffffffffffffffffffffffffffffffffffff16815260200191505060405180910390f35b3480156200042e57600080fd5b506200043962000dcf565b6040518080602001828103825283818151815260200191508051906020019080838360005b838110156200047b5780820151818401526020810190506200045e565b50505050905090810190601f168015620004a95780820380516001836020036101000a031916815260200191505b509250505060405180910390f35b348015620004c457600080fd5b506200058160048036036020811015620004dd57600080fd5b8101908080359060200190640100000000811115620004fb57600080fd5b8201836020820111156200050e57600080fd5b803590602001918460208302840111640100000000831117156200053157600080fd5b919080806020026020016040519081016040528093929190818152602001838360200280828437600081840152601f19601f82011690508083019250505050505050919291929050505062000e71565b6040518082815260200191505060405180910390f35b348015620005a457600080fd5b50620005af62000ed3565b604051808273ffffffffffffffffffffffffffffffffffffffff1673ffffffffffffffffffffffffffffffffffffffff16815260200191505060405180910390f35b348015620005fe57600080fd5b506200060962000ef9565b6040518080602001828103825283818151815260200191508051906020019080838360005b838110156200064b5780820151818401526020810190506200062e565b50505050905090810190601f168015620006795780820380516001836020036101000a031916815260200191505b509250505060405180910390f35b3480156200069457600080fd5b506200069f62000f9b565b6040518082815260200191505060405180910390f35b348015620006c257600080fd5b50620006fc60048036036040811015620006db57600080fd5b81019080803590602001909291908035906020019092919050505062000fa1565b005b3480156200070b57600080fd5b5062000716620010c1565b604051808273ffffffffffffffffffffffffffffffffffffffff1673ffffffffffffffffffffffffffffffffffffffff16815260200191505060405180910390f35b3480156200076557600080fd5b5062000795600480360360208110156200077e57600080fd5b8101908080359060200190929190505050620010e7565b60405180831515151581526020018273ffffffffffffffffffffffffffffffffffffffff1673ffffffffffffffffffffffffffffffffffffffff1681526020019250505060405180910390f35b348015620007ef57600080fd5b50620007fa62001138565b6040518082815260200191505060405180910390f35b62000897600480360360408110156200082857600080fd5b81019080803590602001906401000000008111156200084657600080fd5b8201836020820111156200085957600080fd5b803590602001918460208302840111640100000000831117156200087c57600080fd5b9091929391929390803590602001909291905050506200113e565b604051808273ffffffffffffffffffffffffffffffffffffffff1673ffffffffffffffffffffffffffffffffffffffff16815260200191505060405180910390f35b348015620008e657600080fd5b506200091660048036036020811015620008ff57600080fd5b810190808035906020019092919050505062001791565b604051808381526020018281526020019250505060405180910390f35b3480156200094057600080fd5b5062000970600480360360208110156200095957600080fd5b8101908080359060200190929190505050620017b5565b604051808381526020018281526020019250505060405180910390f35b60018054600181600116156101000203166002900480601f01602080910402602001604051908101604052809291908181526020018280546001816001161561010002031660029004801562000a275780601f10620009fb5761010080835404028352916020019162000a27565b820191906000526020600020905b81548152906001019060200180831162000a0957829003601f168201915b505050505081565b6000600b54905090565b34600a60008282540192505081905550600560009054906101000a900473ffffffffffffffffffffffffffffffffffffffff1673ffffffffffffffffffffffffffffffffffffffff166108fc349081150290604051600060405180830381858888f1935050505015801562000ab2573d6000803e3d6000fd5b50565b60085481565b600560009054906101000a900473ffffffffffffffffffffffffffffffffffffffff1673ffffffffffffffffffffffffffffffffffffffff163373ffffffffffffffffffffffffffffffffffffffff1614151562000b1857600080fd5b60008282905011151562000b2b57600080fd5b600082829050600b5403905060608160405190808252806020026020018201604052801562000b695781602001602082028038833980820191505090505b509050600080905060008090505b600b5481101562000c095760006001905060008090505b8787905081101562000bcb57878782818110151562000ba957fe5b9050602002013583141562000bbd57600091505b808060010191505062000b8e565b50801562000bfa5781848481518110151562000be357fe5b906020019060200201818152505082806001019350505b50808060010191505062000b77565b5060008090505b825181101562000c7d57600c6000848381518110151562000c2d57fe5b906020019060200201518152602001908152602001600020600c60008381526020019081526020016000206000820154816000015560018201548160010155905050808060010191505062000c10565b508151600b819055505050505050565b600b5481565b600560009054906101000a900473ffffffffffffffffffffffffffffffffffffffff1673ffffffffffffffffffffffffffffffffffffffff163373ffffffffffffffffffffffffffffffffffffffff1614151562000cf057600080fd5b818190508484905014151562000d0557600080fd5b60008090505b8484905081101562000da2576040805190810160405280868684818110151562000d3157fe5b905060200201358152602001848484818110151562000d4c57fe5b90506020020135815250600c6000600b5481526020019081526020016000206000820151816000015560208201518160010155905050600b60008154809291906001019190505550808060010191505062000d0b565b5050505050565b600660009054906101000a900473ffffffffffffffffffffffffffffffffffffffff1681565b60028054600181600116156101000203166002900480601f01602080910402602001604051908101604052809291908181526020018280546001816001161561010002031660029004801562000e695780601f1062000e3d5761010080835404028352916020019162000e69565b820191906000526020600020905b81548152906001019060200180831162000e4b57829003601f168201915b505050505081565b6000806000905060008090505b835181101562000ec957600c6000858381518110151562000e9b57fe5b9060200190602002015181526020019081526020016000206001015482019150808060010191505062000e7e565b5080915050919050565b600760009054906101000a900473ffffffffffffffffffffffffffffffffffffffff1681565b60038054600181600116156101000203166002900480601f01602080910402602001604051908101604052809291908181526020018280546001816001161561010002031660029004801562000f935780601f1062000f675761010080835404028352916020019162000f93565b820191906000526020600020905b81548152906001019060200180831162000f7557829003601f168201915b505050505081565b60045481565b600560009054906101000a900473ffffffffffffffffffffffffffffffffffffffff1673ffffffffffffffffffffffffffffffffffffffff163373ffffffffffffffffffffffffffffffffffffffff1614151562000ffe57600080fd5b6009600083815260200190815260200160002060000160019054906101000a900473ffffffffffffffffffffffffffffffffffffffff1673ffffffffffffffffffffffffffffffffffffffff1663e9132c42826040518263ffffffff167c010000000000000000000000000000000000000000000000000000000002815260040180828152602001915050600060405180830381600087803b158015620010a457600080fd5b505af1158015620010b9573d6000803e3d6000fd5b505050505050565b600560009054906101000a900473ffffffffffffffffffffffffffffffffffffffff1681565b60096020528060005260406000206000915090508060000160009054906101000a900460ff16908060000160019054906101000a900473ffffffffffffffffffffffffffffffffffffffff16905082565b60005481565b6000600660009054906101000a900473ffffffffffffffffffffffffffffffffffffffff1673ffffffffffffffffffffffffffffffffffffffff16636455e5ac6040518163ffffffff167c010000000000000000000000000000000000000000000000000000000002815260040160206040518083038186803b158015620011c557600080fd5b505afa158015620011da573d6000803e3d6000fd5b505050506040513d6020811015620011f157600080fd5b810190808051906020019092919050505073ffffffffffffffffffffffffffffffffffffffff1663689b0098336040518263ffffffff167c0100000000000000000000000000000000000000000000000000000000028152600401808273ffffffffffffffffffffffffffffffffffffffff1673ffffffffffffffffffffffffffffffffffffffff16815260200191505060206040518083038186803b1580156200129b57600080fd5b505afa158015620012b0573d6000803e3d6000fd5b505050506040513d6020811015620012c757600080fd5b810190808051906020019092919050505015156200134d576040517f08c379a00000000000000000000000000000000000000000000000000000000081526004018080602001828103825260158152602001807f437573746f6d657220646f65736e74206578697374000000000000000000000081525060200191505060405180910390fd5b606084849050604051908082528060200260200182016040528015620013825781602001602082028038833980820191505090505b509050606085859050604051908082528060200260200182016040528015620013ba5781602001602082028038833980820191505090505b50905060008090505b86869050811015620015265760008787838181101515620013e057fe5b90506020020135101580156200140c5750600b5487878381811015156200140357fe5b90506020020135105b15620014aa57600c600088888481811015156200142557fe5b9050602002013581526020019081526020016000206000015482828151811015156200144d57fe5b9060200190602002018181525050600c600088888481811015156200146e57fe5b9050602002013581526020019081526020016000206001015483828151811015156200149657fe5b906020019060200201818152505062001518565b6040517f08c379a000000000000000000000000000000000000000000000000000000000815260040180806020018281038252600d8152602001807f496e76616c6964204974656d730000000000000000000000000000000000000081525060200191505060405180910390fd5b8080600101915050620013c3565b50600034600854838588600660009054906101000a900473ffffffffffffffffffffffffffffffffffffffff16336200155e620017ef565b8087815260200180602001806020018681526020018573ffffffffffffffffffffffffffffffffffffffff1673ffffffffffffffffffffffffffffffffffffffff1681526020018473ffffffffffffffffffffffffffffffffffffffff1673ffffffffffffffffffffffffffffffffffffffff168152602001838103835288818151815260200191508051906020019060200280838360005b8381101562001614578082015181840152602081019050620015f7565b50505050905001838103825287818151815260200191508051906020019060200280838360005b83811015620016585780820151818401526020810190506200163b565b50505050905001985050505050505050506040518091039082f08015801562001685573d6000803e3d6000fd5b509050905060408051908101604052806001151581526020018273ffffffffffffffffffffffffffffffffffffffff1681525060096000600854815260200190815260200160002060008201518160000160006101000a81548160ff02191690831515021790555060208201518160000160016101000a81548173ffffffffffffffffffffffffffffffffffffffff021916908373ffffffffffffffffffffffffffffffffffffffff16021790555090505060086000815480929190600101919050555060096000600160085403815260200190815260200160002060000160019054906101000a900473ffffffffffffffffffffffffffffffffffffffff1693505050509392505050565b600c6020528060005260406000206000915090508060000154908060010154905082565b600080600c600084815260200190815260200160002060000154600c60008581526020019081526020016000206001015491509150915091565b604051611fbc80620018018339019056fe60806040526000600460006101000a81548160ff0219169083151502179055506000600460016101000a81548160ff02191690831515021790555060405162001fbc38038062001fbc833981018060405260c08110156200005f57600080fd5b810190808051906020019092919080516401000000008111156200008257600080fd5b828101905060208101848111156200009957600080fd5b8151856020820283011164010000000082111715620000b757600080fd5b50509291906020018051640100000000811115620000d457600080fd5b82810190506020810184811115620000eb57600080fd5b81518560208202830111640100000000821117156200010957600080fd5b50509291906020018051906020019092919080519060200190929190805190602001909291905050508173ffffffffffffffffffffffffffffffffffffffff166368db65a46040518163ffffffff167c010000000000000000000000000000000000000000000000000000000002815260040160206040518083038186803b1580156200019557600080fd5b505afa158015620001aa573d6000803e3d6000fd5b505050506040513d6020811015620001c157600080fd5b810190808051906020019092919050505073ffffffffffffffffffffffffffffffffffffffff166379a4fa27336040518263ffffffff167c0100000000000000000000000000000000000000000000000000000000028152600401808273ffffffffffffffffffffffffffffffffffffffff1673ffffffffffffffffffffffffffffffffffffffff16815260200191505060206040518083038186803b1580156200026b57600080fd5b505afa15801562000280573d6000803e3d6000fd5b505050506040513d60208110156200029757600080fd5b8101908080519060200190929190505050151562000343576040517f08c379a000000000000000000000000000000000000000000000000000000000815260040180806020018281038252603d8152602001807f617474656d7074656420746f206d616b65206f726465722066726f6d2061646481526020017f726573732074686174206973206e6f7420612072657374617572616e7400000081525060400191505060405180910390fd5b83518551141515620003e3576040517f08c379a00000000000000000000000000000000000000000000000000000000081526004018080602001828103825260238152602001807f696e76616c6964206d61746368696e67206f66206974656d7320746f2070726981526020017f636573000000000000000000000000000000000000000000000000000000000081525060400191505060405180910390fd5b8560038190555033600460026101000a81548173ffffffffffffffffffffffffffffffffffffffff021916908373ffffffffffffffffffffffffffffffffffffffff16021790555080600660006101000a81548173ffffffffffffffffffffffffffffffffffffffff021916908373ffffffffffffffffffffffffffffffffffffffff16021790555081600760006101000a81548173ffffffffffffffffffffffffffffffffffffffff021916908373ffffffffffffffffffffffffffffffffffffffff16021790555060006009819055506000600b8190555060008090505b85518110156200069c57604080519081016040528073__lib___________________________________639201de5589858151811015156200050157fe5b906020019060200201516040518263ffffffff167c01000000000000000000000000000000000000000000000000000000000281526004018082815260200191505060006040518083038186803b1580156200055c57600080fd5b505af415801562000571573d6000803e3d6000fd5b505050506040513d6000823e3d601f19601f8201168201806040525060208110156200059c57600080fd5b810190808051640100000000811115620005b557600080fd5b82810190506020810184811115620005cc57600080fd5b8151856001820283011164010000000082111715620005ea57600080fd5b5050929190505050815260200186838151811015156200060657fe5b90602001906020020151815250600c6000600b54815260200190815260200160002060008201518160000190805190602001906200064692919062000af4565b506020820151816001015590505084818151811015156200066357fe5b90602001906020020151600960008282540192505081905550600b600081548092919060010191905055508080600101915050620004c3565b5082600a81905550600a546009540134101573__lib___________________________________63ff74927b620006ed600a5460095401620009906401000000000262001284176401000000009004565b6040518263ffffffff167c01000000000000000000000000000000000000000000000000000000000281526004018080602001806020018381038352602c8152602001807f6e6f7420656e6f7567682065746865722073656e7420746f20746865206f726481526020017f65722c206e65656465643a200000000000000000000000000000000000000000815250604001838103825284818151815260200191508051906020019080838360005b83811015620007b85780820151818401526020810190506200079b565b50505050905090810190601f168015620007e65780820380516001836020036101000a031916815260200191505b50935050505060006040518083038186803b1580156200080557600080fd5b505af41580156200081a573d6000803e3d6000fd5b505050506040513d6000823e3d601f19601f8201168201806040525060208110156200084557600080fd5b8101908080516401000000008111156200085e57600080fd5b828101905060208101848111156200087557600080fd5b81518560018202830111640100000000821117156200089357600080fd5b505092919050505090151562000947576040517f08c379a00000000000000000000000000000000000000000000000000000000081526004018080602001828103825283818151815260200191508051906020019080838360005b838110156200090b578082015181840152602081019050620008ee565b50505050905090810190601f168015620009395780820380516001836020036101000a031916815260200191505b509250505060405180910390fd5b50600160028111156200095657fe5b600281905550600060038111156200096a57fe5b600081905550600060038111156200097e57fe5b60018190555050505050505062000ba3565b60606000821415620009da576040805190810160405280600181526020017f3000000000000000000000000000000000000000000000000000000000000000815250905062000aef565b600082905060005b60008214151562000a0b578080600101915050600a8281151562000a0257fe5b049150620009e2565b6060816040519080825280601f01601f19166020018201604052801562000a415781602001600182028038833980820191505090505b50905060006001830390505b60008614151562000ae757600a8681151562000a6557fe5b066030017f01000000000000000000000000000000000000000000000000000000000000000282828060019003935081518110151562000aa157fe5b9060200101907effffffffffffffffffffffffffffffffffffffffffffffffffffffffffffff1916908160001a905350600a8681151562000ade57fe5b04955062000a4d565b819450505050505b919050565b828054600181600116156101000203166002900490600052602060002090601f016020900481019282601f1062000b3757805160ff191683800117855562000b68565b8280016001018555821562000b68579182015b8281111562000b6757825182559160200191906001019062000b4a565b5b50905062000b77919062000b7b565b5090565b62000ba091905b8082111562000b9c57600081600090555060010162000b82565b5090565b90565b6114098062000bb36000396000f3fe6080604052600436106100db576000357c0100000000000000000000000000000000000000000000000000000000900463ffffffff16806312065fe0146100e05780632799276d1461010b5780633129e77314610136578063329408161461018c5780633733d9f5146101b75780633e3ca4d3146101e257806353c0a0061461020d578063a14b7e6814610264578063af640d0f1461028f578063bd3e19d4146102ba578063bfb231d2146102e5578063c7529f0c146103a0578063e9132c42146103aa578063ed168058146103d8578063f3cc0f1f1461042f575b600080fd5b3480156100ec57600080fd5b506100f561045a565b6040518082815260200191505060405180910390f35b34801561011757600080fd5b50610120610479565b6040518082815260200191505060405180910390f35b34801561014257600080fd5b5061016f6004803603602081101561015957600080fd5b810190808035906020019092919050505061047f565b604051808381526020018281526020019250505060405180910390f35b34801561019857600080fd5b506101a16105df565b6040518082815260200191505060405180910390f35b3480156101c357600080fd5b506101cc6105e5565b6040518082815260200191505060405180910390f35b3480156101ee57600080fd5b506101f76106fb565b6040518082815260200191505060405180910390f35b34801561021957600080fd5b50610222610701565b604051808273ffffffffffffffffffffffffffffffffffffffff1673ffffffffffffffffffffffffffffffffffffffff16815260200191505060405180910390f35b34801561027057600080fd5b50610279610727565b6040518082815260200191505060405180910390f35b34801561029b57600080fd5b506102a461072d565b6040518082815260200191505060405180910390f35b3480156102c657600080fd5b506102cf610733565b6040518082815260200191505060405180910390f35b3480156102f157600080fd5b5061031e6004803603602081101561030857600080fd5b810190808035906020019092919050505061073d565b6040518080602001838152602001828103825284818151815260200191508051906020019080838360005b83811015610364578082015181840152602081019050610349565b50505050905090810190601f1680156103915780820380516001836020036101000a031916815260200191505b50935050505060405180910390f35b6103a86107f9565b005b6103d6600480360360208110156103c057600080fd5b81019080803590602001909291905050506109fd565b005b3480156103e457600080fd5b506103ed611258565b604051808273ffffffffffffffffffffffffffffffffffffffff1673ffffffffffffffffffffffffffffffffffffffff16815260200191505060405180910390f35b34801561043b57600080fd5b5061044461127e565b6040518082815260200191505060405180910390f35b60003073ffffffffffffffffffffffffffffffffffffffff1631905090565b600b5481565b60008073__lib___________________________________63cfb51928600c60008681526020019081526020016000206000016040518263ffffffff167c010000000000000000000000000000000000000000000000000000000002815260040180806020018281038252838181546001816001161561010002031660029004815260200191508054600181600116156101000203166002900480156105665780601f1061053b57610100808354040283529160200191610566565b820191906000526020600020905b81548152906001019060200180831161054957829003601f168201915b50509250505060206040518083038186803b15801561058457600080fd5b505af4158015610598573d6000803e3d6000fd5b505050506040513d60208110156105ae57600080fd5b8101908080519060200190929190505050600c60008581526020019081526020016000206001015491509150915091565b60015481565b60003373ffffffffffffffffffffffffffffffffffffffff16600660009054906101000a900473ffffffffffffffffffffffffffffffffffffffff1673ffffffffffffffffffffffffffffffffffffffff16148061069057503373ffffffffffffffffffffffffffffffffffffffff16600460029054906101000a900473ffffffffffffffffffffffffffffffffffffffff1673ffffffffffffffffffffffffffffffffffffffff16145b806106e857503373ffffffffffffffffffffffffffffffffffffffff16600560009054906101000a900473ffffffffffffffffffffffffffffffffffffffff1673ffffffffffffffffffffffffffffffffffffffff16145b15156106f357600080fd5b600854905090565b60005481565b600560009054906101000a900473ffffffffffffffffffffffffffffffffffffffff1681565b60025481565b60035481565b6000600954905090565b600c602052806000526040600020600091509050806000018054600181600116156101000203166002900480601f0160208091040260200160405190810160405280929190818152602001828054600181600116156101000203166002900480156107e95780601f106107be576101008083540402835291602001916107e9565b820191906000526020600020905b8154815290600101906020018083116107cc57829003601f168201915b5050505050908060010154905082565b600760009054906101000a900473ffffffffffffffffffffffffffffffffffffffff1673ffffffffffffffffffffffffffffffffffffffff1663c9286d576040518163ffffffff167c010000000000000000000000000000000000000000000000000000000002815260040160206040518083038186803b15801561087d57600080fd5b505afa158015610891573d6000803e3d6000fd5b505050506040513d60208110156108a757600080fd5b810190808051906020019092919050505073ffffffffffffffffffffffffffffffffffffffff166313952670336040518263ffffffff167c0100000000000000000000000000000000000000000000000000000000028152600401808273ffffffffffffffffffffffffffffffffffffffff1673ffffffffffffffffffffffffffffffffffffffff16815260200191505060206040518083038186803b15801561095057600080fd5b505afa158015610964573d6000803e3d6000fd5b505050506040513d602081101561097a57600080fd5b8101908080519060200190929190505050151561099657600080fd5b60095434101515156109a757600080fd5b600160038111156109b457fe5b60008190555033600560006101000a81548173ffffffffffffffffffffffffffffffffffffffff021916908373ffffffffffffffffffffffffffffffffffffffff160217905550565b600560009054906101000a900473ffffffffffffffffffffffffffffffffffffffff1673ffffffffffffffffffffffffffffffffffffffff163373ffffffffffffffffffffffffffffffffffffffff161480610aa65750600460029054906101000a900473ffffffffffffffffffffffffffffffffffffffff1673ffffffffffffffffffffffffffffffffffffffff163373ffffffffffffffffffffffffffffffffffffffff16145b80610afe5750600660009054906101000a900473ffffffffffffffffffffffffffffffffffffffff1673ffffffffffffffffffffffffffffffffffffffff163373ffffffffffffffffffffffffffffffffffffffff16145b1515610bbe576040517f08c379a00000000000000000000000000000000000000000000000000000000081526004018080602001828103825260508152602001807f596f7520646f6e742068617665207065726d697373696f6e20746f207365652081526020017f74686973206f726465722c2064696420796f752067657420746865206f72646581526020017f7220616464726573732077726f6e673f0000000000000000000000000000000081525060600191505060405180910390fd5b600560009054906101000a900473ffffffffffffffffffffffffffffffffffffffff1673ffffffffffffffffffffffffffffffffffffffff163373ffffffffffffffffffffffffffffffffffffffff161415610d1e5760005481111515610c8d576040517f08c379a000000000000000000000000000000000000000000000000000000000815260040180806020018281038252601c8152602001807f7374617475732063616e6e6f74206265206261636b747261636b65640000000081525060200191505060405180910390fd5b60038111158015610c9e5750600081115b1515610d12576040517f08c379a00000000000000000000000000000000000000000000000000000000081526004018080602001828103825260168152602001807f676976656e20537461747573206e6f742076616c69640000000000000000000081525060200191505060405180910390fd5b80600081905550611074565b600460029054906101000a900473ffffffffffffffffffffffffffffffffffffffff1673ffffffffffffffffffffffffffffffffffffffff163373ffffffffffffffffffffffffffffffffffffffff161415610e7e5760015481111515610ded576040517f08c379a000000000000000000000000000000000000000000000000000000000815260040180806020018281038252601c8152602001807f7374617475732063616e6e6f74206265206261636b747261636b65640000000081525060200191505060405180910390fd5b60038111158015610dfe5750600081115b1515610e72576040517f08c379a00000000000000000000000000000000000000000000000000000000081526004018080602001828103825260168152602001807f676976656e20537461747573206e6f742076616c69640000000000000000000081525060200191505060405180910390fd5b80600181905550611073565b600660009054906101000a900473ffffffffffffffffffffffffffffffffffffffff1673ffffffffffffffffffffffffffffffffffffffff163373ffffffffffffffffffffffffffffffffffffffff161415610fde5760025481111515610f4d576040517f08c379a000000000000000000000000000000000000000000000000000000000815260040180806020018281038252601c8152602001807f7374617475732063616e6e6f74206265206261636b747261636b65640000000081525060200191505060405180910390fd5b60028111158015610f5e5750600081115b1515610fd2576040517f08c379a00000000000000000000000000000000000000000000000000000000081526004018080602001828103825260168152602001807f676976656e20537461747573206e6f742076616c69640000000000000000000081525060200191505060405180910390fd5b80600281905550611072565b6040517f08c379a00000000000000000000000000000000000000000000000000000000081526004018080602001828103825260358152602001807f4572726f723a20756e617574686f72697365726420616464726573732061636381526020017f657373696e67207365744f72646572537461747573000000000000000000000081525060400191505060405180910390fd5b5b5b600460009054906101000a900460ff1615801561109357506002600054145b80156110a157506003600154145b1561116357600460029054906101000a900473ffffffffffffffffffffffffffffffffffffffff1673ffffffffffffffffffffffffffffffffffffffff16631b9265b86009546040518263ffffffff167c01000000000000000000000000000000000000000000000000000000000281526004016000604051808303818588803b15801561112e57600080fd5b505af1158015611142573d6000803e3d6000fd5b50505050506001600460006101000a81548160ff0219169083151502179055505b600460019054906101000a900460ff1615801561118257506003600054145b801561118f575060028054145b1561125557600560009054906101000a900473ffffffffffffffffffffffffffffffffffffffff1673ffffffffffffffffffffffffffffffffffffffff16631b9265b8600a54600954016040518263ffffffff167c01000000000000000000000000000000000000000000000000000000000281526004016000604051808303818588803b15801561122057600080fd5b505af1158015611234573d6000803e3d6000fd5b50505050506001600460016101000a81548160ff0219169083151502179055505b50565b600460029054906101000a900473ffffffffffffffffffffffffffffffffffffffff1681565b600a5481565b606060008214156112cc576040805190810160405280600181526020017f300000000000000000000000000000000000000000000000000000000000000081525090506113d8565b600082905060005b6000821415156112fa578080600101915050600a828115156112f257fe5b0491506112d4565b6060816040519080825280601f01601f19166020018201604052801561132f5781602001600182028038833980820191505090505b50905060006001830390505b6000861415156113d057600a8681151561135157fe5b066030017f01000000000000000000000000000000000000000000000000000000000000000282828060019003935081518110151561138c57fe5b9060200101907effffffffffffffffffffffffffffffffffffffffffffffffffffffffffffff1916908160001a905350600a868115156113c857fe5b04955061133b565b819450505050505b91905056fea165627a7a723058203939c192cca8cb859130cebe69dcfdbbf48d22cc302c31678e46bc681a907b600029a165627a7a7230582092a6f8523d38bbee56b0085458f93dd92ec4b2fc25e61550691af09301f5b9eb0029",
  "source": "pragma solidity ^0.5.0;\n\n import \"./lib.sol\";\n import \"./Order.sol\";\n import \"./RestaurantFactory.sol\";\n import \"./CustomerFactory.sol\";\n import \"./Controller.sol\";\n\ncontract Restaurant {\n\n    using lib for bytes32;\n\n\tuint public id;\n\tstring public name;\n\tstring public location;\n\tstring public contactNumber;\n\tuint public rating;\n\n\taddress payable public owner;\n    address public controllerAddress;\n\taddress public restaurantFactoryAddress;\n\n\n    struct order{bool open; address orderAddress;}\n\tuint public totalOrders;\n\tmapping(uint => order) public orders; // must be a better way to store the orders\n\n    uint totalPay;\n\t\n\tstruct Item{\n\t\tbytes32 itemName;\n\t\tuint itemCost; // in wei (10^-18 Eth)\n\t}\n\t\n    uint public menuLength;\n\tmapping(uint => Item) public menu; // should probably change this to a mapping\n\n    enum restaurantState{acceptedOrder, preparingCargo, readyForCollection, HandedOver}\n\t\n\n\tconstructor(address _controller, address payable _owner, uint _id, string memory _name,string memory _address,string memory _contactNumber) public {\n\t\tid = _id;\n\t\tname = _name;\n\t\tlocation = _address;\n\t\tcontactNumber = _contactNumber;\n\t\ttotalOrders = 0;\n        totalPay = 0;\n\n        controllerAddress = _controller;\n\t\towner = _owner;\n\t\trestaurantFactoryAddress = msg.sender;\n\t}\n\n    // ToDo Remove this\n    function getMenuLength() external view returns(uint length){\n        return menuLength;\n    }\n\n    // todo redo this \n    // function clearMenu() external {\n    //     require(msg.sender == owner);\n    //     delete menu;\n    // }\n    \n\n    function menuAddItems(bytes32[] calldata itemNames, uint[] calldata prices) external {\n        require(msg.sender == owner);\n        require(itemNames.length == prices.length);\n        \n        // should add checks that an item isn't added twice\n        for(uint i = 0; i<itemNames.length;i++){\n            menu[menuLength] = Item(itemNames[i],prices[i]);\n            menuLength++;\n        }\n    }\n\n    \n    \n    function menuRemoveItems(uint[] calldata itemIds) external{\n        require(msg.sender == owner);\n        require(itemIds.length>0);\n\n        uint totalItemsToKeep = menuLength - uint(itemIds.length);\n\n        uint[] memory itemsToKeep = new uint[](totalItemsToKeep);\n        uint counter = 0;\n        for(uint i = 0; i<menuLength;i++){\n            bool idUndeleted = true;\n            for(uint j = 0; j < itemIds.length; j++){\n                if(i == itemIds[j]){\n                    idUndeleted = false;\n                }\n            }\n            if(idUndeleted){\n                itemsToKeep[counter] = i;\n                counter++;\n            }\n        }\n\n        for(uint i = 0; i < itemsToKeep.length; i++){\n            menu[i] = menu[itemsToKeep[i]];\n        }\n        menuLength = itemsToKeep.length;\n    }\n    \n    function menuSearch(string memory query) private view returns(int index){\n        for(uint i = 0; i<menuLength;i++){\n            if(lib.compareStrings(lib.bytes32ToString(menu[i].itemName),query)){\n                return int(i);\n            }\n        }\n        return -1;\n    }\n\n    function getOrderPrice(uint[] memory itemIds) public view returns (uint){\n        uint price = 0;\n        for(uint i = 0; i < itemIds.length; i++){\n            price += menu[itemIds[i]].itemCost;\n        }\n        return price;\n    }\n    \n\n    function makeOrder(uint[] calldata itemIds, uint deliveryFee) external payable returns (address orderAddress) {\n        //require this comes from a customer smart contract, maybe worth moving this to the order smart contract\n        require(CustomerFactory(Controller(controllerAddress).customerFactoryAddress()).customerExists(msg.sender), \"Customer doesnt exist\");\n\n        uint[] memory prices = new uint[](itemIds.length);\n        bytes32[] memory items = new bytes32[](itemIds.length);\n        for(uint i = 0; i < itemIds.length; i++)\n        {\n            if (itemIds[i] >= 0 && itemIds[i] < menuLength){\n                // could consider sending itemID and price to reduce gas cost\n                items[i] = menu[uint(itemIds[i])].itemName; \n                prices[i] = menu[uint(itemIds[i])].itemCost;\n            }\n            else{\n                revert(\"Invalid Items\");\n            }\n        }\n        \n\t\tOrder newOrder = (new Order).value(msg.value)(totalOrders,items,prices,deliveryFee,controllerAddress, msg.sender);\n\t\torders[totalOrders] = order(true,address(newOrder));\n        totalOrders ++;\n\t\treturn orders[totalOrders - 1].orderAddress;       \n    }\n    \n    function getMenuItem(uint itemId)public view returns(bytes32 itemname, uint cost){\n        return (menu[itemId].itemName,menu[itemId].itemCost);\n    }\n\n    function setStatus(uint orderID, uint status) public{\n        require(msg.sender == owner);\n        Order(orders[orderID].orderAddress).setOrderStatus(status);\n    }\n\n    function pay() external payable {\n        totalPay += msg.value;\n        owner.transfer(msg.value);\n    } \n\n    function() external payable {\n\n    }\n}",
  "sourcePath": "/home/george/Documents/University/Dissertation/TryAByte/contracts/Restaurant.sol",
  "compiler": {
    "name": "solc",
    "version": "0.5.0+commit.1d4f565a.Emscripten.clang"
  },
  "schemaVersion": "3.0.2",
  "updatedAt": "2019-04-01T10:18:03.292Z",
  "devdoc": {
    "methods": {}
  },
  "userdoc": {
    "methods": {}
  }
}