{
  "contractName": "Restaurant",
  "abi": [
    {
      "constant": true,
      "inputs": [],
      "name": "name",
      "outputs": [
        {
          "name": "",
          "type": "string"
        }
      ],
      "payable": false,
      "stateMutability": "view",
      "type": "function",
      "signature": "0x06fdde03"
    },
    {
      "constant": true,
      "inputs": [],
      "name": "totalOrders",
      "outputs": [
        {
          "name": "",
          "type": "uint256"
        }
      ],
      "payable": false,
      "stateMutability": "view",
      "type": "function",
      "signature": "0x1d834409"
    },
    {
      "constant": true,
      "inputs": [],
      "name": "menuLength",
      "outputs": [
        {
          "name": "",
          "type": "uint256"
        }
      ],
      "payable": false,
      "stateMutability": "view",
      "type": "function",
      "signature": "0x3d939a49"
    },
    {
      "constant": true,
      "inputs": [],
      "name": "controllerAddress",
      "outputs": [
        {
          "name": "",
          "type": "address"
        }
      ],
      "payable": false,
      "stateMutability": "view",
      "type": "function",
      "signature": "0x4b24ea47"
    },
    {
      "constant": true,
      "inputs": [],
      "name": "location",
      "outputs": [
        {
          "name": "",
          "type": "string"
        }
      ],
      "payable": false,
      "stateMutability": "view",
      "type": "function",
      "signature": "0x516f279e"
    },
    {
      "constant": true,
      "inputs": [],
      "name": "restaurantFactoryAddress",
      "outputs": [
        {
          "name": "",
          "type": "address"
        }
      ],
      "payable": false,
      "stateMutability": "view",
      "type": "function",
      "signature": "0x68db65a4"
    },
    {
      "constant": true,
      "inputs": [],
      "name": "contactNumber",
      "outputs": [
        {
          "name": "",
          "type": "string"
        }
      ],
      "payable": false,
      "stateMutability": "view",
      "type": "function",
      "signature": "0x76af633c"
    },
    {
      "constant": true,
      "inputs": [],
      "name": "rating",
      "outputs": [
        {
          "name": "",
          "type": "uint256"
        }
      ],
      "payable": false,
      "stateMutability": "view",
      "type": "function",
      "signature": "0x80f474f6"
    },
    {
      "constant": true,
      "inputs": [],
      "name": "owner",
      "outputs": [
        {
          "name": "",
          "type": "address"
        }
      ],
      "payable": false,
      "stateMutability": "view",
      "type": "function",
      "signature": "0x8da5cb5b"
    },
    {
      "constant": true,
      "inputs": [
        {
          "name": "",
          "type": "uint256"
        }
      ],
      "name": "orders",
      "outputs": [
        {
          "name": "open",
          "type": "bool"
        },
        {
          "name": "orderAddress",
          "type": "address"
        }
      ],
      "payable": false,
      "stateMutability": "view",
      "type": "function",
      "signature": "0xa85c38ef"
    },
    {
      "constant": true,
      "inputs": [],
      "name": "id",
      "outputs": [
        {
          "name": "",
          "type": "uint256"
        }
      ],
      "payable": false,
      "stateMutability": "view",
      "type": "function",
      "signature": "0xaf640d0f"
    },
    {
      "constant": true,
      "inputs": [
        {
          "name": "",
          "type": "uint256"
        }
      ],
      "name": "menu",
      "outputs": [
        {
          "name": "itemName",
          "type": "bytes32"
        },
        {
          "name": "itemCost",
          "type": "uint256"
        }
      ],
      "payable": false,
      "stateMutability": "view",
      "type": "function",
      "signature": "0xcffb703c"
    },
    {
      "inputs": [
        {
          "name": "_controller",
          "type": "address"
        },
        {
          "name": "_owner",
          "type": "address"
        },
        {
          "name": "_id",
          "type": "uint256"
        },
        {
          "name": "_name",
          "type": "string"
        },
        {
          "name": "_address",
          "type": "string"
        },
        {
          "name": "_contactNumber",
          "type": "string"
        }
      ],
      "payable": false,
      "stateMutability": "nonpayable",
      "type": "constructor"
    },
    {
      "payable": true,
      "stateMutability": "payable",
      "type": "fallback"
    },
    {
      "anonymous": false,
      "inputs": [
        {
          "indexed": false,
          "name": "orderAddress",
          "type": "address"
        }
      ],
      "name": "OrderMadeEvent",
      "type": "event",
      "signature": "0x6ad6ccf0214624cc1ab014b24a7601698f45e6a0d07edcbab143606784ed78fb"
    },
    {
      "anonymous": false,
      "inputs": [],
      "name": "MenuUpdated",
      "type": "event",
      "signature": "0x6706c873484487b2b1bb6c385a03896b4a5a6f9069aef613842f6529410ae09f"
    },
    {
      "constant": true,
      "inputs": [],
      "name": "getMenuLength",
      "outputs": [
        {
          "name": "length",
          "type": "uint256"
        }
      ],
      "payable": false,
      "stateMutability": "view",
      "type": "function",
      "signature": "0x125ba977"
    },
    {
      "constant": false,
      "inputs": [
        {
          "name": "itemNames",
          "type": "bytes32[]"
        },
        {
          "name": "prices",
          "type": "uint256[]"
        }
      ],
      "name": "menuAddItems",
      "outputs": [],
      "payable": false,
      "stateMutability": "nonpayable",
      "type": "function",
      "signature": "0x3e92c468"
    },
    {
      "constant": false,
      "inputs": [
        {
          "name": "itemIds",
          "type": "uint256[]"
        }
      ],
      "name": "menuRemoveItems",
      "outputs": [],
      "payable": false,
      "stateMutability": "nonpayable",
      "type": "function",
      "signature": "0x21be5e4e"
    },
    {
      "constant": true,
      "inputs": [
        {
          "name": "itemIds",
          "type": "uint256[]"
        }
      ],
      "name": "getOrderPrice",
      "outputs": [
        {
          "name": "",
          "type": "uint256"
        }
      ],
      "payable": false,
      "stateMutability": "view",
      "type": "function",
      "signature": "0x66e1dfa3"
    },
    {
      "constant": false,
      "inputs": [
        {
          "name": "itemIds",
          "type": "uint256[]"
        },
        {
          "name": "deliveryFee",
          "type": "uint256"
        },
        {
          "name": "deliveryAddress",
          "type": "bytes"
        },
        {
          "name": "riderKeyHash",
          "type": "bytes32"
        }
      ],
      "name": "makeOrder",
      "outputs": [
        {
          "name": "orderAddress",
          "type": "address"
        }
      ],
      "payable": true,
      "stateMutability": "payable",
      "type": "function",
      "signature": "0xd3a59ad3"
    },
    {
      "constant": true,
      "inputs": [
        {
          "name": "itemId",
          "type": "uint256"
        }
      ],
      "name": "getMenuItem",
      "outputs": [
        {
          "name": "itemname",
          "type": "bytes32"
        },
        {
          "name": "cost",
          "type": "uint256"
        }
      ],
      "payable": false,
      "stateMutability": "view",
      "type": "function",
      "signature": "0xf943eecd"
    },
    {
      "constant": false,
      "inputs": [
        {
          "name": "orderID",
          "type": "uint256"
        },
        {
          "name": "status",
          "type": "uint256"
        }
      ],
      "name": "setStatus",
      "outputs": [],
      "payable": false,
      "stateMutability": "nonpayable",
      "type": "function",
      "signature": "0x82e40813"
    },
    {
      "constant": false,
      "inputs": [],
      "name": "pay",
      "outputs": [],
      "payable": true,
      "stateMutability": "payable",
      "type": "function",
      "signature": "0x1b9265b8"
    }
  ],
  "bytecode": "0x60806040523480156200001157600080fd5b506040516200273838038062002738833981018060405260c08110156200003757600080fd5b81516020830151604084015160608501805193959294919391830192916401000000008111156200006757600080fd5b820160208101848111156200007b57600080fd5b81516401000000008111828201871017156200009657600080fd5b50509291906020018051640100000000811115620000b357600080fd5b82016020810184811115620000c757600080fd5b8151640100000000811182820187101715620000e257600080fd5b50509291906020018051640100000000811115620000ff57600080fd5b820160208101848111156200011357600080fd5b81516401000000008111828201871017156200012e57600080fd5b5050600087905585519093506200014f9250600191506020860190620001cc565b50815162000165906002906020850190620001cc565b5080516200017b906003906020840190620001cc565b505060006008819055600a55505060068054600160a060020a03948516600160a060020a03199182161790915560058054939094169281169290921790925560078054909116331790555062000271565b828054600181600116156101000203166002900490600052602060002090601f016020900481019282601f106200020f57805160ff19168380011785556200023f565b828001600101855582156200023f579182015b828111156200023f57825182559160200191906001019062000222565b506200024d92915062000251565b5090565b6200026e91905b808211156200024d576000815560010162000258565b90565b6124b780620002816000396000f3fe608060405260043610620001265763ffffffff7c010000000000000000000000000000000000000000000000000000000060003504166306fdde03811462000128578063125ba97714620001b85780631b9265b814620001e25780631d83440914620001ec57806321be5e4e14620002045780633d939a4914620002885780633e92c46814620002a05780634b24ea471462000379578063516f279e14620003ad57806366e1dfa314620003c557806368db65a4146200047c57806376af633c146200049457806380f474f614620004ac57806382e4081314620004c45780638da5cb5b14620004f8578063a85c38ef1462000510578063af640d0f1462000561578063cffb703c1462000579578063d3a59ad314620005c0578063f943eecd146200068f575b005b3480156200013557600080fd5b5062000140620006bd565b6040805160208082528351818301528351919283929083019185019080838360005b838110156200017c57818101518382015260200162000162565b50505050905090810190601f168015620001aa5780820380516001836020036101000a031916815260200191505b509250505060405180910390f35b348015620001c557600080fd5b50620001d06200074e565b60408051918252519081900360200190f35b6200012662000754565b348015620001f957600080fd5b50620001d06200079b565b3480156200021157600080fd5b5062000126600480360360208110156200022a57600080fd5b8101906020810181356401000000008111156200024657600080fd5b8201836020820111156200025957600080fd5b803590602001918460208302840111640100000000831117156200027c57600080fd5b509092509050620007a1565b3480156200029557600080fd5b50620001d06200090c565b348015620002ad57600080fd5b506200012660048036036040811015620002c657600080fd5b810190602081018135640100000000811115620002e257600080fd5b820183602082011115620002f557600080fd5b803590602001918460208302840111640100000000831117156200031857600080fd5b9193909290916020810190356401000000008111156200033757600080fd5b8201836020820111156200034a57600080fd5b803590602001918460208302840111640100000000831117156200036d57600080fd5b50909250905062000912565b3480156200038657600080fd5b5062000391620009e1565b60408051600160a060020a039092168252519081900360200190f35b348015620003ba57600080fd5b5062000140620009f0565b348015620003d257600080fd5b50620001d060048036036020811015620003eb57600080fd5b8101906020810181356401000000008111156200040757600080fd5b8201836020820111156200041a57600080fd5b803590602001918460208302840111640100000000831117156200043d57600080fd5b91908080602002602001604051908101604052809392919081815260200183836020028082843760009201919091525092955062000a4b945050505050565b3480156200048957600080fd5b506200039162000aa2565b348015620004a157600080fd5b506200014062000ab1565b348015620004b957600080fd5b50620001d062000b0f565b348015620004d157600080fd5b506200012660048036036040811015620004ea57600080fd5b508035906020013562000b15565b3480156200050557600080fd5b506200039162000bbb565b3480156200051d57600080fd5b506200053e600480360360208110156200053657600080fd5b503562000bca565b604080519215158352600160a060020a0390911660208301528051918290030190f35b3480156200056e57600080fd5b50620001d062000bef565b3480156200058657600080fd5b50620005a7600480360360208110156200059f57600080fd5b503562000bf5565b6040805192835260208301919091528051918290030190f35b6200039160048036036080811015620005d857600080fd5b810190602081018135640100000000811115620005f457600080fd5b8201836020820111156200060757600080fd5b803590602001918460208302840111640100000000831117156200062a57600080fd5b919390928235926040810190602001356401000000008111156200064d57600080fd5b8201836020820111156200066057600080fd5b803590602001918460018302840111640100000000831117156200068357600080fd5b91935091503562000c0e565b3480156200069c57600080fd5b50620005a760048036036020811015620006b557600080fd5b50356200115c565b60018054604080516020600284861615610100026000190190941693909304601f81018490048402820184019092528181529291830182828015620007465780601f106200071a5761010080835404028352916020019162000746565b820191906000526020600020905b8154815290600101906020018083116200072857829003601f168201915b505050505081565b600b5490565b600a805434908101909155600554604051600160a060020a039091169180156108fc02916000818181858888f1935050505015801562000798573d6000803e3d6000fd5b50565b60085481565b600554600160a060020a03163314620007b957600080fd5b60008111620007c757600080fd5b600b546040805191839003808352602080820284010190915290606090828015620007fc578160200160208202803883390190505b5090506000805b600b548110156200087957600160005b8681101562000846578787828181106200082957fe5b905060200201358314156200083d57600091505b60010162000813565b5080156200086f578184848151811015156200085e57fe5b602090810290910101526001909201915b5060010162000803565b5060005b8251811015620008d657600c600084838151811015156200089a57fe5b602090810290910181015182528181019290925260409081016000908120848252600c909352208154815560019182015490820155016200087d565b508151600b556040517f6706c873484487b2b1bb6c385a03896b4a5a6f9069aef613842f6529410ae09f90600090a15050505050565b600b5481565b600554600160a060020a031633146200092a57600080fd5b8281146200093757600080fd5b60005b83811015620009b15760408051808201909152808686848181106200095b57fe5b90506020020135815260200184848481811015156200097657fe5b60209081029290920135909252600b80546000908152600c83526040902084518155939091015160019384015580548301905550016200093a565b506040517f6706c873484487b2b1bb6c385a03896b4a5a6f9069aef613842f6529410ae09f90600090a150505050565b600654600160a060020a031681565b6002805460408051602060018416156101000260001901909316849004601f81018490048402820184019092528181529291830182828015620007465780601f106200071a5761010080835404028352916020019162000746565b600080805b835181101562000a9b57600c6000858381518110151562000a6d57fe5b9060200190602002015181526020019081526020016000206001015482019150808060010191505062000a50565b5092915050565b600754600160a060020a031681565b6003805460408051602060026001851615610100026000190190941693909304601f81018490048402820184019092528181529291830182828015620007465780601f106200071a5761010080835404028352916020019162000746565b60045481565b600554600160a060020a0316331462000b2d57600080fd5b6000828152600960205260408082205481517fe9132c42000000000000000000000000000000000000000000000000000000008152600481018590529151610100909104600160a060020a03169263e9132c42926024808201939182900301818387803b15801562000b9e57600080fd5b505af115801562000bb3573d6000803e3d6000fd5b505050505050565b600554600160a060020a031681565b60096020526000908152604090205460ff8116906101009004600160a060020a031682565b60005481565b600c602052600090815260409020805460019091015482565b600654604080517f6455e5ac0000000000000000000000000000000000000000000000000000000081529051600092600160a060020a031691636455e5ac916004808301926020929190829003018186803b15801562000c6d57600080fd5b505afa15801562000c82573d6000803e3d6000fd5b505050506040513d602081101562000c9957600080fd5b5051604080517f689b00980000000000000000000000000000000000000000000000000000000081523360048201529051600160a060020a039092169163689b009891602480820192602092909190829003018186803b15801562000cfd57600080fd5b505afa15801562000d12573d6000803e3d6000fd5b505050506040513d602081101562000d2957600080fd5b5051151562000d9957604080517f08c379a000000000000000000000000000000000000000000000000000000000815260206004820152601560248201527f437573746f6d657220646f65736e742065786973740000000000000000000000604482015290519081900360640190fd5b60408051878152602080890282010190915260609087801562000dc6578160200160208202803883390190505b50905060608888905060405190808252806020026020018201604052801562000df9578160200160208202803883390190505b50905060005b8881101562000f435760008a8a8381811062000e1757fe5b905060200201351015801562000e415750600b548a8a8381811062000e3857fe5b90506020020135105b1562000ed357600c60008b8b8481811062000e5857fe5b90506020020135815260200190815260200160002060000154828281518110151562000e8057fe5b60209081029091010152600c60008b8b8481811062000e9b57fe5b90506020020135815260200190815260200160002060010154838281518110151562000ec357fe5b6020908102909101015262000f3a565b604080517f08c379a000000000000000000000000000000000000000000000000000000000815260206004820152600d60248201527f496e76616c6964204974656d7300000000000000000000000000000000000000604482015290519081900360640190fd5b60010162000dff565b5060003460085483858b8b8b600660009054906101000a9004600160a060020a0316338d62000f7162001176565b89815260608101879052600160a060020a0380851660a0830152831660c082015260e0810182905261010060208083018281528b51928401929092528a51604084019160808501916101208601918e8101910280838360005b8381101562000fe457818101518382015260200162000fca565b5050505090500184810383528b818151815260200191508051906020019060200280838360005b83811015620010255781810151838201526020016200100b565b505050509050018481038252898982818152602001925080828437600083820152604051601f909101601f19169092018290039e50909c508e9b505050505050505050505050f0801580156200107f573d6000803e3d6000fd5b506040805180820182526001808252600160a060020a0384811660208085019182526008805460009081526009835287812096518754945160ff199095169015151774ffffffffffffffffffffffffffffffffffffffff001916610100948616850217909655805494850190559284529284902054845193900416825291519294507f6ad6ccf0214624cc1ab014b24a7601698f45e6a0d07edcbab143606784ed78fb93508290030190a15050600854600019016000908152600960205260409020546101009004600160a060020a031698975050505050505050565b6000908152600c6020526040902080546001909101549091565b60405161130480620011888339019056fe608060408190526004805461ffff19169055600d805460ff19908116909155600f80549091169055620013043881900390819083398101806040526101008110156200004a57600080fd5b8151602083018051919392830192916401000000008111156200006c57600080fd5b820160208101848111156200008057600080fd5b81518560208202830111640100000000821117156200009e57600080fd5b50509291906020018051640100000000811115620000bb57600080fd5b82016020810184811115620000cf57600080fd5b8151856020820283011164010000000082111715620000ed57600080fd5b505060208201516040909201805191949293916401000000008111156200011357600080fd5b820160208101848111156200012757600080fd5b81516401000000008111828201871017156200014257600080fd5b505060208083015160408085015160609095015181517f68db65a400000000000000000000000000000000000000000000000000000000815291519497509195509092600160a060020a038616926368db65a49260048082019391829003018186803b158015620001b257600080fd5b505afa158015620001c7573d6000803e3d6000fd5b505050506040513d6020811015620001de57600080fd5b5051604080517f79a4fa270000000000000000000000000000000000000000000000000000000081523360048201529051600160a060020a03909216916379a4fa2791602480820192602092909190829003018186803b1580156200024257600080fd5b505afa15801562000257573d6000803e3d6000fd5b505050506040513d60208110156200026e57600080fd5b505115156200030457604080517f08c379a000000000000000000000000000000000000000000000000000000000815260206004820152603d60248201527f617474656d7074656420746f206d616b65206f726465722066726f6d2061646460448201527f726573732074686174206973206e6f7420612072657374617572616e74000000606482015290519081900360840190fd5b85518751146200039b57604080517f08c379a000000000000000000000000000000000000000000000000000000000815260206004820152602360248201527f696e76616c6964206d61746368696e67206f66206974656d7320746f2070726960448201527f6365730000000000000000000000000000000000000000000000000000000000606482015290519081900360840190fd5b6003889055600480546201000060b060020a03191633620100000217905560068054600160a060020a031916600160a060020a0384161790558351620003e990600890602087019062000587565b504260095560078054600160a060020a031916600160a060020a0385161790556000600a81905560108190555b8751811015620004b857604080519081016040528089838151811015156200043a57fe5b90602001906020020151815260200188838151811015156200045857fe5b6020908102909101810151909152601054600090815260118252604090208251815591015160019091015586518790829081106200049257fe5b60209081029091010151600a805490910190556010805460019081019091550162000416565b50600b859055600a5485013410156200055857604080517f08c379a000000000000000000000000000000000000000000000000000000000815260206004820152602360248201527f6e6f7420656e6f7567682065746865722073656e7420746f20746865206f726460448201527f6572200000000000000000000000000000000000000000000000000000000000606482015290519081900360840190fd5b6001600281905560008080558155600c91909155600d805460ff19169091179055506200062c95505050505050565b828054600181600116156101000203166002900490600052602060002090601f016020900481019282601f10620005ca57805160ff1916838001178555620005fa565b82800160010185558215620005fa579182015b82811115620005fa578251825591602001919060010190620005dd565b50620006089291506200060c565b5090565b6200062991905b8082111562000608576000815560010162000613565b90565b610cc8806200063c6000396000f3fe60806040526004361061012f5763ffffffff60e060020a60003504166312065fe081146101345780632799276d1461015b5780633129e7731461017057806332940816146101b35780633733d9f5146101c85780633cc94908146102525780633cf5040a146102675780633e3ca4d31461029157806340571abb146102a657806353c0a006146102cf578063646e077f146103005780637aada134146103155780639e8464f11461032a578063a14b7e6814610354578063af640d0f14610369578063bd3e19d41461037e578063bfb231d214610393578063d601e114146103bd578063d638e102146103d2578063db7575f0146103e7578063e9132c4214610411578063ed16805814610430578063f3cc0f1f14610445578063f90a92e31461045a578063fc6f78a014610477575b600080fd5b34801561014057600080fd5b5061014961048c565b60408051918252519081900360200190f35b34801561016757600080fd5b50610149610491565b34801561017c57600080fd5b5061019a6004803603602081101561019357600080fd5b5035610497565b6040805192835260208301919091528051918290030190f35b3480156101bf57600080fd5b506101496104b1565b3480156101d457600080fd5b506101dd6104b7565b6040805160208082528351818301528351919283929083019185019080838360005b838110156102175781810151838201526020016101ff565b50505050905090810190601f1680156102445780820380516001836020036101000a031916815260200191505b509250505060405180910390f35b34801561025e57600080fd5b50610149610593565b34801561027357600080fd5b506101496004803603602081101561028a57600080fd5b5035610599565b34801561029d57600080fd5b506101496105bd565b3480156102b257600080fd5b506102bb6105c3565b604080519115158252519081900360200190f35b3480156102db57600080fd5b506102e46105d1565b60408051600160a060020a039092168252519081900360200190f35b34801561030c57600080fd5b506102bb6105e0565b34801561032157600080fd5b506101496105e9565b34801561033657600080fd5b506102bb6004803603602081101561034d57600080fd5b50356105ef565b34801561036057600080fd5b506101496106cc565b34801561037557600080fd5b506101496106d2565b34801561038a57600080fd5b506101496106d8565b34801561039f57600080fd5b5061019a600480360360208110156103b657600080fd5b50356106de565b3480156103c957600080fd5b506102bb6106f7565b3480156103de57600080fd5b506102bb610700565b3480156103f357600080fd5b506102bb6004803603602081101561040a57600080fd5b5035610709565b61042e6004803603602081101561042757600080fd5b50356107e4565b005b34801561043c57600080fd5b506102e461095d565b34801561045157600080fd5b50610149610972565b61042e6004803603602081101561047057600080fd5b5035610978565b34801561048357600080fd5b50610149610b8e565b303190565b60105481565b600090815260116020526040902080546001909101549091565b60015481565b600654606090600160a060020a03163314806104e35750600454620100009004600160a060020a031633145b806104f85750600554600160a060020a031633145b151561050357600080fd5b6008805460408051602060026001851615610100026000190190941693909304601f810184900484028201840190925281815292918301828280156105895780601f1061055e57610100808354040283529160200191610589565b820191906000526020600020905b81548152906001019060200180831161056c57829003601f168201915b5050505050905090565b600e5481565b60408051602080820193909352815180820384018152908201909152805191012090565b60005481565b600454610100900460ff1681565b600554600160a060020a031681565b600d5460ff1681565b60095481565b600f5460009060ff161515600114610651576040805160e560020a62461bcd02815260206004820152601360248201527f4e6f206b657920686173206265656e2073657400000000000000000000000000604482015290519081900360640190fd5b600e5461065d83610599565b146106b2576040805160e560020a62461bcd02815260206004820152600d60248201527f496e636f7272656374204b657900000000000000000000000000000000000000604482015290519081900360640190fd5b6106ba610b94565b60036001556002600055506001919050565b60025481565b60035481565b600a5490565b6011602052600090815260409020805460019091015482565b60045460ff1681565b600f5460ff1681565b600d5460009060ff16151560011461076b576040805160e560020a62461bcd02815260206004820152601360248201527f4e6f206b657920686173206265656e2073657400000000000000000000000000604482015290519081900360640190fd5b600c5461077783610599565b146107cc576040805160e560020a62461bcd02815260206004820152600d60248201527f496e636f7272656374204b657900000000000000000000000000000000000000604482015290519081900360640190fd5b6107d4610c14565b5050600360005560028055600190565b600454620100009004600160a060020a03163314610898576040805160e560020a62461bcd02815260206004820152605060248201527f596f7520646f6e742068617665207065726d697373696f6e20746f207365652060448201527f74686973206f726465722c2064696420796f752067657420746865206f72646560648201527f7220616464726573732077726f6e673f00000000000000000000000000000000608482015290519081900360a40190fd5b60015481116108f1576040805160e560020a62461bcd02815260206004820152601c60248201527f7374617475732063616e6e6f74206265206261636b747261636b656400000000604482015290519081900360640190fd5b600381111580156109025750600081115b1515610958576040805160e560020a62461bcd02815260206004820152601660248201527f676976656e20537461747573206e6f742076616c696400000000000000000000604482015290519081900360640190fd5b600155565b600454620100009004600160a060020a031681565b600b5481565b600760009054906101000a9004600160a060020a0316600160a060020a031663c9286d576040518163ffffffff1660e060020a02815260040160206040518083038186803b1580156109c957600080fd5b505afa1580156109dd573d6000803e3d6000fd5b505050506040513d60208110156109f357600080fd5b5051604080517f139526700000000000000000000000000000000000000000000000000000000081523360048201529051600160a060020a0390921691631395267091602480820192602092909190829003018186803b158015610a5657600080fd5b505afa158015610a6a573d6000803e3d6000fd5b505050506040513d6020811015610a8057600080fd5b50511515610afe576040805160e560020a62461bcd02815260206004820152602960248201527f6d7573742062652063616c6c656420766961206120726964657220736d61727460448201527f20636f6e74726163740000000000000000000000000000000000000000000000606482015290519081900360840190fd5b600a54341015610b58576040805160e560020a62461bcd02815260206004820152601e60248201527f746865206465706f7369742073656e74206973206e6f7420656e6f7567680000604482015290519081900360640190fd5b60016000556005805473ffffffffffffffffffffffffffffffffffffffff191633179055600e55600f805460ff19166001179055565b600c5481565b600460029054906101000a9004600160a060020a0316600160a060020a0316631b9265b8600a546040518263ffffffff1660e060020a0281526004016000604051808303818588803b158015610be957600080fd5b505af1158015610bfd573d6000803e3d6000fd5b50506004805460ff19166001908117825555505050565b600560009054906101000a9004600160a060020a0316600160a060020a0316631b9265b8600b54600a54016040518263ffffffff1660e060020a0281526004016000604051808303818588803b158015610c6d57600080fd5b505af1158015610c81573d6000803e3d6000fd5b50506004805461ff001916610100179055505060036000555056fea165627a7a72305820843d9b0a0005af2aed274e370b60ed437fe296b5703446fcc7804cdf00efd6860029a165627a7a72305820067ab4e2355c4eb980f323183cfc9773248c1cdf261ed7096d0c62191a4f98dc0029",
  "source": "pragma solidity ^0.5.0;\n\n //import \"./lib.sol\";\n import \"./Order.sol\";\n import \"./RestaurantFactory.sol\";\n import \"./CustomerFactory.sol\";\n import \"./Controller.sol\";\n\ncontract Restaurant {\n\n    //using lib for bytes32;\n\n\tuint public id;\n\tstring public name;\n\tstring public location;\n\tstring public contactNumber;\n\tuint public rating;\n\n\taddress payable public owner;\n    address public controllerAddress;\n\taddress public restaurantFactoryAddress;\n\n\n    struct order{bool open; address orderAddress;}\n\tuint public totalOrders;\n\tmapping(uint => order) public orders; // must be a better way to store the orders\n\n    uint totalPay;\n\t\n\tstruct Item{\n\t\tbytes32 itemName;\n\t\tuint itemCost; // in wei (10^-18 Eth)\n\t}\n\t\n    uint public menuLength;\n\tmapping(uint => Item) public menu; // should probably change this to a mapping\n\n    enum restaurantState{acceptedOrder, preparingCargo, readyForCollection, HandedOver}\n\t\n    event OrderMadeEvent(address orderAddress);\n    event MenuUpdated();\n\n\tconstructor(address _controller, address payable _owner, uint _id, string memory _name,string memory _address,string memory _contactNumber) public {\n\t\tid = _id;\n\t\tname = _name;\n\t\tlocation = _address;\n\t\tcontactNumber = _contactNumber;\n\t\ttotalOrders = 0;\n        totalPay = 0;\n\n        controllerAddress = _controller;\n\t\towner = _owner;\n\t\trestaurantFactoryAddress = msg.sender;\n\t}\n\n    // ToDo Remove this\n    function getMenuLength() external view returns(uint length){\n        return menuLength;\n    }\n\n    // todo redo this \n    // function clearMenu() external {\n    //     require(msg.sender == owner);\n    //     delete menu;\n    // }\n    \n\n    function menuAddItems(bytes32[] calldata itemNames, uint[] calldata prices) external {\n        require(msg.sender == owner);\n        require(itemNames.length == prices.length);\n        \n        // should add checks that an item isn't added twice\n        for(uint i = 0; i<itemNames.length;i++){\n            menu[menuLength] = Item(itemNames[i],prices[i]);\n            menuLength++;\n        }\n        emit MenuUpdated();\n    }\n\n    \n    \n    function menuRemoveItems(uint[] calldata itemIds) external{\n        require(msg.sender == owner);\n        require(itemIds.length>0);\n\n        uint totalItemsToKeep = menuLength - uint(itemIds.length);\n\n        uint[] memory itemsToKeep = new uint[](totalItemsToKeep);\n        uint counter = 0;\n        for(uint i = 0; i<menuLength;i++){\n            bool idUndeleted = true;\n            for(uint j = 0; j < itemIds.length; j++){\n                if(i == itemIds[j]){\n                    idUndeleted = false;\n                }\n            }\n            if(idUndeleted){\n                itemsToKeep[counter] = i;\n                counter++;\n            }\n        }\n\n        for(uint i = 0; i < itemsToKeep.length; i++){\n            menu[i] = menu[itemsToKeep[i]];\n        }\n        menuLength = itemsToKeep.length;\n        emit MenuUpdated();\n    }\n    \n    // function menuSearch(string memory query) private view returns(int index){\n    //     for(uint i = 0; i<menuLength;i++){\n    //         if(lib.compareStrings(lib.bytes32ToString(menu[i].itemName),query)){\n    //             return int(i);\n    //         }\n    //     }\n    //     return -1;\n    // }\n\n    function getOrderPrice(uint[] memory itemIds) public view returns (uint){\n        uint price = 0;\n        for(uint i = 0; i < itemIds.length; i++){\n            price += menu[itemIds[i]].itemCost;\n        }\n        return price;\n    }\n    \n\n    function makeOrder(uint[] calldata itemIds, uint deliveryFee, bytes calldata deliveryAddress, bytes32 riderKeyHash) external payable returns (address orderAddress) {\n        //require this comes from a customer smart contract, maybe worth moving this to the order smart contract\n        require(CustomerFactory(Controller(controllerAddress).customerFactoryAddress()).customerExists(msg.sender), \"Customer doesnt exist\");\n\n        uint[] memory prices = new uint[](itemIds.length);\n        bytes32[] memory items = new bytes32[](itemIds.length);\n        for(uint i = 0; i < itemIds.length; i++)\n        {\n            if (itemIds[i] >= 0 && itemIds[i] < menuLength){\n                // could consider sending itemID and price to reduce gas cost\n                items[i] = menu[uint(itemIds[i])].itemName; \n                prices[i] = menu[uint(itemIds[i])].itemCost;\n            }\n            else{\n                revert(\"Invalid Items\");\n            }\n        }\n        \n\t\tOrder newOrder = (new Order).value(msg.value)(totalOrders,items,prices,deliveryFee, deliveryAddress,controllerAddress, msg.sender, riderKeyHash);\n\t\torders[totalOrders] = order(true,address(newOrder));\n        totalOrders ++;\n\n        emit OrderMadeEvent(orders[totalOrders - 1].orderAddress);\n\n\t\treturn orders[totalOrders - 1].orderAddress;       \n    }\n    \n    function getMenuItem(uint itemId)public view returns(bytes32 itemname, uint cost){\n        return (menu[itemId].itemName,menu[itemId].itemCost);\n    }\n\n    function setStatus(uint orderID, uint status) public{\n        require(msg.sender == owner);\n        Order(orders[orderID].orderAddress).setOrderStatus(status);\n    }\n\n    function pay() external payable {\n        totalPay += msg.value;\n        owner.transfer(msg.value);\n    } \n\n    function() external payable {\n\n    }\n}",
  "sourcePath": "/home/george/Documents/TryAByte/contracts/Restaurant.sol",
  "compiler": {
    "name": "solc",
    "version": "0.5.0+commit.1d4f565a.Emscripten.clang"
  },
  "schemaVersion": "3.0.6",
  "updatedAt": "2019-04-15T09:41:25.462Z",
  "devdoc": {
    "methods": {}
  },
  "userdoc": {
    "methods": {}
  }
}