{
  "contractName": "Restaurant",
  "abi": [
    {
      "inputs": [
        {
          "internalType": "address",
          "name": "_controller",
          "type": "address"
        },
        {
          "internalType": "address payable",
          "name": "_owner",
          "type": "address"
        },
        {
          "internalType": "uint256",
          "name": "_id",
          "type": "uint256"
        },
        {
          "internalType": "bytes32",
          "name": "_name",
          "type": "bytes32"
        },
        {
          "internalType": "bytes",
          "name": "_address",
          "type": "bytes"
        },
        {
          "internalType": "uint256",
          "name": "_latitude",
          "type": "uint256"
        },
        {
          "internalType": "uint256",
          "name": "_longitude",
          "type": "uint256"
        },
        {
          "internalType": "bytes32",
          "name": "_contactNumber",
          "type": "bytes32"
        }
      ],
      "payable": false,
      "stateMutability": "nonpayable",
      "type": "constructor"
    },
    {
      "anonymous": false,
      "inputs": [],
      "name": "MenuUpdated",
      "type": "event"
    },
    {
      "anonymous": false,
      "inputs": [
        {
          "indexed": false,
          "internalType": "address",
          "name": "orderAddress",
          "type": "address"
        }
      ],
      "name": "OrderMadeEvent",
      "type": "event"
    },
    {
      "payable": true,
      "stateMutability": "payable",
      "type": "fallback"
    },
    {
      "constant": true,
      "inputs": [],
      "name": "contactNumber",
      "outputs": [
        {
          "internalType": "bytes32",
          "name": "",
          "type": "bytes32"
        }
      ],
      "payable": false,
      "stateMutability": "view",
      "type": "function"
    },
    {
      "constant": true,
      "inputs": [],
      "name": "controllerAddress",
      "outputs": [
        {
          "internalType": "address",
          "name": "",
          "type": "address"
        }
      ],
      "payable": false,
      "stateMutability": "view",
      "type": "function"
    },
    {
      "constant": true,
      "inputs": [],
      "name": "id",
      "outputs": [
        {
          "internalType": "uint256",
          "name": "",
          "type": "uint256"
        }
      ],
      "payable": false,
      "stateMutability": "view",
      "type": "function"
    },
    {
      "constant": true,
      "inputs": [],
      "name": "latitude",
      "outputs": [
        {
          "internalType": "uint256",
          "name": "",
          "type": "uint256"
        }
      ],
      "payable": false,
      "stateMutability": "view",
      "type": "function"
    },
    {
      "constant": true,
      "inputs": [],
      "name": "location",
      "outputs": [
        {
          "internalType": "bytes",
          "name": "",
          "type": "bytes"
        }
      ],
      "payable": false,
      "stateMutability": "view",
      "type": "function"
    },
    {
      "constant": true,
      "inputs": [],
      "name": "logoHash",
      "outputs": [
        {
          "internalType": "bytes32",
          "name": "",
          "type": "bytes32"
        }
      ],
      "payable": false,
      "stateMutability": "view",
      "type": "function"
    },
    {
      "constant": true,
      "inputs": [],
      "name": "logoURI",
      "outputs": [
        {
          "internalType": "bytes",
          "name": "",
          "type": "bytes"
        }
      ],
      "payable": false,
      "stateMutability": "view",
      "type": "function"
    },
    {
      "constant": true,
      "inputs": [],
      "name": "longitude",
      "outputs": [
        {
          "internalType": "uint256",
          "name": "",
          "type": "uint256"
        }
      ],
      "payable": false,
      "stateMutability": "view",
      "type": "function"
    },
    {
      "constant": true,
      "inputs": [],
      "name": "name",
      "outputs": [
        {
          "internalType": "bytes32",
          "name": "",
          "type": "bytes32"
        }
      ],
      "payable": false,
      "stateMutability": "view",
      "type": "function"
    },
    {
      "constant": true,
      "inputs": [
        {
          "internalType": "uint256",
          "name": "",
          "type": "uint256"
        }
      ],
      "name": "orders",
      "outputs": [
        {
          "internalType": "bool",
          "name": "open",
          "type": "bool"
        },
        {
          "internalType": "address",
          "name": "orderAddress",
          "type": "address"
        }
      ],
      "payable": false,
      "stateMutability": "view",
      "type": "function"
    },
    {
      "constant": true,
      "inputs": [],
      "name": "owner",
      "outputs": [
        {
          "internalType": "address payable",
          "name": "",
          "type": "address"
        }
      ],
      "payable": false,
      "stateMutability": "view",
      "type": "function"
    },
    {
      "constant": true,
      "inputs": [],
      "name": "restaurantFactoryAddress",
      "outputs": [
        {
          "internalType": "address",
          "name": "",
          "type": "address"
        }
      ],
      "payable": false,
      "stateMutability": "view",
      "type": "function"
    },
    {
      "constant": true,
      "inputs": [],
      "name": "totalOrders",
      "outputs": [
        {
          "internalType": "uint256",
          "name": "",
          "type": "uint256"
        }
      ],
      "payable": false,
      "stateMutability": "view",
      "type": "function"
    },
    {
      "constant": true,
      "inputs": [],
      "name": "getMenuAddress",
      "outputs": [
        {
          "internalType": "address",
          "name": "",
          "type": "address"
        }
      ],
      "payable": false,
      "stateMutability": "view",
      "type": "function"
    },
    {
      "constant": false,
      "inputs": [
        {
          "internalType": "bytes",
          "name": "imageURI",
          "type": "bytes"
        },
        {
          "internalType": "bytes32",
          "name": "imageHash",
          "type": "bytes32"
        }
      ],
      "name": "updateLogo",
      "outputs": [],
      "payable": false,
      "stateMutability": "nonpayable",
      "type": "function"
    },
    {
      "constant": true,
      "inputs": [
        {
          "internalType": "uint256[]",
          "name": "integers",
          "type": "uint256[]"
        },
        {
          "internalType": "uint256",
          "name": "itemCount",
          "type": "uint256"
        }
      ],
      "name": "getOrderPrice",
      "outputs": [
        {
          "internalType": "uint256",
          "name": "",
          "type": "uint256"
        }
      ],
      "payable": false,
      "stateMutability": "view",
      "type": "function"
    },
    {
      "constant": false,
      "inputs": [
        {
          "internalType": "uint256[]",
          "name": "_integers",
          "type": "uint256[]"
        },
        {
          "internalType": "uint256",
          "name": "itemCount",
          "type": "uint256"
        },
        {
          "internalType": "bytes32",
          "name": "riderKeyHash",
          "type": "bytes32"
        }
      ],
      "name": "makeOrder",
      "outputs": [
        {
          "internalType": "address",
          "name": "orderAddress",
          "type": "address"
        }
      ],
      "payable": true,
      "stateMutability": "payable",
      "type": "function"
    },
    {
      "constant": false,
      "inputs": [
        {
          "internalType": "address",
          "name": "orderAddress",
          "type": "address"
        },
        {
          "internalType": "uint256",
          "name": "status",
          "type": "uint256"
        }
      ],
      "name": "setStatus",
      "outputs": [],
      "payable": false,
      "stateMutability": "nonpayable",
      "type": "function"
    },
    {
      "constant": false,
      "inputs": [],
      "name": "pay",
      "outputs": [],
      "payable": true,
      "stateMutability": "payable",
      "type": "function"
    },
    {
      "constant": false,
      "inputs": [
        {
          "internalType": "bytes32",
          "name": "_name",
          "type": "bytes32"
        },
        {
          "internalType": "bytes32",
          "name": "_number",
          "type": "bytes32"
        },
        {
          "internalType": "address payable",
          "name": "_owner",
          "type": "address"
        },
        {
          "internalType": "bytes",
          "name": "_location",
          "type": "bytes"
        },
        {
          "internalType": "uint256",
          "name": "_latitude",
          "type": "uint256"
        },
        {
          "internalType": "uint256",
          "name": "_longitude",
          "type": "uint256"
        },
        {
          "internalType": "bytes",
          "name": "_logoURI",
          "type": "bytes"
        },
        {
          "internalType": "bytes32",
          "name": "_logoHash",
          "type": "bytes32"
        }
      ],
      "name": "updateRestaurant",
      "outputs": [],
      "payable": false,
      "stateMutability": "nonpayable",
      "type": "function"
    },
    {
      "constant": false,
      "inputs": [
        {
          "internalType": "bytes32",
          "name": "_name",
          "type": "bytes32"
        }
      ],
      "name": "setName",
      "outputs": [],
      "payable": false,
      "stateMutability": "nonpayable",
      "type": "function"
    },
    {
      "constant": false,
      "inputs": [
        {
          "internalType": "bytes32",
          "name": "_number",
          "type": "bytes32"
        }
      ],
      "name": "setNumber",
      "outputs": [],
      "payable": false,
      "stateMutability": "nonpayable",
      "type": "function"
    },
    {
      "constant": false,
      "inputs": [
        {
          "internalType": "address payable",
          "name": "_owner",
          "type": "address"
        }
      ],
      "name": "setOwner",
      "outputs": [],
      "payable": false,
      "stateMutability": "nonpayable",
      "type": "function"
    },
    {
      "constant": false,
      "inputs": [
        {
          "internalType": "bytes",
          "name": "_location",
          "type": "bytes"
        },
        {
          "internalType": "uint256",
          "name": "_latitude",
          "type": "uint256"
        },
        {
          "internalType": "uint256",
          "name": "_longitude",
          "type": "uint256"
        }
      ],
      "name": "setLocation",
      "outputs": [],
      "payable": false,
      "stateMutability": "nonpayable",
      "type": "function"
    },
    {
      "constant": false,
      "inputs": [
        {
          "internalType": "bytes",
          "name": "_logoURI",
          "type": "bytes"
        },
        {
          "internalType": "bytes32",
          "name": "_logoHash",
          "type": "bytes32"
        }
      ],
      "name": "setLogo",
      "outputs": [],
      "payable": false,
      "stateMutability": "nonpayable",
      "type": "function"
    }
  ],
  "bytecode": "0x60806040523480156200001157600080fd5b5060405162006be538038062006be583398181016040526101008110156200003857600080fd5b81516020830151604080850151606086015160808701805193519597949692959194919392820192846401000000008211156200007457600080fd5b9083019060208201858111156200008a57600080fd5b8251640100000000811182820188101715620000a557600080fd5b82525081516020918201929091019080838360005b83811015620000d4578181015183820152602001620000ba565b50505050905090810190601f168015620001025780820380516001836020036101000a031916815260200191505b506040908152602082810151918301516060909301516000899055600188905586519295509293506200013b91600291870190620001fe565b506004839055600382905560078190556000600b819055600d55600980546001600160a01b03808b166001600160a01b03199283161790925560088054928a1692821692909217909155600a8054909116331790556040518790620001a09062000283565b6001600160a01b03909116815260405190819003602001906000f080158015620001ce573d6000803e3d6000fd5b50600e80546001600160a01b0319166001600160a01b039290921691909117905550620002b19650505050505050565b828054600181600116156101000203166002900490600052602060002090601f016020900481019282601f106200024157805160ff191683800117855562000271565b8280016001018555821562000271579182015b828111156200027157825182559160200191906001019062000254565b506200027f92915062000291565b5090565b6144c4806200272183390190565b620002ae91905b808211156200027f576000815560010162000298565b90565b61246080620002c16000396000f3fe608060405260043610620001885760003560e01c80636bb38b2811620000e5578063a85c38ef1162000097578063c1f0f00d116200006d578063c1f0f00d14620007ae578063df7be1ca1462000868578063f1d4b2c51462000880578063f9a9525e14620008ae5762000188565b8063a85c38ef146200068e578063af640d0f14620006df578063b21dc38a14620006f75762000188565b80636bb38b28146200041c57806376af633c14620004345780637e29b003146200044c5780637e55d59c14620005b75780638da5cb5b14620005f4578063a64f207a146200060c5762000188565b80634fd7d76a116200013f5780634fd7d76a1462000259578063516f279e14620002715780635863bebe1462000301578063589af69c14620003be5780635ac801fe14620003d657806368db65a414620004045762000188565b806301751d41146200018a57806306fdde0314620001be57806313af403514620001e85780631b9265b8146200021f5780631d83440914620002295780634b24ea471462000241575b005b3480156200019757600080fd5b50620001a262000928565b604080516001600160a01b039092168252519081900360200190f35b348015620001cb57600080fd5b50620001d662000938565b60408051918252519081900360200190f35b348015620001f557600080fd5b5062000188600480360360208110156200020e57600080fd5b50356001600160a01b03166200093e565b6200018862000978565b3480156200023657600080fd5b50620001d6620009bf565b3480156200024e57600080fd5b50620001a2620009c5565b3480156200026657600080fd5b50620001d6620009d4565b3480156200027e57600080fd5b5062000289620009da565b6040805160208082528351818301528351919283929083019185019080838360005b83811015620002c5578181015183820152602001620002ab565b50505050905090810190601f168015620002f35780820380516001836020036101000a031916815260200191505b509250505060405180910390f35b3480156200030e57600080fd5b5062000188600480360360608110156200032757600080fd5b810190602081018135600160201b8111156200034257600080fd5b8201836020820111156200035557600080fd5b803590602001918460018302840111600160201b831117156200037757600080fd5b91908080601f016020809104026020016040519081016040528093929190818152602001838380828437600092019190915250929550508235935050506020013562000a69565b348015620003cb57600080fd5b50620001d662000a9e565b348015620003e357600080fd5b506200018860048036036020811015620003fc57600080fd5b503562000aa4565b3480156200041157600080fd5b50620001a262000ac1565b3480156200042957600080fd5b506200028962000ad0565b3480156200044157600080fd5b50620001d662000b2e565b3480156200045957600080fd5b506200018860048036036101008110156200047357600080fd5b8135916020810135916001600160a01b036040830135169190810190608081016060820135600160201b811115620004aa57600080fd5b820183602082011115620004bd57600080fd5b803590602001918460018302840111600160201b83111715620004df57600080fd5b91908080601f0160208091040260200160405190810160405280939291908181526020018383808284376000920191909152509295843595602086013595919450925060608101915060400135600160201b8111156200053e57600080fd5b8201836020820111156200055157600080fd5b803590602001918460018302840111600160201b831117156200057357600080fd5b91908080601f016020809104026020016040519081016040528093929190818152602001838380828437600092019190915250929550509135925062000b34915050565b348015620005c457600080fd5b506200018860048036036040811015620005dd57600080fd5b506001600160a01b03813516906020013562000baf565b3480156200060157600080fd5b50620001a262000c6b565b3480156200061957600080fd5b5062000188600480360360408110156200063257600080fd5b810190602081018135600160201b8111156200064d57600080fd5b8201836020820111156200066057600080fd5b803590602001918460018302840111600160201b831117156200068257600080fd5b91935091503562000c7a565b3480156200069b57600080fd5b50620006bc60048036036020811015620006b457600080fd5b503562000ca8565b6040805192151583526001600160a01b0390911660208301528051918290030190f35b348015620006ec57600080fd5b50620001d662000ccd565b3480156200070457600080fd5b50620001d6600480360360408110156200071d57600080fd5b810190602081018135600160201b8111156200073857600080fd5b8201836020820111156200074b57600080fd5b803590602001918460208302840111600160201b831117156200076d57600080fd5b919080806020026020016040519081016040528093929190818152602001838360200280828437600092019190915250929550509135925062000cd3915050565b348015620007bb57600080fd5b506200018860048036036040811015620007d457600080fd5b810190602081018135600160201b811115620007ef57600080fd5b8201836020820111156200080257600080fd5b803590602001918460018302840111600160201b831117156200082457600080fd5b91908080601f016020809104026020016040519081016040528093929190818152602001838380828437600092019190915250929550509135925062000d9b915050565b3480156200087557600080fd5b50620001d662000dcf565b3480156200088d57600080fd5b506200018860048036036020811015620008a657600080fd5b503562000dd5565b620001a260048036036060811015620008c657600080fd5b810190602081018135600160201b811115620008e157600080fd5b820183602082011115620008f457600080fd5b803590602001918460208302840111600160201b831117156200091657600080fd5b91935091508035906020013562000df2565b600e546001600160a01b03165b90565b60015481565b6008546001600160a01b031633146200095657600080fd5b600880546001600160a01b0319166001600160a01b0392909216919091179055565b600d8054349081019091556008546040516001600160a01b039091169180156108fc02916000818181858888f19350505050158015620009bc573d6000803e3d6000fd5b50565b600b5481565b6009546001600160a01b031681565b60045481565b6002805460408051602060018416156101000260001901909316849004601f8101849004840282018401909252818152929183018282801562000a615780601f1062000a355761010080835404028352916020019162000a61565b820191906000526020600020905b81548152906001019060200180831162000a4357829003601f168201915b505050505081565b6008546001600160a01b0316331462000a8157600080fd5b825162000a9690600290602086019062001100565b506003555050565b60035481565b6008546001600160a01b0316331462000abc57600080fd5b600155565b600a546001600160a01b031681565b6005805460408051602060026001851615610100026000190190941693909304601f8101849004840282018401909252818152929183018282801562000a615780601f1062000a355761010080835404028352916020019162000a61565b60075481565b6008546001600160a01b0316331462000b4c57600080fd5b62000b578862000aa4565b62000b628762000dd5565b6001600160a01b0386161562000b7d5762000b7d866200093e565b84511562000b925762000b9285858562000a69565b81511562000ba55762000ba58862000aa4565b5050505050505050565b6008546001600160a01b0316331462000c07576040805162461bcd60e51b81526020600482015260156024820152743cb7ba9030b932903737ba103a34329037bbb732b960591b604482015290519081900360640190fd5b816001600160a01b031663e9132c42826040518263ffffffff1660e01b815260040180828152602001915050600060405180830381600087803b15801562000c4e57600080fd5b505af115801562000c63573d6000803e3d6000fd5b505050505050565b6008546001600160a01b031681565b6008546001600160a01b0316331462000c9257600080fd5b62000ca06005848462001185565b506006555050565b600c6020526000908152604090205460ff81169061010090046001600160a01b031682565b60005481565b600e546040805163590ee1c560e11b815260248101849052600481019182528451604482015284516000936001600160a01b03169263b21dc38a9287928792918291606490910190602080870191028083838c5b8381101562000d4157818101518382015260200162000d27565b50505050905001935050505060206040518083038186803b15801562000d6657600080fd5b505afa15801562000d7b573d6000803e3d6000fd5b505050506040513d602081101562000d9257600080fd5b50519392505050565b6008546001600160a01b0316331462000db357600080fd5b815162000dc890600590602085019062001100565b5060065550565b60065481565b6008546001600160a01b0316331462000ded57600080fd5b600755565b60095460408051631915796b60e21b815290516000926001600160a01b031691636455e5ac916004808301926020929190829003018186803b15801562000e3857600080fd5b505afa15801562000e4d573d6000803e3d6000fd5b505050506040513d602081101562000e6457600080fd5b505160408051630d13601360e31b815233600482015290516001600160a01b039092169163689b009891602480820192602092909190829003018186803b15801562000eaf57600080fd5b505afa15801562000ec4573d6000803e3d6000fd5b505050506040513d602081101562000edb57600080fd5b505162000f27576040805162461bcd60e51b815260206004820152601560248201527410dd5cdd1bdb595c88191bd95cdb9d08195e1a5cdd605a1b604482015290519081900360640190fd5b60608585808060200260200160405190810160405280939291908181526020018383602002808284376000920182905250600b548551959650948694509092501515905062000f7257fe5b6020026020010181815250506000348286600960009054906101000a90046001600160a01b0316338860405162000fa990620011f8565b60208082018690526001600160a01b038086166040840152841660608301526080820183905260a08083528751908301528651829160c0830191898201910280838360005b838110156200100857818101518382015260200162000fee565b5050505090500196505050505050506040518091039082f08015801562001033573d6000803e3d6000fd5b5060408051808201825260018082526001600160a01b038481166020808501918252600b80546000908152600c835287812096518754945160ff1990951690151517610100600160a81b031916610100948616850217909655805494850190559284529284902054845193900416825291519294507f6ad6ccf0214624cc1ab014b24a7601698f45e6a0d07edcbab143606784ed78fb93508290030190a15050600b54600019016000908152600c602052604090205461010090046001600160a01b031695945050505050565b828054600181600116156101000203166002900490600052602060002090601f016020900481019282601f106200114357805160ff191683800117855562001173565b8280016001018555821562001173579182015b828111156200117357825182559160200191906001019062001156565b506200118192915062001206565b5090565b828054600181600116156101000203166002900490600052602060002090601f016020900481019282601f10620011c85782800160ff1982351617855562001173565b8280016001018555821562001173579182015b8281111562001173578235825591602001919060010190620011db565b611208806200122483390190565b6200093591905b808211156200118157600081556001016200120d56fe608060408190526004805461ffff19169055600c805460ff19908116909155600e805490911690556200120838819003908190833981810160405260a08110156200004957600080fd5b81019080805160405193929190846401000000008211156200006a57600080fd5b9083019060208201858111156200008057600080fd5b82518660208202830111640100000000821117156200009e57600080fd5b82525081516020918201928201910280838360005b83811015620000cd578181015183820152602001620000b3565b505050509190910160408181526020848101518583015160608701516080909701517f68db65a4000000000000000000000000000000000000000000000000000000008652935191985096509193506001600160a01b038616926368db65a49260048083019392829003018186803b1580156200014957600080fd5b505afa1580156200015e573d6000803e3d6000fd5b505050506040513d60208110156200017557600080fd5b5051604080517f79a4fa2700000000000000000000000000000000000000000000000000000000815233600482015290516001600160a01b03909216916379a4fa2791602480820192602092909190829003018186803b158015620001d957600080fd5b505afa158015620001ee573d6000803e3d6000fd5b505050506040513d60208110156200020557600080fd5b50516200025e576040517f08c379a000000000000000000000000000000000000000000000000000000000815260040180806020018281038252603d815260200180620011cb603d913960400191505060405180910390fd5b846000815181106200026c57fe5b6020026020010151600381905550846001815181106200028857fe5b6020026020010151600a8190555084600281518110620002a457fe5b6020026020010151600981905550600a546009540134101562000313576040517f08c379a0000000000000000000000000000000000000000000000000000000008152600401808060200182810382526022815260200180620011a96022913960400191505060405180910390fd5b600f84905560005b84811015620003be578581600301815181106200033457fe5b6020026020010151601060008381526020019081526020016000208190555085858201600301815181106200036557fe5b6020026020010151601160008381526020019081526020016000208190555085856002028201600301815181106200039957fe5b602090810291909101810151600083815260139092526040909120556001016200031b565b5060006003808602015b86518110156200040857868181518110620003df57fe5b6020908102919091018101516000848152601290925260409091205560019182019101620003c8565b50506004805462010000600160b01b031916336201000002179055600680546001600160a01b03199081166001600160a01b0394851617909155426008556007805490911693909216929092179055600160028190556000808055808255600b92909255600c805460ff19169091179055610d1d92508291506200048c90396000f3fe6080604052600436106101b75760003560e01c80639e8464f1116100ec578063db7575f01161008a578063f1cba54c11610064578063f1cba54c146104ac578063f3cc0f1f146104d6578063f90a92e3146104eb578063fc6f78a014610508576101b7565b8063db7575f01461044e578063e9132c4214610478578063ed16805814610497576101b7565b8063b3dc00fe116100c6578063b3dc00fe146103e5578063bd3e19d41461040f578063d601e11414610424578063d638e10214610439576101b7565b80639e8464f114610391578063a14b7e68146103bb578063af640d0f146103d0576101b7565b80633e3ca4d311610159578063646e077f11610133578063646e077f146103135780637aada134146103285780637d98119d1461033d5780639619ffdb14610367576101b7565b80633e3ca4d3146102c057806340571abb146102d557806353c0a006146102fe576101b7565b80633129e773116101955780633129e77314610229578063329408161461026c5780633cc94908146102815780633cf5040a14610296576101b7565b806312065fe0146101bc5780632799276d146101e35780632804b2c0146101f8575b600080fd5b3480156101c857600080fd5b506101d161051d565b60408051918252519081900360200190f35b3480156101ef57600080fd5b506101d1610522565b34801561020457600080fd5b5061020d610528565b604080516001600160a01b039092168252519081900360200190f35b34801561023557600080fd5b506102536004803603602081101561024c57600080fd5b5035610537565b6040805192835260208301919091528051918290030190f35b34801561027857600080fd5b506101d161053f565b34801561028d57600080fd5b506101d1610545565b3480156102a257600080fd5b506101d1600480360360208110156102b957600080fd5b503561054b565b3480156102cc57600080fd5b506101d161056f565b3480156102e157600080fd5b506102ea610575565b604080519115158252519081900360200190f35b34801561030a57600080fd5b5061020d610583565b34801561031f57600080fd5b506102ea610592565b34801561033457600080fd5b506101d161059b565b34801561034957600080fd5b506101d16004803603602081101561036057600080fd5b50356105a1565b34801561037357600080fd5b506101d16004803603602081101561038a57600080fd5b50356105b3565b34801561039d57600080fd5b506102ea600480360360208110156103b457600080fd5b50356105c5565b3480156103c757600080fd5b506101d1610699565b3480156103dc57600080fd5b506101d161069f565b3480156103f157600080fd5b506101d16004803603602081101561040857600080fd5b50356106a5565b34801561041b57600080fd5b506101d16106b7565b34801561043057600080fd5b506102ea6106bd565b34801561044557600080fd5b506102ea6106c6565b34801561045a57600080fd5b506102ea6004803603602081101561047157600080fd5b50356106cf565b6104956004803603602081101561048e57600080fd5b50356107a2565b005b3480156104a357600080fd5b5061020d6108c1565b3480156104b857600080fd5b506101d1600480360360208110156104cf57600080fd5b50356108d6565b3480156104e257600080fd5b506101d16108e8565b6104956004803603602081101561050157600080fd5b50356108ee565b34801561051457600080fd5b506101d1610af0565b303190565b600f5481565b6006546001600160a01b031681565b600080915091565b60015481565b600d5481565b60408051602080820193909352815180820384018152908201909152805191012090565b60005481565b600454610100900460ff1681565b6005546001600160a01b031681565b600c5460ff1681565b60085481565b60126020526000908152604090205481565b60136020526000908152604090205481565b600e5460009060ff16151560011461061a576040805162461bcd60e51b8152602060048201526013602482015272139bc81ad95e481a185cc81899595b881cd95d606a1b604482015290519081900360640190fd5b600d546106268361054b565b14610668576040805162461bcd60e51b815260206004820152600d60248201526c496e636f7272656374204b657960981b604482015290519081900360640190fd5b610670610af6565b600360015560026000908155604051600080516020610c268339815191529190a1506001919050565b60025481565b60035481565b60106020526000908152604090205481565b60095490565b60045460ff1681565b600e5460ff1681565b600c5460009060ff161515600114610724576040805162461bcd60e51b8152602060048201526013602482015272139bc81ad95e481a185cc81899595b881cd95d606a1b604482015290519081900360640190fd5b600b546107308361054b565b14610772576040805162461bcd60e51b815260206004820152600d60248201526c496e636f7272656374204b657960981b604482015290519081900360640190fd5b61077a610b8a565b600360005560028055604051600080516020610c2683398151915290600090a1506001919050565b6004546201000090046001600160a01b031633146107f15760405162461bcd60e51b8152600401808060200182810382526050815260200180610c466050913960600191505060405180910390fd5b6001548111610847576040805162461bcd60e51b815260206004820152601c60248201527f7374617475732063616e6e6f74206265206261636b747261636b656400000000604482015290519081900360640190fd5b600381111580156108585750600081115b6108a2576040805162461bcd60e51b815260206004820152601660248201527519da5d995b8814dd185d1d5cc81b9bdd081d985b1a5960521b604482015290519081900360640190fd5b6001819055604051600080516020610c2683398151915290600090a150565b6004546201000090046001600160a01b031681565b60116020526000908152604090205481565b600a5481565b6000541561092d5760405162461bcd60e51b815260040180806020018281038252602a815260200180610c96602a913960400191505060405180910390fd5b600760009054906101000a90046001600160a01b03166001600160a01b031663c9286d576040518163ffffffff1660e01b815260040160206040518083038186803b15801561097b57600080fd5b505afa15801561098f573d6000803e3d6000fd5b505050506040513d60208110156109a557600080fd5b505160408051630139526760e41b815233600482015290516001600160a01b0390921691631395267091602480820192602092909190829003018186803b1580156109ef57600080fd5b505afa158015610a03573d6000803e3d6000fd5b505050506040513d6020811015610a1957600080fd5b5051610a565760405162461bcd60e51b8152600401808060200182810382526029815260200180610cc06029913960400191505060405180910390fd5b600954341015610aad576040805162461bcd60e51b815260206004820152601e60248201527f746865206465706f7369742073656e74206973206e6f7420656e6f7567680000604482015290519081900360640190fd5b60016000908155600580546001600160a01b03191633179055600d829055600e805460ff19166001179055604051600080516020610c268339815191529190a150565b600b5481565b600460029054906101000a90046001600160a01b03166001600160a01b0316631b9265b86009546040518263ffffffff1660e01b81526004016000604051808303818588803b158015610b4857600080fd5b505af1158015610b5c573d6000803e3d6000fd5b50506004805460ff191660019081178255555050604051600080516020610c268339815191529150600090a1565b600560009054906101000a90046001600160a01b03166001600160a01b0316631b9265b8600a54600954016040518263ffffffff1660e01b81526004016000604051808303818588803b158015610be057600080fd5b505af1158015610bf4573d6000803e3d6000fd5b50506004805461ff001916610100179055505060036000908155604051600080516020610c268339815191529250a156feac854101ed2841c4fe7b3c5bfc4f3e58ddac515e8dd58f1bd9cf7856f1cc6e7f596f7520646f6e742068617665207065726d697373696f6e20746f207365652074686973206f726465722c2064696420796f752067657420746865206f7264657220616464726573732077726f6e673f74686973206f7264657220616c6c7265616479206861732064656c6976657279206f7267616e697365646d7573742062652063616c6c656420766961206120726964657220736d61727420636f6e7472616374a265627a7a72315820a437505deb89e7e3d758c9743ab1f2df0062466dd2c4774173222281fb7a01b064736f6c634300050c00326e6f7420656e6f7567682065746865722073656e7420746f20746865206f72646572617474656d7074656420746f206d616b65206f726465722066726f6d20616464726573732074686174206973206e6f7420612072657374617572616e74a265627a7a7231582091b4221d12cb5f75d97ba5641cdfc087de90cd7583782b53fe3bd41be879bdff64736f6c634300050c00326080604052600060015534801561001557600080fd5b50604051620044c4380380620044c48339818101604052602081101561003a57600080fd5b5051600080546001600160a01b039092166001600160a01b0319909216919091179055614457806200006d6000396000f3fe608060405234801561001057600080fd5b506004361061014d5760003560e01c80638fb0f14c116100c3578063ca497d5c1161007c578063ca497d5c14611193578063d54307ca146109eb578063e40c8a3214611234578063e4d8a2a6146113d9578063e840515414611402578063f0439f71146115a75761014d565b80638fb0f14c14610c5b578063a6bd92e314610cfc578063ab90dae814610e1f578063b21dc38a14610e42578063bae78d7b14610ee5578063c98baa3214610fee5761014d565b806364f2eacd1161011557806364f2eacd1461039457806368fa6994146105bb5780637087ab33146109eb57806371329171146109f357806379b0542d14610a105780638da5cb5b14610c375761014d565b80630545ba2914610152578063125ba977146101775780631d082931146101915780631f7b6d321461035d5780633548495214610365575b600080fd5b6101756004803603604081101561016857600080fd5b50803590602001356115cd565b005b61017f611729565b60408051918252519081900360200190f35b610349600480360360c08110156101a757600080fd5b81359160208101359160408201359190810190608081016060820135600160201b8111156101d457600080fd5b8201836020820111156101e657600080fd5b803590602001918460208302840111600160201b8311171561020757600080fd5b9190808060200260200160405190810160405280939291908181526020018383602002808284376000920191909152509295949360208101935035915050600160201b81111561025657600080fd5b82018360208201111561026857600080fd5b803590602001918460208302840111600160201b8311171561028957600080fd5b9190808060200260200160405190810160405280939291908181526020018383602002808284376000920191909152509295949360208101935035915050600160201b8111156102d857600080fd5b8201836020820111156102ea57600080fd5b803590602001918460208302840111600160201b8311171561030b57600080fd5b919080806020026020016040519081016040528093929190818152602001838360200280828437600092019190915250929550611757945050505050565b604080519115158252519081900360200190f35b61017f611a70565b6103496004803603608081101561037b57600080fd5b5080359060208101359060408101359060600135611a76565b610349600480360360808110156103aa57600080fd5b810190602081018135600160201b8111156103c457600080fd5b8201836020820111156103d657600080fd5b803590602001918460208302840111600160201b831117156103f757600080fd5b9190808060200260200160405190810160405280939291908181526020018383602002808284376000920191909152509295949360208101935035915050600160201b81111561044657600080fd5b82018360208201111561045857600080fd5b803590602001918460208302840111600160201b8311171561047957600080fd5b9190808060200260200160405190810160405280939291908181526020018383602002808284376000920191909152509295949360208101935035915050600160201b8111156104c857600080fd5b8201836020820111156104da57600080fd5b803590602001918460208302840111600160201b831117156104fb57600080fd5b9190808060200260200160405190810160405280939291908181526020018383602002808284376000920191909152509295949360208101935035915050600160201b81111561054a57600080fd5b82018360208201111561055c57600080fd5b803590602001918460208302840111600160201b8311171561057d57600080fd5b919080806020026020016040519081016040528093929190818152602001838360200280828437600092019190915250929550611c2a945050505050565b61017560048036036101008110156105d257600080fd5b810190602081018135600160201b8111156105ec57600080fd5b8201836020820111156105fe57600080fd5b803590602001918460208302840111600160201b8311171561061f57600080fd5b9190808060200260200160405190810160405280939291908181526020018383602002808284376000920191909152509295949360208101935035915050600160201b81111561066e57600080fd5b82018360208201111561068057600080fd5b803590602001918460208302840111600160201b831117156106a157600080fd5b9190808060200260200160405190810160405280939291908181526020018383602002808284376000920191909152509295949360208101935035915050600160201b8111156106f057600080fd5b82018360208201111561070257600080fd5b803590602001918460208302840111600160201b8311171561072357600080fd5b9190808060200260200160405190810160405280939291908181526020018383602002808284376000920191909152509295949360208101935035915050600160201b81111561077257600080fd5b82018360208201111561078457600080fd5b803590602001918460208302840111600160201b831117156107a557600080fd5b9190808060200260200160405190810160405280939291908181526020018383602002808284376000920191909152509295949360208101935035915050600160201b8111156107f457600080fd5b82018360208201111561080657600080fd5b803590602001918460208302840111600160201b8311171561082757600080fd5b9190808060200260200160405190810160405280939291908181526020018383602002808284376000920191909152509295949360208101935035915050600160201b81111561087657600080fd5b82018360208201111561088857600080fd5b803590602001918460208302840111600160201b831117156108a957600080fd5b9190808060200260200160405190810160405280939291908181526020018383602002808284376000920191909152509295949360208101935035915050600160201b8111156108f857600080fd5b82018360208201111561090a57600080fd5b803590602001918460208302840111600160201b8311171561092b57600080fd5b9190808060200260200160405190810160405280939291908181526020018383602002808284376000920191909152509295949360208101935035915050600160201b81111561097a57600080fd5b82018360208201111561098c57600080fd5b803590602001918460208302840111600160201b831117156109ad57600080fd5b919080806020026020016040519081016040528093929190818152602001838360200280828437600092019190915250929550612b85945050505050565b610175612f99565b61034960048036036020811015610a0957600080fd5b5035612f9b565b61017560048036036080811015610a2657600080fd5b810190602081018135600160201b811115610a4057600080fd5b820183602082011115610a5257600080fd5b803590602001918460208302840111600160201b83111715610a7357600080fd5b9190808060200260200160405190810160405280939291908181526020018383602002808284376000920191909152509295949360208101935035915050600160201b811115610ac257600080fd5b820183602082011115610ad457600080fd5b803590602001918460208302840111600160201b83111715610af557600080fd5b9190808060200260200160405190810160405280939291908181526020018383602002808284376000920191909152509295949360208101935035915050600160201b811115610b4457600080fd5b820183602082011115610b5657600080fd5b803590602001918460208302840111600160201b83111715610b7757600080fd5b9190808060200260200160405190810160405280939291908181526020018383602002808284376000920191909152509295949360208101935035915050600160201b811115610bc657600080fd5b820183602082011115610bd857600080fd5b803590602001918460208302840111600160201b83111715610bf957600080fd5b919080806020026020016040519081016040528093929190818152602001838360200280828437600092019190915250929550613080945050505050565b610c3f61320b565b604080516001600160a01b039092168252519081900360200190f35b61017560048036036020811015610c7157600080fd5b810190602081018135600160201b811115610c8b57600080fd5b820183602082011115610c9d57600080fd5b803590602001918460208302840111600160201b83111715610cbe57600080fd5b91908080602002602001604051908101604052809392919081815260200183836020028082843760009201919091525092955061321a945050505050565b61017560048036036040811015610d1257600080fd5b810190602081018135600160201b811115610d2c57600080fd5b820183602082011115610d3e57600080fd5b803590602001918460208302840111600160201b83111715610d5f57600080fd5b9190808060200260200160405190810160405280939291908181526020018383602002808284376000920191909152509295949360208101935035915050600160201b811115610dae57600080fd5b820183602082011115610dc057600080fd5b803590602001918460208302840111600160201b83111715610de157600080fd5b9190808060200260200160405190810160405280939291908181526020018383602002808284376000920191909152509295506132c5945050505050565b61034960048036036040811015610e3557600080fd5b508035906020013561339c565b61017f60048036036040811015610e5857600080fd5b810190602081018135600160201b811115610e7257600080fd5b820183602082011115610e8457600080fd5b803590602001918460208302840111600160201b83111715610ea557600080fd5b9190808060200260200160405190810160405280939291908181526020018383602002808284376000920191909152509295505091359250613549915050565b610f0260048036036020811015610efb57600080fd5b50356136fb565b60405180868152602001858152602001806020018060200180602001848103845287818151815260200191508051906020019060200280838360005b83811015610f56578181015183820152602001610f3e565b50505050905001848103835286818151815260200191508051906020019060200280838360005b83811015610f95578181015183820152602001610f7d565b50505050905001848103825285818151815260200191508051906020019060200280838360005b83811015610fd4578181015183820152602001610fbc565b505050509050019850505050505050505060405180910390f35b6101756004803603606081101561100457600080fd5b810190602081018135600160201b81111561101e57600080fd5b82018360208201111561103057600080fd5b803590602001918460208302840111600160201b8311171561105157600080fd5b9190808060200260200160405190810160405280939291908181526020018383602002808284376000920191909152509295949360208101935035915050600160201b8111156110a057600080fd5b8201836020820111156110b257600080fd5b803590602001918460208302840111600160201b831117156110d357600080fd5b9190808060200260200160405190810160405280939291908181526020018383602002808284376000920191909152509295949360208101935035915050600160201b81111561112257600080fd5b82018360208201111561113457600080fd5b803590602001918460208302840111600160201b8311171561115557600080fd5b91908080602002602001604051908101604052809392919081815260200183836020028082843760009201919091525092955061393b945050505050565b610175600480360360208110156111a957600080fd5b810190602081018135600160201b8111156111c357600080fd5b8201836020820111156111d557600080fd5b803590602001918460208302840111600160201b831117156111f657600080fd5b9190808060200260200160405190810160405280939291908181526020018383602002808284376000920191909152509295506139ce945050505050565b6101756004803603606081101561124a57600080fd5b810190602081018135600160201b81111561126457600080fd5b82018360208201111561127657600080fd5b803590602001918460208302840111600160201b8311171561129757600080fd5b9190808060200260200160405190810160405280939291908181526020018383602002808284376000920191909152509295949360208101935035915050600160201b8111156112e657600080fd5b8201836020820111156112f857600080fd5b803590602001918460208302840111600160201b8311171561131957600080fd5b9190808060200260200160405190810160405280939291908181526020018383602002808284376000920191909152509295949360208101935035915050600160201b81111561136857600080fd5b82018360208201111561137a57600080fd5b803590602001918460208302840111600160201b8311171561139b57600080fd5b919080806020026020016040519081016040528093929190818152602001838360200280828437600092019190915250929550613a27945050505050565b610175600480360360608110156113ef57600080fd5b5080359060208101359060400135613bce565b6101756004803603606081101561141857600080fd5b810190602081018135600160201b81111561143257600080fd5b82018360208201111561144457600080fd5b803590602001918460208302840111600160201b8311171561146557600080fd5b9190808060200260200160405190810160405280939291908181526020018383602002808284376000920191909152509295949360208101935035915050600160201b8111156114b457600080fd5b8201836020820111156114c657600080fd5b803590602001918460208302840111600160201b831117156114e757600080fd5b9190808060200260200160405190810160405280939291908181526020018383602002808284376000920191909152509295949360208101935035915050600160201b81111561153657600080fd5b82018360208201111561154857600080fd5b803590602001918460208302840111600160201b8311171561156957600080fd5b919080806020026020016040519081016040528093929190818152602001838360200280828437600092019190915250929550613d6e945050505050565b6115af613f68565b60408051938452602084019290925282820152519081900360600190f35b6000546001600160a01b031633146116165760405162461bcd60e51b815260040180806020018281038252602281526020018061418d6022913960400191505060405180910390fd5b8082106116545760405162461bcd60e51b81526004018080602001828103825260248152602001806142c96024913960400191505060405180910390fd5b600254600090819081908190815b8681116116b85787811415611675578195505b60018803811415611684578193505b86811415611690578194505b6001870381141561169f578192505b6000918252600660205260409091205490600101611662565b506000876116e15750600280546000848152600660205260409020805490925590819055611704565b506000838152600660205260408082208054858452919092208054909255908190555b5050506000928352506006602052604080832080549284529220805490925590555050565b600254600090815b8115611750576000918252600660205260409091205490600101611731565b9150505b90565b600080546001600160a01b031633146117a15760405162461bcd60e51b815260040180806020018281038252602281526020018061418d6022913960400191505060405180910390fd5b82518451146117e15760405162461bcd60e51b815260040180806020018281038252603e81526020018061428b603e913960400191505060405180910390fd5b6117e9614039565b6040518060600160405280600081526020018660008151811061180857fe5b602002602001015181526020018560008151811061182257fe5b60209081029190910181015190915260038054600190810191829055600091825260058352604091829020845181559284015183820155908301516002909201919091559091505b85518110156118fb576040518060600160405280600260010154815260200187838151811061189557fe5b602002602001015181526020018683815181106118ae57fe5b60209081029190910181015190915260038054600190810191829055600091825260058352604091829020845181559284015183820155908301516002909201919091559092500161186a565b5061190461405d565b8861199457506040805160a08101825260028054825260208083018b81528385018b81526003805460608701908152608087018b81526001805481018082556000908152600688529990992088518155945198850198909855915194830194909455519281019290925592518051929384936119869260048501920190614092565b505060015460025550611a64565b60025460015b8a8110156119c657600082815260066020526040902054806119bc57506119c6565b915060010161199a565b506040805160a0810182526000838152600660208181528483205484528084018e81528486018e81526003805460608801908152608088018e8152600180548101808255895296865298909620875181559251948301949094555160028201559251918301919091559251805192955085939192611a4a9260048501920190614092565b505060015460009283526006602052604090922091909155505b50509695505050505050565b60015481565b600080546001600160a01b03163314611ac05760405162461bcd60e51b815260040180806020018281038252602281526020018061418d6022913960400191505060405180910390fd5b611ac8614039565b600080611adc60028963ffffffff613f7416565b9092509050600181151514611b2d576040805162461bcd60e51b8152602060048201526012602482015271696e646578206f7574206f662072616e676560701b604482015290519081900360640190fd5b86611b9b57604080516060810182526000848152600660208181528483206003908101805486528286018d81528688018d8152835460019081018086558852600586529887208851815591519882019890985596516002909701969096555492879052529091559250611c1f565b600080611bb06002858b63ffffffff613fc316565b9150915080611bbe57600091505b5060408051606081018252600083815260056020818152848320805485528185018d81528587018d81526003805460019081018083558852959094529685208651815590519381019390935594516002909201919091555493905291905592505b505050949350505050565b6000806000905060008090506060806060806060806060808d600081518110611c4f57fe5b6020026020010151604051908082528060200260200182016040528015611c80578160200160208202803883390190505b50975060005b8e600081518110611c9357fe5b6020026020010151811015611cd9578f8b81518110611cae57fe5b6020026020010151898281518110611cc257fe5b602090810291909101015260019a8b019a01611c86565b50611ce3886139ce565b8b600081518110611cf057fe5b6020026020010151604051908082528060200260200182016040528015611d21578160200160208202803883390190505b50925060005b8c600081518110611d3457fe5b6020026020010151811015611d7a578d8a81518110611d4f57fe5b6020026020010151848281518110611d6357fe5b60209081029190910101526001998a019901611d27565b508d600181518110611d8857fe5b6020026020010151604051908082528060200260200182016040528015611db9578160200160208202803883390190505b50965060005b8e600181518110611dcc57fe5b6020026020010151811015611e12578f8b81518110611de757fe5b6020026020010151888281518110611dfb57fe5b602090810291909101015260019a8b019a01611dbf565b50611e1d83886132c5565b8d600281518110611e2a57fe5b6020026020010151604051908082528060200260200182016040528015611e5b578160200160208202803883390190505b50975060005b8e600281518110611e6e57fe5b6020026020010151811015611eb4578f8b81518110611e8957fe5b6020026020010151898281518110611e9d57fe5b602090810291909101015260019a8b019a01611e61565b50611ebe8861321a565b8d600381518110611ecb57fe5b6020026020010151604051908082528060200260200182016040528015611efc578160200160208202803883390190505b50975060005b8e600381518110611f0f57fe5b6020026020010151811015611f55578f8b81518110611f2a57fe5b6020026020010151898281518110611f3e57fe5b602090810291909101015260019a8b019a01611f02565b508b600181518110611f6357fe5b6020026020010151604051908082528060200260200182016040528015611f94578160200160208202803883390190505b50925060005b8c600181518110611fa757fe5b6020026020010151811015611fed578d8a81518110611fc257fe5b6020026020010151848281518110611fd657fe5b60209081029190910101526001998a019901611f9a565b508b600281518110611ffb57fe5b602002602001015160405190808252806020026020018201604052801561202c578160200160208202803883390190505b50915060005b8c60028151811061203f57fe5b6020026020010151811015612085578d8a8151811061205a57fe5b602002602001015183828151811061206e57fe5b60209081029190910101526001998a019901612032565b508b60038151811061209357fe5b60200260200101516040519080825280602002602001820160405280156120c4578160200160208202803883390190505b50905060005b8c6003815181106120d757fe5b602002602001015181101561211d578d8a815181106120f257fe5b602002602001015182828151811061210657fe5b60209081029190910101526001998a0199016120ca565b508d60048151811061212b57fe5b602002602001015160405190808252806020026020018201604052801561215c578160200160208202803883390190505b50965060005b8e60048151811061216f57fe5b60200260200101518110156121b5578f8b8151811061218a57fe5b602002602001015188828151811061219e57fe5b602090810291909101015260019a8b019a01612162565b508d6005815181106121c357fe5b60200260200101516040519080825280602002602001820160405280156121f4578160200160208202803883390190505b50955060005b8e60058151811061220757fe5b602002602001015181101561224d578f8b8151811061222257fe5b602002602001015187828151811061223657fe5b602090810291909101015260019a8b019a016121fa565b508d60068151811061225b57fe5b602002602001015160405190808252806020026020018201604052801561228c578160200160208202803883390190505b50945060005b8e60068151811061229f57fe5b60200260200101518110156122e5578f8b815181106122ba57fe5b60200260200101518682815181106122ce57fe5b602090810291909101015260019a8b019a01612292565b508d6007815181106122f357fe5b6020026020010151604051908082528060200260200182016040528015612324578160200160208202803883390190505b50935060005b8e60078151811061233757fe5b602002602001015181101561237d578f8b8151811061235257fe5b602002602001015185828151811061236657fe5b602090810291909101015260019a8b019a0161232a565b5061238e888484848b8b8b8b612b85565b8d60088151811061239b57fe5b60200260200101516040519080825280602002602001820160405280156123cc578160200160208202803883390190505b50975060005b8e6008815181106123df57fe5b6020026020010151811015612425578f8b815181106123fa57fe5b602002602001015189828151811061240e57fe5b602090810291909101015260019a8b019a016123d2565b508d60098151811061243357fe5b6020026020010151604051908082528060200260200182016040528015612464578160200160208202803883390190505b50965060005b8e60098151811061247757fe5b60200260200101518110156124bd578f8b8151811061249257fe5b60200260200101518882815181106124a657fe5b602090810291909101015260019a8b019a0161246a565b508d600a815181106124cb57fe5b60200260200101516040519080825280602002602001820160405280156124fc578160200160208202803883390190505b50955060005b8e600a8151811061250f57fe5b6020026020010151811015612555578f8b8151811061252a57fe5b602002602001015187828151811061253e57fe5b602090810291909101015260019a8b019a01612502565b5061256188888861393b565b8d600b8151811061256e57fe5b602002602001015160405190808252806020026020018201604052801561259f578160200160208202803883390190505b50975060005b8e600b815181106125b257fe5b60200260200101518110156125f8578f8b815181106125cd57fe5b60200260200101518982815181106125e157fe5b602090810291909101015260019a8b019a016125a5565b508d600c8151811061260657fe5b6020026020010151604051908082528060200260200182016040528015612637578160200160208202803883390190505b50965060005b8e600c8151811061264a57fe5b6020026020010151811015612690578f8b8151811061266557fe5b602002602001015188828151811061267957fe5b602090810291909101015260019a8b019a0161263d565b508b60048151811061269e57fe5b60200260200101516040519080825280602002602001820160405280156126cf578160200160208202803883390190505b50925060005b8c6004815181106126e257fe5b6020026020010151811015612728578d8a815181106126fd57fe5b602002602001015184828151811061271157fe5b60209081029190910101526001998a0199016126d5565b508d600d8151811061273657fe5b6020026020010151604051908082528060200260200182016040528015612767578160200160208202803883390190505b50955060005b8e600d8151811061277a57fe5b60200260200101518110156127c0578f8b8151811061279557fe5b60200260200101518782815181106127a957fe5b602090810291909101015260019a8b019a0161276d565b506127cd88888589613080565b8d600e815181106127da57fe5b602002602001015160405190808252806020026020018201604052801561280b578160200160208202803883390190505b50975060005b8e600e8151811061281e57fe5b6020026020010151811015612864578f8b8151811061283957fe5b602002602001015189828151811061284d57fe5b602090810291909101015260019a8b019a01612811565b508d600f8151811061287257fe5b60200260200101516040519080825280602002602001820160405280156128a3578160200160208202803883390190505b50965060005b8e600f815181106128b657fe5b60200260200101518110156128fc578f8b815181106128d157fe5b60200260200101518882815181106128e557fe5b602090810291909101015260019a8b019a016128a9565b508d60108151811061290a57fe5b602002602001015160405190808252806020026020018201604052801561293b578160200160208202803883390190505b50955060005b8e60108151811061294e57fe5b6020026020010151811015612994578f8b8151811061296957fe5b602002602001015187828151811061297d57fe5b602090810291909101015260019a8b019a01612941565b506129a0888888613d6e565b8d6011815181106129ad57fe5b60200260200101516040519080825280602002602001820160405280156129de578160200160208202803883390190505b50975060005b8e6011815181106129f157fe5b6020026020010151811015612a37578f8b81518110612a0c57fe5b6020026020010151898281518110612a2057fe5b602090810291909101015260019a8b019a016129e4565b508d601281518110612a4557fe5b6020026020010151604051908082528060200260200182016040528015612a76578160200160208202803883390190505b50965060005b8e601281518110612a8957fe5b6020026020010151811015612acf578f8b81518110612aa457fe5b6020026020010151888281518110612ab857fe5b602090810291909101015260019a8b019a01612a7c565b508d601381518110612add57fe5b6020026020010151604051908082528060200260200182016040528015612b0e578160200160208202803883390190505b50955060005b8e601381518110612b2157fe5b6020026020010151811015612b67578f8b81518110612b3c57fe5b6020026020010151878281518110612b5057fe5b602090810291909101015260019a8b019a01612b14565b50612b73888888613a27565b50505050505050505050949350505050565b6000546001600160a01b03163314612bdc576040805162461bcd60e51b81526020600482015260156024820152743cb7ba9030b932903737ba103a34329037bbb732b960591b604482015290519081900360640190fd5b8651885114612c1c5760405162461bcd60e51b81526004018080602001828103825260368152602001806141af6036913960400191505060405180910390fd5b8551875114612c5c5760405162461bcd60e51b815260040180806020018281038252603681526020018061430f6036913960400191505060405180910390fd5b8351855114612c9c5760405162461bcd60e51b81526004018080602001828103825260328152602001806141e56032913960400191505060405180910390fd5b8251875114612cdc5760405162461bcd60e51b81526004018080602001828103825260368152602001806142556036913960400191505060405180910390fd5b8051875114612d1c5760405162461bcd60e51b815260040180806020018281038252603b815260200180614119603b913960400191505060405180910390fd5b6000805b8451811015612d4e57848181518110612d3557fe5b6020026020010151820191508080600101915050612d20565b5080865114612d8e5760405162461bcd60e51b81526004018080602001828103825260478152602001806143ad6047913960600191505060405180910390fd5b60006060808281815b8951811015612f8857898181518110612dac57fe5b6020026020010151604051908082528060200260200182016040528015612ddd578160200160208202803883390190505b509450898181518110612dec57fe5b6020026020010151604051908082528060200260200182016040528015612e1d578160200160208202803883390190505b50935060005b8a8281518110612e2f57fe5b6020026020010151811015612ea1578c8781518110612e4a57fe5b6020026020010151868281518110612e5e57fe5b6020026020010181815250508b8781518110612e7657fe5b6020026020010151858281518110612e8a57fe5b602090810291909101015260019687019601612e23565b50878181518110612eae57fe5b6020026020010151604051908082528060200260200182016040528015612edf578160200160208202803883390190505b50915060005b888281518110612ef157fe5b6020026020010151811015612f3757898481518110612f0c57fe5b6020026020010151838281518110612f2057fe5b602090810291909101015260019384019301612ee5565b50612f7f8f8281518110612f4757fe5b60200260200101518f8381518110612f5b57fe5b60200260200101518f8481518110612f6f57fe5b6020026020010151888887611757565b50600101612d97565b505050505050505050505050505050565b565b600080546001600160a01b03163314612fe55760405162461bcd60e51b815260040180806020018281038252602281526020018061418d6022913960400191505060405180910390fd5b8161303057600280546000908152600660205260408120805482825560018201839055928101829055600381018290559061302360048301826140dd565b505060025550600161307b565b60025460005b6001840381101561305a576000918252600660205260409091205490600101613036565b50600081815260066020526040808220805483529082205492909152555060015b919050565b6000546001600160a01b031633146130d7576040805162461bcd60e51b81526020600482015260156024820152743cb7ba9030b932903737ba103a34329037bbb732b960591b604482015290519081900360640190fd5b82518451146131175760405162461bcd60e51b815260040180806020018281038252603f815260200180614345603f913960400191505060405180910390fd5b80518251146131575760405162461bcd60e51b815260040180806020018281038252603e81526020018061428b603e913960400191505060405180910390fd5b83518251146131975760405162461bcd60e51b815260040180806020018281038252603e815260200180614217603e913960400191505060405180910390fd5b60005b8451811015613204576131fb8582815181106131b257fe5b60200260200101518583815181106131c657fe5b60200260200101518584815181106131da57fe5b60200260200101518585815181106131ee57fe5b6020026020010151611a76565b5060010161319a565b5050505050565b6000546001600160a01b031681565b80516402540be3ff90600019015b600081126132c05782818151811061323c57fe5b602002602001015182116132815760405162461bcd60e51b815260040180806020018281038252602f8152602001806143f4602f913960400191505060405180910390fd5b61329d83828151811061329057fe5b6020026020010151612f9b565b508281815181106132aa57fe5b6020908102919091010151915060001901613228565b505050565b80518251146133055760405162461bcd60e51b81526004018080602001828103825260228152602001806142ed6022913960400191505060405180910390fd5b60005b82518110156132c057604051806060016040528084838151811061332857fe5b6020026020010151815260200183838151811061334157fe5b602090810291909101810151825260019181018290526004805460009081526007835260409081902085518155928501518385015593909301516002909101805460ff19169115159190911790558154810190915501613308565b600080546001600160a01b031633146133e65760405162461bcd60e51b815260040180806020018281038252602281526020018061418d6022913960400191505060405180910390fd5b6000806133fa60028663ffffffff613f7416565b909250905060018115151461344b576040805162461bcd60e51b8152602060048201526012602482015271696e646578206f7574206f662072616e676560701b604482015290519081900360640190fd5b600082815260066020526040902060030154846134a2576000908152600560209081526040808320805484825560018083018690556002909201859055958452600690925290912060030192909255509050613543565b6134b8600284600019880163ffffffff613fc316565b9250905060018215151461350f576040805162461bcd60e51b81526020600482015260196024820152786f7074696f6e20696e646578206f7574206f662072616e676560381b604482015290519081900360640190fd5b6000908152600560205260408082208054835290822080549091558181556001808201839055600290910191909155925050505b92915050565b600080805b838110156136f35760008061358087848151811061356857fe5b60200260200101516002613f7490919063ffffffff16565b90925090506001811515146135dc576040805162461bcd60e51b815260206004820152601760248201527f6974656d20696e646578206f7574206f662072616e6765000000000000000000604482015290519081900360640190fd5b6136078288888601815181106135ee57fe5b60200260200101516002613fc39092919063ffffffff16565b909250905060018115151461365f576040805162461bcd60e51b81526020600482015260196024820152786f7074696f6e20696e646578206f7574206f662072616e676560381b604482015290519081900360640190fd5b6000828152600560205260408120600201549490940193805b888860020286018151811061368957fe5b60200260200101518110156136e357600260050160008a8a6003028501815181106136b057fe5b60200260200101518152602001908152602001600020600101548601955081806001019250508080600101915050613678565b50506001909201915061354e9050565b509392505050565b60008060608080838061371560028963ffffffff613f7416565b9092509050600181151514613766576040805162461bcd60e51b8152602060048201526012602482015271696e646578206f7574206f662072616e676560701b604482015290519081900360640190fd5b61376e61405d565b600083815260066020908152604091829020825160a081018452815481526001820154818401526002820154818501526003820154606082015260048201805485518186028101860190965280865291949293608086019392908301828280156137f757602002820191906000526020600020905b8154815260200190600101908083116137e3575b5050509190925250505060608082015191925090819060009081905b801561383357600090815260056020526040902054600190910190613813565b8160405190808252806020026020018201604052801561385d578160200160208202803883390190505b5094508160405190808252806020026020018201604052801561388a578160200160208202803883390190505b509350856060015190505b80156139155760008181526005602052604090206001015485518690859081106138bb57fe5b60200260200101818152505060026003016000828152602001908152602001600020600201548484815181106138ed57fe5b6020908102919091018101919091526000918252600590526040902054600190920191613895565b50505060208301516040840151608090940151909c939b50919950975095509350505050565b6000805b8451811015613204576000600184838151811061395857fe5b60200260200101510390505b600081126139a85761399e86838151811061397b57fe5b6020026020010151868386018151811061399157fe5b602002602001015161339c565b5060001901613964565b508281815181106139b557fe5b602002602001015182019150808060010191505061393f565b60005b8151811015613a23576000600260050160008484815181106139ef57fe5b6020908102919091018101518252810191909152604001600020600201805460ff19169115159190911790556001016139d1565b5050565b8251815114613a675760405162461bcd60e51b81526004018080602001828103825260298152602001806143846029913960400191505060405180910390fd5b6000805b8251811015613a9957828181518110613a8057fe5b6020026020010151820191508080600101915050613a6b565b5082518114613ad95760405162461bcd60e51b81526004018080602001828103825260398152602001806141546039913960400191505060405180910390fd5b6000805b8351811015613bc657600080613af888848151811061356857fe5b9092509050600181151514613b49576040805162461bcd60e51b8152602060048201526012602482015271696e646578206f7574206f662072616e676560701b604482015290519081900360640190fd5b60005b868481518110613b5857fe5b6020026020010151811015613bbb5760026004016000848152602001908152602001600020600401888681518110613b8c57fe5b602090810291909101810151825460018181018555600094855292909320909201919091559485019401613b4c565b505050600101613add565b505050505050565b6000546001600160a01b03163314613c175760405162461bcd60e51b815260040180806020018281038252602281526020018061418d6022913960400191505060405180910390fd5b808210613c555760405162461bcd60e51b81526004018080602001828103825260248152602001806142c96024913960400191505060405180910390fd5b60025460005b84811015613c7c576000918252600660205260409091205490600101613c5b565b50600081815260066020526040812060030154819081908190815b878111613ced5788811415613caa578195505b60018903811415613cb9578193505b87811415613cc5578194505b60018803811415613cd4578192505b6000918252600560205260409091205490600101613c97565b50600088613d2457506000868152600660209081526040808320600301805486855260059093529220805490925590819055613d47565b506000838152600560205260408082208054858452919092208054909255908190555b50505060009283525060056020526040808320805492845292208054909255905550505050565b8251815114613dae5760405162461bcd60e51b81526004018080602001828103825260298152602001806143846029913960400191505060405180910390fd5b6000805b8251811015613de057828181518110613dc757fe5b6020026020010151820191508080600101915050613db2565b5082518114613e205760405162461bcd60e51b81526004018080602001828103825260398152602001806141546039913960400191505060405180910390fd5b6000805b8351811015613bc657600080613e3f88848151811061356857fe5b9092509050600181151514613e90576040805162461bcd60e51b8152602060048201526012602482015271696e646578206f7574206f662072616e676560701b604482015290519081900360640190fd5b60005b868481518110613e9f57fe5b6020026020010151811015613f5d5760005b600084815260066020526040902060040154811015613f5457888681518110613ed657fe5b6020026020010151600260040160008681526020019081526020016000206004018281548110613f0257fe5b90600052602060002001541415613f4c576000848152600660205260409020600401805461270f919083908110613f3557fe5b600091825260209091200155600190950194613f54565b600101613eb1565b50600101613e93565b505050600101613e24565b60025460035460045483565b81546000908190815b84811015613fb4576000918252600486016020526040909120549081613fac575060009250829150613fbc9050565b600101613f7d565b509150600190505b9250929050565b600080600080613fd38787613f74565b600082815260048a0160205260408120600301549294509092505b8681101561402757600091825260038901602052604090912054908161401f57506000945084935061403192505050565b600101613fee565b5093506001925050505b935093915050565b60405180606001604052806000815260200160008019168152602001600081525090565b6040518060a0016040528060008152602001600080191681526020016000801916815260200160008152602001606081525090565b8280548282559060005260206000209081019282156140cd579160200282015b828111156140cd5782518255916020019190600101906140b2565b506140d99291506140fe565b5090565b50805460008255906000526020600020908101906140fb91906140fe565b50565b61175491905b808211156140d9576000815560010161410456fe746865206e756d626572206f66206974656d206e616d657320616e64206d656e752e65787472617320666c61677320646f206e6f74206d6174636874686520666c6167732061726520696e636f6e73697374656e74207769746820746865206d656e752e6578747261732070617373656420696e796f7520617265206e6f7420746865206f776e6572206f662074686973206d656e75746865206e756d626572206f66206974656d20696e646578657320616e64206974656d206e616d657320646f206e6f74206d61746368746865206e756d626572206f66206d656e752e6f7074696f6e7320616e642070726963657320646f206e6f74206d61746368746865206e756d626572206f66206974656d49447320646f6573206e6f74206d6174636820746865206e756d626572206f66206f7074696f6e4e616d6573746865206e756d626572206f66206974656d206e616d657320616e64206f7074696f6e20666c61677320646f206e6f74206d61746368746865206e756d626572206f66206d656e752e6f7074696f6e7320646f6573206e6f74206d6174636820746865206e756d626572206f6620707269636573696e6465782031206d75737420626520736d616c6c6572207468616e20696e646578203274686520636f756e74206f662074686520706172616d7320646f6e74206d61746368746865206e756d626572206f66206465736372697074696f6e7320616e64206974656d206e616d657320646f206e6f74206d61746368746865206e756d626572206f66206974656d49647320616e6420696e646578657320746f20696e7365727420617420617265206e6f74207468652073616d65696e636f6e73697374656e74206e756d626572206f6620666c61677320616e64206974656d20696473746865206e756d626572206f66206d656e752e6f7074696f6e7320616e64207468652073756d206f6620746865206f7074696f6e20666c61677320646f206e6f74206d61746368746865206172726179206f66206974656d496473206d75737420626520696e20617373656e64696e67206f72646572a265627a7a7231582033ee7eebbaab773f86762b8f5d56ccd8b618ced7b3b2e889620e5fc28333e29664736f6c634300050c0032",
  "source": "pragma solidity ^0.5.0;\n\n //import \"./lib.sol\";\n import \"./Order.sol\";\n //import \"./RestaurantFactory.sol\";\n import \"./CustomerFactory.sol\";\n import \"./Controller.sol\";\n import \"./Menu.sol\";\n\ncontract Restaurant {\n\n    // additional variables to add\n\n\tuint public id;\n\tbytes32 public name; \n\n\tbytes public location; \n    uint public longitude; \n    uint public latitude; \n\n    bytes public logoURI; \n    bytes32 public logoHash; \n\n\n\tbytes32 public contactNumber; \n\n\taddress payable public owner;  \n    address public controllerAddress;\n\taddress public restaurantFactoryAddress;\n\n\n    struct order{bool open; address orderAddress;}\n\tuint public totalOrders;\n    // todo: make orders private and accessed via method for only rider and restaurant\n\tmapping(uint => order) public orders; // must be a better way to store the orders\n\n    uint totalPay;\n\t\n    Menu menu;\n\n    enum restaurantState{acceptedOrder, preparingCargo, readyForCollection, HandedOver}\n\t\n    event OrderMadeEvent(address orderAddress);\n    event MenuUpdated();\n\n\tconstructor(address _controller, address payable _owner, \n                uint _id, bytes32 _name, \n                bytes memory _address, uint _latitude, uint _longitude, \n                bytes32 _contactNumber\n                ) public {\n        // itemOptions and prices will have to be parsed as they are 2d arrays\n\t\tid = _id;\n\t\tname = _name;\n\t\t\n        location = _address;\n        latitude = _latitude;\n        longitude = _longitude;\n\n\t\tcontactNumber = _contactNumber;\n\t\ttotalOrders = 0;\n        totalPay = 0;\n\n        controllerAddress = _controller;\n\t\towner = _owner;\n\t\trestaurantFactoryAddress = msg.sender;\n\n        menu = new Menu(_owner);\n\t}\n\n    function getMenuAddress() public view returns (address) {\n        return address(menu);\n    }\n\n\n    function updateLogo(bytes calldata imageURI, bytes32 imageHash) external{\n        require(msg.sender == owner);\n        logoURI = imageURI;\n        logoHash = imageHash;\n    }\n    \n\n    function getOrderPrice(uint[] memory integers, uint itemCount) public view returns (uint){\n        return menu.getOrderPrice(integers, itemCount);\n    }\n    \n    // uint[] calldata itemIds, uint[] calldata optionIds, uint[] calldata extraIds, uint[] calldata extraFlags, uint deliveryFee, uint price\n    function makeOrder(uint[] calldata _integers, uint itemCount, bytes32 riderKeyHash) external payable returns (address orderAddress) {\n        //require this comes from a customer smart contract, maybe worth moving this to the order smart contract\n        require(CustomerFactory(Controller(controllerAddress).customerFactoryAddress()).customerExists(msg.sender), \"Customer doesnt exist\");\n\n        uint[] memory integers = _integers;\n        integers[0] = totalOrders;\n        \n\t\tOrder newOrder = (new Order).value(msg.value)(integers, itemCount, controllerAddress, msg.sender, riderKeyHash);\n\t\torders[totalOrders] = order(true,address(newOrder));\n        totalOrders ++;\n\n        emit OrderMadeEvent(orders[totalOrders - 1].orderAddress);\n\n\t\treturn orders[totalOrders - 1].orderAddress;       \n    }\n\n    function setStatus(address orderAddress, uint status) public{\n        require(msg.sender == owner, \"you are not the owner\");\n        Order(orderAddress).setOrderStatus(status);\n    }\n\n    function pay() external payable {\n        totalPay += msg.value;\n        owner.transfer(msg.value);\n    } \n\n    function() external payable {\n\n    }\n\n\n    // Setters\n    function updateRestaurant(bytes32 _name, bytes32 _number, address payable _owner, bytes memory _location, uint _latitude, uint _longitude, bytes memory _logoURI, bytes32 _logoHash) public {\n        require(msg.sender == owner);\n        if(_name.length > 0 )\n            setName(_name);\n        if(_number.length > 0 )\n            setNumber(_number);\n        if(_owner != address(0))\n            setOwner(_owner);\n        if(_location.length > 0)\n            setLocation(_location, _latitude, _longitude);\n        if(_logoURI.length > 0)\n            setName(_name);\n    }\n    function setName(bytes32 _name) public {\n        require(msg.sender == owner);\n        name = _name;\n    }\n    function setNumber(bytes32 _number) public {\n        require(msg.sender == owner);\n        contactNumber = _number;\n    }\n    function setOwner(address payable _owner) public {\n        require(msg.sender == owner);\n        owner = _owner;\n    }\n    function setLocation(bytes memory _location, uint _latitude, uint _longitude) public {\n        require(msg.sender == owner);\n        location = _location;\n        latitude - _latitude;\n        longitude = _longitude;\n    }\n    function setLogo(bytes memory _logoURI, bytes32 _logoHash) public {\n        require(msg.sender == owner);\n        logoURI = _logoURI;\n        logoHash = _logoHash;\n    }\n}",
  "sourcePath": "/home/george/Documents/WorkSpace/TryAByte/contracts/Restaurant.sol",
  "compiler": {
    "name": "solc",
    "version": "0.5.12+commit.7709ece9.Emscripten.clang"
  },
  "schemaVersion": "3.0.19",
  "updatedAt": "2020-01-17T17:19:25.336Z",
  "networkType": "ethereum",
  "devdoc": {
    "methods": {}
  },
  "userdoc": {
    "methods": {}
  }
}