{
  "contractName": "Restaurant",
  "abi": [
    {
      "inputs": [
        {
          "internalType": "address",
          "name": "_controller",
          "type": "address"
        },
        {
          "internalType": "address payable",
          "name": "_owner",
          "type": "address"
        },
        {
          "internalType": "uint256",
          "name": "_id",
          "type": "uint256"
        },
        {
          "internalType": "bytes32",
          "name": "_name",
          "type": "bytes32"
        },
        {
          "internalType": "bytes",
          "name": "_address",
          "type": "bytes"
        },
        {
          "internalType": "uint256",
          "name": "_latitude",
          "type": "uint256"
        },
        {
          "internalType": "uint256",
          "name": "_longitude",
          "type": "uint256"
        },
        {
          "internalType": "bytes32",
          "name": "_contactNumber",
          "type": "bytes32"
        }
      ],
      "payable": false,
      "stateMutability": "nonpayable",
      "type": "constructor"
    },
    {
      "anonymous": false,
      "inputs": [],
      "name": "MenuUpdated",
      "type": "event"
    },
    {
      "anonymous": false,
      "inputs": [
        {
          "indexed": false,
          "internalType": "address",
          "name": "orderAddress",
          "type": "address"
        }
      ],
      "name": "OrderMadeEvent",
      "type": "event"
    },
    {
      "payable": true,
      "stateMutability": "payable",
      "type": "fallback"
    },
    {
      "constant": true,
      "inputs": [],
      "name": "contactNumber",
      "outputs": [
        {
          "internalType": "bytes32",
          "name": "",
          "type": "bytes32"
        }
      ],
      "payable": false,
      "stateMutability": "view",
      "type": "function"
    },
    {
      "constant": true,
      "inputs": [],
      "name": "controllerAddress",
      "outputs": [
        {
          "internalType": "address",
          "name": "",
          "type": "address"
        }
      ],
      "payable": false,
      "stateMutability": "view",
      "type": "function"
    },
    {
      "constant": true,
      "inputs": [],
      "name": "id",
      "outputs": [
        {
          "internalType": "uint256",
          "name": "",
          "type": "uint256"
        }
      ],
      "payable": false,
      "stateMutability": "view",
      "type": "function"
    },
    {
      "constant": true,
      "inputs": [],
      "name": "latitude",
      "outputs": [
        {
          "internalType": "uint256",
          "name": "",
          "type": "uint256"
        }
      ],
      "payable": false,
      "stateMutability": "view",
      "type": "function"
    },
    {
      "constant": true,
      "inputs": [],
      "name": "location",
      "outputs": [
        {
          "internalType": "bytes",
          "name": "",
          "type": "bytes"
        }
      ],
      "payable": false,
      "stateMutability": "view",
      "type": "function"
    },
    {
      "constant": true,
      "inputs": [],
      "name": "logoHash",
      "outputs": [
        {
          "internalType": "bytes32",
          "name": "",
          "type": "bytes32"
        }
      ],
      "payable": false,
      "stateMutability": "view",
      "type": "function"
    },
    {
      "constant": true,
      "inputs": [],
      "name": "logoURI",
      "outputs": [
        {
          "internalType": "bytes",
          "name": "",
          "type": "bytes"
        }
      ],
      "payable": false,
      "stateMutability": "view",
      "type": "function"
    },
    {
      "constant": true,
      "inputs": [],
      "name": "longitude",
      "outputs": [
        {
          "internalType": "uint256",
          "name": "",
          "type": "uint256"
        }
      ],
      "payable": false,
      "stateMutability": "view",
      "type": "function"
    },
    {
      "constant": true,
      "inputs": [],
      "name": "name",
      "outputs": [
        {
          "internalType": "bytes32",
          "name": "",
          "type": "bytes32"
        }
      ],
      "payable": false,
      "stateMutability": "view",
      "type": "function"
    },
    {
      "constant": true,
      "inputs": [
        {
          "internalType": "uint256",
          "name": "",
          "type": "uint256"
        }
      ],
      "name": "orders",
      "outputs": [
        {
          "internalType": "bool",
          "name": "open",
          "type": "bool"
        },
        {
          "internalType": "address",
          "name": "orderAddress",
          "type": "address"
        }
      ],
      "payable": false,
      "stateMutability": "view",
      "type": "function"
    },
    {
      "constant": true,
      "inputs": [],
      "name": "owner",
      "outputs": [
        {
          "internalType": "address payable",
          "name": "",
          "type": "address"
        }
      ],
      "payable": false,
      "stateMutability": "view",
      "type": "function"
    },
    {
      "constant": true,
      "inputs": [],
      "name": "restaurantFactoryAddress",
      "outputs": [
        {
          "internalType": "address",
          "name": "",
          "type": "address"
        }
      ],
      "payable": false,
      "stateMutability": "view",
      "type": "function"
    },
    {
      "constant": true,
      "inputs": [],
      "name": "totalOrders",
      "outputs": [
        {
          "internalType": "uint256",
          "name": "",
          "type": "uint256"
        }
      ],
      "payable": false,
      "stateMutability": "view",
      "type": "function"
    },
    {
      "constant": true,
      "inputs": [],
      "name": "getMenuAddress",
      "outputs": [
        {
          "internalType": "address",
          "name": "",
          "type": "address"
        }
      ],
      "payable": false,
      "stateMutability": "view",
      "type": "function"
    },
    {
      "constant": false,
      "inputs": [
        {
          "internalType": "bytes",
          "name": "imageURI",
          "type": "bytes"
        },
        {
          "internalType": "bytes32",
          "name": "imageHash",
          "type": "bytes32"
        }
      ],
      "name": "updateLogo",
      "outputs": [],
      "payable": false,
      "stateMutability": "nonpayable",
      "type": "function"
    },
    {
      "constant": true,
      "inputs": [
        {
          "internalType": "uint256[]",
          "name": "integers",
          "type": "uint256[]"
        },
        {
          "internalType": "uint256",
          "name": "itemCount",
          "type": "uint256"
        }
      ],
      "name": "getOrderPrice",
      "outputs": [
        {
          "internalType": "uint256",
          "name": "",
          "type": "uint256"
        }
      ],
      "payable": false,
      "stateMutability": "view",
      "type": "function"
    },
    {
      "constant": false,
      "inputs": [
        {
          "internalType": "uint256[]",
          "name": "_integers",
          "type": "uint256[]"
        },
        {
          "internalType": "uint256",
          "name": "itemCount",
          "type": "uint256"
        },
        {
          "internalType": "bytes32",
          "name": "riderKeyHash",
          "type": "bytes32"
        }
      ],
      "name": "makeOrder",
      "outputs": [
        {
          "internalType": "address",
          "name": "orderAddress",
          "type": "address"
        }
      ],
      "payable": true,
      "stateMutability": "payable",
      "type": "function"
    },
    {
      "constant": false,
      "inputs": [
        {
          "internalType": "address",
          "name": "orderAddress",
          "type": "address"
        },
        {
          "internalType": "uint256",
          "name": "status",
          "type": "uint256"
        }
      ],
      "name": "setStatus",
      "outputs": [],
      "payable": false,
      "stateMutability": "nonpayable",
      "type": "function"
    },
    {
      "constant": false,
      "inputs": [],
      "name": "pay",
      "outputs": [],
      "payable": true,
      "stateMutability": "payable",
      "type": "function"
    },
    {
      "constant": false,
      "inputs": [
        {
          "internalType": "bytes32",
          "name": "_name",
          "type": "bytes32"
        },
        {
          "internalType": "bytes32",
          "name": "_number",
          "type": "bytes32"
        },
        {
          "internalType": "address payable",
          "name": "_owner",
          "type": "address"
        },
        {
          "internalType": "bytes",
          "name": "_location",
          "type": "bytes"
        },
        {
          "internalType": "uint256",
          "name": "_latitude",
          "type": "uint256"
        },
        {
          "internalType": "uint256",
          "name": "_longitude",
          "type": "uint256"
        },
        {
          "internalType": "bytes",
          "name": "_logoURI",
          "type": "bytes"
        },
        {
          "internalType": "bytes32",
          "name": "_logoHash",
          "type": "bytes32"
        }
      ],
      "name": "updateRestaurant",
      "outputs": [],
      "payable": false,
      "stateMutability": "nonpayable",
      "type": "function"
    },
    {
      "constant": false,
      "inputs": [
        {
          "internalType": "bytes32",
          "name": "_name",
          "type": "bytes32"
        }
      ],
      "name": "setName",
      "outputs": [],
      "payable": false,
      "stateMutability": "nonpayable",
      "type": "function"
    },
    {
      "constant": false,
      "inputs": [
        {
          "internalType": "bytes32",
          "name": "_number",
          "type": "bytes32"
        }
      ],
      "name": "setNumber",
      "outputs": [],
      "payable": false,
      "stateMutability": "nonpayable",
      "type": "function"
    },
    {
      "constant": false,
      "inputs": [
        {
          "internalType": "address payable",
          "name": "_owner",
          "type": "address"
        }
      ],
      "name": "setOwner",
      "outputs": [],
      "payable": false,
      "stateMutability": "nonpayable",
      "type": "function"
    },
    {
      "constant": false,
      "inputs": [
        {
          "internalType": "bytes",
          "name": "_location",
          "type": "bytes"
        },
        {
          "internalType": "uint256",
          "name": "_latitude",
          "type": "uint256"
        },
        {
          "internalType": "uint256",
          "name": "_longitude",
          "type": "uint256"
        }
      ],
      "name": "setLocation",
      "outputs": [],
      "payable": false,
      "stateMutability": "nonpayable",
      "type": "function"
    },
    {
      "constant": false,
      "inputs": [
        {
          "internalType": "bytes",
          "name": "_logoURI",
          "type": "bytes"
        },
        {
          "internalType": "bytes32",
          "name": "_logoHash",
          "type": "bytes32"
        }
      ],
      "name": "setLogo",
      "outputs": [],
      "payable": false,
      "stateMutability": "nonpayable",
      "type": "function"
    }
  ],
  "bytecode": "0x60806040523480156200001157600080fd5b506040516200502e3803806200502e83398181016040526101008110156200003857600080fd5b81516020830151604080850151606086015160808701805193519597949692959194919392820192846401000000008211156200007457600080fd5b9083019060208201858111156200008a57600080fd5b8251640100000000811182820188101715620000a557600080fd5b82525081516020918201929091019080838360005b83811015620000d4578181015183820152602001620000ba565b50505050905090810190601f168015620001025780820380516001836020036101000a031916815260200191505b506040908152602082810151918301516060909301516000899055600188905586519295509293506200013b91600291870190620001fe565b506004839055600382905560078190556000600b819055600d55600980546001600160a01b03808b166001600160a01b03199283161790925560088054928a1692821692909217909155600a8054909116331790556040518790620001a09062000283565b6001600160a01b03909116815260405190819003602001906000f080158015620001ce573d6000803e3d6000fd5b50600e80546001600160a01b0319166001600160a01b039290921691909117905550620002b19650505050505050565b828054600181600116156101000203166002900490600052602060002090601f016020900481019282601f106200024157805160ff191683800117855562000271565b8280016001018555821562000271579182015b828111156200027157825182559160200191906001019062000254565b506200027f92915062000291565b5090565b61264380620029eb83390190565b620002ae91905b808211156200027f576000815560010162000298565b90565b61272a80620002c16000396000f3fe608060405260043610620001885760003560e01c80636bb38b2811620000e5578063a85c38ef1162000097578063c1f0f00d116200006d578063c1f0f00d14620007ae578063df7be1ca1462000868578063f1d4b2c51462000880578063f9a9525e14620008ae5762000188565b8063a85c38ef146200068e578063af640d0f14620006df578063b21dc38a14620006f75762000188565b80636bb38b28146200041c57806376af633c14620004345780637e29b003146200044c5780637e55d59c14620005b75780638da5cb5b14620005f4578063a64f207a146200060c5762000188565b80634fd7d76a116200013f5780634fd7d76a1462000259578063516f279e14620002715780635863bebe1462000301578063589af69c14620003be5780635ac801fe14620003d657806368db65a414620004045762000188565b806301751d41146200018a57806306fdde0314620001be57806313af403514620001e85780631b9265b8146200021f5780631d83440914620002295780634b24ea471462000241575b005b3480156200019757600080fd5b50620001a262000928565b604080516001600160a01b039092168252519081900360200190f35b348015620001cb57600080fd5b50620001d662000938565b60408051918252519081900360200190f35b348015620001f557600080fd5b5062000188600480360360208110156200020e57600080fd5b50356001600160a01b03166200093e565b6200018862000978565b3480156200023657600080fd5b50620001d6620009bf565b3480156200024e57600080fd5b50620001a2620009c5565b3480156200026657600080fd5b50620001d6620009d4565b3480156200027e57600080fd5b5062000289620009da565b6040805160208082528351818301528351919283929083019185019080838360005b83811015620002c5578181015183820152602001620002ab565b50505050905090810190601f168015620002f35780820380516001836020036101000a031916815260200191505b509250505060405180910390f35b3480156200030e57600080fd5b5062000188600480360360608110156200032757600080fd5b810190602081018135600160201b8111156200034257600080fd5b8201836020820111156200035557600080fd5b803590602001918460018302840111600160201b831117156200037757600080fd5b91908080601f016020809104026020016040519081016040528093929190818152602001838380828437600092019190915250929550508235935050506020013562000a69565b348015620003cb57600080fd5b50620001d662000a9e565b348015620003e357600080fd5b506200018860048036036020811015620003fc57600080fd5b503562000aa4565b3480156200041157600080fd5b50620001a262000ac1565b3480156200042957600080fd5b506200028962000ad0565b3480156200044157600080fd5b50620001d662000b2e565b3480156200045957600080fd5b506200018860048036036101008110156200047357600080fd5b8135916020810135916001600160a01b036040830135169190810190608081016060820135600160201b811115620004aa57600080fd5b820183602082011115620004bd57600080fd5b803590602001918460018302840111600160201b83111715620004df57600080fd5b91908080601f0160208091040260200160405190810160405280939291908181526020018383808284376000920191909152509295843595602086013595919450925060608101915060400135600160201b8111156200053e57600080fd5b8201836020820111156200055157600080fd5b803590602001918460018302840111600160201b831117156200057357600080fd5b91908080601f016020809104026020016040519081016040528093929190818152602001838380828437600092019190915250929550509135925062000b34915050565b348015620005c457600080fd5b506200018860048036036040811015620005dd57600080fd5b506001600160a01b03813516906020013562000baf565b3480156200060157600080fd5b50620001a262000c6b565b3480156200061957600080fd5b5062000188600480360360408110156200063257600080fd5b810190602081018135600160201b8111156200064d57600080fd5b8201836020820111156200066057600080fd5b803590602001918460018302840111600160201b831117156200068257600080fd5b91935091503562000c7a565b3480156200069b57600080fd5b50620006bc60048036036020811015620006b457600080fd5b503562000ca8565b6040805192151583526001600160a01b0390911660208301528051918290030190f35b348015620006ec57600080fd5b50620001d662000ccd565b3480156200070457600080fd5b50620001d6600480360360408110156200071d57600080fd5b810190602081018135600160201b8111156200073857600080fd5b8201836020820111156200074b57600080fd5b803590602001918460208302840111600160201b831117156200076d57600080fd5b919080806020026020016040519081016040528093929190818152602001838360200280828437600092019190915250929550509135925062000cd3915050565b348015620007bb57600080fd5b506200018860048036036040811015620007d457600080fd5b810190602081018135600160201b811115620007ef57600080fd5b8201836020820111156200080257600080fd5b803590602001918460018302840111600160201b831117156200082457600080fd5b91908080601f016020809104026020016040519081016040528093929190818152602001838380828437600092019190915250929550509135925062000d9b915050565b3480156200087557600080fd5b50620001d662000dcf565b3480156200088d57600080fd5b506200018860048036036020811015620008a657600080fd5b503562000dd5565b620001a260048036036060811015620008c657600080fd5b810190602081018135600160201b811115620008e157600080fd5b820183602082011115620008f457600080fd5b803590602001918460208302840111600160201b831117156200091657600080fd5b91935091508035906020013562000df2565b600e546001600160a01b03165b90565b60015481565b6008546001600160a01b031633146200095657600080fd5b600880546001600160a01b0319166001600160a01b0392909216919091179055565b600d8054349081019091556008546040516001600160a01b039091169180156108fc02916000818181858888f19350505050158015620009bc573d6000803e3d6000fd5b50565b600b5481565b6009546001600160a01b031681565b60045481565b6002805460408051602060018416156101000260001901909316849004601f8101849004840282018401909252818152929183018282801562000a615780601f1062000a355761010080835404028352916020019162000a61565b820191906000526020600020905b81548152906001019060200180831162000a4357829003601f168201915b505050505081565b6008546001600160a01b0316331462000a8157600080fd5b825162000a96906002906020860190620010de565b506003555050565b60035481565b6008546001600160a01b0316331462000abc57600080fd5b600155565b600a546001600160a01b031681565b6005805460408051602060026001851615610100026000190190941693909304601f8101849004840282018401909252818152929183018282801562000a615780601f1062000a355761010080835404028352916020019162000a61565b60075481565b6008546001600160a01b0316331462000b4c57600080fd5b62000b578862000aa4565b62000b628762000dd5565b6001600160a01b0386161562000b7d5762000b7d866200093e565b84511562000b925762000b9285858562000a69565b81511562000ba55762000ba58862000aa4565b5050505050505050565b6008546001600160a01b0316331462000c07576040805162461bcd60e51b81526020600482015260156024820152743cb7ba9030b932903737ba103a34329037bbb732b960591b604482015290519081900360640190fd5b816001600160a01b031663e9132c42826040518263ffffffff1660e01b815260040180828152602001915050600060405180830381600087803b15801562000c4e57600080fd5b505af115801562000c63573d6000803e3d6000fd5b505050505050565b6008546001600160a01b031681565b6008546001600160a01b0316331462000c9257600080fd5b62000ca06005848462001163565b506006555050565b600c6020526000908152604090205460ff81169061010090046001600160a01b031682565b60005481565b600e546040805163590ee1c560e11b815260248101849052600481019182528451604482015284516000936001600160a01b03169263b21dc38a9287928792918291606490910190602080870191028083838c5b8381101562000d4157818101518382015260200162000d27565b50505050905001935050505060206040518083038186803b15801562000d6657600080fd5b505afa15801562000d7b573d6000803e3d6000fd5b505050506040513d602081101562000d9257600080fd5b50519392505050565b6008546001600160a01b0316331462000db357600080fd5b815162000dc8906005906020850190620010de565b5060065550565b60065481565b6008546001600160a01b0316331462000ded57600080fd5b600755565b60095460408051631915796b60e21b815290516000926001600160a01b031691636455e5ac916004808301926020929190829003018186803b15801562000e3857600080fd5b505afa15801562000e4d573d6000803e3d6000fd5b505050506040513d602081101562000e6457600080fd5b505160408051630d13601360e31b815233600482015290516001600160a01b039092169163689b009891602480820192602092909190829003018186803b15801562000eaf57600080fd5b505afa15801562000ec4573d6000803e3d6000fd5b505050506040513d602081101562000edb57600080fd5b505162000f27576040805162461bcd60e51b815260206004820152601560248201527410dd5cdd1bdb595c88191bd95cdb9d08195e1a5cdd605a1b604482015290519081900360640190fd5b6060858580806020026020016040519081016040528093929190818152602001838360200280828437600092018290525060095460405195965090943494508693508992506001600160a01b03909116903390899062000f8790620011d6565b60208082018690526001600160a01b038086166040840152841660608301526080820183905260a08083528751908301528651829160c0830191898201910280838360005b8381101562000fe657818101518382015260200162000fcc565b5050505090500196505050505050506040518091039082f08015801562001011573d6000803e3d6000fd5b5060408051808201825260018082526001600160a01b038481166020808501918252600b80546000908152600c835287812096518754945160ff1990951690151517610100600160a81b031916610100948616850217909655805494850190559284529284902054845193900416825291519294507f6ad6ccf0214624cc1ab014b24a7601698f45e6a0d07edcbab143606784ed78fb93508290030190a15050600b54600019016000908152600c602052604090205461010090046001600160a01b031695945050505050565b828054600181600116156101000203166002900490600052602060002090601f016020900481019282601f106200112157805160ff191683800117855562001151565b8280016001018555821562001151579182015b828111156200115157825182559160200191906001019062001134565b506200115f929150620011e4565b5090565b828054600181600116156101000203166002900490600052602060002090601f016020900481019282601f10620011a65782800160ff1982351617855562001151565b8280016001018555821562001151579182015b8281111562001151578235825591602001919060010190620011b9565b6114f4806200120283390190565b6200093591905b808211156200115f5760008155600101620011eb56fe608060408190526004805461ffff19169055600c805460ff19908116909155600e80549091169055620014f438819003908190833981810160405260a08110156200004957600080fd5b81019080805160405193929190846401000000008211156200006a57600080fd5b9083019060208201858111156200008057600080fd5b82518660208202830111640100000000821117156200009e57600080fd5b82525081516020918201928201910280838360005b83811015620000cd578181015183820152602001620000b3565b505050509190910160408181526020848101518583015160608701516080909701517f68db65a4000000000000000000000000000000000000000000000000000000008652935191985096509193506001600160a01b038616926368db65a49260048083019392829003018186803b1580156200014957600080fd5b505afa1580156200015e573d6000803e3d6000fd5b505050506040513d60208110156200017557600080fd5b5051604080517f79a4fa2700000000000000000000000000000000000000000000000000000000815233600482015290516001600160a01b03909216916379a4fa2791602480820192602092909190829003018186803b158015620001d957600080fd5b505afa158015620001ee573d6000803e3d6000fd5b505050506040513d60208110156200020557600080fd5b50516200025e576040517f08c379a000000000000000000000000000000000000000000000000000000000815260040180806020018281038252603d815260200180620014b7603d913960400191505060405180910390fd5b846000815181106200026c57fe5b6020026020010151600a81905550846001815181106200028857fe5b6020026020010151600981905550600a5460095401341015620002f7576040517f08c379a0000000000000000000000000000000000000000000000000000000008152600401808060200182810382526022815260200180620014956022913960400191505060405180910390fd5b600f84905560006200030862000499565b60005b868110156200041f5760405180606001604052808983600201815181106200032f57fe5b6020026020010151815260200189898401600201815181106200034e57fe5b6020026020010151815260200189896002028401600201815181106200037057fe5b6020026020010151604051908082528060200260200182016040528015620003a2578160200160208202803883390190505b509052915060005b8888600202830160020181518110620003bf57fe5b602002602001015181101562000415578888600302850160020181518110620003e457fe5b602002602001015183604001518281518110620003fd57fe5b602090810291909101015260019384019301620003aa565b506001016200030b565b50506004805462010000600160b01b03191633620100000217905550600680546001600160a01b03199081166001600160a01b03948516179091554260085560078054909116939092169290921790556001600281905560008080558155600b91909155600c805460ff1916909117905550620004ba9050565b60405180606001604052806000815260200160008152602001606081525090565b610fcb80620004ca6000396000f3fe6080604052600436106101665760003560e01c80639e8464f1116100d1578063d638e1021161008a578063ed16805811610064578063ed168058146104a7578063f3cc0f1f146104bc578063f90a92e3146104d1578063fc6f78a0146104ee57610166565b8063d638e10214610449578063db7575f01461045e578063e9132c421461048857610166565b80639e8464f114610388578063a14b7e68146103b2578063af640d0f146103c7578063bd3e19d4146103dc578063bfb231d2146103f1578063d601e1141461043457610166565b80633cf5040a116101235780633cf5040a146102e15780633e3ca4d31461030b57806340571abb1461032057806353c0a00614610349578063646e077f1461035e5780637aada1341461037357610166565b806312065fe01461016b5780632799276d146101925780632804b2c0146101a75780633129e773146101d857806332940816146102b75780633cc94908146102cc575b600080fd5b34801561017757600080fd5b50610180610503565b60408051918252519081900360200190f35b34801561019e57600080fd5b50610180610508565b3480156101b357600080fd5b506101bc61050e565b604080516001600160a01b039092168252519081900360200190f35b3480156101e457600080fd5b50610202600480360360208110156101fb57600080fd5b503561051d565b604051808781526020018681526020018581526020018481526020018060200180602001838103835285818151815260200191508051906020019060200280838360005b8381101561025e578181015183820152602001610246565b50505050905001838103825284818151815260200191508051906020019060200280838360005b8381101561029d578181015183820152602001610285565b505050509050019850505050505050505060405180910390f35b3480156102c357600080fd5b5061018061081c565b3480156102d857600080fd5b50610180610822565b3480156102ed57600080fd5b506101806004803603602081101561030457600080fd5b5035610828565b34801561031757600080fd5b5061018061084c565b34801561032c57600080fd5b50610335610852565b604080519115158252519081900360200190f35b34801561035557600080fd5b506101bc610860565b34801561036a57600080fd5b5061033561086f565b34801561037f57600080fd5b50610180610878565b34801561039457600080fd5b50610335600480360360208110156103ab57600080fd5b503561087e565b3480156103be57600080fd5b50610180610952565b3480156103d357600080fd5b50610180610958565b3480156103e857600080fd5b5061018061095e565b3480156103fd57600080fd5b5061041b6004803603602081101561041457600080fd5b5035610964565b6040805192835260208301919091528051918290030190f35b34801561044057600080fd5b5061033561097d565b34801561045557600080fd5b50610335610986565b34801561046a57600080fd5b506103356004803603602081101561048157600080fd5b503561098f565b6104a56004803603602081101561049e57600080fd5b5035610a62565b005b3480156104b357600080fd5b506101bc610b81565b3480156104c857600080fd5b50610180610b96565b6104a5600480360360208110156104e757600080fd5b5035610b9c565b3480156104fa57600080fd5b50610180610d9e565b303190565b600f5481565b6006546001600160a01b031681565b60065460009081908190819060609081906001600160a01b031633148061055457506004546201000090046001600160a01b031633145b8061056957506005546001600160a01b031633145b61057257600080fd5b600460029054906101000a90046001600160a01b03166001600160a01b03166301751d416040518163ffffffff1660e01b815260040160206040518083038186803b1580156105c057600080fd5b505afa1580156105d4573d6000803e3d6000fd5b505050506040513d60208110156105ea57600080fd5b5051600088815260106020526040908190208054600182015492516320dd2b4d60e21b8152600481018281526024820185905260606044830190815260029094018054606484018190526001600160a01b0390971696638374ad349694959193608401908490801561067b57602002820191906000526020600020905b815481526020019060010190808311610667575b505094505050505060006040518083038186803b15801561069b57600080fd5b505afa1580156106af573d6000803e3d6000fd5b505050506040513d6000823e601f3d908101601f1916820160405260c08110156106d857600080fd5b815160208301516040808501516060860151608087018051935195979496929591949193928201928464010000000082111561071357600080fd5b90830190602082018581111561072857600080fd5b825186602082028301116401000000008211171561074557600080fd5b82525081516020918201928201910280838360005b8381101561077257818101518382015260200161075a565b505050509050016040526020018051604051939291908464010000000082111561079b57600080fd5b9083019060208201858111156107b057600080fd5b82518660208202830111640100000000821117156107cd57600080fd5b82525081516020918201928201910280838360005b838110156107fa5781810151838201526020016107e2565b5050505090500160405250505095509550955095509550955091939550919395565b60015481565b600d5481565b60408051602080820193909352815180820384018152908201909152805191012090565b60005481565b600454610100900460ff1681565b6005546001600160a01b031681565b600c5460ff1681565b60085481565b600e5460009060ff1615156001146108d3576040805162461bcd60e51b8152602060048201526013602482015272139bc81ad95e481a185cc81899595b881cd95d606a1b604482015290519081900360640190fd5b600d546108df83610828565b14610921576040805162461bcd60e51b815260206004820152600d60248201526c496e636f7272656374204b657960981b604482015290519081900360640190fd5b610929610da4565b600360015560026000908155604051600080516020610ed48339815191529190a1506001919050565b60025481565b60035481565b60095490565b6010602052600090815260409020805460019091015482565b60045460ff1681565b600e5460ff1681565b600c5460009060ff1615156001146109e4576040805162461bcd60e51b8152602060048201526013602482015272139bc81ad95e481a185cc81899595b881cd95d606a1b604482015290519081900360640190fd5b600b546109f083610828565b14610a32576040805162461bcd60e51b815260206004820152600d60248201526c496e636f7272656374204b657960981b604482015290519081900360640190fd5b610a3a610e38565b600360005560028055604051600080516020610ed483398151915290600090a1506001919050565b6004546201000090046001600160a01b03163314610ab15760405162461bcd60e51b8152600401808060200182810382526050815260200180610ef46050913960600191505060405180910390fd5b6001548111610b07576040805162461bcd60e51b815260206004820152601c60248201527f7374617475732063616e6e6f74206265206261636b747261636b656400000000604482015290519081900360640190fd5b60038111158015610b185750600081115b610b62576040805162461bcd60e51b815260206004820152601660248201527519da5d995b8814dd185d1d5cc81b9bdd081d985b1a5960521b604482015290519081900360640190fd5b6001819055604051600080516020610ed483398151915290600090a150565b6004546201000090046001600160a01b031681565b600a5481565b60005415610bdb5760405162461bcd60e51b815260040180806020018281038252602a815260200180610f44602a913960400191505060405180910390fd5b600760009054906101000a90046001600160a01b03166001600160a01b031663c9286d576040518163ffffffff1660e01b815260040160206040518083038186803b158015610c2957600080fd5b505afa158015610c3d573d6000803e3d6000fd5b505050506040513d6020811015610c5357600080fd5b505160408051630139526760e41b815233600482015290516001600160a01b0390921691631395267091602480820192602092909190829003018186803b158015610c9d57600080fd5b505afa158015610cb1573d6000803e3d6000fd5b505050506040513d6020811015610cc757600080fd5b5051610d045760405162461bcd60e51b8152600401808060200182810382526029815260200180610f6e6029913960400191505060405180910390fd5b600954341015610d5b576040805162461bcd60e51b815260206004820152601e60248201527f746865206465706f7369742073656e74206973206e6f7420656e6f7567680000604482015290519081900360640190fd5b60016000908155600580546001600160a01b03191633179055600d829055600e805460ff19166001179055604051600080516020610ed48339815191529190a150565b600b5481565b600460029054906101000a90046001600160a01b03166001600160a01b0316631b9265b86009546040518263ffffffff1660e01b81526004016000604051808303818588803b158015610df657600080fd5b505af1158015610e0a573d6000803e3d6000fd5b50506004805460ff191660019081178255555050604051600080516020610ed48339815191529150600090a1565b600560009054906101000a90046001600160a01b03166001600160a01b0316631b9265b8600a54600954016040518263ffffffff1660e01b81526004016000604051808303818588803b158015610e8e57600080fd5b505af1158015610ea2573d6000803e3d6000fd5b50506004805461ff001916610100179055505060036000908155604051600080516020610ed48339815191529250a156feac854101ed2841c4fe7b3c5bfc4f3e58ddac515e8dd58f1bd9cf7856f1cc6e7f596f7520646f6e742068617665207065726d697373696f6e20746f207365652074686973206f726465722c2064696420796f752067657420746865206f7264657220616464726573732077726f6e673f74686973206f7264657220616c6c7265616479206861732064656c6976657279206f7267616e697365646d7573742062652063616c6c656420766961206120726964657220736d61727420636f6e7472616374a265627a7a72315820faba70ebda403d9ce38670ceac6b5ae605df3adceddb699336cdb33724bcd7ac64736f6c634300050c00326e6f7420656e6f7567682065746865722073656e7420746f20746865206f72646572617474656d7074656420746f206d616b65206f726465722066726f6d20616464726573732074686174206973206e6f7420612072657374617572616e74a265627a7a723158205b1b0a5c015eef7b965767c2af57cd50a25ee5917fcaab0b737ab3de08d02abd64736f6c634300050c0032608060405234801561001057600080fd5b506040516126433803806126438339818101604052602081101561003357600080fd5b5051600080546001600160a01b039092166001600160a01b0319909216919091179055600160038190556004556125d48061006f6000396000f3fe608060405234801561001057600080fd5b50600436106101585760003560e01c80638fb0f14c116100c3578063ca497d5c1161007c578063ca497d5c14610e1d578063d1005e3914610ebe578063e40c8a3214611063578063e4d8a2a614611208578063e840515414611231578063f0439f71146113d657610158565b80638fb0f14c14610945578063a6bd92e3146109e6578063b0e7722b14610b09578063b21dc38a14610cae578063bae78d7b14610d51578063c1c4d10214610e1557610158565b806325b5c4f91161011557806325b5c4f9146103a35780636287dcc6146104c657806364f2eacd146105675780638374ad34146107a2578063893bb0bf146109045780638da5cb5b1461092157610158565b80630545ba291461015d5780630b9a02c514610182578063125ba977146101b15780631ce5e9a6146101b95780631e516e05146101f65780631f7b6d321461039b575b600080fd5b6101806004803603604081101561017357600080fd5b5080359060200135611404565b005b61019f6004803603602081101561019857600080fd5b50356114c9565b60408051918252519081900360200190f35b61019f611557565b6101d6600480360360208110156101cf57600080fd5b50356115dc565b604080519384526020840192909252151582820152519081900360600190f35b6101806004803603606081101561020c57600080fd5b810190602081018135600160201b81111561022657600080fd5b82018360208201111561023857600080fd5b803590602001918460208302840111600160201b8311171561025957600080fd5b9190808060200260200160405190810160405280939291908181526020018383602002808284376000920191909152509295949360208101935035915050600160201b8111156102a857600080fd5b8201836020820111156102ba57600080fd5b803590602001918460208302840111600160201b831117156102db57600080fd5b9190808060200260200160405190810160405280939291908181526020018383602002808284376000920191909152509295949360208101935035915050600160201b81111561032a57600080fd5b82018360208201111561033c57600080fd5b803590602001918460208302840111600160201b8311171561035d57600080fd5b919080806020026020016040519081016040528093929190818152602001838360200280828437600092019190915250929550611601945050505050565b61019f611759565b610180600480360360408110156103b957600080fd5b810190602081018135600160201b8111156103d357600080fd5b8201836020820111156103e557600080fd5b803590602001918460208302840111600160201b8311171561040657600080fd5b9190808060200260200160405190810160405280939291908181526020018383602002808284376000920191909152509295949360208101935035915050600160201b81111561045557600080fd5b82018360208201111561046757600080fd5b803590602001918460208302840111600160201b8311171561048857600080fd5b91908080602002602001604051908101604052809392919081815260200183836020028082843760009201919091525092955061175f945050505050565b610180600480360360208110156104dc57600080fd5b810190602081018135600160201b8111156104f657600080fd5b82018360208201111561050857600080fd5b803590602001918460208302840111600160201b8311171561052957600080fd5b919080806020026020016040519081016040528093929190818152602001838360200280828437600092019190915250929550611854945050505050565b61078e6004803603608081101561057d57600080fd5b810190602081018135600160201b81111561059757600080fd5b8201836020820111156105a957600080fd5b803590602001918460208302840111600160201b831117156105ca57600080fd5b9190808060200260200160405190810160405280939291908181526020018383602002808284376000920191909152509295949360208101935035915050600160201b81111561061957600080fd5b82018360208201111561062b57600080fd5b803590602001918460208302840111600160201b8311171561064c57600080fd5b9190808060200260200160405190810160405280939291908181526020018383602002808284376000920191909152509295949360208101935035915050600160201b81111561069b57600080fd5b8201836020820111156106ad57600080fd5b803590602001918460208302840111600160201b831117156106ce57600080fd5b9190808060200260200160405190810160405280939291908181526020018383602002808284376000920191909152509295949360208101935035915050600160201b81111561071d57600080fd5b82018360208201111561072f57600080fd5b803590602001918460208302840111600160201b8311171561075057600080fd5b919080806020026020016040519081016040528093929190818152602001838360200280828437600092019190915250929550611904945050505050565b604080519115158252519081900360200190f35b61084f600480360360608110156107b857600080fd5b813591602081013591810190606081016040820135600160201b8111156107de57600080fd5b8201836020820111156107f057600080fd5b803590602001918460208302840111600160201b8311171561081157600080fd5b919080806020026020016040519081016040528093929190818152602001838360200280828437600092019190915250929550611abb945050505050565b604051808781526020018681526020018581526020018481526020018060200180602001838103835285818151815260200191508051906020019060200280838360005b838110156108ab578181015183820152602001610893565b50505050905001838103825284818151815260200191508051906020019060200280838360005b838110156108ea5781810151838201526020016108d2565b505050509050019850505050505050505060405180910390f35b6101d66004803603602081101561091a57600080fd5b5035611cec565b610929611d11565b604080516001600160a01b039092168252519081900360200190f35b6101806004803603602081101561095b57600080fd5b810190602081018135600160201b81111561097557600080fd5b82018360208201111561098757600080fd5b803590602001918460208302840111600160201b831117156109a857600080fd5b919080806020026020016040519081016040528093929190818152602001838360200280828437600092019190915250929550611d20945050505050565b610180600480360360408110156109fc57600080fd5b810190602081018135600160201b811115610a1657600080fd5b820183602082011115610a2857600080fd5b803590602001918460208302840111600160201b83111715610a4957600080fd5b9190808060200260200160405190810160405280939291908181526020018383602002808284376000920191909152509295949360208101935035915050600160201b811115610a9857600080fd5b820183602082011115610aaa57600080fd5b803590602001918460208302840111600160201b83111715610acb57600080fd5b919080806020026020016040519081016040528093929190818152602001838360200280828437600092019190915250929550611dfb945050505050565b61018060048036036060811015610b1f57600080fd5b810190602081018135600160201b811115610b3957600080fd5b820183602082011115610b4b57600080fd5b803590602001918460208302840111600160201b83111715610b6c57600080fd5b9190808060200260200160405190810160405280939291908181526020018383602002808284376000920191909152509295949360208101935035915050600160201b811115610bbb57600080fd5b820183602082011115610bcd57600080fd5b803590602001918460208302840111600160201b83111715610bee57600080fd5b9190808060200260200160405190810160405280939291908181526020018383602002808284376000920191909152509295949360208101935035915050600160201b811115610c3d57600080fd5b820183602082011115610c4f57600080fd5b803590602001918460208302840111600160201b83111715610c7057600080fd5b919080806020026020016040519081016040528093929190818152602001838360200280828437600092019190915250929550611e8a945050505050565b61019f60048036036040811015610cc457600080fd5b810190602081018135600160201b811115610cde57600080fd5b820183602082011115610cf057600080fd5b803590602001918460208302840111600160201b83111715610d1157600080fd5b9190808060200260200160405190810160405280939291908181526020018383602002808284376000920191909152509295505091359250611f1c915050565b610d6e60048036036020811015610d6757600080fd5b5035612028565b604051808581526020018481526020018060200180602001838103835285818151815260200191508051906020019060200280838360005b83811015610dbe578181015183820152602001610da6565b50505050905001838103825284818151815260200191508051906020019060200280838360005b83811015610dfd578181015183820152602001610de5565b50505050905001965050505050505060405180910390f35b61019f6121ef565b61018060048036036020811015610e3357600080fd5b810190602081018135600160201b811115610e4d57600080fd5b820183602082011115610e5f57600080fd5b803590602001918460208302840111600160201b83111715610e8057600080fd5b919080806020026020016040519081016040528093929190818152602001838360200280828437600092019190915250929550612243945050505050565b61018060048036036060811015610ed457600080fd5b810190602081018135600160201b811115610eee57600080fd5b820183602082011115610f0057600080fd5b803590602001918460208302840111600160201b83111715610f2157600080fd5b9190808060200260200160405190810160405280939291908181526020018383602002808284376000920191909152509295949360208101935035915050600160201b811115610f7057600080fd5b820183602082011115610f8257600080fd5b803590602001918460208302840111600160201b83111715610fa357600080fd5b9190808060200260200160405190810160405280939291908181526020018383602002808284376000920191909152509295949360208101935035915050600160201b811115610ff257600080fd5b82018360208201111561100457600080fd5b803590602001918460208302840111600160201b8311171561102557600080fd5b9190808060200260200160405190810160405280939291908181526020018383602002808284376000920191909152509295506122c8945050505050565b6101806004803603606081101561107957600080fd5b810190602081018135600160201b81111561109357600080fd5b8201836020820111156110a557600080fd5b803590602001918460208302840111600160201b831117156110c657600080fd5b9190808060200260200160405190810160405280939291908181526020018383602002808284376000920191909152509295949360208101935035915050600160201b81111561111557600080fd5b82018360208201111561112757600080fd5b803590602001918460208302840111600160201b8311171561114857600080fd5b9190808060200260200160405190810160405280939291908181526020018383602002808284376000920191909152509295949360208101935035915050600160201b81111561119757600080fd5b8201836020820111156111a957600080fd5b803590602001918460208302840111600160201b831117156111ca57600080fd5b919080806020026020016040519081016040528093929190818152602001838360200280828437600092019190915250929550612351945050505050565b6101806004803603606081101561121e57600080fd5b50803590602081013590604001356123e3565b6101806004803603606081101561124757600080fd5b810190602081018135600160201b81111561126157600080fd5b82018360208201111561127357600080fd5b803590602001918460208302840111600160201b8311171561129457600080fd5b9190808060200260200160405190810160405280939291908181526020018383602002808284376000920191909152509295949360208101935035915050600160201b8111156112e357600080fd5b8201836020820111156112f557600080fd5b803590602001918460208302840111600160201b8311171561131657600080fd5b9190808060200260200160405190810160405280939291908181526020018383602002808284376000920191909152509295949360208101935035915050600160201b81111561136557600080fd5b82018360208201111561137757600080fd5b803590602001918460208302840111600160201b8311171561139857600080fd5b919080806020026020016040519081016040528093929190818152602001838360200280828437600092019190915250929550612493945050505050565b6113de61251c565b604080519485526020850193909352838301919091526060830152519081900360800190f35b6000546001600160a01b0316331461144d5760405162461bcd60e51b815260040180806020018281038252602281526020018061257e6022913960400191505060405180910390fd5b60408051632f75e6e760e11b8152600160048201526024810184905260448101839052905173__menuHelper____________________________91635eebcdce916064808301926000929190829003018186803b1580156114ad57600080fd5b505af41580156114c1573d6000803e3d6000fd5b505050505050565b6000600173__menuHelper____________________________6374f811479091846040518363ffffffff1660e01b8152600401808381526020018281526020019250505060206040518083038186803b15801561152557600080fd5b505af4158015611539573d6000803e3d6000fd5b505050506040513d602081101561154f57600080fd5b505192915050565b6000600173__menuHelper____________________________63f36cf61090916040518263ffffffff1660e01b81526004018082815260200191505060206040518083038186803b1580156115ab57600080fd5b505af41580156115bf573d6000803e3d6000fd5b505050506040513d60208110156115d557600080fd5b5051905090565b600090815260056020526040902080546001820154600290920154909260ff90911690565b6000546001600160a01b0316331461161857600080fd5b604051631ee24e7760e01b815260016004820181815260806024840190815286516084850152865173__menuHelper____________________________94631ee24e7794938993899389936044810191606482019160a401906020808a01910280838360005b8381101561169657818101518382015260200161167e565b50505050905001848103835286818151815260200191508051906020019060200280838360005b838110156116d55781810151838201526020016116bd565b50505050905001848103825285818151815260200191508051906020019060200280838360005b838110156117145781810151838201526020016116fc565b5050505090500197505050505050505060006040518083038186803b15801561173c57600080fd5b505af4158015611750573d6000803e3d6000fd5b50505050505050565b60015490565b6000546001600160a01b0316331461177657600080fd5b600173__menuHelper____________________________631144d8cc909184846040518463ffffffff1660e01b8152600401808481526020018060200180602001838103835285818151815260200191508051906020019060200280838360005b838110156117ef5781810151838201526020016117d7565b50505050905001838103825284818151815260200191508051906020019060200280838360005b8381101561182e578181015183820152602001611816565b505050509050019550505050505060006040518083038186803b1580156114ad57600080fd5b60408051630733405f60e01b81526001600482018181526024830193845284516044840152845173__menuHelper____________________________94630733405f948793926064909101906020808601910280838360005b838110156118c55781810151838201526020016118ad565b50505050905001935050505060006040518083038186803b1580156118e957600080fd5b505af41580156118fd573d6000803e3d6000fd5b5050505050565b600080546001600160a01b0316331461191c57600080fd5b600173__menuHelper____________________________63412362179091878787876040518663ffffffff1660e01b81526004018086815260200180602001806020018060200180602001858103855289818151815260200191508051906020019060200280838360005b8381101561199f578181015183820152602001611987565b50505050905001858103845288818151815260200191508051906020019060200280838360005b838110156119de5781810151838201526020016119c6565b50505050905001858103835287818151815260200191508051906020019060200280838360005b83811015611a1d578181015183820152602001611a05565b50505050905001858103825286818151815260200191508051906020019060200280838360005b83811015611a5c578181015183820152602001611a44565b50505050905001995050505050505050505060206040518083038186803b158015611a8657600080fd5b505af4158015611a9a573d6000803e3d6000fd5b505050506040513d6020811015611ab057600080fd5b509095945050505050565b600080600080606080600173__menuHelper____________________________630a652e4390918b8b8b6040518563ffffffff1660e01b81526004018085815260200184815260200183815260200180602001828103825283818151815260200191508051906020019060200280838360005b83811015611b46578181015183820152602001611b2e565b505050509050019550505050505060006040518083038186803b158015611b6c57600080fd5b505af4158015611b80573d6000803e3d6000fd5b505050506040513d6000823e601f3d908101601f1916820160405260c0811015611ba957600080fd5b8151602083015160408085015160608601516080870180519351959794969295919491939282019284600160201b821115611be357600080fd5b908301906020820185811115611bf857600080fd5b82518660208202830111600160201b82111715611c1457600080fd5b82525081516020918201928201910280838360005b83811015611c41578181015183820152602001611c29565b5050505090500160405260200180516040519392919084600160201b821115611c6957600080fd5b908301906020820185811115611c7e57600080fd5b82518660208202830111600160201b82111715611c9a57600080fd5b82525081516020918201928201910280838360005b83811015611cc7578181015183820152602001611caf565b5050505090500160405250505095509550955095509550955093975093979195509350565b600090815260076020526040902080546001820154600290920154909260ff90911690565b6000546001600160a01b031681565b6000546001600160a01b03163314611d3757600080fd5b60408051631820e07b60e11b81526001600482018181526024830193845284516044840152845173__menuHelper____________________________94633041c0f6948793926064909101906020808601910280838360005b83811015611da8578181015183820152602001611d90565b50505050905001935050505060206040518083038186803b158015611dcc57600080fd5b505af4158015611de0573d6000803e3d6000fd5b505050506040513d6020811015611df657600080fd5b505050565b6000546001600160a01b03163314611e1257600080fd5b6040516308f5487d60e11b815260016004820181815260606024840190815285516064850152855173__menuHelper____________________________946311ea90fa9493889388939192909160448201916084019060208088019102808383600083156117ef5781810151838201526020016117d7565b6000546001600160a01b03163314611ea157600080fd5b60405163753810c760e01b815260016004820181815260806024840190815286516084850152865173__menuHelper____________________________9463753810c794938993899389936044810191606482019160a401906020808a0191028083836000831561169657818101518382015260200161167e565b600080805b8381101561202057600080611f53878481518110611f3b57fe5b6020026020010151600161252b90919063ffffffff16565b9092509050600181151514611f6757600080fd5b600160040160008888860181518110611f7c57fe5b602002602001015181526020019081526020016000206001015484019350600080905060008090505b8888600202860181518110611fb657fe5b602002602001015181101561201057600160060160008a8a600302850181518110611fdd57fe5b60200260200101518152602001908152602001600020600101548601955081806001019250508080600101915050611fa5565b505060019092019150611f219050565b509392505050565b600080606080600173__menuHelper____________________________6336bf00579091876040518363ffffffff1660e01b8152600401808381526020018281526020019250505060006040518083038186803b15801561208857600080fd5b505af415801561209c573d6000803e3d6000fd5b505050506040513d6000823e601f3d908101601f1916820160405260808110156120c557600080fd5b81516020830151604080850180519151939592948301929184600160201b8211156120ef57600080fd5b90830190602082018581111561210457600080fd5b82518660208202830111600160201b8211171561212057600080fd5b82525081516020918201928201910280838360005b8381101561214d578181015183820152602001612135565b5050505090500160405260200180516040519392919084600160201b82111561217557600080fd5b90830190602082018581111561218a57600080fd5b82518660208202830111600160201b821117156121a657600080fd5b82525081516020918201928201910280838360005b838110156121d35781810151838201526020016121bb565b5050505090500160405250505093509350935093509193509193565b6000600173__menuHelper____________________________63cf17773590916040518263ffffffff1660e01b81526004018082815260200191505060206040518083038186803b1580156115ab57600080fd5b6000546001600160a01b0316331461225a57600080fd5b6040805163b49a2e4960e01b81526001600482018181526024830193845284516044840152845173__menuHelper____________________________9463b49a2e499487939260649091019060208086019102808383600083156118c55781810151838201526020016118ad565b82518151146122d657600080fd5b6040516389ac324360e01b815260016004820181815260806024840190815286516084850152865173__menuHelper____________________________946389ac324394938993899389936044810191606482019160a401906020808a0191028083836000831561169657818101518382015260200161167e565b6000546001600160a01b0316331461236857600080fd5b604051636f627d2360e11b815260016004820181815260806024840190815286516084850152865173__menuHelper____________________________9463dec4fa4694938993899389936044810191606482019160a401906020808a0191028083836000831561169657818101518382015260200161167e565b6000546001600160a01b0316331461242c5760405162461bcd60e51b815260040180806020018281038252602281526020018061257e6022913960400191505060405180910390fd5b60408051632f0ebdbf60e11b815260016004820152602481018590526044810184905260648101839052905173__menuHelper____________________________91635e1d7b7e916084808301926000929190829003018186803b15801561173c57600080fd5b82518151146124a157600080fd5b6040516301617f1560e61b815260016004820181815260806024840190815286516084850152865173__menuHelper____________________________9463585fc54094938993899389936044810191606482019160a401906020808a0191028083836000831561169657818101518382015260200161167e565b60015460025460035460045484565b60018201546000908190815b8481101561256e5760009182526005860160205260409091205490816125665750600092508291506125769050565b600101612537565b509150600190505b925092905056fe796f7520617265206e6f7420746865206f776e6572206f662074686973206d656e75a265627a7a72315820aea339ad19ac178d2a33df880daaf7acb0c607b4a296eed09ace84448104e9b464736f6c634300050c0032",
  "source": "pragma solidity ^0.5.0;\n\n //import \"./lib.sol\";\n import \"./Order.sol\";\n //import \"./RestaurantFactory.sol\";\n import \"./CustomerFactory.sol\";\n import \"./Controller.sol\";\n import \"./Menu.sol\";\n\ncontract Restaurant {\n\n    // additional variables to add\n\n\tuint public id;\n\tbytes32 public name; \n\n\tbytes public location; \n    uint public longitude; \n    uint public latitude; \n\n    bytes public logoURI; \n    bytes32 public logoHash; \n\n\n\tbytes32 public contactNumber; \n\n\taddress payable public owner;  \n    address public controllerAddress;\n\taddress public restaurantFactoryAddress;\n\n\n    struct order{bool open; address orderAddress;}\n\tuint public totalOrders;\n    // todo: make orders private and accessed via method for only rider and restaurant\n\tmapping(uint => order) public orders; // must be a better way to store the orders\n\n    uint totalPay;\n\t\n    Menu menu;\n\n    enum restaurantState{acceptedOrder, preparingCargo, readyForCollection, HandedOver}\n\t\n    event OrderMadeEvent(address orderAddress);\n    event MenuUpdated();\n\n\tconstructor(address _controller, address payable _owner, \n                uint _id, bytes32 _name, \n                bytes memory _address, uint _latitude, uint _longitude, \n                bytes32 _contactNumber\n                ) public {\n        // itemOptions and prices will have to be parsed as they are 2d arrays\n\t\tid = _id;\n\t\tname = _name;\n\t\t\n        location = _address;\n        latitude = _latitude;\n        longitude = _longitude;\n\n\t\tcontactNumber = _contactNumber;\n\t\ttotalOrders = 0;\n        totalPay = 0;\n\n        controllerAddress = _controller;\n\t\towner = _owner;\n\t\trestaurantFactoryAddress = msg.sender;\n\n        menu = new Menu(_owner);\n\t}\n\n    function getMenuAddress() public view returns (address) {\n        return address(menu);\n    }\n\n\n    function updateLogo(bytes calldata imageURI, bytes32 imageHash) external{\n        require(msg.sender == owner);\n        logoURI = imageURI;\n        logoHash = imageHash;\n    }\n    \n\n    function getOrderPrice(uint[] memory integers, uint itemCount) public view returns (uint){\n        return menu.getOrderPrice(integers, itemCount);\n    }\n    \n    // uint[] calldata itemIds, uint[] calldata optionIds, uint[] calldata extraFlags, uint[] calldata extraIds, uint deliveryFee, uint price\n    function makeOrder(uint[] calldata _integers, uint itemCount, bytes32 riderKeyHash) external payable returns (address orderAddress) {\n        //require this comes from a customer smart contract, maybe worth moving this to the order smart contract\n        require(CustomerFactory(Controller(controllerAddress).customerFactoryAddress()).customerExists(msg.sender), \"Customer doesnt exist\");\n\n        uint[] memory integers = _integers;\n        \n\t\tOrder newOrder = (new Order).value(msg.value)(integers, itemCount, controllerAddress, msg.sender, riderKeyHash);\n\t\torders[totalOrders] = order(true,address(newOrder));\n        totalOrders ++;\n\n        emit OrderMadeEvent(orders[totalOrders - 1].orderAddress);\n\n\t\treturn orders[totalOrders - 1].orderAddress;       \n    }\n\n    function setStatus(address orderAddress, uint status) public{\n        require(msg.sender == owner, \"you are not the owner\");\n        Order(orderAddress).setOrderStatus(status);\n    }\n\n    function pay() external payable {\n        totalPay += msg.value;\n        owner.transfer(msg.value);\n    } \n\n    function() external payable {\n\n    }\n\n\n    // Setters\n    function updateRestaurant(bytes32 _name, bytes32 _number, address payable _owner, bytes memory _location, uint _latitude, uint _longitude, bytes memory _logoURI, bytes32 _logoHash) public {\n        require(msg.sender == owner);\n        if(_name.length > 0 )\n            setName(_name);\n        if(_number.length > 0 )\n            setNumber(_number);\n        if(_owner != address(0))\n            setOwner(_owner);\n        if(_location.length > 0)\n            setLocation(_location, _latitude, _longitude);\n        if(_logoURI.length > 0)\n            setName(_name);\n    }\n    function setName(bytes32 _name) public {\n        require(msg.sender == owner);\n        name = _name;\n    }\n    function setNumber(bytes32 _number) public {\n        require(msg.sender == owner);\n        contactNumber = _number;\n    }\n    function setOwner(address payable _owner) public {\n        require(msg.sender == owner);\n        owner = _owner;\n    }\n    function setLocation(bytes memory _location, uint _latitude, uint _longitude) public {\n        require(msg.sender == owner);\n        location = _location;\n        latitude - _latitude;\n        longitude = _longitude;\n    }\n    function setLogo(bytes memory _logoURI, bytes32 _logoHash) public {\n        require(msg.sender == owner);\n        logoURI = _logoURI;\n        logoHash = _logoHash;\n    }\n}",
  "sourcePath": "/home/george/Documents/WorkSpace/TryAByte/contracts/Restaurant.sol",
  "compiler": {
    "name": "solc",
    "version": "0.5.12+commit.7709ece9.Emscripten.clang"
  },
  "schemaVersion": "3.0.19",
  "updatedAt": "2020-01-27T09:55:13.984Z",
  "devdoc": {
    "methods": {}
  },
  "userdoc": {
    "methods": {}
  }
}