{
  "contractName": "Restaurant",
  "abi": [
    {
      "constant": true,
      "inputs": [],
      "name": "name",
      "outputs": [
        {
          "name": "",
          "type": "string"
        }
      ],
      "payable": false,
      "stateMutability": "view",
      "type": "function"
    },
    {
      "constant": true,
      "inputs": [],
      "name": "location",
      "outputs": [
        {
          "name": "",
          "type": "string"
        }
      ],
      "payable": false,
      "stateMutability": "view",
      "type": "function"
    },
    {
      "constant": true,
      "inputs": [],
      "name": "contactNumber",
      "outputs": [
        {
          "name": "",
          "type": "string"
        }
      ],
      "payable": false,
      "stateMutability": "view",
      "type": "function"
    },
    {
      "constant": true,
      "inputs": [],
      "name": "rating",
      "outputs": [
        {
          "name": "",
          "type": "uint256"
        }
      ],
      "payable": false,
      "stateMutability": "view",
      "type": "function"
    },
    {
      "constant": true,
      "inputs": [
        {
          "name": "",
          "type": "uint256"
        }
      ],
      "name": "menu",
      "outputs": [
        {
          "name": "itemName",
          "type": "bytes32"
        },
        {
          "name": "itemCost",
          "type": "uint256"
        }
      ],
      "payable": false,
      "stateMutability": "view",
      "type": "function"
    },
    {
      "inputs": [
        {
          "name": "_id",
          "type": "uint256"
        },
        {
          "name": "_name",
          "type": "string"
        },
        {
          "name": "_address",
          "type": "string"
        },
        {
          "name": "_contactNumber",
          "type": "string"
        }
      ],
      "payable": false,
      "stateMutability": "nonpayable",
      "type": "constructor"
    },
    {
      "constant": false,
      "inputs": [],
      "name": "clearMenu",
      "outputs": [],
      "payable": false,
      "stateMutability": "nonpayable",
      "type": "function"
    },
    {
      "constant": false,
      "inputs": [
        {
          "name": "itemNames",
          "type": "bytes32[]"
        },
        {
          "name": "prices",
          "type": "uint256[]"
        }
      ],
      "name": "menuAddItems",
      "outputs": [],
      "payable": false,
      "stateMutability": "nonpayable",
      "type": "function"
    },
    {
      "constant": false,
      "inputs": [
        {
          "name": "itemNames",
          "type": "bytes32[]"
        }
      ],
      "name": "menuRemoveItems",
      "outputs": [
        {
          "name": "result",
          "type": "string"
        }
      ],
      "payable": false,
      "stateMutability": "nonpayable",
      "type": "function"
    },
    {
      "constant": false,
      "inputs": [
        {
          "name": "items",
          "type": "bytes32[]"
        }
      ],
      "name": "makeOrder",
      "outputs": [
        {
          "name": "orderAddress",
          "type": "address"
        }
      ],
      "payable": false,
      "stateMutability": "nonpayable",
      "type": "function"
    },
    {
      "constant": true,
      "inputs": [
        {
          "name": "itemId",
          "type": "uint256"
        }
      ],
      "name": "getMenuItem",
      "outputs": [
        {
          "name": "itemname",
          "type": "bytes32"
        },
        {
          "name": "cost",
          "type": "uint256"
        }
      ],
      "payable": false,
      "stateMutability": "view",
      "type": "function"
    }
  ],
  "bytecode": "0x60806040523480156200001157600080fd5b5060405162001c7f38038062001c7f833981018060405260808110156200003757600080fd5b810190808051906020019092919080516401000000008111156200005a57600080fd5b828101905060208101848111156200007157600080fd5b81518560018202830111640100000000821117156200008f57600080fd5b50509291906020018051640100000000811115620000ac57600080fd5b82810190506020810184811115620000c357600080fd5b8151856001820283011164010000000082111715620000e157600080fd5b50509291906020018051640100000000811115620000fe57600080fd5b828101905060208101848111156200011557600080fd5b81518560018202830111640100000000821117156200013357600080fd5b50509291905050508360008190555082600190805190602001906200015a92919062000221565b5081600290805190602001906200017392919062000221565b5080600390805190602001906200018c92919062000221565b50600060088190555032600560006101000a81548173ffffffffffffffffffffffffffffffffffffffff021916908373ffffffffffffffffffffffffffffffffffffffff16021790555033600660006101000a81548173ffffffffffffffffffffffffffffffffffffffff021916908373ffffffffffffffffffffffffffffffffffffffff16021790555050505050620002d0565b828054600181600116156101000203166002900490600052602060002090601f016020900481019282601f106200026457805160ff191683800117855562000295565b8280016001018555821562000295579182015b828111156200029457825182559160200191906001019062000277565b5b509050620002a49190620002a8565b5090565b620002cd91905b80821115620002c9576000816000905550600101620002af565b5090565b90565b61199f80620002e06000396000f3fe608060405260043610620000af576000357c0100000000000000000000000000000000000000000000000000000000900463ffffffff16806306fdde0314620000b45780633e92c468146200014a578063516f279e146200022f57806372bb567814620002c557806376af633c146200039257806380f474f61462000428578063a4e4f2011462000456578063c7c6d87f1462000470578063cffb703c1462000579578063f943eecd14620005d3575b600080fd5b348015620000c157600080fd5b50620000cc6200062d565b6040518080602001828103825283818151815260200191508051906020019080838360005b838110156200010e578082015181840152602081019050620000f1565b50505050905090810190601f1680156200013c5780820380516001836020036101000a031916815260200191505b509250505060405180910390f35b3480156200015757600080fd5b506200022d600480360360408110156200017057600080fd5b81019080803590602001906401000000008111156200018e57600080fd5b820183602082011115620001a157600080fd5b80359060200191846020830284011164010000000083111715620001c457600080fd5b909192939192939080359060200190640100000000811115620001e657600080fd5b820183602082011115620001f957600080fd5b803590602001918460208302840111640100000000831117156200021c57600080fd5b9091929391929390505050620006cf565b005b3480156200023c57600080fd5b5062000247620007eb565b6040518080602001828103825283818151815260200191508051906020019080838360005b83811015620002895780820151818401526020810190506200026c565b50505050905090810190601f168015620002b75780820380516001836020036101000a031916815260200191505b509250505060405180910390f35b348015620002d257600080fd5b506200035060048036036020811015620002eb57600080fd5b81019080803590602001906401000000008111156200030957600080fd5b8201836020820111156200031c57600080fd5b803590602001918460208302840111640100000000831117156200033f57600080fd5b90919293919293905050506200088d565b604051808273ffffffffffffffffffffffffffffffffffffffff1673ffffffffffffffffffffffffffffffffffffffff16815260200191505060405180910390f35b3480156200039f57600080fd5b50620003aa62000cee565b6040518080602001828103825283818151815260200191508051906020019080838360005b83811015620003ec578082015181840152602081019050620003cf565b50505050905090810190601f1680156200041a5780820380516001836020036101000a031916815260200191505b509250505060405180910390f35b3480156200043557600080fd5b506200044062000d90565b6040518082815260200191505060405180910390f35b3480156200046357600080fd5b506200046e62000d96565b005b3480156200047d57600080fd5b50620004fb600480360360208110156200049657600080fd5b8101908080359060200190640100000000811115620004b457600080fd5b820183602082011115620004c757600080fd5b80359060200191846020830284011164010000000083111715620004ea57600080fd5b909192939192939050505062000e05565b6040518080602001828103825283818151815260200191508051906020019080838360005b838110156200053d57808201518184015260208101905062000520565b50505050905090810190601f1680156200056b5780820380516001836020036101000a031916815260200191505b509250505060405180910390f35b3480156200058657600080fd5b50620005b6600480360360208110156200059f57600080fd5b810190808035906020019092919050505062000fcf565b604051808381526020018281526020019250505060405180910390f35b348015620005e057600080fd5b506200061060048036036020811015620005f957600080fd5b810190808035906020019092919050505062001003565b604051808381526020018281526020019250505060405180910390f35b60018054600181600116156101000203166002900480601f016020809104026020016040519081016040528092919081815260200182805460018160011615610100020316600290048015620006c75780601f106200069b57610100808354040283529160200191620006c7565b820191906000526020600020905b815481529060010190602001808311620006a957829003601f168201915b505050505081565b600560009054906101000a900473ffffffffffffffffffffffffffffffffffffffff1673ffffffffffffffffffffffffffffffffffffffff163373ffffffffffffffffffffffffffffffffffffffff161415156200072c57600080fd5b81819050848490501415156200074157600080fd5b60008090505b84849050811015620007e457600a604080519081016040528087878581811015156200076f57fe5b90506020020135815260200185858581811015156200078a57fe5b90506020020135815250908060018154018082558091505090600182039060005260206000209060020201600090919290919091506000820151816000015560208201518160010155505050808060010191505062000747565b5050505050565b60028054600181600116156101000203166002900480601f016020809104026020016040519081016040528092919081815260200182805460018160011615610100020316600290048015620008855780601f10620008595761010080835404028352916020019162000885565b820191906000526020600020905b8154815290600101906020018083116200086757829003601f168201915b505050505081565b6000600660009054906101000a900473ffffffffffffffffffffffffffffffffffffffff1673ffffffffffffffffffffffffffffffffffffffff166379a4fa27336040518263ffffffff167c0100000000000000000000000000000000000000000000000000000000028152600401808273ffffffffffffffffffffffffffffffffffffffff1673ffffffffffffffffffffffffffffffffffffffff16815260200191505060206040518083038186803b1580156200094b57600080fd5b505afa15801562000960573d6000803e3d6000fd5b505050506040513d60208110156200097757600080fd5b810190808051906020019092919050505015156200099457600080fd5b606083839050604051908082528060200260200182016040528015620009c95781602001602082028038833980820191505090505b50905060008090505b8484905081101562000b8c57606073__lib___________________________________639201de55878785818110151562000a0957fe5b905060200201356040518263ffffffff167c01000000000000000000000000000000000000000000000000000000000281526004018082815260200191505060006040518083038186803b15801562000a6157600080fd5b505af415801562000a76573d6000803e3d6000fd5b505050506040513d6000823e3d601f19601f82011682018060405250602081101562000aa157600080fd5b81019080805164010000000081111562000aba57600080fd5b8281019050602081018481111562000ad157600080fd5b815185600182028301116401000000008211171562000aef57600080fd5b50509291905050509050600062000b068262001057565b90507fffffffffffffffffffffffffffffffffffffffffffffffffffffffffffffffff8114151562000b7757600a8181548110151562000b4257fe5b906000526020600020906002020160010154848481518110151562000b6357fe5b906020019060200201818152505062000b7c565b600080fd5b50508080600101915050620009d2565b50600860008154809291906001019190505550600060085485858462000bb162001215565b8085815260200180602001806020018381038352868682818152602001925060200280828437600081840152601f19601f820116905080830192505050838103825284818151815260200191508051906020019060200280838360005b8381101562000c2b57808201518184015260208101905062000c0e565b505050509050019650505050505050604051809103906000f08015801562000c57573d6000803e3d6000fd5b5090508060096000600854815260200190815260200160002060006101000a81548173ffffffffffffffffffffffffffffffffffffffff021916908373ffffffffffffffffffffffffffffffffffffffff16021790555060096000600854815260200190815260200160002060009054906101000a900473ffffffffffffffffffffffffffffffffffffffff169250505092915050565b60038054600181600116156101000203166002900480601f01602080910402602001604051908101604052809291908181526020018280546001816001161561010002031660029004801562000d885780601f1062000d5c5761010080835404028352916020019162000d88565b820191906000526020600020905b81548152906001019060200180831162000d6a57829003601f168201915b505050505081565b60045481565b600560009054906101000a900473ffffffffffffffffffffffffffffffffffffffff1673ffffffffffffffffffffffffffffffffffffffff163373ffffffffffffffffffffffffffffffffffffffff1614151562000df357600080fd5b600a600062000e03919062001226565b565b6060600560009054906101000a900473ffffffffffffffffffffffffffffffffffffffff1673ffffffffffffffffffffffffffffffffffffffff163373ffffffffffffffffffffffffffffffffffffffff1614151562000e6457600080fd5b60008383905011151562000e7757600080fd5b6020604051908101604052806000815250905060008090505b8383905081101562000fc55760008090507fffffffffffffffffffffffffffffffffffffffffffffffffffffffffffffffff8114151562000fae57600a8181548110151562000edb57fe5b906000526020600020906002020160008082016000905560018201600090555050600a6001600a805490500381548110151562000f1457fe5b9060005260206000209060020201600a8281548110151562000f3257fe5b90600052602060002090600202016000820154816000015560018201548160010155905050600a6001600a805490500381548110151562000f6f57fe5b906000526020600020906002020160008082016000905560018201600090555050600a80548091906001900362000fa791906200124c565b5062000fb6565b600060059050505b50808060010191505062000e90565b5080905092915050565b600a8181548110151562000fdf57fe5b90600052602060002090600202016000915090508060000154908060010154905082565b600080600a6000548154811015156200101857fe5b906000526020600020906002020160000154600a6000548154811015156200103c57fe5b90600052602060002090600202016001015491509150915091565b600080600090505b600a80549050811215620011b9576200119b73__lib___________________________________639201de55600a848154811015156200109b57fe5b9060005260206000209060020201600001546040518263ffffffff167c01000000000000000000000000000000000000000000000000000000000281526004018082815260200191505060006040518083038186803b158015620010fe57600080fd5b505af415801562001113573d6000803e3d6000fd5b505050506040513d6000823e3d601f19601f8201168201806040525060208110156200113e57600080fd5b8101908080516401000000008111156200115757600080fd5b828101905060208101848111156200116e57600080fd5b81518560018202830111640100000000821117156200118c57600080fd5b505092919050505084620011e3565b15620011ab5780915050620011de565b80806001019150506200105f565b507fffffffffffffffffffffffffffffffffffffffffffffffffffffffffffffffff90505b919050565b600081518351141515620011fb57600090506200120f565b818051906020012083805190602001201490505b92915050565b6040516106c080620012b483390190565b508054600082556002029060005260206000209081019062001249919062001281565b50565b8154818355818111156200127c576002028160020283600052602060002091820191016200127b919062001281565b5b505050565b620012b091905b80821115620012ac5760008082016000905560018201600090555060020162001288565b5090565b9056fe608060405234801561001057600080fd5b506040516106c03803806106c08339810180604052606081101561003357600080fd5b8101908080519060200190929190805164010000000081111561005557600080fd5b8281019050602081018481111561006b57600080fd5b815185602082028301116401000000008211171561008857600080fd5b505092919060200180516401000000008111156100a457600080fd5b828101905060208101848111156100ba57600080fd5b81518560208202830111640100000000821117156100d757600080fd5b5050929190505050600260009054906101000a900473ffffffffffffffffffffffffffffffffffffffff1673ffffffffffffffffffffffffffffffffffffffff166379a4fa27336040518263ffffffff167c0100000000000000000000000000000000000000000000000000000000028152600401808273ffffffffffffffffffffffffffffffffffffffff1673ffffffffffffffffffffffffffffffffffffffff16815260200191505060206040518083038186803b15801561019a57600080fd5b505afa1580156101ae573d6000803e3d6000fd5b505050506040513d60208110156101c457600080fd5b810190808051906020019092919050505015156101e057600080fd5b805182511415156101f057600080fd5b8260008190555033600160006101000a81548173ffffffffffffffffffffffffffffffffffffffff021916908373ffffffffffffffffffffffffffffffffffffffff16021790555032600360006101000a81548173ffffffffffffffffffffffffffffffffffffffff021916908373ffffffffffffffffffffffffffffffffffffffff160217905550600060048190555060008090505b825181101561041a57604080519081016040528073__lib___________________________________639201de5586858151811015156102c357fe5b906020019060200201516040518263ffffffff167c01000000000000000000000000000000000000000000000000000000000281526004018082815260200191505060006040518083038186803b15801561031d57600080fd5b505af4158015610331573d6000803e3d6000fd5b505050506040513d6000823e3d601f19601f82011682018060405250602081101561035b57600080fd5b81019080805164010000000081111561037357600080fd5b8281019050602081018481111561038957600080fd5b81518560018202830111640100000000821117156103a657600080fd5b5050929190505050815260200183838151811015156103c157fe5b9060200190602002015181525060056000600454815260200190815260200160002060008201518160000190805190602001906103ff929190610423565b50602082015181600101559050508080600101915050610287565b505050506104c8565b828054600181600116156101000203166002900490600052602060002090601f016020900481019282601f1061046457805160ff1916838001178555610492565b82800160010185558215610492579182015b82811115610491578251825591602001919060010190610476565b5b50905061049f91906104a3565b5090565b6104c591905b808211156104c15760008160009055506001016104a9565b5090565b90565b6101e9806104d76000396000f3fe608060405260043610610041576000357c0100000000000000000000000000000000000000000000000000000000900463ffffffff168063bfb231d214610046575b600080fd5b34801561005257600080fd5b5061007f6004803603602081101561006957600080fd5b8101908080359060200190929190505050610101565b6040518080602001838152602001828103825284818151815260200191508051906020019080838360005b838110156100c55780820151818401526020810190506100aa565b50505050905090810190601f1680156100f25780820380516001836020036101000a031916815260200191505b50935050505060405180910390f35b6005602052806000526040600020600091509050806000018054600181600116156101000203166002900480601f0160208091040260200160405190810160405280929190818152602001828054600181600116156101000203166002900480156101ad5780601f10610182576101008083540402835291602001916101ad565b820191906000526020600020905b81548152906001019060200180831161019057829003601f168201915b505050505090806001015490508256fea165627a7a72305820d55c644508e564aac868f43d60fece9f434f598586d3bca7aea9e37debc92d080029a165627a7a72305820584ac1dd6891905ec123bf9a452af5fbd7641be1108101d27aabf465109c866e0029",
  "source": "pragma solidity ^0.5.0;\r\n\r\n import \"./lib.sol\";\r\n import \"./Order.sol\";\r\n import \"./RestaurantFactory.sol\";\r\n\r\ncontract Restaurant {\r\n\r\n    using lib for bytes32;\r\n\r\n\tuint id;\r\n\tstring public name;\r\n\tstring public location;\r\n\tstring public contactNumber;\r\n\tuint public rating;\r\n\taddress owner;\r\n\taddress restaurantFactoryAddress;\r\n\taddress CustomerFactory;\r\n\r\n\tuint totalOrders;\r\n\tmapping(uint => address) orders;\r\n\t\r\n\tstruct Item{\r\n\t\tbytes32 itemName;\r\n\t\tuint itemCost; // in wei (10^-18 Eth)\r\n\t}\r\n\t\r\n\tItem[] public menu;\r\n\t\r\n\r\n\tconstructor(uint _id, string memory _name,string memory _address,string memory _contactNumber) public {\r\n\t\tid = _id;\r\n\t\tname = _name;\r\n\t\tlocation = _address;\r\n\t\tcontactNumber = _contactNumber;\r\n\t\ttotalOrders = 0;\r\n\t\towner = tx.origin; // assign owner of the order to the account that called the restaurant factory \r\n\t\trestaurantFactoryAddress = msg.sender;\r\n\t}\r\n\r\n    function clearMenu() external {\r\n        require(msg.sender == owner);\r\n        delete menu;\r\n    }\r\n    \r\n    function menuAddItems(bytes32[] calldata itemNames, uint[] calldata prices) external {\r\n        require(msg.sender == owner);\r\n        require(itemNames.length == prices.length);\r\n        \r\n        // should add checks that an item isn't added twice\r\n        for(uint i = 0; i<itemNames.length;i++){\r\n            menu.push(Item(itemNames[i], prices[i]));\r\n        }\r\n    }\r\n\r\n    \r\n    // could add ids to menu items then remove by id to lower gas cost\r\n    function menuRemoveItems(bytes32[] calldata itemNames) external returns(string memory result){\r\n        require(msg.sender == owner);\r\n        require(itemNames.length>0);\r\n        result = \"\";\r\n        for(uint i = 0; i<itemNames.length;i++){\r\n            //result = lib.strConcat(result,lib.strConcat(lib.bytes32ToString(itemNames[i]),\":\"));\r\n            //int index = menuSearch(lib.bytes32ToString(itemNames[i]));\r\n            int index = 0;\r\n            if(index!=-1){\r\n                delete menu[uint(index)];\r\n                menu[uint(index)] = menu[menu.length-1];\r\n                delete menu[menu.length-1];\r\n                //result = lib.strConcat(result,\" Removed Sucessfully\");\r\n                menu.length--;\r\n            }\r\n            else{\r\n                int a = 5;\r\n                //result = lib.strConcat(result, \" Error, could not find in menu\");\r\n            }\r\n        }\r\n        \r\n        return result;\r\n    }\r\n    \r\n    function menuSearch(string memory query) private view returns(int index){\r\n        for(int i = 0; i<int(menu.length);i++){\r\n            if(lib.compareStrings(lib.bytes32ToString(menu[uint(i)].itemName),query)){\r\n                return i;\r\n            }\r\n        }\r\n        return -1;\r\n    }\r\n    \r\n    function makeOrder(bytes32[] calldata items) external returns (address orderAddress) {\r\n        //require this comes from a customer smart contract\r\n        require(RestaurantFactory(restaurantFactoryAddress).restaurantExists(msg.sender));\r\n        \r\n\r\n        uint[] memory prices = new uint[](items.length);\r\n        for(uint i = 0; i < items.length; i++)\r\n        {\r\n            string memory a = lib.bytes32ToString(items[i]); \r\n            int index = menuSearch(a); \r\n            \r\n            if (index != -1){\r\n                prices[i] = menu[uint(index)].itemCost;\r\n            }\r\n            else{\r\n                revert();\r\n            }\r\n        }\r\n        \r\n\r\n        totalOrders ++;\r\n\t\tOrder newOrder = new Order(totalOrders,items,prices);\r\n\t\torders[totalOrders] = address(newOrder);\r\n\t\treturn orders[totalOrders];       \r\n    }\r\n    \r\n    function getMenuItem(uint itemId)public view returns(bytes32 itemname, uint cost){\r\n        return (menu[id].itemName,menu[id].itemCost);\r\n    }\r\n    \r\n}",
  "sourcePath": "C:\\Users\\George\\Documents\\$_Documents\\University\\Computer Science\\Year 3\\Dissitation\\tryAByte\\contracts\\Restaurant.sol",
  "compiler": {
    "name": "solc",
    "version": "0.5.0+commit.1d4f565a.Emscripten.clang"
  },
  "schemaVersion": "3.0.2",
  "updatedAt": "2019-03-04T02:28:39.270Z",
  "devdoc": {
    "methods": {}
  },
  "userdoc": {
    "methods": {}
  }
}