{
  "contractName": "Restaurant",
  "abi": [
    {
      "inputs": [
        {
          "internalType": "address",
          "name": "_controller",
          "type": "address"
        },
        {
          "internalType": "address payable",
          "name": "_owner",
          "type": "address"
        },
        {
          "internalType": "uint256",
          "name": "_id",
          "type": "uint256"
        },
        {
          "internalType": "bytes32",
          "name": "_name",
          "type": "bytes32"
        },
        {
          "internalType": "bytes",
          "name": "_address",
          "type": "bytes"
        },
        {
          "internalType": "uint256",
          "name": "_latitude",
          "type": "uint256"
        },
        {
          "internalType": "uint256",
          "name": "_longitude",
          "type": "uint256"
        },
        {
          "internalType": "bytes32",
          "name": "_contactNumber",
          "type": "bytes32"
        }
      ],
      "payable": false,
      "stateMutability": "nonpayable",
      "type": "constructor"
    },
    {
      "anonymous": false,
      "inputs": [],
      "name": "MenuUpdated",
      "type": "event"
    },
    {
      "anonymous": false,
      "inputs": [
        {
          "indexed": false,
          "internalType": "address",
          "name": "orderAddress",
          "type": "address"
        }
      ],
      "name": "OrderMadeEvent",
      "type": "event"
    },
    {
      "payable": true,
      "stateMutability": "payable",
      "type": "fallback"
    },
    {
      "constant": true,
      "inputs": [],
      "name": "contactNumber",
      "outputs": [
        {
          "internalType": "bytes32",
          "name": "",
          "type": "bytes32"
        }
      ],
      "payable": false,
      "stateMutability": "view",
      "type": "function"
    },
    {
      "constant": true,
      "inputs": [],
      "name": "controllerAddress",
      "outputs": [
        {
          "internalType": "address",
          "name": "",
          "type": "address"
        }
      ],
      "payable": false,
      "stateMutability": "view",
      "type": "function"
    },
    {
      "constant": true,
      "inputs": [],
      "name": "id",
      "outputs": [
        {
          "internalType": "uint256",
          "name": "",
          "type": "uint256"
        }
      ],
      "payable": false,
      "stateMutability": "view",
      "type": "function"
    },
    {
      "constant": true,
      "inputs": [],
      "name": "latitude",
      "outputs": [
        {
          "internalType": "uint256",
          "name": "",
          "type": "uint256"
        }
      ],
      "payable": false,
      "stateMutability": "view",
      "type": "function"
    },
    {
      "constant": true,
      "inputs": [],
      "name": "location",
      "outputs": [
        {
          "internalType": "bytes",
          "name": "",
          "type": "bytes"
        }
      ],
      "payable": false,
      "stateMutability": "view",
      "type": "function"
    },
    {
      "constant": true,
      "inputs": [],
      "name": "logoHash",
      "outputs": [
        {
          "internalType": "bytes32",
          "name": "",
          "type": "bytes32"
        }
      ],
      "payable": false,
      "stateMutability": "view",
      "type": "function"
    },
    {
      "constant": true,
      "inputs": [],
      "name": "logoURI",
      "outputs": [
        {
          "internalType": "bytes",
          "name": "",
          "type": "bytes"
        }
      ],
      "payable": false,
      "stateMutability": "view",
      "type": "function"
    },
    {
      "constant": true,
      "inputs": [],
      "name": "longitude",
      "outputs": [
        {
          "internalType": "uint256",
          "name": "",
          "type": "uint256"
        }
      ],
      "payable": false,
      "stateMutability": "view",
      "type": "function"
    },
    {
      "constant": true,
      "inputs": [],
      "name": "name",
      "outputs": [
        {
          "internalType": "bytes32",
          "name": "",
          "type": "bytes32"
        }
      ],
      "payable": false,
      "stateMutability": "view",
      "type": "function"
    },
    {
      "constant": true,
      "inputs": [
        {
          "internalType": "uint256",
          "name": "",
          "type": "uint256"
        }
      ],
      "name": "orders",
      "outputs": [
        {
          "internalType": "bool",
          "name": "open",
          "type": "bool"
        },
        {
          "internalType": "address",
          "name": "orderAddress",
          "type": "address"
        }
      ],
      "payable": false,
      "stateMutability": "view",
      "type": "function"
    },
    {
      "constant": true,
      "inputs": [],
      "name": "owner",
      "outputs": [
        {
          "internalType": "address payable",
          "name": "",
          "type": "address"
        }
      ],
      "payable": false,
      "stateMutability": "view",
      "type": "function"
    },
    {
      "constant": true,
      "inputs": [],
      "name": "restaurantFactoryAddress",
      "outputs": [
        {
          "internalType": "address",
          "name": "",
          "type": "address"
        }
      ],
      "payable": false,
      "stateMutability": "view",
      "type": "function"
    },
    {
      "constant": true,
      "inputs": [],
      "name": "totalOrders",
      "outputs": [
        {
          "internalType": "uint256",
          "name": "",
          "type": "uint256"
        }
      ],
      "payable": false,
      "stateMutability": "view",
      "type": "function"
    },
    {
      "constant": true,
      "inputs": [],
      "name": "getMenuAddress",
      "outputs": [
        {
          "internalType": "address",
          "name": "",
          "type": "address"
        }
      ],
      "payable": false,
      "stateMutability": "view",
      "type": "function"
    },
    {
      "constant": false,
      "inputs": [
        {
          "internalType": "bytes",
          "name": "imageURI",
          "type": "bytes"
        },
        {
          "internalType": "bytes32",
          "name": "imageHash",
          "type": "bytes32"
        }
      ],
      "name": "updateLogo",
      "outputs": [],
      "payable": false,
      "stateMutability": "nonpayable",
      "type": "function"
    },
    {
      "constant": true,
      "inputs": [
        {
          "internalType": "uint256[]",
          "name": "integers",
          "type": "uint256[]"
        },
        {
          "internalType": "uint256",
          "name": "itemCount",
          "type": "uint256"
        }
      ],
      "name": "getOrderPrice",
      "outputs": [
        {
          "internalType": "uint256",
          "name": "",
          "type": "uint256"
        }
      ],
      "payable": false,
      "stateMutability": "view",
      "type": "function"
    },
    {
      "constant": false,
      "inputs": [
        {
          "internalType": "uint256[]",
          "name": "_integers",
          "type": "uint256[]"
        },
        {
          "internalType": "uint256",
          "name": "itemCount",
          "type": "uint256"
        },
        {
          "internalType": "bytes32",
          "name": "riderKeyHash",
          "type": "bytes32"
        },
        {
          "internalType": "address payable",
          "name": "customer",
          "type": "address"
        }
      ],
      "name": "makeOrder",
      "outputs": [
        {
          "internalType": "address",
          "name": "orderAddress",
          "type": "address"
        }
      ],
      "payable": true,
      "stateMutability": "payable",
      "type": "function"
    },
    {
      "constant": false,
      "inputs": [
        {
          "internalType": "address",
          "name": "orderAddress",
          "type": "address"
        },
        {
          "internalType": "uint256",
          "name": "status",
          "type": "uint256"
        }
      ],
      "name": "setStatus",
      "outputs": [],
      "payable": false,
      "stateMutability": "nonpayable",
      "type": "function"
    },
    {
      "constant": false,
      "inputs": [],
      "name": "pay",
      "outputs": [],
      "payable": true,
      "stateMutability": "payable",
      "type": "function"
    },
    {
      "constant": false,
      "inputs": [
        {
          "internalType": "bytes32",
          "name": "_name",
          "type": "bytes32"
        },
        {
          "internalType": "bytes32",
          "name": "_number",
          "type": "bytes32"
        },
        {
          "internalType": "address payable",
          "name": "_owner",
          "type": "address"
        },
        {
          "internalType": "bytes",
          "name": "_location",
          "type": "bytes"
        },
        {
          "internalType": "uint256",
          "name": "_latitude",
          "type": "uint256"
        },
        {
          "internalType": "uint256",
          "name": "_longitude",
          "type": "uint256"
        },
        {
          "internalType": "bytes",
          "name": "_logoURI",
          "type": "bytes"
        },
        {
          "internalType": "bytes32",
          "name": "_logoHash",
          "type": "bytes32"
        }
      ],
      "name": "updateRestaurant",
      "outputs": [],
      "payable": false,
      "stateMutability": "nonpayable",
      "type": "function"
    },
    {
      "constant": false,
      "inputs": [
        {
          "internalType": "bytes32",
          "name": "_name",
          "type": "bytes32"
        }
      ],
      "name": "setName",
      "outputs": [],
      "payable": false,
      "stateMutability": "nonpayable",
      "type": "function"
    },
    {
      "constant": false,
      "inputs": [
        {
          "internalType": "bytes32",
          "name": "_number",
          "type": "bytes32"
        }
      ],
      "name": "setNumber",
      "outputs": [],
      "payable": false,
      "stateMutability": "nonpayable",
      "type": "function"
    },
    {
      "constant": false,
      "inputs": [
        {
          "internalType": "address payable",
          "name": "_owner",
          "type": "address"
        }
      ],
      "name": "setOwner",
      "outputs": [],
      "payable": false,
      "stateMutability": "nonpayable",
      "type": "function"
    },
    {
      "constant": false,
      "inputs": [
        {
          "internalType": "bytes",
          "name": "_location",
          "type": "bytes"
        },
        {
          "internalType": "uint256",
          "name": "_latitude",
          "type": "uint256"
        },
        {
          "internalType": "uint256",
          "name": "_longitude",
          "type": "uint256"
        }
      ],
      "name": "setLocation",
      "outputs": [],
      "payable": false,
      "stateMutability": "nonpayable",
      "type": "function"
    },
    {
      "constant": false,
      "inputs": [
        {
          "internalType": "bytes",
          "name": "_logoURI",
          "type": "bytes"
        },
        {
          "internalType": "bytes32",
          "name": "_logoHash",
          "type": "bytes32"
        }
      ],
      "name": "setLogo",
      "outputs": [],
      "payable": false,
      "stateMutability": "nonpayable",
      "type": "function"
    }
  ],
  "bytecode": "0x60806040523480156200001157600080fd5b5060405162004f1338038062004f1383398181016040526101008110156200003857600080fd5b81516020830151604080850151606086015160808701805193519597949692959194919392820192846401000000008211156200007457600080fd5b9083019060208201858111156200008a57600080fd5b8251640100000000811182820188101715620000a557600080fd5b82525081516020918201929091019080838360005b83811015620000d4578181015183820152602001620000ba565b50505050905090810190601f168015620001025780820380516001836020036101000a031916815260200191505b506040908152602082810151918301516060909301516000899055600188905586519295509293506200013b91600291870190620001fe565b506004839055600382905560078190556000600b819055600d55600980546001600160a01b03808b166001600160a01b03199283161790925560088054928a1692821692909217909155600a8054909116331790556040518790620001a09062000283565b6001600160a01b03909116815260405190819003602001906000f080158015620001ce573d6000803e3d6000fd5b50600e80546001600160a01b0319166001600160a01b039290921691909117905550620002b19650505050505050565b828054600181600116156101000203166002900490600052602060002090601f016020900481019282601f106200024157805160ff191683800117855562000271565b8280016001018555821562000271579182015b828111156200027157825182559160200191906001019062000254565b506200027f92915062000291565b5090565b612695806200287e83390190565b620002ae91905b808211156200027f576000815560010162000298565b90565b6125bd80620002c16000396000f3fe608060405260043610620001885760003560e01c80636bb38b2811620000e5578063a85c38ef1162000097578063c1f0f00d116200006d578063c1f0f00d14620007ae578063de48cbd11462000868578063df7be1ca14620008f1578063f1d4b2c514620009095762000188565b8063a85c38ef146200068e578063af640d0f14620006df578063b21dc38a14620006f75762000188565b80636bb38b28146200041c57806376af633c14620004345780637e29b003146200044c5780637e55d59c14620005b75780638da5cb5b14620005f4578063a64f207a146200060c5762000188565b80634fd7d76a116200013f5780634fd7d76a1462000259578063516f279e14620002715780635863bebe1462000301578063589af69c14620003be5780635ac801fe14620003d657806368db65a414620004045762000188565b806301751d41146200018a57806306fdde0314620001be57806313af403514620001e85780631b9265b8146200021f5780631d83440914620002295780634b24ea471462000241575b005b3480156200019757600080fd5b50620001a262000937565b604080516001600160a01b039092168252519081900360200190f35b348015620001cb57600080fd5b50620001d662000947565b60408051918252519081900360200190f35b348015620001f557600080fd5b5062000188600480360360208110156200020e57600080fd5b50356001600160a01b03166200094d565b6200018862000987565b3480156200023657600080fd5b50620001d6620009ce565b3480156200024e57600080fd5b50620001a2620009d4565b3480156200026657600080fd5b50620001d6620009e3565b3480156200027e57600080fd5b5062000289620009e9565b6040805160208082528351818301528351919283929083019185019080838360005b83811015620002c5578181015183820152602001620002ab565b50505050905090810190601f168015620002f35780820380516001836020036101000a031916815260200191505b509250505060405180910390f35b3480156200030e57600080fd5b5062000188600480360360608110156200032757600080fd5b810190602081018135600160201b8111156200034257600080fd5b8201836020820111156200035557600080fd5b803590602001918460018302840111600160201b831117156200037757600080fd5b91908080601f016020809104026020016040519081016040528093929190818152602001838380828437600092019190915250929550508235935050506020013562000a78565b348015620003cb57600080fd5b50620001d662000aad565b348015620003e357600080fd5b506200018860048036036020811015620003fc57600080fd5b503562000ab3565b3480156200041157600080fd5b50620001a262000ad0565b3480156200042957600080fd5b506200028962000adf565b3480156200044157600080fd5b50620001d662000b3d565b3480156200045957600080fd5b506200018860048036036101008110156200047357600080fd5b8135916020810135916001600160a01b036040830135169190810190608081016060820135600160201b811115620004aa57600080fd5b820183602082011115620004bd57600080fd5b803590602001918460018302840111600160201b83111715620004df57600080fd5b91908080601f0160208091040260200160405190810160405280939291908181526020018383808284376000920191909152509295843595602086013595919450925060608101915060400135600160201b8111156200053e57600080fd5b8201836020820111156200055157600080fd5b803590602001918460018302840111600160201b831117156200057357600080fd5b91908080601f016020809104026020016040519081016040528093929190818152602001838380828437600092019190915250929550509135925062000b43915050565b348015620005c457600080fd5b506200018860048036036040811015620005dd57600080fd5b506001600160a01b03813516906020013562000bbe565b3480156200060157600080fd5b50620001a262000c7a565b3480156200061957600080fd5b5062000188600480360360408110156200063257600080fd5b810190602081018135600160201b8111156200064d57600080fd5b8201836020820111156200066057600080fd5b803590602001918460018302840111600160201b831117156200068257600080fd5b91935091503562000c89565b3480156200069b57600080fd5b50620006bc60048036036020811015620006b457600080fd5b503562000cb7565b6040805192151583526001600160a01b0390911660208301528051918290030190f35b348015620006ec57600080fd5b50620001d662000cdc565b3480156200070457600080fd5b50620001d6600480360360408110156200071d57600080fd5b810190602081018135600160201b8111156200073857600080fd5b8201836020820111156200074b57600080fd5b803590602001918460208302840111600160201b831117156200076d57600080fd5b919080806020026020016040519081016040528093929190818152602001838360200280828437600092019190915250929550509135925062000ce2915050565b348015620007bb57600080fd5b506200018860048036036040811015620007d457600080fd5b810190602081018135600160201b811115620007ef57600080fd5b8201836020820111156200080257600080fd5b803590602001918460018302840111600160201b831117156200082457600080fd5b91908080601f016020809104026020016040519081016040528093929190818152602001838380828437600092019190915250929550509135925062000daa915050565b620001a2600480360360808110156200088057600080fd5b810190602081018135600160201b8111156200089b57600080fd5b820183602082011115620008ae57600080fd5b803590602001918460208302840111600160201b83111715620008d057600080fd5b9193509150803590602081013590604001356001600160a01b031662000dde565b348015620008fe57600080fd5b50620001d6620010cb565b3480156200091657600080fd5b5062000188600480360360208110156200092f57600080fd5b5035620010d1565b600e546001600160a01b03165b90565b60015481565b6008546001600160a01b031633146200096557600080fd5b600880546001600160a01b0319166001600160a01b0392909216919091179055565b600d8054349081019091556008546040516001600160a01b039091169180156108fc02916000818181858888f19350505050158015620009cb573d6000803e3d6000fd5b50565b600b5481565b6009546001600160a01b031681565b60045481565b6002805460408051602060018416156101000260001901909316849004601f8101849004840282018401909252818152929183018282801562000a705780601f1062000a445761010080835404028352916020019162000a70565b820191906000526020600020905b81548152906001019060200180831162000a5257829003601f168201915b505050505081565b6008546001600160a01b0316331462000a9057600080fd5b825162000aa5906002906020860190620010ee565b506003555050565b60035481565b6008546001600160a01b0316331462000acb57600080fd5b600155565b600a546001600160a01b031681565b6005805460408051602060026001851615610100026000190190941693909304601f8101849004840282018401909252818152929183018282801562000a705780601f1062000a445761010080835404028352916020019162000a70565b60075481565b6008546001600160a01b0316331462000b5b57600080fd5b62000b668862000ab3565b62000b7187620010d1565b6001600160a01b0386161562000b8c5762000b8c866200094d565b84511562000ba15762000ba185858562000a78565b81511562000bb45762000bb48862000ab3565b5050505050505050565b6008546001600160a01b0316331462000c16576040805162461bcd60e51b81526020600482015260156024820152743cb7ba9030b932903737ba103a34329037bbb732b960591b604482015290519081900360640190fd5b816001600160a01b031663e9132c42826040518263ffffffff1660e01b815260040180828152602001915050600060405180830381600087803b15801562000c5d57600080fd5b505af115801562000c72573d6000803e3d6000fd5b505050505050565b6008546001600160a01b031681565b6008546001600160a01b0316331462000ca157600080fd5b62000caf6005848462001173565b506006555050565b600c6020526000908152604090205460ff81169061010090046001600160a01b031682565b60005481565b600e546040805163590ee1c560e11b815260248101849052600481019182528451604482015284516000936001600160a01b03169263b21dc38a9287928792918291606490910190602080870191028083838c5b8381101562000d5057818101518382015260200162000d36565b50505050905001935050505060206040518083038186803b15801562000d7557600080fd5b505afa15801562000d8a573d6000803e3d6000fd5b505050506040513d602081101562000da157600080fd5b50519392505050565b6008546001600160a01b0316331462000dc257600080fd5b815162000dd7906005906020850190620010ee565b5060065550565b60095460408051631915796b60e21b815290516000926001600160a01b031691636455e5ac916004808301926020929190829003018186803b15801562000e2457600080fd5b505afa15801562000e39573d6000803e3d6000fd5b505050506040513d602081101562000e5057600080fd5b505160408051630d13601360e31b815233600482015290516001600160a01b039092169163689b009891602480820192602092909190829003018186803b15801562000e9b57600080fd5b505afa15801562000eb0573d6000803e3d6000fd5b505050506040513d602081101562000ec757600080fd5b505162000f13576040805162461bcd60e51b815260206004820152601560248201527410dd5cdd1bdb595c88191bd95cdb9d08195e1a5cdd605a1b604482015290519081900360640190fd5b6060868680806020026020016040519081016040528093929190818152602001838360200280828437600092018290525060095460405195965090943494508693508a92506001600160a01b039091169088908a9062000f7390620011e6565b60208082018690526001600160a01b038086166040840152841660608301526080820183905260a08083528751908301528651829160c0830191898201910280838360005b8381101562000fd257818101518382015260200162000fb8565b5050505090500196505050505050506040518091039082f08015801562000ffd573d6000803e3d6000fd5b5060408051808201825260018082526001600160a01b038481166020808501918252600b80546000908152600c835287812096518754945160ff1990951690151517610100600160a81b031916610100948616850217909655805494850190559284529284902054845193900416825291519294507f6ad6ccf0214624cc1ab014b24a7601698f45e6a0d07edcbab143606784ed78fb93508290030190a15050600b54600019016000908152600c602052604090205461010090046001600160a01b03169695505050505050565b60065481565b6008546001600160a01b03163314620010e957600080fd5b600755565b828054600181600116156101000203166002900490600052602060002090601f016020900481019282601f106200113157805160ff191683800117855562001161565b8280016001018555821562001161579182015b828111156200116157825182559160200191906001019062001144565b506200116f929150620011f4565b5090565b828054600181600116156101000203166002900490600052602060002090601f016020900481019282601f10620011b65782800160ff1982351617855562001161565b8280016001018555821562001161579182015b8281111562001161578235825591602001919060010190620011c9565b611377806200121283390190565b6200094491905b808211156200116f5760008155600101620011fb56fe608060408190526004805461ffff19169055600c805460ff19908116909155600e805490911690556200137738819003908190833981810160405260a08110156200004957600080fd5b81019080805160405193929190846401000000008211156200006a57600080fd5b9083019060208201858111156200008057600080fd5b82518660208202830111640100000000821117156200009e57600080fd5b82525081516020918201928201910280838360005b83811015620000cd578181015183820152602001620000b3565b505050509190910160408181526020848101518583015160608701516080909701517f68db65a4000000000000000000000000000000000000000000000000000000008652935191985096509193506001600160a01b038616926368db65a49260048083019392829003018186803b1580156200014957600080fd5b505afa1580156200015e573d6000803e3d6000fd5b505050506040513d60208110156200017557600080fd5b5051604080517f79a4fa2700000000000000000000000000000000000000000000000000000000815233600482015290516001600160a01b03909216916379a4fa2791602480820192602092909190829003018186803b158015620001d957600080fd5b505afa158015620001ee573d6000803e3d6000fd5b505050506040513d60208110156200020557600080fd5b50516200025e576040517f08c379a000000000000000000000000000000000000000000000000000000000815260040180806020018281038252603d8152602001806200133a603d913960400191505060405180910390fd5b846001815181106200026c57fe5b6020026020010151600a81905550846000815181106200028857fe5b6020026020010151600981905550600a5460095401341015620002f7576040517f08c379a0000000000000000000000000000000000000000000000000000000008152600401808060200182810382526022815260200180620013186022913960400191505060405180910390fd5b600f849055600062000308620004d7565b60005b868110156200045d5760405180606001604052808983600201815181106200032f57fe5b6020026020010151815260200189898401600201815181106200034e57fe5b6020026020010151815260200189896002028401600201815181106200037057fe5b6020026020010151604051908082528060200260200182016040528015620003a2578160200160208202803883390190505b509052915060005b8888600202830160020181518110620003bf57fe5b602002602001015181101562000415578888600302850160020181518110620003e457fe5b602002602001015183604001518281518110620003fd57fe5b602090810291909101015260019384019301620003aa565b506000818152601060209081526040918290208451815581850151600182015591840151805185939262000451926002850192910190620004f8565b5050506001016200030b565b50506004805462010000600160b01b03191633620100000217905550600680546001600160a01b03199081166001600160a01b03948516179091554260085560078054909116939092169290921790556001600281905560008080558155600b91909155600c805460ff1916909117905550620005689050565b60405180606001604052806000815260200160008152602001606081525090565b82805482825590600052602060002090810192821562000536579160200282015b828111156200053657825182559160200191906001019062000519565b506200054492915062000548565b5090565b6200056591905b808211156200054457600081556001016200054f565b90565b610da080620005786000396000f3fe6080604052600436106101665760003560e01c8063a14b7e68116100d1578063db7575f01161008a578063ed16805811610064578063ed16805814610454578063f3cc0f1f14610469578063f90a92e31461047e578063fc6f78a01461049b57610166565b8063db7575f01461037f578063ddd0ebe8146103a9578063e9132c421461043557610166565b8063a14b7e68146102d3578063af640d0f146102e8578063bd3e19d4146102fd578063bfb231d214610312578063d601e11414610355578063d638e1021461036a57610166565b80633e3ca4d3116101235780633e3ca4d31461022c57806340571abb1461024157806353c0a0061461026a578063646e077f1461027f5780637aada134146102945780639e8464f1146102a957610166565b806312065fe01461016b5780632799276d146101925780632804b2c0146101a757806332940816146101d85780633cc94908146101ed5780633cf5040a14610202575b600080fd5b34801561017757600080fd5b506101806104b0565b60408051918252519081900360200190f35b34801561019e57600080fd5b506101806104b5565b3480156101b357600080fd5b506101bc6104bb565b604080516001600160a01b039092168252519081900360200190f35b3480156101e457600080fd5b506101806104ca565b3480156101f957600080fd5b506101806104d0565b34801561020e57600080fd5b506101806004803603602081101561022557600080fd5b50356104d6565b34801561023857600080fd5b506101806104fa565b34801561024d57600080fd5b50610256610500565b604080519115158252519081900360200190f35b34801561027657600080fd5b506101bc61050e565b34801561028b57600080fd5b5061025661051d565b3480156102a057600080fd5b50610180610526565b3480156102b557600080fd5b50610256600480360360208110156102cc57600080fd5b503561052c565b3480156102df57600080fd5b50610180610600565b3480156102f457600080fd5b50610180610606565b34801561030957600080fd5b5061018061060c565b34801561031e57600080fd5b5061033c6004803603602081101561033557600080fd5b5035610612565b6040805192835260208301919091528051918290030190f35b34801561036157600080fd5b5061025661062b565b34801561037657600080fd5b50610256610634565b34801561038b57600080fd5b50610256600480360360208110156103a257600080fd5b503561063d565b3480156103b557600080fd5b506103d3600480360360208110156103cc57600080fd5b5035610710565b6040518084815260200183815260200180602001828103825283818151815260200191508051906020019060200280838360005b8381101561041f578181015183820152602001610407565b5050505090500194505050505060405180910390f35b6104526004803603602081101561044b57600080fd5b503561080c565b005b34801561046057600080fd5b506101bc61092b565b34801561047557600080fd5b50610180610940565b6104526004803603602081101561049457600080fd5b5035610946565b3480156104a757600080fd5b50610180610b48565b303190565b600f5481565b6006546001600160a01b031681565b60015481565b600d5481565b60408051602080820193909352815180820384018152908201909152805191012090565b60005481565b600454610100900460ff1681565b6005546001600160a01b031681565b600c5460ff1681565b60085481565b600e5460009060ff161515600114610581576040805162461bcd60e51b8152602060048201526013602482015272139bc81ad95e481a185cc81899595b881cd95d606a1b604482015290519081900360640190fd5b600d5461058d836104d6565b146105cf576040805162461bcd60e51b815260206004820152600d60248201526c496e636f7272656374204b657960981b604482015290519081900360640190fd5b6105d7610b4e565b600360015560026000908155604051600080516020610c7e8339815191529190a1506001919050565b60025481565b60035481565b60095490565b6010602052600090815260409020805460019091015482565b60045460ff1681565b600e5460ff1681565b600c5460009060ff161515600114610692576040805162461bcd60e51b8152602060048201526013602482015272139bc81ad95e481a185cc81899595b881cd95d606a1b604482015290519081900360640190fd5b600b5461069e836104d6565b146106e0576040805162461bcd60e51b815260206004820152600d60248201526c496e636f7272656374204b657960981b604482015290519081900360640190fd5b6106e8610be2565b600360005560028055604051600080516020610c7e83398151915290600090a1506001919050565b60065460009081906060906001600160a01b031633148061074157506004546201000090046001600160a01b031633145b8061075657506005546001600160a01b031633145b6107915760405162461bcd60e51b815260040180806020018281038252602b815260200180610d18602b913960400191505060405180910390fd5b60008481526010602090815260409182902080546001820154600290920180548551818602810186019096528086529194929390929183918301828280156107f857602002820191906000526020600020905b8154815260200190600101908083116107e4575b505050505090509250925092509193909250565b6004546201000090046001600160a01b0316331461085b5760405162461bcd60e51b8152600401808060200182810382526050815260200180610c9e6050913960600191505060405180910390fd5b60015481116108b1576040805162461bcd60e51b815260206004820152601c60248201527f7374617475732063616e6e6f74206265206261636b747261636b656400000000604482015290519081900360640190fd5b600381111580156108c25750600081115b61090c576040805162461bcd60e51b815260206004820152601660248201527519da5d995b8814dd185d1d5cc81b9bdd081d985b1a5960521b604482015290519081900360640190fd5b6001819055604051600080516020610c7e83398151915290600090a150565b6004546201000090046001600160a01b031681565b600a5481565b600054156109855760405162461bcd60e51b815260040180806020018281038252602a815260200180610cee602a913960400191505060405180910390fd5b600760009054906101000a90046001600160a01b03166001600160a01b031663c9286d576040518163ffffffff1660e01b815260040160206040518083038186803b1580156109d357600080fd5b505afa1580156109e7573d6000803e3d6000fd5b505050506040513d60208110156109fd57600080fd5b505160408051630139526760e41b815233600482015290516001600160a01b0390921691631395267091602480820192602092909190829003018186803b158015610a4757600080fd5b505afa158015610a5b573d6000803e3d6000fd5b505050506040513d6020811015610a7157600080fd5b5051610aae5760405162461bcd60e51b8152600401808060200182810382526029815260200180610d436029913960400191505060405180910390fd5b600954341015610b05576040805162461bcd60e51b815260206004820152601e60248201527f746865206465706f7369742073656e74206973206e6f7420656e6f7567680000604482015290519081900360640190fd5b60016000908155600580546001600160a01b03191633179055600d829055600e805460ff19166001179055604051600080516020610c7e8339815191529190a150565b600b5481565b600460029054906101000a90046001600160a01b03166001600160a01b0316631b9265b86009546040518263ffffffff1660e01b81526004016000604051808303818588803b158015610ba057600080fd5b505af1158015610bb4573d6000803e3d6000fd5b50506004805460ff191660019081178255555050604051600080516020610c7e8339815191529150600090a1565b600560009054906101000a90046001600160a01b03166001600160a01b0316631b9265b8600a54600954016040518263ffffffff1660e01b81526004016000604051808303818588803b158015610c3857600080fd5b505af1158015610c4c573d6000803e3d6000fd5b50506004805461ff001916610100179055505060036000908155604051600080516020610c7e8339815191529250a156feac854101ed2841c4fe7b3c5bfc4f3e58ddac515e8dd58f1bd9cf7856f1cc6e7f596f7520646f6e742068617665207065726d697373696f6e20746f207365652074686973206f726465722c2064696420796f752067657420746865206f7264657220616464726573732077726f6e673f74686973206f7264657220616c6c7265616479206861732064656c6976657279206f7267616e69736564796f7520646f6e742068617665207065726d697373696f6e20746f20766965772074686973206f726465726d7573742062652063616c6c656420766961206120726964657220736d61727420636f6e7472616374a265627a7a723158203048b5a35a179d8a10114d33333741c57e0742818a9b6d10e2968b2f62d5435364736f6c634300050c00326e6f7420656e6f7567682065746865722073656e7420746f20746865206f72646572617474656d7074656420746f206d616b65206f726465722066726f6d20616464726573732074686174206973206e6f7420612072657374617572616e74a265627a7a72315820a6733b238e1a22083355826664e8279f9b072f0b3e16f15de6dfbd1ffb8b7d3064736f6c634300050c0032608060405234801561001057600080fd5b506040516126953803806126958339818101604052602081101561003357600080fd5b5051600080546001600160a01b039092166001600160a01b0319909216919091179055600160038190556004556126268061006f6000396000f3fe608060405234801561001057600080fd5b506004361061018e5760003560e01c80638fb0f14c116100de578063c1c4d10211610097578063e40c8a3211610071578063e40c8a32146110a9578063e4d8a2a61461124e578063e840515414611277578063f0439f711461141c5761018e565b8063c1c4d10214610e5b578063ca497d5c14610e63578063d1005e3914610f045761018e565b80638fb0f14c14610983578063a27b34f214610a24578063a6bd92e314610a2c578063b0e7722b14610b4f578063b21dc38a14610cf4578063bae78d7b14610d975761018e565b806325b5c4f91161014b57806364f2eacd1161012557806364f2eacd146105a55780638374ad34146107e0578063893bb0bf146109425780638da5cb5b1461095f5761018e565b806325b5c4f9146103d95780633b1180bb146104fc5780636287dcc6146105045761018e565b80630545ba29146101935780630b9a02c5146101b8578063125ba977146101e75780631ce5e9a6146101ef5780631e516e051461022c5780631f7b6d32146103d1575b600080fd5b6101b6600480360360408110156101a957600080fd5b508035906020013561144a565b005b6101d5600480360360208110156101ce57600080fd5b503561150f565b60408051918252519081900360200190f35b6101d561159d565b61020c6004803603602081101561020557600080fd5b5035611622565b604080519384526020840192909252151582820152519081900360600190f35b6101b66004803603606081101561024257600080fd5b810190602081018135600160201b81111561025c57600080fd5b82018360208201111561026e57600080fd5b803590602001918460208302840111600160201b8311171561028f57600080fd5b9190808060200260200160405190810160405280939291908181526020018383602002808284376000920191909152509295949360208101935035915050600160201b8111156102de57600080fd5b8201836020820111156102f057600080fd5b803590602001918460208302840111600160201b8311171561031157600080fd5b9190808060200260200160405190810160405280939291908181526020018383602002808284376000920191909152509295949360208101935035915050600160201b81111561036057600080fd5b82018360208201111561037257600080fd5b803590602001918460208302840111600160201b8311171561039357600080fd5b919080806020026020016040519081016040528093929190818152602001838360200280828437600092019190915250929550611647945050505050565b6101d561179f565b6101b6600480360360408110156103ef57600080fd5b810190602081018135600160201b81111561040957600080fd5b82018360208201111561041b57600080fd5b803590602001918460208302840111600160201b8311171561043c57600080fd5b9190808060200260200160405190810160405280939291908181526020018383602002808284376000920191909152509295949360208101935035915050600160201b81111561048b57600080fd5b82018360208201111561049d57600080fd5b803590602001918460208302840111600160201b831117156104be57600080fd5b9190808060200260200160405190810160405280939291908181526020018383602002808284376000920191909152509295506117a5945050505050565b6101d561189a565b6101b66004803603602081101561051a57600080fd5b810190602081018135600160201b81111561053457600080fd5b82018360208201111561054657600080fd5b803590602001918460208302840111600160201b8311171561056757600080fd5b9190808060200260200160405190810160405280939291908181526020018383602002808284376000920191909152509295506118a0945050505050565b6107cc600480360360808110156105bb57600080fd5b810190602081018135600160201b8111156105d557600080fd5b8201836020820111156105e757600080fd5b803590602001918460208302840111600160201b8311171561060857600080fd5b9190808060200260200160405190810160405280939291908181526020018383602002808284376000920191909152509295949360208101935035915050600160201b81111561065757600080fd5b82018360208201111561066957600080fd5b803590602001918460208302840111600160201b8311171561068a57600080fd5b9190808060200260200160405190810160405280939291908181526020018383602002808284376000920191909152509295949360208101935035915050600160201b8111156106d957600080fd5b8201836020820111156106eb57600080fd5b803590602001918460208302840111600160201b8311171561070c57600080fd5b9190808060200260200160405190810160405280939291908181526020018383602002808284376000920191909152509295949360208101935035915050600160201b81111561075b57600080fd5b82018360208201111561076d57600080fd5b803590602001918460208302840111600160201b8311171561078e57600080fd5b919080806020026020016040519081016040528093929190818152602001838360200280828437600092019190915250929550611950945050505050565b604080519115158252519081900360200190f35b61088d600480360360608110156107f657600080fd5b813591602081013591810190606081016040820135600160201b81111561081c57600080fd5b82018360208201111561082e57600080fd5b803590602001918460208302840111600160201b8311171561084f57600080fd5b919080806020026020016040519081016040528093929190818152602001838360200280828437600092019190915250929550611b07945050505050565b604051808781526020018681526020018581526020018481526020018060200180602001838103835285818151815260200191508051906020019060200280838360005b838110156108e95781810151838201526020016108d1565b50505050905001838103825284818151815260200191508051906020019060200280838360005b83811015610928578181015183820152602001610910565b505050509050019850505050505050505060405180910390f35b61020c6004803603602081101561095857600080fd5b5035611d38565b610967611d5d565b604080516001600160a01b039092168252519081900360200190f35b6101b66004803603602081101561099957600080fd5b810190602081018135600160201b8111156109b357600080fd5b8201836020820111156109c557600080fd5b803590602001918460208302840111600160201b831117156109e657600080fd5b919080806020026020016040519081016040528093929190818152602001838360200280828437600092019190915250929550611d6c945050505050565b6101d5611e47565b6101b660048036036040811015610a4257600080fd5b810190602081018135600160201b811115610a5c57600080fd5b820183602082011115610a6e57600080fd5b803590602001918460208302840111600160201b83111715610a8f57600080fd5b9190808060200260200160405190810160405280939291908181526020018383602002808284376000920191909152509295949360208101935035915050600160201b811115610ade57600080fd5b820183602082011115610af057600080fd5b803590602001918460208302840111600160201b83111715610b1157600080fd5b919080806020026020016040519081016040528093929190818152602001838360200280828437600092019190915250929550611e4d945050505050565b6101b660048036036060811015610b6557600080fd5b810190602081018135600160201b811115610b7f57600080fd5b820183602082011115610b9157600080fd5b803590602001918460208302840111600160201b83111715610bb257600080fd5b9190808060200260200160405190810160405280939291908181526020018383602002808284376000920191909152509295949360208101935035915050600160201b811115610c0157600080fd5b820183602082011115610c1357600080fd5b803590602001918460208302840111600160201b83111715610c3457600080fd5b9190808060200260200160405190810160405280939291908181526020018383602002808284376000920191909152509295949360208101935035915050600160201b811115610c8357600080fd5b820183602082011115610c9557600080fd5b803590602001918460208302840111600160201b83111715610cb657600080fd5b919080806020026020016040519081016040528093929190818152602001838360200280828437600092019190915250929550611edc945050505050565b6101d560048036036040811015610d0a57600080fd5b810190602081018135600160201b811115610d2457600080fd5b820183602082011115610d3657600080fd5b803590602001918460208302840111600160201b83111715610d5757600080fd5b9190808060200260200160405190810160405280939291908181526020018383602002808284376000920191909152509295505091359250611f6e915050565b610db460048036036020811015610dad57600080fd5b503561207a565b604051808581526020018481526020018060200180602001838103835285818151815260200191508051906020019060200280838360005b83811015610e04578181015183820152602001610dec565b50505050905001838103825284818151815260200191508051906020019060200280838360005b83811015610e43578181015183820152602001610e2b565b50505050905001965050505050505060405180910390f35b6101d5612241565b6101b660048036036020811015610e7957600080fd5b810190602081018135600160201b811115610e9357600080fd5b820183602082011115610ea557600080fd5b803590602001918460208302840111600160201b83111715610ec657600080fd5b919080806020026020016040519081016040528093929190818152602001838360200280828437600092019190915250929550612295945050505050565b6101b660048036036060811015610f1a57600080fd5b810190602081018135600160201b811115610f3457600080fd5b820183602082011115610f4657600080fd5b803590602001918460208302840111600160201b83111715610f6757600080fd5b9190808060200260200160405190810160405280939291908181526020018383602002808284376000920191909152509295949360208101935035915050600160201b811115610fb657600080fd5b820183602082011115610fc857600080fd5b803590602001918460208302840111600160201b83111715610fe957600080fd5b9190808060200260200160405190810160405280939291908181526020018383602002808284376000920191909152509295949360208101935035915050600160201b81111561103857600080fd5b82018360208201111561104a57600080fd5b803590602001918460208302840111600160201b8311171561106b57600080fd5b91908080602002602001604051908101604052809392919081815260200183836020028082843760009201919091525092955061231a945050505050565b6101b6600480360360608110156110bf57600080fd5b810190602081018135600160201b8111156110d957600080fd5b8201836020820111156110eb57600080fd5b803590602001918460208302840111600160201b8311171561110c57600080fd5b9190808060200260200160405190810160405280939291908181526020018383602002808284376000920191909152509295949360208101935035915050600160201b81111561115b57600080fd5b82018360208201111561116d57600080fd5b803590602001918460208302840111600160201b8311171561118e57600080fd5b9190808060200260200160405190810160405280939291908181526020018383602002808284376000920191909152509295949360208101935035915050600160201b8111156111dd57600080fd5b8201836020820111156111ef57600080fd5b803590602001918460208302840111600160201b8311171561121057600080fd5b9190808060200260200160405190810160405280939291908181526020018383602002808284376000920191909152509295506123a3945050505050565b6101b66004803603606081101561126457600080fd5b5080359060208101359060400135612435565b6101b66004803603606081101561128d57600080fd5b810190602081018135600160201b8111156112a757600080fd5b8201836020820111156112b957600080fd5b803590602001918460208302840111600160201b831117156112da57600080fd5b9190808060200260200160405190810160405280939291908181526020018383602002808284376000920191909152509295949360208101935035915050600160201b81111561132957600080fd5b82018360208201111561133b57600080fd5b803590602001918460208302840111600160201b8311171561135c57600080fd5b9190808060200260200160405190810160405280939291908181526020018383602002808284376000920191909152509295949360208101935035915050600160201b8111156113ab57600080fd5b8201836020820111156113bd57600080fd5b803590602001918460208302840111600160201b831117156113de57600080fd5b9190808060200260200160405190810160405280939291908181526020018383602002808284376000920191909152509295506124e5945050505050565b61142461256e565b604080519485526020850193909352838301919091526060830152519081900360800190f35b6000546001600160a01b031633146114935760405162461bcd60e51b81526004018080602001828103825260228152602001806125d06022913960400191505060405180910390fd5b60408051632f75e6e760e11b8152600160048201526024810184905260448101839052905173__menuHelper____________________________91635eebcdce916064808301926000929190829003018186803b1580156114f357600080fd5b505af4158015611507573d6000803e3d6000fd5b505050505050565b6000600173__menuHelper____________________________6374f811479091846040518363ffffffff1660e01b8152600401808381526020018281526020019250505060206040518083038186803b15801561156b57600080fd5b505af415801561157f573d6000803e3d6000fd5b505050506040513d602081101561159557600080fd5b505192915050565b6000600173__menuHelper____________________________63f36cf61090916040518263ffffffff1660e01b81526004018082815260200191505060206040518083038186803b1580156115f157600080fd5b505af4158015611605573d6000803e3d6000fd5b505050506040513d602081101561161b57600080fd5b5051905090565b600090815260056020526040902080546001820154600290920154909260ff90911690565b6000546001600160a01b0316331461165e57600080fd5b604051631ee24e7760e01b815260016004820181815260806024840190815286516084850152865173__menuHelper____________________________94631ee24e7794938993899389936044810191606482019160a401906020808a01910280838360005b838110156116dc5781810151838201526020016116c4565b50505050905001848103835286818151815260200191508051906020019060200280838360005b8381101561171b578181015183820152602001611703565b50505050905001848103825285818151815260200191508051906020019060200280838360005b8381101561175a578181015183820152602001611742565b5050505090500197505050505050505060006040518083038186803b15801561178257600080fd5b505af4158015611796573d6000803e3d6000fd5b50505050505050565b60015490565b6000546001600160a01b031633146117bc57600080fd5b600173__menuHelper____________________________631144d8cc909184846040518463ffffffff1660e01b8152600401808481526020018060200180602001838103835285818151815260200191508051906020019060200280838360005b8381101561183557818101518382015260200161181d565b50505050905001838103825284818151815260200191508051906020019060200280838360005b8381101561187457818101518382015260200161185c565b505050509050019550505050505060006040518083038186803b1580156114f357600080fd5b60035490565b60408051630733405f60e01b81526001600482018181526024830193845284516044840152845173__menuHelper____________________________94630733405f948793926064909101906020808601910280838360005b838110156119115781810151838201526020016118f9565b50505050905001935050505060006040518083038186803b15801561193557600080fd5b505af4158015611949573d6000803e3d6000fd5b5050505050565b600080546001600160a01b0316331461196857600080fd5b600173__menuHelper____________________________63412362179091878787876040518663ffffffff1660e01b81526004018086815260200180602001806020018060200180602001858103855289818151815260200191508051906020019060200280838360005b838110156119eb5781810151838201526020016119d3565b50505050905001858103845288818151815260200191508051906020019060200280838360005b83811015611a2a578181015183820152602001611a12565b50505050905001858103835287818151815260200191508051906020019060200280838360005b83811015611a69578181015183820152602001611a51565b50505050905001858103825286818151815260200191508051906020019060200280838360005b83811015611aa8578181015183820152602001611a90565b50505050905001995050505050505050505060206040518083038186803b158015611ad257600080fd5b505af4158015611ae6573d6000803e3d6000fd5b505050506040513d6020811015611afc57600080fd5b509095945050505050565b600080600080606080600173__menuHelper____________________________630a652e4390918b8b8b6040518563ffffffff1660e01b81526004018085815260200184815260200183815260200180602001828103825283818151815260200191508051906020019060200280838360005b83811015611b92578181015183820152602001611b7a565b505050509050019550505050505060006040518083038186803b158015611bb857600080fd5b505af4158015611bcc573d6000803e3d6000fd5b505050506040513d6000823e601f3d908101601f1916820160405260c0811015611bf557600080fd5b8151602083015160408085015160608601516080870180519351959794969295919491939282019284600160201b821115611c2f57600080fd5b908301906020820185811115611c4457600080fd5b82518660208202830111600160201b82111715611c6057600080fd5b82525081516020918201928201910280838360005b83811015611c8d578181015183820152602001611c75565b5050505090500160405260200180516040519392919084600160201b821115611cb557600080fd5b908301906020820185811115611cca57600080fd5b82518660208202830111600160201b82111715611ce657600080fd5b82525081516020918201928201910280838360005b83811015611d13578181015183820152602001611cfb565b5050505090500160405250505095509550955095509550955093975093979195509350565b600090815260076020526040902080546001820154600290920154909260ff90911690565b6000546001600160a01b031681565b6000546001600160a01b03163314611d8357600080fd5b60408051631820e07b60e11b81526001600482018181526024830193845284516044840152845173__menuHelper____________________________94633041c0f6948793926064909101906020808601910280838360005b83811015611df4578181015183820152602001611ddc565b50505050905001935050505060206040518083038186803b158015611e1857600080fd5b505af4158015611e2c573d6000803e3d6000fd5b505050506040513d6020811015611e4257600080fd5b505050565b60045490565b6000546001600160a01b03163314611e6457600080fd5b6040516308f5487d60e11b815260016004820181815260606024840190815285516064850152855173__menuHelper____________________________946311ea90fa94938893889391929091604482019160840190602080880191028083836000831561183557818101518382015260200161181d565b6000546001600160a01b03163314611ef357600080fd5b60405163753810c760e01b815260016004820181815260806024840190815286516084850152865173__menuHelper____________________________9463753810c794938993899389936044810191606482019160a401906020808a019102808383600083156116dc5781810151838201526020016116c4565b600080805b8381101561207257600080611fa5878481518110611f8d57fe5b6020026020010151600161257d90919063ffffffff16565b9092509050600181151514611fb957600080fd5b600160040160008888860181518110611fce57fe5b602002602001015181526020019081526020016000206001015484019350600080905060008090505b888860020286018151811061200857fe5b602002602001015181101561206257600160060160008a8a60030285018151811061202f57fe5b60200260200101518152602001908152602001600020600101548601955081806001019250508080600101915050611ff7565b505060019092019150611f739050565b509392505050565b600080606080600173__menuHelper____________________________6336bf00579091876040518363ffffffff1660e01b8152600401808381526020018281526020019250505060006040518083038186803b1580156120da57600080fd5b505af41580156120ee573d6000803e3d6000fd5b505050506040513d6000823e601f3d908101601f19168201604052608081101561211757600080fd5b81516020830151604080850180519151939592948301929184600160201b82111561214157600080fd5b90830190602082018581111561215657600080fd5b82518660208202830111600160201b8211171561217257600080fd5b82525081516020918201928201910280838360005b8381101561219f578181015183820152602001612187565b5050505090500160405260200180516040519392919084600160201b8211156121c757600080fd5b9083019060208201858111156121dc57600080fd5b82518660208202830111600160201b821117156121f857600080fd5b82525081516020918201928201910280838360005b8381101561222557818101518382015260200161220d565b5050505090500160405250505093509350935093509193509193565b6000600173__menuHelper____________________________63cf17773590916040518263ffffffff1660e01b81526004018082815260200191505060206040518083038186803b1580156115f157600080fd5b6000546001600160a01b031633146122ac57600080fd5b6040805163b49a2e4960e01b81526001600482018181526024830193845284516044840152845173__menuHelper____________________________9463b49a2e499487939260649091019060208086019102808383600083156119115781810151838201526020016118f9565b825181511461232857600080fd5b6040516389ac324360e01b815260016004820181815260806024840190815286516084850152865173__menuHelper____________________________946389ac324394938993899389936044810191606482019160a401906020808a019102808383600083156116dc5781810151838201526020016116c4565b6000546001600160a01b031633146123ba57600080fd5b604051636f627d2360e11b815260016004820181815260806024840190815286516084850152865173__menuHelper____________________________9463dec4fa4694938993899389936044810191606482019160a401906020808a019102808383600083156116dc5781810151838201526020016116c4565b6000546001600160a01b0316331461247e5760405162461bcd60e51b81526004018080602001828103825260228152602001806125d06022913960400191505060405180910390fd5b60408051632f0ebdbf60e11b815260016004820152602481018590526044810184905260648101839052905173__menuHelper____________________________91635e1d7b7e916084808301926000929190829003018186803b15801561178257600080fd5b82518151146124f357600080fd5b6040516301617f1560e61b815260016004820181815260806024840190815286516084850152865173__menuHelper____________________________9463585fc54094938993899389936044810191606482019160a401906020808a019102808383600083156116dc5781810151838201526020016116c4565b60015460025460035460045484565b60018201546000908190815b848110156125c05760009182526005860160205260409091205490816125b85750600092508291506125c89050565b600101612589565b509150600190505b925092905056fe796f7520617265206e6f7420746865206f776e6572206f662074686973206d656e75a265627a7a72315820aa341e9815a2a1d770b7d68bfc25499ba837e9893d86b0972539ab82f945464364736f6c634300050c0032",
  "source": "pragma solidity ^0.5.0;\n\n //import \"./lib.sol\";\n import \"./Order.sol\";\n //import \"./RestaurantFactory.sol\";\n import \"./CustomerFactory.sol\";\n import \"./Controller.sol\";\n import \"./Menu.sol\";\n\ncontract Restaurant {\n\n    // additional variables to add\n\n\tuint public id;\n\tbytes32 public name; \n\n\tbytes public location; \n    uint public longitude; \n    uint public latitude; \n\n    bytes public logoURI; \n    bytes32 public logoHash; \n\n\n\tbytes32 public contactNumber; \n\n\taddress payable public owner;  \n    address public controllerAddress;\n\taddress public restaurantFactoryAddress;\n\n\n    struct order{bool open; address orderAddress;}\n\tuint public totalOrders;\n    // todo: make orders private and accessed via method for only rider and restaurant\n\tmapping(uint => order) public orders; // must be a better way to store the orders\n\n    uint totalPay;\n\t\n    Menu menu;\n\n    enum restaurantState{acceptedOrder, preparingCargo, readyForCollection, HandedOver}\n\t\n    event OrderMadeEvent(address orderAddress);\n    event MenuUpdated();\n\n\tconstructor(address _controller, address payable _owner, \n                uint _id, bytes32 _name, \n                bytes memory _address, uint _latitude, uint _longitude, \n                bytes32 _contactNumber\n                ) public {\n        // itemOptions and prices will have to be parsed as they are 2d arrays\n\t\tid = _id;\n\t\tname = _name;\n\t\t\n        location = _address;\n        latitude = _latitude;\n        longitude = _longitude;\n\n\t\tcontactNumber = _contactNumber;\n\t\ttotalOrders = 0;\n        totalPay = 0;\n\n        controllerAddress = _controller;\n\t\towner = _owner;\n\t\trestaurantFactoryAddress = msg.sender;\n\n        menu = new Menu(_owner);\n\t}\n\n    function getMenuAddress() public view returns (address) {\n        return address(menu);\n    }\n\n\n    function updateLogo(bytes calldata imageURI, bytes32 imageHash) external{\n        require(msg.sender == owner);\n        logoURI = imageURI;\n        logoHash = imageHash;\n    }\n    \n\n    function getOrderPrice(uint[] memory integers, uint itemCount) public view returns (uint){\n        return menu.getOrderPrice(integers, itemCount);\n    }\n    \n    // uint[] calldata itemIds, uint[] calldata optionIds, uint[] calldata extraFlags, uint[] calldata extraIds, uint deliveryFee, uint price\n    function makeOrder(uint[] calldata _integers, uint itemCount, bytes32 riderKeyHash, address payable customer) external payable returns (address orderAddress) {\n        //require this comes from a customer smart contract, maybe worth moving this to the order smart contract\n        require(CustomerFactory(Controller(controllerAddress).customerFactoryAddress()).customerExists(msg.sender), \"Customer doesnt exist\");\n\n        uint[] memory integers = _integers;\n        \n\t\tOrder newOrder = (new Order).value(msg.value)(integers, itemCount, controllerAddress, customer, riderKeyHash);\n\t\torders[totalOrders] = order(true,address(newOrder));\n        totalOrders ++;\n\n        emit OrderMadeEvent(orders[totalOrders - 1].orderAddress);\n\n\t\treturn orders[totalOrders - 1].orderAddress;       \n    }\n\n    // the order should keep a reference to the owner and not the restaurant contract to avoid needing this function\n    function setStatus(address orderAddress, uint status) public{\n        require(msg.sender == owner, \"you are not the owner\");\n        Order(orderAddress).setOrderStatus(status);\n    }\n\n    function pay() external payable {\n        totalPay += msg.value;\n        owner.transfer(msg.value);\n    } \n\n    function() external payable {\n\n    }\n\n\n    // Setters\n    function updateRestaurant(bytes32 _name, bytes32 _number, address payable _owner, bytes memory _location, uint _latitude, uint _longitude, bytes memory _logoURI, bytes32 _logoHash) public {\n        require(msg.sender == owner);\n        if(_name.length > 0 )\n            setName(_name);\n        if(_number.length > 0 )\n            setNumber(_number);\n        if(_owner != address(0))\n            setOwner(_owner);\n        if(_location.length > 0)\n            setLocation(_location, _latitude, _longitude);\n        if(_logoURI.length > 0)\n            setName(_name);\n    }\n    function setName(bytes32 _name) public {\n        require(msg.sender == owner);\n        name = _name;\n    }\n    function setNumber(bytes32 _number) public {\n        require(msg.sender == owner);\n        contactNumber = _number;\n    }\n    function setOwner(address payable _owner) public {\n        require(msg.sender == owner);\n        owner = _owner;\n    }\n    function setLocation(bytes memory _location, uint _latitude, uint _longitude) public {\n        require(msg.sender == owner);\n        location = _location;\n        latitude - _latitude;\n        longitude = _longitude;\n    }\n    function setLogo(bytes memory _logoURI, bytes32 _logoHash) public {\n        require(msg.sender == owner);\n        logoURI = _logoURI;\n        logoHash = _logoHash;\n    }\n}",
  "sourcePath": "/home/george/Documents/WorkSpace/TryAByte/contracts/Restaurant.sol",
  "compiler": {
    "name": "solc",
    "version": "0.5.12+commit.7709ece9.Emscripten.clang"
  },
  "schemaVersion": "3.0.19",
  "updatedAt": "2020-02-01T16:54:16.457Z",
  "networkType": "ethereum",
  "devdoc": {
    "methods": {}
  },
  "userdoc": {
    "methods": {}
  }
}