{
  "contractName": "Restaurant",
  "abi": [
    {
      "constant": true,
      "inputs": [],
      "name": "name",
      "outputs": [
        {
          "name": "",
          "type": "string"
        }
      ],
      "payable": false,
      "stateMutability": "view",
      "type": "function"
    },
    {
      "constant": true,
      "inputs": [],
      "name": "totalOrders",
      "outputs": [
        {
          "name": "",
          "type": "uint256"
        }
      ],
      "payable": false,
      "stateMutability": "view",
      "type": "function"
    },
    {
      "constant": true,
      "inputs": [],
      "name": "menuLength",
      "outputs": [
        {
          "name": "",
          "type": "uint256"
        }
      ],
      "payable": false,
      "stateMutability": "view",
      "type": "function"
    },
    {
      "constant": true,
      "inputs": [],
      "name": "controllerAddress",
      "outputs": [
        {
          "name": "",
          "type": "address"
        }
      ],
      "payable": false,
      "stateMutability": "view",
      "type": "function"
    },
    {
      "constant": true,
      "inputs": [],
      "name": "latitude",
      "outputs": [
        {
          "name": "",
          "type": "uint256"
        }
      ],
      "payable": false,
      "stateMutability": "view",
      "type": "function"
    },
    {
      "constant": true,
      "inputs": [],
      "name": "location",
      "outputs": [
        {
          "name": "",
          "type": "bytes"
        }
      ],
      "payable": false,
      "stateMutability": "view",
      "type": "function"
    },
    {
      "constant": true,
      "inputs": [],
      "name": "longitude",
      "outputs": [
        {
          "name": "",
          "type": "uint256"
        }
      ],
      "payable": false,
      "stateMutability": "view",
      "type": "function"
    },
    {
      "constant": true,
      "inputs": [],
      "name": "restaurantFactoryAddress",
      "outputs": [
        {
          "name": "",
          "type": "address"
        }
      ],
      "payable": false,
      "stateMutability": "view",
      "type": "function"
    },
    {
      "constant": true,
      "inputs": [],
      "name": "logoURI",
      "outputs": [
        {
          "name": "",
          "type": "bytes"
        }
      ],
      "payable": false,
      "stateMutability": "view",
      "type": "function"
    },
    {
      "constant": true,
      "inputs": [],
      "name": "contactNumber",
      "outputs": [
        {
          "name": "",
          "type": "string"
        }
      ],
      "payable": false,
      "stateMutability": "view",
      "type": "function"
    },
    {
      "constant": true,
      "inputs": [],
      "name": "owner",
      "outputs": [
        {
          "name": "",
          "type": "address"
        }
      ],
      "payable": false,
      "stateMutability": "view",
      "type": "function"
    },
    {
      "constant": true,
      "inputs": [
        {
          "name": "",
          "type": "uint256"
        }
      ],
      "name": "orders",
      "outputs": [
        {
          "name": "open",
          "type": "bool"
        },
        {
          "name": "orderAddress",
          "type": "address"
        }
      ],
      "payable": false,
      "stateMutability": "view",
      "type": "function"
    },
    {
      "constant": true,
      "inputs": [],
      "name": "id",
      "outputs": [
        {
          "name": "",
          "type": "uint256"
        }
      ],
      "payable": false,
      "stateMutability": "view",
      "type": "function"
    },
    {
      "constant": true,
      "inputs": [
        {
          "name": "",
          "type": "uint256"
        }
      ],
      "name": "menu",
      "outputs": [
        {
          "name": "itemName",
          "type": "bytes32"
        },
        {
          "name": "description",
          "type": "bytes32"
        }
      ],
      "payable": false,
      "stateMutability": "view",
      "type": "function"
    },
    {
      "inputs": [
        {
          "name": "_controller",
          "type": "address"
        },
        {
          "name": "_owner",
          "type": "address"
        },
        {
          "name": "_id",
          "type": "uint256"
        },
        {
          "name": "_name",
          "type": "string"
        },
        {
          "name": "_address",
          "type": "bytes"
        },
        {
          "name": "_latitude",
          "type": "uint256"
        },
        {
          "name": "_longitude",
          "type": "uint256"
        },
        {
          "name": "_contactNumber",
          "type": "string"
        }
      ],
      "payable": false,
      "stateMutability": "nonpayable",
      "type": "constructor"
    },
    {
      "payable": true,
      "stateMutability": "payable",
      "type": "fallback"
    },
    {
      "anonymous": false,
      "inputs": [
        {
          "indexed": false,
          "name": "orderAddress",
          "type": "address"
        }
      ],
      "name": "OrderMadeEvent",
      "type": "event"
    },
    {
      "anonymous": false,
      "inputs": [],
      "name": "MenuUpdated",
      "type": "event"
    },
    {
      "constant": true,
      "inputs": [
        {
          "name": "index",
          "type": "uint256"
        }
      ],
      "name": "getMenuItem",
      "outputs": [
        {
          "name": "itemName",
          "type": "bytes32"
        },
        {
          "name": "itemDescription",
          "type": "bytes32"
        },
        {
          "name": "optionNames",
          "type": "bytes32[]"
        },
        {
          "name": "optionPrices",
          "type": "uint256[]"
        }
      ],
      "payable": false,
      "stateMutability": "view",
      "type": "function"
    },
    {
      "constant": false,
      "inputs": [
        {
          "name": "imageURI",
          "type": "bytes"
        },
        {
          "name": "imageHash",
          "type": "bytes32"
        }
      ],
      "name": "updateLogo",
      "outputs": [],
      "payable": false,
      "stateMutability": "nonpayable",
      "type": "function"
    },
    {
      "constant": true,
      "inputs": [],
      "name": "getMenuLength",
      "outputs": [
        {
          "name": "length",
          "type": "uint256"
        }
      ],
      "payable": false,
      "stateMutability": "view",
      "type": "function"
    },
    {
      "constant": false,
      "inputs": [
        {
          "name": "itemNames",
          "type": "bytes32[]"
        },
        {
          "name": "itemDescriptions",
          "type": "bytes32[]"
        },
        {
          "name": "_optionNames",
          "type": "bytes32[]"
        },
        {
          "name": "_prices",
          "type": "uint256[]"
        },
        {
          "name": "optionFlags",
          "type": "uint256[]"
        }
      ],
      "name": "menuAddItems",
      "outputs": [],
      "payable": false,
      "stateMutability": "nonpayable",
      "type": "function"
    },
    {
      "constant": true,
      "inputs": [
        {
          "name": "itemIds",
          "type": "uint256[]"
        }
      ],
      "name": "getOrderPrice",
      "outputs": [
        {
          "name": "",
          "type": "uint256"
        }
      ],
      "payable": false,
      "stateMutability": "view",
      "type": "function"
    },
    {
      "constant": false,
      "inputs": [
        {
          "name": "itemIds",
          "type": "uint256[]"
        },
        {
          "name": "deliveryFee",
          "type": "uint256"
        },
        {
          "name": "riderKeyHash",
          "type": "bytes32"
        }
      ],
      "name": "makeOrder",
      "outputs": [
        {
          "name": "orderAddress",
          "type": "address"
        }
      ],
      "payable": true,
      "stateMutability": "payable",
      "type": "function"
    },
    {
      "constant": false,
      "inputs": [
        {
          "name": "orderAddress",
          "type": "address"
        },
        {
          "name": "status",
          "type": "uint256"
        }
      ],
      "name": "setStatus",
      "outputs": [],
      "payable": false,
      "stateMutability": "nonpayable",
      "type": "function"
    },
    {
      "constant": false,
      "inputs": [],
      "name": "pay",
      "outputs": [],
      "payable": true,
      "stateMutability": "payable",
      "type": "function"
    }
  ],
  "bytecode": "0x60806040523480156200001157600080fd5b5060405162002a8a38038062002a8a83398101806040526101008110156200003857600080fd5b81516020830151604084015160608501805193959294919391830192916401000000008111156200006857600080fd5b820160208101848111156200007c57600080fd5b81516401000000008111828201871017156200009757600080fd5b50509291906020018051640100000000811115620000b457600080fd5b82016020810184811115620000c857600080fd5b8151640100000000811182820187101715620000e357600080fd5b505060208201516040830151606090930180519295919491926401000000008111156200010f57600080fd5b820160208101848111156200012357600080fd5b81516401000000008111828201871017156200013e57600080fd5b5050600089905587519093506200015f9250600191506020880190620001e8565b50835162000175906002906020870190620001e8565b5060048390556003829055805162000195906007906020840190620001e8565b50506000600b819055600d55505060098054600160a060020a03968716600160a060020a0319918216179091556008805495909616948116949094179094555050600a805490911633179055506200028d565b828054600181600116156101000203166002900490600052602060002090601f016020900481019282601f106200022b57805160ff19168380011785556200025b565b828001600101855582156200025b579182015b828111156200025b5782518255916020019190600101906200023e565b50620002699291506200026d565b5090565b6200028a91905b8082111562000269576000815560010162000274565b90565b6127ed806200029d6000396000f3fe6080604052600436106200013e5763ffffffff7c010000000000000000000000000000000000000000000000000000000060003504166306fdde03811462000140578063125ba97714620001d05780631b9265b814620001fa5780631d83440914620002045780633d939a49146200021c5780634b24ea4714620002345780634fd7d76a1462000268578063516f279e1462000280578063589af69c14620002985780636434870314620002b057806366e1dfa3146200048857806368db65a4146200053f5780636bb38b28146200055757806376af633c146200056f5780637e55d59c14620005875780638da5cb5b14620005c4578063a64f207a14620005dc578063a85c38ef1462000660578063af640d0f14620006b1578063cffb703c14620006c9578063f943eecd1462000710578063f9a9525e14620007e9575b005b3480156200014d57600080fd5b506200015862000865565b6040805160208082528351818301528351919283929083019185019080838360005b83811015620001945781810151838201526020016200017a565b50505050905090810190601f168015620001c25780820380516001836020036101000a031916815260200191505b509250505060405180910390f35b348015620001dd57600080fd5b50620001e8620008f6565b60408051918252519081900360200190f35b6200013e620008fd565b3480156200021157600080fd5b50620001e862000944565b3480156200022957600080fd5b50620001e86200094a565b3480156200024157600080fd5b506200024c62000950565b60408051600160a060020a039092168252519081900360200190f35b3480156200027557600080fd5b50620001e86200095f565b3480156200028d57600080fd5b506200015862000965565b348015620002a557600080fd5b50620001e8620009c0565b348015620002bd57600080fd5b506200013e600480360360a0811015620002d657600080fd5b810190602081018135640100000000811115620002f257600080fd5b8201836020820111156200030557600080fd5b803590602001918460208302840111640100000000831117156200032857600080fd5b9193909290916020810190356401000000008111156200034757600080fd5b8201836020820111156200035a57600080fd5b803590602001918460208302840111640100000000831117156200037d57600080fd5b9193909290916020810190356401000000008111156200039c57600080fd5b820183602082011115620003af57600080fd5b80359060200191846020830284011164010000000083111715620003d257600080fd5b919390929091602081019035640100000000811115620003f157600080fd5b8201836020820111156200040457600080fd5b803590602001918460208302840111640100000000831117156200042757600080fd5b9193909290916020810190356401000000008111156200044657600080fd5b8201836020820111156200045957600080fd5b803590602001918460208302840111640100000000831117156200047c57600080fd5b509092509050620009c6565b3480156200049557600080fd5b50620001e860048036036020811015620004ae57600080fd5b810190602081018135640100000000811115620004ca57600080fd5b820183602082011115620004dd57600080fd5b803590602001918460208302840111640100000000831117156200050057600080fd5b91908080602002602001604051908101604052809392919081815260200183836020028082843760009201919091525092955062000be3945050505050565b3480156200054c57600080fd5b506200024c62000c50565b3480156200056457600080fd5b506200015862000c5f565b3480156200057c57600080fd5b506200015862000cbd565b3480156200059457600080fd5b506200013e60048036036040811015620005ad57600080fd5b50600160a060020a03813516906020013562000d1b565b348015620005d157600080fd5b506200024c62000e15565b348015620005e957600080fd5b506200013e600480360360408110156200060257600080fd5b8101906020810181356401000000008111156200061e57600080fd5b8201836020820111156200063157600080fd5b803590602001918460018302840111640100000000831117156200065457600080fd5b91935091503562000e24565b3480156200066d57600080fd5b506200068e600480360360208110156200068657600080fd5b503562000e52565b604080519215158352600160a060020a0390911660208301528051918290030190f35b348015620006be57600080fd5b50620001e862000e77565b348015620006d657600080fd5b50620006f760048036036020811015620006ef57600080fd5b503562000e7d565b6040805192835260208301919091528051918290030190f35b3480156200071d57600080fd5b506200073e600480360360208110156200073657600080fd5b503562000e96565b604051808581526020018481526020018060200180602001838103835285818151815260200191508051906020019060200280838360005b838110156200079057818101518382015260200162000776565b50505050905001838103825284818151815260200191508051906020019060200280838360005b83811015620007d1578181015183820152602001620007b7565b50505050905001965050505050505060405180910390f35b6200024c600480360360608110156200080157600080fd5b8101906020810181356401000000008111156200081d57600080fd5b8201836020820111156200083057600080fd5b803590602001918460208302840111640100000000831117156200085357600080fd5b91935091508035906020013562000fa1565b60018054604080516020600284861615610100026000190190941693909304601f81018490048402820184019092528181529291830182828015620008ee5780601f10620008c257610100808354040283529160200191620008ee565b820191906000526020600020905b815481529060010190602001808311620008d057829003601f168201915b505050505081565b600e545b90565b600d805434908101909155600854604051600160a060020a039091169180156108fc02916000818181858888f1935050505015801562000941573d6000803e3d6000fd5b50565b600b5481565b600e5481565b600954600160a060020a031681565b60045481565b6002805460408051602060018416156101000260001901909316849004601f81018490048402820184019092528181529291830182828015620008ee5780601f10620008c257610100808354040283529160200191620008ee565b60035481565b600854600160a060020a03163314620009de57600080fd5b888714620009eb57600080fd5b848314620009f857600080fd5b60008080606080825b8681101562000bd1578f8f8281811062000a1757fe5b9050602002013594508d8d82818110151562000a2f57fe5b905060200201359350878782818110151562000a4757fe5b9050602002013560405190808252806020026020018201604052801562000a78578160200160208202803883390190505b50925087878281811062000a8857fe5b9050602002013560405190808252806020026020018201604052801562000ab9578160200160208202803883390190505b50915060005b88888381811062000acc57fe5b9050602002013581101562000b42578c8c8881811062000ae857fe5b90506020020135848281518110151562000afe57fe5b602090810290910101528a8a8881811062000b1557fe5b90506020020135838281518110151562000b2b57fe5b602090810290910101526001968701960162000abf565b5060408051608081018252868152602080820187815282840187815260608401879052600e546000908152600f84529490942083518155905160018201559251805192939262000b999260028501920190620014cd565b506060820151805162000bb7916003840191602090910190620014cd565b5050600e8054600190810190915591909101905062000a01565b50505050505050505050505050505050565b600080805b835181101562000c4957600f6000858381518110151562000c0557fe5b906020019060200201518152602001908152602001600020600301600081548110151562000c2f57fe5b600091825260209091200154919091019060010162000be8565b5092915050565b600a54600160a060020a031681565b6005805460408051602060026001851615610100026000190190941693909304601f81018490048402820184019092528181529291830182828015620008ee5780601f10620008c257610100808354040283529160200191620008ee565b6007805460408051602060026001851615610100026000190190941693909304601f81018490048402820184019092528181529291830182828015620008ee5780601f10620008c257610100808354040283529160200191620008ee565b600854600160a060020a0316331462000d9557604080517f08c379a000000000000000000000000000000000000000000000000000000000815260206004820152601560248201527f796f7520617265206e6f7420746865206f776e65720000000000000000000000604482015290519081900360640190fd5b81600160a060020a031663e9132c42826040518263ffffffff167c010000000000000000000000000000000000000000000000000000000002815260040180828152602001915050600060405180830381600087803b15801562000df857600080fd5b505af115801562000e0d573d6000803e3d6000fd5b505050505050565b600854600160a060020a031681565b600854600160a060020a0316331462000e3c57600080fd5b62000e4a600584846200151d565b506006555050565b600c6020526000908152604090205460ff8116906101009004600160a060020a031682565b60005481565b600f602052600090815260409020805460019091015482565b60008060608062000ea662001590565b6000868152600f60209081526040918290208251608081018452815481526001820154818401526002820180548551818602810186018752818152929593949386019383018282801562000f1a57602002820191906000526020600020905b81548152602001906001019080831162000f05575b505050505081526020016003820180548060200260200160405190810160405280929190818152602001828054801562000f7457602002820191906000526020600020905b81548152602001906001019080831162000f5f575b505050919092525050815160208301516040840151606090940151919a9099509297509550909350505050565b600954604080517f6455e5ac0000000000000000000000000000000000000000000000000000000081529051600092600160a060020a031691636455e5ac916004808301926020929190829003018186803b1580156200100057600080fd5b505afa15801562001015573d6000803e3d6000fd5b505050506040513d60208110156200102c57600080fd5b5051604080517f689b00980000000000000000000000000000000000000000000000000000000081523360048201529051600160a060020a039092169163689b009891602480820192602092909190829003018186803b1580156200109057600080fd5b505afa158015620010a5573d6000803e3d6000fd5b505050506040513d6020811015620010bc57600080fd5b505115156200112c57604080517f08c379a000000000000000000000000000000000000000000000000000000000815260206004820152601560248201527f437573746f6d657220646f65736e742065786973740000000000000000000000604482015290519081900360640190fd5b60408051858152602080870282010190915260609085801562001159578160200160208202803883390190505b5090506060868690506040519080825280602002602001820160405280156200118c578160200160208202803883390190505b50905060005b86811015620012ef576000888883818110620011aa57fe5b9050602002013510158015620011d45750600e54888883818110620011cb57fe5b90506020020135105b156200127f57600f6000898984818110620011eb57fe5b9050602002013581526020019081526020016000206000015482828151811015156200121357fe5b60209081029091010152600f60008989848181106200122e57fe5b90506020020135815260200190815260200160002060030160008154811015156200125557fe5b906000526020600020015483828151811015156200126f57fe5b60209081029091010152620012e6565b604080517f08c379a000000000000000000000000000000000000000000000000000000000815260206004820152600d60248201527f496e76616c6964204974656d7300000000000000000000000000000000000000604482015290519081900360640190fd5b60010162001192565b50600b546009546000913491849086908a90600160a060020a0316338b62001316620015b6565b87815260608101859052600160a060020a038085166080830152831660a082015260c0810182905260e06020808301828152895192840192909252885160408401916101008501918b8201910280838360005b838110156200138357818101518382015260200162001369565b50505050905001838103825288818151815260200191508051906020019060200280838360005b83811015620013c4578181015183820152602001620013aa565b5050505090500199505050505050505050506040518091039082f080158015620013f2573d6000803e3d6000fd5b506040805180820182526001808252600160a060020a038481166020808501918252600b80546000908152600c835287812096518754945160ff199095169015151774ffffffffffffffffffffffffffffffffffffffff001916610100948616850217909655805494850190559284529284902054845193900416825291519294507f6ad6ccf0214624cc1ab014b24a7601698f45e6a0d07edcbab143606784ed78fb93508290030190a15050600b54600019016000908152600c60205260409020546101009004600160a060020a03169695505050505050565b8280548282559060005260206000209081019282156200150b579160200282015b828111156200150b578251825591602001919060010190620014ee565b5062001519929150620015c7565b5090565b828054600181600116156101000203166002900490600052602060002090601f016020900481019282601f10620015605782800160ff198235161785556200150b565b828001600101855582156200150b579182015b828111156200150b57823582559160200191906001019062001573565b604080516080810182526000808252602082015260609181018290528181019190915290565b6040516111dd80620015e583390190565b620008fa91905b80821115620015195760008155600101620015ce56fe608060408190526004805461ffff19169055600c805460ff19908116909155600e80549091169055620011dd38819003908190833981018060405260e08110156200004957600080fd5b8151602083018051919392830192916401000000008111156200006b57600080fd5b820160208101848111156200007f57600080fd5b81518560208202830111640100000000821117156200009d57600080fd5b50509291906020018051640100000000811115620000ba57600080fd5b82016020810184811115620000ce57600080fd5b8151856020820283011164010000000082111715620000ec57600080fd5b5050602080830151604080850151606086015160809096015182517f68db65a4000000000000000000000000000000000000000000000000000000008152925195985092965094939192600160a060020a038616926368db65a4926004808201939291829003018186803b1580156200016457600080fd5b505afa15801562000179573d6000803e3d6000fd5b505050506040513d60208110156200019057600080fd5b5051604080517f79a4fa270000000000000000000000000000000000000000000000000000000081523360048201529051600160a060020a03909216916379a4fa2791602480820192602092909190829003018186803b158015620001f457600080fd5b505afa15801562000209573d6000803e3d6000fd5b505050506040513d60208110156200022057600080fd5b50511515620002b657604080517f08c379a000000000000000000000000000000000000000000000000000000000815260206004820152603d60248201527f617474656d7074656420746f206d616b65206f726465722066726f6d2061646460448201527f726573732074686174206973206e6f7420612072657374617572616e74000000606482015290519081900360840190fd5b84518651146200034d57604080517f08c379a000000000000000000000000000000000000000000000000000000000815260206004820152602360248201527f696e76616c6964206d61746368696e67206f66206974656d7320746f2070726960448201527f6365730000000000000000000000000000000000000000000000000000000000606482015290519081900360840190fd5b6003879055600480546201000033026201000060b060020a031990911617905560068054600160a060020a03848116600160a060020a03199283161790925542600855600780549286169290911691909117905560006009819055600f8190555b8651811015620004505760408051908101604052808883815181101515620003d257fe5b9060200190602002015181526020018783815181101515620003f057fe5b6020908102909101810151909152600f54600090815260108252604090208251815591015160019091015585518690829081106200042a57fe5b60209081029091010151600980549091019055600f8054600190810190915501620003ae565b50600a8490556009548401341015620004f057604080517f08c379a000000000000000000000000000000000000000000000000000000000815260206004820152602360248201527f6e6f7420656e6f7567682065746865722073656e7420746f20746865206f726460448201527f6572200000000000000000000000000000000000000000000000000000000000606482015290519081900360840190fd5b60016002556000809081556001908155600b91909155600c805460ff19169091179055505050505050610cb480620005296000396000f3fe60806040526004361061012f5763ffffffff60e060020a60003504166312065fe081146101345780632799276d1461015b5780632804b2c0146101705780633129e773146101a157806332940816146101e45780633cc94908146101f95780633cf5040a1461020e5780633e3ca4d31461023857806340571abb1461024d57806353c0a00614610276578063646e077f1461028b5780637aada134146102a05780639e8464f1146102b5578063a14b7e68146102df578063af640d0f146102f4578063bd3e19d414610309578063bfb231d21461031e578063d601e11414610348578063d638e1021461035d578063db7575f014610372578063e9132c421461039c578063ed168058146103bb578063f3cc0f1f146103d0578063f90a92e3146103e5578063fc6f78a014610402575b600080fd5b34801561014057600080fd5b50610149610417565b60408051918252519081900360200190f35b34801561016757600080fd5b5061014961041c565b34801561017c57600080fd5b50610185610422565b60408051600160a060020a039092168252519081900360200190f35b3480156101ad57600080fd5b506101cb600480360360208110156101c457600080fd5b5035610431565b6040805192835260208301919091528051918290030190f35b3480156101f057600080fd5b5061014961044b565b34801561020557600080fd5b50610149610451565b34801561021a57600080fd5b506101496004803603602081101561023157600080fd5b5035610457565b34801561024457600080fd5b5061014961047b565b34801561025957600080fd5b50610262610481565b604080519115158252519081900360200190f35b34801561028257600080fd5b5061018561048f565b34801561029757600080fd5b5061026261049e565b3480156102ac57600080fd5b506101496104a7565b3480156102c157600080fd5b50610262600480360360208110156102d857600080fd5b50356104ad565b3480156102eb57600080fd5b506101496105a1565b34801561030057600080fd5b506101496105a7565b34801561031557600080fd5b506101496105ad565b34801561032a57600080fd5b506101cb6004803603602081101561034157600080fd5b50356105b3565b34801561035457600080fd5b506102626105cc565b34801561036957600080fd5b506102626105d5565b34801561037e57600080fd5b506102626004803603602081101561039557600080fd5b50356105de565b6103b9600480360360208110156103b257600080fd5b50356106d1565b005b3480156103c757600080fd5b50610185610864565b3480156103dc57600080fd5b50610149610879565b6103b9600480360360208110156103fb57600080fd5b503561087f565b34801561040e57600080fd5b50610149610b2d565b303190565b600f5481565b600654600160a060020a031681565b600090815260106020526040902080546001909101549091565b60015481565b600d5481565b60408051602080820193909352815180820384018152908201909152805191012090565b60005481565b600454610100900460ff1681565b600554600160a060020a031681565b600c5460ff1681565b60085481565b600e5460009060ff16151560011461050f576040805160e560020a62461bcd02815260206004820152601360248201527f4e6f206b657920686173206265656e2073657400000000000000000000000000604482015290519081900360640190fd5b600d5461051b83610457565b14610570576040805160e560020a62461bcd02815260206004820152600d60248201527f496e636f7272656374204b657900000000000000000000000000000000000000604482015290519081900360640190fd5b610578610b33565b600360015560026000908155604051600080516020610c698339815191529190a1506001919050565b60025481565b60035481565b60095490565b6010602052600090815260409020805460019091015482565b60045460ff1681565b600e5460ff1681565b600c5460009060ff161515600114610640576040805160e560020a62461bcd02815260206004820152601360248201527f4e6f206b657920686173206265656e2073657400000000000000000000000000604482015290519081900360640190fd5b600b5461064c83610457565b146106a1576040805160e560020a62461bcd02815260206004820152600d60248201527f496e636f7272656374204b657900000000000000000000000000000000000000604482015290519081900360640190fd5b6106a9610bca565b600360005560028055604051600080516020610c6983398151915290600090a1506001919050565b600454620100009004600160a060020a03163314610785576040805160e560020a62461bcd02815260206004820152605060248201527f596f7520646f6e742068617665207065726d697373696f6e20746f207365652060448201527f74686973206f726465722c2064696420796f752067657420746865206f72646560648201527f7220616464726573732077726f6e673f00000000000000000000000000000000608482015290519081900360a40190fd5b60015481116107de576040805160e560020a62461bcd02815260206004820152601c60248201527f7374617475732063616e6e6f74206265206261636b747261636b656400000000604482015290519081900360640190fd5b600381111580156107ef5750600081115b1515610845576040805160e560020a62461bcd02815260206004820152601660248201527f676976656e20537461747573206e6f742076616c696400000000000000000000604482015290519081900360640190fd5b6001819055604051600080516020610c6983398151915290600090a150565b600454620100009004600160a060020a031681565b600a5481565b600054156108fd576040805160e560020a62461bcd02815260206004820152602a60248201527f74686973206f7264657220616c6c7265616479206861732064656c697665727960448201527f206f7267616e6973656400000000000000000000000000000000000000000000606482015290519081900360840190fd5b600760009054906101000a9004600160a060020a0316600160a060020a031663c9286d576040518163ffffffff1660e060020a02815260040160206040518083038186803b15801561094e57600080fd5b505afa158015610962573d6000803e3d6000fd5b505050506040513d602081101561097857600080fd5b5051604080517f139526700000000000000000000000000000000000000000000000000000000081523360048201529051600160a060020a0390921691631395267091602480820192602092909190829003018186803b1580156109db57600080fd5b505afa1580156109ef573d6000803e3d6000fd5b505050506040513d6020811015610a0557600080fd5b50511515610a83576040805160e560020a62461bcd02815260206004820152602960248201527f6d7573742062652063616c6c656420766961206120726964657220736d61727460448201527f20636f6e74726163740000000000000000000000000000000000000000000000606482015290519081900360840190fd5b600954341015610add576040805160e560020a62461bcd02815260206004820152601e60248201527f746865206465706f7369742073656e74206973206e6f7420656e6f7567680000604482015290519081900360640190fd5b600160009081556005805473ffffffffffffffffffffffffffffffffffffffff191633179055600d829055600e805460ff19166001179055604051600080516020610c698339815191529190a150565b600b5481565b600460029054906101000a9004600160a060020a0316600160a060020a0316631b9265b86009546040518263ffffffff1660e060020a0281526004016000604051808303818588803b158015610b8857600080fd5b505af1158015610b9c573d6000803e3d6000fd5b50506004805460ff191660019081178255555050604051600080516020610c698339815191529150600090a1565b600560009054906101000a9004600160a060020a0316600160a060020a0316631b9265b8600a54600954016040518263ffffffff1660e060020a0281526004016000604051808303818588803b158015610c2357600080fd5b505af1158015610c37573d6000803e3d6000fd5b50506004805461ff001916610100179055505060036000908155604051600080516020610c698339815191529250a156feac854101ed2841c4fe7b3c5bfc4f3e58ddac515e8dd58f1bd9cf7856f1cc6e7fa165627a7a72305820b5619a36af189214610ba62006fb3cdc669c6dad3149adb1f7125217d5bbd53c0029a165627a7a7230582036bf59006a760b1d00e0df989eb7e0f00cd179b9184cf1999e05c5d1d413de660029",
  "source": "pragma solidity ^0.5.0;\n\n //import \"./lib.sol\";\n import \"./Order.sol\";\n import \"./RestaurantFactory.sol\";\n import \"./CustomerFactory.sol\";\n import \"./Controller.sol\";\n\ncontract Restaurant {\n\n    //using lib for bytes32;\n\n    // additional variables to add\n    // restaurant logo: need link to logo file and hash of file\n    // banner image of restaurant\n\n    // latitud and longitude for indexing on area\n\n    // todo:\n\n\n\tuint public id;\n\tstring public name;\n\n\tbytes public location;\n    uint public longitude;\n    uint public latitude;\n\n    bytes public logoURI;\n    bytes32 private logoHash;\n\n\n\tstring public contactNumber;\n\n\taddress payable public owner;\n    address public controllerAddress;\n\taddress public restaurantFactoryAddress;\n\n\n    struct order{bool open; address orderAddress;}\n\tuint public totalOrders;\n    // todo: make orders private and accessed via method for only rider and restaurant\n\tmapping(uint => order) public orders; // must be a better way to store the orders\n\n    uint totalPay;\n\t\n\tstruct Item{\n\t\tbytes32 itemName;\n        bytes32 description;\n        bytes32[] options;\n\t\tuint[] optionsCost; // in wei (10^-18 Eth)\n\t}\n\t\n    uint public menuLength;\n\tmapping(uint => Item) public menu; \n\n    enum restaurantState{acceptedOrder, preparingCargo, readyForCollection, HandedOver}\n\t\n    event OrderMadeEvent(address orderAddress);\n    event MenuUpdated();\n\n\tconstructor(address _controller, address payable _owner, \n                uint _id, string memory _name, \n                bytes memory _address, uint _latitude, uint _longitude, \n                string memory _contactNumber\n                ) public {\n        // itemOptions and prices will have to be parsed as they are 2d arrays\n\t\tid = _id;\n\t\tname = _name;\n\t\t\n        location = _address;\n        latitude = _latitude;\n        longitude = _longitude;\n\n\t\tcontactNumber = _contactNumber;\n\t\ttotalOrders = 0;\n        totalPay = 0;\n\n        controllerAddress = _controller;\n\t\towner = _owner;\n\t\trestaurantFactoryAddress = msg.sender;\n\t}\n\n    function getMenuItem(uint index) public view returns(bytes32 itemName, bytes32 itemDescription, bytes32[] memory optionNames, uint[] memory optionPrices){\n        Item memory i = menu[index];\n        return (i.itemName, i.description, i.options, i.optionsCost);\n    }\n\n    function updateLogo(bytes calldata imageURI, bytes32 imageHash) external{\n        require(msg.sender == owner);\n        logoURI = imageURI;\n        logoHash = imageHash;\n    }\n\n    // ToDo Remove this\n    function getMenuLength() external view returns(uint length){\n        return menuLength;\n    }\n    \n\n    function menuAddItems(bytes32[] calldata itemNames, bytes32[] calldata itemDescriptions, bytes32[] calldata _optionNames, uint[] calldata _prices, uint[] calldata optionFlags) external {\n        require(msg.sender == owner);\n        require(itemNames.length == itemDescriptions.length);\n        require(_optionNames.length == _prices.length);\n        \n        uint optionIndex = 0;\n\n        bytes32 itemName;\n        bytes32 itemDescription;\n        bytes32[] memory optionNames;\n        uint[] memory prices;\n\n        for(uint i = 0; i < optionFlags.length; i++){\n\n            itemName = itemNames[i];\n            itemDescription = itemDescriptions[i];\n\n            optionNames = new bytes32[](optionFlags[i]);\n            prices = new uint[](optionFlags[i]);\n            \n            for(uint j = 0; j < optionFlags[i]; j++){\n                optionNames[j] = _optionNames[optionIndex];\n                prices[j] = _prices[optionIndex];\n                optionIndex++;\n            }\n\n            menu[menuLength] = Item(itemName,itemDescription,optionNames,prices);\n            menuLength++;\n            \n        }\n    }\n\n    \n    \n    // function menuRemoveItems(uint[] calldata itemIds) external{\n    //     require(msg.sender == owner);\n    //     require(itemIds.length>0);\n\n    //     uint totalItemsToKeep = menuLength - uint(itemIds.length);\n\n    //     uint[] memory itemsToKeep = new uint[](totalItemsToKeep);\n    //     uint counter = 0;\n    //     for(uint i = 0; i<menuLength;i++){\n    //         bool idUndeleted = true;\n    //         for(uint j = 0; j < itemIds.length; j++){\n    //             if(i == itemIds[j]){\n    //                 idUndeleted = false;\n    //             }\n    //         }\n    //         if(idUndeleted){\n    //             itemsToKeep[counter] = i;\n    //             counter++;\n    //         }\n    //     }\n\n    //     for(uint i = 0; i < itemsToKeep.length; i++){\n    //         menu[i] = menu[itemsToKeep[i]];\n    //     }\n    //     menuLength = itemsToKeep.length;\n    //     emit MenuUpdated();\n    // }\n\n    // todo: fix this\n    function getOrderPrice(uint[] memory itemIds) public view returns (uint){\n        uint price = 0;\n        for(uint i = 0; i < itemIds.length; i++){\n            price += menu[itemIds[i]].optionsCost[0];\n        }\n        return price;\n    }\n    \n\n    function makeOrder(uint[] calldata itemIds, uint deliveryFee, bytes32 riderKeyHash) external payable returns (address orderAddress) {\n        //require this comes from a customer smart contract, maybe worth moving this to the order smart contract\n        require(CustomerFactory(Controller(controllerAddress).customerFactoryAddress()).customerExists(msg.sender), \"Customer doesnt exist\");\n\n        uint[] memory prices = new uint[](itemIds.length);\n        bytes32[] memory items = new bytes32[](itemIds.length);\n        for(uint i = 0; i < itemIds.length; i++)\n        {\n            if (itemIds[i] >= 0 && itemIds[i] < menuLength){\n                // could consider sending itemID and price to reduce gas cost\n                items[i] = menu[uint(itemIds[i])].itemName; \n                prices[i] = menu[uint(itemIds[i])].optionsCost[0];\n            }\n            else{\n                revert(\"Invalid Items\");\n            }\n        }\n        \n\t\tOrder newOrder = (new Order).value(msg.value)(totalOrders,items,prices,deliveryFee, controllerAddress, msg.sender, riderKeyHash);\n\t\torders[totalOrders] = order(true,address(newOrder));\n        totalOrders ++;\n\n        emit OrderMadeEvent(orders[totalOrders - 1].orderAddress);\n\n\t\treturn orders[totalOrders - 1].orderAddress;       \n    }\n\n    function setStatus(address orderAddress, uint status) public{\n        require(msg.sender == owner, \"you are not the owner\");\n        Order(orderAddress).setOrderStatus(status);\n    }\n\n    function pay() external payable {\n        totalPay += msg.value;\n        owner.transfer(msg.value);\n    } \n\n    function() external payable {\n\n    }\n}",
  "sourcePath": "/home/george/Documents/WorkSpace/TryAByte/contracts/Restaurant.sol",
  "compiler": {
    "name": "solc",
    "version": "0.5.0+commit.1d4f565a.Emscripten.clang"
  },
  "schemaVersion": "3.0.6",
  "updatedAt": "2019-10-22T12:21:02.556Z",
  "devdoc": {
    "methods": {}
  },
  "userdoc": {
    "methods": {}
  }
}