{
  "contractName": "Restaurant",
  "abi": [
    {
      "inputs": [
        {
          "internalType": "address",
          "name": "_controller",
          "type": "address"
        },
        {
          "internalType": "address payable",
          "name": "_owner",
          "type": "address"
        },
        {
          "internalType": "uint256",
          "name": "_id",
          "type": "uint256"
        },
        {
          "internalType": "bytes32",
          "name": "_name",
          "type": "bytes32"
        },
        {
          "internalType": "bytes",
          "name": "_address",
          "type": "bytes"
        },
        {
          "internalType": "uint256",
          "name": "_latitude",
          "type": "uint256"
        },
        {
          "internalType": "uint256",
          "name": "_longitude",
          "type": "uint256"
        },
        {
          "internalType": "bytes32",
          "name": "_contactNumber",
          "type": "bytes32"
        }
      ],
      "payable": false,
      "stateMutability": "nonpayable",
      "type": "constructor"
    },
    {
      "anonymous": false,
      "inputs": [],
      "name": "MenuUpdated",
      "type": "event"
    },
    {
      "anonymous": false,
      "inputs": [
        {
          "indexed": false,
          "internalType": "address",
          "name": "orderAddress",
          "type": "address"
        }
      ],
      "name": "OrderMadeEvent",
      "type": "event"
    },
    {
      "payable": true,
      "stateMutability": "payable",
      "type": "fallback"
    },
    {
      "constant": true,
      "inputs": [],
      "name": "contactNumber",
      "outputs": [
        {
          "internalType": "bytes32",
          "name": "",
          "type": "bytes32"
        }
      ],
      "payable": false,
      "stateMutability": "view",
      "type": "function"
    },
    {
      "constant": true,
      "inputs": [],
      "name": "controllerAddress",
      "outputs": [
        {
          "internalType": "address",
          "name": "",
          "type": "address"
        }
      ],
      "payable": false,
      "stateMutability": "view",
      "type": "function"
    },
    {
      "constant": true,
      "inputs": [],
      "name": "id",
      "outputs": [
        {
          "internalType": "uint256",
          "name": "",
          "type": "uint256"
        }
      ],
      "payable": false,
      "stateMutability": "view",
      "type": "function"
    },
    {
      "constant": true,
      "inputs": [],
      "name": "latitude",
      "outputs": [
        {
          "internalType": "uint256",
          "name": "",
          "type": "uint256"
        }
      ],
      "payable": false,
      "stateMutability": "view",
      "type": "function"
    },
    {
      "constant": true,
      "inputs": [],
      "name": "location",
      "outputs": [
        {
          "internalType": "bytes",
          "name": "",
          "type": "bytes"
        }
      ],
      "payable": false,
      "stateMutability": "view",
      "type": "function"
    },
    {
      "constant": true,
      "inputs": [],
      "name": "logoHash",
      "outputs": [
        {
          "internalType": "bytes32",
          "name": "",
          "type": "bytes32"
        }
      ],
      "payable": false,
      "stateMutability": "view",
      "type": "function"
    },
    {
      "constant": true,
      "inputs": [],
      "name": "logoURI",
      "outputs": [
        {
          "internalType": "bytes",
          "name": "",
          "type": "bytes"
        }
      ],
      "payable": false,
      "stateMutability": "view",
      "type": "function"
    },
    {
      "constant": true,
      "inputs": [],
      "name": "longitude",
      "outputs": [
        {
          "internalType": "uint256",
          "name": "",
          "type": "uint256"
        }
      ],
      "payable": false,
      "stateMutability": "view",
      "type": "function"
    },
    {
      "constant": true,
      "inputs": [],
      "name": "name",
      "outputs": [
        {
          "internalType": "bytes32",
          "name": "",
          "type": "bytes32"
        }
      ],
      "payable": false,
      "stateMutability": "view",
      "type": "function"
    },
    {
      "constant": true,
      "inputs": [
        {
          "internalType": "uint256",
          "name": "",
          "type": "uint256"
        }
      ],
      "name": "orders",
      "outputs": [
        {
          "internalType": "bool",
          "name": "open",
          "type": "bool"
        },
        {
          "internalType": "address",
          "name": "orderAddress",
          "type": "address"
        }
      ],
      "payable": false,
      "stateMutability": "view",
      "type": "function"
    },
    {
      "constant": true,
      "inputs": [],
      "name": "owner",
      "outputs": [
        {
          "internalType": "address payable",
          "name": "",
          "type": "address"
        }
      ],
      "payable": false,
      "stateMutability": "view",
      "type": "function"
    },
    {
      "constant": true,
      "inputs": [],
      "name": "restaurantFactoryAddress",
      "outputs": [
        {
          "internalType": "address",
          "name": "",
          "type": "address"
        }
      ],
      "payable": false,
      "stateMutability": "view",
      "type": "function"
    },
    {
      "constant": true,
      "inputs": [],
      "name": "totalOrders",
      "outputs": [
        {
          "internalType": "uint256",
          "name": "",
          "type": "uint256"
        }
      ],
      "payable": false,
      "stateMutability": "view",
      "type": "function"
    },
    {
      "constant": true,
      "inputs": [],
      "name": "getMenuAddress",
      "outputs": [
        {
          "internalType": "address",
          "name": "",
          "type": "address"
        }
      ],
      "payable": false,
      "stateMutability": "view",
      "type": "function"
    },
    {
      "constant": false,
      "inputs": [
        {
          "internalType": "bytes",
          "name": "imageURI",
          "type": "bytes"
        },
        {
          "internalType": "bytes32",
          "name": "imageHash",
          "type": "bytes32"
        }
      ],
      "name": "updateLogo",
      "outputs": [],
      "payable": false,
      "stateMutability": "nonpayable",
      "type": "function"
    },
    {
      "constant": false,
      "inputs": [
        {
          "internalType": "address",
          "name": "orderAddress",
          "type": "address"
        },
        {
          "internalType": "uint256",
          "name": "status",
          "type": "uint256"
        }
      ],
      "name": "setStatus",
      "outputs": [],
      "payable": false,
      "stateMutability": "nonpayable",
      "type": "function"
    },
    {
      "constant": false,
      "inputs": [],
      "name": "pay",
      "outputs": [],
      "payable": true,
      "stateMutability": "payable",
      "type": "function"
    },
    {
      "constant": false,
      "inputs": [
        {
          "internalType": "bytes32",
          "name": "_name",
          "type": "bytes32"
        },
        {
          "internalType": "bytes32",
          "name": "_number",
          "type": "bytes32"
        },
        {
          "internalType": "address payable",
          "name": "_owner",
          "type": "address"
        },
        {
          "internalType": "bytes",
          "name": "_location",
          "type": "bytes"
        },
        {
          "internalType": "uint256",
          "name": "_latitude",
          "type": "uint256"
        },
        {
          "internalType": "uint256",
          "name": "_longitude",
          "type": "uint256"
        },
        {
          "internalType": "bytes",
          "name": "_logoURI",
          "type": "bytes"
        },
        {
          "internalType": "bytes32",
          "name": "_logoHash",
          "type": "bytes32"
        }
      ],
      "name": "updateRestaurant",
      "outputs": [],
      "payable": false,
      "stateMutability": "nonpayable",
      "type": "function"
    },
    {
      "constant": false,
      "inputs": [
        {
          "internalType": "bytes32",
          "name": "_name",
          "type": "bytes32"
        }
      ],
      "name": "setName",
      "outputs": [],
      "payable": false,
      "stateMutability": "nonpayable",
      "type": "function"
    },
    {
      "constant": false,
      "inputs": [
        {
          "internalType": "bytes32",
          "name": "_number",
          "type": "bytes32"
        }
      ],
      "name": "setNumber",
      "outputs": [],
      "payable": false,
      "stateMutability": "nonpayable",
      "type": "function"
    },
    {
      "constant": false,
      "inputs": [
        {
          "internalType": "address payable",
          "name": "_owner",
          "type": "address"
        }
      ],
      "name": "setOwner",
      "outputs": [],
      "payable": false,
      "stateMutability": "nonpayable",
      "type": "function"
    },
    {
      "constant": false,
      "inputs": [
        {
          "internalType": "bytes",
          "name": "_location",
          "type": "bytes"
        },
        {
          "internalType": "uint256",
          "name": "_latitude",
          "type": "uint256"
        },
        {
          "internalType": "uint256",
          "name": "_longitude",
          "type": "uint256"
        }
      ],
      "name": "setLocation",
      "outputs": [],
      "payable": false,
      "stateMutability": "nonpayable",
      "type": "function"
    },
    {
      "constant": false,
      "inputs": [
        {
          "internalType": "bytes",
          "name": "_logoURI",
          "type": "bytes"
        },
        {
          "internalType": "bytes32",
          "name": "_logoHash",
          "type": "bytes32"
        }
      ],
      "name": "setLogo",
      "outputs": [],
      "payable": false,
      "stateMutability": "nonpayable",
      "type": "function"
    }
  ],
  "bytecode": "0x60806040523480156200001157600080fd5b50604051620030443803806200304483398181016040526101008110156200003857600080fd5b81516020830151604080850151606086015160808701805193519597949692959194919392820192846401000000008211156200007457600080fd5b9083019060208201858111156200008a57600080fd5b8251640100000000811182820188101715620000a557600080fd5b82525081516020918201929091019080838360005b83811015620000d4578181015183820152602001620000ba565b50505050905090810190601f168015620001025780820380516001836020036101000a031916815260200191505b506040908152602082810151918301516060909301516000899055600188905586519295509293506200013b91600291870190620001fe565b506004839055600382905560078190556000600b819055600d55600980546001600160a01b03808b166001600160a01b03199283161790925560088054928a1692821692909217909155600a8054909116331790556040518790620001a09062000283565b6001600160a01b03909116815260405190819003602001906000f080158015620001ce573d6000803e3d6000fd5b50600e80546001600160a01b0319166001600160a01b039290921691909117905550620002b19650505050505050565b828054600181600116156101000203166002900490600052602060002090601f016020900481019282601f106200024157805160ff191683800117855562000271565b8280016001018555821562000271579182015b828111156200027157825182559160200191906001019062000254565b506200027f92915062000291565b5090565b61211b8062000f2983390190565b620002ae91905b808211156200027f576000815560010162000298565b90565b610c6880620002c16000396000f3fe6080604052600436106101405760003560e01c806368db65a4116100b6578063a64f207a1161006f578063a64f207a14610581578063a85c38ef146105fc578063af640d0f14610649578063c1f0f00d1461065e578063df7be1ca14610711578063f1d4b2c51461072657610140565b806368db65a4146103935780636bb38b28146103a857806376af633c146103bd5780637e29b003146103d25780637e55d59c146105335780638da5cb5b1461056c57610140565b80634b24ea47116101085780634b24ea47146101ea5780634fd7d76a146101ff578063516f279e146102145780635863bebe1461029e578063589af69c146103545780635ac801fe1461036957610140565b806301751d411461014257806306fdde031461017357806313af40351461019a5780631b9265b8146101cd5780631d834409146101d5575b005b34801561014e57600080fd5b50610157610750565b604080516001600160a01b039092168252519081900360200190f35b34801561017f57600080fd5b50610188610760565b60408051918252519081900360200190f35b3480156101a657600080fd5b50610140600480360360208110156101bd57600080fd5b50356001600160a01b0316610766565b61014061079f565b3480156101e157600080fd5b506101886107e5565b3480156101f657600080fd5b506101576107eb565b34801561020b57600080fd5b506101886107fa565b34801561022057600080fd5b50610229610800565b6040805160208082528351818301528351919283929083019185019080838360005b8381101561026357818101518382015260200161024b565b50505050905090810190601f1680156102905780820380516001836020036101000a031916815260200191505b509250505060405180910390f35b3480156102aa57600080fd5b50610140600480360360608110156102c157600080fd5b810190602081018135600160201b8111156102db57600080fd5b8201836020820111156102ed57600080fd5b803590602001918460018302840111600160201b8311171561030e57600080fd5b91908080601f016020809104026020016040519081016040528093929190818152602001838380828437600092019190915250929550508235935050506020013561088b565b34801561036057600080fd5b506101886108bd565b34801561037557600080fd5b506101406004803603602081101561038c57600080fd5b50356108c3565b34801561039f57600080fd5b506101576108df565b3480156103b457600080fd5b506102296108ee565b3480156103c957600080fd5b50610188610949565b3480156103de57600080fd5b5061014060048036036101008110156103f657600080fd5b8135916020810135916001600160a01b036040830135169190810190608081016060820135600160201b81111561042c57600080fd5b82018360208201111561043e57600080fd5b803590602001918460018302840111600160201b8311171561045f57600080fd5b91908080601f0160208091040260200160405190810160405280939291908181526020018383808284376000920191909152509295843595602086013595919450925060608101915060400135600160201b8111156104bd57600080fd5b8201836020820111156104cf57600080fd5b803590602001918460018302840111600160201b831117156104f057600080fd5b91908080601f016020809104026020016040519081016040528093929190818152602001838380828437600092019190915250929550509135925061094f915050565b34801561053f57600080fd5b506101406004803603604081101561055657600080fd5b506001600160a01b0381351690602001356109bc565b34801561057857600080fd5b50610157610a75565b34801561058d57600080fd5b50610140600480360360408110156105a457600080fd5b810190602081018135600160201b8111156105be57600080fd5b8201836020820111156105d057600080fd5b803590602001918460018302840111600160201b831117156105f157600080fd5b919350915035610a84565b34801561060857600080fd5b506106266004803603602081101561061f57600080fd5b5035610aaf565b6040805192151583526001600160a01b0390911660208301528051918290030190f35b34801561065557600080fd5b50610188610ad4565b34801561066a57600080fd5b506101406004803603604081101561068157600080fd5b810190602081018135600160201b81111561069b57600080fd5b8201836020820111156106ad57600080fd5b803590602001918460018302840111600160201b831117156106ce57600080fd5b91908080601f0160208091040260200160405190810160405280939291908181526020018383808284376000920191909152509295505091359250610ada915050565b34801561071d57600080fd5b50610188610b0b565b34801561073257600080fd5b506101406004803603602081101561074957600080fd5b5035610b11565b600e546001600160a01b03165b90565b60015481565b6008546001600160a01b0316331461077d57600080fd5b600880546001600160a01b0319166001600160a01b0392909216919091179055565b600d8054349081019091556008546040516001600160a01b039091169180156108fc02916000818181858888f193505050501580156107e2573d6000803e3d6000fd5b50565b600b5481565b6009546001600160a01b031681565b60045481565b6002805460408051602060018416156101000260001901909316849004601f810184900484028201840190925281815292918301828280156108835780601f1061085857610100808354040283529160200191610883565b820191906000526020600020905b81548152906001019060200180831161086657829003601f168201915b505050505081565b6008546001600160a01b031633146108a257600080fd5b82516108b5906002906020860190610b2d565b506003555050565b60035481565b6008546001600160a01b031633146108da57600080fd5b600155565b600a546001600160a01b031681565b6005805460408051602060026001851615610100026000190190941693909304601f810184900484028201840190925281815292918301828280156108835780601f1061085857610100808354040283529160200191610883565b60075481565b6008546001600160a01b0316331461096657600080fd5b61096f886108c3565b61097887610b11565b6001600160a01b038616156109905761099086610766565b8451156109a2576109a285858561088b565b8151156109b2576109b2886108c3565b5050505050505050565b6008546001600160a01b03163314610a13576040805162461bcd60e51b81526020600482015260156024820152743cb7ba9030b932903737ba103a34329037bbb732b960591b604482015290519081900360640190fd5b816001600160a01b031663e9132c42826040518263ffffffff1660e01b815260040180828152602001915050600060405180830381600087803b158015610a5957600080fd5b505af1158015610a6d573d6000803e3d6000fd5b505050505050565b6008546001600160a01b031681565b6008546001600160a01b03163314610a9b57600080fd5b610aa760058484610bab565b506006555050565b600c6020526000908152604090205460ff81169061010090046001600160a01b031682565b60005481565b6008546001600160a01b03163314610af157600080fd5b8151610b04906005906020850190610b2d565b5060065550565b60065481565b6008546001600160a01b03163314610b2857600080fd5b600755565b828054600181600116156101000203166002900490600052602060002090601f016020900481019282601f10610b6e57805160ff1916838001178555610b9b565b82800160010185558215610b9b579182015b82811115610b9b578251825591602001919060010190610b80565b50610ba7929150610c19565b5090565b828054600181600116156101000203166002900490600052602060002090601f016020900481019282601f10610bec5782800160ff19823516178555610b9b565b82800160010185558215610b9b579182015b82811115610b9b578235825591602001919060010190610bfe565b61075d91905b80821115610ba75760008155600101610c1f56fea265627a7a723158201e83695e7faa69154431db2f61028f1e3355f28b500dedaae07cc94d0bf616a164736f6c634300050c0032608060405260006001556000600255600060035534801561001f57600080fd5b5060405161211b38038061211b8339818101604052602081101561004257600080fd5b5051600080546001600160a01b039092166001600160a01b03199092169190911790556120a7806100746000396000f3fe608060405234801561001057600080fd5b506004361061012c5760003560e01c806379b0542d116100ad578063bae78d7b11610071578063bae78d7b1461099b578063bfb231d214610a5f578063c98baa3214610aa2578063d54307ca14610531578063e4d8a2a614610c475761012c565b806379b0542d1461055657806380fdeff61461077d5780638da5cb5b146108b35780638fb0f14c146108d7578063ab90dae8146109785761012c565b8063409e2205116100f4578063409e2205146104e657806348850443146105215780635b4b8792146105295780637087ab331461053157806371329171146105395761012c565b80630545ba2914610131578063125ba977146101565780631f7b6d3214610170578063206dd9c61461017857806335484952146104a3575b600080fd5b6101546004803603604081101561014757600080fd5b5080359060200135610c70565b005b61015e610dcc565b60408051918252519081900360200190f35b61015e610df9565b610154600480360360c081101561018e57600080fd5b810190602081018135600160201b8111156101a857600080fd5b8201836020820111156101ba57600080fd5b803590602001918460208302840111600160201b831117156101db57600080fd5b9190808060200260200160405190810160405280939291908181526020018383602002808284376000920191909152509295949360208101935035915050600160201b81111561022a57600080fd5b82018360208201111561023c57600080fd5b803590602001918460208302840111600160201b8311171561025d57600080fd5b9190808060200260200160405190810160405280939291908181526020018383602002808284376000920191909152509295949360208101935035915050600160201b8111156102ac57600080fd5b8201836020820111156102be57600080fd5b803590602001918460208302840111600160201b831117156102df57600080fd5b9190808060200260200160405190810160405280939291908181526020018383602002808284376000920191909152509295949360208101935035915050600160201b81111561032e57600080fd5b82018360208201111561034057600080fd5b803590602001918460208302840111600160201b8311171561036157600080fd5b9190808060200260200160405190810160405280939291908181526020018383602002808284376000920191909152509295949360208101935035915050600160201b8111156103b057600080fd5b8201836020820111156103c257600080fd5b803590602001918460208302840111600160201b831117156103e357600080fd5b9190808060200260200160405190810160405280939291908181526020018383602002808284376000920191909152509295949360208101935035915050600160201b81111561043257600080fd5b82018360208201111561044457600080fd5b803590602001918460208302840111600160201b8311171561046557600080fd5b919080806020026020016040519081016040528093929190818152602001838360200280828437600092019190915250929550610dff945050505050565b6104d2600480360360808110156104b957600080fd5b5080359060208101359060408101359060600135611136565b604080519115158252519081900360200190f35b610503600480360360208110156104fc57600080fd5b50356112cc565b60408051938452602084019290925282820152519081900360600190f35b61015e6112ed565b61015e6112f3565b6101546112f9565b6104d26004803603602081101561054f57600080fd5b50356112fb565b6101546004803603608081101561056c57600080fd5b810190602081018135600160201b81111561058657600080fd5b82018360208201111561059857600080fd5b803590602001918460208302840111600160201b831117156105b957600080fd5b9190808060200260200160405190810160405280939291908181526020018383602002808284376000920191909152509295949360208101935035915050600160201b81111561060857600080fd5b82018360208201111561061a57600080fd5b803590602001918460208302840111600160201b8311171561063b57600080fd5b9190808060200260200160405190810160405280939291908181526020018383602002808284376000920191909152509295949360208101935035915050600160201b81111561068a57600080fd5b82018360208201111561069c57600080fd5b803590602001918460208302840111600160201b831117156106bd57600080fd5b9190808060200260200160405190810160405280939291908181526020018383602002808284376000920191909152509295949360208101935035915050600160201b81111561070c57600080fd5b82018360208201111561071e57600080fd5b803590602001918460208302840111600160201b8311171561073f57600080fd5b9190808060200260200160405190810160405280939291908181526020018383602002808284376000920191909152509295506113d0945050505050565b6104d2600480360360a081101561079357600080fd5b81359160208101359160408201359190810190608081016060820135600160201b8111156107c057600080fd5b8201836020820111156107d257600080fd5b803590602001918460208302840111600160201b831117156107f357600080fd5b9190808060200260200160405190810160405280939291908181526020018383602002808284376000920191909152509295949360208101935035915050600160201b81111561084257600080fd5b82018360208201111561085457600080fd5b803590602001918460208302840111600160201b8311171561087557600080fd5b91908080602002602001604051908101604052809392919081815260200183836020028082843760009201919091525092955061155b945050505050565b6108bb61180f565b604080516001600160a01b039092168252519081900360200190f35b610154600480360360208110156108ed57600080fd5b810190602081018135600160201b81111561090757600080fd5b82018360208201111561091957600080fd5b803590602001918460208302840111600160201b8311171561093a57600080fd5b91908080602002602001604051908101604052809392919081815260200183836020028082843760009201919091525092955061181e945050505050565b6104d26004803603604081101561098e57600080fd5b50803590602001356118c9565b6109b8600480360360208110156109b157600080fd5b50356119f2565b604051808581526020018481526020018060200180602001838103835285818151815260200191508051906020019060200280838360005b83811015610a085781810151838201526020016109f0565b50505050905001838103825284818151815260200191508051906020019060200280838360005b83811015610a47578181015183820152602001610a2f565b50505050905001965050505050505060405180910390f35b610a7c60048036036020811015610a7557600080fd5b5035611b91565b604080519485526020850193909352838301919091526060830152519081900360800190f35b61015460048036036060811015610ab857600080fd5b810190602081018135600160201b811115610ad257600080fd5b820183602082011115610ae457600080fd5b803590602001918460208302840111600160201b83111715610b0557600080fd5b9190808060200260200160405190810160405280939291908181526020018383602002808284376000920191909152509295949360208101935035915050600160201b811115610b5457600080fd5b820183602082011115610b6657600080fd5b803590602001918460208302840111600160201b83111715610b8757600080fd5b9190808060200260200160405190810160405280939291908181526020018383602002808284376000920191909152509295949360208101935035915050600160201b811115610bd657600080fd5b820183602082011115610be857600080fd5b803590602001918460208302840111600160201b83111715610c0957600080fd5b919080806020026020016040519081016040528093929190818152602001838360200280828437600092019190915250929550611bb8945050505050565b61015460048036036060811015610c5d57600080fd5b5080359060208101359060400135611c4b565b6000546001600160a01b03163314610cb95760405162461bcd60e51b8152600401808060200182810382526022815260200180611e376022913960400191505060405180910390fd5b808210610cf75760405162461bcd60e51b8152600401808060200182810382526024815260200180611f726024913960400191505060405180910390fd5b600254600090819081908190815b868111610d5b5787811415610d18578195505b60018803811415610d27578193505b86811415610d33578194505b60018703811415610d42578192505b6000918252600560205260409091205490600101610d05565b50600087610d845750600280546000848152600560205260409020805490925590819055610da7565b506000838152600560205260408082208054858452919092208054909255908190555b5050506000928352506005602052604080832080549284529220805490925590555050565b600254600090815b8115610df3576000918252600560205260409091205490600101610dd4565b91505090565b60015481565b6000546001600160a01b03163314610e56576040805162461bcd60e51b81526020600482015260156024820152743cb7ba9030b932903737ba103a34329037bbb732b960591b604482015290519081900360640190fd5b8451865114610e965760405162461bcd60e51b8152600401808060200182810382526036815260200180611e596036913960400191505060405180910390fd5b8351855114610ed65760405162461bcd60e51b8152600401808060200182810382526036815260200180611f966036913960400191505060405180910390fd5b8151835114610f165760405162461bcd60e51b815260040180806020018281038252602d815260200180611f45602d913960400191505060405180910390fd5b8051855114610f565760405162461bcd60e51b8152600401808060200182810382526036815260200180611ecd6036913960400191505060405180910390fd5b6000805b8251811015610f8857828181518110610f6f57fe5b6020026020010151820191508080600101915050610f5a565b5080845114610fc85760405162461bcd60e51b8152600401808060200182810382526042815260200180611f036042913960600191505060405180910390fd5b6000606080825b855181101561112957858181518110610fe457fe5b6020026020010151604051908082528060200260200182016040528015611015578160200160208202803883390190505b50925085818151811061102457fe5b6020026020010151604051908082528060200260200182016040528015611055578160200160208202803883390190505b50915060005b86828151811061106757fe5b60200260200101518110156110d95788858151811061108257fe5b602002602001015184828151811061109657fe5b6020026020010181815250508785815181106110ae57fe5b60200260200101518382815181106110c257fe5b60209081029190910101526001948501940161105b565b506111208b82815181106110e957fe5b60200260200101518b83815181106110fd57fe5b60200260200101518b848151811061111157fe5b6020026020010151868661155b565b50600101610fcf565b5050505050505050505050565b600080546001600160a01b031633146111805760405162461bcd60e51b8152600401808060200182810382526022815260200180611e376022913960400191505060405180910390fd5b611188611deb565b60025460005b878110156111af57600091825260056020526040909120549060010161118e565b508561121e57604080516060810182526000838152600560208181528483206003908101805486528286018c81528688018c81528354600190810180865588526004865298872088518155915198820198909855965160029097019690965554928690525290915591506112c2565b600081815260056020526040812060030154905b8760010181101561126157600082815260046020526040902054806112575750611261565b9150600101611232565b5060408051606081018252600083815260046020818152848320805485528185018c81528587018c81526003805460019081018083558852959094529685208651815590519381019390935594516002909201919091555493905291905591505b5050949350505050565b60046020526000908152604090208054600182015460029092015490919083565b60035481565b60025481565b565b600080546001600160a01b031633146113455760405162461bcd60e51b8152600401808060200182810382526022815260200180611e376022913960400191505060405180910390fd5b8161138057506002805460009081526005602052604081208054828255600180830184905582850184905560039092019290925591556113cb565b60025460005b600184038110156113aa576000918252600560205260409091205490600101611386565b50600081815260056020526040808220805483529082205492909152555060015b919050565b6000546001600160a01b03163314611427576040805162461bcd60e51b81526020600482015260156024820152743cb7ba9030b932903737ba103a34329037bbb732b960591b604482015290519081900360640190fd5b82518451146114675760405162461bcd60e51b815260040180806020018281038252603f815260200180612005603f913960400191505060405180910390fd5b80518251146114a75760405162461bcd60e51b8152600401808060200182810382526039815260200180611fcc6039913960400191505060405180910390fd5b83518251146114e75760405162461bcd60e51b815260040180806020018281038252603e815260200180611e8f603e913960400191505060405180910390fd5b60005b84518110156115545761154b85828151811061150257fe5b602002602001015185838151811061151657fe5b602002602001015185848151811061152a57fe5b602002602001015185858151811061153e57fe5b6020026020010151611136565b506001016114ea565b5050505050565b600080546001600160a01b031633146115a55760405162461bcd60e51b8152600401808060200182810382526022815260200180611e376022913960400191505060405180910390fd5b81518351146115e55760405162461bcd60e51b8152600401808060200182810382526039815260200180611fcc6039913960400191505060405180910390fd5b6115ed611deb565b6040518060600160405280600081526020018560008151811061160c57fe5b602002602001015181526020018460008151811061162657fe5b60209081029190910181015190915260038054600190810191829055600091825260048352604091829020845181559284015183820155908301516002909201919091559091505b84518110156116fc576040518060600160405280600354815260200186838151811061169657fe5b602002602001015181526020018583815181106116af57fe5b60209081029190910181015190915260038054600190810191829055600091825260048352604091829020845181559284015183820155908301516002909201919091559092500161166e565b50611705611e0f565b8761176a57506040805160808101825260028054825260208083018a81528385018a8152600380546060870190815260018054810180825560009081526005909652979094208651815592518388015590518285015591519101559154909155611804565b60025460015b8981101561179c5760008281526005602052604090205480611792575061179c565b9150600101611770565b5060408051608081018252600083815260056020818152848320805485528185018e81528587018e8152600380546060890190815260018054810180825589529690955297862087518155915182860155516002820155915191909501555493905291905590505b505095945050505050565b6000546001600160a01b031681565b80516402540be3ff90600019015b600081126118c45782818151811061184057fe5b602002602001015182116118855760405162461bcd60e51b815260040180806020018281038252602f815260200180612044602f913960400191505060405180910390fd5b6118a183828151811061189457fe5b60200260200101516112fb565b508281815181106118ae57fe5b602090810291909101015191506000190161182c565b505050565b600080546001600160a01b031633146119135760405162461bcd60e51b8152600401808060200182810382526022815260200180611e376022913960400191505060405180910390fd5b60025460005b8481101561193a576000918252600560205260409091205490600101611919565b506000818152600560205260409020600301548361199157600090815260046020908152604080832080548482556001808301869055600290920185905594845260059092529091206003019190915590506119ec565b60005b600185038110156119b8576000918252600460205260409091205490600101611994565b5060009081526004602052604080822080548352908220805490915581815560018082018390556002909101919091559150505b92915050565b60025460009081906060908190835b86811015611a22576000918252600560205260409091205490600101611a01565b50611a2b611e0f565b5060008181526005602090815260408083208151608081018352815481526001820154938101939093526002810154918301919091526003015460608083018290529192829181905b8015611a9457600090815260046020526040902054600190910190611a74565b81604051908082528060200260200182016040528015611abe578160200160208202803883390190505b50945081604051908082528060200260200182016040528015611aeb578160200160208202803883390190505b509350856060015190505b8015611b73576000818152600460205260409020600101548551869085908110611b1c57fe5b6020026020010181815250506004600082815260200190815260200160002060020154848481518110611b4b57fe5b6020908102919091018101919091526000918252600490526040902054600190920191611af6565b50505060208301516040909301519299929850909650945092505050565b60056020526000908152604090208054600182015460028301546003909301549192909184565b6000805b84518110156115545760006001848381518110611bd557fe5b60200260200101510390505b60008112611c2557611c1b868381518110611bf857fe5b60200260200101518683860181518110611c0e57fe5b60200260200101516118c9565b5060001901611be1565b50828181518110611c3257fe5b6020026020010151820191508080600101915050611bbc565b6000546001600160a01b03163314611c945760405162461bcd60e51b8152600401808060200182810382526022815260200180611e376022913960400191505060405180910390fd5b808210611cd25760405162461bcd60e51b8152600401808060200182810382526024815260200180611f726024913960400191505060405180910390fd5b60025460005b84811015611cf9576000918252600560205260409091205490600101611cd8565b50600081815260056020526040812060030154819081908190815b878111611d6a5788811415611d27578195505b60018903811415611d36578193505b87811415611d42578194505b60018803811415611d51578192505b6000918252600460205260409091205490600101611d14565b50600088611da157506000868152600560209081526040808320600301805486855260049093529220805490925590819055611dc4565b506000838152600460205260408082208054858452919092208054909255908190555b50505060009283525060046020526040808320805492845292208054909255905550505050565b60405180606001604052806000815260200160008019168152602001600081525090565b6040805160808101825260008082526020820181905291810182905260608101919091529056fe796f7520617265206e6f7420746865206f776e6572206f662074686973206d656e75746865206e756d626572206f66206974656d20696e646578657320616e64206974656d206e616d657320646f206e6f74206d61746368746865206e756d626572206f66206974656d49447320646f6573206e6f74206d6174636820746865206e756d626572206f66206f7074696f6e4e616d6573746865206e756d626572206f66206974656d206e616d657320616e64206f7074696f6e20666c61677320646f206e6f74206d61746368746865206e756d626572206f66206f7074696f6e7320616e64207468652073756d206f6620746865206f7074696f6e20666c61677320646f206e6f74206d61746368746865206e756d626572206f66206f7074696f6e7320616e642070726963657320646f206e6f74206d61746368696e6465782031206d75737420626520736d616c6c6572207468616e20696e6465782032746865206e756d626572206f66206465736372697074696f6e7320616e64206974656d206e616d657320646f206e6f74206d61746368746865206e756d626572206f66206f7074696f6e7320646f6573206e6f74206d6174636820746865206e756d626572206f6620707269636573746865206e756d626572206f66206974656d49647320616e6420696e646578657320746f20696e7365727420617420617265206e6f74207468652073616d65746865206172726179206f66206974656d496473206d75737420626520696e20617373656e64696e67206f72646572a265627a7a72315820389012098b7d577f2fefccca6abeb3d44997064c28b10b88d83589b6492c150264736f6c634300050c0032",
  "source": "pragma solidity ^0.5.0;\n\n //import \"./lib.sol\";\n import \"./Order.sol\";\n import \"./RestaurantFactory.sol\";\n import \"./CustomerFactory.sol\";\n import \"./Controller.sol\";\n import \"./Menu.sol\";\n\ncontract Restaurant {\n\n    // additional variables to add\n\n\tuint public id;\n\tbytes32 public name; \n\n\tbytes public location; \n    uint public longitude; \n    uint public latitude; \n\n    bytes public logoURI; \n    bytes32 public logoHash; \n\n\n\tbytes32 public contactNumber; \n\n\taddress payable public owner; \n    address public controllerAddress;\n\taddress public restaurantFactoryAddress;\n\n\n    struct order{bool open; address orderAddress;}\n\tuint public totalOrders;\n    // todo: make orders private and accessed via method for only rider and restaurant\n\tmapping(uint => order) public orders; // must be a better way to store the orders\n\n    uint totalPay;\n\t\n    Menu menu;\n\n    enum restaurantState{acceptedOrder, preparingCargo, readyForCollection, HandedOver}\n\t\n    event OrderMadeEvent(address orderAddress);\n    event MenuUpdated();\n\n\tconstructor(address _controller, address payable _owner, \n                uint _id, bytes32 _name, \n                bytes memory _address, uint _latitude, uint _longitude, \n                bytes32 _contactNumber\n                ) public {\n        // itemOptions and prices will have to be parsed as they are 2d arrays\n\t\tid = _id;\n\t\tname = _name;\n\t\t\n        location = _address;\n        latitude = _latitude;\n        longitude = _longitude;\n\n\t\tcontactNumber = _contactNumber;\n\t\ttotalOrders = 0;\n        totalPay = 0;\n\n        controllerAddress = _controller;\n\t\towner = _owner;\n\t\trestaurantFactoryAddress = msg.sender;\n\n        menu = new Menu(_owner);\n\t}\n\n    function getMenuAddress() public view returns (address) {\n        return address(menu);\n    }\n\n\n    function updateLogo(bytes calldata imageURI, bytes32 imageHash) external{\n        require(msg.sender == owner);\n        logoURI = imageURI;\n        logoHash = imageHash;\n    }\n    \n    // menuIndex\n    // itemType\n    // uint new prices\n    // byte32 new text\n\n\n\n    // // todo: fix this\n    // function getOrderPrice(uint[] memory itemIds) public view returns (uint){\n    //     uint price = 0;\n    //     for(uint i = 0; i < itemIds.length; i++){\n    //         price += menu[itemIds[i]].optionsCost[0];\n    //     }\n    //     return price;\n    // }\n    \n\n  //   function makeOrder(uint[] calldata itemIds, uint deliveryFee, bytes32 riderKeyHash) external payable returns (address orderAddress) {\n  //       //require this comes from a customer smart contract, maybe worth moving this to the order smart contract\n  //       require(CustomerFactory(Controller(controllerAddress).customerFactoryAddress()).customerExists(msg.sender), \"Customer doesnt exist\");\n\n  //       uint[] memory prices = new uint[](itemIds.length);\n  //       bytes32[] memory items = new bytes32[](itemIds.length);\n  //       for(uint i = 0; i < itemIds.length; i++)\n  //       {\n  //           if (itemIds[i] >= 0 && itemIds[i] < menuLength){\n  //               // could consider sending itemID and price to reduce gas cost\n  //               items[i] = menu[uint(itemIds[i])].itemName; \n  //               prices[i] = menu[uint(itemIds[i])].optionsCost[0];\n  //           }\n  //           else{\n  //               revert(\"Invalid Items\");\n  //           }\n  //       }\n        \n\t\t// Order newOrder = (new Order).value(msg.value)(totalOrders,items,prices,deliveryFee, controllerAddress, msg.sender, riderKeyHash);\n\t\t// orders[totalOrders] = order(true,address(newOrder));\n  //       totalOrders ++;\n\n  //       emit OrderMadeEvent(orders[totalOrders - 1].orderAddress);\n\n\t\t// return orders[totalOrders - 1].orderAddress;       \n  //   }\n\n    function setStatus(address orderAddress, uint status) public{\n        require(msg.sender == owner, \"you are not the owner\");\n        Order(orderAddress).setOrderStatus(status);\n    }\n\n    function pay() external payable {\n        totalPay += msg.value;\n        owner.transfer(msg.value);\n    } \n\n    function() external payable {\n\n    }\n\n\n    // Setters\n    function updateRestaurant(bytes32 _name, bytes32 _number, address payable _owner, bytes memory _location, uint _latitude, uint _longitude, bytes memory _logoURI, bytes32 _logoHash) public {\n        require(msg.sender == owner);\n        if(_name.length > 0 )\n            setName(_name);\n        if(_number.length > 0 )\n            setNumber(_number);\n        if(_owner != address(0))\n            setOwner(_owner);\n        if(_location.length > 0)\n            setLocation(_location, _latitude, _longitude);\n        if(_logoURI.length > 0)\n            setName(_name);\n    }\n    function setName(bytes32 _name) public {\n        require(msg.sender == owner);\n        name = _name;\n    }\n    function setNumber(bytes32 _number) public {\n        require(msg.sender == owner);\n        contactNumber = _number;\n    }\n    function setOwner(address payable _owner) public {\n        require(msg.sender == owner);\n        owner = _owner;\n    }\n    function setLocation(bytes memory _location, uint _latitude, uint _longitude) public {\n        require(msg.sender == owner);\n        location = _location;\n        latitude - _latitude;\n        longitude = _longitude;\n    }\n    function setLogo(bytes memory _logoURI, bytes32 _logoHash) public {\n        require(msg.sender == owner);\n        logoURI = _logoURI;\n        logoHash = _logoHash;\n    }\n}",
  "sourcePath": "/home/george/Documents/WorkSpace/TryAByte/contracts/Restaurant.sol",
  "compiler": {
    "name": "solc",
    "version": "0.5.12+commit.7709ece9.Emscripten.clang"
  },
  "schemaVersion": "3.0.19",
  "updatedAt": "2019-12-20T15:38:34.679Z",
  "networkType": "ethereum",
  "devdoc": {
    "methods": {}
  },
  "userdoc": {
    "methods": {}
  }
}