{
  "contractName": "Restaurant",
  "abi": [
    {
      "constant": true,
      "inputs": [],
      "name": "name",
      "outputs": [
        {
          "name": "",
          "type": "string"
        }
      ],
      "payable": false,
      "stateMutability": "view",
      "type": "function"
    },
    {
      "constant": true,
      "inputs": [],
      "name": "totalOrders",
      "outputs": [
        {
          "name": "",
          "type": "uint256"
        }
      ],
      "payable": false,
      "stateMutability": "view",
      "type": "function"
    },
    {
      "constant": true,
      "inputs": [],
      "name": "menuLength",
      "outputs": [
        {
          "name": "",
          "type": "uint256"
        }
      ],
      "payable": false,
      "stateMutability": "view",
      "type": "function"
    },
    {
      "constant": true,
      "inputs": [],
      "name": "controllerAddress",
      "outputs": [
        {
          "name": "",
          "type": "address"
        }
      ],
      "payable": false,
      "stateMutability": "view",
      "type": "function"
    },
    {
      "constant": true,
      "inputs": [],
      "name": "latitude",
      "outputs": [
        {
          "name": "",
          "type": "uint256"
        }
      ],
      "payable": false,
      "stateMutability": "view",
      "type": "function"
    },
    {
      "constant": true,
      "inputs": [],
      "name": "location",
      "outputs": [
        {
          "name": "",
          "type": "string"
        }
      ],
      "payable": false,
      "stateMutability": "view",
      "type": "function"
    },
    {
      "constant": true,
      "inputs": [],
      "name": "longitude",
      "outputs": [
        {
          "name": "",
          "type": "uint256"
        }
      ],
      "payable": false,
      "stateMutability": "view",
      "type": "function"
    },
    {
      "constant": true,
      "inputs": [],
      "name": "restaurantFactoryAddress",
      "outputs": [
        {
          "name": "",
          "type": "address"
        }
      ],
      "payable": false,
      "stateMutability": "view",
      "type": "function"
    },
    {
      "constant": true,
      "inputs": [],
      "name": "logoURI",
      "outputs": [
        {
          "name": "",
          "type": "string"
        }
      ],
      "payable": false,
      "stateMutability": "view",
      "type": "function"
    },
    {
      "constant": true,
      "inputs": [],
      "name": "contactNumber",
      "outputs": [
        {
          "name": "",
          "type": "string"
        }
      ],
      "payable": false,
      "stateMutability": "view",
      "type": "function"
    },
    {
      "constant": true,
      "inputs": [],
      "name": "owner",
      "outputs": [
        {
          "name": "",
          "type": "address"
        }
      ],
      "payable": false,
      "stateMutability": "view",
      "type": "function"
    },
    {
      "constant": true,
      "inputs": [
        {
          "name": "",
          "type": "uint256"
        }
      ],
      "name": "orders",
      "outputs": [
        {
          "name": "open",
          "type": "bool"
        },
        {
          "name": "orderAddress",
          "type": "address"
        }
      ],
      "payable": false,
      "stateMutability": "view",
      "type": "function"
    },
    {
      "constant": true,
      "inputs": [],
      "name": "id",
      "outputs": [
        {
          "name": "",
          "type": "uint256"
        }
      ],
      "payable": false,
      "stateMutability": "view",
      "type": "function"
    },
    {
      "constant": true,
      "inputs": [
        {
          "name": "",
          "type": "uint256"
        }
      ],
      "name": "menu",
      "outputs": [
        {
          "name": "itemName",
          "type": "bytes32"
        },
        {
          "name": "description",
          "type": "bytes32"
        }
      ],
      "payable": false,
      "stateMutability": "view",
      "type": "function"
    },
    {
      "inputs": [
        {
          "name": "_controller",
          "type": "address"
        },
        {
          "name": "_owner",
          "type": "address"
        },
        {
          "name": "_id",
          "type": "uint256"
        },
        {
          "name": "_name",
          "type": "string"
        },
        {
          "name": "_address",
          "type": "string"
        },
        {
          "name": "_latitude",
          "type": "uint256"
        },
        {
          "name": "_longitude",
          "type": "uint256"
        },
        {
          "name": "_contactNumber",
          "type": "string"
        }
      ],
      "payable": false,
      "stateMutability": "nonpayable",
      "type": "constructor"
    },
    {
      "payable": true,
      "stateMutability": "payable",
      "type": "fallback"
    },
    {
      "anonymous": false,
      "inputs": [
        {
          "indexed": false,
          "name": "orderAddress",
          "type": "address"
        }
      ],
      "name": "OrderMadeEvent",
      "type": "event"
    },
    {
      "anonymous": false,
      "inputs": [],
      "name": "MenuUpdated",
      "type": "event"
    },
    {
      "constant": false,
      "inputs": [
        {
          "name": "imageURI",
          "type": "string"
        },
        {
          "name": "imageHash",
          "type": "bytes32"
        }
      ],
      "name": "updateLogo",
      "outputs": [],
      "payable": false,
      "stateMutability": "nonpayable",
      "type": "function"
    },
    {
      "constant": true,
      "inputs": [],
      "name": "getMenuLength",
      "outputs": [
        {
          "name": "length",
          "type": "uint256"
        }
      ],
      "payable": false,
      "stateMutability": "view",
      "type": "function"
    },
    {
      "constant": false,
      "inputs": [
        {
          "name": "itemNames",
          "type": "bytes32[]"
        },
        {
          "name": "itemDescriptions",
          "type": "bytes32[]"
        },
        {
          "name": "_optionNames",
          "type": "bytes32[]"
        },
        {
          "name": "_prices",
          "type": "uint256[]"
        }
      ],
      "name": "menuAddItems",
      "outputs": [],
      "payable": false,
      "stateMutability": "nonpayable",
      "type": "function"
    },
    {
      "constant": false,
      "inputs": [
        {
          "name": "itemIds",
          "type": "uint256[]"
        }
      ],
      "name": "menuRemoveItems",
      "outputs": [],
      "payable": false,
      "stateMutability": "nonpayable",
      "type": "function"
    },
    {
      "constant": true,
      "inputs": [
        {
          "name": "itemIds",
          "type": "uint256[]"
        }
      ],
      "name": "getOrderPrice",
      "outputs": [
        {
          "name": "",
          "type": "uint256"
        }
      ],
      "payable": false,
      "stateMutability": "view",
      "type": "function"
    },
    {
      "constant": false,
      "inputs": [
        {
          "name": "itemIds",
          "type": "uint256[]"
        },
        {
          "name": "deliveryFee",
          "type": "uint256"
        },
        {
          "name": "riderKeyHash",
          "type": "bytes32"
        }
      ],
      "name": "makeOrder",
      "outputs": [
        {
          "name": "orderAddress",
          "type": "address"
        }
      ],
      "payable": true,
      "stateMutability": "payable",
      "type": "function"
    },
    {
      "constant": true,
      "inputs": [
        {
          "name": "itemId",
          "type": "uint256"
        }
      ],
      "name": "getMenuItem",
      "outputs": [
        {
          "name": "itemname",
          "type": "bytes32"
        },
        {
          "name": "cost",
          "type": "uint256"
        }
      ],
      "payable": false,
      "stateMutability": "view",
      "type": "function"
    },
    {
      "constant": false,
      "inputs": [
        {
          "name": "orderAddress",
          "type": "address"
        },
        {
          "name": "status",
          "type": "uint256"
        }
      ],
      "name": "setStatus",
      "outputs": [],
      "payable": false,
      "stateMutability": "nonpayable",
      "type": "function"
    },
    {
      "constant": false,
      "inputs": [],
      "name": "pay",
      "outputs": [],
      "payable": true,
      "stateMutability": "payable",
      "type": "function"
    }
  ],
  "bytecode": "0x60806040523480156200001157600080fd5b5060405162002bc138038062002bc183398101806040526101008110156200003857600080fd5b81516020830151604084015160608501805193959294919391830192916401000000008111156200006857600080fd5b820160208101848111156200007c57600080fd5b81516401000000008111828201871017156200009757600080fd5b50509291906020018051640100000000811115620000b457600080fd5b82016020810184811115620000c857600080fd5b8151640100000000811182820187101715620000e357600080fd5b505060208201516040830151606090930180519295919491926401000000008111156200010f57600080fd5b820160208101848111156200012357600080fd5b81516401000000008111828201871017156200013e57600080fd5b5050600089905587519093506200015f9250600191506020880190620001e8565b50835162000175906002906020870190620001e8565b5060048390556003829055805162000195906007906020840190620001e8565b50506000600b819055600d55505060098054600160a060020a03968716600160a060020a0319918216179091556008805495909616948116949094179094555050600a805490911633179055506200028d565b828054600181600116156101000203166002900490600052602060002090601f016020900481019282601f106200022b57805160ff19168380011785556200025b565b828001600101855582156200025b579182015b828111156200025b5782518255916020019190600101906200023e565b50620002699291506200026d565b5090565b6200028a91905b8082111562000269576000815560010162000274565b90565b612924806200029d6000396000f3fe6080604052600436106200014a5763ffffffff7c010000000000000000000000000000000000000000000000000000000060003504166306fdde0381146200014c578063125ba97714620001dc5780631b9265b814620002065780631d834409146200021057806321be5e4e14620002285780633d939a4914620002ac5780634b24ea4714620002c45780634fd7d76a14620002f8578063516f279e1462000310578063589af69c146200032857806366e1dfa3146200034057806368db65a414620003f75780636bb38b28146200040f57806376af633c14620004275780637e55d59c146200043f5780638da5cb5b146200047c57806394b929761462000494578063a85c38ef1462000518578063af640d0f1462000569578063b9fecf141462000581578063cffb703c1462000704578063f943eecd146200074b578063f9a9525e1462000779575b005b3480156200015957600080fd5b5062000164620007f5565b6040805160208082528351818301528351919283929083019185019080838360005b83811015620001a057818101518382015260200162000186565b50505050905090810190601f168015620001ce5780820380516001836020036101000a031916815260200191505b509250505060405180910390f35b348015620001e957600080fd5b50620001f462000886565b60408051918252519081900360200190f35b6200014a6200088d565b3480156200021d57600080fd5b50620001f4620008d4565b3480156200023557600080fd5b506200014a600480360360208110156200024e57600080fd5b8101906020810181356401000000008111156200026a57600080fd5b8201836020820111156200027d57600080fd5b80359060200191846020830284011164010000000083111715620002a057600080fd5b509092509050620008da565b348015620002b957600080fd5b50620001f462000a77565b348015620002d157600080fd5b50620002dc62000a7d565b60408051600160a060020a039092168252519081900360200190f35b3480156200030557600080fd5b50620001f462000a8c565b3480156200031d57600080fd5b506200016462000a92565b3480156200033557600080fd5b50620001f462000aed565b3480156200034d57600080fd5b50620001f4600480360360208110156200036657600080fd5b8101906020810181356401000000008111156200038257600080fd5b8201836020820111156200039557600080fd5b80359060200191846020830284011164010000000083111715620003b857600080fd5b91908080602002602001604051908101604052809392919081815260200183836020028082843760009201919091525092955062000af3945050505050565b3480156200040457600080fd5b50620002dc62000b60565b3480156200041c57600080fd5b506200016462000b6f565b3480156200043457600080fd5b506200016462000bcd565b3480156200044c57600080fd5b506200014a600480360360408110156200046557600080fd5b50600160a060020a03813516906020013562000c2b565b3480156200048957600080fd5b50620002dc62000d25565b348015620004a157600080fd5b506200014a60048036036040811015620004ba57600080fd5b810190602081018135640100000000811115620004d657600080fd5b820183602082011115620004e957600080fd5b803590602001918460018302840111640100000000831117156200050c57600080fd5b91935091503562000d34565b3480156200052557600080fd5b5062000546600480360360208110156200053e57600080fd5b503562000d62565b604080519215158352600160a060020a0390911660208301528051918290030190f35b3480156200057657600080fd5b50620001f462000d87565b3480156200058e57600080fd5b506200014a60048036036080811015620005a757600080fd5b810190602081018135640100000000811115620005c357600080fd5b820183602082011115620005d657600080fd5b80359060200191846020830284011164010000000083111715620005f957600080fd5b9193909290916020810190356401000000008111156200061857600080fd5b8201836020820111156200062b57600080fd5b803590602001918460208302840111640100000000831117156200064e57600080fd5b9193909290916020810190356401000000008111156200066d57600080fd5b8201836020820111156200068057600080fd5b80359060200191846020830284011164010000000083111715620006a357600080fd5b919390929091602081019035640100000000811115620006c257600080fd5b820183602082011115620006d557600080fd5b80359060200191846020830284011164010000000083111715620006f857600080fd5b50909250905062000d8d565b3480156200071157600080fd5b5062000732600480360360208110156200072a57600080fd5b503562001068565b6040805192835260208301919091528051918290030190f35b3480156200075857600080fd5b5062000732600480360360208110156200077157600080fd5b503562001081565b620002dc600480360360608110156200079157600080fd5b810190602081018135640100000000811115620007ad57600080fd5b820183602082011115620007c057600080fd5b80359060200191846020830284011164010000000083111715620007e357600080fd5b919350915080359060200135620010bb565b60018054604080516020600284861615610100026000190190941693909304601f810184900484028201840190925281815292918301828280156200087e5780601f1062000852576101008083540402835291602001916200087e565b820191906000526020600020905b8154815290600101906020018083116200086057829003601f168201915b505050505081565b600e545b90565b600d805434908101909155600854604051600160a060020a039091169180156108fc02916000818181858888f19350505050158015620008d1573d6000803e3d6000fd5b50565b600b5481565b600854600160a060020a03163314620008f257600080fd5b600081116200090057600080fd5b600e54604080519183900380835260208082028401019091529060609082801562000935578160200160208202803883390190505b5090506000805b600e54811015620009b257600160005b868110156200097f578787828181106200096257fe5b905060200201358314156200097657600091505b6001016200094c565b508015620009a8578184848151811015156200099757fe5b602090810290910101526001909201915b506001016200093c565b5060005b825181101562000a4157600f60008483815181101515620009d357fe5b602090810290910181015182528181019290925260409081016000908120848252600f9093522081548155600180830154908201556002808301805462000a1e9284019190620015e7565b506003828101805462000a359284019190620015e7565b505050600101620009b6565b508151600e556040517f6706c873484487b2b1bb6c385a03896b4a5a6f9069aef613842f6529410ae09f90600090a15050505050565b600e5481565b600954600160a060020a031681565b60045481565b6002805460408051602060018416156101000260001901909316849004601f810184900484028201840190925281815292918301828280156200087e5780601f1062000852576101008083540402835291602001916200087e565b60035481565b600080805b835181101562000b5957600f6000858381518110151562000b1557fe5b906020019060200201518152602001908152602001600020600301600081548110151562000b3f57fe5b600091825260209091200154919091019060010162000af8565b5092915050565b600a54600160a060020a031681565b6005805460408051602060026001851615610100026000190190941693909304601f810184900484028201840190925281815292918301828280156200087e5780601f1062000852576101008083540402835291602001916200087e565b6007805460408051602060026001851615610100026000190190941693909304601f810184900484028201840190925281815292918301828280156200087e5780601f1062000852576101008083540402835291602001916200087e565b600854600160a060020a0316331462000ca557604080517f08c379a000000000000000000000000000000000000000000000000000000000815260206004820152601560248201527f796f7520617265206e6f7420746865206f776e65720000000000000000000000604482015290519081900360640190fd5b81600160a060020a031663e9132c42826040518263ffffffff167c010000000000000000000000000000000000000000000000000000000002815260040180828152602001915050600060405180830381600087803b15801562000d0857600080fd5b505af115801562000d1d573d6000803e3d6000fd5b505050505050565b600854600160a060020a031681565b600854600160a060020a0316331462000d4c57600080fd5b62000d5a600584846200163c565b506006555050565b600c6020526000908152604090205460ff8116906101009004600160a060020a031682565b60005481565b600854600160a060020a0316331462000da557600080fd5b86851462000db257600080fd5b82811462000dbf57600080fd5b60408051600580825260c08201909252600091829160019183918291606091906020820160a080388339505060408051600580825260c0820190925292935060609291506020820160a08038833901905050905060005b8a81101562000fd957851562000e97578f8f8981811062000e3357fe5b905060200201359450838860208110151562000e4b57fe5b1a7f0100000000000000000000000000000000000000000000000000000000000000027effffffffffffffffffffffffffffffffffffffffffffffffffffffffffffff19169350600095505b6000838281518110151562000ea857fe5b906020019060200201519050807f3078300000000000000000000000000000000000000000000000000000000000141562000f6e576040805160808101825287815260208082018881528284018881526060840188905260008e8152600f84529490942083518155905160018201559251805192939262000f309260028501920190620016af565b506060820151805162000f4e916003840191602090910190620016af565b5050600e80546001908101909155998a019960009950975062000fcf9050565b8c8c8381811062000f7b57fe5b90506020020135848981518110151562000f9157fe5b602090810290910101528a8a8381811062000fa857fe5b90506020020135838981518110151562000fbe57fe5b602090810290910101526001909701965b5060010162000e16565b506040805160808101825285815260208082018681528284018681526060840186905260008c8152600f8452949094208351815590516001820155925180519293926200102d9260028501920190620016af565b50606082015180516200104b916003840191602090910190620016af565b5050600e8054600101905550505050505050505050505050505050565b600f602052600090815260409020805460019091015482565b6000818152600f602052604081208054600390910180548392919083908110620010a757fe5b906000526020600020015491509150915091565b600954604080517f6455e5ac0000000000000000000000000000000000000000000000000000000081529051600092600160a060020a031691636455e5ac916004808301926020929190829003018186803b1580156200111a57600080fd5b505afa1580156200112f573d6000803e3d6000fd5b505050506040513d60208110156200114657600080fd5b5051604080517f689b00980000000000000000000000000000000000000000000000000000000081523360048201529051600160a060020a039092169163689b009891602480820192602092909190829003018186803b158015620011aa57600080fd5b505afa158015620011bf573d6000803e3d6000fd5b505050506040513d6020811015620011d657600080fd5b505115156200124657604080517f08c379a000000000000000000000000000000000000000000000000000000000815260206004820152601560248201527f437573746f6d657220646f65736e742065786973740000000000000000000000604482015290519081900360640190fd5b60408051858152602080870282010190915260609085801562001273578160200160208202803883390190505b509050606086869050604051908082528060200260200182016040528015620012a6578160200160208202803883390190505b50905060005b8681101562001409576000888883818110620012c457fe5b9050602002013510158015620012ee5750600e54888883818110620012e557fe5b90506020020135105b156200139957600f60008989848181106200130557fe5b9050602002013581526020019081526020016000206000015482828151811015156200132d57fe5b60209081029091010152600f60008989848181106200134857fe5b90506020020135815260200190815260200160002060030160008154811015156200136f57fe5b906000526020600020015483828151811015156200138957fe5b6020908102909101015262001400565b604080517f08c379a000000000000000000000000000000000000000000000000000000000815260206004820152600d60248201527f496e76616c6964204974656d7300000000000000000000000000000000000000604482015290519081900360640190fd5b600101620012ac565b50600b546009546000913491849086908a90600160a060020a0316338b62001430620016ed565b87815260608101859052600160a060020a038085166080830152831660a082015260c0810182905260e06020808301828152895192840192909252885160408401916101008501918b8201910280838360005b838110156200149d57818101518382015260200162001483565b50505050905001838103825288818151815260200191508051906020019060200280838360005b83811015620014de578181015183820152602001620014c4565b5050505090500199505050505050505050506040518091039082f0801580156200150c573d6000803e3d6000fd5b506040805180820182526001808252600160a060020a038481166020808501918252600b80546000908152600c835287812096518754945160ff199095169015151774ffffffffffffffffffffffffffffffffffffffff001916610100948616850217909655805494850190559284529284902054845193900416825291519294507f6ad6ccf0214624cc1ab014b24a7601698f45e6a0d07edcbab143606784ed78fb93508290030190a15050600b54600019016000908152600c60205260409020546101009004600160a060020a03169695505050505050565b8280548282559060005260206000209081019282156200162a5760005260206000209182015b828111156200162a5782548255916001019190600101906200160d565b5062001638929150620016fe565b5090565b828054600181600116156101000203166002900490600052602060002090601f016020900481019282601f106200167f5782800160ff198235161785556200162a565b828001600101855582156200162a579182015b828111156200162a57823582559160200191906001019062001692565b8280548282559060005260206000209081019282156200162a579160200282015b828111156200162a578251825591602001919060010190620016d0565b6040516111dd806200171c83390190565b6200088a91905b808211156200163857600081556001016200170556fe608060408190526004805461ffff19169055600c805460ff19908116909155600e80549091169055620011dd38819003908190833981018060405260e08110156200004957600080fd5b8151602083018051919392830192916401000000008111156200006b57600080fd5b820160208101848111156200007f57600080fd5b81518560208202830111640100000000821117156200009d57600080fd5b50509291906020018051640100000000811115620000ba57600080fd5b82016020810184811115620000ce57600080fd5b8151856020820283011164010000000082111715620000ec57600080fd5b5050602080830151604080850151606086015160809096015182517f68db65a4000000000000000000000000000000000000000000000000000000008152925195985092965094939192600160a060020a038616926368db65a4926004808201939291829003018186803b1580156200016457600080fd5b505afa15801562000179573d6000803e3d6000fd5b505050506040513d60208110156200019057600080fd5b5051604080517f79a4fa270000000000000000000000000000000000000000000000000000000081523360048201529051600160a060020a03909216916379a4fa2791602480820192602092909190829003018186803b158015620001f457600080fd5b505afa15801562000209573d6000803e3d6000fd5b505050506040513d60208110156200022057600080fd5b50511515620002b657604080517f08c379a000000000000000000000000000000000000000000000000000000000815260206004820152603d60248201527f617474656d7074656420746f206d616b65206f726465722066726f6d2061646460448201527f726573732074686174206973206e6f7420612072657374617572616e74000000606482015290519081900360840190fd5b84518651146200034d57604080517f08c379a000000000000000000000000000000000000000000000000000000000815260206004820152602360248201527f696e76616c6964206d61746368696e67206f66206974656d7320746f2070726960448201527f6365730000000000000000000000000000000000000000000000000000000000606482015290519081900360840190fd5b6003879055600480546201000033026201000060b060020a031990911617905560068054600160a060020a03848116600160a060020a03199283161790925542600855600780549286169290911691909117905560006009819055600f8190555b8651811015620004505760408051908101604052808883815181101515620003d257fe5b9060200190602002015181526020018783815181101515620003f057fe5b6020908102909101810151909152600f54600090815260108252604090208251815591015160019091015585518690829081106200042a57fe5b60209081029091010151600980549091019055600f8054600190810190915501620003ae565b50600a8490556009548401341015620004f057604080517f08c379a000000000000000000000000000000000000000000000000000000000815260206004820152602360248201527f6e6f7420656e6f7567682065746865722073656e7420746f20746865206f726460448201527f6572200000000000000000000000000000000000000000000000000000000000606482015290519081900360840190fd5b60016002556000809081556001908155600b91909155600c805460ff19169091179055505050505050610cb480620005296000396000f3fe60806040526004361061012f5763ffffffff60e060020a60003504166312065fe081146101345780632799276d1461015b5780632804b2c0146101705780633129e773146101a157806332940816146101e45780633cc94908146101f95780633cf5040a1461020e5780633e3ca4d31461023857806340571abb1461024d57806353c0a00614610276578063646e077f1461028b5780637aada134146102a05780639e8464f1146102b5578063a14b7e68146102df578063af640d0f146102f4578063bd3e19d414610309578063bfb231d21461031e578063d601e11414610348578063d638e1021461035d578063db7575f014610372578063e9132c421461039c578063ed168058146103bb578063f3cc0f1f146103d0578063f90a92e3146103e5578063fc6f78a014610402575b600080fd5b34801561014057600080fd5b50610149610417565b60408051918252519081900360200190f35b34801561016757600080fd5b5061014961041c565b34801561017c57600080fd5b50610185610422565b60408051600160a060020a039092168252519081900360200190f35b3480156101ad57600080fd5b506101cb600480360360208110156101c457600080fd5b5035610431565b6040805192835260208301919091528051918290030190f35b3480156101f057600080fd5b5061014961044b565b34801561020557600080fd5b50610149610451565b34801561021a57600080fd5b506101496004803603602081101561023157600080fd5b5035610457565b34801561024457600080fd5b5061014961047b565b34801561025957600080fd5b50610262610481565b604080519115158252519081900360200190f35b34801561028257600080fd5b5061018561048f565b34801561029757600080fd5b5061026261049e565b3480156102ac57600080fd5b506101496104a7565b3480156102c157600080fd5b50610262600480360360208110156102d857600080fd5b50356104ad565b3480156102eb57600080fd5b506101496105a1565b34801561030057600080fd5b506101496105a7565b34801561031557600080fd5b506101496105ad565b34801561032a57600080fd5b506101cb6004803603602081101561034157600080fd5b50356105b3565b34801561035457600080fd5b506102626105cc565b34801561036957600080fd5b506102626105d5565b34801561037e57600080fd5b506102626004803603602081101561039557600080fd5b50356105de565b6103b9600480360360208110156103b257600080fd5b50356106d1565b005b3480156103c757600080fd5b50610185610864565b3480156103dc57600080fd5b50610149610879565b6103b9600480360360208110156103fb57600080fd5b503561087f565b34801561040e57600080fd5b50610149610b2d565b303190565b600f5481565b600654600160a060020a031681565b600090815260106020526040902080546001909101549091565b60015481565b600d5481565b60408051602080820193909352815180820384018152908201909152805191012090565b60005481565b600454610100900460ff1681565b600554600160a060020a031681565b600c5460ff1681565b60085481565b600e5460009060ff16151560011461050f576040805160e560020a62461bcd02815260206004820152601360248201527f4e6f206b657920686173206265656e2073657400000000000000000000000000604482015290519081900360640190fd5b600d5461051b83610457565b14610570576040805160e560020a62461bcd02815260206004820152600d60248201527f496e636f7272656374204b657900000000000000000000000000000000000000604482015290519081900360640190fd5b610578610b33565b600360015560026000908155604051600080516020610c698339815191529190a1506001919050565b60025481565b60035481565b60095490565b6010602052600090815260409020805460019091015482565b60045460ff1681565b600e5460ff1681565b600c5460009060ff161515600114610640576040805160e560020a62461bcd02815260206004820152601360248201527f4e6f206b657920686173206265656e2073657400000000000000000000000000604482015290519081900360640190fd5b600b5461064c83610457565b146106a1576040805160e560020a62461bcd02815260206004820152600d60248201527f496e636f7272656374204b657900000000000000000000000000000000000000604482015290519081900360640190fd5b6106a9610bca565b600360005560028055604051600080516020610c6983398151915290600090a1506001919050565b600454620100009004600160a060020a03163314610785576040805160e560020a62461bcd02815260206004820152605060248201527f596f7520646f6e742068617665207065726d697373696f6e20746f207365652060448201527f74686973206f726465722c2064696420796f752067657420746865206f72646560648201527f7220616464726573732077726f6e673f00000000000000000000000000000000608482015290519081900360a40190fd5b60015481116107de576040805160e560020a62461bcd02815260206004820152601c60248201527f7374617475732063616e6e6f74206265206261636b747261636b656400000000604482015290519081900360640190fd5b600381111580156107ef5750600081115b1515610845576040805160e560020a62461bcd02815260206004820152601660248201527f676976656e20537461747573206e6f742076616c696400000000000000000000604482015290519081900360640190fd5b6001819055604051600080516020610c6983398151915290600090a150565b600454620100009004600160a060020a031681565b600a5481565b600054156108fd576040805160e560020a62461bcd02815260206004820152602a60248201527f74686973206f7264657220616c6c7265616479206861732064656c697665727960448201527f206f7267616e6973656400000000000000000000000000000000000000000000606482015290519081900360840190fd5b600760009054906101000a9004600160a060020a0316600160a060020a031663c9286d576040518163ffffffff1660e060020a02815260040160206040518083038186803b15801561094e57600080fd5b505afa158015610962573d6000803e3d6000fd5b505050506040513d602081101561097857600080fd5b5051604080517f139526700000000000000000000000000000000000000000000000000000000081523360048201529051600160a060020a0390921691631395267091602480820192602092909190829003018186803b1580156109db57600080fd5b505afa1580156109ef573d6000803e3d6000fd5b505050506040513d6020811015610a0557600080fd5b50511515610a83576040805160e560020a62461bcd02815260206004820152602960248201527f6d7573742062652063616c6c656420766961206120726964657220736d61727460448201527f20636f6e74726163740000000000000000000000000000000000000000000000606482015290519081900360840190fd5b600954341015610add576040805160e560020a62461bcd02815260206004820152601e60248201527f746865206465706f7369742073656e74206973206e6f7420656e6f7567680000604482015290519081900360640190fd5b600160009081556005805473ffffffffffffffffffffffffffffffffffffffff191633179055600d829055600e805460ff19166001179055604051600080516020610c698339815191529190a150565b600b5481565b600460029054906101000a9004600160a060020a0316600160a060020a0316631b9265b86009546040518263ffffffff1660e060020a0281526004016000604051808303818588803b158015610b8857600080fd5b505af1158015610b9c573d6000803e3d6000fd5b50506004805460ff191660019081178255555050604051600080516020610c698339815191529150600090a1565b600560009054906101000a9004600160a060020a0316600160a060020a0316631b9265b8600a54600954016040518263ffffffff1660e060020a0281526004016000604051808303818588803b158015610c2357600080fd5b505af1158015610c37573d6000803e3d6000fd5b50506004805461ff001916610100179055505060036000908155604051600080516020610c698339815191529250a156feac854101ed2841c4fe7b3c5bfc4f3e58ddac515e8dd58f1bd9cf7856f1cc6e7fa165627a7a7230582049419b0aff8859aee6e62fab2b62f6998b8da2d2fd7411f3748777d41f8809290029a165627a7a72305820e6530b3fd6ad84acbd44186b0e17f803c99ba52883d659655b1d2c00d1cd83670029",
  "source": "pragma solidity ^0.5.0;\n\n //import \"./lib.sol\";\n import \"./Order.sol\";\n import \"./RestaurantFactory.sol\";\n import \"./CustomerFactory.sol\";\n import \"./Controller.sol\";\n\ncontract Restaurant {\n\n    //using lib for bytes32;\n\n    // additional variables to add\n    // restaurant logo: need link to logo file and hash of file\n    // banner image of restaurant\n\n    // latitud and longitude for indexing on area\n\n    // todo:\n\n\n\tuint public id;\n\tstring public name;\n\n\tstring public location;\n    uint public longitude;\n    uint public latitude;\n\n    string public logoURI;\n    bytes32 private logoHash;\n\n\n\tstring public contactNumber;\n\n\taddress payable public owner;\n    address public controllerAddress;\n\taddress public restaurantFactoryAddress;\n\n\n    struct order{bool open; address orderAddress;}\n\tuint public totalOrders;\n    // todo: make orders private and accessed via method for only rider and restaurant\n\tmapping(uint => order) public orders; // must be a better way to store the orders\n\n    uint totalPay;\n\t\n\tstruct Item{\n\t\tbytes32 itemName;\n        bytes32 description;\n        bytes32[] options;\n\t\tuint[] optionsCost; // in wei (10^-18 Eth)\n\t}\n\t\n    uint public menuLength;\n\tmapping(uint => Item) public menu; \n\n    enum restaurantState{acceptedOrder, preparingCargo, readyForCollection, HandedOver}\n\t\n    event OrderMadeEvent(address orderAddress);\n    event MenuUpdated();\n\n\tconstructor(address _controller, address payable _owner, \n                uint _id, string memory _name,\n                string memory _address, uint _latitude, uint _longitude, \n                string memory _contactNumber\n                ) public {\n        // itemOptions and prices will have to be parsed as they are 2d arrays\n\t\tid = _id;\n\t\tname = _name;\n\t\t\n        location = _address;\n        latitude = _latitude;\n        longitude = _longitude;\n\n\t\tcontactNumber = _contactNumber;\n\t\ttotalOrders = 0;\n        totalPay = 0;\n\n        controllerAddress = _controller;\n\t\towner = _owner;\n\t\trestaurantFactoryAddress = msg.sender;\n\t}\n\n    function updateLogo(string calldata imageURI, bytes32 imageHash) external{\n        require(msg.sender == owner);\n        logoURI = imageURI;\n        logoHash = imageHash;\n    }\n\n    // ToDo Remove this\n    function getMenuLength() external view returns(uint length){\n        return menuLength;\n    }\n    \n\n    function menuAddItems(bytes32[] calldata itemNames, bytes32[] calldata itemDescriptions, bytes32[] calldata _optionNames, uint[] calldata _prices) external {\n        require(msg.sender == owner);\n        require(itemNames.length == itemDescriptions.length);\n        require(_optionNames.length == _prices.length);\n        \n        uint itemindex = 0;\n        uint optionIndex = 0;\n        bool isNewItem = true;\n\n        bytes32 itemName;\n        bytes32 itemDescription;\n        bytes32[] memory optionNames = new bytes32[](5);\n        uint[] memory prices = new uint[](5);\n\n\n        for(uint i = 0; i < _optionNames.length; i++){\n\n            if(isNewItem){\n                itemName = itemNames[itemindex];\n                itemDescription = itemDescription[itemindex];\n                isNewItem = false;\n            }\n\n            bytes32 optionName = optionNames[i];\n\n            if(optionName == \"0x0\"){\n                menu[itemindex] = Item(itemName,itemDescription,optionNames,prices);\n                menuLength++;\n                itemindex++;\n                optionIndex = 0;\n                isNewItem = true;\n            }\n            else{\n                optionNames[optionIndex] = _optionNames[i];\n                prices[optionIndex] = _prices[i];\n                optionIndex++;\n            }\n\n        }\n\n        menu[itemindex] = Item(itemName,itemDescription,optionNames,prices);\n        menuLength++;\n\n\n    }\n\n    \n    \n    function menuRemoveItems(uint[] calldata itemIds) external{\n        require(msg.sender == owner);\n        require(itemIds.length>0);\n\n        uint totalItemsToKeep = menuLength - uint(itemIds.length);\n\n        uint[] memory itemsToKeep = new uint[](totalItemsToKeep);\n        uint counter = 0;\n        for(uint i = 0; i<menuLength;i++){\n            bool idUndeleted = true;\n            for(uint j = 0; j < itemIds.length; j++){\n                if(i == itemIds[j]){\n                    idUndeleted = false;\n                }\n            }\n            if(idUndeleted){\n                itemsToKeep[counter] = i;\n                counter++;\n            }\n        }\n\n        for(uint i = 0; i < itemsToKeep.length; i++){\n            menu[i] = menu[itemsToKeep[i]];\n        }\n        menuLength = itemsToKeep.length;\n        emit MenuUpdated();\n    }\n\n    // todo: fix this\n    function getOrderPrice(uint[] memory itemIds) public view returns (uint){\n        uint price = 0;\n        for(uint i = 0; i < itemIds.length; i++){\n            price += menu[itemIds[i]].optionsCost[0];\n        }\n        return price;\n    }\n    \n\n    function makeOrder(uint[] calldata itemIds, uint deliveryFee, bytes32 riderKeyHash) external payable returns (address orderAddress) {\n        //require this comes from a customer smart contract, maybe worth moving this to the order smart contract\n        require(CustomerFactory(Controller(controllerAddress).customerFactoryAddress()).customerExists(msg.sender), \"Customer doesnt exist\");\n\n        uint[] memory prices = new uint[](itemIds.length);\n        bytes32[] memory items = new bytes32[](itemIds.length);\n        for(uint i = 0; i < itemIds.length; i++)\n        {\n            if (itemIds[i] >= 0 && itemIds[i] < menuLength){\n                // could consider sending itemID and price to reduce gas cost\n                items[i] = menu[uint(itemIds[i])].itemName; \n                prices[i] = menu[uint(itemIds[i])].optionsCost[0];\n            }\n            else{\n                revert(\"Invalid Items\");\n            }\n        }\n        \n\t\tOrder newOrder = (new Order).value(msg.value)(totalOrders,items,prices,deliveryFee, controllerAddress, msg.sender, riderKeyHash);\n\t\torders[totalOrders] = order(true,address(newOrder));\n        totalOrders ++;\n\n        emit OrderMadeEvent(orders[totalOrders - 1].orderAddress);\n\n\t\treturn orders[totalOrders - 1].orderAddress;       \n    }\n    \n    function getMenuItem(uint itemId)public view returns(bytes32 itemname, uint cost){\n        return (menu[itemId].itemName,menu[itemId].optionsCost[0]);\n    }\n\n    function setStatus(address orderAddress, uint status) public{\n        require(msg.sender == owner, \"you are not the owner\");\n        Order(orderAddress).setOrderStatus(status);\n    }\n\n    function pay() external payable {\n        totalPay += msg.value;\n        owner.transfer(msg.value);\n    } \n\n    function() external payable {\n\n    }\n}",
  "sourcePath": "/home/george/Documents/WorkSpace/TryAByte/contracts/Restaurant.sol",
  "compiler": {
    "name": "solc",
    "version": "0.5.0+commit.1d4f565a.Emscripten.clang"
  },
  "schemaVersion": "3.0.6",
  "updatedAt": "2019-10-10T13:33:14.887Z",
  "devdoc": {
    "methods": {}
  },
  "userdoc": {
    "methods": {}
  }
}