{
  "contractName": "Restaurant",
  "abi": [
    {
      "constant": true,
      "inputs": [],
      "name": "name",
      "outputs": [
        {
          "name": "",
          "type": "string"
        }
      ],
      "payable": false,
      "stateMutability": "view",
      "type": "function"
    },
    {
      "constant": true,
      "inputs": [],
      "name": "totalOrders",
      "outputs": [
        {
          "name": "",
          "type": "uint256"
        }
      ],
      "payable": false,
      "stateMutability": "view",
      "type": "function"
    },
    {
      "constant": true,
      "inputs": [],
      "name": "menuLength",
      "outputs": [
        {
          "name": "",
          "type": "uint256"
        }
      ],
      "payable": false,
      "stateMutability": "view",
      "type": "function"
    },
    {
      "constant": true,
      "inputs": [],
      "name": "controllerAddress",
      "outputs": [
        {
          "name": "",
          "type": "address"
        }
      ],
      "payable": false,
      "stateMutability": "view",
      "type": "function"
    },
    {
      "constant": true,
      "inputs": [],
      "name": "location",
      "outputs": [
        {
          "name": "",
          "type": "string"
        }
      ],
      "payable": false,
      "stateMutability": "view",
      "type": "function"
    },
    {
      "constant": true,
      "inputs": [],
      "name": "restaurantFactoryAddress",
      "outputs": [
        {
          "name": "",
          "type": "address"
        }
      ],
      "payable": false,
      "stateMutability": "view",
      "type": "function"
    },
    {
      "constant": true,
      "inputs": [],
      "name": "contactNumber",
      "outputs": [
        {
          "name": "",
          "type": "string"
        }
      ],
      "payable": false,
      "stateMutability": "view",
      "type": "function"
    },
    {
      "constant": true,
      "inputs": [],
      "name": "rating",
      "outputs": [
        {
          "name": "",
          "type": "uint256"
        }
      ],
      "payable": false,
      "stateMutability": "view",
      "type": "function"
    },
    {
      "constant": true,
      "inputs": [],
      "name": "owner",
      "outputs": [
        {
          "name": "",
          "type": "address"
        }
      ],
      "payable": false,
      "stateMutability": "view",
      "type": "function"
    },
    {
      "constant": true,
      "inputs": [
        {
          "name": "",
          "type": "uint256"
        }
      ],
      "name": "orders",
      "outputs": [
        {
          "name": "open",
          "type": "bool"
        },
        {
          "name": "orderAddress",
          "type": "address"
        }
      ],
      "payable": false,
      "stateMutability": "view",
      "type": "function"
    },
    {
      "constant": true,
      "inputs": [],
      "name": "id",
      "outputs": [
        {
          "name": "",
          "type": "uint256"
        }
      ],
      "payable": false,
      "stateMutability": "view",
      "type": "function"
    },
    {
      "constant": true,
      "inputs": [
        {
          "name": "",
          "type": "uint256"
        }
      ],
      "name": "menu",
      "outputs": [
        {
          "name": "itemName",
          "type": "bytes32"
        },
        {
          "name": "itemCost",
          "type": "uint256"
        }
      ],
      "payable": false,
      "stateMutability": "view",
      "type": "function"
    },
    {
      "inputs": [
        {
          "name": "_controller",
          "type": "address"
        },
        {
          "name": "_owner",
          "type": "address"
        },
        {
          "name": "_id",
          "type": "uint256"
        },
        {
          "name": "_name",
          "type": "string"
        },
        {
          "name": "_address",
          "type": "string"
        },
        {
          "name": "_contactNumber",
          "type": "string"
        }
      ],
      "payable": false,
      "stateMutability": "nonpayable",
      "type": "constructor"
    },
    {
      "payable": true,
      "stateMutability": "payable",
      "type": "fallback"
    },
    {
      "constant": true,
      "inputs": [],
      "name": "getMenuLength",
      "outputs": [
        {
          "name": "length",
          "type": "uint256"
        }
      ],
      "payable": false,
      "stateMutability": "view",
      "type": "function"
    },
    {
      "constant": false,
      "inputs": [
        {
          "name": "itemNames",
          "type": "bytes32[]"
        },
        {
          "name": "prices",
          "type": "uint256[]"
        }
      ],
      "name": "menuAddItems",
      "outputs": [],
      "payable": false,
      "stateMutability": "nonpayable",
      "type": "function"
    },
    {
      "constant": false,
      "inputs": [
        {
          "name": "itemIds",
          "type": "uint256[]"
        }
      ],
      "name": "menuRemoveItems",
      "outputs": [],
      "payable": false,
      "stateMutability": "nonpayable",
      "type": "function"
    },
    {
      "constant": true,
      "inputs": [
        {
          "name": "itemIds",
          "type": "uint256[]"
        }
      ],
      "name": "getOrderPrice",
      "outputs": [
        {
          "name": "",
          "type": "uint256"
        }
      ],
      "payable": false,
      "stateMutability": "view",
      "type": "function"
    },
    {
      "constant": false,
      "inputs": [
        {
          "name": "itemIds",
          "type": "uint256[]"
        },
        {
          "name": "deliveryFee",
          "type": "uint256"
        },
        {
          "name": "deliveryAddress",
          "type": "bytes32"
        }
      ],
      "name": "makeOrder",
      "outputs": [
        {
          "name": "orderAddress",
          "type": "address"
        }
      ],
      "payable": true,
      "stateMutability": "payable",
      "type": "function"
    },
    {
      "constant": true,
      "inputs": [
        {
          "name": "itemId",
          "type": "uint256"
        }
      ],
      "name": "getMenuItem",
      "outputs": [
        {
          "name": "itemname",
          "type": "bytes32"
        },
        {
          "name": "cost",
          "type": "uint256"
        }
      ],
      "payable": false,
      "stateMutability": "view",
      "type": "function"
    },
    {
      "constant": false,
      "inputs": [
        {
          "name": "orderID",
          "type": "uint256"
        },
        {
          "name": "status",
          "type": "uint256"
        }
      ],
      "name": "setStatus",
      "outputs": [],
      "payable": false,
      "stateMutability": "nonpayable",
      "type": "function"
    },
    {
      "constant": false,
      "inputs": [],
      "name": "pay",
      "outputs": [],
      "payable": true,
      "stateMutability": "payable",
      "type": "function"
    }
  ],
  "bytecode": "0x60806040523480156200001157600080fd5b506040516200339938038062003399833981018060405260c08110156200003757600080fd5b8101908080519060200190929190805190602001909291908051906020019092919080516401000000008111156200006e57600080fd5b828101905060208101848111156200008557600080fd5b8151856001820283011164010000000082111715620000a357600080fd5b50509291906020018051640100000000811115620000c057600080fd5b82810190506020810184811115620000d757600080fd5b8151856001820283011164010000000082111715620000f557600080fd5b505092919060200180516401000000008111156200011257600080fd5b828101905060208101848111156200012957600080fd5b81518560018202830111640100000000821117156200014757600080fd5b50509291905050508360008190555082600190805190602001906200016e92919062000280565b5081600290805190602001906200018792919062000280565b508060039080519060200190620001a092919062000280565b5060006008819055506000600a8190555085600660006101000a81548173ffffffffffffffffffffffffffffffffffffffff021916908373ffffffffffffffffffffffffffffffffffffffff16021790555084600560006101000a81548173ffffffffffffffffffffffffffffffffffffffff021916908373ffffffffffffffffffffffffffffffffffffffff16021790555033600760006101000a81548173ffffffffffffffffffffffffffffffffffffffff021916908373ffffffffffffffffffffffffffffffffffffffff1602179055505050505050506200032f565b828054600181600116156101000203166002900490600052602060002090601f016020900481019282601f10620002c357805160ff1916838001178555620002f4565b82800160010185558215620002f4579182015b82811115620002f3578251825591602001919060010190620002d6565b5b50905062000303919062000307565b5090565b6200032c91905b80821115620003285760008160009055506001016200030e565b5090565b90565b61305a806200033f6000396000f3fe60806040526004361062000127576000357c0100000000000000000000000000000000000000000000000000000000900463ffffffff16806306fdde031462000129578063125ba97714620001bf5780631b9265b814620001ed5780631d83440914620001f957806321be5e4e14620002275780633d939a4914620002b45780633e92c46814620002e25780634b24ea4714620003c7578063516f279e146200042157806366e1dfa314620004b757806368db65a4146200059757806376af633c14620005f157806380f474f6146200068757806382e4081314620006b55780638da5cb5b14620006fe578063a85c38ef1462000758578063af640d0f14620007e2578063cffb703c1462000810578063f943eecd146200086a578063f9a9525e14620008c4575b005b3480156200013657600080fd5b506200014162000997565b6040518080602001828103825283818151815260200191508051906020019080838360005b838110156200018357808201518184015260208101905062000166565b50505050905090810190601f168015620001b15780820380516001836020036101000a031916815260200191505b509250505060405180910390f35b348015620001cc57600080fd5b50620001d762000a39565b6040518082815260200191505060405180910390f35b620001f762000a43565b005b3480156200020657600080fd5b506200021162000abf565b6040518082815260200191505060405180910390f35b3480156200023457600080fd5b50620002b2600480360360208110156200024d57600080fd5b81019080803590602001906401000000008111156200026b57600080fd5b8201836020820111156200027e57600080fd5b80359060200191846020830284011164010000000083111715620002a157600080fd5b909192939192939050505062000ac5565b005b348015620002c157600080fd5b50620002cc62000c97565b6040518082815260200191505060405180910390f35b348015620002ef57600080fd5b50620003c5600480360360408110156200030857600080fd5b81019080803590602001906401000000008111156200032657600080fd5b8201836020820111156200033957600080fd5b803590602001918460208302840111640100000000831117156200035c57600080fd5b9091929391929390803590602001906401000000008111156200037e57600080fd5b8201836020820111156200039157600080fd5b80359060200191846020830284011164010000000083111715620003b457600080fd5b909192939192939050505062000c9d565b005b348015620003d457600080fd5b50620003df62000db3565b604051808273ffffffffffffffffffffffffffffffffffffffff1673ffffffffffffffffffffffffffffffffffffffff16815260200191505060405180910390f35b3480156200042e57600080fd5b506200043962000dd9565b6040518080602001828103825283818151815260200191508051906020019080838360005b838110156200047b5780820151818401526020810190506200045e565b50505050905090810190601f168015620004a95780820380516001836020036101000a031916815260200191505b509250505060405180910390f35b348015620004c457600080fd5b506200058160048036036020811015620004dd57600080fd5b8101908080359060200190640100000000811115620004fb57600080fd5b8201836020820111156200050e57600080fd5b803590602001918460208302840111640100000000831117156200053157600080fd5b919080806020026020016040519081016040528093929190818152602001838360200280828437600081840152601f19601f82011690508083019250505050505050919291929050505062000e7b565b6040518082815260200191505060405180910390f35b348015620005a457600080fd5b50620005af62000edd565b604051808273ffffffffffffffffffffffffffffffffffffffff1673ffffffffffffffffffffffffffffffffffffffff16815260200191505060405180910390f35b348015620005fe57600080fd5b506200060962000f03565b6040518080602001828103825283818151815260200191508051906020019080838360005b838110156200064b5780820151818401526020810190506200062e565b50505050905090810190601f168015620006795780820380516001836020036101000a031916815260200191505b509250505060405180910390f35b3480156200069457600080fd5b506200069f62000fa5565b6040518082815260200191505060405180910390f35b348015620006c257600080fd5b50620006fc60048036036040811015620006db57600080fd5b81019080803590602001909291908035906020019092919050505062000fab565b005b3480156200070b57600080fd5b5062000716620010cb565b604051808273ffffffffffffffffffffffffffffffffffffffff1673ffffffffffffffffffffffffffffffffffffffff16815260200191505060405180910390f35b3480156200076557600080fd5b5062000795600480360360208110156200077e57600080fd5b8101908080359060200190929190505050620010f1565b60405180831515151581526020018273ffffffffffffffffffffffffffffffffffffffff1673ffffffffffffffffffffffffffffffffffffffff1681526020019250505060405180910390f35b348015620007ef57600080fd5b50620007fa62001142565b6040518082815260200191505060405180910390f35b3480156200081d57600080fd5b506200084d600480360360208110156200083657600080fd5b810190808035906020019092919050505062001148565b604051808381526020018281526020019250505060405180910390f35b3480156200087757600080fd5b50620008a7600480360360208110156200089057600080fd5b81019080803590602001909291905050506200116c565b604051808381526020018281526020019250505060405180910390f35b6200095560048036036060811015620008dc57600080fd5b8101908080359060200190640100000000811115620008fa57600080fd5b8201836020820111156200090d57600080fd5b803590602001918460208302840111640100000000831117156200093057600080fd5b90919293919293908035906020019092919080359060200190929190505050620011a6565b604051808273ffffffffffffffffffffffffffffffffffffffff1673ffffffffffffffffffffffffffffffffffffffff16815260200191505060405180910390f35b60018054600181600116156101000203166002900480601f01602080910402602001604051908101604052809291908181526020018280546001816001161561010002031660029004801562000a315780601f1062000a055761010080835404028352916020019162000a31565b820191906000526020600020905b81548152906001019060200180831162000a1357829003601f168201915b505050505081565b6000600b54905090565b34600a60008282540192505081905550600560009054906101000a900473ffffffffffffffffffffffffffffffffffffffff1673ffffffffffffffffffffffffffffffffffffffff166108fc349081150290604051600060405180830381858888f1935050505015801562000abc573d6000803e3d6000fd5b50565b60085481565b600560009054906101000a900473ffffffffffffffffffffffffffffffffffffffff1673ffffffffffffffffffffffffffffffffffffffff163373ffffffffffffffffffffffffffffffffffffffff1614151562000b2257600080fd5b60008282905011151562000b3557600080fd5b600082829050600b5403905060608160405190808252806020026020018201604052801562000b735781602001602082028038833980820191505090505b509050600080905060008090505b600b5481101562000c135760006001905060008090505b8787905081101562000bd557878782818110151562000bb357fe5b9050602002013583141562000bc757600091505b808060010191505062000b98565b50801562000c045781848481518110151562000bed57fe5b906020019060200201818152505082806001019350505b50808060010191505062000b81565b5060008090505b825181101562000c8757600c6000848381518110151562000c3757fe5b906020019060200201518152602001908152602001600020600c60008381526020019081526020016000206000820154816000015560018201548160010155905050808060010191505062000c1a565b508151600b819055505050505050565b600b5481565b600560009054906101000a900473ffffffffffffffffffffffffffffffffffffffff1673ffffffffffffffffffffffffffffffffffffffff163373ffffffffffffffffffffffffffffffffffffffff1614151562000cfa57600080fd5b818190508484905014151562000d0f57600080fd5b60008090505b8484905081101562000dac576040805190810160405280868684818110151562000d3b57fe5b905060200201358152602001848484818110151562000d5657fe5b90506020020135815250600c6000600b5481526020019081526020016000206000820151816000015560208201518160010155905050600b60008154809291906001019190505550808060010191505062000d15565b5050505050565b600660009054906101000a900473ffffffffffffffffffffffffffffffffffffffff1681565b60028054600181600116156101000203166002900480601f01602080910402602001604051908101604052809291908181526020018280546001816001161561010002031660029004801562000e735780601f1062000e475761010080835404028352916020019162000e73565b820191906000526020600020905b81548152906001019060200180831162000e5557829003601f168201915b505050505081565b6000806000905060008090505b835181101562000ed357600c6000858381518110151562000ea557fe5b9060200190602002015181526020019081526020016000206001015482019150808060010191505062000e88565b5080915050919050565b600760009054906101000a900473ffffffffffffffffffffffffffffffffffffffff1681565b60038054600181600116156101000203166002900480601f01602080910402602001604051908101604052809291908181526020018280546001816001161561010002031660029004801562000f9d5780601f1062000f715761010080835404028352916020019162000f9d565b820191906000526020600020905b81548152906001019060200180831162000f7f57829003601f168201915b505050505081565b60045481565b600560009054906101000a900473ffffffffffffffffffffffffffffffffffffffff1673ffffffffffffffffffffffffffffffffffffffff163373ffffffffffffffffffffffffffffffffffffffff161415156200100857600080fd5b6009600083815260200190815260200160002060000160019054906101000a900473ffffffffffffffffffffffffffffffffffffffff1673ffffffffffffffffffffffffffffffffffffffff1663e9132c42826040518263ffffffff167c010000000000000000000000000000000000000000000000000000000002815260040180828152602001915050600060405180830381600087803b158015620010ae57600080fd5b505af1158015620010c3573d6000803e3d6000fd5b505050505050565b600560009054906101000a900473ffffffffffffffffffffffffffffffffffffffff1681565b60096020528060005260406000206000915090508060000160009054906101000a900460ff16908060000160019054906101000a900473ffffffffffffffffffffffffffffffffffffffff16905082565b60005481565b600c6020528060005260406000206000915090508060000154908060010154905082565b600080600c600084815260200190815260200160002060000154600c60008581526020019081526020016000206001015491509150915091565b6000600660009054906101000a900473ffffffffffffffffffffffffffffffffffffffff1673ffffffffffffffffffffffffffffffffffffffff16636455e5ac6040518163ffffffff167c010000000000000000000000000000000000000000000000000000000002815260040160206040518083038186803b1580156200122d57600080fd5b505afa15801562001242573d6000803e3d6000fd5b505050506040513d60208110156200125957600080fd5b810190808051906020019092919050505073ffffffffffffffffffffffffffffffffffffffff1663689b0098336040518263ffffffff167c0100000000000000000000000000000000000000000000000000000000028152600401808273ffffffffffffffffffffffffffffffffffffffff1673ffffffffffffffffffffffffffffffffffffffff16815260200191505060206040518083038186803b1580156200130357600080fd5b505afa15801562001318573d6000803e3d6000fd5b505050506040513d60208110156200132f57600080fd5b81019080805190602001909291905050501515620013b5576040517f08c379a00000000000000000000000000000000000000000000000000000000081526004018080602001828103825260158152602001807f437573746f6d657220646f65736e74206578697374000000000000000000000081525060200191505060405180910390fd5b606085859050604051908082528060200260200182016040528015620013ea5781602001602082028038833980820191505090505b509050606086869050604051908082528060200260200182016040528015620014225781602001602082028038833980820191505090505b50905060008090505b878790508110156200158e57600088888381811015156200144857fe5b9050602002013510158015620014745750600b5488888381811015156200146b57fe5b90506020020135105b156200151257600c600089898481811015156200148d57fe5b905060200201358152602001908152602001600020600001548282815181101515620014b557fe5b9060200190602002018181525050600c60008989848181101515620014d657fe5b905060200201358152602001908152602001600020600101548382815181101515620014fe57fe5b906020019060200201818152505062001580565b6040517f08c379a000000000000000000000000000000000000000000000000000000000815260040180806020018281038252600d8152602001807f496e76616c6964204974656d730000000000000000000000000000000000000081525060200191505060405180910390fd5b80806001019150506200142b565b5060003460085483858989600660009054906101000a900473ffffffffffffffffffffffffffffffffffffffff1633620015c762001802565b8088815260200180602001806020018781526020018681526020018573ffffffffffffffffffffffffffffffffffffffff1673ffffffffffffffffffffffffffffffffffffffff1681526020018473ffffffffffffffffffffffffffffffffffffffff1673ffffffffffffffffffffffffffffffffffffffff168152602001838103835289818151815260200191508051906020019060200280838360005b838110156200168357808201518184015260208101905062001666565b50505050905001838103825288818151815260200191508051906020019060200280838360005b83811015620016c7578082015181840152602081019050620016aa565b5050505090500199505050505050505050506040518091039082f080158015620016f5573d6000803e3d6000fd5b509050905060408051908101604052806001151581526020018273ffffffffffffffffffffffffffffffffffffffff1681525060096000600854815260200190815260200160002060008201518160000160006101000a81548160ff02191690831515021790555060208201518160000160016101000a81548173ffffffffffffffffffffffffffffffffffffffff021916908373ffffffffffffffffffffffffffffffffffffffff16021790555090505060086000815480929190600101919050555060096000600160085403815260200190815260200160002060000160019054906101000a900473ffffffffffffffffffffffffffffffffffffffff169350505050949350505050565b60405161181b80620018148339019056fe60806040526000600460006101000a81548160ff0219169083151502179055506000600460016101000a81548160ff0219169083151502179055506040516200181b3803806200181b833981018060405260e08110156200005f57600080fd5b810190808051906020019092919080516401000000008111156200008257600080fd5b828101905060208101848111156200009957600080fd5b8151856020820283011164010000000082111715620000b757600080fd5b50509291906020018051640100000000811115620000d457600080fd5b82810190506020810184811115620000eb57600080fd5b81518560208202830111640100000000821117156200010957600080fd5b5050929190602001805190602001909291908051906020019092919080519060200190929190805190602001909291905050508173ffffffffffffffffffffffffffffffffffffffff166368db65a46040518163ffffffff167c010000000000000000000000000000000000000000000000000000000002815260040160206040518083038186803b1580156200019f57600080fd5b505afa158015620001b4573d6000803e3d6000fd5b505050506040513d6020811015620001cb57600080fd5b810190808051906020019092919050505073ffffffffffffffffffffffffffffffffffffffff166379a4fa27336040518263ffffffff167c0100000000000000000000000000000000000000000000000000000000028152600401808273ffffffffffffffffffffffffffffffffffffffff1673ffffffffffffffffffffffffffffffffffffffff16815260200191505060206040518083038186803b1580156200027557600080fd5b505afa1580156200028a573d6000803e3d6000fd5b505050506040513d6020811015620002a157600080fd5b810190808051906020019092919050505015156200034d576040517f08c379a000000000000000000000000000000000000000000000000000000000815260040180806020018281038252603d8152602001807f617474656d7074656420746f206d616b65206f726465722066726f6d2061646481526020017f726573732074686174206973206e6f7420612072657374617572616e7400000081525060400191505060405180910390fd5b84518651141515620003ed576040517f08c379a00000000000000000000000000000000000000000000000000000000081526004018080602001828103825260238152602001807f696e76616c6964206d61746368696e67206f66206974656d7320746f2070726981526020017f636573000000000000000000000000000000000000000000000000000000000081525060400191505060405180910390fd5b8660038190555033600460026101000a81548173ffffffffffffffffffffffffffffffffffffffff021916908373ffffffffffffffffffffffffffffffffffffffff16021790555080600660006101000a81548173ffffffffffffffffffffffffffffffffffffffff021916908373ffffffffffffffffffffffffffffffffffffffff160217905550826008819055504260098190555081600760006101000a81548173ffffffffffffffffffffffffffffffffffffffff021916908373ffffffffffffffffffffffffffffffffffffffff1602179055506000600a819055506000600d8190555060008090505b86518110156200059e5760408051908101604052808883815181101515620004ff57fe5b90602001906020020151815260200187838151811015156200051d57fe5b90602001906020020151815250600e6000600d548152602001908152602001600020600082015181600001556020820151816001015590505085818151811015156200056557fe5b90602001906020020151600a60008282540192505081905550600d600081548092919060010191905055508080600101915050620004db565b5083600b81905550600b54600a540134101515156200064b576040517f08c379a00000000000000000000000000000000000000000000000000000000081526004018080602001828103825260238152602001807f6e6f7420656e6f7567682065746865722073656e7420746f20746865206f726481526020017f657220000000000000000000000000000000000000000000000000000000000081525060400191505060405180910390fd5b600160028111156200065957fe5b600281905550600060038111156200066d57fe5b600081905550600060038111156200068157fe5b6001819055505050505050505061117d806200069e6000396000f3fe608060405260043610610107576000357c0100000000000000000000000000000000000000000000000000000000900463ffffffff16806312065fe01461010c5780632799276d146101375780633129e7731461016257806332940816146101b85780633733d9f5146101e35780633e3ca4d31461020e57806353c0a006146102395780637aada1341461029057806397167804146102bb5780639837d699146102f6578063a14b7e681461030d578063af640d0f14610338578063bd3e19d414610363578063bfb231d21461038e578063c7529f0c146103e4578063e9132c42146103ee578063ed1680581461041c578063f3cc0f1f14610473578063fc6f78a01461049e575b600080fd5b34801561011857600080fd5b506101216104c9565b6040518082815260200191505060405180910390f35b34801561014357600080fd5b5061014c6104e8565b6040518082815260200191505060405180910390f35b34801561016e57600080fd5b5061019b6004803603602081101561018557600080fd5b81019080803590602001909291905050506104ee565b604051808381526020018281526020019250505060405180910390f35b3480156101c457600080fd5b506101cd610528565b6040518082815260200191505060405180910390f35b3480156101ef57600080fd5b506101f861052e565b6040518082815260200191505060405180910390f35b34801561021a57600080fd5b50610223610644565b6040518082815260200191505060405180910390f35b34801561024557600080fd5b5061024e61064a565b604051808273ffffffffffffffffffffffffffffffffffffffff1673ffffffffffffffffffffffffffffffffffffffff16815260200191505060405180910390f35b34801561029c57600080fd5b506102a5610670565b6040518082815260200191505060405180910390f35b3480156102c757600080fd5b506102f4600480360360208110156102de57600080fd5b8101908080359060200190929190505050610676565b005b34801561030257600080fd5b5061030b610680565b005b34801561031957600080fd5b50610322610682565b6040518082815260200191505060405180910390f35b34801561034457600080fd5b5061034d610688565b6040518082815260200191505060405180910390f35b34801561036f57600080fd5b5061037861068e565b6040518082815260200191505060405180910390f35b34801561039a57600080fd5b506103c7600480360360208110156103b157600080fd5b8101908080359060200190929190505050610698565b604051808381526020018281526020019250505060405180910390f35b6103ec6106bc565b005b61041a6004803603602081101561040457600080fd5b81019080803590602001909291905050506108c0565b005b34801561042857600080fd5b5061043161111f565b604051808273ffffffffffffffffffffffffffffffffffffffff1673ffffffffffffffffffffffffffffffffffffffff16815260200191505060405180910390f35b34801561047f57600080fd5b50610488611145565b6040518082815260200191505060405180910390f35b3480156104aa57600080fd5b506104b361114b565b6040518082815260200191505060405180910390f35b60003073ffffffffffffffffffffffffffffffffffffffff1631905090565b600d5481565b600080600e600084815260200190815260200160002060000154600e60008581526020019081526020016000206001015491509150915091565b60015481565b60003373ffffffffffffffffffffffffffffffffffffffff16600660009054906101000a900473ffffffffffffffffffffffffffffffffffffffff1673ffffffffffffffffffffffffffffffffffffffff1614806105d957503373ffffffffffffffffffffffffffffffffffffffff16600460029054906101000a900473ffffffffffffffffffffffffffffffffffffffff1673ffffffffffffffffffffffffffffffffffffffff16145b8061063157503373ffffffffffffffffffffffffffffffffffffffff16600560009054906101000a900473ffffffffffffffffffffffffffffffffffffffff1673ffffffffffffffffffffffffffffffffffffffff16145b151561063c57600080fd5b600854905090565b60005481565b600560009054906101000a900473ffffffffffffffffffffffffffffffffffffffff1681565b60095481565b80600c8190555050565b565b60025481565b60035481565b6000600a54905090565b600e6020528060005260406000206000915090508060000154908060010154905082565b600760009054906101000a900473ffffffffffffffffffffffffffffffffffffffff1673ffffffffffffffffffffffffffffffffffffffff1663c9286d576040518163ffffffff167c010000000000000000000000000000000000000000000000000000000002815260040160206040518083038186803b15801561074057600080fd5b505afa158015610754573d6000803e3d6000fd5b505050506040513d602081101561076a57600080fd5b810190808051906020019092919050505073ffffffffffffffffffffffffffffffffffffffff166313952670336040518263ffffffff167c0100000000000000000000000000000000000000000000000000000000028152600401808273ffffffffffffffffffffffffffffffffffffffff1673ffffffffffffffffffffffffffffffffffffffff16815260200191505060206040518083038186803b15801561081357600080fd5b505afa158015610827573d6000803e3d6000fd5b505050506040513d602081101561083d57600080fd5b8101908080519060200190929190505050151561085957600080fd5b600a54341015151561086a57600080fd5b6001600381111561087757fe5b60008190555033600560006101000a81548173ffffffffffffffffffffffffffffffffffffffff021916908373ffffffffffffffffffffffffffffffffffffffff160217905550565b600560009054906101000a900473ffffffffffffffffffffffffffffffffffffffff1673ffffffffffffffffffffffffffffffffffffffff163373ffffffffffffffffffffffffffffffffffffffff1614806109695750600460029054906101000a900473ffffffffffffffffffffffffffffffffffffffff1673ffffffffffffffffffffffffffffffffffffffff163373ffffffffffffffffffffffffffffffffffffffff16145b806109c15750600660009054906101000a900473ffffffffffffffffffffffffffffffffffffffff1673ffffffffffffffffffffffffffffffffffffffff163373ffffffffffffffffffffffffffffffffffffffff16145b1515610a81576040517f08c379a00000000000000000000000000000000000000000000000000000000081526004018080602001828103825260508152602001807f596f7520646f6e742068617665207065726d697373696f6e20746f207365652081526020017f74686973206f726465722c2064696420796f752067657420746865206f72646581526020017f7220616464726573732077726f6e673f0000000000000000000000000000000081525060600191505060405180910390fd5b600560009054906101000a900473ffffffffffffffffffffffffffffffffffffffff1673ffffffffffffffffffffffffffffffffffffffff163373ffffffffffffffffffffffffffffffffffffffff161415610be15760005481111515610b50576040517f08c379a000000000000000000000000000000000000000000000000000000000815260040180806020018281038252601c8152602001807f7374617475732063616e6e6f74206265206261636b747261636b65640000000081525060200191505060405180910390fd5b60038111158015610b615750600081115b1515610bd5576040517f08c379a00000000000000000000000000000000000000000000000000000000081526004018080602001828103825260168152602001807f676976656e20537461747573206e6f742076616c69640000000000000000000081525060200191505060405180910390fd5b80600081905550610f37565b600460029054906101000a900473ffffffffffffffffffffffffffffffffffffffff1673ffffffffffffffffffffffffffffffffffffffff163373ffffffffffffffffffffffffffffffffffffffff161415610d415760015481111515610cb0576040517f08c379a000000000000000000000000000000000000000000000000000000000815260040180806020018281038252601c8152602001807f7374617475732063616e6e6f74206265206261636b747261636b65640000000081525060200191505060405180910390fd5b60038111158015610cc15750600081115b1515610d35576040517f08c379a00000000000000000000000000000000000000000000000000000000081526004018080602001828103825260168152602001807f676976656e20537461747573206e6f742076616c69640000000000000000000081525060200191505060405180910390fd5b80600181905550610f36565b600660009054906101000a900473ffffffffffffffffffffffffffffffffffffffff1673ffffffffffffffffffffffffffffffffffffffff163373ffffffffffffffffffffffffffffffffffffffff161415610ea15760025481111515610e10576040517f08c379a000000000000000000000000000000000000000000000000000000000815260040180806020018281038252601c8152602001807f7374617475732063616e6e6f74206265206261636b747261636b65640000000081525060200191505060405180910390fd5b60028111158015610e215750600081115b1515610e95576040517f08c379a00000000000000000000000000000000000000000000000000000000081526004018080602001828103825260168152602001807f676976656e20537461747573206e6f742076616c69640000000000000000000081525060200191505060405180910390fd5b80600281905550610f35565b6040517f08c379a00000000000000000000000000000000000000000000000000000000081526004018080602001828103825260358152602001807f4572726f723a20756e617574686f72697365726420616464726573732061636381526020017f657373696e67207365744f72646572537461747573000000000000000000000081525060400191505060405180910390fd5b5b5b600460009054906101000a900460ff16158015610f575750600260005410155b8015610f665750600360015410155b1561102857600460029054906101000a900473ffffffffffffffffffffffffffffffffffffffff1673ffffffffffffffffffffffffffffffffffffffff16631b9265b8600a546040518263ffffffff167c01000000000000000000000000000000000000000000000000000000000281526004016000604051808303818588803b158015610ff357600080fd5b505af1158015611007573d6000803e3d6000fd5b50505050506001600460006101000a81548160ff0219169083151502179055505b600460019054906101000a900460ff161580156110485750600360005410155b801561105657506002805410155b1561111c57600560009054906101000a900473ffffffffffffffffffffffffffffffffffffffff1673ffffffffffffffffffffffffffffffffffffffff16631b9265b8600b54600a54016040518263ffffffff167c01000000000000000000000000000000000000000000000000000000000281526004016000604051808303818588803b1580156110e757600080fd5b505af11580156110fb573d6000803e3d6000fd5b50505050506001600460016101000a81548160ff0219169083151502179055505b50565b600460029054906101000a900473ffffffffffffffffffffffffffffffffffffffff1681565b600b5481565b600c548156fea165627a7a723058203752d926d4c69e2148fadd760ab695f4169d4a9feabd89d026fcb2c8687be3d50029a165627a7a7230582010644e5c62afdd2918fc615a448e43977de506ff8b3d9258d095d7efc493bf330029",
  "source": "pragma solidity ^0.5.0;\n\n //import \"./lib.sol\";\n import \"./Order.sol\";\n import \"./RestaurantFactory.sol\";\n import \"./CustomerFactory.sol\";\n import \"./Controller.sol\";\n\ncontract Restaurant {\n\n    //using lib for bytes32;\n\n\tuint public id;\n\tstring public name;\n\tstring public location;\n\tstring public contactNumber;\n\tuint public rating;\n\n\taddress payable public owner;\n    address public controllerAddress;\n\taddress public restaurantFactoryAddress;\n\n\n    struct order{bool open; address orderAddress;}\n\tuint public totalOrders;\n\tmapping(uint => order) public orders; // must be a better way to store the orders\n\n    uint totalPay;\n\t\n\tstruct Item{\n\t\tbytes32 itemName;\n\t\tuint itemCost; // in wei (10^-18 Eth)\n\t}\n\t\n    uint public menuLength;\n\tmapping(uint => Item) public menu; // should probably change this to a mapping\n\n    enum restaurantState{acceptedOrder, preparingCargo, readyForCollection, HandedOver}\n\t\n\n\tconstructor(address _controller, address payable _owner, uint _id, string memory _name,string memory _address,string memory _contactNumber) public {\n\t\tid = _id;\n\t\tname = _name;\n\t\tlocation = _address;\n\t\tcontactNumber = _contactNumber;\n\t\ttotalOrders = 0;\n        totalPay = 0;\n\n        controllerAddress = _controller;\n\t\towner = _owner;\n\t\trestaurantFactoryAddress = msg.sender;\n\t}\n\n    // ToDo Remove this\n    function getMenuLength() external view returns(uint length){\n        return menuLength;\n    }\n\n    // todo redo this \n    // function clearMenu() external {\n    //     require(msg.sender == owner);\n    //     delete menu;\n    // }\n    \n\n    function menuAddItems(bytes32[] calldata itemNames, uint[] calldata prices) external {\n        require(msg.sender == owner);\n        require(itemNames.length == prices.length);\n        \n        // should add checks that an item isn't added twice\n        for(uint i = 0; i<itemNames.length;i++){\n            menu[menuLength] = Item(itemNames[i],prices[i]);\n            menuLength++;\n        }\n    }\n\n    \n    \n    function menuRemoveItems(uint[] calldata itemIds) external{\n        require(msg.sender == owner);\n        require(itemIds.length>0);\n\n        uint totalItemsToKeep = menuLength - uint(itemIds.length);\n\n        uint[] memory itemsToKeep = new uint[](totalItemsToKeep);\n        uint counter = 0;\n        for(uint i = 0; i<menuLength;i++){\n            bool idUndeleted = true;\n            for(uint j = 0; j < itemIds.length; j++){\n                if(i == itemIds[j]){\n                    idUndeleted = false;\n                }\n            }\n            if(idUndeleted){\n                itemsToKeep[counter] = i;\n                counter++;\n            }\n        }\n\n        for(uint i = 0; i < itemsToKeep.length; i++){\n            menu[i] = menu[itemsToKeep[i]];\n        }\n        menuLength = itemsToKeep.length;\n    }\n    \n    // function menuSearch(string memory query) private view returns(int index){\n    //     for(uint i = 0; i<menuLength;i++){\n    //         if(lib.compareStrings(lib.bytes32ToString(menu[i].itemName),query)){\n    //             return int(i);\n    //         }\n    //     }\n    //     return -1;\n    // }\n\n    function getOrderPrice(uint[] memory itemIds) public view returns (uint){\n        uint price = 0;\n        for(uint i = 0; i < itemIds.length; i++){\n            price += menu[itemIds[i]].itemCost;\n        }\n        return price;\n    }\n    \n\n    function makeOrder(uint[] calldata itemIds, uint deliveryFee, bytes32 deliveryAddress) external payable returns (address orderAddress) {\n        //require this comes from a customer smart contract, maybe worth moving this to the order smart contract\n        require(CustomerFactory(Controller(controllerAddress).customerFactoryAddress()).customerExists(msg.sender), \"Customer doesnt exist\");\n\n        uint[] memory prices = new uint[](itemIds.length);\n        bytes32[] memory items = new bytes32[](itemIds.length);\n        for(uint i = 0; i < itemIds.length; i++)\n        {\n            if (itemIds[i] >= 0 && itemIds[i] < menuLength){\n                // could consider sending itemID and price to reduce gas cost\n                items[i] = menu[uint(itemIds[i])].itemName; \n                prices[i] = menu[uint(itemIds[i])].itemCost;\n            }\n            else{\n                revert(\"Invalid Items\");\n            }\n        }\n        \n\t\tOrder newOrder = (new Order).value(msg.value)(totalOrders,items,prices,deliveryFee, deliveryAddress,controllerAddress, msg.sender);\n\t\torders[totalOrders] = order(true,address(newOrder));\n        totalOrders ++;\n\t\treturn orders[totalOrders - 1].orderAddress;       \n    }\n    \n    function getMenuItem(uint itemId)public view returns(bytes32 itemname, uint cost){\n        return (menu[itemId].itemName,menu[itemId].itemCost);\n    }\n\n    function setStatus(uint orderID, uint status) public{\n        require(msg.sender == owner);\n        Order(orders[orderID].orderAddress).setOrderStatus(status);\n    }\n\n    function pay() external payable {\n        totalPay += msg.value;\n        owner.transfer(msg.value);\n    } \n\n    function() external payable {\n\n    }\n}",
  "sourcePath": "/home/george/Documents/University/Dissertation/TryAByte/contracts/Restaurant.sol",
  "compiler": {
    "name": "solc",
    "version": "0.5.0+commit.1d4f565a.Emscripten.clang"
  },
  "schemaVersion": "3.0.6",
  "updatedAt": "2019-04-05T19:06:04.154Z",
  "devdoc": {
    "methods": {}
  },
  "userdoc": {
    "methods": {}
  }
}