{
  "contractName": "Restaurant",
  "abi": [
    {
      "constant": true,
      "inputs": [],
      "name": "name",
      "outputs": [
        {
          "name": "",
          "type": "bytes32"
        }
      ],
      "payable": false,
      "stateMutability": "view",
      "type": "function"
    },
    {
      "constant": true,
      "inputs": [],
      "name": "totalOrders",
      "outputs": [
        {
          "name": "",
          "type": "uint256"
        }
      ],
      "payable": false,
      "stateMutability": "view",
      "type": "function"
    },
    {
      "constant": true,
      "inputs": [],
      "name": "menuLength",
      "outputs": [
        {
          "name": "",
          "type": "uint256"
        }
      ],
      "payable": false,
      "stateMutability": "view",
      "type": "function"
    },
    {
      "constant": true,
      "inputs": [],
      "name": "controllerAddress",
      "outputs": [
        {
          "name": "",
          "type": "address"
        }
      ],
      "payable": false,
      "stateMutability": "view",
      "type": "function"
    },
    {
      "constant": true,
      "inputs": [],
      "name": "latitude",
      "outputs": [
        {
          "name": "",
          "type": "uint256"
        }
      ],
      "payable": false,
      "stateMutability": "view",
      "type": "function"
    },
    {
      "constant": true,
      "inputs": [],
      "name": "location",
      "outputs": [
        {
          "name": "",
          "type": "bytes"
        }
      ],
      "payable": false,
      "stateMutability": "view",
      "type": "function"
    },
    {
      "constant": true,
      "inputs": [],
      "name": "longitude",
      "outputs": [
        {
          "name": "",
          "type": "uint256"
        }
      ],
      "payable": false,
      "stateMutability": "view",
      "type": "function"
    },
    {
      "constant": true,
      "inputs": [],
      "name": "restaurantFactoryAddress",
      "outputs": [
        {
          "name": "",
          "type": "address"
        }
      ],
      "payable": false,
      "stateMutability": "view",
      "type": "function"
    },
    {
      "constant": true,
      "inputs": [],
      "name": "logoURI",
      "outputs": [
        {
          "name": "",
          "type": "bytes"
        }
      ],
      "payable": false,
      "stateMutability": "view",
      "type": "function"
    },
    {
      "constant": true,
      "inputs": [],
      "name": "contactNumber",
      "outputs": [
        {
          "name": "",
          "type": "bytes32"
        }
      ],
      "payable": false,
      "stateMutability": "view",
      "type": "function"
    },
    {
      "constant": true,
      "inputs": [],
      "name": "owner",
      "outputs": [
        {
          "name": "",
          "type": "address"
        }
      ],
      "payable": false,
      "stateMutability": "view",
      "type": "function"
    },
    {
      "constant": true,
      "inputs": [
        {
          "name": "",
          "type": "uint256"
        }
      ],
      "name": "orders",
      "outputs": [
        {
          "name": "open",
          "type": "bool"
        },
        {
          "name": "orderAddress",
          "type": "address"
        }
      ],
      "payable": false,
      "stateMutability": "view",
      "type": "function"
    },
    {
      "constant": true,
      "inputs": [],
      "name": "id",
      "outputs": [
        {
          "name": "",
          "type": "uint256"
        }
      ],
      "payable": false,
      "stateMutability": "view",
      "type": "function"
    },
    {
      "constant": true,
      "inputs": [
        {
          "name": "",
          "type": "uint256"
        }
      ],
      "name": "menu",
      "outputs": [
        {
          "name": "itemName",
          "type": "bytes32"
        },
        {
          "name": "description",
          "type": "bytes32"
        },
        {
          "name": "optionsCount",
          "type": "uint256"
        }
      ],
      "payable": false,
      "stateMutability": "view",
      "type": "function"
    },
    {
      "constant": true,
      "inputs": [],
      "name": "logoHash",
      "outputs": [
        {
          "name": "",
          "type": "bytes32"
        }
      ],
      "payable": false,
      "stateMutability": "view",
      "type": "function"
    },
    {
      "inputs": [
        {
          "name": "_controller",
          "type": "address"
        },
        {
          "name": "_owner",
          "type": "address"
        },
        {
          "name": "_id",
          "type": "uint256"
        },
        {
          "name": "_name",
          "type": "bytes32"
        },
        {
          "name": "_address",
          "type": "bytes"
        },
        {
          "name": "_latitude",
          "type": "uint256"
        },
        {
          "name": "_longitude",
          "type": "uint256"
        },
        {
          "name": "_contactNumber",
          "type": "bytes32"
        }
      ],
      "payable": false,
      "stateMutability": "nonpayable",
      "type": "constructor"
    },
    {
      "payable": true,
      "stateMutability": "payable",
      "type": "fallback"
    },
    {
      "anonymous": false,
      "inputs": [
        {
          "indexed": false,
          "name": "orderAddress",
          "type": "address"
        }
      ],
      "name": "OrderMadeEvent",
      "type": "event"
    },
    {
      "anonymous": false,
      "inputs": [],
      "name": "MenuUpdated",
      "type": "event"
    },
    {
      "constant": true,
      "inputs": [
        {
          "name": "index",
          "type": "uint256"
        }
      ],
      "name": "getMenuItem",
      "outputs": [
        {
          "name": "itemName",
          "type": "bytes32"
        },
        {
          "name": "itemDescription",
          "type": "bytes32"
        },
        {
          "name": "optionNames",
          "type": "bytes32[]"
        },
        {
          "name": "optionPrices",
          "type": "uint256[]"
        },
        {
          "name": "optionsCount",
          "type": "uint256"
        }
      ],
      "payable": false,
      "stateMutability": "view",
      "type": "function"
    },
    {
      "constant": false,
      "inputs": [
        {
          "name": "imageURI",
          "type": "bytes"
        },
        {
          "name": "imageHash",
          "type": "bytes32"
        }
      ],
      "name": "updateLogo",
      "outputs": [],
      "payable": false,
      "stateMutability": "nonpayable",
      "type": "function"
    },
    {
      "constant": true,
      "inputs": [],
      "name": "getMenuLength",
      "outputs": [
        {
          "name": "length",
          "type": "uint256"
        }
      ],
      "payable": false,
      "stateMutability": "view",
      "type": "function"
    },
    {
      "constant": false,
      "inputs": [
        {
          "name": "itemNames",
          "type": "bytes32[]"
        },
        {
          "name": "itemDescriptions",
          "type": "bytes32[]"
        },
        {
          "name": "_optionNames",
          "type": "bytes32[]"
        },
        {
          "name": "_prices",
          "type": "uint256[]"
        },
        {
          "name": "optionFlags",
          "type": "uint256[]"
        },
        {
          "name": "itemsToRemove",
          "type": "uint256[]"
        },
        {
          "name": "optionsToRemove",
          "type": "uint256[]"
        },
        {
          "name": "optionsToRemoveFlags",
          "type": "uint256[]"
        },
        {
          "name": "itemIds",
          "type": "uint256[]"
        },
        {
          "name": "_addOptionNames",
          "type": "bytes32[]"
        },
        {
          "name": "_addPrices",
          "type": "uint256[]"
        },
        {
          "name": "addOptionFlags",
          "type": "uint256[]"
        }
      ],
      "name": "updateMenu",
      "outputs": [],
      "payable": false,
      "stateMutability": "nonpayable",
      "type": "function"
    },
    {
      "constant": false,
      "inputs": [
        {
          "name": "itemsToRemove",
          "type": "uint256[]"
        },
        {
          "name": "optionsToRemove",
          "type": "uint256[]"
        },
        {
          "name": "optionsToRemoveFlags",
          "type": "uint256[]"
        }
      ],
      "name": "menuRemoveItems",
      "outputs": [
        {
          "name": "",
          "type": "uint256"
        }
      ],
      "payable": false,
      "stateMutability": "nonpayable",
      "type": "function"
    },
    {
      "constant": false,
      "inputs": [
        {
          "name": "itemNames",
          "type": "bytes32[]"
        },
        {
          "name": "itemDescriptions",
          "type": "bytes32[]"
        },
        {
          "name": "_optionNames",
          "type": "bytes32[]"
        },
        {
          "name": "_prices",
          "type": "uint256[]"
        },
        {
          "name": "optionFlags",
          "type": "uint256[]"
        }
      ],
      "name": "menuAddItems",
      "outputs": [
        {
          "name": "orderAddress",
          "type": "address"
        }
      ],
      "payable": false,
      "stateMutability": "nonpayable",
      "type": "function"
    },
    {
      "constant": false,
      "inputs": [
        {
          "name": "itemIds",
          "type": "uint256[]"
        },
        {
          "name": "_optionNames",
          "type": "bytes32[]"
        },
        {
          "name": "_prices",
          "type": "uint256[]"
        },
        {
          "name": "optionFlags",
          "type": "uint256[]"
        }
      ],
      "name": "menuAddOptions",
      "outputs": [
        {
          "name": "",
          "type": "uint256"
        }
      ],
      "payable": false,
      "stateMutability": "nonpayable",
      "type": "function"
    },
    {
      "constant": true,
      "inputs": [
        {
          "name": "itemIds",
          "type": "uint256[]"
        },
        {
          "name": "deliveryFee",
          "type": "uint256"
        },
        {
          "name": "riderKeyHash",
          "type": "bytes32"
        }
      ],
      "name": "getOrderPrice",
      "outputs": [
        {
          "name": "",
          "type": "uint256"
        }
      ],
      "payable": false,
      "stateMutability": "view",
      "type": "function"
    },
    {
      "constant": false,
      "inputs": [
        {
          "name": "itemIds",
          "type": "uint256[]"
        },
        {
          "name": "deliveryFee",
          "type": "uint256"
        },
        {
          "name": "riderKeyHash",
          "type": "bytes32"
        },
        {
          "name": "_location",
          "type": "bytes"
        },
        {
          "name": "_latitude",
          "type": "uint256"
        },
        {
          "name": "_longitude",
          "type": "uint256"
        },
        {
          "name": "_logoURI",
          "type": "bytes"
        },
        {
          "name": "_logoHash",
          "type": "bytes32"
        }
      ],
      "name": "makeOrder",
      "outputs": [
        {
          "name": "orderAddress",
          "type": "address"
        }
      ],
      "payable": true,
      "stateMutability": "payable",
      "type": "function"
    },
    {
      "constant": false,
      "inputs": [
        {
          "name": "orderAddress",
          "type": "address"
        },
        {
          "name": "status",
          "type": "uint256"
        }
      ],
      "name": "setStatus",
      "outputs": [],
      "payable": false,
      "stateMutability": "nonpayable",
      "type": "function"
    },
    {
      "constant": false,
      "inputs": [
        {
          "name": "_name",
          "type": "bytes32"
        },
        {
          "name": "_number",
          "type": "bytes32"
        },
        {
          "name": "_owner",
          "type": "address"
        },
        {
          "name": "_location",
          "type": "bytes"
        },
        {
          "name": "_latitude",
          "type": "uint256"
        },
        {
          "name": "_longitude",
          "type": "uint256"
        },
        {
          "name": "_logoURI",
          "type": "bytes"
        },
        {
          "name": "_logoHash",
          "type": "bytes32"
        }
      ],
      "name": "pay",
      "outputs": [],
      "payable": true,
      "stateMutability": "payable",
      "type": "function"
    },
    {
      "constant": false,
      "inputs": [
        {
          "name": "_name",
          "type": "bytes32"
        },
        {
          "name": "_number",
          "type": "bytes32"
        },
        {
          "name": "_owner",
          "type": "address"
        },
        {
          "name": "_location",
          "type": "bytes"
        },
        {
          "name": "_latitude",
          "type": "uint256"
        },
        {
          "name": "_longitude",
          "type": "uint256"
        },
        {
          "name": "_logoURI",
          "type": "bytes"
        },
        {
          "name": "_logoHash",
          "type": "bytes32"
        }
      ],
      "name": "updateRestaurant",
      "outputs": [],
      "payable": false,
      "stateMutability": "nonpayable",
      "type": "function"
    },
    {
      "constant": false,
      "inputs": [
        {
          "name": "_name",
          "type": "bytes32"
        },
        {
          "name": "_latitude",
          "type": "uint256"
        },
        {
          "name": "_longitude",
          "type": "uint256"
        }
      ],
      "name": "setName",
      "outputs": [],
      "payable": false,
      "stateMutability": "nonpayable",
      "type": "function"
    },
    {
      "constant": false,
      "inputs": [
        {
          "name": "_number",
          "type": "bytes32"
        },
        {
          "name": "_logoHash",
          "type": "bytes32"
        }
      ],
      "name": "setNumber",
      "outputs": [],
      "payable": false,
      "stateMutability": "nonpayable",
      "type": "function"
    },
    {
      "constant": false,
      "inputs": [
        {
          "name": "_owner",
          "type": "address"
        },
        {
          "name": "_latitude",
          "type": "uint256"
        },
        {
          "name": "_longitude",
          "type": "uint256"
        }
      ],
      "name": "setOwner",
      "outputs": [],
      "payable": false,
      "stateMutability": "nonpayable",
      "type": "function"
    },
    {
      "constant": false,
      "inputs": [
        {
          "name": "_location",
          "type": "bytes"
        },
        {
          "name": "_latitude",
          "type": "uint256"
        },
        {
          "name": "_longitude",
          "type": "uint256"
        }
      ],
      "name": "setLocation",
      "outputs": [],
      "payable": false,
      "stateMutability": "nonpayable",
      "type": "function"
    },
    {
      "constant": false,
      "inputs": [
        {
          "name": "_logoURI",
          "type": "bytes"
        },
        {
          "name": "_logoHash",
          "type": "bytes32"
        }
      ],
      "name": "setLogo",
      "outputs": [],
      "payable": false,
      "stateMutability": "nonpayable",
      "type": "function"
    }
  ],
  "bytecode": "0x60806040523480156200001157600080fd5b50604051620049c3380380620049c383398101806040526101008110156200003857600080fd5b8151602083015160408401516060850151608086018051949693959294919392830192916401000000008111156200006f57600080fd5b820160208101848111156200008357600080fd5b81516401000000008111828201871017156200009e57600080fd5b5050602080830151604084015160609094015160008990556001889055835193965090945091620000d691600291908701906200013c565b5060049290925560035560075550506000600b819055600d819055600e819055604c555060098054600160a060020a03938416600160a060020a031991821617909155600880549290931691811691909117909155600a805490911633179055620001e1565b828054600181600116156101000203166002900490600052602060002090601f016020900481019282601f106200017f57805160ff1916838001178555620001af565b82800160010185558215620001af579182015b82811115620001af57825182559160200191906001019062000192565b50620001bd929150620001c1565b5090565b620001de91905b80821115620001bd5760008155600101620001c8565b90565b6147d280620001f16000396000f3fe608060405260043610620001b65763ffffffff7c010000000000000000000000000000000000000000000000000000000060003504166306fdde038114620001b8578063125ba97714620001e257806313af403514620001fa5780631b9265b814620002315780631d834409146200023b5780633d939a4914620002535780634b24ea47146200026b5780634fd7d76a146200029f578063516f279e14620002b75780635863bebe1462000347578063589af69c14620004065780635ac801fe146200041e57806364348703146200044c57806366e1dfa3146200071f57806368db65a414620007d65780636bb38b2814620007ee5780636d5246df146200080657806376af633c1462000e8b5780637e29b0031462000ea35780637e55d59c14620010125780638948a1d1146200104f5780638da5cb5b1462001214578063a64f207a146200122c578063a85c38ef14620012b0578063af640d0f1462001301578063c1f0f00d1462001319578063cffb703c14620013d5578063df7be1ca1462001421578063f1d4b2c51462001439578063f4d187ae1462001467578063f943eecd14620016b3578063f9a9525e1462001793575b005b348015620001c557600080fd5b50620001d06200180f565b60408051918252519081900360200190f35b348015620001ef57600080fd5b50620001d062001815565b3480156200020757600080fd5b50620001b6600480360360208110156200022057600080fd5b5035600160a060020a03166200181c565b620001b662001863565b3480156200024857600080fd5b50620001d0620018aa565b3480156200026057600080fd5b50620001d0620018b0565b3480156200027857600080fd5b5062000283620018b6565b60408051600160a060020a039092168252519081900360200190f35b348015620002ac57600080fd5b50620001d0620018c5565b348015620002c457600080fd5b50620002cf620018cb565b6040805160208082528351818301528351919283929083019185019080838360005b838110156200030b578181015183820152602001620002f1565b50505050905090810190601f168015620003395780820380516001836020036101000a031916815260200191505b509250505060405180910390f35b3480156200035457600080fd5b50620001b6600480360360608110156200036d57600080fd5b8101906020810181356401000000008111156200038957600080fd5b8201836020820111156200039c57600080fd5b80359060200191846001830284011164010000000083111715620003bf57600080fd5b91908080601f01602080910402602001604051908101604052809392919081815260200183838082843760009201919091525092955050823593505050602001356200195a565b3480156200041357600080fd5b50620001d06200198f565b3480156200042b57600080fd5b50620001b6600480360360208110156200044457600080fd5b503562001995565b3480156200045957600080fd5b50620001b6600480360360a08110156200047257600080fd5b8101906020810181356401000000008111156200048e57600080fd5b820183602082011115620004a157600080fd5b80359060200191846020830284011164010000000083111715620004c457600080fd5b91908080602002602001604051908101604052809392919081815260200183836020028082843760009201919091525092959493602081019350359150506401000000008111156200051557600080fd5b8201836020820111156200052857600080fd5b803590602001918460208302840111640100000000831117156200054b57600080fd5b91908080602002602001604051908101604052809392919081815260200183836020028082843760009201919091525092959493602081019350359150506401000000008111156200059c57600080fd5b820183602082011115620005af57600080fd5b80359060200191846020830284011164010000000083111715620005d257600080fd5b91908080602002602001604051908101604052809392919081815260200183836020028082843760009201919091525092959493602081019350359150506401000000008111156200062357600080fd5b8201836020820111156200063657600080fd5b803590602001918460208302840111640100000000831117156200065957600080fd5b9190808060200260200160405190810160405280939291908181526020018383602002808284376000920191909152509295949360208101935035915050640100000000811115620006aa57600080fd5b820183602082011115620006bd57600080fd5b80359060200191846020830284011164010000000083111715620006e057600080fd5b919080806020026020016040519081016040528093929190818152602001838360200280828437600092019190915250929550620019b2945050505050565b3480156200072c57600080fd5b50620001d0600480360360208110156200074557600080fd5b8101906020810181356401000000008111156200076157600080fd5b8201836020820111156200077457600080fd5b803590602001918460208302840111640100000000831117156200079757600080fd5b91908080602002602001604051908101604052809392919081815260200183836020028082843760009201919091525092955062001ead945050505050565b348015620007e357600080fd5b506200028362001f1a565b348015620007fb57600080fd5b50620002cf62001f29565b3480156200081357600080fd5b50620001b660048036036101808110156200082d57600080fd5b8101906020810181356401000000008111156200084957600080fd5b8201836020820111156200085c57600080fd5b803590602001918460208302840111640100000000831117156200087f57600080fd5b9190808060200260200160405190810160405280939291908181526020018383602002808284376000920191909152509295949360208101935035915050640100000000811115620008d057600080fd5b820183602082011115620008e357600080fd5b803590602001918460208302840111640100000000831117156200090657600080fd5b91908080602002602001604051908101604052809392919081815260200183836020028082843760009201919091525092959493602081019350359150506401000000008111156200095757600080fd5b8201836020820111156200096a57600080fd5b803590602001918460208302840111640100000000831117156200098d57600080fd5b9190808060200260200160405190810160405280939291908181526020018383602002808284376000920191909152509295949360208101935035915050640100000000811115620009de57600080fd5b820183602082011115620009f157600080fd5b8035906020019184602083028401116401000000008311171562000a1457600080fd5b919080806020026020016040519081016040528093929190818152602001838360200280828437600092019190915250929594936020810193503591505064010000000081111562000a6557600080fd5b82018360208201111562000a7857600080fd5b8035906020019184602083028401116401000000008311171562000a9b57600080fd5b919080806020026020016040519081016040528093929190818152602001838360200280828437600092019190915250929594936020810193503591505064010000000081111562000aec57600080fd5b82018360208201111562000aff57600080fd5b8035906020019184602083028401116401000000008311171562000b2257600080fd5b919080806020026020016040519081016040528093929190818152602001838360200280828437600092019190915250929594936020810193503591505064010000000081111562000b7357600080fd5b82018360208201111562000b8657600080fd5b8035906020019184602083028401116401000000008311171562000ba957600080fd5b919080806020026020016040519081016040528093929190818152602001838360200280828437600092019190915250929594936020810193503591505064010000000081111562000bfa57600080fd5b82018360208201111562000c0d57600080fd5b8035906020019184602083028401116401000000008311171562000c3057600080fd5b919080806020026020016040519081016040528093929190818152602001838360200280828437600092019190915250929594936020810193503591505064010000000081111562000c8157600080fd5b82018360208201111562000c9457600080fd5b8035906020019184602083028401116401000000008311171562000cb757600080fd5b919080806020026020016040519081016040528093929190818152602001838360200280828437600092019190915250929594936020810193503591505064010000000081111562000d0857600080fd5b82018360208201111562000d1b57600080fd5b8035906020019184602083028401116401000000008311171562000d3e57600080fd5b919080806020026020016040519081016040528093929190818152602001838360200280828437600092019190915250929594936020810193503591505064010000000081111562000d8f57600080fd5b82018360208201111562000da257600080fd5b8035906020019184602083028401116401000000008311171562000dc557600080fd5b919080806020026020016040519081016040528093929190818152602001838360200280828437600092019190915250929594936020810193503591505064010000000081111562000e1657600080fd5b82018360208201111562000e2957600080fd5b8035906020019184602083028401116401000000008311171562000e4c57600080fd5b91908080602002602001604051908101604052809392919081815260200183836020028082843760009201919091525092955062001f87945050505050565b34801562000e9857600080fd5b50620001d062002024565b34801562000eb057600080fd5b50620001b6600480360361010081101562000eca57600080fd5b813591602081013591600160a060020a03604083013516919081019060808101606082013564010000000081111562000f0257600080fd5b82018360208201111562000f1557600080fd5b8035906020019184600183028401116401000000008311171562000f3857600080fd5b91908080601f016020809104026020016040519081016040528093929190818152602001838380828437600092019190915250929584359560208601359591945092506060810191506040013564010000000081111562000f9857600080fd5b82018360208201111562000fab57600080fd5b8035906020019184600183028401116401000000008311171562000fce57600080fd5b91908080601f01602080910402602001604051908101604052809392919081815260200183838082843760009201919091525092955050913592506200202a915050565b3480156200101f57600080fd5b50620001b6600480360360408110156200103857600080fd5b50600160a060020a038135169060200135620020ab565b3480156200105c57600080fd5b50620001b6600480360360608110156200107557600080fd5b8101906020810181356401000000008111156200109157600080fd5b820183602082011115620010a457600080fd5b80359060200191846020830284011164010000000083111715620010c757600080fd5b91908080602002602001604051908101604052809392919081815260200183836020028082843760009201919091525092959493602081019350359150506401000000008111156200111857600080fd5b8201836020820111156200112b57600080fd5b803590602001918460208302840111640100000000831117156200114e57600080fd5b91908080602002602001604051908101604052809392919081815260200183836020028082843760009201919091525092959493602081019350359150506401000000008111156200119f57600080fd5b820183602082011115620011b257600080fd5b80359060200191846020830284011164010000000083111715620011d557600080fd5b9190808060200260200160405190810160405280939291908181526020018383602002808284376000920191909152509295506200217d945050505050565b3480156200122157600080fd5b50620002836200288e565b3480156200123957600080fd5b50620001b6600480360360408110156200125257600080fd5b8101906020810181356401000000008111156200126e57600080fd5b8201836020820111156200128157600080fd5b80359060200191846001830284011164010000000083111715620012a457600080fd5b9193509150356200289d565b348015620012bd57600080fd5b50620012de60048036036020811015620012d657600080fd5b5035620028cb565b604080519215158352600160a060020a0390911660208301528051918290030190f35b3480156200130e57600080fd5b50620001d0620028f0565b3480156200132657600080fd5b50620001b6600480360360408110156200133f57600080fd5b8101906020810181356401000000008111156200135b57600080fd5b8201836020820111156200136e57600080fd5b803590602001918460018302840111640100000000831117156200139157600080fd5b91908080601f0160208091040260200160405190810160405280939291908181526020018383808284376000920191909152509295505091359250620028f6915050565b348015620013e257600080fd5b506200140360048036036020811015620013fb57600080fd5b50356200292a565b60408051938452602084019290925282820152519081900360600190f35b3480156200142e57600080fd5b50620001d06200294b565b3480156200144657600080fd5b50620001b6600480360360208110156200145f57600080fd5b503562002951565b3480156200147457600080fd5b50620001b6600480360360808110156200148d57600080fd5b810190602081018135640100000000811115620014a957600080fd5b820183602082011115620014bc57600080fd5b80359060200191846020830284011164010000000083111715620014df57600080fd5b91908080602002602001604051908101604052809392919081815260200183836020028082843760009201919091525092959493602081019350359150506401000000008111156200153057600080fd5b8201836020820111156200154357600080fd5b803590602001918460208302840111640100000000831117156200156657600080fd5b9190808060200260200160405190810160405280939291908181526020018383602002808284376000920191909152509295949360208101935035915050640100000000811115620015b757600080fd5b820183602082011115620015ca57600080fd5b80359060200191846020830284011164010000000083111715620015ed57600080fd5b91908080602002602001604051908101604052809392919081815260200183836020028082843760009201919091525092959493602081019350359150506401000000008111156200163e57600080fd5b8201836020820111156200165157600080fd5b803590602001918460208302840111640100000000831117156200167457600080fd5b9190808060200260200160405190810160405280939291908181526020018383602002808284376000920191909152509295506200296e945050505050565b348015620016c057600080fd5b50620016e160048036036020811015620016d957600080fd5b503562002d85565b604051808681526020018581526020018060200180602001848152602001838103835286818151815260200191508051906020019060200280838360005b83811015620017395781810151838201526020016200171f565b50505050905001838103825285818151815260200191508051906020019060200280838360005b838110156200177a57818101518382015260200162001760565b5050505090500197505050505050505060405180910390f35b6200028360048036036060811015620017ab57600080fd5b810190602081018135640100000000811115620017c757600080fd5b820183602082011115620017da57600080fd5b80359060200191846020830284011164010000000083111715620017fd57600080fd5b91935091508035906020013562002f12565b60015481565b600e545b90565b600854600160a060020a031633146200183457600080fd5b6008805473ffffffffffffffffffffffffffffffffffffffff1916600160a060020a0392909216919091179055565b600d805434908101909155600854604051600160a060020a039091169180156108fc02916000818181858888f19350505050158015620018a7573d6000803e3d6000fd5b50565b600b5481565b600e5481565b600954600160a060020a031681565b60045481565b6002805460408051602060018416156101000260001901909316849004601f81018490048402820184019092528181529291830182828015620019525780601f10620019265761010080835404028352916020019162001952565b820191906000526020600020905b8154815290600101906020018083116200193457829003601f168201915b505050505081565b600854600160a060020a031633146200197257600080fd5b82516200198790600290602086019062003410565b506003555050565b60035481565b600854600160a060020a03163314620019ad57600080fd5b600155565b600854600160a060020a0316331462001a04576040805160e560020a62461bcd028152602060048201526015602482015260008051602062004787833981519152604482015290519081900360640190fd5b835185511462001a84576040805160e560020a62461bcd02815260206004820152603660248201527f746865206e756d626572206f66206465736372697074696f6e7320616e64206960448201527f74656d206e616d657320646f206e6f74206d6174636800000000000000000000606482015290519081900360840190fd5b815183511462001b04576040805160e560020a62461bcd02815260206004820152602d60248201527f746865206e756d626572206f66206f7074696f6e7320616e642070726963657360448201527f20646f206e6f74206d6174636800000000000000000000000000000000000000606482015290519081900360840190fd5b805185511462001b84576040805160e560020a62461bcd02815260206004820152603660248201527f746865206e756d626572206f66206974656d206e616d657320616e64206f707460448201527f696f6e20666c61677320646f206e6f74206d6174636800000000000000000000606482015290519081900360840190fd5b6000805b825181101562001bb957828181518110151562001ba157fe5b60209081029091010151919091019060010162001b88565b508351811462001c5f576040805160e560020a62461bcd02815260206004820152604260248201527f746865206e756d626572206f66206f7074696f6e7320616e642074686520737560448201527f6d206f6620746865206f7074696f6e20666c61677320646f206e6f74206d617460648201527f6368000000000000000000000000000000000000000000000000000000000000608482015290519081900360a40190fd5b60008080606080825b875181101562001e9f578b8181518110151562001c8157fe5b9060200190602002015194508a8181518110151562001c9c57fe5b602090810290910101516040805160088082526101208201909252919550816020016020820280388339505060408051600880825261012082019092529295509050602082016101008038833901905050915060005b888281518110151562001d0157fe5b9060200190602002015181101562001d84578a8781518110151562001d2257fe5b90602001906020020151848281518110151562001d3b57fe5b6020908102909101015289518a908890811062001d5457fe5b90602001906020020151838281518110151562001d6d57fe5b602090810290910101526001968701960162001cf2565b50875160009089908390811062001d9757fe5b6020908102909101015160011462001dc557888281518110151562001db857fe5b9060200190602002015190505b60a0604051908101604052808781526020018681526020018581526020018481526020018a8481518110151562001df857fe5b6020908102909101810151909152604c546000908152600f825260409081902083518155838301516001820155908301518051919262001e419260028501929091019062003495565b506060820151805162001e5f91600384019160209091019062003495565b5060809190910151600490910155604c54600e54601090603c811062001e8157fe5b015550600e80546001908101909155604c8054820190550162001c68565b505050505050505050505050565b600080805b835181101562001f1357600f6000858381518110151562001ecf57fe5b906020019060200201518152602001908152602001600020600301600081548110151562001ef957fe5b600091825260209091200154919091019060010162001eb2565b5092915050565b600a54600160a060020a031681565b6005805460408051602060026001851615610100026000190190941693909304601f81018490048402820184019092528181529291830182828015620019525780601f10620019265761010080835404028352916020019162001952565b600854600160a060020a0316331462001fd9576040805160e560020a62461bcd028152602060048201526015602482015260008051602062004787833981519152604482015290519081900360640190fd5b60008451111562001ff25762001ff2848484846200296e565b60008c5111156200200c576200200c8c8c8c8c8c620019b2565b60008751111562001e9f5762001e9f8787876200217d565b60075481565b600854600160a060020a031633146200204257600080fd5b6200204d8862001995565b620020588762002951565b600160a060020a03861615620020735762002073866200181c565b6000855111156200208b576200208b8585856200195a565b600082511115620020a157620020a18862001995565b5050505050505050565b600854600160a060020a03163314620020fd576040805160e560020a62461bcd028152602060048201526015602482015260008051602062004787833981519152604482015290519081900360640190fd5b81600160a060020a031663e9132c42826040518263ffffffff167c010000000000000000000000000000000000000000000000000000000002815260040180828152602001915050600060405180830381600087803b1580156200216057600080fd5b505af115801562002175573d6000803e3d6000fd5b505050505050565b600854600160a060020a03163314620021cf576040805160e560020a62461bcd028152602060048201526015602482015260008051602062004787833981519152604482015290519081900360640190fd5b805183511462002275576040805160e560020a62461bcd02815260206004820152605160248201527f746865206e756d626572206f66206974656d7320746f2072656d6f766520616e60448201527f6420746865206e756d626572206f66206f7074696f6e73546f52656d6f76654660648201527f6c61677320646f206e6f74206d61746368000000000000000000000000000000608482015290519081900360a40190fd5b60005b83518110156200232257603c84828151811015156200229357fe5b602090810290910101511062002319576040805160e560020a62461bcd02815260206004820152603a60248201527f796f7520686176652072657175657374656420746f2064656c65746520616e2060448201527f696e6465782074686174206973206f7574206f662072616e6765000000000000606482015290519081900360840190fd5b60010162002278565b506000805b8251811015620023585782818151811015156200234057fe5b60209081029091010151919091019060010162002327565b5082518114620023fe576040805160e560020a62461bcd02815260206004820152605760248201527f746865206e756d626572206f66206f7074696f6e7320746f2072656d6f76652060448201527f616e64207468652073756d206f6620746865206f7074696f6e7320746f20726560648201527f6d6f766520666c61677320646f206e6f74206d61746368000000000000000000608482015290519081900360a40190fd5b8351600090600019015b600081126200217557600e5486828151811015156200242357fe5b602090810290910101511162002884576000600e541115620028845783818151811015156200244e57fe5b9060200190602002015160001415620024e457600086828151811015156200247257fe5b9060200190602002015190505b6001600e5403811015620024b957601060018201603c81106200249e57fe5b0154601082603c8110620024ae57fe5b01556001016200247f565b50600e5460109060001901603c8110620024cf57fe5b6000910155600e805460001901905562002884565b60006001838684815181101515620024f857fe5b90602001906020020151010390505b8281126200286557600086828151811015156200252057fe5b9060200190602002015190505b6001600f600060108b878151811015156200254457fe5b60209081029091010151603c81106200255957fe5b015481526020019081526020016000206004015403811015620026e157600f600060108a868151811015156200258b57fe5b60209081029091010151603c8110620025a057fe5b0154815260200190815260200160002060020181600101815481101515620025c457fe5b9060005260206000200154600f600060108b87815181101515620025e457fe5b60209081029091010151603c8110620025f957fe5b01548152602001908152602001600020600201828154811015156200261a57fe5b9060005260206000200181905550600f600060108a868151811015156200263d57fe5b60209081029091010151603c81106200265257fe5b01548152602001908152602001600020600301816001018154811015156200267657fe5b9060005260206000200154600f600060108b878151811015156200269657fe5b60209081029091010151603c8110620026ab57fe5b0154815260200190815260200160002060030182815481101515620026cc57fe5b6000918252602090912001556001016200252d565b50600f600060108985815181101515620026f757fe5b60209081029091010151603c81106200270c57fe5b015481526020019081526020016000206002016001600f600060108b878151811015156200273657fe5b60209081029091010151603c81106200274b57fe5b0154815260200190815260200160002060040154038154811015156200276d57fe5b9060005260206000200160009055600f6000601089858151811015156200279057fe5b60209081029091010151603c8110620027a557fe5b015481526020019081526020016000206003016001600f600060108b87815181101515620027cf57fe5b60209081029091010151603c8110620027e457fe5b0154815260200190815260200160002060040154038154811015156200280657fe5b9060005260206000200160009055600f6000601089858151811015156200282957fe5b60209081029091010151603c81106200283e57fe5b01548152602081019190915260400160002060040180546000199081019091550162002507565b5083818151811015156200287557fe5b90602001906020020151820191505b6000190162002408565b600854600160a060020a031681565b600854600160a060020a03163314620028b557600080fd5b620028c360058484620034d2565b506006555050565b600c6020526000908152604090205460ff8116906101009004600160a060020a031682565b60005481565b600854600160a060020a031633146200290e57600080fd5b81516200292390600590602085019062003410565b5060065550565b600f6020526000908152604090208054600182015460049092015490919083565b60065481565b600854600160a060020a031633146200296957600080fd5b600755565b600854600160a060020a03163314620029c0576040805160e560020a62461bcd028152602060048201526015602482015260008051602062004787833981519152604482015290519081900360640190fd5b805184511462002a40576040805160e560020a62461bcd02815260206004820152602481018290527f746865206e756d626572206f66206974656d2069647320646f6573206e6f742060448201527f6d6174636820746865206e756d626572206f66206f7074696f6e20666c616773606482015290519081900360840190fd5b815183511462002ac0576040805160e560020a62461bcd02815260206004820152603960248201527f746865206e756d626572206f66206f7074696f6e7320646f6573206e6f74206d60448201527f6174636820746865206e756d626572206f662070726963657300000000000000606482015290519081900360840190fd5b6000805b825181101562002af557828181518110151562002add57fe5b60209081029091010151919091019060010162002ac4565b508351811462002b75576040805160e560020a62461bcd02815260206004820152603e60248201527f746865206e756d626572206f66206f7074696f6e206e616d657320646f65732060448201527f6e6f74206d61746368207468652073756d206f662074686520666c6167730000606482015290519081900360840190fd5b6000805b865181101562002d7c57815b82858381518110151562002b9557fe5b906020019060200201510181101562002d5457868181518110151562002bb757fe5b90602001906020020151600f600060108b8681518110151562002bd657fe5b60209081029091010151603c811062002beb57fe5b01548152602001908152602001600020600201600f600060108c8781518110151562002c1357fe5b60209081029091010151603c811062002c2857fe5b015481526020019081526020016000206004015481548110151562002c4957fe5b600091825260209091200155855186908290811062002c6457fe5b90602001906020020151600f600060108b8681518110151562002c8357fe5b60209081029091010151603c811062002c9857fe5b01548152602001908152602001600020600301600f600060108c8781518110151562002cc057fe5b60209081029091010151603c811062002cd557fe5b015481526020019081526020016000206004015481548110151562002cf657fe5b9060005260206000200181905550600f600060108a8581518110151562002d1957fe5b60209081029091010151603c811062002d2e57fe5b015481526020810191909152604001600020600401805460019081019091550162002b85565b50838181518110151562002d6457fe5b60209081029091010151919091019060010162002b79565b50505050505050565b6000806060806000600e548610151562002de9576040805160e560020a62461bcd02815260206004820152601360248201527f696e646578206f7574206f6620626f756e647300000000000000000000000000604482015290519081900360640190fd5b62002df362003545565b600f6000601089603c811062002e0557fe5b015481526020808201929092526040908101600020815160a0810183528154815260018201548185015260028201805484518187028101870186528181529295939486019383018282801562002e7b57602002820191906000526020600020905b81548152602001906001019080831162002e66575b505050505081526020016003820180548060200260200160405190810160405280929190818152602001828054801562002ed557602002820191906000526020600020905b81548152602001906001019080831162002ec0575b50505091835250506004919091015460209182015281519082015160408301516060840151608090940151929b919a509850919650945092505050565b600954604080517f6455e5ac0000000000000000000000000000000000000000000000000000000081529051600092600160a060020a031691636455e5ac916004808301926020929190829003018186803b15801562002f7157600080fd5b505afa15801562002f86573d6000803e3d6000fd5b505050506040513d602081101562002f9d57600080fd5b5051604080517f689b00980000000000000000000000000000000000000000000000000000000081523360048201529051600160a060020a039092169163689b009891602480820192602092909190829003018186803b1580156200300157600080fd5b505afa15801562003016573d6000803e3d6000fd5b505050506040513d60208110156200302d57600080fd5b5051151562003086576040805160e560020a62461bcd02815260206004820152601560248201527f437573746f6d657220646f65736e742065786973740000000000000000000000604482015290519081900360640190fd5b604080518581526020808702820101909152606090858015620030b3578160200160208202803883390190505b509050606086869050604051908082528060200260200182016040528015620030e6578160200160208202803883390190505b50905060005b86811015620032325760008888838181106200310457fe5b90506020020135101580156200312e5750600e548888838181106200312557fe5b90506020020135105b15620031d957600f60008989848181106200314557fe5b9050602002013581526020019081526020016000206000015482828151811015156200316d57fe5b60209081029091010152600f60008989848181106200318857fe5b9050602002013581526020019081526020016000206003016000815481101515620031af57fe5b90600052602060002001548382815181101515620031c957fe5b6020908102909101015262003229565b6040805160e560020a62461bcd02815260206004820152600d60248201527f496e76616c6964204974656d7300000000000000000000000000000000000000604482015290519081900360640190fd5b600101620030ec565b50600b546009546000913491849086908a90600160a060020a0316338b620032596200357b565b87815260608101859052600160a060020a038085166080830152831660a082015260c0810182905260e06020808301828152895192840192909252885160408401916101008501918b8201910280838360005b83811015620032c6578181015183820152602001620032ac565b50505050905001838103825288818151815260200191508051906020019060200280838360005b8381101562003307578181015183820152602001620032ed565b5050505090500199505050505050505050506040518091039082f08015801562003335573d6000803e3d6000fd5b506040805180820182526001808252600160a060020a038481166020808501918252600b80546000908152600c835287812096518754945160ff199095169015151774ffffffffffffffffffffffffffffffffffffffff001916610100948616850217909655805494850190559284529284902054845193900416825291519294507f6ad6ccf0214624cc1ab014b24a7601698f45e6a0d07edcbab143606784ed78fb93508290030190a15050600b54600019016000908152600c60205260409020546101009004600160a060020a03169695505050505050565b828054600181600116156101000203166002900490600052602060002090601f016020900481019282601f106200345357805160ff191683800117855562003483565b8280016001018555821562003483579182015b828111156200348357825182559160200191906001019062003466565b50620034919291506200358c565b5090565b8280548282559060005260206000209081019282156200348357916020028201828111156200348357825182559160200191906001019062003466565b828054600181600116156101000203166002900490600052602060002090601f016020900481019282601f10620035155782800160ff1982351617855562003483565b8280016001018555821562003483579182015b828111156200348357823582559160200191906001019062003528565b60a06040519081016040528060008019168152602001600080191681526020016060815260200160608152602001600081525090565b6040516111dd80620035aa83390190565b6200181991905b808211156200349157600081556001016200359356fe608060408190526004805461ffff19169055600c805460ff19908116909155600e80549091169055620011dd38819003908190833981018060405260e08110156200004957600080fd5b8151602083018051919392830192916401000000008111156200006b57600080fd5b820160208101848111156200007f57600080fd5b81518560208202830111640100000000821117156200009d57600080fd5b50509291906020018051640100000000811115620000ba57600080fd5b82016020810184811115620000ce57600080fd5b8151856020820283011164010000000082111715620000ec57600080fd5b5050602080830151604080850151606086015160809096015182517f68db65a4000000000000000000000000000000000000000000000000000000008152925195985092965094939192600160a060020a038616926368db65a4926004808201939291829003018186803b1580156200016457600080fd5b505afa15801562000179573d6000803e3d6000fd5b505050506040513d60208110156200019057600080fd5b5051604080517f79a4fa270000000000000000000000000000000000000000000000000000000081523360048201529051600160a060020a03909216916379a4fa2791602480820192602092909190829003018186803b158015620001f457600080fd5b505afa15801562000209573d6000803e3d6000fd5b505050506040513d60208110156200022057600080fd5b50511515620002b657604080517f08c379a000000000000000000000000000000000000000000000000000000000815260206004820152603d60248201527f617474656d7074656420746f206d616b65206f726465722066726f6d2061646460448201527f726573732074686174206973206e6f7420612072657374617572616e74000000606482015290519081900360840190fd5b84518651146200034d57604080517f08c379a000000000000000000000000000000000000000000000000000000000815260206004820152602360248201527f696e76616c6964206d61746368696e67206f66206974656d7320746f2070726960448201527f6365730000000000000000000000000000000000000000000000000000000000606482015290519081900360840190fd5b6003879055600480546201000033026201000060b060020a031990911617905560068054600160a060020a03848116600160a060020a03199283161790925542600855600780549286169290911691909117905560006009819055600f8190555b8651811015620004505760408051908101604052808883815181101515620003d257fe5b9060200190602002015181526020018783815181101515620003f057fe5b6020908102909101810151909152600f54600090815260108252604090208251815591015160019091015585518690829081106200042a57fe5b60209081029091010151600980549091019055600f8054600190810190915501620003ae565b50600a8490556009548401341015620004f057604080517f08c379a000000000000000000000000000000000000000000000000000000000815260206004820152602360248201527f6e6f7420656e6f7567682065746865722073656e7420746f20746865206f726460448201527f6572200000000000000000000000000000000000000000000000000000000000606482015290519081900360840190fd5b60016002556000809081556001908155600b91909155600c805460ff19169091179055505050505050610cb480620005296000396000f3fe60806040526004361061012f5763ffffffff60e060020a60003504166312065fe081146101345780632799276d1461015b5780632804b2c0146101705780633129e773146101a157806332940816146101e45780633cc94908146101f95780633cf5040a1461020e5780633e3ca4d31461023857806340571abb1461024d57806353c0a00614610276578063646e077f1461028b5780637aada134146102a05780639e8464f1146102b5578063a14b7e68146102df578063af640d0f146102f4578063bd3e19d414610309578063bfb231d21461031e578063d601e11414610348578063d638e1021461035d578063db7575f014610372578063e9132c421461039c578063ed168058146103bb578063f3cc0f1f146103d0578063f90a92e3146103e5578063fc6f78a014610402575b600080fd5b34801561014057600080fd5b50610149610417565b60408051918252519081900360200190f35b34801561016757600080fd5b5061014961041c565b34801561017c57600080fd5b50610185610422565b60408051600160a060020a039092168252519081900360200190f35b3480156101ad57600080fd5b506101cb600480360360208110156101c457600080fd5b5035610431565b6040805192835260208301919091528051918290030190f35b3480156101f057600080fd5b5061014961044b565b34801561020557600080fd5b50610149610451565b34801561021a57600080fd5b506101496004803603602081101561023157600080fd5b5035610457565b34801561024457600080fd5b5061014961047b565b34801561025957600080fd5b50610262610481565b604080519115158252519081900360200190f35b34801561028257600080fd5b5061018561048f565b34801561029757600080fd5b5061026261049e565b3480156102ac57600080fd5b506101496104a7565b3480156102c157600080fd5b50610262600480360360208110156102d857600080fd5b50356104ad565b3480156102eb57600080fd5b506101496105a1565b34801561030057600080fd5b506101496105a7565b34801561031557600080fd5b506101496105ad565b34801561032a57600080fd5b506101cb6004803603602081101561034157600080fd5b50356105b3565b34801561035457600080fd5b506102626105cc565b34801561036957600080fd5b506102626105d5565b34801561037e57600080fd5b506102626004803603602081101561039557600080fd5b50356105de565b6103b9600480360360208110156103b257600080fd5b50356106d1565b005b3480156103c757600080fd5b50610185610864565b3480156103dc57600080fd5b50610149610879565b6103b9600480360360208110156103fb57600080fd5b503561087f565b34801561040e57600080fd5b50610149610b2d565b303190565b600f5481565b600654600160a060020a031681565b600090815260106020526040902080546001909101549091565b60015481565b600d5481565b60408051602080820193909352815180820384018152908201909152805191012090565b60005481565b600454610100900460ff1681565b600554600160a060020a031681565b600c5460ff1681565b60085481565b600e5460009060ff16151560011461050f576040805160e560020a62461bcd02815260206004820152601360248201527f4e6f206b657920686173206265656e2073657400000000000000000000000000604482015290519081900360640190fd5b600d5461051b83610457565b14610570576040805160e560020a62461bcd02815260206004820152600d60248201527f496e636f7272656374204b657900000000000000000000000000000000000000604482015290519081900360640190fd5b610578610b33565b600360015560026000908155604051600080516020610c698339815191529190a1506001919050565b60025481565b60035481565b60095490565b6010602052600090815260409020805460019091015482565b60045460ff1681565b600e5460ff1681565b600c5460009060ff161515600114610640576040805160e560020a62461bcd02815260206004820152601360248201527f4e6f206b657920686173206265656e2073657400000000000000000000000000604482015290519081900360640190fd5b600b5461064c83610457565b146106a1576040805160e560020a62461bcd02815260206004820152600d60248201527f496e636f7272656374204b657900000000000000000000000000000000000000604482015290519081900360640190fd5b6106a9610bca565b600360005560028055604051600080516020610c6983398151915290600090a1506001919050565b600454620100009004600160a060020a03163314610785576040805160e560020a62461bcd02815260206004820152605060248201527f596f7520646f6e742068617665207065726d697373696f6e20746f207365652060448201527f74686973206f726465722c2064696420796f752067657420746865206f72646560648201527f7220616464726573732077726f6e673f00000000000000000000000000000000608482015290519081900360a40190fd5b60015481116107de576040805160e560020a62461bcd02815260206004820152601c60248201527f7374617475732063616e6e6f74206265206261636b747261636b656400000000604482015290519081900360640190fd5b600381111580156107ef5750600081115b1515610845576040805160e560020a62461bcd02815260206004820152601660248201527f676976656e20537461747573206e6f742076616c696400000000000000000000604482015290519081900360640190fd5b6001819055604051600080516020610c6983398151915290600090a150565b600454620100009004600160a060020a031681565b600a5481565b600054156108fd576040805160e560020a62461bcd02815260206004820152602a60248201527f74686973206f7264657220616c6c7265616479206861732064656c697665727960448201527f206f7267616e6973656400000000000000000000000000000000000000000000606482015290519081900360840190fd5b600760009054906101000a9004600160a060020a0316600160a060020a031663c9286d576040518163ffffffff1660e060020a02815260040160206040518083038186803b15801561094e57600080fd5b505afa158015610962573d6000803e3d6000fd5b505050506040513d602081101561097857600080fd5b5051604080517f139526700000000000000000000000000000000000000000000000000000000081523360048201529051600160a060020a0390921691631395267091602480820192602092909190829003018186803b1580156109db57600080fd5b505afa1580156109ef573d6000803e3d6000fd5b505050506040513d6020811015610a0557600080fd5b50511515610a83576040805160e560020a62461bcd02815260206004820152602960248201527f6d7573742062652063616c6c656420766961206120726964657220736d61727460448201527f20636f6e74726163740000000000000000000000000000000000000000000000606482015290519081900360840190fd5b600954341015610add576040805160e560020a62461bcd02815260206004820152601e60248201527f746865206465706f7369742073656e74206973206e6f7420656e6f7567680000604482015290519081900360640190fd5b600160009081556005805473ffffffffffffffffffffffffffffffffffffffff191633179055600d829055600e805460ff19166001179055604051600080516020610c698339815191529190a150565b600b5481565b600460029054906101000a9004600160a060020a0316600160a060020a0316631b9265b86009546040518263ffffffff1660e060020a0281526004016000604051808303818588803b158015610b8857600080fd5b505af1158015610b9c573d6000803e3d6000fd5b50506004805460ff191660019081178255555050604051600080516020610c698339815191529150600090a1565b600560009054906101000a9004600160a060020a0316600160a060020a0316631b9265b8600a54600954016040518263ffffffff1660e060020a0281526004016000604051808303818588803b158015610c2357600080fd5b505af1158015610c37573d6000803e3d6000fd5b50506004805461ff001916610100179055505060036000908155604051600080516020610c698339815191529250a156feac854101ed2841c4fe7b3c5bfc4f3e58ddac515e8dd58f1bd9cf7856f1cc6e7fa165627a7a7230582092424352f8d4d2e6ca60310510806b1f73be0b998a45117f619aa5abb3af982b0029796f7520617265206e6f7420746865206f776e65720000000000000000000000a165627a7a723058203881ec9b599692f17072a8250d58a26aa7bb4b7133d4fa7c77cc651f21deff140029",
  "source": "pragma solidity ^0.5.0;\n\n //import \"./lib.sol\";\n import \"./Order.sol\";\n import \"./RestaurantFactory.sol\";\n import \"./CustomerFactory.sol\";\n import \"./Controller.sol\";\n\ncontract Restaurant {\n\n    // additional variables to add\n\n\tuint public id;\n\tbytes32 public name; \n\n\tbytes public location; \n    uint public longitude; \n    uint public latitude; \n\n    bytes public logoURI; \n    bytes32 public logoHash; \n\n\n\tbytes32 public contactNumber; \n\n\taddress payable public owner; \n    address public controllerAddress;\n\taddress public restaurantFactoryAddress;\n\n\n    struct order{bool open; address orderAddress;}\n\tuint public totalOrders;\n    // todo: make orders private and accessed via method for only rider and restaurant\n\tmapping(uint => order) public orders; // must be a better way to store the orders\n\n    uint totalPay;\n\t\n\tstruct Item{\n\t\tbytes32 itemName;\n        bytes32 description;\n        bytes32[] options;\n\t\tuint[] optionsCost; // in wei (10^-18 Eth)\n        uint optionsCount;\n\t}\n\t\n    uint public menuLength;\n\tmapping(uint => Item) public menu;\n    uint[60] private menuIndexes;\n    uint private menuMappingLength;\n\n    enum restaurantState{acceptedOrder, preparingCargo, readyForCollection, HandedOver}\n\t\n    event OrderMadeEvent(address orderAddress);\n    event MenuUpdated();\n\n\tconstructor(address _controller, address payable _owner, \n                uint _id, bytes32 _name, \n                bytes memory _address, uint _latitude, uint _longitude, \n                bytes32 _contactNumber\n                ) public {\n        // itemOptions and prices will have to be parsed as they are 2d arrays\n\t\tid = _id;\n\t\tname = _name;\n\t\t\n        location = _address;\n        latitude = _latitude;\n        longitude = _longitude;\n\n\t\tcontactNumber = _contactNumber;\n\t\ttotalOrders = 0;\n        totalPay = 0;\n\n        menuLength = 0;\n        menuMappingLength = 0;\n\n        controllerAddress = _controller;\n\t\towner = _owner;\n\t\trestaurantFactoryAddress = msg.sender;\n\t}\n\n    function getMenuItem(uint index) public view returns(bytes32 itemName, bytes32 itemDescription, bytes32[] memory optionNames, uint[] memory optionPrices, uint optionsCount){\n        require(index < menuLength, \"index out of bounds\");\n        // this needs modifying to only return indexes that are within the menulength\n        Item memory i = menu[menuIndexes[index]];\n        return (i.itemName, i.description, i.options, i.optionsCost, i.optionsCount);\n    }\n\n    function updateLogo(bytes calldata imageURI, bytes32 imageHash) external{\n        require(msg.sender == owner);\n        logoURI = imageURI;\n        logoHash = imageHash;\n    }\n\n    // ToDo Remove this\n    function getMenuLength() external view returns(uint length){\n        return menuLength;\n    }\n    \n    // menuIndex\n    // itemType\n    // uint new prices\n    // byte32 new text\n\n    function updateMenu(bytes32[] memory itemNames, bytes32[] memory itemDescriptions, bytes32[] memory _optionNames, uint[] memory _prices, uint[] memory optionFlags,uint[] memory itemsToRemove, uint[] memory optionsToRemove, uint[] memory optionsToRemoveFlags,uint[] memory itemIds, bytes32[] memory _addOptionNames, uint[] memory _addPrices, uint[] memory addOptionFlags) \n    public {\n        require(msg.sender == owner, \"you are not the owner\");\n        // also need the ability to swap item and option indexes,\n        // also need the ability to modify item and option names and prices\n        if(itemIds.length > 0) //add options should be able to add an option at any index\n            menuAddOptions(itemIds, _addOptionNames, _addPrices, addOptionFlags);\n        if(itemNames.length > 0)\n            menuAddItems(itemNames,itemDescriptions,_optionNames,_prices,optionFlags);\n        if(itemsToRemove.length > 0)\n            menuRemoveItems(itemsToRemove,optionsToRemove,optionsToRemoveFlags);\n    }\n\n\n\n    function menuRemoveItems(uint[] memory itemsToRemove, uint[] memory optionsToRemove, uint[] memory optionsToRemoveFlags) public {\n        require(msg.sender == owner, \"you are not the owner\");\n        require(itemsToRemove.length == optionsToRemoveFlags.length, \"the number of items to remove and the number of optionsToRemoveFlags do not match\");\n        for(uint itemsToRemoveIndex = 0; itemsToRemoveIndex < itemsToRemove.length; itemsToRemoveIndex++){\n            require(itemsToRemove[itemsToRemoveIndex] < menuIndexes.length, \"you have requested to delete an index that is out of range\");\n        }\n        uint optionsToRemoveFlagsSum = 0;\n        for(uint optionsToRemoveFlagsIndex = 0; optionsToRemoveFlagsIndex < optionsToRemoveFlags.length; optionsToRemoveFlagsIndex++){\n            optionsToRemoveFlagsSum += optionsToRemoveFlags[optionsToRemoveFlagsIndex];\n        }\n        require(optionsToRemove.length == optionsToRemoveFlagsSum, \"the number of options to remove and the sum of the options to remove flags do not match\");\n        // ToDo: add require that checks to make sure the option index isn't out of range\n\n\n        // remove from menu \n        uint optionsToRemoveIndex = 0;\n        for(int i = int(itemsToRemove.length-1); i >= 0; i--){ // work backwards through the array as not to change the indexes of any unworked items\n            if(itemsToRemove[uint(i)] <= menuLength){\n                if(menuLength > 0){\n                    if(optionsToRemoveFlags[uint(i)] == 0){ \n                        // move all items after the items to delete down and option and delete the last item\n                        for(uint j = itemsToRemove[uint(i)]; j < menuLength-1; j++){\n                            menuIndexes[j] = menuIndexes[j + 1];  \n                        }\n                        delete menuIndexes[menuLength-1];\n                        menuLength--;\n                    }\n                    else{\n                        // for each option to remove specified by the optionToRemoveFlag\n                        for(int j = int(optionsToRemoveFlags[uint(i)] + optionsToRemoveIndex - 1); j >= int(optionsToRemoveIndex); j--){\n                            // move all options after the option to delete down an index and remove the last option\n                            for(uint k = optionsToRemove[uint(j)]; k < menu[menuIndexes[itemsToRemove[uint(i)]]].optionsCount-1; k++){\n                                menu[menuIndexes[itemsToRemove[uint(i)]]].options[k] = menu[menuIndexes[itemsToRemove[uint(i)]]].options[k+1];\n                                menu[menuIndexes[itemsToRemove[uint(i)]]].optionsCost[k] = menu[menuIndexes[itemsToRemove[uint(i)]]].optionsCost[k+1];\n                            }\n                            delete menu[menuIndexes[itemsToRemove[uint(i)]]].options[menu[menuIndexes[itemsToRemove[uint(i)]]].optionsCount-1];\n                            delete menu[menuIndexes[itemsToRemove[uint(i)]]].optionsCost[menu[menuIndexes[itemsToRemove[uint(i)]]].optionsCount-1];\n                            menu[menuIndexes[itemsToRemove[uint(i)]]].optionsCount--;\n                        }\n                        optionsToRemoveIndex += optionsToRemoveFlags[uint(i)];\n                    }\n                }\n            }\n        }\n    }\n\n    // should also be able to modify items\n    function menuAddItems(bytes32[] memory itemNames, bytes32[] memory itemDescriptions, bytes32[] memory _optionNames, uint[] memory _prices, uint[] memory optionFlags) public{\n        require(msg.sender == owner, \"you are not the owner\");\n        require(itemNames.length == itemDescriptions.length, \"the number of descriptions and item names do not match\");\n        require(_optionNames.length == _prices.length, \"the number of options and prices do not match\");\n        require(itemNames.length == optionFlags.length, \"the number of item names and option flags do not match\");\n        uint optionFlagsSum = 0;\n        for(uint i = 0; i < optionFlags.length; i++){\n            optionFlagsSum += optionFlags[i];\n        }\n        require(_optionNames.length == optionFlagsSum, \"the number of options and the sum of the option flags do not match\");\n\n        // checks on if an item is in the menu should be done client side, maybe??\n                \n        // add to menu\n        uint optionIndex = 0;\n        bytes32 itemName;\n        bytes32 itemDescription;\n        bytes32[] memory optionNames;\n        uint[] memory prices;\n\n        for(uint i = 0; i < optionFlags.length; i++){\n\n            itemName = itemNames[i];\n            itemDescription = itemDescriptions[i];\n\n            optionNames = new bytes32[](8);\n            prices = new uint[](8);\n            \n            //ToDo: need to require that the total number of options for an item is less than the options array limit, or have the limit increase when it is exceeded\n\n            for(uint j = 0; j < optionFlags[i]; j++){\n                optionNames[j] = _optionNames[optionIndex];\n                prices[j] = _prices[optionIndex];\n                optionIndex++;\n            }\n\n            // if the optionsflag is one then the number of options is 0\n            uint optionsCount = 0;\n            if(optionFlags[i] != 1)\n                optionsCount = optionFlags[i];\n            \n\n            menu[menuMappingLength] = Item(itemName,itemDescription,optionNames,prices, optionFlags[i]);\n            menuIndexes[menuLength] = menuMappingLength;\n            menuLength++;\n            menuMappingLength++;\n            \n        }\n    }\n\n    function menuAddOptions(uint[] memory itemIds, bytes32[] memory _optionNames, uint[] memory _prices, uint[] memory optionFlags) public {\n        require(msg.sender == owner, \"you are not the owner\");\n        require(itemIds.length == optionFlags.length, \"the number of item ids does not match the number of option flags\");\n        require(_optionNames.length == _prices.length, \"the number of options does not match the number of prices\");\n        uint optionFlagsSum = 0;\n        for(uint i = 0; i < optionFlags.length; i++){\n            optionFlagsSum += optionFlags[i];\n        }\n        require(_optionNames.length == optionFlagsSum, \"the number of option names does not match the sum of the flags\");\n\n        uint optionIndex = 0;\n        for(uint i = 0; i < itemIds.length; i++){\n            for(uint j = optionIndex; j < optionFlags[i]+optionIndex; j++){\n                menu[menuIndexes[itemIds[i]]].options[menu[menuIndexes[itemIds[i]]].optionsCount] = _optionNames[j];\n                menu[menuIndexes[itemIds[i]]].optionsCost[menu[menuIndexes[itemIds[i]]].optionsCount] = _prices[j];\n                menu[menuIndexes[itemIds[i]]].optionsCount++;\n            }\n            optionIndex+=optionFlags[i];\n        }\n    }\n\n\n    // todo: fix this\n    function getOrderPrice(uint[] memory itemIds) public view returns (uint){\n        uint price = 0;\n        for(uint i = 0; i < itemIds.length; i++){\n            price += menu[itemIds[i]].optionsCost[0];\n        }\n        return price;\n    }\n    \n\n    function makeOrder(uint[] calldata itemIds, uint deliveryFee, bytes32 riderKeyHash) external payable returns (address orderAddress) {\n        //require this comes from a customer smart contract, maybe worth moving this to the order smart contract\n        require(CustomerFactory(Controller(controllerAddress).customerFactoryAddress()).customerExists(msg.sender), \"Customer doesnt exist\");\n\n        uint[] memory prices = new uint[](itemIds.length);\n        bytes32[] memory items = new bytes32[](itemIds.length);\n        for(uint i = 0; i < itemIds.length; i++)\n        {\n            if (itemIds[i] >= 0 && itemIds[i] < menuLength){\n                // could consider sending itemID and price to reduce gas cost\n                items[i] = menu[uint(itemIds[i])].itemName; \n                prices[i] = menu[uint(itemIds[i])].optionsCost[0];\n            }\n            else{\n                revert(\"Invalid Items\");\n            }\n        }\n        \n\t\tOrder newOrder = (new Order).value(msg.value)(totalOrders,items,prices,deliveryFee, controllerAddress, msg.sender, riderKeyHash);\n\t\torders[totalOrders] = order(true,address(newOrder));\n        totalOrders ++;\n\n        emit OrderMadeEvent(orders[totalOrders - 1].orderAddress);\n\n\t\treturn orders[totalOrders - 1].orderAddress;       \n    }\n\n    function setStatus(address orderAddress, uint status) public{\n        require(msg.sender == owner, \"you are not the owner\");\n        Order(orderAddress).setOrderStatus(status);\n    }\n\n    function pay() external payable {\n        totalPay += msg.value;\n        owner.transfer(msg.value);\n    } \n\n    function() external payable {\n\n    }\n\n\n    // Setters\n    function updateRestaurant(bytes32 _name, bytes32 _number, address payable _owner, bytes memory _location, uint _latitude, uint _longitude, bytes memory _logoURI, bytes32 _logoHash) public {\n        require(msg.sender == owner);\n        if(_name.length > 0 )\n            setName(_name);\n        if(_number.length > 0 )\n            setNumber(_number);\n        if(_owner != address(0))\n            setOwner(_owner);\n        if(_location.length > 0)\n            setLocation(_location, _latitude, _longitude);\n        if(_logoURI.length > 0)\n            setName(_name);\n    }\n    function setName(bytes32 _name) public {\n        require(msg.sender == owner);\n        name = _name;\n    }\n    function setNumber(bytes32 _number) public {\n        require(msg.sender == owner);\n        contactNumber = _number;\n    }\n    function setOwner(address payable _owner) public {\n        require(msg.sender == owner);\n        owner = _owner;\n    }\n    function setLocation(bytes memory _location, uint _latitude, uint _longitude) public {\n        require(msg.sender == owner);\n        location = _location;\n        latitude - _latitude;\n        longitude = _longitude;\n    }\n    function setLogo(bytes memory _logoURI, bytes32 _logoHash) public {\n        require(msg.sender == owner);\n        logoURI = _logoURI;\n        logoHash = _logoHash;\n    }\n}",
  "sourcePath": "/home/george/Documents/WorkSpace/TryAByte/contracts/Restaurant.sol",
  "compiler": {
    "name": "solc",
    "version": "0.5.0+commit.1d4f565a.Emscripten.clang"
  },
  "schemaVersion": "3.0.6",
  "updatedAt": "2019-11-26T13:09:41.019Z",
  "devdoc": {
    "methods": {}
  },
  "userdoc": {
    "methods": {}
  }
}