{
  "contractName": "RiderFactory",
  "abi": [
    {
      "inputs": [
        {
          "internalType": "address",
          "name": "_controller",
          "type": "address"
        }
      ],
      "payable": false,
      "stateMutability": "nonpayable",
      "type": "constructor"
    },
    {
      "anonymous": false,
      "inputs": [
        {
          "indexed": true,
          "internalType": "address",
          "name": "riderAddress",
          "type": "address"
        },
        {
          "indexed": true,
          "internalType": "address",
          "name": "createrAddress",
          "type": "address"
        }
      ],
      "name": "RiderMade",
      "type": "event"
    },
    {
      "constant": true,
      "inputs": [],
      "name": "controller",
      "outputs": [
        {
          "internalType": "address",
          "name": "",
          "type": "address"
        }
      ],
      "payable": false,
      "stateMutability": "view",
      "type": "function"
    },
    {
      "constant": true,
      "inputs": [],
      "name": "owner",
      "outputs": [
        {
          "internalType": "address",
          "name": "",
          "type": "address"
        }
      ],
      "payable": false,
      "stateMutability": "view",
      "type": "function"
    },
    {
      "constant": true,
      "inputs": [],
      "name": "riderCount",
      "outputs": [
        {
          "internalType": "uint256",
          "name": "",
          "type": "uint256"
        }
      ],
      "payable": false,
      "stateMutability": "view",
      "type": "function"
    },
    {
      "constant": true,
      "inputs": [
        {
          "internalType": "uint256",
          "name": "",
          "type": "uint256"
        }
      ],
      "name": "riders0",
      "outputs": [
        {
          "internalType": "address",
          "name": "",
          "type": "address"
        }
      ],
      "payable": false,
      "stateMutability": "view",
      "type": "function"
    },
    {
      "constant": true,
      "inputs": [
        {
          "internalType": "address",
          "name": "",
          "type": "address"
        }
      ],
      "name": "riders1",
      "outputs": [
        {
          "internalType": "address",
          "name": "",
          "type": "address"
        }
      ],
      "payable": false,
      "stateMutability": "view",
      "type": "function"
    },
    {
      "constant": true,
      "inputs": [
        {
          "internalType": "address",
          "name": "",
          "type": "address"
        }
      ],
      "name": "riders2",
      "outputs": [
        {
          "internalType": "address",
          "name": "",
          "type": "address"
        }
      ],
      "payable": false,
      "stateMutability": "view",
      "type": "function"
    },
    {
      "constant": false,
      "inputs": [],
      "name": "makeRider",
      "outputs": [
        {
          "internalType": "address",
          "name": "customer",
          "type": "address"
        }
      ],
      "payable": false,
      "stateMutability": "nonpayable",
      "type": "function"
    },
    {
      "constant": true,
      "inputs": [
        {
          "internalType": "address",
          "name": "rider",
          "type": "address"
        }
      ],
      "name": "riderExists",
      "outputs": [
        {
          "internalType": "bool",
          "name": "exists",
          "type": "bool"
        }
      ],
      "payable": false,
      "stateMutability": "view",
      "type": "function"
    },
    {
      "constant": false,
      "inputs": [],
      "name": "reset",
      "outputs": [],
      "payable": false,
      "stateMutability": "nonpayable",
      "type": "function"
    }
  ],
  "bytecode": "0x608060405234801561001057600080fd5b506040516109b53803806109b58339818101604052602081101561003357600080fd5b5051600180546001600160a01b039092166001600160a01b03199283161790556000805490911633178155600255610945806100706000396000f3fe608060405234801561001057600080fd5b50600436106100935760003560e01c8063a43f411111610066578063a43f411114610124578063aa3492391461013e578063c9362cb91461015b578063d826f88f14610181578063f77c47911461018b57610093565b806313952670146100985780632b2b0b0d146100d257806353e9f8e0146100f65780638da5cb5b1461011c575b600080fd5b6100be600480360360208110156100ae57600080fd5b50356001600160a01b0316610193565b604080519115158252519081900360200190f35b6100da6101c6565b604080516001600160a01b039092168252519081900360200190f35b6100da6004803603602081101561010c57600080fd5b50356001600160a01b03166102d7565b6100da6102f2565b61012c610301565b60408051918252519081900360200190f35b6100da6004803603602081101561015457600080fd5b5035610307565b6100da6004803603602081101561017157600080fd5b50356001600160a01b0316610322565b61018961033d565b005b6100da6103c1565b6001600160a01b03818116600090815260046020526040812054909116156101bd575060016101c1565b5060005b919050565b336000908152600560205260408120546001600160a01b0316156101e957600080fd5b6002546001546040516000929133916001600160a01b039091169061020d906103d0565b9283526001600160a01b039182166020840152166040808301919091525190819003606001906000f080158015610248573d6000803e3d6000fd5b506001600160a01b03811660008181526004602090815260408083208054336001600160a01b031991821681179092558185526005845282852080548216871790556002805486526003909452828520805490911686179055825460010190925551939450927f774807777626d19d23f691f9b712c34a898582836153c143540f15bf5764fa409190a3905090565b6004602052600090815260409020546001600160a01b031681565b6000546001600160a01b031681565b60025481565b6003602052600090815260409020546001600160a01b031681565b6005602052600090815260409020546001600160a01b031681565b6001546001600160a01b0316331461035457600080fd5b60005b6002548110156103be57600081815260036020908152604080832080546001600160a01b0380821686526004855283862080546001600160a01b03199384169094558054831690559190911684526005909252822080549091169055600255600101610357565b50565b6001546001600160a01b031681565b610533806103de8339019056fe608060405234801561001057600080fd5b506040516105333803806105338339818101604052606081101561003357600080fd5b5080516020820151604090920151600291909155600080546001600160a01b039384166001600160a01b0319918216178255600180549490931693169290921790556003556104ac806100876000396000f3fe6080604052600436106100705760003560e01c80637e55d59c1161004e5780637e55d59c146100cd5780638da5cb5b14610106578063af640d0f14610137578063d09ef2411461014c57610070565b80631b9265b8146100725780631d8344091461007a578063761b5bd2146100a1575b005b610070610176565b34801561008657600080fd5b5061008f6101be565b60408051918252519081900360200190f35b610070600480360360408110156100b757600080fd5b506001600160a01b0381351690602001356101c4565b3480156100d957600080fd5b50610070600480360360408110156100f057600080fd5b506001600160a01b0381351690602001356103b5565b34801561011257600080fd5b5061011b61042e565b604080516001600160a01b039092168252519081900360200190f35b34801561014357600080fd5b5061008f61043d565b34801561015857600080fd5b5061011b6004803603602081101561016f57600080fd5b5035610443565b6005805434908101909155600080546040516001600160a01b039091169280156108fc0292909190818181858888f193505050501580156101bb573d6000803e3d6000fd5b50565b60035481565b6000546001600160a01b031633146101db57600080fd5b60008290506000816001600160a01b031663bd3e19d46040518163ffffffff1660e01b815260040160206040518083038186803b15801561021b57600080fd5b505afa15801561022f573d6000803e3d6000fd5b505050506040513d602081101561024557600080fd5b505190503481111561029e576040805162461bcd60e51b815260206004820152601d60248201527f6465706f7369742076616c7565206e6f74206869676820656e6f756768000000604482015290519081900360640190fd5b803411156102e557600080546040516001600160a01b03909116913484900380156108fc02929091818181858888f193505050501580156102e3573d6000803e3d6000fd5b505b816001600160a01b031663f90a92e382856040518363ffffffff1660e01b8152600401808281526020019150506000604051808303818588803b15801561032b57600080fd5b505af115801561033f573d6000803e3d6000fd5b505060035460009081526004602090815260409182902080546001600160a01b0319166001600160a01b038b16908117909155825190815291517faca812ac98be09141c2d6de4091ef0635d51c00ecd65eb8753b772be89a978dc9550918290030192509050a150506003805460010190555050565b6000546001600160a01b031633146103cc57600080fd5b816001600160a01b031663e9132c42826040518263ffffffff1660e01b815260040180828152602001915050600060405180830381600087803b15801561041257600080fd5b505af1158015610426573d6000803e3d6000fd5b505050505050565b6000546001600160a01b031681565b60025481565b600080546001600160a01b0316331461045b57600080fd5b506000908152600460205260409020546001600160a01b03169056fea265627a7a72315820e6b620eba6cb4fe76a206f3b2e8903275e47be487775e4e23c950740d0e2039164736f6c634300050c0032a265627a7a72315820692633bd14747965d3fd8d11ca77713c8b9f81163b354d57b1bc8e1d64d9f62a64736f6c634300050c0032",
  "source": "pragma solidity ^0.5.0;\r\n\r\nimport \"./Rider.sol\";\r\n\r\ncontract RiderFactory {\r\n    address public owner;\r\n    address public controller;\r\n    \r\n    uint public riderCount;\r\n    mapping(uint => address) public riders0; // ids to contract address\r\n    mapping(address => address) public riders1; // contract address to owner addresses, // todo check if need this\r\n    mapping(address => address) public riders2; // owner addresses to contract addresses\r\n   \r\n    event RiderMade(address indexed riderAddress, address indexed createrAddress);\r\n\r\n    constructor(address _controller) public\r\n    {\r\n        controller = _controller;\r\n        owner = msg.sender;\r\n        riderCount = 0;\r\n    }\r\n    \r\n    function makeRider() external returns(address customer){\r\n        require(riders2[msg.sender] == address(0x0)); // the rider must not already be signed up\r\n        Rider newRider = new Rider(riderCount, msg.sender, controller);\r\n        riders1[address(newRider)] = msg.sender;\r\n        riders2[msg.sender] = address(newRider);\r\n        riders0[riderCount] = address(newRider);\r\n        riderCount++;\r\n\r\n        emit RiderMade(address(newRider),msg.sender);\r\n\r\n        return address(newRider);\r\n    }\r\n\r\n    function riderExists(address rider) public view returns(bool exists){\r\n        if(riders1[rider] != address(0x0))\r\n            return true;\r\n        else\r\n            return false;\r\n    }\r\n\r\n    function reset() public {\r\n        require(msg.sender == controller);\r\n        for(uint i = 0; i < riderCount; i++){\r\n            address currentContract = riders0[i];\r\n            address currentOwnAddress = riders1[currentContract];\r\n\r\n            delete riders0[i];\r\n            delete riders1[currentContract];\r\n            delete riders2[currentOwnAddress];\r\n\r\n            riderCount = 0;\r\n        }\r\n    }\r\n}",
  "sourcePath": "/home/george/Documents/WorkSpace/TryAByte/contracts/RiderFactory.sol",
  "compiler": {
    "name": "solc",
    "version": "0.5.12+commit.7709ece9.Emscripten.clang"
  },
  "schemaVersion": "3.0.19",
  "updatedAt": "2019-12-20T15:38:34.696Z",
  "networkType": "ethereum",
  "devdoc": {
    "methods": {}
  },
  "userdoc": {
    "methods": {}
  }
}