{
  "contractName": "RiderFactory",
  "abi": [
    {
      "constant": true,
      "inputs": [
        {
          "name": "",
          "type": "address"
        }
      ],
      "name": "riders1",
      "outputs": [
        {
          "name": "",
          "type": "address"
        }
      ],
      "payable": false,
      "stateMutability": "view",
      "type": "function",
      "signature": "0x53e9f8e0"
    },
    {
      "constant": true,
      "inputs": [],
      "name": "owner",
      "outputs": [
        {
          "name": "",
          "type": "address"
        }
      ],
      "payable": false,
      "stateMutability": "view",
      "type": "function",
      "signature": "0x8da5cb5b"
    },
    {
      "constant": true,
      "inputs": [],
      "name": "riderCount",
      "outputs": [
        {
          "name": "",
          "type": "uint256"
        }
      ],
      "payable": false,
      "stateMutability": "view",
      "type": "function",
      "signature": "0xa43f4111"
    },
    {
      "constant": true,
      "inputs": [
        {
          "name": "",
          "type": "uint256"
        }
      ],
      "name": "riders0",
      "outputs": [
        {
          "name": "",
          "type": "address"
        }
      ],
      "payable": false,
      "stateMutability": "view",
      "type": "function",
      "signature": "0xaa349239"
    },
    {
      "constant": true,
      "inputs": [
        {
          "name": "",
          "type": "address"
        }
      ],
      "name": "riders2",
      "outputs": [
        {
          "name": "",
          "type": "address"
        }
      ],
      "payable": false,
      "stateMutability": "view",
      "type": "function",
      "signature": "0xc9362cb9"
    },
    {
      "constant": true,
      "inputs": [],
      "name": "controller",
      "outputs": [
        {
          "name": "",
          "type": "address"
        }
      ],
      "payable": false,
      "stateMutability": "view",
      "type": "function",
      "signature": "0xf77c4791"
    },
    {
      "inputs": [
        {
          "name": "_controller",
          "type": "address"
        }
      ],
      "payable": false,
      "stateMutability": "nonpayable",
      "type": "constructor",
      "signature": "constructor"
    },
    {
      "anonymous": false,
      "inputs": [
        {
          "indexed": true,
          "name": "riderAddress",
          "type": "address"
        },
        {
          "indexed": true,
          "name": "createrAddress",
          "type": "address"
        }
      ],
      "name": "RiderMade",
      "type": "event",
      "signature": "0x774807777626d19d23f691f9b712c34a898582836153c143540f15bf5764fa40"
    },
    {
      "constant": false,
      "inputs": [],
      "name": "makeRider",
      "outputs": [
        {
          "name": "customer",
          "type": "address"
        }
      ],
      "payable": false,
      "stateMutability": "nonpayable",
      "type": "function",
      "signature": "0x2b2b0b0d"
    },
    {
      "constant": true,
      "inputs": [
        {
          "name": "rider",
          "type": "address"
        }
      ],
      "name": "riderExists",
      "outputs": [
        {
          "name": "exists",
          "type": "bool"
        }
      ],
      "payable": false,
      "stateMutability": "view",
      "type": "function",
      "signature": "0x13952670"
    },
    {
      "constant": false,
      "inputs": [],
      "name": "reset",
      "outputs": [],
      "payable": false,
      "stateMutability": "nonpayable",
      "type": "function",
      "signature": "0xd826f88f"
    }
  ],
  "bytecode": "0x608060405234801561001057600080fd5b50604051602080610a568339810180604052602081101561003057600080fd5b505160018054600160a060020a03909216600160a060020a031992831617905560008054909116331781556002556109e98061006d6000396000f3fe6080604052600436106100985763ffffffff7c010000000000000000000000000000000000000000000000000000000060003504166313952670811461009d5780632b2b0b0d146100e457806353e9f8e0146101155780638da5cb5b14610148578063a43f41111461015d578063aa34923914610184578063c9362cb9146101ae578063d826f88f146101e1578063f77c4791146101f8575b600080fd5b3480156100a957600080fd5b506100d0600480360360208110156100c057600080fd5b5035600160a060020a031661020d565b604080519115158252519081900360200190f35b3480156100f057600080fd5b506100f9610240565b60408051600160a060020a039092168252519081900360200190f35b34801561012157600080fd5b506100f96004803603602081101561013857600080fd5b5035600160a060020a0316610357565b34801561015457600080fd5b506100f9610372565b34801561016957600080fd5b50610172610381565b60408051918252519081900360200190f35b34801561019057600080fd5b506100f9600480360360208110156101a757600080fd5b5035610387565b3480156101ba57600080fd5b506100f9600480360360208110156101d157600080fd5b5035600160a060020a03166103a2565b3480156101ed57600080fd5b506101f66103bd565b005b34801561020457600080fd5b506100f961044e565b600160a060020a03818116600090815260046020526040812054909116156102375750600161023b565b5060005b919050565b33600090815260056020526040812054600160a060020a03161561026357600080fd5b600254600154600091903390600160a060020a031661028061045d565b928352600160a060020a039182166020840152166040808301919091525190819003606001906000f0801580156102bb573d6000803e3d6000fd5b50600160a060020a038116600081815260046020908152604080832080543373ffffffffffffffffffffffffffffffffffffffff1991821681179092558185526005845282852080548216871790556002805486526003909452828520805490911686179055825460010190925551939450927f774807777626d19d23f691f9b712c34a898582836153c143540f15bf5764fa409190a3905090565b600460205260009081526040902054600160a060020a031681565b600054600160a060020a031681565b60025481565b600360205260009081526040902054600160a060020a031681565b600560205260009081526040902054600160a060020a031681565b600154600160a060020a031633146103d457600080fd5b60005b60025481101561044b5760008181526003602090815260408083208054600160a060020a03808216865260048552838620805473ffffffffffffffffffffffffffffffffffffffff1993841690945580548316905591909116845260059092528220805490911690556002556001016103d7565b50565b600154600160a060020a031681565b6040516105508061046e8339019056fe608060405234801561001057600080fd5b506040516060806105508339810180604052606081101561003057600080fd5b508051602082015160409092015160029190915560008054600160a060020a03938416600160a060020a0319918216178255600180549490931693169290921790556003556104cc806100846000396000f3fe6080604052600436106100695763ffffffff60e060020a6000350416631b9265b8811461006b5780631d83440914610073578063761b5bd21461009a5780637e55d59c146100c65780638da5cb5b146100ff578063af640d0f14610130578063d09ef24114610145575b005b61006961016f565b34801561007f57600080fd5b506100886101b7565b60408051918252519081900360200190f35b610069600480360360408110156100b057600080fd5b50600160a060020a0381351690602001356101bd565b3480156100d257600080fd5b50610069600480360360408110156100e957600080fd5b50600160a060020a0381351690602001356103db565b34801561010b57600080fd5b50610114610457565b60408051600160a060020a039092168252519081900360200190f35b34801561013c57600080fd5b50610088610466565b34801561015157600080fd5b506101146004803603602081101561016857600080fd5b503561046c565b600580543490810190915560008054604051600160a060020a039091169280156108fc0292909190818181858888f193505050501580156101b4573d6000803e3d6000fd5b50565b60035481565b600054600160a060020a031633146101d457600080fd5b6000829050600081600160a060020a031663bd3e19d46040518163ffffffff1660e060020a02815260040160206040518083038186803b15801561021757600080fd5b505afa15801561022b573d6000803e3d6000fd5b505050506040513d602081101561024157600080fd5b50519050348111156102b457604080517f08c379a000000000000000000000000000000000000000000000000000000000815260206004820152601d60248201527f6465706f7369742076616c7565206e6f74206869676820656e6f756768000000604482015290519081900360640190fd5b803411156102fb5760008054604051600160a060020a03909116913484900380156108fc02929091818181858888f193505050501580156102f9573d6000803e3d6000fd5b505b81600160a060020a031663f90a92e382856040518363ffffffff1660e060020a028152600401808281526020019150506000604051808303818588803b15801561034457600080fd5b505af1158015610358573d6000803e3d6000fd5b5050600354600090815260046020908152604091829020805473ffffffffffffffffffffffffffffffffffffffff1916600160a060020a038b16908117909155825190815291517faca812ac98be09141c2d6de4091ef0635d51c00ecd65eb8753b772be89a978dc9550918290030192509050a150506003805460010190555050565b600054600160a060020a031633146103f257600080fd5b81600160a060020a031663e9132c42826040518263ffffffff1660e060020a02815260040180828152602001915050600060405180830381600087803b15801561043b57600080fd5b505af115801561044f573d6000803e3d6000fd5b505050505050565b600054600160a060020a031681565b60025481565b60008054600160a060020a0316331461048457600080fd5b50600090815260046020526040902054600160a060020a03169056fea165627a7a72305820db3e4e657713953c5c04252089d6fa60190009071839323f8c651295a0f48ecd0029a165627a7a72305820228ba76a2950bcf231b9435dc955bd5395d7a872e841b5c52c98c0b4f6fcb9310029",
  "source": "pragma solidity ^0.5.0;\r\n\r\nimport \"./Rider.sol\";\r\n\r\ncontract RiderFactory {\r\n    address public owner;\r\n    address public controller;\r\n    \r\n    uint public riderCount;\r\n    mapping(uint => address) public riders0; // ids to contract address\r\n    mapping(address => address) public riders1; // contract address to owner addresses, // todo check if need this\r\n    mapping(address => address) public riders2; // owner addresses to contract addresses\r\n   \r\n    event RiderMade(address indexed riderAddress, address indexed createrAddress);\r\n\r\n    constructor(address _controller) public\r\n    {\r\n        controller = _controller;\r\n        owner = msg.sender;\r\n        riderCount = 0;\r\n    }\r\n    \r\n    function makeRider() external returns(address customer){\r\n        require(riders2[msg.sender] == address(0x0)); // the rider must not already be signed up\r\n        Rider newRider = new Rider(riderCount, msg.sender, controller);\r\n        riders1[address(newRider)] = msg.sender;\r\n        riders2[msg.sender] = address(newRider);\r\n        riders0[riderCount] = address(newRider);\r\n        riderCount++;\r\n\r\n        emit RiderMade(address(newRider),msg.sender);\r\n\r\n        return address(newRider);\r\n    }\r\n\r\n    function riderExists(address rider) public view returns(bool exists){\r\n        if(riders1[rider] != address(0x0))\r\n            return true;\r\n        else\r\n            return false;\r\n    }\r\n\r\n    function reset() public {\r\n        require(msg.sender == controller);\r\n        for(uint i = 0; i < riderCount; i++){\r\n            address currentContract = riders0[i];\r\n            address currentOwnAddress = riders1[currentContract];\r\n\r\n            delete riders0[i];\r\n            delete riders1[currentContract];\r\n            delete riders2[currentOwnAddress];\r\n\r\n            riderCount = 0;\r\n        }\r\n    }\r\n}",
  "sourcePath": "/home/george/Documents/TryAByte/contracts/RiderFactory.sol",
  "compiler": {
    "name": "solc",
    "version": "0.5.0+commit.1d4f565a.Emscripten.clang"
  },
  "schemaVersion": "3.0.6",
  "updatedAt": "2019-10-08T11:06:08.323Z",
  "devdoc": {
    "methods": {}
  },
  "userdoc": {
    "methods": {}
  }
}