{
  "contractName": "Rider",
  "abi": [
    {
      "inputs": [
        {
          "internalType": "uint256",
          "name": "_id",
          "type": "uint256"
        },
        {
          "internalType": "address payable",
          "name": "_owner",
          "type": "address"
        },
        {
          "internalType": "address",
          "name": "_controller",
          "type": "address"
        }
      ],
      "payable": false,
      "stateMutability": "nonpayable",
      "type": "constructor"
    },
    {
      "anonymous": false,
      "inputs": [
        {
          "indexed": false,
          "internalType": "address",
          "name": "orderAddress",
          "type": "address"
        }
      ],
      "name": "deliveryOfferedEvent",
      "type": "event"
    },
    {
      "payable": true,
      "stateMutability": "payable",
      "type": "fallback"
    },
    {
      "constant": true,
      "inputs": [],
      "name": "id",
      "outputs": [
        {
          "internalType": "uint256",
          "name": "",
          "type": "uint256"
        }
      ],
      "payable": false,
      "stateMutability": "view",
      "type": "function"
    },
    {
      "constant": true,
      "inputs": [],
      "name": "owner",
      "outputs": [
        {
          "internalType": "address payable",
          "name": "",
          "type": "address"
        }
      ],
      "payable": false,
      "stateMutability": "view",
      "type": "function"
    },
    {
      "constant": true,
      "inputs": [],
      "name": "totalOrders",
      "outputs": [
        {
          "internalType": "uint256",
          "name": "",
          "type": "uint256"
        }
      ],
      "payable": false,
      "stateMutability": "view",
      "type": "function"
    },
    {
      "constant": false,
      "inputs": [
        {
          "internalType": "address",
          "name": "orderAddress",
          "type": "address"
        },
        {
          "internalType": "bytes32",
          "name": "keyHash",
          "type": "bytes32"
        }
      ],
      "name": "offerDelivery",
      "outputs": [],
      "payable": true,
      "stateMutability": "payable",
      "type": "function"
    },
    {
      "constant": false,
      "inputs": [
        {
          "internalType": "address",
          "name": "orderAddress",
          "type": "address"
        },
        {
          "internalType": "uint256",
          "name": "status",
          "type": "uint256"
        }
      ],
      "name": "setStatus",
      "outputs": [],
      "payable": false,
      "stateMutability": "nonpayable",
      "type": "function"
    },
    {
      "constant": true,
      "inputs": [
        {
          "internalType": "uint256",
          "name": "_id",
          "type": "uint256"
        }
      ],
      "name": "getOrder",
      "outputs": [
        {
          "internalType": "address",
          "name": "orderAddress",
          "type": "address"
        }
      ],
      "payable": false,
      "stateMutability": "view",
      "type": "function"
    },
    {
      "constant": false,
      "inputs": [],
      "name": "pay",
      "outputs": [],
      "payable": true,
      "stateMutability": "payable",
      "type": "function"
    }
  ],
  "bytecode": "0x608060405234801561001057600080fd5b506040516105333803806105338339818101604052606081101561003357600080fd5b5080516020820151604090920151600291909155600080546001600160a01b039384166001600160a01b0319918216178255600180549490931693169290921790556003556104ac806100876000396000f3fe6080604052600436106100705760003560e01c80637e55d59c1161004e5780637e55d59c146100cd5780638da5cb5b14610106578063af640d0f14610137578063d09ef2411461014c57610070565b80631b9265b8146100725780631d8344091461007a578063761b5bd2146100a1575b005b610070610176565b34801561008657600080fd5b5061008f6101be565b60408051918252519081900360200190f35b610070600480360360408110156100b757600080fd5b506001600160a01b0381351690602001356101c4565b3480156100d957600080fd5b50610070600480360360408110156100f057600080fd5b506001600160a01b0381351690602001356103b5565b34801561011257600080fd5b5061011b61042e565b604080516001600160a01b039092168252519081900360200190f35b34801561014357600080fd5b5061008f61043d565b34801561015857600080fd5b5061011b6004803603602081101561016f57600080fd5b5035610443565b6005805434908101909155600080546040516001600160a01b039091169280156108fc0292909190818181858888f193505050501580156101bb573d6000803e3d6000fd5b50565b60035481565b6000546001600160a01b031633146101db57600080fd5b60008290506000816001600160a01b031663bd3e19d46040518163ffffffff1660e01b815260040160206040518083038186803b15801561021b57600080fd5b505afa15801561022f573d6000803e3d6000fd5b505050506040513d602081101561024557600080fd5b505190503481111561029e576040805162461bcd60e51b815260206004820152601d60248201527f6465706f7369742076616c7565206e6f74206869676820656e6f756768000000604482015290519081900360640190fd5b803411156102e557600080546040516001600160a01b03909116913484900380156108fc02929091818181858888f193505050501580156102e3573d6000803e3d6000fd5b505b816001600160a01b031663f90a92e382856040518363ffffffff1660e01b8152600401808281526020019150506000604051808303818588803b15801561032b57600080fd5b505af115801561033f573d6000803e3d6000fd5b505060035460009081526004602090815260409182902080546001600160a01b0319166001600160a01b038b16908117909155825190815291517faca812ac98be09141c2d6de4091ef0635d51c00ecd65eb8753b772be89a978dc9550918290030192509050a150506003805460010190555050565b6000546001600160a01b031633146103cc57600080fd5b816001600160a01b031663e9132c42826040518263ffffffff1660e01b815260040180828152602001915050600060405180830381600087803b15801561041257600080fd5b505af1158015610426573d6000803e3d6000fd5b505050505050565b6000546001600160a01b031681565b60025481565b600080546001600160a01b0316331461045b57600080fd5b506000908152600460205260409020546001600160a01b03169056fea265627a7a7231582080f53c4b96558e7e53d0180453b95b5284fc8de9b17c281530780b4267a0ceb064736f6c634300050c0032",
  "source": "pragma solidity ^0.5.0;\r\n\r\nimport \"./Order.sol\";\r\n\r\n// this should be done with inheritance for riders and customers\r\ncontract Rider {\r\n    \r\n    address payable public owner;\r\n    address controller; // do you even need this?\r\n\r\n    uint public id;\r\n\r\n    uint public totalOrders;\r\n    mapping(uint => address) orders; // maybe change this to store order states??\r\n\r\n    uint totalPay;\r\n\r\n    enum riderState{unassigned, accepted, hasCargo, Delivered}\r\n\r\n    event deliveryOfferedEvent(address orderAddress);\r\n    \r\n    constructor(uint _id, address payable _owner, address _controller) public\r\n    {\r\n        id = _id;\r\n        owner = _owner; // this needs changing to the origin of the call\r\n        controller = _controller;\r\n        totalOrders = 0;\r\n    }\r\n    \r\n    // this function should be payable\r\n    function offerDelivery(address orderAddress,bytes32 keyHash) public payable{\r\n        require(msg.sender == owner);\r\n        Order orderInstance = Order(orderAddress);\r\n        uint cost = orderInstance.getCost();\r\n        require(msg.value >= cost, \"deposit value not high enough\");\r\n        if(msg.value > cost){\r\n            owner.transfer(msg.value - cost);\r\n        }\r\n\r\n        orderInstance.riderOfferDelivery.value(cost)(keyHash);\r\n        orders[totalOrders] = orderAddress;\r\n\r\n        emit deliveryOfferedEvent(orderAddress);\r\n\r\n        totalOrders++;\r\n    }\r\n\r\n    // could modify to send restaurant id + order id to reduce gas cost, maybe??\r\n    function setStatus(address orderAddress,uint status) public {\r\n        require(msg.sender == owner);\r\n        Order(orderAddress).setOrderStatus(status);\r\n    }\r\n\r\n    function getOrder(uint _id) public view returns(address orderAddress){\r\n        require(msg.sender == owner);\r\n        return orders[_id];\r\n    }\r\n\r\n    function pay() external payable {\r\n        totalPay += msg.value;\r\n        owner.transfer(msg.value);\r\n    } \r\n\r\n    function() external payable {\r\n    } \r\n}",
  "sourcePath": "/home/george/Documents/WorkSpace/TryAByte/contracts/Rider.sol",
  "compiler": {
    "name": "solc",
    "version": "0.5.12+commit.7709ece9.Emscripten.clang"
  },
  "schemaVersion": "3.0.19",
  "updatedAt": "2020-01-16T16:39:35.499Z",
  "devdoc": {
    "methods": {}
  },
  "userdoc": {
    "methods": {}
  }
}