{
  "contractName": "RiderFactory",
  "abi": [
    {
      "constant": true,
      "inputs": [
        {
          "name": "",
          "type": "address"
        }
      ],
      "name": "riders1",
      "outputs": [
        {
          "name": "",
          "type": "address"
        }
      ],
      "payable": false,
      "stateMutability": "view",
      "type": "function",
      "signature": "0x53e9f8e0"
    },
    {
      "constant": true,
      "inputs": [],
      "name": "owner",
      "outputs": [
        {
          "name": "",
          "type": "address"
        }
      ],
      "payable": false,
      "stateMutability": "view",
      "type": "function",
      "signature": "0x8da5cb5b"
    },
    {
      "constant": true,
      "inputs": [],
      "name": "riderCount",
      "outputs": [
        {
          "name": "",
          "type": "uint256"
        }
      ],
      "payable": false,
      "stateMutability": "view",
      "type": "function",
      "signature": "0xa43f4111"
    },
    {
      "constant": true,
      "inputs": [
        {
          "name": "",
          "type": "uint256"
        }
      ],
      "name": "riders0",
      "outputs": [
        {
          "name": "",
          "type": "address"
        }
      ],
      "payable": false,
      "stateMutability": "view",
      "type": "function",
      "signature": "0xaa349239"
    },
    {
      "constant": true,
      "inputs": [
        {
          "name": "",
          "type": "address"
        }
      ],
      "name": "riders2",
      "outputs": [
        {
          "name": "",
          "type": "address"
        }
      ],
      "payable": false,
      "stateMutability": "view",
      "type": "function",
      "signature": "0xc9362cb9"
    },
    {
      "constant": true,
      "inputs": [],
      "name": "controller",
      "outputs": [
        {
          "name": "",
          "type": "address"
        }
      ],
      "payable": false,
      "stateMutability": "view",
      "type": "function",
      "signature": "0xf77c4791"
    },
    {
      "inputs": [
        {
          "name": "_controller",
          "type": "address"
        }
      ],
      "payable": false,
      "stateMutability": "nonpayable",
      "type": "constructor",
      "signature": "constructor"
    },
    {
      "constant": false,
      "inputs": [
        {
          "name": "name",
          "type": "string"
        },
        {
          "name": "contactNumber",
          "type": "string"
        }
      ],
      "name": "makeRider",
      "outputs": [
        {
          "name": "customer",
          "type": "address"
        }
      ],
      "payable": false,
      "stateMutability": "nonpayable",
      "type": "function",
      "signature": "0x3e54883c"
    },
    {
      "constant": true,
      "inputs": [
        {
          "name": "rider",
          "type": "address"
        }
      ],
      "name": "riderExists",
      "outputs": [
        {
          "name": "exists",
          "type": "bool"
        }
      ],
      "payable": false,
      "stateMutability": "view",
      "type": "function",
      "signature": "0x13952670"
    }
  ],
  "bytecode": "0x608060405234801561001057600080fd5b50604051602080610d338339810180604052602081101561003057600080fd5b505160018054600160a060020a03909216600160a060020a03199283161790556000805490911633178155600255610cc68061006d6000396000f3fe60806040526004361061008d5763ffffffff7c01000000000000000000000000000000000000000000000000000000006000350416631395267081146100925780633e54883c146100d957806353e9f8e0146101c45780638da5cb5b146101f7578063a43f41111461020c578063aa34923914610233578063c9362cb91461025d578063f77c479114610290575b600080fd5b34801561009e57600080fd5b506100c5600480360360208110156100b557600080fd5b5035600160a060020a03166102a5565b604080519115158252519081900360200190f35b3480156100e557600080fd5b506101a8600480360360408110156100fc57600080fd5b81019060208101813564010000000081111561011757600080fd5b82018360208201111561012957600080fd5b8035906020019184600183028401116401000000008311171561014b57600080fd5b91939092909160208101903564010000000081111561016957600080fd5b82018360208201111561017b57600080fd5b8035906020019184600183028401116401000000008311171561019d57600080fd5b5090925090506102d8565b60408051600160a060020a039092168252519081900360200190f35b3480156101d057600080fd5b506101a8600480360360208110156101e757600080fd5b5035600160a060020a0316610430565b34801561020357600080fd5b506101a861044b565b34801561021857600080fd5b5061022161045a565b60408051918252519081900360200190f35b34801561023f57600080fd5b506101a86004803603602081101561025657600080fd5b5035610460565b34801561026957600080fd5b506101a86004803603602081101561028057600080fd5b5035600160a060020a031661047b565b34801561029c57600080fd5b506101a8610496565b600160a060020a03818116600090815260046020526040812054909116156102cf575060016102d3565b5060005b919050565b33600090815260056020526040812054600160a060020a0316156102fb57600080fd5b60006002548686868633600160009054906101000a9004600160a060020a03166103236104a5565b878152600160a060020a0380841660608301528216608082015260a0602082018181529082018790526040820160c08301898980828437600083820152601f01601f1916909101848103835287815260200190508787808284376000838201819052604051601f909201601f19169093018190039c509a509098505050505050505050f0801580156103b9573d6000803e3d6000fd5b50600160a060020a038116600081815260046020908152604080832080543373ffffffffffffffffffffffffffffffffffffffff1991821681179092559084526005835281842080548216861790556002805485526003909352922080549092169092179055805460010190559695505050505050565b600460205260009081526040902054600160a060020a031681565b600054600160a060020a031681565b60025481565b600360205260009081526040902054600160a060020a031681565b600560205260009081526040902054600160a060020a031681565b600154600160a060020a031681565b6040516107e5806104b68339019056fe608060405234801561001057600080fd5b506040516107e53803806107e5833981018060405260a081101561003357600080fd5b81516020830180519193928301929164010000000081111561005457600080fd5b8201602081018481111561006757600080fd5b815164010000000081118282018710171561008157600080fd5b5050929190602001805164010000000081111561009d57600080fd5b820160208101848111156100b057600080fd5b81516401000000008111828201871017156100ca57600080fd5b5050602080830151604090930151600288905586519295509293506100f491600391870190610144565b508251610108906004906020860190610144565b5060008054600160a060020a03938416600160a060020a03199182161782556001805493909416921691909117909155600555506101df915050565b828054600181600116156101000203166002900490600052602060002090601f016020900481019282601f1061018557805160ff19168380011785556101b2565b828001600101855582156101b2579182015b828111156101b2578251825591602001919060010190610197565b506101be9291506101c2565b5090565b6101dc91905b808211156101be57600081556001016101c8565b90565b6105f7806101ee6000396000f3fe6080604052600436106100745763ffffffff60e060020a6000350416631b9265b881146100765780631d8344091461007e578063761b5bd2146100a55780637e55d59c146100d15780638da5cb5b1461010a5780638ec3fda51461013b578063af640d0f146101c5578063d09ef241146101da575b005b610074610204565b34801561008a57600080fd5b5061009361024c565b60408051918252519081900360200190f35b610074600480360360408110156100bb57600080fd5b50600160a060020a038135169060200135610252565b3480156100dd57600080fd5b50610074600480360360408110156100f457600080fd5b50600160a060020a038135169060200135610470565b34801561011657600080fd5b5061011f6104ec565b60408051600160a060020a039092168252519081900360200190f35b34801561014757600080fd5b506101506104fb565b6040805160208082528351818301528351919283929083019185019080838360005b8381101561018a578181015183820152602001610172565b50505050905090810190601f1680156101b75780820380516001836020036101000a031916815260200191505b509250505060405180910390f35b3480156101d157600080fd5b50610093610591565b3480156101e657600080fd5b5061011f600480360360208110156101fd57600080fd5b5035610597565b600780543490810190915560008054604051600160a060020a039091169280156108fc0292909190818181858888f19350505050158015610249573d6000803e3d6000fd5b50565b60055481565b600054600160a060020a0316331461026957600080fd5b6000829050600081600160a060020a031663bd3e19d46040518163ffffffff1660e060020a02815260040160206040518083038186803b1580156102ac57600080fd5b505afa1580156102c0573d6000803e3d6000fd5b505050506040513d60208110156102d657600080fd5b505190503481111561034957604080517f08c379a000000000000000000000000000000000000000000000000000000000815260206004820152601d60248201527f6465706f7369742076616c7565206e6f74206869676820656e6f756768000000604482015290519081900360640190fd5b803411156103905760008054604051600160a060020a03909116913484900380156108fc02929091818181858888f1935050505015801561038e573d6000803e3d6000fd5b505b81600160a060020a031663f90a92e382856040518363ffffffff1660e060020a028152600401808281526020019150506000604051808303818588803b1580156103d957600080fd5b505af11580156103ed573d6000803e3d6000fd5b5050600554600090815260066020908152604091829020805473ffffffffffffffffffffffffffffffffffffffff1916600160a060020a038b16908117909155825190815291517faca812ac98be09141c2d6de4091ef0635d51c00ecd65eb8753b772be89a978dc9550918290030192509050a150506005805460010190555050565b600054600160a060020a0316331461048757600080fd5b81600160a060020a031663e9132c42826040518263ffffffff1660e060020a02815260040180828152602001915050600060405180830381600087803b1580156104d057600080fd5b505af11580156104e4573d6000803e3d6000fd5b505050505050565b600054600160a060020a031681565b60048054604080516020601f60026000196101006001881615020190951694909404938401819004810282018101909252828152606093909290918301828280156105875780601f1061055c57610100808354040283529160200191610587565b820191906000526020600020905b81548152906001019060200180831161056a57829003601f168201915b5050505050905090565b60025481565b60008054600160a060020a031633146105af57600080fd5b50600090815260066020526040902054600160a060020a03169056fea165627a7a72305820ece3c0e5dcd8d17c39edc16c141ab18e82c416f2b9811341a9480702841e56a40029a165627a7a723058203aa9cce8947ddfdcef39f6b3fa18d7f808b254b01ebd6387820d6bd8d364cca80029",
  "source": "pragma solidity ^0.5.0;\r\n\r\nimport \"./Rider.sol\";\r\n\r\ncontract RiderFactory {\r\n    address public owner;\r\n    address public controller;\r\n    \r\n    uint public riderCount;\r\n    mapping(uint => address) public riders0; // ids to contract address\r\n    mapping(address => address) public riders1; // contract address to owner addresses, // todo check if need this\r\n    mapping(address => address) public riders2; // owner addresses to contract addresses\r\n    \r\n    constructor(address _controller) public\r\n    {\r\n        controller = _controller;\r\n        owner = msg.sender;\r\n        riderCount = 0;\r\n    }\r\n    \r\n    function makeRider(string calldata name, string calldata contactNumber) external returns(address customer){\r\n        require(riders2[msg.sender] == address(0x0)); // the rider must not already be signed up\r\n        Rider newRider = new Rider(riderCount, name, contactNumber, msg.sender, controller);\r\n        riders1[address(newRider)] = msg.sender;\r\n        riders2[msg.sender] = address(newRider);\r\n        riders0[riderCount] = address(newRider);\r\n        riderCount++;\r\n        return address(newRider);\r\n    }\r\n\r\n    function riderExists(address rider) public view returns(bool exists){\r\n        if(riders1[rider] != address(0x0))\r\n            return true;\r\n        else\r\n            return false;\r\n    }\r\n}",
  "sourcePath": "/home/george/Documents/TryAByte/contracts/RiderFactory.sol",
  "compiler": {
    "name": "solc",
    "version": "0.5.0+commit.1d4f565a.Emscripten.clang"
  },
  "schemaVersion": "3.0.6",
  "updatedAt": "2019-04-15T09:41:25.435Z",
  "devdoc": {
    "methods": {}
  },
  "userdoc": {
    "methods": {}
  }
}