{
  "contractName": "Rider",
  "abi": [
    {
      "constant": true,
      "inputs": [],
      "name": "totalOrders",
      "outputs": [
        {
          "name": "",
          "type": "uint256"
        }
      ],
      "payable": false,
      "stateMutability": "view",
      "type": "function"
    },
    {
      "constant": true,
      "inputs": [],
      "name": "owner",
      "outputs": [
        {
          "name": "",
          "type": "address"
        }
      ],
      "payable": false,
      "stateMutability": "view",
      "type": "function"
    },
    {
      "constant": true,
      "inputs": [],
      "name": "id",
      "outputs": [
        {
          "name": "",
          "type": "uint256"
        }
      ],
      "payable": false,
      "stateMutability": "view",
      "type": "function"
    },
    {
      "inputs": [
        {
          "name": "_id",
          "type": "uint256"
        },
        {
          "name": "_owner",
          "type": "address"
        },
        {
          "name": "_controller",
          "type": "address"
        }
      ],
      "payable": false,
      "stateMutability": "nonpayable",
      "type": "constructor"
    },
    {
      "payable": true,
      "stateMutability": "payable",
      "type": "fallback"
    },
    {
      "anonymous": false,
      "inputs": [
        {
          "indexed": false,
          "name": "orderAddress",
          "type": "address"
        }
      ],
      "name": "deliveryOfferedEvent",
      "type": "event"
    },
    {
      "constant": false,
      "inputs": [
        {
          "name": "orderAddress",
          "type": "address"
        },
        {
          "name": "keyHash",
          "type": "bytes32"
        }
      ],
      "name": "offerDelivery",
      "outputs": [],
      "payable": true,
      "stateMutability": "payable",
      "type": "function"
    },
    {
      "constant": false,
      "inputs": [
        {
          "name": "orderAddress",
          "type": "address"
        },
        {
          "name": "status",
          "type": "uint256"
        }
      ],
      "name": "setStatus",
      "outputs": [],
      "payable": false,
      "stateMutability": "nonpayable",
      "type": "function"
    },
    {
      "constant": true,
      "inputs": [
        {
          "name": "_id",
          "type": "uint256"
        }
      ],
      "name": "getOrder",
      "outputs": [
        {
          "name": "orderAddress",
          "type": "address"
        }
      ],
      "payable": false,
      "stateMutability": "view",
      "type": "function"
    },
    {
      "constant": false,
      "inputs": [],
      "name": "pay",
      "outputs": [],
      "payable": true,
      "stateMutability": "payable",
      "type": "function"
    }
  ],
  "bytecode": "0x608060405234801561001057600080fd5b506040516060806105508339810180604052606081101561003057600080fd5b508051602082015160409092015160029190915560008054600160a060020a03938416600160a060020a0319918216178255600180549490931693169290921790556003556104cc806100846000396000f3fe6080604052600436106100695763ffffffff60e060020a6000350416631b9265b8811461006b5780631d83440914610073578063761b5bd21461009a5780637e55d59c146100c65780638da5cb5b146100ff578063af640d0f14610130578063d09ef24114610145575b005b61006961016f565b34801561007f57600080fd5b506100886101b7565b60408051918252519081900360200190f35b610069600480360360408110156100b057600080fd5b50600160a060020a0381351690602001356101bd565b3480156100d257600080fd5b50610069600480360360408110156100e957600080fd5b50600160a060020a0381351690602001356103db565b34801561010b57600080fd5b50610114610457565b60408051600160a060020a039092168252519081900360200190f35b34801561013c57600080fd5b50610088610466565b34801561015157600080fd5b506101146004803603602081101561016857600080fd5b503561046c565b600580543490810190915560008054604051600160a060020a039091169280156108fc0292909190818181858888f193505050501580156101b4573d6000803e3d6000fd5b50565b60035481565b600054600160a060020a031633146101d457600080fd5b6000829050600081600160a060020a031663bd3e19d46040518163ffffffff1660e060020a02815260040160206040518083038186803b15801561021757600080fd5b505afa15801561022b573d6000803e3d6000fd5b505050506040513d602081101561024157600080fd5b50519050348111156102b457604080517f08c379a000000000000000000000000000000000000000000000000000000000815260206004820152601d60248201527f6465706f7369742076616c7565206e6f74206869676820656e6f756768000000604482015290519081900360640190fd5b803411156102fb5760008054604051600160a060020a03909116913484900380156108fc02929091818181858888f193505050501580156102f9573d6000803e3d6000fd5b505b81600160a060020a031663f90a92e382856040518363ffffffff1660e060020a028152600401808281526020019150506000604051808303818588803b15801561034457600080fd5b505af1158015610358573d6000803e3d6000fd5b5050600354600090815260046020908152604091829020805473ffffffffffffffffffffffffffffffffffffffff1916600160a060020a038b16908117909155825190815291517faca812ac98be09141c2d6de4091ef0635d51c00ecd65eb8753b772be89a978dc9550918290030192509050a150506003805460010190555050565b600054600160a060020a031633146103f257600080fd5b81600160a060020a031663e9132c42826040518263ffffffff1660e060020a02815260040180828152602001915050600060405180830381600087803b15801561043b57600080fd5b505af115801561044f573d6000803e3d6000fd5b505050505050565b600054600160a060020a031681565b60025481565b60008054600160a060020a0316331461048457600080fd5b50600090815260046020526040902054600160a060020a03169056fea165627a7a7230582093f48fc51533712d38c12ed5208951cc4fb005caad5d4416113cb655c078a7960029",
  "source": "pragma solidity ^0.5.0;\r\n\r\nimport \"./Order.sol\";\r\n\r\n// this should be done with inheritance for riders and customers\r\ncontract Rider {\r\n    \r\n    address payable public owner;\r\n    address controller; // do you even need this?\r\n\r\n    uint public id;\r\n\r\n    uint public totalOrders;\r\n    mapping(uint => address) orders; // maybe change this to store order states??\r\n\r\n    uint totalPay;\r\n\r\n    enum riderState{unassigned, accepted, hasCargo, Delivered}\r\n\r\n    event deliveryOfferedEvent(address orderAddress);\r\n    \r\n    constructor(uint _id, address payable _owner, address _controller) public\r\n    {\r\n        id = _id;\r\n        owner = _owner; // this needs changing to the origin of the call\r\n        controller = _controller;\r\n        totalOrders = 0;\r\n    }\r\n    \r\n    // this function should be payable\r\n    function offerDelivery(address orderAddress,bytes32 keyHash) public payable{\r\n        require(msg.sender == owner);\r\n        Order orderInstance = Order(orderAddress);\r\n        uint cost = orderInstance.getCost();\r\n        require(msg.value >= cost, \"deposit value not high enough\");\r\n        if(msg.value > cost){\r\n            owner.transfer(msg.value - cost);\r\n        }\r\n\r\n        orderInstance.riderOfferDelivery.value(cost)(keyHash);\r\n        orders[totalOrders] = orderAddress;\r\n\r\n        emit deliveryOfferedEvent(orderAddress);\r\n\r\n        totalOrders++;\r\n    }\r\n\r\n    // could modify to send restaurant id + order id to reduce gas cost, maybe??\r\n    function setStatus(address orderAddress,uint status) public {\r\n        require(msg.sender == owner);\r\n        Order(orderAddress).setOrderStatus(status);\r\n    }\r\n\r\n    function getOrder(uint _id) public view returns(address orderAddress){\r\n        require(msg.sender == owner);\r\n        return orders[_id];\r\n    }\r\n\r\n    function pay() external payable {\r\n        totalPay += msg.value;\r\n        owner.transfer(msg.value);\r\n    } \r\n\r\n    function() external payable {\r\n    } \r\n}",
  "sourcePath": "/home/george/Documents/WorkSpace/TryAByte/contracts/Rider.sol",
  "compiler": {
    "name": "solc",
    "version": "0.5.0+commit.1d4f565a.Emscripten.clang"
  },
  "schemaVersion": "3.0.6",
  "updatedAt": "2019-10-10T13:16:41.441Z",
  "devdoc": {
    "methods": {}
  },
  "userdoc": {
    "methods": {}
  }
}