{
  "contractName": "Rider",
  "abi": [
    {
      "constant": true,
      "inputs": [],
      "name": "totalOrders",
      "outputs": [
        {
          "name": "",
          "type": "uint256"
        }
      ],
      "payable": false,
      "stateMutability": "view",
      "type": "function"
    },
    {
      "constant": true,
      "inputs": [],
      "name": "owner",
      "outputs": [
        {
          "name": "",
          "type": "address"
        }
      ],
      "payable": false,
      "stateMutability": "view",
      "type": "function"
    },
    {
      "constant": true,
      "inputs": [],
      "name": "id",
      "outputs": [
        {
          "name": "",
          "type": "uint256"
        }
      ],
      "payable": false,
      "stateMutability": "view",
      "type": "function"
    },
    {
      "inputs": [
        {
          "name": "_id",
          "type": "uint256"
        },
        {
          "name": "_name",
          "type": "string"
        },
        {
          "name": "_contactNumber",
          "type": "string"
        },
        {
          "name": "_owner",
          "type": "address"
        },
        {
          "name": "_controller",
          "type": "address"
        }
      ],
      "payable": false,
      "stateMutability": "nonpayable",
      "type": "constructor"
    },
    {
      "payable": true,
      "stateMutability": "payable",
      "type": "fallback"
    },
    {
      "anonymous": false,
      "inputs": [
        {
          "indexed": false,
          "name": "orderAddress",
          "type": "address"
        }
      ],
      "name": "deliveryOfferedEvent",
      "type": "event"
    },
    {
      "constant": false,
      "inputs": [
        {
          "name": "orderAddress",
          "type": "address"
        },
        {
          "name": "keyHash",
          "type": "bytes32"
        }
      ],
      "name": "offerDelivery",
      "outputs": [],
      "payable": true,
      "stateMutability": "payable",
      "type": "function"
    },
    {
      "constant": false,
      "inputs": [
        {
          "name": "orderAddress",
          "type": "address"
        },
        {
          "name": "status",
          "type": "uint256"
        }
      ],
      "name": "setStatus",
      "outputs": [],
      "payable": false,
      "stateMutability": "nonpayable",
      "type": "function"
    },
    {
      "constant": true,
      "inputs": [],
      "name": "getContactNumber",
      "outputs": [
        {
          "name": "_contactNumber",
          "type": "string"
        }
      ],
      "payable": false,
      "stateMutability": "view",
      "type": "function"
    },
    {
      "constant": true,
      "inputs": [
        {
          "name": "_id",
          "type": "uint256"
        }
      ],
      "name": "getOrder",
      "outputs": [
        {
          "name": "orderAddress",
          "type": "address"
        }
      ],
      "payable": false,
      "stateMutability": "view",
      "type": "function"
    },
    {
      "constant": false,
      "inputs": [],
      "name": "pay",
      "outputs": [],
      "payable": true,
      "stateMutability": "payable",
      "type": "function"
    }
  ],
  "bytecode": "0x608060405234801561001057600080fd5b506040516107e53803806107e5833981018060405260a081101561003357600080fd5b81516020830180519193928301929164010000000081111561005457600080fd5b8201602081018481111561006757600080fd5b815164010000000081118282018710171561008157600080fd5b5050929190602001805164010000000081111561009d57600080fd5b820160208101848111156100b057600080fd5b81516401000000008111828201871017156100ca57600080fd5b5050602080830151604090930151600288905586519295509293506100f491600391870190610144565b508251610108906004906020860190610144565b5060008054600160a060020a03938416600160a060020a03199182161782556001805493909416921691909117909155600555506101df915050565b828054600181600116156101000203166002900490600052602060002090601f016020900481019282601f1061018557805160ff19168380011785556101b2565b828001600101855582156101b2579182015b828111156101b2578251825591602001919060010190610197565b506101be9291506101c2565b5090565b6101dc91905b808211156101be57600081556001016101c8565b90565b6105f7806101ee6000396000f3fe6080604052600436106100745763ffffffff60e060020a6000350416631b9265b881146100765780631d8344091461007e578063761b5bd2146100a55780637e55d59c146100d15780638da5cb5b1461010a5780638ec3fda51461013b578063af640d0f146101c5578063d09ef241146101da575b005b610074610204565b34801561008a57600080fd5b5061009361024c565b60408051918252519081900360200190f35b610074600480360360408110156100bb57600080fd5b50600160a060020a038135169060200135610252565b3480156100dd57600080fd5b50610074600480360360408110156100f457600080fd5b50600160a060020a038135169060200135610470565b34801561011657600080fd5b5061011f6104ec565b60408051600160a060020a039092168252519081900360200190f35b34801561014757600080fd5b506101506104fb565b6040805160208082528351818301528351919283929083019185019080838360005b8381101561018a578181015183820152602001610172565b50505050905090810190601f1680156101b75780820380516001836020036101000a031916815260200191505b509250505060405180910390f35b3480156101d157600080fd5b50610093610591565b3480156101e657600080fd5b5061011f600480360360208110156101fd57600080fd5b5035610597565b600780543490810190915560008054604051600160a060020a039091169280156108fc0292909190818181858888f19350505050158015610249573d6000803e3d6000fd5b50565b60055481565b600054600160a060020a0316331461026957600080fd5b6000829050600081600160a060020a031663bd3e19d46040518163ffffffff1660e060020a02815260040160206040518083038186803b1580156102ac57600080fd5b505afa1580156102c0573d6000803e3d6000fd5b505050506040513d60208110156102d657600080fd5b505190503481111561034957604080517f08c379a000000000000000000000000000000000000000000000000000000000815260206004820152601d60248201527f6465706f7369742076616c7565206e6f74206869676820656e6f756768000000604482015290519081900360640190fd5b803411156103905760008054604051600160a060020a03909116913484900380156108fc02929091818181858888f1935050505015801561038e573d6000803e3d6000fd5b505b81600160a060020a031663f90a92e382856040518363ffffffff1660e060020a028152600401808281526020019150506000604051808303818588803b1580156103d957600080fd5b505af11580156103ed573d6000803e3d6000fd5b5050600554600090815260066020908152604091829020805473ffffffffffffffffffffffffffffffffffffffff1916600160a060020a038b16908117909155825190815291517faca812ac98be09141c2d6de4091ef0635d51c00ecd65eb8753b772be89a978dc9550918290030192509050a150506005805460010190555050565b600054600160a060020a0316331461048757600080fd5b81600160a060020a031663e9132c42826040518263ffffffff1660e060020a02815260040180828152602001915050600060405180830381600087803b1580156104d057600080fd5b505af11580156104e4573d6000803e3d6000fd5b505050505050565b600054600160a060020a031681565b60048054604080516020601f60026000196101006001881615020190951694909404938401819004810282018101909252828152606093909290918301828280156105875780601f1061055c57610100808354040283529160200191610587565b820191906000526020600020905b81548152906001019060200180831161056a57829003601f168201915b5050505050905090565b60025481565b60008054600160a060020a031633146105af57600080fd5b50600090815260066020526040902054600160a060020a03169056fea165627a7a72305820d6b69582bbad8d977a0e06b8641bb64a2f8dd324b9dc542c08bf09c0c4b8a5ec0029",
  "source": "pragma solidity ^0.5.0;\r\n\r\nimport \"./Order.sol\";\r\n\r\n// this should be done with inheritance for riders and customers\r\ncontract Rider {\r\n    \r\n    address payable public owner;\r\n    address controller; // do you even need this?\r\n\r\n    uint public id;\r\n    string name;\r\n    string private contactNumber;\r\n\r\n    uint public totalOrders;\r\n    mapping(uint => address) orders; // maybe change this to store order states??\r\n\r\n    uint totalPay;\r\n\r\n    enum riderState{unassigned, accepted, hasCargo, Delivered}\r\n\r\n    event deliveryOfferedEvent(address orderAddress);\r\n    \r\n    constructor(uint _id, string memory _name, string memory _contactNumber, address payable _owner, address _controller) public\r\n    {\r\n        id = _id;\r\n        name = _name;\r\n        contactNumber = _contactNumber;\r\n        owner = _owner; // this needs changing to the origin of the call\r\n        controller = _controller;\r\n        totalOrders = 0;\r\n    }\r\n    \r\n    // this function should be payable\r\n    function offerDelivery(address orderAddress,bytes32 keyHash) public payable{\r\n        require(msg.sender == owner);\r\n        Order orderInstance = Order(orderAddress);\r\n        uint cost = orderInstance.getCost();\r\n        require(msg.value >= cost, \"deposit value not high enough\");\r\n        if(msg.value > cost){\r\n            owner.transfer(msg.value - cost);\r\n        }\r\n\r\n        orderInstance.riderOfferDelivery.value(cost)(keyHash);\r\n        orders[totalOrders] = orderAddress;\r\n\r\n        emit deliveryOfferedEvent(orderAddress);\r\n\r\n        totalOrders++;\r\n    }\r\n\r\n    // could modify to send restaurant id + order id to reduce gas cost, maybe??\r\n    function setStatus(address orderAddress,uint status) public {\r\n        require(msg.sender == owner);\r\n        Order(orderAddress).setOrderStatus(status);\r\n    }\r\n\r\n    function getContactNumber() public view returns(string memory _contactNumber){\r\n        // require the sender of the message to be either the delivery worker or the the restaurant\r\n        return contactNumber;\r\n    }\r\n\r\n    function getOrder(uint _id) public view returns(address orderAddress){\r\n        require(msg.sender == owner);\r\n        return orders[_id];\r\n    }\r\n\r\n    function pay() external payable {\r\n        totalPay += msg.value;\r\n        owner.transfer(msg.value);\r\n    } \r\n\r\n    function() external payable {\r\n    }\r\n\r\n\r\n    \r\n    \r\n    \r\n    \r\n}",
  "sourcePath": "/home/george/Documents/University/Dissertation/TryAByte/contracts/Rider.sol",
  "compiler": {
    "name": "solc",
    "version": "0.5.0+commit.1d4f565a.Emscripten.clang"
  },
  "schemaVersion": "3.0.6",
  "updatedAt": "2019-04-13T18:06:51.993Z",
  "devdoc": {
    "methods": {}
  },
  "userdoc": {
    "methods": {}
  }
}