{
  "contractName": "Rider",
  "abi": [
    {
      "constant": true,
      "inputs": [],
      "name": "totalOrders",
      "outputs": [
        {
          "name": "",
          "type": "uint256"
        }
      ],
      "payable": false,
      "stateMutability": "view",
      "type": "function"
    },
    {
      "constant": true,
      "inputs": [],
      "name": "owner",
      "outputs": [
        {
          "name": "",
          "type": "address"
        }
      ],
      "payable": false,
      "stateMutability": "view",
      "type": "function"
    },
    {
      "constant": true,
      "inputs": [],
      "name": "id",
      "outputs": [
        {
          "name": "",
          "type": "uint256"
        }
      ],
      "payable": false,
      "stateMutability": "view",
      "type": "function"
    },
    {
      "inputs": [
        {
          "name": "_id",
          "type": "uint256"
        },
        {
          "name": "_name",
          "type": "string"
        },
        {
          "name": "_contactNumber",
          "type": "string"
        },
        {
          "name": "_owner",
          "type": "address"
        },
        {
          "name": "_controller",
          "type": "address"
        }
      ],
      "payable": false,
      "stateMutability": "nonpayable",
      "type": "constructor"
    },
    {
      "constant": false,
      "inputs": [
        {
          "name": "orderAddress",
          "type": "address"
        }
      ],
      "name": "offerDelivery",
      "outputs": [],
      "payable": false,
      "stateMutability": "nonpayable",
      "type": "function"
    },
    {
      "constant": false,
      "inputs": [
        {
          "name": "orderAddress",
          "type": "address"
        }
      ],
      "name": "pickupCargo",
      "outputs": [],
      "payable": false,
      "stateMutability": "nonpayable",
      "type": "function"
    },
    {
      "constant": false,
      "inputs": [
        {
          "name": "orderAddress",
          "type": "address"
        }
      ],
      "name": "dropOffCargo",
      "outputs": [],
      "payable": false,
      "stateMutability": "nonpayable",
      "type": "function"
    },
    {
      "constant": true,
      "inputs": [],
      "name": "getContactNumber",
      "outputs": [
        {
          "name": "_contactNumber",
          "type": "string"
        }
      ],
      "payable": false,
      "stateMutability": "view",
      "type": "function"
    }
  ],
  "bytecode": "0x608060405234801561001057600080fd5b5060405161094a38038061094a833981018060405260a081101561003357600080fd5b8101908080519060200190929190805164010000000081111561005557600080fd5b8281019050602081018481111561006b57600080fd5b815185600182028301116401000000008211171561008857600080fd5b505092919060200180516401000000008111156100a457600080fd5b828101905060208101848111156100ba57600080fd5b81518560018202830111640100000000821117156100d757600080fd5b505092919060200180519060200190929190805190602001909291905050508460028190555083600390805190602001906101139291906101be565b50826004908051906020019061012a9291906101be565b50816000806101000a81548173ffffffffffffffffffffffffffffffffffffffff021916908373ffffffffffffffffffffffffffffffffffffffff16021790555080600160006101000a81548173ffffffffffffffffffffffffffffffffffffffff021916908373ffffffffffffffffffffffffffffffffffffffff16021790555060006005819055505050505050610263565b828054600181600116156101000203166002900490600052602060002090601f016020900481019282601f106101ff57805160ff191683800117855561022d565b8280016001018555821561022d579182015b8281111561022c578251825591602001919060010190610211565b5b50905061023a919061023e565b5090565b61026091905b8082111561025c576000816000905550600101610244565b5090565b90565b6106d8806102726000396000f3fe608060405260043610610083576000357c0100000000000000000000000000000000000000000000000000000000900463ffffffff1680631d834409146100885780638da5cb5b146100b35780638ec3fda51461010a578063ac44f7bb1461019a578063af640d0f146101eb578063e5ef2d3114610216578063e9db4c8114610267575b600080fd5b34801561009457600080fd5b5061009d6102b8565b6040518082815260200191505060405180910390f35b3480156100bf57600080fd5b506100c86102be565b604051808273ffffffffffffffffffffffffffffffffffffffff1673ffffffffffffffffffffffffffffffffffffffff16815260200191505060405180910390f35b34801561011657600080fd5b5061011f6102e3565b6040518080602001828103825283818151815260200191508051906020019080838360005b8381101561015f578082015181840152602081019050610144565b50505050905090810190601f16801561018c5780820380516001836020036101000a031916815260200191505b509250505060405180910390f35b3480156101a657600080fd5b506101e9600480360360208110156101bd57600080fd5b81019080803573ffffffffffffffffffffffffffffffffffffffff169060200190929190505050610385565b005b3480156101f757600080fd5b50610200610476565b6040518082815260200191505060405180910390f35b34801561022257600080fd5b506102656004803603602081101561023957600080fd5b81019080803573ffffffffffffffffffffffffffffffffffffffff16906020019092919050505061047c565b005b34801561027357600080fd5b506102b66004803603602081101561028a57600080fd5b81019080803573ffffffffffffffffffffffffffffffffffffffff16906020019092919050505061056c565b005b60055481565b6000809054906101000a900473ffffffffffffffffffffffffffffffffffffffff1681565b606060048054600181600116156101000203166002900480601f01602080910402602001604051908101604052809291908181526020018280546001816001161561010002031660029004801561037b5780601f106103505761010080835404028352916020019161037b565b820191906000526020600020905b81548152906001019060200180831161035e57829003601f168201915b5050505050905090565b6000809054906101000a900473ffffffffffffffffffffffffffffffffffffffff1673ffffffffffffffffffffffffffffffffffffffff163373ffffffffffffffffffffffffffffffffffffffff161415156103e057600080fd5b8073ffffffffffffffffffffffffffffffffffffffff1663e9132c426002600381111561040957fe5b6040518263ffffffff167c010000000000000000000000000000000000000000000000000000000002815260040180828152602001915050600060405180830381600087803b15801561045b57600080fd5b505af115801561046f573d6000803e3d6000fd5b5050505050565b60025481565b6000809054906101000a900473ffffffffffffffffffffffffffffffffffffffff1673ffffffffffffffffffffffffffffffffffffffff163373ffffffffffffffffffffffffffffffffffffffff161415156104d757600080fd5b8073ffffffffffffffffffffffffffffffffffffffff1663e9132c426003808111156104ff57fe5b6040518263ffffffff167c010000000000000000000000000000000000000000000000000000000002815260040180828152602001915050600060405180830381600087803b15801561055157600080fd5b505af1158015610565573d6000803e3d6000fd5b5050505050565b6000809054906101000a900473ffffffffffffffffffffffffffffffffffffffff1673ffffffffffffffffffffffffffffffffffffffff163373ffffffffffffffffffffffffffffffffffffffff161415156105c757600080fd5b8073ffffffffffffffffffffffffffffffffffffffff1663c7529f0c6040518163ffffffff167c0100000000000000000000000000000000000000000000000000000000028152600401600060405180830381600087803b15801561062b57600080fd5b505af115801561063f573d6000803e3d6000fd5b505050508060066000600554815260200190815260200160002060006101000a81548173ffffffffffffffffffffffffffffffffffffffff021916908373ffffffffffffffffffffffffffffffffffffffff1602179055506005600081548092919060010191905055505056fea165627a7a723058200674941937cbfafff48d9e089151aca53cb0b09337ae589665b51abc8cd08f8f0029",
  "source": "pragma solidity ^0.5.0;\r\n\r\nimport \"./Order.sol\";\r\n\r\n// this should be done with inheritance for riders and customers\r\ncontract Rider {\r\n    \r\n    address public owner;\r\n    address controller; // do you even need this?\r\n\r\n    uint public id;\r\n    string name;\r\n    string private contactNumber;\r\n\r\n    uint public totalOrders;\r\n    mapping(uint => address) orders;\r\n\r\n    enum riderState{unassigned, accepted, hasCargo, Delivered}\r\n    \r\n    constructor(uint _id, string memory _name, string memory _contactNumber, address _owner, address _controller) public\r\n    {\r\n        id = _id;\r\n        name = _name;\r\n        contactNumber = _contactNumber;\r\n        owner = _owner; // this needs changing to the origin of the call\r\n        controller = _controller;\r\n        totalOrders = 0;\r\n    }\r\n    \r\n    // this function should be payable\r\n    function offerDelivery(address orderAddress) public {\r\n        require(msg.sender == owner);\r\n        Order(orderAddress).riderOfferDelivery();\r\n\r\n        orders[totalOrders] = orderAddress;\r\n        totalOrders++;\r\n    }\r\n\r\n    function pickupCargo(address orderAddress) public {\r\n        require(msg.sender == owner);\r\n        Order(orderAddress).setOrderStatus(uint(riderState.hasCargo));\r\n    }\r\n\r\n    function dropOffCargo(address orderAddress) public {\r\n        require(msg.sender == owner);\r\n        Order(orderAddress).setOrderStatus(uint(riderState.Delivered));\r\n    }\r\n\r\n    function getContactNumber() public view returns(string memory _contactNumber){\r\n        // require the sender of the message to be either the delivery worker or the the restaurant\r\n        return contactNumber;\r\n    }\r\n\r\n\r\n    \r\n    \r\n    \r\n    \r\n}",
  "sourcePath": "/home/george/Documents/University/Dissertation/TryAByte/contracts/Rider.sol",
  "compiler": {
    "name": "solc",
    "version": "0.5.0+commit.1d4f565a.Emscripten.clang"
  },
  "schemaVersion": "3.0.2",
  "updatedAt": "2019-03-13T14:06:34.078Z",
  "devdoc": {
    "methods": {}
  },
  "userdoc": {
    "methods": {}
  }
}