{
  "contractName": "Rider",
  "abi": [
    {
      "constant": true,
      "inputs": [],
      "name": "totalOrders",
      "outputs": [
        {
          "name": "",
          "type": "uint256"
        }
      ],
      "payable": false,
      "stateMutability": "view",
      "type": "function"
    },
    {
      "constant": true,
      "inputs": [],
      "name": "owner",
      "outputs": [
        {
          "name": "",
          "type": "address"
        }
      ],
      "payable": false,
      "stateMutability": "view",
      "type": "function"
    },
    {
      "constant": true,
      "inputs": [],
      "name": "id",
      "outputs": [
        {
          "name": "",
          "type": "uint256"
        }
      ],
      "payable": false,
      "stateMutability": "view",
      "type": "function"
    },
    {
      "inputs": [
        {
          "name": "_id",
          "type": "uint256"
        },
        {
          "name": "_name",
          "type": "string"
        },
        {
          "name": "_contactNumber",
          "type": "string"
        },
        {
          "name": "_owner",
          "type": "address"
        },
        {
          "name": "_controller",
          "type": "address"
        }
      ],
      "payable": false,
      "stateMutability": "nonpayable",
      "type": "constructor"
    },
    {
      "payable": true,
      "stateMutability": "payable",
      "type": "fallback"
    },
    {
      "constant": false,
      "inputs": [
        {
          "name": "orderAddress",
          "type": "address"
        }
      ],
      "name": "offerDelivery",
      "outputs": [],
      "payable": true,
      "stateMutability": "payable",
      "type": "function"
    },
    {
      "constant": false,
      "inputs": [
        {
          "name": "orderAddress",
          "type": "address"
        },
        {
          "name": "status",
          "type": "uint256"
        }
      ],
      "name": "setStatus",
      "outputs": [],
      "payable": false,
      "stateMutability": "nonpayable",
      "type": "function"
    },
    {
      "constant": true,
      "inputs": [],
      "name": "getContactNumber",
      "outputs": [
        {
          "name": "_contactNumber",
          "type": "string"
        }
      ],
      "payable": false,
      "stateMutability": "view",
      "type": "function"
    },
    {
      "constant": true,
      "inputs": [
        {
          "name": "_id",
          "type": "uint256"
        }
      ],
      "name": "getOrder",
      "outputs": [
        {
          "name": "orderAddress",
          "type": "address"
        }
      ],
      "payable": false,
      "stateMutability": "view",
      "type": "function"
    },
    {
      "constant": false,
      "inputs": [],
      "name": "pay",
      "outputs": [],
      "payable": true,
      "stateMutability": "payable",
      "type": "function"
    }
  ],
  "bytecode": "0x608060405234801561001057600080fd5b50604051610b2e380380610b2e833981018060405260a081101561003357600080fd5b8101908080519060200190929190805164010000000081111561005557600080fd5b8281019050602081018481111561006b57600080fd5b815185600182028301116401000000008211171561008857600080fd5b505092919060200180516401000000008111156100a457600080fd5b828101905060208101848111156100ba57600080fd5b81518560018202830111640100000000821117156100d757600080fd5b505092919060200180519060200190929190805190602001909291905050508460028190555083600390805190602001906101139291906101be565b50826004908051906020019061012a9291906101be565b50816000806101000a81548173ffffffffffffffffffffffffffffffffffffffff021916908373ffffffffffffffffffffffffffffffffffffffff16021790555080600160006101000a81548173ffffffffffffffffffffffffffffffffffffffff021916908373ffffffffffffffffffffffffffffffffffffffff16021790555060006005819055505050505050610263565b828054600181600116156101000203166002900490600052602060002090601f016020900481019282601f106101ff57805160ff191683800117855561022d565b8280016001018555821561022d579182015b8281111561022c578251825591602001919060010190610211565b5b50905061023a919061023e565b5090565b61026091905b8082111561025c576000816000905550600101610244565b5090565b90565b6108bc806102726000396000f3fe60806040526004361061008e576000357c0100000000000000000000000000000000000000000000000000000000900463ffffffff1680631b9265b8146100905780631d8344091461009a5780637e55d59c146100c55780638da5cb5b146101205780638ec3fda514610177578063af640d0f14610207578063d09ef24114610232578063e9db4c81146102ad575b005b6100986102f1565b005b3480156100a657600080fd5b506100af61036b565b6040518082815260200191505060405180910390f35b3480156100d157600080fd5b5061011e600480360360408110156100e857600080fd5b81019080803573ffffffffffffffffffffffffffffffffffffffff16906020019092919080359060200190929190505050610371565b005b34801561012c57600080fd5b50610135610457565b604051808273ffffffffffffffffffffffffffffffffffffffff1673ffffffffffffffffffffffffffffffffffffffff16815260200191505060405180910390f35b34801561018357600080fd5b5061018c61047c565b6040518080602001828103825283818151815260200191508051906020019080838360005b838110156101cc5780820151818401526020810190506101b1565b50505050905090810190601f1680156101f95780820380516001836020036101000a031916815260200191505b509250505060405180910390f35b34801561021357600080fd5b5061021c61051e565b6040518082815260200191505060405180910390f35b34801561023e57600080fd5b5061026b6004803603602081101561025557600080fd5b8101908080359060200190929190505050610524565b604051808273ffffffffffffffffffffffffffffffffffffffff1673ffffffffffffffffffffffffffffffffffffffff16815260200191505060405180910390f35b6102ef600480360360208110156102c357600080fd5b81019080803573ffffffffffffffffffffffffffffffffffffffff1690602001909291905050506105bc565b005b346007600082825401925050819055506000809054906101000a900473ffffffffffffffffffffffffffffffffffffffff1673ffffffffffffffffffffffffffffffffffffffff166108fc349081150290604051600060405180830381858888f19350505050158015610368573d6000803e3d6000fd5b50565b60055481565b6000809054906101000a900473ffffffffffffffffffffffffffffffffffffffff1673ffffffffffffffffffffffffffffffffffffffff163373ffffffffffffffffffffffffffffffffffffffff161415156103cc57600080fd5b8173ffffffffffffffffffffffffffffffffffffffff1663e9132c42826040518263ffffffff167c010000000000000000000000000000000000000000000000000000000002815260040180828152602001915050600060405180830381600087803b15801561043b57600080fd5b505af115801561044f573d6000803e3d6000fd5b505050505050565b6000809054906101000a900473ffffffffffffffffffffffffffffffffffffffff1681565b606060048054600181600116156101000203166002900480601f0160208091040260200160405190810160405280929190818152602001828054600181600116156101000203166002900480156105145780601f106104e957610100808354040283529160200191610514565b820191906000526020600020905b8154815290600101906020018083116104f757829003601f168201915b5050505050905090565b60025481565b60008060009054906101000a900473ffffffffffffffffffffffffffffffffffffffff1673ffffffffffffffffffffffffffffffffffffffff163373ffffffffffffffffffffffffffffffffffffffff1614151561058157600080fd5b6006600083815260200190815260200160002060009054906101000a900473ffffffffffffffffffffffffffffffffffffffff169050919050565b6000809054906101000a900473ffffffffffffffffffffffffffffffffffffffff1673ffffffffffffffffffffffffffffffffffffffff163373ffffffffffffffffffffffffffffffffffffffff1614151561061757600080fd5b600081905060008173ffffffffffffffffffffffffffffffffffffffff1663bd3e19d46040518163ffffffff167c010000000000000000000000000000000000000000000000000000000002815260040160206040518083038186803b15801561068057600080fd5b505afa158015610694573d6000803e3d6000fd5b505050506040513d60208110156106aa57600080fd5b81019080805190602001909291905050509050803410151515610735576040517f08c379a000000000000000000000000000000000000000000000000000000000815260040180806020018281038252601d8152602001807f6465706f7369742076616c7565206e6f74206869676820656e6f75676800000081525060200191505060405180910390fd5b803411156107a8576000809054906101000a900473ffffffffffffffffffffffffffffffffffffffff1673ffffffffffffffffffffffffffffffffffffffff166108fc8234039081150290604051600060405180830381858888f193505050501580156107a6573d6000803e3d6000fd5b505b8173ffffffffffffffffffffffffffffffffffffffff1663c7529f0c826040518263ffffffff167c01000000000000000000000000000000000000000000000000000000000281526004016000604051808303818588803b15801561080c57600080fd5b505af1158015610820573d6000803e3d6000fd5b50505050508260066000600554815260200190815260200160002060006101000a81548173ffffffffffffffffffffffffffffffffffffffff021916908373ffffffffffffffffffffffffffffffffffffffff16021790555060056000815480929190600101919050555050505056fea165627a7a723058200f5dc89bdb1ff5dea7e716789501b8b45d91527a691d0ef33f7c52ae14daca900029",
  "source": "pragma solidity ^0.5.0;\r\n\r\nimport \"./Order.sol\";\r\n\r\n// this should be done with inheritance for riders and customers\r\ncontract Rider {\r\n    \r\n    address payable public owner;\r\n    address controller; // do you even need this?\r\n\r\n    uint public id;\r\n    string name;\r\n    string private contactNumber;\r\n\r\n    uint public totalOrders;\r\n    mapping(uint => address) orders; // maybe change this to store order states??\r\n\r\n    uint totalPay;\r\n\r\n    enum riderState{unassigned, accepted, hasCargo, Delivered}\r\n    \r\n    constructor(uint _id, string memory _name, string memory _contactNumber, address payable _owner, address _controller) public\r\n    {\r\n        id = _id;\r\n        name = _name;\r\n        contactNumber = _contactNumber;\r\n        owner = _owner; // this needs changing to the origin of the call\r\n        controller = _controller;\r\n        totalOrders = 0;\r\n    }\r\n    \r\n    // this function should be payable\r\n    function offerDelivery(address orderAddress) public payable{\r\n        require(msg.sender == owner);\r\n        Order orderInstance = Order(orderAddress);\r\n        uint cost = orderInstance.getCost();\r\n        require(msg.value >= cost, \"deposit value not high enough\");\r\n        if(msg.value > cost){\r\n            owner.transfer(msg.value - cost);\r\n        }\r\n\r\n        orderInstance.riderOfferDelivery.value(cost)();\r\n        orders[totalOrders] = orderAddress;\r\n        totalOrders++;\r\n    }\r\n\r\n    // could modify to send restaurant id + order id to reduce gas cost, maybe??\r\n    function setStatus(address orderAddress,uint status) public {\r\n        require(msg.sender == owner);\r\n        Order(orderAddress).setOrderStatus(status);\r\n    }\r\n\r\n    function getContactNumber() public view returns(string memory _contactNumber){\r\n        // require the sender of the message to be either the delivery worker or the the restaurant\r\n        return contactNumber;\r\n    }\r\n\r\n    function getOrder(uint _id) public view returns(address orderAddress){\r\n        require(msg.sender == owner);\r\n        return orders[_id];\r\n    }\r\n\r\n    function pay() external payable {\r\n        totalPay += msg.value;\r\n        owner.transfer(msg.value);\r\n    } \r\n\r\n    function() external payable {\r\n    }\r\n\r\n\r\n    \r\n    \r\n    \r\n    \r\n}",
  "sourcePath": "/home/george/Documents/University/Dissertation/TryAByte/contracts/Rider.sol",
  "compiler": {
    "name": "solc",
    "version": "0.5.0+commit.1d4f565a.Emscripten.clang"
  },
  "schemaVersion": "3.0.2",
  "updatedAt": "2019-04-01T10:18:03.282Z",
  "devdoc": {
    "methods": {}
  },
  "userdoc": {
    "methods": {}
  }
}