{
  "contractName": "Test",
  "abi": [
    {
      "anonymous": false,
      "inputs": [
        {
          "indexed": false,
          "name": "eventString",
          "type": "string"
        }
      ],
      "name": "testEvent",
      "type": "event",
      "signature": "0x4c2aaf95bd72b0b4730a09397fa14d7c339e8b90471d39e1ec89baed0628ed24"
    },
    {
      "constant": true,
      "inputs": [
        {
          "name": "data",
          "type": "bytes32"
        }
      ],
      "name": "getHash",
      "outputs": [
        {
          "name": "",
          "type": "bytes32"
        }
      ],
      "payable": false,
      "stateMutability": "view",
      "type": "function",
      "signature": "0x3cf5040a"
    },
    {
      "constant": false,
      "inputs": [],
      "name": "emitEvent",
      "outputs": [],
      "payable": false,
      "stateMutability": "nonpayable",
      "type": "function",
      "signature": "0x7b0cb839"
    },
    {
      "constant": false,
      "inputs": [
        {
          "name": "a",
          "type": "bytes32"
        }
      ],
      "name": "compareBytes32",
      "outputs": [
        {
          "name": "",
          "type": "bool"
        }
      ],
      "payable": false,
      "stateMutability": "nonpayable",
      "type": "function",
      "signature": "0x9667c233"
    }
  ],
  "bytecode": "0x608060405234801561001057600080fd5b506101df806100206000396000f3fe6080604052600436106100565763ffffffff7c01000000000000000000000000000000000000000000000000000000006000350416633cf5040a811461005b5780637b0cb839146100975780639667c233146100ae575b600080fd5b34801561006757600080fd5b506100856004803603602081101561007e57600080fd5b50356100ec565b60408051918252519081900360200190f35b3480156100a357600080fd5b506100ac61012c565b005b3480156100ba57600080fd5b506100d8600480360360208110156100d157600080fd5b503561018e565b604080519115158252519081900360200190f35b60408051306c0100000000000000000000000002602080830191909152603480830194909452825180830390940184526054909101909152815191012090565b604080516020808252600e908201527f74686973206973206120746573740000000000000000000000000000000000008183015290517f4c2aaf95bd72b0b4730a09397fa14d7c339e8b90471d39e1ec89baed0628ed249181900360600190a1565b7f6c61726765000000000000000000000000000000000000000000000000000000149056fea165627a7a723058203cb6227c88c8cc32e40a010046d99875327c5ba8890029be92c3d7ca243f9fe80029",
  "source": "pragma solidity ^0.5.0;\n\ncontract Test{\n\n\n\tfunction getHash(bytes32 data) public view returns(bytes32){\n\t\treturn keccak256(abi.encodePacked(address(this),data));\n\t}\n\n\tevent testEvent(string eventString);\n\n\tfunction emitEvent() public {\n\t\temit testEvent(\"this is a test\");\n\t}\n\n\tfunction compareBytes32(bytes32 a) public returns(bool) {\n\t\treturn (a == \"large\"); \n\t}\n}",
  "sourcePath": "/home/george/Documents/WorkSpace/TryAByte/contracts/Test.sol",
  "compiler": {
    "name": "solc",
    "version": "0.5.0+commit.1d4f565a.Emscripten.clang"
  },
  "schemaVersion": "3.0.6",
  "updatedAt": "2019-10-10T13:33:14.960Z",
  "devdoc": {
    "methods": {}
  },
  "userdoc": {
    "methods": {}
  }
}