{
  "contractName": "Test",
  "abi": [
    {
      "constant": true,
      "inputs": [
        {
          "name": "data",
          "type": "bytes32"
        }
      ],
      "name": "getHash",
      "outputs": [
        {
          "name": "",
          "type": "bytes32"
        }
      ],
      "payable": false,
      "stateMutability": "view",
      "type": "function",
      "signature": "0x3cf5040a"
    }
  ],
  "bytecode": "0x608060405234801561001057600080fd5b5060eb8061001f6000396000f3fe608060405260043610603f576000357c0100000000000000000000000000000000000000000000000000000000900463ffffffff1680633cf5040a146044575b600080fd5b348015604f57600080fd5b50607960048036036020811015606457600080fd5b8101908080359060200190929190505050608f565b6040518082815260200191505060405180910390f35b6000816040516020018082815260200191505060405160208183030381529060405280519060200120905091905056fea165627a7a723058209406b4da63f6c19953e7cf9a5e2bcc1173d85781dce0d159f682d035f441691d0029",
  "source": "pragma solidity ^0.5.0;\n\ncontract Test{\n\n\n\tfunction getHash(bytes32 data) public view returns(bytes32){\n\t\treturn keccak256(abi.encodePacked(data));\n\t}\n}",
  "sourcePath": "/home/george/Documents/University/Dissertation/TryAByte/contracts/Test.sol",
  "compiler": {
    "name": "solc",
    "version": "0.5.0+commit.1d4f565a.Emscripten.clang"
  },
  "schemaVersion": "3.0.6",
  "updatedAt": "2019-04-05T19:06:04.101Z",
  "devdoc": {
    "methods": {}
  },
  "userdoc": {
    "methods": {}
  }
}